{
	"contracts/MicroToken.sol": {
		"MicroToken": {
			"abi": [
				{
					"inputs": [],
					"stateMutability": "nonpayable",
					"type": "constructor"
				},
				{
					"anonymous": false,
					"inputs": [
						{
							"indexed": true,
							"internalType": "address",
							"name": "owner",
							"type": "address"
						},
						{
							"indexed": true,
							"internalType": "address",
							"name": "spender",
							"type": "address"
						},
						{
							"indexed": false,
							"internalType": "uint256",
							"name": "value",
							"type": "uint256"
						}
					],
					"name": "Approval",
					"type": "event"
				},
				{
					"anonymous": false,
					"inputs": [
						{
							"indexed": true,
							"internalType": "address",
							"name": "from",
							"type": "address"
						},
						{
							"indexed": true,
							"internalType": "address",
							"name": "to",
							"type": "address"
						},
						{
							"indexed": false,
							"internalType": "uint256",
							"name": "value",
							"type": "uint256"
						}
					],
					"name": "Transfer",
					"type": "event"
				},
				{
					"inputs": [
						{
							"internalType": "address",
							"name": "",
							"type": "address"
						},
						{
							"internalType": "address",
							"name": "",
							"type": "address"
						}
					],
					"name": "__allowances",
					"outputs": [
						{
							"internalType": "uint256",
							"name": "",
							"type": "uint256"
						}
					],
					"stateMutability": "view",
					"type": "function"
				},
				{
					"inputs": [
						{
							"internalType": "address",
							"name": "",
							"type": "address"
						}
					],
					"name": "__balanceOf",
					"outputs": [
						{
							"internalType": "uint256",
							"name": "",
							"type": "uint256"
						}
					],
					"stateMutability": "view",
					"type": "function"
				},
				{
					"inputs": [
						{
							"internalType": "address",
							"name": "_owner",
							"type": "address"
						},
						{
							"internalType": "address",
							"name": "_spender",
							"type": "address"
						}
					],
					"name": "allowance",
					"outputs": [
						{
							"internalType": "uint256",
							"name": "remaining",
							"type": "uint256"
						}
					],
					"stateMutability": "view",
					"type": "function"
				},
				{
					"inputs": [
						{
							"internalType": "address",
							"name": "_spender",
							"type": "address"
						},
						{
							"internalType": "uint256",
							"name": "_value",
							"type": "uint256"
						}
					],
					"name": "approve",
					"outputs": [
						{
							"internalType": "bool",
							"name": "success",
							"type": "bool"
						}
					],
					"stateMutability": "nonpayable",
					"type": "function"
				},
				{
					"inputs": [
						{
							"internalType": "address",
							"name": "_addr",
							"type": "address"
						}
					],
					"name": "balanceOf",
					"outputs": [
						{
							"internalType": "uint256",
							"name": "balance",
							"type": "uint256"
						}
					],
					"stateMutability": "view",
					"type": "function"
				},
				{
					"inputs": [],
					"name": "decimals",
					"outputs": [
						{
							"internalType": "uint8",
							"name": "",
							"type": "uint8"
						}
					],
					"stateMutability": "view",
					"type": "function"
				},
				{
					"inputs": [],
					"name": "name",
					"outputs": [
						{
							"internalType": "string",
							"name": "",
							"type": "string"
						}
					],
					"stateMutability": "view",
					"type": "function"
				},
				{
					"inputs": [],
					"name": "symbol",
					"outputs": [
						{
							"internalType": "string",
							"name": "",
							"type": "string"
						}
					],
					"stateMutability": "view",
					"type": "function"
				},
				{
					"inputs": [],
					"name": "totalSupply",
					"outputs": [
						{
							"internalType": "uint256",
							"name": "_totalSupply",
							"type": "uint256"
						}
					],
					"stateMutability": "pure",
					"type": "function"
				},
				{
					"inputs": [
						{
							"internalType": "address",
							"name": "_to",
							"type": "address"
						},
						{
							"internalType": "uint256",
							"name": "_value",
							"type": "uint256"
						}
					],
					"name": "transfer",
					"outputs": [
						{
							"internalType": "bool",
							"name": "success",
							"type": "bool"
						}
					],
					"stateMutability": "nonpayable",
					"type": "function"
				},
				{
					"inputs": [
						{
							"internalType": "address",
							"name": "_from",
							"type": "address"
						},
						{
							"internalType": "address",
							"name": "_to",
							"type": "address"
						},
						{
							"internalType": "uint256",
							"name": "_value",
							"type": "uint256"
						}
					],
					"name": "transferFrom",
					"outputs": [
						{
							"internalType": "bool",
							"name": "success",
							"type": "bool"
						}
					],
					"stateMutability": "nonpayable",
					"type": "function"
				}
			],
			"devdoc": {
				"kind": "dev",
				"methods": {
					"totalSupply()": {
						"details": "Returns the amount of tokens in existence."
					}
				},
				"version": 1
			},
			"evm": {
				"assembly": "    /* \"contracts/MicroToken.sol\":127:2035  contract MicroToken is IERC20 {... */\n  mstore(0x40, 0x80)\n    /* \"contracts/MicroToken.sol\":565:639  constructor() {... */\n  callvalue\n  dup1\n  iszero\n  tag_1\n  jumpi\n  0x00\n  dup1\n  revert\ntag_1:\n  pop\n    /* \"contracts/MicroToken.sol\":340:344  1000 */\n  0x03e8\n    /* \"contracts/MicroToken.sol\":593:604  __balanceOf */\n  0x00\n    /* \"contracts/MicroToken.sol\":593:616  __balanceOf[msg.sender] */\n  dup1\n    /* \"contracts/MicroToken.sol\":605:615  msg.sender */\n  caller\n    /* \"contracts/MicroToken.sol\":593:616  __balanceOf[msg.sender] */\n  0xffffffffffffffffffffffffffffffffffffffff\n  and\n  0xffffffffffffffffffffffffffffffffffffffff\n  and\n  dup2\n  mstore\n  0x20\n  add\n  swap1\n  dup2\n  mstore\n  0x20\n  add\n  0x00\n  keccak256\n    /* \"contracts/MicroToken.sol\":593:632  __balanceOf[msg.sender] = __totalSupply */\n  dup2\n  swap1\n  sstore\n  pop\n    /* \"contracts/MicroToken.sol\":127:2035  contract MicroToken is IERC20 {... */\n  dataSize(sub_0)\n  dup1\n  dataOffset(sub_0)\n  0x00\n  codecopy\n  0x00\n  return\nstop\n\nsub_0: assembly {\n        /* \"contracts/MicroToken.sol\":127:2035  contract MicroToken is IERC20 {... */\n      mstore(0x40, 0x80)\n      callvalue\n      dup1\n      iszero\n      tag_1\n      jumpi\n      0x00\n      dup1\n      revert\n    tag_1:\n      pop\n      jumpi(tag_2, lt(calldatasize, 0x04))\n      shr(0xe0, calldataload(0x00))\n      dup1\n      0x70a08231\n      gt\n      tag_14\n      jumpi\n      dup1\n      0x70a08231\n      eq\n      tag_8\n      jumpi\n      dup1\n      0x95d89b41\n      eq\n      tag_9\n      jumpi\n      dup1\n      0xa9059cbb\n      eq\n      tag_10\n      jumpi\n      dup1\n      0xb3a80925\n      eq\n      tag_11\n      jumpi\n      dup1\n      0xdd62ed3e\n      eq\n      tag_12\n      jumpi\n      dup1\n      0xeca68bf9\n      eq\n      tag_13\n      jumpi\n      jump(tag_2)\n    tag_14:\n      dup1\n      0x06fdde03\n      eq\n      tag_3\n      jumpi\n      dup1\n      0x095ea7b3\n      eq\n      tag_4\n      jumpi\n      dup1\n      0x18160ddd\n      eq\n      tag_5\n      jumpi\n      dup1\n      0x23b872dd\n      eq\n      tag_6\n      jumpi\n      dup1\n      0x313ce567\n      eq\n      tag_7\n      jumpi\n    tag_2:\n      0x00\n      dup1\n      revert\n        /* \"contracts/MicroToken.sol\":206:256  string public constant name = \"Microfinance Token\" */\n    tag_3:\n      tag_15\n      tag_16\n      jump\t// in\n    tag_15:\n      mload(0x40)\n      tag_17\n      swap2\n      swap1\n      tag_18\n      jump\t// in\n    tag_17:\n      mload(0x40)\n      dup1\n      swap2\n      sub\n      swap1\n      return\n        /* \"contracts/MicroToken.sol\":1686:1858  function approve(address _spender, uint _value) public override returns... */\n    tag_4:\n      tag_19\n      0x04\n      dup1\n      calldatasize\n      sub\n      dup2\n      add\n      swap1\n      tag_20\n      swap2\n      swap1\n      tag_21\n      jump\t// in\n    tag_20:\n      tag_22\n      jump\t// in\n    tag_19:\n      mload(0x40)\n      tag_23\n      swap2\n      swap1\n      tag_24\n      jump\t// in\n    tag_23:\n      mload(0x40)\n      dup1\n      swap2\n      sub\n      swap1\n      return\n        /* \"contracts/MicroToken.sol\":644:753  function totalSupply() public pure override returns (uint _totalSupply) { _totalSupply = __totalSupply;... */\n    tag_5:\n      tag_25\n      tag_26\n      jump\t// in\n    tag_25:\n      mload(0x40)\n      tag_27\n      swap2\n      swap1\n      tag_28\n      jump\t// in\n    tag_27:\n      mload(0x40)\n      dup1\n      swap2\n      sub\n      swap1\n      return\n        /* \"contracts/MicroToken.sol\":1187:1675  function transferFrom(address _from, address _to, uint _value) public override returns (bool success) {... */\n    tag_6:\n      tag_29\n      0x04\n      dup1\n      calldatasize\n      sub\n      dup2\n      add\n      swap1\n      tag_30\n      swap2\n      swap1\n      tag_31\n      jump\t// in\n    tag_30:\n      tag_32\n      jump\t// in\n    tag_29:\n      mload(0x40)\n      tag_33\n      swap2\n      swap1\n      tag_24\n      jump\t// in\n    tag_33:\n      mload(0x40)\n      dup1\n      swap2\n      sub\n      swap1\n      return\n        /* \"contracts/MicroToken.sol\":262:296  uint8 public constant decimals = 0 */\n    tag_7:\n      tag_34\n      tag_35\n      jump\t// in\n    tag_34:\n      mload(0x40)\n      tag_36\n      swap2\n      swap1\n      tag_37\n      jump\t// in\n    tag_36:\n      mload(0x40)\n      dup1\n      swap2\n      sub\n      swap1\n      return\n        /* \"contracts/MicroToken.sol\":758:882  function balanceOf(address _addr) public view override returns (uint... */\n    tag_8:\n      tag_38\n      0x04\n      dup1\n      calldatasize\n      sub\n      dup2\n      add\n      swap1\n      tag_39\n      swap2\n      swap1\n      tag_40\n      jump\t// in\n    tag_39:\n      tag_41\n      jump\t// in\n    tag_38:\n      mload(0x40)\n      tag_42\n      swap2\n      swap1\n      tag_28\n      jump\t// in\n    tag_42:\n      mload(0x40)\n      dup1\n      swap2\n      sub\n      swap1\n      return\n        /* \"contracts/MicroToken.sol\":163:200  string public constant symbol = \"MFT\" */\n    tag_9:\n      tag_43\n      tag_44\n      jump\t// in\n    tag_43:\n      mload(0x40)\n      tag_45\n      swap2\n      swap1\n      tag_18\n      jump\t// in\n    tag_45:\n      mload(0x40)\n      dup1\n      swap2\n      sub\n      swap1\n      return\n        /* \"contracts/MicroToken.sol\":887:1182  function transfer(address _to, uint _value) public override returns (bool... */\n    tag_10:\n      tag_46\n      0x04\n      dup1\n      calldatasize\n      sub\n      dup2\n      add\n      swap1\n      tag_47\n      swap2\n      swap1\n      tag_21\n      jump\t// in\n    tag_47:\n      tag_48\n      jump\t// in\n    tag_46:\n      mload(0x40)\n      tag_49\n      swap2\n      swap1\n      tag_24\n      jump\t// in\n    tag_49:\n      mload(0x40)\n      dup1\n      swap2\n      sub\n      swap1\n      return\n        /* \"contracts/MicroToken.sol\":453:519  mapping (address => mapping (address => uint)) public __allowances */\n    tag_11:\n      tag_50\n      0x04\n      dup1\n      calldatasize\n      sub\n      dup2\n      add\n      swap1\n      tag_51\n      swap2\n      swap1\n      tag_52\n      jump\t// in\n    tag_51:\n      tag_53\n      jump\t// in\n    tag_50:\n      mload(0x40)\n      tag_54\n      swap2\n      swap1\n      tag_28\n      jump\t// in\n    tag_54:\n      mload(0x40)\n      dup1\n      swap2\n      sub\n      swap1\n      return\n        /* \"contracts/MicroToken.sol\":1863:2028  function allowance(address _owner, address _spender)... */\n    tag_12:\n      tag_55\n      0x04\n      dup1\n      calldatasize\n      sub\n      dup2\n      add\n      swap1\n      tag_56\n      swap2\n      swap1\n      tag_52\n      jump\t// in\n    tag_56:\n      tag_57\n      jump\t// in\n    tag_55:\n      mload(0x40)\n      tag_58\n      swap2\n      swap1\n      tag_28\n      jump\t// in\n    tag_58:\n      mload(0x40)\n      dup1\n      swap2\n      sub\n      swap1\n      return\n        /* \"contracts/MicroToken.sol\":350:394  mapping (address => uint) public __balanceOf */\n    tag_13:\n      tag_59\n      0x04\n      dup1\n      calldatasize\n      sub\n      dup2\n      add\n      swap1\n      tag_60\n      swap2\n      swap1\n      tag_40\n      jump\t// in\n    tag_60:\n      tag_61\n      jump\t// in\n    tag_59:\n      mload(0x40)\n      tag_62\n      swap2\n      swap1\n      tag_28\n      jump\t// in\n    tag_62:\n      mload(0x40)\n      dup1\n      swap2\n      sub\n      swap1\n      return\n        /* \"contracts/MicroToken.sol\":206:256  string public constant name = \"Microfinance Token\" */\n    tag_16:\n      mload(0x40)\n      dup1\n      0x40\n      add\n      0x40\n      mstore\n      dup1\n      0x12\n      dup2\n      mstore\n      0x20\n      add\n      0x4d6963726f66696e616e636520546f6b656e0000000000000000000000000000\n      dup2\n      mstore\n      pop\n      dup2\n      jump\t// out\n        /* \"contracts/MicroToken.sol\":1686:1858  function approve(address _spender, uint _value) public override returns... */\n    tag_22:\n        /* \"contracts/MicroToken.sol\":1763:1775  bool success */\n      0x00\n        /* \"contracts/MicroToken.sol\":1824:1830  _value */\n      dup2\n        /* \"contracts/MicroToken.sol\":1787:1799  __allowances */\n      0x01\n        /* \"contracts/MicroToken.sol\":1787:1811  __allowances[msg.sender] */\n      0x00\n        /* \"contracts/MicroToken.sol\":1800:1810  msg.sender */\n      caller\n        /* \"contracts/MicroToken.sol\":1787:1811  __allowances[msg.sender] */\n      0xffffffffffffffffffffffffffffffffffffffff\n      and\n      0xffffffffffffffffffffffffffffffffffffffff\n      and\n      dup2\n      mstore\n      0x20\n      add\n      swap1\n      dup2\n      mstore\n      0x20\n      add\n      0x00\n      keccak256\n        /* \"contracts/MicroToken.sol\":1787:1821  __allowances[msg.sender][_spender] */\n      0x00\n        /* \"contracts/MicroToken.sol\":1812:1820  _spender */\n      dup6\n        /* \"contracts/MicroToken.sol\":1787:1821  __allowances[msg.sender][_spender] */\n      0xffffffffffffffffffffffffffffffffffffffff\n      and\n      0xffffffffffffffffffffffffffffffffffffffff\n      and\n      dup2\n      mstore\n      0x20\n      add\n      swap1\n      dup2\n      mstore\n      0x20\n      add\n      0x00\n      keccak256\n        /* \"contracts/MicroToken.sol\":1787:1830  __allowances[msg.sender][_spender] = _value */\n      dup2\n      swap1\n      sstore\n      pop\n        /* \"contracts/MicroToken.sol\":1847:1851  true */\n      0x01\n        /* \"contracts/MicroToken.sol\":1840:1851  return true */\n      swap1\n      pop\n        /* \"contracts/MicroToken.sol\":1686:1858  function approve(address _spender, uint _value) public override returns... */\n      swap3\n      swap2\n      pop\n      pop\n      jump\t// out\n        /* \"contracts/MicroToken.sol\":644:753  function totalSupply() public pure override returns (uint _totalSupply) { _totalSupply = __totalSupply;... */\n    tag_26:\n        /* \"contracts/MicroToken.sol\":697:714  uint _totalSupply */\n      0x00\n        /* \"contracts/MicroToken.sol\":340:344  1000 */\n      0x03e8\n        /* \"contracts/MicroToken.sol\":718:746  _totalSupply = __totalSupply */\n      swap1\n      pop\n        /* \"contracts/MicroToken.sol\":644:753  function totalSupply() public pure override returns (uint _totalSupply) { _totalSupply = __totalSupply;... */\n      swap1\n      jump\t// out\n        /* \"contracts/MicroToken.sol\":1187:1675  function transferFrom(address _from, address _to, uint _value) public override returns (bool success) {... */\n    tag_32:\n        /* \"contracts/MicroToken.sol\":1275:1287  bool success */\n      0x00\n        /* \"contracts/MicroToken.sol\":1380:1381  0 */\n      dup1\n        /* \"contracts/MicroToken.sol\":1371:1377  _value */\n      dup3\n        /* \"contracts/MicroToken.sol\":1371:1381  _value > 0 */\n      gt\n        /* \"contracts/MicroToken.sol\":1371:1413  _value > 0 && __balanceOf[_from] >= _value */\n      dup1\n      iszero\n      tag_66\n      jumpi\n      pop\n        /* \"contracts/MicroToken.sol\":1407:1413  _value */\n      dup2\n        /* \"contracts/MicroToken.sol\":1385:1396  __balanceOf */\n      0x00\n        /* \"contracts/MicroToken.sol\":1385:1403  __balanceOf[_from] */\n      dup1\n        /* \"contracts/MicroToken.sol\":1397:1402  _from */\n      dup7\n        /* \"contracts/MicroToken.sol\":1385:1403  __balanceOf[_from] */\n      0xffffffffffffffffffffffffffffffffffffffff\n      and\n      0xffffffffffffffffffffffffffffffffffffffff\n      and\n      dup2\n      mstore\n      0x20\n      add\n      swap1\n      dup2\n      mstore\n      0x20\n      add\n      0x00\n      keccak256\n      sload\n        /* \"contracts/MicroToken.sol\":1385:1413  __balanceOf[_from] >= _value */\n      lt\n      iszero\n        /* \"contracts/MicroToken.sol\":1371:1413  _value > 0 && __balanceOf[_from] >= _value */\n    tag_66:\n        /* \"contracts/MicroToken.sol\":1363:1491  require(_value > 0 && __balanceOf[_from] >= _value, \"Value must be greater than 0 and user balance must be greater than value!\") */\n      tag_67\n      jumpi\n      mload(0x40)\n      0x08c379a000000000000000000000000000000000000000000000000000000000\n      dup2\n      mstore\n      0x04\n      add\n      tag_68\n      swap1\n      tag_69\n      jump\t// in\n    tag_68:\n      mload(0x40)\n      dup1\n      swap2\n      sub\n      swap1\n      revert\n    tag_67:\n        /* \"contracts/MicroToken.sol\":1524:1530  _value */\n      dup2\n        /* \"contracts/MicroToken.sol\":1502:1513  __balanceOf */\n      0x00\n        /* \"contracts/MicroToken.sol\":1502:1520  __balanceOf[_from] */\n      dup1\n        /* \"contracts/MicroToken.sol\":1514:1519  _from */\n      dup7\n        /* \"contracts/MicroToken.sol\":1502:1520  __balanceOf[_from] */\n      0xffffffffffffffffffffffffffffffffffffffff\n      and\n      0xffffffffffffffffffffffffffffffffffffffff\n      and\n      dup2\n      mstore\n      0x20\n      add\n      swap1\n      dup2\n      mstore\n      0x20\n      add\n      0x00\n      keccak256\n      0x00\n        /* \"contracts/MicroToken.sol\":1502:1530  __balanceOf[_from] -= _value */\n      dup3\n      dup3\n      sload\n      tag_70\n      swap2\n      swap1\n      tag_71\n      jump\t// in\n    tag_70:\n      swap3\n      pop\n      pop\n      dup2\n      swap1\n      sstore\n      pop\n        /* \"contracts/MicroToken.sol\":1560:1566  _value */\n      dup2\n        /* \"contracts/MicroToken.sol\":1540:1551  __balanceOf */\n      0x00\n        /* \"contracts/MicroToken.sol\":1540:1556  __balanceOf[_to] */\n      dup1\n        /* \"contracts/MicroToken.sol\":1552:1555  _to */\n      dup6\n        /* \"contracts/MicroToken.sol\":1540:1556  __balanceOf[_to] */\n      0xffffffffffffffffffffffffffffffffffffffff\n      and\n      0xffffffffffffffffffffffffffffffffffffffff\n      and\n      dup2\n      mstore\n      0x20\n      add\n      swap1\n      dup2\n      mstore\n      0x20\n      add\n      0x00\n      keccak256\n      0x00\n        /* \"contracts/MicroToken.sol\":1540:1566  __balanceOf[_to] += _value */\n      dup3\n      dup3\n      sload\n      tag_72\n      swap2\n      swap1\n      tag_73\n      jump\t// in\n    tag_72:\n      swap3\n      pop\n      pop\n      dup2\n      swap1\n      sstore\n      pop\n        /* \"contracts/MicroToken.sol\":1640:1644  true */\n      0x01\n        /* \"contracts/MicroToken.sol\":1633:1644  return true */\n      swap1\n      pop\n        /* \"contracts/MicroToken.sol\":1187:1675  function transferFrom(address _from, address _to, uint _value) public override returns (bool success) {... */\n      swap4\n      swap3\n      pop\n      pop\n      pop\n      jump\t// out\n        /* \"contracts/MicroToken.sol\":262:296  uint8 public constant decimals = 0 */\n    tag_35:\n        /* \"contracts/MicroToken.sol\":295:296  0 */\n      0x00\n        /* \"contracts/MicroToken.sol\":262:296  uint8 public constant decimals = 0 */\n      dup2\n      jump\t// out\n        /* \"contracts/MicroToken.sol\":758:882  function balanceOf(address _addr) public view override returns (uint... */\n    tag_41:\n        /* \"contracts/MicroToken.sol\":822:838  uint... */\n      0x00\n        /* \"contracts/MicroToken.sol\":857:868  __balanceOf */\n      dup1\n        /* \"contracts/MicroToken.sol\":857:875  __balanceOf[_addr] */\n      0x00\n        /* \"contracts/MicroToken.sol\":869:874  _addr */\n      dup4\n        /* \"contracts/MicroToken.sol\":857:875  __balanceOf[_addr] */\n      0xffffffffffffffffffffffffffffffffffffffff\n      and\n      0xffffffffffffffffffffffffffffffffffffffff\n      and\n      dup2\n      mstore\n      0x20\n      add\n      swap1\n      dup2\n      mstore\n      0x20\n      add\n      0x00\n      keccak256\n      sload\n        /* \"contracts/MicroToken.sol\":850:875  return __balanceOf[_addr] */\n      swap1\n      pop\n        /* \"contracts/MicroToken.sol\":758:882  function balanceOf(address _addr) public view override returns (uint... */\n      swap2\n      swap1\n      pop\n      jump\t// out\n        /* \"contracts/MicroToken.sol\":163:200  string public constant symbol = \"MFT\" */\n    tag_44:\n      mload(0x40)\n      dup1\n      0x40\n      add\n      0x40\n      mstore\n      dup1\n      0x03\n      dup2\n      mstore\n      0x20\n      add\n      0x4d46540000000000000000000000000000000000000000000000000000000000\n      dup2\n      mstore\n      pop\n      dup2\n      jump\t// out\n        /* \"contracts/MicroToken.sol\":887:1182  function transfer(address _to, uint _value) public override returns (bool... */\n    tag_48:\n        /* \"contracts/MicroToken.sol\":956:972  bool... */\n      0x00\n        /* \"contracts/MicroToken.sol\":997:998  0 */\n      dup1\n        /* \"contracts/MicroToken.sol\":988:994  _value */\n      dup3\n        /* \"contracts/MicroToken.sol\":988:998  _value > 0 */\n      gt\n        /* \"contracts/MicroToken.sol\":988:1033  _value > 0 && _value <= balanceOf(msg.sender) */\n      dup1\n      iszero\n      tag_76\n      jumpi\n      pop\n        /* \"contracts/MicroToken.sol\":1012:1033  balanceOf(msg.sender) */\n      tag_77\n        /* \"contracts/MicroToken.sol\":1022:1032  msg.sender */\n      caller\n        /* \"contracts/MicroToken.sol\":1012:1021  balanceOf */\n      tag_41\n        /* \"contracts/MicroToken.sol\":1012:1033  balanceOf(msg.sender) */\n      jump\t// in\n    tag_77:\n        /* \"contracts/MicroToken.sol\":1002:1008  _value */\n      dup3\n        /* \"contracts/MicroToken.sol\":1002:1033  _value <= balanceOf(msg.sender) */\n      gt\n      iszero\n        /* \"contracts/MicroToken.sol\":988:1033  _value > 0 && _value <= balanceOf(msg.sender) */\n    tag_76:\n        /* \"contracts/MicroToken.sol\":984:1154  if (_value > 0 && _value <= balanceOf(msg.sender)) {... */\n      iszero\n      tag_78\n      jumpi\n        /* \"contracts/MicroToken.sol\":1076:1082  _value */\n      dup2\n        /* \"contracts/MicroToken.sol\":1049:1060  __balanceOf */\n      0x00\n        /* \"contracts/MicroToken.sol\":1049:1072  __balanceOf[msg.sender] */\n      dup1\n        /* \"contracts/MicroToken.sol\":1061:1071  msg.sender */\n      caller\n        /* \"contracts/MicroToken.sol\":1049:1072  __balanceOf[msg.sender] */\n      0xffffffffffffffffffffffffffffffffffffffff\n      and\n      0xffffffffffffffffffffffffffffffffffffffff\n      and\n      dup2\n      mstore\n      0x20\n      add\n      swap1\n      dup2\n      mstore\n      0x20\n      add\n      0x00\n      keccak256\n      0x00\n        /* \"contracts/MicroToken.sol\":1049:1082  __balanceOf[msg.sender] -= _value */\n      dup3\n      dup3\n      sload\n      tag_79\n      swap2\n      swap1\n      tag_71\n      jump\t// in\n    tag_79:\n      swap3\n      pop\n      pop\n      dup2\n      swap1\n      sstore\n      pop\n        /* \"contracts/MicroToken.sol\":1116:1122  _value */\n      dup2\n        /* \"contracts/MicroToken.sol\":1096:1107  __balanceOf */\n      0x00\n        /* \"contracts/MicroToken.sol\":1096:1112  __balanceOf[_to] */\n      dup1\n        /* \"contracts/MicroToken.sol\":1108:1111  _to */\n      dup6\n        /* \"contracts/MicroToken.sol\":1096:1112  __balanceOf[_to] */\n      0xffffffffffffffffffffffffffffffffffffffff\n      and\n      0xffffffffffffffffffffffffffffffffffffffff\n      and\n      dup2\n      mstore\n      0x20\n      add\n      swap1\n      dup2\n      mstore\n      0x20\n      add\n      0x00\n      keccak256\n      0x00\n        /* \"contracts/MicroToken.sol\":1096:1122  __balanceOf[_to] += _value */\n      dup3\n      dup3\n      sload\n      tag_80\n      swap2\n      swap1\n      tag_73\n      jump\t// in\n    tag_80:\n      swap3\n      pop\n      pop\n      dup2\n      swap1\n      sstore\n      pop\n        /* \"contracts/MicroToken.sol\":1143:1147  true */\n      0x01\n        /* \"contracts/MicroToken.sol\":1136:1147  return true */\n      swap1\n      pop\n      jump(tag_75)\n        /* \"contracts/MicroToken.sol\":984:1154  if (_value > 0 && _value <= balanceOf(msg.sender)) {... */\n    tag_78:\n        /* \"contracts/MicroToken.sol\":1170:1175  false */\n      0x00\n        /* \"contracts/MicroToken.sol\":1163:1175  return false */\n      swap1\n      pop\n        /* \"contracts/MicroToken.sol\":887:1182  function transfer(address _to, uint _value) public override returns (bool... */\n    tag_75:\n      swap3\n      swap2\n      pop\n      pop\n      jump\t// out\n        /* \"contracts/MicroToken.sol\":453:519  mapping (address => mapping (address => uint)) public __allowances */\n    tag_53:\n      mstore(0x20, 0x01)\n      dup2\n      0x00\n      mstore\n      mstore(0x20, keccak256(0x00, 0x40))\n      dup1\n      0x00\n      mstore\n      keccak256(0x00, 0x40)\n      0x00\n      swap2\n      pop\n      swap2\n      pop\n      pop\n      sload\n      dup2\n      jump\t// out\n        /* \"contracts/MicroToken.sol\":1863:2028  function allowance(address _owner, address _spender)... */\n    tag_57:\n        /* \"contracts/MicroToken.sol\":1954:1968  uint remaining */\n      0x00\n        /* \"contracts/MicroToken.sol\":1991:2003  __allowances */\n      0x01\n        /* \"contracts/MicroToken.sol\":1991:2011  __allowances[_owner] */\n      0x00\n        /* \"contracts/MicroToken.sol\":2004:2010  _owner */\n      dup5\n        /* \"contracts/MicroToken.sol\":1991:2011  __allowances[_owner] */\n      0xffffffffffffffffffffffffffffffffffffffff\n      and\n      0xffffffffffffffffffffffffffffffffffffffff\n      and\n      dup2\n      mstore\n      0x20\n      add\n      swap1\n      dup2\n      mstore\n      0x20\n      add\n      0x00\n      keccak256\n        /* \"contracts/MicroToken.sol\":1991:2021  __allowances[_owner][_spender] */\n      0x00\n        /* \"contracts/MicroToken.sol\":2012:2020  _spender */\n      dup4\n        /* \"contracts/MicroToken.sol\":1991:2021  __allowances[_owner][_spender] */\n      0xffffffffffffffffffffffffffffffffffffffff\n      and\n      0xffffffffffffffffffffffffffffffffffffffff\n      and\n      dup2\n      mstore\n      0x20\n      add\n      swap1\n      dup2\n      mstore\n      0x20\n      add\n      0x00\n      keccak256\n      sload\n        /* \"contracts/MicroToken.sol\":1984:2021  return __allowances[_owner][_spender] */\n      swap1\n      pop\n        /* \"contracts/MicroToken.sol\":1863:2028  function allowance(address _owner, address _spender)... */\n      swap3\n      swap2\n      pop\n      pop\n      jump\t// out\n        /* \"contracts/MicroToken.sol\":350:394  mapping (address => uint) public __balanceOf */\n    tag_61:\n      mstore(0x20, 0x00)\n      dup1\n      0x00\n      mstore\n      keccak256(0x00, 0x40)\n      0x00\n      swap2\n      pop\n      swap1\n      pop\n      sload\n      dup2\n      jump\t// out\n        /* \"#utility.yul\":7:146   */\n    tag_83:\n        /* \"#utility.yul\":53:58   */\n      0x00\n        /* \"#utility.yul\":91:97   */\n      dup2\n        /* \"#utility.yul\":78:98   */\n      calldataload\n        /* \"#utility.yul\":69:98   */\n      swap1\n      pop\n        /* \"#utility.yul\":107:140   */\n      tag_85\n        /* \"#utility.yul\":134:139   */\n      dup2\n        /* \"#utility.yul\":107:140   */\n      tag_86\n      jump\t// in\n    tag_85:\n        /* \"#utility.yul\":7:146   */\n      swap3\n      swap2\n      pop\n      pop\n      jump\t// out\n        /* \"#utility.yul\":152:291   */\n    tag_87:\n        /* \"#utility.yul\":198:203   */\n      0x00\n        /* \"#utility.yul\":236:242   */\n      dup2\n        /* \"#utility.yul\":223:243   */\n      calldataload\n        /* \"#utility.yul\":214:243   */\n      swap1\n      pop\n        /* \"#utility.yul\":252:285   */\n      tag_89\n        /* \"#utility.yul\":279:284   */\n      dup2\n        /* \"#utility.yul\":252:285   */\n      tag_90\n      jump\t// in\n    tag_89:\n        /* \"#utility.yul\":152:291   */\n      swap3\n      swap2\n      pop\n      pop\n      jump\t// out\n        /* \"#utility.yul\":297:626   */\n    tag_40:\n        /* \"#utility.yul\":356:362   */\n      0x00\n        /* \"#utility.yul\":405:407   */\n      0x20\n        /* \"#utility.yul\":393:402   */\n      dup3\n        /* \"#utility.yul\":384:391   */\n      dup5\n        /* \"#utility.yul\":380:403   */\n      sub\n        /* \"#utility.yul\":376:408   */\n      slt\n        /* \"#utility.yul\":373:492   */\n      iszero\n      tag_92\n      jumpi\n        /* \"#utility.yul\":411:490   */\n      tag_93\n      tag_94\n      jump\t// in\n    tag_93:\n        /* \"#utility.yul\":373:492   */\n    tag_92:\n        /* \"#utility.yul\":531:532   */\n      0x00\n        /* \"#utility.yul\":556:609   */\n      tag_95\n        /* \"#utility.yul\":601:608   */\n      dup5\n        /* \"#utility.yul\":592:598   */\n      dup3\n        /* \"#utility.yul\":581:590   */\n      dup6\n        /* \"#utility.yul\":577:599   */\n      add\n        /* \"#utility.yul\":556:609   */\n      tag_83\n      jump\t// in\n    tag_95:\n        /* \"#utility.yul\":546:609   */\n      swap2\n      pop\n        /* \"#utility.yul\":502:619   */\n      pop\n        /* \"#utility.yul\":297:626   */\n      swap3\n      swap2\n      pop\n      pop\n      jump\t// out\n        /* \"#utility.yul\":632:1106   */\n    tag_52:\n        /* \"#utility.yul\":700:706   */\n      0x00\n        /* \"#utility.yul\":708:714   */\n      dup1\n        /* \"#utility.yul\":757:759   */\n      0x40\n        /* \"#utility.yul\":745:754   */\n      dup4\n        /* \"#utility.yul\":736:743   */\n      dup6\n        /* \"#utility.yul\":732:755   */\n      sub\n        /* \"#utility.yul\":728:760   */\n      slt\n        /* \"#utility.yul\":725:844   */\n      iszero\n      tag_97\n      jumpi\n        /* \"#utility.yul\":763:842   */\n      tag_98\n      tag_94\n      jump\t// in\n    tag_98:\n        /* \"#utility.yul\":725:844   */\n    tag_97:\n        /* \"#utility.yul\":883:884   */\n      0x00\n        /* \"#utility.yul\":908:961   */\n      tag_99\n        /* \"#utility.yul\":953:960   */\n      dup6\n        /* \"#utility.yul\":944:950   */\n      dup3\n        /* \"#utility.yul\":933:942   */\n      dup7\n        /* \"#utility.yul\":929:951   */\n      add\n        /* \"#utility.yul\":908:961   */\n      tag_83\n      jump\t// in\n    tag_99:\n        /* \"#utility.yul\":898:961   */\n      swap3\n      pop\n        /* \"#utility.yul\":854:971   */\n      pop\n        /* \"#utility.yul\":1010:1012   */\n      0x20\n        /* \"#utility.yul\":1036:1089   */\n      tag_100\n        /* \"#utility.yul\":1081:1088   */\n      dup6\n        /* \"#utility.yul\":1072:1078   */\n      dup3\n        /* \"#utility.yul\":1061:1070   */\n      dup7\n        /* \"#utility.yul\":1057:1079   */\n      add\n        /* \"#utility.yul\":1036:1089   */\n      tag_83\n      jump\t// in\n    tag_100:\n        /* \"#utility.yul\":1026:1089   */\n      swap2\n      pop\n        /* \"#utility.yul\":981:1099   */\n      pop\n        /* \"#utility.yul\":632:1106   */\n      swap3\n      pop\n      swap3\n      swap1\n      pop\n      jump\t// out\n        /* \"#utility.yul\":1112:1731   */\n    tag_31:\n        /* \"#utility.yul\":1189:1195   */\n      0x00\n        /* \"#utility.yul\":1197:1203   */\n      dup1\n        /* \"#utility.yul\":1205:1211   */\n      0x00\n        /* \"#utility.yul\":1254:1256   */\n      0x60\n        /* \"#utility.yul\":1242:1251   */\n      dup5\n        /* \"#utility.yul\":1233:1240   */\n      dup7\n        /* \"#utility.yul\":1229:1252   */\n      sub\n        /* \"#utility.yul\":1225:1257   */\n      slt\n        /* \"#utility.yul\":1222:1341   */\n      iszero\n      tag_102\n      jumpi\n        /* \"#utility.yul\":1260:1339   */\n      tag_103\n      tag_94\n      jump\t// in\n    tag_103:\n        /* \"#utility.yul\":1222:1341   */\n    tag_102:\n        /* \"#utility.yul\":1380:1381   */\n      0x00\n        /* \"#utility.yul\":1405:1458   */\n      tag_104\n        /* \"#utility.yul\":1450:1457   */\n      dup7\n        /* \"#utility.yul\":1441:1447   */\n      dup3\n        /* \"#utility.yul\":1430:1439   */\n      dup8\n        /* \"#utility.yul\":1426:1448   */\n      add\n        /* \"#utility.yul\":1405:1458   */\n      tag_83\n      jump\t// in\n    tag_104:\n        /* \"#utility.yul\":1395:1458   */\n      swap4\n      pop\n        /* \"#utility.yul\":1351:1468   */\n      pop\n        /* \"#utility.yul\":1507:1509   */\n      0x20\n        /* \"#utility.yul\":1533:1586   */\n      tag_105\n        /* \"#utility.yul\":1578:1585   */\n      dup7\n        /* \"#utility.yul\":1569:1575   */\n      dup3\n        /* \"#utility.yul\":1558:1567   */\n      dup8\n        /* \"#utility.yul\":1554:1576   */\n      add\n        /* \"#utility.yul\":1533:1586   */\n      tag_83\n      jump\t// in\n    tag_105:\n        /* \"#utility.yul\":1523:1586   */\n      swap3\n      pop\n        /* \"#utility.yul\":1478:1596   */\n      pop\n        /* \"#utility.yul\":1635:1637   */\n      0x40\n        /* \"#utility.yul\":1661:1714   */\n      tag_106\n        /* \"#utility.yul\":1706:1713   */\n      dup7\n        /* \"#utility.yul\":1697:1703   */\n      dup3\n        /* \"#utility.yul\":1686:1695   */\n      dup8\n        /* \"#utility.yul\":1682:1704   */\n      add\n        /* \"#utility.yul\":1661:1714   */\n      tag_87\n      jump\t// in\n    tag_106:\n        /* \"#utility.yul\":1651:1714   */\n      swap2\n      pop\n        /* \"#utility.yul\":1606:1724   */\n      pop\n        /* \"#utility.yul\":1112:1731   */\n      swap3\n      pop\n      swap3\n      pop\n      swap3\n      jump\t// out\n        /* \"#utility.yul\":1737:2211   */\n    tag_21:\n        /* \"#utility.yul\":1805:1811   */\n      0x00\n        /* \"#utility.yul\":1813:1819   */\n      dup1\n        /* \"#utility.yul\":1862:1864   */\n      0x40\n        /* \"#utility.yul\":1850:1859   */\n      dup4\n        /* \"#utility.yul\":1841:1848   */\n      dup6\n        /* \"#utility.yul\":1837:1860   */\n      sub\n        /* \"#utility.yul\":1833:1865   */\n      slt\n        /* \"#utility.yul\":1830:1949   */\n      iszero\n      tag_108\n      jumpi\n        /* \"#utility.yul\":1868:1947   */\n      tag_109\n      tag_94\n      jump\t// in\n    tag_109:\n        /* \"#utility.yul\":1830:1949   */\n    tag_108:\n        /* \"#utility.yul\":1988:1989   */\n      0x00\n        /* \"#utility.yul\":2013:2066   */\n      tag_110\n        /* \"#utility.yul\":2058:2065   */\n      dup6\n        /* \"#utility.yul\":2049:2055   */\n      dup3\n        /* \"#utility.yul\":2038:2047   */\n      dup7\n        /* \"#utility.yul\":2034:2056   */\n      add\n        /* \"#utility.yul\":2013:2066   */\n      tag_83\n      jump\t// in\n    tag_110:\n        /* \"#utility.yul\":2003:2066   */\n      swap3\n      pop\n        /* \"#utility.yul\":1959:2076   */\n      pop\n        /* \"#utility.yul\":2115:2117   */\n      0x20\n        /* \"#utility.yul\":2141:2194   */\n      tag_111\n        /* \"#utility.yul\":2186:2193   */\n      dup6\n        /* \"#utility.yul\":2177:2183   */\n      dup3\n        /* \"#utility.yul\":2166:2175   */\n      dup7\n        /* \"#utility.yul\":2162:2184   */\n      add\n        /* \"#utility.yul\":2141:2194   */\n      tag_87\n      jump\t// in\n    tag_111:\n        /* \"#utility.yul\":2131:2194   */\n      swap2\n      pop\n        /* \"#utility.yul\":2086:2204   */\n      pop\n        /* \"#utility.yul\":1737:2211   */\n      swap3\n      pop\n      swap3\n      swap1\n      pop\n      jump\t// out\n        /* \"#utility.yul\":2217:2326   */\n    tag_112:\n        /* \"#utility.yul\":2298:2319   */\n      tag_114\n        /* \"#utility.yul\":2313:2318   */\n      dup2\n        /* \"#utility.yul\":2298:2319   */\n      tag_115\n      jump\t// in\n    tag_114:\n        /* \"#utility.yul\":2293:2296   */\n      dup3\n        /* \"#utility.yul\":2286:2320   */\n      mstore\n        /* \"#utility.yul\":2217:2326   */\n      pop\n      pop\n      jump\t// out\n        /* \"#utility.yul\":2332:2696   */\n    tag_116:\n        /* \"#utility.yul\":2420:2423   */\n      0x00\n        /* \"#utility.yul\":2448:2487   */\n      tag_118\n        /* \"#utility.yul\":2481:2486   */\n      dup3\n        /* \"#utility.yul\":2448:2487   */\n      tag_119\n      jump\t// in\n    tag_118:\n        /* \"#utility.yul\":2503:2574   */\n      tag_120\n        /* \"#utility.yul\":2567:2573   */\n      dup2\n        /* \"#utility.yul\":2562:2565   */\n      dup6\n        /* \"#utility.yul\":2503:2574   */\n      tag_121\n      jump\t// in\n    tag_120:\n        /* \"#utility.yul\":2496:2574   */\n      swap4\n      pop\n        /* \"#utility.yul\":2583:2635   */\n      tag_122\n        /* \"#utility.yul\":2628:2634   */\n      dup2\n        /* \"#utility.yul\":2623:2626   */\n      dup6\n        /* \"#utility.yul\":2616:2620   */\n      0x20\n        /* \"#utility.yul\":2609:2614   */\n      dup7\n        /* \"#utility.yul\":2605:2621   */\n      add\n        /* \"#utility.yul\":2583:2635   */\n      tag_123\n      jump\t// in\n    tag_122:\n        /* \"#utility.yul\":2660:2689   */\n      tag_124\n        /* \"#utility.yul\":2682:2688   */\n      dup2\n        /* \"#utility.yul\":2660:2689   */\n      tag_125\n      jump\t// in\n    tag_124:\n        /* \"#utility.yul\":2655:2658   */\n      dup5\n        /* \"#utility.yul\":2651:2690   */\n      add\n        /* \"#utility.yul\":2644:2690   */\n      swap2\n      pop\n        /* \"#utility.yul\":2424:2696   */\n      pop\n        /* \"#utility.yul\":2332:2696   */\n      swap3\n      swap2\n      pop\n      pop\n      jump\t// out\n        /* \"#utility.yul\":2702:3068   */\n    tag_126:\n        /* \"#utility.yul\":2844:2847   */\n      0x00\n        /* \"#utility.yul\":2865:2932   */\n      tag_128\n        /* \"#utility.yul\":2929:2931   */\n      0x49\n        /* \"#utility.yul\":2924:2927   */\n      dup4\n        /* \"#utility.yul\":2865:2932   */\n      tag_121\n      jump\t// in\n    tag_128:\n        /* \"#utility.yul\":2858:2932   */\n      swap2\n      pop\n        /* \"#utility.yul\":2941:3034   */\n      tag_129\n        /* \"#utility.yul\":3030:3033   */\n      dup3\n        /* \"#utility.yul\":2941:3034   */\n      tag_130\n      jump\t// in\n    tag_129:\n        /* \"#utility.yul\":3059:3061   */\n      0x60\n        /* \"#utility.yul\":3054:3057   */\n      dup3\n        /* \"#utility.yul\":3050:3062   */\n      add\n        /* \"#utility.yul\":3043:3062   */\n      swap1\n      pop\n        /* \"#utility.yul\":2702:3068   */\n      swap2\n      swap1\n      pop\n      jump\t// out\n        /* \"#utility.yul\":3074:3192   */\n    tag_131:\n        /* \"#utility.yul\":3161:3185   */\n      tag_133\n        /* \"#utility.yul\":3179:3184   */\n      dup2\n        /* \"#utility.yul\":3161:3185   */\n      tag_134\n      jump\t// in\n    tag_133:\n        /* \"#utility.yul\":3156:3159   */\n      dup3\n        /* \"#utility.yul\":3149:3186   */\n      mstore\n        /* \"#utility.yul\":3074:3192   */\n      pop\n      pop\n      jump\t// out\n        /* \"#utility.yul\":3198:3310   */\n    tag_135:\n        /* \"#utility.yul\":3281:3303   */\n      tag_137\n        /* \"#utility.yul\":3297:3302   */\n      dup2\n        /* \"#utility.yul\":3281:3303   */\n      tag_138\n      jump\t// in\n    tag_137:\n        /* \"#utility.yul\":3276:3279   */\n      dup3\n        /* \"#utility.yul\":3269:3304   */\n      mstore\n        /* \"#utility.yul\":3198:3310   */\n      pop\n      pop\n      jump\t// out\n        /* \"#utility.yul\":3316:3526   */\n    tag_24:\n        /* \"#utility.yul\":3403:3407   */\n      0x00\n        /* \"#utility.yul\":3441:3443   */\n      0x20\n        /* \"#utility.yul\":3430:3439   */\n      dup3\n        /* \"#utility.yul\":3426:3444   */\n      add\n        /* \"#utility.yul\":3418:3444   */\n      swap1\n      pop\n        /* \"#utility.yul\":3454:3519   */\n      tag_140\n        /* \"#utility.yul\":3516:3517   */\n      0x00\n        /* \"#utility.yul\":3505:3514   */\n      dup4\n        /* \"#utility.yul\":3501:3518   */\n      add\n        /* \"#utility.yul\":3492:3498   */\n      dup5\n        /* \"#utility.yul\":3454:3519   */\n      tag_112\n      jump\t// in\n    tag_140:\n        /* \"#utility.yul\":3316:3526   */\n      swap3\n      swap2\n      pop\n      pop\n      jump\t// out\n        /* \"#utility.yul\":3532:3845   */\n    tag_18:\n        /* \"#utility.yul\":3645:3649   */\n      0x00\n        /* \"#utility.yul\":3683:3685   */\n      0x20\n        /* \"#utility.yul\":3672:3681   */\n      dup3\n        /* \"#utility.yul\":3668:3686   */\n      add\n        /* \"#utility.yul\":3660:3686   */\n      swap1\n      pop\n        /* \"#utility.yul\":3732:3741   */\n      dup2\n        /* \"#utility.yul\":3726:3730   */\n      dup2\n        /* \"#utility.yul\":3722:3742   */\n      sub\n        /* \"#utility.yul\":3718:3719   */\n      0x00\n        /* \"#utility.yul\":3707:3716   */\n      dup4\n        /* \"#utility.yul\":3703:3720   */\n      add\n        /* \"#utility.yul\":3696:3743   */\n      mstore\n        /* \"#utility.yul\":3760:3838   */\n      tag_142\n        /* \"#utility.yul\":3833:3837   */\n      dup2\n        /* \"#utility.yul\":3824:3830   */\n      dup5\n        /* \"#utility.yul\":3760:3838   */\n      tag_116\n      jump\t// in\n    tag_142:\n        /* \"#utility.yul\":3752:3838   */\n      swap1\n      pop\n        /* \"#utility.yul\":3532:3845   */\n      swap3\n      swap2\n      pop\n      pop\n      jump\t// out\n        /* \"#utility.yul\":3851:4270   */\n    tag_69:\n        /* \"#utility.yul\":4017:4021   */\n      0x00\n        /* \"#utility.yul\":4055:4057   */\n      0x20\n        /* \"#utility.yul\":4044:4053   */\n      dup3\n        /* \"#utility.yul\":4040:4058   */\n      add\n        /* \"#utility.yul\":4032:4058   */\n      swap1\n      pop\n        /* \"#utility.yul\":4104:4113   */\n      dup2\n        /* \"#utility.yul\":4098:4102   */\n      dup2\n        /* \"#utility.yul\":4094:4114   */\n      sub\n        /* \"#utility.yul\":4090:4091   */\n      0x00\n        /* \"#utility.yul\":4079:4088   */\n      dup4\n        /* \"#utility.yul\":4075:4092   */\n      add\n        /* \"#utility.yul\":4068:4115   */\n      mstore\n        /* \"#utility.yul\":4132:4263   */\n      tag_144\n        /* \"#utility.yul\":4258:4262   */\n      dup2\n        /* \"#utility.yul\":4132:4263   */\n      tag_126\n      jump\t// in\n    tag_144:\n        /* \"#utility.yul\":4124:4263   */\n      swap1\n      pop\n        /* \"#utility.yul\":3851:4270   */\n      swap2\n      swap1\n      pop\n      jump\t// out\n        /* \"#utility.yul\":4276:4498   */\n    tag_28:\n        /* \"#utility.yul\":4369:4373   */\n      0x00\n        /* \"#utility.yul\":4407:4409   */\n      0x20\n        /* \"#utility.yul\":4396:4405   */\n      dup3\n        /* \"#utility.yul\":4392:4410   */\n      add\n        /* \"#utility.yul\":4384:4410   */\n      swap1\n      pop\n        /* \"#utility.yul\":4420:4491   */\n      tag_146\n        /* \"#utility.yul\":4488:4489   */\n      0x00\n        /* \"#utility.yul\":4477:4486   */\n      dup4\n        /* \"#utility.yul\":4473:4490   */\n      add\n        /* \"#utility.yul\":4464:4470   */\n      dup5\n        /* \"#utility.yul\":4420:4491   */\n      tag_131\n      jump\t// in\n    tag_146:\n        /* \"#utility.yul\":4276:4498   */\n      swap3\n      swap2\n      pop\n      pop\n      jump\t// out\n        /* \"#utility.yul\":4504:4718   */\n    tag_37:\n        /* \"#utility.yul\":4593:4597   */\n      0x00\n        /* \"#utility.yul\":4631:4633   */\n      0x20\n        /* \"#utility.yul\":4620:4629   */\n      dup3\n        /* \"#utility.yul\":4616:4634   */\n      add\n        /* \"#utility.yul\":4608:4634   */\n      swap1\n      pop\n        /* \"#utility.yul\":4644:4711   */\n      tag_148\n        /* \"#utility.yul\":4708:4709   */\n      0x00\n        /* \"#utility.yul\":4697:4706   */\n      dup4\n        /* \"#utility.yul\":4693:4710   */\n      add\n        /* \"#utility.yul\":4684:4690   */\n      dup5\n        /* \"#utility.yul\":4644:4711   */\n      tag_135\n      jump\t// in\n    tag_148:\n        /* \"#utility.yul\":4504:4718   */\n      swap3\n      swap2\n      pop\n      pop\n      jump\t// out\n        /* \"#utility.yul\":4805:4904   */\n    tag_119:\n        /* \"#utility.yul\":4857:4863   */\n      0x00\n        /* \"#utility.yul\":4891:4896   */\n      dup2\n        /* \"#utility.yul\":4885:4897   */\n      mload\n        /* \"#utility.yul\":4875:4897   */\n      swap1\n      pop\n        /* \"#utility.yul\":4805:4904   */\n      swap2\n      swap1\n      pop\n      jump\t// out\n        /* \"#utility.yul\":4910:5079   */\n    tag_121:\n        /* \"#utility.yul\":4994:5005   */\n      0x00\n        /* \"#utility.yul\":5028:5034   */\n      dup3\n        /* \"#utility.yul\":5023:5026   */\n      dup3\n        /* \"#utility.yul\":5016:5035   */\n      mstore\n        /* \"#utility.yul\":5068:5072   */\n      0x20\n        /* \"#utility.yul\":5063:5066   */\n      dup3\n        /* \"#utility.yul\":5059:5073   */\n      add\n        /* \"#utility.yul\":5044:5073   */\n      swap1\n      pop\n        /* \"#utility.yul\":4910:5079   */\n      swap3\n      swap2\n      pop\n      pop\n      jump\t// out\n        /* \"#utility.yul\":5085:5390   */\n    tag_73:\n        /* \"#utility.yul\":5125:5128   */\n      0x00\n        /* \"#utility.yul\":5144:5164   */\n      tag_154\n        /* \"#utility.yul\":5162:5163   */\n      dup3\n        /* \"#utility.yul\":5144:5164   */\n      tag_134\n      jump\t// in\n    tag_154:\n        /* \"#utility.yul\":5139:5164   */\n      swap2\n      pop\n        /* \"#utility.yul\":5178:5198   */\n      tag_155\n        /* \"#utility.yul\":5196:5197   */\n      dup4\n        /* \"#utility.yul\":5178:5198   */\n      tag_134\n      jump\t// in\n    tag_155:\n        /* \"#utility.yul\":5173:5198   */\n      swap3\n      pop\n        /* \"#utility.yul\":5332:5333   */\n      dup3\n        /* \"#utility.yul\":5264:5330   */\n      0xffffffffffffffffffffffffffffffffffffffffffffffffffffffffffffffff\n        /* \"#utility.yul\":5260:5334   */\n      sub\n        /* \"#utility.yul\":5257:5258   */\n      dup3\n        /* \"#utility.yul\":5254:5335   */\n      gt\n        /* \"#utility.yul\":5251:5358   */\n      iszero\n      tag_156\n      jumpi\n        /* \"#utility.yul\":5338:5356   */\n      tag_157\n      tag_158\n      jump\t// in\n    tag_157:\n        /* \"#utility.yul\":5251:5358   */\n    tag_156:\n        /* \"#utility.yul\":5382:5383   */\n      dup3\n        /* \"#utility.yul\":5379:5380   */\n      dup3\n        /* \"#utility.yul\":5375:5384   */\n      add\n        /* \"#utility.yul\":5368:5384   */\n      swap1\n      pop\n        /* \"#utility.yul\":5085:5390   */\n      swap3\n      swap2\n      pop\n      pop\n      jump\t// out\n        /* \"#utility.yul\":5396:5587   */\n    tag_71:\n        /* \"#utility.yul\":5436:5440   */\n      0x00\n        /* \"#utility.yul\":5456:5476   */\n      tag_160\n        /* \"#utility.yul\":5474:5475   */\n      dup3\n        /* \"#utility.yul\":5456:5476   */\n      tag_134\n      jump\t// in\n    tag_160:\n        /* \"#utility.yul\":5451:5476   */\n      swap2\n      pop\n        /* \"#utility.yul\":5490:5510   */\n      tag_161\n        /* \"#utility.yul\":5508:5509   */\n      dup4\n        /* \"#utility.yul\":5490:5510   */\n      tag_134\n      jump\t// in\n    tag_161:\n        /* \"#utility.yul\":5485:5510   */\n      swap3\n      pop\n        /* \"#utility.yul\":5529:5530   */\n      dup3\n        /* \"#utility.yul\":5526:5527   */\n      dup3\n        /* \"#utility.yul\":5523:5531   */\n      lt\n        /* \"#utility.yul\":5520:5554   */\n      iszero\n      tag_162\n      jumpi\n        /* \"#utility.yul\":5534:5552   */\n      tag_163\n      tag_158\n      jump\t// in\n    tag_163:\n        /* \"#utility.yul\":5520:5554   */\n    tag_162:\n        /* \"#utility.yul\":5579:5580   */\n      dup3\n        /* \"#utility.yul\":5576:5577   */\n      dup3\n        /* \"#utility.yul\":5572:5581   */\n      sub\n        /* \"#utility.yul\":5564:5581   */\n      swap1\n      pop\n        /* \"#utility.yul\":5396:5587   */\n      swap3\n      swap2\n      pop\n      pop\n      jump\t// out\n        /* \"#utility.yul\":5593:5689   */\n    tag_164:\n        /* \"#utility.yul\":5630:5637   */\n      0x00\n        /* \"#utility.yul\":5659:5683   */\n      tag_166\n        /* \"#utility.yul\":5677:5682   */\n      dup3\n        /* \"#utility.yul\":5659:5683   */\n      tag_167\n      jump\t// in\n    tag_166:\n        /* \"#utility.yul\":5648:5683   */\n      swap1\n      pop\n        /* \"#utility.yul\":5593:5689   */\n      swap2\n      swap1\n      pop\n      jump\t// out\n        /* \"#utility.yul\":5695:5785   */\n    tag_115:\n        /* \"#utility.yul\":5729:5736   */\n      0x00\n        /* \"#utility.yul\":5772:5777   */\n      dup2\n        /* \"#utility.yul\":5765:5778   */\n      iszero\n        /* \"#utility.yul\":5758:5779   */\n      iszero\n        /* \"#utility.yul\":5747:5779   */\n      swap1\n      pop\n        /* \"#utility.yul\":5695:5785   */\n      swap2\n      swap1\n      pop\n      jump\t// out\n        /* \"#utility.yul\":5791:5917   */\n    tag_167:\n        /* \"#utility.yul\":5828:5835   */\n      0x00\n        /* \"#utility.yul\":5868:5910   */\n      0xffffffffffffffffffffffffffffffffffffffff\n        /* \"#utility.yul\":5861:5866   */\n      dup3\n        /* \"#utility.yul\":5857:5911   */\n      and\n        /* \"#utility.yul\":5846:5911   */\n      swap1\n      pop\n        /* \"#utility.yul\":5791:5917   */\n      swap2\n      swap1\n      pop\n      jump\t// out\n        /* \"#utility.yul\":5923:6000   */\n    tag_134:\n        /* \"#utility.yul\":5960:5967   */\n      0x00\n        /* \"#utility.yul\":5989:5994   */\n      dup2\n        /* \"#utility.yul\":5978:5994   */\n      swap1\n      pop\n        /* \"#utility.yul\":5923:6000   */\n      swap2\n      swap1\n      pop\n      jump\t// out\n        /* \"#utility.yul\":6006:6092   */\n    tag_138:\n        /* \"#utility.yul\":6041:6048   */\n      0x00\n        /* \"#utility.yul\":6081:6085   */\n      0xff\n        /* \"#utility.yul\":6074:6079   */\n      dup3\n        /* \"#utility.yul\":6070:6086   */\n      and\n        /* \"#utility.yul\":6059:6086   */\n      swap1\n      pop\n        /* \"#utility.yul\":6006:6092   */\n      swap2\n      swap1\n      pop\n      jump\t// out\n        /* \"#utility.yul\":6098:6405   */\n    tag_123:\n        /* \"#utility.yul\":6166:6167   */\n      0x00\n        /* \"#utility.yul\":6176:6289   */\n    tag_173:\n        /* \"#utility.yul\":6190:6196   */\n      dup4\n        /* \"#utility.yul\":6187:6188   */\n      dup2\n        /* \"#utility.yul\":6184:6197   */\n      lt\n        /* \"#utility.yul\":6176:6289   */\n      iszero\n      tag_175\n      jumpi\n        /* \"#utility.yul\":6275:6276   */\n      dup1\n        /* \"#utility.yul\":6270:6273   */\n      dup3\n        /* \"#utility.yul\":6266:6277   */\n      add\n        /* \"#utility.yul\":6260:6278   */\n      mload\n        /* \"#utility.yul\":6256:6257   */\n      dup2\n        /* \"#utility.yul\":6251:6254   */\n      dup5\n        /* \"#utility.yul\":6247:6258   */\n      add\n        /* \"#utility.yul\":6240:6279   */\n      mstore\n        /* \"#utility.yul\":6212:6214   */\n      0x20\n        /* \"#utility.yul\":6209:6210   */\n      dup2\n        /* \"#utility.yul\":6205:6215   */\n      add\n        /* \"#utility.yul\":6200:6215   */\n      swap1\n      pop\n        /* \"#utility.yul\":6176:6289   */\n      jump(tag_173)\n    tag_175:\n        /* \"#utility.yul\":6307:6313   */\n      dup4\n        /* \"#utility.yul\":6304:6305   */\n      dup2\n        /* \"#utility.yul\":6301:6314   */\n      gt\n        /* \"#utility.yul\":6298:6399   */\n      iszero\n      tag_176\n      jumpi\n        /* \"#utility.yul\":6387:6388   */\n      0x00\n        /* \"#utility.yul\":6378:6384   */\n      dup5\n        /* \"#utility.yul\":6373:6376   */\n      dup5\n        /* \"#utility.yul\":6369:6385   */\n      add\n        /* \"#utility.yul\":6362:6389   */\n      mstore\n        /* \"#utility.yul\":6298:6399   */\n    tag_176:\n        /* \"#utility.yul\":6147:6405   */\n      pop\n        /* \"#utility.yul\":6098:6405   */\n      pop\n      pop\n      pop\n      jump\t// out\n        /* \"#utility.yul\":6411:6591   */\n    tag_158:\n        /* \"#utility.yul\":6459:6536   */\n      0x4e487b7100000000000000000000000000000000000000000000000000000000\n        /* \"#utility.yul\":6456:6457   */\n      0x00\n        /* \"#utility.yul\":6449:6537   */\n      mstore\n        /* \"#utility.yul\":6556:6560   */\n      0x11\n        /* \"#utility.yul\":6553:6554   */\n      0x04\n        /* \"#utility.yul\":6546:6561   */\n      mstore\n        /* \"#utility.yul\":6580:6584   */\n      0x24\n        /* \"#utility.yul\":6577:6578   */\n      0x00\n        /* \"#utility.yul\":6570:6585   */\n      revert\n        /* \"#utility.yul\":6720:6837   */\n    tag_94:\n        /* \"#utility.yul\":6829:6830   */\n      0x00\n        /* \"#utility.yul\":6826:6827   */\n      dup1\n        /* \"#utility.yul\":6819:6831   */\n      revert\n        /* \"#utility.yul\":6843:6945   */\n    tag_125:\n        /* \"#utility.yul\":6884:6890   */\n      0x00\n        /* \"#utility.yul\":6935:6937   */\n      0x1f\n        /* \"#utility.yul\":6931:6938   */\n      not\n        /* \"#utility.yul\":6926:6928   */\n      0x1f\n        /* \"#utility.yul\":6919:6924   */\n      dup4\n        /* \"#utility.yul\":6915:6929   */\n      add\n        /* \"#utility.yul\":6911:6939   */\n      and\n        /* \"#utility.yul\":6901:6939   */\n      swap1\n      pop\n        /* \"#utility.yul\":6843:6945   */\n      swap2\n      swap1\n      pop\n      jump\t// out\n        /* \"#utility.yul\":6951:7248   */\n    tag_130:\n        /* \"#utility.yul\":7091:7125   */\n      0x56616c7565206d7573742062652067726561746572207468616e203020616e64\n        /* \"#utility.yul\":7087:7088   */\n      0x00\n        /* \"#utility.yul\":7079:7085   */\n      dup3\n        /* \"#utility.yul\":7075:7089   */\n      add\n        /* \"#utility.yul\":7068:7126   */\n      mstore\n        /* \"#utility.yul\":7160:7194   */\n      0x20757365722062616c616e6365206d7573742062652067726561746572207468\n        /* \"#utility.yul\":7155:7157   */\n      0x20\n        /* \"#utility.yul\":7147:7153   */\n      dup3\n        /* \"#utility.yul\":7143:7158   */\n      add\n        /* \"#utility.yul\":7136:7195   */\n      mstore\n        /* \"#utility.yul\":7229:7240   */\n      0x616e2076616c7565210000000000000000000000000000000000000000000000\n        /* \"#utility.yul\":7224:7226   */\n      0x40\n        /* \"#utility.yul\":7216:7222   */\n      dup3\n        /* \"#utility.yul\":7212:7227   */\n      add\n        /* \"#utility.yul\":7205:7241   */\n      mstore\n        /* \"#utility.yul\":6951:7248   */\n      pop\n      jump\t// out\n        /* \"#utility.yul\":7254:7376   */\n    tag_86:\n        /* \"#utility.yul\":7327:7351   */\n      tag_184\n        /* \"#utility.yul\":7345:7350   */\n      dup2\n        /* \"#utility.yul\":7327:7351   */\n      tag_164\n      jump\t// in\n    tag_184:\n        /* \"#utility.yul\":7320:7325   */\n      dup2\n        /* \"#utility.yul\":7317:7352   */\n      eq\n        /* \"#utility.yul\":7307:7370   */\n      tag_185\n      jumpi\n        /* \"#utility.yul\":7366:7367   */\n      0x00\n        /* \"#utility.yul\":7363:7364   */\n      dup1\n        /* \"#utility.yul\":7356:7368   */\n      revert\n        /* \"#utility.yul\":7307:7370   */\n    tag_185:\n        /* \"#utility.yul\":7254:7376   */\n      pop\n      jump\t// out\n        /* \"#utility.yul\":7382:7504   */\n    tag_90:\n        /* \"#utility.yul\":7455:7479   */\n      tag_187\n        /* \"#utility.yul\":7473:7478   */\n      dup2\n        /* \"#utility.yul\":7455:7479   */\n      tag_134\n      jump\t// in\n    tag_187:\n        /* \"#utility.yul\":7448:7453   */\n      dup2\n        /* \"#utility.yul\":7445:7480   */\n      eq\n        /* \"#utility.yul\":7435:7498   */\n      tag_188\n      jumpi\n        /* \"#utility.yul\":7494:7495   */\n      0x00\n        /* \"#utility.yul\":7491:7492   */\n      dup1\n        /* \"#utility.yul\":7484:7496   */\n      revert\n        /* \"#utility.yul\":7435:7498   */\n    tag_188:\n        /* \"#utility.yul\":7382:7504   */\n      pop\n      jump\t// out\n\n    auxdata: 0xa2646970667358221220079ac7eb84877484000aee3372ef93666535067cc476cdcb1afb4b15074c71d864736f6c63430008070033\n}\n",
				"bytecode": {
					"linkReferences": {},
					"object": "608060405234801561001057600080fd5b506103e86000803373ffffffffffffffffffffffffffffffffffffffff1673ffffffffffffffffffffffffffffffffffffffff16815260200190815260200160002081905550610b41806100656000396000f3fe608060405234801561001057600080fd5b50600436106100a95760003560e01c806370a082311161007157806370a082311461016857806395d89b4114610198578063a9059cbb146101b6578063b3a80925146101e6578063dd62ed3e14610216578063eca68bf914610246576100a9565b806306fdde03146100ae578063095ea7b3146100cc57806318160ddd146100fc57806323b872dd1461011a578063313ce5671461014a575b600080fd5b6100b6610276565b6040516100c3919061087d565b60405180910390f35b6100e660048036038101906100e19190610799565b6102af565b6040516100f39190610862565b60405180910390f35b61010461033c565b60405161011191906108bf565b60405180910390f35b610134600480360381019061012f9190610746565b610346565b6040516101419190610862565b60405180910390f35b610152610489565b60405161015f91906108da565b60405180910390f35b610182600480360381019061017d91906106d9565b61048e565b60405161018f91906108bf565b60405180910390f35b6101a06104d6565b6040516101ad919061087d565b60405180910390f35b6101d060048036038101906101cb9190610799565b61050f565b6040516101dd9190610862565b60405180910390f35b61020060048036038101906101fb9190610706565b6105eb565b60405161020d91906108bf565b60405180910390f35b610230600480360381019061022b9190610706565b610610565b60405161023d91906108bf565b60405180910390f35b610260600480360381019061025b91906106d9565b610697565b60405161026d91906108bf565b60405180910390f35b6040518060400160405280601281526020017f4d6963726f66696e616e636520546f6b656e000000000000000000000000000081525081565b600081600160003373ffffffffffffffffffffffffffffffffffffffff1673ffffffffffffffffffffffffffffffffffffffff16815260200190815260200160002060008573ffffffffffffffffffffffffffffffffffffffff1673ffffffffffffffffffffffffffffffffffffffff168152602001908152602001600020819055506001905092915050565b60006103e8905090565b600080821180156103955750816000808673ffffffffffffffffffffffffffffffffffffffff1673ffffffffffffffffffffffffffffffffffffffff1681526020019081526020016000205410155b6103d4576040517f08c379a00000000000000000000000000000000000000000000000000000000081526004016103cb9061089f565b60405180910390fd5b816000808673ffffffffffffffffffffffffffffffffffffffff1673ffffffffffffffffffffffffffffffffffffffff16815260200190815260200160002060008282546104229190610967565b92505081905550816000808573ffffffffffffffffffffffffffffffffffffffff1673ffffffffffffffffffffffffffffffffffffffff16815260200190815260200160002060008282546104779190610911565b92505081905550600190509392505050565b600081565b60008060008373ffffffffffffffffffffffffffffffffffffffff1673ffffffffffffffffffffffffffffffffffffffff168152602001908152602001600020549050919050565b6040518060400160405280600381526020017f4d4654000000000000000000000000000000000000000000000000000000000081525081565b6000808211801561052857506105243361048e565b8211155b156105e057816000803373ffffffffffffffffffffffffffffffffffffffff1673ffffffffffffffffffffffffffffffffffffffff168152602001908152602001600020600082825461057b9190610967565b92505081905550816000808573ffffffffffffffffffffffffffffffffffffffff1673ffffffffffffffffffffffffffffffffffffffff16815260200190815260200160002060008282546105d09190610911565b92505081905550600190506105e5565b600090505b92915050565b6001602052816000526040600020602052806000526040600020600091509150505481565b6000600160008473ffffffffffffffffffffffffffffffffffffffff1673ffffffffffffffffffffffffffffffffffffffff16815260200190815260200160002060008373ffffffffffffffffffffffffffffffffffffffff1673ffffffffffffffffffffffffffffffffffffffff16815260200190815260200160002054905092915050565b60006020528060005260406000206000915090505481565b6000813590506106be81610add565b92915050565b6000813590506106d381610af4565b92915050565b6000602082840312156106ef576106ee610a52565b5b60006106fd848285016106af565b91505092915050565b6000806040838503121561071d5761071c610a52565b5b600061072b858286016106af565b925050602061073c858286016106af565b9150509250929050565b60008060006060848603121561075f5761075e610a52565b5b600061076d868287016106af565b935050602061077e868287016106af565b925050604061078f868287016106c4565b9150509250925092565b600080604083850312156107b0576107af610a52565b5b60006107be858286016106af565b92505060206107cf858286016106c4565b9150509250929050565b6107e2816109ad565b82525050565b60006107f3826108f5565b6107fd8185610900565b935061080d8185602086016109f0565b61081681610a57565b840191505092915050565b600061082e604983610900565b915061083982610a68565b606082019050919050565b61084d816109d9565b82525050565b61085c816109e3565b82525050565b600060208201905061087760008301846107d9565b92915050565b6000602082019050818103600083015261089781846107e8565b905092915050565b600060208201905081810360008301526108b881610821565b9050919050565b60006020820190506108d46000830184610844565b92915050565b60006020820190506108ef6000830184610853565b92915050565b600081519050919050565b600082825260208201905092915050565b600061091c826109d9565b9150610927836109d9565b9250827fffffffffffffffffffffffffffffffffffffffffffffffffffffffffffffffff0382111561095c5761095b610a23565b5b828201905092915050565b6000610972826109d9565b915061097d836109d9565b9250828210156109905761098f610a23565b5b828203905092915050565b60006109a6826109b9565b9050919050565b60008115159050919050565b600073ffffffffffffffffffffffffffffffffffffffff82169050919050565b6000819050919050565b600060ff82169050919050565b60005b83811015610a0e5780820151818401526020810190506109f3565b83811115610a1d576000848401525b50505050565b7f4e487b7100000000000000000000000000000000000000000000000000000000600052601160045260246000fd5b600080fd5b6000601f19601f8301169050919050565b7f56616c7565206d7573742062652067726561746572207468616e203020616e6460008201527f20757365722062616c616e6365206d757374206265206772656174657220746860208201527f616e2076616c7565210000000000000000000000000000000000000000000000604082015250565b610ae68161099b565b8114610af157600080fd5b50565b610afd816109d9565b8114610b0857600080fd5b5056fea2646970667358221220079ac7eb84877484000aee3372ef93666535067cc476cdcb1afb4b15074c71d864736f6c63430008070033",
					"opcodes": "PUSH1 0x80 PUSH1 0x40 MSTORE CALLVALUE DUP1 ISZERO PUSH2 0x10 JUMPI PUSH1 0x0 DUP1 REVERT JUMPDEST POP PUSH2 0x3E8 PUSH1 0x0 DUP1 CALLER PUSH20 0xFFFFFFFFFFFFFFFFFFFFFFFFFFFFFFFFFFFFFFFF AND PUSH20 0xFFFFFFFFFFFFFFFFFFFFFFFFFFFFFFFFFFFFFFFF AND DUP2 MSTORE PUSH1 0x20 ADD SWAP1 DUP2 MSTORE PUSH1 0x20 ADD PUSH1 0x0 KECCAK256 DUP2 SWAP1 SSTORE POP PUSH2 0xB41 DUP1 PUSH2 0x65 PUSH1 0x0 CODECOPY PUSH1 0x0 RETURN INVALID PUSH1 0x80 PUSH1 0x40 MSTORE CALLVALUE DUP1 ISZERO PUSH2 0x10 JUMPI PUSH1 0x0 DUP1 REVERT JUMPDEST POP PUSH1 0x4 CALLDATASIZE LT PUSH2 0xA9 JUMPI PUSH1 0x0 CALLDATALOAD PUSH1 0xE0 SHR DUP1 PUSH4 0x70A08231 GT PUSH2 0x71 JUMPI DUP1 PUSH4 0x70A08231 EQ PUSH2 0x168 JUMPI DUP1 PUSH4 0x95D89B41 EQ PUSH2 0x198 JUMPI DUP1 PUSH4 0xA9059CBB EQ PUSH2 0x1B6 JUMPI DUP1 PUSH4 0xB3A80925 EQ PUSH2 0x1E6 JUMPI DUP1 PUSH4 0xDD62ED3E EQ PUSH2 0x216 JUMPI DUP1 PUSH4 0xECA68BF9 EQ PUSH2 0x246 JUMPI PUSH2 0xA9 JUMP JUMPDEST DUP1 PUSH4 0x6FDDE03 EQ PUSH2 0xAE JUMPI DUP1 PUSH4 0x95EA7B3 EQ PUSH2 0xCC JUMPI DUP1 PUSH4 0x18160DDD EQ PUSH2 0xFC JUMPI DUP1 PUSH4 0x23B872DD EQ PUSH2 0x11A JUMPI DUP1 PUSH4 0x313CE567 EQ PUSH2 0x14A JUMPI JUMPDEST PUSH1 0x0 DUP1 REVERT JUMPDEST PUSH2 0xB6 PUSH2 0x276 JUMP JUMPDEST PUSH1 0x40 MLOAD PUSH2 0xC3 SWAP2 SWAP1 PUSH2 0x87D JUMP JUMPDEST PUSH1 0x40 MLOAD DUP1 SWAP2 SUB SWAP1 RETURN JUMPDEST PUSH2 0xE6 PUSH1 0x4 DUP1 CALLDATASIZE SUB DUP2 ADD SWAP1 PUSH2 0xE1 SWAP2 SWAP1 PUSH2 0x799 JUMP JUMPDEST PUSH2 0x2AF JUMP JUMPDEST PUSH1 0x40 MLOAD PUSH2 0xF3 SWAP2 SWAP1 PUSH2 0x862 JUMP JUMPDEST PUSH1 0x40 MLOAD DUP1 SWAP2 SUB SWAP1 RETURN JUMPDEST PUSH2 0x104 PUSH2 0x33C JUMP JUMPDEST PUSH1 0x40 MLOAD PUSH2 0x111 SWAP2 SWAP1 PUSH2 0x8BF JUMP JUMPDEST PUSH1 0x40 MLOAD DUP1 SWAP2 SUB SWAP1 RETURN JUMPDEST PUSH2 0x134 PUSH1 0x4 DUP1 CALLDATASIZE SUB DUP2 ADD SWAP1 PUSH2 0x12F SWAP2 SWAP1 PUSH2 0x746 JUMP JUMPDEST PUSH2 0x346 JUMP JUMPDEST PUSH1 0x40 MLOAD PUSH2 0x141 SWAP2 SWAP1 PUSH2 0x862 JUMP JUMPDEST PUSH1 0x40 MLOAD DUP1 SWAP2 SUB SWAP1 RETURN JUMPDEST PUSH2 0x152 PUSH2 0x489 JUMP JUMPDEST PUSH1 0x40 MLOAD PUSH2 0x15F SWAP2 SWAP1 PUSH2 0x8DA JUMP JUMPDEST PUSH1 0x40 MLOAD DUP1 SWAP2 SUB SWAP1 RETURN JUMPDEST PUSH2 0x182 PUSH1 0x4 DUP1 CALLDATASIZE SUB DUP2 ADD SWAP1 PUSH2 0x17D SWAP2 SWAP1 PUSH2 0x6D9 JUMP JUMPDEST PUSH2 0x48E JUMP JUMPDEST PUSH1 0x40 MLOAD PUSH2 0x18F SWAP2 SWAP1 PUSH2 0x8BF JUMP JUMPDEST PUSH1 0x40 MLOAD DUP1 SWAP2 SUB SWAP1 RETURN JUMPDEST PUSH2 0x1A0 PUSH2 0x4D6 JUMP JUMPDEST PUSH1 0x40 MLOAD PUSH2 0x1AD SWAP2 SWAP1 PUSH2 0x87D JUMP JUMPDEST PUSH1 0x40 MLOAD DUP1 SWAP2 SUB SWAP1 RETURN JUMPDEST PUSH2 0x1D0 PUSH1 0x4 DUP1 CALLDATASIZE SUB DUP2 ADD SWAP1 PUSH2 0x1CB SWAP2 SWAP1 PUSH2 0x799 JUMP JUMPDEST PUSH2 0x50F JUMP JUMPDEST PUSH1 0x40 MLOAD PUSH2 0x1DD SWAP2 SWAP1 PUSH2 0x862 JUMP JUMPDEST PUSH1 0x40 MLOAD DUP1 SWAP2 SUB SWAP1 RETURN JUMPDEST PUSH2 0x200 PUSH1 0x4 DUP1 CALLDATASIZE SUB DUP2 ADD SWAP1 PUSH2 0x1FB SWAP2 SWAP1 PUSH2 0x706 JUMP JUMPDEST PUSH2 0x5EB JUMP JUMPDEST PUSH1 0x40 MLOAD PUSH2 0x20D SWAP2 SWAP1 PUSH2 0x8BF JUMP JUMPDEST PUSH1 0x40 MLOAD DUP1 SWAP2 SUB SWAP1 RETURN JUMPDEST PUSH2 0x230 PUSH1 0x4 DUP1 CALLDATASIZE SUB DUP2 ADD SWAP1 PUSH2 0x22B SWAP2 SWAP1 PUSH2 0x706 JUMP JUMPDEST PUSH2 0x610 JUMP JUMPDEST PUSH1 0x40 MLOAD PUSH2 0x23D SWAP2 SWAP1 PUSH2 0x8BF JUMP JUMPDEST PUSH1 0x40 MLOAD DUP1 SWAP2 SUB SWAP1 RETURN JUMPDEST PUSH2 0x260 PUSH1 0x4 DUP1 CALLDATASIZE SUB DUP2 ADD SWAP1 PUSH2 0x25B SWAP2 SWAP1 PUSH2 0x6D9 JUMP JUMPDEST PUSH2 0x697 JUMP JUMPDEST PUSH1 0x40 MLOAD PUSH2 0x26D SWAP2 SWAP1 PUSH2 0x8BF JUMP JUMPDEST PUSH1 0x40 MLOAD DUP1 SWAP2 SUB SWAP1 RETURN JUMPDEST PUSH1 0x40 MLOAD DUP1 PUSH1 0x40 ADD PUSH1 0x40 MSTORE DUP1 PUSH1 0x12 DUP2 MSTORE PUSH1 0x20 ADD PUSH32 0x4D6963726F66696E616E636520546F6B656E0000000000000000000000000000 DUP2 MSTORE POP DUP2 JUMP JUMPDEST PUSH1 0x0 DUP2 PUSH1 0x1 PUSH1 0x0 CALLER PUSH20 0xFFFFFFFFFFFFFFFFFFFFFFFFFFFFFFFFFFFFFFFF AND PUSH20 0xFFFFFFFFFFFFFFFFFFFFFFFFFFFFFFFFFFFFFFFF AND DUP2 MSTORE PUSH1 0x20 ADD SWAP1 DUP2 MSTORE PUSH1 0x20 ADD PUSH1 0x0 KECCAK256 PUSH1 0x0 DUP6 PUSH20 0xFFFFFFFFFFFFFFFFFFFFFFFFFFFFFFFFFFFFFFFF AND PUSH20 0xFFFFFFFFFFFFFFFFFFFFFFFFFFFFFFFFFFFFFFFF AND DUP2 MSTORE PUSH1 0x20 ADD SWAP1 DUP2 MSTORE PUSH1 0x20 ADD PUSH1 0x0 KECCAK256 DUP2 SWAP1 SSTORE POP PUSH1 0x1 SWAP1 POP SWAP3 SWAP2 POP POP JUMP JUMPDEST PUSH1 0x0 PUSH2 0x3E8 SWAP1 POP SWAP1 JUMP JUMPDEST PUSH1 0x0 DUP1 DUP3 GT DUP1 ISZERO PUSH2 0x395 JUMPI POP DUP2 PUSH1 0x0 DUP1 DUP7 PUSH20 0xFFFFFFFFFFFFFFFFFFFFFFFFFFFFFFFFFFFFFFFF AND PUSH20 0xFFFFFFFFFFFFFFFFFFFFFFFFFFFFFFFFFFFFFFFF AND DUP2 MSTORE PUSH1 0x20 ADD SWAP1 DUP2 MSTORE PUSH1 0x20 ADD PUSH1 0x0 KECCAK256 SLOAD LT ISZERO JUMPDEST PUSH2 0x3D4 JUMPI PUSH1 0x40 MLOAD PUSH32 0x8C379A000000000000000000000000000000000000000000000000000000000 DUP2 MSTORE PUSH1 0x4 ADD PUSH2 0x3CB SWAP1 PUSH2 0x89F JUMP JUMPDEST PUSH1 0x40 MLOAD DUP1 SWAP2 SUB SWAP1 REVERT JUMPDEST DUP2 PUSH1 0x0 DUP1 DUP7 PUSH20 0xFFFFFFFFFFFFFFFFFFFFFFFFFFFFFFFFFFFFFFFF AND PUSH20 0xFFFFFFFFFFFFFFFFFFFFFFFFFFFFFFFFFFFFFFFF AND DUP2 MSTORE PUSH1 0x20 ADD SWAP1 DUP2 MSTORE PUSH1 0x20 ADD PUSH1 0x0 KECCAK256 PUSH1 0x0 DUP3 DUP3 SLOAD PUSH2 0x422 SWAP2 SWAP1 PUSH2 0x967 JUMP JUMPDEST SWAP3 POP POP DUP2 SWAP1 SSTORE POP DUP2 PUSH1 0x0 DUP1 DUP6 PUSH20 0xFFFFFFFFFFFFFFFFFFFFFFFFFFFFFFFFFFFFFFFF AND PUSH20 0xFFFFFFFFFFFFFFFFFFFFFFFFFFFFFFFFFFFFFFFF AND DUP2 MSTORE PUSH1 0x20 ADD SWAP1 DUP2 MSTORE PUSH1 0x20 ADD PUSH1 0x0 KECCAK256 PUSH1 0x0 DUP3 DUP3 SLOAD PUSH2 0x477 SWAP2 SWAP1 PUSH2 0x911 JUMP JUMPDEST SWAP3 POP POP DUP2 SWAP1 SSTORE POP PUSH1 0x1 SWAP1 POP SWAP4 SWAP3 POP POP POP JUMP JUMPDEST PUSH1 0x0 DUP2 JUMP JUMPDEST PUSH1 0x0 DUP1 PUSH1 0x0 DUP4 PUSH20 0xFFFFFFFFFFFFFFFFFFFFFFFFFFFFFFFFFFFFFFFF AND PUSH20 0xFFFFFFFFFFFFFFFFFFFFFFFFFFFFFFFFFFFFFFFF AND DUP2 MSTORE PUSH1 0x20 ADD SWAP1 DUP2 MSTORE PUSH1 0x20 ADD PUSH1 0x0 KECCAK256 SLOAD SWAP1 POP SWAP2 SWAP1 POP JUMP JUMPDEST PUSH1 0x40 MLOAD DUP1 PUSH1 0x40 ADD PUSH1 0x40 MSTORE DUP1 PUSH1 0x3 DUP2 MSTORE PUSH1 0x20 ADD PUSH32 0x4D46540000000000000000000000000000000000000000000000000000000000 DUP2 MSTORE POP DUP2 JUMP JUMPDEST PUSH1 0x0 DUP1 DUP3 GT DUP1 ISZERO PUSH2 0x528 JUMPI POP PUSH2 0x524 CALLER PUSH2 0x48E JUMP JUMPDEST DUP3 GT ISZERO JUMPDEST ISZERO PUSH2 0x5E0 JUMPI DUP2 PUSH1 0x0 DUP1 CALLER PUSH20 0xFFFFFFFFFFFFFFFFFFFFFFFFFFFFFFFFFFFFFFFF AND PUSH20 0xFFFFFFFFFFFFFFFFFFFFFFFFFFFFFFFFFFFFFFFF AND DUP2 MSTORE PUSH1 0x20 ADD SWAP1 DUP2 MSTORE PUSH1 0x20 ADD PUSH1 0x0 KECCAK256 PUSH1 0x0 DUP3 DUP3 SLOAD PUSH2 0x57B SWAP2 SWAP1 PUSH2 0x967 JUMP JUMPDEST SWAP3 POP POP DUP2 SWAP1 SSTORE POP DUP2 PUSH1 0x0 DUP1 DUP6 PUSH20 0xFFFFFFFFFFFFFFFFFFFFFFFFFFFFFFFFFFFFFFFF AND PUSH20 0xFFFFFFFFFFFFFFFFFFFFFFFFFFFFFFFFFFFFFFFF AND DUP2 MSTORE PUSH1 0x20 ADD SWAP1 DUP2 MSTORE PUSH1 0x20 ADD PUSH1 0x0 KECCAK256 PUSH1 0x0 DUP3 DUP3 SLOAD PUSH2 0x5D0 SWAP2 SWAP1 PUSH2 0x911 JUMP JUMPDEST SWAP3 POP POP DUP2 SWAP1 SSTORE POP PUSH1 0x1 SWAP1 POP PUSH2 0x5E5 JUMP JUMPDEST PUSH1 0x0 SWAP1 POP JUMPDEST SWAP3 SWAP2 POP POP JUMP JUMPDEST PUSH1 0x1 PUSH1 0x20 MSTORE DUP2 PUSH1 0x0 MSTORE PUSH1 0x40 PUSH1 0x0 KECCAK256 PUSH1 0x20 MSTORE DUP1 PUSH1 0x0 MSTORE PUSH1 0x40 PUSH1 0x0 KECCAK256 PUSH1 0x0 SWAP2 POP SWAP2 POP POP SLOAD DUP2 JUMP JUMPDEST PUSH1 0x0 PUSH1 0x1 PUSH1 0x0 DUP5 PUSH20 0xFFFFFFFFFFFFFFFFFFFFFFFFFFFFFFFFFFFFFFFF AND PUSH20 0xFFFFFFFFFFFFFFFFFFFFFFFFFFFFFFFFFFFFFFFF AND DUP2 MSTORE PUSH1 0x20 ADD SWAP1 DUP2 MSTORE PUSH1 0x20 ADD PUSH1 0x0 KECCAK256 PUSH1 0x0 DUP4 PUSH20 0xFFFFFFFFFFFFFFFFFFFFFFFFFFFFFFFFFFFFFFFF AND PUSH20 0xFFFFFFFFFFFFFFFFFFFFFFFFFFFFFFFFFFFFFFFF AND DUP2 MSTORE PUSH1 0x20 ADD SWAP1 DUP2 MSTORE PUSH1 0x20 ADD PUSH1 0x0 KECCAK256 SLOAD SWAP1 POP SWAP3 SWAP2 POP POP JUMP JUMPDEST PUSH1 0x0 PUSH1 0x20 MSTORE DUP1 PUSH1 0x0 MSTORE PUSH1 0x40 PUSH1 0x0 KECCAK256 PUSH1 0x0 SWAP2 POP SWAP1 POP SLOAD DUP2 JUMP JUMPDEST PUSH1 0x0 DUP2 CALLDATALOAD SWAP1 POP PUSH2 0x6BE DUP2 PUSH2 0xADD JUMP JUMPDEST SWAP3 SWAP2 POP POP JUMP JUMPDEST PUSH1 0x0 DUP2 CALLDATALOAD SWAP1 POP PUSH2 0x6D3 DUP2 PUSH2 0xAF4 JUMP JUMPDEST SWAP3 SWAP2 POP POP JUMP JUMPDEST PUSH1 0x0 PUSH1 0x20 DUP3 DUP5 SUB SLT ISZERO PUSH2 0x6EF JUMPI PUSH2 0x6EE PUSH2 0xA52 JUMP JUMPDEST JUMPDEST PUSH1 0x0 PUSH2 0x6FD DUP5 DUP3 DUP6 ADD PUSH2 0x6AF JUMP JUMPDEST SWAP2 POP POP SWAP3 SWAP2 POP POP JUMP JUMPDEST PUSH1 0x0 DUP1 PUSH1 0x40 DUP4 DUP6 SUB SLT ISZERO PUSH2 0x71D JUMPI PUSH2 0x71C PUSH2 0xA52 JUMP JUMPDEST JUMPDEST PUSH1 0x0 PUSH2 0x72B DUP6 DUP3 DUP7 ADD PUSH2 0x6AF JUMP JUMPDEST SWAP3 POP POP PUSH1 0x20 PUSH2 0x73C DUP6 DUP3 DUP7 ADD PUSH2 0x6AF JUMP JUMPDEST SWAP2 POP POP SWAP3 POP SWAP3 SWAP1 POP JUMP JUMPDEST PUSH1 0x0 DUP1 PUSH1 0x0 PUSH1 0x60 DUP5 DUP7 SUB SLT ISZERO PUSH2 0x75F JUMPI PUSH2 0x75E PUSH2 0xA52 JUMP JUMPDEST JUMPDEST PUSH1 0x0 PUSH2 0x76D DUP7 DUP3 DUP8 ADD PUSH2 0x6AF JUMP JUMPDEST SWAP4 POP POP PUSH1 0x20 PUSH2 0x77E DUP7 DUP3 DUP8 ADD PUSH2 0x6AF JUMP JUMPDEST SWAP3 POP POP PUSH1 0x40 PUSH2 0x78F DUP7 DUP3 DUP8 ADD PUSH2 0x6C4 JUMP JUMPDEST SWAP2 POP POP SWAP3 POP SWAP3 POP SWAP3 JUMP JUMPDEST PUSH1 0x0 DUP1 PUSH1 0x40 DUP4 DUP6 SUB SLT ISZERO PUSH2 0x7B0 JUMPI PUSH2 0x7AF PUSH2 0xA52 JUMP JUMPDEST JUMPDEST PUSH1 0x0 PUSH2 0x7BE DUP6 DUP3 DUP7 ADD PUSH2 0x6AF JUMP JUMPDEST SWAP3 POP POP PUSH1 0x20 PUSH2 0x7CF DUP6 DUP3 DUP7 ADD PUSH2 0x6C4 JUMP JUMPDEST SWAP2 POP POP SWAP3 POP SWAP3 SWAP1 POP JUMP JUMPDEST PUSH2 0x7E2 DUP2 PUSH2 0x9AD JUMP JUMPDEST DUP3 MSTORE POP POP JUMP JUMPDEST PUSH1 0x0 PUSH2 0x7F3 DUP3 PUSH2 0x8F5 JUMP JUMPDEST PUSH2 0x7FD DUP2 DUP6 PUSH2 0x900 JUMP JUMPDEST SWAP4 POP PUSH2 0x80D DUP2 DUP6 PUSH1 0x20 DUP7 ADD PUSH2 0x9F0 JUMP JUMPDEST PUSH2 0x816 DUP2 PUSH2 0xA57 JUMP JUMPDEST DUP5 ADD SWAP2 POP POP SWAP3 SWAP2 POP POP JUMP JUMPDEST PUSH1 0x0 PUSH2 0x82E PUSH1 0x49 DUP4 PUSH2 0x900 JUMP JUMPDEST SWAP2 POP PUSH2 0x839 DUP3 PUSH2 0xA68 JUMP JUMPDEST PUSH1 0x60 DUP3 ADD SWAP1 POP SWAP2 SWAP1 POP JUMP JUMPDEST PUSH2 0x84D DUP2 PUSH2 0x9D9 JUMP JUMPDEST DUP3 MSTORE POP POP JUMP JUMPDEST PUSH2 0x85C DUP2 PUSH2 0x9E3 JUMP JUMPDEST DUP3 MSTORE POP POP JUMP JUMPDEST PUSH1 0x0 PUSH1 0x20 DUP3 ADD SWAP1 POP PUSH2 0x877 PUSH1 0x0 DUP4 ADD DUP5 PUSH2 0x7D9 JUMP JUMPDEST SWAP3 SWAP2 POP POP JUMP JUMPDEST PUSH1 0x0 PUSH1 0x20 DUP3 ADD SWAP1 POP DUP2 DUP2 SUB PUSH1 0x0 DUP4 ADD MSTORE PUSH2 0x897 DUP2 DUP5 PUSH2 0x7E8 JUMP JUMPDEST SWAP1 POP SWAP3 SWAP2 POP POP JUMP JUMPDEST PUSH1 0x0 PUSH1 0x20 DUP3 ADD SWAP1 POP DUP2 DUP2 SUB PUSH1 0x0 DUP4 ADD MSTORE PUSH2 0x8B8 DUP2 PUSH2 0x821 JUMP JUMPDEST SWAP1 POP SWAP2 SWAP1 POP JUMP JUMPDEST PUSH1 0x0 PUSH1 0x20 DUP3 ADD SWAP1 POP PUSH2 0x8D4 PUSH1 0x0 DUP4 ADD DUP5 PUSH2 0x844 JUMP JUMPDEST SWAP3 SWAP2 POP POP JUMP JUMPDEST PUSH1 0x0 PUSH1 0x20 DUP3 ADD SWAP1 POP PUSH2 0x8EF PUSH1 0x0 DUP4 ADD DUP5 PUSH2 0x853 JUMP JUMPDEST SWAP3 SWAP2 POP POP JUMP JUMPDEST PUSH1 0x0 DUP2 MLOAD SWAP1 POP SWAP2 SWAP1 POP JUMP JUMPDEST PUSH1 0x0 DUP3 DUP3 MSTORE PUSH1 0x20 DUP3 ADD SWAP1 POP SWAP3 SWAP2 POP POP JUMP JUMPDEST PUSH1 0x0 PUSH2 0x91C DUP3 PUSH2 0x9D9 JUMP JUMPDEST SWAP2 POP PUSH2 0x927 DUP4 PUSH2 0x9D9 JUMP JUMPDEST SWAP3 POP DUP3 PUSH32 0xFFFFFFFFFFFFFFFFFFFFFFFFFFFFFFFFFFFFFFFFFFFFFFFFFFFFFFFFFFFFFFFF SUB DUP3 GT ISZERO PUSH2 0x95C JUMPI PUSH2 0x95B PUSH2 0xA23 JUMP JUMPDEST JUMPDEST DUP3 DUP3 ADD SWAP1 POP SWAP3 SWAP2 POP POP JUMP JUMPDEST PUSH1 0x0 PUSH2 0x972 DUP3 PUSH2 0x9D9 JUMP JUMPDEST SWAP2 POP PUSH2 0x97D DUP4 PUSH2 0x9D9 JUMP JUMPDEST SWAP3 POP DUP3 DUP3 LT ISZERO PUSH2 0x990 JUMPI PUSH2 0x98F PUSH2 0xA23 JUMP JUMPDEST JUMPDEST DUP3 DUP3 SUB SWAP1 POP SWAP3 SWAP2 POP POP JUMP JUMPDEST PUSH1 0x0 PUSH2 0x9A6 DUP3 PUSH2 0x9B9 JUMP JUMPDEST SWAP1 POP SWAP2 SWAP1 POP JUMP JUMPDEST PUSH1 0x0 DUP2 ISZERO ISZERO SWAP1 POP SWAP2 SWAP1 POP JUMP JUMPDEST PUSH1 0x0 PUSH20 0xFFFFFFFFFFFFFFFFFFFFFFFFFFFFFFFFFFFFFFFF DUP3 AND SWAP1 POP SWAP2 SWAP1 POP JUMP JUMPDEST PUSH1 0x0 DUP2 SWAP1 POP SWAP2 SWAP1 POP JUMP JUMPDEST PUSH1 0x0 PUSH1 0xFF DUP3 AND SWAP1 POP SWAP2 SWAP1 POP JUMP JUMPDEST PUSH1 0x0 JUMPDEST DUP4 DUP2 LT ISZERO PUSH2 0xA0E JUMPI DUP1 DUP3 ADD MLOAD DUP2 DUP5 ADD MSTORE PUSH1 0x20 DUP2 ADD SWAP1 POP PUSH2 0x9F3 JUMP JUMPDEST DUP4 DUP2 GT ISZERO PUSH2 0xA1D JUMPI PUSH1 0x0 DUP5 DUP5 ADD MSTORE JUMPDEST POP POP POP POP JUMP JUMPDEST PUSH32 0x4E487B7100000000000000000000000000000000000000000000000000000000 PUSH1 0x0 MSTORE PUSH1 0x11 PUSH1 0x4 MSTORE PUSH1 0x24 PUSH1 0x0 REVERT JUMPDEST PUSH1 0x0 DUP1 REVERT JUMPDEST PUSH1 0x0 PUSH1 0x1F NOT PUSH1 0x1F DUP4 ADD AND SWAP1 POP SWAP2 SWAP1 POP JUMP JUMPDEST PUSH32 0x56616C7565206D7573742062652067726561746572207468616E203020616E64 PUSH1 0x0 DUP3 ADD MSTORE PUSH32 0x20757365722062616C616E6365206D7573742062652067726561746572207468 PUSH1 0x20 DUP3 ADD MSTORE PUSH32 0x616E2076616C7565210000000000000000000000000000000000000000000000 PUSH1 0x40 DUP3 ADD MSTORE POP JUMP JUMPDEST PUSH2 0xAE6 DUP2 PUSH2 0x99B JUMP JUMPDEST DUP2 EQ PUSH2 0xAF1 JUMPI PUSH1 0x0 DUP1 REVERT JUMPDEST POP JUMP JUMPDEST PUSH2 0xAFD DUP2 PUSH2 0x9D9 JUMP JUMPDEST DUP2 EQ PUSH2 0xB08 JUMPI PUSH1 0x0 DUP1 REVERT JUMPDEST POP JUMP INVALID LOG2 PUSH5 0x6970667358 0x22 SLT KECCAK256 SMOD SWAP11 0xC7 0xEB DUP5 DUP8 PUSH21 0x84000AEE3372EF93666535067CC476CDCB1AFB4B15 SMOD 0x4C PUSH18 0xD864736F6C63430008070033000000000000 "
				},
				"gasEstimates": {
					"creation": {
						"codeDepositCost": "576200",
						"executionCost": "22816",
						"totalCost": "599016"
					},
					"external": {
						"__allowances(address,address)": "infinite",
						"__balanceOf(address)": "2924",
						"allowance(address,address)": "infinite",
						"approve(address,uint256)": "23146",
						"balanceOf(address)": "2841",
						"decimals()": "424",
						"name()": "infinite",
						"symbol()": "infinite",
						"totalSupply()": "382",
						"transfer(address,uint256)": "infinite",
						"transferFrom(address,address,uint256)": "infinite"
					}
				},
				"methodIdentifiers": {
					"__allowances(address,address)": "b3a80925",
					"__balanceOf(address)": "eca68bf9",
					"allowance(address,address)": "dd62ed3e",
					"approve(address,uint256)": "095ea7b3",
					"balanceOf(address)": "70a08231",
					"decimals()": "313ce567",
					"name()": "06fdde03",
					"symbol()": "95d89b41",
					"totalSupply()": "18160ddd",
					"transfer(address,uint256)": "a9059cbb",
					"transferFrom(address,address,uint256)": "23b872dd"
				}
			},
			"userdoc": {
				"kind": "user",
				"methods": {},
				"version": 1
			}
		}
	}
}