{
	"contracts/CarRentalSmartContract.sol": {
		"CarRental": {
			"abi": [
				{
					"inputs": [
						{
							"internalType": "address",
							"name": "carCompanyAddress",
							"type": "address"
						}
					],
					"stateMutability": "nonpayable",
					"type": "constructor"
				},
				{
					"inputs": [
						{
							"internalType": "string",
							"name": "carName",
							"type": "string"
						},
						{
							"internalType": "uint256",
							"name": "carDailyRent",
							"type": "uint256"
						},
						{
							"internalType": "uint256",
							"name": "number",
							"type": "uint256"
						}
					],
					"name": "ABCAddCar",
					"outputs": [
						{
							"internalType": "bool",
							"name": "",
							"type": "bool"
						}
					],
					"stateMutability": "nonpayable",
					"type": "function"
				},
				{
					"inputs": [],
					"name": "ABCAddress",
					"outputs": [
						{
							"internalType": "address",
							"name": "",
							"type": "address"
						}
					],
					"stateMutability": "view",
					"type": "function"
				},
				{
					"inputs": [
						{
							"internalType": "uint256",
							"name": "returnRecordId",
							"type": "uint256"
						},
						{
							"internalType": "uint256",
							"name": "damageFixFeeHere",
							"type": "uint256"
						}
					],
					"name": "ABCAuditDeposit",
					"outputs": [
						{
							"components": [
								{
									"internalType": "uint256",
									"name": "auditRecordId",
									"type": "uint256"
								},
								{
									"internalType": "uint256",
									"name": "returnRecordId",
									"type": "uint256"
								},
								{
									"internalType": "address",
									"name": "customerAddress",
									"type": "address"
								},
								{
									"internalType": "uint256",
									"name": "damageFixFee",
									"type": "uint256"
								},
								{
									"internalType": "uint256",
									"name": "actualRefundAmount",
									"type": "uint256"
								}
							],
							"internalType": "struct CarRental.ABCAuditDepositRecord",
							"name": "",
							"type": "tuple"
						}
					],
					"stateMutability": "payable",
					"type": "function"
				},
				{
					"inputs": [
						{
							"internalType": "uint256",
							"name": "",
							"type": "uint256"
						}
					],
					"name": "allABCAuditDepositRecord",
					"outputs": [
						{
							"internalType": "uint256",
							"name": "auditRecordId",
							"type": "uint256"
						},
						{
							"internalType": "uint256",
							"name": "returnRecordId",
							"type": "uint256"
						},
						{
							"internalType": "address",
							"name": "customerAddress",
							"type": "address"
						},
						{
							"internalType": "uint256",
							"name": "damageFixFee",
							"type": "uint256"
						},
						{
							"internalType": "uint256",
							"name": "actualRefundAmount",
							"type": "uint256"
						}
					],
					"stateMutability": "view",
					"type": "function"
				},
				{
					"inputs": [
						{
							"internalType": "address",
							"name": "",
							"type": "address"
						}
					],
					"name": "allCustomerAddresses",
					"outputs": [
						{
							"internalType": "bool",
							"name": "",
							"type": "bool"
						}
					],
					"stateMutability": "view",
					"type": "function"
				},
				{
					"inputs": [
						{
							"internalType": "uint256",
							"name": "",
							"type": "uint256"
						}
					],
					"name": "allCustomerRentCarRecord",
					"outputs": [
						{
							"internalType": "uint256",
							"name": "rentRecordId",
							"type": "uint256"
						},
						{
							"internalType": "address",
							"name": "customerAddress",
							"type": "address"
						},
						{
							"internalType": "string",
							"name": "carName",
							"type": "string"
						},
						{
							"internalType": "uint256",
							"name": "rentDays",
							"type": "uint256"
						},
						{
							"internalType": "uint256",
							"name": "totalMoneyDeposit",
							"type": "uint256"
						},
						{
							"internalType": "uint256",
							"name": "rentTimeStamp",
							"type": "uint256"
						},
						{
							"internalType": "int256",
							"name": "returnRecordId",
							"type": "int256"
						}
					],
					"stateMutability": "view",
					"type": "function"
				},
				{
					"inputs": [
						{
							"internalType": "uint256",
							"name": "",
							"type": "uint256"
						}
					],
					"name": "allCustomerReturnCarRecord",
					"outputs": [
						{
							"internalType": "uint256",
							"name": "returnRecordId",
							"type": "uint256"
						},
						{
							"internalType": "uint256",
							"name": "rentRecordId",
							"type": "uint256"
						},
						{
							"internalType": "address",
							"name": "customerAddress",
							"type": "address"
						},
						{
							"internalType": "string",
							"name": "carName",
							"type": "string"
						},
						{
							"internalType": "uint256",
							"name": "returnTimeStamp",
							"type": "uint256"
						},
						{
							"internalType": "uint256",
							"name": "rentFee",
							"type": "uint256"
						},
						{
							"internalType": "int256",
							"name": "auditRecordId",
							"type": "int256"
						}
					],
					"stateMutability": "view",
					"type": "function"
				},
				{
					"inputs": [
						{
							"internalType": "string",
							"name": "",
							"type": "string"
						}
					],
					"name": "carAvailability",
					"outputs": [
						{
							"internalType": "uint256",
							"name": "",
							"type": "uint256"
						}
					],
					"stateMutability": "view",
					"type": "function"
				},
				{
					"inputs": [
						{
							"internalType": "string",
							"name": "",
							"type": "string"
						}
					],
					"name": "carInfo",
					"outputs": [
						{
							"internalType": "string",
							"name": "name",
							"type": "string"
						},
						{
							"internalType": "uint256",
							"name": "needDeposit",
							"type": "uint256"
						},
						{
							"internalType": "uint256",
							"name": "dailyRent",
							"type": "uint256"
						}
					],
					"stateMutability": "view",
					"type": "function"
				},
				{
					"inputs": [],
					"name": "currentAuditRecordId",
					"outputs": [
						{
							"internalType": "uint256",
							"name": "",
							"type": "uint256"
						}
					],
					"stateMutability": "view",
					"type": "function"
				},
				{
					"inputs": [],
					"name": "currentRentRecordId",
					"outputs": [
						{
							"internalType": "uint256",
							"name": "",
							"type": "uint256"
						}
					],
					"stateMutability": "view",
					"type": "function"
				},
				{
					"inputs": [],
					"name": "currentReturnRecordId",
					"outputs": [
						{
							"internalType": "uint256",
							"name": "",
							"type": "uint256"
						}
					],
					"stateMutability": "view",
					"type": "function"
				},
				{
					"inputs": [],
					"name": "customerRegister",
					"outputs": [
						{
							"internalType": "bool",
							"name": "",
							"type": "bool"
						}
					],
					"stateMutability": "nonpayable",
					"type": "function"
				},
				{
					"inputs": [
						{
							"internalType": "string",
							"name": "carName",
							"type": "string"
						},
						{
							"internalType": "uint256",
							"name": "rentDays",
							"type": "uint256"
						}
					],
					"name": "customerRentCar",
					"outputs": [
						{
							"components": [
								{
									"internalType": "uint256",
									"name": "rentRecordId",
									"type": "uint256"
								},
								{
									"internalType": "address",
									"name": "customerAddress",
									"type": "address"
								},
								{
									"internalType": "string",
									"name": "carName",
									"type": "string"
								},
								{
									"internalType": "uint256",
									"name": "rentDays",
									"type": "uint256"
								},
								{
									"internalType": "uint256",
									"name": "totalMoneyDeposit",
									"type": "uint256"
								},
								{
									"internalType": "uint256",
									"name": "rentTimeStamp",
									"type": "uint256"
								},
								{
									"internalType": "int256",
									"name": "returnRecordId",
									"type": "int256"
								}
							],
							"internalType": "struct CarRental.customerRentCarRecord",
							"name": "",
							"type": "tuple"
						}
					],
					"stateMutability": "payable",
					"type": "function"
				},
				{
					"inputs": [
						{
							"internalType": "address",
							"name": "",
							"type": "address"
						},
						{
							"internalType": "string",
							"name": "",
							"type": "string"
						}
					],
					"name": "customerRentingCarNumber",
					"outputs": [
						{
							"internalType": "uint256",
							"name": "",
							"type": "uint256"
						}
					],
					"stateMutability": "view",
					"type": "function"
				},
				{
					"inputs": [
						{
							"internalType": "uint256",
							"name": "rentRecordId",
							"type": "uint256"
						}
					],
					"name": "customerReturnCar",
					"outputs": [
						{
							"components": [
								{
									"internalType": "uint256",
									"name": "returnRecordId",
									"type": "uint256"
								},
								{
									"internalType": "uint256",
									"name": "rentRecordId",
									"type": "uint256"
								},
								{
									"internalType": "address",
									"name": "customerAddress",
									"type": "address"
								},
								{
									"internalType": "string",
									"name": "carName",
									"type": "string"
								},
								{
									"internalType": "uint256",
									"name": "returnTimeStamp",
									"type": "uint256"
								},
								{
									"internalType": "uint256",
									"name": "rentFee",
									"type": "uint256"
								},
								{
									"internalType": "int256",
									"name": "auditRecordId",
									"type": "int256"
								}
							],
							"internalType": "struct CarRental.customerReturnCarRecord",
							"name": "",
							"type": "tuple"
						}
					],
					"stateMutability": "nonpayable",
					"type": "function"
				}
			],
			"devdoc": {
				"kind": "dev",
				"methods": {},
				"version": 1
			},
			"evm": {
				"assembly": "    /* \"contracts/CarRentalSmartContract.sol\":35:9723  contract CarRental {... */\n  mstore(0x40, 0x80)\n    /* \"contracts/CarRentalSmartContract.sol\":1835:1836  1 */\n  0x01\n    /* \"contracts/CarRentalSmartContract.sol\":1800:1836  uint public currentRentRecordId  = 1 */\n  0x05\n  sstore\n    /* \"contracts/CarRentalSmartContract.sol\":1956:1957  1 */\n  0x01\n    /* \"contracts/CarRentalSmartContract.sol\":1920:1957  uint public currentReturnRecordId = 1 */\n  0x07\n  sstore\n    /* \"contracts/CarRentalSmartContract.sol\":2080:2081  1 */\n  0x01\n    /* \"contracts/CarRentalSmartContract.sol\":2045:2081  uint public currentAuditRecordId = 1 */\n  0x09\n  sstore\n    /* \"contracts/CarRentalSmartContract.sol\":2729:2815  constructor(address carCompanyAddress) {... */\n  callvalue\n  dup1\n  iszero\n  tag_1\n  jumpi\n  0x00\n  dup1\n  revert\ntag_1:\n  pop\n  mload(0x40)\n  sub(codesize, bytecodeSize)\n  dup1\n  bytecodeSize\n  dup4\n  codecopy\n  dup2\n  dup2\n  add\n  0x40\n  mstore\n  dup2\n  add\n  swap1\n  tag_2\n  swap2\n  swap1\n  tag_3\n  jump\t// in\ntag_2:\n    /* \"contracts/CarRentalSmartContract.sol\":2791:2808  carCompanyAddress */\n  dup1\n    /* \"contracts/CarRentalSmartContract.sol\":2778:2788  ABCAddress */\n  0x00\n  dup1\n    /* \"contracts/CarRentalSmartContract.sol\":2778:2808  ABCAddress = carCompanyAddress */\n  0x0100\n  exp\n  dup2\n  sload\n  dup2\n  0xffffffffffffffffffffffffffffffffffffffff\n  mul\n  not\n  and\n  swap1\n  dup4\n  0xffffffffffffffffffffffffffffffffffffffff\n  and\n  mul\n  or\n  swap1\n  sstore\n  pop\n    /* \"contracts/CarRentalSmartContract.sol\":2729:2815  constructor(address carCompanyAddress) {... */\n  pop\n    /* \"contracts/CarRentalSmartContract.sol\":35:9723  contract CarRental {... */\n  jump(tag_6)\n    /* \"#utility.yul\":7:150   */\ntag_8:\n    /* \"#utility.yul\":64:69   */\n  0x00\n    /* \"#utility.yul\":95:101   */\n  dup2\n    /* \"#utility.yul\":89:102   */\n  mload\n    /* \"#utility.yul\":80:102   */\n  swap1\n  pop\n    /* \"#utility.yul\":111:144   */\n  tag_10\n    /* \"#utility.yul\":138:143   */\n  dup2\n    /* \"#utility.yul\":111:144   */\n  tag_11\n  jump\t// in\ntag_10:\n    /* \"#utility.yul\":7:150   */\n  swap3\n  swap2\n  pop\n  pop\n  jump\t// out\n    /* \"#utility.yul\":156:507   */\ntag_3:\n    /* \"#utility.yul\":226:232   */\n  0x00\n    /* \"#utility.yul\":275:277   */\n  0x20\n    /* \"#utility.yul\":263:272   */\n  dup3\n    /* \"#utility.yul\":254:261   */\n  dup5\n    /* \"#utility.yul\":250:273   */\n  sub\n    /* \"#utility.yul\":246:278   */\n  slt\n    /* \"#utility.yul\":243:362   */\n  iszero\n  tag_13\n  jumpi\n    /* \"#utility.yul\":281:360   */\n  tag_14\n  tag_15\n  jump\t// in\ntag_14:\n    /* \"#utility.yul\":243:362   */\ntag_13:\n    /* \"#utility.yul\":401:402   */\n  0x00\n    /* \"#utility.yul\":426:490   */\n  tag_16\n    /* \"#utility.yul\":482:489   */\n  dup5\n    /* \"#utility.yul\":473:479   */\n  dup3\n    /* \"#utility.yul\":462:471   */\n  dup6\n    /* \"#utility.yul\":458:480   */\n  add\n    /* \"#utility.yul\":426:490   */\n  tag_8\n  jump\t// in\ntag_16:\n    /* \"#utility.yul\":416:490   */\n  swap2\n  pop\n    /* \"#utility.yul\":372:500   */\n  pop\n    /* \"#utility.yul\":156:507   */\n  swap3\n  swap2\n  pop\n  pop\n  jump\t// out\n    /* \"#utility.yul\":594:690   */\ntag_19:\n    /* \"#utility.yul\":631:638   */\n  0x00\n    /* \"#utility.yul\":660:684   */\n  tag_21\n    /* \"#utility.yul\":678:683   */\n  dup3\n    /* \"#utility.yul\":660:684   */\n  tag_22\n  jump\t// in\ntag_21:\n    /* \"#utility.yul\":649:684   */\n  swap1\n  pop\n    /* \"#utility.yul\":594:690   */\n  swap2\n  swap1\n  pop\n  jump\t// out\n    /* \"#utility.yul\":696:822   */\ntag_22:\n    /* \"#utility.yul\":733:740   */\n  0x00\n    /* \"#utility.yul\":773:815   */\n  0xffffffffffffffffffffffffffffffffffffffff\n    /* \"#utility.yul\":766:771   */\n  dup3\n    /* \"#utility.yul\":762:816   */\n  and\n    /* \"#utility.yul\":751:816   */\n  swap1\n  pop\n    /* \"#utility.yul\":696:822   */\n  swap2\n  swap1\n  pop\n  jump\t// out\n    /* \"#utility.yul\":951:1068   */\ntag_15:\n    /* \"#utility.yul\":1060:1061   */\n  0x00\n    /* \"#utility.yul\":1057:1058   */\n  dup1\n    /* \"#utility.yul\":1050:1062   */\n  revert\n    /* \"#utility.yul\":1074:1196   */\ntag_11:\n    /* \"#utility.yul\":1147:1171   */\n  tag_28\n    /* \"#utility.yul\":1165:1170   */\n  dup2\n    /* \"#utility.yul\":1147:1171   */\n  tag_19\n  jump\t// in\ntag_28:\n    /* \"#utility.yul\":1140:1145   */\n  dup2\n    /* \"#utility.yul\":1137:1172   */\n  eq\n    /* \"#utility.yul\":1127:1190   */\n  tag_29\n  jumpi\n    /* \"#utility.yul\":1186:1187   */\n  0x00\n    /* \"#utility.yul\":1183:1184   */\n  dup1\n    /* \"#utility.yul\":1176:1188   */\n  revert\n    /* \"#utility.yul\":1127:1190   */\ntag_29:\n    /* \"#utility.yul\":1074:1196   */\n  pop\n  jump\t// out\n    /* \"contracts/CarRentalSmartContract.sol\":35:9723  contract CarRental {... */\ntag_6:\n  dataSize(sub_0)\n  dup1\n  dataOffset(sub_0)\n  0x00\n  codecopy\n  0x00\n  return\nstop\n\nsub_0: assembly {\n        /* \"contracts/CarRentalSmartContract.sol\":35:9723  contract CarRental {... */\n      mstore(0x40, 0x80)\n      jumpi(tag_1, lt(calldatasize, 0x04))\n      shr(0xe0, calldataload(0x00))\n      dup1\n      0x6b93e409\n      gt\n      tag_18\n      jumpi\n      dup1\n      0xc87dec7a\n      gt\n      tag_19\n      jumpi\n      dup1\n      0xc87dec7a\n      eq\n      tag_14\n      jumpi\n      dup1\n      0xcb2acd80\n      eq\n      tag_15\n      jumpi\n      dup1\n      0xd05a0447\n      eq\n      tag_16\n      jumpi\n      dup1\n      0xe4962463\n      eq\n      tag_17\n      jumpi\n      jump(tag_1)\n    tag_19:\n      dup1\n      0x6b93e409\n      eq\n      tag_10\n      jumpi\n      dup1\n      0x94fa8235\n      eq\n      tag_11\n      jumpi\n      dup1\n      0x9532007a\n      eq\n      tag_12\n      jumpi\n      dup1\n      0xb027a759\n      eq\n      tag_13\n      jumpi\n      jump(tag_1)\n    tag_18:\n      dup1\n      0x3a8c0e6e\n      gt\n      tag_20\n      jumpi\n      dup1\n      0x3a8c0e6e\n      eq\n      tag_6\n      jumpi\n      dup1\n      0x3e7ab6a8\n      eq\n      tag_7\n      jumpi\n      dup1\n      0x5177d6d2\n      eq\n      tag_8\n      jumpi\n      dup1\n      0x586fa64d\n      eq\n      tag_9\n      jumpi\n      jump(tag_1)\n    tag_20:\n      dup1\n      0x1e4c44\n      eq\n      tag_2\n      jumpi\n      dup1\n      0x0958d944\n      eq\n      tag_3\n      jumpi\n      dup1\n      0x1049f50a\n      eq\n      tag_4\n      jumpi\n      dup1\n      0x38266fe5\n      eq\n      tag_5\n      jumpi\n    tag_1:\n      0x00\n      dup1\n      revert\n        /* \"contracts/CarRentalSmartContract.sol\":2045:2081  uint public currentAuditRecordId = 1 */\n    tag_2:\n      callvalue\n      dup1\n      iszero\n      tag_21\n      jumpi\n      0x00\n      dup1\n      revert\n    tag_21:\n      pop\n      tag_22\n      tag_23\n      jump\t// in\n    tag_22:\n      mload(0x40)\n      tag_24\n      swap2\n      swap1\n      tag_25\n      jump\t// in\n    tag_24:\n      mload(0x40)\n      dup1\n      swap2\n      sub\n      swap1\n      return\n        /* \"contracts/CarRentalSmartContract.sol\":5200:7641  function customerReturnCar(uint rentRecordId) public onlyRegisteredCustomerCanCall returns (customerReturnCarRecord memory) {... */\n    tag_3:\n      callvalue\n      dup1\n      iszero\n      tag_26\n      jumpi\n      0x00\n      dup1\n      revert\n    tag_26:\n      pop\n      tag_27\n      0x04\n      dup1\n      calldatasize\n      sub\n      dup2\n      add\n      swap1\n      tag_28\n      swap2\n      swap1\n      tag_29\n      jump\t// in\n    tag_28:\n      tag_30\n      jump\t// in\n    tag_27:\n      mload(0x40)\n      tag_31\n      swap2\n      swap1\n      tag_32\n      jump\t// in\n    tag_31:\n      mload(0x40)\n      dup1\n      swap2\n      sub\n      swap1\n      return\n        /* \"contracts/CarRentalSmartContract.sol\":1543:1581  mapping (string => Car) public carInfo */\n    tag_4:\n      callvalue\n      dup1\n      iszero\n      tag_33\n      jumpi\n      0x00\n      dup1\n      revert\n    tag_33:\n      pop\n      tag_34\n      0x04\n      dup1\n      calldatasize\n      sub\n      dup2\n      add\n      swap1\n      tag_35\n      swap2\n      swap1\n      tag_36\n      jump\t// in\n    tag_35:\n      tag_37\n      jump\t// in\n    tag_34:\n      mload(0x40)\n      tag_38\n      swap4\n      swap3\n      swap2\n      swap1\n      tag_39\n      jump\t// in\n    tag_38:\n      mload(0x40)\n      dup1\n      swap2\n      sub\n      swap1\n      return\n        /* \"contracts/CarRentalSmartContract.sol\":1400:1476  mapping (address => mapping(string => uint)) public customerRentingCarNumber */\n    tag_5:\n      callvalue\n      dup1\n      iszero\n      tag_40\n      jumpi\n      0x00\n      dup1\n      revert\n    tag_40:\n      pop\n      tag_41\n      0x04\n      dup1\n      calldatasize\n      sub\n      dup2\n      add\n      swap1\n      tag_42\n      swap2\n      swap1\n      tag_43\n      jump\t// in\n    tag_42:\n      tag_44\n      jump\t// in\n    tag_41:\n      mload(0x40)\n      tag_45\n      swap2\n      swap1\n      tag_25\n      jump\t// in\n    tag_45:\n      mload(0x40)\n      dup1\n      swap2\n      sub\n      swap1\n      return\n        /* \"contracts/CarRentalSmartContract.sol\":1963:2038  mapping (uint => customerReturnCarRecord) public allCustomerReturnCarRecord */\n    tag_6:\n      callvalue\n      dup1\n      iszero\n      tag_46\n      jumpi\n      0x00\n      dup1\n      revert\n    tag_46:\n      pop\n      tag_47\n      0x04\n      dup1\n      calldatasize\n      sub\n      dup2\n      add\n      swap1\n      tag_48\n      swap2\n      swap1\n      tag_29\n      jump\t// in\n    tag_48:\n      tag_49\n      jump\t// in\n    tag_47:\n      mload(0x40)\n      tag_50\n      swap8\n      swap7\n      swap6\n      swap5\n      swap4\n      swap3\n      swap2\n      swap1\n      tag_51\n      jump\t// in\n    tag_50:\n      mload(0x40)\n      dup1\n      swap2\n      sub\n      swap1\n      return\n        /* \"contracts/CarRentalSmartContract.sol\":7833:9720  function ABCAuditDeposit(uint returnRecordId, uint damageFixFeeHere) payable public onlyABCCompanyCanCall returns (ABCAuditDepositRecord memory) {... */\n    tag_7:\n      tag_52\n      0x04\n      dup1\n      calldatasize\n      sub\n      dup2\n      add\n      swap1\n      tag_53\n      swap2\n      swap1\n      tag_54\n      jump\t// in\n    tag_53:\n      tag_55\n      jump\t// in\n    tag_52:\n      mload(0x40)\n      tag_56\n      swap2\n      swap1\n      tag_57\n      jump\t// in\n    tag_56:\n      mload(0x40)\n      dup1\n      swap2\n      sub\n      swap1\n      return\n        /* \"contracts/CarRentalSmartContract.sol\":1920:1957  uint public currentReturnRecordId = 1 */\n    tag_8:\n      callvalue\n      dup1\n      iszero\n      tag_58\n      jumpi\n      0x00\n      dup1\n      revert\n    tag_58:\n      pop\n      tag_59\n      tag_60\n      jump\t// in\n    tag_59:\n      mload(0x40)\n      tag_61\n      swap2\n      swap1\n      tag_25\n      jump\t// in\n    tag_61:\n      mload(0x40)\n      dup1\n      swap2\n      sub\n      swap1\n      return\n        /* \"contracts/CarRentalSmartContract.sol\":1645:1692  mapping (string => uint) public carAvailability */\n    tag_9:\n      callvalue\n      dup1\n      iszero\n      tag_62\n      jumpi\n      0x00\n      dup1\n      revert\n    tag_62:\n      pop\n      tag_63\n      0x04\n      dup1\n      calldatasize\n      sub\n      dup2\n      add\n      swap1\n      tag_64\n      swap2\n      swap1\n      tag_36\n      jump\t// in\n    tag_64:\n      tag_65\n      jump\t// in\n    tag_63:\n      mload(0x40)\n      tag_66\n      swap2\n      swap1\n      tag_25\n      jump\t// in\n    tag_66:\n      mload(0x40)\n      dup1\n      swap2\n      sub\n      swap1\n      return\n        /* \"contracts/CarRentalSmartContract.sol\":3807:5047  function customerRentCar(string calldata carName, uint rentDays) payable public onlyRegisteredCustomerCanCall returns (customerRentCarRecord memory) {... */\n    tag_10:\n      tag_67\n      0x04\n      dup1\n      calldatasize\n      sub\n      dup2\n      add\n      swap1\n      tag_68\n      swap2\n      swap1\n      tag_69\n      jump\t// in\n    tag_68:\n      tag_70\n      jump\t// in\n    tag_67:\n      mload(0x40)\n      tag_71\n      swap2\n      swap1\n      tag_72\n      jump\t// in\n    tag_71:\n      mload(0x40)\n      dup1\n      swap2\n      sub\n      swap1\n      return\n        /* \"contracts/CarRentalSmartContract.sol\":3265:3684  function ABCAddCar(string calldata carName, uint carDailyRent, uint number) public onlyABCCompanyCanCall returns (bool) {... */\n    tag_11:\n      callvalue\n      dup1\n      iszero\n      tag_73\n      jumpi\n      0x00\n      dup1\n      revert\n    tag_73:\n      pop\n      tag_74\n      0x04\n      dup1\n      calldatasize\n      sub\n      dup2\n      add\n      swap1\n      tag_75\n      swap2\n      swap1\n      tag_76\n      jump\t// in\n    tag_75:\n      tag_77\n      jump\t// in\n    tag_74:\n      mload(0x40)\n      tag_78\n      swap2\n      swap1\n      tag_79\n      jump\t// in\n    tag_78:\n      mload(0x40)\n      dup1\n      swap2\n      sub\n      swap1\n      return\n        /* \"contracts/CarRentalSmartContract.sol\":1800:1836  uint public currentRentRecordId  = 1 */\n    tag_12:\n      callvalue\n      dup1\n      iszero\n      tag_80\n      jumpi\n      0x00\n      dup1\n      revert\n    tag_80:\n      pop\n      tag_81\n      tag_82\n      jump\t// in\n    tag_81:\n      mload(0x40)\n      tag_83\n      swap2\n      swap1\n      tag_25\n      jump\t// in\n    tag_83:\n      mload(0x40)\n      dup1\n      swap2\n      sub\n      swap1\n      return\n        /* \"contracts/CarRentalSmartContract.sol\":2087:2158  mapping (uint => ABCAuditDepositRecord) public allABCAuditDepositRecord */\n    tag_13:\n      callvalue\n      dup1\n      iszero\n      tag_84\n      jumpi\n      0x00\n      dup1\n      revert\n    tag_84:\n      pop\n      tag_85\n      0x04\n      dup1\n      calldatasize\n      sub\n      dup2\n      add\n      swap1\n      tag_86\n      swap2\n      swap1\n      tag_29\n      jump\t// in\n    tag_86:\n      tag_87\n      jump\t// in\n    tag_85:\n      mload(0x40)\n      tag_88\n      swap6\n      swap5\n      swap4\n      swap3\n      swap2\n      swap1\n      tag_89\n      jump\t// in\n    tag_88:\n      mload(0x40)\n      dup1\n      swap2\n      sub\n      swap1\n      return\n        /* \"contracts/CarRentalSmartContract.sol\":1162:1215  mapping (address => bool) public allCustomerAddresses */\n    tag_14:\n      callvalue\n      dup1\n      iszero\n      tag_90\n      jumpi\n      0x00\n      dup1\n      revert\n    tag_90:\n      pop\n      tag_91\n      0x04\n      dup1\n      calldatasize\n      sub\n      dup2\n      add\n      swap1\n      tag_92\n      swap2\n      swap1\n      tag_93\n      jump\t// in\n    tag_92:\n      tag_94\n      jump\t// in\n    tag_91:\n      mload(0x40)\n      tag_95\n      swap2\n      swap1\n      tag_79\n      jump\t// in\n    tag_95:\n      mload(0x40)\n      dup1\n      swap2\n      sub\n      swap1\n      return\n        /* \"contracts/CarRentalSmartContract.sol\":1842:1913  mapping (uint => customerRentCarRecord) public allCustomerRentCarRecord */\n    tag_15:\n      callvalue\n      dup1\n      iszero\n      tag_96\n      jumpi\n      0x00\n      dup1\n      revert\n    tag_96:\n      pop\n      tag_97\n      0x04\n      dup1\n      calldatasize\n      sub\n      dup2\n      add\n      swap1\n      tag_98\n      swap2\n      swap1\n      tag_29\n      jump\t// in\n    tag_98:\n      tag_99\n      jump\t// in\n    tag_97:\n      mload(0x40)\n      tag_100\n      swap8\n      swap7\n      swap6\n      swap5\n      swap4\n      swap3\n      swap2\n      swap1\n      tag_101\n      jump\t// in\n    tag_100:\n      mload(0x40)\n      dup1\n      swap2\n      sub\n      swap1\n      return\n        /* \"contracts/CarRentalSmartContract.sol\":1015:1040  address public ABCAddress */\n    tag_16:\n      callvalue\n      dup1\n      iszero\n      tag_102\n      jumpi\n      0x00\n      dup1\n      revert\n    tag_102:\n      pop\n      tag_103\n      tag_104\n      jump\t// in\n    tag_103:\n      mload(0x40)\n      tag_105\n      swap2\n      swap1\n      tag_106\n      jump\t// in\n    tag_105:\n      mload(0x40)\n      dup1\n      swap2\n      sub\n      swap1\n      return\n        /* \"contracts/CarRentalSmartContract.sol\":2978:3105  function customerRegister() public returns (bool) {... */\n    tag_17:\n      callvalue\n      dup1\n      iszero\n      tag_107\n      jumpi\n      0x00\n      dup1\n      revert\n    tag_107:\n      pop\n      tag_108\n      tag_109\n      jump\t// in\n    tag_108:\n      mload(0x40)\n      tag_110\n      swap2\n      swap1\n      tag_79\n      jump\t// in\n    tag_110:\n      mload(0x40)\n      dup1\n      swap2\n      sub\n      swap1\n      return\n        /* \"contracts/CarRentalSmartContract.sol\":2045:2081  uint public currentAuditRecordId = 1 */\n    tag_23:\n      sload(0x09)\n      dup2\n      jump\t// out\n        /* \"contracts/CarRentalSmartContract.sol\":5200:7641  function customerReturnCar(uint rentRecordId) public onlyRegisteredCustomerCanCall returns (customerReturnCarRecord memory) {... */\n    tag_30:\n        /* \"contracts/CarRentalSmartContract.sol\":5292:5322  customerReturnCarRecord memory */\n      tag_111\n      tag_112\n      jump\t// in\n    tag_111:\n        /* \"contracts/CarRentalSmartContract.sol\":2560:2564  true */\n      0x01\n        /* \"contracts/CarRentalSmartContract.sol\":2524:2564  allCustomerAddresses[msg.sender] == true */\n      iszero\n      iszero\n        /* \"contracts/CarRentalSmartContract.sol\":2524:2544  allCustomerAddresses */\n      0x01\n        /* \"contracts/CarRentalSmartContract.sol\":2524:2556  allCustomerAddresses[msg.sender] */\n      0x00\n        /* \"contracts/CarRentalSmartContract.sol\":2545:2555  msg.sender */\n      caller\n        /* \"contracts/CarRentalSmartContract.sol\":2524:2556  allCustomerAddresses[msg.sender] */\n      0xffffffffffffffffffffffffffffffffffffffff\n      and\n      0xffffffffffffffffffffffffffffffffffffffff\n      and\n      dup2\n      mstore\n      0x20\n      add\n      swap1\n      dup2\n      mstore\n      0x20\n      add\n      0x00\n      keccak256\n      0x00\n      swap1\n      sload\n      swap1\n      0x0100\n      exp\n      swap1\n      div\n      0xff\n      and\n        /* \"contracts/CarRentalSmartContract.sol\":2524:2564  allCustomerAddresses[msg.sender] == true */\n      iszero\n      iszero\n      eq\n        /* \"contracts/CarRentalSmartContract.sol\":2516:2616  require(allCustomerAddresses[msg.sender] == true, \"Customer not registered! Please register first!\") */\n      tag_114\n      jumpi\n      mload(0x40)\n      0x08c379a000000000000000000000000000000000000000000000000000000000\n      dup2\n      mstore\n      0x04\n      add\n      tag_115\n      swap1\n      tag_116\n      jump\t// in\n    tag_115:\n      mload(0x40)\n      dup1\n      swap2\n      sub\n      swap1\n      revert\n    tag_114:\n        /* \"contracts/CarRentalSmartContract.sol\":5358:5377  currentRentRecordId */\n      sload(0x05)\n        /* \"contracts/CarRentalSmartContract.sol\":5342:5354  rentRecordId */\n      dup3\n        /* \"contracts/CarRentalSmartContract.sol\":5342:5377  rentRecordId <= currentRentRecordId */\n      gt\n      iszero\n        /* \"contracts/CarRentalSmartContract.sol\":5342:5397  rentRecordId <= currentRentRecordId && rentRecordId > 0 */\n      dup1\n      iszero\n      tag_118\n      jumpi\n      pop\n        /* \"contracts/CarRentalSmartContract.sol\":5396:5397  0 */\n      0x00\n        /* \"contracts/CarRentalSmartContract.sol\":5381:5393  rentRecordId */\n      dup3\n        /* \"contracts/CarRentalSmartContract.sol\":5381:5397  rentRecordId > 0 */\n      gt\n        /* \"contracts/CarRentalSmartContract.sol\":5342:5397  rentRecordId <= currentRentRecordId && rentRecordId > 0 */\n    tag_118:\n        /* \"contracts/CarRentalSmartContract.sol\":5334:5428  require(rentRecordId <= currentRentRecordId && rentRecordId > 0, \"Input rentRecordId Invaid!\") */\n      tag_119\n      jumpi\n      mload(0x40)\n      0x08c379a000000000000000000000000000000000000000000000000000000000\n      dup2\n      mstore\n      0x04\n      add\n      tag_120\n      swap1\n      tag_121\n      jump\t// in\n    tag_120:\n      mload(0x40)\n      dup1\n      swap2\n      sub\n      swap1\n      revert\n    tag_119:\n        /* \"contracts/CarRentalSmartContract.sol\":5460:5484  allCustomerRentCarRecord */\n      0x06\n        /* \"contracts/CarRentalSmartContract.sol\":5460:5498  allCustomerRentCarRecord[rentRecordId] */\n      0x00\n        /* \"contracts/CarRentalSmartContract.sol\":5485:5497  rentRecordId */\n      dup4\n        /* \"contracts/CarRentalSmartContract.sol\":5460:5498  allCustomerRentCarRecord[rentRecordId] */\n      dup2\n      mstore\n      0x20\n      add\n      swap1\n      dup2\n      mstore\n      0x20\n      add\n      0x00\n      keccak256\n        /* \"contracts/CarRentalSmartContract.sol\":5460:5514  allCustomerRentCarRecord[rentRecordId].customerAddress */\n      0x01\n      add\n      0x00\n      swap1\n      sload\n      swap1\n      0x0100\n      exp\n      swap1\n      div\n      0xffffffffffffffffffffffffffffffffffffffff\n      and\n        /* \"contracts/CarRentalSmartContract.sol\":5446:5514  msg.sender == allCustomerRentCarRecord[rentRecordId].customerAddress */\n      0xffffffffffffffffffffffffffffffffffffffff\n      and\n        /* \"contracts/CarRentalSmartContract.sol\":5446:5456  msg.sender */\n      caller\n        /* \"contracts/CarRentalSmartContract.sol\":5446:5514  msg.sender == allCustomerRentCarRecord[rentRecordId].customerAddress */\n      0xffffffffffffffffffffffffffffffffffffffff\n      and\n      eq\n        /* \"contracts/CarRentalSmartContract.sol\":5438:5558  require(msg.sender == allCustomerRentCarRecord[rentRecordId].customerAddress, \"The customer's address doesn't matched!\") */\n      tag_122\n      jumpi\n      mload(0x40)\n      0x08c379a000000000000000000000000000000000000000000000000000000000\n      dup2\n      mstore\n      0x04\n      add\n      tag_123\n      swap1\n      tag_124\n      jump\t// in\n    tag_123:\n      mload(0x40)\n      dup1\n      swap2\n      sub\n      swap1\n      revert\n    tag_122:\n        /* \"contracts/CarRentalSmartContract.sol\":5633:5635  -1 */\n      0xffffffffffffffffffffffffffffffffffffffffffffffffffffffffffffffff\n        /* \"contracts/CarRentalSmartContract.sol\":5576:5600  allCustomerRentCarRecord */\n      0x06\n        /* \"contracts/CarRentalSmartContract.sol\":5576:5614  allCustomerRentCarRecord[rentRecordId] */\n      0x00\n        /* \"contracts/CarRentalSmartContract.sol\":5601:5613  rentRecordId */\n      dup5\n        /* \"contracts/CarRentalSmartContract.sol\":5576:5614  allCustomerRentCarRecord[rentRecordId] */\n      dup2\n      mstore\n      0x20\n      add\n      swap1\n      dup2\n      mstore\n      0x20\n      add\n      0x00\n      keccak256\n        /* \"contracts/CarRentalSmartContract.sol\":5576:5629  allCustomerRentCarRecord[rentRecordId].returnRecordId */\n      0x06\n      add\n      sload\n        /* \"contracts/CarRentalSmartContract.sol\":5576:5635  allCustomerRentCarRecord[rentRecordId].returnRecordId == -1 */\n      eq\n        /* \"contracts/CarRentalSmartContract.sol\":5568:5690  require(allCustomerRentCarRecord[rentRecordId].returnRecordId == -1, \"The rent of this rentId has been already returned!\") */\n      tag_125\n      jumpi\n      mload(0x40)\n      0x08c379a000000000000000000000000000000000000000000000000000000000\n      dup2\n      mstore\n      0x04\n      add\n      tag_126\n      swap1\n      tag_127\n      jump\t// in\n    tag_126:\n      mload(0x40)\n      dup1\n      swap2\n      sub\n      swap1\n      revert\n    tag_125:\n        /* \"contracts/CarRentalSmartContract.sol\":5742:5767  string memory carNameHere */\n      0x00\n        /* \"contracts/CarRentalSmartContract.sol\":5770:5794  allCustomerRentCarRecord */\n      0x06\n        /* \"contracts/CarRentalSmartContract.sol\":5770:5808  allCustomerRentCarRecord[rentRecordId] */\n      0x00\n        /* \"contracts/CarRentalSmartContract.sol\":5795:5807  rentRecordId */\n      dup5\n        /* \"contracts/CarRentalSmartContract.sol\":5770:5808  allCustomerRentCarRecord[rentRecordId] */\n      dup2\n      mstore\n      0x20\n      add\n      swap1\n      dup2\n      mstore\n      0x20\n      add\n      0x00\n      keccak256\n        /* \"contracts/CarRentalSmartContract.sol\":5770:5816  allCustomerRentCarRecord[rentRecordId].carName */\n      0x02\n      add\n        /* \"contracts/CarRentalSmartContract.sol\":5742:5816  string memory carNameHere = allCustomerRentCarRecord[rentRecordId].carName */\n      dup1\n      sload\n      tag_128\n      swap1\n      tag_129\n      jump\t// in\n    tag_128:\n      dup1\n      0x1f\n      add\n      0x20\n      dup1\n      swap2\n      div\n      mul\n      0x20\n      add\n      mload(0x40)\n      swap1\n      dup2\n      add\n      0x40\n      mstore\n      dup1\n      swap3\n      swap2\n      swap1\n      dup2\n      dup2\n      mstore\n      0x20\n      add\n      dup3\n      dup1\n      sload\n      tag_130\n      swap1\n      tag_129\n      jump\t// in\n    tag_130:\n      dup1\n      iszero\n      tag_131\n      jumpi\n      dup1\n      0x1f\n      lt\n      tag_132\n      jumpi\n      0x0100\n      dup1\n      dup4\n      sload\n      div\n      mul\n      dup4\n      mstore\n      swap2\n      0x20\n      add\n      swap2\n      jump(tag_131)\n    tag_132:\n      dup3\n      add\n      swap2\n      swap1\n      0x00\n      mstore\n      keccak256(0x00, 0x20)\n      swap1\n    tag_133:\n      dup2\n      sload\n      dup2\n      mstore\n      swap1\n      0x01\n      add\n      swap1\n      0x20\n      add\n      dup1\n      dup4\n      gt\n      tag_133\n      jumpi\n      dup3\n      swap1\n      sub\n      0x1f\n      and\n      dup3\n      add\n      swap2\n    tag_131:\n      pop\n      pop\n      pop\n      pop\n      pop\n      swap1\n      pop\n        /* \"contracts/CarRentalSmartContract.sol\":5826:5848  uint rentTimeStampHere */\n      0x00\n        /* \"contracts/CarRentalSmartContract.sol\":5851:5875  allCustomerRentCarRecord */\n      0x06\n        /* \"contracts/CarRentalSmartContract.sol\":5851:5889  allCustomerRentCarRecord[rentRecordId] */\n      0x00\n        /* \"contracts/CarRentalSmartContract.sol\":5876:5888  rentRecordId */\n      dup6\n        /* \"contracts/CarRentalSmartContract.sol\":5851:5889  allCustomerRentCarRecord[rentRecordId] */\n      dup2\n      mstore\n      0x20\n      add\n      swap1\n      dup2\n      mstore\n      0x20\n      add\n      0x00\n      keccak256\n        /* \"contracts/CarRentalSmartContract.sol\":5851:5903  allCustomerRentCarRecord[rentRecordId].rentTimeStamp */\n      0x05\n      add\n      sload\n        /* \"contracts/CarRentalSmartContract.sol\":5826:5903  uint rentTimeStampHere = allCustomerRentCarRecord[rentRecordId].rentTimeStamp */\n      swap1\n      pop\n        /* \"contracts/CarRentalSmartContract.sol\":6019:6020  1 */\n      0x01\n        /* \"contracts/CarRentalSmartContract.sol\":5966:5990  customerRentingCarNumber */\n      0x02\n        /* \"contracts/CarRentalSmartContract.sol\":5966:6002  customerRentingCarNumber[msg.sender] */\n      0x00\n        /* \"contracts/CarRentalSmartContract.sol\":5991:6001  msg.sender */\n      caller\n        /* \"contracts/CarRentalSmartContract.sol\":5966:6002  customerRentingCarNumber[msg.sender] */\n      0xffffffffffffffffffffffffffffffffffffffff\n      and\n      0xffffffffffffffffffffffffffffffffffffffff\n      and\n      dup2\n      mstore\n      0x20\n      add\n      swap1\n      dup2\n      mstore\n      0x20\n      add\n      0x00\n      keccak256\n        /* \"contracts/CarRentalSmartContract.sol\":6003:6014  carNameHere */\n      dup4\n        /* \"contracts/CarRentalSmartContract.sol\":5966:6015  customerRentingCarNumber[msg.sender][carNameHere] */\n      mload(0x40)\n      tag_134\n      swap2\n      swap1\n      tag_135\n      jump\t// in\n    tag_134:\n      swap1\n      dup2\n      mstore\n      0x20\n      add\n      mload(0x40)\n      dup1\n      swap2\n      sub\n      swap1\n      keccak256\n      0x00\n        /* \"contracts/CarRentalSmartContract.sol\":5966:6020  customerRentingCarNumber[msg.sender][carNameHere] -= 1 */\n      dup3\n      dup3\n      sload\n      tag_136\n      swap2\n      swap1\n      tag_137\n      jump\t// in\n    tag_136:\n      swap3\n      pop\n      pop\n      dup2\n      swap1\n      sstore\n      pop\n        /* \"contracts/CarRentalSmartContract.sol\":6104:6105  1 */\n      0x01\n        /* \"contracts/CarRentalSmartContract.sol\":6072:6087  carAvailability */\n      0x04\n        /* \"contracts/CarRentalSmartContract.sol\":6088:6099  carNameHere */\n      dup4\n        /* \"contracts/CarRentalSmartContract.sol\":6072:6100  carAvailability[carNameHere] */\n      mload(0x40)\n      tag_138\n      swap2\n      swap1\n      tag_135\n      jump\t// in\n    tag_138:\n      swap1\n      dup2\n      mstore\n      0x20\n      add\n      mload(0x40)\n      dup1\n      swap2\n      sub\n      swap1\n      keccak256\n      0x00\n        /* \"contracts/CarRentalSmartContract.sol\":6072:6105  carAvailability[carNameHere] += 1 */\n      dup3\n      dup3\n      sload\n      tag_139\n      swap2\n      swap1\n      tag_140\n      jump\t// in\n    tag_139:\n      swap3\n      pop\n      pop\n      dup2\n      swap1\n      sstore\n      pop\n        /* \"contracts/CarRentalSmartContract.sol\":6164:6176  uint timeNow */\n      0x00\n        /* \"contracts/CarRentalSmartContract.sol\":6179:6194  block.timestamp */\n      timestamp\n        /* \"contracts/CarRentalSmartContract.sol\":6164:6194  uint timeNow = block.timestamp */\n      swap1\n      pop\n        /* \"contracts/CarRentalSmartContract.sol\":6204:6225  uint actualTimePassed */\n      0x00\n        /* \"contracts/CarRentalSmartContract.sol\":6239:6256  rentTimeStampHere */\n      dup3\n        /* \"contracts/CarRentalSmartContract.sol\":6229:6236  timeNow */\n      dup3\n        /* \"contracts/CarRentalSmartContract.sol\":6229:6256  timeNow - rentTimeStampHere */\n      tag_141\n      swap2\n      swap1\n      tag_137\n      jump\t// in\n    tag_141:\n        /* \"contracts/CarRentalSmartContract.sol\":6204:6256  uint actualTimePassed =  timeNow - rentTimeStampHere */\n      swap1\n      pop\n        /* \"contracts/CarRentalSmartContract.sol\":6431:6451  uint actualDayPassed */\n      0x00\n        /* \"contracts/CarRentalSmartContract.sol\":6488:6489  1 */\n      0x01\n        /* \"contracts/CarRentalSmartContract.sol\":6483:6485  24 */\n      0x18\n        /* \"contracts/CarRentalSmartContract.sol\":6478:6480  60 */\n      0x3c\n        /* \"contracts/CarRentalSmartContract.sol\":6473:6475  60 */\n      dup1\n        /* \"contracts/CarRentalSmartContract.sol\":6454:6470  actualTimePassed */\n      dup6\n        /* \"contracts/CarRentalSmartContract.sol\":6454:6475  actualTimePassed / 60 */\n      tag_142\n      swap2\n      swap1\n      tag_143\n      jump\t// in\n    tag_142:\n        /* \"contracts/CarRentalSmartContract.sol\":6454:6480  actualTimePassed / 60 / 60 */\n      tag_144\n      swap2\n      swap1\n      tag_143\n      jump\t// in\n    tag_144:\n        /* \"contracts/CarRentalSmartContract.sol\":6454:6485  actualTimePassed / 60 / 60 / 24 */\n      tag_145\n      swap2\n      swap1\n      tag_143\n      jump\t// in\n    tag_145:\n        /* \"contracts/CarRentalSmartContract.sol\":6454:6489  actualTimePassed / 60 / 60 / 24 + 1 */\n      tag_146\n      swap2\n      swap1\n      tag_140\n      jump\t// in\n    tag_146:\n        /* \"contracts/CarRentalSmartContract.sol\":6431:6489  uint actualDayPassed = actualTimePassed / 60 / 60 / 24 + 1 */\n      swap1\n      pop\n        /* \"contracts/CarRentalSmartContract.sol\":6530:6546  uint rentFeeHere */\n      0x00\n        /* \"contracts/CarRentalSmartContract.sol\":6567:6574  carInfo */\n      0x03\n        /* \"contracts/CarRentalSmartContract.sol\":6575:6586  carNameHere */\n      dup7\n        /* \"contracts/CarRentalSmartContract.sol\":6567:6587  carInfo[carNameHere] */\n      mload(0x40)\n      tag_147\n      swap2\n      swap1\n      tag_135\n      jump\t// in\n    tag_147:\n      swap1\n      dup2\n      mstore\n      0x20\n      add\n      mload(0x40)\n      dup1\n      swap2\n      sub\n      swap1\n      keccak256\n        /* \"contracts/CarRentalSmartContract.sol\":6567:6597  carInfo[carNameHere].dailyRent */\n      0x02\n      add\n      sload\n        /* \"contracts/CarRentalSmartContract.sol\":6549:6564  actualDayPassed */\n      dup3\n        /* \"contracts/CarRentalSmartContract.sol\":6549:6597  actualDayPassed * carInfo[carNameHere].dailyRent */\n      tag_148\n      swap2\n      swap1\n      tag_149\n      jump\t// in\n    tag_148:\n        /* \"contracts/CarRentalSmartContract.sol\":6530:6597  uint rentFeeHere = actualDayPassed * carInfo[carNameHere].dailyRent */\n      swap1\n      pop\n        /* \"contracts/CarRentalSmartContract.sol\":6708:6758  customerReturnCarRecord memory thisReturnCarRecord */\n      0x00\n        /* \"contracts/CarRentalSmartContract.sol\":6761:7388  customerReturnCarRecord(currentReturnRecordId, ... */\n      mload(0x40)\n      dup1\n      0xe0\n      add\n      0x40\n      mstore\n      dup1\n        /* \"contracts/CarRentalSmartContract.sol\":6785:6806  currentReturnRecordId */\n      sload(0x07)\n        /* \"contracts/CarRentalSmartContract.sol\":6761:7388  customerReturnCarRecord(currentReturnRecordId, ... */\n      dup2\n      mstore\n      0x20\n      add\n        /* \"contracts/CarRentalSmartContract.sol\":6894:6906  rentRecordId */\n      dup11\n        /* \"contracts/CarRentalSmartContract.sol\":6761:7388  customerReturnCarRecord(currentReturnRecordId, ... */\n      dup2\n      mstore\n      0x20\n      add\n        /* \"contracts/CarRentalSmartContract.sol\":6994:7004  msg.sender */\n      caller\n        /* \"contracts/CarRentalSmartContract.sol\":6761:7388  customerReturnCarRecord(currentReturnRecordId, ... */\n      0xffffffffffffffffffffffffffffffffffffffff\n      and\n      dup2\n      mstore\n      0x20\n      add\n        /* \"contracts/CarRentalSmartContract.sol\":7092:7103  carNameHere */\n      dup9\n        /* \"contracts/CarRentalSmartContract.sol\":6761:7388  customerReturnCarRecord(currentReturnRecordId, ... */\n      dup2\n      mstore\n      0x20\n      add\n        /* \"contracts/CarRentalSmartContract.sol\":7191:7198  timeNow */\n      dup7\n        /* \"contracts/CarRentalSmartContract.sol\":6761:7388  customerReturnCarRecord(currentReturnRecordId, ... */\n      dup2\n      mstore\n      0x20\n      add\n        /* \"contracts/CarRentalSmartContract.sol\":7286:7297  rentFeeHere */\n      dup4\n        /* \"contracts/CarRentalSmartContract.sol\":6761:7388  customerReturnCarRecord(currentReturnRecordId, ... */\n      dup2\n      mstore\n      0x20\n      add\n        /* \"contracts/CarRentalSmartContract.sol\":7385:7387  -1 */\n      0xffffffffffffffffffffffffffffffffffffffffffffffffffffffffffffffff\n        /* \"contracts/CarRentalSmartContract.sol\":6761:7388  customerReturnCarRecord(currentReturnRecordId, ... */\n      dup2\n      mstore\n      pop\n        /* \"contracts/CarRentalSmartContract.sol\":6708:7388  customerReturnCarRecord memory thisReturnCarRecord = customerReturnCarRecord(currentReturnRecordId, ... */\n      swap1\n      pop\n        /* \"contracts/CarRentalSmartContract.sol\":7450:7469  thisReturnCarRecord */\n      dup1\n        /* \"contracts/CarRentalSmartContract.sol\":7398:7424  allCustomerReturnCarRecord */\n      0x08\n        /* \"contracts/CarRentalSmartContract.sol\":7398:7447  allCustomerReturnCarRecord[currentReturnRecordId] */\n      0x00\n        /* \"contracts/CarRentalSmartContract.sol\":7425:7446  currentReturnRecordId */\n      sload(0x07)\n        /* \"contracts/CarRentalSmartContract.sol\":7398:7447  allCustomerReturnCarRecord[currentReturnRecordId] */\n      dup2\n      mstore\n      0x20\n      add\n      swap1\n      dup2\n      mstore\n      0x20\n      add\n      0x00\n      keccak256\n        /* \"contracts/CarRentalSmartContract.sol\":7398:7469  allCustomerReturnCarRecord[currentReturnRecordId] = thisReturnCarRecord */\n      0x00\n      dup3\n      add\n      mload\n      dup2\n      0x00\n      add\n      sstore\n      0x20\n      dup3\n      add\n      mload\n      dup2\n      0x01\n      add\n      sstore\n      0x40\n      dup3\n      add\n      mload\n      dup2\n      0x02\n      add\n      exp(0x0100, 0x00)\n      dup2\n      sload\n      dup2\n      0xffffffffffffffffffffffffffffffffffffffff\n      mul\n      not\n      and\n      swap1\n      dup4\n      0xffffffffffffffffffffffffffffffffffffffff\n      and\n      mul\n      or\n      swap1\n      sstore\n      pop\n      0x60\n      dup3\n      add\n      mload\n      dup2\n      0x03\n      add\n      swap1\n      dup1\n      mload\n      swap1\n      0x20\n      add\n      swap1\n      tag_150\n      swap3\n      swap2\n      swap1\n      tag_151\n      jump\t// in\n    tag_150:\n      pop\n      0x80\n      dup3\n      add\n      mload\n      dup2\n      0x04\n      add\n      sstore\n      0xa0\n      dup3\n      add\n      mload\n      dup2\n      0x05\n      add\n      sstore\n      0xc0\n      dup3\n      add\n      mload\n      dup2\n      0x06\n      add\n      sstore\n      swap1\n      pop\n      pop\n        /* \"contracts/CarRentalSmartContract.sol\":7539:7560  currentReturnRecordId */\n      sload(0x07)\n        /* \"contracts/CarRentalSmartContract.sol\":7479:7503  allCustomerRentCarRecord */\n      0x06\n        /* \"contracts/CarRentalSmartContract.sol\":7479:7517  allCustomerRentCarRecord[rentRecordId] */\n      0x00\n        /* \"contracts/CarRentalSmartContract.sol\":7504:7516  rentRecordId */\n      dup12\n        /* \"contracts/CarRentalSmartContract.sol\":7479:7517  allCustomerRentCarRecord[rentRecordId] */\n      dup2\n      mstore\n      0x20\n      add\n      swap1\n      dup2\n      mstore\n      0x20\n      add\n      0x00\n      keccak256\n        /* \"contracts/CarRentalSmartContract.sol\":7479:7532  allCustomerRentCarRecord[rentRecordId].returnRecordId */\n      0x06\n      add\n        /* \"contracts/CarRentalSmartContract.sol\":7479:7561  allCustomerRentCarRecord[rentRecordId].returnRecordId = int(currentReturnRecordId) */\n      dup2\n      swap1\n      sstore\n      pop\n        /* \"contracts/CarRentalSmartContract.sol\":7596:7597  1 */\n      0x01\n        /* \"contracts/CarRentalSmartContract.sol\":7571:7592  currentReturnRecordId */\n      0x07\n      0x00\n        /* \"contracts/CarRentalSmartContract.sol\":7571:7597  currentReturnRecordId += 1 */\n      dup3\n      dup3\n      sload\n      tag_152\n      swap2\n      swap1\n      tag_140\n      jump\t// in\n    tag_152:\n      swap3\n      pop\n      pop\n      dup2\n      swap1\n      sstore\n      pop\n        /* \"contracts/CarRentalSmartContract.sol\":7615:7634  thisReturnCarRecord */\n      dup1\n        /* \"contracts/CarRentalSmartContract.sol\":7608:7634  return thisReturnCarRecord */\n      swap8\n      pop\n      pop\n      pop\n      pop\n      pop\n      pop\n      pop\n      pop\n        /* \"contracts/CarRentalSmartContract.sol\":5200:7641  function customerReturnCar(uint rentRecordId) public onlyRegisteredCustomerCanCall returns (customerReturnCarRecord memory) {... */\n      swap2\n      swap1\n      pop\n      jump\t// out\n        /* \"contracts/CarRentalSmartContract.sol\":1543:1581  mapping (string => Car) public carInfo */\n    tag_37:\n      0x03\n      dup2\n      dup1\n      mload\n      0x20\n      dup2\n      add\n      dup3\n      add\n      dup1\n      mload\n      dup5\n      dup3\n      mstore\n      0x20\n      dup4\n      add\n      0x20\n      dup6\n      add\n      keccak256\n      dup2\n      dup4\n      mstore\n      dup1\n      swap6\n      pop\n      pop\n      pop\n      pop\n      pop\n      pop\n      0x00\n      swap2\n      pop\n      swap1\n      pop\n      dup1\n      0x00\n      add\n      dup1\n      sload\n      tag_153\n      swap1\n      tag_129\n      jump\t// in\n    tag_153:\n      dup1\n      0x1f\n      add\n      0x20\n      dup1\n      swap2\n      div\n      mul\n      0x20\n      add\n      mload(0x40)\n      swap1\n      dup2\n      add\n      0x40\n      mstore\n      dup1\n      swap3\n      swap2\n      swap1\n      dup2\n      dup2\n      mstore\n      0x20\n      add\n      dup3\n      dup1\n      sload\n      tag_154\n      swap1\n      tag_129\n      jump\t// in\n    tag_154:\n      dup1\n      iszero\n      tag_155\n      jumpi\n      dup1\n      0x1f\n      lt\n      tag_156\n      jumpi\n      0x0100\n      dup1\n      dup4\n      sload\n      div\n      mul\n      dup4\n      mstore\n      swap2\n      0x20\n      add\n      swap2\n      jump(tag_155)\n    tag_156:\n      dup3\n      add\n      swap2\n      swap1\n      0x00\n      mstore\n      keccak256(0x00, 0x20)\n      swap1\n    tag_157:\n      dup2\n      sload\n      dup2\n      mstore\n      swap1\n      0x01\n      add\n      swap1\n      0x20\n      add\n      dup1\n      dup4\n      gt\n      tag_157\n      jumpi\n      dup3\n      swap1\n      sub\n      0x1f\n      and\n      dup3\n      add\n      swap2\n    tag_155:\n      pop\n      pop\n      pop\n      pop\n      pop\n      swap1\n      dup1\n      0x01\n      add\n      sload\n      swap1\n      dup1\n      0x02\n      add\n      sload\n      swap1\n      pop\n      dup4\n      jump\t// out\n        /* \"contracts/CarRentalSmartContract.sol\":1400:1476  mapping (address => mapping(string => uint)) public customerRentingCarNumber */\n    tag_44:\n      mstore(0x20, 0x02)\n      dup2\n      0x00\n      mstore\n      keccak256(0x00, 0x40)\n      dup2\n      dup1\n      mload\n      0x20\n      dup2\n      add\n      dup3\n      add\n      dup1\n      mload\n      dup5\n      dup3\n      mstore\n      0x20\n      dup4\n      add\n      0x20\n      dup6\n      add\n      keccak256\n      dup2\n      dup4\n      mstore\n      dup1\n      swap6\n      pop\n      pop\n      pop\n      pop\n      pop\n      pop\n      0x00\n      swap2\n      pop\n      swap2\n      pop\n      pop\n      sload\n      dup2\n      jump\t// out\n        /* \"contracts/CarRentalSmartContract.sol\":1963:2038  mapping (uint => customerReturnCarRecord) public allCustomerReturnCarRecord */\n    tag_49:\n      mstore(0x20, 0x08)\n      dup1\n      0x00\n      mstore\n      keccak256(0x00, 0x40)\n      0x00\n      swap2\n      pop\n      swap1\n      pop\n      dup1\n      0x00\n      add\n      sload\n      swap1\n      dup1\n      0x01\n      add\n      sload\n      swap1\n      dup1\n      0x02\n      add\n      0x00\n      swap1\n      sload\n      swap1\n      0x0100\n      exp\n      swap1\n      div\n      0xffffffffffffffffffffffffffffffffffffffff\n      and\n      swap1\n      dup1\n      0x03\n      add\n      dup1\n      sload\n      tag_158\n      swap1\n      tag_129\n      jump\t// in\n    tag_158:\n      dup1\n      0x1f\n      add\n      0x20\n      dup1\n      swap2\n      div\n      mul\n      0x20\n      add\n      mload(0x40)\n      swap1\n      dup2\n      add\n      0x40\n      mstore\n      dup1\n      swap3\n      swap2\n      swap1\n      dup2\n      dup2\n      mstore\n      0x20\n      add\n      dup3\n      dup1\n      sload\n      tag_159\n      swap1\n      tag_129\n      jump\t// in\n    tag_159:\n      dup1\n      iszero\n      tag_160\n      jumpi\n      dup1\n      0x1f\n      lt\n      tag_161\n      jumpi\n      0x0100\n      dup1\n      dup4\n      sload\n      div\n      mul\n      dup4\n      mstore\n      swap2\n      0x20\n      add\n      swap2\n      jump(tag_160)\n    tag_161:\n      dup3\n      add\n      swap2\n      swap1\n      0x00\n      mstore\n      keccak256(0x00, 0x20)\n      swap1\n    tag_162:\n      dup2\n      sload\n      dup2\n      mstore\n      swap1\n      0x01\n      add\n      swap1\n      0x20\n      add\n      dup1\n      dup4\n      gt\n      tag_162\n      jumpi\n      dup3\n      swap1\n      sub\n      0x1f\n      and\n      dup3\n      add\n      swap2\n    tag_160:\n      pop\n      pop\n      pop\n      pop\n      pop\n      swap1\n      dup1\n      0x04\n      add\n      sload\n      swap1\n      dup1\n      0x05\n      add\n      sload\n      swap1\n      dup1\n      0x06\n      add\n      sload\n      swap1\n      pop\n      dup8\n      jump\t// out\n        /* \"contracts/CarRentalSmartContract.sol\":7833:9720  function ABCAuditDeposit(uint returnRecordId, uint damageFixFeeHere) payable public onlyABCCompanyCanCall returns (ABCAuditDepositRecord memory) {... */\n    tag_55:\n        /* \"contracts/CarRentalSmartContract.sol\":7948:7976  ABCAuditDepositRecord memory */\n      tag_163\n      tag_164\n      jump\t// in\n    tag_163:\n        /* \"contracts/CarRentalSmartContract.sol\":2306:2316  ABCAddress */\n      0x00\n      dup1\n      sload\n      swap1\n      0x0100\n      exp\n      swap1\n      div\n      0xffffffffffffffffffffffffffffffffffffffff\n      and\n        /* \"contracts/CarRentalSmartContract.sol\":2292:2316  msg.sender == ABCAddress */\n      0xffffffffffffffffffffffffffffffffffffffff\n      and\n        /* \"contracts/CarRentalSmartContract.sol\":2292:2302  msg.sender */\n      caller\n        /* \"contracts/CarRentalSmartContract.sol\":2292:2316  msg.sender == ABCAddress */\n      0xffffffffffffffffffffffffffffffffffffffff\n      and\n      eq\n        /* \"contracts/CarRentalSmartContract.sol\":2284:2353  require(msg.sender == ABCAddress, \"Only ABC can call this function!\") */\n      tag_166\n      jumpi\n      mload(0x40)\n      0x08c379a000000000000000000000000000000000000000000000000000000000\n      dup2\n      mstore\n      0x04\n      add\n      tag_167\n      swap1\n      tag_168\n      jump\t// in\n    tag_167:\n      mload(0x40)\n      dup1\n      swap2\n      sub\n      swap1\n      revert\n    tag_166:\n        /* \"contracts/CarRentalSmartContract.sol\":8014:8035  currentReturnRecordId */\n      sload(0x07)\n        /* \"contracts/CarRentalSmartContract.sol\":7996:8010  returnRecordId */\n      dup4\n        /* \"contracts/CarRentalSmartContract.sol\":7996:8035  returnRecordId <= currentReturnRecordId */\n      gt\n      iszero\n        /* \"contracts/CarRentalSmartContract.sol\":7996:8057  returnRecordId <= currentReturnRecordId && returnRecordId > 0 */\n      dup1\n      iszero\n      tag_170\n      jumpi\n      pop\n        /* \"contracts/CarRentalSmartContract.sol\":8056:8057  0 */\n      0x00\n        /* \"contracts/CarRentalSmartContract.sol\":8039:8053  returnRecordId */\n      dup4\n        /* \"contracts/CarRentalSmartContract.sol\":8039:8057  returnRecordId > 0 */\n      gt\n        /* \"contracts/CarRentalSmartContract.sol\":7996:8057  returnRecordId <= currentReturnRecordId && returnRecordId > 0 */\n    tag_170:\n        /* \"contracts/CarRentalSmartContract.sol\":7988:8090  require(returnRecordId <= currentReturnRecordId && returnRecordId > 0, \"Input returnRecordId Invaid!\") */\n      tag_171\n      jumpi\n      mload(0x40)\n      0x08c379a000000000000000000000000000000000000000000000000000000000\n      dup2\n      mstore\n      0x04\n      add\n      tag_172\n      swap1\n      tag_173\n      jump\t// in\n    tag_172:\n      mload(0x40)\n      dup1\n      swap2\n      sub\n      swap1\n      revert\n    tag_171:\n        /* \"contracts/CarRentalSmartContract.sol\":8256:8258  -1 */\n      0xffffffffffffffffffffffffffffffffffffffffffffffffffffffffffffffff\n        /* \"contracts/CarRentalSmartContract.sol\":8196:8222  allCustomerReturnCarRecord */\n      0x08\n        /* \"contracts/CarRentalSmartContract.sol\":8196:8238  allCustomerReturnCarRecord[returnRecordId] */\n      0x00\n        /* \"contracts/CarRentalSmartContract.sol\":8223:8237  returnRecordId */\n      dup6\n        /* \"contracts/CarRentalSmartContract.sol\":8196:8238  allCustomerReturnCarRecord[returnRecordId] */\n      dup2\n      mstore\n      0x20\n      add\n      swap1\n      dup2\n      mstore\n      0x20\n      add\n      0x00\n      keccak256\n        /* \"contracts/CarRentalSmartContract.sol\":8196:8252  allCustomerReturnCarRecord[returnRecordId].auditRecordId */\n      0x06\n      add\n      sload\n        /* \"contracts/CarRentalSmartContract.sol\":8196:8258  allCustomerReturnCarRecord[returnRecordId].auditRecordId == -1 */\n      eq\n        /* \"contracts/CarRentalSmartContract.sol\":8188:8316  require(allCustomerReturnCarRecord[returnRecordId].auditRecordId == -1, \"The return of this returnId has been already audited!\") */\n      tag_174\n      jumpi\n      mload(0x40)\n      0x08c379a000000000000000000000000000000000000000000000000000000000\n      dup2\n      mstore\n      0x04\n      add\n      tag_175\n      swap1\n      tag_176\n      jump\t// in\n    tag_175:\n      mload(0x40)\n      dup1\n      swap2\n      sub\n      swap1\n      revert\n    tag_174:\n        /* \"contracts/CarRentalSmartContract.sol\":8384:8411  address customerAddressHere */\n      0x00\n        /* \"contracts/CarRentalSmartContract.sol\":8414:8440  allCustomerReturnCarRecord */\n      0x08\n        /* \"contracts/CarRentalSmartContract.sol\":8414:8456  allCustomerReturnCarRecord[returnRecordId] */\n      0x00\n        /* \"contracts/CarRentalSmartContract.sol\":8441:8455  returnRecordId */\n      dup6\n        /* \"contracts/CarRentalSmartContract.sol\":8414:8456  allCustomerReturnCarRecord[returnRecordId] */\n      dup2\n      mstore\n      0x20\n      add\n      swap1\n      dup2\n      mstore\n      0x20\n      add\n      0x00\n      keccak256\n        /* \"contracts/CarRentalSmartContract.sol\":8414:8472  allCustomerReturnCarRecord[returnRecordId].customerAddress */\n      0x02\n      add\n      0x00\n      swap1\n      sload\n      swap1\n      0x0100\n      exp\n      swap1\n      div\n      0xffffffffffffffffffffffffffffffffffffffff\n      and\n        /* \"contracts/CarRentalSmartContract.sol\":8384:8472  address customerAddressHere = allCustomerReturnCarRecord[returnRecordId].customerAddress */\n      swap1\n      pop\n        /* \"contracts/CarRentalSmartContract.sol\":8482:8503  uint totalDepositHere */\n      0x00\n        /* \"contracts/CarRentalSmartContract.sol\":8506:8530  allCustomerRentCarRecord */\n      0x06\n        /* \"contracts/CarRentalSmartContract.sol\":8506:8587  allCustomerRentCarRecord[allCustomerReturnCarRecord[returnRecordId].rentRecordId] */\n      0x00\n        /* \"contracts/CarRentalSmartContract.sol\":8531:8557  allCustomerReturnCarRecord */\n      0x08\n        /* \"contracts/CarRentalSmartContract.sol\":8531:8573  allCustomerReturnCarRecord[returnRecordId] */\n      0x00\n        /* \"contracts/CarRentalSmartContract.sol\":8558:8572  returnRecordId */\n      dup9\n        /* \"contracts/CarRentalSmartContract.sol\":8531:8573  allCustomerReturnCarRecord[returnRecordId] */\n      dup2\n      mstore\n      0x20\n      add\n      swap1\n      dup2\n      mstore\n      0x20\n      add\n      0x00\n      keccak256\n        /* \"contracts/CarRentalSmartContract.sol\":8531:8586  allCustomerReturnCarRecord[returnRecordId].rentRecordId */\n      0x01\n      add\n      sload\n        /* \"contracts/CarRentalSmartContract.sol\":8506:8587  allCustomerRentCarRecord[allCustomerReturnCarRecord[returnRecordId].rentRecordId] */\n      dup2\n      mstore\n      0x20\n      add\n      swap1\n      dup2\n      mstore\n      0x20\n      add\n      0x00\n      keccak256\n        /* \"contracts/CarRentalSmartContract.sol\":8506:8605  allCustomerRentCarRecord[allCustomerReturnCarRecord[returnRecordId].rentRecordId].totalMoneyDeposit */\n      0x04\n      add\n      sload\n        /* \"contracts/CarRentalSmartContract.sol\":8482:8605  uint totalDepositHere = allCustomerRentCarRecord[allCustomerReturnCarRecord[returnRecordId].rentRecordId].totalMoneyDeposit */\n      swap1\n      pop\n        /* \"contracts/CarRentalSmartContract.sol\":8615:8631  uint rentFeeHere */\n      0x00\n        /* \"contracts/CarRentalSmartContract.sol\":8634:8660  allCustomerReturnCarRecord */\n      0x08\n        /* \"contracts/CarRentalSmartContract.sol\":8634:8676  allCustomerReturnCarRecord[returnRecordId] */\n      0x00\n        /* \"contracts/CarRentalSmartContract.sol\":8661:8675  returnRecordId */\n      dup8\n        /* \"contracts/CarRentalSmartContract.sol\":8634:8676  allCustomerReturnCarRecord[returnRecordId] */\n      dup2\n      mstore\n      0x20\n      add\n      swap1\n      dup2\n      mstore\n      0x20\n      add\n      0x00\n      keccak256\n        /* \"contracts/CarRentalSmartContract.sol\":8634:8684  allCustomerReturnCarRecord[returnRecordId].rentFee */\n      0x05\n      add\n      sload\n        /* \"contracts/CarRentalSmartContract.sol\":8615:8684  uint rentFeeHere = allCustomerReturnCarRecord[returnRecordId].rentFee */\n      swap1\n      pop\n        /* \"contracts/CarRentalSmartContract.sol\":8765:8786  uint refundAmountHere */\n      0x00\n        /* \"contracts/CarRentalSmartContract.sol\":8822:8838  damageFixFeeHere */\n      dup6\n        /* \"contracts/CarRentalSmartContract.sol\":8808:8819  rentFeeHere */\n      dup3\n        /* \"contracts/CarRentalSmartContract.sol\":8789:8805  totalDepositHere */\n      dup5\n        /* \"contracts/CarRentalSmartContract.sol\":8789:8819  totalDepositHere - rentFeeHere */\n      tag_177\n      swap2\n      swap1\n      tag_137\n      jump\t// in\n    tag_177:\n        /* \"contracts/CarRentalSmartContract.sol\":8789:8838  totalDepositHere - rentFeeHere - damageFixFeeHere */\n      tag_178\n      swap2\n      swap1\n      tag_137\n      jump\t// in\n    tag_178:\n        /* \"contracts/CarRentalSmartContract.sol\":8765:8838  uint refundAmountHere = totalDepositHere - rentFeeHere - damageFixFeeHere */\n      swap1\n      pop\n        /* \"contracts/CarRentalSmartContract.sol\":8887:8906  customerAddressHere */\n      dup4\n        /* \"contracts/CarRentalSmartContract.sol\":8879:8916  payable(customerAddressHere).transfer */\n      0xffffffffffffffffffffffffffffffffffffffff\n      and\n        /* \"contracts/CarRentalSmartContract.sol\":8879:8934  payable(customerAddressHere).transfer(refundAmountHere) */\n      0x08fc\n        /* \"contracts/CarRentalSmartContract.sol\":8917:8933  refundAmountHere */\n      dup3\n        /* \"contracts/CarRentalSmartContract.sol\":8879:8934  payable(customerAddressHere).transfer(refundAmountHere) */\n      swap1\n      dup2\n      iszero\n      mul\n      swap1\n      mload(0x40)\n      0x00\n      mload(0x40)\n      dup1\n      dup4\n      sub\n      dup2\n      dup6\n      dup9\n      dup9\n      call\n      swap4\n      pop\n      pop\n      pop\n      pop\n      iszero\n      dup1\n      iszero\n      tag_180\n      jumpi\n      returndatasize\n      0x00\n      dup1\n      returndatacopy\n      revert(0x00, returndatasize)\n    tag_180:\n      pop\n        /* \"contracts/CarRentalSmartContract.sol\":8945:8996  ABCAuditDepositRecord memory auditDepositRecordHere */\n      0x00\n        /* \"contracts/CarRentalSmartContract.sol\":8999:9454  ABCAuditDepositRecord(currentAuditRecordId, ... */\n      mload(0x40)\n      dup1\n      0xa0\n      add\n      0x40\n      mstore\n      dup1\n        /* \"contracts/CarRentalSmartContract.sol\":9021:9041  currentAuditRecordId */\n      sload(0x09)\n        /* \"contracts/CarRentalSmartContract.sol\":8999:9454  ABCAuditDepositRecord(currentAuditRecordId, ... */\n      dup2\n      mstore\n      0x20\n      add\n        /* \"contracts/CarRentalSmartContract.sol\":9128:9142  returnRecordId */\n      dup10\n        /* \"contracts/CarRentalSmartContract.sol\":8999:9454  ABCAuditDepositRecord(currentAuditRecordId, ... */\n      dup2\n      mstore\n      0x20\n      add\n        /* \"contracts/CarRentalSmartContract.sol\":9228:9247  customerAddressHere */\n      dup7\n        /* \"contracts/CarRentalSmartContract.sol\":8999:9454  ABCAuditDepositRecord(currentAuditRecordId, ... */\n      0xffffffffffffffffffffffffffffffffffffffff\n      and\n      dup2\n      mstore\n      0x20\n      add\n        /* \"contracts/CarRentalSmartContract.sol\":9334:9350  damageFixFeeHere */\n      dup9\n        /* \"contracts/CarRentalSmartContract.sol\":8999:9454  ABCAuditDepositRecord(currentAuditRecordId, ... */\n      dup2\n      mstore\n      0x20\n      add\n        /* \"contracts/CarRentalSmartContract.sol\":9437:9453  refundAmountHere */\n      dup4\n        /* \"contracts/CarRentalSmartContract.sol\":8999:9454  ABCAuditDepositRecord(currentAuditRecordId, ... */\n      dup2\n      mstore\n      pop\n        /* \"contracts/CarRentalSmartContract.sol\":8945:9454  ABCAuditDepositRecord memory auditDepositRecordHere = ABCAuditDepositRecord(currentAuditRecordId, ... */\n      swap1\n      pop\n        /* \"contracts/CarRentalSmartContract.sol\":9514:9536  auditDepositRecordHere */\n      dup1\n        /* \"contracts/CarRentalSmartContract.sol\":9465:9489  allABCAuditDepositRecord */\n      0x0a\n        /* \"contracts/CarRentalSmartContract.sol\":9465:9511  allABCAuditDepositRecord[currentAuditRecordId] */\n      0x00\n        /* \"contracts/CarRentalSmartContract.sol\":9490:9510  currentAuditRecordId */\n      sload(0x09)\n        /* \"contracts/CarRentalSmartContract.sol\":9465:9511  allABCAuditDepositRecord[currentAuditRecordId] */\n      dup2\n      mstore\n      0x20\n      add\n      swap1\n      dup2\n      mstore\n      0x20\n      add\n      0x00\n      keccak256\n        /* \"contracts/CarRentalSmartContract.sol\":9465:9536  allABCAuditDepositRecord[currentAuditRecordId] = auditDepositRecordHere */\n      0x00\n      dup3\n      add\n      mload\n      dup2\n      0x00\n      add\n      sstore\n      0x20\n      dup3\n      add\n      mload\n      dup2\n      0x01\n      add\n      sstore\n      0x40\n      dup3\n      add\n      mload\n      dup2\n      0x02\n      add\n      exp(0x0100, 0x00)\n      dup2\n      sload\n      dup2\n      0xffffffffffffffffffffffffffffffffffffffff\n      mul\n      not\n      and\n      swap1\n      dup4\n      0xffffffffffffffffffffffffffffffffffffffff\n      and\n      mul\n      or\n      swap1\n      sstore\n      pop\n      0x60\n      dup3\n      add\n      mload\n      dup2\n      0x03\n      add\n      sstore\n      0x80\n      dup3\n      add\n      mload\n      dup2\n      0x04\n      add\n      sstore\n      swap1\n      pop\n      pop\n        /* \"contracts/CarRentalSmartContract.sol\":9609:9629  currentAuditRecordId */\n      sload(0x09)\n        /* \"contracts/CarRentalSmartContract.sol\":9546:9572  allCustomerReturnCarRecord */\n      0x08\n        /* \"contracts/CarRentalSmartContract.sol\":9546:9588  allCustomerReturnCarRecord[returnRecordId] */\n      0x00\n        /* \"contracts/CarRentalSmartContract.sol\":9573:9587  returnRecordId */\n      dup11\n        /* \"contracts/CarRentalSmartContract.sol\":9546:9588  allCustomerReturnCarRecord[returnRecordId] */\n      dup2\n      mstore\n      0x20\n      add\n      swap1\n      dup2\n      mstore\n      0x20\n      add\n      0x00\n      keccak256\n        /* \"contracts/CarRentalSmartContract.sol\":9546:9602  allCustomerReturnCarRecord[returnRecordId].auditRecordId */\n      0x06\n      add\n        /* \"contracts/CarRentalSmartContract.sol\":9546:9630  allCustomerReturnCarRecord[returnRecordId].auditRecordId = int(currentAuditRecordId) */\n      dup2\n      swap1\n      sstore\n      pop\n        /* \"contracts/CarRentalSmartContract.sol\":9664:9665  1 */\n      0x01\n        /* \"contracts/CarRentalSmartContract.sol\":9640:9660  currentAuditRecordId */\n      0x09\n      0x00\n        /* \"contracts/CarRentalSmartContract.sol\":9640:9665  currentAuditRecordId += 1 */\n      dup3\n      dup3\n      sload\n      tag_181\n      swap2\n      swap1\n      tag_140\n      jump\t// in\n    tag_181:\n      swap3\n      pop\n      pop\n      dup2\n      swap1\n      sstore\n      pop\n        /* \"contracts/CarRentalSmartContract.sol\":9691:9713  auditDepositRecordHere */\n      dup1\n        /* \"contracts/CarRentalSmartContract.sol\":9684:9713  return auditDepositRecordHere */\n      swap6\n      pop\n      pop\n      pop\n      pop\n      pop\n      pop\n        /* \"contracts/CarRentalSmartContract.sol\":7833:9720  function ABCAuditDeposit(uint returnRecordId, uint damageFixFeeHere) payable public onlyABCCompanyCanCall returns (ABCAuditDepositRecord memory) {... */\n      swap3\n      swap2\n      pop\n      pop\n      jump\t// out\n        /* \"contracts/CarRentalSmartContract.sol\":1920:1957  uint public currentReturnRecordId = 1 */\n    tag_60:\n      sload(0x07)\n      dup2\n      jump\t// out\n        /* \"contracts/CarRentalSmartContract.sol\":1645:1692  mapping (string => uint) public carAvailability */\n    tag_65:\n      0x04\n      dup2\n      dup1\n      mload\n      0x20\n      dup2\n      add\n      dup3\n      add\n      dup1\n      mload\n      dup5\n      dup3\n      mstore\n      0x20\n      dup4\n      add\n      0x20\n      dup6\n      add\n      keccak256\n      dup2\n      dup4\n      mstore\n      dup1\n      swap6\n      pop\n      pop\n      pop\n      pop\n      pop\n      pop\n      0x00\n      swap2\n      pop\n      swap1\n      pop\n      sload\n      dup2\n      jump\t// out\n        /* \"contracts/CarRentalSmartContract.sol\":3807:5047  function customerRentCar(string calldata carName, uint rentDays) payable public onlyRegisteredCustomerCanCall returns (customerRentCarRecord memory) {... */\n    tag_70:\n        /* \"contracts/CarRentalSmartContract.sol\":3926:3954  customerRentCarRecord memory */\n      tag_182\n      tag_183\n      jump\t// in\n    tag_182:\n        /* \"contracts/CarRentalSmartContract.sol\":2560:2564  true */\n      0x01\n        /* \"contracts/CarRentalSmartContract.sol\":2524:2564  allCustomerAddresses[msg.sender] == true */\n      iszero\n      iszero\n        /* \"contracts/CarRentalSmartContract.sol\":2524:2544  allCustomerAddresses */\n      0x01\n        /* \"contracts/CarRentalSmartContract.sol\":2524:2556  allCustomerAddresses[msg.sender] */\n      0x00\n        /* \"contracts/CarRentalSmartContract.sol\":2545:2555  msg.sender */\n      caller\n        /* \"contracts/CarRentalSmartContract.sol\":2524:2556  allCustomerAddresses[msg.sender] */\n      0xffffffffffffffffffffffffffffffffffffffff\n      and\n      0xffffffffffffffffffffffffffffffffffffffff\n      and\n      dup2\n      mstore\n      0x20\n      add\n      swap1\n      dup2\n      mstore\n      0x20\n      add\n      0x00\n      keccak256\n      0x00\n      swap1\n      sload\n      swap1\n      0x0100\n      exp\n      swap1\n      div\n      0xff\n      and\n        /* \"contracts/CarRentalSmartContract.sol\":2524:2564  allCustomerAddresses[msg.sender] == true */\n      iszero\n      iszero\n      eq\n        /* \"contracts/CarRentalSmartContract.sol\":2516:2616  require(allCustomerAddresses[msg.sender] == true, \"Customer not registered! Please register first!\") */\n      tag_185\n      jumpi\n      mload(0x40)\n      0x08c379a000000000000000000000000000000000000000000000000000000000\n      dup2\n      mstore\n      0x04\n      add\n      tag_186\n      swap1\n      tag_116\n      jump\t// in\n    tag_186:\n      mload(0x40)\n      dup1\n      swap2\n      sub\n      swap1\n      revert\n    tag_185:\n        /* \"contracts/CarRentalSmartContract.sol\":4113:4114  0 */\n      0x00\n        /* \"contracts/CarRentalSmartContract.sol\":4086:4101  carAvailability */\n      0x04\n        /* \"contracts/CarRentalSmartContract.sol\":4102:4109  carName */\n      dup6\n      dup6\n        /* \"contracts/CarRentalSmartContract.sol\":4086:4110  carAvailability[carName] */\n      mload(0x40)\n      tag_188\n      swap3\n      swap2\n      swap1\n      tag_189\n      jump\t// in\n    tag_188:\n      swap1\n      dup2\n      mstore\n      0x20\n      add\n      mload(0x40)\n      dup1\n      swap2\n      sub\n      swap1\n      keccak256\n      sload\n        /* \"contracts/CarRentalSmartContract.sol\":4086:4114  carAvailability[carName] > 0 */\n      gt\n        /* \"contracts/CarRentalSmartContract.sol\":4078:4153  require(carAvailability[carName] > 0, \"No this type's cars available now!\") */\n      tag_190\n      jumpi\n      mload(0x40)\n      0x08c379a000000000000000000000000000000000000000000000000000000000\n      dup2\n      mstore\n      0x04\n      add\n      tag_191\n      swap1\n      tag_192\n      jump\t// in\n    tag_191:\n      mload(0x40)\n      dup1\n      swap2\n      sub\n      swap1\n      revert\n    tag_190:\n        /* \"contracts/CarRentalSmartContract.sol\":4227:4234  carInfo */\n      0x03\n        /* \"contracts/CarRentalSmartContract.sol\":4235:4242  carName */\n      dup5\n      dup5\n        /* \"contracts/CarRentalSmartContract.sol\":4227:4243  carInfo[carName] */\n      mload(0x40)\n      tag_193\n      swap3\n      swap2\n      swap1\n      tag_189\n      jump\t// in\n    tag_193:\n      swap1\n      dup2\n      mstore\n      0x20\n      add\n      mload(0x40)\n      dup1\n      swap2\n      sub\n      swap1\n      keccak256\n        /* \"contracts/CarRentalSmartContract.sol\":4227:4253  carInfo[carName].dailyRent */\n      0x02\n      add\n      sload\n        /* \"contracts/CarRentalSmartContract.sol\":4216:4224  rentDays */\n      dup3\n        /* \"contracts/CarRentalSmartContract.sol\":4216:4253  rentDays * carInfo[carName].dailyRent */\n      tag_194\n      swap2\n      swap1\n      tag_149\n      jump\t// in\n    tag_194:\n        /* \"contracts/CarRentalSmartContract.sol\":4185:4192  carInfo */\n      0x03\n        /* \"contracts/CarRentalSmartContract.sol\":4193:4200  carName */\n      dup6\n      dup6\n        /* \"contracts/CarRentalSmartContract.sol\":4185:4201  carInfo[carName] */\n      mload(0x40)\n      tag_195\n      swap3\n      swap2\n      swap1\n      tag_189\n      jump\t// in\n    tag_195:\n      swap1\n      dup2\n      mstore\n      0x20\n      add\n      mload(0x40)\n      dup1\n      swap2\n      sub\n      swap1\n      keccak256\n        /* \"contracts/CarRentalSmartContract.sol\":4185:4213  carInfo[carName].needDeposit */\n      0x01\n      add\n      sload\n        /* \"contracts/CarRentalSmartContract.sol\":4185:4253  carInfo[carName].needDeposit + rentDays * carInfo[carName].dailyRent */\n      tag_196\n      swap2\n      swap1\n      tag_140\n      jump\t// in\n    tag_196:\n        /* \"contracts/CarRentalSmartContract.sol\":4171:4180  msg.value */\n      callvalue\n        /* \"contracts/CarRentalSmartContract.sol\":4171:4254  msg.value >= (carInfo[carName].needDeposit + rentDays * carInfo[carName].dailyRent) */\n      lt\n      iszero\n        /* \"contracts/CarRentalSmartContract.sol\":4163:4350  require(msg.value >= (carInfo[carName].needDeposit + rentDays * carInfo[carName].dailyRent), \"Deposit given here is not enough! Deposit shoule be larger than (90 + rentDays) * dailyRent\") */\n      tag_197\n      jumpi\n      mload(0x40)\n      0x08c379a000000000000000000000000000000000000000000000000000000000\n      dup2\n      mstore\n      0x04\n      add\n      tag_198\n      swap1\n      tag_199\n      jump\t// in\n    tag_198:\n      mload(0x40)\n      dup1\n      swap2\n      sub\n      swap1\n      revert\n    tag_197:\n        /* \"contracts/CarRentalSmartContract.sol\":4454:4455  1 */\n      0x01\n        /* \"contracts/CarRentalSmartContract.sol\":4405:4429  customerRentingCarNumber */\n      0x02\n        /* \"contracts/CarRentalSmartContract.sol\":4405:4441  customerRentingCarNumber[msg.sender] */\n      0x00\n        /* \"contracts/CarRentalSmartContract.sol\":4430:4440  msg.sender */\n      caller\n        /* \"contracts/CarRentalSmartContract.sol\":4405:4441  customerRentingCarNumber[msg.sender] */\n      0xffffffffffffffffffffffffffffffffffffffff\n      and\n      0xffffffffffffffffffffffffffffffffffffffff\n      and\n      dup2\n      mstore\n      0x20\n      add\n      swap1\n      dup2\n      mstore\n      0x20\n      add\n      0x00\n      keccak256\n        /* \"contracts/CarRentalSmartContract.sol\":4442:4449  carName */\n      dup6\n      dup6\n        /* \"contracts/CarRentalSmartContract.sol\":4405:4450  customerRentingCarNumber[msg.sender][carName] */\n      mload(0x40)\n      tag_200\n      swap3\n      swap2\n      swap1\n      tag_189\n      jump\t// in\n    tag_200:\n      swap1\n      dup2\n      mstore\n      0x20\n      add\n      mload(0x40)\n      dup1\n      swap2\n      sub\n      swap1\n      keccak256\n      0x00\n        /* \"contracts/CarRentalSmartContract.sol\":4405:4455  customerRentingCarNumber[msg.sender][carName] += 1 */\n      dup3\n      dup3\n      sload\n      tag_201\n      swap2\n      swap1\n      tag_140\n      jump\t// in\n    tag_201:\n      swap3\n      pop\n      pop\n      dup2\n      swap1\n      sstore\n      pop\n        /* \"contracts/CarRentalSmartContract.sol\":4535:4536  1 */\n      0x01\n        /* \"contracts/CarRentalSmartContract.sol\":4507:4522  carAvailability */\n      0x04\n        /* \"contracts/CarRentalSmartContract.sol\":4523:4530  carName */\n      dup6\n      dup6\n        /* \"contracts/CarRentalSmartContract.sol\":4507:4531  carAvailability[carName] */\n      mload(0x40)\n      tag_202\n      swap3\n      swap2\n      swap1\n      tag_189\n      jump\t// in\n    tag_202:\n      swap1\n      dup2\n      mstore\n      0x20\n      add\n      mload(0x40)\n      dup1\n      swap2\n      sub\n      swap1\n      keccak256\n      0x00\n        /* \"contracts/CarRentalSmartContract.sol\":4507:4536  carAvailability[carName] -= 1 */\n      dup3\n      dup3\n      sload\n      tag_203\n      swap2\n      swap1\n      tag_137\n      jump\t// in\n    tag_203:\n      swap3\n      pop\n      pop\n      dup2\n      swap1\n      sstore\n      pop\n        /* \"contracts/CarRentalSmartContract.sol\":4636:4682  customerRentCarRecord memory thisRentCarRecord */\n      0x00\n        /* \"contracts/CarRentalSmartContract.sol\":4685:4790  customerRentCarRecord(currentRentRecordId, msg.sender, carName, rentDays, msg.value, block.timestamp, -1) */\n      mload(0x40)\n      dup1\n      0xe0\n      add\n      0x40\n      mstore\n      dup1\n        /* \"contracts/CarRentalSmartContract.sol\":4707:4726  currentRentRecordId */\n      sload(0x05)\n        /* \"contracts/CarRentalSmartContract.sol\":4685:4790  customerRentCarRecord(currentRentRecordId, msg.sender, carName, rentDays, msg.value, block.timestamp, -1) */\n      dup2\n      mstore\n      0x20\n      add\n        /* \"contracts/CarRentalSmartContract.sol\":4728:4738  msg.sender */\n      caller\n        /* \"contracts/CarRentalSmartContract.sol\":4685:4790  customerRentCarRecord(currentRentRecordId, msg.sender, carName, rentDays, msg.value, block.timestamp, -1) */\n      0xffffffffffffffffffffffffffffffffffffffff\n      and\n      dup2\n      mstore\n      0x20\n      add\n        /* \"contracts/CarRentalSmartContract.sol\":4740:4747  carName */\n      dup7\n      dup7\n        /* \"contracts/CarRentalSmartContract.sol\":4685:4790  customerRentCarRecord(currentRentRecordId, msg.sender, carName, rentDays, msg.value, block.timestamp, -1) */\n      dup1\n      dup1\n      0x1f\n      add\n      0x20\n      dup1\n      swap2\n      div\n      mul\n      0x20\n      add\n      mload(0x40)\n      swap1\n      dup2\n      add\n      0x40\n      mstore\n      dup1\n      swap4\n      swap3\n      swap2\n      swap1\n      dup2\n      dup2\n      mstore\n      0x20\n      add\n      dup4\n      dup4\n      dup1\n      dup3\n      dup5\n      calldatacopy\n      0x00\n      dup2\n      dup5\n      add\n      mstore\n      not(0x1f)\n      0x1f\n      dup3\n      add\n      and\n      swap1\n      pop\n      dup1\n      dup4\n      add\n      swap3\n      pop\n      pop\n      pop\n      pop\n      pop\n      pop\n      pop\n      dup2\n      mstore\n      0x20\n      add\n        /* \"contracts/CarRentalSmartContract.sol\":4749:4757  rentDays */\n      dup5\n        /* \"contracts/CarRentalSmartContract.sol\":4685:4790  customerRentCarRecord(currentRentRecordId, msg.sender, carName, rentDays, msg.value, block.timestamp, -1) */\n      dup2\n      mstore\n      0x20\n      add\n        /* \"contracts/CarRentalSmartContract.sol\":4759:4768  msg.value */\n      callvalue\n        /* \"contracts/CarRentalSmartContract.sol\":4685:4790  customerRentCarRecord(currentRentRecordId, msg.sender, carName, rentDays, msg.value, block.timestamp, -1) */\n      dup2\n      mstore\n      0x20\n      add\n        /* \"contracts/CarRentalSmartContract.sol\":4770:4785  block.timestamp */\n      timestamp\n        /* \"contracts/CarRentalSmartContract.sol\":4685:4790  customerRentCarRecord(currentRentRecordId, msg.sender, carName, rentDays, msg.value, block.timestamp, -1) */\n      dup2\n      mstore\n      0x20\n      add\n        /* \"contracts/CarRentalSmartContract.sol\":4787:4789  -1 */\n      0xffffffffffffffffffffffffffffffffffffffffffffffffffffffffffffffff\n        /* \"contracts/CarRentalSmartContract.sol\":4685:4790  customerRentCarRecord(currentRentRecordId, msg.sender, carName, rentDays, msg.value, block.timestamp, -1) */\n      dup2\n      mstore\n      pop\n        /* \"contracts/CarRentalSmartContract.sol\":4636:4790  customerRentCarRecord memory thisRentCarRecord = customerRentCarRecord(currentRentRecordId, msg.sender, carName, rentDays, msg.value, block.timestamp, -1) */\n      swap1\n      pop\n        /* \"contracts/CarRentalSmartContract.sol\":4848:4865  thisRentCarRecord */\n      dup1\n        /* \"contracts/CarRentalSmartContract.sol\":4800:4824  allCustomerRentCarRecord */\n      0x06\n        /* \"contracts/CarRentalSmartContract.sol\":4800:4845  allCustomerRentCarRecord[currentRentRecordId] */\n      0x00\n        /* \"contracts/CarRentalSmartContract.sol\":4825:4844  currentRentRecordId */\n      sload(0x05)\n        /* \"contracts/CarRentalSmartContract.sol\":4800:4845  allCustomerRentCarRecord[currentRentRecordId] */\n      dup2\n      mstore\n      0x20\n      add\n      swap1\n      dup2\n      mstore\n      0x20\n      add\n      0x00\n      keccak256\n        /* \"contracts/CarRentalSmartContract.sol\":4800:4865  allCustomerRentCarRecord[currentRentRecordId] = thisRentCarRecord */\n      0x00\n      dup3\n      add\n      mload\n      dup2\n      0x00\n      add\n      sstore\n      0x20\n      dup3\n      add\n      mload\n      dup2\n      0x01\n      add\n      exp(0x0100, 0x00)\n      dup2\n      sload\n      dup2\n      0xffffffffffffffffffffffffffffffffffffffff\n      mul\n      not\n      and\n      swap1\n      dup4\n      0xffffffffffffffffffffffffffffffffffffffff\n      and\n      mul\n      or\n      swap1\n      sstore\n      pop\n      0x40\n      dup3\n      add\n      mload\n      dup2\n      0x02\n      add\n      swap1\n      dup1\n      mload\n      swap1\n      0x20\n      add\n      swap1\n      tag_204\n      swap3\n      swap2\n      swap1\n      tag_151\n      jump\t// in\n    tag_204:\n      pop\n      0x60\n      dup3\n      add\n      mload\n      dup2\n      0x03\n      add\n      sstore\n      0x80\n      dup3\n      add\n      mload\n      dup2\n      0x04\n      add\n      sstore\n      0xa0\n      dup3\n      add\n      mload\n      dup2\n      0x05\n      add\n      sstore\n      0xc0\n      dup3\n      add\n      mload\n      dup2\n      0x06\n      add\n      sstore\n      swap1\n      pop\n      pop\n        /* \"contracts/CarRentalSmartContract.sol\":4898:4899  1 */\n      0x01\n        /* \"contracts/CarRentalSmartContract.sol\":4875:4894  currentRentRecordId */\n      0x05\n      0x00\n        /* \"contracts/CarRentalSmartContract.sol\":4875:4899  currentRentRecordId += 1 */\n      dup3\n      dup3\n      sload\n      tag_205\n      swap2\n      swap1\n      tag_140\n      jump\t// in\n    tag_205:\n      swap3\n      pop\n      pop\n      dup2\n      swap1\n      sstore\n      pop\n        /* \"contracts/CarRentalSmartContract.sol\":4974:4984  ABCAddress */\n      0x00\n      dup1\n      sload\n      swap1\n      0x0100\n      exp\n      swap1\n      div\n      0xffffffffffffffffffffffffffffffffffffffff\n      and\n        /* \"contracts/CarRentalSmartContract.sol\":4966:4994  payable(ABCAddress).transfer */\n      0xffffffffffffffffffffffffffffffffffffffff\n      and\n        /* \"contracts/CarRentalSmartContract.sol\":4966:5005  payable(ABCAddress).transfer(msg.value) */\n      0x08fc\n        /* \"contracts/CarRentalSmartContract.sol\":4995:5004  msg.value */\n      callvalue\n        /* \"contracts/CarRentalSmartContract.sol\":4966:5005  payable(ABCAddress).transfer(msg.value) */\n      swap1\n      dup2\n      iszero\n      mul\n      swap1\n      mload(0x40)\n      0x00\n      mload(0x40)\n      dup1\n      dup4\n      sub\n      dup2\n      dup6\n      dup9\n      dup9\n      call\n      swap4\n      pop\n      pop\n      pop\n      pop\n      iszero\n      dup1\n      iszero\n      tag_207\n      jumpi\n      returndatasize\n      0x00\n      dup1\n      returndatacopy\n      revert(0x00, returndatasize)\n    tag_207:\n      pop\n        /* \"contracts/CarRentalSmartContract.sol\":5023:5040  thisRentCarRecord */\n      dup1\n        /* \"contracts/CarRentalSmartContract.sol\":5016:5040  return thisRentCarRecord */\n      swap2\n      pop\n      pop\n        /* \"contracts/CarRentalSmartContract.sol\":3807:5047  function customerRentCar(string calldata carName, uint rentDays) payable public onlyRegisteredCustomerCanCall returns (customerRentCarRecord memory) {... */\n      swap4\n      swap3\n      pop\n      pop\n      pop\n      jump\t// out\n        /* \"contracts/CarRentalSmartContract.sol\":3265:3684  function ABCAddCar(string calldata carName, uint carDailyRent, uint number) public onlyABCCompanyCanCall returns (bool) {... */\n    tag_77:\n        /* \"contracts/CarRentalSmartContract.sol\":3379:3383  bool */\n      0x00\n        /* \"contracts/CarRentalSmartContract.sol\":2306:2316  ABCAddress */\n      dup1\n      0x00\n      swap1\n      sload\n      swap1\n      0x0100\n      exp\n      swap1\n      div\n      0xffffffffffffffffffffffffffffffffffffffff\n      and\n        /* \"contracts/CarRentalSmartContract.sol\":2292:2316  msg.sender == ABCAddress */\n      0xffffffffffffffffffffffffffffffffffffffff\n      and\n        /* \"contracts/CarRentalSmartContract.sol\":2292:2302  msg.sender */\n      caller\n        /* \"contracts/CarRentalSmartContract.sol\":2292:2316  msg.sender == ABCAddress */\n      0xffffffffffffffffffffffffffffffffffffffff\n      and\n      eq\n        /* \"contracts/CarRentalSmartContract.sol\":2284:2353  require(msg.sender == ABCAddress, \"Only ABC can call this function!\") */\n      tag_209\n      jumpi\n      mload(0x40)\n      0x08c379a000000000000000000000000000000000000000000000000000000000\n      dup2\n      mstore\n      0x04\n      add\n      tag_210\n      swap1\n      tag_168\n      jump\t// in\n    tag_210:\n      mload(0x40)\n      dup1\n      swap2\n      sub\n      swap1\n      revert\n    tag_209:\n        /* \"contracts/CarRentalSmartContract.sol\":3486:3610  Car({... */\n      mload(0x40)\n      dup1\n      0x60\n      add\n      0x40\n      mstore\n      dup1\n        /* \"contracts/CarRentalSmartContract.sol\":3510:3517  carName */\n      dup7\n      dup7\n        /* \"contracts/CarRentalSmartContract.sol\":3486:3610  Car({... */\n      dup1\n      dup1\n      0x1f\n      add\n      0x20\n      dup1\n      swap2\n      div\n      mul\n      0x20\n      add\n      mload(0x40)\n      swap1\n      dup2\n      add\n      0x40\n      mstore\n      dup1\n      swap4\n      swap3\n      swap2\n      swap1\n      dup2\n      dup2\n      mstore\n      0x20\n      add\n      dup4\n      dup4\n      dup1\n      dup3\n      dup5\n      calldatacopy\n      0x00\n      dup2\n      dup5\n      add\n      mstore\n      not(0x1f)\n      0x1f\n      dup3\n      add\n      and\n      swap1\n      pop\n      dup1\n      dup4\n      add\n      swap3\n      pop\n      pop\n      pop\n      pop\n      pop\n      pop\n      pop\n      dup2\n      mstore\n      0x20\n      add\n        /* \"contracts/CarRentalSmartContract.sol\":3560:3562  90 */\n      0x5a\n        /* \"contracts/CarRentalSmartContract.sol\":3545:3557  carDailyRent */\n      dup6\n        /* \"contracts/CarRentalSmartContract.sol\":3545:3562  carDailyRent * 90 */\n      tag_212\n      swap2\n      swap1\n      tag_149\n      jump\t// in\n    tag_212:\n        /* \"contracts/CarRentalSmartContract.sol\":3486:3610  Car({... */\n      dup2\n      mstore\n      0x20\n      add\n        /* \"contracts/CarRentalSmartContract.sol\":3587:3599  carDailyRent */\n      dup5\n        /* \"contracts/CarRentalSmartContract.sol\":3486:3610  Car({... */\n      dup2\n      mstore\n      pop\n        /* \"contracts/CarRentalSmartContract.sol\":3467:3474  carInfo */\n      0x03\n        /* \"contracts/CarRentalSmartContract.sol\":3475:3482  carName */\n      dup7\n      dup7\n        /* \"contracts/CarRentalSmartContract.sol\":3467:3483  carInfo[carName] */\n      mload(0x40)\n      tag_213\n      swap3\n      swap2\n      swap1\n      tag_189\n      jump\t// in\n    tag_213:\n      swap1\n      dup2\n      mstore\n      0x20\n      add\n      mload(0x40)\n      dup1\n      swap2\n      sub\n      swap1\n      keccak256\n        /* \"contracts/CarRentalSmartContract.sol\":3467:3610  carInfo[carName] = Car({... */\n      0x00\n      dup3\n      add\n      mload\n      dup2\n      0x00\n      add\n      swap1\n      dup1\n      mload\n      swap1\n      0x20\n      add\n      swap1\n      tag_214\n      swap3\n      swap2\n      swap1\n      tag_151\n      jump\t// in\n    tag_214:\n      pop\n      0x20\n      dup3\n      add\n      mload\n      dup2\n      0x01\n      add\n      sstore\n      0x40\n      dup3\n      add\n      mload\n      dup2\n      0x02\n      add\n      sstore\n      swap1\n      pop\n      pop\n        /* \"contracts/CarRentalSmartContract.sol\":3649:3655  number */\n      dup2\n        /* \"contracts/CarRentalSmartContract.sol\":3621:3636  carAvailability */\n      0x04\n        /* \"contracts/CarRentalSmartContract.sol\":3637:3644  carName */\n      dup7\n      dup7\n        /* \"contracts/CarRentalSmartContract.sol\":3621:3645  carAvailability[carName] */\n      mload(0x40)\n      tag_215\n      swap3\n      swap2\n      swap1\n      tag_189\n      jump\t// in\n    tag_215:\n      swap1\n      dup2\n      mstore\n      0x20\n      add\n      mload(0x40)\n      dup1\n      swap2\n      sub\n      swap1\n      keccak256\n      0x00\n        /* \"contracts/CarRentalSmartContract.sol\":3621:3655  carAvailability[carName] += number */\n      dup3\n      dup3\n      sload\n      tag_216\n      swap2\n      swap1\n      tag_140\n      jump\t// in\n    tag_216:\n      swap3\n      pop\n      pop\n      dup2\n      swap1\n      sstore\n      pop\n        /* \"contracts/CarRentalSmartContract.sol\":3673:3677  true */\n      0x01\n        /* \"contracts/CarRentalSmartContract.sol\":3666:3677  return true */\n      swap1\n      pop\n        /* \"contracts/CarRentalSmartContract.sol\":3265:3684  function ABCAddCar(string calldata carName, uint carDailyRent, uint number) public onlyABCCompanyCanCall returns (bool) {... */\n      swap5\n      swap4\n      pop\n      pop\n      pop\n      pop\n      jump\t// out\n        /* \"contracts/CarRentalSmartContract.sol\":1800:1836  uint public currentRentRecordId  = 1 */\n    tag_82:\n      sload(0x05)\n      dup2\n      jump\t// out\n        /* \"contracts/CarRentalSmartContract.sol\":2087:2158  mapping (uint => ABCAuditDepositRecord) public allABCAuditDepositRecord */\n    tag_87:\n      mstore(0x20, 0x0a)\n      dup1\n      0x00\n      mstore\n      keccak256(0x00, 0x40)\n      0x00\n      swap2\n      pop\n      swap1\n      pop\n      dup1\n      0x00\n      add\n      sload\n      swap1\n      dup1\n      0x01\n      add\n      sload\n      swap1\n      dup1\n      0x02\n      add\n      0x00\n      swap1\n      sload\n      swap1\n      0x0100\n      exp\n      swap1\n      div\n      0xffffffffffffffffffffffffffffffffffffffff\n      and\n      swap1\n      dup1\n      0x03\n      add\n      sload\n      swap1\n      dup1\n      0x04\n      add\n      sload\n      swap1\n      pop\n      dup6\n      jump\t// out\n        /* \"contracts/CarRentalSmartContract.sol\":1162:1215  mapping (address => bool) public allCustomerAddresses */\n    tag_94:\n      mstore(0x20, 0x01)\n      dup1\n      0x00\n      mstore\n      keccak256(0x00, 0x40)\n      0x00\n      swap2\n      pop\n      sload\n      swap1\n      0x0100\n      exp\n      swap1\n      div\n      0xff\n      and\n      dup2\n      jump\t// out\n        /* \"contracts/CarRentalSmartContract.sol\":1842:1913  mapping (uint => customerRentCarRecord) public allCustomerRentCarRecord */\n    tag_99:\n      mstore(0x20, 0x06)\n      dup1\n      0x00\n      mstore\n      keccak256(0x00, 0x40)\n      0x00\n      swap2\n      pop\n      swap1\n      pop\n      dup1\n      0x00\n      add\n      sload\n      swap1\n      dup1\n      0x01\n      add\n      0x00\n      swap1\n      sload\n      swap1\n      0x0100\n      exp\n      swap1\n      div\n      0xffffffffffffffffffffffffffffffffffffffff\n      and\n      swap1\n      dup1\n      0x02\n      add\n      dup1\n      sload\n      tag_217\n      swap1\n      tag_129\n      jump\t// in\n    tag_217:\n      dup1\n      0x1f\n      add\n      0x20\n      dup1\n      swap2\n      div\n      mul\n      0x20\n      add\n      mload(0x40)\n      swap1\n      dup2\n      add\n      0x40\n      mstore\n      dup1\n      swap3\n      swap2\n      swap1\n      dup2\n      dup2\n      mstore\n      0x20\n      add\n      dup3\n      dup1\n      sload\n      tag_218\n      swap1\n      tag_129\n      jump\t// in\n    tag_218:\n      dup1\n      iszero\n      tag_219\n      jumpi\n      dup1\n      0x1f\n      lt\n      tag_220\n      jumpi\n      0x0100\n      dup1\n      dup4\n      sload\n      div\n      mul\n      dup4\n      mstore\n      swap2\n      0x20\n      add\n      swap2\n      jump(tag_219)\n    tag_220:\n      dup3\n      add\n      swap2\n      swap1\n      0x00\n      mstore\n      keccak256(0x00, 0x20)\n      swap1\n    tag_221:\n      dup2\n      sload\n      dup2\n      mstore\n      swap1\n      0x01\n      add\n      swap1\n      0x20\n      add\n      dup1\n      dup4\n      gt\n      tag_221\n      jumpi\n      dup3\n      swap1\n      sub\n      0x1f\n      and\n      dup3\n      add\n      swap2\n    tag_219:\n      pop\n      pop\n      pop\n      pop\n      pop\n      swap1\n      dup1\n      0x03\n      add\n      sload\n      swap1\n      dup1\n      0x04\n      add\n      sload\n      swap1\n      dup1\n      0x05\n      add\n      sload\n      swap1\n      dup1\n      0x06\n      add\n      sload\n      swap1\n      pop\n      dup8\n      jump\t// out\n        /* \"contracts/CarRentalSmartContract.sol\":1015:1040  address public ABCAddress */\n    tag_104:\n      0x00\n      dup1\n      sload\n      swap1\n      0x0100\n      exp\n      swap1\n      div\n      0xffffffffffffffffffffffffffffffffffffffff\n      and\n      dup2\n      jump\t// out\n        /* \"contracts/CarRentalSmartContract.sol\":2978:3105  function customerRegister() public returns (bool) {... */\n    tag_109:\n        /* \"contracts/CarRentalSmartContract.sol\":3022:3026  bool */\n      0x00\n        /* \"contracts/CarRentalSmartContract.sol\":3073:3077  true */\n      0x01\n        /* \"contracts/CarRentalSmartContract.sol\":3038:3058  allCustomerAddresses */\n      dup1\n        /* \"contracts/CarRentalSmartContract.sol\":3038:3070  allCustomerAddresses[msg.sender] */\n      0x00\n        /* \"contracts/CarRentalSmartContract.sol\":3059:3069  msg.sender */\n      caller\n        /* \"contracts/CarRentalSmartContract.sol\":3038:3070  allCustomerAddresses[msg.sender] */\n      0xffffffffffffffffffffffffffffffffffffffff\n      and\n      0xffffffffffffffffffffffffffffffffffffffff\n      and\n      dup2\n      mstore\n      0x20\n      add\n      swap1\n      dup2\n      mstore\n      0x20\n      add\n      0x00\n      keccak256\n      0x00\n        /* \"contracts/CarRentalSmartContract.sol\":3038:3077  allCustomerAddresses[msg.sender] = true */\n      0x0100\n      exp\n      dup2\n      sload\n      dup2\n      0xff\n      mul\n      not\n      and\n      swap1\n      dup4\n      iszero\n      iszero\n      mul\n      or\n      swap1\n      sstore\n      pop\n        /* \"contracts/CarRentalSmartContract.sol\":3094:3098  true */\n      0x01\n        /* \"contracts/CarRentalSmartContract.sol\":3087:3098  return true */\n      swap1\n      pop\n        /* \"contracts/CarRentalSmartContract.sol\":2978:3105  function customerRegister() public returns (bool) {... */\n      swap1\n      jump\t// out\n    tag_112:\n      mload(0x40)\n      dup1\n      0xe0\n      add\n      0x40\n      mstore\n      dup1\n      0x00\n      dup2\n      mstore\n      0x20\n      add\n      0x00\n      dup2\n      mstore\n      0x20\n      add\n      and(0xffffffffffffffffffffffffffffffffffffffff, 0x00)\n      dup2\n      mstore\n      0x20\n      add\n      0x60\n      dup2\n      mstore\n      0x20\n      add\n      0x00\n      dup2\n      mstore\n      0x20\n      add\n      0x00\n      dup2\n      mstore\n      0x20\n      add\n      0x00\n      dup2\n      mstore\n      pop\n      swap1\n      jump\t// out\n    tag_151:\n      dup3\n      dup1\n      sload\n      tag_223\n      swap1\n      tag_129\n      jump\t// in\n    tag_223:\n      swap1\n      0x00\n      mstore\n      keccak256(0x00, 0x20)\n      swap1\n      0x1f\n      add\n      0x20\n      swap1\n      div\n      dup2\n      add\n      swap3\n      dup3\n      tag_225\n      jumpi\n      0x00\n      dup6\n      sstore\n      jump(tag_224)\n    tag_225:\n      dup3\n      0x1f\n      lt\n      tag_226\n      jumpi\n      dup1\n      mload\n      not(0xff)\n      and\n      dup4\n      dup1\n      add\n      or\n      dup6\n      sstore\n      jump(tag_224)\n    tag_226:\n      dup3\n      dup1\n      add\n      0x01\n      add\n      dup6\n      sstore\n      dup3\n      iszero\n      tag_224\n      jumpi\n      swap2\n      dup3\n      add\n    tag_227:\n      dup3\n      dup2\n      gt\n      iszero\n      tag_228\n      jumpi\n      dup3\n      mload\n      dup3\n      sstore\n      swap2\n      0x20\n      add\n      swap2\n      swap1\n      0x01\n      add\n      swap1\n      jump(tag_227)\n    tag_228:\n    tag_224:\n      pop\n      swap1\n      pop\n      tag_229\n      swap2\n      swap1\n      tag_230\n      jump\t// in\n    tag_229:\n      pop\n      swap1\n      jump\t// out\n    tag_164:\n      mload(0x40)\n      dup1\n      0xa0\n      add\n      0x40\n      mstore\n      dup1\n      0x00\n      dup2\n      mstore\n      0x20\n      add\n      0x00\n      dup2\n      mstore\n      0x20\n      add\n      and(0xffffffffffffffffffffffffffffffffffffffff, 0x00)\n      dup2\n      mstore\n      0x20\n      add\n      0x00\n      dup2\n      mstore\n      0x20\n      add\n      0x00\n      dup2\n      mstore\n      pop\n      swap1\n      jump\t// out\n    tag_183:\n      mload(0x40)\n      dup1\n      0xe0\n      add\n      0x40\n      mstore\n      dup1\n      0x00\n      dup2\n      mstore\n      0x20\n      add\n      and(0xffffffffffffffffffffffffffffffffffffffff, 0x00)\n      dup2\n      mstore\n      0x20\n      add\n      0x60\n      dup2\n      mstore\n      0x20\n      add\n      0x00\n      dup2\n      mstore\n      0x20\n      add\n      0x00\n      dup2\n      mstore\n      0x20\n      add\n      0x00\n      dup2\n      mstore\n      0x20\n      add\n      0x00\n      dup2\n      mstore\n      pop\n      swap1\n      jump\t// out\n    tag_230:\n    tag_231:\n      dup1\n      dup3\n      gt\n      iszero\n      tag_232\n      jumpi\n      0x00\n      dup2\n      0x00\n      swap1\n      sstore\n      pop\n      0x01\n      add\n      jump(tag_231)\n    tag_232:\n      pop\n      swap1\n      jump\t// out\n        /* \"#utility.yul\":7:419   */\n    tag_234:\n        /* \"#utility.yul\":85:90   */\n      0x00\n        /* \"#utility.yul\":110:176   */\n      tag_236\n        /* \"#utility.yul\":126:175   */\n      tag_237\n        /* \"#utility.yul\":168:174   */\n      dup5\n        /* \"#utility.yul\":126:175   */\n      tag_238\n      jump\t// in\n    tag_237:\n        /* \"#utility.yul\":110:176   */\n      tag_239\n      jump\t// in\n    tag_236:\n        /* \"#utility.yul\":101:176   */\n      swap1\n      pop\n        /* \"#utility.yul\":199:205   */\n      dup3\n        /* \"#utility.yul\":192:197   */\n      dup2\n        /* \"#utility.yul\":185:206   */\n      mstore\n        /* \"#utility.yul\":237:241   */\n      0x20\n        /* \"#utility.yul\":230:235   */\n      dup2\n        /* \"#utility.yul\":226:242   */\n      add\n        /* \"#utility.yul\":275:278   */\n      dup5\n        /* \"#utility.yul\":266:272   */\n      dup5\n        /* \"#utility.yul\":261:264   */\n      dup5\n        /* \"#utility.yul\":257:273   */\n      add\n        /* \"#utility.yul\":254:279   */\n      gt\n        /* \"#utility.yul\":251:363   */\n      iszero\n      tag_240\n      jumpi\n        /* \"#utility.yul\":282:361   */\n      tag_241\n      tag_242\n      jump\t// in\n    tag_241:\n        /* \"#utility.yul\":251:363   */\n    tag_240:\n        /* \"#utility.yul\":372:413   */\n      tag_243\n        /* \"#utility.yul\":406:412   */\n      dup5\n        /* \"#utility.yul\":401:404   */\n      dup3\n        /* \"#utility.yul\":396:399   */\n      dup6\n        /* \"#utility.yul\":372:413   */\n      tag_244\n      jump\t// in\n    tag_243:\n        /* \"#utility.yul\":91:419   */\n      pop\n        /* \"#utility.yul\":7:419   */\n      swap4\n      swap3\n      pop\n      pop\n      pop\n      jump\t// out\n        /* \"#utility.yul\":425:564   */\n    tag_245:\n        /* \"#utility.yul\":471:476   */\n      0x00\n        /* \"#utility.yul\":509:515   */\n      dup2\n        /* \"#utility.yul\":496:516   */\n      calldataload\n        /* \"#utility.yul\":487:516   */\n      swap1\n      pop\n        /* \"#utility.yul\":525:558   */\n      tag_247\n        /* \"#utility.yul\":552:557   */\n      dup2\n        /* \"#utility.yul\":525:558   */\n      tag_248\n      jump\t// in\n    tag_247:\n        /* \"#utility.yul\":425:564   */\n      swap3\n      swap2\n      pop\n      pop\n      jump\t// out\n        /* \"#utility.yul\":584:1137   */\n    tag_249:\n        /* \"#utility.yul\":642:650   */\n      0x00\n        /* \"#utility.yul\":652:658   */\n      dup1\n        /* \"#utility.yul\":702:705   */\n      dup4\n        /* \"#utility.yul\":695:699   */\n      0x1f\n        /* \"#utility.yul\":687:693   */\n      dup5\n        /* \"#utility.yul\":683:700   */\n      add\n        /* \"#utility.yul\":679:706   */\n      slt\n        /* \"#utility.yul\":669:791   */\n      tag_251\n      jumpi\n        /* \"#utility.yul\":710:789   */\n      tag_252\n      tag_253\n      jump\t// in\n    tag_252:\n        /* \"#utility.yul\":669:791   */\n    tag_251:\n        /* \"#utility.yul\":823:829   */\n      dup3\n        /* \"#utility.yul\":810:830   */\n      calldataload\n        /* \"#utility.yul\":800:830   */\n      swap1\n      pop\n        /* \"#utility.yul\":853:871   */\n      0xffffffffffffffff\n        /* \"#utility.yul\":845:851   */\n      dup2\n        /* \"#utility.yul\":842:872   */\n      gt\n        /* \"#utility.yul\":839:956   */\n      iszero\n      tag_254\n      jumpi\n        /* \"#utility.yul\":875:954   */\n      tag_255\n      tag_256\n      jump\t// in\n    tag_255:\n        /* \"#utility.yul\":839:956   */\n    tag_254:\n        /* \"#utility.yul\":989:993   */\n      0x20\n        /* \"#utility.yul\":981:987   */\n      dup4\n        /* \"#utility.yul\":977:994   */\n      add\n        /* \"#utility.yul\":965:994   */\n      swap2\n      pop\n        /* \"#utility.yul\":1043:1046   */\n      dup4\n        /* \"#utility.yul\":1035:1039   */\n      0x01\n        /* \"#utility.yul\":1027:1033   */\n      dup3\n        /* \"#utility.yul\":1023:1040   */\n      mul\n        /* \"#utility.yul\":1013:1021   */\n      dup4\n        /* \"#utility.yul\":1009:1041   */\n      add\n        /* \"#utility.yul\":1006:1047   */\n      gt\n        /* \"#utility.yul\":1003:1131   */\n      iszero\n      tag_257\n      jumpi\n        /* \"#utility.yul\":1050:1129   */\n      tag_258\n      tag_259\n      jump\t// in\n    tag_258:\n        /* \"#utility.yul\":1003:1131   */\n    tag_257:\n        /* \"#utility.yul\":584:1137   */\n      swap3\n      pop\n      swap3\n      swap1\n      pop\n      jump\t// out\n        /* \"#utility.yul\":1157:1497   */\n    tag_260:\n        /* \"#utility.yul\":1213:1218   */\n      0x00\n        /* \"#utility.yul\":1262:1265   */\n      dup3\n        /* \"#utility.yul\":1255:1259   */\n      0x1f\n        /* \"#utility.yul\":1247:1253   */\n      dup4\n        /* \"#utility.yul\":1243:1260   */\n      add\n        /* \"#utility.yul\":1239:1266   */\n      slt\n        /* \"#utility.yul\":1229:1351   */\n      tag_262\n      jumpi\n        /* \"#utility.yul\":1270:1349   */\n      tag_263\n      tag_253\n      jump\t// in\n    tag_263:\n        /* \"#utility.yul\":1229:1351   */\n    tag_262:\n        /* \"#utility.yul\":1387:1393   */\n      dup2\n        /* \"#utility.yul\":1374:1394   */\n      calldataload\n        /* \"#utility.yul\":1412:1491   */\n      tag_264\n        /* \"#utility.yul\":1487:1490   */\n      dup5\n        /* \"#utility.yul\":1479:1485   */\n      dup3\n        /* \"#utility.yul\":1472:1476   */\n      0x20\n        /* \"#utility.yul\":1464:1470   */\n      dup7\n        /* \"#utility.yul\":1460:1477   */\n      add\n        /* \"#utility.yul\":1412:1491   */\n      tag_234\n      jump\t// in\n    tag_264:\n        /* \"#utility.yul\":1403:1491   */\n      swap2\n      pop\n        /* \"#utility.yul\":1219:1497   */\n      pop\n        /* \"#utility.yul\":1157:1497   */\n      swap3\n      swap2\n      pop\n      pop\n      jump\t// out\n        /* \"#utility.yul\":1503:1642   */\n    tag_265:\n        /* \"#utility.yul\":1549:1554   */\n      0x00\n        /* \"#utility.yul\":1587:1593   */\n      dup2\n        /* \"#utility.yul\":1574:1594   */\n      calldataload\n        /* \"#utility.yul\":1565:1594   */\n      swap1\n      pop\n        /* \"#utility.yul\":1603:1636   */\n      tag_267\n        /* \"#utility.yul\":1630:1635   */\n      dup2\n        /* \"#utility.yul\":1603:1636   */\n      tag_268\n      jump\t// in\n    tag_267:\n        /* \"#utility.yul\":1503:1642   */\n      swap3\n      swap2\n      pop\n      pop\n      jump\t// out\n        /* \"#utility.yul\":1648:1977   */\n    tag_93:\n        /* \"#utility.yul\":1707:1713   */\n      0x00\n        /* \"#utility.yul\":1756:1758   */\n      0x20\n        /* \"#utility.yul\":1744:1753   */\n      dup3\n        /* \"#utility.yul\":1735:1742   */\n      dup5\n        /* \"#utility.yul\":1731:1754   */\n      sub\n        /* \"#utility.yul\":1727:1759   */\n      slt\n        /* \"#utility.yul\":1724:1843   */\n      iszero\n      tag_270\n      jumpi\n        /* \"#utility.yul\":1762:1841   */\n      tag_271\n      tag_272\n      jump\t// in\n    tag_271:\n        /* \"#utility.yul\":1724:1843   */\n    tag_270:\n        /* \"#utility.yul\":1882:1883   */\n      0x00\n        /* \"#utility.yul\":1907:1960   */\n      tag_273\n        /* \"#utility.yul\":1952:1959   */\n      dup5\n        /* \"#utility.yul\":1943:1949   */\n      dup3\n        /* \"#utility.yul\":1932:1941   */\n      dup6\n        /* \"#utility.yul\":1928:1950   */\n      add\n        /* \"#utility.yul\":1907:1960   */\n      tag_245\n      jump\t// in\n    tag_273:\n        /* \"#utility.yul\":1897:1960   */\n      swap2\n      pop\n        /* \"#utility.yul\":1853:1970   */\n      pop\n        /* \"#utility.yul\":1648:1977   */\n      swap3\n      swap2\n      pop\n      pop\n      jump\t// out\n        /* \"#utility.yul\":1983:2637   */\n    tag_43:\n        /* \"#utility.yul\":2061:2067   */\n      0x00\n        /* \"#utility.yul\":2069:2075   */\n      dup1\n        /* \"#utility.yul\":2118:2120   */\n      0x40\n        /* \"#utility.yul\":2106:2115   */\n      dup4\n        /* \"#utility.yul\":2097:2104   */\n      dup6\n        /* \"#utility.yul\":2093:2116   */\n      sub\n        /* \"#utility.yul\":2089:2121   */\n      slt\n        /* \"#utility.yul\":2086:2205   */\n      iszero\n      tag_275\n      jumpi\n        /* \"#utility.yul\":2124:2203   */\n      tag_276\n      tag_272\n      jump\t// in\n    tag_276:\n        /* \"#utility.yul\":2086:2205   */\n    tag_275:\n        /* \"#utility.yul\":2244:2245   */\n      0x00\n        /* \"#utility.yul\":2269:2322   */\n      tag_277\n        /* \"#utility.yul\":2314:2321   */\n      dup6\n        /* \"#utility.yul\":2305:2311   */\n      dup3\n        /* \"#utility.yul\":2294:2303   */\n      dup7\n        /* \"#utility.yul\":2290:2312   */\n      add\n        /* \"#utility.yul\":2269:2322   */\n      tag_245\n      jump\t// in\n    tag_277:\n        /* \"#utility.yul\":2259:2322   */\n      swap3\n      pop\n        /* \"#utility.yul\":2215:2332   */\n      pop\n        /* \"#utility.yul\":2399:2401   */\n      0x20\n        /* \"#utility.yul\":2388:2397   */\n      dup4\n        /* \"#utility.yul\":2384:2402   */\n      add\n        /* \"#utility.yul\":2371:2403   */\n      calldataload\n        /* \"#utility.yul\":2430:2448   */\n      0xffffffffffffffff\n        /* \"#utility.yul\":2422:2428   */\n      dup2\n        /* \"#utility.yul\":2419:2449   */\n      gt\n        /* \"#utility.yul\":2416:2533   */\n      iszero\n      tag_278\n      jumpi\n        /* \"#utility.yul\":2452:2531   */\n      tag_279\n      tag_280\n      jump\t// in\n    tag_279:\n        /* \"#utility.yul\":2416:2533   */\n    tag_278:\n        /* \"#utility.yul\":2557:2620   */\n      tag_281\n        /* \"#utility.yul\":2612:2619   */\n      dup6\n        /* \"#utility.yul\":2603:2609   */\n      dup3\n        /* \"#utility.yul\":2592:2601   */\n      dup7\n        /* \"#utility.yul\":2588:2610   */\n      add\n        /* \"#utility.yul\":2557:2620   */\n      tag_260\n      jump\t// in\n    tag_281:\n        /* \"#utility.yul\":2547:2620   */\n      swap2\n      pop\n        /* \"#utility.yul\":2342:2630   */\n      pop\n        /* \"#utility.yul\":1983:2637   */\n      swap3\n      pop\n      swap3\n      swap1\n      pop\n      jump\t// out\n        /* \"#utility.yul\":2643:3317   */\n    tag_69:\n        /* \"#utility.yul\":2723:2729   */\n      0x00\n        /* \"#utility.yul\":2731:2737   */\n      dup1\n        /* \"#utility.yul\":2739:2745   */\n      0x00\n        /* \"#utility.yul\":2788:2790   */\n      0x40\n        /* \"#utility.yul\":2776:2785   */\n      dup5\n        /* \"#utility.yul\":2767:2774   */\n      dup7\n        /* \"#utility.yul\":2763:2786   */\n      sub\n        /* \"#utility.yul\":2759:2791   */\n      slt\n        /* \"#utility.yul\":2756:2875   */\n      iszero\n      tag_283\n      jumpi\n        /* \"#utility.yul\":2794:2873   */\n      tag_284\n      tag_272\n      jump\t// in\n    tag_284:\n        /* \"#utility.yul\":2756:2875   */\n    tag_283:\n        /* \"#utility.yul\":2942:2943   */\n      0x00\n        /* \"#utility.yul\":2931:2940   */\n      dup5\n        /* \"#utility.yul\":2927:2944   */\n      add\n        /* \"#utility.yul\":2914:2945   */\n      calldataload\n        /* \"#utility.yul\":2972:2990   */\n      0xffffffffffffffff\n        /* \"#utility.yul\":2964:2970   */\n      dup2\n        /* \"#utility.yul\":2961:2991   */\n      gt\n        /* \"#utility.yul\":2958:3075   */\n      iszero\n      tag_285\n      jumpi\n        /* \"#utility.yul\":2994:3073   */\n      tag_286\n      tag_280\n      jump\t// in\n    tag_286:\n        /* \"#utility.yul\":2958:3075   */\n    tag_285:\n        /* \"#utility.yul\":3107:3172   */\n      tag_287\n        /* \"#utility.yul\":3164:3171   */\n      dup7\n        /* \"#utility.yul\":3155:3161   */\n      dup3\n        /* \"#utility.yul\":3144:3153   */\n      dup8\n        /* \"#utility.yul\":3140:3162   */\n      add\n        /* \"#utility.yul\":3107:3172   */\n      tag_249\n      jump\t// in\n    tag_287:\n        /* \"#utility.yul\":3089:3172   */\n      swap4\n      pop\n      swap4\n      pop\n        /* \"#utility.yul\":2885:3182   */\n      pop\n        /* \"#utility.yul\":3221:3223   */\n      0x20\n        /* \"#utility.yul\":3247:3300   */\n      tag_288\n        /* \"#utility.yul\":3292:3299   */\n      dup7\n        /* \"#utility.yul\":3283:3289   */\n      dup3\n        /* \"#utility.yul\":3272:3281   */\n      dup8\n        /* \"#utility.yul\":3268:3290   */\n      add\n        /* \"#utility.yul\":3247:3300   */\n      tag_265\n      jump\t// in\n    tag_288:\n        /* \"#utility.yul\":3237:3300   */\n      swap2\n      pop\n        /* \"#utility.yul\":3192:3310   */\n      pop\n        /* \"#utility.yul\":2643:3317   */\n      swap3\n      pop\n      swap3\n      pop\n      swap3\n      jump\t// out\n        /* \"#utility.yul\":3323:4142   */\n    tag_76:\n        /* \"#utility.yul\":3412:3418   */\n      0x00\n        /* \"#utility.yul\":3420:3426   */\n      dup1\n        /* \"#utility.yul\":3428:3434   */\n      0x00\n        /* \"#utility.yul\":3436:3442   */\n      dup1\n        /* \"#utility.yul\":3485:3487   */\n      0x60\n        /* \"#utility.yul\":3473:3482   */\n      dup6\n        /* \"#utility.yul\":3464:3471   */\n      dup8\n        /* \"#utility.yul\":3460:3483   */\n      sub\n        /* \"#utility.yul\":3456:3488   */\n      slt\n        /* \"#utility.yul\":3453:3572   */\n      iszero\n      tag_290\n      jumpi\n        /* \"#utility.yul\":3491:3570   */\n      tag_291\n      tag_272\n      jump\t// in\n    tag_291:\n        /* \"#utility.yul\":3453:3572   */\n    tag_290:\n        /* \"#utility.yul\":3639:3640   */\n      0x00\n        /* \"#utility.yul\":3628:3637   */\n      dup6\n        /* \"#utility.yul\":3624:3641   */\n      add\n        /* \"#utility.yul\":3611:3642   */\n      calldataload\n        /* \"#utility.yul\":3669:3687   */\n      0xffffffffffffffff\n        /* \"#utility.yul\":3661:3667   */\n      dup2\n        /* \"#utility.yul\":3658:3688   */\n      gt\n        /* \"#utility.yul\":3655:3772   */\n      iszero\n      tag_292\n      jumpi\n        /* \"#utility.yul\":3691:3770   */\n      tag_293\n      tag_280\n      jump\t// in\n    tag_293:\n        /* \"#utility.yul\":3655:3772   */\n    tag_292:\n        /* \"#utility.yul\":3804:3869   */\n      tag_294\n        /* \"#utility.yul\":3861:3868   */\n      dup8\n        /* \"#utility.yul\":3852:3858   */\n      dup3\n        /* \"#utility.yul\":3841:3850   */\n      dup9\n        /* \"#utility.yul\":3837:3859   */\n      add\n        /* \"#utility.yul\":3804:3869   */\n      tag_249\n      jump\t// in\n    tag_294:\n        /* \"#utility.yul\":3786:3869   */\n      swap5\n      pop\n      swap5\n      pop\n        /* \"#utility.yul\":3582:3879   */\n      pop\n        /* \"#utility.yul\":3918:3920   */\n      0x20\n        /* \"#utility.yul\":3944:3997   */\n      tag_295\n        /* \"#utility.yul\":3989:3996   */\n      dup8\n        /* \"#utility.yul\":3980:3986   */\n      dup3\n        /* \"#utility.yul\":3969:3978   */\n      dup9\n        /* \"#utility.yul\":3965:3987   */\n      add\n        /* \"#utility.yul\":3944:3997   */\n      tag_265\n      jump\t// in\n    tag_295:\n        /* \"#utility.yul\":3934:3997   */\n      swap3\n      pop\n        /* \"#utility.yul\":3889:4007   */\n      pop\n        /* \"#utility.yul\":4046:4048   */\n      0x40\n        /* \"#utility.yul\":4072:4125   */\n      tag_296\n        /* \"#utility.yul\":4117:4124   */\n      dup8\n        /* \"#utility.yul\":4108:4114   */\n      dup3\n        /* \"#utility.yul\":4097:4106   */\n      dup9\n        /* \"#utility.yul\":4093:4115   */\n      add\n        /* \"#utility.yul\":4072:4125   */\n      tag_265\n      jump\t// in\n    tag_296:\n        /* \"#utility.yul\":4062:4125   */\n      swap2\n      pop\n        /* \"#utility.yul\":4017:4135   */\n      pop\n        /* \"#utility.yul\":3323:4142   */\n      swap3\n      swap6\n      swap2\n      swap5\n      pop\n      swap3\n      pop\n      jump\t// out\n        /* \"#utility.yul\":4148:4657   */\n    tag_36:\n        /* \"#utility.yul\":4217:4223   */\n      0x00\n        /* \"#utility.yul\":4266:4268   */\n      0x20\n        /* \"#utility.yul\":4254:4263   */\n      dup3\n        /* \"#utility.yul\":4245:4252   */\n      dup5\n        /* \"#utility.yul\":4241:4264   */\n      sub\n        /* \"#utility.yul\":4237:4269   */\n      slt\n        /* \"#utility.yul\":4234:4353   */\n      iszero\n      tag_298\n      jumpi\n        /* \"#utility.yul\":4272:4351   */\n      tag_299\n      tag_272\n      jump\t// in\n    tag_299:\n        /* \"#utility.yul\":4234:4353   */\n    tag_298:\n        /* \"#utility.yul\":4420:4421   */\n      0x00\n        /* \"#utility.yul\":4409:4418   */\n      dup3\n        /* \"#utility.yul\":4405:4422   */\n      add\n        /* \"#utility.yul\":4392:4423   */\n      calldataload\n        /* \"#utility.yul\":4450:4468   */\n      0xffffffffffffffff\n        /* \"#utility.yul\":4442:4448   */\n      dup2\n        /* \"#utility.yul\":4439:4469   */\n      gt\n        /* \"#utility.yul\":4436:4553   */\n      iszero\n      tag_300\n      jumpi\n        /* \"#utility.yul\":4472:4551   */\n      tag_301\n      tag_280\n      jump\t// in\n    tag_301:\n        /* \"#utility.yul\":4436:4553   */\n    tag_300:\n        /* \"#utility.yul\":4577:4640   */\n      tag_302\n        /* \"#utility.yul\":4632:4639   */\n      dup5\n        /* \"#utility.yul\":4623:4629   */\n      dup3\n        /* \"#utility.yul\":4612:4621   */\n      dup6\n        /* \"#utility.yul\":4608:4630   */\n      add\n        /* \"#utility.yul\":4577:4640   */\n      tag_260\n      jump\t// in\n    tag_302:\n        /* \"#utility.yul\":4567:4640   */\n      swap2\n      pop\n        /* \"#utility.yul\":4363:4650   */\n      pop\n        /* \"#utility.yul\":4148:4657   */\n      swap3\n      swap2\n      pop\n      pop\n      jump\t// out\n        /* \"#utility.yul\":4663:4992   */\n    tag_29:\n        /* \"#utility.yul\":4722:4728   */\n      0x00\n        /* \"#utility.yul\":4771:4773   */\n      0x20\n        /* \"#utility.yul\":4759:4768   */\n      dup3\n        /* \"#utility.yul\":4750:4757   */\n      dup5\n        /* \"#utility.yul\":4746:4769   */\n      sub\n        /* \"#utility.yul\":4742:4774   */\n      slt\n        /* \"#utility.yul\":4739:4858   */\n      iszero\n      tag_304\n      jumpi\n        /* \"#utility.yul\":4777:4856   */\n      tag_305\n      tag_272\n      jump\t// in\n    tag_305:\n        /* \"#utility.yul\":4739:4858   */\n    tag_304:\n        /* \"#utility.yul\":4897:4898   */\n      0x00\n        /* \"#utility.yul\":4922:4975   */\n      tag_306\n        /* \"#utility.yul\":4967:4974   */\n      dup5\n        /* \"#utility.yul\":4958:4964   */\n      dup3\n        /* \"#utility.yul\":4947:4956   */\n      dup6\n        /* \"#utility.yul\":4943:4965   */\n      add\n        /* \"#utility.yul\":4922:4975   */\n      tag_265\n      jump\t// in\n    tag_306:\n        /* \"#utility.yul\":4912:4975   */\n      swap2\n      pop\n        /* \"#utility.yul\":4868:4985   */\n      pop\n        /* \"#utility.yul\":4663:4992   */\n      swap3\n      swap2\n      pop\n      pop\n      jump\t// out\n        /* \"#utility.yul\":4998:5472   */\n    tag_54:\n        /* \"#utility.yul\":5066:5072   */\n      0x00\n        /* \"#utility.yul\":5074:5080   */\n      dup1\n        /* \"#utility.yul\":5123:5125   */\n      0x40\n        /* \"#utility.yul\":5111:5120   */\n      dup4\n        /* \"#utility.yul\":5102:5109   */\n      dup6\n        /* \"#utility.yul\":5098:5121   */\n      sub\n        /* \"#utility.yul\":5094:5126   */\n      slt\n        /* \"#utility.yul\":5091:5210   */\n      iszero\n      tag_308\n      jumpi\n        /* \"#utility.yul\":5129:5208   */\n      tag_309\n      tag_272\n      jump\t// in\n    tag_309:\n        /* \"#utility.yul\":5091:5210   */\n    tag_308:\n        /* \"#utility.yul\":5249:5250   */\n      0x00\n        /* \"#utility.yul\":5274:5327   */\n      tag_310\n        /* \"#utility.yul\":5319:5326   */\n      dup6\n        /* \"#utility.yul\":5310:5316   */\n      dup3\n        /* \"#utility.yul\":5299:5308   */\n      dup7\n        /* \"#utility.yul\":5295:5317   */\n      add\n        /* \"#utility.yul\":5274:5327   */\n      tag_265\n      jump\t// in\n    tag_310:\n        /* \"#utility.yul\":5264:5327   */\n      swap3\n      pop\n        /* \"#utility.yul\":5220:5337   */\n      pop\n        /* \"#utility.yul\":5376:5378   */\n      0x20\n        /* \"#utility.yul\":5402:5455   */\n      tag_311\n        /* \"#utility.yul\":5447:5454   */\n      dup6\n        /* \"#utility.yul\":5438:5444   */\n      dup3\n        /* \"#utility.yul\":5427:5436   */\n      dup7\n        /* \"#utility.yul\":5423:5445   */\n      add\n        /* \"#utility.yul\":5402:5455   */\n      tag_265\n      jump\t// in\n    tag_311:\n        /* \"#utility.yul\":5392:5455   */\n      swap2\n      pop\n        /* \"#utility.yul\":5347:5465   */\n      pop\n        /* \"#utility.yul\":4998:5472   */\n      swap3\n      pop\n      swap3\n      swap1\n      pop\n      jump\t// out\n        /* \"#utility.yul\":5478:5586   */\n    tag_312:\n        /* \"#utility.yul\":5555:5579   */\n      tag_314\n        /* \"#utility.yul\":5573:5578   */\n      dup2\n        /* \"#utility.yul\":5555:5579   */\n      tag_315\n      jump\t// in\n    tag_314:\n        /* \"#utility.yul\":5550:5553   */\n      dup3\n        /* \"#utility.yul\":5543:5580   */\n      mstore\n        /* \"#utility.yul\":5478:5586   */\n      pop\n      pop\n      jump\t// out\n        /* \"#utility.yul\":5592:5710   */\n    tag_316:\n        /* \"#utility.yul\":5679:5703   */\n      tag_318\n        /* \"#utility.yul\":5697:5702   */\n      dup2\n        /* \"#utility.yul\":5679:5703   */\n      tag_315\n      jump\t// in\n    tag_318:\n        /* \"#utility.yul\":5674:5677   */\n      dup3\n        /* \"#utility.yul\":5667:5704   */\n      mstore\n        /* \"#utility.yul\":5592:5710   */\n      pop\n      pop\n      jump\t// out\n        /* \"#utility.yul\":5716:5825   */\n    tag_319:\n        /* \"#utility.yul\":5797:5818   */\n      tag_321\n        /* \"#utility.yul\":5812:5817   */\n      dup2\n        /* \"#utility.yul\":5797:5818   */\n      tag_322\n      jump\t// in\n    tag_321:\n        /* \"#utility.yul\":5792:5795   */\n      dup3\n        /* \"#utility.yul\":5785:5819   */\n      mstore\n        /* \"#utility.yul\":5716:5825   */\n      pop\n      pop\n      jump\t// out\n        /* \"#utility.yul\":5831:5936   */\n    tag_323:\n        /* \"#utility.yul\":5906:5929   */\n      tag_325\n        /* \"#utility.yul\":5923:5928   */\n      dup2\n        /* \"#utility.yul\":5906:5929   */\n      tag_326\n      jump\t// in\n    tag_325:\n        /* \"#utility.yul\":5901:5904   */\n      dup3\n        /* \"#utility.yul\":5894:5930   */\n      mstore\n        /* \"#utility.yul\":5831:5936   */\n      pop\n      pop\n      jump\t// out\n        /* \"#utility.yul\":5942:6057   */\n    tag_327:\n        /* \"#utility.yul\":6027:6050   */\n      tag_329\n        /* \"#utility.yul\":6044:6049   */\n      dup2\n        /* \"#utility.yul\":6027:6050   */\n      tag_326\n      jump\t// in\n    tag_329:\n        /* \"#utility.yul\":6022:6025   */\n      dup3\n        /* \"#utility.yul\":6015:6051   */\n      mstore\n        /* \"#utility.yul\":5942:6057   */\n      pop\n      pop\n      jump\t// out\n        /* \"#utility.yul\":6087:6404   */\n    tag_330:\n        /* \"#utility.yul\":6203:6206   */\n      0x00\n        /* \"#utility.yul\":6224:6313   */\n      tag_332\n        /* \"#utility.yul\":6306:6312   */\n      dup4\n        /* \"#utility.yul\":6301:6304   */\n      dup6\n        /* \"#utility.yul\":6224:6313   */\n      tag_333\n      jump\t// in\n    tag_332:\n        /* \"#utility.yul\":6217:6313   */\n      swap4\n      pop\n        /* \"#utility.yul\":6323:6366   */\n      tag_334\n        /* \"#utility.yul\":6359:6365   */\n      dup4\n        /* \"#utility.yul\":6354:6357   */\n      dup6\n        /* \"#utility.yul\":6347:6352   */\n      dup5\n        /* \"#utility.yul\":6323:6366   */\n      tag_244\n      jump\t// in\n    tag_334:\n        /* \"#utility.yul\":6391:6397   */\n      dup3\n        /* \"#utility.yul\":6386:6389   */\n      dup5\n        /* \"#utility.yul\":6382:6398   */\n      add\n        /* \"#utility.yul\":6375:6398   */\n      swap1\n      pop\n        /* \"#utility.yul\":6087:6404   */\n      swap4\n      swap3\n      pop\n      pop\n      pop\n      jump\t// out\n        /* \"#utility.yul\":6410:6754   */\n    tag_335:\n        /* \"#utility.yul\":6488:6491   */\n      0x00\n        /* \"#utility.yul\":6516:6555   */\n      tag_337\n        /* \"#utility.yul\":6549:6554   */\n      dup3\n        /* \"#utility.yul\":6516:6555   */\n      tag_338\n      jump\t// in\n    tag_337:\n        /* \"#utility.yul\":6571:6632   */\n      tag_339\n        /* \"#utility.yul\":6625:6631   */\n      dup2\n        /* \"#utility.yul\":6620:6623   */\n      dup6\n        /* \"#utility.yul\":6571:6632   */\n      tag_340\n      jump\t// in\n    tag_339:\n        /* \"#utility.yul\":6564:6632   */\n      swap4\n      pop\n        /* \"#utility.yul\":6641:6693   */\n      tag_341\n        /* \"#utility.yul\":6686:6692   */\n      dup2\n        /* \"#utility.yul\":6681:6684   */\n      dup6\n        /* \"#utility.yul\":6674:6678   */\n      0x20\n        /* \"#utility.yul\":6667:6672   */\n      dup7\n        /* \"#utility.yul\":6663:6679   */\n      add\n        /* \"#utility.yul\":6641:6693   */\n      tag_342\n      jump\t// in\n    tag_341:\n        /* \"#utility.yul\":6718:6747   */\n      tag_343\n        /* \"#utility.yul\":6740:6746   */\n      dup2\n        /* \"#utility.yul\":6718:6747   */\n      tag_344\n      jump\t// in\n    tag_343:\n        /* \"#utility.yul\":6713:6716   */\n      dup5\n        /* \"#utility.yul\":6709:6748   */\n      add\n        /* \"#utility.yul\":6702:6748   */\n      swap2\n      pop\n        /* \"#utility.yul\":6492:6754   */\n      pop\n        /* \"#utility.yul\":6410:6754   */\n      swap3\n      swap2\n      pop\n      pop\n      jump\t// out\n        /* \"#utility.yul\":6760:7124   */\n    tag_345:\n        /* \"#utility.yul\":6848:6851   */\n      0x00\n        /* \"#utility.yul\":6876:6915   */\n      tag_347\n        /* \"#utility.yul\":6909:6914   */\n      dup3\n        /* \"#utility.yul\":6876:6915   */\n      tag_338\n      jump\t// in\n    tag_347:\n        /* \"#utility.yul\":6931:7002   */\n      tag_348\n        /* \"#utility.yul\":6995:7001   */\n      dup2\n        /* \"#utility.yul\":6990:6993   */\n      dup6\n        /* \"#utility.yul\":6931:7002   */\n      tag_349\n      jump\t// in\n    tag_348:\n        /* \"#utility.yul\":6924:7002   */\n      swap4\n      pop\n        /* \"#utility.yul\":7011:7063   */\n      tag_350\n        /* \"#utility.yul\":7056:7062   */\n      dup2\n        /* \"#utility.yul\":7051:7054   */\n      dup6\n        /* \"#utility.yul\":7044:7048   */\n      0x20\n        /* \"#utility.yul\":7037:7042   */\n      dup7\n        /* \"#utility.yul\":7033:7049   */\n      add\n        /* \"#utility.yul\":7011:7063   */\n      tag_342\n      jump\t// in\n    tag_350:\n        /* \"#utility.yul\":7088:7117   */\n      tag_351\n        /* \"#utility.yul\":7110:7116   */\n      dup2\n        /* \"#utility.yul\":7088:7117   */\n      tag_344\n      jump\t// in\n    tag_351:\n        /* \"#utility.yul\":7083:7086   */\n      dup5\n        /* \"#utility.yul\":7079:7118   */\n      add\n        /* \"#utility.yul\":7072:7118   */\n      swap2\n      pop\n        /* \"#utility.yul\":6852:7124   */\n      pop\n        /* \"#utility.yul\":6760:7124   */\n      swap3\n      swap2\n      pop\n      pop\n      jump\t// out\n        /* \"#utility.yul\":7130:7507   */\n    tag_352:\n        /* \"#utility.yul\":7236:7239   */\n      0x00\n        /* \"#utility.yul\":7264:7303   */\n      tag_354\n        /* \"#utility.yul\":7297:7302   */\n      dup3\n        /* \"#utility.yul\":7264:7303   */\n      tag_338\n      jump\t// in\n    tag_354:\n        /* \"#utility.yul\":7319:7408   */\n      tag_355\n        /* \"#utility.yul\":7401:7407   */\n      dup2\n        /* \"#utility.yul\":7396:7399   */\n      dup6\n        /* \"#utility.yul\":7319:7408   */\n      tag_333\n      jump\t// in\n    tag_355:\n        /* \"#utility.yul\":7312:7408   */\n      swap4\n      pop\n        /* \"#utility.yul\":7417:7469   */\n      tag_356\n        /* \"#utility.yul\":7462:7468   */\n      dup2\n        /* \"#utility.yul\":7457:7460   */\n      dup6\n        /* \"#utility.yul\":7450:7454   */\n      0x20\n        /* \"#utility.yul\":7443:7448   */\n      dup7\n        /* \"#utility.yul\":7439:7455   */\n      add\n        /* \"#utility.yul\":7417:7469   */\n      tag_342\n      jump\t// in\n    tag_356:\n        /* \"#utility.yul\":7494:7500   */\n      dup1\n        /* \"#utility.yul\":7489:7492   */\n      dup5\n        /* \"#utility.yul\":7485:7501   */\n      add\n        /* \"#utility.yul\":7478:7501   */\n      swap2\n      pop\n        /* \"#utility.yul\":7240:7507   */\n      pop\n        /* \"#utility.yul\":7130:7507   */\n      swap3\n      swap2\n      pop\n      pop\n      jump\t// out\n        /* \"#utility.yul\":7513:7879   */\n    tag_357:\n        /* \"#utility.yul\":7655:7658   */\n      0x00\n        /* \"#utility.yul\":7676:7743   */\n      tag_359\n        /* \"#utility.yul\":7740:7742   */\n      0x2f\n        /* \"#utility.yul\":7735:7738   */\n      dup4\n        /* \"#utility.yul\":7676:7743   */\n      tag_349\n      jump\t// in\n    tag_359:\n        /* \"#utility.yul\":7669:7743   */\n      swap2\n      pop\n        /* \"#utility.yul\":7752:7845   */\n      tag_360\n        /* \"#utility.yul\":7841:7844   */\n      dup3\n        /* \"#utility.yul\":7752:7845   */\n      tag_361\n      jump\t// in\n    tag_360:\n        /* \"#utility.yul\":7870:7872   */\n      0x40\n        /* \"#utility.yul\":7865:7868   */\n      dup3\n        /* \"#utility.yul\":7861:7873   */\n      add\n        /* \"#utility.yul\":7854:7873   */\n      swap1\n      pop\n        /* \"#utility.yul\":7513:7879   */\n      swap2\n      swap1\n      pop\n      jump\t// out\n        /* \"#utility.yul\":7885:8251   */\n    tag_362:\n        /* \"#utility.yul\":8027:8030   */\n      0x00\n        /* \"#utility.yul\":8048:8115   */\n      tag_364\n        /* \"#utility.yul\":8112:8114   */\n      0x35\n        /* \"#utility.yul\":8107:8110   */\n      dup4\n        /* \"#utility.yul\":8048:8115   */\n      tag_349\n      jump\t// in\n    tag_364:\n        /* \"#utility.yul\":8041:8115   */\n      swap2\n      pop\n        /* \"#utility.yul\":8124:8217   */\n      tag_365\n        /* \"#utility.yul\":8213:8216   */\n      dup3\n        /* \"#utility.yul\":8124:8217   */\n      tag_366\n      jump\t// in\n    tag_365:\n        /* \"#utility.yul\":8242:8244   */\n      0x40\n        /* \"#utility.yul\":8237:8240   */\n      dup3\n        /* \"#utility.yul\":8233:8245   */\n      add\n        /* \"#utility.yul\":8226:8245   */\n      swap1\n      pop\n        /* \"#utility.yul\":7885:8251   */\n      swap2\n      swap1\n      pop\n      jump\t// out\n        /* \"#utility.yul\":8257:8623   */\n    tag_367:\n        /* \"#utility.yul\":8399:8402   */\n      0x00\n        /* \"#utility.yul\":8420:8487   */\n      tag_369\n        /* \"#utility.yul\":8484:8486   */\n      0x22\n        /* \"#utility.yul\":8479:8482   */\n      dup4\n        /* \"#utility.yul\":8420:8487   */\n      tag_349\n      jump\t// in\n    tag_369:\n        /* \"#utility.yul\":8413:8487   */\n      swap2\n      pop\n        /* \"#utility.yul\":8496:8589   */\n      tag_370\n        /* \"#utility.yul\":8585:8588   */\n      dup3\n        /* \"#utility.yul\":8496:8589   */\n      tag_371\n      jump\t// in\n    tag_370:\n        /* \"#utility.yul\":8614:8616   */\n      0x40\n        /* \"#utility.yul\":8609:8612   */\n      dup3\n        /* \"#utility.yul\":8605:8617   */\n      add\n        /* \"#utility.yul\":8598:8617   */\n      swap1\n      pop\n        /* \"#utility.yul\":8257:8623   */\n      swap2\n      swap1\n      pop\n      jump\t// out\n        /* \"#utility.yul\":8629:8995   */\n    tag_372:\n        /* \"#utility.yul\":8771:8774   */\n      0x00\n        /* \"#utility.yul\":8792:8859   */\n      tag_374\n        /* \"#utility.yul\":8856:8858   */\n      0x32\n        /* \"#utility.yul\":8851:8854   */\n      dup4\n        /* \"#utility.yul\":8792:8859   */\n      tag_349\n      jump\t// in\n    tag_374:\n        /* \"#utility.yul\":8785:8859   */\n      swap2\n      pop\n        /* \"#utility.yul\":8868:8961   */\n      tag_375\n        /* \"#utility.yul\":8957:8960   */\n      dup3\n        /* \"#utility.yul\":8868:8961   */\n      tag_376\n      jump\t// in\n    tag_375:\n        /* \"#utility.yul\":8986:8988   */\n      0x40\n        /* \"#utility.yul\":8981:8984   */\n      dup3\n        /* \"#utility.yul\":8977:8989   */\n      add\n        /* \"#utility.yul\":8970:8989   */\n      swap1\n      pop\n        /* \"#utility.yul\":8629:8995   */\n      swap2\n      swap1\n      pop\n      jump\t// out\n        /* \"#utility.yul\":9001:9367   */\n    tag_377:\n        /* \"#utility.yul\":9143:9146   */\n      0x00\n        /* \"#utility.yul\":9164:9231   */\n      tag_379\n        /* \"#utility.yul\":9228:9230   */\n      0x1a\n        /* \"#utility.yul\":9223:9226   */\n      dup4\n        /* \"#utility.yul\":9164:9231   */\n      tag_349\n      jump\t// in\n    tag_379:\n        /* \"#utility.yul\":9157:9231   */\n      swap2\n      pop\n        /* \"#utility.yul\":9240:9333   */\n      tag_380\n        /* \"#utility.yul\":9329:9332   */\n      dup3\n        /* \"#utility.yul\":9240:9333   */\n      tag_381\n      jump\t// in\n    tag_380:\n        /* \"#utility.yul\":9358:9360   */\n      0x20\n        /* \"#utility.yul\":9353:9356   */\n      dup3\n        /* \"#utility.yul\":9349:9361   */\n      add\n        /* \"#utility.yul\":9342:9361   */\n      swap1\n      pop\n        /* \"#utility.yul\":9001:9367   */\n      swap2\n      swap1\n      pop\n      jump\t// out\n        /* \"#utility.yul\":9373:9739   */\n    tag_382:\n        /* \"#utility.yul\":9515:9518   */\n      0x00\n        /* \"#utility.yul\":9536:9603   */\n      tag_384\n        /* \"#utility.yul\":9600:9602   */\n      0x5b\n        /* \"#utility.yul\":9595:9598   */\n      dup4\n        /* \"#utility.yul\":9536:9603   */\n      tag_349\n      jump\t// in\n    tag_384:\n        /* \"#utility.yul\":9529:9603   */\n      swap2\n      pop\n        /* \"#utility.yul\":9612:9705   */\n      tag_385\n        /* \"#utility.yul\":9701:9704   */\n      dup3\n        /* \"#utility.yul\":9612:9705   */\n      tag_386\n      jump\t// in\n    tag_385:\n        /* \"#utility.yul\":9730:9732   */\n      0x60\n        /* \"#utility.yul\":9725:9728   */\n      dup3\n        /* \"#utility.yul\":9721:9733   */\n      add\n        /* \"#utility.yul\":9714:9733   */\n      swap1\n      pop\n        /* \"#utility.yul\":9373:9739   */\n      swap2\n      swap1\n      pop\n      jump\t// out\n        /* \"#utility.yul\":9745:10111   */\n    tag_387:\n        /* \"#utility.yul\":9887:9890   */\n      0x00\n        /* \"#utility.yul\":9908:9975   */\n      tag_389\n        /* \"#utility.yul\":9972:9974   */\n      0x1c\n        /* \"#utility.yul\":9967:9970   */\n      dup4\n        /* \"#utility.yul\":9908:9975   */\n      tag_349\n      jump\t// in\n    tag_389:\n        /* \"#utility.yul\":9901:9975   */\n      swap2\n      pop\n        /* \"#utility.yul\":9984:10077   */\n      tag_390\n        /* \"#utility.yul\":10073:10076   */\n      dup3\n        /* \"#utility.yul\":9984:10077   */\n      tag_391\n      jump\t// in\n    tag_390:\n        /* \"#utility.yul\":10102:10104   */\n      0x20\n        /* \"#utility.yul\":10097:10100   */\n      dup3\n        /* \"#utility.yul\":10093:10105   */\n      add\n        /* \"#utility.yul\":10086:10105   */\n      swap1\n      pop\n        /* \"#utility.yul\":9745:10111   */\n      swap2\n      swap1\n      pop\n      jump\t// out\n        /* \"#utility.yul\":10117:10483   */\n    tag_392:\n        /* \"#utility.yul\":10259:10262   */\n      0x00\n        /* \"#utility.yul\":10280:10347   */\n      tag_394\n        /* \"#utility.yul\":10344:10346   */\n      0x20\n        /* \"#utility.yul\":10339:10342   */\n      dup4\n        /* \"#utility.yul\":10280:10347   */\n      tag_349\n      jump\t// in\n    tag_394:\n        /* \"#utility.yul\":10273:10347   */\n      swap2\n      pop\n        /* \"#utility.yul\":10356:10449   */\n      tag_395\n        /* \"#utility.yul\":10445:10448   */\n      dup3\n        /* \"#utility.yul\":10356:10449   */\n      tag_396\n      jump\t// in\n    tag_395:\n        /* \"#utility.yul\":10474:10476   */\n      0x20\n        /* \"#utility.yul\":10469:10472   */\n      dup3\n        /* \"#utility.yul\":10465:10477   */\n      add\n        /* \"#utility.yul\":10458:10477   */\n      swap1\n      pop\n        /* \"#utility.yul\":10117:10483   */\n      swap2\n      swap1\n      pop\n      jump\t// out\n        /* \"#utility.yul\":10489:10855   */\n    tag_397:\n        /* \"#utility.yul\":10631:10634   */\n      0x00\n        /* \"#utility.yul\":10652:10719   */\n      tag_399\n        /* \"#utility.yul\":10716:10718   */\n      0x27\n        /* \"#utility.yul\":10711:10714   */\n      dup4\n        /* \"#utility.yul\":10652:10719   */\n      tag_349\n      jump\t// in\n    tag_399:\n        /* \"#utility.yul\":10645:10719   */\n      swap2\n      pop\n        /* \"#utility.yul\":10728:10821   */\n      tag_400\n        /* \"#utility.yul\":10817:10820   */\n      dup3\n        /* \"#utility.yul\":10728:10821   */\n      tag_401\n      jump\t// in\n    tag_400:\n        /* \"#utility.yul\":10846:10848   */\n      0x40\n        /* \"#utility.yul\":10841:10844   */\n      dup3\n        /* \"#utility.yul\":10837:10849   */\n      add\n        /* \"#utility.yul\":10830:10849   */\n      swap1\n      pop\n        /* \"#utility.yul\":10489:10855   */\n      swap2\n      swap1\n      pop\n      jump\t// out\n        /* \"#utility.yul\":10949:12054   */\n    tag_402:\n        /* \"#utility.yul\":11120:11124   */\n      0xa0\n        /* \"#utility.yul\":11115:11118   */\n      dup3\n        /* \"#utility.yul\":11111:11125   */\n      add\n        /* \"#utility.yul\":11216:11220   */\n      0x00\n        /* \"#utility.yul\":11209:11214   */\n      dup3\n        /* \"#utility.yul\":11205:11221   */\n      add\n        /* \"#utility.yul\":11199:11222   */\n      mload\n        /* \"#utility.yul\":11235:11298   */\n      tag_404\n        /* \"#utility.yul\":11292:11296   */\n      0x00\n        /* \"#utility.yul\":11287:11290   */\n      dup6\n        /* \"#utility.yul\":11283:11297   */\n      add\n        /* \"#utility.yul\":11269:11281   */\n      dup3\n        /* \"#utility.yul\":11235:11298   */\n      tag_405\n      jump\t// in\n    tag_404:\n        /* \"#utility.yul\":11135:11308   */\n      pop\n        /* \"#utility.yul\":11400:11404   */\n      0x20\n        /* \"#utility.yul\":11393:11398   */\n      dup3\n        /* \"#utility.yul\":11389:11405   */\n      add\n        /* \"#utility.yul\":11383:11406   */\n      mload\n        /* \"#utility.yul\":11419:11482   */\n      tag_406\n        /* \"#utility.yul\":11476:11480   */\n      0x20\n        /* \"#utility.yul\":11471:11474   */\n      dup6\n        /* \"#utility.yul\":11467:11481   */\n      add\n        /* \"#utility.yul\":11453:11465   */\n      dup3\n        /* \"#utility.yul\":11419:11482   */\n      tag_405\n      jump\t// in\n    tag_406:\n        /* \"#utility.yul\":11318:11492   */\n      pop\n        /* \"#utility.yul\":11585:11589   */\n      0x40\n        /* \"#utility.yul\":11578:11583   */\n      dup3\n        /* \"#utility.yul\":11574:11590   */\n      add\n        /* \"#utility.yul\":11568:11591   */\n      mload\n        /* \"#utility.yul\":11604:11667   */\n      tag_407\n        /* \"#utility.yul\":11661:11665   */\n      0x40\n        /* \"#utility.yul\":11656:11659   */\n      dup6\n        /* \"#utility.yul\":11652:11666   */\n      add\n        /* \"#utility.yul\":11638:11650   */\n      dup3\n        /* \"#utility.yul\":11604:11667   */\n      tag_312\n      jump\t// in\n    tag_407:\n        /* \"#utility.yul\":11502:11677   */\n      pop\n        /* \"#utility.yul\":11767:11771   */\n      0x60\n        /* \"#utility.yul\":11760:11765   */\n      dup3\n        /* \"#utility.yul\":11756:11772   */\n      add\n        /* \"#utility.yul\":11750:11773   */\n      mload\n        /* \"#utility.yul\":11786:11849   */\n      tag_408\n        /* \"#utility.yul\":11843:11847   */\n      0x60\n        /* \"#utility.yul\":11838:11841   */\n      dup6\n        /* \"#utility.yul\":11834:11848   */\n      add\n        /* \"#utility.yul\":11820:11832   */\n      dup3\n        /* \"#utility.yul\":11786:11849   */\n      tag_405\n      jump\t// in\n    tag_408:\n        /* \"#utility.yul\":11687:11859   */\n      pop\n        /* \"#utility.yul\":11955:11959   */\n      0x80\n        /* \"#utility.yul\":11948:11953   */\n      dup3\n        /* \"#utility.yul\":11944:11960   */\n      add\n        /* \"#utility.yul\":11938:11961   */\n      mload\n        /* \"#utility.yul\":11974:12037   */\n      tag_409\n        /* \"#utility.yul\":12031:12035   */\n      0x80\n        /* \"#utility.yul\":12026:12029   */\n      dup6\n        /* \"#utility.yul\":12022:12036   */\n      add\n        /* \"#utility.yul\":12008:12020   */\n      dup3\n        /* \"#utility.yul\":11974:12037   */\n      tag_405\n      jump\t// in\n    tag_409:\n        /* \"#utility.yul\":11869:12047   */\n      pop\n        /* \"#utility.yul\":11089:12054   */\n      pop\n        /* \"#utility.yul\":10949:12054   */\n      pop\n      pop\n      jump\t// out\n        /* \"#utility.yul\":12148:13704   */\n    tag_410:\n        /* \"#utility.yul\":12291:12294   */\n      0x00\n        /* \"#utility.yul\":12327:12331   */\n      0xe0\n        /* \"#utility.yul\":12322:12325   */\n      dup4\n        /* \"#utility.yul\":12318:12332   */\n      add\n        /* \"#utility.yul\":12422:12426   */\n      0x00\n        /* \"#utility.yul\":12415:12420   */\n      dup4\n        /* \"#utility.yul\":12411:12427   */\n      add\n        /* \"#utility.yul\":12405:12428   */\n      mload\n        /* \"#utility.yul\":12441:12504   */\n      tag_412\n        /* \"#utility.yul\":12498:12502   */\n      0x00\n        /* \"#utility.yul\":12493:12496   */\n      dup7\n        /* \"#utility.yul\":12489:12503   */\n      add\n        /* \"#utility.yul\":12475:12487   */\n      dup3\n        /* \"#utility.yul\":12441:12504   */\n      tag_405\n      jump\t// in\n    tag_412:\n        /* \"#utility.yul\":12342:12514   */\n      pop\n        /* \"#utility.yul\":12607:12611   */\n      0x20\n        /* \"#utility.yul\":12600:12605   */\n      dup4\n        /* \"#utility.yul\":12596:12612   */\n      add\n        /* \"#utility.yul\":12590:12613   */\n      mload\n        /* \"#utility.yul\":12626:12689   */\n      tag_413\n        /* \"#utility.yul\":12683:12687   */\n      0x20\n        /* \"#utility.yul\":12678:12681   */\n      dup7\n        /* \"#utility.yul\":12674:12688   */\n      add\n        /* \"#utility.yul\":12660:12672   */\n      dup3\n        /* \"#utility.yul\":12626:12689   */\n      tag_312\n      jump\t// in\n    tag_413:\n        /* \"#utility.yul\":12524:12699   */\n      pop\n        /* \"#utility.yul\":12784:12788   */\n      0x40\n        /* \"#utility.yul\":12777:12782   */\n      dup4\n        /* \"#utility.yul\":12773:12789   */\n      add\n        /* \"#utility.yul\":12767:12790   */\n      mload\n        /* \"#utility.yul\":12837:12840   */\n      dup5\n        /* \"#utility.yul\":12831:12835   */\n      dup3\n        /* \"#utility.yul\":12827:12841   */\n      sub\n        /* \"#utility.yul\":12820:12824   */\n      0x40\n        /* \"#utility.yul\":12815:12818   */\n      dup7\n        /* \"#utility.yul\":12811:12825   */\n      add\n        /* \"#utility.yul\":12804:12842   */\n      mstore\n        /* \"#utility.yul\":12863:12936   */\n      tag_414\n        /* \"#utility.yul\":12931:12935   */\n      dup3\n        /* \"#utility.yul\":12917:12929   */\n      dup3\n        /* \"#utility.yul\":12863:12936   */\n      tag_335\n      jump\t// in\n    tag_414:\n        /* \"#utility.yul\":12855:12936   */\n      swap2\n      pop\n        /* \"#utility.yul\":12709:12947   */\n      pop\n        /* \"#utility.yul\":13033:13037   */\n      0x60\n        /* \"#utility.yul\":13026:13031   */\n      dup4\n        /* \"#utility.yul\":13022:13038   */\n      add\n        /* \"#utility.yul\":13016:13039   */\n      mload\n        /* \"#utility.yul\":13052:13115   */\n      tag_415\n        /* \"#utility.yul\":13109:13113   */\n      0x60\n        /* \"#utility.yul\":13104:13107   */\n      dup7\n        /* \"#utility.yul\":13100:13114   */\n      add\n        /* \"#utility.yul\":13086:13098   */\n      dup3\n        /* \"#utility.yul\":13052:13115   */\n      tag_405\n      jump\t// in\n    tag_415:\n        /* \"#utility.yul\":12957:13125   */\n      pop\n        /* \"#utility.yul\":13220:13224   */\n      0x80\n        /* \"#utility.yul\":13213:13218   */\n      dup4\n        /* \"#utility.yul\":13209:13225   */\n      add\n        /* \"#utility.yul\":13203:13226   */\n      mload\n        /* \"#utility.yul\":13239:13302   */\n      tag_416\n        /* \"#utility.yul\":13296:13300   */\n      0x80\n        /* \"#utility.yul\":13291:13294   */\n      dup7\n        /* \"#utility.yul\":13287:13301   */\n      add\n        /* \"#utility.yul\":13273:13285   */\n      dup3\n        /* \"#utility.yul\":13239:13302   */\n      tag_405\n      jump\t// in\n    tag_416:\n        /* \"#utility.yul\":13135:13312   */\n      pop\n        /* \"#utility.yul\":13403:13407   */\n      0xa0\n        /* \"#utility.yul\":13396:13401   */\n      dup4\n        /* \"#utility.yul\":13392:13408   */\n      add\n        /* \"#utility.yul\":13386:13409   */\n      mload\n        /* \"#utility.yul\":13422:13485   */\n      tag_417\n        /* \"#utility.yul\":13479:13483   */\n      0xa0\n        /* \"#utility.yul\":13474:13477   */\n      dup7\n        /* \"#utility.yul\":13470:13484   */\n      add\n        /* \"#utility.yul\":13456:13468   */\n      dup3\n        /* \"#utility.yul\":13422:13485   */\n      tag_405\n      jump\t// in\n    tag_417:\n        /* \"#utility.yul\":13322:13495   */\n      pop\n        /* \"#utility.yul\":13587:13591   */\n      0xc0\n        /* \"#utility.yul\":13580:13585   */\n      dup4\n        /* \"#utility.yul\":13576:13592   */\n      add\n        /* \"#utility.yul\":13570:13593   */\n      mload\n        /* \"#utility.yul\":13606:13667   */\n      tag_418\n        /* \"#utility.yul\":13661:13665   */\n      0xc0\n        /* \"#utility.yul\":13656:13659   */\n      dup7\n        /* \"#utility.yul\":13652:13666   */\n      add\n        /* \"#utility.yul\":13638:13650   */\n      dup3\n        /* \"#utility.yul\":13606:13667   */\n      tag_323\n      jump\t// in\n    tag_418:\n        /* \"#utility.yul\":13505:13677   */\n      pop\n        /* \"#utility.yul\":13694:13698   */\n      dup1\n        /* \"#utility.yul\":13687:13698   */\n      swap2\n      pop\n        /* \"#utility.yul\":12296:13704   */\n      pop\n        /* \"#utility.yul\":12148:13704   */\n      swap3\n      swap2\n      pop\n      pop\n      jump\t// out\n        /* \"#utility.yul\":13802:15359   */\n    tag_419:\n        /* \"#utility.yul\":13949:13952   */\n      0x00\n        /* \"#utility.yul\":13985:13989   */\n      0xe0\n        /* \"#utility.yul\":13980:13983   */\n      dup4\n        /* \"#utility.yul\":13976:13990   */\n      add\n        /* \"#utility.yul\":14082:14086   */\n      0x00\n        /* \"#utility.yul\":14075:14080   */\n      dup4\n        /* \"#utility.yul\":14071:14087   */\n      add\n        /* \"#utility.yul\":14065:14088   */\n      mload\n        /* \"#utility.yul\":14101:14164   */\n      tag_421\n        /* \"#utility.yul\":14158:14162   */\n      0x00\n        /* \"#utility.yul\":14153:14156   */\n      dup7\n        /* \"#utility.yul\":14149:14163   */\n      add\n        /* \"#utility.yul\":14135:14147   */\n      dup3\n        /* \"#utility.yul\":14101:14164   */\n      tag_405\n      jump\t// in\n    tag_421:\n        /* \"#utility.yul\":14000:14174   */\n      pop\n        /* \"#utility.yul\":14264:14268   */\n      0x20\n        /* \"#utility.yul\":14257:14262   */\n      dup4\n        /* \"#utility.yul\":14253:14269   */\n      add\n        /* \"#utility.yul\":14247:14270   */\n      mload\n        /* \"#utility.yul\":14283:14346   */\n      tag_422\n        /* \"#utility.yul\":14340:14344   */\n      0x20\n        /* \"#utility.yul\":14335:14338   */\n      dup7\n        /* \"#utility.yul\":14331:14345   */\n      add\n        /* \"#utility.yul\":14317:14329   */\n      dup3\n        /* \"#utility.yul\":14283:14346   */\n      tag_405\n      jump\t// in\n    tag_422:\n        /* \"#utility.yul\":14184:14356   */\n      pop\n        /* \"#utility.yul\":14449:14453   */\n      0x40\n        /* \"#utility.yul\":14442:14447   */\n      dup4\n        /* \"#utility.yul\":14438:14454   */\n      add\n        /* \"#utility.yul\":14432:14455   */\n      mload\n        /* \"#utility.yul\":14468:14531   */\n      tag_423\n        /* \"#utility.yul\":14525:14529   */\n      0x40\n        /* \"#utility.yul\":14520:14523   */\n      dup7\n        /* \"#utility.yul\":14516:14530   */\n      add\n        /* \"#utility.yul\":14502:14514   */\n      dup3\n        /* \"#utility.yul\":14468:14531   */\n      tag_312\n      jump\t// in\n    tag_423:\n        /* \"#utility.yul\":14366:14541   */\n      pop\n        /* \"#utility.yul\":14626:14630   */\n      0x60\n        /* \"#utility.yul\":14619:14624   */\n      dup4\n        /* \"#utility.yul\":14615:14631   */\n      add\n        /* \"#utility.yul\":14609:14632   */\n      mload\n        /* \"#utility.yul\":14679:14682   */\n      dup5\n        /* \"#utility.yul\":14673:14677   */\n      dup3\n        /* \"#utility.yul\":14669:14683   */\n      sub\n        /* \"#utility.yul\":14662:14666   */\n      0x60\n        /* \"#utility.yul\":14657:14660   */\n      dup7\n        /* \"#utility.yul\":14653:14667   */\n      add\n        /* \"#utility.yul\":14646:14684   */\n      mstore\n        /* \"#utility.yul\":14705:14778   */\n      tag_424\n        /* \"#utility.yul\":14773:14777   */\n      dup3\n        /* \"#utility.yul\":14759:14771   */\n      dup3\n        /* \"#utility.yul\":14705:14778   */\n      tag_335\n      jump\t// in\n    tag_424:\n        /* \"#utility.yul\":14697:14778   */\n      swap2\n      pop\n        /* \"#utility.yul\":14551:14789   */\n      pop\n        /* \"#utility.yul\":14882:14886   */\n      0x80\n        /* \"#utility.yul\":14875:14880   */\n      dup4\n        /* \"#utility.yul\":14871:14887   */\n      add\n        /* \"#utility.yul\":14865:14888   */\n      mload\n        /* \"#utility.yul\":14901:14964   */\n      tag_425\n        /* \"#utility.yul\":14958:14962   */\n      0x80\n        /* \"#utility.yul\":14953:14956   */\n      dup7\n        /* \"#utility.yul\":14949:14963   */\n      add\n        /* \"#utility.yul\":14935:14947   */\n      dup3\n        /* \"#utility.yul\":14901:14964   */\n      tag_405\n      jump\t// in\n    tag_425:\n        /* \"#utility.yul\":14799:14974   */\n      pop\n        /* \"#utility.yul\":15059:15063   */\n      0xa0\n        /* \"#utility.yul\":15052:15057   */\n      dup4\n        /* \"#utility.yul\":15048:15064   */\n      add\n        /* \"#utility.yul\":15042:15065   */\n      mload\n        /* \"#utility.yul\":15078:15141   */\n      tag_426\n        /* \"#utility.yul\":15135:15139   */\n      0xa0\n        /* \"#utility.yul\":15130:15133   */\n      dup7\n        /* \"#utility.yul\":15126:15140   */\n      add\n        /* \"#utility.yul\":15112:15124   */\n      dup3\n        /* \"#utility.yul\":15078:15141   */\n      tag_405\n      jump\t// in\n    tag_426:\n        /* \"#utility.yul\":14984:15151   */\n      pop\n        /* \"#utility.yul\":15242:15246   */\n      0xc0\n        /* \"#utility.yul\":15235:15240   */\n      dup4\n        /* \"#utility.yul\":15231:15247   */\n      add\n        /* \"#utility.yul\":15225:15248   */\n      mload\n        /* \"#utility.yul\":15261:15322   */\n      tag_427\n        /* \"#utility.yul\":15316:15320   */\n      0xc0\n        /* \"#utility.yul\":15311:15314   */\n      dup7\n        /* \"#utility.yul\":15307:15321   */\n      add\n        /* \"#utility.yul\":15293:15305   */\n      dup3\n        /* \"#utility.yul\":15261:15322   */\n      tag_323\n      jump\t// in\n    tag_427:\n        /* \"#utility.yul\":15161:15332   */\n      pop\n        /* \"#utility.yul\":15349:15353   */\n      dup1\n        /* \"#utility.yul\":15342:15353   */\n      swap2\n      pop\n        /* \"#utility.yul\":13954:15359   */\n      pop\n        /* \"#utility.yul\":13802:15359   */\n      swap3\n      swap2\n      pop\n      pop\n      jump\t// out\n        /* \"#utility.yul\":15365:15473   */\n    tag_405:\n        /* \"#utility.yul\":15442:15466   */\n      tag_429\n        /* \"#utility.yul\":15460:15465   */\n      dup2\n        /* \"#utility.yul\":15442:15466   */\n      tag_430\n      jump\t// in\n    tag_429:\n        /* \"#utility.yul\":15437:15440   */\n      dup3\n        /* \"#utility.yul\":15430:15467   */\n      mstore\n        /* \"#utility.yul\":15365:15473   */\n      pop\n      pop\n      jump\t// out\n        /* \"#utility.yul\":15479:15597   */\n    tag_431:\n        /* \"#utility.yul\":15566:15590   */\n      tag_433\n        /* \"#utility.yul\":15584:15589   */\n      dup2\n        /* \"#utility.yul\":15566:15590   */\n      tag_430\n      jump\t// in\n    tag_433:\n        /* \"#utility.yul\":15561:15564   */\n      dup3\n        /* \"#utility.yul\":15554:15591   */\n      mstore\n        /* \"#utility.yul\":15479:15597   */\n      pop\n      pop\n      jump\t// out\n        /* \"#utility.yul\":15603:15898   */\n    tag_189:\n        /* \"#utility.yul\":15745:15748   */\n      0x00\n        /* \"#utility.yul\":15767:15872   */\n      tag_435\n        /* \"#utility.yul\":15868:15871   */\n      dup3\n        /* \"#utility.yul\":15859:15865   */\n      dup5\n        /* \"#utility.yul\":15851:15857   */\n      dup7\n        /* \"#utility.yul\":15767:15872   */\n      tag_330\n      jump\t// in\n    tag_435:\n        /* \"#utility.yul\":15760:15872   */\n      swap2\n      pop\n        /* \"#utility.yul\":15889:15892   */\n      dup2\n        /* \"#utility.yul\":15882:15892   */\n      swap1\n      pop\n        /* \"#utility.yul\":15603:15898   */\n      swap4\n      swap3\n      pop\n      pop\n      pop\n      jump\t// out\n        /* \"#utility.yul\":15904:16179   */\n    tag_135:\n        /* \"#utility.yul\":16036:16039   */\n      0x00\n        /* \"#utility.yul\":16058:16153   */\n      tag_437\n        /* \"#utility.yul\":16149:16152   */\n      dup3\n        /* \"#utility.yul\":16140:16146   */\n      dup5\n        /* \"#utility.yul\":16058:16153   */\n      tag_352\n      jump\t// in\n    tag_437:\n        /* \"#utility.yul\":16051:16153   */\n      swap2\n      pop\n        /* \"#utility.yul\":16170:16173   */\n      dup2\n        /* \"#utility.yul\":16163:16173   */\n      swap1\n      pop\n        /* \"#utility.yul\":15904:16179   */\n      swap3\n      swap2\n      pop\n      pop\n      jump\t// out\n        /* \"#utility.yul\":16185:16407   */\n    tag_106:\n        /* \"#utility.yul\":16278:16282   */\n      0x00\n        /* \"#utility.yul\":16316:16318   */\n      0x20\n        /* \"#utility.yul\":16305:16314   */\n      dup3\n        /* \"#utility.yul\":16301:16319   */\n      add\n        /* \"#utility.yul\":16293:16319   */\n      swap1\n      pop\n        /* \"#utility.yul\":16329:16400   */\n      tag_439\n        /* \"#utility.yul\":16397:16398   */\n      0x00\n        /* \"#utility.yul\":16386:16395   */\n      dup4\n        /* \"#utility.yul\":16382:16399   */\n      add\n        /* \"#utility.yul\":16373:16379   */\n      dup5\n        /* \"#utility.yul\":16329:16400   */\n      tag_316\n      jump\t// in\n    tag_439:\n        /* \"#utility.yul\":16185:16407   */\n      swap3\n      swap2\n      pop\n      pop\n      jump\t// out\n        /* \"#utility.yul\":16413:16623   */\n    tag_79:\n        /* \"#utility.yul\":16500:16504   */\n      0x00\n        /* \"#utility.yul\":16538:16540   */\n      0x20\n        /* \"#utility.yul\":16527:16536   */\n      dup3\n        /* \"#utility.yul\":16523:16541   */\n      add\n        /* \"#utility.yul\":16515:16541   */\n      swap1\n      pop\n        /* \"#utility.yul\":16551:16616   */\n      tag_441\n        /* \"#utility.yul\":16613:16614   */\n      0x00\n        /* \"#utility.yul\":16602:16611   */\n      dup4\n        /* \"#utility.yul\":16598:16615   */\n      add\n        /* \"#utility.yul\":16589:16595   */\n      dup5\n        /* \"#utility.yul\":16551:16616   */\n      tag_319\n      jump\t// in\n    tag_441:\n        /* \"#utility.yul\":16413:16623   */\n      swap3\n      swap2\n      pop\n      pop\n      jump\t// out\n        /* \"#utility.yul\":16629:17162   */\n    tag_39:\n        /* \"#utility.yul\":16798:16802   */\n      0x00\n        /* \"#utility.yul\":16836:16838   */\n      0x60\n        /* \"#utility.yul\":16825:16834   */\n      dup3\n        /* \"#utility.yul\":16821:16839   */\n      add\n        /* \"#utility.yul\":16813:16839   */\n      swap1\n      pop\n        /* \"#utility.yul\":16885:16894   */\n      dup2\n        /* \"#utility.yul\":16879:16883   */\n      dup2\n        /* \"#utility.yul\":16875:16895   */\n      sub\n        /* \"#utility.yul\":16871:16872   */\n      0x00\n        /* \"#utility.yul\":16860:16869   */\n      dup4\n        /* \"#utility.yul\":16856:16873   */\n      add\n        /* \"#utility.yul\":16849:16896   */\n      mstore\n        /* \"#utility.yul\":16913:16991   */\n      tag_443\n        /* \"#utility.yul\":16986:16990   */\n      dup2\n        /* \"#utility.yul\":16977:16983   */\n      dup7\n        /* \"#utility.yul\":16913:16991   */\n      tag_345\n      jump\t// in\n    tag_443:\n        /* \"#utility.yul\":16905:16991   */\n      swap1\n      pop\n        /* \"#utility.yul\":17001:17073   */\n      tag_444\n        /* \"#utility.yul\":17069:17071   */\n      0x20\n        /* \"#utility.yul\":17058:17067   */\n      dup4\n        /* \"#utility.yul\":17054:17072   */\n      add\n        /* \"#utility.yul\":17045:17051   */\n      dup6\n        /* \"#utility.yul\":17001:17073   */\n      tag_431\n      jump\t// in\n    tag_444:\n        /* \"#utility.yul\":17083:17155   */\n      tag_445\n        /* \"#utility.yul\":17151:17153   */\n      0x40\n        /* \"#utility.yul\":17140:17149   */\n      dup4\n        /* \"#utility.yul\":17136:17154   */\n      add\n        /* \"#utility.yul\":17127:17133   */\n      dup5\n        /* \"#utility.yul\":17083:17155   */\n      tag_431\n      jump\t// in\n    tag_445:\n        /* \"#utility.yul\":16629:17162   */\n      swap5\n      swap4\n      pop\n      pop\n      pop\n      pop\n      jump\t// out\n        /* \"#utility.yul\":17168:17587   */\n    tag_116:\n        /* \"#utility.yul\":17334:17338   */\n      0x00\n        /* \"#utility.yul\":17372:17374   */\n      0x20\n        /* \"#utility.yul\":17361:17370   */\n      dup3\n        /* \"#utility.yul\":17357:17375   */\n      add\n        /* \"#utility.yul\":17349:17375   */\n      swap1\n      pop\n        /* \"#utility.yul\":17421:17430   */\n      dup2\n        /* \"#utility.yul\":17415:17419   */\n      dup2\n        /* \"#utility.yul\":17411:17431   */\n      sub\n        /* \"#utility.yul\":17407:17408   */\n      0x00\n        /* \"#utility.yul\":17396:17405   */\n      dup4\n        /* \"#utility.yul\":17392:17409   */\n      add\n        /* \"#utility.yul\":17385:17432   */\n      mstore\n        /* \"#utility.yul\":17449:17580   */\n      tag_447\n        /* \"#utility.yul\":17575:17579   */\n      dup2\n        /* \"#utility.yul\":17449:17580   */\n      tag_357\n      jump\t// in\n    tag_447:\n        /* \"#utility.yul\":17441:17580   */\n      swap1\n      pop\n        /* \"#utility.yul\":17168:17587   */\n      swap2\n      swap1\n      pop\n      jump\t// out\n        /* \"#utility.yul\":17593:18012   */\n    tag_176:\n        /* \"#utility.yul\":17759:17763   */\n      0x00\n        /* \"#utility.yul\":17797:17799   */\n      0x20\n        /* \"#utility.yul\":17786:17795   */\n      dup3\n        /* \"#utility.yul\":17782:17800   */\n      add\n        /* \"#utility.yul\":17774:17800   */\n      swap1\n      pop\n        /* \"#utility.yul\":17846:17855   */\n      dup2\n        /* \"#utility.yul\":17840:17844   */\n      dup2\n        /* \"#utility.yul\":17836:17856   */\n      sub\n        /* \"#utility.yul\":17832:17833   */\n      0x00\n        /* \"#utility.yul\":17821:17830   */\n      dup4\n        /* \"#utility.yul\":17817:17834   */\n      add\n        /* \"#utility.yul\":17810:17857   */\n      mstore\n        /* \"#utility.yul\":17874:18005   */\n      tag_449\n        /* \"#utility.yul\":18000:18004   */\n      dup2\n        /* \"#utility.yul\":17874:18005   */\n      tag_362\n      jump\t// in\n    tag_449:\n        /* \"#utility.yul\":17866:18005   */\n      swap1\n      pop\n        /* \"#utility.yul\":17593:18012   */\n      swap2\n      swap1\n      pop\n      jump\t// out\n        /* \"#utility.yul\":18018:18437   */\n    tag_192:\n        /* \"#utility.yul\":18184:18188   */\n      0x00\n        /* \"#utility.yul\":18222:18224   */\n      0x20\n        /* \"#utility.yul\":18211:18220   */\n      dup3\n        /* \"#utility.yul\":18207:18225   */\n      add\n        /* \"#utility.yul\":18199:18225   */\n      swap1\n      pop\n        /* \"#utility.yul\":18271:18280   */\n      dup2\n        /* \"#utility.yul\":18265:18269   */\n      dup2\n        /* \"#utility.yul\":18261:18281   */\n      sub\n        /* \"#utility.yul\":18257:18258   */\n      0x00\n        /* \"#utility.yul\":18246:18255   */\n      dup4\n        /* \"#utility.yul\":18242:18259   */\n      add\n        /* \"#utility.yul\":18235:18282   */\n      mstore\n        /* \"#utility.yul\":18299:18430   */\n      tag_451\n        /* \"#utility.yul\":18425:18429   */\n      dup2\n        /* \"#utility.yul\":18299:18430   */\n      tag_367\n      jump\t// in\n    tag_451:\n        /* \"#utility.yul\":18291:18430   */\n      swap1\n      pop\n        /* \"#utility.yul\":18018:18437   */\n      swap2\n      swap1\n      pop\n      jump\t// out\n        /* \"#utility.yul\":18443:18862   */\n    tag_127:\n        /* \"#utility.yul\":18609:18613   */\n      0x00\n        /* \"#utility.yul\":18647:18649   */\n      0x20\n        /* \"#utility.yul\":18636:18645   */\n      dup3\n        /* \"#utility.yul\":18632:18650   */\n      add\n        /* \"#utility.yul\":18624:18650   */\n      swap1\n      pop\n        /* \"#utility.yul\":18696:18705   */\n      dup2\n        /* \"#utility.yul\":18690:18694   */\n      dup2\n        /* \"#utility.yul\":18686:18706   */\n      sub\n        /* \"#utility.yul\":18682:18683   */\n      0x00\n        /* \"#utility.yul\":18671:18680   */\n      dup4\n        /* \"#utility.yul\":18667:18684   */\n      add\n        /* \"#utility.yul\":18660:18707   */\n      mstore\n        /* \"#utility.yul\":18724:18855   */\n      tag_453\n        /* \"#utility.yul\":18850:18854   */\n      dup2\n        /* \"#utility.yul\":18724:18855   */\n      tag_372\n      jump\t// in\n    tag_453:\n        /* \"#utility.yul\":18716:18855   */\n      swap1\n      pop\n        /* \"#utility.yul\":18443:18862   */\n      swap2\n      swap1\n      pop\n      jump\t// out\n        /* \"#utility.yul\":18868:19287   */\n    tag_121:\n        /* \"#utility.yul\":19034:19038   */\n      0x00\n        /* \"#utility.yul\":19072:19074   */\n      0x20\n        /* \"#utility.yul\":19061:19070   */\n      dup3\n        /* \"#utility.yul\":19057:19075   */\n      add\n        /* \"#utility.yul\":19049:19075   */\n      swap1\n      pop\n        /* \"#utility.yul\":19121:19130   */\n      dup2\n        /* \"#utility.yul\":19115:19119   */\n      dup2\n        /* \"#utility.yul\":19111:19131   */\n      sub\n        /* \"#utility.yul\":19107:19108   */\n      0x00\n        /* \"#utility.yul\":19096:19105   */\n      dup4\n        /* \"#utility.yul\":19092:19109   */\n      add\n        /* \"#utility.yul\":19085:19132   */\n      mstore\n        /* \"#utility.yul\":19149:19280   */\n      tag_455\n        /* \"#utility.yul\":19275:19279   */\n      dup2\n        /* \"#utility.yul\":19149:19280   */\n      tag_377\n      jump\t// in\n    tag_455:\n        /* \"#utility.yul\":19141:19280   */\n      swap1\n      pop\n        /* \"#utility.yul\":18868:19287   */\n      swap2\n      swap1\n      pop\n      jump\t// out\n        /* \"#utility.yul\":19293:19712   */\n    tag_199:\n        /* \"#utility.yul\":19459:19463   */\n      0x00\n        /* \"#utility.yul\":19497:19499   */\n      0x20\n        /* \"#utility.yul\":19486:19495   */\n      dup3\n        /* \"#utility.yul\":19482:19500   */\n      add\n        /* \"#utility.yul\":19474:19500   */\n      swap1\n      pop\n        /* \"#utility.yul\":19546:19555   */\n      dup2\n        /* \"#utility.yul\":19540:19544   */\n      dup2\n        /* \"#utility.yul\":19536:19556   */\n      sub\n        /* \"#utility.yul\":19532:19533   */\n      0x00\n        /* \"#utility.yul\":19521:19530   */\n      dup4\n        /* \"#utility.yul\":19517:19534   */\n      add\n        /* \"#utility.yul\":19510:19557   */\n      mstore\n        /* \"#utility.yul\":19574:19705   */\n      tag_457\n        /* \"#utility.yul\":19700:19704   */\n      dup2\n        /* \"#utility.yul\":19574:19705   */\n      tag_382\n      jump\t// in\n    tag_457:\n        /* \"#utility.yul\":19566:19705   */\n      swap1\n      pop\n        /* \"#utility.yul\":19293:19712   */\n      swap2\n      swap1\n      pop\n      jump\t// out\n        /* \"#utility.yul\":19718:20137   */\n    tag_173:\n        /* \"#utility.yul\":19884:19888   */\n      0x00\n        /* \"#utility.yul\":19922:19924   */\n      0x20\n        /* \"#utility.yul\":19911:19920   */\n      dup3\n        /* \"#utility.yul\":19907:19925   */\n      add\n        /* \"#utility.yul\":19899:19925   */\n      swap1\n      pop\n        /* \"#utility.yul\":19971:19980   */\n      dup2\n        /* \"#utility.yul\":19965:19969   */\n      dup2\n        /* \"#utility.yul\":19961:19981   */\n      sub\n        /* \"#utility.yul\":19957:19958   */\n      0x00\n        /* \"#utility.yul\":19946:19955   */\n      dup4\n        /* \"#utility.yul\":19942:19959   */\n      add\n        /* \"#utility.yul\":19935:19982   */\n      mstore\n        /* \"#utility.yul\":19999:20130   */\n      tag_459\n        /* \"#utility.yul\":20125:20129   */\n      dup2\n        /* \"#utility.yul\":19999:20130   */\n      tag_387\n      jump\t// in\n    tag_459:\n        /* \"#utility.yul\":19991:20130   */\n      swap1\n      pop\n        /* \"#utility.yul\":19718:20137   */\n      swap2\n      swap1\n      pop\n      jump\t// out\n        /* \"#utility.yul\":20143:20562   */\n    tag_168:\n        /* \"#utility.yul\":20309:20313   */\n      0x00\n        /* \"#utility.yul\":20347:20349   */\n      0x20\n        /* \"#utility.yul\":20336:20345   */\n      dup3\n        /* \"#utility.yul\":20332:20350   */\n      add\n        /* \"#utility.yul\":20324:20350   */\n      swap1\n      pop\n        /* \"#utility.yul\":20396:20405   */\n      dup2\n        /* \"#utility.yul\":20390:20394   */\n      dup2\n        /* \"#utility.yul\":20386:20406   */\n      sub\n        /* \"#utility.yul\":20382:20383   */\n      0x00\n        /* \"#utility.yul\":20371:20380   */\n      dup4\n        /* \"#utility.yul\":20367:20384   */\n      add\n        /* \"#utility.yul\":20360:20407   */\n      mstore\n        /* \"#utility.yul\":20424:20555   */\n      tag_461\n        /* \"#utility.yul\":20550:20554   */\n      dup2\n        /* \"#utility.yul\":20424:20555   */\n      tag_392\n      jump\t// in\n    tag_461:\n        /* \"#utility.yul\":20416:20555   */\n      swap1\n      pop\n        /* \"#utility.yul\":20143:20562   */\n      swap2\n      swap1\n      pop\n      jump\t// out\n        /* \"#utility.yul\":20568:20987   */\n    tag_124:\n        /* \"#utility.yul\":20734:20738   */\n      0x00\n        /* \"#utility.yul\":20772:20774   */\n      0x20\n        /* \"#utility.yul\":20761:20770   */\n      dup3\n        /* \"#utility.yul\":20757:20775   */\n      add\n        /* \"#utility.yul\":20749:20775   */\n      swap1\n      pop\n        /* \"#utility.yul\":20821:20830   */\n      dup2\n        /* \"#utility.yul\":20815:20819   */\n      dup2\n        /* \"#utility.yul\":20811:20831   */\n      sub\n        /* \"#utility.yul\":20807:20808   */\n      0x00\n        /* \"#utility.yul\":20796:20805   */\n      dup4\n        /* \"#utility.yul\":20792:20809   */\n      add\n        /* \"#utility.yul\":20785:20832   */\n      mstore\n        /* \"#utility.yul\":20849:20980   */\n      tag_463\n        /* \"#utility.yul\":20975:20979   */\n      dup2\n        /* \"#utility.yul\":20849:20980   */\n      tag_397\n      jump\t// in\n    tag_463:\n        /* \"#utility.yul\":20841:20980   */\n      swap1\n      pop\n        /* \"#utility.yul\":20568:20987   */\n      swap2\n      swap1\n      pop\n      jump\t// out\n        /* \"#utility.yul\":20993:21364   */\n    tag_57:\n        /* \"#utility.yul\":21160:21164   */\n      0x00\n        /* \"#utility.yul\":21198:21201   */\n      0xa0\n        /* \"#utility.yul\":21187:21196   */\n      dup3\n        /* \"#utility.yul\":21183:21202   */\n      add\n        /* \"#utility.yul\":21175:21202   */\n      swap1\n      pop\n        /* \"#utility.yul\":21212:21357   */\n      tag_465\n        /* \"#utility.yul\":21354:21355   */\n      0x00\n        /* \"#utility.yul\":21343:21352   */\n      dup4\n        /* \"#utility.yul\":21339:21356   */\n      add\n        /* \"#utility.yul\":21330:21336   */\n      dup5\n        /* \"#utility.yul\":21212:21357   */\n      tag_402\n      jump\t// in\n    tag_465:\n        /* \"#utility.yul\":20993:21364   */\n      swap3\n      swap2\n      pop\n      pop\n      jump\t// out\n        /* \"#utility.yul\":21370:21791   */\n    tag_72:\n        /* \"#utility.yul\":21537:21541   */\n      0x00\n        /* \"#utility.yul\":21575:21577   */\n      0x20\n        /* \"#utility.yul\":21564:21573   */\n      dup3\n        /* \"#utility.yul\":21560:21578   */\n      add\n        /* \"#utility.yul\":21552:21578   */\n      swap1\n      pop\n        /* \"#utility.yul\":21624:21633   */\n      dup2\n        /* \"#utility.yul\":21618:21622   */\n      dup2\n        /* \"#utility.yul\":21614:21634   */\n      sub\n        /* \"#utility.yul\":21610:21611   */\n      0x00\n        /* \"#utility.yul\":21599:21608   */\n      dup4\n        /* \"#utility.yul\":21595:21612   */\n      add\n        /* \"#utility.yul\":21588:21635   */\n      mstore\n        /* \"#utility.yul\":21652:21784   */\n      tag_467\n        /* \"#utility.yul\":21779:21783   */\n      dup2\n        /* \"#utility.yul\":21770:21776   */\n      dup5\n        /* \"#utility.yul\":21652:21784   */\n      tag_410\n      jump\t// in\n    tag_467:\n        /* \"#utility.yul\":21644:21784   */\n      swap1\n      pop\n        /* \"#utility.yul\":21370:21791   */\n      swap3\n      swap2\n      pop\n      pop\n      jump\t// out\n        /* \"#utility.yul\":21797:22226   */\n    tag_32:\n        /* \"#utility.yul\":21968:21972   */\n      0x00\n        /* \"#utility.yul\":22006:22008   */\n      0x20\n        /* \"#utility.yul\":21995:22004   */\n      dup3\n        /* \"#utility.yul\":21991:22009   */\n      add\n        /* \"#utility.yul\":21983:22009   */\n      swap1\n      pop\n        /* \"#utility.yul\":22055:22064   */\n      dup2\n        /* \"#utility.yul\":22049:22053   */\n      dup2\n        /* \"#utility.yul\":22045:22065   */\n      sub\n        /* \"#utility.yul\":22041:22042   */\n      0x00\n        /* \"#utility.yul\":22030:22039   */\n      dup4\n        /* \"#utility.yul\":22026:22043   */\n      add\n        /* \"#utility.yul\":22019:22066   */\n      mstore\n        /* \"#utility.yul\":22083:22219   */\n      tag_469\n        /* \"#utility.yul\":22214:22218   */\n      dup2\n        /* \"#utility.yul\":22205:22211   */\n      dup5\n        /* \"#utility.yul\":22083:22219   */\n      tag_419\n      jump\t// in\n    tag_469:\n        /* \"#utility.yul\":22075:22219   */\n      swap1\n      pop\n        /* \"#utility.yul\":21797:22226   */\n      swap3\n      swap2\n      pop\n      pop\n      jump\t// out\n        /* \"#utility.yul\":22232:22454   */\n    tag_25:\n        /* \"#utility.yul\":22325:22329   */\n      0x00\n        /* \"#utility.yul\":22363:22365   */\n      0x20\n        /* \"#utility.yul\":22352:22361   */\n      dup3\n        /* \"#utility.yul\":22348:22366   */\n      add\n        /* \"#utility.yul\":22340:22366   */\n      swap1\n      pop\n        /* \"#utility.yul\":22376:22447   */\n      tag_471\n        /* \"#utility.yul\":22444:22445   */\n      0x00\n        /* \"#utility.yul\":22433:22442   */\n      dup4\n        /* \"#utility.yul\":22429:22446   */\n      add\n        /* \"#utility.yul\":22420:22426   */\n      dup5\n        /* \"#utility.yul\":22376:22447   */\n      tag_431\n      jump\t// in\n    tag_471:\n        /* \"#utility.yul\":22232:22454   */\n      swap3\n      swap2\n      pop\n      pop\n      jump\t// out\n        /* \"#utility.yul\":22460:23433   */\n    tag_101:\n        /* \"#utility.yul\":22739:22743   */\n      0x00\n        /* \"#utility.yul\":22777:22780   */\n      0xe0\n        /* \"#utility.yul\":22766:22775   */\n      dup3\n        /* \"#utility.yul\":22762:22781   */\n      add\n        /* \"#utility.yul\":22754:22781   */\n      swap1\n      pop\n        /* \"#utility.yul\":22791:22862   */\n      tag_473\n        /* \"#utility.yul\":22859:22860   */\n      0x00\n        /* \"#utility.yul\":22848:22857   */\n      dup4\n        /* \"#utility.yul\":22844:22861   */\n      add\n        /* \"#utility.yul\":22835:22841   */\n      dup11\n        /* \"#utility.yul\":22791:22862   */\n      tag_431\n      jump\t// in\n    tag_473:\n        /* \"#utility.yul\":22872:22944   */\n      tag_474\n        /* \"#utility.yul\":22940:22942   */\n      0x20\n        /* \"#utility.yul\":22929:22938   */\n      dup4\n        /* \"#utility.yul\":22925:22943   */\n      add\n        /* \"#utility.yul\":22916:22922   */\n      dup10\n        /* \"#utility.yul\":22872:22944   */\n      tag_316\n      jump\t// in\n    tag_474:\n        /* \"#utility.yul\":22991:23000   */\n      dup2\n        /* \"#utility.yul\":22985:22989   */\n      dup2\n        /* \"#utility.yul\":22981:23001   */\n      sub\n        /* \"#utility.yul\":22976:22978   */\n      0x40\n        /* \"#utility.yul\":22965:22974   */\n      dup4\n        /* \"#utility.yul\":22961:22979   */\n      add\n        /* \"#utility.yul\":22954:23002   */\n      mstore\n        /* \"#utility.yul\":23019:23097   */\n      tag_475\n        /* \"#utility.yul\":23092:23096   */\n      dup2\n        /* \"#utility.yul\":23083:23089   */\n      dup9\n        /* \"#utility.yul\":23019:23097   */\n      tag_345\n      jump\t// in\n    tag_475:\n        /* \"#utility.yul\":23011:23097   */\n      swap1\n      pop\n        /* \"#utility.yul\":23107:23179   */\n      tag_476\n        /* \"#utility.yul\":23175:23177   */\n      0x60\n        /* \"#utility.yul\":23164:23173   */\n      dup4\n        /* \"#utility.yul\":23160:23178   */\n      add\n        /* \"#utility.yul\":23151:23157   */\n      dup8\n        /* \"#utility.yul\":23107:23179   */\n      tag_431\n      jump\t// in\n    tag_476:\n        /* \"#utility.yul\":23189:23262   */\n      tag_477\n        /* \"#utility.yul\":23257:23260   */\n      0x80\n        /* \"#utility.yul\":23246:23255   */\n      dup4\n        /* \"#utility.yul\":23242:23261   */\n      add\n        /* \"#utility.yul\":23233:23239   */\n      dup7\n        /* \"#utility.yul\":23189:23262   */\n      tag_431\n      jump\t// in\n    tag_477:\n        /* \"#utility.yul\":23272:23345   */\n      tag_478\n        /* \"#utility.yul\":23340:23343   */\n      0xa0\n        /* \"#utility.yul\":23329:23338   */\n      dup4\n        /* \"#utility.yul\":23325:23344   */\n      add\n        /* \"#utility.yul\":23316:23322   */\n      dup6\n        /* \"#utility.yul\":23272:23345   */\n      tag_431\n      jump\t// in\n    tag_478:\n        /* \"#utility.yul\":23355:23426   */\n      tag_479\n        /* \"#utility.yul\":23421:23424   */\n      0xc0\n        /* \"#utility.yul\":23410:23419   */\n      dup4\n        /* \"#utility.yul\":23406:23425   */\n      add\n        /* \"#utility.yul\":23397:23403   */\n      dup5\n        /* \"#utility.yul\":23355:23426   */\n      tag_327\n      jump\t// in\n    tag_479:\n        /* \"#utility.yul\":22460:23433   */\n      swap9\n      swap8\n      pop\n      pop\n      pop\n      pop\n      pop\n      pop\n      pop\n      pop\n      jump\t// out\n        /* \"#utility.yul\":23439:24412   */\n    tag_51:\n        /* \"#utility.yul\":23718:23722   */\n      0x00\n        /* \"#utility.yul\":23756:23759   */\n      0xe0\n        /* \"#utility.yul\":23745:23754   */\n      dup3\n        /* \"#utility.yul\":23741:23760   */\n      add\n        /* \"#utility.yul\":23733:23760   */\n      swap1\n      pop\n        /* \"#utility.yul\":23770:23841   */\n      tag_481\n        /* \"#utility.yul\":23838:23839   */\n      0x00\n        /* \"#utility.yul\":23827:23836   */\n      dup4\n        /* \"#utility.yul\":23823:23840   */\n      add\n        /* \"#utility.yul\":23814:23820   */\n      dup11\n        /* \"#utility.yul\":23770:23841   */\n      tag_431\n      jump\t// in\n    tag_481:\n        /* \"#utility.yul\":23851:23923   */\n      tag_482\n        /* \"#utility.yul\":23919:23921   */\n      0x20\n        /* \"#utility.yul\":23908:23917   */\n      dup4\n        /* \"#utility.yul\":23904:23922   */\n      add\n        /* \"#utility.yul\":23895:23901   */\n      dup10\n        /* \"#utility.yul\":23851:23923   */\n      tag_431\n      jump\t// in\n    tag_482:\n        /* \"#utility.yul\":23933:24005   */\n      tag_483\n        /* \"#utility.yul\":24001:24003   */\n      0x40\n        /* \"#utility.yul\":23990:23999   */\n      dup4\n        /* \"#utility.yul\":23986:24004   */\n      add\n        /* \"#utility.yul\":23977:23983   */\n      dup9\n        /* \"#utility.yul\":23933:24005   */\n      tag_316\n      jump\t// in\n    tag_483:\n        /* \"#utility.yul\":24052:24061   */\n      dup2\n        /* \"#utility.yul\":24046:24050   */\n      dup2\n        /* \"#utility.yul\":24042:24062   */\n      sub\n        /* \"#utility.yul\":24037:24039   */\n      0x60\n        /* \"#utility.yul\":24026:24035   */\n      dup4\n        /* \"#utility.yul\":24022:24040   */\n      add\n        /* \"#utility.yul\":24015:24063   */\n      mstore\n        /* \"#utility.yul\":24080:24158   */\n      tag_484\n        /* \"#utility.yul\":24153:24157   */\n      dup2\n        /* \"#utility.yul\":24144:24150   */\n      dup8\n        /* \"#utility.yul\":24080:24158   */\n      tag_345\n      jump\t// in\n    tag_484:\n        /* \"#utility.yul\":24072:24158   */\n      swap1\n      pop\n        /* \"#utility.yul\":24168:24241   */\n      tag_485\n        /* \"#utility.yul\":24236:24239   */\n      0x80\n        /* \"#utility.yul\":24225:24234   */\n      dup4\n        /* \"#utility.yul\":24221:24240   */\n      add\n        /* \"#utility.yul\":24212:24218   */\n      dup7\n        /* \"#utility.yul\":24168:24241   */\n      tag_431\n      jump\t// in\n    tag_485:\n        /* \"#utility.yul\":24251:24324   */\n      tag_486\n        /* \"#utility.yul\":24319:24322   */\n      0xa0\n        /* \"#utility.yul\":24308:24317   */\n      dup4\n        /* \"#utility.yul\":24304:24323   */\n      add\n        /* \"#utility.yul\":24295:24301   */\n      dup6\n        /* \"#utility.yul\":24251:24324   */\n      tag_431\n      jump\t// in\n    tag_486:\n        /* \"#utility.yul\":24334:24405   */\n      tag_487\n        /* \"#utility.yul\":24400:24403   */\n      0xc0\n        /* \"#utility.yul\":24389:24398   */\n      dup4\n        /* \"#utility.yul\":24385:24404   */\n      add\n        /* \"#utility.yul\":24376:24382   */\n      dup5\n        /* \"#utility.yul\":24334:24405   */\n      tag_327\n      jump\t// in\n    tag_487:\n        /* \"#utility.yul\":23439:24412   */\n      swap9\n      swap8\n      pop\n      pop\n      pop\n      pop\n      pop\n      pop\n      pop\n      pop\n      jump\t// out\n        /* \"#utility.yul\":24418:25082   */\n    tag_89:\n        /* \"#utility.yul\":24623:24627   */\n      0x00\n        /* \"#utility.yul\":24661:24664   */\n      0xa0\n        /* \"#utility.yul\":24650:24659   */\n      dup3\n        /* \"#utility.yul\":24646:24665   */\n      add\n        /* \"#utility.yul\":24638:24665   */\n      swap1\n      pop\n        /* \"#utility.yul\":24675:24746   */\n      tag_489\n        /* \"#utility.yul\":24743:24744   */\n      0x00\n        /* \"#utility.yul\":24732:24741   */\n      dup4\n        /* \"#utility.yul\":24728:24745   */\n      add\n        /* \"#utility.yul\":24719:24725   */\n      dup9\n        /* \"#utility.yul\":24675:24746   */\n      tag_431\n      jump\t// in\n    tag_489:\n        /* \"#utility.yul\":24756:24828   */\n      tag_490\n        /* \"#utility.yul\":24824:24826   */\n      0x20\n        /* \"#utility.yul\":24813:24822   */\n      dup4\n        /* \"#utility.yul\":24809:24827   */\n      add\n        /* \"#utility.yul\":24800:24806   */\n      dup8\n        /* \"#utility.yul\":24756:24828   */\n      tag_431\n      jump\t// in\n    tag_490:\n        /* \"#utility.yul\":24838:24910   */\n      tag_491\n        /* \"#utility.yul\":24906:24908   */\n      0x40\n        /* \"#utility.yul\":24895:24904   */\n      dup4\n        /* \"#utility.yul\":24891:24909   */\n      add\n        /* \"#utility.yul\":24882:24888   */\n      dup7\n        /* \"#utility.yul\":24838:24910   */\n      tag_316\n      jump\t// in\n    tag_491:\n        /* \"#utility.yul\":24920:24992   */\n      tag_492\n        /* \"#utility.yul\":24988:24990   */\n      0x60\n        /* \"#utility.yul\":24977:24986   */\n      dup4\n        /* \"#utility.yul\":24973:24991   */\n      add\n        /* \"#utility.yul\":24964:24970   */\n      dup6\n        /* \"#utility.yul\":24920:24992   */\n      tag_431\n      jump\t// in\n    tag_492:\n        /* \"#utility.yul\":25002:25075   */\n      tag_493\n        /* \"#utility.yul\":25070:25073   */\n      0x80\n        /* \"#utility.yul\":25059:25068   */\n      dup4\n        /* \"#utility.yul\":25055:25074   */\n      add\n        /* \"#utility.yul\":25046:25052   */\n      dup5\n        /* \"#utility.yul\":25002:25075   */\n      tag_431\n      jump\t// in\n    tag_493:\n        /* \"#utility.yul\":24418:25082   */\n      swap7\n      swap6\n      pop\n      pop\n      pop\n      pop\n      pop\n      pop\n      jump\t// out\n        /* \"#utility.yul\":25088:25217   */\n    tag_239:\n        /* \"#utility.yul\":25122:25128   */\n      0x00\n        /* \"#utility.yul\":25149:25169   */\n      tag_495\n      tag_496\n      jump\t// in\n    tag_495:\n        /* \"#utility.yul\":25139:25169   */\n      swap1\n      pop\n        /* \"#utility.yul\":25178:25211   */\n      tag_497\n        /* \"#utility.yul\":25206:25210   */\n      dup3\n        /* \"#utility.yul\":25198:25204   */\n      dup3\n        /* \"#utility.yul\":25178:25211   */\n      tag_498\n      jump\t// in\n    tag_497:\n        /* \"#utility.yul\":25088:25217   */\n      swap2\n      swap1\n      pop\n      jump\t// out\n        /* \"#utility.yul\":25223:25298   */\n    tag_496:\n        /* \"#utility.yul\":25256:25262   */\n      0x00\n        /* \"#utility.yul\":25289:25291   */\n      0x40\n        /* \"#utility.yul\":25283:25292   */\n      mload\n        /* \"#utility.yul\":25273:25292   */\n      swap1\n      pop\n        /* \"#utility.yul\":25223:25298   */\n      swap1\n      jump\t// out\n        /* \"#utility.yul\":25304:25612   */\n    tag_238:\n        /* \"#utility.yul\":25366:25370   */\n      0x00\n        /* \"#utility.yul\":25456:25474   */\n      0xffffffffffffffff\n        /* \"#utility.yul\":25448:25454   */\n      dup3\n        /* \"#utility.yul\":25445:25475   */\n      gt\n        /* \"#utility.yul\":25442:25498   */\n      iszero\n      tag_501\n      jumpi\n        /* \"#utility.yul\":25478:25496   */\n      tag_502\n      tag_503\n      jump\t// in\n    tag_502:\n        /* \"#utility.yul\":25442:25498   */\n    tag_501:\n        /* \"#utility.yul\":25516:25545   */\n      tag_504\n        /* \"#utility.yul\":25538:25544   */\n      dup3\n        /* \"#utility.yul\":25516:25545   */\n      tag_344\n      jump\t// in\n    tag_504:\n        /* \"#utility.yul\":25508:25545   */\n      swap1\n      pop\n        /* \"#utility.yul\":25600:25604   */\n      0x20\n        /* \"#utility.yul\":25594:25598   */\n      dup2\n        /* \"#utility.yul\":25590:25605   */\n      add\n        /* \"#utility.yul\":25582:25605   */\n      swap1\n      pop\n        /* \"#utility.yul\":25304:25612   */\n      swap2\n      swap1\n      pop\n      jump\t// out\n        /* \"#utility.yul\":25618:25717   */\n    tag_338:\n        /* \"#utility.yul\":25670:25676   */\n      0x00\n        /* \"#utility.yul\":25704:25709   */\n      dup2\n        /* \"#utility.yul\":25698:25710   */\n      mload\n        /* \"#utility.yul\":25688:25710   */\n      swap1\n      pop\n        /* \"#utility.yul\":25618:25717   */\n      swap2\n      swap1\n      pop\n      jump\t// out\n        /* \"#utility.yul\":25723:25882   */\n    tag_340:\n        /* \"#utility.yul\":25797:25808   */\n      0x00\n        /* \"#utility.yul\":25831:25837   */\n      dup3\n        /* \"#utility.yul\":25826:25829   */\n      dup3\n        /* \"#utility.yul\":25819:25838   */\n      mstore\n        /* \"#utility.yul\":25871:25875   */\n      0x20\n        /* \"#utility.yul\":25866:25869   */\n      dup3\n        /* \"#utility.yul\":25862:25876   */\n      add\n        /* \"#utility.yul\":25847:25876   */\n      swap1\n      pop\n        /* \"#utility.yul\":25723:25882   */\n      swap3\n      swap2\n      pop\n      pop\n      jump\t// out\n        /* \"#utility.yul\":25888:26057   */\n    tag_349:\n        /* \"#utility.yul\":25972:25983   */\n      0x00\n        /* \"#utility.yul\":26006:26012   */\n      dup3\n        /* \"#utility.yul\":26001:26004   */\n      dup3\n        /* \"#utility.yul\":25994:26013   */\n      mstore\n        /* \"#utility.yul\":26046:26050   */\n      0x20\n        /* \"#utility.yul\":26041:26044   */\n      dup3\n        /* \"#utility.yul\":26037:26051   */\n      add\n        /* \"#utility.yul\":26022:26051   */\n      swap1\n      pop\n        /* \"#utility.yul\":25888:26057   */\n      swap3\n      swap2\n      pop\n      pop\n      jump\t// out\n        /* \"#utility.yul\":26063:26211   */\n    tag_333:\n        /* \"#utility.yul\":26165:26176   */\n      0x00\n        /* \"#utility.yul\":26202:26205   */\n      dup2\n        /* \"#utility.yul\":26187:26205   */\n      swap1\n      pop\n        /* \"#utility.yul\":26063:26211   */\n      swap3\n      swap2\n      pop\n      pop\n      jump\t// out\n        /* \"#utility.yul\":26217:26522   */\n    tag_140:\n        /* \"#utility.yul\":26257:26260   */\n      0x00\n        /* \"#utility.yul\":26276:26296   */\n      tag_510\n        /* \"#utility.yul\":26294:26295   */\n      dup3\n        /* \"#utility.yul\":26276:26296   */\n      tag_430\n      jump\t// in\n    tag_510:\n        /* \"#utility.yul\":26271:26296   */\n      swap2\n      pop\n        /* \"#utility.yul\":26310:26330   */\n      tag_511\n        /* \"#utility.yul\":26328:26329   */\n      dup4\n        /* \"#utility.yul\":26310:26330   */\n      tag_430\n      jump\t// in\n    tag_511:\n        /* \"#utility.yul\":26305:26330   */\n      swap3\n      pop\n        /* \"#utility.yul\":26464:26465   */\n      dup3\n        /* \"#utility.yul\":26396:26462   */\n      0xffffffffffffffffffffffffffffffffffffffffffffffffffffffffffffffff\n        /* \"#utility.yul\":26392:26466   */\n      sub\n        /* \"#utility.yul\":26389:26390   */\n      dup3\n        /* \"#utility.yul\":26386:26467   */\n      gt\n        /* \"#utility.yul\":26383:26490   */\n      iszero\n      tag_512\n      jumpi\n        /* \"#utility.yul\":26470:26488   */\n      tag_513\n      tag_514\n      jump\t// in\n    tag_513:\n        /* \"#utility.yul\":26383:26490   */\n    tag_512:\n        /* \"#utility.yul\":26514:26515   */\n      dup3\n        /* \"#utility.yul\":26511:26512   */\n      dup3\n        /* \"#utility.yul\":26507:26516   */\n      add\n        /* \"#utility.yul\":26500:26516   */\n      swap1\n      pop\n        /* \"#utility.yul\":26217:26522   */\n      swap3\n      swap2\n      pop\n      pop\n      jump\t// out\n        /* \"#utility.yul\":26528:26713   */\n    tag_143:\n        /* \"#utility.yul\":26568:26569   */\n      0x00\n        /* \"#utility.yul\":26585:26605   */\n      tag_516\n        /* \"#utility.yul\":26603:26604   */\n      dup3\n        /* \"#utility.yul\":26585:26605   */\n      tag_430\n      jump\t// in\n    tag_516:\n        /* \"#utility.yul\":26580:26605   */\n      swap2\n      pop\n        /* \"#utility.yul\":26619:26639   */\n      tag_517\n        /* \"#utility.yul\":26637:26638   */\n      dup4\n        /* \"#utility.yul\":26619:26639   */\n      tag_430\n      jump\t// in\n    tag_517:\n        /* \"#utility.yul\":26614:26639   */\n      swap3\n      pop\n        /* \"#utility.yul\":26658:26659   */\n      dup3\n        /* \"#utility.yul\":26648:26683   */\n      tag_518\n      jumpi\n        /* \"#utility.yul\":26663:26681   */\n      tag_519\n      tag_520\n      jump\t// in\n    tag_519:\n        /* \"#utility.yul\":26648:26683   */\n    tag_518:\n        /* \"#utility.yul\":26705:26706   */\n      dup3\n        /* \"#utility.yul\":26702:26703   */\n      dup3\n        /* \"#utility.yul\":26698:26707   */\n      div\n        /* \"#utility.yul\":26693:26707   */\n      swap1\n      pop\n        /* \"#utility.yul\":26528:26713   */\n      swap3\n      swap2\n      pop\n      pop\n      jump\t// out\n        /* \"#utility.yul\":26719:27067   */\n    tag_149:\n        /* \"#utility.yul\":26759:26766   */\n      0x00\n        /* \"#utility.yul\":26782:26802   */\n      tag_522\n        /* \"#utility.yul\":26800:26801   */\n      dup3\n        /* \"#utility.yul\":26782:26802   */\n      tag_430\n      jump\t// in\n    tag_522:\n        /* \"#utility.yul\":26777:26802   */\n      swap2\n      pop\n        /* \"#utility.yul\":26816:26836   */\n      tag_523\n        /* \"#utility.yul\":26834:26835   */\n      dup4\n        /* \"#utility.yul\":26816:26836   */\n      tag_430\n      jump\t// in\n    tag_523:\n        /* \"#utility.yul\":26811:26836   */\n      swap3\n      pop\n        /* \"#utility.yul\":27004:27005   */\n      dup2\n        /* \"#utility.yul\":26936:27002   */\n      0xffffffffffffffffffffffffffffffffffffffffffffffffffffffffffffffff\n        /* \"#utility.yul\":26932:27006   */\n      div\n        /* \"#utility.yul\":26929:26930   */\n      dup4\n        /* \"#utility.yul\":26926:27007   */\n      gt\n        /* \"#utility.yul\":26921:26922   */\n      dup3\n        /* \"#utility.yul\":26914:26923   */\n      iszero\n        /* \"#utility.yul\":26907:26924   */\n      iszero\n        /* \"#utility.yul\":26903:27008   */\n      and\n        /* \"#utility.yul\":26900:27031   */\n      iszero\n      tag_524\n      jumpi\n        /* \"#utility.yul\":27011:27029   */\n      tag_525\n      tag_514\n      jump\t// in\n    tag_525:\n        /* \"#utility.yul\":26900:27031   */\n    tag_524:\n        /* \"#utility.yul\":27059:27060   */\n      dup3\n        /* \"#utility.yul\":27056:27057   */\n      dup3\n        /* \"#utility.yul\":27052:27061   */\n      mul\n        /* \"#utility.yul\":27041:27061   */\n      swap1\n      pop\n        /* \"#utility.yul\":26719:27067   */\n      swap3\n      swap2\n      pop\n      pop\n      jump\t// out\n        /* \"#utility.yul\":27073:27264   */\n    tag_137:\n        /* \"#utility.yul\":27113:27117   */\n      0x00\n        /* \"#utility.yul\":27133:27153   */\n      tag_527\n        /* \"#utility.yul\":27151:27152   */\n      dup3\n        /* \"#utility.yul\":27133:27153   */\n      tag_430\n      jump\t// in\n    tag_527:\n        /* \"#utility.yul\":27128:27153   */\n      swap2\n      pop\n        /* \"#utility.yul\":27167:27187   */\n      tag_528\n        /* \"#utility.yul\":27185:27186   */\n      dup4\n        /* \"#utility.yul\":27167:27187   */\n      tag_430\n      jump\t// in\n    tag_528:\n        /* \"#utility.yul\":27162:27187   */\n      swap3\n      pop\n        /* \"#utility.yul\":27206:27207   */\n      dup3\n        /* \"#utility.yul\":27203:27204   */\n      dup3\n        /* \"#utility.yul\":27200:27208   */\n      lt\n        /* \"#utility.yul\":27197:27231   */\n      iszero\n      tag_529\n      jumpi\n        /* \"#utility.yul\":27211:27229   */\n      tag_530\n      tag_514\n      jump\t// in\n    tag_530:\n        /* \"#utility.yul\":27197:27231   */\n    tag_529:\n        /* \"#utility.yul\":27256:27257   */\n      dup3\n        /* \"#utility.yul\":27253:27254   */\n      dup3\n        /* \"#utility.yul\":27249:27258   */\n      sub\n        /* \"#utility.yul\":27241:27258   */\n      swap1\n      pop\n        /* \"#utility.yul\":27073:27264   */\n      swap3\n      swap2\n      pop\n      pop\n      jump\t// out\n        /* \"#utility.yul\":27270:27366   */\n    tag_315:\n        /* \"#utility.yul\":27307:27314   */\n      0x00\n        /* \"#utility.yul\":27336:27360   */\n      tag_532\n        /* \"#utility.yul\":27354:27359   */\n      dup3\n        /* \"#utility.yul\":27336:27360   */\n      tag_533\n      jump\t// in\n    tag_532:\n        /* \"#utility.yul\":27325:27360   */\n      swap1\n      pop\n        /* \"#utility.yul\":27270:27366   */\n      swap2\n      swap1\n      pop\n      jump\t// out\n        /* \"#utility.yul\":27372:27462   */\n    tag_322:\n        /* \"#utility.yul\":27406:27413   */\n      0x00\n        /* \"#utility.yul\":27449:27454   */\n      dup2\n        /* \"#utility.yul\":27442:27455   */\n      iszero\n        /* \"#utility.yul\":27435:27456   */\n      iszero\n        /* \"#utility.yul\":27424:27456   */\n      swap1\n      pop\n        /* \"#utility.yul\":27372:27462   */\n      swap2\n      swap1\n      pop\n      jump\t// out\n        /* \"#utility.yul\":27468:27544   */\n    tag_326:\n        /* \"#utility.yul\":27504:27511   */\n      0x00\n        /* \"#utility.yul\":27533:27538   */\n      dup2\n        /* \"#utility.yul\":27522:27538   */\n      swap1\n      pop\n        /* \"#utility.yul\":27468:27544   */\n      swap2\n      swap1\n      pop\n      jump\t// out\n        /* \"#utility.yul\":27550:27676   */\n    tag_533:\n        /* \"#utility.yul\":27587:27594   */\n      0x00\n        /* \"#utility.yul\":27627:27669   */\n      0xffffffffffffffffffffffffffffffffffffffff\n        /* \"#utility.yul\":27620:27625   */\n      dup3\n        /* \"#utility.yul\":27616:27670   */\n      and\n        /* \"#utility.yul\":27605:27670   */\n      swap1\n      pop\n        /* \"#utility.yul\":27550:27676   */\n      swap2\n      swap1\n      pop\n      jump\t// out\n        /* \"#utility.yul\":27682:27759   */\n    tag_430:\n        /* \"#utility.yul\":27719:27726   */\n      0x00\n        /* \"#utility.yul\":27748:27753   */\n      dup2\n        /* \"#utility.yul\":27737:27753   */\n      swap1\n      pop\n        /* \"#utility.yul\":27682:27759   */\n      swap2\n      swap1\n      pop\n      jump\t// out\n        /* \"#utility.yul\":27765:27919   */\n    tag_244:\n        /* \"#utility.yul\":27849:27855   */\n      dup3\n        /* \"#utility.yul\":27844:27847   */\n      dup2\n        /* \"#utility.yul\":27839:27842   */\n      dup4\n        /* \"#utility.yul\":27826:27856   */\n      calldatacopy\n        /* \"#utility.yul\":27911:27912   */\n      0x00\n        /* \"#utility.yul\":27902:27908   */\n      dup4\n        /* \"#utility.yul\":27897:27900   */\n      dup4\n        /* \"#utility.yul\":27893:27909   */\n      add\n        /* \"#utility.yul\":27886:27913   */\n      mstore\n        /* \"#utility.yul\":27765:27919   */\n      pop\n      pop\n      pop\n      jump\t// out\n        /* \"#utility.yul\":27925:28232   */\n    tag_342:\n        /* \"#utility.yul\":27993:27994   */\n      0x00\n        /* \"#utility.yul\":28003:28116   */\n    tag_540:\n        /* \"#utility.yul\":28017:28023   */\n      dup4\n        /* \"#utility.yul\":28014:28015   */\n      dup2\n        /* \"#utility.yul\":28011:28024   */\n      lt\n        /* \"#utility.yul\":28003:28116   */\n      iszero\n      tag_542\n      jumpi\n        /* \"#utility.yul\":28102:28103   */\n      dup1\n        /* \"#utility.yul\":28097:28100   */\n      dup3\n        /* \"#utility.yul\":28093:28104   */\n      add\n        /* \"#utility.yul\":28087:28105   */\n      mload\n        /* \"#utility.yul\":28083:28084   */\n      dup2\n        /* \"#utility.yul\":28078:28081   */\n      dup5\n        /* \"#utility.yul\":28074:28085   */\n      add\n        /* \"#utility.yul\":28067:28106   */\n      mstore\n        /* \"#utility.yul\":28039:28041   */\n      0x20\n        /* \"#utility.yul\":28036:28037   */\n      dup2\n        /* \"#utility.yul\":28032:28042   */\n      add\n        /* \"#utility.yul\":28027:28042   */\n      swap1\n      pop\n        /* \"#utility.yul\":28003:28116   */\n      jump(tag_540)\n    tag_542:\n        /* \"#utility.yul\":28134:28140   */\n      dup4\n        /* \"#utility.yul\":28131:28132   */\n      dup2\n        /* \"#utility.yul\":28128:28141   */\n      gt\n        /* \"#utility.yul\":28125:28226   */\n      iszero\n      tag_543\n      jumpi\n        /* \"#utility.yul\":28214:28215   */\n      0x00\n        /* \"#utility.yul\":28205:28211   */\n      dup5\n        /* \"#utility.yul\":28200:28203   */\n      dup5\n        /* \"#utility.yul\":28196:28212   */\n      add\n        /* \"#utility.yul\":28189:28216   */\n      mstore\n        /* \"#utility.yul\":28125:28226   */\n    tag_543:\n        /* \"#utility.yul\":27974:28232   */\n      pop\n        /* \"#utility.yul\":27925:28232   */\n      pop\n      pop\n      pop\n      jump\t// out\n        /* \"#utility.yul\":28238:28558   */\n    tag_129:\n        /* \"#utility.yul\":28282:28288   */\n      0x00\n        /* \"#utility.yul\":28319:28320   */\n      0x02\n        /* \"#utility.yul\":28313:28317   */\n      dup3\n        /* \"#utility.yul\":28309:28321   */\n      div\n        /* \"#utility.yul\":28299:28321   */\n      swap1\n      pop\n        /* \"#utility.yul\":28366:28367   */\n      0x01\n        /* \"#utility.yul\":28360:28364   */\n      dup3\n        /* \"#utility.yul\":28356:28368   */\n      and\n        /* \"#utility.yul\":28387:28405   */\n      dup1\n        /* \"#utility.yul\":28377:28458   */\n      tag_545\n      jumpi\n        /* \"#utility.yul\":28443:28447   */\n      0x7f\n        /* \"#utility.yul\":28435:28441   */\n      dup3\n        /* \"#utility.yul\":28431:28448   */\n      and\n        /* \"#utility.yul\":28421:28448   */\n      swap2\n      pop\n        /* \"#utility.yul\":28377:28458   */\n    tag_545:\n        /* \"#utility.yul\":28505:28507   */\n      0x20\n        /* \"#utility.yul\":28497:28503   */\n      dup3\n        /* \"#utility.yul\":28494:28508   */\n      lt\n        /* \"#utility.yul\":28474:28492   */\n      dup2\n        /* \"#utility.yul\":28471:28509   */\n      eq\n        /* \"#utility.yul\":28468:28552   */\n      iszero\n      tag_546\n      jumpi\n        /* \"#utility.yul\":28524:28542   */\n      tag_547\n      tag_548\n      jump\t// in\n    tag_547:\n        /* \"#utility.yul\":28468:28552   */\n    tag_546:\n        /* \"#utility.yul\":28289:28558   */\n      pop\n        /* \"#utility.yul\":28238:28558   */\n      swap2\n      swap1\n      pop\n      jump\t// out\n        /* \"#utility.yul\":28564:28845   */\n    tag_498:\n        /* \"#utility.yul\":28647:28674   */\n      tag_550\n        /* \"#utility.yul\":28669:28673   */\n      dup3\n        /* \"#utility.yul\":28647:28674   */\n      tag_344\n      jump\t// in\n    tag_550:\n        /* \"#utility.yul\":28639:28645   */\n      dup2\n        /* \"#utility.yul\":28635:28675   */\n      add\n        /* \"#utility.yul\":28777:28783   */\n      dup2\n        /* \"#utility.yul\":28765:28775   */\n      dup2\n        /* \"#utility.yul\":28762:28784   */\n      lt\n        /* \"#utility.yul\":28741:28759   */\n      0xffffffffffffffff\n        /* \"#utility.yul\":28729:28739   */\n      dup3\n        /* \"#utility.yul\":28726:28760   */\n      gt\n        /* \"#utility.yul\":28723:28785   */\n      or\n        /* \"#utility.yul\":28720:28808   */\n      iszero\n      tag_551\n      jumpi\n        /* \"#utility.yul\":28788:28806   */\n      tag_552\n      tag_503\n      jump\t// in\n    tag_552:\n        /* \"#utility.yul\":28720:28808   */\n    tag_551:\n        /* \"#utility.yul\":28828:28838   */\n      dup1\n        /* \"#utility.yul\":28824:28826   */\n      0x40\n        /* \"#utility.yul\":28817:28839   */\n      mstore\n        /* \"#utility.yul\":28607:28845   */\n      pop\n        /* \"#utility.yul\":28564:28845   */\n      pop\n      pop\n      jump\t// out\n        /* \"#utility.yul\":28851:29031   */\n    tag_514:\n        /* \"#utility.yul\":28899:28976   */\n      0x4e487b7100000000000000000000000000000000000000000000000000000000\n        /* \"#utility.yul\":28896:28897   */\n      0x00\n        /* \"#utility.yul\":28889:28977   */\n      mstore\n        /* \"#utility.yul\":28996:29000   */\n      0x11\n        /* \"#utility.yul\":28993:28994   */\n      0x04\n        /* \"#utility.yul\":28986:29001   */\n      mstore\n        /* \"#utility.yul\":29020:29024   */\n      0x24\n        /* \"#utility.yul\":29017:29018   */\n      0x00\n        /* \"#utility.yul\":29010:29025   */\n      revert\n        /* \"#utility.yul\":29037:29217   */\n    tag_520:\n        /* \"#utility.yul\":29085:29162   */\n      0x4e487b7100000000000000000000000000000000000000000000000000000000\n        /* \"#utility.yul\":29082:29083   */\n      0x00\n        /* \"#utility.yul\":29075:29163   */\n      mstore\n        /* \"#utility.yul\":29182:29186   */\n      0x12\n        /* \"#utility.yul\":29179:29180   */\n      0x04\n        /* \"#utility.yul\":29172:29187   */\n      mstore\n        /* \"#utility.yul\":29206:29210   */\n      0x24\n        /* \"#utility.yul\":29203:29204   */\n      0x00\n        /* \"#utility.yul\":29196:29211   */\n      revert\n        /* \"#utility.yul\":29223:29403   */\n    tag_548:\n        /* \"#utility.yul\":29271:29348   */\n      0x4e487b7100000000000000000000000000000000000000000000000000000000\n        /* \"#utility.yul\":29268:29269   */\n      0x00\n        /* \"#utility.yul\":29261:29349   */\n      mstore\n        /* \"#utility.yul\":29368:29372   */\n      0x22\n        /* \"#utility.yul\":29365:29366   */\n      0x04\n        /* \"#utility.yul\":29358:29373   */\n      mstore\n        /* \"#utility.yul\":29392:29396   */\n      0x24\n        /* \"#utility.yul\":29389:29390   */\n      0x00\n        /* \"#utility.yul\":29382:29397   */\n      revert\n        /* \"#utility.yul\":29409:29589   */\n    tag_503:\n        /* \"#utility.yul\":29457:29534   */\n      0x4e487b7100000000000000000000000000000000000000000000000000000000\n        /* \"#utility.yul\":29454:29455   */\n      0x00\n        /* \"#utility.yul\":29447:29535   */\n      mstore\n        /* \"#utility.yul\":29554:29558   */\n      0x41\n        /* \"#utility.yul\":29551:29552   */\n      0x04\n        /* \"#utility.yul\":29544:29559   */\n      mstore\n        /* \"#utility.yul\":29578:29582   */\n      0x24\n        /* \"#utility.yul\":29575:29576   */\n      0x00\n        /* \"#utility.yul\":29568:29583   */\n      revert\n        /* \"#utility.yul\":29595:29712   */\n    tag_256:\n        /* \"#utility.yul\":29704:29705   */\n      0x00\n        /* \"#utility.yul\":29701:29702   */\n      dup1\n        /* \"#utility.yul\":29694:29706   */\n      revert\n        /* \"#utility.yul\":29718:29835   */\n    tag_253:\n        /* \"#utility.yul\":29827:29828   */\n      0x00\n        /* \"#utility.yul\":29824:29825   */\n      dup1\n        /* \"#utility.yul\":29817:29829   */\n      revert\n        /* \"#utility.yul\":29841:29958   */\n    tag_259:\n        /* \"#utility.yul\":29950:29951   */\n      0x00\n        /* \"#utility.yul\":29947:29948   */\n      dup1\n        /* \"#utility.yul\":29940:29952   */\n      revert\n        /* \"#utility.yul\":29964:30081   */\n    tag_242:\n        /* \"#utility.yul\":30073:30074   */\n      0x00\n        /* \"#utility.yul\":30070:30071   */\n      dup1\n        /* \"#utility.yul\":30063:30075   */\n      revert\n        /* \"#utility.yul\":30087:30204   */\n    tag_280:\n        /* \"#utility.yul\":30196:30197   */\n      0x00\n        /* \"#utility.yul\":30193:30194   */\n      dup1\n        /* \"#utility.yul\":30186:30198   */\n      revert\n        /* \"#utility.yul\":30210:30327   */\n    tag_272:\n        /* \"#utility.yul\":30319:30320   */\n      0x00\n        /* \"#utility.yul\":30316:30317   */\n      dup1\n        /* \"#utility.yul\":30309:30321   */\n      revert\n        /* \"#utility.yul\":30333:30435   */\n    tag_344:\n        /* \"#utility.yul\":30374:30380   */\n      0x00\n        /* \"#utility.yul\":30425:30427   */\n      0x1f\n        /* \"#utility.yul\":30421:30428   */\n      not\n        /* \"#utility.yul\":30416:30418   */\n      0x1f\n        /* \"#utility.yul\":30409:30414   */\n      dup4\n        /* \"#utility.yul\":30405:30419   */\n      add\n        /* \"#utility.yul\":30401:30429   */\n      and\n        /* \"#utility.yul\":30391:30429   */\n      swap1\n      pop\n        /* \"#utility.yul\":30333:30435   */\n      swap2\n      swap1\n      pop\n      jump\t// out\n        /* \"#utility.yul\":30441:30675   */\n    tag_361:\n        /* \"#utility.yul\":30581:30615   */\n      0x437573746f6d6572206e6f7420726567697374657265642120506c6561736520\n        /* \"#utility.yul\":30577:30578   */\n      0x00\n        /* \"#utility.yul\":30569:30575   */\n      dup3\n        /* \"#utility.yul\":30565:30579   */\n      add\n        /* \"#utility.yul\":30558:30616   */\n      mstore\n        /* \"#utility.yul\":30650:30667   */\n      0x7265676973746572206669727374210000000000000000000000000000000000\n        /* \"#utility.yul\":30645:30647   */\n      0x20\n        /* \"#utility.yul\":30637:30643   */\n      dup3\n        /* \"#utility.yul\":30633:30648   */\n      add\n        /* \"#utility.yul\":30626:30668   */\n      mstore\n        /* \"#utility.yul\":30441:30675   */\n      pop\n      jump\t// out\n        /* \"#utility.yul\":30681:30921   */\n    tag_366:\n        /* \"#utility.yul\":30821:30855   */\n      0x5468652072657475726e206f6620746869732072657475726e49642068617320\n        /* \"#utility.yul\":30817:30818   */\n      0x00\n        /* \"#utility.yul\":30809:30815   */\n      dup3\n        /* \"#utility.yul\":30805:30819   */\n      add\n        /* \"#utility.yul\":30798:30856   */\n      mstore\n        /* \"#utility.yul\":30890:30913   */\n      0x6265656e20616c72656164792061756469746564210000000000000000000000\n        /* \"#utility.yul\":30885:30887   */\n      0x20\n        /* \"#utility.yul\":30877:30883   */\n      dup3\n        /* \"#utility.yul\":30873:30888   */\n      add\n        /* \"#utility.yul\":30866:30914   */\n      mstore\n        /* \"#utility.yul\":30681:30921   */\n      pop\n      jump\t// out\n        /* \"#utility.yul\":30927:31148   */\n    tag_371:\n        /* \"#utility.yul\":31067:31101   */\n      0x4e6f207468697320747970652773206361727320617661696c61626c65206e6f\n        /* \"#utility.yul\":31063:31064   */\n      0x00\n        /* \"#utility.yul\":31055:31061   */\n      dup3\n        /* \"#utility.yul\":31051:31065   */\n      add\n        /* \"#utility.yul\":31044:31102   */\n      mstore\n        /* \"#utility.yul\":31136:31140   */\n      0x7721000000000000000000000000000000000000000000000000000000000000\n        /* \"#utility.yul\":31131:31133   */\n      0x20\n        /* \"#utility.yul\":31123:31129   */\n      dup3\n        /* \"#utility.yul\":31119:31134   */\n      add\n        /* \"#utility.yul\":31112:31141   */\n      mstore\n        /* \"#utility.yul\":30927:31148   */\n      pop\n      jump\t// out\n        /* \"#utility.yul\":31154:31391   */\n    tag_376:\n        /* \"#utility.yul\":31294:31328   */\n      0x5468652072656e74206f6620746869732072656e74496420686173206265656e\n        /* \"#utility.yul\":31290:31291   */\n      0x00\n        /* \"#utility.yul\":31282:31288   */\n      dup3\n        /* \"#utility.yul\":31278:31292   */\n      add\n        /* \"#utility.yul\":31271:31329   */\n      mstore\n        /* \"#utility.yul\":31363:31383   */\n      0x20616c72656164792072657475726e6564210000000000000000000000000000\n        /* \"#utility.yul\":31358:31360   */\n      0x20\n        /* \"#utility.yul\":31350:31356   */\n      dup3\n        /* \"#utility.yul\":31346:31361   */\n      add\n        /* \"#utility.yul\":31339:31384   */\n      mstore\n        /* \"#utility.yul\":31154:31391   */\n      pop\n      jump\t// out\n        /* \"#utility.yul\":31397:31573   */\n    tag_381:\n        /* \"#utility.yul\":31537:31565   */\n      0x496e7075742072656e745265636f7264496420496e7661696421000000000000\n        /* \"#utility.yul\":31533:31534   */\n      0x00\n        /* \"#utility.yul\":31525:31531   */\n      dup3\n        /* \"#utility.yul\":31521:31535   */\n      add\n        /* \"#utility.yul\":31514:31566   */\n      mstore\n        /* \"#utility.yul\":31397:31573   */\n      pop\n      jump\t// out\n        /* \"#utility.yul\":31579:31894   */\n    tag_386:\n        /* \"#utility.yul\":31719:31753   */\n      0x4465706f73697420676976656e2068657265206973206e6f7420656e6f756768\n        /* \"#utility.yul\":31715:31716   */\n      0x00\n        /* \"#utility.yul\":31707:31713   */\n      dup3\n        /* \"#utility.yul\":31703:31717   */\n      add\n        /* \"#utility.yul\":31696:31754   */\n      mstore\n        /* \"#utility.yul\":31788:31822   */\n      0x21204465706f7369742073686f756c65206265206c6172676572207468616e20\n        /* \"#utility.yul\":31783:31785   */\n      0x20\n        /* \"#utility.yul\":31775:31781   */\n      dup3\n        /* \"#utility.yul\":31771:31786   */\n      add\n        /* \"#utility.yul\":31764:31823   */\n      mstore\n        /* \"#utility.yul\":31857:31886   */\n      0x283930202b2072656e744461797329202a206461696c7952656e740000000000\n        /* \"#utility.yul\":31852:31854   */\n      0x40\n        /* \"#utility.yul\":31844:31850   */\n      dup3\n        /* \"#utility.yul\":31840:31855   */\n      add\n        /* \"#utility.yul\":31833:31887   */\n      mstore\n        /* \"#utility.yul\":31579:31894   */\n      pop\n      jump\t// out\n        /* \"#utility.yul\":31900:32078   */\n    tag_391:\n        /* \"#utility.yul\":32040:32070   */\n      0x496e7075742072657475726e5265636f7264496420496e766169642100000000\n        /* \"#utility.yul\":32036:32037   */\n      0x00\n        /* \"#utility.yul\":32028:32034   */\n      dup3\n        /* \"#utility.yul\":32024:32038   */\n      add\n        /* \"#utility.yul\":32017:32071   */\n      mstore\n        /* \"#utility.yul\":31900:32078   */\n      pop\n      jump\t// out\n        /* \"#utility.yul\":32084:32266   */\n    tag_396:\n        /* \"#utility.yul\":32224:32258   */\n      0x4f6e6c79204142432063616e2063616c6c20746869732066756e6374696f6e21\n        /* \"#utility.yul\":32220:32221   */\n      0x00\n        /* \"#utility.yul\":32212:32218   */\n      dup3\n        /* \"#utility.yul\":32208:32222   */\n      add\n        /* \"#utility.yul\":32201:32259   */\n      mstore\n        /* \"#utility.yul\":32084:32266   */\n      pop\n      jump\t// out\n        /* \"#utility.yul\":32272:32498   */\n    tag_401:\n        /* \"#utility.yul\":32412:32446   */\n      0x54686520637573746f6d65722773206164647265737320646f65736e2774206d\n        /* \"#utility.yul\":32408:32409   */\n      0x00\n        /* \"#utility.yul\":32400:32406   */\n      dup3\n        /* \"#utility.yul\":32396:32410   */\n      add\n        /* \"#utility.yul\":32389:32447   */\n      mstore\n        /* \"#utility.yul\":32481:32490   */\n      0x6174636865642100000000000000000000000000000000000000000000000000\n        /* \"#utility.yul\":32476:32478   */\n      0x20\n        /* \"#utility.yul\":32468:32474   */\n      dup3\n        /* \"#utility.yul\":32464:32479   */\n      add\n        /* \"#utility.yul\":32457:32491   */\n      mstore\n        /* \"#utility.yul\":32272:32498   */\n      pop\n      jump\t// out\n        /* \"#utility.yul\":32504:32626   */\n    tag_248:\n        /* \"#utility.yul\":32577:32601   */\n      tag_574\n        /* \"#utility.yul\":32595:32600   */\n      dup2\n        /* \"#utility.yul\":32577:32601   */\n      tag_315\n      jump\t// in\n    tag_574:\n        /* \"#utility.yul\":32570:32575   */\n      dup2\n        /* \"#utility.yul\":32567:32602   */\n      eq\n        /* \"#utility.yul\":32557:32620   */\n      tag_575\n      jumpi\n        /* \"#utility.yul\":32616:32617   */\n      0x00\n        /* \"#utility.yul\":32613:32614   */\n      dup1\n        /* \"#utility.yul\":32606:32618   */\n      revert\n        /* \"#utility.yul\":32557:32620   */\n    tag_575:\n        /* \"#utility.yul\":32504:32626   */\n      pop\n      jump\t// out\n        /* \"#utility.yul\":32632:32754   */\n    tag_268:\n        /* \"#utility.yul\":32705:32729   */\n      tag_577\n        /* \"#utility.yul\":32723:32728   */\n      dup2\n        /* \"#utility.yul\":32705:32729   */\n      tag_430\n      jump\t// in\n    tag_577:\n        /* \"#utility.yul\":32698:32703   */\n      dup2\n        /* \"#utility.yul\":32695:32730   */\n      eq\n        /* \"#utility.yul\":32685:32748   */\n      tag_578\n      jumpi\n        /* \"#utility.yul\":32744:32745   */\n      0x00\n        /* \"#utility.yul\":32741:32742   */\n      dup1\n        /* \"#utility.yul\":32734:32746   */\n      revert\n        /* \"#utility.yul\":32685:32748   */\n    tag_578:\n        /* \"#utility.yul\":32632:32754   */\n      pop\n      jump\t// out\n\n    auxdata: 0xa264697066735822122093692bf53431ef687e01d5699424ceced0cb097beea19c2d05bf53abd240deb864736f6c63430008070033\n}\n",
				"bytecode": {
					"linkReferences": {},
					"object": "60806040526001600555600160075560016009553480156200002057600080fd5b5060405162002a9d38038062002a9d8339818101604052810190620000469190620000a4565b806000806101000a81548173ffffffffffffffffffffffffffffffffffffffff021916908373ffffffffffffffffffffffffffffffffffffffff1602179055505062000129565b6000815190506200009e816200010f565b92915050565b600060208284031215620000bd57620000bc6200010a565b5b6000620000cd848285016200008d565b91505092915050565b6000620000e382620000ea565b9050919050565b600073ffffffffffffffffffffffffffffffffffffffff82169050919050565b600080fd5b6200011a81620000d6565b81146200012657600080fd5b50565b61296480620001396000396000f3fe6080604052600436106100f25760003560e01c80636b93e4091161008a578063c87dec7a11610059578063c87dec7a1461038f578063cb2acd80146103cc578063d05a04471461040f578063e49624631461043a576100f2565b80636b93e409146102b657806394fa8235146102e65780639532007a14610323578063b027a7591461034e576100f2565b80633a8c0e6e116100c65780633a8c0e6e146101db5780633e7ab6a81461021e5780635177d6d21461024e578063586fa64d14610279576100f2565b80621e4c44146100f75780630958d944146101225780631049f50a1461015f57806338266fe51461019e575b600080fd5b34801561010357600080fd5b5061010c610465565b60405161011991906121a6565b60405180910390f35b34801561012e57600080fd5b5061014960048036038101906101449190611b0a565b61046b565b6040516101569190612184565b60405180910390f35b34801561016b57600080fd5b5061018660048036038101906101819190611ac1565b6109b8565b60405161019593929190611fe9565b60405180910390f35b3480156101aa57600080fd5b506101c560048036038101906101c09190611991565b610a80565b6040516101d291906121a6565b60405180910390f35b3480156101e757600080fd5b5061020260048036038101906101fd9190611b0a565b610abb565b6040516102159796959493929190612237565b60405180910390f35b61023860048036038101906102339190611b37565b610ba5565b6040516102459190612147565b60405180910390f35b34801561025a57600080fd5b50610263610efd565b60405161027091906121a6565b60405180910390f35b34801561028557600080fd5b506102a0600480360381019061029b9190611ac1565b610f03565b6040516102ad91906121a6565b60405180910390f35b6102d060048036038101906102cb91906119ed565b610f31565b6040516102dd9190612162565b60405180910390f35b3480156102f257600080fd5b5061030d60048036038101906103089190611a4d565b611369565b60405161031a9190611fce565b60405180910390f35b34801561032f57600080fd5b506103386114fc565b60405161034591906121a6565b60405180910390f35b34801561035a57600080fd5b5061037560048036038101906103709190611b0a565b611502565b6040516103869594939291906122ad565b60405180910390f35b34801561039b57600080fd5b506103b660048036038101906103b19190611964565b611558565b6040516103c39190611fce565b60405180910390f35b3480156103d857600080fd5b506103f360048036038101906103ee9190611b0a565b611578565b60405161040697969594939291906121c1565b60405180910390f35b34801561041b57600080fd5b50610424611662565b6040516104319190611fb3565b60405180910390f35b34801561044657600080fd5b5061044f611686565b60405161045c9190611fce565b60405180910390f35b60095481565b6104736116e6565b60011515600160003373ffffffffffffffffffffffffffffffffffffffff1673ffffffffffffffffffffffffffffffffffffffff16815260200190815260200160002060009054906101000a900460ff16151514610506576040517f08c379a00000000000000000000000000000000000000000000000000000000081526004016104fd90612027565b60405180910390fd5b60055482111580156105185750600082115b610557576040517f08c379a000000000000000000000000000000000000000000000000000000000815260040161054e906120a7565b60405180910390fd5b6006600083815260200190815260200160002060010160009054906101000a900473ffffffffffffffffffffffffffffffffffffffff1673ffffffffffffffffffffffffffffffffffffffff163373ffffffffffffffffffffffffffffffffffffffff16146105fb576040517f08c379a00000000000000000000000000000000000000000000000000000000081526004016105f290612127565b60405180910390fd5b7fffffffffffffffffffffffffffffffffffffffffffffffffffffffffffffffff600660008481526020019081526020016000206006015414610673576040517f08c379a000000000000000000000000000000000000000000000000000000000815260040161066a90612087565b60405180910390fd5b600060066000848152602001908152602001600020600201805461069690612537565b80601f01602080910402602001604051908101604052809291908181526020018280546106c290612537565b801561070f5780601f106106e45761010080835404028352916020019161070f565b820191906000526020600020905b8154815290600101906020018083116106f257829003601f168201915b505050505090506000600660008581526020019081526020016000206005015490506001600260003373ffffffffffffffffffffffffffffffffffffffff1673ffffffffffffffffffffffffffffffffffffffff168152602001908152602001600020836040516107809190611f9c565b9081526020016040518091039020600082825461079d919061246f565b9250508190555060016004836040516107b69190611f9c565b908152602001604051809103902060008282546107d3919061238e565b925050819055506000429050600082826107ed919061246f565b9050600060016018603c808561080391906123e4565b61080d91906123e4565b61081791906123e4565b610821919061238e565b905060006003866040516108359190611f9c565b908152602001604051809103902060020154826108529190612415565b905060006040518060e0016040528060075481526020018a81526020013373ffffffffffffffffffffffffffffffffffffffff1681526020018881526020018681526020018381526020017fffffffffffffffffffffffffffffffffffffffffffffffffffffffffffffffff815250905080600860006007548152602001908152602001600020600082015181600001556020820151816001015560408201518160020160006101000a81548173ffffffffffffffffffffffffffffffffffffffff021916908373ffffffffffffffffffffffffffffffffffffffff1602179055506060820151816003019080519060200190610950929190611739565b506080820151816004015560a0820151816005015560c08201518160060155905050600754600660008b8152602001908152602001600020600601819055506001600760008282546109a2919061238e565b9250508190555080975050505050505050919050565b6003818051602081018201805184825260208301602085012081835280955050505050506000915090508060000180546109f190612537565b80601f0160208091040260200160405190810160405280929190818152602001828054610a1d90612537565b8015610a6a5780601f10610a3f57610100808354040283529160200191610a6a565b820191906000526020600020905b815481529060010190602001808311610a4d57829003601f168201915b5050505050908060010154908060020154905083565b600260205281600052604060002081805160208101820180518482526020830160208501208183528095505050505050600091509150505481565b60086020528060005260406000206000915090508060000154908060010154908060020160009054906101000a900473ffffffffffffffffffffffffffffffffffffffff1690806003018054610b1090612537565b80601f0160208091040260200160405190810160405280929190818152602001828054610b3c90612537565b8015610b895780601f10610b5e57610100808354040283529160200191610b89565b820191906000526020600020905b815481529060010190602001808311610b6c57829003601f168201915b5050505050908060040154908060050154908060060154905087565b610bad6117bf565b60008054906101000a900473ffffffffffffffffffffffffffffffffffffffff1673ffffffffffffffffffffffffffffffffffffffff163373ffffffffffffffffffffffffffffffffffffffff1614610c3b576040517f08c379a0000000000000000000000000000000000000000000000000000000008152600401610c3290612107565b60405180910390fd5b6007548311158015610c4d5750600083115b610c8c576040517f08c379a0000000000000000000000000000000000000000000000000000000008152600401610c83906120e7565b60405180910390fd5b7fffffffffffffffffffffffffffffffffffffffffffffffffffffffffffffffff600860008581526020019081526020016000206006015414610d04576040517f08c379a0000000000000000000000000000000000000000000000000000000008152600401610cfb90612047565b60405180910390fd5b60006008600085815260200190815260200160002060020160009054906101000a900473ffffffffffffffffffffffffffffffffffffffff169050600060066000600860008881526020019081526020016000206001015481526020019081526020016000206004015490506000600860008781526020019081526020016000206005015490506000858284610d9a919061246f565b610da4919061246f565b90508373ffffffffffffffffffffffffffffffffffffffff166108fc829081150290604051600060405180830381858888f19350505050158015610dec573d6000803e3d6000fd5b5060006040518060a0016040528060095481526020018981526020018673ffffffffffffffffffffffffffffffffffffffff16815260200188815260200183815250905080600a60006009548152602001908152602001600020600082015181600001556020820151816001015560408201518160020160006101000a81548173ffffffffffffffffffffffffffffffffffffffff021916908373ffffffffffffffffffffffffffffffffffffffff1602179055506060820151816003015560808201518160040155905050600954600860008a815260200190815260200160002060060181905550600160096000828254610ee8919061238e565b92505081905550809550505050505092915050565b60075481565b6004818051602081018201805184825260208301602085012081835280955050505050506000915090505481565b610f39611804565b60011515600160003373ffffffffffffffffffffffffffffffffffffffff1673ffffffffffffffffffffffffffffffffffffffff16815260200190815260200160002060009054906101000a900460ff16151514610fcc576040517f08c379a0000000000000000000000000000000000000000000000000000000008152600401610fc390612027565b60405180910390fd5b600060048585604051610fe0929190611f83565b9081526020016040518091039020541161102f576040517f08c379a000000000000000000000000000000000000000000000000000000000815260040161102690612067565b60405180910390fd5b60038484604051611041929190611f83565b9081526020016040518091039020600201548261105e9190612415565b60038585604051611070929190611f83565b90815260200160405180910390206001015461108c919061238e565b3410156110ce576040517f08c379a00000000000000000000000000000000000000000000000000000000081526004016110c5906120c7565b60405180910390fd5b6001600260003373ffffffffffffffffffffffffffffffffffffffff1673ffffffffffffffffffffffffffffffffffffffff168152602001908152602001600020858560405161111f929190611f83565b9081526020016040518091039020600082825461113c919061238e565b92505081905550600160048585604051611157929190611f83565b90815260200160405180910390206000828254611174919061246f565b9250508190555060006040518060e0016040528060055481526020013373ffffffffffffffffffffffffffffffffffffffff16815260200186868080601f016020809104026020016040519081016040528093929190818152602001838380828437600081840152601f19601f8201169050808301925050505050505081526020018481526020013481526020014281526020017fffffffffffffffffffffffffffffffffffffffffffffffffffffffffffffffff8152509050806006600060055481526020019081526020016000206000820151816000015560208201518160010160006101000a81548173ffffffffffffffffffffffffffffffffffffffff021916908373ffffffffffffffffffffffffffffffffffffffff16021790555060408201518160020190805190602001906112b1929190611739565b50606082015181600301556080820151816004015560a0820151816005015560c082015181600601559050506001600560008282546112f0919061238e565b9250508190555060008054906101000a900473ffffffffffffffffffffffffffffffffffffffff1673ffffffffffffffffffffffffffffffffffffffff166108fc349081150290604051600060405180830381858888f1935050505015801561135d573d6000803e3d6000fd5b50809150509392505050565b60008060009054906101000a900473ffffffffffffffffffffffffffffffffffffffff1673ffffffffffffffffffffffffffffffffffffffff163373ffffffffffffffffffffffffffffffffffffffff16146113fa576040517f08c379a00000000000000000000000000000000000000000000000000000000081526004016113f190612107565b60405180910390fd5b604051806060016040528086868080601f016020809104026020016040519081016040528093929190818152602001838380828437600081840152601f19601f820116905080830192505050505050508152602001605a8561145c9190612415565b81526020018481525060038686604051611477929190611f83565b908152602001604051809103902060008201518160000190805190602001906114a1929190611739565b50602082015181600101556040820151816002015590505081600486866040516114cc929190611f83565b908152602001604051809103902060008282546114e9919061238e565b9250508190555060019050949350505050565b60055481565b600a6020528060005260406000206000915090508060000154908060010154908060020160009054906101000a900473ffffffffffffffffffffffffffffffffffffffff16908060030154908060040154905085565b60016020528060005260406000206000915054906101000a900460ff1681565b60066020528060005260406000206000915090508060000154908060010160009054906101000a900473ffffffffffffffffffffffffffffffffffffffff16908060020180546115c790612537565b80601f01602080910402602001604051908101604052809291908181526020018280546115f390612537565b80156116405780601f1061161557610100808354040283529160200191611640565b820191906000526020600020905b81548152906001019060200180831161162357829003601f168201915b5050505050908060030154908060040154908060050154908060060154905087565b60008054906101000a900473ffffffffffffffffffffffffffffffffffffffff1681565b600060018060003373ffffffffffffffffffffffffffffffffffffffff1673ffffffffffffffffffffffffffffffffffffffff16815260200190815260200160002060006101000a81548160ff0219169083151502179055506001905090565b6040518060e001604052806000815260200160008152602001600073ffffffffffffffffffffffffffffffffffffffff168152602001606081526020016000815260200160008152602001600081525090565b82805461174590612537565b90600052602060002090601f01602090048101928261176757600085556117ae565b82601f1061178057805160ff19168380011785556117ae565b828001600101855582156117ae579182015b828111156117ad578251825591602001919060010190611792565b5b5090506117bb9190611857565b5090565b6040518060a001604052806000815260200160008152602001600073ffffffffffffffffffffffffffffffffffffffff16815260200160008152602001600081525090565b6040518060e0016040528060008152602001600073ffffffffffffffffffffffffffffffffffffffff16815260200160608152602001600081526020016000815260200160008152602001600081525090565b5b80821115611870576000816000905550600101611858565b5090565b600061188761188284612325565b612300565b9050828152602081018484840111156118a3576118a2612665565b5b6118ae8482856124f5565b509392505050565b6000813590506118c581612900565b92915050565b60008083601f8401126118e1576118e061265b565b5b8235905067ffffffffffffffff8111156118fe576118fd612656565b5b60208301915083600182028301111561191a57611919612660565b5b9250929050565b600082601f8301126119365761193561265b565b5b8135611946848260208601611874565b91505092915050565b60008135905061195e81612917565b92915050565b60006020828403121561197a5761197961266f565b5b6000611988848285016118b6565b91505092915050565b600080604083850312156119a8576119a761266f565b5b60006119b6858286016118b6565b925050602083013567ffffffffffffffff8111156119d7576119d661266a565b5b6119e385828601611921565b9150509250929050565b600080600060408486031215611a0657611a0561266f565b5b600084013567ffffffffffffffff811115611a2457611a2361266a565b5b611a30868287016118cb565b93509350506020611a438682870161194f565b9150509250925092565b60008060008060608587031215611a6757611a6661266f565b5b600085013567ffffffffffffffff811115611a8557611a8461266a565b5b611a91878288016118cb565b94509450506020611aa48782880161194f565b9250506040611ab58782880161194f565b91505092959194509250565b600060208284031215611ad757611ad661266f565b5b600082013567ffffffffffffffff811115611af557611af461266a565b5b611b0184828501611921565b91505092915050565b600060208284031215611b2057611b1f61266f565b5b6000611b2e8482850161194f565b91505092915050565b60008060408385031215611b4e57611b4d61266f565b5b6000611b5c8582860161194f565b9250506020611b6d8582860161194f565b9150509250929050565b611b80816124a3565b82525050565b611b8f816124a3565b82525050565b611b9e816124b5565b82525050565b611bad816124c1565b82525050565b611bbc816124c1565b82525050565b6000611bce8385612383565b9350611bdb8385846124f5565b82840190509392505050565b6000611bf282612356565b611bfc8185612361565b9350611c0c818560208601612504565b611c1581612674565b840191505092915050565b6000611c2b82612356565b611c358185612372565b9350611c45818560208601612504565b611c4e81612674565b840191505092915050565b6000611c6482612356565b611c6e8185612383565b9350611c7e818560208601612504565b80840191505092915050565b6000611c97602f83612372565b9150611ca282612685565b604082019050919050565b6000611cba603583612372565b9150611cc5826126d4565b604082019050919050565b6000611cdd602283612372565b9150611ce882612723565b604082019050919050565b6000611d00603283612372565b9150611d0b82612772565b604082019050919050565b6000611d23601a83612372565b9150611d2e826127c1565b602082019050919050565b6000611d46605b83612372565b9150611d51826127ea565b606082019050919050565b6000611d69601c83612372565b9150611d748261285f565b602082019050919050565b6000611d8c602083612372565b9150611d9782612888565b602082019050919050565b6000611daf602783612372565b9150611dba826128b1565b604082019050919050565b60a082016000820151611ddb6000850182611f65565b506020820151611dee6020850182611f65565b506040820151611e016040850182611b77565b506060820151611e146060850182611f65565b506080820151611e276080850182611f65565b50505050565b600060e083016000830151611e456000860182611f65565b506020830151611e586020860182611b77565b5060408301518482036040860152611e708282611be7565b9150506060830151611e856060860182611f65565b506080830151611e986080860182611f65565b5060a0830151611eab60a0860182611f65565b5060c0830151611ebe60c0860182611ba4565b508091505092915050565b600060e083016000830151611ee16000860182611f65565b506020830151611ef46020860182611f65565b506040830151611f076040860182611b77565b5060608301518482036060860152611f1f8282611be7565b9150506080830151611f346080860182611f65565b5060a0830151611f4760a0860182611f65565b5060c0830151611f5a60c0860182611ba4565b508091505092915050565b611f6e816124eb565b82525050565b611f7d816124eb565b82525050565b6000611f90828486611bc2565b91508190509392505050565b6000611fa88284611c59565b915081905092915050565b6000602082019050611fc86000830184611b86565b92915050565b6000602082019050611fe36000830184611b95565b92915050565b600060608201905081810360008301526120038186611c20565b90506120126020830185611f74565b61201f6040830184611f74565b949350505050565b6000602082019050818103600083015261204081611c8a565b9050919050565b6000602082019050818103600083015261206081611cad565b9050919050565b6000602082019050818103600083015261208081611cd0565b9050919050565b600060208201905081810360008301526120a081611cf3565b9050919050565b600060208201905081810360008301526120c081611d16565b9050919050565b600060208201905081810360008301526120e081611d39565b9050919050565b6000602082019050818103600083015261210081611d5c565b9050919050565b6000602082019050818103600083015261212081611d7f565b9050919050565b6000602082019050818103600083015261214081611da2565b9050919050565b600060a08201905061215c6000830184611dc5565b92915050565b6000602082019050818103600083015261217c8184611e2d565b905092915050565b6000602082019050818103600083015261219e8184611ec9565b905092915050565b60006020820190506121bb6000830184611f74565b92915050565b600060e0820190506121d6600083018a611f74565b6121e36020830189611b86565b81810360408301526121f58188611c20565b90506122046060830187611f74565b6122116080830186611f74565b61221e60a0830185611f74565b61222b60c0830184611bb3565b98975050505050505050565b600060e08201905061224c600083018a611f74565b6122596020830189611f74565b6122666040830188611b86565b81810360608301526122788187611c20565b90506122876080830186611f74565b61229460a0830185611f74565b6122a160c0830184611bb3565b98975050505050505050565b600060a0820190506122c26000830188611f74565b6122cf6020830187611f74565b6122dc6040830186611b86565b6122e96060830185611f74565b6122f66080830184611f74565b9695505050505050565b600061230a61231b565b90506123168282612569565b919050565b6000604051905090565b600067ffffffffffffffff8211156123405761233f612627565b5b61234982612674565b9050602081019050919050565b600081519050919050565b600082825260208201905092915050565b600082825260208201905092915050565b600081905092915050565b6000612399826124eb565b91506123a4836124eb565b9250827fffffffffffffffffffffffffffffffffffffffffffffffffffffffffffffffff038211156123d9576123d861259a565b5b828201905092915050565b60006123ef826124eb565b91506123fa836124eb565b92508261240a576124096125c9565b5b828204905092915050565b6000612420826124eb565b915061242b836124eb565b9250817fffffffffffffffffffffffffffffffffffffffffffffffffffffffffffffffff04831182151516156124645761246361259a565b5b828202905092915050565b600061247a826124eb565b9150612485836124eb565b9250828210156124985761249761259a565b5b828203905092915050565b60006124ae826124cb565b9050919050565b60008115159050919050565b6000819050919050565b600073ffffffffffffffffffffffffffffffffffffffff82169050919050565b6000819050919050565b82818337600083830152505050565b60005b83811015612522578082015181840152602081019050612507565b83811115612531576000848401525b50505050565b6000600282049050600182168061254f57607f821691505b60208210811415612563576125626125f8565b5b50919050565b61257282612674565b810181811067ffffffffffffffff8211171561259157612590612627565b5b80604052505050565b7f4e487b7100000000000000000000000000000000000000000000000000000000600052601160045260246000fd5b7f4e487b7100000000000000000000000000000000000000000000000000000000600052601260045260246000fd5b7f4e487b7100000000000000000000000000000000000000000000000000000000600052602260045260246000fd5b7f4e487b7100000000000000000000000000000000000000000000000000000000600052604160045260246000fd5b600080fd5b600080fd5b600080fd5b600080fd5b600080fd5b600080fd5b6000601f19601f8301169050919050565b7f437573746f6d6572206e6f7420726567697374657265642120506c656173652060008201527f7265676973746572206669727374210000000000000000000000000000000000602082015250565b7f5468652072657475726e206f6620746869732072657475726e4964206861732060008201527f6265656e20616c72656164792061756469746564210000000000000000000000602082015250565b7f4e6f207468697320747970652773206361727320617661696c61626c65206e6f60008201527f7721000000000000000000000000000000000000000000000000000000000000602082015250565b7f5468652072656e74206f6620746869732072656e74496420686173206265656e60008201527f20616c72656164792072657475726e6564210000000000000000000000000000602082015250565b7f496e7075742072656e745265636f7264496420496e7661696421000000000000600082015250565b7f4465706f73697420676976656e2068657265206973206e6f7420656e6f75676860008201527f21204465706f7369742073686f756c65206265206c6172676572207468616e2060208201527f283930202b2072656e744461797329202a206461696c7952656e740000000000604082015250565b7f496e7075742072657475726e5265636f7264496420496e766169642100000000600082015250565b7f4f6e6c79204142432063616e2063616c6c20746869732066756e6374696f6e21600082015250565b7f54686520637573746f6d65722773206164647265737320646f65736e2774206d60008201527f6174636865642100000000000000000000000000000000000000000000000000602082015250565b612909816124a3565b811461291457600080fd5b50565b612920816124eb565b811461292b57600080fd5b5056fea264697066735822122093692bf53431ef687e01d5699424ceced0cb097beea19c2d05bf53abd240deb864736f6c63430008070033",
					"opcodes": "PUSH1 0x80 PUSH1 0x40 MSTORE PUSH1 0x1 PUSH1 0x5 SSTORE PUSH1 0x1 PUSH1 0x7 SSTORE PUSH1 0x1 PUSH1 0x9 SSTORE CALLVALUE DUP1 ISZERO PUSH3 0x20 JUMPI PUSH1 0x0 DUP1 REVERT JUMPDEST POP PUSH1 0x40 MLOAD PUSH3 0x2A9D CODESIZE SUB DUP1 PUSH3 0x2A9D DUP4 CODECOPY DUP2 DUP2 ADD PUSH1 0x40 MSTORE DUP2 ADD SWAP1 PUSH3 0x46 SWAP2 SWAP1 PUSH3 0xA4 JUMP JUMPDEST DUP1 PUSH1 0x0 DUP1 PUSH2 0x100 EXP DUP2 SLOAD DUP2 PUSH20 0xFFFFFFFFFFFFFFFFFFFFFFFFFFFFFFFFFFFFFFFF MUL NOT AND SWAP1 DUP4 PUSH20 0xFFFFFFFFFFFFFFFFFFFFFFFFFFFFFFFFFFFFFFFF AND MUL OR SWAP1 SSTORE POP POP PUSH3 0x129 JUMP JUMPDEST PUSH1 0x0 DUP2 MLOAD SWAP1 POP PUSH3 0x9E DUP2 PUSH3 0x10F JUMP JUMPDEST SWAP3 SWAP2 POP POP JUMP JUMPDEST PUSH1 0x0 PUSH1 0x20 DUP3 DUP5 SUB SLT ISZERO PUSH3 0xBD JUMPI PUSH3 0xBC PUSH3 0x10A JUMP JUMPDEST JUMPDEST PUSH1 0x0 PUSH3 0xCD DUP5 DUP3 DUP6 ADD PUSH3 0x8D JUMP JUMPDEST SWAP2 POP POP SWAP3 SWAP2 POP POP JUMP JUMPDEST PUSH1 0x0 PUSH3 0xE3 DUP3 PUSH3 0xEA JUMP JUMPDEST SWAP1 POP SWAP2 SWAP1 POP JUMP JUMPDEST PUSH1 0x0 PUSH20 0xFFFFFFFFFFFFFFFFFFFFFFFFFFFFFFFFFFFFFFFF DUP3 AND SWAP1 POP SWAP2 SWAP1 POP JUMP JUMPDEST PUSH1 0x0 DUP1 REVERT JUMPDEST PUSH3 0x11A DUP2 PUSH3 0xD6 JUMP JUMPDEST DUP2 EQ PUSH3 0x126 JUMPI PUSH1 0x0 DUP1 REVERT JUMPDEST POP JUMP JUMPDEST PUSH2 0x2964 DUP1 PUSH3 0x139 PUSH1 0x0 CODECOPY PUSH1 0x0 RETURN INVALID PUSH1 0x80 PUSH1 0x40 MSTORE PUSH1 0x4 CALLDATASIZE LT PUSH2 0xF2 JUMPI PUSH1 0x0 CALLDATALOAD PUSH1 0xE0 SHR DUP1 PUSH4 0x6B93E409 GT PUSH2 0x8A JUMPI DUP1 PUSH4 0xC87DEC7A GT PUSH2 0x59 JUMPI DUP1 PUSH4 0xC87DEC7A EQ PUSH2 0x38F JUMPI DUP1 PUSH4 0xCB2ACD80 EQ PUSH2 0x3CC JUMPI DUP1 PUSH4 0xD05A0447 EQ PUSH2 0x40F JUMPI DUP1 PUSH4 0xE4962463 EQ PUSH2 0x43A JUMPI PUSH2 0xF2 JUMP JUMPDEST DUP1 PUSH4 0x6B93E409 EQ PUSH2 0x2B6 JUMPI DUP1 PUSH4 0x94FA8235 EQ PUSH2 0x2E6 JUMPI DUP1 PUSH4 0x9532007A EQ PUSH2 0x323 JUMPI DUP1 PUSH4 0xB027A759 EQ PUSH2 0x34E JUMPI PUSH2 0xF2 JUMP JUMPDEST DUP1 PUSH4 0x3A8C0E6E GT PUSH2 0xC6 JUMPI DUP1 PUSH4 0x3A8C0E6E EQ PUSH2 0x1DB JUMPI DUP1 PUSH4 0x3E7AB6A8 EQ PUSH2 0x21E JUMPI DUP1 PUSH4 0x5177D6D2 EQ PUSH2 0x24E JUMPI DUP1 PUSH4 0x586FA64D EQ PUSH2 0x279 JUMPI PUSH2 0xF2 JUMP JUMPDEST DUP1 PUSH3 0x1E4C44 EQ PUSH2 0xF7 JUMPI DUP1 PUSH4 0x958D944 EQ PUSH2 0x122 JUMPI DUP1 PUSH4 0x1049F50A EQ PUSH2 0x15F JUMPI DUP1 PUSH4 0x38266FE5 EQ PUSH2 0x19E JUMPI JUMPDEST PUSH1 0x0 DUP1 REVERT JUMPDEST CALLVALUE DUP1 ISZERO PUSH2 0x103 JUMPI PUSH1 0x0 DUP1 REVERT JUMPDEST POP PUSH2 0x10C PUSH2 0x465 JUMP JUMPDEST PUSH1 0x40 MLOAD PUSH2 0x119 SWAP2 SWAP1 PUSH2 0x21A6 JUMP JUMPDEST PUSH1 0x40 MLOAD DUP1 SWAP2 SUB SWAP1 RETURN JUMPDEST CALLVALUE DUP1 ISZERO PUSH2 0x12E JUMPI PUSH1 0x0 DUP1 REVERT JUMPDEST POP PUSH2 0x149 PUSH1 0x4 DUP1 CALLDATASIZE SUB DUP2 ADD SWAP1 PUSH2 0x144 SWAP2 SWAP1 PUSH2 0x1B0A JUMP JUMPDEST PUSH2 0x46B JUMP JUMPDEST PUSH1 0x40 MLOAD PUSH2 0x156 SWAP2 SWAP1 PUSH2 0x2184 JUMP JUMPDEST PUSH1 0x40 MLOAD DUP1 SWAP2 SUB SWAP1 RETURN JUMPDEST CALLVALUE DUP1 ISZERO PUSH2 0x16B JUMPI PUSH1 0x0 DUP1 REVERT JUMPDEST POP PUSH2 0x186 PUSH1 0x4 DUP1 CALLDATASIZE SUB DUP2 ADD SWAP1 PUSH2 0x181 SWAP2 SWAP1 PUSH2 0x1AC1 JUMP JUMPDEST PUSH2 0x9B8 JUMP JUMPDEST PUSH1 0x40 MLOAD PUSH2 0x195 SWAP4 SWAP3 SWAP2 SWAP1 PUSH2 0x1FE9 JUMP JUMPDEST PUSH1 0x40 MLOAD DUP1 SWAP2 SUB SWAP1 RETURN JUMPDEST CALLVALUE DUP1 ISZERO PUSH2 0x1AA JUMPI PUSH1 0x0 DUP1 REVERT JUMPDEST POP PUSH2 0x1C5 PUSH1 0x4 DUP1 CALLDATASIZE SUB DUP2 ADD SWAP1 PUSH2 0x1C0 SWAP2 SWAP1 PUSH2 0x1991 JUMP JUMPDEST PUSH2 0xA80 JUMP JUMPDEST PUSH1 0x40 MLOAD PUSH2 0x1D2 SWAP2 SWAP1 PUSH2 0x21A6 JUMP JUMPDEST PUSH1 0x40 MLOAD DUP1 SWAP2 SUB SWAP1 RETURN JUMPDEST CALLVALUE DUP1 ISZERO PUSH2 0x1E7 JUMPI PUSH1 0x0 DUP1 REVERT JUMPDEST POP PUSH2 0x202 PUSH1 0x4 DUP1 CALLDATASIZE SUB DUP2 ADD SWAP1 PUSH2 0x1FD SWAP2 SWAP1 PUSH2 0x1B0A JUMP JUMPDEST PUSH2 0xABB JUMP JUMPDEST PUSH1 0x40 MLOAD PUSH2 0x215 SWAP8 SWAP7 SWAP6 SWAP5 SWAP4 SWAP3 SWAP2 SWAP1 PUSH2 0x2237 JUMP JUMPDEST PUSH1 0x40 MLOAD DUP1 SWAP2 SUB SWAP1 RETURN JUMPDEST PUSH2 0x238 PUSH1 0x4 DUP1 CALLDATASIZE SUB DUP2 ADD SWAP1 PUSH2 0x233 SWAP2 SWAP1 PUSH2 0x1B37 JUMP JUMPDEST PUSH2 0xBA5 JUMP JUMPDEST PUSH1 0x40 MLOAD PUSH2 0x245 SWAP2 SWAP1 PUSH2 0x2147 JUMP JUMPDEST PUSH1 0x40 MLOAD DUP1 SWAP2 SUB SWAP1 RETURN JUMPDEST CALLVALUE DUP1 ISZERO PUSH2 0x25A JUMPI PUSH1 0x0 DUP1 REVERT JUMPDEST POP PUSH2 0x263 PUSH2 0xEFD JUMP JUMPDEST PUSH1 0x40 MLOAD PUSH2 0x270 SWAP2 SWAP1 PUSH2 0x21A6 JUMP JUMPDEST PUSH1 0x40 MLOAD DUP1 SWAP2 SUB SWAP1 RETURN JUMPDEST CALLVALUE DUP1 ISZERO PUSH2 0x285 JUMPI PUSH1 0x0 DUP1 REVERT JUMPDEST POP PUSH2 0x2A0 PUSH1 0x4 DUP1 CALLDATASIZE SUB DUP2 ADD SWAP1 PUSH2 0x29B SWAP2 SWAP1 PUSH2 0x1AC1 JUMP JUMPDEST PUSH2 0xF03 JUMP JUMPDEST PUSH1 0x40 MLOAD PUSH2 0x2AD SWAP2 SWAP1 PUSH2 0x21A6 JUMP JUMPDEST PUSH1 0x40 MLOAD DUP1 SWAP2 SUB SWAP1 RETURN JUMPDEST PUSH2 0x2D0 PUSH1 0x4 DUP1 CALLDATASIZE SUB DUP2 ADD SWAP1 PUSH2 0x2CB SWAP2 SWAP1 PUSH2 0x19ED JUMP JUMPDEST PUSH2 0xF31 JUMP JUMPDEST PUSH1 0x40 MLOAD PUSH2 0x2DD SWAP2 SWAP1 PUSH2 0x2162 JUMP JUMPDEST PUSH1 0x40 MLOAD DUP1 SWAP2 SUB SWAP1 RETURN JUMPDEST CALLVALUE DUP1 ISZERO PUSH2 0x2F2 JUMPI PUSH1 0x0 DUP1 REVERT JUMPDEST POP PUSH2 0x30D PUSH1 0x4 DUP1 CALLDATASIZE SUB DUP2 ADD SWAP1 PUSH2 0x308 SWAP2 SWAP1 PUSH2 0x1A4D JUMP JUMPDEST PUSH2 0x1369 JUMP JUMPDEST PUSH1 0x40 MLOAD PUSH2 0x31A SWAP2 SWAP1 PUSH2 0x1FCE JUMP JUMPDEST PUSH1 0x40 MLOAD DUP1 SWAP2 SUB SWAP1 RETURN JUMPDEST CALLVALUE DUP1 ISZERO PUSH2 0x32F JUMPI PUSH1 0x0 DUP1 REVERT JUMPDEST POP PUSH2 0x338 PUSH2 0x14FC JUMP JUMPDEST PUSH1 0x40 MLOAD PUSH2 0x345 SWAP2 SWAP1 PUSH2 0x21A6 JUMP JUMPDEST PUSH1 0x40 MLOAD DUP1 SWAP2 SUB SWAP1 RETURN JUMPDEST CALLVALUE DUP1 ISZERO PUSH2 0x35A JUMPI PUSH1 0x0 DUP1 REVERT JUMPDEST POP PUSH2 0x375 PUSH1 0x4 DUP1 CALLDATASIZE SUB DUP2 ADD SWAP1 PUSH2 0x370 SWAP2 SWAP1 PUSH2 0x1B0A JUMP JUMPDEST PUSH2 0x1502 JUMP JUMPDEST PUSH1 0x40 MLOAD PUSH2 0x386 SWAP6 SWAP5 SWAP4 SWAP3 SWAP2 SWAP1 PUSH2 0x22AD JUMP JUMPDEST PUSH1 0x40 MLOAD DUP1 SWAP2 SUB SWAP1 RETURN JUMPDEST CALLVALUE DUP1 ISZERO PUSH2 0x39B JUMPI PUSH1 0x0 DUP1 REVERT JUMPDEST POP PUSH2 0x3B6 PUSH1 0x4 DUP1 CALLDATASIZE SUB DUP2 ADD SWAP1 PUSH2 0x3B1 SWAP2 SWAP1 PUSH2 0x1964 JUMP JUMPDEST PUSH2 0x1558 JUMP JUMPDEST PUSH1 0x40 MLOAD PUSH2 0x3C3 SWAP2 SWAP1 PUSH2 0x1FCE JUMP JUMPDEST PUSH1 0x40 MLOAD DUP1 SWAP2 SUB SWAP1 RETURN JUMPDEST CALLVALUE DUP1 ISZERO PUSH2 0x3D8 JUMPI PUSH1 0x0 DUP1 REVERT JUMPDEST POP PUSH2 0x3F3 PUSH1 0x4 DUP1 CALLDATASIZE SUB DUP2 ADD SWAP1 PUSH2 0x3EE SWAP2 SWAP1 PUSH2 0x1B0A JUMP JUMPDEST PUSH2 0x1578 JUMP JUMPDEST PUSH1 0x40 MLOAD PUSH2 0x406 SWAP8 SWAP7 SWAP6 SWAP5 SWAP4 SWAP3 SWAP2 SWAP1 PUSH2 0x21C1 JUMP JUMPDEST PUSH1 0x40 MLOAD DUP1 SWAP2 SUB SWAP1 RETURN JUMPDEST CALLVALUE DUP1 ISZERO PUSH2 0x41B JUMPI PUSH1 0x0 DUP1 REVERT JUMPDEST POP PUSH2 0x424 PUSH2 0x1662 JUMP JUMPDEST PUSH1 0x40 MLOAD PUSH2 0x431 SWAP2 SWAP1 PUSH2 0x1FB3 JUMP JUMPDEST PUSH1 0x40 MLOAD DUP1 SWAP2 SUB SWAP1 RETURN JUMPDEST CALLVALUE DUP1 ISZERO PUSH2 0x446 JUMPI PUSH1 0x0 DUP1 REVERT JUMPDEST POP PUSH2 0x44F PUSH2 0x1686 JUMP JUMPDEST PUSH1 0x40 MLOAD PUSH2 0x45C SWAP2 SWAP1 PUSH2 0x1FCE JUMP JUMPDEST PUSH1 0x40 MLOAD DUP1 SWAP2 SUB SWAP1 RETURN JUMPDEST PUSH1 0x9 SLOAD DUP2 JUMP JUMPDEST PUSH2 0x473 PUSH2 0x16E6 JUMP JUMPDEST PUSH1 0x1 ISZERO ISZERO PUSH1 0x1 PUSH1 0x0 CALLER PUSH20 0xFFFFFFFFFFFFFFFFFFFFFFFFFFFFFFFFFFFFFFFF AND PUSH20 0xFFFFFFFFFFFFFFFFFFFFFFFFFFFFFFFFFFFFFFFF AND DUP2 MSTORE PUSH1 0x20 ADD SWAP1 DUP2 MSTORE PUSH1 0x20 ADD PUSH1 0x0 KECCAK256 PUSH1 0x0 SWAP1 SLOAD SWAP1 PUSH2 0x100 EXP SWAP1 DIV PUSH1 0xFF AND ISZERO ISZERO EQ PUSH2 0x506 JUMPI PUSH1 0x40 MLOAD PUSH32 0x8C379A000000000000000000000000000000000000000000000000000000000 DUP2 MSTORE PUSH1 0x4 ADD PUSH2 0x4FD SWAP1 PUSH2 0x2027 JUMP JUMPDEST PUSH1 0x40 MLOAD DUP1 SWAP2 SUB SWAP1 REVERT JUMPDEST PUSH1 0x5 SLOAD DUP3 GT ISZERO DUP1 ISZERO PUSH2 0x518 JUMPI POP PUSH1 0x0 DUP3 GT JUMPDEST PUSH2 0x557 JUMPI PUSH1 0x40 MLOAD PUSH32 0x8C379A000000000000000000000000000000000000000000000000000000000 DUP2 MSTORE PUSH1 0x4 ADD PUSH2 0x54E SWAP1 PUSH2 0x20A7 JUMP JUMPDEST PUSH1 0x40 MLOAD DUP1 SWAP2 SUB SWAP1 REVERT JUMPDEST PUSH1 0x6 PUSH1 0x0 DUP4 DUP2 MSTORE PUSH1 0x20 ADD SWAP1 DUP2 MSTORE PUSH1 0x20 ADD PUSH1 0x0 KECCAK256 PUSH1 0x1 ADD PUSH1 0x0 SWAP1 SLOAD SWAP1 PUSH2 0x100 EXP SWAP1 DIV PUSH20 0xFFFFFFFFFFFFFFFFFFFFFFFFFFFFFFFFFFFFFFFF AND PUSH20 0xFFFFFFFFFFFFFFFFFFFFFFFFFFFFFFFFFFFFFFFF AND CALLER PUSH20 0xFFFFFFFFFFFFFFFFFFFFFFFFFFFFFFFFFFFFFFFF AND EQ PUSH2 0x5FB JUMPI PUSH1 0x40 MLOAD PUSH32 0x8C379A000000000000000000000000000000000000000000000000000000000 DUP2 MSTORE PUSH1 0x4 ADD PUSH2 0x5F2 SWAP1 PUSH2 0x2127 JUMP JUMPDEST PUSH1 0x40 MLOAD DUP1 SWAP2 SUB SWAP1 REVERT JUMPDEST PUSH32 0xFFFFFFFFFFFFFFFFFFFFFFFFFFFFFFFFFFFFFFFFFFFFFFFFFFFFFFFFFFFFFFFF PUSH1 0x6 PUSH1 0x0 DUP5 DUP2 MSTORE PUSH1 0x20 ADD SWAP1 DUP2 MSTORE PUSH1 0x20 ADD PUSH1 0x0 KECCAK256 PUSH1 0x6 ADD SLOAD EQ PUSH2 0x673 JUMPI PUSH1 0x40 MLOAD PUSH32 0x8C379A000000000000000000000000000000000000000000000000000000000 DUP2 MSTORE PUSH1 0x4 ADD PUSH2 0x66A SWAP1 PUSH2 0x2087 JUMP JUMPDEST PUSH1 0x40 MLOAD DUP1 SWAP2 SUB SWAP1 REVERT JUMPDEST PUSH1 0x0 PUSH1 0x6 PUSH1 0x0 DUP5 DUP2 MSTORE PUSH1 0x20 ADD SWAP1 DUP2 MSTORE PUSH1 0x20 ADD PUSH1 0x0 KECCAK256 PUSH1 0x2 ADD DUP1 SLOAD PUSH2 0x696 SWAP1 PUSH2 0x2537 JUMP JUMPDEST DUP1 PUSH1 0x1F ADD PUSH1 0x20 DUP1 SWAP2 DIV MUL PUSH1 0x20 ADD PUSH1 0x40 MLOAD SWAP1 DUP2 ADD PUSH1 0x40 MSTORE DUP1 SWAP3 SWAP2 SWAP1 DUP2 DUP2 MSTORE PUSH1 0x20 ADD DUP3 DUP1 SLOAD PUSH2 0x6C2 SWAP1 PUSH2 0x2537 JUMP JUMPDEST DUP1 ISZERO PUSH2 0x70F JUMPI DUP1 PUSH1 0x1F LT PUSH2 0x6E4 JUMPI PUSH2 0x100 DUP1 DUP4 SLOAD DIV MUL DUP4 MSTORE SWAP2 PUSH1 0x20 ADD SWAP2 PUSH2 0x70F JUMP JUMPDEST DUP3 ADD SWAP2 SWAP1 PUSH1 0x0 MSTORE PUSH1 0x20 PUSH1 0x0 KECCAK256 SWAP1 JUMPDEST DUP2 SLOAD DUP2 MSTORE SWAP1 PUSH1 0x1 ADD SWAP1 PUSH1 0x20 ADD DUP1 DUP4 GT PUSH2 0x6F2 JUMPI DUP3 SWAP1 SUB PUSH1 0x1F AND DUP3 ADD SWAP2 JUMPDEST POP POP POP POP POP SWAP1 POP PUSH1 0x0 PUSH1 0x6 PUSH1 0x0 DUP6 DUP2 MSTORE PUSH1 0x20 ADD SWAP1 DUP2 MSTORE PUSH1 0x20 ADD PUSH1 0x0 KECCAK256 PUSH1 0x5 ADD SLOAD SWAP1 POP PUSH1 0x1 PUSH1 0x2 PUSH1 0x0 CALLER PUSH20 0xFFFFFFFFFFFFFFFFFFFFFFFFFFFFFFFFFFFFFFFF AND PUSH20 0xFFFFFFFFFFFFFFFFFFFFFFFFFFFFFFFFFFFFFFFF AND DUP2 MSTORE PUSH1 0x20 ADD SWAP1 DUP2 MSTORE PUSH1 0x20 ADD PUSH1 0x0 KECCAK256 DUP4 PUSH1 0x40 MLOAD PUSH2 0x780 SWAP2 SWAP1 PUSH2 0x1F9C JUMP JUMPDEST SWAP1 DUP2 MSTORE PUSH1 0x20 ADD PUSH1 0x40 MLOAD DUP1 SWAP2 SUB SWAP1 KECCAK256 PUSH1 0x0 DUP3 DUP3 SLOAD PUSH2 0x79D SWAP2 SWAP1 PUSH2 0x246F JUMP JUMPDEST SWAP3 POP POP DUP2 SWAP1 SSTORE POP PUSH1 0x1 PUSH1 0x4 DUP4 PUSH1 0x40 MLOAD PUSH2 0x7B6 SWAP2 SWAP1 PUSH2 0x1F9C JUMP JUMPDEST SWAP1 DUP2 MSTORE PUSH1 0x20 ADD PUSH1 0x40 MLOAD DUP1 SWAP2 SUB SWAP1 KECCAK256 PUSH1 0x0 DUP3 DUP3 SLOAD PUSH2 0x7D3 SWAP2 SWAP1 PUSH2 0x238E JUMP JUMPDEST SWAP3 POP POP DUP2 SWAP1 SSTORE POP PUSH1 0x0 TIMESTAMP SWAP1 POP PUSH1 0x0 DUP3 DUP3 PUSH2 0x7ED SWAP2 SWAP1 PUSH2 0x246F JUMP JUMPDEST SWAP1 POP PUSH1 0x0 PUSH1 0x1 PUSH1 0x18 PUSH1 0x3C DUP1 DUP6 PUSH2 0x803 SWAP2 SWAP1 PUSH2 0x23E4 JUMP JUMPDEST PUSH2 0x80D SWAP2 SWAP1 PUSH2 0x23E4 JUMP JUMPDEST PUSH2 0x817 SWAP2 SWAP1 PUSH2 0x23E4 JUMP JUMPDEST PUSH2 0x821 SWAP2 SWAP1 PUSH2 0x238E JUMP JUMPDEST SWAP1 POP PUSH1 0x0 PUSH1 0x3 DUP7 PUSH1 0x40 MLOAD PUSH2 0x835 SWAP2 SWAP1 PUSH2 0x1F9C JUMP JUMPDEST SWAP1 DUP2 MSTORE PUSH1 0x20 ADD PUSH1 0x40 MLOAD DUP1 SWAP2 SUB SWAP1 KECCAK256 PUSH1 0x2 ADD SLOAD DUP3 PUSH2 0x852 SWAP2 SWAP1 PUSH2 0x2415 JUMP JUMPDEST SWAP1 POP PUSH1 0x0 PUSH1 0x40 MLOAD DUP1 PUSH1 0xE0 ADD PUSH1 0x40 MSTORE DUP1 PUSH1 0x7 SLOAD DUP2 MSTORE PUSH1 0x20 ADD DUP11 DUP2 MSTORE PUSH1 0x20 ADD CALLER PUSH20 0xFFFFFFFFFFFFFFFFFFFFFFFFFFFFFFFFFFFFFFFF AND DUP2 MSTORE PUSH1 0x20 ADD DUP9 DUP2 MSTORE PUSH1 0x20 ADD DUP7 DUP2 MSTORE PUSH1 0x20 ADD DUP4 DUP2 MSTORE PUSH1 0x20 ADD PUSH32 0xFFFFFFFFFFFFFFFFFFFFFFFFFFFFFFFFFFFFFFFFFFFFFFFFFFFFFFFFFFFFFFFF DUP2 MSTORE POP SWAP1 POP DUP1 PUSH1 0x8 PUSH1 0x0 PUSH1 0x7 SLOAD DUP2 MSTORE PUSH1 0x20 ADD SWAP1 DUP2 MSTORE PUSH1 0x20 ADD PUSH1 0x0 KECCAK256 PUSH1 0x0 DUP3 ADD MLOAD DUP2 PUSH1 0x0 ADD SSTORE PUSH1 0x20 DUP3 ADD MLOAD DUP2 PUSH1 0x1 ADD SSTORE PUSH1 0x40 DUP3 ADD MLOAD DUP2 PUSH1 0x2 ADD PUSH1 0x0 PUSH2 0x100 EXP DUP2 SLOAD DUP2 PUSH20 0xFFFFFFFFFFFFFFFFFFFFFFFFFFFFFFFFFFFFFFFF MUL NOT AND SWAP1 DUP4 PUSH20 0xFFFFFFFFFFFFFFFFFFFFFFFFFFFFFFFFFFFFFFFF AND MUL OR SWAP1 SSTORE POP PUSH1 0x60 DUP3 ADD MLOAD DUP2 PUSH1 0x3 ADD SWAP1 DUP1 MLOAD SWAP1 PUSH1 0x20 ADD SWAP1 PUSH2 0x950 SWAP3 SWAP2 SWAP1 PUSH2 0x1739 JUMP JUMPDEST POP PUSH1 0x80 DUP3 ADD MLOAD DUP2 PUSH1 0x4 ADD SSTORE PUSH1 0xA0 DUP3 ADD MLOAD DUP2 PUSH1 0x5 ADD SSTORE PUSH1 0xC0 DUP3 ADD MLOAD DUP2 PUSH1 0x6 ADD SSTORE SWAP1 POP POP PUSH1 0x7 SLOAD PUSH1 0x6 PUSH1 0x0 DUP12 DUP2 MSTORE PUSH1 0x20 ADD SWAP1 DUP2 MSTORE PUSH1 0x20 ADD PUSH1 0x0 KECCAK256 PUSH1 0x6 ADD DUP2 SWAP1 SSTORE POP PUSH1 0x1 PUSH1 0x7 PUSH1 0x0 DUP3 DUP3 SLOAD PUSH2 0x9A2 SWAP2 SWAP1 PUSH2 0x238E JUMP JUMPDEST SWAP3 POP POP DUP2 SWAP1 SSTORE POP DUP1 SWAP8 POP POP POP POP POP POP POP POP SWAP2 SWAP1 POP JUMP JUMPDEST PUSH1 0x3 DUP2 DUP1 MLOAD PUSH1 0x20 DUP2 ADD DUP3 ADD DUP1 MLOAD DUP5 DUP3 MSTORE PUSH1 0x20 DUP4 ADD PUSH1 0x20 DUP6 ADD KECCAK256 DUP2 DUP4 MSTORE DUP1 SWAP6 POP POP POP POP POP POP PUSH1 0x0 SWAP2 POP SWAP1 POP DUP1 PUSH1 0x0 ADD DUP1 SLOAD PUSH2 0x9F1 SWAP1 PUSH2 0x2537 JUMP JUMPDEST DUP1 PUSH1 0x1F ADD PUSH1 0x20 DUP1 SWAP2 DIV MUL PUSH1 0x20 ADD PUSH1 0x40 MLOAD SWAP1 DUP2 ADD PUSH1 0x40 MSTORE DUP1 SWAP3 SWAP2 SWAP1 DUP2 DUP2 MSTORE PUSH1 0x20 ADD DUP3 DUP1 SLOAD PUSH2 0xA1D SWAP1 PUSH2 0x2537 JUMP JUMPDEST DUP1 ISZERO PUSH2 0xA6A JUMPI DUP1 PUSH1 0x1F LT PUSH2 0xA3F JUMPI PUSH2 0x100 DUP1 DUP4 SLOAD DIV MUL DUP4 MSTORE SWAP2 PUSH1 0x20 ADD SWAP2 PUSH2 0xA6A JUMP JUMPDEST DUP3 ADD SWAP2 SWAP1 PUSH1 0x0 MSTORE PUSH1 0x20 PUSH1 0x0 KECCAK256 SWAP1 JUMPDEST DUP2 SLOAD DUP2 MSTORE SWAP1 PUSH1 0x1 ADD SWAP1 PUSH1 0x20 ADD DUP1 DUP4 GT PUSH2 0xA4D JUMPI DUP3 SWAP1 SUB PUSH1 0x1F AND DUP3 ADD SWAP2 JUMPDEST POP POP POP POP POP SWAP1 DUP1 PUSH1 0x1 ADD SLOAD SWAP1 DUP1 PUSH1 0x2 ADD SLOAD SWAP1 POP DUP4 JUMP JUMPDEST PUSH1 0x2 PUSH1 0x20 MSTORE DUP2 PUSH1 0x0 MSTORE PUSH1 0x40 PUSH1 0x0 KECCAK256 DUP2 DUP1 MLOAD PUSH1 0x20 DUP2 ADD DUP3 ADD DUP1 MLOAD DUP5 DUP3 MSTORE PUSH1 0x20 DUP4 ADD PUSH1 0x20 DUP6 ADD KECCAK256 DUP2 DUP4 MSTORE DUP1 SWAP6 POP POP POP POP POP POP PUSH1 0x0 SWAP2 POP SWAP2 POP POP SLOAD DUP2 JUMP JUMPDEST PUSH1 0x8 PUSH1 0x20 MSTORE DUP1 PUSH1 0x0 MSTORE PUSH1 0x40 PUSH1 0x0 KECCAK256 PUSH1 0x0 SWAP2 POP SWAP1 POP DUP1 PUSH1 0x0 ADD SLOAD SWAP1 DUP1 PUSH1 0x1 ADD SLOAD SWAP1 DUP1 PUSH1 0x2 ADD PUSH1 0x0 SWAP1 SLOAD SWAP1 PUSH2 0x100 EXP SWAP1 DIV PUSH20 0xFFFFFFFFFFFFFFFFFFFFFFFFFFFFFFFFFFFFFFFF AND SWAP1 DUP1 PUSH1 0x3 ADD DUP1 SLOAD PUSH2 0xB10 SWAP1 PUSH2 0x2537 JUMP JUMPDEST DUP1 PUSH1 0x1F ADD PUSH1 0x20 DUP1 SWAP2 DIV MUL PUSH1 0x20 ADD PUSH1 0x40 MLOAD SWAP1 DUP2 ADD PUSH1 0x40 MSTORE DUP1 SWAP3 SWAP2 SWAP1 DUP2 DUP2 MSTORE PUSH1 0x20 ADD DUP3 DUP1 SLOAD PUSH2 0xB3C SWAP1 PUSH2 0x2537 JUMP JUMPDEST DUP1 ISZERO PUSH2 0xB89 JUMPI DUP1 PUSH1 0x1F LT PUSH2 0xB5E JUMPI PUSH2 0x100 DUP1 DUP4 SLOAD DIV MUL DUP4 MSTORE SWAP2 PUSH1 0x20 ADD SWAP2 PUSH2 0xB89 JUMP JUMPDEST DUP3 ADD SWAP2 SWAP1 PUSH1 0x0 MSTORE PUSH1 0x20 PUSH1 0x0 KECCAK256 SWAP1 JUMPDEST DUP2 SLOAD DUP2 MSTORE SWAP1 PUSH1 0x1 ADD SWAP1 PUSH1 0x20 ADD DUP1 DUP4 GT PUSH2 0xB6C JUMPI DUP3 SWAP1 SUB PUSH1 0x1F AND DUP3 ADD SWAP2 JUMPDEST POP POP POP POP POP SWAP1 DUP1 PUSH1 0x4 ADD SLOAD SWAP1 DUP1 PUSH1 0x5 ADD SLOAD SWAP1 DUP1 PUSH1 0x6 ADD SLOAD SWAP1 POP DUP8 JUMP JUMPDEST PUSH2 0xBAD PUSH2 0x17BF JUMP JUMPDEST PUSH1 0x0 DUP1 SLOAD SWAP1 PUSH2 0x100 EXP SWAP1 DIV PUSH20 0xFFFFFFFFFFFFFFFFFFFFFFFFFFFFFFFFFFFFFFFF AND PUSH20 0xFFFFFFFFFFFFFFFFFFFFFFFFFFFFFFFFFFFFFFFF AND CALLER PUSH20 0xFFFFFFFFFFFFFFFFFFFFFFFFFFFFFFFFFFFFFFFF AND EQ PUSH2 0xC3B JUMPI PUSH1 0x40 MLOAD PUSH32 0x8C379A000000000000000000000000000000000000000000000000000000000 DUP2 MSTORE PUSH1 0x4 ADD PUSH2 0xC32 SWAP1 PUSH2 0x2107 JUMP JUMPDEST PUSH1 0x40 MLOAD DUP1 SWAP2 SUB SWAP1 REVERT JUMPDEST PUSH1 0x7 SLOAD DUP4 GT ISZERO DUP1 ISZERO PUSH2 0xC4D JUMPI POP PUSH1 0x0 DUP4 GT JUMPDEST PUSH2 0xC8C JUMPI PUSH1 0x40 MLOAD PUSH32 0x8C379A000000000000000000000000000000000000000000000000000000000 DUP2 MSTORE PUSH1 0x4 ADD PUSH2 0xC83 SWAP1 PUSH2 0x20E7 JUMP JUMPDEST PUSH1 0x40 MLOAD DUP1 SWAP2 SUB SWAP1 REVERT JUMPDEST PUSH32 0xFFFFFFFFFFFFFFFFFFFFFFFFFFFFFFFFFFFFFFFFFFFFFFFFFFFFFFFFFFFFFFFF PUSH1 0x8 PUSH1 0x0 DUP6 DUP2 MSTORE PUSH1 0x20 ADD SWAP1 DUP2 MSTORE PUSH1 0x20 ADD PUSH1 0x0 KECCAK256 PUSH1 0x6 ADD SLOAD EQ PUSH2 0xD04 JUMPI PUSH1 0x40 MLOAD PUSH32 0x8C379A000000000000000000000000000000000000000000000000000000000 DUP2 MSTORE PUSH1 0x4 ADD PUSH2 0xCFB SWAP1 PUSH2 0x2047 JUMP JUMPDEST PUSH1 0x40 MLOAD DUP1 SWAP2 SUB SWAP1 REVERT JUMPDEST PUSH1 0x0 PUSH1 0x8 PUSH1 0x0 DUP6 DUP2 MSTORE PUSH1 0x20 ADD SWAP1 DUP2 MSTORE PUSH1 0x20 ADD PUSH1 0x0 KECCAK256 PUSH1 0x2 ADD PUSH1 0x0 SWAP1 SLOAD SWAP1 PUSH2 0x100 EXP SWAP1 DIV PUSH20 0xFFFFFFFFFFFFFFFFFFFFFFFFFFFFFFFFFFFFFFFF AND SWAP1 POP PUSH1 0x0 PUSH1 0x6 PUSH1 0x0 PUSH1 0x8 PUSH1 0x0 DUP9 DUP2 MSTORE PUSH1 0x20 ADD SWAP1 DUP2 MSTORE PUSH1 0x20 ADD PUSH1 0x0 KECCAK256 PUSH1 0x1 ADD SLOAD DUP2 MSTORE PUSH1 0x20 ADD SWAP1 DUP2 MSTORE PUSH1 0x20 ADD PUSH1 0x0 KECCAK256 PUSH1 0x4 ADD SLOAD SWAP1 POP PUSH1 0x0 PUSH1 0x8 PUSH1 0x0 DUP8 DUP2 MSTORE PUSH1 0x20 ADD SWAP1 DUP2 MSTORE PUSH1 0x20 ADD PUSH1 0x0 KECCAK256 PUSH1 0x5 ADD SLOAD SWAP1 POP PUSH1 0x0 DUP6 DUP3 DUP5 PUSH2 0xD9A SWAP2 SWAP1 PUSH2 0x246F JUMP JUMPDEST PUSH2 0xDA4 SWAP2 SWAP1 PUSH2 0x246F JUMP JUMPDEST SWAP1 POP DUP4 PUSH20 0xFFFFFFFFFFFFFFFFFFFFFFFFFFFFFFFFFFFFFFFF AND PUSH2 0x8FC DUP3 SWAP1 DUP2 ISZERO MUL SWAP1 PUSH1 0x40 MLOAD PUSH1 0x0 PUSH1 0x40 MLOAD DUP1 DUP4 SUB DUP2 DUP6 DUP9 DUP9 CALL SWAP4 POP POP POP POP ISZERO DUP1 ISZERO PUSH2 0xDEC JUMPI RETURNDATASIZE PUSH1 0x0 DUP1 RETURNDATACOPY RETURNDATASIZE PUSH1 0x0 REVERT JUMPDEST POP PUSH1 0x0 PUSH1 0x40 MLOAD DUP1 PUSH1 0xA0 ADD PUSH1 0x40 MSTORE DUP1 PUSH1 0x9 SLOAD DUP2 MSTORE PUSH1 0x20 ADD DUP10 DUP2 MSTORE PUSH1 0x20 ADD DUP7 PUSH20 0xFFFFFFFFFFFFFFFFFFFFFFFFFFFFFFFFFFFFFFFF AND DUP2 MSTORE PUSH1 0x20 ADD DUP9 DUP2 MSTORE PUSH1 0x20 ADD DUP4 DUP2 MSTORE POP SWAP1 POP DUP1 PUSH1 0xA PUSH1 0x0 PUSH1 0x9 SLOAD DUP2 MSTORE PUSH1 0x20 ADD SWAP1 DUP2 MSTORE PUSH1 0x20 ADD PUSH1 0x0 KECCAK256 PUSH1 0x0 DUP3 ADD MLOAD DUP2 PUSH1 0x0 ADD SSTORE PUSH1 0x20 DUP3 ADD MLOAD DUP2 PUSH1 0x1 ADD SSTORE PUSH1 0x40 DUP3 ADD MLOAD DUP2 PUSH1 0x2 ADD PUSH1 0x0 PUSH2 0x100 EXP DUP2 SLOAD DUP2 PUSH20 0xFFFFFFFFFFFFFFFFFFFFFFFFFFFFFFFFFFFFFFFF MUL NOT AND SWAP1 DUP4 PUSH20 0xFFFFFFFFFFFFFFFFFFFFFFFFFFFFFFFFFFFFFFFF AND MUL OR SWAP1 SSTORE POP PUSH1 0x60 DUP3 ADD MLOAD DUP2 PUSH1 0x3 ADD SSTORE PUSH1 0x80 DUP3 ADD MLOAD DUP2 PUSH1 0x4 ADD SSTORE SWAP1 POP POP PUSH1 0x9 SLOAD PUSH1 0x8 PUSH1 0x0 DUP11 DUP2 MSTORE PUSH1 0x20 ADD SWAP1 DUP2 MSTORE PUSH1 0x20 ADD PUSH1 0x0 KECCAK256 PUSH1 0x6 ADD DUP2 SWAP1 SSTORE POP PUSH1 0x1 PUSH1 0x9 PUSH1 0x0 DUP3 DUP3 SLOAD PUSH2 0xEE8 SWAP2 SWAP1 PUSH2 0x238E JUMP JUMPDEST SWAP3 POP POP DUP2 SWAP1 SSTORE POP DUP1 SWAP6 POP POP POP POP POP POP SWAP3 SWAP2 POP POP JUMP JUMPDEST PUSH1 0x7 SLOAD DUP2 JUMP JUMPDEST PUSH1 0x4 DUP2 DUP1 MLOAD PUSH1 0x20 DUP2 ADD DUP3 ADD DUP1 MLOAD DUP5 DUP3 MSTORE PUSH1 0x20 DUP4 ADD PUSH1 0x20 DUP6 ADD KECCAK256 DUP2 DUP4 MSTORE DUP1 SWAP6 POP POP POP POP POP POP PUSH1 0x0 SWAP2 POP SWAP1 POP SLOAD DUP2 JUMP JUMPDEST PUSH2 0xF39 PUSH2 0x1804 JUMP JUMPDEST PUSH1 0x1 ISZERO ISZERO PUSH1 0x1 PUSH1 0x0 CALLER PUSH20 0xFFFFFFFFFFFFFFFFFFFFFFFFFFFFFFFFFFFFFFFF AND PUSH20 0xFFFFFFFFFFFFFFFFFFFFFFFFFFFFFFFFFFFFFFFF AND DUP2 MSTORE PUSH1 0x20 ADD SWAP1 DUP2 MSTORE PUSH1 0x20 ADD PUSH1 0x0 KECCAK256 PUSH1 0x0 SWAP1 SLOAD SWAP1 PUSH2 0x100 EXP SWAP1 DIV PUSH1 0xFF AND ISZERO ISZERO EQ PUSH2 0xFCC JUMPI PUSH1 0x40 MLOAD PUSH32 0x8C379A000000000000000000000000000000000000000000000000000000000 DUP2 MSTORE PUSH1 0x4 ADD PUSH2 0xFC3 SWAP1 PUSH2 0x2027 JUMP JUMPDEST PUSH1 0x40 MLOAD DUP1 SWAP2 SUB SWAP1 REVERT JUMPDEST PUSH1 0x0 PUSH1 0x4 DUP6 DUP6 PUSH1 0x40 MLOAD PUSH2 0xFE0 SWAP3 SWAP2 SWAP1 PUSH2 0x1F83 JUMP JUMPDEST SWAP1 DUP2 MSTORE PUSH1 0x20 ADD PUSH1 0x40 MLOAD DUP1 SWAP2 SUB SWAP1 KECCAK256 SLOAD GT PUSH2 0x102F JUMPI PUSH1 0x40 MLOAD PUSH32 0x8C379A000000000000000000000000000000000000000000000000000000000 DUP2 MSTORE PUSH1 0x4 ADD PUSH2 0x1026 SWAP1 PUSH2 0x2067 JUMP JUMPDEST PUSH1 0x40 MLOAD DUP1 SWAP2 SUB SWAP1 REVERT JUMPDEST PUSH1 0x3 DUP5 DUP5 PUSH1 0x40 MLOAD PUSH2 0x1041 SWAP3 SWAP2 SWAP1 PUSH2 0x1F83 JUMP JUMPDEST SWAP1 DUP2 MSTORE PUSH1 0x20 ADD PUSH1 0x40 MLOAD DUP1 SWAP2 SUB SWAP1 KECCAK256 PUSH1 0x2 ADD SLOAD DUP3 PUSH2 0x105E SWAP2 SWAP1 PUSH2 0x2415 JUMP JUMPDEST PUSH1 0x3 DUP6 DUP6 PUSH1 0x40 MLOAD PUSH2 0x1070 SWAP3 SWAP2 SWAP1 PUSH2 0x1F83 JUMP JUMPDEST SWAP1 DUP2 MSTORE PUSH1 0x20 ADD PUSH1 0x40 MLOAD DUP1 SWAP2 SUB SWAP1 KECCAK256 PUSH1 0x1 ADD SLOAD PUSH2 0x108C SWAP2 SWAP1 PUSH2 0x238E JUMP JUMPDEST CALLVALUE LT ISZERO PUSH2 0x10CE JUMPI PUSH1 0x40 MLOAD PUSH32 0x8C379A000000000000000000000000000000000000000000000000000000000 DUP2 MSTORE PUSH1 0x4 ADD PUSH2 0x10C5 SWAP1 PUSH2 0x20C7 JUMP JUMPDEST PUSH1 0x40 MLOAD DUP1 SWAP2 SUB SWAP1 REVERT JUMPDEST PUSH1 0x1 PUSH1 0x2 PUSH1 0x0 CALLER PUSH20 0xFFFFFFFFFFFFFFFFFFFFFFFFFFFFFFFFFFFFFFFF AND PUSH20 0xFFFFFFFFFFFFFFFFFFFFFFFFFFFFFFFFFFFFFFFF AND DUP2 MSTORE PUSH1 0x20 ADD SWAP1 DUP2 MSTORE PUSH1 0x20 ADD PUSH1 0x0 KECCAK256 DUP6 DUP6 PUSH1 0x40 MLOAD PUSH2 0x111F SWAP3 SWAP2 SWAP1 PUSH2 0x1F83 JUMP JUMPDEST SWAP1 DUP2 MSTORE PUSH1 0x20 ADD PUSH1 0x40 MLOAD DUP1 SWAP2 SUB SWAP1 KECCAK256 PUSH1 0x0 DUP3 DUP3 SLOAD PUSH2 0x113C SWAP2 SWAP1 PUSH2 0x238E JUMP JUMPDEST SWAP3 POP POP DUP2 SWAP1 SSTORE POP PUSH1 0x1 PUSH1 0x4 DUP6 DUP6 PUSH1 0x40 MLOAD PUSH2 0x1157 SWAP3 SWAP2 SWAP1 PUSH2 0x1F83 JUMP JUMPDEST SWAP1 DUP2 MSTORE PUSH1 0x20 ADD PUSH1 0x40 MLOAD DUP1 SWAP2 SUB SWAP1 KECCAK256 PUSH1 0x0 DUP3 DUP3 SLOAD PUSH2 0x1174 SWAP2 SWAP1 PUSH2 0x246F JUMP JUMPDEST SWAP3 POP POP DUP2 SWAP1 SSTORE POP PUSH1 0x0 PUSH1 0x40 MLOAD DUP1 PUSH1 0xE0 ADD PUSH1 0x40 MSTORE DUP1 PUSH1 0x5 SLOAD DUP2 MSTORE PUSH1 0x20 ADD CALLER PUSH20 0xFFFFFFFFFFFFFFFFFFFFFFFFFFFFFFFFFFFFFFFF AND DUP2 MSTORE PUSH1 0x20 ADD DUP7 DUP7 DUP1 DUP1 PUSH1 0x1F ADD PUSH1 0x20 DUP1 SWAP2 DIV MUL PUSH1 0x20 ADD PUSH1 0x40 MLOAD SWAP1 DUP2 ADD PUSH1 0x40 MSTORE DUP1 SWAP4 SWAP3 SWAP2 SWAP1 DUP2 DUP2 MSTORE PUSH1 0x20 ADD DUP4 DUP4 DUP1 DUP3 DUP5 CALLDATACOPY PUSH1 0x0 DUP2 DUP5 ADD MSTORE PUSH1 0x1F NOT PUSH1 0x1F DUP3 ADD AND SWAP1 POP DUP1 DUP4 ADD SWAP3 POP POP POP POP POP POP POP DUP2 MSTORE PUSH1 0x20 ADD DUP5 DUP2 MSTORE PUSH1 0x20 ADD CALLVALUE DUP2 MSTORE PUSH1 0x20 ADD TIMESTAMP DUP2 MSTORE PUSH1 0x20 ADD PUSH32 0xFFFFFFFFFFFFFFFFFFFFFFFFFFFFFFFFFFFFFFFFFFFFFFFFFFFFFFFFFFFFFFFF DUP2 MSTORE POP SWAP1 POP DUP1 PUSH1 0x6 PUSH1 0x0 PUSH1 0x5 SLOAD DUP2 MSTORE PUSH1 0x20 ADD SWAP1 DUP2 MSTORE PUSH1 0x20 ADD PUSH1 0x0 KECCAK256 PUSH1 0x0 DUP3 ADD MLOAD DUP2 PUSH1 0x0 ADD SSTORE PUSH1 0x20 DUP3 ADD MLOAD DUP2 PUSH1 0x1 ADD PUSH1 0x0 PUSH2 0x100 EXP DUP2 SLOAD DUP2 PUSH20 0xFFFFFFFFFFFFFFFFFFFFFFFFFFFFFFFFFFFFFFFF MUL NOT AND SWAP1 DUP4 PUSH20 0xFFFFFFFFFFFFFFFFFFFFFFFFFFFFFFFFFFFFFFFF AND MUL OR SWAP1 SSTORE POP PUSH1 0x40 DUP3 ADD MLOAD DUP2 PUSH1 0x2 ADD SWAP1 DUP1 MLOAD SWAP1 PUSH1 0x20 ADD SWAP1 PUSH2 0x12B1 SWAP3 SWAP2 SWAP1 PUSH2 0x1739 JUMP JUMPDEST POP PUSH1 0x60 DUP3 ADD MLOAD DUP2 PUSH1 0x3 ADD SSTORE PUSH1 0x80 DUP3 ADD MLOAD DUP2 PUSH1 0x4 ADD SSTORE PUSH1 0xA0 DUP3 ADD MLOAD DUP2 PUSH1 0x5 ADD SSTORE PUSH1 0xC0 DUP3 ADD MLOAD DUP2 PUSH1 0x6 ADD SSTORE SWAP1 POP POP PUSH1 0x1 PUSH1 0x5 PUSH1 0x0 DUP3 DUP3 SLOAD PUSH2 0x12F0 SWAP2 SWAP1 PUSH2 0x238E JUMP JUMPDEST SWAP3 POP POP DUP2 SWAP1 SSTORE POP PUSH1 0x0 DUP1 SLOAD SWAP1 PUSH2 0x100 EXP SWAP1 DIV PUSH20 0xFFFFFFFFFFFFFFFFFFFFFFFFFFFFFFFFFFFFFFFF AND PUSH20 0xFFFFFFFFFFFFFFFFFFFFFFFFFFFFFFFFFFFFFFFF AND PUSH2 0x8FC CALLVALUE SWAP1 DUP2 ISZERO MUL SWAP1 PUSH1 0x40 MLOAD PUSH1 0x0 PUSH1 0x40 MLOAD DUP1 DUP4 SUB DUP2 DUP6 DUP9 DUP9 CALL SWAP4 POP POP POP POP ISZERO DUP1 ISZERO PUSH2 0x135D JUMPI RETURNDATASIZE PUSH1 0x0 DUP1 RETURNDATACOPY RETURNDATASIZE PUSH1 0x0 REVERT JUMPDEST POP DUP1 SWAP2 POP POP SWAP4 SWAP3 POP POP POP JUMP JUMPDEST PUSH1 0x0 DUP1 PUSH1 0x0 SWAP1 SLOAD SWAP1 PUSH2 0x100 EXP SWAP1 DIV PUSH20 0xFFFFFFFFFFFFFFFFFFFFFFFFFFFFFFFFFFFFFFFF AND PUSH20 0xFFFFFFFFFFFFFFFFFFFFFFFFFFFFFFFFFFFFFFFF AND CALLER PUSH20 0xFFFFFFFFFFFFFFFFFFFFFFFFFFFFFFFFFFFFFFFF AND EQ PUSH2 0x13FA JUMPI PUSH1 0x40 MLOAD PUSH32 0x8C379A000000000000000000000000000000000000000000000000000000000 DUP2 MSTORE PUSH1 0x4 ADD PUSH2 0x13F1 SWAP1 PUSH2 0x2107 JUMP JUMPDEST PUSH1 0x40 MLOAD DUP1 SWAP2 SUB SWAP1 REVERT JUMPDEST PUSH1 0x40 MLOAD DUP1 PUSH1 0x60 ADD PUSH1 0x40 MSTORE DUP1 DUP7 DUP7 DUP1 DUP1 PUSH1 0x1F ADD PUSH1 0x20 DUP1 SWAP2 DIV MUL PUSH1 0x20 ADD PUSH1 0x40 MLOAD SWAP1 DUP2 ADD PUSH1 0x40 MSTORE DUP1 SWAP4 SWAP3 SWAP2 SWAP1 DUP2 DUP2 MSTORE PUSH1 0x20 ADD DUP4 DUP4 DUP1 DUP3 DUP5 CALLDATACOPY PUSH1 0x0 DUP2 DUP5 ADD MSTORE PUSH1 0x1F NOT PUSH1 0x1F DUP3 ADD AND SWAP1 POP DUP1 DUP4 ADD SWAP3 POP POP POP POP POP POP POP DUP2 MSTORE PUSH1 0x20 ADD PUSH1 0x5A DUP6 PUSH2 0x145C SWAP2 SWAP1 PUSH2 0x2415 JUMP JUMPDEST DUP2 MSTORE PUSH1 0x20 ADD DUP5 DUP2 MSTORE POP PUSH1 0x3 DUP7 DUP7 PUSH1 0x40 MLOAD PUSH2 0x1477 SWAP3 SWAP2 SWAP1 PUSH2 0x1F83 JUMP JUMPDEST SWAP1 DUP2 MSTORE PUSH1 0x20 ADD PUSH1 0x40 MLOAD DUP1 SWAP2 SUB SWAP1 KECCAK256 PUSH1 0x0 DUP3 ADD MLOAD DUP2 PUSH1 0x0 ADD SWAP1 DUP1 MLOAD SWAP1 PUSH1 0x20 ADD SWAP1 PUSH2 0x14A1 SWAP3 SWAP2 SWAP1 PUSH2 0x1739 JUMP JUMPDEST POP PUSH1 0x20 DUP3 ADD MLOAD DUP2 PUSH1 0x1 ADD SSTORE PUSH1 0x40 DUP3 ADD MLOAD DUP2 PUSH1 0x2 ADD SSTORE SWAP1 POP POP DUP2 PUSH1 0x4 DUP7 DUP7 PUSH1 0x40 MLOAD PUSH2 0x14CC SWAP3 SWAP2 SWAP1 PUSH2 0x1F83 JUMP JUMPDEST SWAP1 DUP2 MSTORE PUSH1 0x20 ADD PUSH1 0x40 MLOAD DUP1 SWAP2 SUB SWAP1 KECCAK256 PUSH1 0x0 DUP3 DUP3 SLOAD PUSH2 0x14E9 SWAP2 SWAP1 PUSH2 0x238E JUMP JUMPDEST SWAP3 POP POP DUP2 SWAP1 SSTORE POP PUSH1 0x1 SWAP1 POP SWAP5 SWAP4 POP POP POP POP JUMP JUMPDEST PUSH1 0x5 SLOAD DUP2 JUMP JUMPDEST PUSH1 0xA PUSH1 0x20 MSTORE DUP1 PUSH1 0x0 MSTORE PUSH1 0x40 PUSH1 0x0 KECCAK256 PUSH1 0x0 SWAP2 POP SWAP1 POP DUP1 PUSH1 0x0 ADD SLOAD SWAP1 DUP1 PUSH1 0x1 ADD SLOAD SWAP1 DUP1 PUSH1 0x2 ADD PUSH1 0x0 SWAP1 SLOAD SWAP1 PUSH2 0x100 EXP SWAP1 DIV PUSH20 0xFFFFFFFFFFFFFFFFFFFFFFFFFFFFFFFFFFFFFFFF AND SWAP1 DUP1 PUSH1 0x3 ADD SLOAD SWAP1 DUP1 PUSH1 0x4 ADD SLOAD SWAP1 POP DUP6 JUMP JUMPDEST PUSH1 0x1 PUSH1 0x20 MSTORE DUP1 PUSH1 0x0 MSTORE PUSH1 0x40 PUSH1 0x0 KECCAK256 PUSH1 0x0 SWAP2 POP SLOAD SWAP1 PUSH2 0x100 EXP SWAP1 DIV PUSH1 0xFF AND DUP2 JUMP JUMPDEST PUSH1 0x6 PUSH1 0x20 MSTORE DUP1 PUSH1 0x0 MSTORE PUSH1 0x40 PUSH1 0x0 KECCAK256 PUSH1 0x0 SWAP2 POP SWAP1 POP DUP1 PUSH1 0x0 ADD SLOAD SWAP1 DUP1 PUSH1 0x1 ADD PUSH1 0x0 SWAP1 SLOAD SWAP1 PUSH2 0x100 EXP SWAP1 DIV PUSH20 0xFFFFFFFFFFFFFFFFFFFFFFFFFFFFFFFFFFFFFFFF AND SWAP1 DUP1 PUSH1 0x2 ADD DUP1 SLOAD PUSH2 0x15C7 SWAP1 PUSH2 0x2537 JUMP JUMPDEST DUP1 PUSH1 0x1F ADD PUSH1 0x20 DUP1 SWAP2 DIV MUL PUSH1 0x20 ADD PUSH1 0x40 MLOAD SWAP1 DUP2 ADD PUSH1 0x40 MSTORE DUP1 SWAP3 SWAP2 SWAP1 DUP2 DUP2 MSTORE PUSH1 0x20 ADD DUP3 DUP1 SLOAD PUSH2 0x15F3 SWAP1 PUSH2 0x2537 JUMP JUMPDEST DUP1 ISZERO PUSH2 0x1640 JUMPI DUP1 PUSH1 0x1F LT PUSH2 0x1615 JUMPI PUSH2 0x100 DUP1 DUP4 SLOAD DIV MUL DUP4 MSTORE SWAP2 PUSH1 0x20 ADD SWAP2 PUSH2 0x1640 JUMP JUMPDEST DUP3 ADD SWAP2 SWAP1 PUSH1 0x0 MSTORE PUSH1 0x20 PUSH1 0x0 KECCAK256 SWAP1 JUMPDEST DUP2 SLOAD DUP2 MSTORE SWAP1 PUSH1 0x1 ADD SWAP1 PUSH1 0x20 ADD DUP1 DUP4 GT PUSH2 0x1623 JUMPI DUP3 SWAP1 SUB PUSH1 0x1F AND DUP3 ADD SWAP2 JUMPDEST POP POP POP POP POP SWAP1 DUP1 PUSH1 0x3 ADD SLOAD SWAP1 DUP1 PUSH1 0x4 ADD SLOAD SWAP1 DUP1 PUSH1 0x5 ADD SLOAD SWAP1 DUP1 PUSH1 0x6 ADD SLOAD SWAP1 POP DUP8 JUMP JUMPDEST PUSH1 0x0 DUP1 SLOAD SWAP1 PUSH2 0x100 EXP SWAP1 DIV PUSH20 0xFFFFFFFFFFFFFFFFFFFFFFFFFFFFFFFFFFFFFFFF AND DUP2 JUMP JUMPDEST PUSH1 0x0 PUSH1 0x1 DUP1 PUSH1 0x0 CALLER PUSH20 0xFFFFFFFFFFFFFFFFFFFFFFFFFFFFFFFFFFFFFFFF AND PUSH20 0xFFFFFFFFFFFFFFFFFFFFFFFFFFFFFFFFFFFFFFFF AND DUP2 MSTORE PUSH1 0x20 ADD SWAP1 DUP2 MSTORE PUSH1 0x20 ADD PUSH1 0x0 KECCAK256 PUSH1 0x0 PUSH2 0x100 EXP DUP2 SLOAD DUP2 PUSH1 0xFF MUL NOT AND SWAP1 DUP4 ISZERO ISZERO MUL OR SWAP1 SSTORE POP PUSH1 0x1 SWAP1 POP SWAP1 JUMP JUMPDEST PUSH1 0x40 MLOAD DUP1 PUSH1 0xE0 ADD PUSH1 0x40 MSTORE DUP1 PUSH1 0x0 DUP2 MSTORE PUSH1 0x20 ADD PUSH1 0x0 DUP2 MSTORE PUSH1 0x20 ADD PUSH1 0x0 PUSH20 0xFFFFFFFFFFFFFFFFFFFFFFFFFFFFFFFFFFFFFFFF AND DUP2 MSTORE PUSH1 0x20 ADD PUSH1 0x60 DUP2 MSTORE PUSH1 0x20 ADD PUSH1 0x0 DUP2 MSTORE PUSH1 0x20 ADD PUSH1 0x0 DUP2 MSTORE PUSH1 0x20 ADD PUSH1 0x0 DUP2 MSTORE POP SWAP1 JUMP JUMPDEST DUP3 DUP1 SLOAD PUSH2 0x1745 SWAP1 PUSH2 0x2537 JUMP JUMPDEST SWAP1 PUSH1 0x0 MSTORE PUSH1 0x20 PUSH1 0x0 KECCAK256 SWAP1 PUSH1 0x1F ADD PUSH1 0x20 SWAP1 DIV DUP2 ADD SWAP3 DUP3 PUSH2 0x1767 JUMPI PUSH1 0x0 DUP6 SSTORE PUSH2 0x17AE JUMP JUMPDEST DUP3 PUSH1 0x1F LT PUSH2 0x1780 JUMPI DUP1 MLOAD PUSH1 0xFF NOT AND DUP4 DUP1 ADD OR DUP6 SSTORE PUSH2 0x17AE JUMP JUMPDEST DUP3 DUP1 ADD PUSH1 0x1 ADD DUP6 SSTORE DUP3 ISZERO PUSH2 0x17AE JUMPI SWAP2 DUP3 ADD JUMPDEST DUP3 DUP2 GT ISZERO PUSH2 0x17AD JUMPI DUP3 MLOAD DUP3 SSTORE SWAP2 PUSH1 0x20 ADD SWAP2 SWAP1 PUSH1 0x1 ADD SWAP1 PUSH2 0x1792 JUMP JUMPDEST JUMPDEST POP SWAP1 POP PUSH2 0x17BB SWAP2 SWAP1 PUSH2 0x1857 JUMP JUMPDEST POP SWAP1 JUMP JUMPDEST PUSH1 0x40 MLOAD DUP1 PUSH1 0xA0 ADD PUSH1 0x40 MSTORE DUP1 PUSH1 0x0 DUP2 MSTORE PUSH1 0x20 ADD PUSH1 0x0 DUP2 MSTORE PUSH1 0x20 ADD PUSH1 0x0 PUSH20 0xFFFFFFFFFFFFFFFFFFFFFFFFFFFFFFFFFFFFFFFF AND DUP2 MSTORE PUSH1 0x20 ADD PUSH1 0x0 DUP2 MSTORE PUSH1 0x20 ADD PUSH1 0x0 DUP2 MSTORE POP SWAP1 JUMP JUMPDEST PUSH1 0x40 MLOAD DUP1 PUSH1 0xE0 ADD PUSH1 0x40 MSTORE DUP1 PUSH1 0x0 DUP2 MSTORE PUSH1 0x20 ADD PUSH1 0x0 PUSH20 0xFFFFFFFFFFFFFFFFFFFFFFFFFFFFFFFFFFFFFFFF AND DUP2 MSTORE PUSH1 0x20 ADD PUSH1 0x60 DUP2 MSTORE PUSH1 0x20 ADD PUSH1 0x0 DUP2 MSTORE PUSH1 0x20 ADD PUSH1 0x0 DUP2 MSTORE PUSH1 0x20 ADD PUSH1 0x0 DUP2 MSTORE PUSH1 0x20 ADD PUSH1 0x0 DUP2 MSTORE POP SWAP1 JUMP JUMPDEST JUMPDEST DUP1 DUP3 GT ISZERO PUSH2 0x1870 JUMPI PUSH1 0x0 DUP2 PUSH1 0x0 SWAP1 SSTORE POP PUSH1 0x1 ADD PUSH2 0x1858 JUMP JUMPDEST POP SWAP1 JUMP JUMPDEST PUSH1 0x0 PUSH2 0x1887 PUSH2 0x1882 DUP5 PUSH2 0x2325 JUMP JUMPDEST PUSH2 0x2300 JUMP JUMPDEST SWAP1 POP DUP3 DUP2 MSTORE PUSH1 0x20 DUP2 ADD DUP5 DUP5 DUP5 ADD GT ISZERO PUSH2 0x18A3 JUMPI PUSH2 0x18A2 PUSH2 0x2665 JUMP JUMPDEST JUMPDEST PUSH2 0x18AE DUP5 DUP3 DUP6 PUSH2 0x24F5 JUMP JUMPDEST POP SWAP4 SWAP3 POP POP POP JUMP JUMPDEST PUSH1 0x0 DUP2 CALLDATALOAD SWAP1 POP PUSH2 0x18C5 DUP2 PUSH2 0x2900 JUMP JUMPDEST SWAP3 SWAP2 POP POP JUMP JUMPDEST PUSH1 0x0 DUP1 DUP4 PUSH1 0x1F DUP5 ADD SLT PUSH2 0x18E1 JUMPI PUSH2 0x18E0 PUSH2 0x265B JUMP JUMPDEST JUMPDEST DUP3 CALLDATALOAD SWAP1 POP PUSH8 0xFFFFFFFFFFFFFFFF DUP2 GT ISZERO PUSH2 0x18FE JUMPI PUSH2 0x18FD PUSH2 0x2656 JUMP JUMPDEST JUMPDEST PUSH1 0x20 DUP4 ADD SWAP2 POP DUP4 PUSH1 0x1 DUP3 MUL DUP4 ADD GT ISZERO PUSH2 0x191A JUMPI PUSH2 0x1919 PUSH2 0x2660 JUMP JUMPDEST JUMPDEST SWAP3 POP SWAP3 SWAP1 POP JUMP JUMPDEST PUSH1 0x0 DUP3 PUSH1 0x1F DUP4 ADD SLT PUSH2 0x1936 JUMPI PUSH2 0x1935 PUSH2 0x265B JUMP JUMPDEST JUMPDEST DUP2 CALLDATALOAD PUSH2 0x1946 DUP5 DUP3 PUSH1 0x20 DUP7 ADD PUSH2 0x1874 JUMP JUMPDEST SWAP2 POP POP SWAP3 SWAP2 POP POP JUMP JUMPDEST PUSH1 0x0 DUP2 CALLDATALOAD SWAP1 POP PUSH2 0x195E DUP2 PUSH2 0x2917 JUMP JUMPDEST SWAP3 SWAP2 POP POP JUMP JUMPDEST PUSH1 0x0 PUSH1 0x20 DUP3 DUP5 SUB SLT ISZERO PUSH2 0x197A JUMPI PUSH2 0x1979 PUSH2 0x266F JUMP JUMPDEST JUMPDEST PUSH1 0x0 PUSH2 0x1988 DUP5 DUP3 DUP6 ADD PUSH2 0x18B6 JUMP JUMPDEST SWAP2 POP POP SWAP3 SWAP2 POP POP JUMP JUMPDEST PUSH1 0x0 DUP1 PUSH1 0x40 DUP4 DUP6 SUB SLT ISZERO PUSH2 0x19A8 JUMPI PUSH2 0x19A7 PUSH2 0x266F JUMP JUMPDEST JUMPDEST PUSH1 0x0 PUSH2 0x19B6 DUP6 DUP3 DUP7 ADD PUSH2 0x18B6 JUMP JUMPDEST SWAP3 POP POP PUSH1 0x20 DUP4 ADD CALLDATALOAD PUSH8 0xFFFFFFFFFFFFFFFF DUP2 GT ISZERO PUSH2 0x19D7 JUMPI PUSH2 0x19D6 PUSH2 0x266A JUMP JUMPDEST JUMPDEST PUSH2 0x19E3 DUP6 DUP3 DUP7 ADD PUSH2 0x1921 JUMP JUMPDEST SWAP2 POP POP SWAP3 POP SWAP3 SWAP1 POP JUMP JUMPDEST PUSH1 0x0 DUP1 PUSH1 0x0 PUSH1 0x40 DUP5 DUP7 SUB SLT ISZERO PUSH2 0x1A06 JUMPI PUSH2 0x1A05 PUSH2 0x266F JUMP JUMPDEST JUMPDEST PUSH1 0x0 DUP5 ADD CALLDATALOAD PUSH8 0xFFFFFFFFFFFFFFFF DUP2 GT ISZERO PUSH2 0x1A24 JUMPI PUSH2 0x1A23 PUSH2 0x266A JUMP JUMPDEST JUMPDEST PUSH2 0x1A30 DUP7 DUP3 DUP8 ADD PUSH2 0x18CB JUMP JUMPDEST SWAP4 POP SWAP4 POP POP PUSH1 0x20 PUSH2 0x1A43 DUP7 DUP3 DUP8 ADD PUSH2 0x194F JUMP JUMPDEST SWAP2 POP POP SWAP3 POP SWAP3 POP SWAP3 JUMP JUMPDEST PUSH1 0x0 DUP1 PUSH1 0x0 DUP1 PUSH1 0x60 DUP6 DUP8 SUB SLT ISZERO PUSH2 0x1A67 JUMPI PUSH2 0x1A66 PUSH2 0x266F JUMP JUMPDEST JUMPDEST PUSH1 0x0 DUP6 ADD CALLDATALOAD PUSH8 0xFFFFFFFFFFFFFFFF DUP2 GT ISZERO PUSH2 0x1A85 JUMPI PUSH2 0x1A84 PUSH2 0x266A JUMP JUMPDEST JUMPDEST PUSH2 0x1A91 DUP8 DUP3 DUP9 ADD PUSH2 0x18CB JUMP JUMPDEST SWAP5 POP SWAP5 POP POP PUSH1 0x20 PUSH2 0x1AA4 DUP8 DUP3 DUP9 ADD PUSH2 0x194F JUMP JUMPDEST SWAP3 POP POP PUSH1 0x40 PUSH2 0x1AB5 DUP8 DUP3 DUP9 ADD PUSH2 0x194F JUMP JUMPDEST SWAP2 POP POP SWAP3 SWAP6 SWAP2 SWAP5 POP SWAP3 POP JUMP JUMPDEST PUSH1 0x0 PUSH1 0x20 DUP3 DUP5 SUB SLT ISZERO PUSH2 0x1AD7 JUMPI PUSH2 0x1AD6 PUSH2 0x266F JUMP JUMPDEST JUMPDEST PUSH1 0x0 DUP3 ADD CALLDATALOAD PUSH8 0xFFFFFFFFFFFFFFFF DUP2 GT ISZERO PUSH2 0x1AF5 JUMPI PUSH2 0x1AF4 PUSH2 0x266A JUMP JUMPDEST JUMPDEST PUSH2 0x1B01 DUP5 DUP3 DUP6 ADD PUSH2 0x1921 JUMP JUMPDEST SWAP2 POP POP SWAP3 SWAP2 POP POP JUMP JUMPDEST PUSH1 0x0 PUSH1 0x20 DUP3 DUP5 SUB SLT ISZERO PUSH2 0x1B20 JUMPI PUSH2 0x1B1F PUSH2 0x266F JUMP JUMPDEST JUMPDEST PUSH1 0x0 PUSH2 0x1B2E DUP5 DUP3 DUP6 ADD PUSH2 0x194F JUMP JUMPDEST SWAP2 POP POP SWAP3 SWAP2 POP POP JUMP JUMPDEST PUSH1 0x0 DUP1 PUSH1 0x40 DUP4 DUP6 SUB SLT ISZERO PUSH2 0x1B4E JUMPI PUSH2 0x1B4D PUSH2 0x266F JUMP JUMPDEST JUMPDEST PUSH1 0x0 PUSH2 0x1B5C DUP6 DUP3 DUP7 ADD PUSH2 0x194F JUMP JUMPDEST SWAP3 POP POP PUSH1 0x20 PUSH2 0x1B6D DUP6 DUP3 DUP7 ADD PUSH2 0x194F JUMP JUMPDEST SWAP2 POP POP SWAP3 POP SWAP3 SWAP1 POP JUMP JUMPDEST PUSH2 0x1B80 DUP2 PUSH2 0x24A3 JUMP JUMPDEST DUP3 MSTORE POP POP JUMP JUMPDEST PUSH2 0x1B8F DUP2 PUSH2 0x24A3 JUMP JUMPDEST DUP3 MSTORE POP POP JUMP JUMPDEST PUSH2 0x1B9E DUP2 PUSH2 0x24B5 JUMP JUMPDEST DUP3 MSTORE POP POP JUMP JUMPDEST PUSH2 0x1BAD DUP2 PUSH2 0x24C1 JUMP JUMPDEST DUP3 MSTORE POP POP JUMP JUMPDEST PUSH2 0x1BBC DUP2 PUSH2 0x24C1 JUMP JUMPDEST DUP3 MSTORE POP POP JUMP JUMPDEST PUSH1 0x0 PUSH2 0x1BCE DUP4 DUP6 PUSH2 0x2383 JUMP JUMPDEST SWAP4 POP PUSH2 0x1BDB DUP4 DUP6 DUP5 PUSH2 0x24F5 JUMP JUMPDEST DUP3 DUP5 ADD SWAP1 POP SWAP4 SWAP3 POP POP POP JUMP JUMPDEST PUSH1 0x0 PUSH2 0x1BF2 DUP3 PUSH2 0x2356 JUMP JUMPDEST PUSH2 0x1BFC DUP2 DUP6 PUSH2 0x2361 JUMP JUMPDEST SWAP4 POP PUSH2 0x1C0C DUP2 DUP6 PUSH1 0x20 DUP7 ADD PUSH2 0x2504 JUMP JUMPDEST PUSH2 0x1C15 DUP2 PUSH2 0x2674 JUMP JUMPDEST DUP5 ADD SWAP2 POP POP SWAP3 SWAP2 POP POP JUMP JUMPDEST PUSH1 0x0 PUSH2 0x1C2B DUP3 PUSH2 0x2356 JUMP JUMPDEST PUSH2 0x1C35 DUP2 DUP6 PUSH2 0x2372 JUMP JUMPDEST SWAP4 POP PUSH2 0x1C45 DUP2 DUP6 PUSH1 0x20 DUP7 ADD PUSH2 0x2504 JUMP JUMPDEST PUSH2 0x1C4E DUP2 PUSH2 0x2674 JUMP JUMPDEST DUP5 ADD SWAP2 POP POP SWAP3 SWAP2 POP POP JUMP JUMPDEST PUSH1 0x0 PUSH2 0x1C64 DUP3 PUSH2 0x2356 JUMP JUMPDEST PUSH2 0x1C6E DUP2 DUP6 PUSH2 0x2383 JUMP JUMPDEST SWAP4 POP PUSH2 0x1C7E DUP2 DUP6 PUSH1 0x20 DUP7 ADD PUSH2 0x2504 JUMP JUMPDEST DUP1 DUP5 ADD SWAP2 POP POP SWAP3 SWAP2 POP POP JUMP JUMPDEST PUSH1 0x0 PUSH2 0x1C97 PUSH1 0x2F DUP4 PUSH2 0x2372 JUMP JUMPDEST SWAP2 POP PUSH2 0x1CA2 DUP3 PUSH2 0x2685 JUMP JUMPDEST PUSH1 0x40 DUP3 ADD SWAP1 POP SWAP2 SWAP1 POP JUMP JUMPDEST PUSH1 0x0 PUSH2 0x1CBA PUSH1 0x35 DUP4 PUSH2 0x2372 JUMP JUMPDEST SWAP2 POP PUSH2 0x1CC5 DUP3 PUSH2 0x26D4 JUMP JUMPDEST PUSH1 0x40 DUP3 ADD SWAP1 POP SWAP2 SWAP1 POP JUMP JUMPDEST PUSH1 0x0 PUSH2 0x1CDD PUSH1 0x22 DUP4 PUSH2 0x2372 JUMP JUMPDEST SWAP2 POP PUSH2 0x1CE8 DUP3 PUSH2 0x2723 JUMP JUMPDEST PUSH1 0x40 DUP3 ADD SWAP1 POP SWAP2 SWAP1 POP JUMP JUMPDEST PUSH1 0x0 PUSH2 0x1D00 PUSH1 0x32 DUP4 PUSH2 0x2372 JUMP JUMPDEST SWAP2 POP PUSH2 0x1D0B DUP3 PUSH2 0x2772 JUMP JUMPDEST PUSH1 0x40 DUP3 ADD SWAP1 POP SWAP2 SWAP1 POP JUMP JUMPDEST PUSH1 0x0 PUSH2 0x1D23 PUSH1 0x1A DUP4 PUSH2 0x2372 JUMP JUMPDEST SWAP2 POP PUSH2 0x1D2E DUP3 PUSH2 0x27C1 JUMP JUMPDEST PUSH1 0x20 DUP3 ADD SWAP1 POP SWAP2 SWAP1 POP JUMP JUMPDEST PUSH1 0x0 PUSH2 0x1D46 PUSH1 0x5B DUP4 PUSH2 0x2372 JUMP JUMPDEST SWAP2 POP PUSH2 0x1D51 DUP3 PUSH2 0x27EA JUMP JUMPDEST PUSH1 0x60 DUP3 ADD SWAP1 POP SWAP2 SWAP1 POP JUMP JUMPDEST PUSH1 0x0 PUSH2 0x1D69 PUSH1 0x1C DUP4 PUSH2 0x2372 JUMP JUMPDEST SWAP2 POP PUSH2 0x1D74 DUP3 PUSH2 0x285F JUMP JUMPDEST PUSH1 0x20 DUP3 ADD SWAP1 POP SWAP2 SWAP1 POP JUMP JUMPDEST PUSH1 0x0 PUSH2 0x1D8C PUSH1 0x20 DUP4 PUSH2 0x2372 JUMP JUMPDEST SWAP2 POP PUSH2 0x1D97 DUP3 PUSH2 0x2888 JUMP JUMPDEST PUSH1 0x20 DUP3 ADD SWAP1 POP SWAP2 SWAP1 POP JUMP JUMPDEST PUSH1 0x0 PUSH2 0x1DAF PUSH1 0x27 DUP4 PUSH2 0x2372 JUMP JUMPDEST SWAP2 POP PUSH2 0x1DBA DUP3 PUSH2 0x28B1 JUMP JUMPDEST PUSH1 0x40 DUP3 ADD SWAP1 POP SWAP2 SWAP1 POP JUMP JUMPDEST PUSH1 0xA0 DUP3 ADD PUSH1 0x0 DUP3 ADD MLOAD PUSH2 0x1DDB PUSH1 0x0 DUP6 ADD DUP3 PUSH2 0x1F65 JUMP JUMPDEST POP PUSH1 0x20 DUP3 ADD MLOAD PUSH2 0x1DEE PUSH1 0x20 DUP6 ADD DUP3 PUSH2 0x1F65 JUMP JUMPDEST POP PUSH1 0x40 DUP3 ADD MLOAD PUSH2 0x1E01 PUSH1 0x40 DUP6 ADD DUP3 PUSH2 0x1B77 JUMP JUMPDEST POP PUSH1 0x60 DUP3 ADD MLOAD PUSH2 0x1E14 PUSH1 0x60 DUP6 ADD DUP3 PUSH2 0x1F65 JUMP JUMPDEST POP PUSH1 0x80 DUP3 ADD MLOAD PUSH2 0x1E27 PUSH1 0x80 DUP6 ADD DUP3 PUSH2 0x1F65 JUMP JUMPDEST POP POP POP POP JUMP JUMPDEST PUSH1 0x0 PUSH1 0xE0 DUP4 ADD PUSH1 0x0 DUP4 ADD MLOAD PUSH2 0x1E45 PUSH1 0x0 DUP7 ADD DUP3 PUSH2 0x1F65 JUMP JUMPDEST POP PUSH1 0x20 DUP4 ADD MLOAD PUSH2 0x1E58 PUSH1 0x20 DUP7 ADD DUP3 PUSH2 0x1B77 JUMP JUMPDEST POP PUSH1 0x40 DUP4 ADD MLOAD DUP5 DUP3 SUB PUSH1 0x40 DUP7 ADD MSTORE PUSH2 0x1E70 DUP3 DUP3 PUSH2 0x1BE7 JUMP JUMPDEST SWAP2 POP POP PUSH1 0x60 DUP4 ADD MLOAD PUSH2 0x1E85 PUSH1 0x60 DUP7 ADD DUP3 PUSH2 0x1F65 JUMP JUMPDEST POP PUSH1 0x80 DUP4 ADD MLOAD PUSH2 0x1E98 PUSH1 0x80 DUP7 ADD DUP3 PUSH2 0x1F65 JUMP JUMPDEST POP PUSH1 0xA0 DUP4 ADD MLOAD PUSH2 0x1EAB PUSH1 0xA0 DUP7 ADD DUP3 PUSH2 0x1F65 JUMP JUMPDEST POP PUSH1 0xC0 DUP4 ADD MLOAD PUSH2 0x1EBE PUSH1 0xC0 DUP7 ADD DUP3 PUSH2 0x1BA4 JUMP JUMPDEST POP DUP1 SWAP2 POP POP SWAP3 SWAP2 POP POP JUMP JUMPDEST PUSH1 0x0 PUSH1 0xE0 DUP4 ADD PUSH1 0x0 DUP4 ADD MLOAD PUSH2 0x1EE1 PUSH1 0x0 DUP7 ADD DUP3 PUSH2 0x1F65 JUMP JUMPDEST POP PUSH1 0x20 DUP4 ADD MLOAD PUSH2 0x1EF4 PUSH1 0x20 DUP7 ADD DUP3 PUSH2 0x1F65 JUMP JUMPDEST POP PUSH1 0x40 DUP4 ADD MLOAD PUSH2 0x1F07 PUSH1 0x40 DUP7 ADD DUP3 PUSH2 0x1B77 JUMP JUMPDEST POP PUSH1 0x60 DUP4 ADD MLOAD DUP5 DUP3 SUB PUSH1 0x60 DUP7 ADD MSTORE PUSH2 0x1F1F DUP3 DUP3 PUSH2 0x1BE7 JUMP JUMPDEST SWAP2 POP POP PUSH1 0x80 DUP4 ADD MLOAD PUSH2 0x1F34 PUSH1 0x80 DUP7 ADD DUP3 PUSH2 0x1F65 JUMP JUMPDEST POP PUSH1 0xA0 DUP4 ADD MLOAD PUSH2 0x1F47 PUSH1 0xA0 DUP7 ADD DUP3 PUSH2 0x1F65 JUMP JUMPDEST POP PUSH1 0xC0 DUP4 ADD MLOAD PUSH2 0x1F5A PUSH1 0xC0 DUP7 ADD DUP3 PUSH2 0x1BA4 JUMP JUMPDEST POP DUP1 SWAP2 POP POP SWAP3 SWAP2 POP POP JUMP JUMPDEST PUSH2 0x1F6E DUP2 PUSH2 0x24EB JUMP JUMPDEST DUP3 MSTORE POP POP JUMP JUMPDEST PUSH2 0x1F7D DUP2 PUSH2 0x24EB JUMP JUMPDEST DUP3 MSTORE POP POP JUMP JUMPDEST PUSH1 0x0 PUSH2 0x1F90 DUP3 DUP5 DUP7 PUSH2 0x1BC2 JUMP JUMPDEST SWAP2 POP DUP2 SWAP1 POP SWAP4 SWAP3 POP POP POP JUMP JUMPDEST PUSH1 0x0 PUSH2 0x1FA8 DUP3 DUP5 PUSH2 0x1C59 JUMP JUMPDEST SWAP2 POP DUP2 SWAP1 POP SWAP3 SWAP2 POP POP JUMP JUMPDEST PUSH1 0x0 PUSH1 0x20 DUP3 ADD SWAP1 POP PUSH2 0x1FC8 PUSH1 0x0 DUP4 ADD DUP5 PUSH2 0x1B86 JUMP JUMPDEST SWAP3 SWAP2 POP POP JUMP JUMPDEST PUSH1 0x0 PUSH1 0x20 DUP3 ADD SWAP1 POP PUSH2 0x1FE3 PUSH1 0x0 DUP4 ADD DUP5 PUSH2 0x1B95 JUMP JUMPDEST SWAP3 SWAP2 POP POP JUMP JUMPDEST PUSH1 0x0 PUSH1 0x60 DUP3 ADD SWAP1 POP DUP2 DUP2 SUB PUSH1 0x0 DUP4 ADD MSTORE PUSH2 0x2003 DUP2 DUP7 PUSH2 0x1C20 JUMP JUMPDEST SWAP1 POP PUSH2 0x2012 PUSH1 0x20 DUP4 ADD DUP6 PUSH2 0x1F74 JUMP JUMPDEST PUSH2 0x201F PUSH1 0x40 DUP4 ADD DUP5 PUSH2 0x1F74 JUMP JUMPDEST SWAP5 SWAP4 POP POP POP POP JUMP JUMPDEST PUSH1 0x0 PUSH1 0x20 DUP3 ADD SWAP1 POP DUP2 DUP2 SUB PUSH1 0x0 DUP4 ADD MSTORE PUSH2 0x2040 DUP2 PUSH2 0x1C8A JUMP JUMPDEST SWAP1 POP SWAP2 SWAP1 POP JUMP JUMPDEST PUSH1 0x0 PUSH1 0x20 DUP3 ADD SWAP1 POP DUP2 DUP2 SUB PUSH1 0x0 DUP4 ADD MSTORE PUSH2 0x2060 DUP2 PUSH2 0x1CAD JUMP JUMPDEST SWAP1 POP SWAP2 SWAP1 POP JUMP JUMPDEST PUSH1 0x0 PUSH1 0x20 DUP3 ADD SWAP1 POP DUP2 DUP2 SUB PUSH1 0x0 DUP4 ADD MSTORE PUSH2 0x2080 DUP2 PUSH2 0x1CD0 JUMP JUMPDEST SWAP1 POP SWAP2 SWAP1 POP JUMP JUMPDEST PUSH1 0x0 PUSH1 0x20 DUP3 ADD SWAP1 POP DUP2 DUP2 SUB PUSH1 0x0 DUP4 ADD MSTORE PUSH2 0x20A0 DUP2 PUSH2 0x1CF3 JUMP JUMPDEST SWAP1 POP SWAP2 SWAP1 POP JUMP JUMPDEST PUSH1 0x0 PUSH1 0x20 DUP3 ADD SWAP1 POP DUP2 DUP2 SUB PUSH1 0x0 DUP4 ADD MSTORE PUSH2 0x20C0 DUP2 PUSH2 0x1D16 JUMP JUMPDEST SWAP1 POP SWAP2 SWAP1 POP JUMP JUMPDEST PUSH1 0x0 PUSH1 0x20 DUP3 ADD SWAP1 POP DUP2 DUP2 SUB PUSH1 0x0 DUP4 ADD MSTORE PUSH2 0x20E0 DUP2 PUSH2 0x1D39 JUMP JUMPDEST SWAP1 POP SWAP2 SWAP1 POP JUMP JUMPDEST PUSH1 0x0 PUSH1 0x20 DUP3 ADD SWAP1 POP DUP2 DUP2 SUB PUSH1 0x0 DUP4 ADD MSTORE PUSH2 0x2100 DUP2 PUSH2 0x1D5C JUMP JUMPDEST SWAP1 POP SWAP2 SWAP1 POP JUMP JUMPDEST PUSH1 0x0 PUSH1 0x20 DUP3 ADD SWAP1 POP DUP2 DUP2 SUB PUSH1 0x0 DUP4 ADD MSTORE PUSH2 0x2120 DUP2 PUSH2 0x1D7F JUMP JUMPDEST SWAP1 POP SWAP2 SWAP1 POP JUMP JUMPDEST PUSH1 0x0 PUSH1 0x20 DUP3 ADD SWAP1 POP DUP2 DUP2 SUB PUSH1 0x0 DUP4 ADD MSTORE PUSH2 0x2140 DUP2 PUSH2 0x1DA2 JUMP JUMPDEST SWAP1 POP SWAP2 SWAP1 POP JUMP JUMPDEST PUSH1 0x0 PUSH1 0xA0 DUP3 ADD SWAP1 POP PUSH2 0x215C PUSH1 0x0 DUP4 ADD DUP5 PUSH2 0x1DC5 JUMP JUMPDEST SWAP3 SWAP2 POP POP JUMP JUMPDEST PUSH1 0x0 PUSH1 0x20 DUP3 ADD SWAP1 POP DUP2 DUP2 SUB PUSH1 0x0 DUP4 ADD MSTORE PUSH2 0x217C DUP2 DUP5 PUSH2 0x1E2D JUMP JUMPDEST SWAP1 POP SWAP3 SWAP2 POP POP JUMP JUMPDEST PUSH1 0x0 PUSH1 0x20 DUP3 ADD SWAP1 POP DUP2 DUP2 SUB PUSH1 0x0 DUP4 ADD MSTORE PUSH2 0x219E DUP2 DUP5 PUSH2 0x1EC9 JUMP JUMPDEST SWAP1 POP SWAP3 SWAP2 POP POP JUMP JUMPDEST PUSH1 0x0 PUSH1 0x20 DUP3 ADD SWAP1 POP PUSH2 0x21BB PUSH1 0x0 DUP4 ADD DUP5 PUSH2 0x1F74 JUMP JUMPDEST SWAP3 SWAP2 POP POP JUMP JUMPDEST PUSH1 0x0 PUSH1 0xE0 DUP3 ADD SWAP1 POP PUSH2 0x21D6 PUSH1 0x0 DUP4 ADD DUP11 PUSH2 0x1F74 JUMP JUMPDEST PUSH2 0x21E3 PUSH1 0x20 DUP4 ADD DUP10 PUSH2 0x1B86 JUMP JUMPDEST DUP2 DUP2 SUB PUSH1 0x40 DUP4 ADD MSTORE PUSH2 0x21F5 DUP2 DUP9 PUSH2 0x1C20 JUMP JUMPDEST SWAP1 POP PUSH2 0x2204 PUSH1 0x60 DUP4 ADD DUP8 PUSH2 0x1F74 JUMP JUMPDEST PUSH2 0x2211 PUSH1 0x80 DUP4 ADD DUP7 PUSH2 0x1F74 JUMP JUMPDEST PUSH2 0x221E PUSH1 0xA0 DUP4 ADD DUP6 PUSH2 0x1F74 JUMP JUMPDEST PUSH2 0x222B PUSH1 0xC0 DUP4 ADD DUP5 PUSH2 0x1BB3 JUMP JUMPDEST SWAP9 SWAP8 POP POP POP POP POP POP POP POP JUMP JUMPDEST PUSH1 0x0 PUSH1 0xE0 DUP3 ADD SWAP1 POP PUSH2 0x224C PUSH1 0x0 DUP4 ADD DUP11 PUSH2 0x1F74 JUMP JUMPDEST PUSH2 0x2259 PUSH1 0x20 DUP4 ADD DUP10 PUSH2 0x1F74 JUMP JUMPDEST PUSH2 0x2266 PUSH1 0x40 DUP4 ADD DUP9 PUSH2 0x1B86 JUMP JUMPDEST DUP2 DUP2 SUB PUSH1 0x60 DUP4 ADD MSTORE PUSH2 0x2278 DUP2 DUP8 PUSH2 0x1C20 JUMP JUMPDEST SWAP1 POP PUSH2 0x2287 PUSH1 0x80 DUP4 ADD DUP7 PUSH2 0x1F74 JUMP JUMPDEST PUSH2 0x2294 PUSH1 0xA0 DUP4 ADD DUP6 PUSH2 0x1F74 JUMP JUMPDEST PUSH2 0x22A1 PUSH1 0xC0 DUP4 ADD DUP5 PUSH2 0x1BB3 JUMP JUMPDEST SWAP9 SWAP8 POP POP POP POP POP POP POP POP JUMP JUMPDEST PUSH1 0x0 PUSH1 0xA0 DUP3 ADD SWAP1 POP PUSH2 0x22C2 PUSH1 0x0 DUP4 ADD DUP9 PUSH2 0x1F74 JUMP JUMPDEST PUSH2 0x22CF PUSH1 0x20 DUP4 ADD DUP8 PUSH2 0x1F74 JUMP JUMPDEST PUSH2 0x22DC PUSH1 0x40 DUP4 ADD DUP7 PUSH2 0x1B86 JUMP JUMPDEST PUSH2 0x22E9 PUSH1 0x60 DUP4 ADD DUP6 PUSH2 0x1F74 JUMP JUMPDEST PUSH2 0x22F6 PUSH1 0x80 DUP4 ADD DUP5 PUSH2 0x1F74 JUMP JUMPDEST SWAP7 SWAP6 POP POP POP POP POP POP JUMP JUMPDEST PUSH1 0x0 PUSH2 0x230A PUSH2 0x231B JUMP JUMPDEST SWAP1 POP PUSH2 0x2316 DUP3 DUP3 PUSH2 0x2569 JUMP JUMPDEST SWAP2 SWAP1 POP JUMP JUMPDEST PUSH1 0x0 PUSH1 0x40 MLOAD SWAP1 POP SWAP1 JUMP JUMPDEST PUSH1 0x0 PUSH8 0xFFFFFFFFFFFFFFFF DUP3 GT ISZERO PUSH2 0x2340 JUMPI PUSH2 0x233F PUSH2 0x2627 JUMP JUMPDEST JUMPDEST PUSH2 0x2349 DUP3 PUSH2 0x2674 JUMP JUMPDEST SWAP1 POP PUSH1 0x20 DUP2 ADD SWAP1 POP SWAP2 SWAP1 POP JUMP JUMPDEST PUSH1 0x0 DUP2 MLOAD SWAP1 POP SWAP2 SWAP1 POP JUMP JUMPDEST PUSH1 0x0 DUP3 DUP3 MSTORE PUSH1 0x20 DUP3 ADD SWAP1 POP SWAP3 SWAP2 POP POP JUMP JUMPDEST PUSH1 0x0 DUP3 DUP3 MSTORE PUSH1 0x20 DUP3 ADD SWAP1 POP SWAP3 SWAP2 POP POP JUMP JUMPDEST PUSH1 0x0 DUP2 SWAP1 POP SWAP3 SWAP2 POP POP JUMP JUMPDEST PUSH1 0x0 PUSH2 0x2399 DUP3 PUSH2 0x24EB JUMP JUMPDEST SWAP2 POP PUSH2 0x23A4 DUP4 PUSH2 0x24EB JUMP JUMPDEST SWAP3 POP DUP3 PUSH32 0xFFFFFFFFFFFFFFFFFFFFFFFFFFFFFFFFFFFFFFFFFFFFFFFFFFFFFFFFFFFFFFFF SUB DUP3 GT ISZERO PUSH2 0x23D9 JUMPI PUSH2 0x23D8 PUSH2 0x259A JUMP JUMPDEST JUMPDEST DUP3 DUP3 ADD SWAP1 POP SWAP3 SWAP2 POP POP JUMP JUMPDEST PUSH1 0x0 PUSH2 0x23EF DUP3 PUSH2 0x24EB JUMP JUMPDEST SWAP2 POP PUSH2 0x23FA DUP4 PUSH2 0x24EB JUMP JUMPDEST SWAP3 POP DUP3 PUSH2 0x240A JUMPI PUSH2 0x2409 PUSH2 0x25C9 JUMP JUMPDEST JUMPDEST DUP3 DUP3 DIV SWAP1 POP SWAP3 SWAP2 POP POP JUMP JUMPDEST PUSH1 0x0 PUSH2 0x2420 DUP3 PUSH2 0x24EB JUMP JUMPDEST SWAP2 POP PUSH2 0x242B DUP4 PUSH2 0x24EB JUMP JUMPDEST SWAP3 POP DUP2 PUSH32 0xFFFFFFFFFFFFFFFFFFFFFFFFFFFFFFFFFFFFFFFFFFFFFFFFFFFFFFFFFFFFFFFF DIV DUP4 GT DUP3 ISZERO ISZERO AND ISZERO PUSH2 0x2464 JUMPI PUSH2 0x2463 PUSH2 0x259A JUMP JUMPDEST JUMPDEST DUP3 DUP3 MUL SWAP1 POP SWAP3 SWAP2 POP POP JUMP JUMPDEST PUSH1 0x0 PUSH2 0x247A DUP3 PUSH2 0x24EB JUMP JUMPDEST SWAP2 POP PUSH2 0x2485 DUP4 PUSH2 0x24EB JUMP JUMPDEST SWAP3 POP DUP3 DUP3 LT ISZERO PUSH2 0x2498 JUMPI PUSH2 0x2497 PUSH2 0x259A JUMP JUMPDEST JUMPDEST DUP3 DUP3 SUB SWAP1 POP SWAP3 SWAP2 POP POP JUMP JUMPDEST PUSH1 0x0 PUSH2 0x24AE DUP3 PUSH2 0x24CB JUMP JUMPDEST SWAP1 POP SWAP2 SWAP1 POP JUMP JUMPDEST PUSH1 0x0 DUP2 ISZERO ISZERO SWAP1 POP SWAP2 SWAP1 POP JUMP JUMPDEST PUSH1 0x0 DUP2 SWAP1 POP SWAP2 SWAP1 POP JUMP JUMPDEST PUSH1 0x0 PUSH20 0xFFFFFFFFFFFFFFFFFFFFFFFFFFFFFFFFFFFFFFFF DUP3 AND SWAP1 POP SWAP2 SWAP1 POP JUMP JUMPDEST PUSH1 0x0 DUP2 SWAP1 POP SWAP2 SWAP1 POP JUMP JUMPDEST DUP3 DUP2 DUP4 CALLDATACOPY PUSH1 0x0 DUP4 DUP4 ADD MSTORE POP POP POP JUMP JUMPDEST PUSH1 0x0 JUMPDEST DUP4 DUP2 LT ISZERO PUSH2 0x2522 JUMPI DUP1 DUP3 ADD MLOAD DUP2 DUP5 ADD MSTORE PUSH1 0x20 DUP2 ADD SWAP1 POP PUSH2 0x2507 JUMP JUMPDEST DUP4 DUP2 GT ISZERO PUSH2 0x2531 JUMPI PUSH1 0x0 DUP5 DUP5 ADD MSTORE JUMPDEST POP POP POP POP JUMP JUMPDEST PUSH1 0x0 PUSH1 0x2 DUP3 DIV SWAP1 POP PUSH1 0x1 DUP3 AND DUP1 PUSH2 0x254F JUMPI PUSH1 0x7F DUP3 AND SWAP2 POP JUMPDEST PUSH1 0x20 DUP3 LT DUP2 EQ ISZERO PUSH2 0x2563 JUMPI PUSH2 0x2562 PUSH2 0x25F8 JUMP JUMPDEST JUMPDEST POP SWAP2 SWAP1 POP JUMP JUMPDEST PUSH2 0x2572 DUP3 PUSH2 0x2674 JUMP JUMPDEST DUP2 ADD DUP2 DUP2 LT PUSH8 0xFFFFFFFFFFFFFFFF DUP3 GT OR ISZERO PUSH2 0x2591 JUMPI PUSH2 0x2590 PUSH2 0x2627 JUMP JUMPDEST JUMPDEST DUP1 PUSH1 0x40 MSTORE POP POP POP JUMP JUMPDEST PUSH32 0x4E487B7100000000000000000000000000000000000000000000000000000000 PUSH1 0x0 MSTORE PUSH1 0x11 PUSH1 0x4 MSTORE PUSH1 0x24 PUSH1 0x0 REVERT JUMPDEST PUSH32 0x4E487B7100000000000000000000000000000000000000000000000000000000 PUSH1 0x0 MSTORE PUSH1 0x12 PUSH1 0x4 MSTORE PUSH1 0x24 PUSH1 0x0 REVERT JUMPDEST PUSH32 0x4E487B7100000000000000000000000000000000000000000000000000000000 PUSH1 0x0 MSTORE PUSH1 0x22 PUSH1 0x4 MSTORE PUSH1 0x24 PUSH1 0x0 REVERT JUMPDEST PUSH32 0x4E487B7100000000000000000000000000000000000000000000000000000000 PUSH1 0x0 MSTORE PUSH1 0x41 PUSH1 0x4 MSTORE PUSH1 0x24 PUSH1 0x0 REVERT JUMPDEST PUSH1 0x0 DUP1 REVERT JUMPDEST PUSH1 0x0 DUP1 REVERT JUMPDEST PUSH1 0x0 DUP1 REVERT JUMPDEST PUSH1 0x0 DUP1 REVERT JUMPDEST PUSH1 0x0 DUP1 REVERT JUMPDEST PUSH1 0x0 DUP1 REVERT JUMPDEST PUSH1 0x0 PUSH1 0x1F NOT PUSH1 0x1F DUP4 ADD AND SWAP1 POP SWAP2 SWAP1 POP JUMP JUMPDEST PUSH32 0x437573746F6D6572206E6F7420726567697374657265642120506C6561736520 PUSH1 0x0 DUP3 ADD MSTORE PUSH32 0x7265676973746572206669727374210000000000000000000000000000000000 PUSH1 0x20 DUP3 ADD MSTORE POP JUMP JUMPDEST PUSH32 0x5468652072657475726E206F6620746869732072657475726E49642068617320 PUSH1 0x0 DUP3 ADD MSTORE PUSH32 0x6265656E20616C72656164792061756469746564210000000000000000000000 PUSH1 0x20 DUP3 ADD MSTORE POP JUMP JUMPDEST PUSH32 0x4E6F207468697320747970652773206361727320617661696C61626C65206E6F PUSH1 0x0 DUP3 ADD MSTORE PUSH32 0x7721000000000000000000000000000000000000000000000000000000000000 PUSH1 0x20 DUP3 ADD MSTORE POP JUMP JUMPDEST PUSH32 0x5468652072656E74206F6620746869732072656E74496420686173206265656E PUSH1 0x0 DUP3 ADD MSTORE PUSH32 0x20616C72656164792072657475726E6564210000000000000000000000000000 PUSH1 0x20 DUP3 ADD MSTORE POP JUMP JUMPDEST PUSH32 0x496E7075742072656E745265636F7264496420496E7661696421000000000000 PUSH1 0x0 DUP3 ADD MSTORE POP JUMP JUMPDEST PUSH32 0x4465706F73697420676976656E2068657265206973206E6F7420656E6F756768 PUSH1 0x0 DUP3 ADD MSTORE PUSH32 0x21204465706F7369742073686F756C65206265206C6172676572207468616E20 PUSH1 0x20 DUP3 ADD MSTORE PUSH32 0x283930202B2072656E744461797329202A206461696C7952656E740000000000 PUSH1 0x40 DUP3 ADD MSTORE POP JUMP JUMPDEST PUSH32 0x496E7075742072657475726E5265636F7264496420496E766169642100000000 PUSH1 0x0 DUP3 ADD MSTORE POP JUMP JUMPDEST PUSH32 0x4F6E6C79204142432063616E2063616C6C20746869732066756E6374696F6E21 PUSH1 0x0 DUP3 ADD MSTORE POP JUMP JUMPDEST PUSH32 0x54686520637573746F6D65722773206164647265737320646F65736E2774206D PUSH1 0x0 DUP3 ADD MSTORE PUSH32 0x6174636865642100000000000000000000000000000000000000000000000000 PUSH1 0x20 DUP3 ADD MSTORE POP JUMP JUMPDEST PUSH2 0x2909 DUP2 PUSH2 0x24A3 JUMP JUMPDEST DUP2 EQ PUSH2 0x2914 JUMPI PUSH1 0x0 DUP1 REVERT JUMPDEST POP JUMP JUMPDEST PUSH2 0x2920 DUP2 PUSH2 0x24EB JUMP JUMPDEST DUP2 EQ PUSH2 0x292B JUMPI PUSH1 0x0 DUP1 REVERT JUMPDEST POP JUMP INVALID LOG2 PUSH5 0x6970667358 0x22 SLT KECCAK256 SWAP4 PUSH10 0x2BF53431EF687E01D569 SWAP5 0x24 0xCE 0xCE 0xD0 0xCB MULMOD PUSH28 0xEEA19C2D05BF53ABD240DEB864736F6C634300080700330000000000 "
				},
				"gasEstimates": {
					"creation": {
						"codeDepositCost": "2119200",
						"executionCost": "infinite",
						"totalCost": "infinite"
					},
					"external": {
						"ABCAddCar(string,uint256,uint256)": "infinite",
						"ABCAddress()": "2577",
						"ABCAuditDeposit(uint256,uint256)": "infinite",
						"allABCAuditDepositRecord(uint256)": "infinite",
						"allCustomerAddresses(address)": "2867",
						"allCustomerRentCarRecord(uint256)": "infinite",
						"allCustomerReturnCarRecord(uint256)": "infinite",
						"carAvailability(string)": "infinite",
						"carInfo(string)": "infinite",
						"currentAuditRecordId()": "2453",
						"currentRentRecordId()": "2496",
						"currentReturnRecordId()": "2496",
						"customerRegister()": "24787",
						"customerRentCar(string,uint256)": "infinite",
						"customerRentingCarNumber(address,string)": "infinite",
						"customerReturnCar(uint256)": "infinite"
					}
				},
				"methodIdentifiers": {
					"ABCAddCar(string,uint256,uint256)": "94fa8235",
					"ABCAddress()": "d05a0447",
					"ABCAuditDeposit(uint256,uint256)": "3e7ab6a8",
					"allABCAuditDepositRecord(uint256)": "b027a759",
					"allCustomerAddresses(address)": "c87dec7a",
					"allCustomerRentCarRecord(uint256)": "cb2acd80",
					"allCustomerReturnCarRecord(uint256)": "3a8c0e6e",
					"carAvailability(string)": "586fa64d",
					"carInfo(string)": "1049f50a",
					"currentAuditRecordId()": "001e4c44",
					"currentRentRecordId()": "9532007a",
					"currentReturnRecordId()": "5177d6d2",
					"customerRegister()": "e4962463",
					"customerRentCar(string,uint256)": "6b93e409",
					"customerRentingCarNumber(address,string)": "38266fe5",
					"customerReturnCar(uint256)": "0958d944"
				}
			},
			"userdoc": {
				"kind": "user",
				"methods": {},
				"version": 1
			}
		}
	}
}