{
	"contracts/MicroToken.sol": {
		"MicroToken": {
			"abi": [
				{
					"inputs": [],
					"stateMutability": "nonpayable",
					"type": "constructor"
				},
				{
					"anonymous": false,
					"inputs": [
						{
							"indexed": true,
							"internalType": "address",
							"name": "owner",
							"type": "address"
						},
						{
							"indexed": true,
							"internalType": "address",
							"name": "spender",
							"type": "address"
						},
						{
							"indexed": false,
							"internalType": "uint256",
							"name": "value",
							"type": "uint256"
						}
					],
					"name": "Approval",
					"type": "event"
				},
				{
					"anonymous": false,
					"inputs": [
						{
							"indexed": true,
							"internalType": "address",
							"name": "from",
							"type": "address"
						},
						{
							"indexed": true,
							"internalType": "address",
							"name": "to",
							"type": "address"
						},
						{
							"indexed": false,
							"internalType": "uint256",
							"name": "value",
							"type": "uint256"
						}
					],
					"name": "Transfer",
					"type": "event"
				},
				{
					"inputs": [
						{
							"internalType": "address",
							"name": "",
							"type": "address"
						}
					],
					"name": "__balanceOf",
					"outputs": [
						{
							"internalType": "uint256",
							"name": "",
							"type": "uint256"
						}
					],
					"stateMutability": "view",
					"type": "function"
				},
				{
					"inputs": [
						{
							"internalType": "address",
							"name": "_owner",
							"type": "address"
						},
						{
							"internalType": "address",
							"name": "_spender",
							"type": "address"
						}
					],
					"name": "allowance",
					"outputs": [
						{
							"internalType": "uint256",
							"name": "remaining",
							"type": "uint256"
						}
					],
					"stateMutability": "view",
					"type": "function"
				},
				{
					"inputs": [
						{
							"internalType": "address",
							"name": "_spender",
							"type": "address"
						},
						{
							"internalType": "uint256",
							"name": "_value",
							"type": "uint256"
						}
					],
					"name": "approve",
					"outputs": [
						{
							"internalType": "bool",
							"name": "success",
							"type": "bool"
						}
					],
					"stateMutability": "nonpayable",
					"type": "function"
				},
				{
					"inputs": [
						{
							"internalType": "address",
							"name": "_addr",
							"type": "address"
						}
					],
					"name": "balanceOf",
					"outputs": [
						{
							"internalType": "uint256",
							"name": "balance",
							"type": "uint256"
						}
					],
					"stateMutability": "view",
					"type": "function"
				},
				{
					"inputs": [],
					"name": "decimals",
					"outputs": [
						{
							"internalType": "uint8",
							"name": "",
							"type": "uint8"
						}
					],
					"stateMutability": "view",
					"type": "function"
				},
				{
					"inputs": [],
					"name": "name",
					"outputs": [
						{
							"internalType": "string",
							"name": "",
							"type": "string"
						}
					],
					"stateMutability": "view",
					"type": "function"
				},
				{
					"inputs": [],
					"name": "symbol",
					"outputs": [
						{
							"internalType": "string",
							"name": "",
							"type": "string"
						}
					],
					"stateMutability": "view",
					"type": "function"
				},
				{
					"inputs": [],
					"name": "totalSupply",
					"outputs": [
						{
							"internalType": "uint256",
							"name": "_totalSupply",
							"type": "uint256"
						}
					],
					"stateMutability": "pure",
					"type": "function"
				},
				{
					"inputs": [
						{
							"internalType": "address",
							"name": "_to",
							"type": "address"
						},
						{
							"internalType": "uint256",
							"name": "_value",
							"type": "uint256"
						}
					],
					"name": "transfer",
					"outputs": [
						{
							"internalType": "bool",
							"name": "success",
							"type": "bool"
						}
					],
					"stateMutability": "nonpayable",
					"type": "function"
				},
				{
					"inputs": [
						{
							"internalType": "address",
							"name": "_from",
							"type": "address"
						},
						{
							"internalType": "address",
							"name": "_to",
							"type": "address"
						},
						{
							"internalType": "uint256",
							"name": "_value",
							"type": "uint256"
						}
					],
					"name": "transferFrom",
					"outputs": [
						{
							"internalType": "bool",
							"name": "success",
							"type": "bool"
						}
					],
					"stateMutability": "nonpayable",
					"type": "function"
				}
			],
			"devdoc": {
				"kind": "dev",
				"methods": {
					"totalSupply()": {
						"details": "Returns the amount of tokens in existence."
					}
				},
				"version": 1
			},
			"evm": {
				"assembly": "    /* \"contracts/MicroToken.sol\":127:1963  contract MicroToken is IERC20 {... */\n  mstore(0x40, 0x80)\n    /* \"contracts/MicroToken.sol\":495:569  constructor() {... */\n  callvalue\n  dup1\n  iszero\n  tag_1\n  jumpi\n  0x00\n  dup1\n  revert\ntag_1:\n  pop\n    /* \"contracts/MicroToken.sol\":340:344  1000 */\n  0x03e8\n    /* \"contracts/MicroToken.sol\":523:534  __balanceOf */\n  0x00\n    /* \"contracts/MicroToken.sol\":523:546  __balanceOf[msg.sender] */\n  dup1\n    /* \"contracts/MicroToken.sol\":535:545  msg.sender */\n  caller\n    /* \"contracts/MicroToken.sol\":523:546  __balanceOf[msg.sender] */\n  0xffffffffffffffffffffffffffffffffffffffff\n  and\n  0xffffffffffffffffffffffffffffffffffffffff\n  and\n  dup2\n  mstore\n  0x20\n  add\n  swap1\n  dup2\n  mstore\n  0x20\n  add\n  0x00\n  keccak256\n    /* \"contracts/MicroToken.sol\":523:562  __balanceOf[msg.sender] = __totalSupply */\n  dup2\n  swap1\n  sstore\n  pop\n    /* \"contracts/MicroToken.sol\":127:1963  contract MicroToken is IERC20 {... */\n  dataSize(sub_0)\n  dup1\n  dataOffset(sub_0)\n  0x00\n  codecopy\n  0x00\n  return\nstop\n\nsub_0: assembly {\n        /* \"contracts/MicroToken.sol\":127:1963  contract MicroToken is IERC20 {... */\n      mstore(0x40, 0x80)\n      callvalue\n      dup1\n      iszero\n      tag_1\n      jumpi\n      0x00\n      dup1\n      revert\n    tag_1:\n      pop\n      jumpi(tag_2, lt(calldatasize, 0x04))\n      shr(0xe0, calldataload(0x00))\n      dup1\n      0x70a08231\n      gt\n      tag_13\n      jumpi\n      dup1\n      0x70a08231\n      eq\n      tag_8\n      jumpi\n      dup1\n      0x95d89b41\n      eq\n      tag_9\n      jumpi\n      dup1\n      0xa9059cbb\n      eq\n      tag_10\n      jumpi\n      dup1\n      0xdd62ed3e\n      eq\n      tag_11\n      jumpi\n      dup1\n      0xeca68bf9\n      eq\n      tag_12\n      jumpi\n      jump(tag_2)\n    tag_13:\n      dup1\n      0x06fdde03\n      eq\n      tag_3\n      jumpi\n      dup1\n      0x095ea7b3\n      eq\n      tag_4\n      jumpi\n      dup1\n      0x18160ddd\n      eq\n      tag_5\n      jumpi\n      dup1\n      0x23b872dd\n      eq\n      tag_6\n      jumpi\n      dup1\n      0x313ce567\n      eq\n      tag_7\n      jumpi\n    tag_2:\n      0x00\n      dup1\n      revert\n        /* \"contracts/MicroToken.sol\":206:256  string public constant name = \"Microfinance Token\" */\n    tag_3:\n      tag_14\n      tag_15\n      jump\t// in\n    tag_14:\n      mload(0x40)\n      tag_16\n      swap2\n      swap1\n      tag_17\n      jump\t// in\n    tag_16:\n      mload(0x40)\n      dup1\n      swap2\n      sub\n      swap1\n      return\n        /* \"contracts/MicroToken.sol\":1577:1771  function approve(address _spender, uint _value) public override returns... */\n    tag_4:\n      tag_18\n      0x04\n      dup1\n      calldatasize\n      sub\n      dup2\n      add\n      swap1\n      tag_19\n      swap2\n      swap1\n      tag_20\n      jump\t// in\n    tag_19:\n      tag_21\n      jump\t// in\n    tag_18:\n      mload(0x40)\n      tag_22\n      swap2\n      swap1\n      tag_23\n      jump\t// in\n    tag_22:\n      mload(0x40)\n      dup1\n      swap2\n      sub\n      swap1\n      return\n        /* \"contracts/MicroToken.sol\":574:683  function totalSupply() public pure override returns (uint _totalSupply) { _totalSupply = __totalSupply;... */\n    tag_5:\n      tag_24\n      tag_25\n      jump\t// in\n    tag_24:\n      mload(0x40)\n      tag_26\n      swap2\n      swap1\n      tag_27\n      jump\t// in\n    tag_26:\n      mload(0x40)\n      dup1\n      swap2\n      sub\n      swap1\n      return\n        /* \"contracts/MicroToken.sol\":1117:1565  function transferFrom(address _from, address _to, uint _value) public override returns (bool success) {... */\n    tag_6:\n      tag_28\n      0x04\n      dup1\n      calldatasize\n      sub\n      dup2\n      add\n      swap1\n      tag_29\n      swap2\n      swap1\n      tag_30\n      jump\t// in\n    tag_29:\n      tag_31\n      jump\t// in\n    tag_28:\n      mload(0x40)\n      tag_32\n      swap2\n      swap1\n      tag_23\n      jump\t// in\n    tag_32:\n      mload(0x40)\n      dup1\n      swap2\n      sub\n      swap1\n      return\n        /* \"contracts/MicroToken.sol\":262:296  uint8 public constant decimals = 0 */\n    tag_7:\n      tag_33\n      tag_34\n      jump\t// in\n    tag_33:\n      mload(0x40)\n      tag_35\n      swap2\n      swap1\n      tag_36\n      jump\t// in\n    tag_35:\n      mload(0x40)\n      dup1\n      swap2\n      sub\n      swap1\n      return\n        /* \"contracts/MicroToken.sol\":688:812  function balanceOf(address _addr) public view override returns (uint... */\n    tag_8:\n      tag_37\n      0x04\n      dup1\n      calldatasize\n      sub\n      dup2\n      add\n      swap1\n      tag_38\n      swap2\n      swap1\n      tag_39\n      jump\t// in\n    tag_38:\n      tag_40\n      jump\t// in\n    tag_37:\n      mload(0x40)\n      tag_41\n      swap2\n      swap1\n      tag_27\n      jump\t// in\n    tag_41:\n      mload(0x40)\n      dup1\n      swap2\n      sub\n      swap1\n      return\n        /* \"contracts/MicroToken.sol\":163:200  string public constant symbol = \"MFT\" */\n    tag_9:\n      tag_42\n      tag_43\n      jump\t// in\n    tag_42:\n      mload(0x40)\n      tag_44\n      swap2\n      swap1\n      tag_17\n      jump\t// in\n    tag_44:\n      mload(0x40)\n      dup1\n      swap2\n      sub\n      swap1\n      return\n        /* \"contracts/MicroToken.sol\":817:1112  function transfer(address _to, uint _value) public override returns (bool... */\n    tag_10:\n      tag_45\n      0x04\n      dup1\n      calldatasize\n      sub\n      dup2\n      add\n      swap1\n      tag_46\n      swap2\n      swap1\n      tag_20\n      jump\t// in\n    tag_46:\n      tag_47\n      jump\t// in\n    tag_45:\n      mload(0x40)\n      tag_48\n      swap2\n      swap1\n      tag_23\n      jump\t// in\n    tag_48:\n      mload(0x40)\n      dup1\n      swap2\n      sub\n      swap1\n      return\n        /* \"contracts/MicroToken.sol\":1776:1956  function allowance(address _owner, address _spender)... */\n    tag_11:\n      tag_49\n      0x04\n      dup1\n      calldatasize\n      sub\n      dup2\n      add\n      swap1\n      tag_50\n      swap2\n      swap1\n      tag_51\n      jump\t// in\n    tag_50:\n      tag_52\n      jump\t// in\n    tag_49:\n      mload(0x40)\n      tag_53\n      swap2\n      swap1\n      tag_27\n      jump\t// in\n    tag_53:\n      mload(0x40)\n      dup1\n      swap2\n      sub\n      swap1\n      return\n        /* \"contracts/MicroToken.sol\":350:394  mapping (address => uint) public __balanceOf */\n    tag_12:\n      tag_54\n      0x04\n      dup1\n      calldatasize\n      sub\n      dup2\n      add\n      swap1\n      tag_55\n      swap2\n      swap1\n      tag_39\n      jump\t// in\n    tag_55:\n      tag_56\n      jump\t// in\n    tag_54:\n      mload(0x40)\n      tag_57\n      swap2\n      swap1\n      tag_27\n      jump\t// in\n    tag_57:\n      mload(0x40)\n      dup1\n      swap2\n      sub\n      swap1\n      return\n        /* \"contracts/MicroToken.sol\":206:256  string public constant name = \"Microfinance Token\" */\n    tag_15:\n      mload(0x40)\n      dup1\n      0x40\n      add\n      0x40\n      mstore\n      dup1\n      0x12\n      dup2\n      mstore\n      0x20\n      add\n      0x4d6963726f66696e616e636520546f6b656e0000000000000000000000000000\n      dup2\n      mstore\n      pop\n      dup2\n      jump\t// out\n        /* \"contracts/MicroToken.sol\":1577:1771  function approve(address _spender, uint _value) public override returns... */\n    tag_21:\n        /* \"contracts/MicroToken.sol\":1654:1666  bool success */\n      0x00\n        /* \"contracts/MicroToken.sol\":1760:1764  true */\n      0x01\n        /* \"contracts/MicroToken.sol\":1753:1764  return true */\n      swap1\n      pop\n        /* \"contracts/MicroToken.sol\":1577:1771  function approve(address _spender, uint _value) public override returns... */\n      swap3\n      swap2\n      pop\n      pop\n      jump\t// out\n        /* \"contracts/MicroToken.sol\":574:683  function totalSupply() public pure override returns (uint _totalSupply) { _totalSupply = __totalSupply;... */\n    tag_25:\n        /* \"contracts/MicroToken.sol\":627:644  uint _totalSupply */\n      0x00\n        /* \"contracts/MicroToken.sol\":340:344  1000 */\n      0x03e8\n        /* \"contracts/MicroToken.sol\":648:676  _totalSupply = __totalSupply */\n      swap1\n      pop\n        /* \"contracts/MicroToken.sol\":574:683  function totalSupply() public pure override returns (uint _totalSupply) { _totalSupply = __totalSupply;... */\n      swap1\n      jump\t// out\n        /* \"contracts/MicroToken.sol\":1117:1565  function transferFrom(address _from, address _to, uint _value) public override returns (bool success) {... */\n    tag_31:\n        /* \"contracts/MicroToken.sol\":1205:1217  bool success */\n      0x00\n        /* \"contracts/MicroToken.sol\":1319:1320  0 */\n      dup1\n        /* \"contracts/MicroToken.sol\":1310:1316  _value */\n      dup3\n        /* \"contracts/MicroToken.sol\":1310:1320  _value > 0 */\n      gt\n        /* \"contracts/MicroToken.sol\":1310:1364  _value > 0 &&... */\n      dup1\n      iszero\n      tag_61\n      jumpi\n      pop\n        /* \"contracts/MicroToken.sol\":1358:1364  _value */\n      dup2\n        /* \"contracts/MicroToken.sol\":1336:1347  __balanceOf */\n      0x00\n        /* \"contracts/MicroToken.sol\":1336:1354  __balanceOf[_from] */\n      dup1\n        /* \"contracts/MicroToken.sol\":1348:1353  _from */\n      dup7\n        /* \"contracts/MicroToken.sol\":1336:1354  __balanceOf[_from] */\n      0xffffffffffffffffffffffffffffffffffffffff\n      and\n      0xffffffffffffffffffffffffffffffffffffffff\n      and\n      dup2\n      mstore\n      0x20\n      add\n      swap1\n      dup2\n      mstore\n      0x20\n      add\n      0x00\n      keccak256\n      sload\n        /* \"contracts/MicroToken.sol\":1336:1364  __balanceOf[_from] >= _value */\n      lt\n      iszero\n        /* \"contracts/MicroToken.sol\":1310:1364  _value > 0 &&... */\n    tag_61:\n        /* \"contracts/MicroToken.sol\":1293:1537  if (... */\n      iszero\n      tag_62\n      jumpi\n        /* \"contracts/MicroToken.sol\":1402:1408  _value */\n      dup2\n        /* \"contracts/MicroToken.sol\":1380:1391  __balanceOf */\n      0x00\n        /* \"contracts/MicroToken.sol\":1380:1398  __balanceOf[_from] */\n      dup1\n        /* \"contracts/MicroToken.sol\":1392:1397  _from */\n      dup7\n        /* \"contracts/MicroToken.sol\":1380:1398  __balanceOf[_from] */\n      0xffffffffffffffffffffffffffffffffffffffff\n      and\n      0xffffffffffffffffffffffffffffffffffffffff\n      and\n      dup2\n      mstore\n      0x20\n      add\n      swap1\n      dup2\n      mstore\n      0x20\n      add\n      0x00\n      keccak256\n      0x00\n        /* \"contracts/MicroToken.sol\":1380:1408  __balanceOf[_from] -= _value */\n      dup3\n      dup3\n      sload\n      tag_63\n      swap2\n      swap1\n      tag_64\n      jump\t// in\n    tag_63:\n      swap3\n      pop\n      pop\n      dup2\n      swap1\n      sstore\n      pop\n        /* \"contracts/MicroToken.sol\":1442:1448  _value */\n      dup2\n        /* \"contracts/MicroToken.sol\":1422:1433  __balanceOf */\n      0x00\n        /* \"contracts/MicroToken.sol\":1422:1438  __balanceOf[_to] */\n      dup1\n        /* \"contracts/MicroToken.sol\":1434:1437  _to */\n      dup6\n        /* \"contracts/MicroToken.sol\":1422:1438  __balanceOf[_to] */\n      0xffffffffffffffffffffffffffffffffffffffff\n      and\n      0xffffffffffffffffffffffffffffffffffffffff\n      and\n      dup2\n      mstore\n      0x20\n      add\n      swap1\n      dup2\n      mstore\n      0x20\n      add\n      0x00\n      keccak256\n      0x00\n        /* \"contracts/MicroToken.sol\":1422:1448  __balanceOf[_to] += _value */\n      dup3\n      dup3\n      sload\n      tag_65\n      swap2\n      swap1\n      tag_66\n      jump\t// in\n    tag_65:\n      swap3\n      pop\n      pop\n      dup2\n      swap1\n      sstore\n      pop\n        /* \"contracts/MicroToken.sol\":1526:1530  true */\n      0x01\n        /* \"contracts/MicroToken.sol\":1519:1530  return true */\n      swap1\n      pop\n      jump(tag_60)\n        /* \"contracts/MicroToken.sol\":1293:1537  if (... */\n    tag_62:\n        /* \"contracts/MicroToken.sol\":1553:1558  false */\n      0x00\n        /* \"contracts/MicroToken.sol\":1546:1558  return false */\n      swap1\n      pop\n        /* \"contracts/MicroToken.sol\":1117:1565  function transferFrom(address _from, address _to, uint _value) public override returns (bool success) {... */\n    tag_60:\n      swap4\n      swap3\n      pop\n      pop\n      pop\n      jump\t// out\n        /* \"contracts/MicroToken.sol\":262:296  uint8 public constant decimals = 0 */\n    tag_34:\n        /* \"contracts/MicroToken.sol\":295:296  0 */\n      0x00\n        /* \"contracts/MicroToken.sol\":262:296  uint8 public constant decimals = 0 */\n      dup2\n      jump\t// out\n        /* \"contracts/MicroToken.sol\":688:812  function balanceOf(address _addr) public view override returns (uint... */\n    tag_40:\n        /* \"contracts/MicroToken.sol\":752:768  uint... */\n      0x00\n        /* \"contracts/MicroToken.sol\":787:798  __balanceOf */\n      dup1\n        /* \"contracts/MicroToken.sol\":787:805  __balanceOf[_addr] */\n      0x00\n        /* \"contracts/MicroToken.sol\":799:804  _addr */\n      dup4\n        /* \"contracts/MicroToken.sol\":787:805  __balanceOf[_addr] */\n      0xffffffffffffffffffffffffffffffffffffffff\n      and\n      0xffffffffffffffffffffffffffffffffffffffff\n      and\n      dup2\n      mstore\n      0x20\n      add\n      swap1\n      dup2\n      mstore\n      0x20\n      add\n      0x00\n      keccak256\n      sload\n        /* \"contracts/MicroToken.sol\":780:805  return __balanceOf[_addr] */\n      swap1\n      pop\n        /* \"contracts/MicroToken.sol\":688:812  function balanceOf(address _addr) public view override returns (uint... */\n      swap2\n      swap1\n      pop\n      jump\t// out\n        /* \"contracts/MicroToken.sol\":163:200  string public constant symbol = \"MFT\" */\n    tag_43:\n      mload(0x40)\n      dup1\n      0x40\n      add\n      0x40\n      mstore\n      dup1\n      0x03\n      dup2\n      mstore\n      0x20\n      add\n      0x4d46540000000000000000000000000000000000000000000000000000000000\n      dup2\n      mstore\n      pop\n      dup2\n      jump\t// out\n        /* \"contracts/MicroToken.sol\":817:1112  function transfer(address _to, uint _value) public override returns (bool... */\n    tag_47:\n        /* \"contracts/MicroToken.sol\":886:902  bool... */\n      0x00\n        /* \"contracts/MicroToken.sol\":927:928  0 */\n      dup1\n        /* \"contracts/MicroToken.sol\":918:924  _value */\n      dup3\n        /* \"contracts/MicroToken.sol\":918:928  _value > 0 */\n      gt\n        /* \"contracts/MicroToken.sol\":918:963  _value > 0 && _value <= balanceOf(msg.sender) */\n      dup1\n      iszero\n      tag_69\n      jumpi\n      pop\n        /* \"contracts/MicroToken.sol\":942:963  balanceOf(msg.sender) */\n      tag_70\n        /* \"contracts/MicroToken.sol\":952:962  msg.sender */\n      caller\n        /* \"contracts/MicroToken.sol\":942:951  balanceOf */\n      tag_40\n        /* \"contracts/MicroToken.sol\":942:963  balanceOf(msg.sender) */\n      jump\t// in\n    tag_70:\n        /* \"contracts/MicroToken.sol\":932:938  _value */\n      dup3\n        /* \"contracts/MicroToken.sol\":932:963  _value <= balanceOf(msg.sender) */\n      gt\n      iszero\n        /* \"contracts/MicroToken.sol\":918:963  _value > 0 && _value <= balanceOf(msg.sender) */\n    tag_69:\n        /* \"contracts/MicroToken.sol\":914:1084  if (_value > 0 && _value <= balanceOf(msg.sender)) {... */\n      iszero\n      tag_71\n      jumpi\n        /* \"contracts/MicroToken.sol\":1006:1012  _value */\n      dup2\n        /* \"contracts/MicroToken.sol\":979:990  __balanceOf */\n      0x00\n        /* \"contracts/MicroToken.sol\":979:1002  __balanceOf[msg.sender] */\n      dup1\n        /* \"contracts/MicroToken.sol\":991:1001  msg.sender */\n      caller\n        /* \"contracts/MicroToken.sol\":979:1002  __balanceOf[msg.sender] */\n      0xffffffffffffffffffffffffffffffffffffffff\n      and\n      0xffffffffffffffffffffffffffffffffffffffff\n      and\n      dup2\n      mstore\n      0x20\n      add\n      swap1\n      dup2\n      mstore\n      0x20\n      add\n      0x00\n      keccak256\n      0x00\n        /* \"contracts/MicroToken.sol\":979:1012  __balanceOf[msg.sender] -= _value */\n      dup3\n      dup3\n      sload\n      tag_72\n      swap2\n      swap1\n      tag_64\n      jump\t// in\n    tag_72:\n      swap3\n      pop\n      pop\n      dup2\n      swap1\n      sstore\n      pop\n        /* \"contracts/MicroToken.sol\":1046:1052  _value */\n      dup2\n        /* \"contracts/MicroToken.sol\":1026:1037  __balanceOf */\n      0x00\n        /* \"contracts/MicroToken.sol\":1026:1042  __balanceOf[_to] */\n      dup1\n        /* \"contracts/MicroToken.sol\":1038:1041  _to */\n      dup6\n        /* \"contracts/MicroToken.sol\":1026:1042  __balanceOf[_to] */\n      0xffffffffffffffffffffffffffffffffffffffff\n      and\n      0xffffffffffffffffffffffffffffffffffffffff\n      and\n      dup2\n      mstore\n      0x20\n      add\n      swap1\n      dup2\n      mstore\n      0x20\n      add\n      0x00\n      keccak256\n      0x00\n        /* \"contracts/MicroToken.sol\":1026:1052  __balanceOf[_to] += _value */\n      dup3\n      dup3\n      sload\n      tag_73\n      swap2\n      swap1\n      tag_66\n      jump\t// in\n    tag_73:\n      swap3\n      pop\n      pop\n      dup2\n      swap1\n      sstore\n      pop\n        /* \"contracts/MicroToken.sol\":1073:1077  true */\n      0x01\n        /* \"contracts/MicroToken.sol\":1066:1077  return true */\n      swap1\n      pop\n      jump(tag_68)\n        /* \"contracts/MicroToken.sol\":914:1084  if (_value > 0 && _value <= balanceOf(msg.sender)) {... */\n    tag_71:\n        /* \"contracts/MicroToken.sol\":1100:1105  false */\n      0x00\n        /* \"contracts/MicroToken.sol\":1093:1105  return false */\n      swap1\n      pop\n        /* \"contracts/MicroToken.sol\":817:1112  function transfer(address _to, uint _value) public override returns (bool... */\n    tag_68:\n      swap3\n      swap2\n      pop\n      pop\n      jump\t// out\n        /* \"contracts/MicroToken.sol\":1776:1956  function allowance(address _owner, address _spender)... */\n    tag_52:\n        /* \"contracts/MicroToken.sol\":1867:1881  uint remaining */\n      0x00\n        /* \"contracts/MicroToken.sol\":1776:1956  function allowance(address _owner, address _spender)... */\n      swap3\n      swap2\n      pop\n      pop\n      jump\t// out\n        /* \"contracts/MicroToken.sol\":350:394  mapping (address => uint) public __balanceOf */\n    tag_56:\n      mstore(0x20, 0x00)\n      dup1\n      0x00\n      mstore\n      keccak256(0x00, 0x40)\n      0x00\n      swap2\n      pop\n      swap1\n      pop\n      sload\n      dup2\n      jump\t// out\n        /* \"#utility.yul\":7:146   */\n    tag_76:\n        /* \"#utility.yul\":53:58   */\n      0x00\n        /* \"#utility.yul\":91:97   */\n      dup2\n        /* \"#utility.yul\":78:98   */\n      calldataload\n        /* \"#utility.yul\":69:98   */\n      swap1\n      pop\n        /* \"#utility.yul\":107:140   */\n      tag_78\n        /* \"#utility.yul\":134:139   */\n      dup2\n        /* \"#utility.yul\":107:140   */\n      tag_79\n      jump\t// in\n    tag_78:\n        /* \"#utility.yul\":7:146   */\n      swap3\n      swap2\n      pop\n      pop\n      jump\t// out\n        /* \"#utility.yul\":152:291   */\n    tag_80:\n        /* \"#utility.yul\":198:203   */\n      0x00\n        /* \"#utility.yul\":236:242   */\n      dup2\n        /* \"#utility.yul\":223:243   */\n      calldataload\n        /* \"#utility.yul\":214:243   */\n      swap1\n      pop\n        /* \"#utility.yul\":252:285   */\n      tag_82\n        /* \"#utility.yul\":279:284   */\n      dup2\n        /* \"#utility.yul\":252:285   */\n      tag_83\n      jump\t// in\n    tag_82:\n        /* \"#utility.yul\":152:291   */\n      swap3\n      swap2\n      pop\n      pop\n      jump\t// out\n        /* \"#utility.yul\":297:626   */\n    tag_39:\n        /* \"#utility.yul\":356:362   */\n      0x00\n        /* \"#utility.yul\":405:407   */\n      0x20\n        /* \"#utility.yul\":393:402   */\n      dup3\n        /* \"#utility.yul\":384:391   */\n      dup5\n        /* \"#utility.yul\":380:403   */\n      sub\n        /* \"#utility.yul\":376:408   */\n      slt\n        /* \"#utility.yul\":373:492   */\n      iszero\n      tag_85\n      jumpi\n        /* \"#utility.yul\":411:490   */\n      tag_86\n      tag_87\n      jump\t// in\n    tag_86:\n        /* \"#utility.yul\":373:492   */\n    tag_85:\n        /* \"#utility.yul\":531:532   */\n      0x00\n        /* \"#utility.yul\":556:609   */\n      tag_88\n        /* \"#utility.yul\":601:608   */\n      dup5\n        /* \"#utility.yul\":592:598   */\n      dup3\n        /* \"#utility.yul\":581:590   */\n      dup6\n        /* \"#utility.yul\":577:599   */\n      add\n        /* \"#utility.yul\":556:609   */\n      tag_76\n      jump\t// in\n    tag_88:\n        /* \"#utility.yul\":546:609   */\n      swap2\n      pop\n        /* \"#utility.yul\":502:619   */\n      pop\n        /* \"#utility.yul\":297:626   */\n      swap3\n      swap2\n      pop\n      pop\n      jump\t// out\n        /* \"#utility.yul\":632:1106   */\n    tag_51:\n        /* \"#utility.yul\":700:706   */\n      0x00\n        /* \"#utility.yul\":708:714   */\n      dup1\n        /* \"#utility.yul\":757:759   */\n      0x40\n        /* \"#utility.yul\":745:754   */\n      dup4\n        /* \"#utility.yul\":736:743   */\n      dup6\n        /* \"#utility.yul\":732:755   */\n      sub\n        /* \"#utility.yul\":728:760   */\n      slt\n        /* \"#utility.yul\":725:844   */\n      iszero\n      tag_90\n      jumpi\n        /* \"#utility.yul\":763:842   */\n      tag_91\n      tag_87\n      jump\t// in\n    tag_91:\n        /* \"#utility.yul\":725:844   */\n    tag_90:\n        /* \"#utility.yul\":883:884   */\n      0x00\n        /* \"#utility.yul\":908:961   */\n      tag_92\n        /* \"#utility.yul\":953:960   */\n      dup6\n        /* \"#utility.yul\":944:950   */\n      dup3\n        /* \"#utility.yul\":933:942   */\n      dup7\n        /* \"#utility.yul\":929:951   */\n      add\n        /* \"#utility.yul\":908:961   */\n      tag_76\n      jump\t// in\n    tag_92:\n        /* \"#utility.yul\":898:961   */\n      swap3\n      pop\n        /* \"#utility.yul\":854:971   */\n      pop\n        /* \"#utility.yul\":1010:1012   */\n      0x20\n        /* \"#utility.yul\":1036:1089   */\n      tag_93\n        /* \"#utility.yul\":1081:1088   */\n      dup6\n        /* \"#utility.yul\":1072:1078   */\n      dup3\n        /* \"#utility.yul\":1061:1070   */\n      dup7\n        /* \"#utility.yul\":1057:1079   */\n      add\n        /* \"#utility.yul\":1036:1089   */\n      tag_76\n      jump\t// in\n    tag_93:\n        /* \"#utility.yul\":1026:1089   */\n      swap2\n      pop\n        /* \"#utility.yul\":981:1099   */\n      pop\n        /* \"#utility.yul\":632:1106   */\n      swap3\n      pop\n      swap3\n      swap1\n      pop\n      jump\t// out\n        /* \"#utility.yul\":1112:1731   */\n    tag_30:\n        /* \"#utility.yul\":1189:1195   */\n      0x00\n        /* \"#utility.yul\":1197:1203   */\n      dup1\n        /* \"#utility.yul\":1205:1211   */\n      0x00\n        /* \"#utility.yul\":1254:1256   */\n      0x60\n        /* \"#utility.yul\":1242:1251   */\n      dup5\n        /* \"#utility.yul\":1233:1240   */\n      dup7\n        /* \"#utility.yul\":1229:1252   */\n      sub\n        /* \"#utility.yul\":1225:1257   */\n      slt\n        /* \"#utility.yul\":1222:1341   */\n      iszero\n      tag_95\n      jumpi\n        /* \"#utility.yul\":1260:1339   */\n      tag_96\n      tag_87\n      jump\t// in\n    tag_96:\n        /* \"#utility.yul\":1222:1341   */\n    tag_95:\n        /* \"#utility.yul\":1380:1381   */\n      0x00\n        /* \"#utility.yul\":1405:1458   */\n      tag_97\n        /* \"#utility.yul\":1450:1457   */\n      dup7\n        /* \"#utility.yul\":1441:1447   */\n      dup3\n        /* \"#utility.yul\":1430:1439   */\n      dup8\n        /* \"#utility.yul\":1426:1448   */\n      add\n        /* \"#utility.yul\":1405:1458   */\n      tag_76\n      jump\t// in\n    tag_97:\n        /* \"#utility.yul\":1395:1458   */\n      swap4\n      pop\n        /* \"#utility.yul\":1351:1468   */\n      pop\n        /* \"#utility.yul\":1507:1509   */\n      0x20\n        /* \"#utility.yul\":1533:1586   */\n      tag_98\n        /* \"#utility.yul\":1578:1585   */\n      dup7\n        /* \"#utility.yul\":1569:1575   */\n      dup3\n        /* \"#utility.yul\":1558:1567   */\n      dup8\n        /* \"#utility.yul\":1554:1576   */\n      add\n        /* \"#utility.yul\":1533:1586   */\n      tag_76\n      jump\t// in\n    tag_98:\n        /* \"#utility.yul\":1523:1586   */\n      swap3\n      pop\n        /* \"#utility.yul\":1478:1596   */\n      pop\n        /* \"#utility.yul\":1635:1637   */\n      0x40\n        /* \"#utility.yul\":1661:1714   */\n      tag_99\n        /* \"#utility.yul\":1706:1713   */\n      dup7\n        /* \"#utility.yul\":1697:1703   */\n      dup3\n        /* \"#utility.yul\":1686:1695   */\n      dup8\n        /* \"#utility.yul\":1682:1704   */\n      add\n        /* \"#utility.yul\":1661:1714   */\n      tag_80\n      jump\t// in\n    tag_99:\n        /* \"#utility.yul\":1651:1714   */\n      swap2\n      pop\n        /* \"#utility.yul\":1606:1724   */\n      pop\n        /* \"#utility.yul\":1112:1731   */\n      swap3\n      pop\n      swap3\n      pop\n      swap3\n      jump\t// out\n        /* \"#utility.yul\":1737:2211   */\n    tag_20:\n        /* \"#utility.yul\":1805:1811   */\n      0x00\n        /* \"#utility.yul\":1813:1819   */\n      dup1\n        /* \"#utility.yul\":1862:1864   */\n      0x40\n        /* \"#utility.yul\":1850:1859   */\n      dup4\n        /* \"#utility.yul\":1841:1848   */\n      dup6\n        /* \"#utility.yul\":1837:1860   */\n      sub\n        /* \"#utility.yul\":1833:1865   */\n      slt\n        /* \"#utility.yul\":1830:1949   */\n      iszero\n      tag_101\n      jumpi\n        /* \"#utility.yul\":1868:1947   */\n      tag_102\n      tag_87\n      jump\t// in\n    tag_102:\n        /* \"#utility.yul\":1830:1949   */\n    tag_101:\n        /* \"#utility.yul\":1988:1989   */\n      0x00\n        /* \"#utility.yul\":2013:2066   */\n      tag_103\n        /* \"#utility.yul\":2058:2065   */\n      dup6\n        /* \"#utility.yul\":2049:2055   */\n      dup3\n        /* \"#utility.yul\":2038:2047   */\n      dup7\n        /* \"#utility.yul\":2034:2056   */\n      add\n        /* \"#utility.yul\":2013:2066   */\n      tag_76\n      jump\t// in\n    tag_103:\n        /* \"#utility.yul\":2003:2066   */\n      swap3\n      pop\n        /* \"#utility.yul\":1959:2076   */\n      pop\n        /* \"#utility.yul\":2115:2117   */\n      0x20\n        /* \"#utility.yul\":2141:2194   */\n      tag_104\n        /* \"#utility.yul\":2186:2193   */\n      dup6\n        /* \"#utility.yul\":2177:2183   */\n      dup3\n        /* \"#utility.yul\":2166:2175   */\n      dup7\n        /* \"#utility.yul\":2162:2184   */\n      add\n        /* \"#utility.yul\":2141:2194   */\n      tag_80\n      jump\t// in\n    tag_104:\n        /* \"#utility.yul\":2131:2194   */\n      swap2\n      pop\n        /* \"#utility.yul\":2086:2204   */\n      pop\n        /* \"#utility.yul\":1737:2211   */\n      swap3\n      pop\n      swap3\n      swap1\n      pop\n      jump\t// out\n        /* \"#utility.yul\":2217:2326   */\n    tag_105:\n        /* \"#utility.yul\":2298:2319   */\n      tag_107\n        /* \"#utility.yul\":2313:2318   */\n      dup2\n        /* \"#utility.yul\":2298:2319   */\n      tag_108\n      jump\t// in\n    tag_107:\n        /* \"#utility.yul\":2293:2296   */\n      dup3\n        /* \"#utility.yul\":2286:2320   */\n      mstore\n        /* \"#utility.yul\":2217:2326   */\n      pop\n      pop\n      jump\t// out\n        /* \"#utility.yul\":2332:2696   */\n    tag_109:\n        /* \"#utility.yul\":2420:2423   */\n      0x00\n        /* \"#utility.yul\":2448:2487   */\n      tag_111\n        /* \"#utility.yul\":2481:2486   */\n      dup3\n        /* \"#utility.yul\":2448:2487   */\n      tag_112\n      jump\t// in\n    tag_111:\n        /* \"#utility.yul\":2503:2574   */\n      tag_113\n        /* \"#utility.yul\":2567:2573   */\n      dup2\n        /* \"#utility.yul\":2562:2565   */\n      dup6\n        /* \"#utility.yul\":2503:2574   */\n      tag_114\n      jump\t// in\n    tag_113:\n        /* \"#utility.yul\":2496:2574   */\n      swap4\n      pop\n        /* \"#utility.yul\":2583:2635   */\n      tag_115\n        /* \"#utility.yul\":2628:2634   */\n      dup2\n        /* \"#utility.yul\":2623:2626   */\n      dup6\n        /* \"#utility.yul\":2616:2620   */\n      0x20\n        /* \"#utility.yul\":2609:2614   */\n      dup7\n        /* \"#utility.yul\":2605:2621   */\n      add\n        /* \"#utility.yul\":2583:2635   */\n      tag_116\n      jump\t// in\n    tag_115:\n        /* \"#utility.yul\":2660:2689   */\n      tag_117\n        /* \"#utility.yul\":2682:2688   */\n      dup2\n        /* \"#utility.yul\":2660:2689   */\n      tag_118\n      jump\t// in\n    tag_117:\n        /* \"#utility.yul\":2655:2658   */\n      dup5\n        /* \"#utility.yul\":2651:2690   */\n      add\n        /* \"#utility.yul\":2644:2690   */\n      swap2\n      pop\n        /* \"#utility.yul\":2424:2696   */\n      pop\n        /* \"#utility.yul\":2332:2696   */\n      swap3\n      swap2\n      pop\n      pop\n      jump\t// out\n        /* \"#utility.yul\":2702:2820   */\n    tag_119:\n        /* \"#utility.yul\":2789:2813   */\n      tag_121\n        /* \"#utility.yul\":2807:2812   */\n      dup2\n        /* \"#utility.yul\":2789:2813   */\n      tag_122\n      jump\t// in\n    tag_121:\n        /* \"#utility.yul\":2784:2787   */\n      dup3\n        /* \"#utility.yul\":2777:2814   */\n      mstore\n        /* \"#utility.yul\":2702:2820   */\n      pop\n      pop\n      jump\t// out\n        /* \"#utility.yul\":2826:2938   */\n    tag_123:\n        /* \"#utility.yul\":2909:2931   */\n      tag_125\n        /* \"#utility.yul\":2925:2930   */\n      dup2\n        /* \"#utility.yul\":2909:2931   */\n      tag_126\n      jump\t// in\n    tag_125:\n        /* \"#utility.yul\":2904:2907   */\n      dup3\n        /* \"#utility.yul\":2897:2932   */\n      mstore\n        /* \"#utility.yul\":2826:2938   */\n      pop\n      pop\n      jump\t// out\n        /* \"#utility.yul\":2944:3154   */\n    tag_23:\n        /* \"#utility.yul\":3031:3035   */\n      0x00\n        /* \"#utility.yul\":3069:3071   */\n      0x20\n        /* \"#utility.yul\":3058:3067   */\n      dup3\n        /* \"#utility.yul\":3054:3072   */\n      add\n        /* \"#utility.yul\":3046:3072   */\n      swap1\n      pop\n        /* \"#utility.yul\":3082:3147   */\n      tag_128\n        /* \"#utility.yul\":3144:3145   */\n      0x00\n        /* \"#utility.yul\":3133:3142   */\n      dup4\n        /* \"#utility.yul\":3129:3146   */\n      add\n        /* \"#utility.yul\":3120:3126   */\n      dup5\n        /* \"#utility.yul\":3082:3147   */\n      tag_105\n      jump\t// in\n    tag_128:\n        /* \"#utility.yul\":2944:3154   */\n      swap3\n      swap2\n      pop\n      pop\n      jump\t// out\n        /* \"#utility.yul\":3160:3473   */\n    tag_17:\n        /* \"#utility.yul\":3273:3277   */\n      0x00\n        /* \"#utility.yul\":3311:3313   */\n      0x20\n        /* \"#utility.yul\":3300:3309   */\n      dup3\n        /* \"#utility.yul\":3296:3314   */\n      add\n        /* \"#utility.yul\":3288:3314   */\n      swap1\n      pop\n        /* \"#utility.yul\":3360:3369   */\n      dup2\n        /* \"#utility.yul\":3354:3358   */\n      dup2\n        /* \"#utility.yul\":3350:3370   */\n      sub\n        /* \"#utility.yul\":3346:3347   */\n      0x00\n        /* \"#utility.yul\":3335:3344   */\n      dup4\n        /* \"#utility.yul\":3331:3348   */\n      add\n        /* \"#utility.yul\":3324:3371   */\n      mstore\n        /* \"#utility.yul\":3388:3466   */\n      tag_130\n        /* \"#utility.yul\":3461:3465   */\n      dup2\n        /* \"#utility.yul\":3452:3458   */\n      dup5\n        /* \"#utility.yul\":3388:3466   */\n      tag_109\n      jump\t// in\n    tag_130:\n        /* \"#utility.yul\":3380:3466   */\n      swap1\n      pop\n        /* \"#utility.yul\":3160:3473   */\n      swap3\n      swap2\n      pop\n      pop\n      jump\t// out\n        /* \"#utility.yul\":3479:3701   */\n    tag_27:\n        /* \"#utility.yul\":3572:3576   */\n      0x00\n        /* \"#utility.yul\":3610:3612   */\n      0x20\n        /* \"#utility.yul\":3599:3608   */\n      dup3\n        /* \"#utility.yul\":3595:3613   */\n      add\n        /* \"#utility.yul\":3587:3613   */\n      swap1\n      pop\n        /* \"#utility.yul\":3623:3694   */\n      tag_132\n        /* \"#utility.yul\":3691:3692   */\n      0x00\n        /* \"#utility.yul\":3680:3689   */\n      dup4\n        /* \"#utility.yul\":3676:3693   */\n      add\n        /* \"#utility.yul\":3667:3673   */\n      dup5\n        /* \"#utility.yul\":3623:3694   */\n      tag_119\n      jump\t// in\n    tag_132:\n        /* \"#utility.yul\":3479:3701   */\n      swap3\n      swap2\n      pop\n      pop\n      jump\t// out\n        /* \"#utility.yul\":3707:3921   */\n    tag_36:\n        /* \"#utility.yul\":3796:3800   */\n      0x00\n        /* \"#utility.yul\":3834:3836   */\n      0x20\n        /* \"#utility.yul\":3823:3832   */\n      dup3\n        /* \"#utility.yul\":3819:3837   */\n      add\n        /* \"#utility.yul\":3811:3837   */\n      swap1\n      pop\n        /* \"#utility.yul\":3847:3914   */\n      tag_134\n        /* \"#utility.yul\":3911:3912   */\n      0x00\n        /* \"#utility.yul\":3900:3909   */\n      dup4\n        /* \"#utility.yul\":3896:3913   */\n      add\n        /* \"#utility.yul\":3887:3893   */\n      dup5\n        /* \"#utility.yul\":3847:3914   */\n      tag_123\n      jump\t// in\n    tag_134:\n        /* \"#utility.yul\":3707:3921   */\n      swap3\n      swap2\n      pop\n      pop\n      jump\t// out\n        /* \"#utility.yul\":4008:4107   */\n    tag_112:\n        /* \"#utility.yul\":4060:4066   */\n      0x00\n        /* \"#utility.yul\":4094:4099   */\n      dup2\n        /* \"#utility.yul\":4088:4100   */\n      mload\n        /* \"#utility.yul\":4078:4100   */\n      swap1\n      pop\n        /* \"#utility.yul\":4008:4107   */\n      swap2\n      swap1\n      pop\n      jump\t// out\n        /* \"#utility.yul\":4113:4282   */\n    tag_114:\n        /* \"#utility.yul\":4197:4208   */\n      0x00\n        /* \"#utility.yul\":4231:4237   */\n      dup3\n        /* \"#utility.yul\":4226:4229   */\n      dup3\n        /* \"#utility.yul\":4219:4238   */\n      mstore\n        /* \"#utility.yul\":4271:4275   */\n      0x20\n        /* \"#utility.yul\":4266:4269   */\n      dup3\n        /* \"#utility.yul\":4262:4276   */\n      add\n        /* \"#utility.yul\":4247:4276   */\n      swap1\n      pop\n        /* \"#utility.yul\":4113:4282   */\n      swap3\n      swap2\n      pop\n      pop\n      jump\t// out\n        /* \"#utility.yul\":4288:4593   */\n    tag_66:\n        /* \"#utility.yul\":4328:4331   */\n      0x00\n        /* \"#utility.yul\":4347:4367   */\n      tag_140\n        /* \"#utility.yul\":4365:4366   */\n      dup3\n        /* \"#utility.yul\":4347:4367   */\n      tag_122\n      jump\t// in\n    tag_140:\n        /* \"#utility.yul\":4342:4367   */\n      swap2\n      pop\n        /* \"#utility.yul\":4381:4401   */\n      tag_141\n        /* \"#utility.yul\":4399:4400   */\n      dup4\n        /* \"#utility.yul\":4381:4401   */\n      tag_122\n      jump\t// in\n    tag_141:\n        /* \"#utility.yul\":4376:4401   */\n      swap3\n      pop\n        /* \"#utility.yul\":4535:4536   */\n      dup3\n        /* \"#utility.yul\":4467:4533   */\n      0xffffffffffffffffffffffffffffffffffffffffffffffffffffffffffffffff\n        /* \"#utility.yul\":4463:4537   */\n      sub\n        /* \"#utility.yul\":4460:4461   */\n      dup3\n        /* \"#utility.yul\":4457:4538   */\n      gt\n        /* \"#utility.yul\":4454:4561   */\n      iszero\n      tag_142\n      jumpi\n        /* \"#utility.yul\":4541:4559   */\n      tag_143\n      tag_144\n      jump\t// in\n    tag_143:\n        /* \"#utility.yul\":4454:4561   */\n    tag_142:\n        /* \"#utility.yul\":4585:4586   */\n      dup3\n        /* \"#utility.yul\":4582:4583   */\n      dup3\n        /* \"#utility.yul\":4578:4587   */\n      add\n        /* \"#utility.yul\":4571:4587   */\n      swap1\n      pop\n        /* \"#utility.yul\":4288:4593   */\n      swap3\n      swap2\n      pop\n      pop\n      jump\t// out\n        /* \"#utility.yul\":4599:4790   */\n    tag_64:\n        /* \"#utility.yul\":4639:4643   */\n      0x00\n        /* \"#utility.yul\":4659:4679   */\n      tag_146\n        /* \"#utility.yul\":4677:4678   */\n      dup3\n        /* \"#utility.yul\":4659:4679   */\n      tag_122\n      jump\t// in\n    tag_146:\n        /* \"#utility.yul\":4654:4679   */\n      swap2\n      pop\n        /* \"#utility.yul\":4693:4713   */\n      tag_147\n        /* \"#utility.yul\":4711:4712   */\n      dup4\n        /* \"#utility.yul\":4693:4713   */\n      tag_122\n      jump\t// in\n    tag_147:\n        /* \"#utility.yul\":4688:4713   */\n      swap3\n      pop\n        /* \"#utility.yul\":4732:4733   */\n      dup3\n        /* \"#utility.yul\":4729:4730   */\n      dup3\n        /* \"#utility.yul\":4726:4734   */\n      lt\n        /* \"#utility.yul\":4723:4757   */\n      iszero\n      tag_148\n      jumpi\n        /* \"#utility.yul\":4737:4755   */\n      tag_149\n      tag_144\n      jump\t// in\n    tag_149:\n        /* \"#utility.yul\":4723:4757   */\n    tag_148:\n        /* \"#utility.yul\":4782:4783   */\n      dup3\n        /* \"#utility.yul\":4779:4780   */\n      dup3\n        /* \"#utility.yul\":4775:4784   */\n      sub\n        /* \"#utility.yul\":4767:4784   */\n      swap1\n      pop\n        /* \"#utility.yul\":4599:4790   */\n      swap3\n      swap2\n      pop\n      pop\n      jump\t// out\n        /* \"#utility.yul\":4796:4892   */\n    tag_150:\n        /* \"#utility.yul\":4833:4840   */\n      0x00\n        /* \"#utility.yul\":4862:4886   */\n      tag_152\n        /* \"#utility.yul\":4880:4885   */\n      dup3\n        /* \"#utility.yul\":4862:4886   */\n      tag_153\n      jump\t// in\n    tag_152:\n        /* \"#utility.yul\":4851:4886   */\n      swap1\n      pop\n        /* \"#utility.yul\":4796:4892   */\n      swap2\n      swap1\n      pop\n      jump\t// out\n        /* \"#utility.yul\":4898:4988   */\n    tag_108:\n        /* \"#utility.yul\":4932:4939   */\n      0x00\n        /* \"#utility.yul\":4975:4980   */\n      dup2\n        /* \"#utility.yul\":4968:4981   */\n      iszero\n        /* \"#utility.yul\":4961:4982   */\n      iszero\n        /* \"#utility.yul\":4950:4982   */\n      swap1\n      pop\n        /* \"#utility.yul\":4898:4988   */\n      swap2\n      swap1\n      pop\n      jump\t// out\n        /* \"#utility.yul\":4994:5120   */\n    tag_153:\n        /* \"#utility.yul\":5031:5038   */\n      0x00\n        /* \"#utility.yul\":5071:5113   */\n      0xffffffffffffffffffffffffffffffffffffffff\n        /* \"#utility.yul\":5064:5069   */\n      dup3\n        /* \"#utility.yul\":5060:5114   */\n      and\n        /* \"#utility.yul\":5049:5114   */\n      swap1\n      pop\n        /* \"#utility.yul\":4994:5120   */\n      swap2\n      swap1\n      pop\n      jump\t// out\n        /* \"#utility.yul\":5126:5203   */\n    tag_122:\n        /* \"#utility.yul\":5163:5170   */\n      0x00\n        /* \"#utility.yul\":5192:5197   */\n      dup2\n        /* \"#utility.yul\":5181:5197   */\n      swap1\n      pop\n        /* \"#utility.yul\":5126:5203   */\n      swap2\n      swap1\n      pop\n      jump\t// out\n        /* \"#utility.yul\":5209:5295   */\n    tag_126:\n        /* \"#utility.yul\":5244:5251   */\n      0x00\n        /* \"#utility.yul\":5284:5288   */\n      0xff\n        /* \"#utility.yul\":5277:5282   */\n      dup3\n        /* \"#utility.yul\":5273:5289   */\n      and\n        /* \"#utility.yul\":5262:5289   */\n      swap1\n      pop\n        /* \"#utility.yul\":5209:5295   */\n      swap2\n      swap1\n      pop\n      jump\t// out\n        /* \"#utility.yul\":5301:5608   */\n    tag_116:\n        /* \"#utility.yul\":5369:5370   */\n      0x00\n        /* \"#utility.yul\":5379:5492   */\n    tag_159:\n        /* \"#utility.yul\":5393:5399   */\n      dup4\n        /* \"#utility.yul\":5390:5391   */\n      dup2\n        /* \"#utility.yul\":5387:5400   */\n      lt\n        /* \"#utility.yul\":5379:5492   */\n      iszero\n      tag_161\n      jumpi\n        /* \"#utility.yul\":5478:5479   */\n      dup1\n        /* \"#utility.yul\":5473:5476   */\n      dup3\n        /* \"#utility.yul\":5469:5480   */\n      add\n        /* \"#utility.yul\":5463:5481   */\n      mload\n        /* \"#utility.yul\":5459:5460   */\n      dup2\n        /* \"#utility.yul\":5454:5457   */\n      dup5\n        /* \"#utility.yul\":5450:5461   */\n      add\n        /* \"#utility.yul\":5443:5482   */\n      mstore\n        /* \"#utility.yul\":5415:5417   */\n      0x20\n        /* \"#utility.yul\":5412:5413   */\n      dup2\n        /* \"#utility.yul\":5408:5418   */\n      add\n        /* \"#utility.yul\":5403:5418   */\n      swap1\n      pop\n        /* \"#utility.yul\":5379:5492   */\n      jump(tag_159)\n    tag_161:\n        /* \"#utility.yul\":5510:5516   */\n      dup4\n        /* \"#utility.yul\":5507:5508   */\n      dup2\n        /* \"#utility.yul\":5504:5517   */\n      gt\n        /* \"#utility.yul\":5501:5602   */\n      iszero\n      tag_162\n      jumpi\n        /* \"#utility.yul\":5590:5591   */\n      0x00\n        /* \"#utility.yul\":5581:5587   */\n      dup5\n        /* \"#utility.yul\":5576:5579   */\n      dup5\n        /* \"#utility.yul\":5572:5588   */\n      add\n        /* \"#utility.yul\":5565:5592   */\n      mstore\n        /* \"#utility.yul\":5501:5602   */\n    tag_162:\n        /* \"#utility.yul\":5350:5608   */\n      pop\n        /* \"#utility.yul\":5301:5608   */\n      pop\n      pop\n      pop\n      jump\t// out\n        /* \"#utility.yul\":5614:5794   */\n    tag_144:\n        /* \"#utility.yul\":5662:5739   */\n      0x4e487b7100000000000000000000000000000000000000000000000000000000\n        /* \"#utility.yul\":5659:5660   */\n      0x00\n        /* \"#utility.yul\":5652:5740   */\n      mstore\n        /* \"#utility.yul\":5759:5763   */\n      0x11\n        /* \"#utility.yul\":5756:5757   */\n      0x04\n        /* \"#utility.yul\":5749:5764   */\n      mstore\n        /* \"#utility.yul\":5783:5787   */\n      0x24\n        /* \"#utility.yul\":5780:5781   */\n      0x00\n        /* \"#utility.yul\":5773:5788   */\n      revert\n        /* \"#utility.yul\":5923:6040   */\n    tag_87:\n        /* \"#utility.yul\":6032:6033   */\n      0x00\n        /* \"#utility.yul\":6029:6030   */\n      dup1\n        /* \"#utility.yul\":6022:6034   */\n      revert\n        /* \"#utility.yul\":6046:6148   */\n    tag_118:\n        /* \"#utility.yul\":6087:6093   */\n      0x00\n        /* \"#utility.yul\":6138:6140   */\n      0x1f\n        /* \"#utility.yul\":6134:6141   */\n      not\n        /* \"#utility.yul\":6129:6131   */\n      0x1f\n        /* \"#utility.yul\":6122:6127   */\n      dup4\n        /* \"#utility.yul\":6118:6132   */\n      add\n        /* \"#utility.yul\":6114:6142   */\n      and\n        /* \"#utility.yul\":6104:6142   */\n      swap1\n      pop\n        /* \"#utility.yul\":6046:6148   */\n      swap2\n      swap1\n      pop\n      jump\t// out\n        /* \"#utility.yul\":6154:6276   */\n    tag_79:\n        /* \"#utility.yul\":6227:6251   */\n      tag_169\n        /* \"#utility.yul\":6245:6250   */\n      dup2\n        /* \"#utility.yul\":6227:6251   */\n      tag_150\n      jump\t// in\n    tag_169:\n        /* \"#utility.yul\":6220:6225   */\n      dup2\n        /* \"#utility.yul\":6217:6252   */\n      eq\n        /* \"#utility.yul\":6207:6270   */\n      tag_170\n      jumpi\n        /* \"#utility.yul\":6266:6267   */\n      0x00\n        /* \"#utility.yul\":6263:6264   */\n      dup1\n        /* \"#utility.yul\":6256:6268   */\n      revert\n        /* \"#utility.yul\":6207:6270   */\n    tag_170:\n        /* \"#utility.yul\":6154:6276   */\n      pop\n      jump\t// out\n        /* \"#utility.yul\":6282:6404   */\n    tag_83:\n        /* \"#utility.yul\":6355:6379   */\n      tag_172\n        /* \"#utility.yul\":6373:6378   */\n      dup2\n        /* \"#utility.yul\":6355:6379   */\n      tag_122\n      jump\t// in\n    tag_172:\n        /* \"#utility.yul\":6348:6353   */\n      dup2\n        /* \"#utility.yul\":6345:6380   */\n      eq\n        /* \"#utility.yul\":6335:6398   */\n      tag_173\n      jumpi\n        /* \"#utility.yul\":6394:6395   */\n      0x00\n        /* \"#utility.yul\":6391:6392   */\n      dup1\n        /* \"#utility.yul\":6384:6396   */\n      revert\n        /* \"#utility.yul\":6335:6398   */\n    tag_173:\n        /* \"#utility.yul\":6282:6404   */\n      pop\n      jump\t// out\n\n    auxdata: 0xa2646970667358221220584cd1e5d75351087f5372a2ba336d1caddb17c8ffd0199baa381ee7d6b6ddca64736f6c63430008070033\n}\n",
				"bytecode": {
					"linkReferences": {},
					"object": "608060405234801561001057600080fd5b506103e86000803373ffffffffffffffffffffffffffffffffffffffff1673ffffffffffffffffffffffffffffffffffffffff168152602001908152602001600020819055506108f9806100656000396000f3fe608060405234801561001057600080fd5b506004361061009e5760003560e01c806370a082311161006657806370a082311461015d57806395d89b411461018d578063a9059cbb146101ab578063dd62ed3e146101db578063eca68bf91461020b5761009e565b806306fdde03146100a3578063095ea7b3146100c157806318160ddd146100f157806323b872dd1461010f578063313ce5671461013f575b600080fd5b6100ab61023b565b6040516100b891906106ca565b60405180910390f35b6100db60048036038101906100d69190610609565b610274565b6040516100e891906106af565b60405180910390f35b6100f9610280565b60405161010691906106ec565b60405180910390f35b610129600480360381019061012491906105b6565b61028a565b60405161013691906106af565b60405180910390f35b61014761039d565b6040516101549190610707565b60405180910390f35b61017760048036038101906101729190610549565b6103a2565b60405161018491906106ec565b60405180910390f35b6101956103ea565b6040516101a291906106ca565b60405180910390f35b6101c560048036038101906101c09190610609565b610423565b6040516101d291906106af565b60405180910390f35b6101f560048036038101906101f09190610576565b6104ff565b60405161020291906106ec565b60405180910390f35b61022560048036038101906102209190610549565b610507565b60405161023291906106ec565b60405180910390f35b6040518060400160405280601281526020017f4d6963726f66696e616e636520546f6b656e000000000000000000000000000081525081565b60006001905092915050565b60006103e8905090565b600080821180156102d95750816000808673ffffffffffffffffffffffffffffffffffffffff1673ffffffffffffffffffffffffffffffffffffffff1681526020019081526020016000205410155b1561039157816000808673ffffffffffffffffffffffffffffffffffffffff1673ffffffffffffffffffffffffffffffffffffffff168152602001908152602001600020600082825461032c9190610794565b92505081905550816000808573ffffffffffffffffffffffffffffffffffffffff1673ffffffffffffffffffffffffffffffffffffffff1681526020019081526020016000206000828254610381919061073e565b9250508190555060019050610396565b600090505b9392505050565b600081565b60008060008373ffffffffffffffffffffffffffffffffffffffff1673ffffffffffffffffffffffffffffffffffffffff168152602001908152602001600020549050919050565b6040518060400160405280600381526020017f4d4654000000000000000000000000000000000000000000000000000000000081525081565b6000808211801561043c5750610438336103a2565b8211155b156104f457816000803373ffffffffffffffffffffffffffffffffffffffff1673ffffffffffffffffffffffffffffffffffffffff168152602001908152602001600020600082825461048f9190610794565b92505081905550816000808573ffffffffffffffffffffffffffffffffffffffff1673ffffffffffffffffffffffffffffffffffffffff16815260200190815260200160002060008282546104e4919061073e565b92505081905550600190506104f9565b600090505b92915050565b600092915050565b60006020528060005260406000206000915090505481565b60008135905061052e81610895565b92915050565b600081359050610543816108ac565b92915050565b60006020828403121561055f5761055e61087f565b5b600061056d8482850161051f565b91505092915050565b6000806040838503121561058d5761058c61087f565b5b600061059b8582860161051f565b92505060206105ac8582860161051f565b9150509250929050565b6000806000606084860312156105cf576105ce61087f565b5b60006105dd8682870161051f565b93505060206105ee8682870161051f565b92505060406105ff86828701610534565b9150509250925092565b600080604083850312156106205761061f61087f565b5b600061062e8582860161051f565b925050602061063f85828601610534565b9150509250929050565b610652816107da565b82525050565b600061066382610722565b61066d818561072d565b935061067d81856020860161081d565b61068681610884565b840191505092915050565b61069a81610806565b82525050565b6106a981610810565b82525050565b60006020820190506106c46000830184610649565b92915050565b600060208201905081810360008301526106e48184610658565b905092915050565b60006020820190506107016000830184610691565b92915050565b600060208201905061071c60008301846106a0565b92915050565b600081519050919050565b600082825260208201905092915050565b600061074982610806565b915061075483610806565b9250827fffffffffffffffffffffffffffffffffffffffffffffffffffffffffffffffff0382111561078957610788610850565b5b828201905092915050565b600061079f82610806565b91506107aa83610806565b9250828210156107bd576107bc610850565b5b828203905092915050565b60006107d3826107e6565b9050919050565b60008115159050919050565b600073ffffffffffffffffffffffffffffffffffffffff82169050919050565b6000819050919050565b600060ff82169050919050565b60005b8381101561083b578082015181840152602081019050610820565b8381111561084a576000848401525b50505050565b7f4e487b7100000000000000000000000000000000000000000000000000000000600052601160045260246000fd5b600080fd5b6000601f19601f8301169050919050565b61089e816107c8565b81146108a957600080fd5b50565b6108b581610806565b81146108c057600080fd5b5056fea2646970667358221220584cd1e5d75351087f5372a2ba336d1caddb17c8ffd0199baa381ee7d6b6ddca64736f6c63430008070033",
					"opcodes": "PUSH1 0x80 PUSH1 0x40 MSTORE CALLVALUE DUP1 ISZERO PUSH2 0x10 JUMPI PUSH1 0x0 DUP1 REVERT JUMPDEST POP PUSH2 0x3E8 PUSH1 0x0 DUP1 CALLER PUSH20 0xFFFFFFFFFFFFFFFFFFFFFFFFFFFFFFFFFFFFFFFF AND PUSH20 0xFFFFFFFFFFFFFFFFFFFFFFFFFFFFFFFFFFFFFFFF AND DUP2 MSTORE PUSH1 0x20 ADD SWAP1 DUP2 MSTORE PUSH1 0x20 ADD PUSH1 0x0 KECCAK256 DUP2 SWAP1 SSTORE POP PUSH2 0x8F9 DUP1 PUSH2 0x65 PUSH1 0x0 CODECOPY PUSH1 0x0 RETURN INVALID PUSH1 0x80 PUSH1 0x40 MSTORE CALLVALUE DUP1 ISZERO PUSH2 0x10 JUMPI PUSH1 0x0 DUP1 REVERT JUMPDEST POP PUSH1 0x4 CALLDATASIZE LT PUSH2 0x9E JUMPI PUSH1 0x0 CALLDATALOAD PUSH1 0xE0 SHR DUP1 PUSH4 0x70A08231 GT PUSH2 0x66 JUMPI DUP1 PUSH4 0x70A08231 EQ PUSH2 0x15D JUMPI DUP1 PUSH4 0x95D89B41 EQ PUSH2 0x18D JUMPI DUP1 PUSH4 0xA9059CBB EQ PUSH2 0x1AB JUMPI DUP1 PUSH4 0xDD62ED3E EQ PUSH2 0x1DB JUMPI DUP1 PUSH4 0xECA68BF9 EQ PUSH2 0x20B JUMPI PUSH2 0x9E JUMP JUMPDEST DUP1 PUSH4 0x6FDDE03 EQ PUSH2 0xA3 JUMPI DUP1 PUSH4 0x95EA7B3 EQ PUSH2 0xC1 JUMPI DUP1 PUSH4 0x18160DDD EQ PUSH2 0xF1 JUMPI DUP1 PUSH4 0x23B872DD EQ PUSH2 0x10F JUMPI DUP1 PUSH4 0x313CE567 EQ PUSH2 0x13F JUMPI JUMPDEST PUSH1 0x0 DUP1 REVERT JUMPDEST PUSH2 0xAB PUSH2 0x23B JUMP JUMPDEST PUSH1 0x40 MLOAD PUSH2 0xB8 SWAP2 SWAP1 PUSH2 0x6CA JUMP JUMPDEST PUSH1 0x40 MLOAD DUP1 SWAP2 SUB SWAP1 RETURN JUMPDEST PUSH2 0xDB PUSH1 0x4 DUP1 CALLDATASIZE SUB DUP2 ADD SWAP1 PUSH2 0xD6 SWAP2 SWAP1 PUSH2 0x609 JUMP JUMPDEST PUSH2 0x274 JUMP JUMPDEST PUSH1 0x40 MLOAD PUSH2 0xE8 SWAP2 SWAP1 PUSH2 0x6AF JUMP JUMPDEST PUSH1 0x40 MLOAD DUP1 SWAP2 SUB SWAP1 RETURN JUMPDEST PUSH2 0xF9 PUSH2 0x280 JUMP JUMPDEST PUSH1 0x40 MLOAD PUSH2 0x106 SWAP2 SWAP1 PUSH2 0x6EC JUMP JUMPDEST PUSH1 0x40 MLOAD DUP1 SWAP2 SUB SWAP1 RETURN JUMPDEST PUSH2 0x129 PUSH1 0x4 DUP1 CALLDATASIZE SUB DUP2 ADD SWAP1 PUSH2 0x124 SWAP2 SWAP1 PUSH2 0x5B6 JUMP JUMPDEST PUSH2 0x28A JUMP JUMPDEST PUSH1 0x40 MLOAD PUSH2 0x136 SWAP2 SWAP1 PUSH2 0x6AF JUMP JUMPDEST PUSH1 0x40 MLOAD DUP1 SWAP2 SUB SWAP1 RETURN JUMPDEST PUSH2 0x147 PUSH2 0x39D JUMP JUMPDEST PUSH1 0x40 MLOAD PUSH2 0x154 SWAP2 SWAP1 PUSH2 0x707 JUMP JUMPDEST PUSH1 0x40 MLOAD DUP1 SWAP2 SUB SWAP1 RETURN JUMPDEST PUSH2 0x177 PUSH1 0x4 DUP1 CALLDATASIZE SUB DUP2 ADD SWAP1 PUSH2 0x172 SWAP2 SWAP1 PUSH2 0x549 JUMP JUMPDEST PUSH2 0x3A2 JUMP JUMPDEST PUSH1 0x40 MLOAD PUSH2 0x184 SWAP2 SWAP1 PUSH2 0x6EC JUMP JUMPDEST PUSH1 0x40 MLOAD DUP1 SWAP2 SUB SWAP1 RETURN JUMPDEST PUSH2 0x195 PUSH2 0x3EA JUMP JUMPDEST PUSH1 0x40 MLOAD PUSH2 0x1A2 SWAP2 SWAP1 PUSH2 0x6CA JUMP JUMPDEST PUSH1 0x40 MLOAD DUP1 SWAP2 SUB SWAP1 RETURN JUMPDEST PUSH2 0x1C5 PUSH1 0x4 DUP1 CALLDATASIZE SUB DUP2 ADD SWAP1 PUSH2 0x1C0 SWAP2 SWAP1 PUSH2 0x609 JUMP JUMPDEST PUSH2 0x423 JUMP JUMPDEST PUSH1 0x40 MLOAD PUSH2 0x1D2 SWAP2 SWAP1 PUSH2 0x6AF JUMP JUMPDEST PUSH1 0x40 MLOAD DUP1 SWAP2 SUB SWAP1 RETURN JUMPDEST PUSH2 0x1F5 PUSH1 0x4 DUP1 CALLDATASIZE SUB DUP2 ADD SWAP1 PUSH2 0x1F0 SWAP2 SWAP1 PUSH2 0x576 JUMP JUMPDEST PUSH2 0x4FF JUMP JUMPDEST PUSH1 0x40 MLOAD PUSH2 0x202 SWAP2 SWAP1 PUSH2 0x6EC JUMP JUMPDEST PUSH1 0x40 MLOAD DUP1 SWAP2 SUB SWAP1 RETURN JUMPDEST PUSH2 0x225 PUSH1 0x4 DUP1 CALLDATASIZE SUB DUP2 ADD SWAP1 PUSH2 0x220 SWAP2 SWAP1 PUSH2 0x549 JUMP JUMPDEST PUSH2 0x507 JUMP JUMPDEST PUSH1 0x40 MLOAD PUSH2 0x232 SWAP2 SWAP1 PUSH2 0x6EC JUMP JUMPDEST PUSH1 0x40 MLOAD DUP1 SWAP2 SUB SWAP1 RETURN JUMPDEST PUSH1 0x40 MLOAD DUP1 PUSH1 0x40 ADD PUSH1 0x40 MSTORE DUP1 PUSH1 0x12 DUP2 MSTORE PUSH1 0x20 ADD PUSH32 0x4D6963726F66696E616E636520546F6B656E0000000000000000000000000000 DUP2 MSTORE POP DUP2 JUMP JUMPDEST PUSH1 0x0 PUSH1 0x1 SWAP1 POP SWAP3 SWAP2 POP POP JUMP JUMPDEST PUSH1 0x0 PUSH2 0x3E8 SWAP1 POP SWAP1 JUMP JUMPDEST PUSH1 0x0 DUP1 DUP3 GT DUP1 ISZERO PUSH2 0x2D9 JUMPI POP DUP2 PUSH1 0x0 DUP1 DUP7 PUSH20 0xFFFFFFFFFFFFFFFFFFFFFFFFFFFFFFFFFFFFFFFF AND PUSH20 0xFFFFFFFFFFFFFFFFFFFFFFFFFFFFFFFFFFFFFFFF AND DUP2 MSTORE PUSH1 0x20 ADD SWAP1 DUP2 MSTORE PUSH1 0x20 ADD PUSH1 0x0 KECCAK256 SLOAD LT ISZERO JUMPDEST ISZERO PUSH2 0x391 JUMPI DUP2 PUSH1 0x0 DUP1 DUP7 PUSH20 0xFFFFFFFFFFFFFFFFFFFFFFFFFFFFFFFFFFFFFFFF AND PUSH20 0xFFFFFFFFFFFFFFFFFFFFFFFFFFFFFFFFFFFFFFFF AND DUP2 MSTORE PUSH1 0x20 ADD SWAP1 DUP2 MSTORE PUSH1 0x20 ADD PUSH1 0x0 KECCAK256 PUSH1 0x0 DUP3 DUP3 SLOAD PUSH2 0x32C SWAP2 SWAP1 PUSH2 0x794 JUMP JUMPDEST SWAP3 POP POP DUP2 SWAP1 SSTORE POP DUP2 PUSH1 0x0 DUP1 DUP6 PUSH20 0xFFFFFFFFFFFFFFFFFFFFFFFFFFFFFFFFFFFFFFFF AND PUSH20 0xFFFFFFFFFFFFFFFFFFFFFFFFFFFFFFFFFFFFFFFF AND DUP2 MSTORE PUSH1 0x20 ADD SWAP1 DUP2 MSTORE PUSH1 0x20 ADD PUSH1 0x0 KECCAK256 PUSH1 0x0 DUP3 DUP3 SLOAD PUSH2 0x381 SWAP2 SWAP1 PUSH2 0x73E JUMP JUMPDEST SWAP3 POP POP DUP2 SWAP1 SSTORE POP PUSH1 0x1 SWAP1 POP PUSH2 0x396 JUMP JUMPDEST PUSH1 0x0 SWAP1 POP JUMPDEST SWAP4 SWAP3 POP POP POP JUMP JUMPDEST PUSH1 0x0 DUP2 JUMP JUMPDEST PUSH1 0x0 DUP1 PUSH1 0x0 DUP4 PUSH20 0xFFFFFFFFFFFFFFFFFFFFFFFFFFFFFFFFFFFFFFFF AND PUSH20 0xFFFFFFFFFFFFFFFFFFFFFFFFFFFFFFFFFFFFFFFF AND DUP2 MSTORE PUSH1 0x20 ADD SWAP1 DUP2 MSTORE PUSH1 0x20 ADD PUSH1 0x0 KECCAK256 SLOAD SWAP1 POP SWAP2 SWAP1 POP JUMP JUMPDEST PUSH1 0x40 MLOAD DUP1 PUSH1 0x40 ADD PUSH1 0x40 MSTORE DUP1 PUSH1 0x3 DUP2 MSTORE PUSH1 0x20 ADD PUSH32 0x4D46540000000000000000000000000000000000000000000000000000000000 DUP2 MSTORE POP DUP2 JUMP JUMPDEST PUSH1 0x0 DUP1 DUP3 GT DUP1 ISZERO PUSH2 0x43C JUMPI POP PUSH2 0x438 CALLER PUSH2 0x3A2 JUMP JUMPDEST DUP3 GT ISZERO JUMPDEST ISZERO PUSH2 0x4F4 JUMPI DUP2 PUSH1 0x0 DUP1 CALLER PUSH20 0xFFFFFFFFFFFFFFFFFFFFFFFFFFFFFFFFFFFFFFFF AND PUSH20 0xFFFFFFFFFFFFFFFFFFFFFFFFFFFFFFFFFFFFFFFF AND DUP2 MSTORE PUSH1 0x20 ADD SWAP1 DUP2 MSTORE PUSH1 0x20 ADD PUSH1 0x0 KECCAK256 PUSH1 0x0 DUP3 DUP3 SLOAD PUSH2 0x48F SWAP2 SWAP1 PUSH2 0x794 JUMP JUMPDEST SWAP3 POP POP DUP2 SWAP1 SSTORE POP DUP2 PUSH1 0x0 DUP1 DUP6 PUSH20 0xFFFFFFFFFFFFFFFFFFFFFFFFFFFFFFFFFFFFFFFF AND PUSH20 0xFFFFFFFFFFFFFFFFFFFFFFFFFFFFFFFFFFFFFFFF AND DUP2 MSTORE PUSH1 0x20 ADD SWAP1 DUP2 MSTORE PUSH1 0x20 ADD PUSH1 0x0 KECCAK256 PUSH1 0x0 DUP3 DUP3 SLOAD PUSH2 0x4E4 SWAP2 SWAP1 PUSH2 0x73E JUMP JUMPDEST SWAP3 POP POP DUP2 SWAP1 SSTORE POP PUSH1 0x1 SWAP1 POP PUSH2 0x4F9 JUMP JUMPDEST PUSH1 0x0 SWAP1 POP JUMPDEST SWAP3 SWAP2 POP POP JUMP JUMPDEST PUSH1 0x0 SWAP3 SWAP2 POP POP JUMP JUMPDEST PUSH1 0x0 PUSH1 0x20 MSTORE DUP1 PUSH1 0x0 MSTORE PUSH1 0x40 PUSH1 0x0 KECCAK256 PUSH1 0x0 SWAP2 POP SWAP1 POP SLOAD DUP2 JUMP JUMPDEST PUSH1 0x0 DUP2 CALLDATALOAD SWAP1 POP PUSH2 0x52E DUP2 PUSH2 0x895 JUMP JUMPDEST SWAP3 SWAP2 POP POP JUMP JUMPDEST PUSH1 0x0 DUP2 CALLDATALOAD SWAP1 POP PUSH2 0x543 DUP2 PUSH2 0x8AC JUMP JUMPDEST SWAP3 SWAP2 POP POP JUMP JUMPDEST PUSH1 0x0 PUSH1 0x20 DUP3 DUP5 SUB SLT ISZERO PUSH2 0x55F JUMPI PUSH2 0x55E PUSH2 0x87F JUMP JUMPDEST JUMPDEST PUSH1 0x0 PUSH2 0x56D DUP5 DUP3 DUP6 ADD PUSH2 0x51F JUMP JUMPDEST SWAP2 POP POP SWAP3 SWAP2 POP POP JUMP JUMPDEST PUSH1 0x0 DUP1 PUSH1 0x40 DUP4 DUP6 SUB SLT ISZERO PUSH2 0x58D JUMPI PUSH2 0x58C PUSH2 0x87F JUMP JUMPDEST JUMPDEST PUSH1 0x0 PUSH2 0x59B DUP6 DUP3 DUP7 ADD PUSH2 0x51F JUMP JUMPDEST SWAP3 POP POP PUSH1 0x20 PUSH2 0x5AC DUP6 DUP3 DUP7 ADD PUSH2 0x51F JUMP JUMPDEST SWAP2 POP POP SWAP3 POP SWAP3 SWAP1 POP JUMP JUMPDEST PUSH1 0x0 DUP1 PUSH1 0x0 PUSH1 0x60 DUP5 DUP7 SUB SLT ISZERO PUSH2 0x5CF JUMPI PUSH2 0x5CE PUSH2 0x87F JUMP JUMPDEST JUMPDEST PUSH1 0x0 PUSH2 0x5DD DUP7 DUP3 DUP8 ADD PUSH2 0x51F JUMP JUMPDEST SWAP4 POP POP PUSH1 0x20 PUSH2 0x5EE DUP7 DUP3 DUP8 ADD PUSH2 0x51F JUMP JUMPDEST SWAP3 POP POP PUSH1 0x40 PUSH2 0x5FF DUP7 DUP3 DUP8 ADD PUSH2 0x534 JUMP JUMPDEST SWAP2 POP POP SWAP3 POP SWAP3 POP SWAP3 JUMP JUMPDEST PUSH1 0x0 DUP1 PUSH1 0x40 DUP4 DUP6 SUB SLT ISZERO PUSH2 0x620 JUMPI PUSH2 0x61F PUSH2 0x87F JUMP JUMPDEST JUMPDEST PUSH1 0x0 PUSH2 0x62E DUP6 DUP3 DUP7 ADD PUSH2 0x51F JUMP JUMPDEST SWAP3 POP POP PUSH1 0x20 PUSH2 0x63F DUP6 DUP3 DUP7 ADD PUSH2 0x534 JUMP JUMPDEST SWAP2 POP POP SWAP3 POP SWAP3 SWAP1 POP JUMP JUMPDEST PUSH2 0x652 DUP2 PUSH2 0x7DA JUMP JUMPDEST DUP3 MSTORE POP POP JUMP JUMPDEST PUSH1 0x0 PUSH2 0x663 DUP3 PUSH2 0x722 JUMP JUMPDEST PUSH2 0x66D DUP2 DUP6 PUSH2 0x72D JUMP JUMPDEST SWAP4 POP PUSH2 0x67D DUP2 DUP6 PUSH1 0x20 DUP7 ADD PUSH2 0x81D JUMP JUMPDEST PUSH2 0x686 DUP2 PUSH2 0x884 JUMP JUMPDEST DUP5 ADD SWAP2 POP POP SWAP3 SWAP2 POP POP JUMP JUMPDEST PUSH2 0x69A DUP2 PUSH2 0x806 JUMP JUMPDEST DUP3 MSTORE POP POP JUMP JUMPDEST PUSH2 0x6A9 DUP2 PUSH2 0x810 JUMP JUMPDEST DUP3 MSTORE POP POP JUMP JUMPDEST PUSH1 0x0 PUSH1 0x20 DUP3 ADD SWAP1 POP PUSH2 0x6C4 PUSH1 0x0 DUP4 ADD DUP5 PUSH2 0x649 JUMP JUMPDEST SWAP3 SWAP2 POP POP JUMP JUMPDEST PUSH1 0x0 PUSH1 0x20 DUP3 ADD SWAP1 POP DUP2 DUP2 SUB PUSH1 0x0 DUP4 ADD MSTORE PUSH2 0x6E4 DUP2 DUP5 PUSH2 0x658 JUMP JUMPDEST SWAP1 POP SWAP3 SWAP2 POP POP JUMP JUMPDEST PUSH1 0x0 PUSH1 0x20 DUP3 ADD SWAP1 POP PUSH2 0x701 PUSH1 0x0 DUP4 ADD DUP5 PUSH2 0x691 JUMP JUMPDEST SWAP3 SWAP2 POP POP JUMP JUMPDEST PUSH1 0x0 PUSH1 0x20 DUP3 ADD SWAP1 POP PUSH2 0x71C PUSH1 0x0 DUP4 ADD DUP5 PUSH2 0x6A0 JUMP JUMPDEST SWAP3 SWAP2 POP POP JUMP JUMPDEST PUSH1 0x0 DUP2 MLOAD SWAP1 POP SWAP2 SWAP1 POP JUMP JUMPDEST PUSH1 0x0 DUP3 DUP3 MSTORE PUSH1 0x20 DUP3 ADD SWAP1 POP SWAP3 SWAP2 POP POP JUMP JUMPDEST PUSH1 0x0 PUSH2 0x749 DUP3 PUSH2 0x806 JUMP JUMPDEST SWAP2 POP PUSH2 0x754 DUP4 PUSH2 0x806 JUMP JUMPDEST SWAP3 POP DUP3 PUSH32 0xFFFFFFFFFFFFFFFFFFFFFFFFFFFFFFFFFFFFFFFFFFFFFFFFFFFFFFFFFFFFFFFF SUB DUP3 GT ISZERO PUSH2 0x789 JUMPI PUSH2 0x788 PUSH2 0x850 JUMP JUMPDEST JUMPDEST DUP3 DUP3 ADD SWAP1 POP SWAP3 SWAP2 POP POP JUMP JUMPDEST PUSH1 0x0 PUSH2 0x79F DUP3 PUSH2 0x806 JUMP JUMPDEST SWAP2 POP PUSH2 0x7AA DUP4 PUSH2 0x806 JUMP JUMPDEST SWAP3 POP DUP3 DUP3 LT ISZERO PUSH2 0x7BD JUMPI PUSH2 0x7BC PUSH2 0x850 JUMP JUMPDEST JUMPDEST DUP3 DUP3 SUB SWAP1 POP SWAP3 SWAP2 POP POP JUMP JUMPDEST PUSH1 0x0 PUSH2 0x7D3 DUP3 PUSH2 0x7E6 JUMP JUMPDEST SWAP1 POP SWAP2 SWAP1 POP JUMP JUMPDEST PUSH1 0x0 DUP2 ISZERO ISZERO SWAP1 POP SWAP2 SWAP1 POP JUMP JUMPDEST PUSH1 0x0 PUSH20 0xFFFFFFFFFFFFFFFFFFFFFFFFFFFFFFFFFFFFFFFF DUP3 AND SWAP1 POP SWAP2 SWAP1 POP JUMP JUMPDEST PUSH1 0x0 DUP2 SWAP1 POP SWAP2 SWAP1 POP JUMP JUMPDEST PUSH1 0x0 PUSH1 0xFF DUP3 AND SWAP1 POP SWAP2 SWAP1 POP JUMP JUMPDEST PUSH1 0x0 JUMPDEST DUP4 DUP2 LT ISZERO PUSH2 0x83B JUMPI DUP1 DUP3 ADD MLOAD DUP2 DUP5 ADD MSTORE PUSH1 0x20 DUP2 ADD SWAP1 POP PUSH2 0x820 JUMP JUMPDEST DUP4 DUP2 GT ISZERO PUSH2 0x84A JUMPI PUSH1 0x0 DUP5 DUP5 ADD MSTORE JUMPDEST POP POP POP POP JUMP JUMPDEST PUSH32 0x4E487B7100000000000000000000000000000000000000000000000000000000 PUSH1 0x0 MSTORE PUSH1 0x11 PUSH1 0x4 MSTORE PUSH1 0x24 PUSH1 0x0 REVERT JUMPDEST PUSH1 0x0 DUP1 REVERT JUMPDEST PUSH1 0x0 PUSH1 0x1F NOT PUSH1 0x1F DUP4 ADD AND SWAP1 POP SWAP2 SWAP1 POP JUMP JUMPDEST PUSH2 0x89E DUP2 PUSH2 0x7C8 JUMP JUMPDEST DUP2 EQ PUSH2 0x8A9 JUMPI PUSH1 0x0 DUP1 REVERT JUMPDEST POP JUMP JUMPDEST PUSH2 0x8B5 DUP2 PUSH2 0x806 JUMP JUMPDEST DUP2 EQ PUSH2 0x8C0 JUMPI PUSH1 0x0 DUP1 REVERT JUMPDEST POP JUMP INVALID LOG2 PUSH5 0x6970667358 0x22 SLT KECCAK256 PC 0x4C 0xD1 0xE5 0xD7 MSTORE8 MLOAD ADDMOD PUSH32 0x5372A2BA336D1CADDB17C8FFD0199BAA381EE7D6B6DDCA64736F6C6343000807 STOP CALLER "
				},
				"gasEstimates": {
					"creation": {
						"codeDepositCost": "459400",
						"executionCost": "22696",
						"totalCost": "482096"
					},
					"external": {
						"__balanceOf(address)": "2902",
						"allowance(address,address)": "infinite",
						"approve(address,uint256)": "853",
						"balanceOf(address)": "2841",
						"decimals()": "424",
						"name()": "infinite",
						"symbol()": "infinite",
						"totalSupply()": "382",
						"transfer(address,uint256)": "infinite",
						"transferFrom(address,address,uint256)": "infinite"
					}
				},
				"methodIdentifiers": {
					"__balanceOf(address)": "eca68bf9",
					"allowance(address,address)": "dd62ed3e",
					"approve(address,uint256)": "095ea7b3",
					"balanceOf(address)": "70a08231",
					"decimals()": "313ce567",
					"name()": "06fdde03",
					"symbol()": "95d89b41",
					"totalSupply()": "18160ddd",
					"transfer(address,uint256)": "a9059cbb",
					"transferFrom(address,address,uint256)": "23b872dd"
				}
			},
			"userdoc": {
				"kind": "user",
				"methods": {},
				"version": 1
			}
		}
	}
}