{
	"contracts/CarRentalSmartContract.sol": {
		"CarRental": {
			"abi": [
				{
					"inputs": [
						{
							"internalType": "address",
							"name": "microTokenContractAddress",
							"type": "address"
						}
					],
					"stateMutability": "nonpayable",
					"type": "constructor"
				},
				{
					"inputs": [
						{
							"internalType": "string",
							"name": "carName",
							"type": "string"
						},
						{
							"internalType": "uint256",
							"name": "carDailyRent",
							"type": "uint256"
						},
						{
							"internalType": "uint256",
							"name": "number",
							"type": "uint256"
						}
					],
					"name": "ABCAddCar",
					"outputs": [
						{
							"internalType": "bool",
							"name": "",
							"type": "bool"
						}
					],
					"stateMutability": "nonpayable",
					"type": "function"
				},
				{
					"inputs": [],
					"name": "ABCAddress",
					"outputs": [
						{
							"internalType": "address",
							"name": "",
							"type": "address"
						}
					],
					"stateMutability": "view",
					"type": "function"
				},
				{
					"inputs": [
						{
							"internalType": "uint256",
							"name": "returnRecordId",
							"type": "uint256"
						},
						{
							"internalType": "uint256",
							"name": "damageFixFeeHere",
							"type": "uint256"
						}
					],
					"name": "ABCAuditDeposit",
					"outputs": [
						{
							"components": [
								{
									"internalType": "uint256",
									"name": "auditRecordId",
									"type": "uint256"
								},
								{
									"internalType": "uint256",
									"name": "returnRecordId",
									"type": "uint256"
								},
								{
									"internalType": "address",
									"name": "customerAddress",
									"type": "address"
								},
								{
									"internalType": "uint256",
									"name": "damageFixFee",
									"type": "uint256"
								},
								{
									"internalType": "uint256",
									"name": "actualRefundAmount",
									"type": "uint256"
								}
							],
							"internalType": "struct CarRental.ABCAuditDepositRecord",
							"name": "",
							"type": "tuple"
						}
					],
					"stateMutability": "payable",
					"type": "function"
				},
				{
					"inputs": [
						{
							"internalType": "uint256",
							"name": "",
							"type": "uint256"
						}
					],
					"name": "allABCAuditDepositRecord",
					"outputs": [
						{
							"internalType": "uint256",
							"name": "auditRecordId",
							"type": "uint256"
						},
						{
							"internalType": "uint256",
							"name": "returnRecordId",
							"type": "uint256"
						},
						{
							"internalType": "address",
							"name": "customerAddress",
							"type": "address"
						},
						{
							"internalType": "uint256",
							"name": "damageFixFee",
							"type": "uint256"
						},
						{
							"internalType": "uint256",
							"name": "actualRefundAmount",
							"type": "uint256"
						}
					],
					"stateMutability": "view",
					"type": "function"
				},
				{
					"inputs": [
						{
							"internalType": "address",
							"name": "",
							"type": "address"
						}
					],
					"name": "allCustomerAddresses",
					"outputs": [
						{
							"internalType": "bool",
							"name": "",
							"type": "bool"
						}
					],
					"stateMutability": "view",
					"type": "function"
				},
				{
					"inputs": [
						{
							"internalType": "uint256",
							"name": "",
							"type": "uint256"
						}
					],
					"name": "allCustomerRentCarRecord",
					"outputs": [
						{
							"internalType": "uint256",
							"name": "rentRecordId",
							"type": "uint256"
						},
						{
							"internalType": "address",
							"name": "customerAddress",
							"type": "address"
						},
						{
							"internalType": "string",
							"name": "carName",
							"type": "string"
						},
						{
							"internalType": "uint256",
							"name": "rentDays",
							"type": "uint256"
						},
						{
							"internalType": "uint256",
							"name": "totalMoneyDeposit",
							"type": "uint256"
						},
						{
							"internalType": "uint256",
							"name": "rentTimeStamp",
							"type": "uint256"
						},
						{
							"internalType": "int256",
							"name": "returnRecordId",
							"type": "int256"
						}
					],
					"stateMutability": "view",
					"type": "function"
				},
				{
					"inputs": [
						{
							"internalType": "uint256",
							"name": "",
							"type": "uint256"
						}
					],
					"name": "allCustomerReturnCarRecord",
					"outputs": [
						{
							"internalType": "uint256",
							"name": "returnRecordId",
							"type": "uint256"
						},
						{
							"internalType": "uint256",
							"name": "rentRecordId",
							"type": "uint256"
						},
						{
							"internalType": "address",
							"name": "customerAddress",
							"type": "address"
						},
						{
							"internalType": "string",
							"name": "carName",
							"type": "string"
						},
						{
							"internalType": "uint256",
							"name": "returnTimeStamp",
							"type": "uint256"
						},
						{
							"internalType": "uint256",
							"name": "rentFee",
							"type": "uint256"
						},
						{
							"internalType": "int256",
							"name": "auditRecordId",
							"type": "int256"
						}
					],
					"stateMutability": "view",
					"type": "function"
				},
				{
					"inputs": [
						{
							"internalType": "string",
							"name": "",
							"type": "string"
						}
					],
					"name": "carAvailability",
					"outputs": [
						{
							"internalType": "uint256",
							"name": "",
							"type": "uint256"
						}
					],
					"stateMutability": "view",
					"type": "function"
				},
				{
					"inputs": [
						{
							"internalType": "string",
							"name": "",
							"type": "string"
						}
					],
					"name": "carInfo",
					"outputs": [
						{
							"internalType": "string",
							"name": "name",
							"type": "string"
						},
						{
							"internalType": "uint256",
							"name": "needDeposit",
							"type": "uint256"
						},
						{
							"internalType": "uint256",
							"name": "dailyRent",
							"type": "uint256"
						}
					],
					"stateMutability": "view",
					"type": "function"
				},
				{
					"inputs": [],
					"name": "currentAuditRecordId",
					"outputs": [
						{
							"internalType": "uint256",
							"name": "",
							"type": "uint256"
						}
					],
					"stateMutability": "view",
					"type": "function"
				},
				{
					"inputs": [],
					"name": "currentRentRecordId",
					"outputs": [
						{
							"internalType": "uint256",
							"name": "",
							"type": "uint256"
						}
					],
					"stateMutability": "view",
					"type": "function"
				},
				{
					"inputs": [],
					"name": "currentReturnRecordId",
					"outputs": [
						{
							"internalType": "uint256",
							"name": "",
							"type": "uint256"
						}
					],
					"stateMutability": "view",
					"type": "function"
				},
				{
					"inputs": [],
					"name": "customerRegister",
					"outputs": [
						{
							"internalType": "bool",
							"name": "",
							"type": "bool"
						}
					],
					"stateMutability": "nonpayable",
					"type": "function"
				},
				{
					"inputs": [
						{
							"internalType": "string",
							"name": "carName",
							"type": "string"
						},
						{
							"internalType": "uint256",
							"name": "rentDays",
							"type": "uint256"
						}
					],
					"name": "customerRentCar",
					"outputs": [
						{
							"components": [
								{
									"internalType": "uint256",
									"name": "rentRecordId",
									"type": "uint256"
								},
								{
									"internalType": "address",
									"name": "customerAddress",
									"type": "address"
								},
								{
									"internalType": "string",
									"name": "carName",
									"type": "string"
								},
								{
									"internalType": "uint256",
									"name": "rentDays",
									"type": "uint256"
								},
								{
									"internalType": "uint256",
									"name": "totalMoneyDeposit",
									"type": "uint256"
								},
								{
									"internalType": "uint256",
									"name": "rentTimeStamp",
									"type": "uint256"
								},
								{
									"internalType": "int256",
									"name": "returnRecordId",
									"type": "int256"
								}
							],
							"internalType": "struct CarRental.customerRentCarRecord",
							"name": "",
							"type": "tuple"
						}
					],
					"stateMutability": "payable",
					"type": "function"
				},
				{
					"inputs": [
						{
							"internalType": "address",
							"name": "",
							"type": "address"
						},
						{
							"internalType": "string",
							"name": "",
							"type": "string"
						}
					],
					"name": "customerRentingCarNumber",
					"outputs": [
						{
							"internalType": "uint256",
							"name": "",
							"type": "uint256"
						}
					],
					"stateMutability": "view",
					"type": "function"
				},
				{
					"inputs": [
						{
							"internalType": "uint256",
							"name": "rentRecordId",
							"type": "uint256"
						}
					],
					"name": "customerReturnCar",
					"outputs": [
						{
							"components": [
								{
									"internalType": "uint256",
									"name": "returnRecordId",
									"type": "uint256"
								},
								{
									"internalType": "uint256",
									"name": "rentRecordId",
									"type": "uint256"
								},
								{
									"internalType": "address",
									"name": "customerAddress",
									"type": "address"
								},
								{
									"internalType": "string",
									"name": "carName",
									"type": "string"
								},
								{
									"internalType": "uint256",
									"name": "returnTimeStamp",
									"type": "uint256"
								},
								{
									"internalType": "uint256",
									"name": "rentFee",
									"type": "uint256"
								},
								{
									"internalType": "int256",
									"name": "auditRecordId",
									"type": "int256"
								}
							],
							"internalType": "struct CarRental.customerReturnCarRecord",
							"name": "",
							"type": "tuple"
						}
					],
					"stateMutability": "nonpayable",
					"type": "function"
				},
				{
					"inputs": [],
					"name": "tokenSC",
					"outputs": [
						{
							"internalType": "contract MicroToken",
							"name": "",
							"type": "address"
						}
					],
					"stateMutability": "view",
					"type": "function"
				}
			],
			"devdoc": {
				"kind": "dev",
				"methods": {},
				"version": 1
			},
			"evm": {
				"assembly": "    /* \"contracts/CarRentalSmartContract.sol\":62:9841  contract CarRental {... */\n  mstore(0x40, 0x80)\n    /* \"contracts/CarRentalSmartContract.sol\":1862:1863  1 */\n  0x01\n    /* \"contracts/CarRentalSmartContract.sol\":1827:1863  uint public currentRentRecordId  = 1 */\n  0x05\n  sstore\n    /* \"contracts/CarRentalSmartContract.sol\":1983:1984  1 */\n  0x01\n    /* \"contracts/CarRentalSmartContract.sol\":1947:1984  uint public currentReturnRecordId = 1 */\n  0x07\n  sstore\n    /* \"contracts/CarRentalSmartContract.sol\":2107:2108  1 */\n  0x01\n    /* \"contracts/CarRentalSmartContract.sol\":2072:2108  uint public currentAuditRecordId = 1 */\n  0x09\n  sstore\n    /* \"contracts/CarRentalSmartContract.sol\":2789:2933  constructor(address microTokenContractAddress) {... */\n  callvalue\n  dup1\n  iszero\n  tag_1\n  jumpi\n  0x00\n  dup1\n  revert\ntag_1:\n  pop\n  mload(0x40)\n  sub(codesize, bytecodeSize)\n  dup1\n  bytecodeSize\n  dup4\n  codecopy\n  dup2\n  dup2\n  add\n  0x40\n  mstore\n  dup2\n  add\n  swap1\n  tag_2\n  swap2\n  swap1\n  tag_3\n  jump\t// in\ntag_2:\n    /* \"contracts/CarRentalSmartContract.sol\":2859:2869  msg.sender */\n  caller\n    /* \"contracts/CarRentalSmartContract.sol\":2846:2856  ABCAddress */\n  0x00\n  dup1\n    /* \"contracts/CarRentalSmartContract.sol\":2846:2869  ABCAddress = msg.sender */\n  0x0100\n  exp\n  dup2\n  sload\n  dup2\n  0xffffffffffffffffffffffffffffffffffffffff\n  mul\n  not\n  and\n  swap1\n  dup4\n  0xffffffffffffffffffffffffffffffffffffffff\n  and\n  mul\n  or\n  swap1\n  sstore\n  pop\n    /* \"contracts/CarRentalSmartContract.sol\":2900:2925  microTokenContractAddress */\n  dup1\n    /* \"contracts/CarRentalSmartContract.sol\":2879:2886  tokenSC */\n  0x0b\n  0x00\n    /* \"contracts/CarRentalSmartContract.sol\":2879:2926  tokenSC = MicroToken(microTokenContractAddress) */\n  0x0100\n  exp\n  dup2\n  sload\n  dup2\n  0xffffffffffffffffffffffffffffffffffffffff\n  mul\n  not\n  and\n  swap1\n  dup4\n  0xffffffffffffffffffffffffffffffffffffffff\n  and\n  mul\n  or\n  swap1\n  sstore\n  pop\n    /* \"contracts/CarRentalSmartContract.sol\":2789:2933  constructor(address microTokenContractAddress) {... */\n  pop\n    /* \"contracts/CarRentalSmartContract.sol\":62:9841  contract CarRental {... */\n  jump(tag_6)\n    /* \"#utility.yul\":7:150   */\ntag_8:\n    /* \"#utility.yul\":64:69   */\n  0x00\n    /* \"#utility.yul\":95:101   */\n  dup2\n    /* \"#utility.yul\":89:102   */\n  mload\n    /* \"#utility.yul\":80:102   */\n  swap1\n  pop\n    /* \"#utility.yul\":111:144   */\n  tag_10\n    /* \"#utility.yul\":138:143   */\n  dup2\n    /* \"#utility.yul\":111:144   */\n  tag_11\n  jump\t// in\ntag_10:\n    /* \"#utility.yul\":7:150   */\n  swap3\n  swap2\n  pop\n  pop\n  jump\t// out\n    /* \"#utility.yul\":156:507   */\ntag_3:\n    /* \"#utility.yul\":226:232   */\n  0x00\n    /* \"#utility.yul\":275:277   */\n  0x20\n    /* \"#utility.yul\":263:272   */\n  dup3\n    /* \"#utility.yul\":254:261   */\n  dup5\n    /* \"#utility.yul\":250:273   */\n  sub\n    /* \"#utility.yul\":246:278   */\n  slt\n    /* \"#utility.yul\":243:362   */\n  iszero\n  tag_13\n  jumpi\n    /* \"#utility.yul\":281:360   */\n  tag_14\n  tag_15\n  jump\t// in\ntag_14:\n    /* \"#utility.yul\":243:362   */\ntag_13:\n    /* \"#utility.yul\":401:402   */\n  0x00\n    /* \"#utility.yul\":426:490   */\n  tag_16\n    /* \"#utility.yul\":482:489   */\n  dup5\n    /* \"#utility.yul\":473:479   */\n  dup3\n    /* \"#utility.yul\":462:471   */\n  dup6\n    /* \"#utility.yul\":458:480   */\n  add\n    /* \"#utility.yul\":426:490   */\n  tag_8\n  jump\t// in\ntag_16:\n    /* \"#utility.yul\":416:490   */\n  swap2\n  pop\n    /* \"#utility.yul\":372:500   */\n  pop\n    /* \"#utility.yul\":156:507   */\n  swap3\n  swap2\n  pop\n  pop\n  jump\t// out\n    /* \"#utility.yul\":594:690   */\ntag_19:\n    /* \"#utility.yul\":631:638   */\n  0x00\n    /* \"#utility.yul\":660:684   */\n  tag_21\n    /* \"#utility.yul\":678:683   */\n  dup3\n    /* \"#utility.yul\":660:684   */\n  tag_22\n  jump\t// in\ntag_21:\n    /* \"#utility.yul\":649:684   */\n  swap1\n  pop\n    /* \"#utility.yul\":594:690   */\n  swap2\n  swap1\n  pop\n  jump\t// out\n    /* \"#utility.yul\":696:822   */\ntag_22:\n    /* \"#utility.yul\":733:740   */\n  0x00\n    /* \"#utility.yul\":773:815   */\n  0xffffffffffffffffffffffffffffffffffffffff\n    /* \"#utility.yul\":766:771   */\n  dup3\n    /* \"#utility.yul\":762:816   */\n  and\n    /* \"#utility.yul\":751:816   */\n  swap1\n  pop\n    /* \"#utility.yul\":696:822   */\n  swap2\n  swap1\n  pop\n  jump\t// out\n    /* \"#utility.yul\":951:1068   */\ntag_15:\n    /* \"#utility.yul\":1060:1061   */\n  0x00\n    /* \"#utility.yul\":1057:1058   */\n  dup1\n    /* \"#utility.yul\":1050:1062   */\n  revert\n    /* \"#utility.yul\":1074:1196   */\ntag_11:\n    /* \"#utility.yul\":1147:1171   */\n  tag_28\n    /* \"#utility.yul\":1165:1170   */\n  dup2\n    /* \"#utility.yul\":1147:1171   */\n  tag_19\n  jump\t// in\ntag_28:\n    /* \"#utility.yul\":1140:1145   */\n  dup2\n    /* \"#utility.yul\":1137:1172   */\n  eq\n    /* \"#utility.yul\":1127:1190   */\n  tag_29\n  jumpi\n    /* \"#utility.yul\":1186:1187   */\n  0x00\n    /* \"#utility.yul\":1183:1184   */\n  dup1\n    /* \"#utility.yul\":1176:1188   */\n  revert\n    /* \"#utility.yul\":1127:1190   */\ntag_29:\n    /* \"#utility.yul\":1074:1196   */\n  pop\n  jump\t// out\n    /* \"contracts/CarRentalSmartContract.sol\":62:9841  contract CarRental {... */\ntag_6:\n  dataSize(sub_0)\n  dup1\n  dataOffset(sub_0)\n  0x00\n  codecopy\n  0x00\n  return\nstop\n\nsub_0: assembly {\n        /* \"contracts/CarRentalSmartContract.sol\":62:9841  contract CarRental {... */\n      mstore(0x40, 0x80)\n      jumpi(tag_1, lt(calldatasize, 0x04))\n      shr(0xe0, calldataload(0x00))\n      dup1\n      0x6b93e409\n      gt\n      tag_19\n      jumpi\n      dup1\n      0xc16849c0\n      gt\n      tag_20\n      jumpi\n      dup1\n      0xc16849c0\n      eq\n      tag_14\n      jumpi\n      dup1\n      0xc87dec7a\n      eq\n      tag_15\n      jumpi\n      dup1\n      0xcb2acd80\n      eq\n      tag_16\n      jumpi\n      dup1\n      0xd05a0447\n      eq\n      tag_17\n      jumpi\n      dup1\n      0xe4962463\n      eq\n      tag_18\n      jumpi\n      jump(tag_1)\n    tag_20:\n      dup1\n      0x6b93e409\n      eq\n      tag_10\n      jumpi\n      dup1\n      0x94fa8235\n      eq\n      tag_11\n      jumpi\n      dup1\n      0x9532007a\n      eq\n      tag_12\n      jumpi\n      dup1\n      0xb027a759\n      eq\n      tag_13\n      jumpi\n      jump(tag_1)\n    tag_19:\n      dup1\n      0x3a8c0e6e\n      gt\n      tag_21\n      jumpi\n      dup1\n      0x3a8c0e6e\n      eq\n      tag_6\n      jumpi\n      dup1\n      0x3e7ab6a8\n      eq\n      tag_7\n      jumpi\n      dup1\n      0x5177d6d2\n      eq\n      tag_8\n      jumpi\n      dup1\n      0x586fa64d\n      eq\n      tag_9\n      jumpi\n      jump(tag_1)\n    tag_21:\n      dup1\n      0x1e4c44\n      eq\n      tag_2\n      jumpi\n      dup1\n      0x0958d944\n      eq\n      tag_3\n      jumpi\n      dup1\n      0x1049f50a\n      eq\n      tag_4\n      jumpi\n      dup1\n      0x38266fe5\n      eq\n      tag_5\n      jumpi\n    tag_1:\n      0x00\n      dup1\n      revert\n        /* \"contracts/CarRentalSmartContract.sol\":2072:2108  uint public currentAuditRecordId = 1 */\n    tag_2:\n      callvalue\n      dup1\n      iszero\n      tag_22\n      jumpi\n      0x00\n      dup1\n      revert\n    tag_22:\n      pop\n      tag_23\n      tag_24\n      jump\t// in\n    tag_23:\n      mload(0x40)\n      tag_25\n      swap2\n      swap1\n      tag_26\n      jump\t// in\n    tag_25:\n      mload(0x40)\n      dup1\n      swap2\n      sub\n      swap1\n      return\n        /* \"contracts/CarRentalSmartContract.sol\":5318:7759  function customerReturnCar(uint rentRecordId) public onlyRegisteredCustomerCanCall returns (customerReturnCarRecord memory) {... */\n    tag_3:\n      callvalue\n      dup1\n      iszero\n      tag_27\n      jumpi\n      0x00\n      dup1\n      revert\n    tag_27:\n      pop\n      tag_28\n      0x04\n      dup1\n      calldatasize\n      sub\n      dup2\n      add\n      swap1\n      tag_29\n      swap2\n      swap1\n      tag_30\n      jump\t// in\n    tag_29:\n      tag_31\n      jump\t// in\n    tag_28:\n      mload(0x40)\n      tag_32\n      swap2\n      swap1\n      tag_33\n      jump\t// in\n    tag_32:\n      mload(0x40)\n      dup1\n      swap2\n      sub\n      swap1\n      return\n        /* \"contracts/CarRentalSmartContract.sol\":1570:1608  mapping (string => Car) public carInfo */\n    tag_4:\n      callvalue\n      dup1\n      iszero\n      tag_34\n      jumpi\n      0x00\n      dup1\n      revert\n    tag_34:\n      pop\n      tag_35\n      0x04\n      dup1\n      calldatasize\n      sub\n      dup2\n      add\n      swap1\n      tag_36\n      swap2\n      swap1\n      tag_37\n      jump\t// in\n    tag_36:\n      tag_38\n      jump\t// in\n    tag_35:\n      mload(0x40)\n      tag_39\n      swap4\n      swap3\n      swap2\n      swap1\n      tag_40\n      jump\t// in\n    tag_39:\n      mload(0x40)\n      dup1\n      swap2\n      sub\n      swap1\n      return\n        /* \"contracts/CarRentalSmartContract.sol\":1427:1503  mapping (address => mapping(string => uint)) public customerRentingCarNumber */\n    tag_5:\n      callvalue\n      dup1\n      iszero\n      tag_41\n      jumpi\n      0x00\n      dup1\n      revert\n    tag_41:\n      pop\n      tag_42\n      0x04\n      dup1\n      calldatasize\n      sub\n      dup2\n      add\n      swap1\n      tag_43\n      swap2\n      swap1\n      tag_44\n      jump\t// in\n    tag_43:\n      tag_45\n      jump\t// in\n    tag_42:\n      mload(0x40)\n      tag_46\n      swap2\n      swap1\n      tag_26\n      jump\t// in\n    tag_46:\n      mload(0x40)\n      dup1\n      swap2\n      sub\n      swap1\n      return\n        /* \"contracts/CarRentalSmartContract.sol\":1990:2065  mapping (uint => customerReturnCarRecord) public allCustomerReturnCarRecord */\n    tag_6:\n      callvalue\n      dup1\n      iszero\n      tag_47\n      jumpi\n      0x00\n      dup1\n      revert\n    tag_47:\n      pop\n      tag_48\n      0x04\n      dup1\n      calldatasize\n      sub\n      dup2\n      add\n      swap1\n      tag_49\n      swap2\n      swap1\n      tag_30\n      jump\t// in\n    tag_49:\n      tag_50\n      jump\t// in\n    tag_48:\n      mload(0x40)\n      tag_51\n      swap8\n      swap7\n      swap6\n      swap5\n      swap4\n      swap3\n      swap2\n      swap1\n      tag_52\n      jump\t// in\n    tag_51:\n      mload(0x40)\n      dup1\n      swap2\n      sub\n      swap1\n      return\n        /* \"contracts/CarRentalSmartContract.sol\":7951:9838  function ABCAuditDeposit(uint returnRecordId, uint damageFixFeeHere) payable public onlyABCCompanyCanCall returns (ABCAuditDepositRecord memory) {... */\n    tag_7:\n      tag_53\n      0x04\n      dup1\n      calldatasize\n      sub\n      dup2\n      add\n      swap1\n      tag_54\n      swap2\n      swap1\n      tag_55\n      jump\t// in\n    tag_54:\n      tag_56\n      jump\t// in\n    tag_53:\n      mload(0x40)\n      tag_57\n      swap2\n      swap1\n      tag_58\n      jump\t// in\n    tag_57:\n      mload(0x40)\n      dup1\n      swap2\n      sub\n      swap1\n      return\n        /* \"contracts/CarRentalSmartContract.sol\":1947:1984  uint public currentReturnRecordId = 1 */\n    tag_8:\n      callvalue\n      dup1\n      iszero\n      tag_59\n      jumpi\n      0x00\n      dup1\n      revert\n    tag_59:\n      pop\n      tag_60\n      tag_61\n      jump\t// in\n    tag_60:\n      mload(0x40)\n      tag_62\n      swap2\n      swap1\n      tag_26\n      jump\t// in\n    tag_62:\n      mload(0x40)\n      dup1\n      swap2\n      sub\n      swap1\n      return\n        /* \"contracts/CarRentalSmartContract.sol\":1672:1719  mapping (string => uint) public carAvailability */\n    tag_9:\n      callvalue\n      dup1\n      iszero\n      tag_63\n      jumpi\n      0x00\n      dup1\n      revert\n    tag_63:\n      pop\n      tag_64\n      0x04\n      dup1\n      calldatasize\n      sub\n      dup2\n      add\n      swap1\n      tag_65\n      swap2\n      swap1\n      tag_37\n      jump\t// in\n    tag_65:\n      tag_66\n      jump\t// in\n    tag_64:\n      mload(0x40)\n      tag_67\n      swap2\n      swap1\n      tag_26\n      jump\t// in\n    tag_67:\n      mload(0x40)\n      dup1\n      swap2\n      sub\n      swap1\n      return\n        /* \"contracts/CarRentalSmartContract.sol\":3925:5165  function customerRentCar(string calldata carName, uint rentDays) payable public onlyRegisteredCustomerCanCall returns (customerRentCarRecord memory) {... */\n    tag_10:\n      tag_68\n      0x04\n      dup1\n      calldatasize\n      sub\n      dup2\n      add\n      swap1\n      tag_69\n      swap2\n      swap1\n      tag_70\n      jump\t// in\n    tag_69:\n      tag_71\n      jump\t// in\n    tag_68:\n      mload(0x40)\n      tag_72\n      swap2\n      swap1\n      tag_73\n      jump\t// in\n    tag_72:\n      mload(0x40)\n      dup1\n      swap2\n      sub\n      swap1\n      return\n        /* \"contracts/CarRentalSmartContract.sol\":3383:3802  function ABCAddCar(string calldata carName, uint carDailyRent, uint number) public onlyABCCompanyCanCall returns (bool) {... */\n    tag_11:\n      callvalue\n      dup1\n      iszero\n      tag_74\n      jumpi\n      0x00\n      dup1\n      revert\n    tag_74:\n      pop\n      tag_75\n      0x04\n      dup1\n      calldatasize\n      sub\n      dup2\n      add\n      swap1\n      tag_76\n      swap2\n      swap1\n      tag_77\n      jump\t// in\n    tag_76:\n      tag_78\n      jump\t// in\n    tag_75:\n      mload(0x40)\n      tag_79\n      swap2\n      swap1\n      tag_80\n      jump\t// in\n    tag_79:\n      mload(0x40)\n      dup1\n      swap2\n      sub\n      swap1\n      return\n        /* \"contracts/CarRentalSmartContract.sol\":1827:1863  uint public currentRentRecordId  = 1 */\n    tag_12:\n      callvalue\n      dup1\n      iszero\n      tag_81\n      jumpi\n      0x00\n      dup1\n      revert\n    tag_81:\n      pop\n      tag_82\n      tag_83\n      jump\t// in\n    tag_82:\n      mload(0x40)\n      tag_84\n      swap2\n      swap1\n      tag_26\n      jump\t// in\n    tag_84:\n      mload(0x40)\n      dup1\n      swap2\n      sub\n      swap1\n      return\n        /* \"contracts/CarRentalSmartContract.sol\":2114:2185  mapping (uint => ABCAuditDepositRecord) public allABCAuditDepositRecord */\n    tag_13:\n      callvalue\n      dup1\n      iszero\n      tag_85\n      jumpi\n      0x00\n      dup1\n      revert\n    tag_85:\n      pop\n      tag_86\n      0x04\n      dup1\n      calldatasize\n      sub\n      dup2\n      add\n      swap1\n      tag_87\n      swap2\n      swap1\n      tag_30\n      jump\t// in\n    tag_87:\n      tag_88\n      jump\t// in\n    tag_86:\n      mload(0x40)\n      tag_89\n      swap6\n      swap5\n      swap4\n      swap3\n      swap2\n      swap1\n      tag_90\n      jump\t// in\n    tag_89:\n      mload(0x40)\n      dup1\n      swap2\n      sub\n      swap1\n      return\n        /* \"contracts/CarRentalSmartContract.sol\":2193:2218  MicroToken public tokenSC */\n    tag_14:\n      callvalue\n      dup1\n      iszero\n      tag_91\n      jumpi\n      0x00\n      dup1\n      revert\n    tag_91:\n      pop\n      tag_92\n      tag_93\n      jump\t// in\n    tag_92:\n      mload(0x40)\n      tag_94\n      swap2\n      swap1\n      tag_95\n      jump\t// in\n    tag_94:\n      mload(0x40)\n      dup1\n      swap2\n      sub\n      swap1\n      return\n        /* \"contracts/CarRentalSmartContract.sol\":1189:1242  mapping (address => bool) public allCustomerAddresses */\n    tag_15:\n      callvalue\n      dup1\n      iszero\n      tag_96\n      jumpi\n      0x00\n      dup1\n      revert\n    tag_96:\n      pop\n      tag_97\n      0x04\n      dup1\n      calldatasize\n      sub\n      dup2\n      add\n      swap1\n      tag_98\n      swap2\n      swap1\n      tag_99\n      jump\t// in\n    tag_98:\n      tag_100\n      jump\t// in\n    tag_97:\n      mload(0x40)\n      tag_101\n      swap2\n      swap1\n      tag_80\n      jump\t// in\n    tag_101:\n      mload(0x40)\n      dup1\n      swap2\n      sub\n      swap1\n      return\n        /* \"contracts/CarRentalSmartContract.sol\":1869:1940  mapping (uint => customerRentCarRecord) public allCustomerRentCarRecord */\n    tag_16:\n      callvalue\n      dup1\n      iszero\n      tag_102\n      jumpi\n      0x00\n      dup1\n      revert\n    tag_102:\n      pop\n      tag_103\n      0x04\n      dup1\n      calldatasize\n      sub\n      dup2\n      add\n      swap1\n      tag_104\n      swap2\n      swap1\n      tag_30\n      jump\t// in\n    tag_104:\n      tag_105\n      jump\t// in\n    tag_103:\n      mload(0x40)\n      tag_106\n      swap8\n      swap7\n      swap6\n      swap5\n      swap4\n      swap3\n      swap2\n      swap1\n      tag_107\n      jump\t// in\n    tag_106:\n      mload(0x40)\n      dup1\n      swap2\n      sub\n      swap1\n      return\n        /* \"contracts/CarRentalSmartContract.sol\":1042:1067  address public ABCAddress */\n    tag_17:\n      callvalue\n      dup1\n      iszero\n      tag_108\n      jumpi\n      0x00\n      dup1\n      revert\n    tag_108:\n      pop\n      tag_109\n      tag_110\n      jump\t// in\n    tag_109:\n      mload(0x40)\n      tag_111\n      swap2\n      swap1\n      tag_112\n      jump\t// in\n    tag_111:\n      mload(0x40)\n      dup1\n      swap2\n      sub\n      swap1\n      return\n        /* \"contracts/CarRentalSmartContract.sol\":3096:3223  function customerRegister() public returns (bool) {... */\n    tag_18:\n      callvalue\n      dup1\n      iszero\n      tag_113\n      jumpi\n      0x00\n      dup1\n      revert\n    tag_113:\n      pop\n      tag_114\n      tag_115\n      jump\t// in\n    tag_114:\n      mload(0x40)\n      tag_116\n      swap2\n      swap1\n      tag_80\n      jump\t// in\n    tag_116:\n      mload(0x40)\n      dup1\n      swap2\n      sub\n      swap1\n      return\n        /* \"contracts/CarRentalSmartContract.sol\":2072:2108  uint public currentAuditRecordId = 1 */\n    tag_24:\n      sload(0x09)\n      dup2\n      jump\t// out\n        /* \"contracts/CarRentalSmartContract.sol\":5318:7759  function customerReturnCar(uint rentRecordId) public onlyRegisteredCustomerCanCall returns (customerReturnCarRecord memory) {... */\n    tag_31:\n        /* \"contracts/CarRentalSmartContract.sol\":5410:5440  customerReturnCarRecord memory */\n      tag_117\n      tag_118\n      jump\t// in\n    tag_117:\n        /* \"contracts/CarRentalSmartContract.sol\":2620:2624  true */\n      0x01\n        /* \"contracts/CarRentalSmartContract.sol\":2584:2624  allCustomerAddresses[msg.sender] == true */\n      iszero\n      iszero\n        /* \"contracts/CarRentalSmartContract.sol\":2584:2604  allCustomerAddresses */\n      0x01\n        /* \"contracts/CarRentalSmartContract.sol\":2584:2616  allCustomerAddresses[msg.sender] */\n      0x00\n        /* \"contracts/CarRentalSmartContract.sol\":2605:2615  msg.sender */\n      caller\n        /* \"contracts/CarRentalSmartContract.sol\":2584:2616  allCustomerAddresses[msg.sender] */\n      0xffffffffffffffffffffffffffffffffffffffff\n      and\n      0xffffffffffffffffffffffffffffffffffffffff\n      and\n      dup2\n      mstore\n      0x20\n      add\n      swap1\n      dup2\n      mstore\n      0x20\n      add\n      0x00\n      keccak256\n      0x00\n      swap1\n      sload\n      swap1\n      0x0100\n      exp\n      swap1\n      div\n      0xff\n      and\n        /* \"contracts/CarRentalSmartContract.sol\":2584:2624  allCustomerAddresses[msg.sender] == true */\n      iszero\n      iszero\n      eq\n        /* \"contracts/CarRentalSmartContract.sol\":2576:2676  require(allCustomerAddresses[msg.sender] == true, \"Customer not registered! Please register first!\") */\n      tag_120\n      jumpi\n      mload(0x40)\n      0x08c379a000000000000000000000000000000000000000000000000000000000\n      dup2\n      mstore\n      0x04\n      add\n      tag_121\n      swap1\n      tag_122\n      jump\t// in\n    tag_121:\n      mload(0x40)\n      dup1\n      swap2\n      sub\n      swap1\n      revert\n    tag_120:\n        /* \"contracts/CarRentalSmartContract.sol\":5476:5495  currentRentRecordId */\n      sload(0x05)\n        /* \"contracts/CarRentalSmartContract.sol\":5460:5472  rentRecordId */\n      dup3\n        /* \"contracts/CarRentalSmartContract.sol\":5460:5495  rentRecordId <= currentRentRecordId */\n      gt\n      iszero\n        /* \"contracts/CarRentalSmartContract.sol\":5460:5515  rentRecordId <= currentRentRecordId && rentRecordId > 0 */\n      dup1\n      iszero\n      tag_124\n      jumpi\n      pop\n        /* \"contracts/CarRentalSmartContract.sol\":5514:5515  0 */\n      0x00\n        /* \"contracts/CarRentalSmartContract.sol\":5499:5511  rentRecordId */\n      dup3\n        /* \"contracts/CarRentalSmartContract.sol\":5499:5515  rentRecordId > 0 */\n      gt\n        /* \"contracts/CarRentalSmartContract.sol\":5460:5515  rentRecordId <= currentRentRecordId && rentRecordId > 0 */\n    tag_124:\n        /* \"contracts/CarRentalSmartContract.sol\":5452:5546  require(rentRecordId <= currentRentRecordId && rentRecordId > 0, \"Input rentRecordId Invaid!\") */\n      tag_125\n      jumpi\n      mload(0x40)\n      0x08c379a000000000000000000000000000000000000000000000000000000000\n      dup2\n      mstore\n      0x04\n      add\n      tag_126\n      swap1\n      tag_127\n      jump\t// in\n    tag_126:\n      mload(0x40)\n      dup1\n      swap2\n      sub\n      swap1\n      revert\n    tag_125:\n        /* \"contracts/CarRentalSmartContract.sol\":5578:5602  allCustomerRentCarRecord */\n      0x06\n        /* \"contracts/CarRentalSmartContract.sol\":5578:5616  allCustomerRentCarRecord[rentRecordId] */\n      0x00\n        /* \"contracts/CarRentalSmartContract.sol\":5603:5615  rentRecordId */\n      dup4\n        /* \"contracts/CarRentalSmartContract.sol\":5578:5616  allCustomerRentCarRecord[rentRecordId] */\n      dup2\n      mstore\n      0x20\n      add\n      swap1\n      dup2\n      mstore\n      0x20\n      add\n      0x00\n      keccak256\n        /* \"contracts/CarRentalSmartContract.sol\":5578:5632  allCustomerRentCarRecord[rentRecordId].customerAddress */\n      0x01\n      add\n      0x00\n      swap1\n      sload\n      swap1\n      0x0100\n      exp\n      swap1\n      div\n      0xffffffffffffffffffffffffffffffffffffffff\n      and\n        /* \"contracts/CarRentalSmartContract.sol\":5564:5632  msg.sender == allCustomerRentCarRecord[rentRecordId].customerAddress */\n      0xffffffffffffffffffffffffffffffffffffffff\n      and\n        /* \"contracts/CarRentalSmartContract.sol\":5564:5574  msg.sender */\n      caller\n        /* \"contracts/CarRentalSmartContract.sol\":5564:5632  msg.sender == allCustomerRentCarRecord[rentRecordId].customerAddress */\n      0xffffffffffffffffffffffffffffffffffffffff\n      and\n      eq\n        /* \"contracts/CarRentalSmartContract.sol\":5556:5676  require(msg.sender == allCustomerRentCarRecord[rentRecordId].customerAddress, \"The customer's address doesn't matched!\") */\n      tag_128\n      jumpi\n      mload(0x40)\n      0x08c379a000000000000000000000000000000000000000000000000000000000\n      dup2\n      mstore\n      0x04\n      add\n      tag_129\n      swap1\n      tag_130\n      jump\t// in\n    tag_129:\n      mload(0x40)\n      dup1\n      swap2\n      sub\n      swap1\n      revert\n    tag_128:\n        /* \"contracts/CarRentalSmartContract.sol\":5751:5753  -1 */\n      0xffffffffffffffffffffffffffffffffffffffffffffffffffffffffffffffff\n        /* \"contracts/CarRentalSmartContract.sol\":5694:5718  allCustomerRentCarRecord */\n      0x06\n        /* \"contracts/CarRentalSmartContract.sol\":5694:5732  allCustomerRentCarRecord[rentRecordId] */\n      0x00\n        /* \"contracts/CarRentalSmartContract.sol\":5719:5731  rentRecordId */\n      dup5\n        /* \"contracts/CarRentalSmartContract.sol\":5694:5732  allCustomerRentCarRecord[rentRecordId] */\n      dup2\n      mstore\n      0x20\n      add\n      swap1\n      dup2\n      mstore\n      0x20\n      add\n      0x00\n      keccak256\n        /* \"contracts/CarRentalSmartContract.sol\":5694:5747  allCustomerRentCarRecord[rentRecordId].returnRecordId */\n      0x06\n      add\n      sload\n        /* \"contracts/CarRentalSmartContract.sol\":5694:5753  allCustomerRentCarRecord[rentRecordId].returnRecordId == -1 */\n      eq\n        /* \"contracts/CarRentalSmartContract.sol\":5686:5808  require(allCustomerRentCarRecord[rentRecordId].returnRecordId == -1, \"The rent of this rentId has been already returned!\") */\n      tag_131\n      jumpi\n      mload(0x40)\n      0x08c379a000000000000000000000000000000000000000000000000000000000\n      dup2\n      mstore\n      0x04\n      add\n      tag_132\n      swap1\n      tag_133\n      jump\t// in\n    tag_132:\n      mload(0x40)\n      dup1\n      swap2\n      sub\n      swap1\n      revert\n    tag_131:\n        /* \"contracts/CarRentalSmartContract.sol\":5860:5885  string memory carNameHere */\n      0x00\n        /* \"contracts/CarRentalSmartContract.sol\":5888:5912  allCustomerRentCarRecord */\n      0x06\n        /* \"contracts/CarRentalSmartContract.sol\":5888:5926  allCustomerRentCarRecord[rentRecordId] */\n      0x00\n        /* \"contracts/CarRentalSmartContract.sol\":5913:5925  rentRecordId */\n      dup5\n        /* \"contracts/CarRentalSmartContract.sol\":5888:5926  allCustomerRentCarRecord[rentRecordId] */\n      dup2\n      mstore\n      0x20\n      add\n      swap1\n      dup2\n      mstore\n      0x20\n      add\n      0x00\n      keccak256\n        /* \"contracts/CarRentalSmartContract.sol\":5888:5934  allCustomerRentCarRecord[rentRecordId].carName */\n      0x02\n      add\n        /* \"contracts/CarRentalSmartContract.sol\":5860:5934  string memory carNameHere = allCustomerRentCarRecord[rentRecordId].carName */\n      dup1\n      sload\n      tag_134\n      swap1\n      tag_135\n      jump\t// in\n    tag_134:\n      dup1\n      0x1f\n      add\n      0x20\n      dup1\n      swap2\n      div\n      mul\n      0x20\n      add\n      mload(0x40)\n      swap1\n      dup2\n      add\n      0x40\n      mstore\n      dup1\n      swap3\n      swap2\n      swap1\n      dup2\n      dup2\n      mstore\n      0x20\n      add\n      dup3\n      dup1\n      sload\n      tag_136\n      swap1\n      tag_135\n      jump\t// in\n    tag_136:\n      dup1\n      iszero\n      tag_137\n      jumpi\n      dup1\n      0x1f\n      lt\n      tag_138\n      jumpi\n      0x0100\n      dup1\n      dup4\n      sload\n      div\n      mul\n      dup4\n      mstore\n      swap2\n      0x20\n      add\n      swap2\n      jump(tag_137)\n    tag_138:\n      dup3\n      add\n      swap2\n      swap1\n      0x00\n      mstore\n      keccak256(0x00, 0x20)\n      swap1\n    tag_139:\n      dup2\n      sload\n      dup2\n      mstore\n      swap1\n      0x01\n      add\n      swap1\n      0x20\n      add\n      dup1\n      dup4\n      gt\n      tag_139\n      jumpi\n      dup3\n      swap1\n      sub\n      0x1f\n      and\n      dup3\n      add\n      swap2\n    tag_137:\n      pop\n      pop\n      pop\n      pop\n      pop\n      swap1\n      pop\n        /* \"contracts/CarRentalSmartContract.sol\":5944:5966  uint rentTimeStampHere */\n      0x00\n        /* \"contracts/CarRentalSmartContract.sol\":5969:5993  allCustomerRentCarRecord */\n      0x06\n        /* \"contracts/CarRentalSmartContract.sol\":5969:6007  allCustomerRentCarRecord[rentRecordId] */\n      0x00\n        /* \"contracts/CarRentalSmartContract.sol\":5994:6006  rentRecordId */\n      dup6\n        /* \"contracts/CarRentalSmartContract.sol\":5969:6007  allCustomerRentCarRecord[rentRecordId] */\n      dup2\n      mstore\n      0x20\n      add\n      swap1\n      dup2\n      mstore\n      0x20\n      add\n      0x00\n      keccak256\n        /* \"contracts/CarRentalSmartContract.sol\":5969:6021  allCustomerRentCarRecord[rentRecordId].rentTimeStamp */\n      0x05\n      add\n      sload\n        /* \"contracts/CarRentalSmartContract.sol\":5944:6021  uint rentTimeStampHere = allCustomerRentCarRecord[rentRecordId].rentTimeStamp */\n      swap1\n      pop\n        /* \"contracts/CarRentalSmartContract.sol\":6137:6138  1 */\n      0x01\n        /* \"contracts/CarRentalSmartContract.sol\":6084:6108  customerRentingCarNumber */\n      0x02\n        /* \"contracts/CarRentalSmartContract.sol\":6084:6120  customerRentingCarNumber[msg.sender] */\n      0x00\n        /* \"contracts/CarRentalSmartContract.sol\":6109:6119  msg.sender */\n      caller\n        /* \"contracts/CarRentalSmartContract.sol\":6084:6120  customerRentingCarNumber[msg.sender] */\n      0xffffffffffffffffffffffffffffffffffffffff\n      and\n      0xffffffffffffffffffffffffffffffffffffffff\n      and\n      dup2\n      mstore\n      0x20\n      add\n      swap1\n      dup2\n      mstore\n      0x20\n      add\n      0x00\n      keccak256\n        /* \"contracts/CarRentalSmartContract.sol\":6121:6132  carNameHere */\n      dup4\n        /* \"contracts/CarRentalSmartContract.sol\":6084:6133  customerRentingCarNumber[msg.sender][carNameHere] */\n      mload(0x40)\n      tag_140\n      swap2\n      swap1\n      tag_141\n      jump\t// in\n    tag_140:\n      swap1\n      dup2\n      mstore\n      0x20\n      add\n      mload(0x40)\n      dup1\n      swap2\n      sub\n      swap1\n      keccak256\n      0x00\n        /* \"contracts/CarRentalSmartContract.sol\":6084:6138  customerRentingCarNumber[msg.sender][carNameHere] -= 1 */\n      dup3\n      dup3\n      sload\n      tag_142\n      swap2\n      swap1\n      tag_143\n      jump\t// in\n    tag_142:\n      swap3\n      pop\n      pop\n      dup2\n      swap1\n      sstore\n      pop\n        /* \"contracts/CarRentalSmartContract.sol\":6222:6223  1 */\n      0x01\n        /* \"contracts/CarRentalSmartContract.sol\":6190:6205  carAvailability */\n      0x04\n        /* \"contracts/CarRentalSmartContract.sol\":6206:6217  carNameHere */\n      dup4\n        /* \"contracts/CarRentalSmartContract.sol\":6190:6218  carAvailability[carNameHere] */\n      mload(0x40)\n      tag_144\n      swap2\n      swap1\n      tag_141\n      jump\t// in\n    tag_144:\n      swap1\n      dup2\n      mstore\n      0x20\n      add\n      mload(0x40)\n      dup1\n      swap2\n      sub\n      swap1\n      keccak256\n      0x00\n        /* \"contracts/CarRentalSmartContract.sol\":6190:6223  carAvailability[carNameHere] += 1 */\n      dup3\n      dup3\n      sload\n      tag_145\n      swap2\n      swap1\n      tag_146\n      jump\t// in\n    tag_145:\n      swap3\n      pop\n      pop\n      dup2\n      swap1\n      sstore\n      pop\n        /* \"contracts/CarRentalSmartContract.sol\":6282:6294  uint timeNow */\n      0x00\n        /* \"contracts/CarRentalSmartContract.sol\":6297:6312  block.timestamp */\n      timestamp\n        /* \"contracts/CarRentalSmartContract.sol\":6282:6312  uint timeNow = block.timestamp */\n      swap1\n      pop\n        /* \"contracts/CarRentalSmartContract.sol\":6322:6343  uint actualTimePassed */\n      0x00\n        /* \"contracts/CarRentalSmartContract.sol\":6357:6374  rentTimeStampHere */\n      dup3\n        /* \"contracts/CarRentalSmartContract.sol\":6347:6354  timeNow */\n      dup3\n        /* \"contracts/CarRentalSmartContract.sol\":6347:6374  timeNow - rentTimeStampHere */\n      tag_147\n      swap2\n      swap1\n      tag_143\n      jump\t// in\n    tag_147:\n        /* \"contracts/CarRentalSmartContract.sol\":6322:6374  uint actualTimePassed =  timeNow - rentTimeStampHere */\n      swap1\n      pop\n        /* \"contracts/CarRentalSmartContract.sol\":6549:6569  uint actualDayPassed */\n      0x00\n        /* \"contracts/CarRentalSmartContract.sol\":6606:6607  1 */\n      0x01\n        /* \"contracts/CarRentalSmartContract.sol\":6601:6603  24 */\n      0x18\n        /* \"contracts/CarRentalSmartContract.sol\":6596:6598  60 */\n      0x3c\n        /* \"contracts/CarRentalSmartContract.sol\":6591:6593  60 */\n      dup1\n        /* \"contracts/CarRentalSmartContract.sol\":6572:6588  actualTimePassed */\n      dup6\n        /* \"contracts/CarRentalSmartContract.sol\":6572:6593  actualTimePassed / 60 */\n      tag_148\n      swap2\n      swap1\n      tag_149\n      jump\t// in\n    tag_148:\n        /* \"contracts/CarRentalSmartContract.sol\":6572:6598  actualTimePassed / 60 / 60 */\n      tag_150\n      swap2\n      swap1\n      tag_149\n      jump\t// in\n    tag_150:\n        /* \"contracts/CarRentalSmartContract.sol\":6572:6603  actualTimePassed / 60 / 60 / 24 */\n      tag_151\n      swap2\n      swap1\n      tag_149\n      jump\t// in\n    tag_151:\n        /* \"contracts/CarRentalSmartContract.sol\":6572:6607  actualTimePassed / 60 / 60 / 24 + 1 */\n      tag_152\n      swap2\n      swap1\n      tag_146\n      jump\t// in\n    tag_152:\n        /* \"contracts/CarRentalSmartContract.sol\":6549:6607  uint actualDayPassed = actualTimePassed / 60 / 60 / 24 + 1 */\n      swap1\n      pop\n        /* \"contracts/CarRentalSmartContract.sol\":6648:6664  uint rentFeeHere */\n      0x00\n        /* \"contracts/CarRentalSmartContract.sol\":6685:6692  carInfo */\n      0x03\n        /* \"contracts/CarRentalSmartContract.sol\":6693:6704  carNameHere */\n      dup7\n        /* \"contracts/CarRentalSmartContract.sol\":6685:6705  carInfo[carNameHere] */\n      mload(0x40)\n      tag_153\n      swap2\n      swap1\n      tag_141\n      jump\t// in\n    tag_153:\n      swap1\n      dup2\n      mstore\n      0x20\n      add\n      mload(0x40)\n      dup1\n      swap2\n      sub\n      swap1\n      keccak256\n        /* \"contracts/CarRentalSmartContract.sol\":6685:6715  carInfo[carNameHere].dailyRent */\n      0x02\n      add\n      sload\n        /* \"contracts/CarRentalSmartContract.sol\":6667:6682  actualDayPassed */\n      dup3\n        /* \"contracts/CarRentalSmartContract.sol\":6667:6715  actualDayPassed * carInfo[carNameHere].dailyRent */\n      tag_154\n      swap2\n      swap1\n      tag_155\n      jump\t// in\n    tag_154:\n        /* \"contracts/CarRentalSmartContract.sol\":6648:6715  uint rentFeeHere = actualDayPassed * carInfo[carNameHere].dailyRent */\n      swap1\n      pop\n        /* \"contracts/CarRentalSmartContract.sol\":6826:6876  customerReturnCarRecord memory thisReturnCarRecord */\n      0x00\n        /* \"contracts/CarRentalSmartContract.sol\":6879:7506  customerReturnCarRecord(currentReturnRecordId, ... */\n      mload(0x40)\n      dup1\n      0xe0\n      add\n      0x40\n      mstore\n      dup1\n        /* \"contracts/CarRentalSmartContract.sol\":6903:6924  currentReturnRecordId */\n      sload(0x07)\n        /* \"contracts/CarRentalSmartContract.sol\":6879:7506  customerReturnCarRecord(currentReturnRecordId, ... */\n      dup2\n      mstore\n      0x20\n      add\n        /* \"contracts/CarRentalSmartContract.sol\":7012:7024  rentRecordId */\n      dup11\n        /* \"contracts/CarRentalSmartContract.sol\":6879:7506  customerReturnCarRecord(currentReturnRecordId, ... */\n      dup2\n      mstore\n      0x20\n      add\n        /* \"contracts/CarRentalSmartContract.sol\":7112:7122  msg.sender */\n      caller\n        /* \"contracts/CarRentalSmartContract.sol\":6879:7506  customerReturnCarRecord(currentReturnRecordId, ... */\n      0xffffffffffffffffffffffffffffffffffffffff\n      and\n      dup2\n      mstore\n      0x20\n      add\n        /* \"contracts/CarRentalSmartContract.sol\":7210:7221  carNameHere */\n      dup9\n        /* \"contracts/CarRentalSmartContract.sol\":6879:7506  customerReturnCarRecord(currentReturnRecordId, ... */\n      dup2\n      mstore\n      0x20\n      add\n        /* \"contracts/CarRentalSmartContract.sol\":7309:7316  timeNow */\n      dup7\n        /* \"contracts/CarRentalSmartContract.sol\":6879:7506  customerReturnCarRecord(currentReturnRecordId, ... */\n      dup2\n      mstore\n      0x20\n      add\n        /* \"contracts/CarRentalSmartContract.sol\":7404:7415  rentFeeHere */\n      dup4\n        /* \"contracts/CarRentalSmartContract.sol\":6879:7506  customerReturnCarRecord(currentReturnRecordId, ... */\n      dup2\n      mstore\n      0x20\n      add\n        /* \"contracts/CarRentalSmartContract.sol\":7503:7505  -1 */\n      0xffffffffffffffffffffffffffffffffffffffffffffffffffffffffffffffff\n        /* \"contracts/CarRentalSmartContract.sol\":6879:7506  customerReturnCarRecord(currentReturnRecordId, ... */\n      dup2\n      mstore\n      pop\n        /* \"contracts/CarRentalSmartContract.sol\":6826:7506  customerReturnCarRecord memory thisReturnCarRecord = customerReturnCarRecord(currentReturnRecordId, ... */\n      swap1\n      pop\n        /* \"contracts/CarRentalSmartContract.sol\":7568:7587  thisReturnCarRecord */\n      dup1\n        /* \"contracts/CarRentalSmartContract.sol\":7516:7542  allCustomerReturnCarRecord */\n      0x08\n        /* \"contracts/CarRentalSmartContract.sol\":7516:7565  allCustomerReturnCarRecord[currentReturnRecordId] */\n      0x00\n        /* \"contracts/CarRentalSmartContract.sol\":7543:7564  currentReturnRecordId */\n      sload(0x07)\n        /* \"contracts/CarRentalSmartContract.sol\":7516:7565  allCustomerReturnCarRecord[currentReturnRecordId] */\n      dup2\n      mstore\n      0x20\n      add\n      swap1\n      dup2\n      mstore\n      0x20\n      add\n      0x00\n      keccak256\n        /* \"contracts/CarRentalSmartContract.sol\":7516:7587  allCustomerReturnCarRecord[currentReturnRecordId] = thisReturnCarRecord */\n      0x00\n      dup3\n      add\n      mload\n      dup2\n      0x00\n      add\n      sstore\n      0x20\n      dup3\n      add\n      mload\n      dup2\n      0x01\n      add\n      sstore\n      0x40\n      dup3\n      add\n      mload\n      dup2\n      0x02\n      add\n      exp(0x0100, 0x00)\n      dup2\n      sload\n      dup2\n      0xffffffffffffffffffffffffffffffffffffffff\n      mul\n      not\n      and\n      swap1\n      dup4\n      0xffffffffffffffffffffffffffffffffffffffff\n      and\n      mul\n      or\n      swap1\n      sstore\n      pop\n      0x60\n      dup3\n      add\n      mload\n      dup2\n      0x03\n      add\n      swap1\n      dup1\n      mload\n      swap1\n      0x20\n      add\n      swap1\n      tag_156\n      swap3\n      swap2\n      swap1\n      tag_157\n      jump\t// in\n    tag_156:\n      pop\n      0x80\n      dup3\n      add\n      mload\n      dup2\n      0x04\n      add\n      sstore\n      0xa0\n      dup3\n      add\n      mload\n      dup2\n      0x05\n      add\n      sstore\n      0xc0\n      dup3\n      add\n      mload\n      dup2\n      0x06\n      add\n      sstore\n      swap1\n      pop\n      pop\n        /* \"contracts/CarRentalSmartContract.sol\":7657:7678  currentReturnRecordId */\n      sload(0x07)\n        /* \"contracts/CarRentalSmartContract.sol\":7597:7621  allCustomerRentCarRecord */\n      0x06\n        /* \"contracts/CarRentalSmartContract.sol\":7597:7635  allCustomerRentCarRecord[rentRecordId] */\n      0x00\n        /* \"contracts/CarRentalSmartContract.sol\":7622:7634  rentRecordId */\n      dup12\n        /* \"contracts/CarRentalSmartContract.sol\":7597:7635  allCustomerRentCarRecord[rentRecordId] */\n      dup2\n      mstore\n      0x20\n      add\n      swap1\n      dup2\n      mstore\n      0x20\n      add\n      0x00\n      keccak256\n        /* \"contracts/CarRentalSmartContract.sol\":7597:7650  allCustomerRentCarRecord[rentRecordId].returnRecordId */\n      0x06\n      add\n        /* \"contracts/CarRentalSmartContract.sol\":7597:7679  allCustomerRentCarRecord[rentRecordId].returnRecordId = int(currentReturnRecordId) */\n      dup2\n      swap1\n      sstore\n      pop\n        /* \"contracts/CarRentalSmartContract.sol\":7714:7715  1 */\n      0x01\n        /* \"contracts/CarRentalSmartContract.sol\":7689:7710  currentReturnRecordId */\n      0x07\n      0x00\n        /* \"contracts/CarRentalSmartContract.sol\":7689:7715  currentReturnRecordId += 1 */\n      dup3\n      dup3\n      sload\n      tag_158\n      swap2\n      swap1\n      tag_146\n      jump\t// in\n    tag_158:\n      swap3\n      pop\n      pop\n      dup2\n      swap1\n      sstore\n      pop\n        /* \"contracts/CarRentalSmartContract.sol\":7733:7752  thisReturnCarRecord */\n      dup1\n        /* \"contracts/CarRentalSmartContract.sol\":7726:7752  return thisReturnCarRecord */\n      swap8\n      pop\n      pop\n      pop\n      pop\n      pop\n      pop\n      pop\n      pop\n        /* \"contracts/CarRentalSmartContract.sol\":5318:7759  function customerReturnCar(uint rentRecordId) public onlyRegisteredCustomerCanCall returns (customerReturnCarRecord memory) {... */\n      swap2\n      swap1\n      pop\n      jump\t// out\n        /* \"contracts/CarRentalSmartContract.sol\":1570:1608  mapping (string => Car) public carInfo */\n    tag_38:\n      0x03\n      dup2\n      dup1\n      mload\n      0x20\n      dup2\n      add\n      dup3\n      add\n      dup1\n      mload\n      dup5\n      dup3\n      mstore\n      0x20\n      dup4\n      add\n      0x20\n      dup6\n      add\n      keccak256\n      dup2\n      dup4\n      mstore\n      dup1\n      swap6\n      pop\n      pop\n      pop\n      pop\n      pop\n      pop\n      0x00\n      swap2\n      pop\n      swap1\n      pop\n      dup1\n      0x00\n      add\n      dup1\n      sload\n      tag_159\n      swap1\n      tag_135\n      jump\t// in\n    tag_159:\n      dup1\n      0x1f\n      add\n      0x20\n      dup1\n      swap2\n      div\n      mul\n      0x20\n      add\n      mload(0x40)\n      swap1\n      dup2\n      add\n      0x40\n      mstore\n      dup1\n      swap3\n      swap2\n      swap1\n      dup2\n      dup2\n      mstore\n      0x20\n      add\n      dup3\n      dup1\n      sload\n      tag_160\n      swap1\n      tag_135\n      jump\t// in\n    tag_160:\n      dup1\n      iszero\n      tag_161\n      jumpi\n      dup1\n      0x1f\n      lt\n      tag_162\n      jumpi\n      0x0100\n      dup1\n      dup4\n      sload\n      div\n      mul\n      dup4\n      mstore\n      swap2\n      0x20\n      add\n      swap2\n      jump(tag_161)\n    tag_162:\n      dup3\n      add\n      swap2\n      swap1\n      0x00\n      mstore\n      keccak256(0x00, 0x20)\n      swap1\n    tag_163:\n      dup2\n      sload\n      dup2\n      mstore\n      swap1\n      0x01\n      add\n      swap1\n      0x20\n      add\n      dup1\n      dup4\n      gt\n      tag_163\n      jumpi\n      dup3\n      swap1\n      sub\n      0x1f\n      and\n      dup3\n      add\n      swap2\n    tag_161:\n      pop\n      pop\n      pop\n      pop\n      pop\n      swap1\n      dup1\n      0x01\n      add\n      sload\n      swap1\n      dup1\n      0x02\n      add\n      sload\n      swap1\n      pop\n      dup4\n      jump\t// out\n        /* \"contracts/CarRentalSmartContract.sol\":1427:1503  mapping (address => mapping(string => uint)) public customerRentingCarNumber */\n    tag_45:\n      mstore(0x20, 0x02)\n      dup2\n      0x00\n      mstore\n      keccak256(0x00, 0x40)\n      dup2\n      dup1\n      mload\n      0x20\n      dup2\n      add\n      dup3\n      add\n      dup1\n      mload\n      dup5\n      dup3\n      mstore\n      0x20\n      dup4\n      add\n      0x20\n      dup6\n      add\n      keccak256\n      dup2\n      dup4\n      mstore\n      dup1\n      swap6\n      pop\n      pop\n      pop\n      pop\n      pop\n      pop\n      0x00\n      swap2\n      pop\n      swap2\n      pop\n      pop\n      sload\n      dup2\n      jump\t// out\n        /* \"contracts/CarRentalSmartContract.sol\":1990:2065  mapping (uint => customerReturnCarRecord) public allCustomerReturnCarRecord */\n    tag_50:\n      mstore(0x20, 0x08)\n      dup1\n      0x00\n      mstore\n      keccak256(0x00, 0x40)\n      0x00\n      swap2\n      pop\n      swap1\n      pop\n      dup1\n      0x00\n      add\n      sload\n      swap1\n      dup1\n      0x01\n      add\n      sload\n      swap1\n      dup1\n      0x02\n      add\n      0x00\n      swap1\n      sload\n      swap1\n      0x0100\n      exp\n      swap1\n      div\n      0xffffffffffffffffffffffffffffffffffffffff\n      and\n      swap1\n      dup1\n      0x03\n      add\n      dup1\n      sload\n      tag_164\n      swap1\n      tag_135\n      jump\t// in\n    tag_164:\n      dup1\n      0x1f\n      add\n      0x20\n      dup1\n      swap2\n      div\n      mul\n      0x20\n      add\n      mload(0x40)\n      swap1\n      dup2\n      add\n      0x40\n      mstore\n      dup1\n      swap3\n      swap2\n      swap1\n      dup2\n      dup2\n      mstore\n      0x20\n      add\n      dup3\n      dup1\n      sload\n      tag_165\n      swap1\n      tag_135\n      jump\t// in\n    tag_165:\n      dup1\n      iszero\n      tag_166\n      jumpi\n      dup1\n      0x1f\n      lt\n      tag_167\n      jumpi\n      0x0100\n      dup1\n      dup4\n      sload\n      div\n      mul\n      dup4\n      mstore\n      swap2\n      0x20\n      add\n      swap2\n      jump(tag_166)\n    tag_167:\n      dup3\n      add\n      swap2\n      swap1\n      0x00\n      mstore\n      keccak256(0x00, 0x20)\n      swap1\n    tag_168:\n      dup2\n      sload\n      dup2\n      mstore\n      swap1\n      0x01\n      add\n      swap1\n      0x20\n      add\n      dup1\n      dup4\n      gt\n      tag_168\n      jumpi\n      dup3\n      swap1\n      sub\n      0x1f\n      and\n      dup3\n      add\n      swap2\n    tag_166:\n      pop\n      pop\n      pop\n      pop\n      pop\n      swap1\n      dup1\n      0x04\n      add\n      sload\n      swap1\n      dup1\n      0x05\n      add\n      sload\n      swap1\n      dup1\n      0x06\n      add\n      sload\n      swap1\n      pop\n      dup8\n      jump\t// out\n        /* \"contracts/CarRentalSmartContract.sol\":7951:9838  function ABCAuditDeposit(uint returnRecordId, uint damageFixFeeHere) payable public onlyABCCompanyCanCall returns (ABCAuditDepositRecord memory) {... */\n    tag_56:\n        /* \"contracts/CarRentalSmartContract.sol\":8066:8094  ABCAuditDepositRecord memory */\n      tag_169\n      tag_170\n      jump\t// in\n    tag_169:\n        /* \"contracts/CarRentalSmartContract.sol\":2366:2376  ABCAddress */\n      0x00\n      dup1\n      sload\n      swap1\n      0x0100\n      exp\n      swap1\n      div\n      0xffffffffffffffffffffffffffffffffffffffff\n      and\n        /* \"contracts/CarRentalSmartContract.sol\":2352:2376  msg.sender == ABCAddress */\n      0xffffffffffffffffffffffffffffffffffffffff\n      and\n        /* \"contracts/CarRentalSmartContract.sol\":2352:2362  msg.sender */\n      caller\n        /* \"contracts/CarRentalSmartContract.sol\":2352:2376  msg.sender == ABCAddress */\n      0xffffffffffffffffffffffffffffffffffffffff\n      and\n      eq\n        /* \"contracts/CarRentalSmartContract.sol\":2344:2413  require(msg.sender == ABCAddress, \"Only ABC can call this function!\") */\n      tag_172\n      jumpi\n      mload(0x40)\n      0x08c379a000000000000000000000000000000000000000000000000000000000\n      dup2\n      mstore\n      0x04\n      add\n      tag_173\n      swap1\n      tag_174\n      jump\t// in\n    tag_173:\n      mload(0x40)\n      dup1\n      swap2\n      sub\n      swap1\n      revert\n    tag_172:\n        /* \"contracts/CarRentalSmartContract.sol\":8132:8153  currentReturnRecordId */\n      sload(0x07)\n        /* \"contracts/CarRentalSmartContract.sol\":8114:8128  returnRecordId */\n      dup4\n        /* \"contracts/CarRentalSmartContract.sol\":8114:8153  returnRecordId <= currentReturnRecordId */\n      gt\n      iszero\n        /* \"contracts/CarRentalSmartContract.sol\":8114:8175  returnRecordId <= currentReturnRecordId && returnRecordId > 0 */\n      dup1\n      iszero\n      tag_176\n      jumpi\n      pop\n        /* \"contracts/CarRentalSmartContract.sol\":8174:8175  0 */\n      0x00\n        /* \"contracts/CarRentalSmartContract.sol\":8157:8171  returnRecordId */\n      dup4\n        /* \"contracts/CarRentalSmartContract.sol\":8157:8175  returnRecordId > 0 */\n      gt\n        /* \"contracts/CarRentalSmartContract.sol\":8114:8175  returnRecordId <= currentReturnRecordId && returnRecordId > 0 */\n    tag_176:\n        /* \"contracts/CarRentalSmartContract.sol\":8106:8208  require(returnRecordId <= currentReturnRecordId && returnRecordId > 0, \"Input returnRecordId Invaid!\") */\n      tag_177\n      jumpi\n      mload(0x40)\n      0x08c379a000000000000000000000000000000000000000000000000000000000\n      dup2\n      mstore\n      0x04\n      add\n      tag_178\n      swap1\n      tag_179\n      jump\t// in\n    tag_178:\n      mload(0x40)\n      dup1\n      swap2\n      sub\n      swap1\n      revert\n    tag_177:\n        /* \"contracts/CarRentalSmartContract.sol\":8374:8376  -1 */\n      0xffffffffffffffffffffffffffffffffffffffffffffffffffffffffffffffff\n        /* \"contracts/CarRentalSmartContract.sol\":8314:8340  allCustomerReturnCarRecord */\n      0x08\n        /* \"contracts/CarRentalSmartContract.sol\":8314:8356  allCustomerReturnCarRecord[returnRecordId] */\n      0x00\n        /* \"contracts/CarRentalSmartContract.sol\":8341:8355  returnRecordId */\n      dup6\n        /* \"contracts/CarRentalSmartContract.sol\":8314:8356  allCustomerReturnCarRecord[returnRecordId] */\n      dup2\n      mstore\n      0x20\n      add\n      swap1\n      dup2\n      mstore\n      0x20\n      add\n      0x00\n      keccak256\n        /* \"contracts/CarRentalSmartContract.sol\":8314:8370  allCustomerReturnCarRecord[returnRecordId].auditRecordId */\n      0x06\n      add\n      sload\n        /* \"contracts/CarRentalSmartContract.sol\":8314:8376  allCustomerReturnCarRecord[returnRecordId].auditRecordId == -1 */\n      eq\n        /* \"contracts/CarRentalSmartContract.sol\":8306:8434  require(allCustomerReturnCarRecord[returnRecordId].auditRecordId == -1, \"The return of this returnId has been already audited!\") */\n      tag_180\n      jumpi\n      mload(0x40)\n      0x08c379a000000000000000000000000000000000000000000000000000000000\n      dup2\n      mstore\n      0x04\n      add\n      tag_181\n      swap1\n      tag_182\n      jump\t// in\n    tag_181:\n      mload(0x40)\n      dup1\n      swap2\n      sub\n      swap1\n      revert\n    tag_180:\n        /* \"contracts/CarRentalSmartContract.sol\":8502:8529  address customerAddressHere */\n      0x00\n        /* \"contracts/CarRentalSmartContract.sol\":8532:8558  allCustomerReturnCarRecord */\n      0x08\n        /* \"contracts/CarRentalSmartContract.sol\":8532:8574  allCustomerReturnCarRecord[returnRecordId] */\n      0x00\n        /* \"contracts/CarRentalSmartContract.sol\":8559:8573  returnRecordId */\n      dup6\n        /* \"contracts/CarRentalSmartContract.sol\":8532:8574  allCustomerReturnCarRecord[returnRecordId] */\n      dup2\n      mstore\n      0x20\n      add\n      swap1\n      dup2\n      mstore\n      0x20\n      add\n      0x00\n      keccak256\n        /* \"contracts/CarRentalSmartContract.sol\":8532:8590  allCustomerReturnCarRecord[returnRecordId].customerAddress */\n      0x02\n      add\n      0x00\n      swap1\n      sload\n      swap1\n      0x0100\n      exp\n      swap1\n      div\n      0xffffffffffffffffffffffffffffffffffffffff\n      and\n        /* \"contracts/CarRentalSmartContract.sol\":8502:8590  address customerAddressHere = allCustomerReturnCarRecord[returnRecordId].customerAddress */\n      swap1\n      pop\n        /* \"contracts/CarRentalSmartContract.sol\":8600:8621  uint totalDepositHere */\n      0x00\n        /* \"contracts/CarRentalSmartContract.sol\":8624:8648  allCustomerRentCarRecord */\n      0x06\n        /* \"contracts/CarRentalSmartContract.sol\":8624:8705  allCustomerRentCarRecord[allCustomerReturnCarRecord[returnRecordId].rentRecordId] */\n      0x00\n        /* \"contracts/CarRentalSmartContract.sol\":8649:8675  allCustomerReturnCarRecord */\n      0x08\n        /* \"contracts/CarRentalSmartContract.sol\":8649:8691  allCustomerReturnCarRecord[returnRecordId] */\n      0x00\n        /* \"contracts/CarRentalSmartContract.sol\":8676:8690  returnRecordId */\n      dup9\n        /* \"contracts/CarRentalSmartContract.sol\":8649:8691  allCustomerReturnCarRecord[returnRecordId] */\n      dup2\n      mstore\n      0x20\n      add\n      swap1\n      dup2\n      mstore\n      0x20\n      add\n      0x00\n      keccak256\n        /* \"contracts/CarRentalSmartContract.sol\":8649:8704  allCustomerReturnCarRecord[returnRecordId].rentRecordId */\n      0x01\n      add\n      sload\n        /* \"contracts/CarRentalSmartContract.sol\":8624:8705  allCustomerRentCarRecord[allCustomerReturnCarRecord[returnRecordId].rentRecordId] */\n      dup2\n      mstore\n      0x20\n      add\n      swap1\n      dup2\n      mstore\n      0x20\n      add\n      0x00\n      keccak256\n        /* \"contracts/CarRentalSmartContract.sol\":8624:8723  allCustomerRentCarRecord[allCustomerReturnCarRecord[returnRecordId].rentRecordId].totalMoneyDeposit */\n      0x04\n      add\n      sload\n        /* \"contracts/CarRentalSmartContract.sol\":8600:8723  uint totalDepositHere = allCustomerRentCarRecord[allCustomerReturnCarRecord[returnRecordId].rentRecordId].totalMoneyDeposit */\n      swap1\n      pop\n        /* \"contracts/CarRentalSmartContract.sol\":8733:8749  uint rentFeeHere */\n      0x00\n        /* \"contracts/CarRentalSmartContract.sol\":8752:8778  allCustomerReturnCarRecord */\n      0x08\n        /* \"contracts/CarRentalSmartContract.sol\":8752:8794  allCustomerReturnCarRecord[returnRecordId] */\n      0x00\n        /* \"contracts/CarRentalSmartContract.sol\":8779:8793  returnRecordId */\n      dup8\n        /* \"contracts/CarRentalSmartContract.sol\":8752:8794  allCustomerReturnCarRecord[returnRecordId] */\n      dup2\n      mstore\n      0x20\n      add\n      swap1\n      dup2\n      mstore\n      0x20\n      add\n      0x00\n      keccak256\n        /* \"contracts/CarRentalSmartContract.sol\":8752:8802  allCustomerReturnCarRecord[returnRecordId].rentFee */\n      0x05\n      add\n      sload\n        /* \"contracts/CarRentalSmartContract.sol\":8733:8802  uint rentFeeHere = allCustomerReturnCarRecord[returnRecordId].rentFee */\n      swap1\n      pop\n        /* \"contracts/CarRentalSmartContract.sol\":8883:8904  uint refundAmountHere */\n      0x00\n        /* \"contracts/CarRentalSmartContract.sol\":8940:8956  damageFixFeeHere */\n      dup6\n        /* \"contracts/CarRentalSmartContract.sol\":8926:8937  rentFeeHere */\n      dup3\n        /* \"contracts/CarRentalSmartContract.sol\":8907:8923  totalDepositHere */\n      dup5\n        /* \"contracts/CarRentalSmartContract.sol\":8907:8937  totalDepositHere - rentFeeHere */\n      tag_183\n      swap2\n      swap1\n      tag_143\n      jump\t// in\n    tag_183:\n        /* \"contracts/CarRentalSmartContract.sol\":8907:8956  totalDepositHere - rentFeeHere - damageFixFeeHere */\n      tag_184\n      swap2\n      swap1\n      tag_143\n      jump\t// in\n    tag_184:\n        /* \"contracts/CarRentalSmartContract.sol\":8883:8956  uint refundAmountHere = totalDepositHere - rentFeeHere - damageFixFeeHere */\n      swap1\n      pop\n        /* \"contracts/CarRentalSmartContract.sol\":9005:9024  customerAddressHere */\n      dup4\n        /* \"contracts/CarRentalSmartContract.sol\":8997:9034  payable(customerAddressHere).transfer */\n      0xffffffffffffffffffffffffffffffffffffffff\n      and\n        /* \"contracts/CarRentalSmartContract.sol\":8997:9052  payable(customerAddressHere).transfer(refundAmountHere) */\n      0x08fc\n        /* \"contracts/CarRentalSmartContract.sol\":9035:9051  refundAmountHere */\n      dup3\n        /* \"contracts/CarRentalSmartContract.sol\":8997:9052  payable(customerAddressHere).transfer(refundAmountHere) */\n      swap1\n      dup2\n      iszero\n      mul\n      swap1\n      mload(0x40)\n      0x00\n      mload(0x40)\n      dup1\n      dup4\n      sub\n      dup2\n      dup6\n      dup9\n      dup9\n      call\n      swap4\n      pop\n      pop\n      pop\n      pop\n      iszero\n      dup1\n      iszero\n      tag_186\n      jumpi\n      returndatasize\n      0x00\n      dup1\n      returndatacopy\n      revert(0x00, returndatasize)\n    tag_186:\n      pop\n        /* \"contracts/CarRentalSmartContract.sol\":9063:9114  ABCAuditDepositRecord memory auditDepositRecordHere */\n      0x00\n        /* \"contracts/CarRentalSmartContract.sol\":9117:9572  ABCAuditDepositRecord(currentAuditRecordId, ... */\n      mload(0x40)\n      dup1\n      0xa0\n      add\n      0x40\n      mstore\n      dup1\n        /* \"contracts/CarRentalSmartContract.sol\":9139:9159  currentAuditRecordId */\n      sload(0x09)\n        /* \"contracts/CarRentalSmartContract.sol\":9117:9572  ABCAuditDepositRecord(currentAuditRecordId, ... */\n      dup2\n      mstore\n      0x20\n      add\n        /* \"contracts/CarRentalSmartContract.sol\":9246:9260  returnRecordId */\n      dup10\n        /* \"contracts/CarRentalSmartContract.sol\":9117:9572  ABCAuditDepositRecord(currentAuditRecordId, ... */\n      dup2\n      mstore\n      0x20\n      add\n        /* \"contracts/CarRentalSmartContract.sol\":9346:9365  customerAddressHere */\n      dup7\n        /* \"contracts/CarRentalSmartContract.sol\":9117:9572  ABCAuditDepositRecord(currentAuditRecordId, ... */\n      0xffffffffffffffffffffffffffffffffffffffff\n      and\n      dup2\n      mstore\n      0x20\n      add\n        /* \"contracts/CarRentalSmartContract.sol\":9452:9468  damageFixFeeHere */\n      dup9\n        /* \"contracts/CarRentalSmartContract.sol\":9117:9572  ABCAuditDepositRecord(currentAuditRecordId, ... */\n      dup2\n      mstore\n      0x20\n      add\n        /* \"contracts/CarRentalSmartContract.sol\":9555:9571  refundAmountHere */\n      dup4\n        /* \"contracts/CarRentalSmartContract.sol\":9117:9572  ABCAuditDepositRecord(currentAuditRecordId, ... */\n      dup2\n      mstore\n      pop\n        /* \"contracts/CarRentalSmartContract.sol\":9063:9572  ABCAuditDepositRecord memory auditDepositRecordHere = ABCAuditDepositRecord(currentAuditRecordId, ... */\n      swap1\n      pop\n        /* \"contracts/CarRentalSmartContract.sol\":9632:9654  auditDepositRecordHere */\n      dup1\n        /* \"contracts/CarRentalSmartContract.sol\":9583:9607  allABCAuditDepositRecord */\n      0x0a\n        /* \"contracts/CarRentalSmartContract.sol\":9583:9629  allABCAuditDepositRecord[currentAuditRecordId] */\n      0x00\n        /* \"contracts/CarRentalSmartContract.sol\":9608:9628  currentAuditRecordId */\n      sload(0x09)\n        /* \"contracts/CarRentalSmartContract.sol\":9583:9629  allABCAuditDepositRecord[currentAuditRecordId] */\n      dup2\n      mstore\n      0x20\n      add\n      swap1\n      dup2\n      mstore\n      0x20\n      add\n      0x00\n      keccak256\n        /* \"contracts/CarRentalSmartContract.sol\":9583:9654  allABCAuditDepositRecord[currentAuditRecordId] = auditDepositRecordHere */\n      0x00\n      dup3\n      add\n      mload\n      dup2\n      0x00\n      add\n      sstore\n      0x20\n      dup3\n      add\n      mload\n      dup2\n      0x01\n      add\n      sstore\n      0x40\n      dup3\n      add\n      mload\n      dup2\n      0x02\n      add\n      exp(0x0100, 0x00)\n      dup2\n      sload\n      dup2\n      0xffffffffffffffffffffffffffffffffffffffff\n      mul\n      not\n      and\n      swap1\n      dup4\n      0xffffffffffffffffffffffffffffffffffffffff\n      and\n      mul\n      or\n      swap1\n      sstore\n      pop\n      0x60\n      dup3\n      add\n      mload\n      dup2\n      0x03\n      add\n      sstore\n      0x80\n      dup3\n      add\n      mload\n      dup2\n      0x04\n      add\n      sstore\n      swap1\n      pop\n      pop\n        /* \"contracts/CarRentalSmartContract.sol\":9727:9747  currentAuditRecordId */\n      sload(0x09)\n        /* \"contracts/CarRentalSmartContract.sol\":9664:9690  allCustomerReturnCarRecord */\n      0x08\n        /* \"contracts/CarRentalSmartContract.sol\":9664:9706  allCustomerReturnCarRecord[returnRecordId] */\n      0x00\n        /* \"contracts/CarRentalSmartContract.sol\":9691:9705  returnRecordId */\n      dup11\n        /* \"contracts/CarRentalSmartContract.sol\":9664:9706  allCustomerReturnCarRecord[returnRecordId] */\n      dup2\n      mstore\n      0x20\n      add\n      swap1\n      dup2\n      mstore\n      0x20\n      add\n      0x00\n      keccak256\n        /* \"contracts/CarRentalSmartContract.sol\":9664:9720  allCustomerReturnCarRecord[returnRecordId].auditRecordId */\n      0x06\n      add\n        /* \"contracts/CarRentalSmartContract.sol\":9664:9748  allCustomerReturnCarRecord[returnRecordId].auditRecordId = int(currentAuditRecordId) */\n      dup2\n      swap1\n      sstore\n      pop\n        /* \"contracts/CarRentalSmartContract.sol\":9782:9783  1 */\n      0x01\n        /* \"contracts/CarRentalSmartContract.sol\":9758:9778  currentAuditRecordId */\n      0x09\n      0x00\n        /* \"contracts/CarRentalSmartContract.sol\":9758:9783  currentAuditRecordId += 1 */\n      dup3\n      dup3\n      sload\n      tag_187\n      swap2\n      swap1\n      tag_146\n      jump\t// in\n    tag_187:\n      swap3\n      pop\n      pop\n      dup2\n      swap1\n      sstore\n      pop\n        /* \"contracts/CarRentalSmartContract.sol\":9809:9831  auditDepositRecordHere */\n      dup1\n        /* \"contracts/CarRentalSmartContract.sol\":9802:9831  return auditDepositRecordHere */\n      swap6\n      pop\n      pop\n      pop\n      pop\n      pop\n      pop\n        /* \"contracts/CarRentalSmartContract.sol\":7951:9838  function ABCAuditDeposit(uint returnRecordId, uint damageFixFeeHere) payable public onlyABCCompanyCanCall returns (ABCAuditDepositRecord memory) {... */\n      swap3\n      swap2\n      pop\n      pop\n      jump\t// out\n        /* \"contracts/CarRentalSmartContract.sol\":1947:1984  uint public currentReturnRecordId = 1 */\n    tag_61:\n      sload(0x07)\n      dup2\n      jump\t// out\n        /* \"contracts/CarRentalSmartContract.sol\":1672:1719  mapping (string => uint) public carAvailability */\n    tag_66:\n      0x04\n      dup2\n      dup1\n      mload\n      0x20\n      dup2\n      add\n      dup3\n      add\n      dup1\n      mload\n      dup5\n      dup3\n      mstore\n      0x20\n      dup4\n      add\n      0x20\n      dup6\n      add\n      keccak256\n      dup2\n      dup4\n      mstore\n      dup1\n      swap6\n      pop\n      pop\n      pop\n      pop\n      pop\n      pop\n      0x00\n      swap2\n      pop\n      swap1\n      pop\n      sload\n      dup2\n      jump\t// out\n        /* \"contracts/CarRentalSmartContract.sol\":3925:5165  function customerRentCar(string calldata carName, uint rentDays) payable public onlyRegisteredCustomerCanCall returns (customerRentCarRecord memory) {... */\n    tag_71:\n        /* \"contracts/CarRentalSmartContract.sol\":4044:4072  customerRentCarRecord memory */\n      tag_188\n      tag_189\n      jump\t// in\n    tag_188:\n        /* \"contracts/CarRentalSmartContract.sol\":2620:2624  true */\n      0x01\n        /* \"contracts/CarRentalSmartContract.sol\":2584:2624  allCustomerAddresses[msg.sender] == true */\n      iszero\n      iszero\n        /* \"contracts/CarRentalSmartContract.sol\":2584:2604  allCustomerAddresses */\n      0x01\n        /* \"contracts/CarRentalSmartContract.sol\":2584:2616  allCustomerAddresses[msg.sender] */\n      0x00\n        /* \"contracts/CarRentalSmartContract.sol\":2605:2615  msg.sender */\n      caller\n        /* \"contracts/CarRentalSmartContract.sol\":2584:2616  allCustomerAddresses[msg.sender] */\n      0xffffffffffffffffffffffffffffffffffffffff\n      and\n      0xffffffffffffffffffffffffffffffffffffffff\n      and\n      dup2\n      mstore\n      0x20\n      add\n      swap1\n      dup2\n      mstore\n      0x20\n      add\n      0x00\n      keccak256\n      0x00\n      swap1\n      sload\n      swap1\n      0x0100\n      exp\n      swap1\n      div\n      0xff\n      and\n        /* \"contracts/CarRentalSmartContract.sol\":2584:2624  allCustomerAddresses[msg.sender] == true */\n      iszero\n      iszero\n      eq\n        /* \"contracts/CarRentalSmartContract.sol\":2576:2676  require(allCustomerAddresses[msg.sender] == true, \"Customer not registered! Please register first!\") */\n      tag_191\n      jumpi\n      mload(0x40)\n      0x08c379a000000000000000000000000000000000000000000000000000000000\n      dup2\n      mstore\n      0x04\n      add\n      tag_192\n      swap1\n      tag_122\n      jump\t// in\n    tag_192:\n      mload(0x40)\n      dup1\n      swap2\n      sub\n      swap1\n      revert\n    tag_191:\n        /* \"contracts/CarRentalSmartContract.sol\":4231:4232  0 */\n      0x00\n        /* \"contracts/CarRentalSmartContract.sol\":4204:4219  carAvailability */\n      0x04\n        /* \"contracts/CarRentalSmartContract.sol\":4220:4227  carName */\n      dup6\n      dup6\n        /* \"contracts/CarRentalSmartContract.sol\":4204:4228  carAvailability[carName] */\n      mload(0x40)\n      tag_194\n      swap3\n      swap2\n      swap1\n      tag_195\n      jump\t// in\n    tag_194:\n      swap1\n      dup2\n      mstore\n      0x20\n      add\n      mload(0x40)\n      dup1\n      swap2\n      sub\n      swap1\n      keccak256\n      sload\n        /* \"contracts/CarRentalSmartContract.sol\":4204:4232  carAvailability[carName] > 0 */\n      gt\n        /* \"contracts/CarRentalSmartContract.sol\":4196:4271  require(carAvailability[carName] > 0, \"No this type's cars available now!\") */\n      tag_196\n      jumpi\n      mload(0x40)\n      0x08c379a000000000000000000000000000000000000000000000000000000000\n      dup2\n      mstore\n      0x04\n      add\n      tag_197\n      swap1\n      tag_198\n      jump\t// in\n    tag_197:\n      mload(0x40)\n      dup1\n      swap2\n      sub\n      swap1\n      revert\n    tag_196:\n        /* \"contracts/CarRentalSmartContract.sol\":4345:4352  carInfo */\n      0x03\n        /* \"contracts/CarRentalSmartContract.sol\":4353:4360  carName */\n      dup5\n      dup5\n        /* \"contracts/CarRentalSmartContract.sol\":4345:4361  carInfo[carName] */\n      mload(0x40)\n      tag_199\n      swap3\n      swap2\n      swap1\n      tag_195\n      jump\t// in\n    tag_199:\n      swap1\n      dup2\n      mstore\n      0x20\n      add\n      mload(0x40)\n      dup1\n      swap2\n      sub\n      swap1\n      keccak256\n        /* \"contracts/CarRentalSmartContract.sol\":4345:4371  carInfo[carName].dailyRent */\n      0x02\n      add\n      sload\n        /* \"contracts/CarRentalSmartContract.sol\":4334:4342  rentDays */\n      dup3\n        /* \"contracts/CarRentalSmartContract.sol\":4334:4371  rentDays * carInfo[carName].dailyRent */\n      tag_200\n      swap2\n      swap1\n      tag_155\n      jump\t// in\n    tag_200:\n        /* \"contracts/CarRentalSmartContract.sol\":4303:4310  carInfo */\n      0x03\n        /* \"contracts/CarRentalSmartContract.sol\":4311:4318  carName */\n      dup6\n      dup6\n        /* \"contracts/CarRentalSmartContract.sol\":4303:4319  carInfo[carName] */\n      mload(0x40)\n      tag_201\n      swap3\n      swap2\n      swap1\n      tag_195\n      jump\t// in\n    tag_201:\n      swap1\n      dup2\n      mstore\n      0x20\n      add\n      mload(0x40)\n      dup1\n      swap2\n      sub\n      swap1\n      keccak256\n        /* \"contracts/CarRentalSmartContract.sol\":4303:4331  carInfo[carName].needDeposit */\n      0x01\n      add\n      sload\n        /* \"contracts/CarRentalSmartContract.sol\":4303:4371  carInfo[carName].needDeposit + rentDays * carInfo[carName].dailyRent */\n      tag_202\n      swap2\n      swap1\n      tag_146\n      jump\t// in\n    tag_202:\n        /* \"contracts/CarRentalSmartContract.sol\":4289:4298  msg.value */\n      callvalue\n        /* \"contracts/CarRentalSmartContract.sol\":4289:4372  msg.value >= (carInfo[carName].needDeposit + rentDays * carInfo[carName].dailyRent) */\n      lt\n      iszero\n        /* \"contracts/CarRentalSmartContract.sol\":4281:4468  require(msg.value >= (carInfo[carName].needDeposit + rentDays * carInfo[carName].dailyRent), \"Deposit given here is not enough! Deposit shoule be larger than (90 + rentDays) * dailyRent\") */\n      tag_203\n      jumpi\n      mload(0x40)\n      0x08c379a000000000000000000000000000000000000000000000000000000000\n      dup2\n      mstore\n      0x04\n      add\n      tag_204\n      swap1\n      tag_205\n      jump\t// in\n    tag_204:\n      mload(0x40)\n      dup1\n      swap2\n      sub\n      swap1\n      revert\n    tag_203:\n        /* \"contracts/CarRentalSmartContract.sol\":4572:4573  1 */\n      0x01\n        /* \"contracts/CarRentalSmartContract.sol\":4523:4547  customerRentingCarNumber */\n      0x02\n        /* \"contracts/CarRentalSmartContract.sol\":4523:4559  customerRentingCarNumber[msg.sender] */\n      0x00\n        /* \"contracts/CarRentalSmartContract.sol\":4548:4558  msg.sender */\n      caller\n        /* \"contracts/CarRentalSmartContract.sol\":4523:4559  customerRentingCarNumber[msg.sender] */\n      0xffffffffffffffffffffffffffffffffffffffff\n      and\n      0xffffffffffffffffffffffffffffffffffffffff\n      and\n      dup2\n      mstore\n      0x20\n      add\n      swap1\n      dup2\n      mstore\n      0x20\n      add\n      0x00\n      keccak256\n        /* \"contracts/CarRentalSmartContract.sol\":4560:4567  carName */\n      dup6\n      dup6\n        /* \"contracts/CarRentalSmartContract.sol\":4523:4568  customerRentingCarNumber[msg.sender][carName] */\n      mload(0x40)\n      tag_206\n      swap3\n      swap2\n      swap1\n      tag_195\n      jump\t// in\n    tag_206:\n      swap1\n      dup2\n      mstore\n      0x20\n      add\n      mload(0x40)\n      dup1\n      swap2\n      sub\n      swap1\n      keccak256\n      0x00\n        /* \"contracts/CarRentalSmartContract.sol\":4523:4573  customerRentingCarNumber[msg.sender][carName] += 1 */\n      dup3\n      dup3\n      sload\n      tag_207\n      swap2\n      swap1\n      tag_146\n      jump\t// in\n    tag_207:\n      swap3\n      pop\n      pop\n      dup2\n      swap1\n      sstore\n      pop\n        /* \"contracts/CarRentalSmartContract.sol\":4653:4654  1 */\n      0x01\n        /* \"contracts/CarRentalSmartContract.sol\":4625:4640  carAvailability */\n      0x04\n        /* \"contracts/CarRentalSmartContract.sol\":4641:4648  carName */\n      dup6\n      dup6\n        /* \"contracts/CarRentalSmartContract.sol\":4625:4649  carAvailability[carName] */\n      mload(0x40)\n      tag_208\n      swap3\n      swap2\n      swap1\n      tag_195\n      jump\t// in\n    tag_208:\n      swap1\n      dup2\n      mstore\n      0x20\n      add\n      mload(0x40)\n      dup1\n      swap2\n      sub\n      swap1\n      keccak256\n      0x00\n        /* \"contracts/CarRentalSmartContract.sol\":4625:4654  carAvailability[carName] -= 1 */\n      dup3\n      dup3\n      sload\n      tag_209\n      swap2\n      swap1\n      tag_143\n      jump\t// in\n    tag_209:\n      swap3\n      pop\n      pop\n      dup2\n      swap1\n      sstore\n      pop\n        /* \"contracts/CarRentalSmartContract.sol\":4754:4800  customerRentCarRecord memory thisRentCarRecord */\n      0x00\n        /* \"contracts/CarRentalSmartContract.sol\":4803:4908  customerRentCarRecord(currentRentRecordId, msg.sender, carName, rentDays, msg.value, block.timestamp, -1) */\n      mload(0x40)\n      dup1\n      0xe0\n      add\n      0x40\n      mstore\n      dup1\n        /* \"contracts/CarRentalSmartContract.sol\":4825:4844  currentRentRecordId */\n      sload(0x05)\n        /* \"contracts/CarRentalSmartContract.sol\":4803:4908  customerRentCarRecord(currentRentRecordId, msg.sender, carName, rentDays, msg.value, block.timestamp, -1) */\n      dup2\n      mstore\n      0x20\n      add\n        /* \"contracts/CarRentalSmartContract.sol\":4846:4856  msg.sender */\n      caller\n        /* \"contracts/CarRentalSmartContract.sol\":4803:4908  customerRentCarRecord(currentRentRecordId, msg.sender, carName, rentDays, msg.value, block.timestamp, -1) */\n      0xffffffffffffffffffffffffffffffffffffffff\n      and\n      dup2\n      mstore\n      0x20\n      add\n        /* \"contracts/CarRentalSmartContract.sol\":4858:4865  carName */\n      dup7\n      dup7\n        /* \"contracts/CarRentalSmartContract.sol\":4803:4908  customerRentCarRecord(currentRentRecordId, msg.sender, carName, rentDays, msg.value, block.timestamp, -1) */\n      dup1\n      dup1\n      0x1f\n      add\n      0x20\n      dup1\n      swap2\n      div\n      mul\n      0x20\n      add\n      mload(0x40)\n      swap1\n      dup2\n      add\n      0x40\n      mstore\n      dup1\n      swap4\n      swap3\n      swap2\n      swap1\n      dup2\n      dup2\n      mstore\n      0x20\n      add\n      dup4\n      dup4\n      dup1\n      dup3\n      dup5\n      calldatacopy\n      0x00\n      dup2\n      dup5\n      add\n      mstore\n      not(0x1f)\n      0x1f\n      dup3\n      add\n      and\n      swap1\n      pop\n      dup1\n      dup4\n      add\n      swap3\n      pop\n      pop\n      pop\n      pop\n      pop\n      pop\n      pop\n      dup2\n      mstore\n      0x20\n      add\n        /* \"contracts/CarRentalSmartContract.sol\":4867:4875  rentDays */\n      dup5\n        /* \"contracts/CarRentalSmartContract.sol\":4803:4908  customerRentCarRecord(currentRentRecordId, msg.sender, carName, rentDays, msg.value, block.timestamp, -1) */\n      dup2\n      mstore\n      0x20\n      add\n        /* \"contracts/CarRentalSmartContract.sol\":4877:4886  msg.value */\n      callvalue\n        /* \"contracts/CarRentalSmartContract.sol\":4803:4908  customerRentCarRecord(currentRentRecordId, msg.sender, carName, rentDays, msg.value, block.timestamp, -1) */\n      dup2\n      mstore\n      0x20\n      add\n        /* \"contracts/CarRentalSmartContract.sol\":4888:4903  block.timestamp */\n      timestamp\n        /* \"contracts/CarRentalSmartContract.sol\":4803:4908  customerRentCarRecord(currentRentRecordId, msg.sender, carName, rentDays, msg.value, block.timestamp, -1) */\n      dup2\n      mstore\n      0x20\n      add\n        /* \"contracts/CarRentalSmartContract.sol\":4905:4907  -1 */\n      0xffffffffffffffffffffffffffffffffffffffffffffffffffffffffffffffff\n        /* \"contracts/CarRentalSmartContract.sol\":4803:4908  customerRentCarRecord(currentRentRecordId, msg.sender, carName, rentDays, msg.value, block.timestamp, -1) */\n      dup2\n      mstore\n      pop\n        /* \"contracts/CarRentalSmartContract.sol\":4754:4908  customerRentCarRecord memory thisRentCarRecord = customerRentCarRecord(currentRentRecordId, msg.sender, carName, rentDays, msg.value, block.timestamp, -1) */\n      swap1\n      pop\n        /* \"contracts/CarRentalSmartContract.sol\":4966:4983  thisRentCarRecord */\n      dup1\n        /* \"contracts/CarRentalSmartContract.sol\":4918:4942  allCustomerRentCarRecord */\n      0x06\n        /* \"contracts/CarRentalSmartContract.sol\":4918:4963  allCustomerRentCarRecord[currentRentRecordId] */\n      0x00\n        /* \"contracts/CarRentalSmartContract.sol\":4943:4962  currentRentRecordId */\n      sload(0x05)\n        /* \"contracts/CarRentalSmartContract.sol\":4918:4963  allCustomerRentCarRecord[currentRentRecordId] */\n      dup2\n      mstore\n      0x20\n      add\n      swap1\n      dup2\n      mstore\n      0x20\n      add\n      0x00\n      keccak256\n        /* \"contracts/CarRentalSmartContract.sol\":4918:4983  allCustomerRentCarRecord[currentRentRecordId] = thisRentCarRecord */\n      0x00\n      dup3\n      add\n      mload\n      dup2\n      0x00\n      add\n      sstore\n      0x20\n      dup3\n      add\n      mload\n      dup2\n      0x01\n      add\n      exp(0x0100, 0x00)\n      dup2\n      sload\n      dup2\n      0xffffffffffffffffffffffffffffffffffffffff\n      mul\n      not\n      and\n      swap1\n      dup4\n      0xffffffffffffffffffffffffffffffffffffffff\n      and\n      mul\n      or\n      swap1\n      sstore\n      pop\n      0x40\n      dup3\n      add\n      mload\n      dup2\n      0x02\n      add\n      swap1\n      dup1\n      mload\n      swap1\n      0x20\n      add\n      swap1\n      tag_210\n      swap3\n      swap2\n      swap1\n      tag_157\n      jump\t// in\n    tag_210:\n      pop\n      0x60\n      dup3\n      add\n      mload\n      dup2\n      0x03\n      add\n      sstore\n      0x80\n      dup3\n      add\n      mload\n      dup2\n      0x04\n      add\n      sstore\n      0xa0\n      dup3\n      add\n      mload\n      dup2\n      0x05\n      add\n      sstore\n      0xc0\n      dup3\n      add\n      mload\n      dup2\n      0x06\n      add\n      sstore\n      swap1\n      pop\n      pop\n        /* \"contracts/CarRentalSmartContract.sol\":5016:5017  1 */\n      0x01\n        /* \"contracts/CarRentalSmartContract.sol\":4993:5012  currentRentRecordId */\n      0x05\n      0x00\n        /* \"contracts/CarRentalSmartContract.sol\":4993:5017  currentRentRecordId += 1 */\n      dup3\n      dup3\n      sload\n      tag_211\n      swap2\n      swap1\n      tag_146\n      jump\t// in\n    tag_211:\n      swap3\n      pop\n      pop\n      dup2\n      swap1\n      sstore\n      pop\n        /* \"contracts/CarRentalSmartContract.sol\":5092:5102  ABCAddress */\n      0x00\n      dup1\n      sload\n      swap1\n      0x0100\n      exp\n      swap1\n      div\n      0xffffffffffffffffffffffffffffffffffffffff\n      and\n        /* \"contracts/CarRentalSmartContract.sol\":5084:5112  payable(ABCAddress).transfer */\n      0xffffffffffffffffffffffffffffffffffffffff\n      and\n        /* \"contracts/CarRentalSmartContract.sol\":5084:5123  payable(ABCAddress).transfer(msg.value) */\n      0x08fc\n        /* \"contracts/CarRentalSmartContract.sol\":5113:5122  msg.value */\n      callvalue\n        /* \"contracts/CarRentalSmartContract.sol\":5084:5123  payable(ABCAddress).transfer(msg.value) */\n      swap1\n      dup2\n      iszero\n      mul\n      swap1\n      mload(0x40)\n      0x00\n      mload(0x40)\n      dup1\n      dup4\n      sub\n      dup2\n      dup6\n      dup9\n      dup9\n      call\n      swap4\n      pop\n      pop\n      pop\n      pop\n      iszero\n      dup1\n      iszero\n      tag_213\n      jumpi\n      returndatasize\n      0x00\n      dup1\n      returndatacopy\n      revert(0x00, returndatasize)\n    tag_213:\n      pop\n        /* \"contracts/CarRentalSmartContract.sol\":5141:5158  thisRentCarRecord */\n      dup1\n        /* \"contracts/CarRentalSmartContract.sol\":5134:5158  return thisRentCarRecord */\n      swap2\n      pop\n      pop\n        /* \"contracts/CarRentalSmartContract.sol\":3925:5165  function customerRentCar(string calldata carName, uint rentDays) payable public onlyRegisteredCustomerCanCall returns (customerRentCarRecord memory) {... */\n      swap4\n      swap3\n      pop\n      pop\n      pop\n      jump\t// out\n        /* \"contracts/CarRentalSmartContract.sol\":3383:3802  function ABCAddCar(string calldata carName, uint carDailyRent, uint number) public onlyABCCompanyCanCall returns (bool) {... */\n    tag_78:\n        /* \"contracts/CarRentalSmartContract.sol\":3497:3501  bool */\n      0x00\n        /* \"contracts/CarRentalSmartContract.sol\":2366:2376  ABCAddress */\n      dup1\n      0x00\n      swap1\n      sload\n      swap1\n      0x0100\n      exp\n      swap1\n      div\n      0xffffffffffffffffffffffffffffffffffffffff\n      and\n        /* \"contracts/CarRentalSmartContract.sol\":2352:2376  msg.sender == ABCAddress */\n      0xffffffffffffffffffffffffffffffffffffffff\n      and\n        /* \"contracts/CarRentalSmartContract.sol\":2352:2362  msg.sender */\n      caller\n        /* \"contracts/CarRentalSmartContract.sol\":2352:2376  msg.sender == ABCAddress */\n      0xffffffffffffffffffffffffffffffffffffffff\n      and\n      eq\n        /* \"contracts/CarRentalSmartContract.sol\":2344:2413  require(msg.sender == ABCAddress, \"Only ABC can call this function!\") */\n      tag_215\n      jumpi\n      mload(0x40)\n      0x08c379a000000000000000000000000000000000000000000000000000000000\n      dup2\n      mstore\n      0x04\n      add\n      tag_216\n      swap1\n      tag_174\n      jump\t// in\n    tag_216:\n      mload(0x40)\n      dup1\n      swap2\n      sub\n      swap1\n      revert\n    tag_215:\n        /* \"contracts/CarRentalSmartContract.sol\":3604:3728  Car({... */\n      mload(0x40)\n      dup1\n      0x60\n      add\n      0x40\n      mstore\n      dup1\n        /* \"contracts/CarRentalSmartContract.sol\":3628:3635  carName */\n      dup7\n      dup7\n        /* \"contracts/CarRentalSmartContract.sol\":3604:3728  Car({... */\n      dup1\n      dup1\n      0x1f\n      add\n      0x20\n      dup1\n      swap2\n      div\n      mul\n      0x20\n      add\n      mload(0x40)\n      swap1\n      dup2\n      add\n      0x40\n      mstore\n      dup1\n      swap4\n      swap3\n      swap2\n      swap1\n      dup2\n      dup2\n      mstore\n      0x20\n      add\n      dup4\n      dup4\n      dup1\n      dup3\n      dup5\n      calldatacopy\n      0x00\n      dup2\n      dup5\n      add\n      mstore\n      not(0x1f)\n      0x1f\n      dup3\n      add\n      and\n      swap1\n      pop\n      dup1\n      dup4\n      add\n      swap3\n      pop\n      pop\n      pop\n      pop\n      pop\n      pop\n      pop\n      dup2\n      mstore\n      0x20\n      add\n        /* \"contracts/CarRentalSmartContract.sol\":3678:3680  90 */\n      0x5a\n        /* \"contracts/CarRentalSmartContract.sol\":3663:3675  carDailyRent */\n      dup6\n        /* \"contracts/CarRentalSmartContract.sol\":3663:3680  carDailyRent * 90 */\n      tag_218\n      swap2\n      swap1\n      tag_155\n      jump\t// in\n    tag_218:\n        /* \"contracts/CarRentalSmartContract.sol\":3604:3728  Car({... */\n      dup2\n      mstore\n      0x20\n      add\n        /* \"contracts/CarRentalSmartContract.sol\":3705:3717  carDailyRent */\n      dup5\n        /* \"contracts/CarRentalSmartContract.sol\":3604:3728  Car({... */\n      dup2\n      mstore\n      pop\n        /* \"contracts/CarRentalSmartContract.sol\":3585:3592  carInfo */\n      0x03\n        /* \"contracts/CarRentalSmartContract.sol\":3593:3600  carName */\n      dup7\n      dup7\n        /* \"contracts/CarRentalSmartContract.sol\":3585:3601  carInfo[carName] */\n      mload(0x40)\n      tag_219\n      swap3\n      swap2\n      swap1\n      tag_195\n      jump\t// in\n    tag_219:\n      swap1\n      dup2\n      mstore\n      0x20\n      add\n      mload(0x40)\n      dup1\n      swap2\n      sub\n      swap1\n      keccak256\n        /* \"contracts/CarRentalSmartContract.sol\":3585:3728  carInfo[carName] = Car({... */\n      0x00\n      dup3\n      add\n      mload\n      dup2\n      0x00\n      add\n      swap1\n      dup1\n      mload\n      swap1\n      0x20\n      add\n      swap1\n      tag_220\n      swap3\n      swap2\n      swap1\n      tag_157\n      jump\t// in\n    tag_220:\n      pop\n      0x20\n      dup3\n      add\n      mload\n      dup2\n      0x01\n      add\n      sstore\n      0x40\n      dup3\n      add\n      mload\n      dup2\n      0x02\n      add\n      sstore\n      swap1\n      pop\n      pop\n        /* \"contracts/CarRentalSmartContract.sol\":3767:3773  number */\n      dup2\n        /* \"contracts/CarRentalSmartContract.sol\":3739:3754  carAvailability */\n      0x04\n        /* \"contracts/CarRentalSmartContract.sol\":3755:3762  carName */\n      dup7\n      dup7\n        /* \"contracts/CarRentalSmartContract.sol\":3739:3763  carAvailability[carName] */\n      mload(0x40)\n      tag_221\n      swap3\n      swap2\n      swap1\n      tag_195\n      jump\t// in\n    tag_221:\n      swap1\n      dup2\n      mstore\n      0x20\n      add\n      mload(0x40)\n      dup1\n      swap2\n      sub\n      swap1\n      keccak256\n      0x00\n        /* \"contracts/CarRentalSmartContract.sol\":3739:3773  carAvailability[carName] += number */\n      dup3\n      dup3\n      sload\n      tag_222\n      swap2\n      swap1\n      tag_146\n      jump\t// in\n    tag_222:\n      swap3\n      pop\n      pop\n      dup2\n      swap1\n      sstore\n      pop\n        /* \"contracts/CarRentalSmartContract.sol\":3791:3795  true */\n      0x01\n        /* \"contracts/CarRentalSmartContract.sol\":3784:3795  return true */\n      swap1\n      pop\n        /* \"contracts/CarRentalSmartContract.sol\":3383:3802  function ABCAddCar(string calldata carName, uint carDailyRent, uint number) public onlyABCCompanyCanCall returns (bool) {... */\n      swap5\n      swap4\n      pop\n      pop\n      pop\n      pop\n      jump\t// out\n        /* \"contracts/CarRentalSmartContract.sol\":1827:1863  uint public currentRentRecordId  = 1 */\n    tag_83:\n      sload(0x05)\n      dup2\n      jump\t// out\n        /* \"contracts/CarRentalSmartContract.sol\":2114:2185  mapping (uint => ABCAuditDepositRecord) public allABCAuditDepositRecord */\n    tag_88:\n      mstore(0x20, 0x0a)\n      dup1\n      0x00\n      mstore\n      keccak256(0x00, 0x40)\n      0x00\n      swap2\n      pop\n      swap1\n      pop\n      dup1\n      0x00\n      add\n      sload\n      swap1\n      dup1\n      0x01\n      add\n      sload\n      swap1\n      dup1\n      0x02\n      add\n      0x00\n      swap1\n      sload\n      swap1\n      0x0100\n      exp\n      swap1\n      div\n      0xffffffffffffffffffffffffffffffffffffffff\n      and\n      swap1\n      dup1\n      0x03\n      add\n      sload\n      swap1\n      dup1\n      0x04\n      add\n      sload\n      swap1\n      pop\n      dup6\n      jump\t// out\n        /* \"contracts/CarRentalSmartContract.sol\":2193:2218  MicroToken public tokenSC */\n    tag_93:\n      0x0b\n      0x00\n      swap1\n      sload\n      swap1\n      0x0100\n      exp\n      swap1\n      div\n      0xffffffffffffffffffffffffffffffffffffffff\n      and\n      dup2\n      jump\t// out\n        /* \"contracts/CarRentalSmartContract.sol\":1189:1242  mapping (address => bool) public allCustomerAddresses */\n    tag_100:\n      mstore(0x20, 0x01)\n      dup1\n      0x00\n      mstore\n      keccak256(0x00, 0x40)\n      0x00\n      swap2\n      pop\n      sload\n      swap1\n      0x0100\n      exp\n      swap1\n      div\n      0xff\n      and\n      dup2\n      jump\t// out\n        /* \"contracts/CarRentalSmartContract.sol\":1869:1940  mapping (uint => customerRentCarRecord) public allCustomerRentCarRecord */\n    tag_105:\n      mstore(0x20, 0x06)\n      dup1\n      0x00\n      mstore\n      keccak256(0x00, 0x40)\n      0x00\n      swap2\n      pop\n      swap1\n      pop\n      dup1\n      0x00\n      add\n      sload\n      swap1\n      dup1\n      0x01\n      add\n      0x00\n      swap1\n      sload\n      swap1\n      0x0100\n      exp\n      swap1\n      div\n      0xffffffffffffffffffffffffffffffffffffffff\n      and\n      swap1\n      dup1\n      0x02\n      add\n      dup1\n      sload\n      tag_223\n      swap1\n      tag_135\n      jump\t// in\n    tag_223:\n      dup1\n      0x1f\n      add\n      0x20\n      dup1\n      swap2\n      div\n      mul\n      0x20\n      add\n      mload(0x40)\n      swap1\n      dup2\n      add\n      0x40\n      mstore\n      dup1\n      swap3\n      swap2\n      swap1\n      dup2\n      dup2\n      mstore\n      0x20\n      add\n      dup3\n      dup1\n      sload\n      tag_224\n      swap1\n      tag_135\n      jump\t// in\n    tag_224:\n      dup1\n      iszero\n      tag_225\n      jumpi\n      dup1\n      0x1f\n      lt\n      tag_226\n      jumpi\n      0x0100\n      dup1\n      dup4\n      sload\n      div\n      mul\n      dup4\n      mstore\n      swap2\n      0x20\n      add\n      swap2\n      jump(tag_225)\n    tag_226:\n      dup3\n      add\n      swap2\n      swap1\n      0x00\n      mstore\n      keccak256(0x00, 0x20)\n      swap1\n    tag_227:\n      dup2\n      sload\n      dup2\n      mstore\n      swap1\n      0x01\n      add\n      swap1\n      0x20\n      add\n      dup1\n      dup4\n      gt\n      tag_227\n      jumpi\n      dup3\n      swap1\n      sub\n      0x1f\n      and\n      dup3\n      add\n      swap2\n    tag_225:\n      pop\n      pop\n      pop\n      pop\n      pop\n      swap1\n      dup1\n      0x03\n      add\n      sload\n      swap1\n      dup1\n      0x04\n      add\n      sload\n      swap1\n      dup1\n      0x05\n      add\n      sload\n      swap1\n      dup1\n      0x06\n      add\n      sload\n      swap1\n      pop\n      dup8\n      jump\t// out\n        /* \"contracts/CarRentalSmartContract.sol\":1042:1067  address public ABCAddress */\n    tag_110:\n      0x00\n      dup1\n      sload\n      swap1\n      0x0100\n      exp\n      swap1\n      div\n      0xffffffffffffffffffffffffffffffffffffffff\n      and\n      dup2\n      jump\t// out\n        /* \"contracts/CarRentalSmartContract.sol\":3096:3223  function customerRegister() public returns (bool) {... */\n    tag_115:\n        /* \"contracts/CarRentalSmartContract.sol\":3140:3144  bool */\n      0x00\n        /* \"contracts/CarRentalSmartContract.sol\":3191:3195  true */\n      0x01\n        /* \"contracts/CarRentalSmartContract.sol\":3156:3176  allCustomerAddresses */\n      dup1\n        /* \"contracts/CarRentalSmartContract.sol\":3156:3188  allCustomerAddresses[msg.sender] */\n      0x00\n        /* \"contracts/CarRentalSmartContract.sol\":3177:3187  msg.sender */\n      caller\n        /* \"contracts/CarRentalSmartContract.sol\":3156:3188  allCustomerAddresses[msg.sender] */\n      0xffffffffffffffffffffffffffffffffffffffff\n      and\n      0xffffffffffffffffffffffffffffffffffffffff\n      and\n      dup2\n      mstore\n      0x20\n      add\n      swap1\n      dup2\n      mstore\n      0x20\n      add\n      0x00\n      keccak256\n      0x00\n        /* \"contracts/CarRentalSmartContract.sol\":3156:3195  allCustomerAddresses[msg.sender] = true */\n      0x0100\n      exp\n      dup2\n      sload\n      dup2\n      0xff\n      mul\n      not\n      and\n      swap1\n      dup4\n      iszero\n      iszero\n      mul\n      or\n      swap1\n      sstore\n      pop\n        /* \"contracts/CarRentalSmartContract.sol\":3212:3216  true */\n      0x01\n        /* \"contracts/CarRentalSmartContract.sol\":3205:3216  return true */\n      swap1\n      pop\n        /* \"contracts/CarRentalSmartContract.sol\":3096:3223  function customerRegister() public returns (bool) {... */\n      swap1\n      jump\t// out\n    tag_118:\n      mload(0x40)\n      dup1\n      0xe0\n      add\n      0x40\n      mstore\n      dup1\n      0x00\n      dup2\n      mstore\n      0x20\n      add\n      0x00\n      dup2\n      mstore\n      0x20\n      add\n      and(0xffffffffffffffffffffffffffffffffffffffff, 0x00)\n      dup2\n      mstore\n      0x20\n      add\n      0x60\n      dup2\n      mstore\n      0x20\n      add\n      0x00\n      dup2\n      mstore\n      0x20\n      add\n      0x00\n      dup2\n      mstore\n      0x20\n      add\n      0x00\n      dup2\n      mstore\n      pop\n      swap1\n      jump\t// out\n    tag_157:\n      dup3\n      dup1\n      sload\n      tag_229\n      swap1\n      tag_135\n      jump\t// in\n    tag_229:\n      swap1\n      0x00\n      mstore\n      keccak256(0x00, 0x20)\n      swap1\n      0x1f\n      add\n      0x20\n      swap1\n      div\n      dup2\n      add\n      swap3\n      dup3\n      tag_231\n      jumpi\n      0x00\n      dup6\n      sstore\n      jump(tag_230)\n    tag_231:\n      dup3\n      0x1f\n      lt\n      tag_232\n      jumpi\n      dup1\n      mload\n      not(0xff)\n      and\n      dup4\n      dup1\n      add\n      or\n      dup6\n      sstore\n      jump(tag_230)\n    tag_232:\n      dup3\n      dup1\n      add\n      0x01\n      add\n      dup6\n      sstore\n      dup3\n      iszero\n      tag_230\n      jumpi\n      swap2\n      dup3\n      add\n    tag_233:\n      dup3\n      dup2\n      gt\n      iszero\n      tag_234\n      jumpi\n      dup3\n      mload\n      dup3\n      sstore\n      swap2\n      0x20\n      add\n      swap2\n      swap1\n      0x01\n      add\n      swap1\n      jump(tag_233)\n    tag_234:\n    tag_230:\n      pop\n      swap1\n      pop\n      tag_235\n      swap2\n      swap1\n      tag_236\n      jump\t// in\n    tag_235:\n      pop\n      swap1\n      jump\t// out\n    tag_170:\n      mload(0x40)\n      dup1\n      0xa0\n      add\n      0x40\n      mstore\n      dup1\n      0x00\n      dup2\n      mstore\n      0x20\n      add\n      0x00\n      dup2\n      mstore\n      0x20\n      add\n      and(0xffffffffffffffffffffffffffffffffffffffff, 0x00)\n      dup2\n      mstore\n      0x20\n      add\n      0x00\n      dup2\n      mstore\n      0x20\n      add\n      0x00\n      dup2\n      mstore\n      pop\n      swap1\n      jump\t// out\n    tag_189:\n      mload(0x40)\n      dup1\n      0xe0\n      add\n      0x40\n      mstore\n      dup1\n      0x00\n      dup2\n      mstore\n      0x20\n      add\n      and(0xffffffffffffffffffffffffffffffffffffffff, 0x00)\n      dup2\n      mstore\n      0x20\n      add\n      0x60\n      dup2\n      mstore\n      0x20\n      add\n      0x00\n      dup2\n      mstore\n      0x20\n      add\n      0x00\n      dup2\n      mstore\n      0x20\n      add\n      0x00\n      dup2\n      mstore\n      0x20\n      add\n      0x00\n      dup2\n      mstore\n      pop\n      swap1\n      jump\t// out\n    tag_236:\n    tag_237:\n      dup1\n      dup3\n      gt\n      iszero\n      tag_238\n      jumpi\n      0x00\n      dup2\n      0x00\n      swap1\n      sstore\n      pop\n      0x01\n      add\n      jump(tag_237)\n    tag_238:\n      pop\n      swap1\n      jump\t// out\n        /* \"#utility.yul\":7:419   */\n    tag_240:\n        /* \"#utility.yul\":85:90   */\n      0x00\n        /* \"#utility.yul\":110:176   */\n      tag_242\n        /* \"#utility.yul\":126:175   */\n      tag_243\n        /* \"#utility.yul\":168:174   */\n      dup5\n        /* \"#utility.yul\":126:175   */\n      tag_244\n      jump\t// in\n    tag_243:\n        /* \"#utility.yul\":110:176   */\n      tag_245\n      jump\t// in\n    tag_242:\n        /* \"#utility.yul\":101:176   */\n      swap1\n      pop\n        /* \"#utility.yul\":199:205   */\n      dup3\n        /* \"#utility.yul\":192:197   */\n      dup2\n        /* \"#utility.yul\":185:206   */\n      mstore\n        /* \"#utility.yul\":237:241   */\n      0x20\n        /* \"#utility.yul\":230:235   */\n      dup2\n        /* \"#utility.yul\":226:242   */\n      add\n        /* \"#utility.yul\":275:278   */\n      dup5\n        /* \"#utility.yul\":266:272   */\n      dup5\n        /* \"#utility.yul\":261:264   */\n      dup5\n        /* \"#utility.yul\":257:273   */\n      add\n        /* \"#utility.yul\":254:279   */\n      gt\n        /* \"#utility.yul\":251:363   */\n      iszero\n      tag_246\n      jumpi\n        /* \"#utility.yul\":282:361   */\n      tag_247\n      tag_248\n      jump\t// in\n    tag_247:\n        /* \"#utility.yul\":251:363   */\n    tag_246:\n        /* \"#utility.yul\":372:413   */\n      tag_249\n        /* \"#utility.yul\":406:412   */\n      dup5\n        /* \"#utility.yul\":401:404   */\n      dup3\n        /* \"#utility.yul\":396:399   */\n      dup6\n        /* \"#utility.yul\":372:413   */\n      tag_250\n      jump\t// in\n    tag_249:\n        /* \"#utility.yul\":91:419   */\n      pop\n        /* \"#utility.yul\":7:419   */\n      swap4\n      swap3\n      pop\n      pop\n      pop\n      jump\t// out\n        /* \"#utility.yul\":425:564   */\n    tag_251:\n        /* \"#utility.yul\":471:476   */\n      0x00\n        /* \"#utility.yul\":509:515   */\n      dup2\n        /* \"#utility.yul\":496:516   */\n      calldataload\n        /* \"#utility.yul\":487:516   */\n      swap1\n      pop\n        /* \"#utility.yul\":525:558   */\n      tag_253\n        /* \"#utility.yul\":552:557   */\n      dup2\n        /* \"#utility.yul\":525:558   */\n      tag_254\n      jump\t// in\n    tag_253:\n        /* \"#utility.yul\":425:564   */\n      swap3\n      swap2\n      pop\n      pop\n      jump\t// out\n        /* \"#utility.yul\":584:1137   */\n    tag_255:\n        /* \"#utility.yul\":642:650   */\n      0x00\n        /* \"#utility.yul\":652:658   */\n      dup1\n        /* \"#utility.yul\":702:705   */\n      dup4\n        /* \"#utility.yul\":695:699   */\n      0x1f\n        /* \"#utility.yul\":687:693   */\n      dup5\n        /* \"#utility.yul\":683:700   */\n      add\n        /* \"#utility.yul\":679:706   */\n      slt\n        /* \"#utility.yul\":669:791   */\n      tag_257\n      jumpi\n        /* \"#utility.yul\":710:789   */\n      tag_258\n      tag_259\n      jump\t// in\n    tag_258:\n        /* \"#utility.yul\":669:791   */\n    tag_257:\n        /* \"#utility.yul\":823:829   */\n      dup3\n        /* \"#utility.yul\":810:830   */\n      calldataload\n        /* \"#utility.yul\":800:830   */\n      swap1\n      pop\n        /* \"#utility.yul\":853:871   */\n      0xffffffffffffffff\n        /* \"#utility.yul\":845:851   */\n      dup2\n        /* \"#utility.yul\":842:872   */\n      gt\n        /* \"#utility.yul\":839:956   */\n      iszero\n      tag_260\n      jumpi\n        /* \"#utility.yul\":875:954   */\n      tag_261\n      tag_262\n      jump\t// in\n    tag_261:\n        /* \"#utility.yul\":839:956   */\n    tag_260:\n        /* \"#utility.yul\":989:993   */\n      0x20\n        /* \"#utility.yul\":981:987   */\n      dup4\n        /* \"#utility.yul\":977:994   */\n      add\n        /* \"#utility.yul\":965:994   */\n      swap2\n      pop\n        /* \"#utility.yul\":1043:1046   */\n      dup4\n        /* \"#utility.yul\":1035:1039   */\n      0x01\n        /* \"#utility.yul\":1027:1033   */\n      dup3\n        /* \"#utility.yul\":1023:1040   */\n      mul\n        /* \"#utility.yul\":1013:1021   */\n      dup4\n        /* \"#utility.yul\":1009:1041   */\n      add\n        /* \"#utility.yul\":1006:1047   */\n      gt\n        /* \"#utility.yul\":1003:1131   */\n      iszero\n      tag_263\n      jumpi\n        /* \"#utility.yul\":1050:1129   */\n      tag_264\n      tag_265\n      jump\t// in\n    tag_264:\n        /* \"#utility.yul\":1003:1131   */\n    tag_263:\n        /* \"#utility.yul\":584:1137   */\n      swap3\n      pop\n      swap3\n      swap1\n      pop\n      jump\t// out\n        /* \"#utility.yul\":1157:1497   */\n    tag_266:\n        /* \"#utility.yul\":1213:1218   */\n      0x00\n        /* \"#utility.yul\":1262:1265   */\n      dup3\n        /* \"#utility.yul\":1255:1259   */\n      0x1f\n        /* \"#utility.yul\":1247:1253   */\n      dup4\n        /* \"#utility.yul\":1243:1260   */\n      add\n        /* \"#utility.yul\":1239:1266   */\n      slt\n        /* \"#utility.yul\":1229:1351   */\n      tag_268\n      jumpi\n        /* \"#utility.yul\":1270:1349   */\n      tag_269\n      tag_259\n      jump\t// in\n    tag_269:\n        /* \"#utility.yul\":1229:1351   */\n    tag_268:\n        /* \"#utility.yul\":1387:1393   */\n      dup2\n        /* \"#utility.yul\":1374:1394   */\n      calldataload\n        /* \"#utility.yul\":1412:1491   */\n      tag_270\n        /* \"#utility.yul\":1487:1490   */\n      dup5\n        /* \"#utility.yul\":1479:1485   */\n      dup3\n        /* \"#utility.yul\":1472:1476   */\n      0x20\n        /* \"#utility.yul\":1464:1470   */\n      dup7\n        /* \"#utility.yul\":1460:1477   */\n      add\n        /* \"#utility.yul\":1412:1491   */\n      tag_240\n      jump\t// in\n    tag_270:\n        /* \"#utility.yul\":1403:1491   */\n      swap2\n      pop\n        /* \"#utility.yul\":1219:1497   */\n      pop\n        /* \"#utility.yul\":1157:1497   */\n      swap3\n      swap2\n      pop\n      pop\n      jump\t// out\n        /* \"#utility.yul\":1503:1642   */\n    tag_271:\n        /* \"#utility.yul\":1549:1554   */\n      0x00\n        /* \"#utility.yul\":1587:1593   */\n      dup2\n        /* \"#utility.yul\":1574:1594   */\n      calldataload\n        /* \"#utility.yul\":1565:1594   */\n      swap1\n      pop\n        /* \"#utility.yul\":1603:1636   */\n      tag_273\n        /* \"#utility.yul\":1630:1635   */\n      dup2\n        /* \"#utility.yul\":1603:1636   */\n      tag_274\n      jump\t// in\n    tag_273:\n        /* \"#utility.yul\":1503:1642   */\n      swap3\n      swap2\n      pop\n      pop\n      jump\t// out\n        /* \"#utility.yul\":1648:1977   */\n    tag_99:\n        /* \"#utility.yul\":1707:1713   */\n      0x00\n        /* \"#utility.yul\":1756:1758   */\n      0x20\n        /* \"#utility.yul\":1744:1753   */\n      dup3\n        /* \"#utility.yul\":1735:1742   */\n      dup5\n        /* \"#utility.yul\":1731:1754   */\n      sub\n        /* \"#utility.yul\":1727:1759   */\n      slt\n        /* \"#utility.yul\":1724:1843   */\n      iszero\n      tag_276\n      jumpi\n        /* \"#utility.yul\":1762:1841   */\n      tag_277\n      tag_278\n      jump\t// in\n    tag_277:\n        /* \"#utility.yul\":1724:1843   */\n    tag_276:\n        /* \"#utility.yul\":1882:1883   */\n      0x00\n        /* \"#utility.yul\":1907:1960   */\n      tag_279\n        /* \"#utility.yul\":1952:1959   */\n      dup5\n        /* \"#utility.yul\":1943:1949   */\n      dup3\n        /* \"#utility.yul\":1932:1941   */\n      dup6\n        /* \"#utility.yul\":1928:1950   */\n      add\n        /* \"#utility.yul\":1907:1960   */\n      tag_251\n      jump\t// in\n    tag_279:\n        /* \"#utility.yul\":1897:1960   */\n      swap2\n      pop\n        /* \"#utility.yul\":1853:1970   */\n      pop\n        /* \"#utility.yul\":1648:1977   */\n      swap3\n      swap2\n      pop\n      pop\n      jump\t// out\n        /* \"#utility.yul\":1983:2637   */\n    tag_44:\n        /* \"#utility.yul\":2061:2067   */\n      0x00\n        /* \"#utility.yul\":2069:2075   */\n      dup1\n        /* \"#utility.yul\":2118:2120   */\n      0x40\n        /* \"#utility.yul\":2106:2115   */\n      dup4\n        /* \"#utility.yul\":2097:2104   */\n      dup6\n        /* \"#utility.yul\":2093:2116   */\n      sub\n        /* \"#utility.yul\":2089:2121   */\n      slt\n        /* \"#utility.yul\":2086:2205   */\n      iszero\n      tag_281\n      jumpi\n        /* \"#utility.yul\":2124:2203   */\n      tag_282\n      tag_278\n      jump\t// in\n    tag_282:\n        /* \"#utility.yul\":2086:2205   */\n    tag_281:\n        /* \"#utility.yul\":2244:2245   */\n      0x00\n        /* \"#utility.yul\":2269:2322   */\n      tag_283\n        /* \"#utility.yul\":2314:2321   */\n      dup6\n        /* \"#utility.yul\":2305:2311   */\n      dup3\n        /* \"#utility.yul\":2294:2303   */\n      dup7\n        /* \"#utility.yul\":2290:2312   */\n      add\n        /* \"#utility.yul\":2269:2322   */\n      tag_251\n      jump\t// in\n    tag_283:\n        /* \"#utility.yul\":2259:2322   */\n      swap3\n      pop\n        /* \"#utility.yul\":2215:2332   */\n      pop\n        /* \"#utility.yul\":2399:2401   */\n      0x20\n        /* \"#utility.yul\":2388:2397   */\n      dup4\n        /* \"#utility.yul\":2384:2402   */\n      add\n        /* \"#utility.yul\":2371:2403   */\n      calldataload\n        /* \"#utility.yul\":2430:2448   */\n      0xffffffffffffffff\n        /* \"#utility.yul\":2422:2428   */\n      dup2\n        /* \"#utility.yul\":2419:2449   */\n      gt\n        /* \"#utility.yul\":2416:2533   */\n      iszero\n      tag_284\n      jumpi\n        /* \"#utility.yul\":2452:2531   */\n      tag_285\n      tag_286\n      jump\t// in\n    tag_285:\n        /* \"#utility.yul\":2416:2533   */\n    tag_284:\n        /* \"#utility.yul\":2557:2620   */\n      tag_287\n        /* \"#utility.yul\":2612:2619   */\n      dup6\n        /* \"#utility.yul\":2603:2609   */\n      dup3\n        /* \"#utility.yul\":2592:2601   */\n      dup7\n        /* \"#utility.yul\":2588:2610   */\n      add\n        /* \"#utility.yul\":2557:2620   */\n      tag_266\n      jump\t// in\n    tag_287:\n        /* \"#utility.yul\":2547:2620   */\n      swap2\n      pop\n        /* \"#utility.yul\":2342:2630   */\n      pop\n        /* \"#utility.yul\":1983:2637   */\n      swap3\n      pop\n      swap3\n      swap1\n      pop\n      jump\t// out\n        /* \"#utility.yul\":2643:3317   */\n    tag_70:\n        /* \"#utility.yul\":2723:2729   */\n      0x00\n        /* \"#utility.yul\":2731:2737   */\n      dup1\n        /* \"#utility.yul\":2739:2745   */\n      0x00\n        /* \"#utility.yul\":2788:2790   */\n      0x40\n        /* \"#utility.yul\":2776:2785   */\n      dup5\n        /* \"#utility.yul\":2767:2774   */\n      dup7\n        /* \"#utility.yul\":2763:2786   */\n      sub\n        /* \"#utility.yul\":2759:2791   */\n      slt\n        /* \"#utility.yul\":2756:2875   */\n      iszero\n      tag_289\n      jumpi\n        /* \"#utility.yul\":2794:2873   */\n      tag_290\n      tag_278\n      jump\t// in\n    tag_290:\n        /* \"#utility.yul\":2756:2875   */\n    tag_289:\n        /* \"#utility.yul\":2942:2943   */\n      0x00\n        /* \"#utility.yul\":2931:2940   */\n      dup5\n        /* \"#utility.yul\":2927:2944   */\n      add\n        /* \"#utility.yul\":2914:2945   */\n      calldataload\n        /* \"#utility.yul\":2972:2990   */\n      0xffffffffffffffff\n        /* \"#utility.yul\":2964:2970   */\n      dup2\n        /* \"#utility.yul\":2961:2991   */\n      gt\n        /* \"#utility.yul\":2958:3075   */\n      iszero\n      tag_291\n      jumpi\n        /* \"#utility.yul\":2994:3073   */\n      tag_292\n      tag_286\n      jump\t// in\n    tag_292:\n        /* \"#utility.yul\":2958:3075   */\n    tag_291:\n        /* \"#utility.yul\":3107:3172   */\n      tag_293\n        /* \"#utility.yul\":3164:3171   */\n      dup7\n        /* \"#utility.yul\":3155:3161   */\n      dup3\n        /* \"#utility.yul\":3144:3153   */\n      dup8\n        /* \"#utility.yul\":3140:3162   */\n      add\n        /* \"#utility.yul\":3107:3172   */\n      tag_255\n      jump\t// in\n    tag_293:\n        /* \"#utility.yul\":3089:3172   */\n      swap4\n      pop\n      swap4\n      pop\n        /* \"#utility.yul\":2885:3182   */\n      pop\n        /* \"#utility.yul\":3221:3223   */\n      0x20\n        /* \"#utility.yul\":3247:3300   */\n      tag_294\n        /* \"#utility.yul\":3292:3299   */\n      dup7\n        /* \"#utility.yul\":3283:3289   */\n      dup3\n        /* \"#utility.yul\":3272:3281   */\n      dup8\n        /* \"#utility.yul\":3268:3290   */\n      add\n        /* \"#utility.yul\":3247:3300   */\n      tag_271\n      jump\t// in\n    tag_294:\n        /* \"#utility.yul\":3237:3300   */\n      swap2\n      pop\n        /* \"#utility.yul\":3192:3310   */\n      pop\n        /* \"#utility.yul\":2643:3317   */\n      swap3\n      pop\n      swap3\n      pop\n      swap3\n      jump\t// out\n        /* \"#utility.yul\":3323:4142   */\n    tag_77:\n        /* \"#utility.yul\":3412:3418   */\n      0x00\n        /* \"#utility.yul\":3420:3426   */\n      dup1\n        /* \"#utility.yul\":3428:3434   */\n      0x00\n        /* \"#utility.yul\":3436:3442   */\n      dup1\n        /* \"#utility.yul\":3485:3487   */\n      0x60\n        /* \"#utility.yul\":3473:3482   */\n      dup6\n        /* \"#utility.yul\":3464:3471   */\n      dup8\n        /* \"#utility.yul\":3460:3483   */\n      sub\n        /* \"#utility.yul\":3456:3488   */\n      slt\n        /* \"#utility.yul\":3453:3572   */\n      iszero\n      tag_296\n      jumpi\n        /* \"#utility.yul\":3491:3570   */\n      tag_297\n      tag_278\n      jump\t// in\n    tag_297:\n        /* \"#utility.yul\":3453:3572   */\n    tag_296:\n        /* \"#utility.yul\":3639:3640   */\n      0x00\n        /* \"#utility.yul\":3628:3637   */\n      dup6\n        /* \"#utility.yul\":3624:3641   */\n      add\n        /* \"#utility.yul\":3611:3642   */\n      calldataload\n        /* \"#utility.yul\":3669:3687   */\n      0xffffffffffffffff\n        /* \"#utility.yul\":3661:3667   */\n      dup2\n        /* \"#utility.yul\":3658:3688   */\n      gt\n        /* \"#utility.yul\":3655:3772   */\n      iszero\n      tag_298\n      jumpi\n        /* \"#utility.yul\":3691:3770   */\n      tag_299\n      tag_286\n      jump\t// in\n    tag_299:\n        /* \"#utility.yul\":3655:3772   */\n    tag_298:\n        /* \"#utility.yul\":3804:3869   */\n      tag_300\n        /* \"#utility.yul\":3861:3868   */\n      dup8\n        /* \"#utility.yul\":3852:3858   */\n      dup3\n        /* \"#utility.yul\":3841:3850   */\n      dup9\n        /* \"#utility.yul\":3837:3859   */\n      add\n        /* \"#utility.yul\":3804:3869   */\n      tag_255\n      jump\t// in\n    tag_300:\n        /* \"#utility.yul\":3786:3869   */\n      swap5\n      pop\n      swap5\n      pop\n        /* \"#utility.yul\":3582:3879   */\n      pop\n        /* \"#utility.yul\":3918:3920   */\n      0x20\n        /* \"#utility.yul\":3944:3997   */\n      tag_301\n        /* \"#utility.yul\":3989:3996   */\n      dup8\n        /* \"#utility.yul\":3980:3986   */\n      dup3\n        /* \"#utility.yul\":3969:3978   */\n      dup9\n        /* \"#utility.yul\":3965:3987   */\n      add\n        /* \"#utility.yul\":3944:3997   */\n      tag_271\n      jump\t// in\n    tag_301:\n        /* \"#utility.yul\":3934:3997   */\n      swap3\n      pop\n        /* \"#utility.yul\":3889:4007   */\n      pop\n        /* \"#utility.yul\":4046:4048   */\n      0x40\n        /* \"#utility.yul\":4072:4125   */\n      tag_302\n        /* \"#utility.yul\":4117:4124   */\n      dup8\n        /* \"#utility.yul\":4108:4114   */\n      dup3\n        /* \"#utility.yul\":4097:4106   */\n      dup9\n        /* \"#utility.yul\":4093:4115   */\n      add\n        /* \"#utility.yul\":4072:4125   */\n      tag_271\n      jump\t// in\n    tag_302:\n        /* \"#utility.yul\":4062:4125   */\n      swap2\n      pop\n        /* \"#utility.yul\":4017:4135   */\n      pop\n        /* \"#utility.yul\":3323:4142   */\n      swap3\n      swap6\n      swap2\n      swap5\n      pop\n      swap3\n      pop\n      jump\t// out\n        /* \"#utility.yul\":4148:4657   */\n    tag_37:\n        /* \"#utility.yul\":4217:4223   */\n      0x00\n        /* \"#utility.yul\":4266:4268   */\n      0x20\n        /* \"#utility.yul\":4254:4263   */\n      dup3\n        /* \"#utility.yul\":4245:4252   */\n      dup5\n        /* \"#utility.yul\":4241:4264   */\n      sub\n        /* \"#utility.yul\":4237:4269   */\n      slt\n        /* \"#utility.yul\":4234:4353   */\n      iszero\n      tag_304\n      jumpi\n        /* \"#utility.yul\":4272:4351   */\n      tag_305\n      tag_278\n      jump\t// in\n    tag_305:\n        /* \"#utility.yul\":4234:4353   */\n    tag_304:\n        /* \"#utility.yul\":4420:4421   */\n      0x00\n        /* \"#utility.yul\":4409:4418   */\n      dup3\n        /* \"#utility.yul\":4405:4422   */\n      add\n        /* \"#utility.yul\":4392:4423   */\n      calldataload\n        /* \"#utility.yul\":4450:4468   */\n      0xffffffffffffffff\n        /* \"#utility.yul\":4442:4448   */\n      dup2\n        /* \"#utility.yul\":4439:4469   */\n      gt\n        /* \"#utility.yul\":4436:4553   */\n      iszero\n      tag_306\n      jumpi\n        /* \"#utility.yul\":4472:4551   */\n      tag_307\n      tag_286\n      jump\t// in\n    tag_307:\n        /* \"#utility.yul\":4436:4553   */\n    tag_306:\n        /* \"#utility.yul\":4577:4640   */\n      tag_308\n        /* \"#utility.yul\":4632:4639   */\n      dup5\n        /* \"#utility.yul\":4623:4629   */\n      dup3\n        /* \"#utility.yul\":4612:4621   */\n      dup6\n        /* \"#utility.yul\":4608:4630   */\n      add\n        /* \"#utility.yul\":4577:4640   */\n      tag_266\n      jump\t// in\n    tag_308:\n        /* \"#utility.yul\":4567:4640   */\n      swap2\n      pop\n        /* \"#utility.yul\":4363:4650   */\n      pop\n        /* \"#utility.yul\":4148:4657   */\n      swap3\n      swap2\n      pop\n      pop\n      jump\t// out\n        /* \"#utility.yul\":4663:4992   */\n    tag_30:\n        /* \"#utility.yul\":4722:4728   */\n      0x00\n        /* \"#utility.yul\":4771:4773   */\n      0x20\n        /* \"#utility.yul\":4759:4768   */\n      dup3\n        /* \"#utility.yul\":4750:4757   */\n      dup5\n        /* \"#utility.yul\":4746:4769   */\n      sub\n        /* \"#utility.yul\":4742:4774   */\n      slt\n        /* \"#utility.yul\":4739:4858   */\n      iszero\n      tag_310\n      jumpi\n        /* \"#utility.yul\":4777:4856   */\n      tag_311\n      tag_278\n      jump\t// in\n    tag_311:\n        /* \"#utility.yul\":4739:4858   */\n    tag_310:\n        /* \"#utility.yul\":4897:4898   */\n      0x00\n        /* \"#utility.yul\":4922:4975   */\n      tag_312\n        /* \"#utility.yul\":4967:4974   */\n      dup5\n        /* \"#utility.yul\":4958:4964   */\n      dup3\n        /* \"#utility.yul\":4947:4956   */\n      dup6\n        /* \"#utility.yul\":4943:4965   */\n      add\n        /* \"#utility.yul\":4922:4975   */\n      tag_271\n      jump\t// in\n    tag_312:\n        /* \"#utility.yul\":4912:4975   */\n      swap2\n      pop\n        /* \"#utility.yul\":4868:4985   */\n      pop\n        /* \"#utility.yul\":4663:4992   */\n      swap3\n      swap2\n      pop\n      pop\n      jump\t// out\n        /* \"#utility.yul\":4998:5472   */\n    tag_55:\n        /* \"#utility.yul\":5066:5072   */\n      0x00\n        /* \"#utility.yul\":5074:5080   */\n      dup1\n        /* \"#utility.yul\":5123:5125   */\n      0x40\n        /* \"#utility.yul\":5111:5120   */\n      dup4\n        /* \"#utility.yul\":5102:5109   */\n      dup6\n        /* \"#utility.yul\":5098:5121   */\n      sub\n        /* \"#utility.yul\":5094:5126   */\n      slt\n        /* \"#utility.yul\":5091:5210   */\n      iszero\n      tag_314\n      jumpi\n        /* \"#utility.yul\":5129:5208   */\n      tag_315\n      tag_278\n      jump\t// in\n    tag_315:\n        /* \"#utility.yul\":5091:5210   */\n    tag_314:\n        /* \"#utility.yul\":5249:5250   */\n      0x00\n        /* \"#utility.yul\":5274:5327   */\n      tag_316\n        /* \"#utility.yul\":5319:5326   */\n      dup6\n        /* \"#utility.yul\":5310:5316   */\n      dup3\n        /* \"#utility.yul\":5299:5308   */\n      dup7\n        /* \"#utility.yul\":5295:5317   */\n      add\n        /* \"#utility.yul\":5274:5327   */\n      tag_271\n      jump\t// in\n    tag_316:\n        /* \"#utility.yul\":5264:5327   */\n      swap3\n      pop\n        /* \"#utility.yul\":5220:5337   */\n      pop\n        /* \"#utility.yul\":5376:5378   */\n      0x20\n        /* \"#utility.yul\":5402:5455   */\n      tag_317\n        /* \"#utility.yul\":5447:5454   */\n      dup6\n        /* \"#utility.yul\":5438:5444   */\n      dup3\n        /* \"#utility.yul\":5427:5436   */\n      dup7\n        /* \"#utility.yul\":5423:5445   */\n      add\n        /* \"#utility.yul\":5402:5455   */\n      tag_271\n      jump\t// in\n    tag_317:\n        /* \"#utility.yul\":5392:5455   */\n      swap2\n      pop\n        /* \"#utility.yul\":5347:5465   */\n      pop\n        /* \"#utility.yul\":4998:5472   */\n      swap3\n      pop\n      swap3\n      swap1\n      pop\n      jump\t// out\n        /* \"#utility.yul\":5478:5586   */\n    tag_318:\n        /* \"#utility.yul\":5555:5579   */\n      tag_320\n        /* \"#utility.yul\":5573:5578   */\n      dup2\n        /* \"#utility.yul\":5555:5579   */\n      tag_321\n      jump\t// in\n    tag_320:\n        /* \"#utility.yul\":5550:5553   */\n      dup3\n        /* \"#utility.yul\":5543:5580   */\n      mstore\n        /* \"#utility.yul\":5478:5586   */\n      pop\n      pop\n      jump\t// out\n        /* \"#utility.yul\":5592:5710   */\n    tag_322:\n        /* \"#utility.yul\":5679:5703   */\n      tag_324\n        /* \"#utility.yul\":5697:5702   */\n      dup2\n        /* \"#utility.yul\":5679:5703   */\n      tag_321\n      jump\t// in\n    tag_324:\n        /* \"#utility.yul\":5674:5677   */\n      dup3\n        /* \"#utility.yul\":5667:5704   */\n      mstore\n        /* \"#utility.yul\":5592:5710   */\n      pop\n      pop\n      jump\t// out\n        /* \"#utility.yul\":5716:5825   */\n    tag_325:\n        /* \"#utility.yul\":5797:5818   */\n      tag_327\n        /* \"#utility.yul\":5812:5817   */\n      dup2\n        /* \"#utility.yul\":5797:5818   */\n      tag_328\n      jump\t// in\n    tag_327:\n        /* \"#utility.yul\":5792:5795   */\n      dup3\n        /* \"#utility.yul\":5785:5819   */\n      mstore\n        /* \"#utility.yul\":5716:5825   */\n      pop\n      pop\n      jump\t// out\n        /* \"#utility.yul\":5831:5998   */\n    tag_329:\n        /* \"#utility.yul\":5936:5991   */\n      tag_331\n        /* \"#utility.yul\":5985:5990   */\n      dup2\n        /* \"#utility.yul\":5936:5991   */\n      tag_332\n      jump\t// in\n    tag_331:\n        /* \"#utility.yul\":5931:5934   */\n      dup3\n        /* \"#utility.yul\":5924:5992   */\n      mstore\n        /* \"#utility.yul\":5831:5998   */\n      pop\n      pop\n      jump\t// out\n        /* \"#utility.yul\":6004:6109   */\n    tag_333:\n        /* \"#utility.yul\":6079:6102   */\n      tag_335\n        /* \"#utility.yul\":6096:6101   */\n      dup2\n        /* \"#utility.yul\":6079:6102   */\n      tag_336\n      jump\t// in\n    tag_335:\n        /* \"#utility.yul\":6074:6077   */\n      dup3\n        /* \"#utility.yul\":6067:6103   */\n      mstore\n        /* \"#utility.yul\":6004:6109   */\n      pop\n      pop\n      jump\t// out\n        /* \"#utility.yul\":6115:6230   */\n    tag_337:\n        /* \"#utility.yul\":6200:6223   */\n      tag_339\n        /* \"#utility.yul\":6217:6222   */\n      dup2\n        /* \"#utility.yul\":6200:6223   */\n      tag_336\n      jump\t// in\n    tag_339:\n        /* \"#utility.yul\":6195:6198   */\n      dup3\n        /* \"#utility.yul\":6188:6224   */\n      mstore\n        /* \"#utility.yul\":6115:6230   */\n      pop\n      pop\n      jump\t// out\n        /* \"#utility.yul\":6260:6577   */\n    tag_340:\n        /* \"#utility.yul\":6376:6379   */\n      0x00\n        /* \"#utility.yul\":6397:6486   */\n      tag_342\n        /* \"#utility.yul\":6479:6485   */\n      dup4\n        /* \"#utility.yul\":6474:6477   */\n      dup6\n        /* \"#utility.yul\":6397:6486   */\n      tag_343\n      jump\t// in\n    tag_342:\n        /* \"#utility.yul\":6390:6486   */\n      swap4\n      pop\n        /* \"#utility.yul\":6496:6539   */\n      tag_344\n        /* \"#utility.yul\":6532:6538   */\n      dup4\n        /* \"#utility.yul\":6527:6530   */\n      dup6\n        /* \"#utility.yul\":6520:6525   */\n      dup5\n        /* \"#utility.yul\":6496:6539   */\n      tag_250\n      jump\t// in\n    tag_344:\n        /* \"#utility.yul\":6564:6570   */\n      dup3\n        /* \"#utility.yul\":6559:6562   */\n      dup5\n        /* \"#utility.yul\":6555:6571   */\n      add\n        /* \"#utility.yul\":6548:6571   */\n      swap1\n      pop\n        /* \"#utility.yul\":6260:6577   */\n      swap4\n      swap3\n      pop\n      pop\n      pop\n      jump\t// out\n        /* \"#utility.yul\":6583:6927   */\n    tag_345:\n        /* \"#utility.yul\":6661:6664   */\n      0x00\n        /* \"#utility.yul\":6689:6728   */\n      tag_347\n        /* \"#utility.yul\":6722:6727   */\n      dup3\n        /* \"#utility.yul\":6689:6728   */\n      tag_348\n      jump\t// in\n    tag_347:\n        /* \"#utility.yul\":6744:6805   */\n      tag_349\n        /* \"#utility.yul\":6798:6804   */\n      dup2\n        /* \"#utility.yul\":6793:6796   */\n      dup6\n        /* \"#utility.yul\":6744:6805   */\n      tag_350\n      jump\t// in\n    tag_349:\n        /* \"#utility.yul\":6737:6805   */\n      swap4\n      pop\n        /* \"#utility.yul\":6814:6866   */\n      tag_351\n        /* \"#utility.yul\":6859:6865   */\n      dup2\n        /* \"#utility.yul\":6854:6857   */\n      dup6\n        /* \"#utility.yul\":6847:6851   */\n      0x20\n        /* \"#utility.yul\":6840:6845   */\n      dup7\n        /* \"#utility.yul\":6836:6852   */\n      add\n        /* \"#utility.yul\":6814:6866   */\n      tag_352\n      jump\t// in\n    tag_351:\n        /* \"#utility.yul\":6891:6920   */\n      tag_353\n        /* \"#utility.yul\":6913:6919   */\n      dup2\n        /* \"#utility.yul\":6891:6920   */\n      tag_354\n      jump\t// in\n    tag_353:\n        /* \"#utility.yul\":6886:6889   */\n      dup5\n        /* \"#utility.yul\":6882:6921   */\n      add\n        /* \"#utility.yul\":6875:6921   */\n      swap2\n      pop\n        /* \"#utility.yul\":6665:6927   */\n      pop\n        /* \"#utility.yul\":6583:6927   */\n      swap3\n      swap2\n      pop\n      pop\n      jump\t// out\n        /* \"#utility.yul\":6933:7297   */\n    tag_355:\n        /* \"#utility.yul\":7021:7024   */\n      0x00\n        /* \"#utility.yul\":7049:7088   */\n      tag_357\n        /* \"#utility.yul\":7082:7087   */\n      dup3\n        /* \"#utility.yul\":7049:7088   */\n      tag_348\n      jump\t// in\n    tag_357:\n        /* \"#utility.yul\":7104:7175   */\n      tag_358\n        /* \"#utility.yul\":7168:7174   */\n      dup2\n        /* \"#utility.yul\":7163:7166   */\n      dup6\n        /* \"#utility.yul\":7104:7175   */\n      tag_359\n      jump\t// in\n    tag_358:\n        /* \"#utility.yul\":7097:7175   */\n      swap4\n      pop\n        /* \"#utility.yul\":7184:7236   */\n      tag_360\n        /* \"#utility.yul\":7229:7235   */\n      dup2\n        /* \"#utility.yul\":7224:7227   */\n      dup6\n        /* \"#utility.yul\":7217:7221   */\n      0x20\n        /* \"#utility.yul\":7210:7215   */\n      dup7\n        /* \"#utility.yul\":7206:7222   */\n      add\n        /* \"#utility.yul\":7184:7236   */\n      tag_352\n      jump\t// in\n    tag_360:\n        /* \"#utility.yul\":7261:7290   */\n      tag_361\n        /* \"#utility.yul\":7283:7289   */\n      dup2\n        /* \"#utility.yul\":7261:7290   */\n      tag_354\n      jump\t// in\n    tag_361:\n        /* \"#utility.yul\":7256:7259   */\n      dup5\n        /* \"#utility.yul\":7252:7291   */\n      add\n        /* \"#utility.yul\":7245:7291   */\n      swap2\n      pop\n        /* \"#utility.yul\":7025:7297   */\n      pop\n        /* \"#utility.yul\":6933:7297   */\n      swap3\n      swap2\n      pop\n      pop\n      jump\t// out\n        /* \"#utility.yul\":7303:7680   */\n    tag_362:\n        /* \"#utility.yul\":7409:7412   */\n      0x00\n        /* \"#utility.yul\":7437:7476   */\n      tag_364\n        /* \"#utility.yul\":7470:7475   */\n      dup3\n        /* \"#utility.yul\":7437:7476   */\n      tag_348\n      jump\t// in\n    tag_364:\n        /* \"#utility.yul\":7492:7581   */\n      tag_365\n        /* \"#utility.yul\":7574:7580   */\n      dup2\n        /* \"#utility.yul\":7569:7572   */\n      dup6\n        /* \"#utility.yul\":7492:7581   */\n      tag_343\n      jump\t// in\n    tag_365:\n        /* \"#utility.yul\":7485:7581   */\n      swap4\n      pop\n        /* \"#utility.yul\":7590:7642   */\n      tag_366\n        /* \"#utility.yul\":7635:7641   */\n      dup2\n        /* \"#utility.yul\":7630:7633   */\n      dup6\n        /* \"#utility.yul\":7623:7627   */\n      0x20\n        /* \"#utility.yul\":7616:7621   */\n      dup7\n        /* \"#utility.yul\":7612:7628   */\n      add\n        /* \"#utility.yul\":7590:7642   */\n      tag_352\n      jump\t// in\n    tag_366:\n        /* \"#utility.yul\":7667:7673   */\n      dup1\n        /* \"#utility.yul\":7662:7665   */\n      dup5\n        /* \"#utility.yul\":7658:7674   */\n      add\n        /* \"#utility.yul\":7651:7674   */\n      swap2\n      pop\n        /* \"#utility.yul\":7413:7680   */\n      pop\n        /* \"#utility.yul\":7303:7680   */\n      swap3\n      swap2\n      pop\n      pop\n      jump\t// out\n        /* \"#utility.yul\":7686:8052   */\n    tag_367:\n        /* \"#utility.yul\":7828:7831   */\n      0x00\n        /* \"#utility.yul\":7849:7916   */\n      tag_369\n        /* \"#utility.yul\":7913:7915   */\n      0x2f\n        /* \"#utility.yul\":7908:7911   */\n      dup4\n        /* \"#utility.yul\":7849:7916   */\n      tag_359\n      jump\t// in\n    tag_369:\n        /* \"#utility.yul\":7842:7916   */\n      swap2\n      pop\n        /* \"#utility.yul\":7925:8018   */\n      tag_370\n        /* \"#utility.yul\":8014:8017   */\n      dup3\n        /* \"#utility.yul\":7925:8018   */\n      tag_371\n      jump\t// in\n    tag_370:\n        /* \"#utility.yul\":8043:8045   */\n      0x40\n        /* \"#utility.yul\":8038:8041   */\n      dup3\n        /* \"#utility.yul\":8034:8046   */\n      add\n        /* \"#utility.yul\":8027:8046   */\n      swap1\n      pop\n        /* \"#utility.yul\":7686:8052   */\n      swap2\n      swap1\n      pop\n      jump\t// out\n        /* \"#utility.yul\":8058:8424   */\n    tag_372:\n        /* \"#utility.yul\":8200:8203   */\n      0x00\n        /* \"#utility.yul\":8221:8288   */\n      tag_374\n        /* \"#utility.yul\":8285:8287   */\n      0x35\n        /* \"#utility.yul\":8280:8283   */\n      dup4\n        /* \"#utility.yul\":8221:8288   */\n      tag_359\n      jump\t// in\n    tag_374:\n        /* \"#utility.yul\":8214:8288   */\n      swap2\n      pop\n        /* \"#utility.yul\":8297:8390   */\n      tag_375\n        /* \"#utility.yul\":8386:8389   */\n      dup3\n        /* \"#utility.yul\":8297:8390   */\n      tag_376\n      jump\t// in\n    tag_375:\n        /* \"#utility.yul\":8415:8417   */\n      0x40\n        /* \"#utility.yul\":8410:8413   */\n      dup3\n        /* \"#utility.yul\":8406:8418   */\n      add\n        /* \"#utility.yul\":8399:8418   */\n      swap1\n      pop\n        /* \"#utility.yul\":8058:8424   */\n      swap2\n      swap1\n      pop\n      jump\t// out\n        /* \"#utility.yul\":8430:8796   */\n    tag_377:\n        /* \"#utility.yul\":8572:8575   */\n      0x00\n        /* \"#utility.yul\":8593:8660   */\n      tag_379\n        /* \"#utility.yul\":8657:8659   */\n      0x22\n        /* \"#utility.yul\":8652:8655   */\n      dup4\n        /* \"#utility.yul\":8593:8660   */\n      tag_359\n      jump\t// in\n    tag_379:\n        /* \"#utility.yul\":8586:8660   */\n      swap2\n      pop\n        /* \"#utility.yul\":8669:8762   */\n      tag_380\n        /* \"#utility.yul\":8758:8761   */\n      dup3\n        /* \"#utility.yul\":8669:8762   */\n      tag_381\n      jump\t// in\n    tag_380:\n        /* \"#utility.yul\":8787:8789   */\n      0x40\n        /* \"#utility.yul\":8782:8785   */\n      dup3\n        /* \"#utility.yul\":8778:8790   */\n      add\n        /* \"#utility.yul\":8771:8790   */\n      swap1\n      pop\n        /* \"#utility.yul\":8430:8796   */\n      swap2\n      swap1\n      pop\n      jump\t// out\n        /* \"#utility.yul\":8802:9168   */\n    tag_382:\n        /* \"#utility.yul\":8944:8947   */\n      0x00\n        /* \"#utility.yul\":8965:9032   */\n      tag_384\n        /* \"#utility.yul\":9029:9031   */\n      0x32\n        /* \"#utility.yul\":9024:9027   */\n      dup4\n        /* \"#utility.yul\":8965:9032   */\n      tag_359\n      jump\t// in\n    tag_384:\n        /* \"#utility.yul\":8958:9032   */\n      swap2\n      pop\n        /* \"#utility.yul\":9041:9134   */\n      tag_385\n        /* \"#utility.yul\":9130:9133   */\n      dup3\n        /* \"#utility.yul\":9041:9134   */\n      tag_386\n      jump\t// in\n    tag_385:\n        /* \"#utility.yul\":9159:9161   */\n      0x40\n        /* \"#utility.yul\":9154:9157   */\n      dup3\n        /* \"#utility.yul\":9150:9162   */\n      add\n        /* \"#utility.yul\":9143:9162   */\n      swap1\n      pop\n        /* \"#utility.yul\":8802:9168   */\n      swap2\n      swap1\n      pop\n      jump\t// out\n        /* \"#utility.yul\":9174:9540   */\n    tag_387:\n        /* \"#utility.yul\":9316:9319   */\n      0x00\n        /* \"#utility.yul\":9337:9404   */\n      tag_389\n        /* \"#utility.yul\":9401:9403   */\n      0x1a\n        /* \"#utility.yul\":9396:9399   */\n      dup4\n        /* \"#utility.yul\":9337:9404   */\n      tag_359\n      jump\t// in\n    tag_389:\n        /* \"#utility.yul\":9330:9404   */\n      swap2\n      pop\n        /* \"#utility.yul\":9413:9506   */\n      tag_390\n        /* \"#utility.yul\":9502:9505   */\n      dup3\n        /* \"#utility.yul\":9413:9506   */\n      tag_391\n      jump\t// in\n    tag_390:\n        /* \"#utility.yul\":9531:9533   */\n      0x20\n        /* \"#utility.yul\":9526:9529   */\n      dup3\n        /* \"#utility.yul\":9522:9534   */\n      add\n        /* \"#utility.yul\":9515:9534   */\n      swap1\n      pop\n        /* \"#utility.yul\":9174:9540   */\n      swap2\n      swap1\n      pop\n      jump\t// out\n        /* \"#utility.yul\":9546:9912   */\n    tag_392:\n        /* \"#utility.yul\":9688:9691   */\n      0x00\n        /* \"#utility.yul\":9709:9776   */\n      tag_394\n        /* \"#utility.yul\":9773:9775   */\n      0x5b\n        /* \"#utility.yul\":9768:9771   */\n      dup4\n        /* \"#utility.yul\":9709:9776   */\n      tag_359\n      jump\t// in\n    tag_394:\n        /* \"#utility.yul\":9702:9776   */\n      swap2\n      pop\n        /* \"#utility.yul\":9785:9878   */\n      tag_395\n        /* \"#utility.yul\":9874:9877   */\n      dup3\n        /* \"#utility.yul\":9785:9878   */\n      tag_396\n      jump\t// in\n    tag_395:\n        /* \"#utility.yul\":9903:9905   */\n      0x60\n        /* \"#utility.yul\":9898:9901   */\n      dup3\n        /* \"#utility.yul\":9894:9906   */\n      add\n        /* \"#utility.yul\":9887:9906   */\n      swap1\n      pop\n        /* \"#utility.yul\":9546:9912   */\n      swap2\n      swap1\n      pop\n      jump\t// out\n        /* \"#utility.yul\":9918:10284   */\n    tag_397:\n        /* \"#utility.yul\":10060:10063   */\n      0x00\n        /* \"#utility.yul\":10081:10148   */\n      tag_399\n        /* \"#utility.yul\":10145:10147   */\n      0x1c\n        /* \"#utility.yul\":10140:10143   */\n      dup4\n        /* \"#utility.yul\":10081:10148   */\n      tag_359\n      jump\t// in\n    tag_399:\n        /* \"#utility.yul\":10074:10148   */\n      swap2\n      pop\n        /* \"#utility.yul\":10157:10250   */\n      tag_400\n        /* \"#utility.yul\":10246:10249   */\n      dup3\n        /* \"#utility.yul\":10157:10250   */\n      tag_401\n      jump\t// in\n    tag_400:\n        /* \"#utility.yul\":10275:10277   */\n      0x20\n        /* \"#utility.yul\":10270:10273   */\n      dup3\n        /* \"#utility.yul\":10266:10278   */\n      add\n        /* \"#utility.yul\":10259:10278   */\n      swap1\n      pop\n        /* \"#utility.yul\":9918:10284   */\n      swap2\n      swap1\n      pop\n      jump\t// out\n        /* \"#utility.yul\":10290:10656   */\n    tag_402:\n        /* \"#utility.yul\":10432:10435   */\n      0x00\n        /* \"#utility.yul\":10453:10520   */\n      tag_404\n        /* \"#utility.yul\":10517:10519   */\n      0x20\n        /* \"#utility.yul\":10512:10515   */\n      dup4\n        /* \"#utility.yul\":10453:10520   */\n      tag_359\n      jump\t// in\n    tag_404:\n        /* \"#utility.yul\":10446:10520   */\n      swap2\n      pop\n        /* \"#utility.yul\":10529:10622   */\n      tag_405\n        /* \"#utility.yul\":10618:10621   */\n      dup3\n        /* \"#utility.yul\":10529:10622   */\n      tag_406\n      jump\t// in\n    tag_405:\n        /* \"#utility.yul\":10647:10649   */\n      0x20\n        /* \"#utility.yul\":10642:10645   */\n      dup3\n        /* \"#utility.yul\":10638:10650   */\n      add\n        /* \"#utility.yul\":10631:10650   */\n      swap1\n      pop\n        /* \"#utility.yul\":10290:10656   */\n      swap2\n      swap1\n      pop\n      jump\t// out\n        /* \"#utility.yul\":10662:11028   */\n    tag_407:\n        /* \"#utility.yul\":10804:10807   */\n      0x00\n        /* \"#utility.yul\":10825:10892   */\n      tag_409\n        /* \"#utility.yul\":10889:10891   */\n      0x27\n        /* \"#utility.yul\":10884:10887   */\n      dup4\n        /* \"#utility.yul\":10825:10892   */\n      tag_359\n      jump\t// in\n    tag_409:\n        /* \"#utility.yul\":10818:10892   */\n      swap2\n      pop\n        /* \"#utility.yul\":10901:10994   */\n      tag_410\n        /* \"#utility.yul\":10990:10993   */\n      dup3\n        /* \"#utility.yul\":10901:10994   */\n      tag_411\n      jump\t// in\n    tag_410:\n        /* \"#utility.yul\":11019:11021   */\n      0x40\n        /* \"#utility.yul\":11014:11017   */\n      dup3\n        /* \"#utility.yul\":11010:11022   */\n      add\n        /* \"#utility.yul\":11003:11022   */\n      swap1\n      pop\n        /* \"#utility.yul\":10662:11028   */\n      swap2\n      swap1\n      pop\n      jump\t// out\n        /* \"#utility.yul\":11122:12229   */\n    tag_412:\n        /* \"#utility.yul\":11295:11299   */\n      0xa0\n        /* \"#utility.yul\":11290:11293   */\n      dup3\n        /* \"#utility.yul\":11286:11300   */\n      add\n        /* \"#utility.yul\":11391:11395   */\n      0x00\n        /* \"#utility.yul\":11384:11389   */\n      dup3\n        /* \"#utility.yul\":11380:11396   */\n      add\n        /* \"#utility.yul\":11374:11397   */\n      mload\n        /* \"#utility.yul\":11410:11473   */\n      tag_414\n        /* \"#utility.yul\":11467:11471   */\n      0x00\n        /* \"#utility.yul\":11462:11465   */\n      dup6\n        /* \"#utility.yul\":11458:11472   */\n      add\n        /* \"#utility.yul\":11444:11456   */\n      dup3\n        /* \"#utility.yul\":11410:11473   */\n      tag_415\n      jump\t// in\n    tag_414:\n        /* \"#utility.yul\":11310:11483   */\n      pop\n        /* \"#utility.yul\":11575:11579   */\n      0x20\n        /* \"#utility.yul\":11568:11573   */\n      dup3\n        /* \"#utility.yul\":11564:11580   */\n      add\n        /* \"#utility.yul\":11558:11581   */\n      mload\n        /* \"#utility.yul\":11594:11657   */\n      tag_416\n        /* \"#utility.yul\":11651:11655   */\n      0x20\n        /* \"#utility.yul\":11646:11649   */\n      dup6\n        /* \"#utility.yul\":11642:11656   */\n      add\n        /* \"#utility.yul\":11628:11640   */\n      dup3\n        /* \"#utility.yul\":11594:11657   */\n      tag_415\n      jump\t// in\n    tag_416:\n        /* \"#utility.yul\":11493:11667   */\n      pop\n        /* \"#utility.yul\":11760:11764   */\n      0x40\n        /* \"#utility.yul\":11753:11758   */\n      dup3\n        /* \"#utility.yul\":11749:11765   */\n      add\n        /* \"#utility.yul\":11743:11766   */\n      mload\n        /* \"#utility.yul\":11779:11842   */\n      tag_417\n        /* \"#utility.yul\":11836:11840   */\n      0x40\n        /* \"#utility.yul\":11831:11834   */\n      dup6\n        /* \"#utility.yul\":11827:11841   */\n      add\n        /* \"#utility.yul\":11813:11825   */\n      dup3\n        /* \"#utility.yul\":11779:11842   */\n      tag_318\n      jump\t// in\n    tag_417:\n        /* \"#utility.yul\":11677:11852   */\n      pop\n        /* \"#utility.yul\":11942:11946   */\n      0x60\n        /* \"#utility.yul\":11935:11940   */\n      dup3\n        /* \"#utility.yul\":11931:11947   */\n      add\n        /* \"#utility.yul\":11925:11948   */\n      mload\n        /* \"#utility.yul\":11961:12024   */\n      tag_418\n        /* \"#utility.yul\":12018:12022   */\n      0x60\n        /* \"#utility.yul\":12013:12016   */\n      dup6\n        /* \"#utility.yul\":12009:12023   */\n      add\n        /* \"#utility.yul\":11995:12007   */\n      dup3\n        /* \"#utility.yul\":11961:12024   */\n      tag_415\n      jump\t// in\n    tag_418:\n        /* \"#utility.yul\":11862:12034   */\n      pop\n        /* \"#utility.yul\":12130:12134   */\n      0x80\n        /* \"#utility.yul\":12123:12128   */\n      dup3\n        /* \"#utility.yul\":12119:12135   */\n      add\n        /* \"#utility.yul\":12113:12136   */\n      mload\n        /* \"#utility.yul\":12149:12212   */\n      tag_419\n        /* \"#utility.yul\":12206:12210   */\n      0x80\n        /* \"#utility.yul\":12201:12204   */\n      dup6\n        /* \"#utility.yul\":12197:12211   */\n      add\n        /* \"#utility.yul\":12183:12195   */\n      dup3\n        /* \"#utility.yul\":12149:12212   */\n      tag_415\n      jump\t// in\n    tag_419:\n        /* \"#utility.yul\":12044:12222   */\n      pop\n        /* \"#utility.yul\":11264:12229   */\n      pop\n        /* \"#utility.yul\":11122:12229   */\n      pop\n      pop\n      jump\t// out\n        /* \"#utility.yul\":12323:13881   */\n    tag_420:\n        /* \"#utility.yul\":12468:12471   */\n      0x00\n        /* \"#utility.yul\":12504:12508   */\n      0xe0\n        /* \"#utility.yul\":12499:12502   */\n      dup4\n        /* \"#utility.yul\":12495:12509   */\n      add\n        /* \"#utility.yul\":12599:12603   */\n      0x00\n        /* \"#utility.yul\":12592:12597   */\n      dup4\n        /* \"#utility.yul\":12588:12604   */\n      add\n        /* \"#utility.yul\":12582:12605   */\n      mload\n        /* \"#utility.yul\":12618:12681   */\n      tag_422\n        /* \"#utility.yul\":12675:12679   */\n      0x00\n        /* \"#utility.yul\":12670:12673   */\n      dup7\n        /* \"#utility.yul\":12666:12680   */\n      add\n        /* \"#utility.yul\":12652:12664   */\n      dup3\n        /* \"#utility.yul\":12618:12681   */\n      tag_415\n      jump\t// in\n    tag_422:\n        /* \"#utility.yul\":12519:12691   */\n      pop\n        /* \"#utility.yul\":12784:12788   */\n      0x20\n        /* \"#utility.yul\":12777:12782   */\n      dup4\n        /* \"#utility.yul\":12773:12789   */\n      add\n        /* \"#utility.yul\":12767:12790   */\n      mload\n        /* \"#utility.yul\":12803:12866   */\n      tag_423\n        /* \"#utility.yul\":12860:12864   */\n      0x20\n        /* \"#utility.yul\":12855:12858   */\n      dup7\n        /* \"#utility.yul\":12851:12865   */\n      add\n        /* \"#utility.yul\":12837:12849   */\n      dup3\n        /* \"#utility.yul\":12803:12866   */\n      tag_318\n      jump\t// in\n    tag_423:\n        /* \"#utility.yul\":12701:12876   */\n      pop\n        /* \"#utility.yul\":12961:12965   */\n      0x40\n        /* \"#utility.yul\":12954:12959   */\n      dup4\n        /* \"#utility.yul\":12950:12966   */\n      add\n        /* \"#utility.yul\":12944:12967   */\n      mload\n        /* \"#utility.yul\":13014:13017   */\n      dup5\n        /* \"#utility.yul\":13008:13012   */\n      dup3\n        /* \"#utility.yul\":13004:13018   */\n      sub\n        /* \"#utility.yul\":12997:13001   */\n      0x40\n        /* \"#utility.yul\":12992:12995   */\n      dup7\n        /* \"#utility.yul\":12988:13002   */\n      add\n        /* \"#utility.yul\":12981:13019   */\n      mstore\n        /* \"#utility.yul\":13040:13113   */\n      tag_424\n        /* \"#utility.yul\":13108:13112   */\n      dup3\n        /* \"#utility.yul\":13094:13106   */\n      dup3\n        /* \"#utility.yul\":13040:13113   */\n      tag_345\n      jump\t// in\n    tag_424:\n        /* \"#utility.yul\":13032:13113   */\n      swap2\n      pop\n        /* \"#utility.yul\":12886:13124   */\n      pop\n        /* \"#utility.yul\":13210:13214   */\n      0x60\n        /* \"#utility.yul\":13203:13208   */\n      dup4\n        /* \"#utility.yul\":13199:13215   */\n      add\n        /* \"#utility.yul\":13193:13216   */\n      mload\n        /* \"#utility.yul\":13229:13292   */\n      tag_425\n        /* \"#utility.yul\":13286:13290   */\n      0x60\n        /* \"#utility.yul\":13281:13284   */\n      dup7\n        /* \"#utility.yul\":13277:13291   */\n      add\n        /* \"#utility.yul\":13263:13275   */\n      dup3\n        /* \"#utility.yul\":13229:13292   */\n      tag_415\n      jump\t// in\n    tag_425:\n        /* \"#utility.yul\":13134:13302   */\n      pop\n        /* \"#utility.yul\":13397:13401   */\n      0x80\n        /* \"#utility.yul\":13390:13395   */\n      dup4\n        /* \"#utility.yul\":13386:13402   */\n      add\n        /* \"#utility.yul\":13380:13403   */\n      mload\n        /* \"#utility.yul\":13416:13479   */\n      tag_426\n        /* \"#utility.yul\":13473:13477   */\n      0x80\n        /* \"#utility.yul\":13468:13471   */\n      dup7\n        /* \"#utility.yul\":13464:13478   */\n      add\n        /* \"#utility.yul\":13450:13462   */\n      dup3\n        /* \"#utility.yul\":13416:13479   */\n      tag_415\n      jump\t// in\n    tag_426:\n        /* \"#utility.yul\":13312:13489   */\n      pop\n        /* \"#utility.yul\":13580:13584   */\n      0xa0\n        /* \"#utility.yul\":13573:13578   */\n      dup4\n        /* \"#utility.yul\":13569:13585   */\n      add\n        /* \"#utility.yul\":13563:13586   */\n      mload\n        /* \"#utility.yul\":13599:13662   */\n      tag_427\n        /* \"#utility.yul\":13656:13660   */\n      0xa0\n        /* \"#utility.yul\":13651:13654   */\n      dup7\n        /* \"#utility.yul\":13647:13661   */\n      add\n        /* \"#utility.yul\":13633:13645   */\n      dup3\n        /* \"#utility.yul\":13599:13662   */\n      tag_415\n      jump\t// in\n    tag_427:\n        /* \"#utility.yul\":13499:13672   */\n      pop\n        /* \"#utility.yul\":13764:13768   */\n      0xc0\n        /* \"#utility.yul\":13757:13762   */\n      dup4\n        /* \"#utility.yul\":13753:13769   */\n      add\n        /* \"#utility.yul\":13747:13770   */\n      mload\n        /* \"#utility.yul\":13783:13844   */\n      tag_428\n        /* \"#utility.yul\":13838:13842   */\n      0xc0\n        /* \"#utility.yul\":13833:13836   */\n      dup7\n        /* \"#utility.yul\":13829:13843   */\n      add\n        /* \"#utility.yul\":13815:13827   */\n      dup3\n        /* \"#utility.yul\":13783:13844   */\n      tag_333\n      jump\t// in\n    tag_428:\n        /* \"#utility.yul\":13682:13854   */\n      pop\n        /* \"#utility.yul\":13871:13875   */\n      dup1\n        /* \"#utility.yul\":13864:13875   */\n      swap2\n      pop\n        /* \"#utility.yul\":12473:13881   */\n      pop\n        /* \"#utility.yul\":12323:13881   */\n      swap3\n      swap2\n      pop\n      pop\n      jump\t// out\n        /* \"#utility.yul\":13979:15538   */\n    tag_429:\n        /* \"#utility.yul\":14128:14131   */\n      0x00\n        /* \"#utility.yul\":14164:14168   */\n      0xe0\n        /* \"#utility.yul\":14159:14162   */\n      dup4\n        /* \"#utility.yul\":14155:14169   */\n      add\n        /* \"#utility.yul\":14261:14265   */\n      0x00\n        /* \"#utility.yul\":14254:14259   */\n      dup4\n        /* \"#utility.yul\":14250:14266   */\n      add\n        /* \"#utility.yul\":14244:14267   */\n      mload\n        /* \"#utility.yul\":14280:14343   */\n      tag_431\n        /* \"#utility.yul\":14337:14341   */\n      0x00\n        /* \"#utility.yul\":14332:14335   */\n      dup7\n        /* \"#utility.yul\":14328:14342   */\n      add\n        /* \"#utility.yul\":14314:14326   */\n      dup3\n        /* \"#utility.yul\":14280:14343   */\n      tag_415\n      jump\t// in\n    tag_431:\n        /* \"#utility.yul\":14179:14353   */\n      pop\n        /* \"#utility.yul\":14443:14447   */\n      0x20\n        /* \"#utility.yul\":14436:14441   */\n      dup4\n        /* \"#utility.yul\":14432:14448   */\n      add\n        /* \"#utility.yul\":14426:14449   */\n      mload\n        /* \"#utility.yul\":14462:14525   */\n      tag_432\n        /* \"#utility.yul\":14519:14523   */\n      0x20\n        /* \"#utility.yul\":14514:14517   */\n      dup7\n        /* \"#utility.yul\":14510:14524   */\n      add\n        /* \"#utility.yul\":14496:14508   */\n      dup3\n        /* \"#utility.yul\":14462:14525   */\n      tag_415\n      jump\t// in\n    tag_432:\n        /* \"#utility.yul\":14363:14535   */\n      pop\n        /* \"#utility.yul\":14628:14632   */\n      0x40\n        /* \"#utility.yul\":14621:14626   */\n      dup4\n        /* \"#utility.yul\":14617:14633   */\n      add\n        /* \"#utility.yul\":14611:14634   */\n      mload\n        /* \"#utility.yul\":14647:14710   */\n      tag_433\n        /* \"#utility.yul\":14704:14708   */\n      0x40\n        /* \"#utility.yul\":14699:14702   */\n      dup7\n        /* \"#utility.yul\":14695:14709   */\n      add\n        /* \"#utility.yul\":14681:14693   */\n      dup3\n        /* \"#utility.yul\":14647:14710   */\n      tag_318\n      jump\t// in\n    tag_433:\n        /* \"#utility.yul\":14545:14720   */\n      pop\n        /* \"#utility.yul\":14805:14809   */\n      0x60\n        /* \"#utility.yul\":14798:14803   */\n      dup4\n        /* \"#utility.yul\":14794:14810   */\n      add\n        /* \"#utility.yul\":14788:14811   */\n      mload\n        /* \"#utility.yul\":14858:14861   */\n      dup5\n        /* \"#utility.yul\":14852:14856   */\n      dup3\n        /* \"#utility.yul\":14848:14862   */\n      sub\n        /* \"#utility.yul\":14841:14845   */\n      0x60\n        /* \"#utility.yul\":14836:14839   */\n      dup7\n        /* \"#utility.yul\":14832:14846   */\n      add\n        /* \"#utility.yul\":14825:14863   */\n      mstore\n        /* \"#utility.yul\":14884:14957   */\n      tag_434\n        /* \"#utility.yul\":14952:14956   */\n      dup3\n        /* \"#utility.yul\":14938:14950   */\n      dup3\n        /* \"#utility.yul\":14884:14957   */\n      tag_345\n      jump\t// in\n    tag_434:\n        /* \"#utility.yul\":14876:14957   */\n      swap2\n      pop\n        /* \"#utility.yul\":14730:14968   */\n      pop\n        /* \"#utility.yul\":15061:15065   */\n      0x80\n        /* \"#utility.yul\":15054:15059   */\n      dup4\n        /* \"#utility.yul\":15050:15066   */\n      add\n        /* \"#utility.yul\":15044:15067   */\n      mload\n        /* \"#utility.yul\":15080:15143   */\n      tag_435\n        /* \"#utility.yul\":15137:15141   */\n      0x80\n        /* \"#utility.yul\":15132:15135   */\n      dup7\n        /* \"#utility.yul\":15128:15142   */\n      add\n        /* \"#utility.yul\":15114:15126   */\n      dup3\n        /* \"#utility.yul\":15080:15143   */\n      tag_415\n      jump\t// in\n    tag_435:\n        /* \"#utility.yul\":14978:15153   */\n      pop\n        /* \"#utility.yul\":15238:15242   */\n      0xa0\n        /* \"#utility.yul\":15231:15236   */\n      dup4\n        /* \"#utility.yul\":15227:15243   */\n      add\n        /* \"#utility.yul\":15221:15244   */\n      mload\n        /* \"#utility.yul\":15257:15320   */\n      tag_436\n        /* \"#utility.yul\":15314:15318   */\n      0xa0\n        /* \"#utility.yul\":15309:15312   */\n      dup7\n        /* \"#utility.yul\":15305:15319   */\n      add\n        /* \"#utility.yul\":15291:15303   */\n      dup3\n        /* \"#utility.yul\":15257:15320   */\n      tag_415\n      jump\t// in\n    tag_436:\n        /* \"#utility.yul\":15163:15330   */\n      pop\n        /* \"#utility.yul\":15421:15425   */\n      0xc0\n        /* \"#utility.yul\":15414:15419   */\n      dup4\n        /* \"#utility.yul\":15410:15426   */\n      add\n        /* \"#utility.yul\":15404:15427   */\n      mload\n        /* \"#utility.yul\":15440:15501   */\n      tag_437\n        /* \"#utility.yul\":15495:15499   */\n      0xc0\n        /* \"#utility.yul\":15490:15493   */\n      dup7\n        /* \"#utility.yul\":15486:15500   */\n      add\n        /* \"#utility.yul\":15472:15484   */\n      dup3\n        /* \"#utility.yul\":15440:15501   */\n      tag_333\n      jump\t// in\n    tag_437:\n        /* \"#utility.yul\":15340:15511   */\n      pop\n        /* \"#utility.yul\":15528:15532   */\n      dup1\n        /* \"#utility.yul\":15521:15532   */\n      swap2\n      pop\n        /* \"#utility.yul\":14133:15538   */\n      pop\n        /* \"#utility.yul\":13979:15538   */\n      swap3\n      swap2\n      pop\n      pop\n      jump\t// out\n        /* \"#utility.yul\":15544:15652   */\n    tag_415:\n        /* \"#utility.yul\":15621:15645   */\n      tag_439\n        /* \"#utility.yul\":15639:15644   */\n      dup2\n        /* \"#utility.yul\":15621:15645   */\n      tag_440\n      jump\t// in\n    tag_439:\n        /* \"#utility.yul\":15616:15619   */\n      dup3\n        /* \"#utility.yul\":15609:15646   */\n      mstore\n        /* \"#utility.yul\":15544:15652   */\n      pop\n      pop\n      jump\t// out\n        /* \"#utility.yul\":15658:15776   */\n    tag_441:\n        /* \"#utility.yul\":15745:15769   */\n      tag_443\n        /* \"#utility.yul\":15763:15768   */\n      dup2\n        /* \"#utility.yul\":15745:15769   */\n      tag_440\n      jump\t// in\n    tag_443:\n        /* \"#utility.yul\":15740:15743   */\n      dup3\n        /* \"#utility.yul\":15733:15770   */\n      mstore\n        /* \"#utility.yul\":15658:15776   */\n      pop\n      pop\n      jump\t// out\n        /* \"#utility.yul\":15782:16077   */\n    tag_195:\n        /* \"#utility.yul\":15924:15927   */\n      0x00\n        /* \"#utility.yul\":15946:16051   */\n      tag_445\n        /* \"#utility.yul\":16047:16050   */\n      dup3\n        /* \"#utility.yul\":16038:16044   */\n      dup5\n        /* \"#utility.yul\":16030:16036   */\n      dup7\n        /* \"#utility.yul\":15946:16051   */\n      tag_340\n      jump\t// in\n    tag_445:\n        /* \"#utility.yul\":15939:16051   */\n      swap2\n      pop\n        /* \"#utility.yul\":16068:16071   */\n      dup2\n        /* \"#utility.yul\":16061:16071   */\n      swap1\n      pop\n        /* \"#utility.yul\":15782:16077   */\n      swap4\n      swap3\n      pop\n      pop\n      pop\n      jump\t// out\n        /* \"#utility.yul\":16083:16358   */\n    tag_141:\n        /* \"#utility.yul\":16215:16218   */\n      0x00\n        /* \"#utility.yul\":16237:16332   */\n      tag_447\n        /* \"#utility.yul\":16328:16331   */\n      dup3\n        /* \"#utility.yul\":16319:16325   */\n      dup5\n        /* \"#utility.yul\":16237:16332   */\n      tag_362\n      jump\t// in\n    tag_447:\n        /* \"#utility.yul\":16230:16332   */\n      swap2\n      pop\n        /* \"#utility.yul\":16349:16352   */\n      dup2\n        /* \"#utility.yul\":16342:16352   */\n      swap1\n      pop\n        /* \"#utility.yul\":16083:16358   */\n      swap3\n      swap2\n      pop\n      pop\n      jump\t// out\n        /* \"#utility.yul\":16364:16586   */\n    tag_112:\n        /* \"#utility.yul\":16457:16461   */\n      0x00\n        /* \"#utility.yul\":16495:16497   */\n      0x20\n        /* \"#utility.yul\":16484:16493   */\n      dup3\n        /* \"#utility.yul\":16480:16498   */\n      add\n        /* \"#utility.yul\":16472:16498   */\n      swap1\n      pop\n        /* \"#utility.yul\":16508:16579   */\n      tag_449\n        /* \"#utility.yul\":16576:16577   */\n      0x00\n        /* \"#utility.yul\":16565:16574   */\n      dup4\n        /* \"#utility.yul\":16561:16578   */\n      add\n        /* \"#utility.yul\":16552:16558   */\n      dup5\n        /* \"#utility.yul\":16508:16579   */\n      tag_322\n      jump\t// in\n    tag_449:\n        /* \"#utility.yul\":16364:16586   */\n      swap3\n      swap2\n      pop\n      pop\n      jump\t// out\n        /* \"#utility.yul\":16592:16802   */\n    tag_80:\n        /* \"#utility.yul\":16679:16683   */\n      0x00\n        /* \"#utility.yul\":16717:16719   */\n      0x20\n        /* \"#utility.yul\":16706:16715   */\n      dup3\n        /* \"#utility.yul\":16702:16720   */\n      add\n        /* \"#utility.yul\":16694:16720   */\n      swap1\n      pop\n        /* \"#utility.yul\":16730:16795   */\n      tag_451\n        /* \"#utility.yul\":16792:16793   */\n      0x00\n        /* \"#utility.yul\":16781:16790   */\n      dup4\n        /* \"#utility.yul\":16777:16794   */\n      add\n        /* \"#utility.yul\":16768:16774   */\n      dup5\n        /* \"#utility.yul\":16730:16795   */\n      tag_325\n      jump\t// in\n    tag_451:\n        /* \"#utility.yul\":16592:16802   */\n      swap3\n      swap2\n      pop\n      pop\n      jump\t// out\n        /* \"#utility.yul\":16808:17066   */\n    tag_95:\n        /* \"#utility.yul\":16919:16923   */\n      0x00\n        /* \"#utility.yul\":16957:16959   */\n      0x20\n        /* \"#utility.yul\":16946:16955   */\n      dup3\n        /* \"#utility.yul\":16942:16960   */\n      add\n        /* \"#utility.yul\":16934:16960   */\n      swap1\n      pop\n        /* \"#utility.yul\":16970:17059   */\n      tag_453\n        /* \"#utility.yul\":17056:17057   */\n      0x00\n        /* \"#utility.yul\":17045:17054   */\n      dup4\n        /* \"#utility.yul\":17041:17058   */\n      add\n        /* \"#utility.yul\":17032:17038   */\n      dup5\n        /* \"#utility.yul\":16970:17059   */\n      tag_329\n      jump\t// in\n    tag_453:\n        /* \"#utility.yul\":16808:17066   */\n      swap3\n      swap2\n      pop\n      pop\n      jump\t// out\n        /* \"#utility.yul\":17072:17605   */\n    tag_40:\n        /* \"#utility.yul\":17241:17245   */\n      0x00\n        /* \"#utility.yul\":17279:17281   */\n      0x60\n        /* \"#utility.yul\":17268:17277   */\n      dup3\n        /* \"#utility.yul\":17264:17282   */\n      add\n        /* \"#utility.yul\":17256:17282   */\n      swap1\n      pop\n        /* \"#utility.yul\":17328:17337   */\n      dup2\n        /* \"#utility.yul\":17322:17326   */\n      dup2\n        /* \"#utility.yul\":17318:17338   */\n      sub\n        /* \"#utility.yul\":17314:17315   */\n      0x00\n        /* \"#utility.yul\":17303:17312   */\n      dup4\n        /* \"#utility.yul\":17299:17316   */\n      add\n        /* \"#utility.yul\":17292:17339   */\n      mstore\n        /* \"#utility.yul\":17356:17434   */\n      tag_455\n        /* \"#utility.yul\":17429:17433   */\n      dup2\n        /* \"#utility.yul\":17420:17426   */\n      dup7\n        /* \"#utility.yul\":17356:17434   */\n      tag_355\n      jump\t// in\n    tag_455:\n        /* \"#utility.yul\":17348:17434   */\n      swap1\n      pop\n        /* \"#utility.yul\":17444:17516   */\n      tag_456\n        /* \"#utility.yul\":17512:17514   */\n      0x20\n        /* \"#utility.yul\":17501:17510   */\n      dup4\n        /* \"#utility.yul\":17497:17515   */\n      add\n        /* \"#utility.yul\":17488:17494   */\n      dup6\n        /* \"#utility.yul\":17444:17516   */\n      tag_441\n      jump\t// in\n    tag_456:\n        /* \"#utility.yul\":17526:17598   */\n      tag_457\n        /* \"#utility.yul\":17594:17596   */\n      0x40\n        /* \"#utility.yul\":17583:17592   */\n      dup4\n        /* \"#utility.yul\":17579:17597   */\n      add\n        /* \"#utility.yul\":17570:17576   */\n      dup5\n        /* \"#utility.yul\":17526:17598   */\n      tag_441\n      jump\t// in\n    tag_457:\n        /* \"#utility.yul\":17072:17605   */\n      swap5\n      swap4\n      pop\n      pop\n      pop\n      pop\n      jump\t// out\n        /* \"#utility.yul\":17611:18030   */\n    tag_122:\n        /* \"#utility.yul\":17777:17781   */\n      0x00\n        /* \"#utility.yul\":17815:17817   */\n      0x20\n        /* \"#utility.yul\":17804:17813   */\n      dup3\n        /* \"#utility.yul\":17800:17818   */\n      add\n        /* \"#utility.yul\":17792:17818   */\n      swap1\n      pop\n        /* \"#utility.yul\":17864:17873   */\n      dup2\n        /* \"#utility.yul\":17858:17862   */\n      dup2\n        /* \"#utility.yul\":17854:17874   */\n      sub\n        /* \"#utility.yul\":17850:17851   */\n      0x00\n        /* \"#utility.yul\":17839:17848   */\n      dup4\n        /* \"#utility.yul\":17835:17852   */\n      add\n        /* \"#utility.yul\":17828:17875   */\n      mstore\n        /* \"#utility.yul\":17892:18023   */\n      tag_459\n        /* \"#utility.yul\":18018:18022   */\n      dup2\n        /* \"#utility.yul\":17892:18023   */\n      tag_367\n      jump\t// in\n    tag_459:\n        /* \"#utility.yul\":17884:18023   */\n      swap1\n      pop\n        /* \"#utility.yul\":17611:18030   */\n      swap2\n      swap1\n      pop\n      jump\t// out\n        /* \"#utility.yul\":18036:18455   */\n    tag_182:\n        /* \"#utility.yul\":18202:18206   */\n      0x00\n        /* \"#utility.yul\":18240:18242   */\n      0x20\n        /* \"#utility.yul\":18229:18238   */\n      dup3\n        /* \"#utility.yul\":18225:18243   */\n      add\n        /* \"#utility.yul\":18217:18243   */\n      swap1\n      pop\n        /* \"#utility.yul\":18289:18298   */\n      dup2\n        /* \"#utility.yul\":18283:18287   */\n      dup2\n        /* \"#utility.yul\":18279:18299   */\n      sub\n        /* \"#utility.yul\":18275:18276   */\n      0x00\n        /* \"#utility.yul\":18264:18273   */\n      dup4\n        /* \"#utility.yul\":18260:18277   */\n      add\n        /* \"#utility.yul\":18253:18300   */\n      mstore\n        /* \"#utility.yul\":18317:18448   */\n      tag_461\n        /* \"#utility.yul\":18443:18447   */\n      dup2\n        /* \"#utility.yul\":18317:18448   */\n      tag_372\n      jump\t// in\n    tag_461:\n        /* \"#utility.yul\":18309:18448   */\n      swap1\n      pop\n        /* \"#utility.yul\":18036:18455   */\n      swap2\n      swap1\n      pop\n      jump\t// out\n        /* \"#utility.yul\":18461:18880   */\n    tag_198:\n        /* \"#utility.yul\":18627:18631   */\n      0x00\n        /* \"#utility.yul\":18665:18667   */\n      0x20\n        /* \"#utility.yul\":18654:18663   */\n      dup3\n        /* \"#utility.yul\":18650:18668   */\n      add\n        /* \"#utility.yul\":18642:18668   */\n      swap1\n      pop\n        /* \"#utility.yul\":18714:18723   */\n      dup2\n        /* \"#utility.yul\":18708:18712   */\n      dup2\n        /* \"#utility.yul\":18704:18724   */\n      sub\n        /* \"#utility.yul\":18700:18701   */\n      0x00\n        /* \"#utility.yul\":18689:18698   */\n      dup4\n        /* \"#utility.yul\":18685:18702   */\n      add\n        /* \"#utility.yul\":18678:18725   */\n      mstore\n        /* \"#utility.yul\":18742:18873   */\n      tag_463\n        /* \"#utility.yul\":18868:18872   */\n      dup2\n        /* \"#utility.yul\":18742:18873   */\n      tag_377\n      jump\t// in\n    tag_463:\n        /* \"#utility.yul\":18734:18873   */\n      swap1\n      pop\n        /* \"#utility.yul\":18461:18880   */\n      swap2\n      swap1\n      pop\n      jump\t// out\n        /* \"#utility.yul\":18886:19305   */\n    tag_133:\n        /* \"#utility.yul\":19052:19056   */\n      0x00\n        /* \"#utility.yul\":19090:19092   */\n      0x20\n        /* \"#utility.yul\":19079:19088   */\n      dup3\n        /* \"#utility.yul\":19075:19093   */\n      add\n        /* \"#utility.yul\":19067:19093   */\n      swap1\n      pop\n        /* \"#utility.yul\":19139:19148   */\n      dup2\n        /* \"#utility.yul\":19133:19137   */\n      dup2\n        /* \"#utility.yul\":19129:19149   */\n      sub\n        /* \"#utility.yul\":19125:19126   */\n      0x00\n        /* \"#utility.yul\":19114:19123   */\n      dup4\n        /* \"#utility.yul\":19110:19127   */\n      add\n        /* \"#utility.yul\":19103:19150   */\n      mstore\n        /* \"#utility.yul\":19167:19298   */\n      tag_465\n        /* \"#utility.yul\":19293:19297   */\n      dup2\n        /* \"#utility.yul\":19167:19298   */\n      tag_382\n      jump\t// in\n    tag_465:\n        /* \"#utility.yul\":19159:19298   */\n      swap1\n      pop\n        /* \"#utility.yul\":18886:19305   */\n      swap2\n      swap1\n      pop\n      jump\t// out\n        /* \"#utility.yul\":19311:19730   */\n    tag_127:\n        /* \"#utility.yul\":19477:19481   */\n      0x00\n        /* \"#utility.yul\":19515:19517   */\n      0x20\n        /* \"#utility.yul\":19504:19513   */\n      dup3\n        /* \"#utility.yul\":19500:19518   */\n      add\n        /* \"#utility.yul\":19492:19518   */\n      swap1\n      pop\n        /* \"#utility.yul\":19564:19573   */\n      dup2\n        /* \"#utility.yul\":19558:19562   */\n      dup2\n        /* \"#utility.yul\":19554:19574   */\n      sub\n        /* \"#utility.yul\":19550:19551   */\n      0x00\n        /* \"#utility.yul\":19539:19548   */\n      dup4\n        /* \"#utility.yul\":19535:19552   */\n      add\n        /* \"#utility.yul\":19528:19575   */\n      mstore\n        /* \"#utility.yul\":19592:19723   */\n      tag_467\n        /* \"#utility.yul\":19718:19722   */\n      dup2\n        /* \"#utility.yul\":19592:19723   */\n      tag_387\n      jump\t// in\n    tag_467:\n        /* \"#utility.yul\":19584:19723   */\n      swap1\n      pop\n        /* \"#utility.yul\":19311:19730   */\n      swap2\n      swap1\n      pop\n      jump\t// out\n        /* \"#utility.yul\":19736:20155   */\n    tag_205:\n        /* \"#utility.yul\":19902:19906   */\n      0x00\n        /* \"#utility.yul\":19940:19942   */\n      0x20\n        /* \"#utility.yul\":19929:19938   */\n      dup3\n        /* \"#utility.yul\":19925:19943   */\n      add\n        /* \"#utility.yul\":19917:19943   */\n      swap1\n      pop\n        /* \"#utility.yul\":19989:19998   */\n      dup2\n        /* \"#utility.yul\":19983:19987   */\n      dup2\n        /* \"#utility.yul\":19979:19999   */\n      sub\n        /* \"#utility.yul\":19975:19976   */\n      0x00\n        /* \"#utility.yul\":19964:19973   */\n      dup4\n        /* \"#utility.yul\":19960:19977   */\n      add\n        /* \"#utility.yul\":19953:20000   */\n      mstore\n        /* \"#utility.yul\":20017:20148   */\n      tag_469\n        /* \"#utility.yul\":20143:20147   */\n      dup2\n        /* \"#utility.yul\":20017:20148   */\n      tag_392\n      jump\t// in\n    tag_469:\n        /* \"#utility.yul\":20009:20148   */\n      swap1\n      pop\n        /* \"#utility.yul\":19736:20155   */\n      swap2\n      swap1\n      pop\n      jump\t// out\n        /* \"#utility.yul\":20161:20580   */\n    tag_179:\n        /* \"#utility.yul\":20327:20331   */\n      0x00\n        /* \"#utility.yul\":20365:20367   */\n      0x20\n        /* \"#utility.yul\":20354:20363   */\n      dup3\n        /* \"#utility.yul\":20350:20368   */\n      add\n        /* \"#utility.yul\":20342:20368   */\n      swap1\n      pop\n        /* \"#utility.yul\":20414:20423   */\n      dup2\n        /* \"#utility.yul\":20408:20412   */\n      dup2\n        /* \"#utility.yul\":20404:20424   */\n      sub\n        /* \"#utility.yul\":20400:20401   */\n      0x00\n        /* \"#utility.yul\":20389:20398   */\n      dup4\n        /* \"#utility.yul\":20385:20402   */\n      add\n        /* \"#utility.yul\":20378:20425   */\n      mstore\n        /* \"#utility.yul\":20442:20573   */\n      tag_471\n        /* \"#utility.yul\":20568:20572   */\n      dup2\n        /* \"#utility.yul\":20442:20573   */\n      tag_397\n      jump\t// in\n    tag_471:\n        /* \"#utility.yul\":20434:20573   */\n      swap1\n      pop\n        /* \"#utility.yul\":20161:20580   */\n      swap2\n      swap1\n      pop\n      jump\t// out\n        /* \"#utility.yul\":20586:21005   */\n    tag_174:\n        /* \"#utility.yul\":20752:20756   */\n      0x00\n        /* \"#utility.yul\":20790:20792   */\n      0x20\n        /* \"#utility.yul\":20779:20788   */\n      dup3\n        /* \"#utility.yul\":20775:20793   */\n      add\n        /* \"#utility.yul\":20767:20793   */\n      swap1\n      pop\n        /* \"#utility.yul\":20839:20848   */\n      dup2\n        /* \"#utility.yul\":20833:20837   */\n      dup2\n        /* \"#utility.yul\":20829:20849   */\n      sub\n        /* \"#utility.yul\":20825:20826   */\n      0x00\n        /* \"#utility.yul\":20814:20823   */\n      dup4\n        /* \"#utility.yul\":20810:20827   */\n      add\n        /* \"#utility.yul\":20803:20850   */\n      mstore\n        /* \"#utility.yul\":20867:20998   */\n      tag_473\n        /* \"#utility.yul\":20993:20997   */\n      dup2\n        /* \"#utility.yul\":20867:20998   */\n      tag_402\n      jump\t// in\n    tag_473:\n        /* \"#utility.yul\":20859:20998   */\n      swap1\n      pop\n        /* \"#utility.yul\":20586:21005   */\n      swap2\n      swap1\n      pop\n      jump\t// out\n        /* \"#utility.yul\":21011:21430   */\n    tag_130:\n        /* \"#utility.yul\":21177:21181   */\n      0x00\n        /* \"#utility.yul\":21215:21217   */\n      0x20\n        /* \"#utility.yul\":21204:21213   */\n      dup3\n        /* \"#utility.yul\":21200:21218   */\n      add\n        /* \"#utility.yul\":21192:21218   */\n      swap1\n      pop\n        /* \"#utility.yul\":21264:21273   */\n      dup2\n        /* \"#utility.yul\":21258:21262   */\n      dup2\n        /* \"#utility.yul\":21254:21274   */\n      sub\n        /* \"#utility.yul\":21250:21251   */\n      0x00\n        /* \"#utility.yul\":21239:21248   */\n      dup4\n        /* \"#utility.yul\":21235:21252   */\n      add\n        /* \"#utility.yul\":21228:21275   */\n      mstore\n        /* \"#utility.yul\":21292:21423   */\n      tag_475\n        /* \"#utility.yul\":21418:21422   */\n      dup2\n        /* \"#utility.yul\":21292:21423   */\n      tag_407\n      jump\t// in\n    tag_475:\n        /* \"#utility.yul\":21284:21423   */\n      swap1\n      pop\n        /* \"#utility.yul\":21011:21430   */\n      swap2\n      swap1\n      pop\n      jump\t// out\n        /* \"#utility.yul\":21436:21811   */\n    tag_58:\n        /* \"#utility.yul\":21605:21609   */\n      0x00\n        /* \"#utility.yul\":21643:21646   */\n      0xa0\n        /* \"#utility.yul\":21632:21641   */\n      dup3\n        /* \"#utility.yul\":21628:21647   */\n      add\n        /* \"#utility.yul\":21620:21647   */\n      swap1\n      pop\n        /* \"#utility.yul\":21657:21804   */\n      tag_477\n        /* \"#utility.yul\":21801:21802   */\n      0x00\n        /* \"#utility.yul\":21790:21799   */\n      dup4\n        /* \"#utility.yul\":21786:21803   */\n      add\n        /* \"#utility.yul\":21777:21783   */\n      dup5\n        /* \"#utility.yul\":21657:21804   */\n      tag_412\n      jump\t// in\n    tag_477:\n        /* \"#utility.yul\":21436:21811   */\n      swap3\n      swap2\n      pop\n      pop\n      jump\t// out\n        /* \"#utility.yul\":21817:22242   */\n    tag_73:\n        /* \"#utility.yul\":21986:21990   */\n      0x00\n        /* \"#utility.yul\":22024:22026   */\n      0x20\n        /* \"#utility.yul\":22013:22022   */\n      dup3\n        /* \"#utility.yul\":22009:22027   */\n      add\n        /* \"#utility.yul\":22001:22027   */\n      swap1\n      pop\n        /* \"#utility.yul\":22073:22082   */\n      dup2\n        /* \"#utility.yul\":22067:22071   */\n      dup2\n        /* \"#utility.yul\":22063:22083   */\n      sub\n        /* \"#utility.yul\":22059:22060   */\n      0x00\n        /* \"#utility.yul\":22048:22057   */\n      dup4\n        /* \"#utility.yul\":22044:22061   */\n      add\n        /* \"#utility.yul\":22037:22084   */\n      mstore\n        /* \"#utility.yul\":22101:22235   */\n      tag_479\n        /* \"#utility.yul\":22230:22234   */\n      dup2\n        /* \"#utility.yul\":22221:22227   */\n      dup5\n        /* \"#utility.yul\":22101:22235   */\n      tag_420\n      jump\t// in\n    tag_479:\n        /* \"#utility.yul\":22093:22235   */\n      swap1\n      pop\n        /* \"#utility.yul\":21817:22242   */\n      swap3\n      swap2\n      pop\n      pop\n      jump\t// out\n        /* \"#utility.yul\":22248:22681   */\n    tag_33:\n        /* \"#utility.yul\":22421:22425   */\n      0x00\n        /* \"#utility.yul\":22459:22461   */\n      0x20\n        /* \"#utility.yul\":22448:22457   */\n      dup3\n        /* \"#utility.yul\":22444:22462   */\n      add\n        /* \"#utility.yul\":22436:22462   */\n      swap1\n      pop\n        /* \"#utility.yul\":22508:22517   */\n      dup2\n        /* \"#utility.yul\":22502:22506   */\n      dup2\n        /* \"#utility.yul\":22498:22518   */\n      sub\n        /* \"#utility.yul\":22494:22495   */\n      0x00\n        /* \"#utility.yul\":22483:22492   */\n      dup4\n        /* \"#utility.yul\":22479:22496   */\n      add\n        /* \"#utility.yul\":22472:22519   */\n      mstore\n        /* \"#utility.yul\":22536:22674   */\n      tag_481\n        /* \"#utility.yul\":22669:22673   */\n      dup2\n        /* \"#utility.yul\":22660:22666   */\n      dup5\n        /* \"#utility.yul\":22536:22674   */\n      tag_429\n      jump\t// in\n    tag_481:\n        /* \"#utility.yul\":22528:22674   */\n      swap1\n      pop\n        /* \"#utility.yul\":22248:22681   */\n      swap3\n      swap2\n      pop\n      pop\n      jump\t// out\n        /* \"#utility.yul\":22687:22909   */\n    tag_26:\n        /* \"#utility.yul\":22780:22784   */\n      0x00\n        /* \"#utility.yul\":22818:22820   */\n      0x20\n        /* \"#utility.yul\":22807:22816   */\n      dup3\n        /* \"#utility.yul\":22803:22821   */\n      add\n        /* \"#utility.yul\":22795:22821   */\n      swap1\n      pop\n        /* \"#utility.yul\":22831:22902   */\n      tag_483\n        /* \"#utility.yul\":22899:22900   */\n      0x00\n        /* \"#utility.yul\":22888:22897   */\n      dup4\n        /* \"#utility.yul\":22884:22901   */\n      add\n        /* \"#utility.yul\":22875:22881   */\n      dup5\n        /* \"#utility.yul\":22831:22902   */\n      tag_441\n      jump\t// in\n    tag_483:\n        /* \"#utility.yul\":22687:22909   */\n      swap3\n      swap2\n      pop\n      pop\n      jump\t// out\n        /* \"#utility.yul\":22915:23888   */\n    tag_107:\n        /* \"#utility.yul\":23194:23198   */\n      0x00\n        /* \"#utility.yul\":23232:23235   */\n      0xe0\n        /* \"#utility.yul\":23221:23230   */\n      dup3\n        /* \"#utility.yul\":23217:23236   */\n      add\n        /* \"#utility.yul\":23209:23236   */\n      swap1\n      pop\n        /* \"#utility.yul\":23246:23317   */\n      tag_485\n        /* \"#utility.yul\":23314:23315   */\n      0x00\n        /* \"#utility.yul\":23303:23312   */\n      dup4\n        /* \"#utility.yul\":23299:23316   */\n      add\n        /* \"#utility.yul\":23290:23296   */\n      dup11\n        /* \"#utility.yul\":23246:23317   */\n      tag_441\n      jump\t// in\n    tag_485:\n        /* \"#utility.yul\":23327:23399   */\n      tag_486\n        /* \"#utility.yul\":23395:23397   */\n      0x20\n        /* \"#utility.yul\":23384:23393   */\n      dup4\n        /* \"#utility.yul\":23380:23398   */\n      add\n        /* \"#utility.yul\":23371:23377   */\n      dup10\n        /* \"#utility.yul\":23327:23399   */\n      tag_322\n      jump\t// in\n    tag_486:\n        /* \"#utility.yul\":23446:23455   */\n      dup2\n        /* \"#utility.yul\":23440:23444   */\n      dup2\n        /* \"#utility.yul\":23436:23456   */\n      sub\n        /* \"#utility.yul\":23431:23433   */\n      0x40\n        /* \"#utility.yul\":23420:23429   */\n      dup4\n        /* \"#utility.yul\":23416:23434   */\n      add\n        /* \"#utility.yul\":23409:23457   */\n      mstore\n        /* \"#utility.yul\":23474:23552   */\n      tag_487\n        /* \"#utility.yul\":23547:23551   */\n      dup2\n        /* \"#utility.yul\":23538:23544   */\n      dup9\n        /* \"#utility.yul\":23474:23552   */\n      tag_355\n      jump\t// in\n    tag_487:\n        /* \"#utility.yul\":23466:23552   */\n      swap1\n      pop\n        /* \"#utility.yul\":23562:23634   */\n      tag_488\n        /* \"#utility.yul\":23630:23632   */\n      0x60\n        /* \"#utility.yul\":23619:23628   */\n      dup4\n        /* \"#utility.yul\":23615:23633   */\n      add\n        /* \"#utility.yul\":23606:23612   */\n      dup8\n        /* \"#utility.yul\":23562:23634   */\n      tag_441\n      jump\t// in\n    tag_488:\n        /* \"#utility.yul\":23644:23717   */\n      tag_489\n        /* \"#utility.yul\":23712:23715   */\n      0x80\n        /* \"#utility.yul\":23701:23710   */\n      dup4\n        /* \"#utility.yul\":23697:23716   */\n      add\n        /* \"#utility.yul\":23688:23694   */\n      dup7\n        /* \"#utility.yul\":23644:23717   */\n      tag_441\n      jump\t// in\n    tag_489:\n        /* \"#utility.yul\":23727:23800   */\n      tag_490\n        /* \"#utility.yul\":23795:23798   */\n      0xa0\n        /* \"#utility.yul\":23784:23793   */\n      dup4\n        /* \"#utility.yul\":23780:23799   */\n      add\n        /* \"#utility.yul\":23771:23777   */\n      dup6\n        /* \"#utility.yul\":23727:23800   */\n      tag_441\n      jump\t// in\n    tag_490:\n        /* \"#utility.yul\":23810:23881   */\n      tag_491\n        /* \"#utility.yul\":23876:23879   */\n      0xc0\n        /* \"#utility.yul\":23865:23874   */\n      dup4\n        /* \"#utility.yul\":23861:23880   */\n      add\n        /* \"#utility.yul\":23852:23858   */\n      dup5\n        /* \"#utility.yul\":23810:23881   */\n      tag_337\n      jump\t// in\n    tag_491:\n        /* \"#utility.yul\":22915:23888   */\n      swap9\n      swap8\n      pop\n      pop\n      pop\n      pop\n      pop\n      pop\n      pop\n      pop\n      jump\t// out\n        /* \"#utility.yul\":23894:24867   */\n    tag_52:\n        /* \"#utility.yul\":24173:24177   */\n      0x00\n        /* \"#utility.yul\":24211:24214   */\n      0xe0\n        /* \"#utility.yul\":24200:24209   */\n      dup3\n        /* \"#utility.yul\":24196:24215   */\n      add\n        /* \"#utility.yul\":24188:24215   */\n      swap1\n      pop\n        /* \"#utility.yul\":24225:24296   */\n      tag_493\n        /* \"#utility.yul\":24293:24294   */\n      0x00\n        /* \"#utility.yul\":24282:24291   */\n      dup4\n        /* \"#utility.yul\":24278:24295   */\n      add\n        /* \"#utility.yul\":24269:24275   */\n      dup11\n        /* \"#utility.yul\":24225:24296   */\n      tag_441\n      jump\t// in\n    tag_493:\n        /* \"#utility.yul\":24306:24378   */\n      tag_494\n        /* \"#utility.yul\":24374:24376   */\n      0x20\n        /* \"#utility.yul\":24363:24372   */\n      dup4\n        /* \"#utility.yul\":24359:24377   */\n      add\n        /* \"#utility.yul\":24350:24356   */\n      dup10\n        /* \"#utility.yul\":24306:24378   */\n      tag_441\n      jump\t// in\n    tag_494:\n        /* \"#utility.yul\":24388:24460   */\n      tag_495\n        /* \"#utility.yul\":24456:24458   */\n      0x40\n        /* \"#utility.yul\":24445:24454   */\n      dup4\n        /* \"#utility.yul\":24441:24459   */\n      add\n        /* \"#utility.yul\":24432:24438   */\n      dup9\n        /* \"#utility.yul\":24388:24460   */\n      tag_322\n      jump\t// in\n    tag_495:\n        /* \"#utility.yul\":24507:24516   */\n      dup2\n        /* \"#utility.yul\":24501:24505   */\n      dup2\n        /* \"#utility.yul\":24497:24517   */\n      sub\n        /* \"#utility.yul\":24492:24494   */\n      0x60\n        /* \"#utility.yul\":24481:24490   */\n      dup4\n        /* \"#utility.yul\":24477:24495   */\n      add\n        /* \"#utility.yul\":24470:24518   */\n      mstore\n        /* \"#utility.yul\":24535:24613   */\n      tag_496\n        /* \"#utility.yul\":24608:24612   */\n      dup2\n        /* \"#utility.yul\":24599:24605   */\n      dup8\n        /* \"#utility.yul\":24535:24613   */\n      tag_355\n      jump\t// in\n    tag_496:\n        /* \"#utility.yul\":24527:24613   */\n      swap1\n      pop\n        /* \"#utility.yul\":24623:24696   */\n      tag_497\n        /* \"#utility.yul\":24691:24694   */\n      0x80\n        /* \"#utility.yul\":24680:24689   */\n      dup4\n        /* \"#utility.yul\":24676:24695   */\n      add\n        /* \"#utility.yul\":24667:24673   */\n      dup7\n        /* \"#utility.yul\":24623:24696   */\n      tag_441\n      jump\t// in\n    tag_497:\n        /* \"#utility.yul\":24706:24779   */\n      tag_498\n        /* \"#utility.yul\":24774:24777   */\n      0xa0\n        /* \"#utility.yul\":24763:24772   */\n      dup4\n        /* \"#utility.yul\":24759:24778   */\n      add\n        /* \"#utility.yul\":24750:24756   */\n      dup6\n        /* \"#utility.yul\":24706:24779   */\n      tag_441\n      jump\t// in\n    tag_498:\n        /* \"#utility.yul\":24789:24860   */\n      tag_499\n        /* \"#utility.yul\":24855:24858   */\n      0xc0\n        /* \"#utility.yul\":24844:24853   */\n      dup4\n        /* \"#utility.yul\":24840:24859   */\n      add\n        /* \"#utility.yul\":24831:24837   */\n      dup5\n        /* \"#utility.yul\":24789:24860   */\n      tag_337\n      jump\t// in\n    tag_499:\n        /* \"#utility.yul\":23894:24867   */\n      swap9\n      swap8\n      pop\n      pop\n      pop\n      pop\n      pop\n      pop\n      pop\n      pop\n      jump\t// out\n        /* \"#utility.yul\":24873:25537   */\n    tag_90:\n        /* \"#utility.yul\":25078:25082   */\n      0x00\n        /* \"#utility.yul\":25116:25119   */\n      0xa0\n        /* \"#utility.yul\":25105:25114   */\n      dup3\n        /* \"#utility.yul\":25101:25120   */\n      add\n        /* \"#utility.yul\":25093:25120   */\n      swap1\n      pop\n        /* \"#utility.yul\":25130:25201   */\n      tag_501\n        /* \"#utility.yul\":25198:25199   */\n      0x00\n        /* \"#utility.yul\":25187:25196   */\n      dup4\n        /* \"#utility.yul\":25183:25200   */\n      add\n        /* \"#utility.yul\":25174:25180   */\n      dup9\n        /* \"#utility.yul\":25130:25201   */\n      tag_441\n      jump\t// in\n    tag_501:\n        /* \"#utility.yul\":25211:25283   */\n      tag_502\n        /* \"#utility.yul\":25279:25281   */\n      0x20\n        /* \"#utility.yul\":25268:25277   */\n      dup4\n        /* \"#utility.yul\":25264:25282   */\n      add\n        /* \"#utility.yul\":25255:25261   */\n      dup8\n        /* \"#utility.yul\":25211:25283   */\n      tag_441\n      jump\t// in\n    tag_502:\n        /* \"#utility.yul\":25293:25365   */\n      tag_503\n        /* \"#utility.yul\":25361:25363   */\n      0x40\n        /* \"#utility.yul\":25350:25359   */\n      dup4\n        /* \"#utility.yul\":25346:25364   */\n      add\n        /* \"#utility.yul\":25337:25343   */\n      dup7\n        /* \"#utility.yul\":25293:25365   */\n      tag_322\n      jump\t// in\n    tag_503:\n        /* \"#utility.yul\":25375:25447   */\n      tag_504\n        /* \"#utility.yul\":25443:25445   */\n      0x60\n        /* \"#utility.yul\":25432:25441   */\n      dup4\n        /* \"#utility.yul\":25428:25446   */\n      add\n        /* \"#utility.yul\":25419:25425   */\n      dup6\n        /* \"#utility.yul\":25375:25447   */\n      tag_441\n      jump\t// in\n    tag_504:\n        /* \"#utility.yul\":25457:25530   */\n      tag_505\n        /* \"#utility.yul\":25525:25528   */\n      0x80\n        /* \"#utility.yul\":25514:25523   */\n      dup4\n        /* \"#utility.yul\":25510:25529   */\n      add\n        /* \"#utility.yul\":25501:25507   */\n      dup5\n        /* \"#utility.yul\":25457:25530   */\n      tag_441\n      jump\t// in\n    tag_505:\n        /* \"#utility.yul\":24873:25537   */\n      swap7\n      swap6\n      pop\n      pop\n      pop\n      pop\n      pop\n      pop\n      jump\t// out\n        /* \"#utility.yul\":25543:25672   */\n    tag_245:\n        /* \"#utility.yul\":25577:25583   */\n      0x00\n        /* \"#utility.yul\":25604:25624   */\n      tag_507\n      tag_508\n      jump\t// in\n    tag_507:\n        /* \"#utility.yul\":25594:25624   */\n      swap1\n      pop\n        /* \"#utility.yul\":25633:25666   */\n      tag_509\n        /* \"#utility.yul\":25661:25665   */\n      dup3\n        /* \"#utility.yul\":25653:25659   */\n      dup3\n        /* \"#utility.yul\":25633:25666   */\n      tag_510\n      jump\t// in\n    tag_509:\n        /* \"#utility.yul\":25543:25672   */\n      swap2\n      swap1\n      pop\n      jump\t// out\n        /* \"#utility.yul\":25678:25753   */\n    tag_508:\n        /* \"#utility.yul\":25711:25717   */\n      0x00\n        /* \"#utility.yul\":25744:25746   */\n      0x40\n        /* \"#utility.yul\":25738:25747   */\n      mload\n        /* \"#utility.yul\":25728:25747   */\n      swap1\n      pop\n        /* \"#utility.yul\":25678:25753   */\n      swap1\n      jump\t// out\n        /* \"#utility.yul\":25759:26067   */\n    tag_244:\n        /* \"#utility.yul\":25821:25825   */\n      0x00\n        /* \"#utility.yul\":25911:25929   */\n      0xffffffffffffffff\n        /* \"#utility.yul\":25903:25909   */\n      dup3\n        /* \"#utility.yul\":25900:25930   */\n      gt\n        /* \"#utility.yul\":25897:25953   */\n      iszero\n      tag_513\n      jumpi\n        /* \"#utility.yul\":25933:25951   */\n      tag_514\n      tag_515\n      jump\t// in\n    tag_514:\n        /* \"#utility.yul\":25897:25953   */\n    tag_513:\n        /* \"#utility.yul\":25971:26000   */\n      tag_516\n        /* \"#utility.yul\":25993:25999   */\n      dup3\n        /* \"#utility.yul\":25971:26000   */\n      tag_354\n      jump\t// in\n    tag_516:\n        /* \"#utility.yul\":25963:26000   */\n      swap1\n      pop\n        /* \"#utility.yul\":26055:26059   */\n      0x20\n        /* \"#utility.yul\":26049:26053   */\n      dup2\n        /* \"#utility.yul\":26045:26060   */\n      add\n        /* \"#utility.yul\":26037:26060   */\n      swap1\n      pop\n        /* \"#utility.yul\":25759:26067   */\n      swap2\n      swap1\n      pop\n      jump\t// out\n        /* \"#utility.yul\":26073:26172   */\n    tag_348:\n        /* \"#utility.yul\":26125:26131   */\n      0x00\n        /* \"#utility.yul\":26159:26164   */\n      dup2\n        /* \"#utility.yul\":26153:26165   */\n      mload\n        /* \"#utility.yul\":26143:26165   */\n      swap1\n      pop\n        /* \"#utility.yul\":26073:26172   */\n      swap2\n      swap1\n      pop\n      jump\t// out\n        /* \"#utility.yul\":26178:26337   */\n    tag_350:\n        /* \"#utility.yul\":26252:26263   */\n      0x00\n        /* \"#utility.yul\":26286:26292   */\n      dup3\n        /* \"#utility.yul\":26281:26284   */\n      dup3\n        /* \"#utility.yul\":26274:26293   */\n      mstore\n        /* \"#utility.yul\":26326:26330   */\n      0x20\n        /* \"#utility.yul\":26321:26324   */\n      dup3\n        /* \"#utility.yul\":26317:26331   */\n      add\n        /* \"#utility.yul\":26302:26331   */\n      swap1\n      pop\n        /* \"#utility.yul\":26178:26337   */\n      swap3\n      swap2\n      pop\n      pop\n      jump\t// out\n        /* \"#utility.yul\":26343:26512   */\n    tag_359:\n        /* \"#utility.yul\":26427:26438   */\n      0x00\n        /* \"#utility.yul\":26461:26467   */\n      dup3\n        /* \"#utility.yul\":26456:26459   */\n      dup3\n        /* \"#utility.yul\":26449:26468   */\n      mstore\n        /* \"#utility.yul\":26501:26505   */\n      0x20\n        /* \"#utility.yul\":26496:26499   */\n      dup3\n        /* \"#utility.yul\":26492:26506   */\n      add\n        /* \"#utility.yul\":26477:26506   */\n      swap1\n      pop\n        /* \"#utility.yul\":26343:26512   */\n      swap3\n      swap2\n      pop\n      pop\n      jump\t// out\n        /* \"#utility.yul\":26518:26666   */\n    tag_343:\n        /* \"#utility.yul\":26620:26631   */\n      0x00\n        /* \"#utility.yul\":26657:26660   */\n      dup2\n        /* \"#utility.yul\":26642:26660   */\n      swap1\n      pop\n        /* \"#utility.yul\":26518:26666   */\n      swap3\n      swap2\n      pop\n      pop\n      jump\t// out\n        /* \"#utility.yul\":26672:26977   */\n    tag_146:\n        /* \"#utility.yul\":26712:26715   */\n      0x00\n        /* \"#utility.yul\":26731:26751   */\n      tag_522\n        /* \"#utility.yul\":26749:26750   */\n      dup3\n        /* \"#utility.yul\":26731:26751   */\n      tag_440\n      jump\t// in\n    tag_522:\n        /* \"#utility.yul\":26726:26751   */\n      swap2\n      pop\n        /* \"#utility.yul\":26765:26785   */\n      tag_523\n        /* \"#utility.yul\":26783:26784   */\n      dup4\n        /* \"#utility.yul\":26765:26785   */\n      tag_440\n      jump\t// in\n    tag_523:\n        /* \"#utility.yul\":26760:26785   */\n      swap3\n      pop\n        /* \"#utility.yul\":26919:26920   */\n      dup3\n        /* \"#utility.yul\":26851:26917   */\n      0xffffffffffffffffffffffffffffffffffffffffffffffffffffffffffffffff\n        /* \"#utility.yul\":26847:26921   */\n      sub\n        /* \"#utility.yul\":26844:26845   */\n      dup3\n        /* \"#utility.yul\":26841:26922   */\n      gt\n        /* \"#utility.yul\":26838:26945   */\n      iszero\n      tag_524\n      jumpi\n        /* \"#utility.yul\":26925:26943   */\n      tag_525\n      tag_526\n      jump\t// in\n    tag_525:\n        /* \"#utility.yul\":26838:26945   */\n    tag_524:\n        /* \"#utility.yul\":26969:26970   */\n      dup3\n        /* \"#utility.yul\":26966:26967   */\n      dup3\n        /* \"#utility.yul\":26962:26971   */\n      add\n        /* \"#utility.yul\":26955:26971   */\n      swap1\n      pop\n        /* \"#utility.yul\":26672:26977   */\n      swap3\n      swap2\n      pop\n      pop\n      jump\t// out\n        /* \"#utility.yul\":26983:27168   */\n    tag_149:\n        /* \"#utility.yul\":27023:27024   */\n      0x00\n        /* \"#utility.yul\":27040:27060   */\n      tag_528\n        /* \"#utility.yul\":27058:27059   */\n      dup3\n        /* \"#utility.yul\":27040:27060   */\n      tag_440\n      jump\t// in\n    tag_528:\n        /* \"#utility.yul\":27035:27060   */\n      swap2\n      pop\n        /* \"#utility.yul\":27074:27094   */\n      tag_529\n        /* \"#utility.yul\":27092:27093   */\n      dup4\n        /* \"#utility.yul\":27074:27094   */\n      tag_440\n      jump\t// in\n    tag_529:\n        /* \"#utility.yul\":27069:27094   */\n      swap3\n      pop\n        /* \"#utility.yul\":27113:27114   */\n      dup3\n        /* \"#utility.yul\":27103:27138   */\n      tag_530\n      jumpi\n        /* \"#utility.yul\":27118:27136   */\n      tag_531\n      tag_532\n      jump\t// in\n    tag_531:\n        /* \"#utility.yul\":27103:27138   */\n    tag_530:\n        /* \"#utility.yul\":27160:27161   */\n      dup3\n        /* \"#utility.yul\":27157:27158   */\n      dup3\n        /* \"#utility.yul\":27153:27162   */\n      div\n        /* \"#utility.yul\":27148:27162   */\n      swap1\n      pop\n        /* \"#utility.yul\":26983:27168   */\n      swap3\n      swap2\n      pop\n      pop\n      jump\t// out\n        /* \"#utility.yul\":27174:27522   */\n    tag_155:\n        /* \"#utility.yul\":27214:27221   */\n      0x00\n        /* \"#utility.yul\":27237:27257   */\n      tag_534\n        /* \"#utility.yul\":27255:27256   */\n      dup3\n        /* \"#utility.yul\":27237:27257   */\n      tag_440\n      jump\t// in\n    tag_534:\n        /* \"#utility.yul\":27232:27257   */\n      swap2\n      pop\n        /* \"#utility.yul\":27271:27291   */\n      tag_535\n        /* \"#utility.yul\":27289:27290   */\n      dup4\n        /* \"#utility.yul\":27271:27291   */\n      tag_440\n      jump\t// in\n    tag_535:\n        /* \"#utility.yul\":27266:27291   */\n      swap3\n      pop\n        /* \"#utility.yul\":27459:27460   */\n      dup2\n        /* \"#utility.yul\":27391:27457   */\n      0xffffffffffffffffffffffffffffffffffffffffffffffffffffffffffffffff\n        /* \"#utility.yul\":27387:27461   */\n      div\n        /* \"#utility.yul\":27384:27385   */\n      dup4\n        /* \"#utility.yul\":27381:27462   */\n      gt\n        /* \"#utility.yul\":27376:27377   */\n      dup3\n        /* \"#utility.yul\":27369:27378   */\n      iszero\n        /* \"#utility.yul\":27362:27379   */\n      iszero\n        /* \"#utility.yul\":27358:27463   */\n      and\n        /* \"#utility.yul\":27355:27486   */\n      iszero\n      tag_536\n      jumpi\n        /* \"#utility.yul\":27466:27484   */\n      tag_537\n      tag_526\n      jump\t// in\n    tag_537:\n        /* \"#utility.yul\":27355:27486   */\n    tag_536:\n        /* \"#utility.yul\":27514:27515   */\n      dup3\n        /* \"#utility.yul\":27511:27512   */\n      dup3\n        /* \"#utility.yul\":27507:27516   */\n      mul\n        /* \"#utility.yul\":27496:27516   */\n      swap1\n      pop\n        /* \"#utility.yul\":27174:27522   */\n      swap3\n      swap2\n      pop\n      pop\n      jump\t// out\n        /* \"#utility.yul\":27528:27719   */\n    tag_143:\n        /* \"#utility.yul\":27568:27572   */\n      0x00\n        /* \"#utility.yul\":27588:27608   */\n      tag_539\n        /* \"#utility.yul\":27606:27607   */\n      dup3\n        /* \"#utility.yul\":27588:27608   */\n      tag_440\n      jump\t// in\n    tag_539:\n        /* \"#utility.yul\":27583:27608   */\n      swap2\n      pop\n        /* \"#utility.yul\":27622:27642   */\n      tag_540\n        /* \"#utility.yul\":27640:27641   */\n      dup4\n        /* \"#utility.yul\":27622:27642   */\n      tag_440\n      jump\t// in\n    tag_540:\n        /* \"#utility.yul\":27617:27642   */\n      swap3\n      pop\n        /* \"#utility.yul\":27661:27662   */\n      dup3\n        /* \"#utility.yul\":27658:27659   */\n      dup3\n        /* \"#utility.yul\":27655:27663   */\n      lt\n        /* \"#utility.yul\":27652:27686   */\n      iszero\n      tag_541\n      jumpi\n        /* \"#utility.yul\":27666:27684   */\n      tag_542\n      tag_526\n      jump\t// in\n    tag_542:\n        /* \"#utility.yul\":27652:27686   */\n    tag_541:\n        /* \"#utility.yul\":27711:27712   */\n      dup3\n        /* \"#utility.yul\":27708:27709   */\n      dup3\n        /* \"#utility.yul\":27704:27713   */\n      sub\n        /* \"#utility.yul\":27696:27713   */\n      swap1\n      pop\n        /* \"#utility.yul\":27528:27719   */\n      swap3\n      swap2\n      pop\n      pop\n      jump\t// out\n        /* \"#utility.yul\":27725:27821   */\n    tag_321:\n        /* \"#utility.yul\":27762:27769   */\n      0x00\n        /* \"#utility.yul\":27791:27815   */\n      tag_544\n        /* \"#utility.yul\":27809:27814   */\n      dup3\n        /* \"#utility.yul\":27791:27815   */\n      tag_545\n      jump\t// in\n    tag_544:\n        /* \"#utility.yul\":27780:27815   */\n      swap1\n      pop\n        /* \"#utility.yul\":27725:27821   */\n      swap2\n      swap1\n      pop\n      jump\t// out\n        /* \"#utility.yul\":27827:27917   */\n    tag_328:\n        /* \"#utility.yul\":27861:27868   */\n      0x00\n        /* \"#utility.yul\":27904:27909   */\n      dup2\n        /* \"#utility.yul\":27897:27910   */\n      iszero\n        /* \"#utility.yul\":27890:27911   */\n      iszero\n        /* \"#utility.yul\":27879:27911   */\n      swap1\n      pop\n        /* \"#utility.yul\":27827:27917   */\n      swap2\n      swap1\n      pop\n      jump\t// out\n        /* \"#utility.yul\":27923:27999   */\n    tag_336:\n        /* \"#utility.yul\":27959:27966   */\n      0x00\n        /* \"#utility.yul\":27988:27993   */\n      dup2\n        /* \"#utility.yul\":27977:27993   */\n      swap1\n      pop\n        /* \"#utility.yul\":27923:27999   */\n      swap2\n      swap1\n      pop\n      jump\t// out\n        /* \"#utility.yul\":28005:28131   */\n    tag_545:\n        /* \"#utility.yul\":28042:28049   */\n      0x00\n        /* \"#utility.yul\":28082:28124   */\n      0xffffffffffffffffffffffffffffffffffffffff\n        /* \"#utility.yul\":28075:28080   */\n      dup3\n        /* \"#utility.yul\":28071:28125   */\n      and\n        /* \"#utility.yul\":28060:28125   */\n      swap1\n      pop\n        /* \"#utility.yul\":28005:28131   */\n      swap2\n      swap1\n      pop\n      jump\t// out\n        /* \"#utility.yul\":28137:28214   */\n    tag_440:\n        /* \"#utility.yul\":28174:28181   */\n      0x00\n        /* \"#utility.yul\":28203:28208   */\n      dup2\n        /* \"#utility.yul\":28192:28208   */\n      swap1\n      pop\n        /* \"#utility.yul\":28137:28214   */\n      swap2\n      swap1\n      pop\n      jump\t// out\n        /* \"#utility.yul\":28220:28364   */\n    tag_332:\n        /* \"#utility.yul\":28288:28297   */\n      0x00\n        /* \"#utility.yul\":28321:28358   */\n      tag_551\n        /* \"#utility.yul\":28352:28357   */\n      dup3\n        /* \"#utility.yul\":28321:28358   */\n      tag_552\n      jump\t// in\n    tag_551:\n        /* \"#utility.yul\":28308:28358   */\n      swap1\n      pop\n        /* \"#utility.yul\":28220:28364   */\n      swap2\n      swap1\n      pop\n      jump\t// out\n        /* \"#utility.yul\":28370:28496   */\n    tag_552:\n        /* \"#utility.yul\":28420:28429   */\n      0x00\n        /* \"#utility.yul\":28453:28490   */\n      tag_554\n        /* \"#utility.yul\":28484:28489   */\n      dup3\n        /* \"#utility.yul\":28453:28490   */\n      tag_555\n      jump\t// in\n    tag_554:\n        /* \"#utility.yul\":28440:28490   */\n      swap1\n      pop\n        /* \"#utility.yul\":28370:28496   */\n      swap2\n      swap1\n      pop\n      jump\t// out\n        /* \"#utility.yul\":28502:28615   */\n    tag_555:\n        /* \"#utility.yul\":28552:28561   */\n      0x00\n        /* \"#utility.yul\":28585:28609   */\n      tag_557\n        /* \"#utility.yul\":28603:28608   */\n      dup3\n        /* \"#utility.yul\":28585:28609   */\n      tag_545\n      jump\t// in\n    tag_557:\n        /* \"#utility.yul\":28572:28609   */\n      swap1\n      pop\n        /* \"#utility.yul\":28502:28615   */\n      swap2\n      swap1\n      pop\n      jump\t// out\n        /* \"#utility.yul\":28621:28775   */\n    tag_250:\n        /* \"#utility.yul\":28705:28711   */\n      dup3\n        /* \"#utility.yul\":28700:28703   */\n      dup2\n        /* \"#utility.yul\":28695:28698   */\n      dup4\n        /* \"#utility.yul\":28682:28712   */\n      calldatacopy\n        /* \"#utility.yul\":28767:28768   */\n      0x00\n        /* \"#utility.yul\":28758:28764   */\n      dup4\n        /* \"#utility.yul\":28753:28756   */\n      dup4\n        /* \"#utility.yul\":28749:28765   */\n      add\n        /* \"#utility.yul\":28742:28769   */\n      mstore\n        /* \"#utility.yul\":28621:28775   */\n      pop\n      pop\n      pop\n      jump\t// out\n        /* \"#utility.yul\":28781:29088   */\n    tag_352:\n        /* \"#utility.yul\":28849:28850   */\n      0x00\n        /* \"#utility.yul\":28859:28972   */\n    tag_560:\n        /* \"#utility.yul\":28873:28879   */\n      dup4\n        /* \"#utility.yul\":28870:28871   */\n      dup2\n        /* \"#utility.yul\":28867:28880   */\n      lt\n        /* \"#utility.yul\":28859:28972   */\n      iszero\n      tag_562\n      jumpi\n        /* \"#utility.yul\":28958:28959   */\n      dup1\n        /* \"#utility.yul\":28953:28956   */\n      dup3\n        /* \"#utility.yul\":28949:28960   */\n      add\n        /* \"#utility.yul\":28943:28961   */\n      mload\n        /* \"#utility.yul\":28939:28940   */\n      dup2\n        /* \"#utility.yul\":28934:28937   */\n      dup5\n        /* \"#utility.yul\":28930:28941   */\n      add\n        /* \"#utility.yul\":28923:28962   */\n      mstore\n        /* \"#utility.yul\":28895:28897   */\n      0x20\n        /* \"#utility.yul\":28892:28893   */\n      dup2\n        /* \"#utility.yul\":28888:28898   */\n      add\n        /* \"#utility.yul\":28883:28898   */\n      swap1\n      pop\n        /* \"#utility.yul\":28859:28972   */\n      jump(tag_560)\n    tag_562:\n        /* \"#utility.yul\":28990:28996   */\n      dup4\n        /* \"#utility.yul\":28987:28988   */\n      dup2\n        /* \"#utility.yul\":28984:28997   */\n      gt\n        /* \"#utility.yul\":28981:29082   */\n      iszero\n      tag_563\n      jumpi\n        /* \"#utility.yul\":29070:29071   */\n      0x00\n        /* \"#utility.yul\":29061:29067   */\n      dup5\n        /* \"#utility.yul\":29056:29059   */\n      dup5\n        /* \"#utility.yul\":29052:29068   */\n      add\n        /* \"#utility.yul\":29045:29072   */\n      mstore\n        /* \"#utility.yul\":28981:29082   */\n    tag_563:\n        /* \"#utility.yul\":28830:29088   */\n      pop\n        /* \"#utility.yul\":28781:29088   */\n      pop\n      pop\n      pop\n      jump\t// out\n        /* \"#utility.yul\":29094:29414   */\n    tag_135:\n        /* \"#utility.yul\":29138:29144   */\n      0x00\n        /* \"#utility.yul\":29175:29176   */\n      0x02\n        /* \"#utility.yul\":29169:29173   */\n      dup3\n        /* \"#utility.yul\":29165:29177   */\n      div\n        /* \"#utility.yul\":29155:29177   */\n      swap1\n      pop\n        /* \"#utility.yul\":29222:29223   */\n      0x01\n        /* \"#utility.yul\":29216:29220   */\n      dup3\n        /* \"#utility.yul\":29212:29224   */\n      and\n        /* \"#utility.yul\":29243:29261   */\n      dup1\n        /* \"#utility.yul\":29233:29314   */\n      tag_565\n      jumpi\n        /* \"#utility.yul\":29299:29303   */\n      0x7f\n        /* \"#utility.yul\":29291:29297   */\n      dup3\n        /* \"#utility.yul\":29287:29304   */\n      and\n        /* \"#utility.yul\":29277:29304   */\n      swap2\n      pop\n        /* \"#utility.yul\":29233:29314   */\n    tag_565:\n        /* \"#utility.yul\":29361:29363   */\n      0x20\n        /* \"#utility.yul\":29353:29359   */\n      dup3\n        /* \"#utility.yul\":29350:29364   */\n      lt\n        /* \"#utility.yul\":29330:29348   */\n      dup2\n        /* \"#utility.yul\":29327:29365   */\n      eq\n        /* \"#utility.yul\":29324:29408   */\n      iszero\n      tag_566\n      jumpi\n        /* \"#utility.yul\":29380:29398   */\n      tag_567\n      tag_568\n      jump\t// in\n    tag_567:\n        /* \"#utility.yul\":29324:29408   */\n    tag_566:\n        /* \"#utility.yul\":29145:29414   */\n      pop\n        /* \"#utility.yul\":29094:29414   */\n      swap2\n      swap1\n      pop\n      jump\t// out\n        /* \"#utility.yul\":29420:29701   */\n    tag_510:\n        /* \"#utility.yul\":29503:29530   */\n      tag_570\n        /* \"#utility.yul\":29525:29529   */\n      dup3\n        /* \"#utility.yul\":29503:29530   */\n      tag_354\n      jump\t// in\n    tag_570:\n        /* \"#utility.yul\":29495:29501   */\n      dup2\n        /* \"#utility.yul\":29491:29531   */\n      add\n        /* \"#utility.yul\":29633:29639   */\n      dup2\n        /* \"#utility.yul\":29621:29631   */\n      dup2\n        /* \"#utility.yul\":29618:29640   */\n      lt\n        /* \"#utility.yul\":29597:29615   */\n      0xffffffffffffffff\n        /* \"#utility.yul\":29585:29595   */\n      dup3\n        /* \"#utility.yul\":29582:29616   */\n      gt\n        /* \"#utility.yul\":29579:29641   */\n      or\n        /* \"#utility.yul\":29576:29664   */\n      iszero\n      tag_571\n      jumpi\n        /* \"#utility.yul\":29644:29662   */\n      tag_572\n      tag_515\n      jump\t// in\n    tag_572:\n        /* \"#utility.yul\":29576:29664   */\n    tag_571:\n        /* \"#utility.yul\":29684:29694   */\n      dup1\n        /* \"#utility.yul\":29680:29682   */\n      0x40\n        /* \"#utility.yul\":29673:29695   */\n      mstore\n        /* \"#utility.yul\":29463:29701   */\n      pop\n        /* \"#utility.yul\":29420:29701   */\n      pop\n      pop\n      jump\t// out\n        /* \"#utility.yul\":29707:29887   */\n    tag_526:\n        /* \"#utility.yul\":29755:29832   */\n      0x4e487b7100000000000000000000000000000000000000000000000000000000\n        /* \"#utility.yul\":29752:29753   */\n      0x00\n        /* \"#utility.yul\":29745:29833   */\n      mstore\n        /* \"#utility.yul\":29852:29856   */\n      0x11\n        /* \"#utility.yul\":29849:29850   */\n      0x04\n        /* \"#utility.yul\":29842:29857   */\n      mstore\n        /* \"#utility.yul\":29876:29880   */\n      0x24\n        /* \"#utility.yul\":29873:29874   */\n      0x00\n        /* \"#utility.yul\":29866:29881   */\n      revert\n        /* \"#utility.yul\":29893:30073   */\n    tag_532:\n        /* \"#utility.yul\":29941:30018   */\n      0x4e487b7100000000000000000000000000000000000000000000000000000000\n        /* \"#utility.yul\":29938:29939   */\n      0x00\n        /* \"#utility.yul\":29931:30019   */\n      mstore\n        /* \"#utility.yul\":30038:30042   */\n      0x12\n        /* \"#utility.yul\":30035:30036   */\n      0x04\n        /* \"#utility.yul\":30028:30043   */\n      mstore\n        /* \"#utility.yul\":30062:30066   */\n      0x24\n        /* \"#utility.yul\":30059:30060   */\n      0x00\n        /* \"#utility.yul\":30052:30067   */\n      revert\n        /* \"#utility.yul\":30079:30259   */\n    tag_568:\n        /* \"#utility.yul\":30127:30204   */\n      0x4e487b7100000000000000000000000000000000000000000000000000000000\n        /* \"#utility.yul\":30124:30125   */\n      0x00\n        /* \"#utility.yul\":30117:30205   */\n      mstore\n        /* \"#utility.yul\":30224:30228   */\n      0x22\n        /* \"#utility.yul\":30221:30222   */\n      0x04\n        /* \"#utility.yul\":30214:30229   */\n      mstore\n        /* \"#utility.yul\":30248:30252   */\n      0x24\n        /* \"#utility.yul\":30245:30246   */\n      0x00\n        /* \"#utility.yul\":30238:30253   */\n      revert\n        /* \"#utility.yul\":30265:30445   */\n    tag_515:\n        /* \"#utility.yul\":30313:30390   */\n      0x4e487b7100000000000000000000000000000000000000000000000000000000\n        /* \"#utility.yul\":30310:30311   */\n      0x00\n        /* \"#utility.yul\":30303:30391   */\n      mstore\n        /* \"#utility.yul\":30410:30414   */\n      0x41\n        /* \"#utility.yul\":30407:30408   */\n      0x04\n        /* \"#utility.yul\":30400:30415   */\n      mstore\n        /* \"#utility.yul\":30434:30438   */\n      0x24\n        /* \"#utility.yul\":30431:30432   */\n      0x00\n        /* \"#utility.yul\":30424:30439   */\n      revert\n        /* \"#utility.yul\":30451:30568   */\n    tag_262:\n        /* \"#utility.yul\":30560:30561   */\n      0x00\n        /* \"#utility.yul\":30557:30558   */\n      dup1\n        /* \"#utility.yul\":30550:30562   */\n      revert\n        /* \"#utility.yul\":30574:30691   */\n    tag_259:\n        /* \"#utility.yul\":30683:30684   */\n      0x00\n        /* \"#utility.yul\":30680:30681   */\n      dup1\n        /* \"#utility.yul\":30673:30685   */\n      revert\n        /* \"#utility.yul\":30697:30814   */\n    tag_265:\n        /* \"#utility.yul\":30806:30807   */\n      0x00\n        /* \"#utility.yul\":30803:30804   */\n      dup1\n        /* \"#utility.yul\":30796:30808   */\n      revert\n        /* \"#utility.yul\":30820:30937   */\n    tag_248:\n        /* \"#utility.yul\":30929:30930   */\n      0x00\n        /* \"#utility.yul\":30926:30927   */\n      dup1\n        /* \"#utility.yul\":30919:30931   */\n      revert\n        /* \"#utility.yul\":30943:31060   */\n    tag_286:\n        /* \"#utility.yul\":31052:31053   */\n      0x00\n        /* \"#utility.yul\":31049:31050   */\n      dup1\n        /* \"#utility.yul\":31042:31054   */\n      revert\n        /* \"#utility.yul\":31066:31183   */\n    tag_278:\n        /* \"#utility.yul\":31175:31176   */\n      0x00\n        /* \"#utility.yul\":31172:31173   */\n      dup1\n        /* \"#utility.yul\":31165:31177   */\n      revert\n        /* \"#utility.yul\":31189:31291   */\n    tag_354:\n        /* \"#utility.yul\":31230:31236   */\n      0x00\n        /* \"#utility.yul\":31281:31283   */\n      0x1f\n        /* \"#utility.yul\":31277:31284   */\n      not\n        /* \"#utility.yul\":31272:31274   */\n      0x1f\n        /* \"#utility.yul\":31265:31270   */\n      dup4\n        /* \"#utility.yul\":31261:31275   */\n      add\n        /* \"#utility.yul\":31257:31285   */\n      and\n        /* \"#utility.yul\":31247:31285   */\n      swap1\n      pop\n        /* \"#utility.yul\":31189:31291   */\n      swap2\n      swap1\n      pop\n      jump\t// out\n        /* \"#utility.yul\":31297:31531   */\n    tag_371:\n        /* \"#utility.yul\":31437:31471   */\n      0x437573746f6d6572206e6f7420726567697374657265642120506c6561736520\n        /* \"#utility.yul\":31433:31434   */\n      0x00\n        /* \"#utility.yul\":31425:31431   */\n      dup3\n        /* \"#utility.yul\":31421:31435   */\n      add\n        /* \"#utility.yul\":31414:31472   */\n      mstore\n        /* \"#utility.yul\":31506:31523   */\n      0x7265676973746572206669727374210000000000000000000000000000000000\n        /* \"#utility.yul\":31501:31503   */\n      0x20\n        /* \"#utility.yul\":31493:31499   */\n      dup3\n        /* \"#utility.yul\":31489:31504   */\n      add\n        /* \"#utility.yul\":31482:31524   */\n      mstore\n        /* \"#utility.yul\":31297:31531   */\n      pop\n      jump\t// out\n        /* \"#utility.yul\":31537:31777   */\n    tag_376:\n        /* \"#utility.yul\":31677:31711   */\n      0x5468652072657475726e206f6620746869732072657475726e49642068617320\n        /* \"#utility.yul\":31673:31674   */\n      0x00\n        /* \"#utility.yul\":31665:31671   */\n      dup3\n        /* \"#utility.yul\":31661:31675   */\n      add\n        /* \"#utility.yul\":31654:31712   */\n      mstore\n        /* \"#utility.yul\":31746:31769   */\n      0x6265656e20616c72656164792061756469746564210000000000000000000000\n        /* \"#utility.yul\":31741:31743   */\n      0x20\n        /* \"#utility.yul\":31733:31739   */\n      dup3\n        /* \"#utility.yul\":31729:31744   */\n      add\n        /* \"#utility.yul\":31722:31770   */\n      mstore\n        /* \"#utility.yul\":31537:31777   */\n      pop\n      jump\t// out\n        /* \"#utility.yul\":31783:32004   */\n    tag_381:\n        /* \"#utility.yul\":31923:31957   */\n      0x4e6f207468697320747970652773206361727320617661696c61626c65206e6f\n        /* \"#utility.yul\":31919:31920   */\n      0x00\n        /* \"#utility.yul\":31911:31917   */\n      dup3\n        /* \"#utility.yul\":31907:31921   */\n      add\n        /* \"#utility.yul\":31900:31958   */\n      mstore\n        /* \"#utility.yul\":31992:31996   */\n      0x7721000000000000000000000000000000000000000000000000000000000000\n        /* \"#utility.yul\":31987:31989   */\n      0x20\n        /* \"#utility.yul\":31979:31985   */\n      dup3\n        /* \"#utility.yul\":31975:31990   */\n      add\n        /* \"#utility.yul\":31968:31997   */\n      mstore\n        /* \"#utility.yul\":31783:32004   */\n      pop\n      jump\t// out\n        /* \"#utility.yul\":32010:32247   */\n    tag_386:\n        /* \"#utility.yul\":32150:32184   */\n      0x5468652072656e74206f6620746869732072656e74496420686173206265656e\n        /* \"#utility.yul\":32146:32147   */\n      0x00\n        /* \"#utility.yul\":32138:32144   */\n      dup3\n        /* \"#utility.yul\":32134:32148   */\n      add\n        /* \"#utility.yul\":32127:32185   */\n      mstore\n        /* \"#utility.yul\":32219:32239   */\n      0x20616c72656164792072657475726e6564210000000000000000000000000000\n        /* \"#utility.yul\":32214:32216   */\n      0x20\n        /* \"#utility.yul\":32206:32212   */\n      dup3\n        /* \"#utility.yul\":32202:32217   */\n      add\n        /* \"#utility.yul\":32195:32240   */\n      mstore\n        /* \"#utility.yul\":32010:32247   */\n      pop\n      jump\t// out\n        /* \"#utility.yul\":32253:32429   */\n    tag_391:\n        /* \"#utility.yul\":32393:32421   */\n      0x496e7075742072656e745265636f7264496420496e7661696421000000000000\n        /* \"#utility.yul\":32389:32390   */\n      0x00\n        /* \"#utility.yul\":32381:32387   */\n      dup3\n        /* \"#utility.yul\":32377:32391   */\n      add\n        /* \"#utility.yul\":32370:32422   */\n      mstore\n        /* \"#utility.yul\":32253:32429   */\n      pop\n      jump\t// out\n        /* \"#utility.yul\":32435:32750   */\n    tag_396:\n        /* \"#utility.yul\":32575:32609   */\n      0x4465706f73697420676976656e2068657265206973206e6f7420656e6f756768\n        /* \"#utility.yul\":32571:32572   */\n      0x00\n        /* \"#utility.yul\":32563:32569   */\n      dup3\n        /* \"#utility.yul\":32559:32573   */\n      add\n        /* \"#utility.yul\":32552:32610   */\n      mstore\n        /* \"#utility.yul\":32644:32678   */\n      0x21204465706f7369742073686f756c65206265206c6172676572207468616e20\n        /* \"#utility.yul\":32639:32641   */\n      0x20\n        /* \"#utility.yul\":32631:32637   */\n      dup3\n        /* \"#utility.yul\":32627:32642   */\n      add\n        /* \"#utility.yul\":32620:32679   */\n      mstore\n        /* \"#utility.yul\":32713:32742   */\n      0x283930202b2072656e744461797329202a206461696c7952656e740000000000\n        /* \"#utility.yul\":32708:32710   */\n      0x40\n        /* \"#utility.yul\":32700:32706   */\n      dup3\n        /* \"#utility.yul\":32696:32711   */\n      add\n        /* \"#utility.yul\":32689:32743   */\n      mstore\n        /* \"#utility.yul\":32435:32750   */\n      pop\n      jump\t// out\n        /* \"#utility.yul\":32756:32934   */\n    tag_401:\n        /* \"#utility.yul\":32896:32926   */\n      0x496e7075742072657475726e5265636f7264496420496e766169642100000000\n        /* \"#utility.yul\":32892:32893   */\n      0x00\n        /* \"#utility.yul\":32884:32890   */\n      dup3\n        /* \"#utility.yul\":32880:32894   */\n      add\n        /* \"#utility.yul\":32873:32927   */\n      mstore\n        /* \"#utility.yul\":32756:32934   */\n      pop\n      jump\t// out\n        /* \"#utility.yul\":32940:33122   */\n    tag_406:\n        /* \"#utility.yul\":33080:33114   */\n      0x4f6e6c79204142432063616e2063616c6c20746869732066756e6374696f6e21\n        /* \"#utility.yul\":33076:33077   */\n      0x00\n        /* \"#utility.yul\":33068:33074   */\n      dup3\n        /* \"#utility.yul\":33064:33078   */\n      add\n        /* \"#utility.yul\":33057:33115   */\n      mstore\n        /* \"#utility.yul\":32940:33122   */\n      pop\n      jump\t// out\n        /* \"#utility.yul\":33128:33354   */\n    tag_411:\n        /* \"#utility.yul\":33268:33302   */\n      0x54686520637573746f6d65722773206164647265737320646f65736e2774206d\n        /* \"#utility.yul\":33264:33265   */\n      0x00\n        /* \"#utility.yul\":33256:33262   */\n      dup3\n        /* \"#utility.yul\":33252:33266   */\n      add\n        /* \"#utility.yul\":33245:33303   */\n      mstore\n        /* \"#utility.yul\":33337:33346   */\n      0x6174636865642100000000000000000000000000000000000000000000000000\n        /* \"#utility.yul\":33332:33334   */\n      0x20\n        /* \"#utility.yul\":33324:33330   */\n      dup3\n        /* \"#utility.yul\":33320:33335   */\n      add\n        /* \"#utility.yul\":33313:33347   */\n      mstore\n        /* \"#utility.yul\":33128:33354   */\n      pop\n      jump\t// out\n        /* \"#utility.yul\":33360:33482   */\n    tag_254:\n        /* \"#utility.yul\":33433:33457   */\n      tag_594\n        /* \"#utility.yul\":33451:33456   */\n      dup2\n        /* \"#utility.yul\":33433:33457   */\n      tag_321\n      jump\t// in\n    tag_594:\n        /* \"#utility.yul\":33426:33431   */\n      dup2\n        /* \"#utility.yul\":33423:33458   */\n      eq\n        /* \"#utility.yul\":33413:33476   */\n      tag_595\n      jumpi\n        /* \"#utility.yul\":33472:33473   */\n      0x00\n        /* \"#utility.yul\":33469:33470   */\n      dup1\n        /* \"#utility.yul\":33462:33474   */\n      revert\n        /* \"#utility.yul\":33413:33476   */\n    tag_595:\n        /* \"#utility.yul\":33360:33482   */\n      pop\n      jump\t// out\n        /* \"#utility.yul\":33488:33610   */\n    tag_274:\n        /* \"#utility.yul\":33561:33585   */\n      tag_597\n        /* \"#utility.yul\":33579:33584   */\n      dup2\n        /* \"#utility.yul\":33561:33585   */\n      tag_440\n      jump\t// in\n    tag_597:\n        /* \"#utility.yul\":33554:33559   */\n      dup2\n        /* \"#utility.yul\":33551:33586   */\n      eq\n        /* \"#utility.yul\":33541:33604   */\n      tag_598\n      jumpi\n        /* \"#utility.yul\":33600:33601   */\n      0x00\n        /* \"#utility.yul\":33597:33598   */\n      dup1\n        /* \"#utility.yul\":33590:33602   */\n      revert\n        /* \"#utility.yul\":33541:33604   */\n    tag_598:\n        /* \"#utility.yul\":33488:33610   */\n      pop\n      jump\t// out\n\n    auxdata: 0xa26469706673582212205cfb3c28fe50b5a1473c7c4f074454ed11bc1fd9238a3e3a31cafc304677637b64736f6c63430008070033\n}\n",
				"bytecode": {
					"linkReferences": {},
					"object": "60806040526001600555600160075560016009553480156200002057600080fd5b5060405162002b9a38038062002b9a8339818101604052810190620000469190620000e5565b336000806101000a81548173ffffffffffffffffffffffffffffffffffffffff021916908373ffffffffffffffffffffffffffffffffffffffff16021790555080600b60006101000a81548173ffffffffffffffffffffffffffffffffffffffff021916908373ffffffffffffffffffffffffffffffffffffffff160217905550506200016a565b600081519050620000df8162000150565b92915050565b600060208284031215620000fe57620000fd6200014b565b5b60006200010e84828501620000ce565b91505092915050565b600062000124826200012b565b9050919050565b600073ffffffffffffffffffffffffffffffffffffffff82169050919050565b600080fd5b6200015b8162000117565b81146200016757600080fd5b50565b612a20806200017a6000396000f3fe6080604052600436106100fd5760003560e01c80636b93e40911610095578063c16849c011610064578063c16849c01461039a578063c87dec7a146103c5578063cb2acd8014610402578063d05a044714610445578063e496246314610470576100fd565b80636b93e409146102c157806394fa8235146102f15780639532007a1461032e578063b027a75914610359576100fd565b80633a8c0e6e116100d15780633a8c0e6e146101e65780633e7ab6a8146102295780635177d6d214610259578063586fa64d14610284576100fd565b80621e4c44146101025780630958d9441461012d5780631049f50a1461016a57806338266fe5146101a9575b600080fd5b34801561010e57600080fd5b5061011761049b565b604051610124919061222c565b60405180910390f35b34801561013957600080fd5b50610154600480360381019061014f9190611b66565b6104a1565b604051610161919061220a565b60405180910390f35b34801561017657600080fd5b50610191600480360381019061018c9190611b1d565b6109ee565b6040516101a09392919061206f565b60405180910390f35b3480156101b557600080fd5b506101d060048036038101906101cb91906119ed565b610ab6565b6040516101dd919061222c565b60405180910390f35b3480156101f257600080fd5b5061020d60048036038101906102089190611b66565b610af1565b60405161022097969594939291906122bd565b60405180910390f35b610243600480360381019061023e9190611b93565b610bdb565b60405161025091906121cd565b60405180910390f35b34801561026557600080fd5b5061026e610f33565b60405161027b919061222c565b60405180910390f35b34801561029057600080fd5b506102ab60048036038101906102a69190611b1d565b610f39565b6040516102b8919061222c565b60405180910390f35b6102db60048036038101906102d69190611a49565b610f67565b6040516102e891906121e8565b60405180910390f35b3480156102fd57600080fd5b5061031860048036038101906103139190611aa9565b61139f565b6040516103259190612039565b60405180910390f35b34801561033a57600080fd5b50610343611532565b604051610350919061222c565b60405180910390f35b34801561036557600080fd5b50610380600480360381019061037b9190611b66565b611538565b604051610391959493929190612333565b60405180910390f35b3480156103a657600080fd5b506103af61158e565b6040516103bc9190612054565b60405180910390f35b3480156103d157600080fd5b506103ec60048036038101906103e791906119c0565b6115b4565b6040516103f99190612039565b60405180910390f35b34801561040e57600080fd5b5061042960048036038101906104249190611b66565b6115d4565b60405161043c9796959493929190612247565b60405180910390f35b34801561045157600080fd5b5061045a6116be565b604051610467919061201e565b60405180910390f35b34801561047c57600080fd5b506104856116e2565b6040516104929190612039565b60405180910390f35b60095481565b6104a9611742565b60011515600160003373ffffffffffffffffffffffffffffffffffffffff1673ffffffffffffffffffffffffffffffffffffffff16815260200190815260200160002060009054906101000a900460ff1615151461053c576040517f08c379a0000000000000000000000000000000000000000000000000000000008152600401610533906120ad565b60405180910390fd5b600554821115801561054e5750600082115b61058d576040517f08c379a00000000000000000000000000000000000000000000000000000000081526004016105849061212d565b60405180910390fd5b6006600083815260200190815260200160002060010160009054906101000a900473ffffffffffffffffffffffffffffffffffffffff1673ffffffffffffffffffffffffffffffffffffffff163373ffffffffffffffffffffffffffffffffffffffff1614610631576040517f08c379a0000000000000000000000000000000000000000000000000000000008152600401610628906121ad565b60405180910390fd5b7fffffffffffffffffffffffffffffffffffffffffffffffffffffffffffffffff6006600084815260200190815260200160002060060154146106a9576040517f08c379a00000000000000000000000000000000000000000000000000000000081526004016106a09061210d565b60405180910390fd5b60006006600084815260200190815260200160002060020180546106cc906125f3565b80601f01602080910402602001604051908101604052809291908181526020018280546106f8906125f3565b80156107455780601f1061071a57610100808354040283529160200191610745565b820191906000526020600020905b81548152906001019060200180831161072857829003601f168201915b505050505090506000600660008581526020019081526020016000206005015490506001600260003373ffffffffffffffffffffffffffffffffffffffff1673ffffffffffffffffffffffffffffffffffffffff168152602001908152602001600020836040516107b69190612007565b908152602001604051809103902060008282546107d391906124f5565b9250508190555060016004836040516107ec9190612007565b908152602001604051809103902060008282546108099190612414565b9250508190555060004290506000828261082391906124f5565b9050600060016018603c8085610839919061246a565b610843919061246a565b61084d919061246a565b6108579190612414565b9050600060038660405161086b9190612007565b90815260200160405180910390206002015482610888919061249b565b905060006040518060e0016040528060075481526020018a81526020013373ffffffffffffffffffffffffffffffffffffffff1681526020018881526020018681526020018381526020017fffffffffffffffffffffffffffffffffffffffffffffffffffffffffffffffff815250905080600860006007548152602001908152602001600020600082015181600001556020820151816001015560408201518160020160006101000a81548173ffffffffffffffffffffffffffffffffffffffff021916908373ffffffffffffffffffffffffffffffffffffffff1602179055506060820151816003019080519060200190610986929190611795565b506080820151816004015560a0820151816005015560c08201518160060155905050600754600660008b8152602001908152602001600020600601819055506001600760008282546109d89190612414565b9250508190555080975050505050505050919050565b600381805160208101820180518482526020830160208501208183528095505050505050600091509050806000018054610a27906125f3565b80601f0160208091040260200160405190810160405280929190818152602001828054610a53906125f3565b8015610aa05780601f10610a7557610100808354040283529160200191610aa0565b820191906000526020600020905b815481529060010190602001808311610a8357829003601f168201915b5050505050908060010154908060020154905083565b600260205281600052604060002081805160208101820180518482526020830160208501208183528095505050505050600091509150505481565b60086020528060005260406000206000915090508060000154908060010154908060020160009054906101000a900473ffffffffffffffffffffffffffffffffffffffff1690806003018054610b46906125f3565b80601f0160208091040260200160405190810160405280929190818152602001828054610b72906125f3565b8015610bbf5780601f10610b9457610100808354040283529160200191610bbf565b820191906000526020600020905b815481529060010190602001808311610ba257829003601f168201915b5050505050908060040154908060050154908060060154905087565b610be361181b565b60008054906101000a900473ffffffffffffffffffffffffffffffffffffffff1673ffffffffffffffffffffffffffffffffffffffff163373ffffffffffffffffffffffffffffffffffffffff1614610c71576040517f08c379a0000000000000000000000000000000000000000000000000000000008152600401610c689061218d565b60405180910390fd5b6007548311158015610c835750600083115b610cc2576040517f08c379a0000000000000000000000000000000000000000000000000000000008152600401610cb99061216d565b60405180910390fd5b7fffffffffffffffffffffffffffffffffffffffffffffffffffffffffffffffff600860008581526020019081526020016000206006015414610d3a576040517f08c379a0000000000000000000000000000000000000000000000000000000008152600401610d31906120cd565b60405180910390fd5b60006008600085815260200190815260200160002060020160009054906101000a900473ffffffffffffffffffffffffffffffffffffffff169050600060066000600860008881526020019081526020016000206001015481526020019081526020016000206004015490506000600860008781526020019081526020016000206005015490506000858284610dd091906124f5565b610dda91906124f5565b90508373ffffffffffffffffffffffffffffffffffffffff166108fc829081150290604051600060405180830381858888f19350505050158015610e22573d6000803e3d6000fd5b5060006040518060a0016040528060095481526020018981526020018673ffffffffffffffffffffffffffffffffffffffff16815260200188815260200183815250905080600a60006009548152602001908152602001600020600082015181600001556020820151816001015560408201518160020160006101000a81548173ffffffffffffffffffffffffffffffffffffffff021916908373ffffffffffffffffffffffffffffffffffffffff1602179055506060820151816003015560808201518160040155905050600954600860008a815260200190815260200160002060060181905550600160096000828254610f1e9190612414565b92505081905550809550505050505092915050565b60075481565b6004818051602081018201805184825260208301602085012081835280955050505050506000915090505481565b610f6f611860565b60011515600160003373ffffffffffffffffffffffffffffffffffffffff1673ffffffffffffffffffffffffffffffffffffffff16815260200190815260200160002060009054906101000a900460ff16151514611002576040517f08c379a0000000000000000000000000000000000000000000000000000000008152600401610ff9906120ad565b60405180910390fd5b600060048585604051611016929190611fee565b90815260200160405180910390205411611065576040517f08c379a000000000000000000000000000000000000000000000000000000000815260040161105c906120ed565b60405180910390fd5b60038484604051611077929190611fee565b90815260200160405180910390206002015482611094919061249b565b600385856040516110a6929190611fee565b9081526020016040518091039020600101546110c29190612414565b341015611104576040517f08c379a00000000000000000000000000000000000000000000000000000000081526004016110fb9061214d565b60405180910390fd5b6001600260003373ffffffffffffffffffffffffffffffffffffffff1673ffffffffffffffffffffffffffffffffffffffff1681526020019081526020016000208585604051611155929190611fee565b908152602001604051809103902060008282546111729190612414565b9250508190555060016004858560405161118d929190611fee565b908152602001604051809103902060008282546111aa91906124f5565b9250508190555060006040518060e0016040528060055481526020013373ffffffffffffffffffffffffffffffffffffffff16815260200186868080601f016020809104026020016040519081016040528093929190818152602001838380828437600081840152601f19601f8201169050808301925050505050505081526020018481526020013481526020014281526020017fffffffffffffffffffffffffffffffffffffffffffffffffffffffffffffffff8152509050806006600060055481526020019081526020016000206000820151816000015560208201518160010160006101000a81548173ffffffffffffffffffffffffffffffffffffffff021916908373ffffffffffffffffffffffffffffffffffffffff16021790555060408201518160020190805190602001906112e7929190611795565b50606082015181600301556080820151816004015560a0820151816005015560c082015181600601559050506001600560008282546113269190612414565b9250508190555060008054906101000a900473ffffffffffffffffffffffffffffffffffffffff1673ffffffffffffffffffffffffffffffffffffffff166108fc349081150290604051600060405180830381858888f19350505050158015611393573d6000803e3d6000fd5b50809150509392505050565b60008060009054906101000a900473ffffffffffffffffffffffffffffffffffffffff1673ffffffffffffffffffffffffffffffffffffffff163373ffffffffffffffffffffffffffffffffffffffff1614611430576040517f08c379a00000000000000000000000000000000000000000000000000000000081526004016114279061218d565b60405180910390fd5b604051806060016040528086868080601f016020809104026020016040519081016040528093929190818152602001838380828437600081840152601f19601f820116905080830192505050505050508152602001605a85611492919061249b565b815260200184815250600386866040516114ad929190611fee565b908152602001604051809103902060008201518160000190805190602001906114d7929190611795565b5060208201518160010155604082015181600201559050508160048686604051611502929190611fee565b9081526020016040518091039020600082825461151f9190612414565b9250508190555060019050949350505050565b60055481565b600a6020528060005260406000206000915090508060000154908060010154908060020160009054906101000a900473ffffffffffffffffffffffffffffffffffffffff16908060030154908060040154905085565b600b60009054906101000a900473ffffffffffffffffffffffffffffffffffffffff1681565b60016020528060005260406000206000915054906101000a900460ff1681565b60066020528060005260406000206000915090508060000154908060010160009054906101000a900473ffffffffffffffffffffffffffffffffffffffff1690806002018054611623906125f3565b80601f016020809104026020016040519081016040528092919081815260200182805461164f906125f3565b801561169c5780601f106116715761010080835404028352916020019161169c565b820191906000526020600020905b81548152906001019060200180831161167f57829003601f168201915b5050505050908060030154908060040154908060050154908060060154905087565b60008054906101000a900473ffffffffffffffffffffffffffffffffffffffff1681565b600060018060003373ffffffffffffffffffffffffffffffffffffffff1673ffffffffffffffffffffffffffffffffffffffff16815260200190815260200160002060006101000a81548160ff0219169083151502179055506001905090565b6040518060e001604052806000815260200160008152602001600073ffffffffffffffffffffffffffffffffffffffff168152602001606081526020016000815260200160008152602001600081525090565b8280546117a1906125f3565b90600052602060002090601f0160209004810192826117c3576000855561180a565b82601f106117dc57805160ff191683800117855561180a565b8280016001018555821561180a579182015b828111156118095782518255916020019190600101906117ee565b5b50905061181791906118b3565b5090565b6040518060a001604052806000815260200160008152602001600073ffffffffffffffffffffffffffffffffffffffff16815260200160008152602001600081525090565b6040518060e0016040528060008152602001600073ffffffffffffffffffffffffffffffffffffffff16815260200160608152602001600081526020016000815260200160008152602001600081525090565b5b808211156118cc5760008160009055506001016118b4565b5090565b60006118e36118de846123ab565b612386565b9050828152602081018484840111156118ff576118fe612721565b5b61190a8482856125b1565b509392505050565b600081359050611921816129bc565b92915050565b60008083601f84011261193d5761193c612717565b5b8235905067ffffffffffffffff81111561195a57611959612712565b5b6020830191508360018202830111156119765761197561271c565b5b9250929050565b600082601f83011261199257611991612717565b5b81356119a28482602086016118d0565b91505092915050565b6000813590506119ba816129d3565b92915050565b6000602082840312156119d6576119d561272b565b5b60006119e484828501611912565b91505092915050565b60008060408385031215611a0457611a0361272b565b5b6000611a1285828601611912565b925050602083013567ffffffffffffffff811115611a3357611a32612726565b5b611a3f8582860161197d565b9150509250929050565b600080600060408486031215611a6257611a6161272b565b5b600084013567ffffffffffffffff811115611a8057611a7f612726565b5b611a8c86828701611927565b93509350506020611a9f868287016119ab565b9150509250925092565b60008060008060608587031215611ac357611ac261272b565b5b600085013567ffffffffffffffff811115611ae157611ae0612726565b5b611aed87828801611927565b94509450506020611b00878288016119ab565b9250506040611b11878288016119ab565b91505092959194509250565b600060208284031215611b3357611b3261272b565b5b600082013567ffffffffffffffff811115611b5157611b50612726565b5b611b5d8482850161197d565b91505092915050565b600060208284031215611b7c57611b7b61272b565b5b6000611b8a848285016119ab565b91505092915050565b60008060408385031215611baa57611ba961272b565b5b6000611bb8858286016119ab565b9250506020611bc9858286016119ab565b9150509250929050565b611bdc81612529565b82525050565b611beb81612529565b82525050565b611bfa8161253b565b82525050565b611c098161257b565b82525050565b611c1881612547565b82525050565b611c2781612547565b82525050565b6000611c398385612409565b9350611c468385846125b1565b82840190509392505050565b6000611c5d826123dc565b611c6781856123e7565b9350611c778185602086016125c0565b611c8081612730565b840191505092915050565b6000611c96826123dc565b611ca081856123f8565b9350611cb08185602086016125c0565b611cb981612730565b840191505092915050565b6000611ccf826123dc565b611cd98185612409565b9350611ce98185602086016125c0565b80840191505092915050565b6000611d02602f836123f8565b9150611d0d82612741565b604082019050919050565b6000611d256035836123f8565b9150611d3082612790565b604082019050919050565b6000611d486022836123f8565b9150611d53826127df565b604082019050919050565b6000611d6b6032836123f8565b9150611d768261282e565b604082019050919050565b6000611d8e601a836123f8565b9150611d998261287d565b602082019050919050565b6000611db1605b836123f8565b9150611dbc826128a6565b606082019050919050565b6000611dd4601c836123f8565b9150611ddf8261291b565b602082019050919050565b6000611df76020836123f8565b9150611e0282612944565b602082019050919050565b6000611e1a6027836123f8565b9150611e258261296d565b604082019050919050565b60a082016000820151611e466000850182611fd0565b506020820151611e596020850182611fd0565b506040820151611e6c6040850182611bd3565b506060820151611e7f6060850182611fd0565b506080820151611e926080850182611fd0565b50505050565b600060e083016000830151611eb06000860182611fd0565b506020830151611ec36020860182611bd3565b5060408301518482036040860152611edb8282611c52565b9150506060830151611ef06060860182611fd0565b506080830151611f036080860182611fd0565b5060a0830151611f1660a0860182611fd0565b5060c0830151611f2960c0860182611c0f565b508091505092915050565b600060e083016000830151611f4c6000860182611fd0565b506020830151611f5f6020860182611fd0565b506040830151611f726040860182611bd3565b5060608301518482036060860152611f8a8282611c52565b9150506080830151611f9f6080860182611fd0565b5060a0830151611fb260a0860182611fd0565b5060c0830151611fc560c0860182611c0f565b508091505092915050565b611fd981612571565b82525050565b611fe881612571565b82525050565b6000611ffb828486611c2d565b91508190509392505050565b60006120138284611cc4565b915081905092915050565b60006020820190506120336000830184611be2565b92915050565b600060208201905061204e6000830184611bf1565b92915050565b60006020820190506120696000830184611c00565b92915050565b600060608201905081810360008301526120898186611c8b565b90506120986020830185611fdf565b6120a56040830184611fdf565b949350505050565b600060208201905081810360008301526120c681611cf5565b9050919050565b600060208201905081810360008301526120e681611d18565b9050919050565b6000602082019050818103600083015261210681611d3b565b9050919050565b6000602082019050818103600083015261212681611d5e565b9050919050565b6000602082019050818103600083015261214681611d81565b9050919050565b6000602082019050818103600083015261216681611da4565b9050919050565b6000602082019050818103600083015261218681611dc7565b9050919050565b600060208201905081810360008301526121a681611dea565b9050919050565b600060208201905081810360008301526121c681611e0d565b9050919050565b600060a0820190506121e26000830184611e30565b92915050565b600060208201905081810360008301526122028184611e98565b905092915050565b600060208201905081810360008301526122248184611f34565b905092915050565b60006020820190506122416000830184611fdf565b92915050565b600060e08201905061225c600083018a611fdf565b6122696020830189611be2565b818103604083015261227b8188611c8b565b905061228a6060830187611fdf565b6122976080830186611fdf565b6122a460a0830185611fdf565b6122b160c0830184611c1e565b98975050505050505050565b600060e0820190506122d2600083018a611fdf565b6122df6020830189611fdf565b6122ec6040830188611be2565b81810360608301526122fe8187611c8b565b905061230d6080830186611fdf565b61231a60a0830185611fdf565b61232760c0830184611c1e565b98975050505050505050565b600060a0820190506123486000830188611fdf565b6123556020830187611fdf565b6123626040830186611be2565b61236f6060830185611fdf565b61237c6080830184611fdf565b9695505050505050565b60006123906123a1565b905061239c8282612625565b919050565b6000604051905090565b600067ffffffffffffffff8211156123c6576123c56126e3565b5b6123cf82612730565b9050602081019050919050565b600081519050919050565b600082825260208201905092915050565b600082825260208201905092915050565b600081905092915050565b600061241f82612571565b915061242a83612571565b9250827fffffffffffffffffffffffffffffffffffffffffffffffffffffffffffffffff0382111561245f5761245e612656565b5b828201905092915050565b600061247582612571565b915061248083612571565b9250826124905761248f612685565b5b828204905092915050565b60006124a682612571565b91506124b183612571565b9250817fffffffffffffffffffffffffffffffffffffffffffffffffffffffffffffffff04831182151516156124ea576124e9612656565b5b828202905092915050565b600061250082612571565b915061250b83612571565b92508282101561251e5761251d612656565b5b828203905092915050565b600061253482612551565b9050919050565b60008115159050919050565b6000819050919050565b600073ffffffffffffffffffffffffffffffffffffffff82169050919050565b6000819050919050565b60006125868261258d565b9050919050565b60006125988261259f565b9050919050565b60006125aa82612551565b9050919050565b82818337600083830152505050565b60005b838110156125de5780820151818401526020810190506125c3565b838111156125ed576000848401525b50505050565b6000600282049050600182168061260b57607f821691505b6020821081141561261f5761261e6126b4565b5b50919050565b61262e82612730565b810181811067ffffffffffffffff8211171561264d5761264c6126e3565b5b80604052505050565b7f4e487b7100000000000000000000000000000000000000000000000000000000600052601160045260246000fd5b7f4e487b7100000000000000000000000000000000000000000000000000000000600052601260045260246000fd5b7f4e487b7100000000000000000000000000000000000000000000000000000000600052602260045260246000fd5b7f4e487b7100000000000000000000000000000000000000000000000000000000600052604160045260246000fd5b600080fd5b600080fd5b600080fd5b600080fd5b600080fd5b600080fd5b6000601f19601f8301169050919050565b7f437573746f6d6572206e6f7420726567697374657265642120506c656173652060008201527f7265676973746572206669727374210000000000000000000000000000000000602082015250565b7f5468652072657475726e206f6620746869732072657475726e4964206861732060008201527f6265656e20616c72656164792061756469746564210000000000000000000000602082015250565b7f4e6f207468697320747970652773206361727320617661696c61626c65206e6f60008201527f7721000000000000000000000000000000000000000000000000000000000000602082015250565b7f5468652072656e74206f6620746869732072656e74496420686173206265656e60008201527f20616c72656164792072657475726e6564210000000000000000000000000000602082015250565b7f496e7075742072656e745265636f7264496420496e7661696421000000000000600082015250565b7f4465706f73697420676976656e2068657265206973206e6f7420656e6f75676860008201527f21204465706f7369742073686f756c65206265206c6172676572207468616e2060208201527f283930202b2072656e744461797329202a206461696c7952656e740000000000604082015250565b7f496e7075742072657475726e5265636f7264496420496e766169642100000000600082015250565b7f4f6e6c79204142432063616e2063616c6c20746869732066756e6374696f6e21600082015250565b7f54686520637573746f6d65722773206164647265737320646f65736e2774206d60008201527f6174636865642100000000000000000000000000000000000000000000000000602082015250565b6129c581612529565b81146129d057600080fd5b50565b6129dc81612571565b81146129e757600080fd5b5056fea26469706673582212205cfb3c28fe50b5a1473c7c4f074454ed11bc1fd9238a3e3a31cafc304677637b64736f6c63430008070033",
					"opcodes": "PUSH1 0x80 PUSH1 0x40 MSTORE PUSH1 0x1 PUSH1 0x5 SSTORE PUSH1 0x1 PUSH1 0x7 SSTORE PUSH1 0x1 PUSH1 0x9 SSTORE CALLVALUE DUP1 ISZERO PUSH3 0x20 JUMPI PUSH1 0x0 DUP1 REVERT JUMPDEST POP PUSH1 0x40 MLOAD PUSH3 0x2B9A CODESIZE SUB DUP1 PUSH3 0x2B9A DUP4 CODECOPY DUP2 DUP2 ADD PUSH1 0x40 MSTORE DUP2 ADD SWAP1 PUSH3 0x46 SWAP2 SWAP1 PUSH3 0xE5 JUMP JUMPDEST CALLER PUSH1 0x0 DUP1 PUSH2 0x100 EXP DUP2 SLOAD DUP2 PUSH20 0xFFFFFFFFFFFFFFFFFFFFFFFFFFFFFFFFFFFFFFFF MUL NOT AND SWAP1 DUP4 PUSH20 0xFFFFFFFFFFFFFFFFFFFFFFFFFFFFFFFFFFFFFFFF AND MUL OR SWAP1 SSTORE POP DUP1 PUSH1 0xB PUSH1 0x0 PUSH2 0x100 EXP DUP2 SLOAD DUP2 PUSH20 0xFFFFFFFFFFFFFFFFFFFFFFFFFFFFFFFFFFFFFFFF MUL NOT AND SWAP1 DUP4 PUSH20 0xFFFFFFFFFFFFFFFFFFFFFFFFFFFFFFFFFFFFFFFF AND MUL OR SWAP1 SSTORE POP POP PUSH3 0x16A JUMP JUMPDEST PUSH1 0x0 DUP2 MLOAD SWAP1 POP PUSH3 0xDF DUP2 PUSH3 0x150 JUMP JUMPDEST SWAP3 SWAP2 POP POP JUMP JUMPDEST PUSH1 0x0 PUSH1 0x20 DUP3 DUP5 SUB SLT ISZERO PUSH3 0xFE JUMPI PUSH3 0xFD PUSH3 0x14B JUMP JUMPDEST JUMPDEST PUSH1 0x0 PUSH3 0x10E DUP5 DUP3 DUP6 ADD PUSH3 0xCE JUMP JUMPDEST SWAP2 POP POP SWAP3 SWAP2 POP POP JUMP JUMPDEST PUSH1 0x0 PUSH3 0x124 DUP3 PUSH3 0x12B JUMP JUMPDEST SWAP1 POP SWAP2 SWAP1 POP JUMP JUMPDEST PUSH1 0x0 PUSH20 0xFFFFFFFFFFFFFFFFFFFFFFFFFFFFFFFFFFFFFFFF DUP3 AND SWAP1 POP SWAP2 SWAP1 POP JUMP JUMPDEST PUSH1 0x0 DUP1 REVERT JUMPDEST PUSH3 0x15B DUP2 PUSH3 0x117 JUMP JUMPDEST DUP2 EQ PUSH3 0x167 JUMPI PUSH1 0x0 DUP1 REVERT JUMPDEST POP JUMP JUMPDEST PUSH2 0x2A20 DUP1 PUSH3 0x17A PUSH1 0x0 CODECOPY PUSH1 0x0 RETURN INVALID PUSH1 0x80 PUSH1 0x40 MSTORE PUSH1 0x4 CALLDATASIZE LT PUSH2 0xFD JUMPI PUSH1 0x0 CALLDATALOAD PUSH1 0xE0 SHR DUP1 PUSH4 0x6B93E409 GT PUSH2 0x95 JUMPI DUP1 PUSH4 0xC16849C0 GT PUSH2 0x64 JUMPI DUP1 PUSH4 0xC16849C0 EQ PUSH2 0x39A JUMPI DUP1 PUSH4 0xC87DEC7A EQ PUSH2 0x3C5 JUMPI DUP1 PUSH4 0xCB2ACD80 EQ PUSH2 0x402 JUMPI DUP1 PUSH4 0xD05A0447 EQ PUSH2 0x445 JUMPI DUP1 PUSH4 0xE4962463 EQ PUSH2 0x470 JUMPI PUSH2 0xFD JUMP JUMPDEST DUP1 PUSH4 0x6B93E409 EQ PUSH2 0x2C1 JUMPI DUP1 PUSH4 0x94FA8235 EQ PUSH2 0x2F1 JUMPI DUP1 PUSH4 0x9532007A EQ PUSH2 0x32E JUMPI DUP1 PUSH4 0xB027A759 EQ PUSH2 0x359 JUMPI PUSH2 0xFD JUMP JUMPDEST DUP1 PUSH4 0x3A8C0E6E GT PUSH2 0xD1 JUMPI DUP1 PUSH4 0x3A8C0E6E EQ PUSH2 0x1E6 JUMPI DUP1 PUSH4 0x3E7AB6A8 EQ PUSH2 0x229 JUMPI DUP1 PUSH4 0x5177D6D2 EQ PUSH2 0x259 JUMPI DUP1 PUSH4 0x586FA64D EQ PUSH2 0x284 JUMPI PUSH2 0xFD JUMP JUMPDEST DUP1 PUSH3 0x1E4C44 EQ PUSH2 0x102 JUMPI DUP1 PUSH4 0x958D944 EQ PUSH2 0x12D JUMPI DUP1 PUSH4 0x1049F50A EQ PUSH2 0x16A JUMPI DUP1 PUSH4 0x38266FE5 EQ PUSH2 0x1A9 JUMPI JUMPDEST PUSH1 0x0 DUP1 REVERT JUMPDEST CALLVALUE DUP1 ISZERO PUSH2 0x10E JUMPI PUSH1 0x0 DUP1 REVERT JUMPDEST POP PUSH2 0x117 PUSH2 0x49B JUMP JUMPDEST PUSH1 0x40 MLOAD PUSH2 0x124 SWAP2 SWAP1 PUSH2 0x222C JUMP JUMPDEST PUSH1 0x40 MLOAD DUP1 SWAP2 SUB SWAP1 RETURN JUMPDEST CALLVALUE DUP1 ISZERO PUSH2 0x139 JUMPI PUSH1 0x0 DUP1 REVERT JUMPDEST POP PUSH2 0x154 PUSH1 0x4 DUP1 CALLDATASIZE SUB DUP2 ADD SWAP1 PUSH2 0x14F SWAP2 SWAP1 PUSH2 0x1B66 JUMP JUMPDEST PUSH2 0x4A1 JUMP JUMPDEST PUSH1 0x40 MLOAD PUSH2 0x161 SWAP2 SWAP1 PUSH2 0x220A JUMP JUMPDEST PUSH1 0x40 MLOAD DUP1 SWAP2 SUB SWAP1 RETURN JUMPDEST CALLVALUE DUP1 ISZERO PUSH2 0x176 JUMPI PUSH1 0x0 DUP1 REVERT JUMPDEST POP PUSH2 0x191 PUSH1 0x4 DUP1 CALLDATASIZE SUB DUP2 ADD SWAP1 PUSH2 0x18C SWAP2 SWAP1 PUSH2 0x1B1D JUMP JUMPDEST PUSH2 0x9EE JUMP JUMPDEST PUSH1 0x40 MLOAD PUSH2 0x1A0 SWAP4 SWAP3 SWAP2 SWAP1 PUSH2 0x206F JUMP JUMPDEST PUSH1 0x40 MLOAD DUP1 SWAP2 SUB SWAP1 RETURN JUMPDEST CALLVALUE DUP1 ISZERO PUSH2 0x1B5 JUMPI PUSH1 0x0 DUP1 REVERT JUMPDEST POP PUSH2 0x1D0 PUSH1 0x4 DUP1 CALLDATASIZE SUB DUP2 ADD SWAP1 PUSH2 0x1CB SWAP2 SWAP1 PUSH2 0x19ED JUMP JUMPDEST PUSH2 0xAB6 JUMP JUMPDEST PUSH1 0x40 MLOAD PUSH2 0x1DD SWAP2 SWAP1 PUSH2 0x222C JUMP JUMPDEST PUSH1 0x40 MLOAD DUP1 SWAP2 SUB SWAP1 RETURN JUMPDEST CALLVALUE DUP1 ISZERO PUSH2 0x1F2 JUMPI PUSH1 0x0 DUP1 REVERT JUMPDEST POP PUSH2 0x20D PUSH1 0x4 DUP1 CALLDATASIZE SUB DUP2 ADD SWAP1 PUSH2 0x208 SWAP2 SWAP1 PUSH2 0x1B66 JUMP JUMPDEST PUSH2 0xAF1 JUMP JUMPDEST PUSH1 0x40 MLOAD PUSH2 0x220 SWAP8 SWAP7 SWAP6 SWAP5 SWAP4 SWAP3 SWAP2 SWAP1 PUSH2 0x22BD JUMP JUMPDEST PUSH1 0x40 MLOAD DUP1 SWAP2 SUB SWAP1 RETURN JUMPDEST PUSH2 0x243 PUSH1 0x4 DUP1 CALLDATASIZE SUB DUP2 ADD SWAP1 PUSH2 0x23E SWAP2 SWAP1 PUSH2 0x1B93 JUMP JUMPDEST PUSH2 0xBDB JUMP JUMPDEST PUSH1 0x40 MLOAD PUSH2 0x250 SWAP2 SWAP1 PUSH2 0x21CD JUMP JUMPDEST PUSH1 0x40 MLOAD DUP1 SWAP2 SUB SWAP1 RETURN JUMPDEST CALLVALUE DUP1 ISZERO PUSH2 0x265 JUMPI PUSH1 0x0 DUP1 REVERT JUMPDEST POP PUSH2 0x26E PUSH2 0xF33 JUMP JUMPDEST PUSH1 0x40 MLOAD PUSH2 0x27B SWAP2 SWAP1 PUSH2 0x222C JUMP JUMPDEST PUSH1 0x40 MLOAD DUP1 SWAP2 SUB SWAP1 RETURN JUMPDEST CALLVALUE DUP1 ISZERO PUSH2 0x290 JUMPI PUSH1 0x0 DUP1 REVERT JUMPDEST POP PUSH2 0x2AB PUSH1 0x4 DUP1 CALLDATASIZE SUB DUP2 ADD SWAP1 PUSH2 0x2A6 SWAP2 SWAP1 PUSH2 0x1B1D JUMP JUMPDEST PUSH2 0xF39 JUMP JUMPDEST PUSH1 0x40 MLOAD PUSH2 0x2B8 SWAP2 SWAP1 PUSH2 0x222C JUMP JUMPDEST PUSH1 0x40 MLOAD DUP1 SWAP2 SUB SWAP1 RETURN JUMPDEST PUSH2 0x2DB PUSH1 0x4 DUP1 CALLDATASIZE SUB DUP2 ADD SWAP1 PUSH2 0x2D6 SWAP2 SWAP1 PUSH2 0x1A49 JUMP JUMPDEST PUSH2 0xF67 JUMP JUMPDEST PUSH1 0x40 MLOAD PUSH2 0x2E8 SWAP2 SWAP1 PUSH2 0x21E8 JUMP JUMPDEST PUSH1 0x40 MLOAD DUP1 SWAP2 SUB SWAP1 RETURN JUMPDEST CALLVALUE DUP1 ISZERO PUSH2 0x2FD JUMPI PUSH1 0x0 DUP1 REVERT JUMPDEST POP PUSH2 0x318 PUSH1 0x4 DUP1 CALLDATASIZE SUB DUP2 ADD SWAP1 PUSH2 0x313 SWAP2 SWAP1 PUSH2 0x1AA9 JUMP JUMPDEST PUSH2 0x139F JUMP JUMPDEST PUSH1 0x40 MLOAD PUSH2 0x325 SWAP2 SWAP1 PUSH2 0x2039 JUMP JUMPDEST PUSH1 0x40 MLOAD DUP1 SWAP2 SUB SWAP1 RETURN JUMPDEST CALLVALUE DUP1 ISZERO PUSH2 0x33A JUMPI PUSH1 0x0 DUP1 REVERT JUMPDEST POP PUSH2 0x343 PUSH2 0x1532 JUMP JUMPDEST PUSH1 0x40 MLOAD PUSH2 0x350 SWAP2 SWAP1 PUSH2 0x222C JUMP JUMPDEST PUSH1 0x40 MLOAD DUP1 SWAP2 SUB SWAP1 RETURN JUMPDEST CALLVALUE DUP1 ISZERO PUSH2 0x365 JUMPI PUSH1 0x0 DUP1 REVERT JUMPDEST POP PUSH2 0x380 PUSH1 0x4 DUP1 CALLDATASIZE SUB DUP2 ADD SWAP1 PUSH2 0x37B SWAP2 SWAP1 PUSH2 0x1B66 JUMP JUMPDEST PUSH2 0x1538 JUMP JUMPDEST PUSH1 0x40 MLOAD PUSH2 0x391 SWAP6 SWAP5 SWAP4 SWAP3 SWAP2 SWAP1 PUSH2 0x2333 JUMP JUMPDEST PUSH1 0x40 MLOAD DUP1 SWAP2 SUB SWAP1 RETURN JUMPDEST CALLVALUE DUP1 ISZERO PUSH2 0x3A6 JUMPI PUSH1 0x0 DUP1 REVERT JUMPDEST POP PUSH2 0x3AF PUSH2 0x158E JUMP JUMPDEST PUSH1 0x40 MLOAD PUSH2 0x3BC SWAP2 SWAP1 PUSH2 0x2054 JUMP JUMPDEST PUSH1 0x40 MLOAD DUP1 SWAP2 SUB SWAP1 RETURN JUMPDEST CALLVALUE DUP1 ISZERO PUSH2 0x3D1 JUMPI PUSH1 0x0 DUP1 REVERT JUMPDEST POP PUSH2 0x3EC PUSH1 0x4 DUP1 CALLDATASIZE SUB DUP2 ADD SWAP1 PUSH2 0x3E7 SWAP2 SWAP1 PUSH2 0x19C0 JUMP JUMPDEST PUSH2 0x15B4 JUMP JUMPDEST PUSH1 0x40 MLOAD PUSH2 0x3F9 SWAP2 SWAP1 PUSH2 0x2039 JUMP JUMPDEST PUSH1 0x40 MLOAD DUP1 SWAP2 SUB SWAP1 RETURN JUMPDEST CALLVALUE DUP1 ISZERO PUSH2 0x40E JUMPI PUSH1 0x0 DUP1 REVERT JUMPDEST POP PUSH2 0x429 PUSH1 0x4 DUP1 CALLDATASIZE SUB DUP2 ADD SWAP1 PUSH2 0x424 SWAP2 SWAP1 PUSH2 0x1B66 JUMP JUMPDEST PUSH2 0x15D4 JUMP JUMPDEST PUSH1 0x40 MLOAD PUSH2 0x43C SWAP8 SWAP7 SWAP6 SWAP5 SWAP4 SWAP3 SWAP2 SWAP1 PUSH2 0x2247 JUMP JUMPDEST PUSH1 0x40 MLOAD DUP1 SWAP2 SUB SWAP1 RETURN JUMPDEST CALLVALUE DUP1 ISZERO PUSH2 0x451 JUMPI PUSH1 0x0 DUP1 REVERT JUMPDEST POP PUSH2 0x45A PUSH2 0x16BE JUMP JUMPDEST PUSH1 0x40 MLOAD PUSH2 0x467 SWAP2 SWAP1 PUSH2 0x201E JUMP JUMPDEST PUSH1 0x40 MLOAD DUP1 SWAP2 SUB SWAP1 RETURN JUMPDEST CALLVALUE DUP1 ISZERO PUSH2 0x47C JUMPI PUSH1 0x0 DUP1 REVERT JUMPDEST POP PUSH2 0x485 PUSH2 0x16E2 JUMP JUMPDEST PUSH1 0x40 MLOAD PUSH2 0x492 SWAP2 SWAP1 PUSH2 0x2039 JUMP JUMPDEST PUSH1 0x40 MLOAD DUP1 SWAP2 SUB SWAP1 RETURN JUMPDEST PUSH1 0x9 SLOAD DUP2 JUMP JUMPDEST PUSH2 0x4A9 PUSH2 0x1742 JUMP JUMPDEST PUSH1 0x1 ISZERO ISZERO PUSH1 0x1 PUSH1 0x0 CALLER PUSH20 0xFFFFFFFFFFFFFFFFFFFFFFFFFFFFFFFFFFFFFFFF AND PUSH20 0xFFFFFFFFFFFFFFFFFFFFFFFFFFFFFFFFFFFFFFFF AND DUP2 MSTORE PUSH1 0x20 ADD SWAP1 DUP2 MSTORE PUSH1 0x20 ADD PUSH1 0x0 KECCAK256 PUSH1 0x0 SWAP1 SLOAD SWAP1 PUSH2 0x100 EXP SWAP1 DIV PUSH1 0xFF AND ISZERO ISZERO EQ PUSH2 0x53C JUMPI PUSH1 0x40 MLOAD PUSH32 0x8C379A000000000000000000000000000000000000000000000000000000000 DUP2 MSTORE PUSH1 0x4 ADD PUSH2 0x533 SWAP1 PUSH2 0x20AD JUMP JUMPDEST PUSH1 0x40 MLOAD DUP1 SWAP2 SUB SWAP1 REVERT JUMPDEST PUSH1 0x5 SLOAD DUP3 GT ISZERO DUP1 ISZERO PUSH2 0x54E JUMPI POP PUSH1 0x0 DUP3 GT JUMPDEST PUSH2 0x58D JUMPI PUSH1 0x40 MLOAD PUSH32 0x8C379A000000000000000000000000000000000000000000000000000000000 DUP2 MSTORE PUSH1 0x4 ADD PUSH2 0x584 SWAP1 PUSH2 0x212D JUMP JUMPDEST PUSH1 0x40 MLOAD DUP1 SWAP2 SUB SWAP1 REVERT JUMPDEST PUSH1 0x6 PUSH1 0x0 DUP4 DUP2 MSTORE PUSH1 0x20 ADD SWAP1 DUP2 MSTORE PUSH1 0x20 ADD PUSH1 0x0 KECCAK256 PUSH1 0x1 ADD PUSH1 0x0 SWAP1 SLOAD SWAP1 PUSH2 0x100 EXP SWAP1 DIV PUSH20 0xFFFFFFFFFFFFFFFFFFFFFFFFFFFFFFFFFFFFFFFF AND PUSH20 0xFFFFFFFFFFFFFFFFFFFFFFFFFFFFFFFFFFFFFFFF AND CALLER PUSH20 0xFFFFFFFFFFFFFFFFFFFFFFFFFFFFFFFFFFFFFFFF AND EQ PUSH2 0x631 JUMPI PUSH1 0x40 MLOAD PUSH32 0x8C379A000000000000000000000000000000000000000000000000000000000 DUP2 MSTORE PUSH1 0x4 ADD PUSH2 0x628 SWAP1 PUSH2 0x21AD JUMP JUMPDEST PUSH1 0x40 MLOAD DUP1 SWAP2 SUB SWAP1 REVERT JUMPDEST PUSH32 0xFFFFFFFFFFFFFFFFFFFFFFFFFFFFFFFFFFFFFFFFFFFFFFFFFFFFFFFFFFFFFFFF PUSH1 0x6 PUSH1 0x0 DUP5 DUP2 MSTORE PUSH1 0x20 ADD SWAP1 DUP2 MSTORE PUSH1 0x20 ADD PUSH1 0x0 KECCAK256 PUSH1 0x6 ADD SLOAD EQ PUSH2 0x6A9 JUMPI PUSH1 0x40 MLOAD PUSH32 0x8C379A000000000000000000000000000000000000000000000000000000000 DUP2 MSTORE PUSH1 0x4 ADD PUSH2 0x6A0 SWAP1 PUSH2 0x210D JUMP JUMPDEST PUSH1 0x40 MLOAD DUP1 SWAP2 SUB SWAP1 REVERT JUMPDEST PUSH1 0x0 PUSH1 0x6 PUSH1 0x0 DUP5 DUP2 MSTORE PUSH1 0x20 ADD SWAP1 DUP2 MSTORE PUSH1 0x20 ADD PUSH1 0x0 KECCAK256 PUSH1 0x2 ADD DUP1 SLOAD PUSH2 0x6CC SWAP1 PUSH2 0x25F3 JUMP JUMPDEST DUP1 PUSH1 0x1F ADD PUSH1 0x20 DUP1 SWAP2 DIV MUL PUSH1 0x20 ADD PUSH1 0x40 MLOAD SWAP1 DUP2 ADD PUSH1 0x40 MSTORE DUP1 SWAP3 SWAP2 SWAP1 DUP2 DUP2 MSTORE PUSH1 0x20 ADD DUP3 DUP1 SLOAD PUSH2 0x6F8 SWAP1 PUSH2 0x25F3 JUMP JUMPDEST DUP1 ISZERO PUSH2 0x745 JUMPI DUP1 PUSH1 0x1F LT PUSH2 0x71A JUMPI PUSH2 0x100 DUP1 DUP4 SLOAD DIV MUL DUP4 MSTORE SWAP2 PUSH1 0x20 ADD SWAP2 PUSH2 0x745 JUMP JUMPDEST DUP3 ADD SWAP2 SWAP1 PUSH1 0x0 MSTORE PUSH1 0x20 PUSH1 0x0 KECCAK256 SWAP1 JUMPDEST DUP2 SLOAD DUP2 MSTORE SWAP1 PUSH1 0x1 ADD SWAP1 PUSH1 0x20 ADD DUP1 DUP4 GT PUSH2 0x728 JUMPI DUP3 SWAP1 SUB PUSH1 0x1F AND DUP3 ADD SWAP2 JUMPDEST POP POP POP POP POP SWAP1 POP PUSH1 0x0 PUSH1 0x6 PUSH1 0x0 DUP6 DUP2 MSTORE PUSH1 0x20 ADD SWAP1 DUP2 MSTORE PUSH1 0x20 ADD PUSH1 0x0 KECCAK256 PUSH1 0x5 ADD SLOAD SWAP1 POP PUSH1 0x1 PUSH1 0x2 PUSH1 0x0 CALLER PUSH20 0xFFFFFFFFFFFFFFFFFFFFFFFFFFFFFFFFFFFFFFFF AND PUSH20 0xFFFFFFFFFFFFFFFFFFFFFFFFFFFFFFFFFFFFFFFF AND DUP2 MSTORE PUSH1 0x20 ADD SWAP1 DUP2 MSTORE PUSH1 0x20 ADD PUSH1 0x0 KECCAK256 DUP4 PUSH1 0x40 MLOAD PUSH2 0x7B6 SWAP2 SWAP1 PUSH2 0x2007 JUMP JUMPDEST SWAP1 DUP2 MSTORE PUSH1 0x20 ADD PUSH1 0x40 MLOAD DUP1 SWAP2 SUB SWAP1 KECCAK256 PUSH1 0x0 DUP3 DUP3 SLOAD PUSH2 0x7D3 SWAP2 SWAP1 PUSH2 0x24F5 JUMP JUMPDEST SWAP3 POP POP DUP2 SWAP1 SSTORE POP PUSH1 0x1 PUSH1 0x4 DUP4 PUSH1 0x40 MLOAD PUSH2 0x7EC SWAP2 SWAP1 PUSH2 0x2007 JUMP JUMPDEST SWAP1 DUP2 MSTORE PUSH1 0x20 ADD PUSH1 0x40 MLOAD DUP1 SWAP2 SUB SWAP1 KECCAK256 PUSH1 0x0 DUP3 DUP3 SLOAD PUSH2 0x809 SWAP2 SWAP1 PUSH2 0x2414 JUMP JUMPDEST SWAP3 POP POP DUP2 SWAP1 SSTORE POP PUSH1 0x0 TIMESTAMP SWAP1 POP PUSH1 0x0 DUP3 DUP3 PUSH2 0x823 SWAP2 SWAP1 PUSH2 0x24F5 JUMP JUMPDEST SWAP1 POP PUSH1 0x0 PUSH1 0x1 PUSH1 0x18 PUSH1 0x3C DUP1 DUP6 PUSH2 0x839 SWAP2 SWAP1 PUSH2 0x246A JUMP JUMPDEST PUSH2 0x843 SWAP2 SWAP1 PUSH2 0x246A JUMP JUMPDEST PUSH2 0x84D SWAP2 SWAP1 PUSH2 0x246A JUMP JUMPDEST PUSH2 0x857 SWAP2 SWAP1 PUSH2 0x2414 JUMP JUMPDEST SWAP1 POP PUSH1 0x0 PUSH1 0x3 DUP7 PUSH1 0x40 MLOAD PUSH2 0x86B SWAP2 SWAP1 PUSH2 0x2007 JUMP JUMPDEST SWAP1 DUP2 MSTORE PUSH1 0x20 ADD PUSH1 0x40 MLOAD DUP1 SWAP2 SUB SWAP1 KECCAK256 PUSH1 0x2 ADD SLOAD DUP3 PUSH2 0x888 SWAP2 SWAP1 PUSH2 0x249B JUMP JUMPDEST SWAP1 POP PUSH1 0x0 PUSH1 0x40 MLOAD DUP1 PUSH1 0xE0 ADD PUSH1 0x40 MSTORE DUP1 PUSH1 0x7 SLOAD DUP2 MSTORE PUSH1 0x20 ADD DUP11 DUP2 MSTORE PUSH1 0x20 ADD CALLER PUSH20 0xFFFFFFFFFFFFFFFFFFFFFFFFFFFFFFFFFFFFFFFF AND DUP2 MSTORE PUSH1 0x20 ADD DUP9 DUP2 MSTORE PUSH1 0x20 ADD DUP7 DUP2 MSTORE PUSH1 0x20 ADD DUP4 DUP2 MSTORE PUSH1 0x20 ADD PUSH32 0xFFFFFFFFFFFFFFFFFFFFFFFFFFFFFFFFFFFFFFFFFFFFFFFFFFFFFFFFFFFFFFFF DUP2 MSTORE POP SWAP1 POP DUP1 PUSH1 0x8 PUSH1 0x0 PUSH1 0x7 SLOAD DUP2 MSTORE PUSH1 0x20 ADD SWAP1 DUP2 MSTORE PUSH1 0x20 ADD PUSH1 0x0 KECCAK256 PUSH1 0x0 DUP3 ADD MLOAD DUP2 PUSH1 0x0 ADD SSTORE PUSH1 0x20 DUP3 ADD MLOAD DUP2 PUSH1 0x1 ADD SSTORE PUSH1 0x40 DUP3 ADD MLOAD DUP2 PUSH1 0x2 ADD PUSH1 0x0 PUSH2 0x100 EXP DUP2 SLOAD DUP2 PUSH20 0xFFFFFFFFFFFFFFFFFFFFFFFFFFFFFFFFFFFFFFFF MUL NOT AND SWAP1 DUP4 PUSH20 0xFFFFFFFFFFFFFFFFFFFFFFFFFFFFFFFFFFFFFFFF AND MUL OR SWAP1 SSTORE POP PUSH1 0x60 DUP3 ADD MLOAD DUP2 PUSH1 0x3 ADD SWAP1 DUP1 MLOAD SWAP1 PUSH1 0x20 ADD SWAP1 PUSH2 0x986 SWAP3 SWAP2 SWAP1 PUSH2 0x1795 JUMP JUMPDEST POP PUSH1 0x80 DUP3 ADD MLOAD DUP2 PUSH1 0x4 ADD SSTORE PUSH1 0xA0 DUP3 ADD MLOAD DUP2 PUSH1 0x5 ADD SSTORE PUSH1 0xC0 DUP3 ADD MLOAD DUP2 PUSH1 0x6 ADD SSTORE SWAP1 POP POP PUSH1 0x7 SLOAD PUSH1 0x6 PUSH1 0x0 DUP12 DUP2 MSTORE PUSH1 0x20 ADD SWAP1 DUP2 MSTORE PUSH1 0x20 ADD PUSH1 0x0 KECCAK256 PUSH1 0x6 ADD DUP2 SWAP1 SSTORE POP PUSH1 0x1 PUSH1 0x7 PUSH1 0x0 DUP3 DUP3 SLOAD PUSH2 0x9D8 SWAP2 SWAP1 PUSH2 0x2414 JUMP JUMPDEST SWAP3 POP POP DUP2 SWAP1 SSTORE POP DUP1 SWAP8 POP POP POP POP POP POP POP POP SWAP2 SWAP1 POP JUMP JUMPDEST PUSH1 0x3 DUP2 DUP1 MLOAD PUSH1 0x20 DUP2 ADD DUP3 ADD DUP1 MLOAD DUP5 DUP3 MSTORE PUSH1 0x20 DUP4 ADD PUSH1 0x20 DUP6 ADD KECCAK256 DUP2 DUP4 MSTORE DUP1 SWAP6 POP POP POP POP POP POP PUSH1 0x0 SWAP2 POP SWAP1 POP DUP1 PUSH1 0x0 ADD DUP1 SLOAD PUSH2 0xA27 SWAP1 PUSH2 0x25F3 JUMP JUMPDEST DUP1 PUSH1 0x1F ADD PUSH1 0x20 DUP1 SWAP2 DIV MUL PUSH1 0x20 ADD PUSH1 0x40 MLOAD SWAP1 DUP2 ADD PUSH1 0x40 MSTORE DUP1 SWAP3 SWAP2 SWAP1 DUP2 DUP2 MSTORE PUSH1 0x20 ADD DUP3 DUP1 SLOAD PUSH2 0xA53 SWAP1 PUSH2 0x25F3 JUMP JUMPDEST DUP1 ISZERO PUSH2 0xAA0 JUMPI DUP1 PUSH1 0x1F LT PUSH2 0xA75 JUMPI PUSH2 0x100 DUP1 DUP4 SLOAD DIV MUL DUP4 MSTORE SWAP2 PUSH1 0x20 ADD SWAP2 PUSH2 0xAA0 JUMP JUMPDEST DUP3 ADD SWAP2 SWAP1 PUSH1 0x0 MSTORE PUSH1 0x20 PUSH1 0x0 KECCAK256 SWAP1 JUMPDEST DUP2 SLOAD DUP2 MSTORE SWAP1 PUSH1 0x1 ADD SWAP1 PUSH1 0x20 ADD DUP1 DUP4 GT PUSH2 0xA83 JUMPI DUP3 SWAP1 SUB PUSH1 0x1F AND DUP3 ADD SWAP2 JUMPDEST POP POP POP POP POP SWAP1 DUP1 PUSH1 0x1 ADD SLOAD SWAP1 DUP1 PUSH1 0x2 ADD SLOAD SWAP1 POP DUP4 JUMP JUMPDEST PUSH1 0x2 PUSH1 0x20 MSTORE DUP2 PUSH1 0x0 MSTORE PUSH1 0x40 PUSH1 0x0 KECCAK256 DUP2 DUP1 MLOAD PUSH1 0x20 DUP2 ADD DUP3 ADD DUP1 MLOAD DUP5 DUP3 MSTORE PUSH1 0x20 DUP4 ADD PUSH1 0x20 DUP6 ADD KECCAK256 DUP2 DUP4 MSTORE DUP1 SWAP6 POP POP POP POP POP POP PUSH1 0x0 SWAP2 POP SWAP2 POP POP SLOAD DUP2 JUMP JUMPDEST PUSH1 0x8 PUSH1 0x20 MSTORE DUP1 PUSH1 0x0 MSTORE PUSH1 0x40 PUSH1 0x0 KECCAK256 PUSH1 0x0 SWAP2 POP SWAP1 POP DUP1 PUSH1 0x0 ADD SLOAD SWAP1 DUP1 PUSH1 0x1 ADD SLOAD SWAP1 DUP1 PUSH1 0x2 ADD PUSH1 0x0 SWAP1 SLOAD SWAP1 PUSH2 0x100 EXP SWAP1 DIV PUSH20 0xFFFFFFFFFFFFFFFFFFFFFFFFFFFFFFFFFFFFFFFF AND SWAP1 DUP1 PUSH1 0x3 ADD DUP1 SLOAD PUSH2 0xB46 SWAP1 PUSH2 0x25F3 JUMP JUMPDEST DUP1 PUSH1 0x1F ADD PUSH1 0x20 DUP1 SWAP2 DIV MUL PUSH1 0x20 ADD PUSH1 0x40 MLOAD SWAP1 DUP2 ADD PUSH1 0x40 MSTORE DUP1 SWAP3 SWAP2 SWAP1 DUP2 DUP2 MSTORE PUSH1 0x20 ADD DUP3 DUP1 SLOAD PUSH2 0xB72 SWAP1 PUSH2 0x25F3 JUMP JUMPDEST DUP1 ISZERO PUSH2 0xBBF JUMPI DUP1 PUSH1 0x1F LT PUSH2 0xB94 JUMPI PUSH2 0x100 DUP1 DUP4 SLOAD DIV MUL DUP4 MSTORE SWAP2 PUSH1 0x20 ADD SWAP2 PUSH2 0xBBF JUMP JUMPDEST DUP3 ADD SWAP2 SWAP1 PUSH1 0x0 MSTORE PUSH1 0x20 PUSH1 0x0 KECCAK256 SWAP1 JUMPDEST DUP2 SLOAD DUP2 MSTORE SWAP1 PUSH1 0x1 ADD SWAP1 PUSH1 0x20 ADD DUP1 DUP4 GT PUSH2 0xBA2 JUMPI DUP3 SWAP1 SUB PUSH1 0x1F AND DUP3 ADD SWAP2 JUMPDEST POP POP POP POP POP SWAP1 DUP1 PUSH1 0x4 ADD SLOAD SWAP1 DUP1 PUSH1 0x5 ADD SLOAD SWAP1 DUP1 PUSH1 0x6 ADD SLOAD SWAP1 POP DUP8 JUMP JUMPDEST PUSH2 0xBE3 PUSH2 0x181B JUMP JUMPDEST PUSH1 0x0 DUP1 SLOAD SWAP1 PUSH2 0x100 EXP SWAP1 DIV PUSH20 0xFFFFFFFFFFFFFFFFFFFFFFFFFFFFFFFFFFFFFFFF AND PUSH20 0xFFFFFFFFFFFFFFFFFFFFFFFFFFFFFFFFFFFFFFFF AND CALLER PUSH20 0xFFFFFFFFFFFFFFFFFFFFFFFFFFFFFFFFFFFFFFFF AND EQ PUSH2 0xC71 JUMPI PUSH1 0x40 MLOAD PUSH32 0x8C379A000000000000000000000000000000000000000000000000000000000 DUP2 MSTORE PUSH1 0x4 ADD PUSH2 0xC68 SWAP1 PUSH2 0x218D JUMP JUMPDEST PUSH1 0x40 MLOAD DUP1 SWAP2 SUB SWAP1 REVERT JUMPDEST PUSH1 0x7 SLOAD DUP4 GT ISZERO DUP1 ISZERO PUSH2 0xC83 JUMPI POP PUSH1 0x0 DUP4 GT JUMPDEST PUSH2 0xCC2 JUMPI PUSH1 0x40 MLOAD PUSH32 0x8C379A000000000000000000000000000000000000000000000000000000000 DUP2 MSTORE PUSH1 0x4 ADD PUSH2 0xCB9 SWAP1 PUSH2 0x216D JUMP JUMPDEST PUSH1 0x40 MLOAD DUP1 SWAP2 SUB SWAP1 REVERT JUMPDEST PUSH32 0xFFFFFFFFFFFFFFFFFFFFFFFFFFFFFFFFFFFFFFFFFFFFFFFFFFFFFFFFFFFFFFFF PUSH1 0x8 PUSH1 0x0 DUP6 DUP2 MSTORE PUSH1 0x20 ADD SWAP1 DUP2 MSTORE PUSH1 0x20 ADD PUSH1 0x0 KECCAK256 PUSH1 0x6 ADD SLOAD EQ PUSH2 0xD3A JUMPI PUSH1 0x40 MLOAD PUSH32 0x8C379A000000000000000000000000000000000000000000000000000000000 DUP2 MSTORE PUSH1 0x4 ADD PUSH2 0xD31 SWAP1 PUSH2 0x20CD JUMP JUMPDEST PUSH1 0x40 MLOAD DUP1 SWAP2 SUB SWAP1 REVERT JUMPDEST PUSH1 0x0 PUSH1 0x8 PUSH1 0x0 DUP6 DUP2 MSTORE PUSH1 0x20 ADD SWAP1 DUP2 MSTORE PUSH1 0x20 ADD PUSH1 0x0 KECCAK256 PUSH1 0x2 ADD PUSH1 0x0 SWAP1 SLOAD SWAP1 PUSH2 0x100 EXP SWAP1 DIV PUSH20 0xFFFFFFFFFFFFFFFFFFFFFFFFFFFFFFFFFFFFFFFF AND SWAP1 POP PUSH1 0x0 PUSH1 0x6 PUSH1 0x0 PUSH1 0x8 PUSH1 0x0 DUP9 DUP2 MSTORE PUSH1 0x20 ADD SWAP1 DUP2 MSTORE PUSH1 0x20 ADD PUSH1 0x0 KECCAK256 PUSH1 0x1 ADD SLOAD DUP2 MSTORE PUSH1 0x20 ADD SWAP1 DUP2 MSTORE PUSH1 0x20 ADD PUSH1 0x0 KECCAK256 PUSH1 0x4 ADD SLOAD SWAP1 POP PUSH1 0x0 PUSH1 0x8 PUSH1 0x0 DUP8 DUP2 MSTORE PUSH1 0x20 ADD SWAP1 DUP2 MSTORE PUSH1 0x20 ADD PUSH1 0x0 KECCAK256 PUSH1 0x5 ADD SLOAD SWAP1 POP PUSH1 0x0 DUP6 DUP3 DUP5 PUSH2 0xDD0 SWAP2 SWAP1 PUSH2 0x24F5 JUMP JUMPDEST PUSH2 0xDDA SWAP2 SWAP1 PUSH2 0x24F5 JUMP JUMPDEST SWAP1 POP DUP4 PUSH20 0xFFFFFFFFFFFFFFFFFFFFFFFFFFFFFFFFFFFFFFFF AND PUSH2 0x8FC DUP3 SWAP1 DUP2 ISZERO MUL SWAP1 PUSH1 0x40 MLOAD PUSH1 0x0 PUSH1 0x40 MLOAD DUP1 DUP4 SUB DUP2 DUP6 DUP9 DUP9 CALL SWAP4 POP POP POP POP ISZERO DUP1 ISZERO PUSH2 0xE22 JUMPI RETURNDATASIZE PUSH1 0x0 DUP1 RETURNDATACOPY RETURNDATASIZE PUSH1 0x0 REVERT JUMPDEST POP PUSH1 0x0 PUSH1 0x40 MLOAD DUP1 PUSH1 0xA0 ADD PUSH1 0x40 MSTORE DUP1 PUSH1 0x9 SLOAD DUP2 MSTORE PUSH1 0x20 ADD DUP10 DUP2 MSTORE PUSH1 0x20 ADD DUP7 PUSH20 0xFFFFFFFFFFFFFFFFFFFFFFFFFFFFFFFFFFFFFFFF AND DUP2 MSTORE PUSH1 0x20 ADD DUP9 DUP2 MSTORE PUSH1 0x20 ADD DUP4 DUP2 MSTORE POP SWAP1 POP DUP1 PUSH1 0xA PUSH1 0x0 PUSH1 0x9 SLOAD DUP2 MSTORE PUSH1 0x20 ADD SWAP1 DUP2 MSTORE PUSH1 0x20 ADD PUSH1 0x0 KECCAK256 PUSH1 0x0 DUP3 ADD MLOAD DUP2 PUSH1 0x0 ADD SSTORE PUSH1 0x20 DUP3 ADD MLOAD DUP2 PUSH1 0x1 ADD SSTORE PUSH1 0x40 DUP3 ADD MLOAD DUP2 PUSH1 0x2 ADD PUSH1 0x0 PUSH2 0x100 EXP DUP2 SLOAD DUP2 PUSH20 0xFFFFFFFFFFFFFFFFFFFFFFFFFFFFFFFFFFFFFFFF MUL NOT AND SWAP1 DUP4 PUSH20 0xFFFFFFFFFFFFFFFFFFFFFFFFFFFFFFFFFFFFFFFF AND MUL OR SWAP1 SSTORE POP PUSH1 0x60 DUP3 ADD MLOAD DUP2 PUSH1 0x3 ADD SSTORE PUSH1 0x80 DUP3 ADD MLOAD DUP2 PUSH1 0x4 ADD SSTORE SWAP1 POP POP PUSH1 0x9 SLOAD PUSH1 0x8 PUSH1 0x0 DUP11 DUP2 MSTORE PUSH1 0x20 ADD SWAP1 DUP2 MSTORE PUSH1 0x20 ADD PUSH1 0x0 KECCAK256 PUSH1 0x6 ADD DUP2 SWAP1 SSTORE POP PUSH1 0x1 PUSH1 0x9 PUSH1 0x0 DUP3 DUP3 SLOAD PUSH2 0xF1E SWAP2 SWAP1 PUSH2 0x2414 JUMP JUMPDEST SWAP3 POP POP DUP2 SWAP1 SSTORE POP DUP1 SWAP6 POP POP POP POP POP POP SWAP3 SWAP2 POP POP JUMP JUMPDEST PUSH1 0x7 SLOAD DUP2 JUMP JUMPDEST PUSH1 0x4 DUP2 DUP1 MLOAD PUSH1 0x20 DUP2 ADD DUP3 ADD DUP1 MLOAD DUP5 DUP3 MSTORE PUSH1 0x20 DUP4 ADD PUSH1 0x20 DUP6 ADD KECCAK256 DUP2 DUP4 MSTORE DUP1 SWAP6 POP POP POP POP POP POP PUSH1 0x0 SWAP2 POP SWAP1 POP SLOAD DUP2 JUMP JUMPDEST PUSH2 0xF6F PUSH2 0x1860 JUMP JUMPDEST PUSH1 0x1 ISZERO ISZERO PUSH1 0x1 PUSH1 0x0 CALLER PUSH20 0xFFFFFFFFFFFFFFFFFFFFFFFFFFFFFFFFFFFFFFFF AND PUSH20 0xFFFFFFFFFFFFFFFFFFFFFFFFFFFFFFFFFFFFFFFF AND DUP2 MSTORE PUSH1 0x20 ADD SWAP1 DUP2 MSTORE PUSH1 0x20 ADD PUSH1 0x0 KECCAK256 PUSH1 0x0 SWAP1 SLOAD SWAP1 PUSH2 0x100 EXP SWAP1 DIV PUSH1 0xFF AND ISZERO ISZERO EQ PUSH2 0x1002 JUMPI PUSH1 0x40 MLOAD PUSH32 0x8C379A000000000000000000000000000000000000000000000000000000000 DUP2 MSTORE PUSH1 0x4 ADD PUSH2 0xFF9 SWAP1 PUSH2 0x20AD JUMP JUMPDEST PUSH1 0x40 MLOAD DUP1 SWAP2 SUB SWAP1 REVERT JUMPDEST PUSH1 0x0 PUSH1 0x4 DUP6 DUP6 PUSH1 0x40 MLOAD PUSH2 0x1016 SWAP3 SWAP2 SWAP1 PUSH2 0x1FEE JUMP JUMPDEST SWAP1 DUP2 MSTORE PUSH1 0x20 ADD PUSH1 0x40 MLOAD DUP1 SWAP2 SUB SWAP1 KECCAK256 SLOAD GT PUSH2 0x1065 JUMPI PUSH1 0x40 MLOAD PUSH32 0x8C379A000000000000000000000000000000000000000000000000000000000 DUP2 MSTORE PUSH1 0x4 ADD PUSH2 0x105C SWAP1 PUSH2 0x20ED JUMP JUMPDEST PUSH1 0x40 MLOAD DUP1 SWAP2 SUB SWAP1 REVERT JUMPDEST PUSH1 0x3 DUP5 DUP5 PUSH1 0x40 MLOAD PUSH2 0x1077 SWAP3 SWAP2 SWAP1 PUSH2 0x1FEE JUMP JUMPDEST SWAP1 DUP2 MSTORE PUSH1 0x20 ADD PUSH1 0x40 MLOAD DUP1 SWAP2 SUB SWAP1 KECCAK256 PUSH1 0x2 ADD SLOAD DUP3 PUSH2 0x1094 SWAP2 SWAP1 PUSH2 0x249B JUMP JUMPDEST PUSH1 0x3 DUP6 DUP6 PUSH1 0x40 MLOAD PUSH2 0x10A6 SWAP3 SWAP2 SWAP1 PUSH2 0x1FEE JUMP JUMPDEST SWAP1 DUP2 MSTORE PUSH1 0x20 ADD PUSH1 0x40 MLOAD DUP1 SWAP2 SUB SWAP1 KECCAK256 PUSH1 0x1 ADD SLOAD PUSH2 0x10C2 SWAP2 SWAP1 PUSH2 0x2414 JUMP JUMPDEST CALLVALUE LT ISZERO PUSH2 0x1104 JUMPI PUSH1 0x40 MLOAD PUSH32 0x8C379A000000000000000000000000000000000000000000000000000000000 DUP2 MSTORE PUSH1 0x4 ADD PUSH2 0x10FB SWAP1 PUSH2 0x214D JUMP JUMPDEST PUSH1 0x40 MLOAD DUP1 SWAP2 SUB SWAP1 REVERT JUMPDEST PUSH1 0x1 PUSH1 0x2 PUSH1 0x0 CALLER PUSH20 0xFFFFFFFFFFFFFFFFFFFFFFFFFFFFFFFFFFFFFFFF AND PUSH20 0xFFFFFFFFFFFFFFFFFFFFFFFFFFFFFFFFFFFFFFFF AND DUP2 MSTORE PUSH1 0x20 ADD SWAP1 DUP2 MSTORE PUSH1 0x20 ADD PUSH1 0x0 KECCAK256 DUP6 DUP6 PUSH1 0x40 MLOAD PUSH2 0x1155 SWAP3 SWAP2 SWAP1 PUSH2 0x1FEE JUMP JUMPDEST SWAP1 DUP2 MSTORE PUSH1 0x20 ADD PUSH1 0x40 MLOAD DUP1 SWAP2 SUB SWAP1 KECCAK256 PUSH1 0x0 DUP3 DUP3 SLOAD PUSH2 0x1172 SWAP2 SWAP1 PUSH2 0x2414 JUMP JUMPDEST SWAP3 POP POP DUP2 SWAP1 SSTORE POP PUSH1 0x1 PUSH1 0x4 DUP6 DUP6 PUSH1 0x40 MLOAD PUSH2 0x118D SWAP3 SWAP2 SWAP1 PUSH2 0x1FEE JUMP JUMPDEST SWAP1 DUP2 MSTORE PUSH1 0x20 ADD PUSH1 0x40 MLOAD DUP1 SWAP2 SUB SWAP1 KECCAK256 PUSH1 0x0 DUP3 DUP3 SLOAD PUSH2 0x11AA SWAP2 SWAP1 PUSH2 0x24F5 JUMP JUMPDEST SWAP3 POP POP DUP2 SWAP1 SSTORE POP PUSH1 0x0 PUSH1 0x40 MLOAD DUP1 PUSH1 0xE0 ADD PUSH1 0x40 MSTORE DUP1 PUSH1 0x5 SLOAD DUP2 MSTORE PUSH1 0x20 ADD CALLER PUSH20 0xFFFFFFFFFFFFFFFFFFFFFFFFFFFFFFFFFFFFFFFF AND DUP2 MSTORE PUSH1 0x20 ADD DUP7 DUP7 DUP1 DUP1 PUSH1 0x1F ADD PUSH1 0x20 DUP1 SWAP2 DIV MUL PUSH1 0x20 ADD PUSH1 0x40 MLOAD SWAP1 DUP2 ADD PUSH1 0x40 MSTORE DUP1 SWAP4 SWAP3 SWAP2 SWAP1 DUP2 DUP2 MSTORE PUSH1 0x20 ADD DUP4 DUP4 DUP1 DUP3 DUP5 CALLDATACOPY PUSH1 0x0 DUP2 DUP5 ADD MSTORE PUSH1 0x1F NOT PUSH1 0x1F DUP3 ADD AND SWAP1 POP DUP1 DUP4 ADD SWAP3 POP POP POP POP POP POP POP DUP2 MSTORE PUSH1 0x20 ADD DUP5 DUP2 MSTORE PUSH1 0x20 ADD CALLVALUE DUP2 MSTORE PUSH1 0x20 ADD TIMESTAMP DUP2 MSTORE PUSH1 0x20 ADD PUSH32 0xFFFFFFFFFFFFFFFFFFFFFFFFFFFFFFFFFFFFFFFFFFFFFFFFFFFFFFFFFFFFFFFF DUP2 MSTORE POP SWAP1 POP DUP1 PUSH1 0x6 PUSH1 0x0 PUSH1 0x5 SLOAD DUP2 MSTORE PUSH1 0x20 ADD SWAP1 DUP2 MSTORE PUSH1 0x20 ADD PUSH1 0x0 KECCAK256 PUSH1 0x0 DUP3 ADD MLOAD DUP2 PUSH1 0x0 ADD SSTORE PUSH1 0x20 DUP3 ADD MLOAD DUP2 PUSH1 0x1 ADD PUSH1 0x0 PUSH2 0x100 EXP DUP2 SLOAD DUP2 PUSH20 0xFFFFFFFFFFFFFFFFFFFFFFFFFFFFFFFFFFFFFFFF MUL NOT AND SWAP1 DUP4 PUSH20 0xFFFFFFFFFFFFFFFFFFFFFFFFFFFFFFFFFFFFFFFF AND MUL OR SWAP1 SSTORE POP PUSH1 0x40 DUP3 ADD MLOAD DUP2 PUSH1 0x2 ADD SWAP1 DUP1 MLOAD SWAP1 PUSH1 0x20 ADD SWAP1 PUSH2 0x12E7 SWAP3 SWAP2 SWAP1 PUSH2 0x1795 JUMP JUMPDEST POP PUSH1 0x60 DUP3 ADD MLOAD DUP2 PUSH1 0x3 ADD SSTORE PUSH1 0x80 DUP3 ADD MLOAD DUP2 PUSH1 0x4 ADD SSTORE PUSH1 0xA0 DUP3 ADD MLOAD DUP2 PUSH1 0x5 ADD SSTORE PUSH1 0xC0 DUP3 ADD MLOAD DUP2 PUSH1 0x6 ADD SSTORE SWAP1 POP POP PUSH1 0x1 PUSH1 0x5 PUSH1 0x0 DUP3 DUP3 SLOAD PUSH2 0x1326 SWAP2 SWAP1 PUSH2 0x2414 JUMP JUMPDEST SWAP3 POP POP DUP2 SWAP1 SSTORE POP PUSH1 0x0 DUP1 SLOAD SWAP1 PUSH2 0x100 EXP SWAP1 DIV PUSH20 0xFFFFFFFFFFFFFFFFFFFFFFFFFFFFFFFFFFFFFFFF AND PUSH20 0xFFFFFFFFFFFFFFFFFFFFFFFFFFFFFFFFFFFFFFFF AND PUSH2 0x8FC CALLVALUE SWAP1 DUP2 ISZERO MUL SWAP1 PUSH1 0x40 MLOAD PUSH1 0x0 PUSH1 0x40 MLOAD DUP1 DUP4 SUB DUP2 DUP6 DUP9 DUP9 CALL SWAP4 POP POP POP POP ISZERO DUP1 ISZERO PUSH2 0x1393 JUMPI RETURNDATASIZE PUSH1 0x0 DUP1 RETURNDATACOPY RETURNDATASIZE PUSH1 0x0 REVERT JUMPDEST POP DUP1 SWAP2 POP POP SWAP4 SWAP3 POP POP POP JUMP JUMPDEST PUSH1 0x0 DUP1 PUSH1 0x0 SWAP1 SLOAD SWAP1 PUSH2 0x100 EXP SWAP1 DIV PUSH20 0xFFFFFFFFFFFFFFFFFFFFFFFFFFFFFFFFFFFFFFFF AND PUSH20 0xFFFFFFFFFFFFFFFFFFFFFFFFFFFFFFFFFFFFFFFF AND CALLER PUSH20 0xFFFFFFFFFFFFFFFFFFFFFFFFFFFFFFFFFFFFFFFF AND EQ PUSH2 0x1430 JUMPI PUSH1 0x40 MLOAD PUSH32 0x8C379A000000000000000000000000000000000000000000000000000000000 DUP2 MSTORE PUSH1 0x4 ADD PUSH2 0x1427 SWAP1 PUSH2 0x218D JUMP JUMPDEST PUSH1 0x40 MLOAD DUP1 SWAP2 SUB SWAP1 REVERT JUMPDEST PUSH1 0x40 MLOAD DUP1 PUSH1 0x60 ADD PUSH1 0x40 MSTORE DUP1 DUP7 DUP7 DUP1 DUP1 PUSH1 0x1F ADD PUSH1 0x20 DUP1 SWAP2 DIV MUL PUSH1 0x20 ADD PUSH1 0x40 MLOAD SWAP1 DUP2 ADD PUSH1 0x40 MSTORE DUP1 SWAP4 SWAP3 SWAP2 SWAP1 DUP2 DUP2 MSTORE PUSH1 0x20 ADD DUP4 DUP4 DUP1 DUP3 DUP5 CALLDATACOPY PUSH1 0x0 DUP2 DUP5 ADD MSTORE PUSH1 0x1F NOT PUSH1 0x1F DUP3 ADD AND SWAP1 POP DUP1 DUP4 ADD SWAP3 POP POP POP POP POP POP POP DUP2 MSTORE PUSH1 0x20 ADD PUSH1 0x5A DUP6 PUSH2 0x1492 SWAP2 SWAP1 PUSH2 0x249B JUMP JUMPDEST DUP2 MSTORE PUSH1 0x20 ADD DUP5 DUP2 MSTORE POP PUSH1 0x3 DUP7 DUP7 PUSH1 0x40 MLOAD PUSH2 0x14AD SWAP3 SWAP2 SWAP1 PUSH2 0x1FEE JUMP JUMPDEST SWAP1 DUP2 MSTORE PUSH1 0x20 ADD PUSH1 0x40 MLOAD DUP1 SWAP2 SUB SWAP1 KECCAK256 PUSH1 0x0 DUP3 ADD MLOAD DUP2 PUSH1 0x0 ADD SWAP1 DUP1 MLOAD SWAP1 PUSH1 0x20 ADD SWAP1 PUSH2 0x14D7 SWAP3 SWAP2 SWAP1 PUSH2 0x1795 JUMP JUMPDEST POP PUSH1 0x20 DUP3 ADD MLOAD DUP2 PUSH1 0x1 ADD SSTORE PUSH1 0x40 DUP3 ADD MLOAD DUP2 PUSH1 0x2 ADD SSTORE SWAP1 POP POP DUP2 PUSH1 0x4 DUP7 DUP7 PUSH1 0x40 MLOAD PUSH2 0x1502 SWAP3 SWAP2 SWAP1 PUSH2 0x1FEE JUMP JUMPDEST SWAP1 DUP2 MSTORE PUSH1 0x20 ADD PUSH1 0x40 MLOAD DUP1 SWAP2 SUB SWAP1 KECCAK256 PUSH1 0x0 DUP3 DUP3 SLOAD PUSH2 0x151F SWAP2 SWAP1 PUSH2 0x2414 JUMP JUMPDEST SWAP3 POP POP DUP2 SWAP1 SSTORE POP PUSH1 0x1 SWAP1 POP SWAP5 SWAP4 POP POP POP POP JUMP JUMPDEST PUSH1 0x5 SLOAD DUP2 JUMP JUMPDEST PUSH1 0xA PUSH1 0x20 MSTORE DUP1 PUSH1 0x0 MSTORE PUSH1 0x40 PUSH1 0x0 KECCAK256 PUSH1 0x0 SWAP2 POP SWAP1 POP DUP1 PUSH1 0x0 ADD SLOAD SWAP1 DUP1 PUSH1 0x1 ADD SLOAD SWAP1 DUP1 PUSH1 0x2 ADD PUSH1 0x0 SWAP1 SLOAD SWAP1 PUSH2 0x100 EXP SWAP1 DIV PUSH20 0xFFFFFFFFFFFFFFFFFFFFFFFFFFFFFFFFFFFFFFFF AND SWAP1 DUP1 PUSH1 0x3 ADD SLOAD SWAP1 DUP1 PUSH1 0x4 ADD SLOAD SWAP1 POP DUP6 JUMP JUMPDEST PUSH1 0xB PUSH1 0x0 SWAP1 SLOAD SWAP1 PUSH2 0x100 EXP SWAP1 DIV PUSH20 0xFFFFFFFFFFFFFFFFFFFFFFFFFFFFFFFFFFFFFFFF AND DUP2 JUMP JUMPDEST PUSH1 0x1 PUSH1 0x20 MSTORE DUP1 PUSH1 0x0 MSTORE PUSH1 0x40 PUSH1 0x0 KECCAK256 PUSH1 0x0 SWAP2 POP SLOAD SWAP1 PUSH2 0x100 EXP SWAP1 DIV PUSH1 0xFF AND DUP2 JUMP JUMPDEST PUSH1 0x6 PUSH1 0x20 MSTORE DUP1 PUSH1 0x0 MSTORE PUSH1 0x40 PUSH1 0x0 KECCAK256 PUSH1 0x0 SWAP2 POP SWAP1 POP DUP1 PUSH1 0x0 ADD SLOAD SWAP1 DUP1 PUSH1 0x1 ADD PUSH1 0x0 SWAP1 SLOAD SWAP1 PUSH2 0x100 EXP SWAP1 DIV PUSH20 0xFFFFFFFFFFFFFFFFFFFFFFFFFFFFFFFFFFFFFFFF AND SWAP1 DUP1 PUSH1 0x2 ADD DUP1 SLOAD PUSH2 0x1623 SWAP1 PUSH2 0x25F3 JUMP JUMPDEST DUP1 PUSH1 0x1F ADD PUSH1 0x20 DUP1 SWAP2 DIV MUL PUSH1 0x20 ADD PUSH1 0x40 MLOAD SWAP1 DUP2 ADD PUSH1 0x40 MSTORE DUP1 SWAP3 SWAP2 SWAP1 DUP2 DUP2 MSTORE PUSH1 0x20 ADD DUP3 DUP1 SLOAD PUSH2 0x164F SWAP1 PUSH2 0x25F3 JUMP JUMPDEST DUP1 ISZERO PUSH2 0x169C JUMPI DUP1 PUSH1 0x1F LT PUSH2 0x1671 JUMPI PUSH2 0x100 DUP1 DUP4 SLOAD DIV MUL DUP4 MSTORE SWAP2 PUSH1 0x20 ADD SWAP2 PUSH2 0x169C JUMP JUMPDEST DUP3 ADD SWAP2 SWAP1 PUSH1 0x0 MSTORE PUSH1 0x20 PUSH1 0x0 KECCAK256 SWAP1 JUMPDEST DUP2 SLOAD DUP2 MSTORE SWAP1 PUSH1 0x1 ADD SWAP1 PUSH1 0x20 ADD DUP1 DUP4 GT PUSH2 0x167F JUMPI DUP3 SWAP1 SUB PUSH1 0x1F AND DUP3 ADD SWAP2 JUMPDEST POP POP POP POP POP SWAP1 DUP1 PUSH1 0x3 ADD SLOAD SWAP1 DUP1 PUSH1 0x4 ADD SLOAD SWAP1 DUP1 PUSH1 0x5 ADD SLOAD SWAP1 DUP1 PUSH1 0x6 ADD SLOAD SWAP1 POP DUP8 JUMP JUMPDEST PUSH1 0x0 DUP1 SLOAD SWAP1 PUSH2 0x100 EXP SWAP1 DIV PUSH20 0xFFFFFFFFFFFFFFFFFFFFFFFFFFFFFFFFFFFFFFFF AND DUP2 JUMP JUMPDEST PUSH1 0x0 PUSH1 0x1 DUP1 PUSH1 0x0 CALLER PUSH20 0xFFFFFFFFFFFFFFFFFFFFFFFFFFFFFFFFFFFFFFFF AND PUSH20 0xFFFFFFFFFFFFFFFFFFFFFFFFFFFFFFFFFFFFFFFF AND DUP2 MSTORE PUSH1 0x20 ADD SWAP1 DUP2 MSTORE PUSH1 0x20 ADD PUSH1 0x0 KECCAK256 PUSH1 0x0 PUSH2 0x100 EXP DUP2 SLOAD DUP2 PUSH1 0xFF MUL NOT AND SWAP1 DUP4 ISZERO ISZERO MUL OR SWAP1 SSTORE POP PUSH1 0x1 SWAP1 POP SWAP1 JUMP JUMPDEST PUSH1 0x40 MLOAD DUP1 PUSH1 0xE0 ADD PUSH1 0x40 MSTORE DUP1 PUSH1 0x0 DUP2 MSTORE PUSH1 0x20 ADD PUSH1 0x0 DUP2 MSTORE PUSH1 0x20 ADD PUSH1 0x0 PUSH20 0xFFFFFFFFFFFFFFFFFFFFFFFFFFFFFFFFFFFFFFFF AND DUP2 MSTORE PUSH1 0x20 ADD PUSH1 0x60 DUP2 MSTORE PUSH1 0x20 ADD PUSH1 0x0 DUP2 MSTORE PUSH1 0x20 ADD PUSH1 0x0 DUP2 MSTORE PUSH1 0x20 ADD PUSH1 0x0 DUP2 MSTORE POP SWAP1 JUMP JUMPDEST DUP3 DUP1 SLOAD PUSH2 0x17A1 SWAP1 PUSH2 0x25F3 JUMP JUMPDEST SWAP1 PUSH1 0x0 MSTORE PUSH1 0x20 PUSH1 0x0 KECCAK256 SWAP1 PUSH1 0x1F ADD PUSH1 0x20 SWAP1 DIV DUP2 ADD SWAP3 DUP3 PUSH2 0x17C3 JUMPI PUSH1 0x0 DUP6 SSTORE PUSH2 0x180A JUMP JUMPDEST DUP3 PUSH1 0x1F LT PUSH2 0x17DC JUMPI DUP1 MLOAD PUSH1 0xFF NOT AND DUP4 DUP1 ADD OR DUP6 SSTORE PUSH2 0x180A JUMP JUMPDEST DUP3 DUP1 ADD PUSH1 0x1 ADD DUP6 SSTORE DUP3 ISZERO PUSH2 0x180A JUMPI SWAP2 DUP3 ADD JUMPDEST DUP3 DUP2 GT ISZERO PUSH2 0x1809 JUMPI DUP3 MLOAD DUP3 SSTORE SWAP2 PUSH1 0x20 ADD SWAP2 SWAP1 PUSH1 0x1 ADD SWAP1 PUSH2 0x17EE JUMP JUMPDEST JUMPDEST POP SWAP1 POP PUSH2 0x1817 SWAP2 SWAP1 PUSH2 0x18B3 JUMP JUMPDEST POP SWAP1 JUMP JUMPDEST PUSH1 0x40 MLOAD DUP1 PUSH1 0xA0 ADD PUSH1 0x40 MSTORE DUP1 PUSH1 0x0 DUP2 MSTORE PUSH1 0x20 ADD PUSH1 0x0 DUP2 MSTORE PUSH1 0x20 ADD PUSH1 0x0 PUSH20 0xFFFFFFFFFFFFFFFFFFFFFFFFFFFFFFFFFFFFFFFF AND DUP2 MSTORE PUSH1 0x20 ADD PUSH1 0x0 DUP2 MSTORE PUSH1 0x20 ADD PUSH1 0x0 DUP2 MSTORE POP SWAP1 JUMP JUMPDEST PUSH1 0x40 MLOAD DUP1 PUSH1 0xE0 ADD PUSH1 0x40 MSTORE DUP1 PUSH1 0x0 DUP2 MSTORE PUSH1 0x20 ADD PUSH1 0x0 PUSH20 0xFFFFFFFFFFFFFFFFFFFFFFFFFFFFFFFFFFFFFFFF AND DUP2 MSTORE PUSH1 0x20 ADD PUSH1 0x60 DUP2 MSTORE PUSH1 0x20 ADD PUSH1 0x0 DUP2 MSTORE PUSH1 0x20 ADD PUSH1 0x0 DUP2 MSTORE PUSH1 0x20 ADD PUSH1 0x0 DUP2 MSTORE PUSH1 0x20 ADD PUSH1 0x0 DUP2 MSTORE POP SWAP1 JUMP JUMPDEST JUMPDEST DUP1 DUP3 GT ISZERO PUSH2 0x18CC JUMPI PUSH1 0x0 DUP2 PUSH1 0x0 SWAP1 SSTORE POP PUSH1 0x1 ADD PUSH2 0x18B4 JUMP JUMPDEST POP SWAP1 JUMP JUMPDEST PUSH1 0x0 PUSH2 0x18E3 PUSH2 0x18DE DUP5 PUSH2 0x23AB JUMP JUMPDEST PUSH2 0x2386 JUMP JUMPDEST SWAP1 POP DUP3 DUP2 MSTORE PUSH1 0x20 DUP2 ADD DUP5 DUP5 DUP5 ADD GT ISZERO PUSH2 0x18FF JUMPI PUSH2 0x18FE PUSH2 0x2721 JUMP JUMPDEST JUMPDEST PUSH2 0x190A DUP5 DUP3 DUP6 PUSH2 0x25B1 JUMP JUMPDEST POP SWAP4 SWAP3 POP POP POP JUMP JUMPDEST PUSH1 0x0 DUP2 CALLDATALOAD SWAP1 POP PUSH2 0x1921 DUP2 PUSH2 0x29BC JUMP JUMPDEST SWAP3 SWAP2 POP POP JUMP JUMPDEST PUSH1 0x0 DUP1 DUP4 PUSH1 0x1F DUP5 ADD SLT PUSH2 0x193D JUMPI PUSH2 0x193C PUSH2 0x2717 JUMP JUMPDEST JUMPDEST DUP3 CALLDATALOAD SWAP1 POP PUSH8 0xFFFFFFFFFFFFFFFF DUP2 GT ISZERO PUSH2 0x195A JUMPI PUSH2 0x1959 PUSH2 0x2712 JUMP JUMPDEST JUMPDEST PUSH1 0x20 DUP4 ADD SWAP2 POP DUP4 PUSH1 0x1 DUP3 MUL DUP4 ADD GT ISZERO PUSH2 0x1976 JUMPI PUSH2 0x1975 PUSH2 0x271C JUMP JUMPDEST JUMPDEST SWAP3 POP SWAP3 SWAP1 POP JUMP JUMPDEST PUSH1 0x0 DUP3 PUSH1 0x1F DUP4 ADD SLT PUSH2 0x1992 JUMPI PUSH2 0x1991 PUSH2 0x2717 JUMP JUMPDEST JUMPDEST DUP2 CALLDATALOAD PUSH2 0x19A2 DUP5 DUP3 PUSH1 0x20 DUP7 ADD PUSH2 0x18D0 JUMP JUMPDEST SWAP2 POP POP SWAP3 SWAP2 POP POP JUMP JUMPDEST PUSH1 0x0 DUP2 CALLDATALOAD SWAP1 POP PUSH2 0x19BA DUP2 PUSH2 0x29D3 JUMP JUMPDEST SWAP3 SWAP2 POP POP JUMP JUMPDEST PUSH1 0x0 PUSH1 0x20 DUP3 DUP5 SUB SLT ISZERO PUSH2 0x19D6 JUMPI PUSH2 0x19D5 PUSH2 0x272B JUMP JUMPDEST JUMPDEST PUSH1 0x0 PUSH2 0x19E4 DUP5 DUP3 DUP6 ADD PUSH2 0x1912 JUMP JUMPDEST SWAP2 POP POP SWAP3 SWAP2 POP POP JUMP JUMPDEST PUSH1 0x0 DUP1 PUSH1 0x40 DUP4 DUP6 SUB SLT ISZERO PUSH2 0x1A04 JUMPI PUSH2 0x1A03 PUSH2 0x272B JUMP JUMPDEST JUMPDEST PUSH1 0x0 PUSH2 0x1A12 DUP6 DUP3 DUP7 ADD PUSH2 0x1912 JUMP JUMPDEST SWAP3 POP POP PUSH1 0x20 DUP4 ADD CALLDATALOAD PUSH8 0xFFFFFFFFFFFFFFFF DUP2 GT ISZERO PUSH2 0x1A33 JUMPI PUSH2 0x1A32 PUSH2 0x2726 JUMP JUMPDEST JUMPDEST PUSH2 0x1A3F DUP6 DUP3 DUP7 ADD PUSH2 0x197D JUMP JUMPDEST SWAP2 POP POP SWAP3 POP SWAP3 SWAP1 POP JUMP JUMPDEST PUSH1 0x0 DUP1 PUSH1 0x0 PUSH1 0x40 DUP5 DUP7 SUB SLT ISZERO PUSH2 0x1A62 JUMPI PUSH2 0x1A61 PUSH2 0x272B JUMP JUMPDEST JUMPDEST PUSH1 0x0 DUP5 ADD CALLDATALOAD PUSH8 0xFFFFFFFFFFFFFFFF DUP2 GT ISZERO PUSH2 0x1A80 JUMPI PUSH2 0x1A7F PUSH2 0x2726 JUMP JUMPDEST JUMPDEST PUSH2 0x1A8C DUP7 DUP3 DUP8 ADD PUSH2 0x1927 JUMP JUMPDEST SWAP4 POP SWAP4 POP POP PUSH1 0x20 PUSH2 0x1A9F DUP7 DUP3 DUP8 ADD PUSH2 0x19AB JUMP JUMPDEST SWAP2 POP POP SWAP3 POP SWAP3 POP SWAP3 JUMP JUMPDEST PUSH1 0x0 DUP1 PUSH1 0x0 DUP1 PUSH1 0x60 DUP6 DUP8 SUB SLT ISZERO PUSH2 0x1AC3 JUMPI PUSH2 0x1AC2 PUSH2 0x272B JUMP JUMPDEST JUMPDEST PUSH1 0x0 DUP6 ADD CALLDATALOAD PUSH8 0xFFFFFFFFFFFFFFFF DUP2 GT ISZERO PUSH2 0x1AE1 JUMPI PUSH2 0x1AE0 PUSH2 0x2726 JUMP JUMPDEST JUMPDEST PUSH2 0x1AED DUP8 DUP3 DUP9 ADD PUSH2 0x1927 JUMP JUMPDEST SWAP5 POP SWAP5 POP POP PUSH1 0x20 PUSH2 0x1B00 DUP8 DUP3 DUP9 ADD PUSH2 0x19AB JUMP JUMPDEST SWAP3 POP POP PUSH1 0x40 PUSH2 0x1B11 DUP8 DUP3 DUP9 ADD PUSH2 0x19AB JUMP JUMPDEST SWAP2 POP POP SWAP3 SWAP6 SWAP2 SWAP5 POP SWAP3 POP JUMP JUMPDEST PUSH1 0x0 PUSH1 0x20 DUP3 DUP5 SUB SLT ISZERO PUSH2 0x1B33 JUMPI PUSH2 0x1B32 PUSH2 0x272B JUMP JUMPDEST JUMPDEST PUSH1 0x0 DUP3 ADD CALLDATALOAD PUSH8 0xFFFFFFFFFFFFFFFF DUP2 GT ISZERO PUSH2 0x1B51 JUMPI PUSH2 0x1B50 PUSH2 0x2726 JUMP JUMPDEST JUMPDEST PUSH2 0x1B5D DUP5 DUP3 DUP6 ADD PUSH2 0x197D JUMP JUMPDEST SWAP2 POP POP SWAP3 SWAP2 POP POP JUMP JUMPDEST PUSH1 0x0 PUSH1 0x20 DUP3 DUP5 SUB SLT ISZERO PUSH2 0x1B7C JUMPI PUSH2 0x1B7B PUSH2 0x272B JUMP JUMPDEST JUMPDEST PUSH1 0x0 PUSH2 0x1B8A DUP5 DUP3 DUP6 ADD PUSH2 0x19AB JUMP JUMPDEST SWAP2 POP POP SWAP3 SWAP2 POP POP JUMP JUMPDEST PUSH1 0x0 DUP1 PUSH1 0x40 DUP4 DUP6 SUB SLT ISZERO PUSH2 0x1BAA JUMPI PUSH2 0x1BA9 PUSH2 0x272B JUMP JUMPDEST JUMPDEST PUSH1 0x0 PUSH2 0x1BB8 DUP6 DUP3 DUP7 ADD PUSH2 0x19AB JUMP JUMPDEST SWAP3 POP POP PUSH1 0x20 PUSH2 0x1BC9 DUP6 DUP3 DUP7 ADD PUSH2 0x19AB JUMP JUMPDEST SWAP2 POP POP SWAP3 POP SWAP3 SWAP1 POP JUMP JUMPDEST PUSH2 0x1BDC DUP2 PUSH2 0x2529 JUMP JUMPDEST DUP3 MSTORE POP POP JUMP JUMPDEST PUSH2 0x1BEB DUP2 PUSH2 0x2529 JUMP JUMPDEST DUP3 MSTORE POP POP JUMP JUMPDEST PUSH2 0x1BFA DUP2 PUSH2 0x253B JUMP JUMPDEST DUP3 MSTORE POP POP JUMP JUMPDEST PUSH2 0x1C09 DUP2 PUSH2 0x257B JUMP JUMPDEST DUP3 MSTORE POP POP JUMP JUMPDEST PUSH2 0x1C18 DUP2 PUSH2 0x2547 JUMP JUMPDEST DUP3 MSTORE POP POP JUMP JUMPDEST PUSH2 0x1C27 DUP2 PUSH2 0x2547 JUMP JUMPDEST DUP3 MSTORE POP POP JUMP JUMPDEST PUSH1 0x0 PUSH2 0x1C39 DUP4 DUP6 PUSH2 0x2409 JUMP JUMPDEST SWAP4 POP PUSH2 0x1C46 DUP4 DUP6 DUP5 PUSH2 0x25B1 JUMP JUMPDEST DUP3 DUP5 ADD SWAP1 POP SWAP4 SWAP3 POP POP POP JUMP JUMPDEST PUSH1 0x0 PUSH2 0x1C5D DUP3 PUSH2 0x23DC JUMP JUMPDEST PUSH2 0x1C67 DUP2 DUP6 PUSH2 0x23E7 JUMP JUMPDEST SWAP4 POP PUSH2 0x1C77 DUP2 DUP6 PUSH1 0x20 DUP7 ADD PUSH2 0x25C0 JUMP JUMPDEST PUSH2 0x1C80 DUP2 PUSH2 0x2730 JUMP JUMPDEST DUP5 ADD SWAP2 POP POP SWAP3 SWAP2 POP POP JUMP JUMPDEST PUSH1 0x0 PUSH2 0x1C96 DUP3 PUSH2 0x23DC JUMP JUMPDEST PUSH2 0x1CA0 DUP2 DUP6 PUSH2 0x23F8 JUMP JUMPDEST SWAP4 POP PUSH2 0x1CB0 DUP2 DUP6 PUSH1 0x20 DUP7 ADD PUSH2 0x25C0 JUMP JUMPDEST PUSH2 0x1CB9 DUP2 PUSH2 0x2730 JUMP JUMPDEST DUP5 ADD SWAP2 POP POP SWAP3 SWAP2 POP POP JUMP JUMPDEST PUSH1 0x0 PUSH2 0x1CCF DUP3 PUSH2 0x23DC JUMP JUMPDEST PUSH2 0x1CD9 DUP2 DUP6 PUSH2 0x2409 JUMP JUMPDEST SWAP4 POP PUSH2 0x1CE9 DUP2 DUP6 PUSH1 0x20 DUP7 ADD PUSH2 0x25C0 JUMP JUMPDEST DUP1 DUP5 ADD SWAP2 POP POP SWAP3 SWAP2 POP POP JUMP JUMPDEST PUSH1 0x0 PUSH2 0x1D02 PUSH1 0x2F DUP4 PUSH2 0x23F8 JUMP JUMPDEST SWAP2 POP PUSH2 0x1D0D DUP3 PUSH2 0x2741 JUMP JUMPDEST PUSH1 0x40 DUP3 ADD SWAP1 POP SWAP2 SWAP1 POP JUMP JUMPDEST PUSH1 0x0 PUSH2 0x1D25 PUSH1 0x35 DUP4 PUSH2 0x23F8 JUMP JUMPDEST SWAP2 POP PUSH2 0x1D30 DUP3 PUSH2 0x2790 JUMP JUMPDEST PUSH1 0x40 DUP3 ADD SWAP1 POP SWAP2 SWAP1 POP JUMP JUMPDEST PUSH1 0x0 PUSH2 0x1D48 PUSH1 0x22 DUP4 PUSH2 0x23F8 JUMP JUMPDEST SWAP2 POP PUSH2 0x1D53 DUP3 PUSH2 0x27DF JUMP JUMPDEST PUSH1 0x40 DUP3 ADD SWAP1 POP SWAP2 SWAP1 POP JUMP JUMPDEST PUSH1 0x0 PUSH2 0x1D6B PUSH1 0x32 DUP4 PUSH2 0x23F8 JUMP JUMPDEST SWAP2 POP PUSH2 0x1D76 DUP3 PUSH2 0x282E JUMP JUMPDEST PUSH1 0x40 DUP3 ADD SWAP1 POP SWAP2 SWAP1 POP JUMP JUMPDEST PUSH1 0x0 PUSH2 0x1D8E PUSH1 0x1A DUP4 PUSH2 0x23F8 JUMP JUMPDEST SWAP2 POP PUSH2 0x1D99 DUP3 PUSH2 0x287D JUMP JUMPDEST PUSH1 0x20 DUP3 ADD SWAP1 POP SWAP2 SWAP1 POP JUMP JUMPDEST PUSH1 0x0 PUSH2 0x1DB1 PUSH1 0x5B DUP4 PUSH2 0x23F8 JUMP JUMPDEST SWAP2 POP PUSH2 0x1DBC DUP3 PUSH2 0x28A6 JUMP JUMPDEST PUSH1 0x60 DUP3 ADD SWAP1 POP SWAP2 SWAP1 POP JUMP JUMPDEST PUSH1 0x0 PUSH2 0x1DD4 PUSH1 0x1C DUP4 PUSH2 0x23F8 JUMP JUMPDEST SWAP2 POP PUSH2 0x1DDF DUP3 PUSH2 0x291B JUMP JUMPDEST PUSH1 0x20 DUP3 ADD SWAP1 POP SWAP2 SWAP1 POP JUMP JUMPDEST PUSH1 0x0 PUSH2 0x1DF7 PUSH1 0x20 DUP4 PUSH2 0x23F8 JUMP JUMPDEST SWAP2 POP PUSH2 0x1E02 DUP3 PUSH2 0x2944 JUMP JUMPDEST PUSH1 0x20 DUP3 ADD SWAP1 POP SWAP2 SWAP1 POP JUMP JUMPDEST PUSH1 0x0 PUSH2 0x1E1A PUSH1 0x27 DUP4 PUSH2 0x23F8 JUMP JUMPDEST SWAP2 POP PUSH2 0x1E25 DUP3 PUSH2 0x296D JUMP JUMPDEST PUSH1 0x40 DUP3 ADD SWAP1 POP SWAP2 SWAP1 POP JUMP JUMPDEST PUSH1 0xA0 DUP3 ADD PUSH1 0x0 DUP3 ADD MLOAD PUSH2 0x1E46 PUSH1 0x0 DUP6 ADD DUP3 PUSH2 0x1FD0 JUMP JUMPDEST POP PUSH1 0x20 DUP3 ADD MLOAD PUSH2 0x1E59 PUSH1 0x20 DUP6 ADD DUP3 PUSH2 0x1FD0 JUMP JUMPDEST POP PUSH1 0x40 DUP3 ADD MLOAD PUSH2 0x1E6C PUSH1 0x40 DUP6 ADD DUP3 PUSH2 0x1BD3 JUMP JUMPDEST POP PUSH1 0x60 DUP3 ADD MLOAD PUSH2 0x1E7F PUSH1 0x60 DUP6 ADD DUP3 PUSH2 0x1FD0 JUMP JUMPDEST POP PUSH1 0x80 DUP3 ADD MLOAD PUSH2 0x1E92 PUSH1 0x80 DUP6 ADD DUP3 PUSH2 0x1FD0 JUMP JUMPDEST POP POP POP POP JUMP JUMPDEST PUSH1 0x0 PUSH1 0xE0 DUP4 ADD PUSH1 0x0 DUP4 ADD MLOAD PUSH2 0x1EB0 PUSH1 0x0 DUP7 ADD DUP3 PUSH2 0x1FD0 JUMP JUMPDEST POP PUSH1 0x20 DUP4 ADD MLOAD PUSH2 0x1EC3 PUSH1 0x20 DUP7 ADD DUP3 PUSH2 0x1BD3 JUMP JUMPDEST POP PUSH1 0x40 DUP4 ADD MLOAD DUP5 DUP3 SUB PUSH1 0x40 DUP7 ADD MSTORE PUSH2 0x1EDB DUP3 DUP3 PUSH2 0x1C52 JUMP JUMPDEST SWAP2 POP POP PUSH1 0x60 DUP4 ADD MLOAD PUSH2 0x1EF0 PUSH1 0x60 DUP7 ADD DUP3 PUSH2 0x1FD0 JUMP JUMPDEST POP PUSH1 0x80 DUP4 ADD MLOAD PUSH2 0x1F03 PUSH1 0x80 DUP7 ADD DUP3 PUSH2 0x1FD0 JUMP JUMPDEST POP PUSH1 0xA0 DUP4 ADD MLOAD PUSH2 0x1F16 PUSH1 0xA0 DUP7 ADD DUP3 PUSH2 0x1FD0 JUMP JUMPDEST POP PUSH1 0xC0 DUP4 ADD MLOAD PUSH2 0x1F29 PUSH1 0xC0 DUP7 ADD DUP3 PUSH2 0x1C0F JUMP JUMPDEST POP DUP1 SWAP2 POP POP SWAP3 SWAP2 POP POP JUMP JUMPDEST PUSH1 0x0 PUSH1 0xE0 DUP4 ADD PUSH1 0x0 DUP4 ADD MLOAD PUSH2 0x1F4C PUSH1 0x0 DUP7 ADD DUP3 PUSH2 0x1FD0 JUMP JUMPDEST POP PUSH1 0x20 DUP4 ADD MLOAD PUSH2 0x1F5F PUSH1 0x20 DUP7 ADD DUP3 PUSH2 0x1FD0 JUMP JUMPDEST POP PUSH1 0x40 DUP4 ADD MLOAD PUSH2 0x1F72 PUSH1 0x40 DUP7 ADD DUP3 PUSH2 0x1BD3 JUMP JUMPDEST POP PUSH1 0x60 DUP4 ADD MLOAD DUP5 DUP3 SUB PUSH1 0x60 DUP7 ADD MSTORE PUSH2 0x1F8A DUP3 DUP3 PUSH2 0x1C52 JUMP JUMPDEST SWAP2 POP POP PUSH1 0x80 DUP4 ADD MLOAD PUSH2 0x1F9F PUSH1 0x80 DUP7 ADD DUP3 PUSH2 0x1FD0 JUMP JUMPDEST POP PUSH1 0xA0 DUP4 ADD MLOAD PUSH2 0x1FB2 PUSH1 0xA0 DUP7 ADD DUP3 PUSH2 0x1FD0 JUMP JUMPDEST POP PUSH1 0xC0 DUP4 ADD MLOAD PUSH2 0x1FC5 PUSH1 0xC0 DUP7 ADD DUP3 PUSH2 0x1C0F JUMP JUMPDEST POP DUP1 SWAP2 POP POP SWAP3 SWAP2 POP POP JUMP JUMPDEST PUSH2 0x1FD9 DUP2 PUSH2 0x2571 JUMP JUMPDEST DUP3 MSTORE POP POP JUMP JUMPDEST PUSH2 0x1FE8 DUP2 PUSH2 0x2571 JUMP JUMPDEST DUP3 MSTORE POP POP JUMP JUMPDEST PUSH1 0x0 PUSH2 0x1FFB DUP3 DUP5 DUP7 PUSH2 0x1C2D JUMP JUMPDEST SWAP2 POP DUP2 SWAP1 POP SWAP4 SWAP3 POP POP POP JUMP JUMPDEST PUSH1 0x0 PUSH2 0x2013 DUP3 DUP5 PUSH2 0x1CC4 JUMP JUMPDEST SWAP2 POP DUP2 SWAP1 POP SWAP3 SWAP2 POP POP JUMP JUMPDEST PUSH1 0x0 PUSH1 0x20 DUP3 ADD SWAP1 POP PUSH2 0x2033 PUSH1 0x0 DUP4 ADD DUP5 PUSH2 0x1BE2 JUMP JUMPDEST SWAP3 SWAP2 POP POP JUMP JUMPDEST PUSH1 0x0 PUSH1 0x20 DUP3 ADD SWAP1 POP PUSH2 0x204E PUSH1 0x0 DUP4 ADD DUP5 PUSH2 0x1BF1 JUMP JUMPDEST SWAP3 SWAP2 POP POP JUMP JUMPDEST PUSH1 0x0 PUSH1 0x20 DUP3 ADD SWAP1 POP PUSH2 0x2069 PUSH1 0x0 DUP4 ADD DUP5 PUSH2 0x1C00 JUMP JUMPDEST SWAP3 SWAP2 POP POP JUMP JUMPDEST PUSH1 0x0 PUSH1 0x60 DUP3 ADD SWAP1 POP DUP2 DUP2 SUB PUSH1 0x0 DUP4 ADD MSTORE PUSH2 0x2089 DUP2 DUP7 PUSH2 0x1C8B JUMP JUMPDEST SWAP1 POP PUSH2 0x2098 PUSH1 0x20 DUP4 ADD DUP6 PUSH2 0x1FDF JUMP JUMPDEST PUSH2 0x20A5 PUSH1 0x40 DUP4 ADD DUP5 PUSH2 0x1FDF JUMP JUMPDEST SWAP5 SWAP4 POP POP POP POP JUMP JUMPDEST PUSH1 0x0 PUSH1 0x20 DUP3 ADD SWAP1 POP DUP2 DUP2 SUB PUSH1 0x0 DUP4 ADD MSTORE PUSH2 0x20C6 DUP2 PUSH2 0x1CF5 JUMP JUMPDEST SWAP1 POP SWAP2 SWAP1 POP JUMP JUMPDEST PUSH1 0x0 PUSH1 0x20 DUP3 ADD SWAP1 POP DUP2 DUP2 SUB PUSH1 0x0 DUP4 ADD MSTORE PUSH2 0x20E6 DUP2 PUSH2 0x1D18 JUMP JUMPDEST SWAP1 POP SWAP2 SWAP1 POP JUMP JUMPDEST PUSH1 0x0 PUSH1 0x20 DUP3 ADD SWAP1 POP DUP2 DUP2 SUB PUSH1 0x0 DUP4 ADD MSTORE PUSH2 0x2106 DUP2 PUSH2 0x1D3B JUMP JUMPDEST SWAP1 POP SWAP2 SWAP1 POP JUMP JUMPDEST PUSH1 0x0 PUSH1 0x20 DUP3 ADD SWAP1 POP DUP2 DUP2 SUB PUSH1 0x0 DUP4 ADD MSTORE PUSH2 0x2126 DUP2 PUSH2 0x1D5E JUMP JUMPDEST SWAP1 POP SWAP2 SWAP1 POP JUMP JUMPDEST PUSH1 0x0 PUSH1 0x20 DUP3 ADD SWAP1 POP DUP2 DUP2 SUB PUSH1 0x0 DUP4 ADD MSTORE PUSH2 0x2146 DUP2 PUSH2 0x1D81 JUMP JUMPDEST SWAP1 POP SWAP2 SWAP1 POP JUMP JUMPDEST PUSH1 0x0 PUSH1 0x20 DUP3 ADD SWAP1 POP DUP2 DUP2 SUB PUSH1 0x0 DUP4 ADD MSTORE PUSH2 0x2166 DUP2 PUSH2 0x1DA4 JUMP JUMPDEST SWAP1 POP SWAP2 SWAP1 POP JUMP JUMPDEST PUSH1 0x0 PUSH1 0x20 DUP3 ADD SWAP1 POP DUP2 DUP2 SUB PUSH1 0x0 DUP4 ADD MSTORE PUSH2 0x2186 DUP2 PUSH2 0x1DC7 JUMP JUMPDEST SWAP1 POP SWAP2 SWAP1 POP JUMP JUMPDEST PUSH1 0x0 PUSH1 0x20 DUP3 ADD SWAP1 POP DUP2 DUP2 SUB PUSH1 0x0 DUP4 ADD MSTORE PUSH2 0x21A6 DUP2 PUSH2 0x1DEA JUMP JUMPDEST SWAP1 POP SWAP2 SWAP1 POP JUMP JUMPDEST PUSH1 0x0 PUSH1 0x20 DUP3 ADD SWAP1 POP DUP2 DUP2 SUB PUSH1 0x0 DUP4 ADD MSTORE PUSH2 0x21C6 DUP2 PUSH2 0x1E0D JUMP JUMPDEST SWAP1 POP SWAP2 SWAP1 POP JUMP JUMPDEST PUSH1 0x0 PUSH1 0xA0 DUP3 ADD SWAP1 POP PUSH2 0x21E2 PUSH1 0x0 DUP4 ADD DUP5 PUSH2 0x1E30 JUMP JUMPDEST SWAP3 SWAP2 POP POP JUMP JUMPDEST PUSH1 0x0 PUSH1 0x20 DUP3 ADD SWAP1 POP DUP2 DUP2 SUB PUSH1 0x0 DUP4 ADD MSTORE PUSH2 0x2202 DUP2 DUP5 PUSH2 0x1E98 JUMP JUMPDEST SWAP1 POP SWAP3 SWAP2 POP POP JUMP JUMPDEST PUSH1 0x0 PUSH1 0x20 DUP3 ADD SWAP1 POP DUP2 DUP2 SUB PUSH1 0x0 DUP4 ADD MSTORE PUSH2 0x2224 DUP2 DUP5 PUSH2 0x1F34 JUMP JUMPDEST SWAP1 POP SWAP3 SWAP2 POP POP JUMP JUMPDEST PUSH1 0x0 PUSH1 0x20 DUP3 ADD SWAP1 POP PUSH2 0x2241 PUSH1 0x0 DUP4 ADD DUP5 PUSH2 0x1FDF JUMP JUMPDEST SWAP3 SWAP2 POP POP JUMP JUMPDEST PUSH1 0x0 PUSH1 0xE0 DUP3 ADD SWAP1 POP PUSH2 0x225C PUSH1 0x0 DUP4 ADD DUP11 PUSH2 0x1FDF JUMP JUMPDEST PUSH2 0x2269 PUSH1 0x20 DUP4 ADD DUP10 PUSH2 0x1BE2 JUMP JUMPDEST DUP2 DUP2 SUB PUSH1 0x40 DUP4 ADD MSTORE PUSH2 0x227B DUP2 DUP9 PUSH2 0x1C8B JUMP JUMPDEST SWAP1 POP PUSH2 0x228A PUSH1 0x60 DUP4 ADD DUP8 PUSH2 0x1FDF JUMP JUMPDEST PUSH2 0x2297 PUSH1 0x80 DUP4 ADD DUP7 PUSH2 0x1FDF JUMP JUMPDEST PUSH2 0x22A4 PUSH1 0xA0 DUP4 ADD DUP6 PUSH2 0x1FDF JUMP JUMPDEST PUSH2 0x22B1 PUSH1 0xC0 DUP4 ADD DUP5 PUSH2 0x1C1E JUMP JUMPDEST SWAP9 SWAP8 POP POP POP POP POP POP POP POP JUMP JUMPDEST PUSH1 0x0 PUSH1 0xE0 DUP3 ADD SWAP1 POP PUSH2 0x22D2 PUSH1 0x0 DUP4 ADD DUP11 PUSH2 0x1FDF JUMP JUMPDEST PUSH2 0x22DF PUSH1 0x20 DUP4 ADD DUP10 PUSH2 0x1FDF JUMP JUMPDEST PUSH2 0x22EC PUSH1 0x40 DUP4 ADD DUP9 PUSH2 0x1BE2 JUMP JUMPDEST DUP2 DUP2 SUB PUSH1 0x60 DUP4 ADD MSTORE PUSH2 0x22FE DUP2 DUP8 PUSH2 0x1C8B JUMP JUMPDEST SWAP1 POP PUSH2 0x230D PUSH1 0x80 DUP4 ADD DUP7 PUSH2 0x1FDF JUMP JUMPDEST PUSH2 0x231A PUSH1 0xA0 DUP4 ADD DUP6 PUSH2 0x1FDF JUMP JUMPDEST PUSH2 0x2327 PUSH1 0xC0 DUP4 ADD DUP5 PUSH2 0x1C1E JUMP JUMPDEST SWAP9 SWAP8 POP POP POP POP POP POP POP POP JUMP JUMPDEST PUSH1 0x0 PUSH1 0xA0 DUP3 ADD SWAP1 POP PUSH2 0x2348 PUSH1 0x0 DUP4 ADD DUP9 PUSH2 0x1FDF JUMP JUMPDEST PUSH2 0x2355 PUSH1 0x20 DUP4 ADD DUP8 PUSH2 0x1FDF JUMP JUMPDEST PUSH2 0x2362 PUSH1 0x40 DUP4 ADD DUP7 PUSH2 0x1BE2 JUMP JUMPDEST PUSH2 0x236F PUSH1 0x60 DUP4 ADD DUP6 PUSH2 0x1FDF JUMP JUMPDEST PUSH2 0x237C PUSH1 0x80 DUP4 ADD DUP5 PUSH2 0x1FDF JUMP JUMPDEST SWAP7 SWAP6 POP POP POP POP POP POP JUMP JUMPDEST PUSH1 0x0 PUSH2 0x2390 PUSH2 0x23A1 JUMP JUMPDEST SWAP1 POP PUSH2 0x239C DUP3 DUP3 PUSH2 0x2625 JUMP JUMPDEST SWAP2 SWAP1 POP JUMP JUMPDEST PUSH1 0x0 PUSH1 0x40 MLOAD SWAP1 POP SWAP1 JUMP JUMPDEST PUSH1 0x0 PUSH8 0xFFFFFFFFFFFFFFFF DUP3 GT ISZERO PUSH2 0x23C6 JUMPI PUSH2 0x23C5 PUSH2 0x26E3 JUMP JUMPDEST JUMPDEST PUSH2 0x23CF DUP3 PUSH2 0x2730 JUMP JUMPDEST SWAP1 POP PUSH1 0x20 DUP2 ADD SWAP1 POP SWAP2 SWAP1 POP JUMP JUMPDEST PUSH1 0x0 DUP2 MLOAD SWAP1 POP SWAP2 SWAP1 POP JUMP JUMPDEST PUSH1 0x0 DUP3 DUP3 MSTORE PUSH1 0x20 DUP3 ADD SWAP1 POP SWAP3 SWAP2 POP POP JUMP JUMPDEST PUSH1 0x0 DUP3 DUP3 MSTORE PUSH1 0x20 DUP3 ADD SWAP1 POP SWAP3 SWAP2 POP POP JUMP JUMPDEST PUSH1 0x0 DUP2 SWAP1 POP SWAP3 SWAP2 POP POP JUMP JUMPDEST PUSH1 0x0 PUSH2 0x241F DUP3 PUSH2 0x2571 JUMP JUMPDEST SWAP2 POP PUSH2 0x242A DUP4 PUSH2 0x2571 JUMP JUMPDEST SWAP3 POP DUP3 PUSH32 0xFFFFFFFFFFFFFFFFFFFFFFFFFFFFFFFFFFFFFFFFFFFFFFFFFFFFFFFFFFFFFFFF SUB DUP3 GT ISZERO PUSH2 0x245F JUMPI PUSH2 0x245E PUSH2 0x2656 JUMP JUMPDEST JUMPDEST DUP3 DUP3 ADD SWAP1 POP SWAP3 SWAP2 POP POP JUMP JUMPDEST PUSH1 0x0 PUSH2 0x2475 DUP3 PUSH2 0x2571 JUMP JUMPDEST SWAP2 POP PUSH2 0x2480 DUP4 PUSH2 0x2571 JUMP JUMPDEST SWAP3 POP DUP3 PUSH2 0x2490 JUMPI PUSH2 0x248F PUSH2 0x2685 JUMP JUMPDEST JUMPDEST DUP3 DUP3 DIV SWAP1 POP SWAP3 SWAP2 POP POP JUMP JUMPDEST PUSH1 0x0 PUSH2 0x24A6 DUP3 PUSH2 0x2571 JUMP JUMPDEST SWAP2 POP PUSH2 0x24B1 DUP4 PUSH2 0x2571 JUMP JUMPDEST SWAP3 POP DUP2 PUSH32 0xFFFFFFFFFFFFFFFFFFFFFFFFFFFFFFFFFFFFFFFFFFFFFFFFFFFFFFFFFFFFFFFF DIV DUP4 GT DUP3 ISZERO ISZERO AND ISZERO PUSH2 0x24EA JUMPI PUSH2 0x24E9 PUSH2 0x2656 JUMP JUMPDEST JUMPDEST DUP3 DUP3 MUL SWAP1 POP SWAP3 SWAP2 POP POP JUMP JUMPDEST PUSH1 0x0 PUSH2 0x2500 DUP3 PUSH2 0x2571 JUMP JUMPDEST SWAP2 POP PUSH2 0x250B DUP4 PUSH2 0x2571 JUMP JUMPDEST SWAP3 POP DUP3 DUP3 LT ISZERO PUSH2 0x251E JUMPI PUSH2 0x251D PUSH2 0x2656 JUMP JUMPDEST JUMPDEST DUP3 DUP3 SUB SWAP1 POP SWAP3 SWAP2 POP POP JUMP JUMPDEST PUSH1 0x0 PUSH2 0x2534 DUP3 PUSH2 0x2551 JUMP JUMPDEST SWAP1 POP SWAP2 SWAP1 POP JUMP JUMPDEST PUSH1 0x0 DUP2 ISZERO ISZERO SWAP1 POP SWAP2 SWAP1 POP JUMP JUMPDEST PUSH1 0x0 DUP2 SWAP1 POP SWAP2 SWAP1 POP JUMP JUMPDEST PUSH1 0x0 PUSH20 0xFFFFFFFFFFFFFFFFFFFFFFFFFFFFFFFFFFFFFFFF DUP3 AND SWAP1 POP SWAP2 SWAP1 POP JUMP JUMPDEST PUSH1 0x0 DUP2 SWAP1 POP SWAP2 SWAP1 POP JUMP JUMPDEST PUSH1 0x0 PUSH2 0x2586 DUP3 PUSH2 0x258D JUMP JUMPDEST SWAP1 POP SWAP2 SWAP1 POP JUMP JUMPDEST PUSH1 0x0 PUSH2 0x2598 DUP3 PUSH2 0x259F JUMP JUMPDEST SWAP1 POP SWAP2 SWAP1 POP JUMP JUMPDEST PUSH1 0x0 PUSH2 0x25AA DUP3 PUSH2 0x2551 JUMP JUMPDEST SWAP1 POP SWAP2 SWAP1 POP JUMP JUMPDEST DUP3 DUP2 DUP4 CALLDATACOPY PUSH1 0x0 DUP4 DUP4 ADD MSTORE POP POP POP JUMP JUMPDEST PUSH1 0x0 JUMPDEST DUP4 DUP2 LT ISZERO PUSH2 0x25DE JUMPI DUP1 DUP3 ADD MLOAD DUP2 DUP5 ADD MSTORE PUSH1 0x20 DUP2 ADD SWAP1 POP PUSH2 0x25C3 JUMP JUMPDEST DUP4 DUP2 GT ISZERO PUSH2 0x25ED JUMPI PUSH1 0x0 DUP5 DUP5 ADD MSTORE JUMPDEST POP POP POP POP JUMP JUMPDEST PUSH1 0x0 PUSH1 0x2 DUP3 DIV SWAP1 POP PUSH1 0x1 DUP3 AND DUP1 PUSH2 0x260B JUMPI PUSH1 0x7F DUP3 AND SWAP2 POP JUMPDEST PUSH1 0x20 DUP3 LT DUP2 EQ ISZERO PUSH2 0x261F JUMPI PUSH2 0x261E PUSH2 0x26B4 JUMP JUMPDEST JUMPDEST POP SWAP2 SWAP1 POP JUMP JUMPDEST PUSH2 0x262E DUP3 PUSH2 0x2730 JUMP JUMPDEST DUP2 ADD DUP2 DUP2 LT PUSH8 0xFFFFFFFFFFFFFFFF DUP3 GT OR ISZERO PUSH2 0x264D JUMPI PUSH2 0x264C PUSH2 0x26E3 JUMP JUMPDEST JUMPDEST DUP1 PUSH1 0x40 MSTORE POP POP POP JUMP JUMPDEST PUSH32 0x4E487B7100000000000000000000000000000000000000000000000000000000 PUSH1 0x0 MSTORE PUSH1 0x11 PUSH1 0x4 MSTORE PUSH1 0x24 PUSH1 0x0 REVERT JUMPDEST PUSH32 0x4E487B7100000000000000000000000000000000000000000000000000000000 PUSH1 0x0 MSTORE PUSH1 0x12 PUSH1 0x4 MSTORE PUSH1 0x24 PUSH1 0x0 REVERT JUMPDEST PUSH32 0x4E487B7100000000000000000000000000000000000000000000000000000000 PUSH1 0x0 MSTORE PUSH1 0x22 PUSH1 0x4 MSTORE PUSH1 0x24 PUSH1 0x0 REVERT JUMPDEST PUSH32 0x4E487B7100000000000000000000000000000000000000000000000000000000 PUSH1 0x0 MSTORE PUSH1 0x41 PUSH1 0x4 MSTORE PUSH1 0x24 PUSH1 0x0 REVERT JUMPDEST PUSH1 0x0 DUP1 REVERT JUMPDEST PUSH1 0x0 DUP1 REVERT JUMPDEST PUSH1 0x0 DUP1 REVERT JUMPDEST PUSH1 0x0 DUP1 REVERT JUMPDEST PUSH1 0x0 DUP1 REVERT JUMPDEST PUSH1 0x0 DUP1 REVERT JUMPDEST PUSH1 0x0 PUSH1 0x1F NOT PUSH1 0x1F DUP4 ADD AND SWAP1 POP SWAP2 SWAP1 POP JUMP JUMPDEST PUSH32 0x437573746F6D6572206E6F7420726567697374657265642120506C6561736520 PUSH1 0x0 DUP3 ADD MSTORE PUSH32 0x7265676973746572206669727374210000000000000000000000000000000000 PUSH1 0x20 DUP3 ADD MSTORE POP JUMP JUMPDEST PUSH32 0x5468652072657475726E206F6620746869732072657475726E49642068617320 PUSH1 0x0 DUP3 ADD MSTORE PUSH32 0x6265656E20616C72656164792061756469746564210000000000000000000000 PUSH1 0x20 DUP3 ADD MSTORE POP JUMP JUMPDEST PUSH32 0x4E6F207468697320747970652773206361727320617661696C61626C65206E6F PUSH1 0x0 DUP3 ADD MSTORE PUSH32 0x7721000000000000000000000000000000000000000000000000000000000000 PUSH1 0x20 DUP3 ADD MSTORE POP JUMP JUMPDEST PUSH32 0x5468652072656E74206F6620746869732072656E74496420686173206265656E PUSH1 0x0 DUP3 ADD MSTORE PUSH32 0x20616C72656164792072657475726E6564210000000000000000000000000000 PUSH1 0x20 DUP3 ADD MSTORE POP JUMP JUMPDEST PUSH32 0x496E7075742072656E745265636F7264496420496E7661696421000000000000 PUSH1 0x0 DUP3 ADD MSTORE POP JUMP JUMPDEST PUSH32 0x4465706F73697420676976656E2068657265206973206E6F7420656E6F756768 PUSH1 0x0 DUP3 ADD MSTORE PUSH32 0x21204465706F7369742073686F756C65206265206C6172676572207468616E20 PUSH1 0x20 DUP3 ADD MSTORE PUSH32 0x283930202B2072656E744461797329202A206461696C7952656E740000000000 PUSH1 0x40 DUP3 ADD MSTORE POP JUMP JUMPDEST PUSH32 0x496E7075742072657475726E5265636F7264496420496E766169642100000000 PUSH1 0x0 DUP3 ADD MSTORE POP JUMP JUMPDEST PUSH32 0x4F6E6C79204142432063616E2063616C6C20746869732066756E6374696F6E21 PUSH1 0x0 DUP3 ADD MSTORE POP JUMP JUMPDEST PUSH32 0x54686520637573746F6D65722773206164647265737320646F65736E2774206D PUSH1 0x0 DUP3 ADD MSTORE PUSH32 0x6174636865642100000000000000000000000000000000000000000000000000 PUSH1 0x20 DUP3 ADD MSTORE POP JUMP JUMPDEST PUSH2 0x29C5 DUP2 PUSH2 0x2529 JUMP JUMPDEST DUP2 EQ PUSH2 0x29D0 JUMPI PUSH1 0x0 DUP1 REVERT JUMPDEST POP JUMP JUMPDEST PUSH2 0x29DC DUP2 PUSH2 0x2571 JUMP JUMPDEST DUP2 EQ PUSH2 0x29E7 JUMPI PUSH1 0x0 DUP1 REVERT JUMPDEST POP JUMP INVALID LOG2 PUSH5 0x6970667358 0x22 SLT KECCAK256 0x5C 0xFB EXTCODECOPY 0x28 INVALID POP 0xB5 LOG1 SELFBALANCE EXTCODECOPY PUSH29 0x4F074454ED11BC1FD9238A3E3A31CAFC304677637B64736F6C63430008 SMOD STOP CALLER "
				},
				"gasEstimates": {
					"creation": {
						"codeDepositCost": "2156800",
						"executionCost": "infinite",
						"totalCost": "infinite"
					},
					"external": {
						"ABCAddCar(string,uint256,uint256)": "infinite",
						"ABCAddress()": "2599",
						"ABCAuditDeposit(uint256,uint256)": "infinite",
						"allABCAuditDepositRecord(uint256)": "infinite",
						"allCustomerAddresses(address)": "2889",
						"allCustomerRentCarRecord(uint256)": "infinite",
						"allCustomerReturnCarRecord(uint256)": "infinite",
						"carAvailability(string)": "infinite",
						"carInfo(string)": "infinite",
						"currentAuditRecordId()": "2453",
						"currentRentRecordId()": "2496",
						"currentReturnRecordId()": "2496",
						"customerRegister()": "24809",
						"customerRentCar(string,uint256)": "infinite",
						"customerRentingCarNumber(address,string)": "infinite",
						"customerReturnCar(uint256)": "infinite",
						"tokenSC()": "2622"
					}
				},
				"methodIdentifiers": {
					"ABCAddCar(string,uint256,uint256)": "94fa8235",
					"ABCAddress()": "d05a0447",
					"ABCAuditDeposit(uint256,uint256)": "3e7ab6a8",
					"allABCAuditDepositRecord(uint256)": "b027a759",
					"allCustomerAddresses(address)": "c87dec7a",
					"allCustomerRentCarRecord(uint256)": "cb2acd80",
					"allCustomerReturnCarRecord(uint256)": "3a8c0e6e",
					"carAvailability(string)": "586fa64d",
					"carInfo(string)": "1049f50a",
					"currentAuditRecordId()": "001e4c44",
					"currentRentRecordId()": "9532007a",
					"currentReturnRecordId()": "5177d6d2",
					"customerRegister()": "e4962463",
					"customerRentCar(string,uint256)": "6b93e409",
					"customerRentingCarNumber(address,string)": "38266fe5",
					"customerReturnCar(uint256)": "0958d944",
					"tokenSC()": "c16849c0"
				}
			},
			"userdoc": {
				"kind": "user",
				"methods": {},
				"version": 1
			}
		}
	}
}