{
	"contracts/BankLoan.sol": {
		"BankLoan": {
			"abi": [
				{
					"inputs": [
						{
							"internalType": "address",
							"name": "_identitySC",
							"type": "address"
						}
					],
					"stateMutability": "nonpayable",
					"type": "constructor"
				},
				{
					"anonymous": false,
					"inputs": [
						{
							"indexed": false,
							"internalType": "uint256",
							"name": "id",
							"type": "uint256"
						},
						{
							"indexed": false,
							"internalType": "uint256",
							"name": "amount",
							"type": "uint256"
						},
						{
							"indexed": false,
							"internalType": "uint256",
							"name": "months",
							"type": "uint256"
						},
						{
							"indexed": false,
							"internalType": "uint256",
							"name": "interest",
							"type": "uint256"
						},
						{
							"indexed": false,
							"internalType": "string",
							"name": "planId",
							"type": "string"
						},
						{
							"indexed": false,
							"internalType": "enum BankLoan.LoanState",
							"name": "state",
							"type": "uint8"
						},
						{
							"indexed": false,
							"internalType": "address",
							"name": "broker",
							"type": "address"
						},
						{
							"indexed": false,
							"internalType": "address",
							"name": "borrower",
							"type": "address"
						},
						{
							"indexed": false,
							"internalType": "uint256",
							"name": "brokerFee",
							"type": "uint256"
						},
						{
							"indexed": false,
							"internalType": "bool",
							"name": "bankApprove",
							"type": "bool"
						},
						{
							"indexed": false,
							"internalType": "bool",
							"name": "isBorrowerSigned",
							"type": "bool"
						}
					],
					"name": "loanRequest",
					"type": "event"
				},
				{
					"inputs": [
						{
							"internalType": "uint256",
							"name": "_amount",
							"type": "uint256"
						},
						{
							"internalType": "uint256",
							"name": "_months",
							"type": "uint256"
						},
						{
							"internalType": "uint256",
							"name": "_interest",
							"type": "uint256"
						},
						{
							"internalType": "string",
							"name": "_planId",
							"type": "string"
						},
						{
							"internalType": "address",
							"name": "_borrower",
							"type": "address"
						},
						{
							"internalType": "uint256",
							"name": "_brokerFee",
							"type": "uint256"
						}
					],
					"name": "applyLoan",
					"outputs": [],
					"stateMutability": "nonpayable",
					"type": "function"
				},
				{
					"inputs": [
						{
							"internalType": "uint256",
							"name": "_loanId",
							"type": "uint256"
						}
					],
					"name": "approveLoan",
					"outputs": [],
					"stateMutability": "nonpayable",
					"type": "function"
				},
				{
					"inputs": [
						{
							"internalType": "uint256",
							"name": "_loanId",
							"type": "uint256"
						}
					],
					"name": "closeLoan",
					"outputs": [],
					"stateMutability": "nonpayable",
					"type": "function"
				},
				{
					"inputs": [
						{
							"internalType": "uint256",
							"name": "_loanId",
							"type": "uint256"
						}
					],
					"name": "confirmTokenTrasferToBorrower",
					"outputs": [],
					"stateMutability": "nonpayable",
					"type": "function"
				},
				{
					"inputs": [
						{
							"internalType": "uint256",
							"name": "_loanId",
							"type": "uint256"
						}
					],
					"name": "confirmTokenTrasferToBroker",
					"outputs": [],
					"stateMutability": "nonpayable",
					"type": "function"
				},
				{
					"inputs": [],
					"name": "getLoans",
					"outputs": [
						{
							"components": [
								{
									"internalType": "uint256",
									"name": "id",
									"type": "uint256"
								},
								{
									"internalType": "uint256",
									"name": "amount",
									"type": "uint256"
								},
								{
									"internalType": "uint256",
									"name": "months",
									"type": "uint256"
								},
								{
									"internalType": "uint256",
									"name": "interest",
									"type": "uint256"
								},
								{
									"internalType": "string",
									"name": "planId",
									"type": "string"
								},
								{
									"internalType": "enum BankLoan.LoanState",
									"name": "state",
									"type": "uint8"
								},
								{
									"internalType": "address",
									"name": "broker",
									"type": "address"
								},
								{
									"internalType": "address",
									"name": "borrower",
									"type": "address"
								},
								{
									"internalType": "uint256",
									"name": "brokerFee",
									"type": "uint256"
								},
								{
									"internalType": "bool",
									"name": "bankApprove",
									"type": "bool"
								},
								{
									"internalType": "bool",
									"name": "isBorrowerSigned",
									"type": "bool"
								}
							],
							"internalType": "struct BankLoan.Loan[]",
							"name": "",
							"type": "tuple[]"
						}
					],
					"stateMutability": "view",
					"type": "function"
				},
				{
					"inputs": [
						{
							"internalType": "uint256",
							"name": "_loanId",
							"type": "uint256"
						}
					],
					"name": "markAsDefaulted",
					"outputs": [],
					"stateMutability": "nonpayable",
					"type": "function"
				},
				{
					"inputs": [
						{
							"internalType": "uint256",
							"name": "_loanId",
							"type": "uint256"
						}
					],
					"name": "rejectLoan",
					"outputs": [],
					"stateMutability": "nonpayable",
					"type": "function"
				},
				{
					"inputs": [
						{
							"internalType": "uint256",
							"name": "_loanId",
							"type": "uint256"
						}
					],
					"name": "signByBorrower",
					"outputs": [],
					"stateMutability": "nonpayable",
					"type": "function"
				},
				{
					"inputs": [
						{
							"internalType": "uint256",
							"name": "_loanId",
							"type": "uint256"
						}
					],
					"name": "viewLoan",
					"outputs": [
						{
							"components": [
								{
									"internalType": "uint256",
									"name": "id",
									"type": "uint256"
								},
								{
									"internalType": "uint256",
									"name": "amount",
									"type": "uint256"
								},
								{
									"internalType": "uint256",
									"name": "months",
									"type": "uint256"
								},
								{
									"internalType": "uint256",
									"name": "interest",
									"type": "uint256"
								},
								{
									"internalType": "string",
									"name": "planId",
									"type": "string"
								},
								{
									"internalType": "enum BankLoan.LoanState",
									"name": "state",
									"type": "uint8"
								},
								{
									"internalType": "address",
									"name": "broker",
									"type": "address"
								},
								{
									"internalType": "address",
									"name": "borrower",
									"type": "address"
								},
								{
									"internalType": "uint256",
									"name": "brokerFee",
									"type": "uint256"
								},
								{
									"internalType": "bool",
									"name": "bankApprove",
									"type": "bool"
								},
								{
									"internalType": "bool",
									"name": "isBorrowerSigned",
									"type": "bool"
								}
							],
							"internalType": "struct BankLoan.Loan",
							"name": "loan",
							"type": "tuple"
						}
					],
					"stateMutability": "view",
					"type": "function"
				}
			],
			"devdoc": {
				"kind": "dev",
				"methods": {},
				"version": 1
			},
			"evm": {
				"assembly": "    /* \"contracts/BankLoan.sol\":99:5915  contract BankLoan{... */\n  mstore(0x40, 0x80)\n    /* \"contracts/BankLoan.sol\":1004:1152  constructor (address _identitySC) {... */\n  callvalue\n  dup1\n  iszero\n  tag_1\n  jumpi\n  0x00\n  dup1\n  revert\ntag_1:\n  pop\n  mload(0x40)\n  sub(codesize, bytecodeSize)\n  dup1\n  bytecodeSize\n  dup4\n  codecopy\n  dup2\n  dup2\n  add\n  0x40\n  mstore\n  dup2\n  add\n  swap1\n  tag_2\n  swap2\n  swap1\n  tag_3\n  jump\t// in\ntag_2:\n    /* \"contracts/BankLoan.sol\":1056:1066  msg.sender */\n  caller\n    /* \"contracts/BankLoan.sol\":1048:1053  admin */\n  0x00\n  dup1\n    /* \"contracts/BankLoan.sol\":1048:1066  admin = msg.sender */\n  0x0100\n  exp\n  dup2\n  sload\n  dup2\n  0xffffffffffffffffffffffffffffffffffffffff\n  mul\n  not\n  and\n  swap1\n  dup4\n  0xffffffffffffffffffffffffffffffffffffffff\n  and\n  mul\n  or\n  swap1\n  sstore\n  pop\n    /* \"contracts/BankLoan.sol\":1133:1144  _identitySC */\n  dup1\n    /* \"contracts/BankLoan.sol\":1107:1117  identitySC */\n  0x01\n  0x00\n    /* \"contracts/BankLoan.sol\":1107:1145  identitySC = UserIdentity(_identitySC) */\n  0x0100\n  exp\n  dup2\n  sload\n  dup2\n  0xffffffffffffffffffffffffffffffffffffffff\n  mul\n  not\n  and\n  swap1\n  dup4\n  0xffffffffffffffffffffffffffffffffffffffff\n  and\n  mul\n  or\n  swap1\n  sstore\n  pop\n    /* \"contracts/BankLoan.sol\":1004:1152  constructor (address _identitySC) {... */\n  pop\n    /* \"contracts/BankLoan.sol\":99:5915  contract BankLoan{... */\n  jump(tag_6)\n    /* \"#utility.yul\":7:150   */\ntag_8:\n    /* \"#utility.yul\":64:69   */\n  0x00\n    /* \"#utility.yul\":95:101   */\n  dup2\n    /* \"#utility.yul\":89:102   */\n  mload\n    /* \"#utility.yul\":80:102   */\n  swap1\n  pop\n    /* \"#utility.yul\":111:144   */\n  tag_10\n    /* \"#utility.yul\":138:143   */\n  dup2\n    /* \"#utility.yul\":111:144   */\n  tag_11\n  jump\t// in\ntag_10:\n    /* \"#utility.yul\":7:150   */\n  swap3\n  swap2\n  pop\n  pop\n  jump\t// out\n    /* \"#utility.yul\":156:507   */\ntag_3:\n    /* \"#utility.yul\":226:232   */\n  0x00\n    /* \"#utility.yul\":275:277   */\n  0x20\n    /* \"#utility.yul\":263:272   */\n  dup3\n    /* \"#utility.yul\":254:261   */\n  dup5\n    /* \"#utility.yul\":250:273   */\n  sub\n    /* \"#utility.yul\":246:278   */\n  slt\n    /* \"#utility.yul\":243:362   */\n  iszero\n  tag_13\n  jumpi\n    /* \"#utility.yul\":281:360   */\n  tag_14\n  tag_15\n  jump\t// in\ntag_14:\n    /* \"#utility.yul\":243:362   */\ntag_13:\n    /* \"#utility.yul\":401:402   */\n  0x00\n    /* \"#utility.yul\":426:490   */\n  tag_16\n    /* \"#utility.yul\":482:489   */\n  dup5\n    /* \"#utility.yul\":473:479   */\n  dup3\n    /* \"#utility.yul\":462:471   */\n  dup6\n    /* \"#utility.yul\":458:480   */\n  add\n    /* \"#utility.yul\":426:490   */\n  tag_8\n  jump\t// in\ntag_16:\n    /* \"#utility.yul\":416:490   */\n  swap2\n  pop\n    /* \"#utility.yul\":372:500   */\n  pop\n    /* \"#utility.yul\":156:507   */\n  swap3\n  swap2\n  pop\n  pop\n  jump\t// out\n    /* \"#utility.yul\":594:690   */\ntag_19:\n    /* \"#utility.yul\":631:638   */\n  0x00\n    /* \"#utility.yul\":660:684   */\n  tag_21\n    /* \"#utility.yul\":678:683   */\n  dup3\n    /* \"#utility.yul\":660:684   */\n  tag_22\n  jump\t// in\ntag_21:\n    /* \"#utility.yul\":649:684   */\n  swap1\n  pop\n    /* \"#utility.yul\":594:690   */\n  swap2\n  swap1\n  pop\n  jump\t// out\n    /* \"#utility.yul\":696:822   */\ntag_22:\n    /* \"#utility.yul\":733:740   */\n  0x00\n    /* \"#utility.yul\":773:815   */\n  0xffffffffffffffffffffffffffffffffffffffff\n    /* \"#utility.yul\":766:771   */\n  dup3\n    /* \"#utility.yul\":762:816   */\n  and\n    /* \"#utility.yul\":751:816   */\n  swap1\n  pop\n    /* \"#utility.yul\":696:822   */\n  swap2\n  swap1\n  pop\n  jump\t// out\n    /* \"#utility.yul\":951:1068   */\ntag_15:\n    /* \"#utility.yul\":1060:1061   */\n  0x00\n    /* \"#utility.yul\":1057:1058   */\n  dup1\n    /* \"#utility.yul\":1050:1062   */\n  revert\n    /* \"#utility.yul\":1074:1196   */\ntag_11:\n    /* \"#utility.yul\":1147:1171   */\n  tag_28\n    /* \"#utility.yul\":1165:1170   */\n  dup2\n    /* \"#utility.yul\":1147:1171   */\n  tag_19\n  jump\t// in\ntag_28:\n    /* \"#utility.yul\":1140:1145   */\n  dup2\n    /* \"#utility.yul\":1137:1172   */\n  eq\n    /* \"#utility.yul\":1127:1190   */\n  tag_29\n  jumpi\n    /* \"#utility.yul\":1186:1187   */\n  0x00\n    /* \"#utility.yul\":1183:1184   */\n  dup1\n    /* \"#utility.yul\":1176:1188   */\n  revert\n    /* \"#utility.yul\":1127:1190   */\ntag_29:\n    /* \"#utility.yul\":1074:1196   */\n  pop\n  jump\t// out\n    /* \"contracts/BankLoan.sol\":99:5915  contract BankLoan{... */\ntag_6:\n  dataSize(sub_0)\n  dup1\n  dataOffset(sub_0)\n  0x00\n  codecopy\n  0x00\n  return\nstop\n\nsub_0: assembly {\n        /* \"contracts/BankLoan.sol\":99:5915  contract BankLoan{... */\n      mstore(0x40, 0x80)\n      callvalue\n      dup1\n      iszero\n      tag_1\n      jumpi\n      0x00\n      dup1\n      revert\n    tag_1:\n      pop\n      jumpi(tag_2, lt(calldatasize, 0x04))\n      shr(0xe0, calldataload(0x00))\n      dup1\n      0xaadc1ac1\n      gt\n      tag_13\n      jumpi\n      dup1\n      0xaadc1ac1\n      eq\n      tag_8\n      jumpi\n      dup1\n      0xc99771f9\n      eq\n      tag_9\n      jumpi\n      dup1\n      0xd028aa62\n      eq\n      tag_10\n      jumpi\n      dup1\n      0xd05951a0\n      eq\n      tag_11\n      jumpi\n      dup1\n      0xd6e67ffb\n      eq\n      tag_12\n      jumpi\n      jump(tag_2)\n    tag_13:\n      dup1\n      0x5d29cb98\n      eq\n      tag_3\n      jumpi\n      dup1\n      0x8e4e1bee\n      eq\n      tag_4\n      jumpi\n      dup1\n      0x9781503f\n      eq\n      tag_5\n      jumpi\n      dup1\n      0xa8743022\n      eq\n      tag_6\n      jumpi\n      dup1\n      0xaa4a8711\n      eq\n      tag_7\n      jumpi\n    tag_2:\n      0x00\n      dup1\n      revert\n        /* \"contracts/BankLoan.sol\":3856:4227  function rejectLoan(uint _loanId) public isAdmin() isValidLoan(_loanId) isLoanIn(_loanId, LoanState.BORROWER_SIGNED)... */\n    tag_3:\n      tag_14\n      0x04\n      dup1\n      calldatasize\n      sub\n      dup2\n      add\n      swap1\n      tag_15\n      swap2\n      swap1\n      tag_16\n      jump\t// in\n    tag_15:\n      tag_17\n      jump\t// in\n    tag_14:\n      stop\n        /* \"contracts/BankLoan.sol\":4237:4578  function confirmTokenTrasferToBroker(uint _loanId) public isAdmin() isValidLoan(_loanId) isLoanIn(_loanId, LoanState.BANK_APPROVED)... */\n    tag_4:\n      tag_18\n      0x04\n      dup1\n      calldatasize\n      sub\n      dup2\n      add\n      swap1\n      tag_19\n      swap2\n      swap1\n      tag_16\n      jump\t// in\n    tag_19:\n      tag_20\n      jump\t// in\n    tag_18:\n      stop\n        /* \"contracts/BankLoan.sol\":2508:3061  function applyLoan(uint _amount, uint _months, uint _interest, string memory _planId, address _borrower, uint _brokerFee) ... */\n    tag_5:\n      tag_21\n      0x04\n      dup1\n      calldatasize\n      sub\n      dup2\n      add\n      swap1\n      tag_22\n      swap2\n      swap1\n      tag_23\n      jump\t// in\n    tag_22:\n      tag_24\n      jump\t// in\n    tag_21:\n      stop\n        /* \"contracts/BankLoan.sol\":5258:5574  function markAsDefaulted(uint _loanId) public isAdmin() isValidLoan(_loanId) isLoanIn(_loanId, LoanState.ONGOING)... */\n    tag_6:\n      tag_25\n      0x04\n      dup1\n      calldatasize\n      sub\n      dup2\n      add\n      swap1\n      tag_26\n      swap2\n      swap1\n      tag_16\n      jump\t// in\n    tag_26:\n      tag_27\n      jump\t// in\n    tag_25:\n      stop\n        /* \"contracts/BankLoan.sol\":5822:5911  function getLoans() public view returns(Loan [] memory)... */\n    tag_7:\n      tag_28\n      tag_29\n      jump\t// in\n    tag_28:\n      mload(0x40)\n      tag_30\n      swap2\n      swap1\n      tag_31\n      jump\t// in\n    tag_30:\n      mload(0x40)\n      dup1\n      swap2\n      sub\n      swap1\n      return\n        /* \"contracts/BankLoan.sol\":3475:3846  function approveLoan(uint _loanId) public isAdmin() isValidLoan(_loanId) isLoanIn(_loanId, LoanState.BORROWER_SIGNED)... */\n    tag_8:\n      tag_32\n      0x04\n      dup1\n      calldatasize\n      sub\n      dup2\n      add\n      swap1\n      tag_33\n      swap2\n      swap1\n      tag_16\n      jump\t// in\n    tag_33:\n      tag_34\n      jump\t// in\n    tag_32:\n      stop\n        /* \"contracts/BankLoan.sol\":3071:3460  function signByBorrower(uint _loanId) public isLoanBorrower(_loanId) isValidLoan(_loanId) isLoanIn(_loanId, LoanState.REQUESTED)... */\n    tag_9:\n      tag_35\n      0x04\n      dup1\n      calldatasize\n      sub\n      dup2\n      add\n      swap1\n      tag_36\n      swap2\n      swap1\n      tag_16\n      jump\t// in\n    tag_36:\n      tag_37\n      jump\t// in\n    tag_35:\n      stop\n        /* \"contracts/BankLoan.sol\":5580:5812  function viewLoan(uint _loanId) public view returns(Loan memory loan)... */\n    tag_10:\n      tag_38\n      0x04\n      dup1\n      calldatasize\n      sub\n      dup2\n      add\n      swap1\n      tag_39\n      swap2\n      swap1\n      tag_16\n      jump\t// in\n    tag_39:\n      tag_40\n      jump\t// in\n    tag_38:\n      mload(0x40)\n      tag_41\n      swap2\n      swap1\n      tag_42\n      jump\t// in\n    tag_41:\n      mload(0x40)\n      dup1\n      swap2\n      sub\n      swap1\n      return\n        /* \"contracts/BankLoan.sol\":4940:5248  function closeLoan(uint _loanId) public isAdmin() isValidLoan(_loanId) isLoanIn(_loanId, LoanState.ONGOING)... */\n    tag_11:\n      tag_43\n      0x04\n      dup1\n      calldatasize\n      sub\n      dup2\n      add\n      swap1\n      tag_44\n      swap2\n      swap1\n      tag_16\n      jump\t// in\n    tag_44:\n      tag_45\n      jump\t// in\n    tag_43:\n      stop\n        /* \"contracts/BankLoan.sol\":4593:4930  function confirmTokenTrasferToBorrower(uint _loanId) public isAdmin() isValidLoan(_loanId) isLoanIn(_loanId, LoanState.PAID_TO_BROKER)... */\n    tag_12:\n      tag_46\n      0x04\n      dup1\n      calldatasize\n      sub\n      dup2\n      add\n      swap1\n      tag_47\n      swap2\n      swap1\n      tag_16\n      jump\t// in\n    tag_47:\n      tag_48\n      jump\t// in\n    tag_46:\n      stop\n        /* \"contracts/BankLoan.sol\":3856:4227  function rejectLoan(uint _loanId) public isAdmin() isValidLoan(_loanId) isLoanIn(_loanId, LoanState.BORROWER_SIGNED)... */\n    tag_17:\n        /* \"contracts/BankLoan.sol\":1217:1222  admin */\n      0x00\n      dup1\n      sload\n      swap1\n      0x0100\n      exp\n      swap1\n      div\n      0xffffffffffffffffffffffffffffffffffffffff\n      and\n        /* \"contracts/BankLoan.sol\":1203:1222  msg.sender == admin */\n      0xffffffffffffffffffffffffffffffffffffffff\n      and\n        /* \"contracts/BankLoan.sol\":1203:1213  msg.sender */\n      caller\n        /* \"contracts/BankLoan.sol\":1203:1222  msg.sender == admin */\n      0xffffffffffffffffffffffffffffffffffffffff\n      and\n      eq\n        /* \"contracts/BankLoan.sol\":1195:1223  require(msg.sender == admin) */\n      tag_50\n      jumpi\n      0x00\n      dup1\n      revert\n    tag_50:\n        /* \"contracts/BankLoan.sol\":3919:3926  _loanId */\n      dup1\n        /* \"contracts/BankLoan.sol\":1900:1912  bool isValid */\n      0x00\n        /* \"contracts/BankLoan.sol\":1934:1940  uint i */\n      dup1\n        /* \"contracts/BankLoan.sol\":1930:2107  for(uint i=0; i< loans.length; i++)... */\n    tag_52:\n        /* \"contracts/BankLoan.sol\":1947:1952  loans */\n      0x02\n        /* \"contracts/BankLoan.sol\":1947:1959  loans.length */\n      dup1\n      sload\n      swap1\n      pop\n        /* \"contracts/BankLoan.sol\":1944:1945  i */\n      dup2\n        /* \"contracts/BankLoan.sol\":1944:1959  i< loans.length */\n      lt\n        /* \"contracts/BankLoan.sol\":1930:2107  for(uint i=0; i< loans.length; i++)... */\n      iszero\n      tag_53\n      jumpi\n        /* \"contracts/BankLoan.sol\":2006:2013  _loanId */\n      dup3\n        /* \"contracts/BankLoan.sol\":1991:1996  loans */\n      0x02\n        /* \"contracts/BankLoan.sol\":1997:1998  i */\n      dup3\n        /* \"contracts/BankLoan.sol\":1991:1999  loans[i] */\n      dup2\n      sload\n      dup2\n      lt\n      tag_55\n      jumpi\n      tag_56\n      tag_57\n      jump\t// in\n    tag_56:\n    tag_55:\n      swap1\n      0x00\n      mstore\n      keccak256(0x00, 0x20)\n      swap1\n      0x09\n      mul\n      add\n        /* \"contracts/BankLoan.sol\":1991:2002  loans[i].id */\n      0x00\n      add\n      sload\n        /* \"contracts/BankLoan.sol\":1991:2013  loans[i].id == _loanId */\n      eq\n        /* \"contracts/BankLoan.sol\":1988:2097  if(loans[i].id == _loanId)... */\n      iszero\n      tag_59\n      jumpi\n        /* \"contracts/BankLoan.sol\":2055:2059  true */\n      0x01\n        /* \"contracts/BankLoan.sol\":2045:2059  isValid = true */\n      swap2\n      pop\n        /* \"contracts/BankLoan.sol\":2077:2082  break */\n      jump(tag_53)\n        /* \"contracts/BankLoan.sol\":1988:2097  if(loans[i].id == _loanId)... */\n    tag_59:\n        /* \"contracts/BankLoan.sol\":1961:1964  i++ */\n      dup1\n      dup1\n      tag_60\n      swap1\n      tag_61\n      jump\t// in\n    tag_60:\n      swap2\n      pop\n      pop\n        /* \"contracts/BankLoan.sol\":1930:2107  for(uint i=0; i< loans.length; i++)... */\n      jump(tag_52)\n    tag_53:\n      pop\n        /* \"contracts/BankLoan.sol\":2124:2131  isValid */\n      dup1\n        /* \"contracts/BankLoan.sol\":2116:2132  require(isValid) */\n      tag_62\n      jumpi\n      0x00\n      dup1\n      revert\n    tag_62:\n        /* \"contracts/BankLoan.sol\":3937:3944  _loanId */\n      dup3\n        /* \"contracts/BankLoan.sol\":3946:3971  LoanState.BORROWER_SIGNED */\n      0x01\n        /* \"contracts/BankLoan.sol\":2224:2236  bool isValid */\n      0x00\n        /* \"contracts/BankLoan.sol\":2258:2264  uint i */\n      dup1\n        /* \"contracts/BankLoan.sol\":2254:2459  for(uint i=0; i< loans.length; i++)... */\n    tag_64:\n        /* \"contracts/BankLoan.sol\":2271:2276  loans */\n      0x02\n        /* \"contracts/BankLoan.sol\":2271:2283  loans.length */\n      dup1\n      sload\n      swap1\n      pop\n        /* \"contracts/BankLoan.sol\":2268:2269  i */\n      dup2\n        /* \"contracts/BankLoan.sol\":2268:2283  i< loans.length */\n      lt\n        /* \"contracts/BankLoan.sol\":2254:2459  for(uint i=0; i< loans.length; i++)... */\n      iszero\n      tag_65\n      jumpi\n        /* \"contracts/BankLoan.sol\":2330:2337  _loanId */\n      dup4\n        /* \"contracts/BankLoan.sol\":2315:2320  loans */\n      0x02\n        /* \"contracts/BankLoan.sol\":2321:2322  i */\n      dup3\n        /* \"contracts/BankLoan.sol\":2315:2323  loans[i] */\n      dup2\n      sload\n      dup2\n      lt\n      tag_67\n      jumpi\n      tag_68\n      tag_57\n      jump\t// in\n    tag_68:\n    tag_67:\n      swap1\n      0x00\n      mstore\n      keccak256(0x00, 0x20)\n      swap1\n      0x09\n      mul\n      add\n        /* \"contracts/BankLoan.sol\":2315:2326  loans[i].id */\n      0x00\n      add\n      sload\n        /* \"contracts/BankLoan.sol\":2315:2337  loans[i].id == _loanId */\n      eq\n        /* \"contracts/BankLoan.sol\":2315:2365  loans[i].id == _loanId && loans[i].state == _state */\n      dup1\n      iszero\n      tag_70\n      jumpi\n      pop\n        /* \"contracts/BankLoan.sol\":2359:2365  _state */\n      dup3\n        /* \"contracts/BankLoan.sol\":2341:2365  loans[i].state == _state */\n      0x07\n      dup2\n      gt\n      iszero\n      tag_71\n      jumpi\n      tag_72\n      tag_73\n      jump\t// in\n    tag_72:\n    tag_71:\n        /* \"contracts/BankLoan.sol\":2341:2346  loans */\n      0x02\n        /* \"contracts/BankLoan.sol\":2347:2348  i */\n      dup3\n        /* \"contracts/BankLoan.sol\":2341:2349  loans[i] */\n      dup2\n      sload\n      dup2\n      lt\n      tag_74\n      jumpi\n      tag_75\n      tag_57\n      jump\t// in\n    tag_75:\n    tag_74:\n      swap1\n      0x00\n      mstore\n      keccak256(0x00, 0x20)\n      swap1\n      0x09\n      mul\n      add\n        /* \"contracts/BankLoan.sol\":2341:2355  loans[i].state */\n      0x05\n      add\n      0x00\n      swap1\n      sload\n      swap1\n      0x0100\n      exp\n      swap1\n      div\n      0xff\n      and\n        /* \"contracts/BankLoan.sol\":2341:2365  loans[i].state == _state */\n      0x07\n      dup2\n      gt\n      iszero\n      tag_77\n      jumpi\n      tag_78\n      tag_73\n      jump\t// in\n    tag_78:\n    tag_77:\n      eq\n        /* \"contracts/BankLoan.sol\":2315:2365  loans[i].id == _loanId && loans[i].state == _state */\n    tag_70:\n        /* \"contracts/BankLoan.sol\":2312:2449  if(loans[i].id == _loanId && loans[i].state == _state)... */\n      iszero\n      tag_79\n      jumpi\n        /* \"contracts/BankLoan.sol\":2407:2411  true */\n      0x01\n        /* \"contracts/BankLoan.sol\":2397:2411  isValid = true */\n      swap2\n      pop\n        /* \"contracts/BankLoan.sol\":2429:2434  break */\n      jump(tag_65)\n        /* \"contracts/BankLoan.sol\":2312:2449  if(loans[i].id == _loanId && loans[i].state == _state)... */\n    tag_79:\n        /* \"contracts/BankLoan.sol\":2285:2288  i++ */\n      dup1\n      dup1\n      tag_80\n      swap1\n      tag_61\n      jump\t// in\n    tag_80:\n      swap2\n      pop\n      pop\n        /* \"contracts/BankLoan.sol\":2254:2459  for(uint i=0; i< loans.length; i++)... */\n      jump(tag_64)\n    tag_65:\n      pop\n        /* \"contracts/BankLoan.sol\":2476:2483  isValid */\n      dup1\n        /* \"contracts/BankLoan.sol\":2468:2484  require(isValid) */\n      tag_81\n      jumpi\n      0x00\n      dup1\n      revert\n    tag_81:\n        /* \"contracts/BankLoan.sol\":3992:3998  uint i */\n      0x00\n        /* \"contracts/BankLoan.sol\":3987:4221  for (uint i = 0; i < loans.length; i++) {... */\n    tag_83:\n        /* \"contracts/BankLoan.sol\":4008:4013  loans */\n      0x02\n        /* \"contracts/BankLoan.sol\":4008:4020  loans.length */\n      dup1\n      sload\n      swap1\n      pop\n        /* \"contracts/BankLoan.sol\":4004:4005  i */\n      dup2\n        /* \"contracts/BankLoan.sol\":4004:4020  i < loans.length */\n      lt\n        /* \"contracts/BankLoan.sol\":3987:4221  for (uint i = 0; i < loans.length; i++) {... */\n      iszero\n      tag_84\n      jumpi\n        /* \"contracts/BankLoan.sol\":4060:4067  _loanId */\n      dup7\n        /* \"contracts/BankLoan.sol\":4045:4050  loans */\n      0x02\n        /* \"contracts/BankLoan.sol\":4051:4052  i */\n      dup3\n        /* \"contracts/BankLoan.sol\":4045:4053  loans[i] */\n      dup2\n      sload\n      dup2\n      lt\n      tag_86\n      jumpi\n      tag_87\n      tag_57\n      jump\t// in\n    tag_87:\n    tag_86:\n      swap1\n      0x00\n      mstore\n      keccak256(0x00, 0x20)\n      swap1\n      0x09\n      mul\n      add\n        /* \"contracts/BankLoan.sol\":4045:4056  loans[i].id */\n      0x00\n      add\n      sload\n        /* \"contracts/BankLoan.sol\":4045:4067  loans[i].id == _loanId */\n      eq\n        /* \"contracts/BankLoan.sol\":4041:4211  if (loans[i].id == _loanId) {... */\n      iszero\n      tag_89\n      jumpi\n        /* \"contracts/BankLoan.sol\":4110:4115  false */\n      0x00\n        /* \"contracts/BankLoan.sol\":4087:4092  loans */\n      0x02\n        /* \"contracts/BankLoan.sol\":4093:4094  i */\n      dup3\n        /* \"contracts/BankLoan.sol\":4087:4095  loans[i] */\n      dup2\n      sload\n      dup2\n      lt\n      tag_90\n      jumpi\n      tag_91\n      tag_57\n      jump\t// in\n    tag_91:\n    tag_90:\n      swap1\n      0x00\n      mstore\n      keccak256(0x00, 0x20)\n      swap1\n      0x09\n      mul\n      add\n        /* \"contracts/BankLoan.sol\":4087:4107  loans[i].bankApprove */\n      0x08\n      add\n      0x00\n        /* \"contracts/BankLoan.sol\":4087:4115  loans[i].bankApprove = false */\n      0x0100\n      exp\n      dup2\n      sload\n      dup2\n      0xff\n      mul\n      not\n      and\n      swap1\n      dup4\n      iszero\n      iszero\n      mul\n      or\n      swap1\n      sstore\n      pop\n        /* \"contracts/BankLoan.sol\":4150:4173  LoanState.BANK_REJECTED */\n      0x03\n        /* \"contracts/BankLoan.sol\":4133:4138  loans */\n      0x02\n        /* \"contracts/BankLoan.sol\":4139:4140  i */\n      dup3\n        /* \"contracts/BankLoan.sol\":4133:4141  loans[i] */\n      dup2\n      sload\n      dup2\n      lt\n      tag_93\n      jumpi\n      tag_94\n      tag_57\n      jump\t// in\n    tag_94:\n    tag_93:\n      swap1\n      0x00\n      mstore\n      keccak256(0x00, 0x20)\n      swap1\n      0x09\n      mul\n      add\n        /* \"contracts/BankLoan.sol\":4133:4147  loans[i].state */\n      0x05\n      add\n      0x00\n        /* \"contracts/BankLoan.sol\":4133:4173  loans[i].state = LoanState.BANK_REJECTED */\n      0x0100\n      exp\n      dup2\n      sload\n      dup2\n      0xff\n      mul\n      not\n      and\n      swap1\n      dup4\n      0x07\n      dup2\n      gt\n      iszero\n      tag_96\n      jumpi\n      tag_97\n      tag_73\n      jump\t// in\n    tag_97:\n    tag_96:\n      mul\n      or\n      swap1\n      sstore\n      pop\n        /* \"contracts/BankLoan.sol\":4191:4196  break */\n      jump(tag_84)\n        /* \"contracts/BankLoan.sol\":4041:4211  if (loans[i].id == _loanId) {... */\n    tag_89:\n        /* \"contracts/BankLoan.sol\":4022:4025  i++ */\n      dup1\n      dup1\n      tag_98\n      swap1\n      tag_61\n      jump\t// in\n    tag_98:\n      swap2\n      pop\n      pop\n        /* \"contracts/BankLoan.sol\":3987:4221  for (uint i = 0; i < loans.length; i++) {... */\n      jump(tag_83)\n    tag_84:\n      pop\n        /* \"contracts/BankLoan.sol\":2214:2502  {... */\n      pop\n        /* \"contracts/BankLoan.sol\":2142:2143  _ */\n      pop\n      pop\n        /* \"contracts/BankLoan.sol\":1890:2150  {... */\n      pop\n        /* \"contracts/BankLoan.sol\":1233:1234  _ */\n      pop\n        /* \"contracts/BankLoan.sol\":3856:4227  function rejectLoan(uint _loanId) public isAdmin() isValidLoan(_loanId) isLoanIn(_loanId, LoanState.BORROWER_SIGNED)... */\n      pop\n      jump\t// out\n        /* \"contracts/BankLoan.sol\":4237:4578  function confirmTokenTrasferToBroker(uint _loanId) public isAdmin() isValidLoan(_loanId) isLoanIn(_loanId, LoanState.BANK_APPROVED)... */\n    tag_20:\n        /* \"contracts/BankLoan.sol\":1217:1222  admin */\n      0x00\n      dup1\n      sload\n      swap1\n      0x0100\n      exp\n      swap1\n      div\n      0xffffffffffffffffffffffffffffffffffffffff\n      and\n        /* \"contracts/BankLoan.sol\":1203:1222  msg.sender == admin */\n      0xffffffffffffffffffffffffffffffffffffffff\n      and\n        /* \"contracts/BankLoan.sol\":1203:1213  msg.sender */\n      caller\n        /* \"contracts/BankLoan.sol\":1203:1222  msg.sender == admin */\n      0xffffffffffffffffffffffffffffffffffffffff\n      and\n      eq\n        /* \"contracts/BankLoan.sol\":1195:1223  require(msg.sender == admin) */\n      tag_100\n      jumpi\n      0x00\n      dup1\n      revert\n    tag_100:\n        /* \"contracts/BankLoan.sol\":4317:4324  _loanId */\n      dup1\n        /* \"contracts/BankLoan.sol\":1900:1912  bool isValid */\n      0x00\n        /* \"contracts/BankLoan.sol\":1934:1940  uint i */\n      dup1\n        /* \"contracts/BankLoan.sol\":1930:2107  for(uint i=0; i< loans.length; i++)... */\n    tag_102:\n        /* \"contracts/BankLoan.sol\":1947:1952  loans */\n      0x02\n        /* \"contracts/BankLoan.sol\":1947:1959  loans.length */\n      dup1\n      sload\n      swap1\n      pop\n        /* \"contracts/BankLoan.sol\":1944:1945  i */\n      dup2\n        /* \"contracts/BankLoan.sol\":1944:1959  i< loans.length */\n      lt\n        /* \"contracts/BankLoan.sol\":1930:2107  for(uint i=0; i< loans.length; i++)... */\n      iszero\n      tag_103\n      jumpi\n        /* \"contracts/BankLoan.sol\":2006:2013  _loanId */\n      dup3\n        /* \"contracts/BankLoan.sol\":1991:1996  loans */\n      0x02\n        /* \"contracts/BankLoan.sol\":1997:1998  i */\n      dup3\n        /* \"contracts/BankLoan.sol\":1991:1999  loans[i] */\n      dup2\n      sload\n      dup2\n      lt\n      tag_105\n      jumpi\n      tag_106\n      tag_57\n      jump\t// in\n    tag_106:\n    tag_105:\n      swap1\n      0x00\n      mstore\n      keccak256(0x00, 0x20)\n      swap1\n      0x09\n      mul\n      add\n        /* \"contracts/BankLoan.sol\":1991:2002  loans[i].id */\n      0x00\n      add\n      sload\n        /* \"contracts/BankLoan.sol\":1991:2013  loans[i].id == _loanId */\n      eq\n        /* \"contracts/BankLoan.sol\":1988:2097  if(loans[i].id == _loanId)... */\n      iszero\n      tag_108\n      jumpi\n        /* \"contracts/BankLoan.sol\":2055:2059  true */\n      0x01\n        /* \"contracts/BankLoan.sol\":2045:2059  isValid = true */\n      swap2\n      pop\n        /* \"contracts/BankLoan.sol\":2077:2082  break */\n      jump(tag_103)\n        /* \"contracts/BankLoan.sol\":1988:2097  if(loans[i].id == _loanId)... */\n    tag_108:\n        /* \"contracts/BankLoan.sol\":1961:1964  i++ */\n      dup1\n      dup1\n      tag_109\n      swap1\n      tag_61\n      jump\t// in\n    tag_109:\n      swap2\n      pop\n      pop\n        /* \"contracts/BankLoan.sol\":1930:2107  for(uint i=0; i< loans.length; i++)... */\n      jump(tag_102)\n    tag_103:\n      pop\n        /* \"contracts/BankLoan.sol\":2124:2131  isValid */\n      dup1\n        /* \"contracts/BankLoan.sol\":2116:2132  require(isValid) */\n      tag_110\n      jumpi\n      0x00\n      dup1\n      revert\n    tag_110:\n        /* \"contracts/BankLoan.sol\":4335:4342  _loanId */\n      dup3\n        /* \"contracts/BankLoan.sol\":4344:4367  LoanState.BANK_APPROVED */\n      0x02\n        /* \"contracts/BankLoan.sol\":2224:2236  bool isValid */\n      0x00\n        /* \"contracts/BankLoan.sol\":2258:2264  uint i */\n      dup1\n        /* \"contracts/BankLoan.sol\":2254:2459  for(uint i=0; i< loans.length; i++)... */\n    tag_112:\n        /* \"contracts/BankLoan.sol\":2271:2276  loans */\n      0x02\n        /* \"contracts/BankLoan.sol\":2271:2283  loans.length */\n      dup1\n      sload\n      swap1\n      pop\n        /* \"contracts/BankLoan.sol\":2268:2269  i */\n      dup2\n        /* \"contracts/BankLoan.sol\":2268:2283  i< loans.length */\n      lt\n        /* \"contracts/BankLoan.sol\":2254:2459  for(uint i=0; i< loans.length; i++)... */\n      iszero\n      tag_113\n      jumpi\n        /* \"contracts/BankLoan.sol\":2330:2337  _loanId */\n      dup4\n        /* \"contracts/BankLoan.sol\":2315:2320  loans */\n      0x02\n        /* \"contracts/BankLoan.sol\":2321:2322  i */\n      dup3\n        /* \"contracts/BankLoan.sol\":2315:2323  loans[i] */\n      dup2\n      sload\n      dup2\n      lt\n      tag_115\n      jumpi\n      tag_116\n      tag_57\n      jump\t// in\n    tag_116:\n    tag_115:\n      swap1\n      0x00\n      mstore\n      keccak256(0x00, 0x20)\n      swap1\n      0x09\n      mul\n      add\n        /* \"contracts/BankLoan.sol\":2315:2326  loans[i].id */\n      0x00\n      add\n      sload\n        /* \"contracts/BankLoan.sol\":2315:2337  loans[i].id == _loanId */\n      eq\n        /* \"contracts/BankLoan.sol\":2315:2365  loans[i].id == _loanId && loans[i].state == _state */\n      dup1\n      iszero\n      tag_118\n      jumpi\n      pop\n        /* \"contracts/BankLoan.sol\":2359:2365  _state */\n      dup3\n        /* \"contracts/BankLoan.sol\":2341:2365  loans[i].state == _state */\n      0x07\n      dup2\n      gt\n      iszero\n      tag_119\n      jumpi\n      tag_120\n      tag_73\n      jump\t// in\n    tag_120:\n    tag_119:\n        /* \"contracts/BankLoan.sol\":2341:2346  loans */\n      0x02\n        /* \"contracts/BankLoan.sol\":2347:2348  i */\n      dup3\n        /* \"contracts/BankLoan.sol\":2341:2349  loans[i] */\n      dup2\n      sload\n      dup2\n      lt\n      tag_121\n      jumpi\n      tag_122\n      tag_57\n      jump\t// in\n    tag_122:\n    tag_121:\n      swap1\n      0x00\n      mstore\n      keccak256(0x00, 0x20)\n      swap1\n      0x09\n      mul\n      add\n        /* \"contracts/BankLoan.sol\":2341:2355  loans[i].state */\n      0x05\n      add\n      0x00\n      swap1\n      sload\n      swap1\n      0x0100\n      exp\n      swap1\n      div\n      0xff\n      and\n        /* \"contracts/BankLoan.sol\":2341:2365  loans[i].state == _state */\n      0x07\n      dup2\n      gt\n      iszero\n      tag_124\n      jumpi\n      tag_125\n      tag_73\n      jump\t// in\n    tag_125:\n    tag_124:\n      eq\n        /* \"contracts/BankLoan.sol\":2315:2365  loans[i].id == _loanId && loans[i].state == _state */\n    tag_118:\n        /* \"contracts/BankLoan.sol\":2312:2449  if(loans[i].id == _loanId && loans[i].state == _state)... */\n      iszero\n      tag_126\n      jumpi\n        /* \"contracts/BankLoan.sol\":2407:2411  true */\n      0x01\n        /* \"contracts/BankLoan.sol\":2397:2411  isValid = true */\n      swap2\n      pop\n        /* \"contracts/BankLoan.sol\":2429:2434  break */\n      jump(tag_113)\n        /* \"contracts/BankLoan.sol\":2312:2449  if(loans[i].id == _loanId && loans[i].state == _state)... */\n    tag_126:\n        /* \"contracts/BankLoan.sol\":2285:2288  i++ */\n      dup1\n      dup1\n      tag_127\n      swap1\n      tag_61\n      jump\t// in\n    tag_127:\n      swap2\n      pop\n      pop\n        /* \"contracts/BankLoan.sol\":2254:2459  for(uint i=0; i< loans.length; i++)... */\n      jump(tag_112)\n    tag_113:\n      pop\n        /* \"contracts/BankLoan.sol\":2476:2483  isValid */\n      dup1\n        /* \"contracts/BankLoan.sol\":2468:2484  require(isValid) */\n      tag_128\n      jumpi\n      0x00\n      dup1\n      revert\n    tag_128:\n        /* \"contracts/BankLoan.sol\":4388:4394  uint i */\n      0x00\n        /* \"contracts/BankLoan.sol\":4383:4572  for (uint i = 0; i < loans.length; i++) {... */\n    tag_130:\n        /* \"contracts/BankLoan.sol\":4404:4409  loans */\n      0x02\n        /* \"contracts/BankLoan.sol\":4404:4416  loans.length */\n      dup1\n      sload\n      swap1\n      pop\n        /* \"contracts/BankLoan.sol\":4400:4401  i */\n      dup2\n        /* \"contracts/BankLoan.sol\":4400:4416  i < loans.length */\n      lt\n        /* \"contracts/BankLoan.sol\":4383:4572  for (uint i = 0; i < loans.length; i++) {... */\n      iszero\n      tag_131\n      jumpi\n        /* \"contracts/BankLoan.sol\":4456:4463  _loanId */\n      dup7\n        /* \"contracts/BankLoan.sol\":4441:4446  loans */\n      0x02\n        /* \"contracts/BankLoan.sol\":4447:4448  i */\n      dup3\n        /* \"contracts/BankLoan.sol\":4441:4449  loans[i] */\n      dup2\n      sload\n      dup2\n      lt\n      tag_133\n      jumpi\n      tag_134\n      tag_57\n      jump\t// in\n    tag_134:\n    tag_133:\n      swap1\n      0x00\n      mstore\n      keccak256(0x00, 0x20)\n      swap1\n      0x09\n      mul\n      add\n        /* \"contracts/BankLoan.sol\":4441:4452  loans[i].id */\n      0x00\n      add\n      sload\n        /* \"contracts/BankLoan.sol\":4441:4463  loans[i].id == _loanId */\n      eq\n        /* \"contracts/BankLoan.sol\":4437:4562  if (loans[i].id == _loanId) {... */\n      iszero\n      tag_136\n      jumpi\n        /* \"contracts/BankLoan.sol\":4500:4524  LoanState.PAID_TO_BROKER */\n      0x04\n        /* \"contracts/BankLoan.sol\":4483:4488  loans */\n      0x02\n        /* \"contracts/BankLoan.sol\":4489:4490  i */\n      dup3\n        /* \"contracts/BankLoan.sol\":4483:4491  loans[i] */\n      dup2\n      sload\n      dup2\n      lt\n      tag_137\n      jumpi\n      tag_138\n      tag_57\n      jump\t// in\n    tag_138:\n    tag_137:\n      swap1\n      0x00\n      mstore\n      keccak256(0x00, 0x20)\n      swap1\n      0x09\n      mul\n      add\n        /* \"contracts/BankLoan.sol\":4483:4497  loans[i].state */\n      0x05\n      add\n      0x00\n        /* \"contracts/BankLoan.sol\":4483:4524  loans[i].state = LoanState.PAID_TO_BROKER */\n      0x0100\n      exp\n      dup2\n      sload\n      dup2\n      0xff\n      mul\n      not\n      and\n      swap1\n      dup4\n      0x07\n      dup2\n      gt\n      iszero\n      tag_140\n      jumpi\n      tag_141\n      tag_73\n      jump\t// in\n    tag_141:\n    tag_140:\n      mul\n      or\n      swap1\n      sstore\n      pop\n        /* \"contracts/BankLoan.sol\":4542:4547  break */\n      jump(tag_131)\n        /* \"contracts/BankLoan.sol\":4437:4562  if (loans[i].id == _loanId) {... */\n    tag_136:\n        /* \"contracts/BankLoan.sol\":4418:4421  i++ */\n      dup1\n      dup1\n      tag_142\n      swap1\n      tag_61\n      jump\t// in\n    tag_142:\n      swap2\n      pop\n      pop\n        /* \"contracts/BankLoan.sol\":4383:4572  for (uint i = 0; i < loans.length; i++) {... */\n      jump(tag_130)\n    tag_131:\n      pop\n        /* \"contracts/BankLoan.sol\":2214:2502  {... */\n      pop\n        /* \"contracts/BankLoan.sol\":2142:2143  _ */\n      pop\n      pop\n        /* \"contracts/BankLoan.sol\":1890:2150  {... */\n      pop\n        /* \"contracts/BankLoan.sol\":1233:1234  _ */\n      pop\n        /* \"contracts/BankLoan.sol\":4237:4578  function confirmTokenTrasferToBroker(uint _loanId) public isAdmin() isValidLoan(_loanId) isLoanIn(_loanId, LoanState.BANK_APPROVED)... */\n      pop\n      jump\t// out\n        /* \"contracts/BankLoan.sol\":2508:3061  function applyLoan(uint _amount, uint _months, uint _interest, string memory _planId, address _borrower, uint _brokerFee) ... */\n    tag_24:\n        /* \"contracts/BankLoan.sol\":1293:1303  identitySC */\n      0x01\n      0x00\n      swap1\n      sload\n      swap1\n      0x0100\n      exp\n      swap1\n      div\n      0xffffffffffffffffffffffffffffffffffffffff\n      and\n        /* \"contracts/BankLoan.sol\":1293:1318  identitySC.verifyIsBroker */\n      0xffffffffffffffffffffffffffffffffffffffff\n      and\n      0x3314168c\n        /* \"contracts/BankLoan.sol\":1319:1329  msg.sender */\n      caller\n        /* \"contracts/BankLoan.sol\":1293:1330  identitySC.verifyIsBroker(msg.sender) */\n      mload(0x40)\n      dup3\n      0xffffffff\n      and\n      0xe0\n      shl\n      dup2\n      mstore\n      0x04\n      add\n      tag_144\n      swap2\n      swap1\n      tag_145\n      jump\t// in\n    tag_144:\n      0x20\n      mload(0x40)\n      dup1\n      dup4\n      sub\n      dup2\n      dup7\n      dup1\n      extcodesize\n      iszero\n      dup1\n      iszero\n      tag_146\n      jumpi\n      0x00\n      dup1\n      revert\n    tag_146:\n      pop\n      gas\n      staticcall\n      iszero\n      dup1\n      iszero\n      tag_148\n      jumpi\n      returndatasize\n      0x00\n      dup1\n      returndatacopy\n      revert(0x00, returndatasize)\n    tag_148:\n      pop\n      pop\n      pop\n      pop\n      mload(0x40)\n      returndatasize\n      not(0x1f)\n      0x1f\n      dup3\n      add\n      and\n      dup3\n      add\n      dup1\n      0x40\n      mstore\n      pop\n      dup2\n      add\n      swap1\n      tag_149\n      swap2\n      swap1\n      tag_150\n      jump\t// in\n    tag_149:\n        /* \"contracts/BankLoan.sol\":1285:1346  require(identitySC.verifyIsBroker(msg.sender), 'Broker Only') */\n      tag_151\n      jumpi\n      mload(0x40)\n      0x08c379a000000000000000000000000000000000000000000000000000000000\n      dup2\n      mstore\n      0x04\n      add\n      tag_152\n      swap1\n      tag_153\n      jump\t// in\n    tag_152:\n      mload(0x40)\n      dup1\n      swap2\n      sub\n      swap1\n      revert\n    tag_151:\n        /* \"contracts/BankLoan.sol\":2668:2677  _borrower */\n      dup2\n        /* \"contracts/BankLoan.sol\":1430:1440  identitySC */\n      0x01\n      0x00\n      swap1\n      sload\n      swap1\n      0x0100\n      exp\n      swap1\n      div\n      0xffffffffffffffffffffffffffffffffffffffff\n      and\n        /* \"contracts/BankLoan.sol\":1430:1457  identitySC.verifyIsBorrower */\n      0xffffffffffffffffffffffffffffffffffffffff\n      and\n      0xe701c350\n        /* \"contracts/BankLoan.sol\":1458:1466  _address */\n      dup3\n        /* \"contracts/BankLoan.sol\":1430:1467  identitySC.verifyIsBorrower(_address) */\n      mload(0x40)\n      dup3\n      0xffffffff\n      and\n      0xe0\n      shl\n      dup2\n      mstore\n      0x04\n      add\n      tag_155\n      swap2\n      swap1\n      tag_145\n      jump\t// in\n    tag_155:\n      0x20\n      mload(0x40)\n      dup1\n      dup4\n      sub\n      dup2\n      dup7\n      dup1\n      extcodesize\n      iszero\n      dup1\n      iszero\n      tag_156\n      jumpi\n      0x00\n      dup1\n      revert\n    tag_156:\n      pop\n      gas\n      staticcall\n      iszero\n      dup1\n      iszero\n      tag_158\n      jumpi\n      returndatasize\n      0x00\n      dup1\n      returndatacopy\n      revert(0x00, returndatasize)\n    tag_158:\n      pop\n      pop\n      pop\n      pop\n      mload(0x40)\n      returndatasize\n      not(0x1f)\n      0x1f\n      dup3\n      add\n      and\n      dup3\n      add\n      dup1\n      0x40\n      mstore\n      pop\n      dup2\n      add\n      swap1\n      tag_159\n      swap2\n      swap1\n      tag_150\n      jump\t// in\n    tag_159:\n        /* \"contracts/BankLoan.sol\":1422:1485  require(identitySC.verifyIsBorrower(_address), 'Borrower Only') */\n      tag_160\n      jumpi\n      mload(0x40)\n      0x08c379a000000000000000000000000000000000000000000000000000000000\n      dup2\n      mstore\n      0x04\n      add\n      tag_161\n      swap1\n      tag_162\n      jump\t// in\n    tag_161:\n      mload(0x40)\n      dup1\n      swap2\n      sub\n      swap1\n      revert\n    tag_160:\n        /* \"contracts/BankLoan.sol\":2693:2706  Loan memory l */\n      0x00\n        /* \"contracts/BankLoan.sol\":2709:2847  Loan(loans.length + 1, _amount, _months, _interest, _planId, LoanState.REQUESTED, msg.sender,... */\n      mload(0x40)\n      dup1\n      0x0160\n      add\n      0x40\n      mstore\n      dup1\n        /* \"contracts/BankLoan.sol\":2729:2730  1 */\n      0x01\n        /* \"contracts/BankLoan.sol\":2714:2719  loans */\n      0x02\n        /* \"contracts/BankLoan.sol\":2714:2726  loans.length */\n      dup1\n      sload\n      swap1\n      pop\n        /* \"contracts/BankLoan.sol\":2714:2730  loans.length + 1 */\n      tag_164\n      swap2\n      swap1\n      tag_165\n      jump\t// in\n    tag_164:\n        /* \"contracts/BankLoan.sol\":2709:2847  Loan(loans.length + 1, _amount, _months, _interest, _planId, LoanState.REQUESTED, msg.sender,... */\n      dup2\n      mstore\n      0x20\n      add\n        /* \"contracts/BankLoan.sol\":2732:2739  _amount */\n      dup10\n        /* \"contracts/BankLoan.sol\":2709:2847  Loan(loans.length + 1, _amount, _months, _interest, _planId, LoanState.REQUESTED, msg.sender,... */\n      dup2\n      mstore\n      0x20\n      add\n        /* \"contracts/BankLoan.sol\":2741:2748  _months */\n      dup9\n        /* \"contracts/BankLoan.sol\":2709:2847  Loan(loans.length + 1, _amount, _months, _interest, _planId, LoanState.REQUESTED, msg.sender,... */\n      dup2\n      mstore\n      0x20\n      add\n        /* \"contracts/BankLoan.sol\":2750:2759  _interest */\n      dup8\n        /* \"contracts/BankLoan.sol\":2709:2847  Loan(loans.length + 1, _amount, _months, _interest, _planId, LoanState.REQUESTED, msg.sender,... */\n      dup2\n      mstore\n      0x20\n      add\n        /* \"contracts/BankLoan.sol\":2761:2768  _planId */\n      dup7\n        /* \"contracts/BankLoan.sol\":2709:2847  Loan(loans.length + 1, _amount, _months, _interest, _planId, LoanState.REQUESTED, msg.sender,... */\n      dup2\n      mstore\n      0x20\n      add\n        /* \"contracts/BankLoan.sol\":2770:2789  LoanState.REQUESTED */\n      0x00\n        /* \"contracts/BankLoan.sol\":2709:2847  Loan(loans.length + 1, _amount, _months, _interest, _planId, LoanState.REQUESTED, msg.sender,... */\n      0x07\n      dup2\n      gt\n      iszero\n      tag_166\n      jumpi\n      tag_167\n      tag_73\n      jump\t// in\n    tag_167:\n    tag_166:\n      dup2\n      mstore\n      0x20\n      add\n        /* \"contracts/BankLoan.sol\":2791:2801  msg.sender */\n      caller\n        /* \"contracts/BankLoan.sol\":2709:2847  Loan(loans.length + 1, _amount, _months, _interest, _planId, LoanState.REQUESTED, msg.sender,... */\n      0xffffffffffffffffffffffffffffffffffffffff\n      and\n      dup2\n      mstore\n      0x20\n      add\n        /* \"contracts/BankLoan.sol\":2811:2820  _borrower */\n      dup6\n        /* \"contracts/BankLoan.sol\":2709:2847  Loan(loans.length + 1, _amount, _months, _interest, _planId, LoanState.REQUESTED, msg.sender,... */\n      0xffffffffffffffffffffffffffffffffffffffff\n      and\n      dup2\n      mstore\n      0x20\n      add\n        /* \"contracts/BankLoan.sol\":2822:2832  _brokerFee */\n      dup5\n        /* \"contracts/BankLoan.sol\":2709:2847  Loan(loans.length + 1, _amount, _months, _interest, _planId, LoanState.REQUESTED, msg.sender,... */\n      dup2\n      mstore\n      0x20\n      add\n        /* \"contracts/BankLoan.sol\":2834:2839  false */\n      0x00\n        /* \"contracts/BankLoan.sol\":2709:2847  Loan(loans.length + 1, _amount, _months, _interest, _planId, LoanState.REQUESTED, msg.sender,... */\n      iszero\n      iszero\n      dup2\n      mstore\n      0x20\n      add\n        /* \"contracts/BankLoan.sol\":2841:2846  false */\n      0x00\n        /* \"contracts/BankLoan.sol\":2709:2847  Loan(loans.length + 1, _amount, _months, _interest, _planId, LoanState.REQUESTED, msg.sender,... */\n      iszero\n      iszero\n      dup2\n      mstore\n      pop\n        /* \"contracts/BankLoan.sol\":2693:2847  Loan memory l = Loan(loans.length + 1, _amount, _months, _interest, _planId, LoanState.REQUESTED, msg.sender,... */\n      swap1\n      pop\n        /* \"contracts/BankLoan.sol\":2866:2871  loans */\n      0x02\n        /* \"contracts/BankLoan.sol\":2877:2878  l */\n      dup2\n        /* \"contracts/BankLoan.sol\":2866:2879  loans.push(l) */\n      swap1\n      dup1\n      0x01\n      dup2\n      sload\n      add\n      dup1\n      dup3\n      sstore\n      dup1\n      swap2\n      pop\n      pop\n      0x01\n      swap1\n      sub\n      swap1\n      0x00\n      mstore\n      keccak256(0x00, 0x20)\n      swap1\n      0x09\n      mul\n      add\n      0x00\n      swap1\n      swap2\n      swap1\n      swap2\n      swap1\n      swap2\n      pop\n      0x00\n      dup3\n      add\n      mload\n      dup2\n      0x00\n      add\n      sstore\n      0x20\n      dup3\n      add\n      mload\n      dup2\n      0x01\n      add\n      sstore\n      0x40\n      dup3\n      add\n      mload\n      dup2\n      0x02\n      add\n      sstore\n      0x60\n      dup3\n      add\n      mload\n      dup2\n      0x03\n      add\n      sstore\n      0x80\n      dup3\n      add\n      mload\n      dup2\n      0x04\n      add\n      swap1\n      dup1\n      mload\n      swap1\n      0x20\n      add\n      swap1\n      tag_169\n      swap3\n      swap2\n      swap1\n      tag_170\n      jump\t// in\n    tag_169:\n      pop\n      0xa0\n      dup3\n      add\n      mload\n      dup2\n      0x05\n      add\n      exp(0x0100, 0x00)\n      dup2\n      sload\n      dup2\n      0xff\n      mul\n      not\n      and\n      swap1\n      dup4\n      0x07\n      dup2\n      gt\n      iszero\n      tag_171\n      jumpi\n      tag_172\n      tag_73\n      jump\t// in\n    tag_172:\n    tag_171:\n      mul\n      or\n      swap1\n      sstore\n      pop\n      0xc0\n      dup3\n      add\n      mload\n      dup2\n      0x05\n      add\n      exp(0x0100, 0x01)\n      dup2\n      sload\n      dup2\n      0xffffffffffffffffffffffffffffffffffffffff\n      mul\n      not\n      and\n      swap1\n      dup4\n      0xffffffffffffffffffffffffffffffffffffffff\n      and\n      mul\n      or\n      swap1\n      sstore\n      pop\n      0xe0\n      dup3\n      add\n      mload\n      dup2\n      0x06\n      add\n      exp(0x0100, 0x00)\n      dup2\n      sload\n      dup2\n      0xffffffffffffffffffffffffffffffffffffffff\n      mul\n      not\n      and\n      swap1\n      dup4\n      0xffffffffffffffffffffffffffffffffffffffff\n      and\n      mul\n      or\n      swap1\n      sstore\n      pop\n      0x0100\n      dup3\n      add\n      mload\n      dup2\n      0x07\n      add\n      sstore\n      0x0120\n      dup3\n      add\n      mload\n      dup2\n      0x08\n      add\n      exp(0x0100, 0x00)\n      dup2\n      sload\n      dup2\n      0xff\n      mul\n      not\n      and\n      swap1\n      dup4\n      iszero\n      iszero\n      mul\n      or\n      swap1\n      sstore\n      pop\n      0x0140\n      dup3\n      add\n      mload\n      dup2\n      0x08\n      add\n      exp(0x0100, 0x01)\n      dup2\n      sload\n      dup2\n      0xff\n      mul\n      not\n      and\n      swap1\n      dup4\n      iszero\n      iszero\n      mul\n      or\n      swap1\n      sstore\n      pop\n      pop\n      pop\n        /* \"contracts/BankLoan.sol\":2903:3054  loanRequest(l.id, l.amount, l.months, l.interest, l.planId,... */\n      0x15adac5cceaa4e4f4e554f4bfa4edfd231e27a4a540c91c3e47f9c093502e976\n        /* \"contracts/BankLoan.sol\":2915:2916  l */\n      dup2\n        /* \"contracts/BankLoan.sol\":2915:2919  l.id */\n      0x00\n      add\n      mload\n        /* \"contracts/BankLoan.sol\":2921:2922  l */\n      dup3\n        /* \"contracts/BankLoan.sol\":2921:2929  l.amount */\n      0x20\n      add\n      mload\n        /* \"contracts/BankLoan.sol\":2931:2932  l */\n      dup4\n        /* \"contracts/BankLoan.sol\":2931:2939  l.months */\n      0x40\n      add\n      mload\n        /* \"contracts/BankLoan.sol\":2941:2942  l */\n      dup5\n        /* \"contracts/BankLoan.sol\":2941:2951  l.interest */\n      0x60\n      add\n      mload\n        /* \"contracts/BankLoan.sol\":2953:2954  l */\n      dup6\n        /* \"contracts/BankLoan.sol\":2953:2961  l.planId */\n      0x80\n      add\n      mload\n        /* \"contracts/BankLoan.sol\":2975:2976  l */\n      dup7\n        /* \"contracts/BankLoan.sol\":2975:2982  l.state */\n      0xa0\n      add\n      mload\n        /* \"contracts/BankLoan.sol\":2984:2985  l */\n      dup8\n        /* \"contracts/BankLoan.sol\":2984:2992  l.broker */\n      0xc0\n      add\n      mload\n        /* \"contracts/BankLoan.sol\":2994:2995  l */\n      dup9\n        /* \"contracts/BankLoan.sol\":2994:3004  l.borrower */\n      0xe0\n      add\n      mload\n        /* \"contracts/BankLoan.sol\":3006:3007  l */\n      dup10\n        /* \"contracts/BankLoan.sol\":3006:3017  l.brokerFee */\n      0x0100\n      add\n      mload\n        /* \"contracts/BankLoan.sol\":3019:3020  l */\n      dup11\n        /* \"contracts/BankLoan.sol\":3019:3032  l.bankApprove */\n      0x0120\n      add\n      mload\n        /* \"contracts/BankLoan.sol\":3034:3035  l */\n      dup12\n        /* \"contracts/BankLoan.sol\":3034:3052  l.isBorrowerSigned */\n      0x0140\n      add\n      mload\n        /* \"contracts/BankLoan.sol\":2903:3054  loanRequest(l.id, l.amount, l.months, l.interest, l.planId,... */\n      mload(0x40)\n      tag_173\n      swap12\n      swap11\n      swap10\n      swap9\n      swap8\n      swap7\n      swap6\n      swap5\n      swap4\n      swap3\n      swap2\n      swap1\n      tag_174\n      jump\t// in\n    tag_173:\n      mload(0x40)\n      dup1\n      swap2\n      sub\n      swap1\n      log1\n        /* \"contracts/BankLoan.sol\":2683:3061  {... */\n      pop\n        /* \"contracts/BankLoan.sol\":1356:1357  _ */\n      pop\n        /* \"contracts/BankLoan.sol\":2508:3061  function applyLoan(uint _amount, uint _months, uint _interest, string memory _planId, address _borrower, uint _brokerFee) ... */\n      pop\n      pop\n      pop\n      pop\n      pop\n      pop\n      jump\t// out\n        /* \"contracts/BankLoan.sol\":5258:5574  function markAsDefaulted(uint _loanId) public isAdmin() isValidLoan(_loanId) isLoanIn(_loanId, LoanState.ONGOING)... */\n    tag_27:\n        /* \"contracts/BankLoan.sol\":1217:1222  admin */\n      0x00\n      dup1\n      sload\n      swap1\n      0x0100\n      exp\n      swap1\n      div\n      0xffffffffffffffffffffffffffffffffffffffff\n      and\n        /* \"contracts/BankLoan.sol\":1203:1222  msg.sender == admin */\n      0xffffffffffffffffffffffffffffffffffffffff\n      and\n        /* \"contracts/BankLoan.sol\":1203:1213  msg.sender */\n      caller\n        /* \"contracts/BankLoan.sol\":1203:1222  msg.sender == admin */\n      0xffffffffffffffffffffffffffffffffffffffff\n      and\n      eq\n        /* \"contracts/BankLoan.sol\":1195:1223  require(msg.sender == admin) */\n      tag_176\n      jumpi\n      0x00\n      dup1\n      revert\n    tag_176:\n        /* \"contracts/BankLoan.sol\":5326:5333  _loanId */\n      dup1\n        /* \"contracts/BankLoan.sol\":1900:1912  bool isValid */\n      0x00\n        /* \"contracts/BankLoan.sol\":1934:1940  uint i */\n      dup1\n        /* \"contracts/BankLoan.sol\":1930:2107  for(uint i=0; i< loans.length; i++)... */\n    tag_178:\n        /* \"contracts/BankLoan.sol\":1947:1952  loans */\n      0x02\n        /* \"contracts/BankLoan.sol\":1947:1959  loans.length */\n      dup1\n      sload\n      swap1\n      pop\n        /* \"contracts/BankLoan.sol\":1944:1945  i */\n      dup2\n        /* \"contracts/BankLoan.sol\":1944:1959  i< loans.length */\n      lt\n        /* \"contracts/BankLoan.sol\":1930:2107  for(uint i=0; i< loans.length; i++)... */\n      iszero\n      tag_179\n      jumpi\n        /* \"contracts/BankLoan.sol\":2006:2013  _loanId */\n      dup3\n        /* \"contracts/BankLoan.sol\":1991:1996  loans */\n      0x02\n        /* \"contracts/BankLoan.sol\":1997:1998  i */\n      dup3\n        /* \"contracts/BankLoan.sol\":1991:1999  loans[i] */\n      dup2\n      sload\n      dup2\n      lt\n      tag_181\n      jumpi\n      tag_182\n      tag_57\n      jump\t// in\n    tag_182:\n    tag_181:\n      swap1\n      0x00\n      mstore\n      keccak256(0x00, 0x20)\n      swap1\n      0x09\n      mul\n      add\n        /* \"contracts/BankLoan.sol\":1991:2002  loans[i].id */\n      0x00\n      add\n      sload\n        /* \"contracts/BankLoan.sol\":1991:2013  loans[i].id == _loanId */\n      eq\n        /* \"contracts/BankLoan.sol\":1988:2097  if(loans[i].id == _loanId)... */\n      iszero\n      tag_184\n      jumpi\n        /* \"contracts/BankLoan.sol\":2055:2059  true */\n      0x01\n        /* \"contracts/BankLoan.sol\":2045:2059  isValid = true */\n      swap2\n      pop\n        /* \"contracts/BankLoan.sol\":2077:2082  break */\n      jump(tag_179)\n        /* \"contracts/BankLoan.sol\":1988:2097  if(loans[i].id == _loanId)... */\n    tag_184:\n        /* \"contracts/BankLoan.sol\":1961:1964  i++ */\n      dup1\n      dup1\n      tag_185\n      swap1\n      tag_61\n      jump\t// in\n    tag_185:\n      swap2\n      pop\n      pop\n        /* \"contracts/BankLoan.sol\":1930:2107  for(uint i=0; i< loans.length; i++)... */\n      jump(tag_178)\n    tag_179:\n      pop\n        /* \"contracts/BankLoan.sol\":2124:2131  isValid */\n      dup1\n        /* \"contracts/BankLoan.sol\":2116:2132  require(isValid) */\n      tag_186\n      jumpi\n      0x00\n      dup1\n      revert\n    tag_186:\n        /* \"contracts/BankLoan.sol\":5344:5351  _loanId */\n      dup3\n        /* \"contracts/BankLoan.sol\":5353:5370  LoanState.ONGOING */\n      0x05\n        /* \"contracts/BankLoan.sol\":2224:2236  bool isValid */\n      0x00\n        /* \"contracts/BankLoan.sol\":2258:2264  uint i */\n      dup1\n        /* \"contracts/BankLoan.sol\":2254:2459  for(uint i=0; i< loans.length; i++)... */\n    tag_188:\n        /* \"contracts/BankLoan.sol\":2271:2276  loans */\n      0x02\n        /* \"contracts/BankLoan.sol\":2271:2283  loans.length */\n      dup1\n      sload\n      swap1\n      pop\n        /* \"contracts/BankLoan.sol\":2268:2269  i */\n      dup2\n        /* \"contracts/BankLoan.sol\":2268:2283  i< loans.length */\n      lt\n        /* \"contracts/BankLoan.sol\":2254:2459  for(uint i=0; i< loans.length; i++)... */\n      iszero\n      tag_189\n      jumpi\n        /* \"contracts/BankLoan.sol\":2330:2337  _loanId */\n      dup4\n        /* \"contracts/BankLoan.sol\":2315:2320  loans */\n      0x02\n        /* \"contracts/BankLoan.sol\":2321:2322  i */\n      dup3\n        /* \"contracts/BankLoan.sol\":2315:2323  loans[i] */\n      dup2\n      sload\n      dup2\n      lt\n      tag_191\n      jumpi\n      tag_192\n      tag_57\n      jump\t// in\n    tag_192:\n    tag_191:\n      swap1\n      0x00\n      mstore\n      keccak256(0x00, 0x20)\n      swap1\n      0x09\n      mul\n      add\n        /* \"contracts/BankLoan.sol\":2315:2326  loans[i].id */\n      0x00\n      add\n      sload\n        /* \"contracts/BankLoan.sol\":2315:2337  loans[i].id == _loanId */\n      eq\n        /* \"contracts/BankLoan.sol\":2315:2365  loans[i].id == _loanId && loans[i].state == _state */\n      dup1\n      iszero\n      tag_194\n      jumpi\n      pop\n        /* \"contracts/BankLoan.sol\":2359:2365  _state */\n      dup3\n        /* \"contracts/BankLoan.sol\":2341:2365  loans[i].state == _state */\n      0x07\n      dup2\n      gt\n      iszero\n      tag_195\n      jumpi\n      tag_196\n      tag_73\n      jump\t// in\n    tag_196:\n    tag_195:\n        /* \"contracts/BankLoan.sol\":2341:2346  loans */\n      0x02\n        /* \"contracts/BankLoan.sol\":2347:2348  i */\n      dup3\n        /* \"contracts/BankLoan.sol\":2341:2349  loans[i] */\n      dup2\n      sload\n      dup2\n      lt\n      tag_197\n      jumpi\n      tag_198\n      tag_57\n      jump\t// in\n    tag_198:\n    tag_197:\n      swap1\n      0x00\n      mstore\n      keccak256(0x00, 0x20)\n      swap1\n      0x09\n      mul\n      add\n        /* \"contracts/BankLoan.sol\":2341:2355  loans[i].state */\n      0x05\n      add\n      0x00\n      swap1\n      sload\n      swap1\n      0x0100\n      exp\n      swap1\n      div\n      0xff\n      and\n        /* \"contracts/BankLoan.sol\":2341:2365  loans[i].state == _state */\n      0x07\n      dup2\n      gt\n      iszero\n      tag_200\n      jumpi\n      tag_201\n      tag_73\n      jump\t// in\n    tag_201:\n    tag_200:\n      eq\n        /* \"contracts/BankLoan.sol\":2315:2365  loans[i].id == _loanId && loans[i].state == _state */\n    tag_194:\n        /* \"contracts/BankLoan.sol\":2312:2449  if(loans[i].id == _loanId && loans[i].state == _state)... */\n      iszero\n      tag_202\n      jumpi\n        /* \"contracts/BankLoan.sol\":2407:2411  true */\n      0x01\n        /* \"contracts/BankLoan.sol\":2397:2411  isValid = true */\n      swap2\n      pop\n        /* \"contracts/BankLoan.sol\":2429:2434  break */\n      jump(tag_189)\n        /* \"contracts/BankLoan.sol\":2312:2449  if(loans[i].id == _loanId && loans[i].state == _state)... */\n    tag_202:\n        /* \"contracts/BankLoan.sol\":2285:2288  i++ */\n      dup1\n      dup1\n      tag_203\n      swap1\n      tag_61\n      jump\t// in\n    tag_203:\n      swap2\n      pop\n      pop\n        /* \"contracts/BankLoan.sol\":2254:2459  for(uint i=0; i< loans.length; i++)... */\n      jump(tag_188)\n    tag_189:\n      pop\n        /* \"contracts/BankLoan.sol\":2476:2483  isValid */\n      dup1\n        /* \"contracts/BankLoan.sol\":2468:2484  require(isValid) */\n      tag_204\n      jumpi\n      0x00\n      dup1\n      revert\n    tag_204:\n        /* \"contracts/BankLoan.sol\":5391:5397  uint i */\n      0x00\n        /* \"contracts/BankLoan.sol\":5386:5568  for (uint i = 0; i < loans.length; i++) {... */\n    tag_206:\n        /* \"contracts/BankLoan.sol\":5407:5412  loans */\n      0x02\n        /* \"contracts/BankLoan.sol\":5407:5419  loans.length */\n      dup1\n      sload\n      swap1\n      pop\n        /* \"contracts/BankLoan.sol\":5403:5404  i */\n      dup2\n        /* \"contracts/BankLoan.sol\":5403:5419  i < loans.length */\n      lt\n        /* \"contracts/BankLoan.sol\":5386:5568  for (uint i = 0; i < loans.length; i++) {... */\n      iszero\n      tag_207\n      jumpi\n        /* \"contracts/BankLoan.sol\":5459:5466  _loanId */\n      dup7\n        /* \"contracts/BankLoan.sol\":5444:5449  loans */\n      0x02\n        /* \"contracts/BankLoan.sol\":5450:5451  i */\n      dup3\n        /* \"contracts/BankLoan.sol\":5444:5452  loans[i] */\n      dup2\n      sload\n      dup2\n      lt\n      tag_209\n      jumpi\n      tag_210\n      tag_57\n      jump\t// in\n    tag_210:\n    tag_209:\n      swap1\n      0x00\n      mstore\n      keccak256(0x00, 0x20)\n      swap1\n      0x09\n      mul\n      add\n        /* \"contracts/BankLoan.sol\":5444:5455  loans[i].id */\n      0x00\n      add\n      sload\n        /* \"contracts/BankLoan.sol\":5444:5466  loans[i].id == _loanId */\n      eq\n        /* \"contracts/BankLoan.sol\":5440:5558  if (loans[i].id == _loanId) {... */\n      iszero\n      tag_212\n      jumpi\n        /* \"contracts/BankLoan.sol\":5503:5520  LoanState.DEFAULT */\n      0x06\n        /* \"contracts/BankLoan.sol\":5486:5491  loans */\n      0x02\n        /* \"contracts/BankLoan.sol\":5492:5493  i */\n      dup3\n        /* \"contracts/BankLoan.sol\":5486:5494  loans[i] */\n      dup2\n      sload\n      dup2\n      lt\n      tag_213\n      jumpi\n      tag_214\n      tag_57\n      jump\t// in\n    tag_214:\n    tag_213:\n      swap1\n      0x00\n      mstore\n      keccak256(0x00, 0x20)\n      swap1\n      0x09\n      mul\n      add\n        /* \"contracts/BankLoan.sol\":5486:5500  loans[i].state */\n      0x05\n      add\n      0x00\n        /* \"contracts/BankLoan.sol\":5486:5520  loans[i].state = LoanState.DEFAULT */\n      0x0100\n      exp\n      dup2\n      sload\n      dup2\n      0xff\n      mul\n      not\n      and\n      swap1\n      dup4\n      0x07\n      dup2\n      gt\n      iszero\n      tag_216\n      jumpi\n      tag_217\n      tag_73\n      jump\t// in\n    tag_217:\n    tag_216:\n      mul\n      or\n      swap1\n      sstore\n      pop\n        /* \"contracts/BankLoan.sol\":5538:5543  break */\n      jump(tag_207)\n        /* \"contracts/BankLoan.sol\":5440:5558  if (loans[i].id == _loanId) {... */\n    tag_212:\n        /* \"contracts/BankLoan.sol\":5421:5424  i++ */\n      dup1\n      dup1\n      tag_218\n      swap1\n      tag_61\n      jump\t// in\n    tag_218:\n      swap2\n      pop\n      pop\n        /* \"contracts/BankLoan.sol\":5386:5568  for (uint i = 0; i < loans.length; i++) {... */\n      jump(tag_206)\n    tag_207:\n      pop\n        /* \"contracts/BankLoan.sol\":2214:2502  {... */\n      pop\n        /* \"contracts/BankLoan.sol\":2142:2143  _ */\n      pop\n      pop\n        /* \"contracts/BankLoan.sol\":1890:2150  {... */\n      pop\n        /* \"contracts/BankLoan.sol\":1233:1234  _ */\n      pop\n        /* \"contracts/BankLoan.sol\":5258:5574  function markAsDefaulted(uint _loanId) public isAdmin() isValidLoan(_loanId) isLoanIn(_loanId, LoanState.ONGOING)... */\n      pop\n      jump\t// out\n        /* \"contracts/BankLoan.sol\":5822:5911  function getLoans() public view returns(Loan [] memory)... */\n    tag_29:\n        /* \"contracts/BankLoan.sol\":5862:5876  Loan [] memory */\n      0x60\n        /* \"contracts/BankLoan.sol\":5899:5904  loans */\n      0x02\n        /* \"contracts/BankLoan.sol\":5892:5904  return loans */\n      dup1\n      sload\n      dup1\n      0x20\n      mul\n      0x20\n      add\n      mload(0x40)\n      swap1\n      dup2\n      add\n      0x40\n      mstore\n      dup1\n      swap3\n      swap2\n      swap1\n      dup2\n      dup2\n      mstore\n      0x20\n      add\n      0x00\n      swap1\n    tag_220:\n      dup3\n      dup3\n      lt\n      iszero\n      tag_221\n      jumpi\n      dup4\n      dup3\n      swap1\n      0x00\n      mstore\n      keccak256(0x00, 0x20)\n      swap1\n      0x09\n      mul\n      add\n      mload(0x40)\n      dup1\n      0x0160\n      add\n      0x40\n      mstore\n      swap1\n      dup2\n      0x00\n      dup3\n      add\n      sload\n      dup2\n      mstore\n      0x20\n      add\n      0x01\n      dup3\n      add\n      sload\n      dup2\n      mstore\n      0x20\n      add\n      0x02\n      dup3\n      add\n      sload\n      dup2\n      mstore\n      0x20\n      add\n      0x03\n      dup3\n      add\n      sload\n      dup2\n      mstore\n      0x20\n      add\n      0x04\n      dup3\n      add\n      dup1\n      sload\n      tag_223\n      swap1\n      tag_224\n      jump\t// in\n    tag_223:\n      dup1\n      0x1f\n      add\n      0x20\n      dup1\n      swap2\n      div\n      mul\n      0x20\n      add\n      mload(0x40)\n      swap1\n      dup2\n      add\n      0x40\n      mstore\n      dup1\n      swap3\n      swap2\n      swap1\n      dup2\n      dup2\n      mstore\n      0x20\n      add\n      dup3\n      dup1\n      sload\n      tag_225\n      swap1\n      tag_224\n      jump\t// in\n    tag_225:\n      dup1\n      iszero\n      tag_226\n      jumpi\n      dup1\n      0x1f\n      lt\n      tag_227\n      jumpi\n      0x0100\n      dup1\n      dup4\n      sload\n      div\n      mul\n      dup4\n      mstore\n      swap2\n      0x20\n      add\n      swap2\n      jump(tag_226)\n    tag_227:\n      dup3\n      add\n      swap2\n      swap1\n      0x00\n      mstore\n      keccak256(0x00, 0x20)\n      swap1\n    tag_228:\n      dup2\n      sload\n      dup2\n      mstore\n      swap1\n      0x01\n      add\n      swap1\n      0x20\n      add\n      dup1\n      dup4\n      gt\n      tag_228\n      jumpi\n      dup3\n      swap1\n      sub\n      0x1f\n      and\n      dup3\n      add\n      swap2\n    tag_226:\n      pop\n      pop\n      pop\n      pop\n      pop\n      dup2\n      mstore\n      0x20\n      add\n      0x05\n      dup3\n      add\n      0x00\n      swap1\n      sload\n      swap1\n      0x0100\n      exp\n      swap1\n      div\n      0xff\n      and\n      0x07\n      dup2\n      gt\n      iszero\n      tag_229\n      jumpi\n      tag_230\n      tag_73\n      jump\t// in\n    tag_230:\n    tag_229:\n      0x07\n      dup2\n      gt\n      iszero\n      tag_231\n      jumpi\n      tag_232\n      tag_73\n      jump\t// in\n    tag_232:\n    tag_231:\n      dup2\n      mstore\n      0x20\n      add\n      0x05\n      dup3\n      add\n      0x01\n      swap1\n      sload\n      swap1\n      0x0100\n      exp\n      swap1\n      div\n      0xffffffffffffffffffffffffffffffffffffffff\n      and\n      0xffffffffffffffffffffffffffffffffffffffff\n      and\n      0xffffffffffffffffffffffffffffffffffffffff\n      and\n      dup2\n      mstore\n      0x20\n      add\n      0x06\n      dup3\n      add\n      0x00\n      swap1\n      sload\n      swap1\n      0x0100\n      exp\n      swap1\n      div\n      0xffffffffffffffffffffffffffffffffffffffff\n      and\n      0xffffffffffffffffffffffffffffffffffffffff\n      and\n      0xffffffffffffffffffffffffffffffffffffffff\n      and\n      dup2\n      mstore\n      0x20\n      add\n      0x07\n      dup3\n      add\n      sload\n      dup2\n      mstore\n      0x20\n      add\n      0x08\n      dup3\n      add\n      0x00\n      swap1\n      sload\n      swap1\n      0x0100\n      exp\n      swap1\n      div\n      0xff\n      and\n      iszero\n      iszero\n      iszero\n      iszero\n      dup2\n      mstore\n      0x20\n      add\n      0x08\n      dup3\n      add\n      0x01\n      swap1\n      sload\n      swap1\n      0x0100\n      exp\n      swap1\n      div\n      0xff\n      and\n      iszero\n      iszero\n      iszero\n      iszero\n      dup2\n      mstore\n      pop\n      pop\n      dup2\n      mstore\n      0x20\n      add\n      swap1\n      0x01\n      add\n      swap1\n      jump(tag_220)\n    tag_221:\n      pop\n      pop\n      pop\n      pop\n      swap1\n      pop\n        /* \"contracts/BankLoan.sol\":5822:5911  function getLoans() public view returns(Loan [] memory)... */\n      swap1\n      jump\t// out\n        /* \"contracts/BankLoan.sol\":3475:3846  function approveLoan(uint _loanId) public isAdmin() isValidLoan(_loanId) isLoanIn(_loanId, LoanState.BORROWER_SIGNED)... */\n    tag_34:\n        /* \"contracts/BankLoan.sol\":1217:1222  admin */\n      0x00\n      dup1\n      sload\n      swap1\n      0x0100\n      exp\n      swap1\n      div\n      0xffffffffffffffffffffffffffffffffffffffff\n      and\n        /* \"contracts/BankLoan.sol\":1203:1222  msg.sender == admin */\n      0xffffffffffffffffffffffffffffffffffffffff\n      and\n        /* \"contracts/BankLoan.sol\":1203:1213  msg.sender */\n      caller\n        /* \"contracts/BankLoan.sol\":1203:1222  msg.sender == admin */\n      0xffffffffffffffffffffffffffffffffffffffff\n      and\n      eq\n        /* \"contracts/BankLoan.sol\":1195:1223  require(msg.sender == admin) */\n      tag_234\n      jumpi\n      0x00\n      dup1\n      revert\n    tag_234:\n        /* \"contracts/BankLoan.sol\":3539:3546  _loanId */\n      dup1\n        /* \"contracts/BankLoan.sol\":1900:1912  bool isValid */\n      0x00\n        /* \"contracts/BankLoan.sol\":1934:1940  uint i */\n      dup1\n        /* \"contracts/BankLoan.sol\":1930:2107  for(uint i=0; i< loans.length; i++)... */\n    tag_236:\n        /* \"contracts/BankLoan.sol\":1947:1952  loans */\n      0x02\n        /* \"contracts/BankLoan.sol\":1947:1959  loans.length */\n      dup1\n      sload\n      swap1\n      pop\n        /* \"contracts/BankLoan.sol\":1944:1945  i */\n      dup2\n        /* \"contracts/BankLoan.sol\":1944:1959  i< loans.length */\n      lt\n        /* \"contracts/BankLoan.sol\":1930:2107  for(uint i=0; i< loans.length; i++)... */\n      iszero\n      tag_237\n      jumpi\n        /* \"contracts/BankLoan.sol\":2006:2013  _loanId */\n      dup3\n        /* \"contracts/BankLoan.sol\":1991:1996  loans */\n      0x02\n        /* \"contracts/BankLoan.sol\":1997:1998  i */\n      dup3\n        /* \"contracts/BankLoan.sol\":1991:1999  loans[i] */\n      dup2\n      sload\n      dup2\n      lt\n      tag_239\n      jumpi\n      tag_240\n      tag_57\n      jump\t// in\n    tag_240:\n    tag_239:\n      swap1\n      0x00\n      mstore\n      keccak256(0x00, 0x20)\n      swap1\n      0x09\n      mul\n      add\n        /* \"contracts/BankLoan.sol\":1991:2002  loans[i].id */\n      0x00\n      add\n      sload\n        /* \"contracts/BankLoan.sol\":1991:2013  loans[i].id == _loanId */\n      eq\n        /* \"contracts/BankLoan.sol\":1988:2097  if(loans[i].id == _loanId)... */\n      iszero\n      tag_242\n      jumpi\n        /* \"contracts/BankLoan.sol\":2055:2059  true */\n      0x01\n        /* \"contracts/BankLoan.sol\":2045:2059  isValid = true */\n      swap2\n      pop\n        /* \"contracts/BankLoan.sol\":2077:2082  break */\n      jump(tag_237)\n        /* \"contracts/BankLoan.sol\":1988:2097  if(loans[i].id == _loanId)... */\n    tag_242:\n        /* \"contracts/BankLoan.sol\":1961:1964  i++ */\n      dup1\n      dup1\n      tag_243\n      swap1\n      tag_61\n      jump\t// in\n    tag_243:\n      swap2\n      pop\n      pop\n        /* \"contracts/BankLoan.sol\":1930:2107  for(uint i=0; i< loans.length; i++)... */\n      jump(tag_236)\n    tag_237:\n      pop\n        /* \"contracts/BankLoan.sol\":2124:2131  isValid */\n      dup1\n        /* \"contracts/BankLoan.sol\":2116:2132  require(isValid) */\n      tag_244\n      jumpi\n      0x00\n      dup1\n      revert\n    tag_244:\n        /* \"contracts/BankLoan.sol\":3557:3564  _loanId */\n      dup3\n        /* \"contracts/BankLoan.sol\":3566:3591  LoanState.BORROWER_SIGNED */\n      0x01\n        /* \"contracts/BankLoan.sol\":2224:2236  bool isValid */\n      0x00\n        /* \"contracts/BankLoan.sol\":2258:2264  uint i */\n      dup1\n        /* \"contracts/BankLoan.sol\":2254:2459  for(uint i=0; i< loans.length; i++)... */\n    tag_246:\n        /* \"contracts/BankLoan.sol\":2271:2276  loans */\n      0x02\n        /* \"contracts/BankLoan.sol\":2271:2283  loans.length */\n      dup1\n      sload\n      swap1\n      pop\n        /* \"contracts/BankLoan.sol\":2268:2269  i */\n      dup2\n        /* \"contracts/BankLoan.sol\":2268:2283  i< loans.length */\n      lt\n        /* \"contracts/BankLoan.sol\":2254:2459  for(uint i=0; i< loans.length; i++)... */\n      iszero\n      tag_247\n      jumpi\n        /* \"contracts/BankLoan.sol\":2330:2337  _loanId */\n      dup4\n        /* \"contracts/BankLoan.sol\":2315:2320  loans */\n      0x02\n        /* \"contracts/BankLoan.sol\":2321:2322  i */\n      dup3\n        /* \"contracts/BankLoan.sol\":2315:2323  loans[i] */\n      dup2\n      sload\n      dup2\n      lt\n      tag_249\n      jumpi\n      tag_250\n      tag_57\n      jump\t// in\n    tag_250:\n    tag_249:\n      swap1\n      0x00\n      mstore\n      keccak256(0x00, 0x20)\n      swap1\n      0x09\n      mul\n      add\n        /* \"contracts/BankLoan.sol\":2315:2326  loans[i].id */\n      0x00\n      add\n      sload\n        /* \"contracts/BankLoan.sol\":2315:2337  loans[i].id == _loanId */\n      eq\n        /* \"contracts/BankLoan.sol\":2315:2365  loans[i].id == _loanId && loans[i].state == _state */\n      dup1\n      iszero\n      tag_252\n      jumpi\n      pop\n        /* \"contracts/BankLoan.sol\":2359:2365  _state */\n      dup3\n        /* \"contracts/BankLoan.sol\":2341:2365  loans[i].state == _state */\n      0x07\n      dup2\n      gt\n      iszero\n      tag_253\n      jumpi\n      tag_254\n      tag_73\n      jump\t// in\n    tag_254:\n    tag_253:\n        /* \"contracts/BankLoan.sol\":2341:2346  loans */\n      0x02\n        /* \"contracts/BankLoan.sol\":2347:2348  i */\n      dup3\n        /* \"contracts/BankLoan.sol\":2341:2349  loans[i] */\n      dup2\n      sload\n      dup2\n      lt\n      tag_255\n      jumpi\n      tag_256\n      tag_57\n      jump\t// in\n    tag_256:\n    tag_255:\n      swap1\n      0x00\n      mstore\n      keccak256(0x00, 0x20)\n      swap1\n      0x09\n      mul\n      add\n        /* \"contracts/BankLoan.sol\":2341:2355  loans[i].state */\n      0x05\n      add\n      0x00\n      swap1\n      sload\n      swap1\n      0x0100\n      exp\n      swap1\n      div\n      0xff\n      and\n        /* \"contracts/BankLoan.sol\":2341:2365  loans[i].state == _state */\n      0x07\n      dup2\n      gt\n      iszero\n      tag_258\n      jumpi\n      tag_259\n      tag_73\n      jump\t// in\n    tag_259:\n    tag_258:\n      eq\n        /* \"contracts/BankLoan.sol\":2315:2365  loans[i].id == _loanId && loans[i].state == _state */\n    tag_252:\n        /* \"contracts/BankLoan.sol\":2312:2449  if(loans[i].id == _loanId && loans[i].state == _state)... */\n      iszero\n      tag_260\n      jumpi\n        /* \"contracts/BankLoan.sol\":2407:2411  true */\n      0x01\n        /* \"contracts/BankLoan.sol\":2397:2411  isValid = true */\n      swap2\n      pop\n        /* \"contracts/BankLoan.sol\":2429:2434  break */\n      jump(tag_247)\n        /* \"contracts/BankLoan.sol\":2312:2449  if(loans[i].id == _loanId && loans[i].state == _state)... */\n    tag_260:\n        /* \"contracts/BankLoan.sol\":2285:2288  i++ */\n      dup1\n      dup1\n      tag_261\n      swap1\n      tag_61\n      jump\t// in\n    tag_261:\n      swap2\n      pop\n      pop\n        /* \"contracts/BankLoan.sol\":2254:2459  for(uint i=0; i< loans.length; i++)... */\n      jump(tag_246)\n    tag_247:\n      pop\n        /* \"contracts/BankLoan.sol\":2476:2483  isValid */\n      dup1\n        /* \"contracts/BankLoan.sol\":2468:2484  require(isValid) */\n      tag_262\n      jumpi\n      0x00\n      dup1\n      revert\n    tag_262:\n        /* \"contracts/BankLoan.sol\":3612:3618  uint i */\n      0x00\n        /* \"contracts/BankLoan.sol\":3607:3840  for (uint i = 0; i < loans.length; i++) {... */\n    tag_264:\n        /* \"contracts/BankLoan.sol\":3628:3633  loans */\n      0x02\n        /* \"contracts/BankLoan.sol\":3628:3640  loans.length */\n      dup1\n      sload\n      swap1\n      pop\n        /* \"contracts/BankLoan.sol\":3624:3625  i */\n      dup2\n        /* \"contracts/BankLoan.sol\":3624:3640  i < loans.length */\n      lt\n        /* \"contracts/BankLoan.sol\":3607:3840  for (uint i = 0; i < loans.length; i++) {... */\n      iszero\n      tag_265\n      jumpi\n        /* \"contracts/BankLoan.sol\":3680:3687  _loanId */\n      dup7\n        /* \"contracts/BankLoan.sol\":3665:3670  loans */\n      0x02\n        /* \"contracts/BankLoan.sol\":3671:3672  i */\n      dup3\n        /* \"contracts/BankLoan.sol\":3665:3673  loans[i] */\n      dup2\n      sload\n      dup2\n      lt\n      tag_267\n      jumpi\n      tag_268\n      tag_57\n      jump\t// in\n    tag_268:\n    tag_267:\n      swap1\n      0x00\n      mstore\n      keccak256(0x00, 0x20)\n      swap1\n      0x09\n      mul\n      add\n        /* \"contracts/BankLoan.sol\":3665:3676  loans[i].id */\n      0x00\n      add\n      sload\n        /* \"contracts/BankLoan.sol\":3665:3687  loans[i].id == _loanId */\n      eq\n        /* \"contracts/BankLoan.sol\":3661:3830  if (loans[i].id == _loanId) {... */\n      iszero\n      tag_270\n      jumpi\n        /* \"contracts/BankLoan.sol\":3730:3734  true */\n      0x01\n        /* \"contracts/BankLoan.sol\":3707:3712  loans */\n      0x02\n        /* \"contracts/BankLoan.sol\":3713:3714  i */\n      dup3\n        /* \"contracts/BankLoan.sol\":3707:3715  loans[i] */\n      dup2\n      sload\n      dup2\n      lt\n      tag_271\n      jumpi\n      tag_272\n      tag_57\n      jump\t// in\n    tag_272:\n    tag_271:\n      swap1\n      0x00\n      mstore\n      keccak256(0x00, 0x20)\n      swap1\n      0x09\n      mul\n      add\n        /* \"contracts/BankLoan.sol\":3707:3727  loans[i].bankApprove */\n      0x08\n      add\n      0x00\n        /* \"contracts/BankLoan.sol\":3707:3734  loans[i].bankApprove = true */\n      0x0100\n      exp\n      dup2\n      sload\n      dup2\n      0xff\n      mul\n      not\n      and\n      swap1\n      dup4\n      iszero\n      iszero\n      mul\n      or\n      swap1\n      sstore\n      pop\n        /* \"contracts/BankLoan.sol\":3769:3792  LoanState.BANK_APPROVED */\n      0x02\n        /* \"contracts/BankLoan.sol\":3752:3757  loans */\n      dup1\n        /* \"contracts/BankLoan.sol\":3758:3759  i */\n      dup3\n        /* \"contracts/BankLoan.sol\":3752:3760  loans[i] */\n      dup2\n      sload\n      dup2\n      lt\n      tag_274\n      jumpi\n      tag_275\n      tag_57\n      jump\t// in\n    tag_275:\n    tag_274:\n      swap1\n      0x00\n      mstore\n      keccak256(0x00, 0x20)\n      swap1\n      0x09\n      mul\n      add\n        /* \"contracts/BankLoan.sol\":3752:3766  loans[i].state */\n      0x05\n      add\n      0x00\n        /* \"contracts/BankLoan.sol\":3752:3792  loans[i].state = LoanState.BANK_APPROVED */\n      0x0100\n      exp\n      dup2\n      sload\n      dup2\n      0xff\n      mul\n      not\n      and\n      swap1\n      dup4\n      0x07\n      dup2\n      gt\n      iszero\n      tag_277\n      jumpi\n      tag_278\n      tag_73\n      jump\t// in\n    tag_278:\n    tag_277:\n      mul\n      or\n      swap1\n      sstore\n      pop\n        /* \"contracts/BankLoan.sol\":3810:3815  break */\n      jump(tag_265)\n        /* \"contracts/BankLoan.sol\":3661:3830  if (loans[i].id == _loanId) {... */\n    tag_270:\n        /* \"contracts/BankLoan.sol\":3642:3645  i++ */\n      dup1\n      dup1\n      tag_279\n      swap1\n      tag_61\n      jump\t// in\n    tag_279:\n      swap2\n      pop\n      pop\n        /* \"contracts/BankLoan.sol\":3607:3840  for (uint i = 0; i < loans.length; i++) {... */\n      jump(tag_264)\n    tag_265:\n      pop\n        /* \"contracts/BankLoan.sol\":2214:2502  {... */\n      pop\n        /* \"contracts/BankLoan.sol\":2142:2143  _ */\n      pop\n      pop\n        /* \"contracts/BankLoan.sol\":1890:2150  {... */\n      pop\n        /* \"contracts/BankLoan.sol\":1233:1234  _ */\n      pop\n        /* \"contracts/BankLoan.sol\":3475:3846  function approveLoan(uint _loanId) public isAdmin() isValidLoan(_loanId) isLoanIn(_loanId, LoanState.BORROWER_SIGNED)... */\n      pop\n      jump\t// out\n        /* \"contracts/BankLoan.sol\":3071:3460  function signByBorrower(uint _loanId) public isLoanBorrower(_loanId) isValidLoan(_loanId) isLoanIn(_loanId, LoanState.REQUESTED)... */\n    tag_37:\n        /* \"contracts/BankLoan.sol\":3131:3138  _loanId */\n      dup1\n        /* \"contracts/BankLoan.sol\":1556:1568  bool isValid */\n      0x00\n        /* \"contracts/BankLoan.sol\":1590:1596  uint i */\n      dup1\n        /* \"contracts/BankLoan.sol\":1586:1798  for(uint i=0; i< loans.length; i++)... */\n    tag_281:\n        /* \"contracts/BankLoan.sol\":1603:1608  loans */\n      0x02\n        /* \"contracts/BankLoan.sol\":1603:1615  loans.length */\n      dup1\n      sload\n      swap1\n      pop\n        /* \"contracts/BankLoan.sol\":1600:1601  i */\n      dup2\n        /* \"contracts/BankLoan.sol\":1600:1615  i< loans.length */\n      lt\n        /* \"contracts/BankLoan.sol\":1586:1798  for(uint i=0; i< loans.length; i++)... */\n      iszero\n      tag_282\n      jumpi\n        /* \"contracts/BankLoan.sol\":1662:1669  _loanId */\n      dup3\n        /* \"contracts/BankLoan.sol\":1647:1652  loans */\n      0x02\n        /* \"contracts/BankLoan.sol\":1653:1654  i */\n      dup3\n        /* \"contracts/BankLoan.sol\":1647:1655  loans[i] */\n      dup2\n      sload\n      dup2\n      lt\n      tag_284\n      jumpi\n      tag_285\n      tag_57\n      jump\t// in\n    tag_285:\n    tag_284:\n      swap1\n      0x00\n      mstore\n      keccak256(0x00, 0x20)\n      swap1\n      0x09\n      mul\n      add\n        /* \"contracts/BankLoan.sol\":1647:1658  loans[i].id */\n      0x00\n      add\n      sload\n        /* \"contracts/BankLoan.sol\":1647:1669  loans[i].id == _loanId */\n      eq\n        /* \"contracts/BankLoan.sol\":1647:1704  loans[i].id == _loanId && loans[i].borrower == msg.sender */\n      dup1\n      iszero\n      tag_287\n      jumpi\n      pop\n        /* \"contracts/BankLoan.sol\":1694:1704  msg.sender */\n      caller\n        /* \"contracts/BankLoan.sol\":1673:1704  loans[i].borrower == msg.sender */\n      0xffffffffffffffffffffffffffffffffffffffff\n      and\n        /* \"contracts/BankLoan.sol\":1673:1678  loans */\n      0x02\n        /* \"contracts/BankLoan.sol\":1679:1680  i */\n      dup3\n        /* \"contracts/BankLoan.sol\":1673:1681  loans[i] */\n      dup2\n      sload\n      dup2\n      lt\n      tag_288\n      jumpi\n      tag_289\n      tag_57\n      jump\t// in\n    tag_289:\n    tag_288:\n      swap1\n      0x00\n      mstore\n      keccak256(0x00, 0x20)\n      swap1\n      0x09\n      mul\n      add\n        /* \"contracts/BankLoan.sol\":1673:1690  loans[i].borrower */\n      0x06\n      add\n      0x00\n      swap1\n      sload\n      swap1\n      0x0100\n      exp\n      swap1\n      div\n      0xffffffffffffffffffffffffffffffffffffffff\n      and\n        /* \"contracts/BankLoan.sol\":1673:1704  loans[i].borrower == msg.sender */\n      0xffffffffffffffffffffffffffffffffffffffff\n      and\n      eq\n        /* \"contracts/BankLoan.sol\":1647:1704  loans[i].id == _loanId && loans[i].borrower == msg.sender */\n    tag_287:\n        /* \"contracts/BankLoan.sol\":1644:1788  if(loans[i].id == _loanId && loans[i].borrower == msg.sender)... */\n      iszero\n      tag_291\n      jumpi\n        /* \"contracts/BankLoan.sol\":1746:1750  true */\n      0x01\n        /* \"contracts/BankLoan.sol\":1736:1750  isValid = true */\n      swap2\n      pop\n        /* \"contracts/BankLoan.sol\":1768:1773  break */\n      jump(tag_282)\n        /* \"contracts/BankLoan.sol\":1644:1788  if(loans[i].id == _loanId && loans[i].borrower == msg.sender)... */\n    tag_291:\n        /* \"contracts/BankLoan.sol\":1617:1620  i++ */\n      dup1\n      dup1\n      tag_292\n      swap1\n      tag_61\n      jump\t// in\n    tag_292:\n      swap2\n      pop\n      pop\n        /* \"contracts/BankLoan.sol\":1586:1798  for(uint i=0; i< loans.length; i++)... */\n      jump(tag_281)\n    tag_282:\n      pop\n        /* \"contracts/BankLoan.sol\":1815:1822  isValid */\n      dup1\n        /* \"contracts/BankLoan.sol\":1807:1823  require(isValid) */\n      tag_293\n      jumpi\n      0x00\n      dup1\n      revert\n    tag_293:\n        /* \"contracts/BankLoan.sol\":3152:3159  _loanId */\n      dup3\n        /* \"contracts/BankLoan.sol\":1900:1912  bool isValid */\n      0x00\n        /* \"contracts/BankLoan.sol\":1934:1940  uint i */\n      dup1\n        /* \"contracts/BankLoan.sol\":1930:2107  for(uint i=0; i< loans.length; i++)... */\n    tag_295:\n        /* \"contracts/BankLoan.sol\":1947:1952  loans */\n      0x02\n        /* \"contracts/BankLoan.sol\":1947:1959  loans.length */\n      dup1\n      sload\n      swap1\n      pop\n        /* \"contracts/BankLoan.sol\":1944:1945  i */\n      dup2\n        /* \"contracts/BankLoan.sol\":1944:1959  i< loans.length */\n      lt\n        /* \"contracts/BankLoan.sol\":1930:2107  for(uint i=0; i< loans.length; i++)... */\n      iszero\n      tag_296\n      jumpi\n        /* \"contracts/BankLoan.sol\":2006:2013  _loanId */\n      dup3\n        /* \"contracts/BankLoan.sol\":1991:1996  loans */\n      0x02\n        /* \"contracts/BankLoan.sol\":1997:1998  i */\n      dup3\n        /* \"contracts/BankLoan.sol\":1991:1999  loans[i] */\n      dup2\n      sload\n      dup2\n      lt\n      tag_298\n      jumpi\n      tag_299\n      tag_57\n      jump\t// in\n    tag_299:\n    tag_298:\n      swap1\n      0x00\n      mstore\n      keccak256(0x00, 0x20)\n      swap1\n      0x09\n      mul\n      add\n        /* \"contracts/BankLoan.sol\":1991:2002  loans[i].id */\n      0x00\n      add\n      sload\n        /* \"contracts/BankLoan.sol\":1991:2013  loans[i].id == _loanId */\n      eq\n        /* \"contracts/BankLoan.sol\":1988:2097  if(loans[i].id == _loanId)... */\n      iszero\n      tag_301\n      jumpi\n        /* \"contracts/BankLoan.sol\":2055:2059  true */\n      0x01\n        /* \"contracts/BankLoan.sol\":2045:2059  isValid = true */\n      swap2\n      pop\n        /* \"contracts/BankLoan.sol\":2077:2082  break */\n      jump(tag_296)\n        /* \"contracts/BankLoan.sol\":1988:2097  if(loans[i].id == _loanId)... */\n    tag_301:\n        /* \"contracts/BankLoan.sol\":1961:1964  i++ */\n      dup1\n      dup1\n      tag_302\n      swap1\n      tag_61\n      jump\t// in\n    tag_302:\n      swap2\n      pop\n      pop\n        /* \"contracts/BankLoan.sol\":1930:2107  for(uint i=0; i< loans.length; i++)... */\n      jump(tag_295)\n    tag_296:\n      pop\n        /* \"contracts/BankLoan.sol\":2124:2131  isValid */\n      dup1\n        /* \"contracts/BankLoan.sol\":2116:2132  require(isValid) */\n      tag_303\n      jumpi\n      0x00\n      dup1\n      revert\n    tag_303:\n        /* \"contracts/BankLoan.sol\":3170:3177  _loanId */\n      dup5\n        /* \"contracts/BankLoan.sol\":3179:3198  LoanState.REQUESTED */\n      0x00\n        /* \"contracts/BankLoan.sol\":2224:2236  bool isValid */\n      dup1\n        /* \"contracts/BankLoan.sol\":2239:2244  false */\n      0x00\n        /* \"contracts/BankLoan.sol\":2224:2244  bool isValid = false */\n      swap1\n      pop\n        /* \"contracts/BankLoan.sol\":2258:2264  uint i */\n      0x00\n        /* \"contracts/BankLoan.sol\":2254:2459  for(uint i=0; i< loans.length; i++)... */\n    tag_305:\n        /* \"contracts/BankLoan.sol\":2271:2276  loans */\n      0x02\n        /* \"contracts/BankLoan.sol\":2271:2283  loans.length */\n      dup1\n      sload\n      swap1\n      pop\n        /* \"contracts/BankLoan.sol\":2268:2269  i */\n      dup2\n        /* \"contracts/BankLoan.sol\":2268:2283  i< loans.length */\n      lt\n        /* \"contracts/BankLoan.sol\":2254:2459  for(uint i=0; i< loans.length; i++)... */\n      iszero\n      tag_306\n      jumpi\n        /* \"contracts/BankLoan.sol\":2330:2337  _loanId */\n      dup4\n        /* \"contracts/BankLoan.sol\":2315:2320  loans */\n      0x02\n        /* \"contracts/BankLoan.sol\":2321:2322  i */\n      dup3\n        /* \"contracts/BankLoan.sol\":2315:2323  loans[i] */\n      dup2\n      sload\n      dup2\n      lt\n      tag_308\n      jumpi\n      tag_309\n      tag_57\n      jump\t// in\n    tag_309:\n    tag_308:\n      swap1\n      0x00\n      mstore\n      keccak256(0x00, 0x20)\n      swap1\n      0x09\n      mul\n      add\n        /* \"contracts/BankLoan.sol\":2315:2326  loans[i].id */\n      0x00\n      add\n      sload\n        /* \"contracts/BankLoan.sol\":2315:2337  loans[i].id == _loanId */\n      eq\n        /* \"contracts/BankLoan.sol\":2315:2365  loans[i].id == _loanId && loans[i].state == _state */\n      dup1\n      iszero\n      tag_311\n      jumpi\n      pop\n        /* \"contracts/BankLoan.sol\":2359:2365  _state */\n      dup3\n        /* \"contracts/BankLoan.sol\":2341:2365  loans[i].state == _state */\n      0x07\n      dup2\n      gt\n      iszero\n      tag_312\n      jumpi\n      tag_313\n      tag_73\n      jump\t// in\n    tag_313:\n    tag_312:\n        /* \"contracts/BankLoan.sol\":2341:2346  loans */\n      0x02\n        /* \"contracts/BankLoan.sol\":2347:2348  i */\n      dup3\n        /* \"contracts/BankLoan.sol\":2341:2349  loans[i] */\n      dup2\n      sload\n      dup2\n      lt\n      tag_314\n      jumpi\n      tag_315\n      tag_57\n      jump\t// in\n    tag_315:\n    tag_314:\n      swap1\n      0x00\n      mstore\n      keccak256(0x00, 0x20)\n      swap1\n      0x09\n      mul\n      add\n        /* \"contracts/BankLoan.sol\":2341:2355  loans[i].state */\n      0x05\n      add\n      0x00\n      swap1\n      sload\n      swap1\n      0x0100\n      exp\n      swap1\n      div\n      0xff\n      and\n        /* \"contracts/BankLoan.sol\":2341:2365  loans[i].state == _state */\n      0x07\n      dup2\n      gt\n      iszero\n      tag_317\n      jumpi\n      tag_318\n      tag_73\n      jump\t// in\n    tag_318:\n    tag_317:\n      eq\n        /* \"contracts/BankLoan.sol\":2315:2365  loans[i].id == _loanId && loans[i].state == _state */\n    tag_311:\n        /* \"contracts/BankLoan.sol\":2312:2449  if(loans[i].id == _loanId && loans[i].state == _state)... */\n      iszero\n      tag_319\n      jumpi\n        /* \"contracts/BankLoan.sol\":2407:2411  true */\n      0x01\n        /* \"contracts/BankLoan.sol\":2397:2411  isValid = true */\n      swap2\n      pop\n        /* \"contracts/BankLoan.sol\":2429:2434  break */\n      jump(tag_306)\n        /* \"contracts/BankLoan.sol\":2312:2449  if(loans[i].id == _loanId && loans[i].state == _state)... */\n    tag_319:\n        /* \"contracts/BankLoan.sol\":2285:2288  i++ */\n      dup1\n      dup1\n      tag_320\n      swap1\n      tag_61\n      jump\t// in\n    tag_320:\n      swap2\n      pop\n      pop\n        /* \"contracts/BankLoan.sol\":2254:2459  for(uint i=0; i< loans.length; i++)... */\n      jump(tag_305)\n    tag_306:\n      pop\n        /* \"contracts/BankLoan.sol\":2476:2483  isValid */\n      dup1\n        /* \"contracts/BankLoan.sol\":2468:2484  require(isValid) */\n      tag_321\n      jumpi\n      0x00\n      dup1\n      revert\n    tag_321:\n        /* \"contracts/BankLoan.sol\":3219:3225  uint i */\n      0x00\n        /* \"contracts/BankLoan.sol\":3214:3454  for (uint i = 0; i < loans.length; i++) {... */\n    tag_323:\n        /* \"contracts/BankLoan.sol\":3235:3240  loans */\n      0x02\n        /* \"contracts/BankLoan.sol\":3235:3247  loans.length */\n      dup1\n      sload\n      swap1\n      pop\n        /* \"contracts/BankLoan.sol\":3231:3232  i */\n      dup2\n        /* \"contracts/BankLoan.sol\":3231:3247  i < loans.length */\n      lt\n        /* \"contracts/BankLoan.sol\":3214:3454  for (uint i = 0; i < loans.length; i++) {... */\n      iszero\n      tag_324\n      jumpi\n        /* \"contracts/BankLoan.sol\":3287:3294  _loanId */\n      dup9\n        /* \"contracts/BankLoan.sol\":3272:3277  loans */\n      0x02\n        /* \"contracts/BankLoan.sol\":3278:3279  i */\n      dup3\n        /* \"contracts/BankLoan.sol\":3272:3280  loans[i] */\n      dup2\n      sload\n      dup2\n      lt\n      tag_326\n      jumpi\n      tag_327\n      tag_57\n      jump\t// in\n    tag_327:\n    tag_326:\n      swap1\n      0x00\n      mstore\n      keccak256(0x00, 0x20)\n      swap1\n      0x09\n      mul\n      add\n        /* \"contracts/BankLoan.sol\":3272:3283  loans[i].id */\n      0x00\n      add\n      sload\n        /* \"contracts/BankLoan.sol\":3272:3294  loans[i].id == _loanId */\n      eq\n        /* \"contracts/BankLoan.sol\":3268:3444  if (loans[i].id == _loanId) {... */\n      iszero\n      tag_329\n      jumpi\n        /* \"contracts/BankLoan.sol\":3342:3346  true */\n      0x01\n        /* \"contracts/BankLoan.sol\":3314:3319  loans */\n      0x02\n        /* \"contracts/BankLoan.sol\":3320:3321  i */\n      dup3\n        /* \"contracts/BankLoan.sol\":3314:3322  loans[i] */\n      dup2\n      sload\n      dup2\n      lt\n      tag_330\n      jumpi\n      tag_331\n      tag_57\n      jump\t// in\n    tag_331:\n    tag_330:\n      swap1\n      0x00\n      mstore\n      keccak256(0x00, 0x20)\n      swap1\n      0x09\n      mul\n      add\n        /* \"contracts/BankLoan.sol\":3314:3339  loans[i].isBorrowerSigned */\n      0x08\n      add\n      0x01\n        /* \"contracts/BankLoan.sol\":3314:3346  loans[i].isBorrowerSigned = true */\n      0x0100\n      exp\n      dup2\n      sload\n      dup2\n      0xff\n      mul\n      not\n      and\n      swap1\n      dup4\n      iszero\n      iszero\n      mul\n      or\n      swap1\n      sstore\n      pop\n        /* \"contracts/BankLoan.sol\":3381:3406  LoanState.BORROWER_SIGNED */\n      0x01\n        /* \"contracts/BankLoan.sol\":3364:3369  loans */\n      0x02\n        /* \"contracts/BankLoan.sol\":3370:3371  i */\n      dup3\n        /* \"contracts/BankLoan.sol\":3364:3372  loans[i] */\n      dup2\n      sload\n      dup2\n      lt\n      tag_333\n      jumpi\n      tag_334\n      tag_57\n      jump\t// in\n    tag_334:\n    tag_333:\n      swap1\n      0x00\n      mstore\n      keccak256(0x00, 0x20)\n      swap1\n      0x09\n      mul\n      add\n        /* \"contracts/BankLoan.sol\":3364:3378  loans[i].state */\n      0x05\n      add\n      0x00\n        /* \"contracts/BankLoan.sol\":3364:3406  loans[i].state = LoanState.BORROWER_SIGNED */\n      0x0100\n      exp\n      dup2\n      sload\n      dup2\n      0xff\n      mul\n      not\n      and\n      swap1\n      dup4\n      0x07\n      dup2\n      gt\n      iszero\n      tag_336\n      jumpi\n      tag_337\n      tag_73\n      jump\t// in\n    tag_337:\n    tag_336:\n      mul\n      or\n      swap1\n      sstore\n      pop\n        /* \"contracts/BankLoan.sol\":3424:3429  break */\n      jump(tag_324)\n        /* \"contracts/BankLoan.sol\":3268:3444  if (loans[i].id == _loanId) {... */\n    tag_329:\n        /* \"contracts/BankLoan.sol\":3249:3252  i++ */\n      dup1\n      dup1\n      tag_338\n      swap1\n      tag_61\n      jump\t// in\n    tag_338:\n      swap2\n      pop\n      pop\n        /* \"contracts/BankLoan.sol\":3214:3454  for (uint i = 0; i < loans.length; i++) {... */\n      jump(tag_323)\n    tag_324:\n      pop\n        /* \"contracts/BankLoan.sol\":2214:2502  {... */\n      pop\n        /* \"contracts/BankLoan.sol\":2142:2143  _ */\n      pop\n      pop\n        /* \"contracts/BankLoan.sol\":1890:2150  {... */\n      pop\n        /* \"contracts/BankLoan.sol\":1833:1834  _ */\n      pop\n        /* \"contracts/BankLoan.sol\":1546:1841  {... */\n      pop\n        /* \"contracts/BankLoan.sol\":3071:3460  function signByBorrower(uint _loanId) public isLoanBorrower(_loanId) isValidLoan(_loanId) isLoanIn(_loanId, LoanState.REQUESTED)... */\n      pop\n      pop\n      jump\t// out\n        /* \"contracts/BankLoan.sol\":5580:5812  function viewLoan(uint _loanId) public view returns(Loan memory loan)... */\n    tag_40:\n        /* \"contracts/BankLoan.sol\":5632:5648  Loan memory loan */\n      tag_339\n      tag_340\n      jump\t// in\n    tag_339:\n        /* \"contracts/BankLoan.sol\":5669:5675  uint i */\n      0x00\n        /* \"contracts/BankLoan.sol\":5664:5806  for (uint i = 0; i < loans.length; i++) {... */\n    tag_342:\n        /* \"contracts/BankLoan.sol\":5685:5690  loans */\n      0x02\n        /* \"contracts/BankLoan.sol\":5685:5697  loans.length */\n      dup1\n      sload\n      swap1\n      pop\n        /* \"contracts/BankLoan.sol\":5681:5682  i */\n      dup2\n        /* \"contracts/BankLoan.sol\":5681:5697  i < loans.length */\n      lt\n        /* \"contracts/BankLoan.sol\":5664:5806  for (uint i = 0; i < loans.length; i++) {... */\n      iszero\n      tag_343\n      jumpi\n        /* \"contracts/BankLoan.sol\":5737:5744  _loanId */\n      dup3\n        /* \"contracts/BankLoan.sol\":5722:5727  loans */\n      0x02\n        /* \"contracts/BankLoan.sol\":5728:5729  i */\n      dup3\n        /* \"contracts/BankLoan.sol\":5722:5730  loans[i] */\n      dup2\n      sload\n      dup2\n      lt\n      tag_345\n      jumpi\n      tag_346\n      tag_57\n      jump\t// in\n    tag_346:\n    tag_345:\n      swap1\n      0x00\n      mstore\n      keccak256(0x00, 0x20)\n      swap1\n      0x09\n      mul\n      add\n        /* \"contracts/BankLoan.sol\":5722:5733  loans[i].id */\n      0x00\n      add\n      sload\n        /* \"contracts/BankLoan.sol\":5722:5744  loans[i].id == _loanId */\n      eq\n        /* \"contracts/BankLoan.sol\":5718:5796  if (loans[i].id == _loanId) {... */\n      iszero\n      tag_348\n      jumpi\n        /* \"contracts/BankLoan.sol\":5772:5777  loans */\n      0x02\n        /* \"contracts/BankLoan.sol\":5778:5779  i */\n      dup2\n        /* \"contracts/BankLoan.sol\":5772:5780  loans[i] */\n      dup2\n      sload\n      dup2\n      lt\n      tag_349\n      jumpi\n      tag_350\n      tag_57\n      jump\t// in\n    tag_350:\n    tag_349:\n      swap1\n      0x00\n      mstore\n      keccak256(0x00, 0x20)\n      swap1\n      0x09\n      mul\n      add\n        /* \"contracts/BankLoan.sol\":5764:5781  return (loans[i]) */\n      mload(0x40)\n      dup1\n      0x0160\n      add\n      0x40\n      mstore\n      swap1\n      dup2\n      0x00\n      dup3\n      add\n      sload\n      dup2\n      mstore\n      0x20\n      add\n      0x01\n      dup3\n      add\n      sload\n      dup2\n      mstore\n      0x20\n      add\n      0x02\n      dup3\n      add\n      sload\n      dup2\n      mstore\n      0x20\n      add\n      0x03\n      dup3\n      add\n      sload\n      dup2\n      mstore\n      0x20\n      add\n      0x04\n      dup3\n      add\n      dup1\n      sload\n      tag_352\n      swap1\n      tag_224\n      jump\t// in\n    tag_352:\n      dup1\n      0x1f\n      add\n      0x20\n      dup1\n      swap2\n      div\n      mul\n      0x20\n      add\n      mload(0x40)\n      swap1\n      dup2\n      add\n      0x40\n      mstore\n      dup1\n      swap3\n      swap2\n      swap1\n      dup2\n      dup2\n      mstore\n      0x20\n      add\n      dup3\n      dup1\n      sload\n      tag_353\n      swap1\n      tag_224\n      jump\t// in\n    tag_353:\n      dup1\n      iszero\n      tag_354\n      jumpi\n      dup1\n      0x1f\n      lt\n      tag_355\n      jumpi\n      0x0100\n      dup1\n      dup4\n      sload\n      div\n      mul\n      dup4\n      mstore\n      swap2\n      0x20\n      add\n      swap2\n      jump(tag_354)\n    tag_355:\n      dup3\n      add\n      swap2\n      swap1\n      0x00\n      mstore\n      keccak256(0x00, 0x20)\n      swap1\n    tag_356:\n      dup2\n      sload\n      dup2\n      mstore\n      swap1\n      0x01\n      add\n      swap1\n      0x20\n      add\n      dup1\n      dup4\n      gt\n      tag_356\n      jumpi\n      dup3\n      swap1\n      sub\n      0x1f\n      and\n      dup3\n      add\n      swap2\n    tag_354:\n      pop\n      pop\n      pop\n      pop\n      pop\n      dup2\n      mstore\n      0x20\n      add\n      0x05\n      dup3\n      add\n      0x00\n      swap1\n      sload\n      swap1\n      0x0100\n      exp\n      swap1\n      div\n      0xff\n      and\n      0x07\n      dup2\n      gt\n      iszero\n      tag_357\n      jumpi\n      tag_358\n      tag_73\n      jump\t// in\n    tag_358:\n    tag_357:\n      0x07\n      dup2\n      gt\n      iszero\n      tag_359\n      jumpi\n      tag_360\n      tag_73\n      jump\t// in\n    tag_360:\n    tag_359:\n      dup2\n      mstore\n      0x20\n      add\n      0x05\n      dup3\n      add\n      0x01\n      swap1\n      sload\n      swap1\n      0x0100\n      exp\n      swap1\n      div\n      0xffffffffffffffffffffffffffffffffffffffff\n      and\n      0xffffffffffffffffffffffffffffffffffffffff\n      and\n      0xffffffffffffffffffffffffffffffffffffffff\n      and\n      dup2\n      mstore\n      0x20\n      add\n      0x06\n      dup3\n      add\n      0x00\n      swap1\n      sload\n      swap1\n      0x0100\n      exp\n      swap1\n      div\n      0xffffffffffffffffffffffffffffffffffffffff\n      and\n      0xffffffffffffffffffffffffffffffffffffffff\n      and\n      0xffffffffffffffffffffffffffffffffffffffff\n      and\n      dup2\n      mstore\n      0x20\n      add\n      0x07\n      dup3\n      add\n      sload\n      dup2\n      mstore\n      0x20\n      add\n      0x08\n      dup3\n      add\n      0x00\n      swap1\n      sload\n      swap1\n      0x0100\n      exp\n      swap1\n      div\n      0xff\n      and\n      iszero\n      iszero\n      iszero\n      iszero\n      dup2\n      mstore\n      0x20\n      add\n      0x08\n      dup3\n      add\n      0x01\n      swap1\n      sload\n      swap1\n      0x0100\n      exp\n      swap1\n      div\n      0xff\n      and\n      iszero\n      iszero\n      iszero\n      iszero\n      dup2\n      mstore\n      pop\n      pop\n      swap2\n      pop\n      pop\n      jump(tag_341)\n        /* \"contracts/BankLoan.sol\":5718:5796  if (loans[i].id == _loanId) {... */\n    tag_348:\n        /* \"contracts/BankLoan.sol\":5699:5702  i++ */\n      dup1\n      dup1\n      tag_361\n      swap1\n      tag_61\n      jump\t// in\n    tag_361:\n      swap2\n      pop\n      pop\n        /* \"contracts/BankLoan.sol\":5664:5806  for (uint i = 0; i < loans.length; i++) {... */\n      jump(tag_342)\n    tag_343:\n      pop\n        /* \"contracts/BankLoan.sol\":5580:5812  function viewLoan(uint _loanId) public view returns(Loan memory loan)... */\n    tag_341:\n      swap2\n      swap1\n      pop\n      jump\t// out\n        /* \"contracts/BankLoan.sol\":4940:5248  function closeLoan(uint _loanId) public isAdmin() isValidLoan(_loanId) isLoanIn(_loanId, LoanState.ONGOING)... */\n    tag_45:\n        /* \"contracts/BankLoan.sol\":1217:1222  admin */\n      0x00\n      dup1\n      sload\n      swap1\n      0x0100\n      exp\n      swap1\n      div\n      0xffffffffffffffffffffffffffffffffffffffff\n      and\n        /* \"contracts/BankLoan.sol\":1203:1222  msg.sender == admin */\n      0xffffffffffffffffffffffffffffffffffffffff\n      and\n        /* \"contracts/BankLoan.sol\":1203:1213  msg.sender */\n      caller\n        /* \"contracts/BankLoan.sol\":1203:1222  msg.sender == admin */\n      0xffffffffffffffffffffffffffffffffffffffff\n      and\n      eq\n        /* \"contracts/BankLoan.sol\":1195:1223  require(msg.sender == admin) */\n      tag_363\n      jumpi\n      0x00\n      dup1\n      revert\n    tag_363:\n        /* \"contracts/BankLoan.sol\":5002:5009  _loanId */\n      dup1\n        /* \"contracts/BankLoan.sol\":1900:1912  bool isValid */\n      0x00\n        /* \"contracts/BankLoan.sol\":1934:1940  uint i */\n      dup1\n        /* \"contracts/BankLoan.sol\":1930:2107  for(uint i=0; i< loans.length; i++)... */\n    tag_365:\n        /* \"contracts/BankLoan.sol\":1947:1952  loans */\n      0x02\n        /* \"contracts/BankLoan.sol\":1947:1959  loans.length */\n      dup1\n      sload\n      swap1\n      pop\n        /* \"contracts/BankLoan.sol\":1944:1945  i */\n      dup2\n        /* \"contracts/BankLoan.sol\":1944:1959  i< loans.length */\n      lt\n        /* \"contracts/BankLoan.sol\":1930:2107  for(uint i=0; i< loans.length; i++)... */\n      iszero\n      tag_366\n      jumpi\n        /* \"contracts/BankLoan.sol\":2006:2013  _loanId */\n      dup3\n        /* \"contracts/BankLoan.sol\":1991:1996  loans */\n      0x02\n        /* \"contracts/BankLoan.sol\":1997:1998  i */\n      dup3\n        /* \"contracts/BankLoan.sol\":1991:1999  loans[i] */\n      dup2\n      sload\n      dup2\n      lt\n      tag_368\n      jumpi\n      tag_369\n      tag_57\n      jump\t// in\n    tag_369:\n    tag_368:\n      swap1\n      0x00\n      mstore\n      keccak256(0x00, 0x20)\n      swap1\n      0x09\n      mul\n      add\n        /* \"contracts/BankLoan.sol\":1991:2002  loans[i].id */\n      0x00\n      add\n      sload\n        /* \"contracts/BankLoan.sol\":1991:2013  loans[i].id == _loanId */\n      eq\n        /* \"contracts/BankLoan.sol\":1988:2097  if(loans[i].id == _loanId)... */\n      iszero\n      tag_371\n      jumpi\n        /* \"contracts/BankLoan.sol\":2055:2059  true */\n      0x01\n        /* \"contracts/BankLoan.sol\":2045:2059  isValid = true */\n      swap2\n      pop\n        /* \"contracts/BankLoan.sol\":2077:2082  break */\n      jump(tag_366)\n        /* \"contracts/BankLoan.sol\":1988:2097  if(loans[i].id == _loanId)... */\n    tag_371:\n        /* \"contracts/BankLoan.sol\":1961:1964  i++ */\n      dup1\n      dup1\n      tag_372\n      swap1\n      tag_61\n      jump\t// in\n    tag_372:\n      swap2\n      pop\n      pop\n        /* \"contracts/BankLoan.sol\":1930:2107  for(uint i=0; i< loans.length; i++)... */\n      jump(tag_365)\n    tag_366:\n      pop\n        /* \"contracts/BankLoan.sol\":2124:2131  isValid */\n      dup1\n        /* \"contracts/BankLoan.sol\":2116:2132  require(isValid) */\n      tag_373\n      jumpi\n      0x00\n      dup1\n      revert\n    tag_373:\n        /* \"contracts/BankLoan.sol\":5020:5027  _loanId */\n      dup3\n        /* \"contracts/BankLoan.sol\":5029:5046  LoanState.ONGOING */\n      0x05\n        /* \"contracts/BankLoan.sol\":2224:2236  bool isValid */\n      0x00\n        /* \"contracts/BankLoan.sol\":2258:2264  uint i */\n      dup1\n        /* \"contracts/BankLoan.sol\":2254:2459  for(uint i=0; i< loans.length; i++)... */\n    tag_375:\n        /* \"contracts/BankLoan.sol\":2271:2276  loans */\n      0x02\n        /* \"contracts/BankLoan.sol\":2271:2283  loans.length */\n      dup1\n      sload\n      swap1\n      pop\n        /* \"contracts/BankLoan.sol\":2268:2269  i */\n      dup2\n        /* \"contracts/BankLoan.sol\":2268:2283  i< loans.length */\n      lt\n        /* \"contracts/BankLoan.sol\":2254:2459  for(uint i=0; i< loans.length; i++)... */\n      iszero\n      tag_376\n      jumpi\n        /* \"contracts/BankLoan.sol\":2330:2337  _loanId */\n      dup4\n        /* \"contracts/BankLoan.sol\":2315:2320  loans */\n      0x02\n        /* \"contracts/BankLoan.sol\":2321:2322  i */\n      dup3\n        /* \"contracts/BankLoan.sol\":2315:2323  loans[i] */\n      dup2\n      sload\n      dup2\n      lt\n      tag_378\n      jumpi\n      tag_379\n      tag_57\n      jump\t// in\n    tag_379:\n    tag_378:\n      swap1\n      0x00\n      mstore\n      keccak256(0x00, 0x20)\n      swap1\n      0x09\n      mul\n      add\n        /* \"contracts/BankLoan.sol\":2315:2326  loans[i].id */\n      0x00\n      add\n      sload\n        /* \"contracts/BankLoan.sol\":2315:2337  loans[i].id == _loanId */\n      eq\n        /* \"contracts/BankLoan.sol\":2315:2365  loans[i].id == _loanId && loans[i].state == _state */\n      dup1\n      iszero\n      tag_381\n      jumpi\n      pop\n        /* \"contracts/BankLoan.sol\":2359:2365  _state */\n      dup3\n        /* \"contracts/BankLoan.sol\":2341:2365  loans[i].state == _state */\n      0x07\n      dup2\n      gt\n      iszero\n      tag_382\n      jumpi\n      tag_383\n      tag_73\n      jump\t// in\n    tag_383:\n    tag_382:\n        /* \"contracts/BankLoan.sol\":2341:2346  loans */\n      0x02\n        /* \"contracts/BankLoan.sol\":2347:2348  i */\n      dup3\n        /* \"contracts/BankLoan.sol\":2341:2349  loans[i] */\n      dup2\n      sload\n      dup2\n      lt\n      tag_384\n      jumpi\n      tag_385\n      tag_57\n      jump\t// in\n    tag_385:\n    tag_384:\n      swap1\n      0x00\n      mstore\n      keccak256(0x00, 0x20)\n      swap1\n      0x09\n      mul\n      add\n        /* \"contracts/BankLoan.sol\":2341:2355  loans[i].state */\n      0x05\n      add\n      0x00\n      swap1\n      sload\n      swap1\n      0x0100\n      exp\n      swap1\n      div\n      0xff\n      and\n        /* \"contracts/BankLoan.sol\":2341:2365  loans[i].state == _state */\n      0x07\n      dup2\n      gt\n      iszero\n      tag_387\n      jumpi\n      tag_388\n      tag_73\n      jump\t// in\n    tag_388:\n    tag_387:\n      eq\n        /* \"contracts/BankLoan.sol\":2315:2365  loans[i].id == _loanId && loans[i].state == _state */\n    tag_381:\n        /* \"contracts/BankLoan.sol\":2312:2449  if(loans[i].id == _loanId && loans[i].state == _state)... */\n      iszero\n      tag_389\n      jumpi\n        /* \"contracts/BankLoan.sol\":2407:2411  true */\n      0x01\n        /* \"contracts/BankLoan.sol\":2397:2411  isValid = true */\n      swap2\n      pop\n        /* \"contracts/BankLoan.sol\":2429:2434  break */\n      jump(tag_376)\n        /* \"contracts/BankLoan.sol\":2312:2449  if(loans[i].id == _loanId && loans[i].state == _state)... */\n    tag_389:\n        /* \"contracts/BankLoan.sol\":2285:2288  i++ */\n      dup1\n      dup1\n      tag_390\n      swap1\n      tag_61\n      jump\t// in\n    tag_390:\n      swap2\n      pop\n      pop\n        /* \"contracts/BankLoan.sol\":2254:2459  for(uint i=0; i< loans.length; i++)... */\n      jump(tag_375)\n    tag_376:\n      pop\n        /* \"contracts/BankLoan.sol\":2476:2483  isValid */\n      dup1\n        /* \"contracts/BankLoan.sol\":2468:2484  require(isValid) */\n      tag_391\n      jumpi\n      0x00\n      dup1\n      revert\n    tag_391:\n        /* \"contracts/BankLoan.sol\":5067:5073  uint i */\n      0x00\n        /* \"contracts/BankLoan.sol\":5062:5242  for (uint i = 0; i < loans.length; i++) {... */\n    tag_393:\n        /* \"contracts/BankLoan.sol\":5083:5088  loans */\n      0x02\n        /* \"contracts/BankLoan.sol\":5083:5095  loans.length */\n      dup1\n      sload\n      swap1\n      pop\n        /* \"contracts/BankLoan.sol\":5079:5080  i */\n      dup2\n        /* \"contracts/BankLoan.sol\":5079:5095  i < loans.length */\n      lt\n        /* \"contracts/BankLoan.sol\":5062:5242  for (uint i = 0; i < loans.length; i++) {... */\n      iszero\n      tag_394\n      jumpi\n        /* \"contracts/BankLoan.sol\":5135:5142  _loanId */\n      dup7\n        /* \"contracts/BankLoan.sol\":5120:5125  loans */\n      0x02\n        /* \"contracts/BankLoan.sol\":5126:5127  i */\n      dup3\n        /* \"contracts/BankLoan.sol\":5120:5128  loans[i] */\n      dup2\n      sload\n      dup2\n      lt\n      tag_396\n      jumpi\n      tag_397\n      tag_57\n      jump\t// in\n    tag_397:\n    tag_396:\n      swap1\n      0x00\n      mstore\n      keccak256(0x00, 0x20)\n      swap1\n      0x09\n      mul\n      add\n        /* \"contracts/BankLoan.sol\":5120:5131  loans[i].id */\n      0x00\n      add\n      sload\n        /* \"contracts/BankLoan.sol\":5120:5142  loans[i].id == _loanId */\n      eq\n        /* \"contracts/BankLoan.sol\":5116:5232  if (loans[i].id == _loanId) {... */\n      iszero\n      tag_399\n      jumpi\n        /* \"contracts/BankLoan.sol\":5179:5194  LoanState.CLOSE */\n      0x07\n        /* \"contracts/BankLoan.sol\":5162:5167  loans */\n      0x02\n        /* \"contracts/BankLoan.sol\":5168:5169  i */\n      dup3\n        /* \"contracts/BankLoan.sol\":5162:5170  loans[i] */\n      dup2\n      sload\n      dup2\n      lt\n      tag_400\n      jumpi\n      tag_401\n      tag_57\n      jump\t// in\n    tag_401:\n    tag_400:\n      swap1\n      0x00\n      mstore\n      keccak256(0x00, 0x20)\n      swap1\n      0x09\n      mul\n      add\n        /* \"contracts/BankLoan.sol\":5162:5176  loans[i].state */\n      0x05\n      add\n      0x00\n        /* \"contracts/BankLoan.sol\":5162:5194  loans[i].state = LoanState.CLOSE */\n      0x0100\n      exp\n      dup2\n      sload\n      dup2\n      0xff\n      mul\n      not\n      and\n      swap1\n      dup4\n      0x07\n      dup2\n      gt\n      iszero\n      tag_403\n      jumpi\n      tag_404\n      tag_73\n      jump\t// in\n    tag_404:\n    tag_403:\n      mul\n      or\n      swap1\n      sstore\n      pop\n        /* \"contracts/BankLoan.sol\":5212:5217  break */\n      jump(tag_394)\n        /* \"contracts/BankLoan.sol\":5116:5232  if (loans[i].id == _loanId) {... */\n    tag_399:\n        /* \"contracts/BankLoan.sol\":5097:5100  i++ */\n      dup1\n      dup1\n      tag_405\n      swap1\n      tag_61\n      jump\t// in\n    tag_405:\n      swap2\n      pop\n      pop\n        /* \"contracts/BankLoan.sol\":5062:5242  for (uint i = 0; i < loans.length; i++) {... */\n      jump(tag_393)\n    tag_394:\n      pop\n        /* \"contracts/BankLoan.sol\":2214:2502  {... */\n      pop\n        /* \"contracts/BankLoan.sol\":2142:2143  _ */\n      pop\n      pop\n        /* \"contracts/BankLoan.sol\":1890:2150  {... */\n      pop\n        /* \"contracts/BankLoan.sol\":1233:1234  _ */\n      pop\n        /* \"contracts/BankLoan.sol\":4940:5248  function closeLoan(uint _loanId) public isAdmin() isValidLoan(_loanId) isLoanIn(_loanId, LoanState.ONGOING)... */\n      pop\n      jump\t// out\n        /* \"contracts/BankLoan.sol\":4593:4930  function confirmTokenTrasferToBorrower(uint _loanId) public isAdmin() isValidLoan(_loanId) isLoanIn(_loanId, LoanState.PAID_TO_BROKER)... */\n    tag_48:\n        /* \"contracts/BankLoan.sol\":1217:1222  admin */\n      0x00\n      dup1\n      sload\n      swap1\n      0x0100\n      exp\n      swap1\n      div\n      0xffffffffffffffffffffffffffffffffffffffff\n      and\n        /* \"contracts/BankLoan.sol\":1203:1222  msg.sender == admin */\n      0xffffffffffffffffffffffffffffffffffffffff\n      and\n        /* \"contracts/BankLoan.sol\":1203:1213  msg.sender */\n      caller\n        /* \"contracts/BankLoan.sol\":1203:1222  msg.sender == admin */\n      0xffffffffffffffffffffffffffffffffffffffff\n      and\n      eq\n        /* \"contracts/BankLoan.sol\":1195:1223  require(msg.sender == admin) */\n      tag_407\n      jumpi\n      0x00\n      dup1\n      revert\n    tag_407:\n        /* \"contracts/BankLoan.sol\":4675:4682  _loanId */\n      dup1\n        /* \"contracts/BankLoan.sol\":1900:1912  bool isValid */\n      0x00\n        /* \"contracts/BankLoan.sol\":1934:1940  uint i */\n      dup1\n        /* \"contracts/BankLoan.sol\":1930:2107  for(uint i=0; i< loans.length; i++)... */\n    tag_409:\n        /* \"contracts/BankLoan.sol\":1947:1952  loans */\n      0x02\n        /* \"contracts/BankLoan.sol\":1947:1959  loans.length */\n      dup1\n      sload\n      swap1\n      pop\n        /* \"contracts/BankLoan.sol\":1944:1945  i */\n      dup2\n        /* \"contracts/BankLoan.sol\":1944:1959  i< loans.length */\n      lt\n        /* \"contracts/BankLoan.sol\":1930:2107  for(uint i=0; i< loans.length; i++)... */\n      iszero\n      tag_410\n      jumpi\n        /* \"contracts/BankLoan.sol\":2006:2013  _loanId */\n      dup3\n        /* \"contracts/BankLoan.sol\":1991:1996  loans */\n      0x02\n        /* \"contracts/BankLoan.sol\":1997:1998  i */\n      dup3\n        /* \"contracts/BankLoan.sol\":1991:1999  loans[i] */\n      dup2\n      sload\n      dup2\n      lt\n      tag_412\n      jumpi\n      tag_413\n      tag_57\n      jump\t// in\n    tag_413:\n    tag_412:\n      swap1\n      0x00\n      mstore\n      keccak256(0x00, 0x20)\n      swap1\n      0x09\n      mul\n      add\n        /* \"contracts/BankLoan.sol\":1991:2002  loans[i].id */\n      0x00\n      add\n      sload\n        /* \"contracts/BankLoan.sol\":1991:2013  loans[i].id == _loanId */\n      eq\n        /* \"contracts/BankLoan.sol\":1988:2097  if(loans[i].id == _loanId)... */\n      iszero\n      tag_415\n      jumpi\n        /* \"contracts/BankLoan.sol\":2055:2059  true */\n      0x01\n        /* \"contracts/BankLoan.sol\":2045:2059  isValid = true */\n      swap2\n      pop\n        /* \"contracts/BankLoan.sol\":2077:2082  break */\n      jump(tag_410)\n        /* \"contracts/BankLoan.sol\":1988:2097  if(loans[i].id == _loanId)... */\n    tag_415:\n        /* \"contracts/BankLoan.sol\":1961:1964  i++ */\n      dup1\n      dup1\n      tag_416\n      swap1\n      tag_61\n      jump\t// in\n    tag_416:\n      swap2\n      pop\n      pop\n        /* \"contracts/BankLoan.sol\":1930:2107  for(uint i=0; i< loans.length; i++)... */\n      jump(tag_409)\n    tag_410:\n      pop\n        /* \"contracts/BankLoan.sol\":2124:2131  isValid */\n      dup1\n        /* \"contracts/BankLoan.sol\":2116:2132  require(isValid) */\n      tag_417\n      jumpi\n      0x00\n      dup1\n      revert\n    tag_417:\n        /* \"contracts/BankLoan.sol\":4693:4700  _loanId */\n      dup3\n        /* \"contracts/BankLoan.sol\":4702:4726  LoanState.PAID_TO_BROKER */\n      0x04\n        /* \"contracts/BankLoan.sol\":2224:2236  bool isValid */\n      0x00\n        /* \"contracts/BankLoan.sol\":2258:2264  uint i */\n      dup1\n        /* \"contracts/BankLoan.sol\":2254:2459  for(uint i=0; i< loans.length; i++)... */\n    tag_419:\n        /* \"contracts/BankLoan.sol\":2271:2276  loans */\n      0x02\n        /* \"contracts/BankLoan.sol\":2271:2283  loans.length */\n      dup1\n      sload\n      swap1\n      pop\n        /* \"contracts/BankLoan.sol\":2268:2269  i */\n      dup2\n        /* \"contracts/BankLoan.sol\":2268:2283  i< loans.length */\n      lt\n        /* \"contracts/BankLoan.sol\":2254:2459  for(uint i=0; i< loans.length; i++)... */\n      iszero\n      tag_420\n      jumpi\n        /* \"contracts/BankLoan.sol\":2330:2337  _loanId */\n      dup4\n        /* \"contracts/BankLoan.sol\":2315:2320  loans */\n      0x02\n        /* \"contracts/BankLoan.sol\":2321:2322  i */\n      dup3\n        /* \"contracts/BankLoan.sol\":2315:2323  loans[i] */\n      dup2\n      sload\n      dup2\n      lt\n      tag_422\n      jumpi\n      tag_423\n      tag_57\n      jump\t// in\n    tag_423:\n    tag_422:\n      swap1\n      0x00\n      mstore\n      keccak256(0x00, 0x20)\n      swap1\n      0x09\n      mul\n      add\n        /* \"contracts/BankLoan.sol\":2315:2326  loans[i].id */\n      0x00\n      add\n      sload\n        /* \"contracts/BankLoan.sol\":2315:2337  loans[i].id == _loanId */\n      eq\n        /* \"contracts/BankLoan.sol\":2315:2365  loans[i].id == _loanId && loans[i].state == _state */\n      dup1\n      iszero\n      tag_425\n      jumpi\n      pop\n        /* \"contracts/BankLoan.sol\":2359:2365  _state */\n      dup3\n        /* \"contracts/BankLoan.sol\":2341:2365  loans[i].state == _state */\n      0x07\n      dup2\n      gt\n      iszero\n      tag_426\n      jumpi\n      tag_427\n      tag_73\n      jump\t// in\n    tag_427:\n    tag_426:\n        /* \"contracts/BankLoan.sol\":2341:2346  loans */\n      0x02\n        /* \"contracts/BankLoan.sol\":2347:2348  i */\n      dup3\n        /* \"contracts/BankLoan.sol\":2341:2349  loans[i] */\n      dup2\n      sload\n      dup2\n      lt\n      tag_428\n      jumpi\n      tag_429\n      tag_57\n      jump\t// in\n    tag_429:\n    tag_428:\n      swap1\n      0x00\n      mstore\n      keccak256(0x00, 0x20)\n      swap1\n      0x09\n      mul\n      add\n        /* \"contracts/BankLoan.sol\":2341:2355  loans[i].state */\n      0x05\n      add\n      0x00\n      swap1\n      sload\n      swap1\n      0x0100\n      exp\n      swap1\n      div\n      0xff\n      and\n        /* \"contracts/BankLoan.sol\":2341:2365  loans[i].state == _state */\n      0x07\n      dup2\n      gt\n      iszero\n      tag_431\n      jumpi\n      tag_432\n      tag_73\n      jump\t// in\n    tag_432:\n    tag_431:\n      eq\n        /* \"contracts/BankLoan.sol\":2315:2365  loans[i].id == _loanId && loans[i].state == _state */\n    tag_425:\n        /* \"contracts/BankLoan.sol\":2312:2449  if(loans[i].id == _loanId && loans[i].state == _state)... */\n      iszero\n      tag_433\n      jumpi\n        /* \"contracts/BankLoan.sol\":2407:2411  true */\n      0x01\n        /* \"contracts/BankLoan.sol\":2397:2411  isValid = true */\n      swap2\n      pop\n        /* \"contracts/BankLoan.sol\":2429:2434  break */\n      jump(tag_420)\n        /* \"contracts/BankLoan.sol\":2312:2449  if(loans[i].id == _loanId && loans[i].state == _state)... */\n    tag_433:\n        /* \"contracts/BankLoan.sol\":2285:2288  i++ */\n      dup1\n      dup1\n      tag_434\n      swap1\n      tag_61\n      jump\t// in\n    tag_434:\n      swap2\n      pop\n      pop\n        /* \"contracts/BankLoan.sol\":2254:2459  for(uint i=0; i< loans.length; i++)... */\n      jump(tag_419)\n    tag_420:\n      pop\n        /* \"contracts/BankLoan.sol\":2476:2483  isValid */\n      dup1\n        /* \"contracts/BankLoan.sol\":2468:2484  require(isValid) */\n      tag_435\n      jumpi\n      0x00\n      dup1\n      revert\n    tag_435:\n        /* \"contracts/BankLoan.sol\":4747:4753  uint i */\n      0x00\n        /* \"contracts/BankLoan.sol\":4742:4924  for (uint i = 0; i < loans.length; i++) {... */\n    tag_437:\n        /* \"contracts/BankLoan.sol\":4763:4768  loans */\n      0x02\n        /* \"contracts/BankLoan.sol\":4763:4775  loans.length */\n      dup1\n      sload\n      swap1\n      pop\n        /* \"contracts/BankLoan.sol\":4759:4760  i */\n      dup2\n        /* \"contracts/BankLoan.sol\":4759:4775  i < loans.length */\n      lt\n        /* \"contracts/BankLoan.sol\":4742:4924  for (uint i = 0; i < loans.length; i++) {... */\n      iszero\n      tag_438\n      jumpi\n        /* \"contracts/BankLoan.sol\":4815:4822  _loanId */\n      dup7\n        /* \"contracts/BankLoan.sol\":4800:4805  loans */\n      0x02\n        /* \"contracts/BankLoan.sol\":4806:4807  i */\n      dup3\n        /* \"contracts/BankLoan.sol\":4800:4808  loans[i] */\n      dup2\n      sload\n      dup2\n      lt\n      tag_440\n      jumpi\n      tag_441\n      tag_57\n      jump\t// in\n    tag_441:\n    tag_440:\n      swap1\n      0x00\n      mstore\n      keccak256(0x00, 0x20)\n      swap1\n      0x09\n      mul\n      add\n        /* \"contracts/BankLoan.sol\":4800:4811  loans[i].id */\n      0x00\n      add\n      sload\n        /* \"contracts/BankLoan.sol\":4800:4822  loans[i].id == _loanId */\n      eq\n        /* \"contracts/BankLoan.sol\":4796:4914  if (loans[i].id == _loanId) {... */\n      iszero\n      tag_443\n      jumpi\n        /* \"contracts/BankLoan.sol\":4859:4876  LoanState.ONGOING */\n      0x05\n        /* \"contracts/BankLoan.sol\":4842:4847  loans */\n      0x02\n        /* \"contracts/BankLoan.sol\":4848:4849  i */\n      dup3\n        /* \"contracts/BankLoan.sol\":4842:4850  loans[i] */\n      dup2\n      sload\n      dup2\n      lt\n      tag_444\n      jumpi\n      tag_445\n      tag_57\n      jump\t// in\n    tag_445:\n    tag_444:\n      swap1\n      0x00\n      mstore\n      keccak256(0x00, 0x20)\n      swap1\n      0x09\n      mul\n      add\n        /* \"contracts/BankLoan.sol\":4842:4856  loans[i].state */\n      0x05\n      add\n      0x00\n        /* \"contracts/BankLoan.sol\":4842:4876  loans[i].state = LoanState.ONGOING */\n      0x0100\n      exp\n      dup2\n      sload\n      dup2\n      0xff\n      mul\n      not\n      and\n      swap1\n      dup4\n      0x07\n      dup2\n      gt\n      iszero\n      tag_447\n      jumpi\n      tag_448\n      tag_73\n      jump\t// in\n    tag_448:\n    tag_447:\n      mul\n      or\n      swap1\n      sstore\n      pop\n        /* \"contracts/BankLoan.sol\":4894:4899  break */\n      jump(tag_438)\n        /* \"contracts/BankLoan.sol\":4796:4914  if (loans[i].id == _loanId) {... */\n    tag_443:\n        /* \"contracts/BankLoan.sol\":4777:4780  i++ */\n      dup1\n      dup1\n      tag_449\n      swap1\n      tag_61\n      jump\t// in\n    tag_449:\n      swap2\n      pop\n      pop\n        /* \"contracts/BankLoan.sol\":4742:4924  for (uint i = 0; i < loans.length; i++) {... */\n      jump(tag_437)\n    tag_438:\n      pop\n        /* \"contracts/BankLoan.sol\":2214:2502  {... */\n      pop\n        /* \"contracts/BankLoan.sol\":2142:2143  _ */\n      pop\n      pop\n        /* \"contracts/BankLoan.sol\":1890:2150  {... */\n      pop\n        /* \"contracts/BankLoan.sol\":1233:1234  _ */\n      pop\n        /* \"contracts/BankLoan.sol\":4593:4930  function confirmTokenTrasferToBorrower(uint _loanId) public isAdmin() isValidLoan(_loanId) isLoanIn(_loanId, LoanState.PAID_TO_BROKER)... */\n      pop\n      jump\t// out\n    tag_170:\n      dup3\n      dup1\n      sload\n      tag_450\n      swap1\n      tag_224\n      jump\t// in\n    tag_450:\n      swap1\n      0x00\n      mstore\n      keccak256(0x00, 0x20)\n      swap1\n      0x1f\n      add\n      0x20\n      swap1\n      div\n      dup2\n      add\n      swap3\n      dup3\n      tag_452\n      jumpi\n      0x00\n      dup6\n      sstore\n      jump(tag_451)\n    tag_452:\n      dup3\n      0x1f\n      lt\n      tag_453\n      jumpi\n      dup1\n      mload\n      not(0xff)\n      and\n      dup4\n      dup1\n      add\n      or\n      dup6\n      sstore\n      jump(tag_451)\n    tag_453:\n      dup3\n      dup1\n      add\n      0x01\n      add\n      dup6\n      sstore\n      dup3\n      iszero\n      tag_451\n      jumpi\n      swap2\n      dup3\n      add\n    tag_454:\n      dup3\n      dup2\n      gt\n      iszero\n      tag_455\n      jumpi\n      dup3\n      mload\n      dup3\n      sstore\n      swap2\n      0x20\n      add\n      swap2\n      swap1\n      0x01\n      add\n      swap1\n      jump(tag_454)\n    tag_455:\n    tag_451:\n      pop\n      swap1\n      pop\n      tag_456\n      swap2\n      swap1\n      tag_457\n      jump\t// in\n    tag_456:\n      pop\n      swap1\n      jump\t// out\n    tag_340:\n      mload(0x40)\n      dup1\n      0x0160\n      add\n      0x40\n      mstore\n      dup1\n      0x00\n      dup2\n      mstore\n      0x20\n      add\n      0x00\n      dup2\n      mstore\n      0x20\n      add\n      0x00\n      dup2\n      mstore\n      0x20\n      add\n      0x00\n      dup2\n      mstore\n      0x20\n      add\n      0x60\n      dup2\n      mstore\n      0x20\n      add\n      0x00\n      0x07\n      dup2\n      gt\n      iszero\n      tag_458\n      jumpi\n      tag_459\n      tag_73\n      jump\t// in\n    tag_459:\n    tag_458:\n      dup2\n      mstore\n      0x20\n      add\n      and(0xffffffffffffffffffffffffffffffffffffffff, 0x00)\n      dup2\n      mstore\n      0x20\n      add\n      and(0xffffffffffffffffffffffffffffffffffffffff, 0x00)\n      dup2\n      mstore\n      0x20\n      add\n      0x00\n      dup2\n      mstore\n      0x20\n      add\n      iszero(iszero(0x00))\n      dup2\n      mstore\n      0x20\n      add\n      iszero(iszero(0x00))\n      dup2\n      mstore\n      pop\n      swap1\n      jump\t// out\n    tag_457:\n    tag_460:\n      dup1\n      dup3\n      gt\n      iszero\n      tag_461\n      jumpi\n      0x00\n      dup2\n      0x00\n      swap1\n      sstore\n      pop\n      0x01\n      add\n      jump(tag_460)\n    tag_461:\n      pop\n      swap1\n      jump\t// out\n        /* \"#utility.yul\":7:419   */\n    tag_463:\n        /* \"#utility.yul\":85:90   */\n      0x00\n        /* \"#utility.yul\":110:176   */\n      tag_465\n        /* \"#utility.yul\":126:175   */\n      tag_466\n        /* \"#utility.yul\":168:174   */\n      dup5\n        /* \"#utility.yul\":126:175   */\n      tag_467\n      jump\t// in\n    tag_466:\n        /* \"#utility.yul\":110:176   */\n      tag_468\n      jump\t// in\n    tag_465:\n        /* \"#utility.yul\":101:176   */\n      swap1\n      pop\n        /* \"#utility.yul\":199:205   */\n      dup3\n        /* \"#utility.yul\":192:197   */\n      dup2\n        /* \"#utility.yul\":185:206   */\n      mstore\n        /* \"#utility.yul\":237:241   */\n      0x20\n        /* \"#utility.yul\":230:235   */\n      dup2\n        /* \"#utility.yul\":226:242   */\n      add\n        /* \"#utility.yul\":275:278   */\n      dup5\n        /* \"#utility.yul\":266:272   */\n      dup5\n        /* \"#utility.yul\":261:264   */\n      dup5\n        /* \"#utility.yul\":257:273   */\n      add\n        /* \"#utility.yul\":254:279   */\n      gt\n        /* \"#utility.yul\":251:363   */\n      iszero\n      tag_469\n      jumpi\n        /* \"#utility.yul\":282:361   */\n      tag_470\n      tag_471\n      jump\t// in\n    tag_470:\n        /* \"#utility.yul\":251:363   */\n    tag_469:\n        /* \"#utility.yul\":372:413   */\n      tag_472\n        /* \"#utility.yul\":406:412   */\n      dup5\n        /* \"#utility.yul\":401:404   */\n      dup3\n        /* \"#utility.yul\":396:399   */\n      dup6\n        /* \"#utility.yul\":372:413   */\n      tag_473\n      jump\t// in\n    tag_472:\n        /* \"#utility.yul\":91:419   */\n      pop\n        /* \"#utility.yul\":7:419   */\n      swap4\n      swap3\n      pop\n      pop\n      pop\n      jump\t// out\n        /* \"#utility.yul\":425:564   */\n    tag_474:\n        /* \"#utility.yul\":471:476   */\n      0x00\n        /* \"#utility.yul\":509:515   */\n      dup2\n        /* \"#utility.yul\":496:516   */\n      calldataload\n        /* \"#utility.yul\":487:516   */\n      swap1\n      pop\n        /* \"#utility.yul\":525:558   */\n      tag_476\n        /* \"#utility.yul\":552:557   */\n      dup2\n        /* \"#utility.yul\":525:558   */\n      tag_477\n      jump\t// in\n    tag_476:\n        /* \"#utility.yul\":425:564   */\n      swap3\n      swap2\n      pop\n      pop\n      jump\t// out\n        /* \"#utility.yul\":570:707   */\n    tag_478:\n        /* \"#utility.yul\":624:629   */\n      0x00\n        /* \"#utility.yul\":655:661   */\n      dup2\n        /* \"#utility.yul\":649:662   */\n      mload\n        /* \"#utility.yul\":640:662   */\n      swap1\n      pop\n        /* \"#utility.yul\":671:701   */\n      tag_480\n        /* \"#utility.yul\":695:700   */\n      dup2\n        /* \"#utility.yul\":671:701   */\n      tag_481\n      jump\t// in\n    tag_480:\n        /* \"#utility.yul\":570:707   */\n      swap3\n      swap2\n      pop\n      pop\n      jump\t// out\n        /* \"#utility.yul\":727:1067   */\n    tag_482:\n        /* \"#utility.yul\":783:788   */\n      0x00\n        /* \"#utility.yul\":832:835   */\n      dup3\n        /* \"#utility.yul\":825:829   */\n      0x1f\n        /* \"#utility.yul\":817:823   */\n      dup4\n        /* \"#utility.yul\":813:830   */\n      add\n        /* \"#utility.yul\":809:836   */\n      slt\n        /* \"#utility.yul\":799:921   */\n      tag_484\n      jumpi\n        /* \"#utility.yul\":840:919   */\n      tag_485\n      tag_486\n      jump\t// in\n    tag_485:\n        /* \"#utility.yul\":799:921   */\n    tag_484:\n        /* \"#utility.yul\":957:963   */\n      dup2\n        /* \"#utility.yul\":944:964   */\n      calldataload\n        /* \"#utility.yul\":982:1061   */\n      tag_487\n        /* \"#utility.yul\":1057:1060   */\n      dup5\n        /* \"#utility.yul\":1049:1055   */\n      dup3\n        /* \"#utility.yul\":1042:1046   */\n      0x20\n        /* \"#utility.yul\":1034:1040   */\n      dup7\n        /* \"#utility.yul\":1030:1047   */\n      add\n        /* \"#utility.yul\":982:1061   */\n      tag_463\n      jump\t// in\n    tag_487:\n        /* \"#utility.yul\":973:1061   */\n      swap2\n      pop\n        /* \"#utility.yul\":789:1067   */\n      pop\n        /* \"#utility.yul\":727:1067   */\n      swap3\n      swap2\n      pop\n      pop\n      jump\t// out\n        /* \"#utility.yul\":1073:1212   */\n    tag_488:\n        /* \"#utility.yul\":1119:1124   */\n      0x00\n        /* \"#utility.yul\":1157:1163   */\n      dup2\n        /* \"#utility.yul\":1144:1164   */\n      calldataload\n        /* \"#utility.yul\":1135:1164   */\n      swap1\n      pop\n        /* \"#utility.yul\":1173:1206   */\n      tag_490\n        /* \"#utility.yul\":1200:1205   */\n      dup2\n        /* \"#utility.yul\":1173:1206   */\n      tag_491\n      jump\t// in\n    tag_490:\n        /* \"#utility.yul\":1073:1212   */\n      swap3\n      swap2\n      pop\n      pop\n      jump\t// out\n        /* \"#utility.yul\":1218:1563   */\n    tag_150:\n        /* \"#utility.yul\":1285:1291   */\n      0x00\n        /* \"#utility.yul\":1334:1336   */\n      0x20\n        /* \"#utility.yul\":1322:1331   */\n      dup3\n        /* \"#utility.yul\":1313:1320   */\n      dup5\n        /* \"#utility.yul\":1309:1332   */\n      sub\n        /* \"#utility.yul\":1305:1337   */\n      slt\n        /* \"#utility.yul\":1302:1421   */\n      iszero\n      tag_493\n      jumpi\n        /* \"#utility.yul\":1340:1419   */\n      tag_494\n      tag_495\n      jump\t// in\n    tag_494:\n        /* \"#utility.yul\":1302:1421   */\n    tag_493:\n        /* \"#utility.yul\":1460:1461   */\n      0x00\n        /* \"#utility.yul\":1485:1546   */\n      tag_496\n        /* \"#utility.yul\":1538:1545   */\n      dup5\n        /* \"#utility.yul\":1529:1535   */\n      dup3\n        /* \"#utility.yul\":1518:1527   */\n      dup6\n        /* \"#utility.yul\":1514:1536   */\n      add\n        /* \"#utility.yul\":1485:1546   */\n      tag_478\n      jump\t// in\n    tag_496:\n        /* \"#utility.yul\":1475:1546   */\n      swap2\n      pop\n        /* \"#utility.yul\":1431:1556   */\n      pop\n        /* \"#utility.yul\":1218:1563   */\n      swap3\n      swap2\n      pop\n      pop\n      jump\t// out\n        /* \"#utility.yul\":1569:1898   */\n    tag_16:\n        /* \"#utility.yul\":1628:1634   */\n      0x00\n        /* \"#utility.yul\":1677:1679   */\n      0x20\n        /* \"#utility.yul\":1665:1674   */\n      dup3\n        /* \"#utility.yul\":1656:1663   */\n      dup5\n        /* \"#utility.yul\":1652:1675   */\n      sub\n        /* \"#utility.yul\":1648:1680   */\n      slt\n        /* \"#utility.yul\":1645:1764   */\n      iszero\n      tag_498\n      jumpi\n        /* \"#utility.yul\":1683:1762   */\n      tag_499\n      tag_495\n      jump\t// in\n    tag_499:\n        /* \"#utility.yul\":1645:1764   */\n    tag_498:\n        /* \"#utility.yul\":1803:1804   */\n      0x00\n        /* \"#utility.yul\":1828:1881   */\n      tag_500\n        /* \"#utility.yul\":1873:1880   */\n      dup5\n        /* \"#utility.yul\":1864:1870   */\n      dup3\n        /* \"#utility.yul\":1853:1862   */\n      dup6\n        /* \"#utility.yul\":1849:1871   */\n      add\n        /* \"#utility.yul\":1828:1881   */\n      tag_488\n      jump\t// in\n    tag_500:\n        /* \"#utility.yul\":1818:1881   */\n      swap2\n      pop\n        /* \"#utility.yul\":1774:1891   */\n      pop\n        /* \"#utility.yul\":1569:1898   */\n      swap3\n      swap2\n      pop\n      pop\n      jump\t// out\n        /* \"#utility.yul\":1904:3141   */\n    tag_23:\n        /* \"#utility.yul\":2018:2024   */\n      0x00\n        /* \"#utility.yul\":2026:2032   */\n      dup1\n        /* \"#utility.yul\":2034:2040   */\n      0x00\n        /* \"#utility.yul\":2042:2048   */\n      dup1\n        /* \"#utility.yul\":2050:2056   */\n      0x00\n        /* \"#utility.yul\":2058:2064   */\n      dup1\n        /* \"#utility.yul\":2107:2110   */\n      0xc0\n        /* \"#utility.yul\":2095:2104   */\n      dup8\n        /* \"#utility.yul\":2086:2093   */\n      dup10\n        /* \"#utility.yul\":2082:2105   */\n      sub\n        /* \"#utility.yul\":2078:2111   */\n      slt\n        /* \"#utility.yul\":2075:2195   */\n      iszero\n      tag_502\n      jumpi\n        /* \"#utility.yul\":2114:2193   */\n      tag_503\n      tag_495\n      jump\t// in\n    tag_503:\n        /* \"#utility.yul\":2075:2195   */\n    tag_502:\n        /* \"#utility.yul\":2234:2235   */\n      0x00\n        /* \"#utility.yul\":2259:2312   */\n      tag_504\n        /* \"#utility.yul\":2304:2311   */\n      dup10\n        /* \"#utility.yul\":2295:2301   */\n      dup3\n        /* \"#utility.yul\":2284:2293   */\n      dup11\n        /* \"#utility.yul\":2280:2302   */\n      add\n        /* \"#utility.yul\":2259:2312   */\n      tag_488\n      jump\t// in\n    tag_504:\n        /* \"#utility.yul\":2249:2312   */\n      swap7\n      pop\n        /* \"#utility.yul\":2205:2322   */\n      pop\n        /* \"#utility.yul\":2361:2363   */\n      0x20\n        /* \"#utility.yul\":2387:2440   */\n      tag_505\n        /* \"#utility.yul\":2432:2439   */\n      dup10\n        /* \"#utility.yul\":2423:2429   */\n      dup3\n        /* \"#utility.yul\":2412:2421   */\n      dup11\n        /* \"#utility.yul\":2408:2430   */\n      add\n        /* \"#utility.yul\":2387:2440   */\n      tag_488\n      jump\t// in\n    tag_505:\n        /* \"#utility.yul\":2377:2440   */\n      swap6\n      pop\n        /* \"#utility.yul\":2332:2450   */\n      pop\n        /* \"#utility.yul\":2489:2491   */\n      0x40\n        /* \"#utility.yul\":2515:2568   */\n      tag_506\n        /* \"#utility.yul\":2560:2567   */\n      dup10\n        /* \"#utility.yul\":2551:2557   */\n      dup3\n        /* \"#utility.yul\":2540:2549   */\n      dup11\n        /* \"#utility.yul\":2536:2558   */\n      add\n        /* \"#utility.yul\":2515:2568   */\n      tag_488\n      jump\t// in\n    tag_506:\n        /* \"#utility.yul\":2505:2568   */\n      swap5\n      pop\n        /* \"#utility.yul\":2460:2578   */\n      pop\n        /* \"#utility.yul\":2645:2647   */\n      0x60\n        /* \"#utility.yul\":2634:2643   */\n      dup8\n        /* \"#utility.yul\":2630:2648   */\n      add\n        /* \"#utility.yul\":2617:2649   */\n      calldataload\n        /* \"#utility.yul\":2676:2694   */\n      0xffffffffffffffff\n        /* \"#utility.yul\":2668:2674   */\n      dup2\n        /* \"#utility.yul\":2665:2695   */\n      gt\n        /* \"#utility.yul\":2662:2779   */\n      iszero\n      tag_507\n      jumpi\n        /* \"#utility.yul\":2698:2777   */\n      tag_508\n      tag_509\n      jump\t// in\n    tag_508:\n        /* \"#utility.yul\":2662:2779   */\n    tag_507:\n        /* \"#utility.yul\":2803:2866   */\n      tag_510\n        /* \"#utility.yul\":2858:2865   */\n      dup10\n        /* \"#utility.yul\":2849:2855   */\n      dup3\n        /* \"#utility.yul\":2838:2847   */\n      dup11\n        /* \"#utility.yul\":2834:2856   */\n      add\n        /* \"#utility.yul\":2803:2866   */\n      tag_482\n      jump\t// in\n    tag_510:\n        /* \"#utility.yul\":2793:2866   */\n      swap4\n      pop\n        /* \"#utility.yul\":2588:2876   */\n      pop\n        /* \"#utility.yul\":2915:2918   */\n      0x80\n        /* \"#utility.yul\":2942:2995   */\n      tag_511\n        /* \"#utility.yul\":2987:2994   */\n      dup10\n        /* \"#utility.yul\":2978:2984   */\n      dup3\n        /* \"#utility.yul\":2967:2976   */\n      dup11\n        /* \"#utility.yul\":2963:2985   */\n      add\n        /* \"#utility.yul\":2942:2995   */\n      tag_474\n      jump\t// in\n    tag_511:\n        /* \"#utility.yul\":2932:2995   */\n      swap3\n      pop\n        /* \"#utility.yul\":2886:3005   */\n      pop\n        /* \"#utility.yul\":3044:3047   */\n      0xa0\n        /* \"#utility.yul\":3071:3124   */\n      tag_512\n        /* \"#utility.yul\":3116:3123   */\n      dup10\n        /* \"#utility.yul\":3107:3113   */\n      dup3\n        /* \"#utility.yul\":3096:3105   */\n      dup11\n        /* \"#utility.yul\":3092:3114   */\n      add\n        /* \"#utility.yul\":3071:3124   */\n      tag_488\n      jump\t// in\n    tag_512:\n        /* \"#utility.yul\":3061:3124   */\n      swap2\n      pop\n        /* \"#utility.yul\":3015:3134   */\n      pop\n        /* \"#utility.yul\":1904:3141   */\n      swap3\n      swap6\n      pop\n      swap3\n      swap6\n      pop\n      swap3\n      swap6\n      jump\t// out\n        /* \"#utility.yul\":3147:3383   */\n    tag_513:\n        /* \"#utility.yul\":3256:3266   */\n      0x00\n        /* \"#utility.yul\":3291:3377   */\n      tag_515\n        /* \"#utility.yul\":3373:3376   */\n      dup4\n        /* \"#utility.yul\":3365:3371   */\n      dup4\n        /* \"#utility.yul\":3291:3377   */\n      tag_516\n      jump\t// in\n    tag_515:\n        /* \"#utility.yul\":3277:3377   */\n      swap1\n      pop\n        /* \"#utility.yul\":3147:3383   */\n      swap3\n      swap2\n      pop\n      pop\n      jump\t// out\n        /* \"#utility.yul\":3389:3497   */\n    tag_517:\n        /* \"#utility.yul\":3466:3490   */\n      tag_519\n        /* \"#utility.yul\":3484:3489   */\n      dup2\n        /* \"#utility.yul\":3466:3490   */\n      tag_520\n      jump\t// in\n    tag_519:\n        /* \"#utility.yul\":3461:3464   */\n      dup3\n        /* \"#utility.yul\":3454:3491   */\n      mstore\n        /* \"#utility.yul\":3389:3497   */\n      pop\n      pop\n      jump\t// out\n        /* \"#utility.yul\":3503:3621   */\n    tag_521:\n        /* \"#utility.yul\":3590:3614   */\n      tag_523\n        /* \"#utility.yul\":3608:3613   */\n      dup2\n        /* \"#utility.yul\":3590:3614   */\n      tag_520\n      jump\t// in\n    tag_523:\n        /* \"#utility.yul\":3585:3588   */\n      dup3\n        /* \"#utility.yul\":3578:3615   */\n      mstore\n        /* \"#utility.yul\":3503:3621   */\n      pop\n      pop\n      jump\t// out\n        /* \"#utility.yul\":3683:4754   */\n    tag_524:\n        /* \"#utility.yul\":3842:3845   */\n      0x00\n        /* \"#utility.yul\":3871:3945   */\n      tag_526\n        /* \"#utility.yul\":3939:3944   */\n      dup3\n        /* \"#utility.yul\":3871:3945   */\n      tag_527\n      jump\t// in\n    tag_526:\n        /* \"#utility.yul\":3961:4067   */\n      tag_528\n        /* \"#utility.yul\":4060:4066   */\n      dup2\n        /* \"#utility.yul\":4055:4058   */\n      dup6\n        /* \"#utility.yul\":3961:4067   */\n      tag_529\n      jump\t// in\n    tag_528:\n        /* \"#utility.yul\":3954:4067   */\n      swap4\n      pop\n        /* \"#utility.yul\":4093:4096   */\n      dup4\n        /* \"#utility.yul\":4138:4142   */\n      0x20\n        /* \"#utility.yul\":4130:4136   */\n      dup3\n        /* \"#utility.yul\":4126:4143   */\n      mul\n        /* \"#utility.yul\":4121:4124   */\n      dup6\n        /* \"#utility.yul\":4117:4144   */\n      add\n        /* \"#utility.yul\":4168:4244   */\n      tag_530\n        /* \"#utility.yul\":4238:4243   */\n      dup6\n        /* \"#utility.yul\":4168:4244   */\n      tag_531\n      jump\t// in\n    tag_530:\n        /* \"#utility.yul\":4267:4274   */\n      dup1\n        /* \"#utility.yul\":4298:4299   */\n      0x00\n        /* \"#utility.yul\":4283:4709   */\n    tag_532:\n        /* \"#utility.yul\":4308:4314   */\n      dup6\n        /* \"#utility.yul\":4305:4306   */\n      dup2\n        /* \"#utility.yul\":4302:4315   */\n      lt\n        /* \"#utility.yul\":4283:4709   */\n      iszero\n      tag_534\n      jumpi\n        /* \"#utility.yul\":4379:4388   */\n      dup5\n        /* \"#utility.yul\":4373:4377   */\n      dup5\n        /* \"#utility.yul\":4369:4389   */\n      sub\n        /* \"#utility.yul\":4364:4367   */\n      dup10\n        /* \"#utility.yul\":4357:4390   */\n      mstore\n        /* \"#utility.yul\":4430:4436   */\n      dup2\n        /* \"#utility.yul\":4424:4437   */\n      mload\n        /* \"#utility.yul\":4458:4562   */\n      tag_535\n        /* \"#utility.yul\":4557:4561   */\n      dup6\n        /* \"#utility.yul\":4542:4555   */\n      dup3\n        /* \"#utility.yul\":4458:4562   */\n      tag_513\n      jump\t// in\n    tag_535:\n        /* \"#utility.yul\":4450:4562   */\n      swap5\n      pop\n        /* \"#utility.yul\":4585:4665   */\n      tag_536\n        /* \"#utility.yul\":4658:4664   */\n      dup4\n        /* \"#utility.yul\":4585:4665   */\n      tag_537\n      jump\t// in\n    tag_536:\n        /* \"#utility.yul\":4575:4665   */\n      swap3\n      pop\n        /* \"#utility.yul\":4694:4698   */\n      0x20\n        /* \"#utility.yul\":4689:4692   */\n      dup11\n        /* \"#utility.yul\":4685:4699   */\n      add\n        /* \"#utility.yul\":4678:4699   */\n      swap10\n      pop\n        /* \"#utility.yul\":4343:4709   */\n      pop\n        /* \"#utility.yul\":4330:4331   */\n      0x01\n        /* \"#utility.yul\":4327:4328   */\n      dup2\n        /* \"#utility.yul\":4323:4332   */\n      add\n        /* \"#utility.yul\":4318:4332   */\n      swap1\n      pop\n        /* \"#utility.yul\":4283:4709   */\n      jump(tag_532)\n    tag_534:\n        /* \"#utility.yul\":4287:4301   */\n      pop\n        /* \"#utility.yul\":4725:4729   */\n      dup3\n        /* \"#utility.yul\":4718:4729   */\n      swap8\n      pop\n        /* \"#utility.yul\":4745:4748   */\n      dup8\n        /* \"#utility.yul\":4738:4748   */\n      swap6\n      pop\n        /* \"#utility.yul\":3847:4754   */\n      pop\n      pop\n      pop\n      pop\n      pop\n        /* \"#utility.yul\":3683:4754   */\n      swap3\n      swap2\n      pop\n      pop\n      jump\t// out\n        /* \"#utility.yul\":4760:4859   */\n    tag_538:\n        /* \"#utility.yul\":4831:4852   */\n      tag_540\n        /* \"#utility.yul\":4846:4851   */\n      dup2\n        /* \"#utility.yul\":4831:4852   */\n      tag_541\n      jump\t// in\n    tag_540:\n        /* \"#utility.yul\":4826:4829   */\n      dup3\n        /* \"#utility.yul\":4819:4853   */\n      mstore\n        /* \"#utility.yul\":4760:4859   */\n      pop\n      pop\n      jump\t// out\n        /* \"#utility.yul\":4865:4974   */\n    tag_542:\n        /* \"#utility.yul\":4946:4967   */\n      tag_544\n        /* \"#utility.yul\":4961:4966   */\n      dup2\n        /* \"#utility.yul\":4946:4967   */\n      tag_541\n      jump\t// in\n    tag_544:\n        /* \"#utility.yul\":4941:4944   */\n      dup3\n        /* \"#utility.yul\":4934:4968   */\n      mstore\n        /* \"#utility.yul\":4865:4974   */\n      pop\n      pop\n      jump\t// out\n        /* \"#utility.yul\":4980:5121   */\n    tag_545:\n        /* \"#utility.yul\":5067:5114   */\n      tag_547\n        /* \"#utility.yul\":5108:5113   */\n      dup2\n        /* \"#utility.yul\":5067:5114   */\n      tag_548\n      jump\t// in\n    tag_547:\n        /* \"#utility.yul\":5062:5065   */\n      dup3\n        /* \"#utility.yul\":5055:5115   */\n      mstore\n        /* \"#utility.yul\":4980:5121   */\n      pop\n      pop\n      jump\t// out\n        /* \"#utility.yul\":5127:5278   */\n    tag_549:\n        /* \"#utility.yul\":5224:5271   */\n      tag_551\n        /* \"#utility.yul\":5265:5270   */\n      dup2\n        /* \"#utility.yul\":5224:5271   */\n      tag_548\n      jump\t// in\n    tag_551:\n        /* \"#utility.yul\":5219:5222   */\n      dup3\n        /* \"#utility.yul\":5212:5272   */\n      mstore\n        /* \"#utility.yul\":5127:5278   */\n      pop\n      pop\n      jump\t// out\n        /* \"#utility.yul\":5284:5628   */\n    tag_552:\n        /* \"#utility.yul\":5362:5365   */\n      0x00\n        /* \"#utility.yul\":5390:5429   */\n      tag_554\n        /* \"#utility.yul\":5423:5428   */\n      dup3\n        /* \"#utility.yul\":5390:5429   */\n      tag_555\n      jump\t// in\n    tag_554:\n        /* \"#utility.yul\":5445:5506   */\n      tag_556\n        /* \"#utility.yul\":5499:5505   */\n      dup2\n        /* \"#utility.yul\":5494:5497   */\n      dup6\n        /* \"#utility.yul\":5445:5506   */\n      tag_557\n      jump\t// in\n    tag_556:\n        /* \"#utility.yul\":5438:5506   */\n      swap4\n      pop\n        /* \"#utility.yul\":5515:5567   */\n      tag_558\n        /* \"#utility.yul\":5560:5566   */\n      dup2\n        /* \"#utility.yul\":5555:5558   */\n      dup6\n        /* \"#utility.yul\":5548:5552   */\n      0x20\n        /* \"#utility.yul\":5541:5546   */\n      dup7\n        /* \"#utility.yul\":5537:5553   */\n      add\n        /* \"#utility.yul\":5515:5567   */\n      tag_559\n      jump\t// in\n    tag_558:\n        /* \"#utility.yul\":5592:5621   */\n      tag_560\n        /* \"#utility.yul\":5614:5620   */\n      dup2\n        /* \"#utility.yul\":5592:5621   */\n      tag_561\n      jump\t// in\n    tag_560:\n        /* \"#utility.yul\":5587:5590   */\n      dup5\n        /* \"#utility.yul\":5583:5622   */\n      add\n        /* \"#utility.yul\":5576:5622   */\n      swap2\n      pop\n        /* \"#utility.yul\":5366:5628   */\n      pop\n        /* \"#utility.yul\":5284:5628   */\n      swap3\n      swap2\n      pop\n      pop\n      jump\t// out\n        /* \"#utility.yul\":5634:5998   */\n    tag_562:\n        /* \"#utility.yul\":5722:5725   */\n      0x00\n        /* \"#utility.yul\":5750:5789   */\n      tag_564\n        /* \"#utility.yul\":5783:5788   */\n      dup3\n        /* \"#utility.yul\":5750:5789   */\n      tag_555\n      jump\t// in\n    tag_564:\n        /* \"#utility.yul\":5805:5876   */\n      tag_565\n        /* \"#utility.yul\":5869:5875   */\n      dup2\n        /* \"#utility.yul\":5864:5867   */\n      dup6\n        /* \"#utility.yul\":5805:5876   */\n      tag_566\n      jump\t// in\n    tag_565:\n        /* \"#utility.yul\":5798:5876   */\n      swap4\n      pop\n        /* \"#utility.yul\":5885:5937   */\n      tag_567\n        /* \"#utility.yul\":5930:5936   */\n      dup2\n        /* \"#utility.yul\":5925:5928   */\n      dup6\n        /* \"#utility.yul\":5918:5922   */\n      0x20\n        /* \"#utility.yul\":5911:5916   */\n      dup7\n        /* \"#utility.yul\":5907:5923   */\n      add\n        /* \"#utility.yul\":5885:5937   */\n      tag_559\n      jump\t// in\n    tag_567:\n        /* \"#utility.yul\":5962:5991   */\n      tag_568\n        /* \"#utility.yul\":5984:5990   */\n      dup2\n        /* \"#utility.yul\":5962:5991   */\n      tag_561\n      jump\t// in\n    tag_568:\n        /* \"#utility.yul\":5957:5960   */\n      dup5\n        /* \"#utility.yul\":5953:5992   */\n      add\n        /* \"#utility.yul\":5946:5992   */\n      swap2\n      pop\n        /* \"#utility.yul\":5726:5998   */\n      pop\n        /* \"#utility.yul\":5634:5998   */\n      swap3\n      swap2\n      pop\n      pop\n      jump\t// out\n        /* \"#utility.yul\":6004:6370   */\n    tag_569:\n        /* \"#utility.yul\":6146:6149   */\n      0x00\n        /* \"#utility.yul\":6167:6234   */\n      tag_571\n        /* \"#utility.yul\":6231:6233   */\n      0x0d\n        /* \"#utility.yul\":6226:6229   */\n      dup4\n        /* \"#utility.yul\":6167:6234   */\n      tag_566\n      jump\t// in\n    tag_571:\n        /* \"#utility.yul\":6160:6234   */\n      swap2\n      pop\n        /* \"#utility.yul\":6243:6336   */\n      tag_572\n        /* \"#utility.yul\":6332:6335   */\n      dup3\n        /* \"#utility.yul\":6243:6336   */\n      tag_573\n      jump\t// in\n    tag_572:\n        /* \"#utility.yul\":6361:6363   */\n      0x20\n        /* \"#utility.yul\":6356:6359   */\n      dup3\n        /* \"#utility.yul\":6352:6364   */\n      add\n        /* \"#utility.yul\":6345:6364   */\n      swap1\n      pop\n        /* \"#utility.yul\":6004:6370   */\n      swap2\n      swap1\n      pop\n      jump\t// out\n        /* \"#utility.yul\":6376:6742   */\n    tag_574:\n        /* \"#utility.yul\":6518:6521   */\n      0x00\n        /* \"#utility.yul\":6539:6606   */\n      tag_576\n        /* \"#utility.yul\":6603:6605   */\n      0x0b\n        /* \"#utility.yul\":6598:6601   */\n      dup4\n        /* \"#utility.yul\":6539:6606   */\n      tag_566\n      jump\t// in\n    tag_576:\n        /* \"#utility.yul\":6532:6606   */\n      swap2\n      pop\n        /* \"#utility.yul\":6615:6708   */\n      tag_577\n        /* \"#utility.yul\":6704:6707   */\n      dup3\n        /* \"#utility.yul\":6615:6708   */\n      tag_578\n      jump\t// in\n    tag_577:\n        /* \"#utility.yul\":6733:6735   */\n      0x20\n        /* \"#utility.yul\":6728:6731   */\n      dup3\n        /* \"#utility.yul\":6724:6736   */\n      add\n        /* \"#utility.yul\":6717:6736   */\n      swap1\n      pop\n        /* \"#utility.yul\":6376:6742   */\n      swap2\n      swap1\n      pop\n      jump\t// out\n        /* \"#utility.yul\":6800:9003   */\n    tag_516:\n        /* \"#utility.yul\":6899:6902   */\n      0x00\n        /* \"#utility.yul\":6935:6941   */\n      0x0160\n        /* \"#utility.yul\":6930:6933   */\n      dup4\n        /* \"#utility.yul\":6926:6942   */\n      add\n        /* \"#utility.yul\":7022:7026   */\n      0x00\n        /* \"#utility.yul\":7015:7020   */\n      dup4\n        /* \"#utility.yul\":7011:7027   */\n      add\n        /* \"#utility.yul\":7005:7028   */\n      mload\n        /* \"#utility.yul\":7041:7104   */\n      tag_580\n        /* \"#utility.yul\":7098:7102   */\n      0x00\n        /* \"#utility.yul\":7093:7096   */\n      dup7\n        /* \"#utility.yul\":7089:7103   */\n      add\n        /* \"#utility.yul\":7075:7087   */\n      dup3\n        /* \"#utility.yul\":7041:7104   */\n      tag_581\n      jump\t// in\n    tag_580:\n        /* \"#utility.yul\":6952:7114   */\n      pop\n        /* \"#utility.yul\":7198:7202   */\n      0x20\n        /* \"#utility.yul\":7191:7196   */\n      dup4\n        /* \"#utility.yul\":7187:7203   */\n      add\n        /* \"#utility.yul\":7181:7204   */\n      mload\n        /* \"#utility.yul\":7217:7280   */\n      tag_582\n        /* \"#utility.yul\":7274:7278   */\n      0x20\n        /* \"#utility.yul\":7269:7272   */\n      dup7\n        /* \"#utility.yul\":7265:7279   */\n      add\n        /* \"#utility.yul\":7251:7263   */\n      dup3\n        /* \"#utility.yul\":7217:7280   */\n      tag_581\n      jump\t// in\n    tag_582:\n        /* \"#utility.yul\":7124:7290   */\n      pop\n        /* \"#utility.yul\":7374:7378   */\n      0x40\n        /* \"#utility.yul\":7367:7372   */\n      dup4\n        /* \"#utility.yul\":7363:7379   */\n      add\n        /* \"#utility.yul\":7357:7380   */\n      mload\n        /* \"#utility.yul\":7393:7456   */\n      tag_583\n        /* \"#utility.yul\":7450:7454   */\n      0x40\n        /* \"#utility.yul\":7445:7448   */\n      dup7\n        /* \"#utility.yul\":7441:7455   */\n      add\n        /* \"#utility.yul\":7427:7439   */\n      dup3\n        /* \"#utility.yul\":7393:7456   */\n      tag_581\n      jump\t// in\n    tag_583:\n        /* \"#utility.yul\":7300:7466   */\n      pop\n        /* \"#utility.yul\":7552:7556   */\n      0x60\n        /* \"#utility.yul\":7545:7550   */\n      dup4\n        /* \"#utility.yul\":7541:7557   */\n      add\n        /* \"#utility.yul\":7535:7558   */\n      mload\n        /* \"#utility.yul\":7571:7634   */\n      tag_584\n        /* \"#utility.yul\":7628:7632   */\n      0x60\n        /* \"#utility.yul\":7623:7626   */\n      dup7\n        /* \"#utility.yul\":7619:7633   */\n      add\n        /* \"#utility.yul\":7605:7617   */\n      dup3\n        /* \"#utility.yul\":7571:7634   */\n      tag_581\n      jump\t// in\n    tag_584:\n        /* \"#utility.yul\":7476:7644   */\n      pop\n        /* \"#utility.yul\":7728:7732   */\n      0x80\n        /* \"#utility.yul\":7721:7726   */\n      dup4\n        /* \"#utility.yul\":7717:7733   */\n      add\n        /* \"#utility.yul\":7711:7734   */\n      mload\n        /* \"#utility.yul\":7781:7784   */\n      dup5\n        /* \"#utility.yul\":7775:7779   */\n      dup3\n        /* \"#utility.yul\":7771:7785   */\n      sub\n        /* \"#utility.yul\":7764:7768   */\n      0x80\n        /* \"#utility.yul\":7759:7762   */\n      dup7\n        /* \"#utility.yul\":7755:7769   */\n      add\n        /* \"#utility.yul\":7748:7786   */\n      mstore\n        /* \"#utility.yul\":7807:7880   */\n      tag_585\n        /* \"#utility.yul\":7875:7879   */\n      dup3\n        /* \"#utility.yul\":7861:7873   */\n      dup3\n        /* \"#utility.yul\":7807:7880   */\n      tag_552\n      jump\t// in\n    tag_585:\n        /* \"#utility.yul\":7799:7880   */\n      swap2\n      pop\n        /* \"#utility.yul\":7654:7891   */\n      pop\n        /* \"#utility.yul\":7974:7978   */\n      0xa0\n        /* \"#utility.yul\":7967:7972   */\n      dup4\n        /* \"#utility.yul\":7963:7979   */\n      add\n        /* \"#utility.yul\":7957:7980   */\n      mload\n        /* \"#utility.yul\":7993:8066   */\n      tag_586\n        /* \"#utility.yul\":8060:8064   */\n      0xa0\n        /* \"#utility.yul\":8055:8058   */\n      dup7\n        /* \"#utility.yul\":8051:8065   */\n      add\n        /* \"#utility.yul\":8037:8049   */\n      dup3\n        /* \"#utility.yul\":7993:8066   */\n      tag_545\n      jump\t// in\n    tag_586:\n        /* \"#utility.yul\":7901:8076   */\n      pop\n        /* \"#utility.yul\":8160:8164   */\n      0xc0\n        /* \"#utility.yul\":8153:8158   */\n      dup4\n        /* \"#utility.yul\":8149:8165   */\n      add\n        /* \"#utility.yul\":8143:8166   */\n      mload\n        /* \"#utility.yul\":8179:8242   */\n      tag_587\n        /* \"#utility.yul\":8236:8240   */\n      0xc0\n        /* \"#utility.yul\":8231:8234   */\n      dup7\n        /* \"#utility.yul\":8227:8241   */\n      add\n        /* \"#utility.yul\":8213:8225   */\n      dup3\n        /* \"#utility.yul\":8179:8242   */\n      tag_517\n      jump\t// in\n    tag_587:\n        /* \"#utility.yul\":8086:8252   */\n      pop\n        /* \"#utility.yul\":8338:8342   */\n      0xe0\n        /* \"#utility.yul\":8331:8336   */\n      dup4\n        /* \"#utility.yul\":8327:8343   */\n      add\n        /* \"#utility.yul\":8321:8344   */\n      mload\n        /* \"#utility.yul\":8357:8420   */\n      tag_588\n        /* \"#utility.yul\":8414:8418   */\n      0xe0\n        /* \"#utility.yul\":8409:8412   */\n      dup7\n        /* \"#utility.yul\":8405:8419   */\n      add\n        /* \"#utility.yul\":8391:8403   */\n      dup3\n        /* \"#utility.yul\":8357:8420   */\n      tag_517\n      jump\t// in\n    tag_588:\n        /* \"#utility.yul\":8262:8430   */\n      pop\n        /* \"#utility.yul\":8517:8523   */\n      0x0100\n        /* \"#utility.yul\":8510:8515   */\n      dup4\n        /* \"#utility.yul\":8506:8524   */\n      add\n        /* \"#utility.yul\":8500:8525   */\n      mload\n        /* \"#utility.yul\":8538:8603   */\n      tag_589\n        /* \"#utility.yul\":8595:8601   */\n      0x0100\n        /* \"#utility.yul\":8590:8593   */\n      dup7\n        /* \"#utility.yul\":8586:8602   */\n      add\n        /* \"#utility.yul\":8572:8584   */\n      dup3\n        /* \"#utility.yul\":8538:8603   */\n      tag_581\n      jump\t// in\n    tag_589:\n        /* \"#utility.yul\":8440:8613   */\n      pop\n        /* \"#utility.yul\":8702:8708   */\n      0x0120\n        /* \"#utility.yul\":8695:8700   */\n      dup4\n        /* \"#utility.yul\":8691:8709   */\n      add\n        /* \"#utility.yul\":8685:8710   */\n      mload\n        /* \"#utility.yul\":8723:8782   */\n      tag_590\n        /* \"#utility.yul\":8774:8780   */\n      0x0120\n        /* \"#utility.yul\":8769:8772   */\n      dup7\n        /* \"#utility.yul\":8765:8781   */\n      add\n        /* \"#utility.yul\":8751:8763   */\n      dup3\n        /* \"#utility.yul\":8723:8782   */\n      tag_538\n      jump\t// in\n    tag_590:\n        /* \"#utility.yul\":8623:8792   */\n      pop\n        /* \"#utility.yul\":8886:8892   */\n      0x0140\n        /* \"#utility.yul\":8879:8884   */\n      dup4\n        /* \"#utility.yul\":8875:8893   */\n      add\n        /* \"#utility.yul\":8869:8894   */\n      mload\n        /* \"#utility.yul\":8907:8966   */\n      tag_591\n        /* \"#utility.yul\":8958:8964   */\n      0x0140\n        /* \"#utility.yul\":8953:8956   */\n      dup7\n        /* \"#utility.yul\":8949:8965   */\n      add\n        /* \"#utility.yul\":8935:8947   */\n      dup3\n        /* \"#utility.yul\":8907:8966   */\n      tag_538\n      jump\t// in\n    tag_591:\n        /* \"#utility.yul\":8802:8976   */\n      pop\n        /* \"#utility.yul\":8993:8997   */\n      dup1\n        /* \"#utility.yul\":8986:8997   */\n      swap2\n      pop\n        /* \"#utility.yul\":6904:9003   */\n      pop\n        /* \"#utility.yul\":6800:9003   */\n      swap3\n      swap2\n      pop\n      pop\n      jump\t// out\n        /* \"#utility.yul\":9061:11274   */\n    tag_592:\n        /* \"#utility.yul\":9170:9173   */\n      0x00\n        /* \"#utility.yul\":9206:9212   */\n      0x0160\n        /* \"#utility.yul\":9201:9204   */\n      dup4\n        /* \"#utility.yul\":9197:9213   */\n      add\n        /* \"#utility.yul\":9293:9297   */\n      0x00\n        /* \"#utility.yul\":9286:9291   */\n      dup4\n        /* \"#utility.yul\":9282:9298   */\n      add\n        /* \"#utility.yul\":9276:9299   */\n      mload\n        /* \"#utility.yul\":9312:9375   */\n      tag_594\n        /* \"#utility.yul\":9369:9373   */\n      0x00\n        /* \"#utility.yul\":9364:9367   */\n      dup7\n        /* \"#utility.yul\":9360:9374   */\n      add\n        /* \"#utility.yul\":9346:9358   */\n      dup3\n        /* \"#utility.yul\":9312:9375   */\n      tag_581\n      jump\t// in\n    tag_594:\n        /* \"#utility.yul\":9223:9385   */\n      pop\n        /* \"#utility.yul\":9469:9473   */\n      0x20\n        /* \"#utility.yul\":9462:9467   */\n      dup4\n        /* \"#utility.yul\":9458:9474   */\n      add\n        /* \"#utility.yul\":9452:9475   */\n      mload\n        /* \"#utility.yul\":9488:9551   */\n      tag_595\n        /* \"#utility.yul\":9545:9549   */\n      0x20\n        /* \"#utility.yul\":9540:9543   */\n      dup7\n        /* \"#utility.yul\":9536:9550   */\n      add\n        /* \"#utility.yul\":9522:9534   */\n      dup3\n        /* \"#utility.yul\":9488:9551   */\n      tag_581\n      jump\t// in\n    tag_595:\n        /* \"#utility.yul\":9395:9561   */\n      pop\n        /* \"#utility.yul\":9645:9649   */\n      0x40\n        /* \"#utility.yul\":9638:9643   */\n      dup4\n        /* \"#utility.yul\":9634:9650   */\n      add\n        /* \"#utility.yul\":9628:9651   */\n      mload\n        /* \"#utility.yul\":9664:9727   */\n      tag_596\n        /* \"#utility.yul\":9721:9725   */\n      0x40\n        /* \"#utility.yul\":9716:9719   */\n      dup7\n        /* \"#utility.yul\":9712:9726   */\n      add\n        /* \"#utility.yul\":9698:9710   */\n      dup3\n        /* \"#utility.yul\":9664:9727   */\n      tag_581\n      jump\t// in\n    tag_596:\n        /* \"#utility.yul\":9571:9737   */\n      pop\n        /* \"#utility.yul\":9823:9827   */\n      0x60\n        /* \"#utility.yul\":9816:9821   */\n      dup4\n        /* \"#utility.yul\":9812:9828   */\n      add\n        /* \"#utility.yul\":9806:9829   */\n      mload\n        /* \"#utility.yul\":9842:9905   */\n      tag_597\n        /* \"#utility.yul\":9899:9903   */\n      0x60\n        /* \"#utility.yul\":9894:9897   */\n      dup7\n        /* \"#utility.yul\":9890:9904   */\n      add\n        /* \"#utility.yul\":9876:9888   */\n      dup3\n        /* \"#utility.yul\":9842:9905   */\n      tag_581\n      jump\t// in\n    tag_597:\n        /* \"#utility.yul\":9747:9915   */\n      pop\n        /* \"#utility.yul\":9999:10003   */\n      0x80\n        /* \"#utility.yul\":9992:9997   */\n      dup4\n        /* \"#utility.yul\":9988:10004   */\n      add\n        /* \"#utility.yul\":9982:10005   */\n      mload\n        /* \"#utility.yul\":10052:10055   */\n      dup5\n        /* \"#utility.yul\":10046:10050   */\n      dup3\n        /* \"#utility.yul\":10042:10056   */\n      sub\n        /* \"#utility.yul\":10035:10039   */\n      0x80\n        /* \"#utility.yul\":10030:10033   */\n      dup7\n        /* \"#utility.yul\":10026:10040   */\n      add\n        /* \"#utility.yul\":10019:10057   */\n      mstore\n        /* \"#utility.yul\":10078:10151   */\n      tag_598\n        /* \"#utility.yul\":10146:10150   */\n      dup3\n        /* \"#utility.yul\":10132:10144   */\n      dup3\n        /* \"#utility.yul\":10078:10151   */\n      tag_552\n      jump\t// in\n    tag_598:\n        /* \"#utility.yul\":10070:10151   */\n      swap2\n      pop\n        /* \"#utility.yul\":9925:10162   */\n      pop\n        /* \"#utility.yul\":10245:10249   */\n      0xa0\n        /* \"#utility.yul\":10238:10243   */\n      dup4\n        /* \"#utility.yul\":10234:10250   */\n      add\n        /* \"#utility.yul\":10228:10251   */\n      mload\n        /* \"#utility.yul\":10264:10337   */\n      tag_599\n        /* \"#utility.yul\":10331:10335   */\n      0xa0\n        /* \"#utility.yul\":10326:10329   */\n      dup7\n        /* \"#utility.yul\":10322:10336   */\n      add\n        /* \"#utility.yul\":10308:10320   */\n      dup3\n        /* \"#utility.yul\":10264:10337   */\n      tag_545\n      jump\t// in\n    tag_599:\n        /* \"#utility.yul\":10172:10347   */\n      pop\n        /* \"#utility.yul\":10431:10435   */\n      0xc0\n        /* \"#utility.yul\":10424:10429   */\n      dup4\n        /* \"#utility.yul\":10420:10436   */\n      add\n        /* \"#utility.yul\":10414:10437   */\n      mload\n        /* \"#utility.yul\":10450:10513   */\n      tag_600\n        /* \"#utility.yul\":10507:10511   */\n      0xc0\n        /* \"#utility.yul\":10502:10505   */\n      dup7\n        /* \"#utility.yul\":10498:10512   */\n      add\n        /* \"#utility.yul\":10484:10496   */\n      dup3\n        /* \"#utility.yul\":10450:10513   */\n      tag_517\n      jump\t// in\n    tag_600:\n        /* \"#utility.yul\":10357:10523   */\n      pop\n        /* \"#utility.yul\":10609:10613   */\n      0xe0\n        /* \"#utility.yul\":10602:10607   */\n      dup4\n        /* \"#utility.yul\":10598:10614   */\n      add\n        /* \"#utility.yul\":10592:10615   */\n      mload\n        /* \"#utility.yul\":10628:10691   */\n      tag_601\n        /* \"#utility.yul\":10685:10689   */\n      0xe0\n        /* \"#utility.yul\":10680:10683   */\n      dup7\n        /* \"#utility.yul\":10676:10690   */\n      add\n        /* \"#utility.yul\":10662:10674   */\n      dup3\n        /* \"#utility.yul\":10628:10691   */\n      tag_517\n      jump\t// in\n    tag_601:\n        /* \"#utility.yul\":10533:10701   */\n      pop\n        /* \"#utility.yul\":10788:10794   */\n      0x0100\n        /* \"#utility.yul\":10781:10786   */\n      dup4\n        /* \"#utility.yul\":10777:10795   */\n      add\n        /* \"#utility.yul\":10771:10796   */\n      mload\n        /* \"#utility.yul\":10809:10874   */\n      tag_602\n        /* \"#utility.yul\":10866:10872   */\n      0x0100\n        /* \"#utility.yul\":10861:10864   */\n      dup7\n        /* \"#utility.yul\":10857:10873   */\n      add\n        /* \"#utility.yul\":10843:10855   */\n      dup3\n        /* \"#utility.yul\":10809:10874   */\n      tag_581\n      jump\t// in\n    tag_602:\n        /* \"#utility.yul\":10711:10884   */\n      pop\n        /* \"#utility.yul\":10973:10979   */\n      0x0120\n        /* \"#utility.yul\":10966:10971   */\n      dup4\n        /* \"#utility.yul\":10962:10980   */\n      add\n        /* \"#utility.yul\":10956:10981   */\n      mload\n        /* \"#utility.yul\":10994:11053   */\n      tag_603\n        /* \"#utility.yul\":11045:11051   */\n      0x0120\n        /* \"#utility.yul\":11040:11043   */\n      dup7\n        /* \"#utility.yul\":11036:11052   */\n      add\n        /* \"#utility.yul\":11022:11034   */\n      dup3\n        /* \"#utility.yul\":10994:11053   */\n      tag_538\n      jump\t// in\n    tag_603:\n        /* \"#utility.yul\":10894:11063   */\n      pop\n        /* \"#utility.yul\":11157:11163   */\n      0x0140\n        /* \"#utility.yul\":11150:11155   */\n      dup4\n        /* \"#utility.yul\":11146:11164   */\n      add\n        /* \"#utility.yul\":11140:11165   */\n      mload\n        /* \"#utility.yul\":11178:11237   */\n      tag_604\n        /* \"#utility.yul\":11229:11235   */\n      0x0140\n        /* \"#utility.yul\":11224:11227   */\n      dup7\n        /* \"#utility.yul\":11220:11236   */\n      add\n        /* \"#utility.yul\":11206:11218   */\n      dup3\n        /* \"#utility.yul\":11178:11237   */\n      tag_538\n      jump\t// in\n    tag_604:\n        /* \"#utility.yul\":11073:11247   */\n      pop\n        /* \"#utility.yul\":11264:11268   */\n      dup1\n        /* \"#utility.yul\":11257:11268   */\n      swap2\n      pop\n        /* \"#utility.yul\":9175:11274   */\n      pop\n        /* \"#utility.yul\":9061:11274   */\n      swap3\n      swap2\n      pop\n      pop\n      jump\t// out\n        /* \"#utility.yul\":11280:11388   */\n    tag_581:\n        /* \"#utility.yul\":11357:11381   */\n      tag_606\n        /* \"#utility.yul\":11375:11380   */\n      dup2\n        /* \"#utility.yul\":11357:11381   */\n      tag_607\n      jump\t// in\n    tag_606:\n        /* \"#utility.yul\":11352:11355   */\n      dup3\n        /* \"#utility.yul\":11345:11382   */\n      mstore\n        /* \"#utility.yul\":11280:11388   */\n      pop\n      pop\n      jump\t// out\n        /* \"#utility.yul\":11394:11512   */\n    tag_608:\n        /* \"#utility.yul\":11481:11505   */\n      tag_610\n        /* \"#utility.yul\":11499:11504   */\n      dup2\n        /* \"#utility.yul\":11481:11505   */\n      tag_607\n      jump\t// in\n    tag_610:\n        /* \"#utility.yul\":11476:11479   */\n      dup3\n        /* \"#utility.yul\":11469:11506   */\n      mstore\n        /* \"#utility.yul\":11394:11512   */\n      pop\n      pop\n      jump\t// out\n        /* \"#utility.yul\":11518:11740   */\n    tag_145:\n        /* \"#utility.yul\":11611:11615   */\n      0x00\n        /* \"#utility.yul\":11649:11651   */\n      0x20\n        /* \"#utility.yul\":11638:11647   */\n      dup3\n        /* \"#utility.yul\":11634:11652   */\n      add\n        /* \"#utility.yul\":11626:11652   */\n      swap1\n      pop\n        /* \"#utility.yul\":11662:11733   */\n      tag_612\n        /* \"#utility.yul\":11730:11731   */\n      0x00\n        /* \"#utility.yul\":11719:11728   */\n      dup4\n        /* \"#utility.yul\":11715:11732   */\n      add\n        /* \"#utility.yul\":11706:11712   */\n      dup5\n        /* \"#utility.yul\":11662:11733   */\n      tag_521\n      jump\t// in\n    tag_612:\n        /* \"#utility.yul\":11518:11740   */\n      swap3\n      swap2\n      pop\n      pop\n      jump\t// out\n        /* \"#utility.yul\":11746:12199   */\n    tag_31:\n        /* \"#utility.yul\":11929:11933   */\n      0x00\n        /* \"#utility.yul\":11967:11969   */\n      0x20\n        /* \"#utility.yul\":11956:11965   */\n      dup3\n        /* \"#utility.yul\":11952:11970   */\n      add\n        /* \"#utility.yul\":11944:11970   */\n      swap1\n      pop\n        /* \"#utility.yul\":12016:12025   */\n      dup2\n        /* \"#utility.yul\":12010:12014   */\n      dup2\n        /* \"#utility.yul\":12006:12026   */\n      sub\n        /* \"#utility.yul\":12002:12003   */\n      0x00\n        /* \"#utility.yul\":11991:12000   */\n      dup4\n        /* \"#utility.yul\":11987:12004   */\n      add\n        /* \"#utility.yul\":11980:12027   */\n      mstore\n        /* \"#utility.yul\":12044:12192   */\n      tag_614\n        /* \"#utility.yul\":12187:12191   */\n      dup2\n        /* \"#utility.yul\":12178:12184   */\n      dup5\n        /* \"#utility.yul\":12044:12192   */\n      tag_524\n      jump\t// in\n    tag_614:\n        /* \"#utility.yul\":12036:12192   */\n      swap1\n      pop\n        /* \"#utility.yul\":11746:12199   */\n      swap3\n      swap2\n      pop\n      pop\n      jump\t// out\n        /* \"#utility.yul\":12205:12624   */\n    tag_162:\n        /* \"#utility.yul\":12371:12375   */\n      0x00\n        /* \"#utility.yul\":12409:12411   */\n      0x20\n        /* \"#utility.yul\":12398:12407   */\n      dup3\n        /* \"#utility.yul\":12394:12412   */\n      add\n        /* \"#utility.yul\":12386:12412   */\n      swap1\n      pop\n        /* \"#utility.yul\":12458:12467   */\n      dup2\n        /* \"#utility.yul\":12452:12456   */\n      dup2\n        /* \"#utility.yul\":12448:12468   */\n      sub\n        /* \"#utility.yul\":12444:12445   */\n      0x00\n        /* \"#utility.yul\":12433:12442   */\n      dup4\n        /* \"#utility.yul\":12429:12446   */\n      add\n        /* \"#utility.yul\":12422:12469   */\n      mstore\n        /* \"#utility.yul\":12486:12617   */\n      tag_616\n        /* \"#utility.yul\":12612:12616   */\n      dup2\n        /* \"#utility.yul\":12486:12617   */\n      tag_569\n      jump\t// in\n    tag_616:\n        /* \"#utility.yul\":12478:12617   */\n      swap1\n      pop\n        /* \"#utility.yul\":12205:12624   */\n      swap2\n      swap1\n      pop\n      jump\t// out\n        /* \"#utility.yul\":12630:13049   */\n    tag_153:\n        /* \"#utility.yul\":12796:12800   */\n      0x00\n        /* \"#utility.yul\":12834:12836   */\n      0x20\n        /* \"#utility.yul\":12823:12832   */\n      dup3\n        /* \"#utility.yul\":12819:12837   */\n      add\n        /* \"#utility.yul\":12811:12837   */\n      swap1\n      pop\n        /* \"#utility.yul\":12883:12892   */\n      dup2\n        /* \"#utility.yul\":12877:12881   */\n      dup2\n        /* \"#utility.yul\":12873:12893   */\n      sub\n        /* \"#utility.yul\":12869:12870   */\n      0x00\n        /* \"#utility.yul\":12858:12867   */\n      dup4\n        /* \"#utility.yul\":12854:12871   */\n      add\n        /* \"#utility.yul\":12847:12894   */\n      mstore\n        /* \"#utility.yul\":12911:13042   */\n      tag_618\n        /* \"#utility.yul\":13037:13041   */\n      dup2\n        /* \"#utility.yul\":12911:13042   */\n      tag_574\n      jump\t// in\n    tag_618:\n        /* \"#utility.yul\":12903:13042   */\n      swap1\n      pop\n        /* \"#utility.yul\":12630:13049   */\n      swap2\n      swap1\n      pop\n      jump\t// out\n        /* \"#utility.yul\":13055:13408   */\n    tag_42:\n        /* \"#utility.yul\":13188:13192   */\n      0x00\n        /* \"#utility.yul\":13226:13228   */\n      0x20\n        /* \"#utility.yul\":13215:13224   */\n      dup3\n        /* \"#utility.yul\":13211:13229   */\n      add\n        /* \"#utility.yul\":13203:13229   */\n      swap1\n      pop\n        /* \"#utility.yul\":13275:13284   */\n      dup2\n        /* \"#utility.yul\":13269:13273   */\n      dup2\n        /* \"#utility.yul\":13265:13285   */\n      sub\n        /* \"#utility.yul\":13261:13262   */\n      0x00\n        /* \"#utility.yul\":13250:13259   */\n      dup4\n        /* \"#utility.yul\":13246:13263   */\n      add\n        /* \"#utility.yul\":13239:13286   */\n      mstore\n        /* \"#utility.yul\":13303:13401   */\n      tag_620\n        /* \"#utility.yul\":13396:13400   */\n      dup2\n        /* \"#utility.yul\":13387:13393   */\n      dup5\n        /* \"#utility.yul\":13303:13401   */\n      tag_592\n      jump\t// in\n    tag_620:\n        /* \"#utility.yul\":13295:13401   */\n      swap1\n      pop\n        /* \"#utility.yul\":13055:13408   */\n      swap3\n      swap2\n      pop\n      pop\n      jump\t// out\n        /* \"#utility.yul\":13414:14833   */\n    tag_174:\n        /* \"#utility.yul\":13806:13810   */\n      0x00\n        /* \"#utility.yul\":13844:13847   */\n      0x0160\n        /* \"#utility.yul\":13833:13842   */\n      dup3\n        /* \"#utility.yul\":13829:13848   */\n      add\n        /* \"#utility.yul\":13821:13848   */\n      swap1\n      pop\n        /* \"#utility.yul\":13858:13929   */\n      tag_622\n        /* \"#utility.yul\":13926:13927   */\n      0x00\n        /* \"#utility.yul\":13915:13924   */\n      dup4\n        /* \"#utility.yul\":13911:13928   */\n      add\n        /* \"#utility.yul\":13902:13908   */\n      dup15\n        /* \"#utility.yul\":13858:13929   */\n      tag_608\n      jump\t// in\n    tag_622:\n        /* \"#utility.yul\":13939:14011   */\n      tag_623\n        /* \"#utility.yul\":14007:14009   */\n      0x20\n        /* \"#utility.yul\":13996:14005   */\n      dup4\n        /* \"#utility.yul\":13992:14010   */\n      add\n        /* \"#utility.yul\":13983:13989   */\n      dup14\n        /* \"#utility.yul\":13939:14011   */\n      tag_608\n      jump\t// in\n    tag_623:\n        /* \"#utility.yul\":14021:14093   */\n      tag_624\n        /* \"#utility.yul\":14089:14091   */\n      0x40\n        /* \"#utility.yul\":14078:14087   */\n      dup4\n        /* \"#utility.yul\":14074:14092   */\n      add\n        /* \"#utility.yul\":14065:14071   */\n      dup13\n        /* \"#utility.yul\":14021:14093   */\n      tag_608\n      jump\t// in\n    tag_624:\n        /* \"#utility.yul\":14103:14175   */\n      tag_625\n        /* \"#utility.yul\":14171:14173   */\n      0x60\n        /* \"#utility.yul\":14160:14169   */\n      dup4\n        /* \"#utility.yul\":14156:14174   */\n      add\n        /* \"#utility.yul\":14147:14153   */\n      dup12\n        /* \"#utility.yul\":14103:14175   */\n      tag_608\n      jump\t// in\n    tag_625:\n        /* \"#utility.yul\":14223:14232   */\n      dup2\n        /* \"#utility.yul\":14217:14221   */\n      dup2\n        /* \"#utility.yul\":14213:14233   */\n      sub\n        /* \"#utility.yul\":14207:14210   */\n      0x80\n        /* \"#utility.yul\":14196:14205   */\n      dup4\n        /* \"#utility.yul\":14192:14211   */\n      add\n        /* \"#utility.yul\":14185:14234   */\n      mstore\n        /* \"#utility.yul\":14251:14329   */\n      tag_626\n        /* \"#utility.yul\":14324:14328   */\n      dup2\n        /* \"#utility.yul\":14315:14321   */\n      dup11\n        /* \"#utility.yul\":14251:14329   */\n      tag_562\n      jump\t// in\n    tag_626:\n        /* \"#utility.yul\":14243:14329   */\n      swap1\n      pop\n        /* \"#utility.yul\":14339:14422   */\n      tag_627\n        /* \"#utility.yul\":14417:14420   */\n      0xa0\n        /* \"#utility.yul\":14406:14415   */\n      dup4\n        /* \"#utility.yul\":14402:14421   */\n      add\n        /* \"#utility.yul\":14393:14399   */\n      dup10\n        /* \"#utility.yul\":14339:14422   */\n      tag_549\n      jump\t// in\n    tag_627:\n        /* \"#utility.yul\":14432:14505   */\n      tag_628\n        /* \"#utility.yul\":14500:14503   */\n      0xc0\n        /* \"#utility.yul\":14489:14498   */\n      dup4\n        /* \"#utility.yul\":14485:14504   */\n      add\n        /* \"#utility.yul\":14476:14482   */\n      dup9\n        /* \"#utility.yul\":14432:14505   */\n      tag_521\n      jump\t// in\n    tag_628:\n        /* \"#utility.yul\":14515:14588   */\n      tag_629\n        /* \"#utility.yul\":14583:14586   */\n      0xe0\n        /* \"#utility.yul\":14572:14581   */\n      dup4\n        /* \"#utility.yul\":14568:14587   */\n      add\n        /* \"#utility.yul\":14559:14565   */\n      dup8\n        /* \"#utility.yul\":14515:14588   */\n      tag_521\n      jump\t// in\n    tag_629:\n        /* \"#utility.yul\":14598:14671   */\n      tag_630\n        /* \"#utility.yul\":14666:14669   */\n      0x0100\n        /* \"#utility.yul\":14655:14664   */\n      dup4\n        /* \"#utility.yul\":14651:14670   */\n      add\n        /* \"#utility.yul\":14642:14648   */\n      dup7\n        /* \"#utility.yul\":14598:14671   */\n      tag_608\n      jump\t// in\n    tag_630:\n        /* \"#utility.yul\":14681:14748   */\n      tag_631\n        /* \"#utility.yul\":14743:14746   */\n      0x0120\n        /* \"#utility.yul\":14732:14741   */\n      dup4\n        /* \"#utility.yul\":14728:14747   */\n      add\n        /* \"#utility.yul\":14719:14725   */\n      dup6\n        /* \"#utility.yul\":14681:14748   */\n      tag_542\n      jump\t// in\n    tag_631:\n        /* \"#utility.yul\":14758:14826   */\n      tag_632\n        /* \"#utility.yul\":14821:14824   */\n      0x0140\n        /* \"#utility.yul\":14810:14819   */\n      dup4\n        /* \"#utility.yul\":14806:14825   */\n      add\n        /* \"#utility.yul\":14796:14803   */\n      dup5\n        /* \"#utility.yul\":14758:14826   */\n      tag_542\n      jump\t// in\n    tag_632:\n        /* \"#utility.yul\":13414:14833   */\n      swap13\n      swap12\n      pop\n      pop\n      pop\n      pop\n      pop\n      pop\n      pop\n      pop\n      pop\n      pop\n      pop\n      pop\n      jump\t// out\n        /* \"#utility.yul\":14839:14968   */\n    tag_468:\n        /* \"#utility.yul\":14873:14879   */\n      0x00\n        /* \"#utility.yul\":14900:14920   */\n      tag_634\n      tag_635\n      jump\t// in\n    tag_634:\n        /* \"#utility.yul\":14890:14920   */\n      swap1\n      pop\n        /* \"#utility.yul\":14929:14962   */\n      tag_636\n        /* \"#utility.yul\":14957:14961   */\n      dup3\n        /* \"#utility.yul\":14949:14955   */\n      dup3\n        /* \"#utility.yul\":14929:14962   */\n      tag_637\n      jump\t// in\n    tag_636:\n        /* \"#utility.yul\":14839:14968   */\n      swap2\n      swap1\n      pop\n      jump\t// out\n        /* \"#utility.yul\":14974:15049   */\n    tag_635:\n        /* \"#utility.yul\":15007:15013   */\n      0x00\n        /* \"#utility.yul\":15040:15042   */\n      0x40\n        /* \"#utility.yul\":15034:15043   */\n      mload\n        /* \"#utility.yul\":15024:15043   */\n      swap1\n      pop\n        /* \"#utility.yul\":14974:15049   */\n      swap1\n      jump\t// out\n        /* \"#utility.yul\":15055:15363   */\n    tag_467:\n        /* \"#utility.yul\":15117:15121   */\n      0x00\n        /* \"#utility.yul\":15207:15225   */\n      0xffffffffffffffff\n        /* \"#utility.yul\":15199:15205   */\n      dup3\n        /* \"#utility.yul\":15196:15226   */\n      gt\n        /* \"#utility.yul\":15193:15249   */\n      iszero\n      tag_640\n      jumpi\n        /* \"#utility.yul\":15229:15247   */\n      tag_641\n      tag_642\n      jump\t// in\n    tag_641:\n        /* \"#utility.yul\":15193:15249   */\n    tag_640:\n        /* \"#utility.yul\":15267:15296   */\n      tag_643\n        /* \"#utility.yul\":15289:15295   */\n      dup3\n        /* \"#utility.yul\":15267:15296   */\n      tag_561\n      jump\t// in\n    tag_643:\n        /* \"#utility.yul\":15259:15296   */\n      swap1\n      pop\n        /* \"#utility.yul\":15351:15355   */\n      0x20\n        /* \"#utility.yul\":15345:15349   */\n      dup2\n        /* \"#utility.yul\":15341:15356   */\n      add\n        /* \"#utility.yul\":15333:15356   */\n      swap1\n      pop\n        /* \"#utility.yul\":15055:15363   */\n      swap2\n      swap1\n      pop\n      jump\t// out\n        /* \"#utility.yul\":15369:15521   */\n    tag_531:\n        /* \"#utility.yul\":15456:15460   */\n      0x00\n        /* \"#utility.yul\":15479:15482   */\n      dup2\n        /* \"#utility.yul\":15471:15482   */\n      swap1\n      pop\n        /* \"#utility.yul\":15509:15513   */\n      0x20\n        /* \"#utility.yul\":15504:15507   */\n      dup3\n        /* \"#utility.yul\":15500:15514   */\n      add\n        /* \"#utility.yul\":15492:15514   */\n      swap1\n      pop\n        /* \"#utility.yul\":15369:15521   */\n      swap2\n      swap1\n      pop\n      jump\t// out\n        /* \"#utility.yul\":15527:15661   */\n    tag_527:\n        /* \"#utility.yul\":15614:15620   */\n      0x00\n        /* \"#utility.yul\":15648:15653   */\n      dup2\n        /* \"#utility.yul\":15642:15654   */\n      mload\n        /* \"#utility.yul\":15632:15654   */\n      swap1\n      pop\n        /* \"#utility.yul\":15527:15661   */\n      swap2\n      swap1\n      pop\n      jump\t// out\n        /* \"#utility.yul\":15667:15766   */\n    tag_555:\n        /* \"#utility.yul\":15719:15725   */\n      0x00\n        /* \"#utility.yul\":15753:15758   */\n      dup2\n        /* \"#utility.yul\":15747:15759   */\n      mload\n        /* \"#utility.yul\":15737:15759   */\n      swap1\n      pop\n        /* \"#utility.yul\":15667:15766   */\n      swap2\n      swap1\n      pop\n      jump\t// out\n        /* \"#utility.yul\":15772:15905   */\n    tag_537:\n        /* \"#utility.yul\":15862:15866   */\n      0x00\n        /* \"#utility.yul\":15894:15898   */\n      0x20\n        /* \"#utility.yul\":15889:15892   */\n      dup3\n        /* \"#utility.yul\":15885:15899   */\n      add\n        /* \"#utility.yul\":15877:15899   */\n      swap1\n      pop\n        /* \"#utility.yul\":15772:15905   */\n      swap2\n      swap1\n      pop\n      jump\t// out\n        /* \"#utility.yul\":15911:16115   */\n    tag_529:\n        /* \"#utility.yul\":16030:16041   */\n      0x00\n        /* \"#utility.yul\":16064:16070   */\n      dup3\n        /* \"#utility.yul\":16059:16062   */\n      dup3\n        /* \"#utility.yul\":16052:16071   */\n      mstore\n        /* \"#utility.yul\":16104:16108   */\n      0x20\n        /* \"#utility.yul\":16099:16102   */\n      dup3\n        /* \"#utility.yul\":16095:16109   */\n      add\n        /* \"#utility.yul\":16080:16109   */\n      swap1\n      pop\n        /* \"#utility.yul\":15911:16115   */\n      swap3\n      swap2\n      pop\n      pop\n      jump\t// out\n        /* \"#utility.yul\":16121:16280   */\n    tag_557:\n        /* \"#utility.yul\":16195:16206   */\n      0x00\n        /* \"#utility.yul\":16229:16235   */\n      dup3\n        /* \"#utility.yul\":16224:16227   */\n      dup3\n        /* \"#utility.yul\":16217:16236   */\n      mstore\n        /* \"#utility.yul\":16269:16273   */\n      0x20\n        /* \"#utility.yul\":16264:16267   */\n      dup3\n        /* \"#utility.yul\":16260:16274   */\n      add\n        /* \"#utility.yul\":16245:16274   */\n      swap1\n      pop\n        /* \"#utility.yul\":16121:16280   */\n      swap3\n      swap2\n      pop\n      pop\n      jump\t// out\n        /* \"#utility.yul\":16286:16455   */\n    tag_566:\n        /* \"#utility.yul\":16370:16381   */\n      0x00\n        /* \"#utility.yul\":16404:16410   */\n      dup3\n        /* \"#utility.yul\":16399:16402   */\n      dup3\n        /* \"#utility.yul\":16392:16411   */\n      mstore\n        /* \"#utility.yul\":16444:16448   */\n      0x20\n        /* \"#utility.yul\":16439:16442   */\n      dup3\n        /* \"#utility.yul\":16435:16449   */\n      add\n        /* \"#utility.yul\":16420:16449   */\n      swap1\n      pop\n        /* \"#utility.yul\":16286:16455   */\n      swap3\n      swap2\n      pop\n      pop\n      jump\t// out\n        /* \"#utility.yul\":16461:16766   */\n    tag_165:\n        /* \"#utility.yul\":16501:16504   */\n      0x00\n        /* \"#utility.yul\":16520:16540   */\n      tag_652\n        /* \"#utility.yul\":16538:16539   */\n      dup3\n        /* \"#utility.yul\":16520:16540   */\n      tag_607\n      jump\t// in\n    tag_652:\n        /* \"#utility.yul\":16515:16540   */\n      swap2\n      pop\n        /* \"#utility.yul\":16554:16574   */\n      tag_653\n        /* \"#utility.yul\":16572:16573   */\n      dup4\n        /* \"#utility.yul\":16554:16574   */\n      tag_607\n      jump\t// in\n    tag_653:\n        /* \"#utility.yul\":16549:16574   */\n      swap3\n      pop\n        /* \"#utility.yul\":16708:16709   */\n      dup3\n        /* \"#utility.yul\":16640:16706   */\n      0xffffffffffffffffffffffffffffffffffffffffffffffffffffffffffffffff\n        /* \"#utility.yul\":16636:16710   */\n      sub\n        /* \"#utility.yul\":16633:16634   */\n      dup3\n        /* \"#utility.yul\":16630:16711   */\n      gt\n        /* \"#utility.yul\":16627:16734   */\n      iszero\n      tag_654\n      jumpi\n        /* \"#utility.yul\":16714:16732   */\n      tag_655\n      tag_656\n      jump\t// in\n    tag_655:\n        /* \"#utility.yul\":16627:16734   */\n    tag_654:\n        /* \"#utility.yul\":16758:16759   */\n      dup3\n        /* \"#utility.yul\":16755:16756   */\n      dup3\n        /* \"#utility.yul\":16751:16760   */\n      add\n        /* \"#utility.yul\":16744:16760   */\n      swap1\n      pop\n        /* \"#utility.yul\":16461:16766   */\n      swap3\n      swap2\n      pop\n      pop\n      jump\t// out\n        /* \"#utility.yul\":16772:16868   */\n    tag_520:\n        /* \"#utility.yul\":16809:16816   */\n      0x00\n        /* \"#utility.yul\":16838:16862   */\n      tag_658\n        /* \"#utility.yul\":16856:16861   */\n      dup3\n        /* \"#utility.yul\":16838:16862   */\n      tag_659\n      jump\t// in\n    tag_658:\n        /* \"#utility.yul\":16827:16862   */\n      swap1\n      pop\n        /* \"#utility.yul\":16772:16868   */\n      swap2\n      swap1\n      pop\n      jump\t// out\n        /* \"#utility.yul\":16874:16964   */\n    tag_541:\n        /* \"#utility.yul\":16908:16915   */\n      0x00\n        /* \"#utility.yul\":16951:16956   */\n      dup2\n        /* \"#utility.yul\":16944:16957   */\n      iszero\n        /* \"#utility.yul\":16937:16958   */\n      iszero\n        /* \"#utility.yul\":16926:16958   */\n      swap1\n      pop\n        /* \"#utility.yul\":16874:16964   */\n      swap2\n      swap1\n      pop\n      jump\t// out\n        /* \"#utility.yul\":16970:17105   */\n    tag_661:\n        /* \"#utility.yul\":17019:17026   */\n      0x00\n        /* \"#utility.yul\":17048:17053   */\n      dup2\n        /* \"#utility.yul\":17037:17053   */\n      swap1\n      pop\n        /* \"#utility.yul\":17054:17099   */\n      tag_663\n        /* \"#utility.yul\":17093:17098   */\n      dup3\n        /* \"#utility.yul\":17054:17099   */\n      tag_664\n      jump\t// in\n    tag_663:\n        /* \"#utility.yul\":16970:17105   */\n      swap2\n      swap1\n      pop\n      jump\t// out\n        /* \"#utility.yul\":17111:17237   */\n    tag_659:\n        /* \"#utility.yul\":17148:17155   */\n      0x00\n        /* \"#utility.yul\":17188:17230   */\n      0xffffffffffffffffffffffffffffffffffffffff\n        /* \"#utility.yul\":17181:17186   */\n      dup3\n        /* \"#utility.yul\":17177:17231   */\n      and\n        /* \"#utility.yul\":17166:17231   */\n      swap1\n      pop\n        /* \"#utility.yul\":17111:17237   */\n      swap2\n      swap1\n      pop\n      jump\t// out\n        /* \"#utility.yul\":17243:17320   */\n    tag_607:\n        /* \"#utility.yul\":17280:17287   */\n      0x00\n        /* \"#utility.yul\":17309:17314   */\n      dup2\n        /* \"#utility.yul\":17298:17314   */\n      swap1\n      pop\n        /* \"#utility.yul\":17243:17320   */\n      swap2\n      swap1\n      pop\n      jump\t// out\n        /* \"#utility.yul\":17326:17461   */\n    tag_548:\n        /* \"#utility.yul\":17386:17395   */\n      0x00\n        /* \"#utility.yul\":17419:17455   */\n      tag_668\n        /* \"#utility.yul\":17449:17454   */\n      dup3\n        /* \"#utility.yul\":17419:17455   */\n      tag_661\n      jump\t// in\n    tag_668:\n        /* \"#utility.yul\":17406:17455   */\n      swap1\n      pop\n        /* \"#utility.yul\":17326:17461   */\n      swap2\n      swap1\n      pop\n      jump\t// out\n        /* \"#utility.yul\":17467:17621   */\n    tag_473:\n        /* \"#utility.yul\":17551:17557   */\n      dup3\n        /* \"#utility.yul\":17546:17549   */\n      dup2\n        /* \"#utility.yul\":17541:17544   */\n      dup4\n        /* \"#utility.yul\":17528:17558   */\n      calldatacopy\n        /* \"#utility.yul\":17613:17614   */\n      0x00\n        /* \"#utility.yul\":17604:17610   */\n      dup4\n        /* \"#utility.yul\":17599:17602   */\n      dup4\n        /* \"#utility.yul\":17595:17611   */\n      add\n        /* \"#utility.yul\":17588:17615   */\n      mstore\n        /* \"#utility.yul\":17467:17621   */\n      pop\n      pop\n      pop\n      jump\t// out\n        /* \"#utility.yul\":17627:17934   */\n    tag_559:\n        /* \"#utility.yul\":17695:17696   */\n      0x00\n        /* \"#utility.yul\":17705:17818   */\n    tag_671:\n        /* \"#utility.yul\":17719:17725   */\n      dup4\n        /* \"#utility.yul\":17716:17717   */\n      dup2\n        /* \"#utility.yul\":17713:17726   */\n      lt\n        /* \"#utility.yul\":17705:17818   */\n      iszero\n      tag_673\n      jumpi\n        /* \"#utility.yul\":17804:17805   */\n      dup1\n        /* \"#utility.yul\":17799:17802   */\n      dup3\n        /* \"#utility.yul\":17795:17806   */\n      add\n        /* \"#utility.yul\":17789:17807   */\n      mload\n        /* \"#utility.yul\":17785:17786   */\n      dup2\n        /* \"#utility.yul\":17780:17783   */\n      dup5\n        /* \"#utility.yul\":17776:17787   */\n      add\n        /* \"#utility.yul\":17769:17808   */\n      mstore\n        /* \"#utility.yul\":17741:17743   */\n      0x20\n        /* \"#utility.yul\":17738:17739   */\n      dup2\n        /* \"#utility.yul\":17734:17744   */\n      add\n        /* \"#utility.yul\":17729:17744   */\n      swap1\n      pop\n        /* \"#utility.yul\":17705:17818   */\n      jump(tag_671)\n    tag_673:\n        /* \"#utility.yul\":17836:17842   */\n      dup4\n        /* \"#utility.yul\":17833:17834   */\n      dup2\n        /* \"#utility.yul\":17830:17843   */\n      gt\n        /* \"#utility.yul\":17827:17928   */\n      iszero\n      tag_674\n      jumpi\n        /* \"#utility.yul\":17916:17917   */\n      0x00\n        /* \"#utility.yul\":17907:17913   */\n      dup5\n        /* \"#utility.yul\":17902:17905   */\n      dup5\n        /* \"#utility.yul\":17898:17914   */\n      add\n        /* \"#utility.yul\":17891:17918   */\n      mstore\n        /* \"#utility.yul\":17827:17928   */\n    tag_674:\n        /* \"#utility.yul\":17676:17934   */\n      pop\n        /* \"#utility.yul\":17627:17934   */\n      pop\n      pop\n      pop\n      jump\t// out\n        /* \"#utility.yul\":17940:18260   */\n    tag_224:\n        /* \"#utility.yul\":17984:17990   */\n      0x00\n        /* \"#utility.yul\":18021:18022   */\n      0x02\n        /* \"#utility.yul\":18015:18019   */\n      dup3\n        /* \"#utility.yul\":18011:18023   */\n      div\n        /* \"#utility.yul\":18001:18023   */\n      swap1\n      pop\n        /* \"#utility.yul\":18068:18069   */\n      0x01\n        /* \"#utility.yul\":18062:18066   */\n      dup3\n        /* \"#utility.yul\":18058:18070   */\n      and\n        /* \"#utility.yul\":18089:18107   */\n      dup1\n        /* \"#utility.yul\":18079:18160   */\n      tag_676\n      jumpi\n        /* \"#utility.yul\":18145:18149   */\n      0x7f\n        /* \"#utility.yul\":18137:18143   */\n      dup3\n        /* \"#utility.yul\":18133:18150   */\n      and\n        /* \"#utility.yul\":18123:18150   */\n      swap2\n      pop\n        /* \"#utility.yul\":18079:18160   */\n    tag_676:\n        /* \"#utility.yul\":18207:18209   */\n      0x20\n        /* \"#utility.yul\":18199:18205   */\n      dup3\n        /* \"#utility.yul\":18196:18210   */\n      lt\n        /* \"#utility.yul\":18176:18194   */\n      dup2\n        /* \"#utility.yul\":18173:18211   */\n      eq\n        /* \"#utility.yul\":18170:18254   */\n      iszero\n      tag_677\n      jumpi\n        /* \"#utility.yul\":18226:18244   */\n      tag_678\n      tag_679\n      jump\t// in\n    tag_678:\n        /* \"#utility.yul\":18170:18254   */\n    tag_677:\n        /* \"#utility.yul\":17991:18260   */\n      pop\n        /* \"#utility.yul\":17940:18260   */\n      swap2\n      swap1\n      pop\n      jump\t// out\n        /* \"#utility.yul\":18266:18547   */\n    tag_637:\n        /* \"#utility.yul\":18349:18376   */\n      tag_681\n        /* \"#utility.yul\":18371:18375   */\n      dup3\n        /* \"#utility.yul\":18349:18376   */\n      tag_561\n      jump\t// in\n    tag_681:\n        /* \"#utility.yul\":18341:18347   */\n      dup2\n        /* \"#utility.yul\":18337:18377   */\n      add\n        /* \"#utility.yul\":18479:18485   */\n      dup2\n        /* \"#utility.yul\":18467:18477   */\n      dup2\n        /* \"#utility.yul\":18464:18486   */\n      lt\n        /* \"#utility.yul\":18443:18461   */\n      0xffffffffffffffff\n        /* \"#utility.yul\":18431:18441   */\n      dup3\n        /* \"#utility.yul\":18428:18462   */\n      gt\n        /* \"#utility.yul\":18425:18487   */\n      or\n        /* \"#utility.yul\":18422:18510   */\n      iszero\n      tag_682\n      jumpi\n        /* \"#utility.yul\":18490:18508   */\n      tag_683\n      tag_642\n      jump\t// in\n    tag_683:\n        /* \"#utility.yul\":18422:18510   */\n    tag_682:\n        /* \"#utility.yul\":18530:18540   */\n      dup1\n        /* \"#utility.yul\":18526:18528   */\n      0x40\n        /* \"#utility.yul\":18519:18541   */\n      mstore\n        /* \"#utility.yul\":18309:18547   */\n      pop\n        /* \"#utility.yul\":18266:18547   */\n      pop\n      pop\n      jump\t// out\n        /* \"#utility.yul\":18553:18786   */\n    tag_61:\n        /* \"#utility.yul\":18592:18595   */\n      0x00\n        /* \"#utility.yul\":18615:18639   */\n      tag_685\n        /* \"#utility.yul\":18633:18638   */\n      dup3\n        /* \"#utility.yul\":18615:18639   */\n      tag_607\n      jump\t// in\n    tag_685:\n        /* \"#utility.yul\":18606:18639   */\n      swap2\n      pop\n        /* \"#utility.yul\":18661:18727   */\n      0xffffffffffffffffffffffffffffffffffffffffffffffffffffffffffffffff\n        /* \"#utility.yul\":18654:18659   */\n      dup3\n        /* \"#utility.yul\":18651:18728   */\n      eq\n        /* \"#utility.yul\":18648:18751   */\n      iszero\n      tag_686\n      jumpi\n        /* \"#utility.yul\":18731:18749   */\n      tag_687\n      tag_656\n      jump\t// in\n    tag_687:\n        /* \"#utility.yul\":18648:18751   */\n    tag_686:\n        /* \"#utility.yul\":18778:18779   */\n      0x01\n        /* \"#utility.yul\":18771:18776   */\n      dup3\n        /* \"#utility.yul\":18767:18780   */\n      add\n        /* \"#utility.yul\":18760:18780   */\n      swap1\n      pop\n        /* \"#utility.yul\":18553:18786   */\n      swap2\n      swap1\n      pop\n      jump\t// out\n        /* \"#utility.yul\":18792:18972   */\n    tag_656:\n        /* \"#utility.yul\":18840:18917   */\n      0x4e487b7100000000000000000000000000000000000000000000000000000000\n        /* \"#utility.yul\":18837:18838   */\n      0x00\n        /* \"#utility.yul\":18830:18918   */\n      mstore\n        /* \"#utility.yul\":18937:18941   */\n      0x11\n        /* \"#utility.yul\":18934:18935   */\n      0x04\n        /* \"#utility.yul\":18927:18942   */\n      mstore\n        /* \"#utility.yul\":18961:18965   */\n      0x24\n        /* \"#utility.yul\":18958:18959   */\n      0x00\n        /* \"#utility.yul\":18951:18966   */\n      revert\n        /* \"#utility.yul\":18978:19158   */\n    tag_73:\n        /* \"#utility.yul\":19026:19103   */\n      0x4e487b7100000000000000000000000000000000000000000000000000000000\n        /* \"#utility.yul\":19023:19024   */\n      0x00\n        /* \"#utility.yul\":19016:19104   */\n      mstore\n        /* \"#utility.yul\":19123:19127   */\n      0x21\n        /* \"#utility.yul\":19120:19121   */\n      0x04\n        /* \"#utility.yul\":19113:19128   */\n      mstore\n        /* \"#utility.yul\":19147:19151   */\n      0x24\n        /* \"#utility.yul\":19144:19145   */\n      0x00\n        /* \"#utility.yul\":19137:19152   */\n      revert\n        /* \"#utility.yul\":19164:19344   */\n    tag_679:\n        /* \"#utility.yul\":19212:19289   */\n      0x4e487b7100000000000000000000000000000000000000000000000000000000\n        /* \"#utility.yul\":19209:19210   */\n      0x00\n        /* \"#utility.yul\":19202:19290   */\n      mstore\n        /* \"#utility.yul\":19309:19313   */\n      0x22\n        /* \"#utility.yul\":19306:19307   */\n      0x04\n        /* \"#utility.yul\":19299:19314   */\n      mstore\n        /* \"#utility.yul\":19333:19337   */\n      0x24\n        /* \"#utility.yul\":19330:19331   */\n      0x00\n        /* \"#utility.yul\":19323:19338   */\n      revert\n        /* \"#utility.yul\":19350:19530   */\n    tag_57:\n        /* \"#utility.yul\":19398:19475   */\n      0x4e487b7100000000000000000000000000000000000000000000000000000000\n        /* \"#utility.yul\":19395:19396   */\n      0x00\n        /* \"#utility.yul\":19388:19476   */\n      mstore\n        /* \"#utility.yul\":19495:19499   */\n      0x32\n        /* \"#utility.yul\":19492:19493   */\n      0x04\n        /* \"#utility.yul\":19485:19500   */\n      mstore\n        /* \"#utility.yul\":19519:19523   */\n      0x24\n        /* \"#utility.yul\":19516:19517   */\n      0x00\n        /* \"#utility.yul\":19509:19524   */\n      revert\n        /* \"#utility.yul\":19536:19716   */\n    tag_642:\n        /* \"#utility.yul\":19584:19661   */\n      0x4e487b7100000000000000000000000000000000000000000000000000000000\n        /* \"#utility.yul\":19581:19582   */\n      0x00\n        /* \"#utility.yul\":19574:19662   */\n      mstore\n        /* \"#utility.yul\":19681:19685   */\n      0x41\n        /* \"#utility.yul\":19678:19679   */\n      0x04\n        /* \"#utility.yul\":19671:19686   */\n      mstore\n        /* \"#utility.yul\":19705:19709   */\n      0x24\n        /* \"#utility.yul\":19702:19703   */\n      0x00\n        /* \"#utility.yul\":19695:19710   */\n      revert\n        /* \"#utility.yul\":19722:19839   */\n    tag_486:\n        /* \"#utility.yul\":19831:19832   */\n      0x00\n        /* \"#utility.yul\":19828:19829   */\n      dup1\n        /* \"#utility.yul\":19821:19833   */\n      revert\n        /* \"#utility.yul\":19845:19962   */\n    tag_471:\n        /* \"#utility.yul\":19954:19955   */\n      0x00\n        /* \"#utility.yul\":19951:19952   */\n      dup1\n        /* \"#utility.yul\":19944:19956   */\n      revert\n        /* \"#utility.yul\":19968:20085   */\n    tag_509:\n        /* \"#utility.yul\":20077:20078   */\n      0x00\n        /* \"#utility.yul\":20074:20075   */\n      dup1\n        /* \"#utility.yul\":20067:20079   */\n      revert\n        /* \"#utility.yul\":20091:20208   */\n    tag_495:\n        /* \"#utility.yul\":20200:20201   */\n      0x00\n        /* \"#utility.yul\":20197:20198   */\n      dup1\n        /* \"#utility.yul\":20190:20202   */\n      revert\n        /* \"#utility.yul\":20214:20316   */\n    tag_561:\n        /* \"#utility.yul\":20255:20261   */\n      0x00\n        /* \"#utility.yul\":20306:20308   */\n      0x1f\n        /* \"#utility.yul\":20302:20309   */\n      not\n        /* \"#utility.yul\":20297:20299   */\n      0x1f\n        /* \"#utility.yul\":20290:20295   */\n      dup4\n        /* \"#utility.yul\":20286:20300   */\n      add\n        /* \"#utility.yul\":20282:20310   */\n      and\n        /* \"#utility.yul\":20272:20310   */\n      swap1\n      pop\n        /* \"#utility.yul\":20214:20316   */\n      swap2\n      swap1\n      pop\n      jump\t// out\n        /* \"#utility.yul\":20322:20485   */\n    tag_573:\n        /* \"#utility.yul\":20462:20477   */\n      0x426f72726f776572204f6e6c7900000000000000000000000000000000000000\n        /* \"#utility.yul\":20458:20459   */\n      0x00\n        /* \"#utility.yul\":20450:20456   */\n      dup3\n        /* \"#utility.yul\":20446:20460   */\n      add\n        /* \"#utility.yul\":20439:20478   */\n      mstore\n        /* \"#utility.yul\":20322:20485   */\n      pop\n      jump\t// out\n        /* \"#utility.yul\":20491:20652   */\n    tag_578:\n        /* \"#utility.yul\":20631:20644   */\n      0x42726f6b6572204f6e6c79000000000000000000000000000000000000000000\n        /* \"#utility.yul\":20627:20628   */\n      0x00\n        /* \"#utility.yul\":20619:20625   */\n      dup3\n        /* \"#utility.yul\":20615:20629   */\n      add\n        /* \"#utility.yul\":20608:20645   */\n      mstore\n        /* \"#utility.yul\":20491:20652   */\n      pop\n      jump\t// out\n        /* \"#utility.yul\":20658:20775   */\n    tag_664:\n        /* \"#utility.yul\":20743:20744   */\n      0x08\n        /* \"#utility.yul\":20736:20741   */\n      dup2\n        /* \"#utility.yul\":20733:20745   */\n      lt\n        /* \"#utility.yul\":20723:20769   */\n      tag_701\n      jumpi\n        /* \"#utility.yul\":20749:20767   */\n      tag_702\n      tag_73\n      jump\t// in\n    tag_702:\n        /* \"#utility.yul\":20723:20769   */\n    tag_701:\n        /* \"#utility.yul\":20658:20775   */\n      pop\n      jump\t// out\n        /* \"#utility.yul\":20781:20903   */\n    tag_477:\n        /* \"#utility.yul\":20854:20878   */\n      tag_704\n        /* \"#utility.yul\":20872:20877   */\n      dup2\n        /* \"#utility.yul\":20854:20878   */\n      tag_520\n      jump\t// in\n    tag_704:\n        /* \"#utility.yul\":20847:20852   */\n      dup2\n        /* \"#utility.yul\":20844:20879   */\n      eq\n        /* \"#utility.yul\":20834:20897   */\n      tag_705\n      jumpi\n        /* \"#utility.yul\":20893:20894   */\n      0x00\n        /* \"#utility.yul\":20890:20891   */\n      dup1\n        /* \"#utility.yul\":20883:20895   */\n      revert\n        /* \"#utility.yul\":20834:20897   */\n    tag_705:\n        /* \"#utility.yul\":20781:20903   */\n      pop\n      jump\t// out\n        /* \"#utility.yul\":20909:21025   */\n    tag_481:\n        /* \"#utility.yul\":20979:21000   */\n      tag_707\n        /* \"#utility.yul\":20994:20999   */\n      dup2\n        /* \"#utility.yul\":20979:21000   */\n      tag_541\n      jump\t// in\n    tag_707:\n        /* \"#utility.yul\":20972:20977   */\n      dup2\n        /* \"#utility.yul\":20969:21001   */\n      eq\n        /* \"#utility.yul\":20959:21019   */\n      tag_708\n      jumpi\n        /* \"#utility.yul\":21015:21016   */\n      0x00\n        /* \"#utility.yul\":21012:21013   */\n      dup1\n        /* \"#utility.yul\":21005:21017   */\n      revert\n        /* \"#utility.yul\":20959:21019   */\n    tag_708:\n        /* \"#utility.yul\":20909:21025   */\n      pop\n      jump\t// out\n        /* \"#utility.yul\":21031:21153   */\n    tag_491:\n        /* \"#utility.yul\":21104:21128   */\n      tag_710\n        /* \"#utility.yul\":21122:21127   */\n      dup2\n        /* \"#utility.yul\":21104:21128   */\n      tag_607\n      jump\t// in\n    tag_710:\n        /* \"#utility.yul\":21097:21102   */\n      dup2\n        /* \"#utility.yul\":21094:21129   */\n      eq\n        /* \"#utility.yul\":21084:21147   */\n      tag_711\n      jumpi\n        /* \"#utility.yul\":21143:21144   */\n      0x00\n        /* \"#utility.yul\":21140:21141   */\n      dup1\n        /* \"#utility.yul\":21133:21145   */\n      revert\n        /* \"#utility.yul\":21084:21147   */\n    tag_711:\n        /* \"#utility.yul\":21031:21153   */\n      pop\n      jump\t// out\n\n    auxdata: 0xa2646970667358221220e94c6da6a9da96673dd666f514413b63445aea95a27443af9db99921503b5a9a64736f6c63430008070033\n}\n",
				"bytecode": {
					"linkReferences": {},
					"object": "60806040523480156200001157600080fd5b5060405162002955380380620029558339818101604052810190620000379190620000d6565b336000806101000a81548173ffffffffffffffffffffffffffffffffffffffff021916908373ffffffffffffffffffffffffffffffffffffffff16021790555080600160006101000a81548173ffffffffffffffffffffffffffffffffffffffff021916908373ffffffffffffffffffffffffffffffffffffffff160217905550506200015b565b600081519050620000d08162000141565b92915050565b600060208284031215620000ef57620000ee6200013c565b5b6000620000ff84828501620000bf565b91505092915050565b600062000115826200011c565b9050919050565b600073ffffffffffffffffffffffffffffffffffffffff82169050919050565b600080fd5b6200014c8162000108565b81146200015857600080fd5b50565b6127ea806200016b6000396000f3fe608060405234801561001057600080fd5b506004361061009e5760003560e01c8063aadc1ac111610066578063aadc1ac114610131578063c99771f91461014d578063d028aa6214610169578063d05951a014610199578063d6e67ffb146101b55761009e565b80635d29cb98146100a35780638e4e1bee146100bf5780639781503f146100db578063a8743022146100f7578063aa4a871114610113575b600080fd5b6100bd60048036038101906100b89190611dce565b6101d1565b005b6100d960048036038101906100d49190611dce565b610442565b005b6100f560048036038101906100f09190611dfb565b610675565b005b610111600480360381019061010c9190611dce565b610af2565b005b61011b610d25565b6040516101289190612256565b60405180910390f35b61014b60048036038101906101469190611dce565b610f66565b005b61016760048036038101906101629190611dce565b6111d6565b005b610183600480360381019061017e9190611dce565b6114d7565b60405161019091906122b8565b60405180910390f35b6101b360048036038101906101ae9190611dce565b61174d565b005b6101cf60048036038101906101ca9190611dce565b611980565b005b60008054906101000a900473ffffffffffffffffffffffffffffffffffffffff1673ffffffffffffffffffffffffffffffffffffffff163373ffffffffffffffffffffffffffffffffffffffff161461022957600080fd5b806000805b6002805490508110156102845782600282815481106102505761024f612686565b5b90600052602060002090600902016000015414156102715760019150610284565b808061027c906125b0565b91505061022e565b508061028f57600080fd5b8260016000805b60028054905081101561034d5783600282815481106102b8576102b7612686565b5b90600052602060002090600902016000015414801561032c57508260078111156102e5576102e4612628565b5b600282815481106102f9576102f8612686565b5b906000526020600020906009020160050160009054906101000a900460ff16600781111561032a57610329612628565b5b145b1561033a576001915061034d565b8080610345906125b0565b915050610296565b508061035857600080fd5b60005b60028054905081101561043957866002828154811061037d5761037c612686565b5b9060005260206000209060090201600001541415610426576000600282815481106103ab576103aa612686565b5b906000526020600020906009020160080160006101000a81548160ff0219169083151502179055506003600282815481106103e9576103e8612686565b5b906000526020600020906009020160050160006101000a81548160ff0219169083600781111561041c5761041b612628565b5b0217905550610439565b8080610431906125b0565b91505061035b565b50505050505050565b60008054906101000a900473ffffffffffffffffffffffffffffffffffffffff1673ffffffffffffffffffffffffffffffffffffffff163373ffffffffffffffffffffffffffffffffffffffff161461049a57600080fd5b806000805b6002805490508110156104f55782600282815481106104c1576104c0612686565b5b90600052602060002090600902016000015414156104e257600191506104f5565b80806104ed906125b0565b91505061049f565b508061050057600080fd5b8260026000805b6002805490508110156105be57836002828154811061052957610528612686565b5b90600052602060002090600902016000015414801561059d575082600781111561055657610555612628565b5b6002828154811061056a57610569612686565b5b906000526020600020906009020160050160009054906101000a900460ff16600781111561059b5761059a612628565b5b145b156105ab57600191506105be565b80806105b6906125b0565b915050610507565b50806105c957600080fd5b60005b60028054905081101561066c5786600282815481106105ee576105ed612686565b5b90600052602060002090600902016000015414156106595760046002828154811061061c5761061b612686565b5b906000526020600020906009020160050160006101000a81548160ff0219169083600781111561064f5761064e612628565b5b021790555061066c565b8080610664906125b0565b9150506105cc565b50505050505050565b600160009054906101000a900473ffffffffffffffffffffffffffffffffffffffff1673ffffffffffffffffffffffffffffffffffffffff16633314168c336040518263ffffffff1660e01b81526004016106d0919061223b565b60206040518083038186803b1580156106e857600080fd5b505afa1580156106fc573d6000803e3d6000fd5b505050506040513d601f19601f820116820180604052508101906107209190611da1565b61075f576040517f08c379a000000000000000000000000000000000000000000000000000000000815260040161075690612298565b60405180910390fd5b81600160009054906101000a900473ffffffffffffffffffffffffffffffffffffffff1673ffffffffffffffffffffffffffffffffffffffff1663e701c350826040518263ffffffff1660e01b81526004016107bb919061223b565b60206040518083038186803b1580156107d357600080fd5b505afa1580156107e7573d6000803e3d6000fd5b505050506040513d601f19601f8201168201806040525081019061080b9190611da1565b61084a576040517f08c379a000000000000000000000000000000000000000000000000000000000815260040161084190612278565b60405180910390fd5b6000604051806101600160405280600160028054905061086a9190612448565b81526020018981526020018881526020018781526020018681526020016000600781111561089b5761089a612628565b5b81526020013373ffffffffffffffffffffffffffffffffffffffff1681526020018573ffffffffffffffffffffffffffffffffffffffff1681526020018481526020016000151581526020016000151581525090506002819080600181540180825580915050600190039060005260206000209060090201600090919091909150600082015181600001556020820151816001015560408201518160020155606082015181600301556080820151816004019080519060200190610960929190611bb3565b5060a08201518160050160006101000a81548160ff0219169083600781111561098c5761098b612628565b5b021790555060c08201518160050160016101000a81548173ffffffffffffffffffffffffffffffffffffffff021916908373ffffffffffffffffffffffffffffffffffffffff16021790555060e08201518160060160006101000a81548173ffffffffffffffffffffffffffffffffffffffff021916908373ffffffffffffffffffffffffffffffffffffffff16021790555061010082015181600701556101208201518160080160006101000a81548160ff0219169083151502179055506101408201518160080160016101000a81548160ff02191690831515021790555050507f15adac5cceaa4e4f4e554f4bfa4edfd231e27a4a540c91c3e47f9c093502e976816000015182602001518360400151846060015185608001518660a001518760c001518860e001518961010001518a61012001518b6101400151604051610ae09b9a999897969594939291906122da565b60405180910390a15050505050505050565b60008054906101000a900473ffffffffffffffffffffffffffffffffffffffff1673ffffffffffffffffffffffffffffffffffffffff163373ffffffffffffffffffffffffffffffffffffffff1614610b4a57600080fd5b806000805b600280549050811015610ba5578260028281548110610b7157610b70612686565b5b9060005260206000209060090201600001541415610b925760019150610ba5565b8080610b9d906125b0565b915050610b4f565b5080610bb057600080fd5b8260056000805b600280549050811015610c6e578360028281548110610bd957610bd8612686565b5b906000526020600020906009020160000154148015610c4d5750826007811115610c0657610c05612628565b5b60028281548110610c1a57610c19612686565b5b906000526020600020906009020160050160009054906101000a900460ff166007811115610c4b57610c4a612628565b5b145b15610c5b5760019150610c6e565b8080610c66906125b0565b915050610bb7565b5080610c7957600080fd5b60005b600280549050811015610d1c578660028281548110610c9e57610c9d612686565b5b9060005260206000209060090201600001541415610d0957600660028281548110610ccc57610ccb612686565b5b906000526020600020906009020160050160006101000a81548160ff02191690836007811115610cff57610cfe612628565b5b0217905550610d1c565b8080610d14906125b0565b915050610c7c565b50505050505050565b60606002805480602002602001604051908101604052809291908181526020016000905b82821015610f5d57838290600052602060002090600902016040518061016001604052908160008201548152602001600182015481526020016002820154815260200160038201548152602001600482018054610da59061254d565b80601f0160208091040260200160405190810160405280929190818152602001828054610dd19061254d565b8015610e1e5780601f10610df357610100808354040283529160200191610e1e565b820191906000526020600020905b815481529060010190602001808311610e0157829003601f168201915b505050505081526020016005820160009054906101000a900460ff166007811115610e4c57610e4b612628565b5b6007811115610e5e57610e5d612628565b5b81526020016005820160019054906101000a900473ffffffffffffffffffffffffffffffffffffffff1673ffffffffffffffffffffffffffffffffffffffff1673ffffffffffffffffffffffffffffffffffffffff1681526020016006820160009054906101000a900473ffffffffffffffffffffffffffffffffffffffff1673ffffffffffffffffffffffffffffffffffffffff1673ffffffffffffffffffffffffffffffffffffffff168152602001600782015481526020016008820160009054906101000a900460ff161515151581526020016008820160019054906101000a900460ff16151515158152505081526020019060010190610d49565b50505050905090565b60008054906101000a900473ffffffffffffffffffffffffffffffffffffffff1673ffffffffffffffffffffffffffffffffffffffff163373ffffffffffffffffffffffffffffffffffffffff1614610fbe57600080fd5b806000805b600280549050811015611019578260028281548110610fe557610fe4612686565b5b90600052602060002090600902016000015414156110065760019150611019565b8080611011906125b0565b915050610fc3565b508061102457600080fd5b8260016000805b6002805490508110156110e257836002828154811061104d5761104c612686565b5b9060005260206000209060090201600001541480156110c1575082600781111561107a57611079612628565b5b6002828154811061108e5761108d612686565b5b906000526020600020906009020160050160009054906101000a900460ff1660078111156110bf576110be612628565b5b145b156110cf57600191506110e2565b80806110da906125b0565b91505061102b565b50806110ed57600080fd5b60005b6002805490508110156111cd57866002828154811061111257611111612686565b5b90600052602060002090600902016000015414156111ba576001600282815481106111405761113f612686565b5b906000526020600020906009020160080160006101000a81548160ff021916908315150217905550600280828154811061117d5761117c612686565b5b906000526020600020906009020160050160006101000a81548160ff021916908360078111156111b0576111af612628565b5b02179055506111cd565b80806111c5906125b0565b9150506110f0565b50505050505050565b806000805b6002805490508110156112ad5782600282815481106111fd576111fc612686565b5b90600052602060002090600902016000015414801561128c57503373ffffffffffffffffffffffffffffffffffffffff166002828154811061124257611241612686565b5b906000526020600020906009020160060160009054906101000a900473ffffffffffffffffffffffffffffffffffffffff1673ffffffffffffffffffffffffffffffffffffffff16145b1561129a57600191506112ad565b80806112a5906125b0565b9150506111db565b50806112b857600080fd5b826000805b6002805490508110156113135782600282815481106112df576112de612686565b5b90600052602060002090600902016000015414156113005760019150611313565b808061130b906125b0565b9150506112bd565b508061131e57600080fd5b846000806000905060005b6002805490508110156113e057836002828154811061134b5761134a612686565b5b9060005260206000209060090201600001541480156113bf575082600781111561137857611377612628565b5b6002828154811061138c5761138b612686565b5b906000526020600020906009020160050160009054906101000a900460ff1660078111156113bd576113bc612628565b5b145b156113cd57600191506113e0565b80806113d8906125b0565b915050611329565b50806113eb57600080fd5b60005b6002805490508110156114cc5788600282815481106114105761140f612686565b5b90600052602060002090600902016000015414156114b95760016002828154811061143e5761143d612686565b5b906000526020600020906009020160080160016101000a81548160ff02191690831515021790555060016002828154811061147c5761147b612686565b5b906000526020600020906009020160050160006101000a81548160ff021916908360078111156114af576114ae612628565b5b02179055506114cc565b80806114c4906125b0565b9150506113ee565b505050505050505050565b6114df611c39565b60005b60028054905081101561174657826002828154811061150457611503612686565b5b906000526020600020906009020160000154141561173357600281815481106115305761152f612686565b5b906000526020600020906009020160405180610160016040529081600082015481526020016001820154815260200160028201548152602001600382015481526020016004820180546115829061254d565b80601f01602080910402602001604051908101604052809291908181526020018280546115ae9061254d565b80156115fb5780601f106115d0576101008083540402835291602001916115fb565b820191906000526020600020905b8154815290600101906020018083116115de57829003601f168201915b505050505081526020016005820160009054906101000a900460ff16600781111561162957611628612628565b5b600781111561163b5761163a612628565b5b81526020016005820160019054906101000a900473ffffffffffffffffffffffffffffffffffffffff1673ffffffffffffffffffffffffffffffffffffffff1673ffffffffffffffffffffffffffffffffffffffff1681526020016006820160009054906101000a900473ffffffffffffffffffffffffffffffffffffffff1673ffffffffffffffffffffffffffffffffffffffff1673ffffffffffffffffffffffffffffffffffffffff168152602001600782015481526020016008820160009054906101000a900460ff161515151581526020016008820160019054906101000a900460ff161515151581525050915050611748565b808061173e906125b0565b9150506114e2565b505b919050565b60008054906101000a900473ffffffffffffffffffffffffffffffffffffffff1673ffffffffffffffffffffffffffffffffffffffff163373ffffffffffffffffffffffffffffffffffffffff16146117a557600080fd5b806000805b6002805490508110156118005782600282815481106117cc576117cb612686565b5b90600052602060002090600902016000015414156117ed5760019150611800565b80806117f8906125b0565b9150506117aa565b508061180b57600080fd5b8260056000805b6002805490508110156118c957836002828154811061183457611833612686565b5b9060005260206000209060090201600001541480156118a8575082600781111561186157611860612628565b5b6002828154811061187557611874612686565b5b906000526020600020906009020160050160009054906101000a900460ff1660078111156118a6576118a5612628565b5b145b156118b657600191506118c9565b80806118c1906125b0565b915050611812565b50806118d457600080fd5b60005b6002805490508110156119775786600282815481106118f9576118f8612686565b5b90600052602060002090600902016000015414156119645760076002828154811061192757611926612686565b5b906000526020600020906009020160050160006101000a81548160ff0219169083600781111561195a57611959612628565b5b0217905550611977565b808061196f906125b0565b9150506118d7565b50505050505050565b60008054906101000a900473ffffffffffffffffffffffffffffffffffffffff1673ffffffffffffffffffffffffffffffffffffffff163373ffffffffffffffffffffffffffffffffffffffff16146119d857600080fd5b806000805b600280549050811015611a335782600282815481106119ff576119fe612686565b5b9060005260206000209060090201600001541415611a205760019150611a33565b8080611a2b906125b0565b9150506119dd565b5080611a3e57600080fd5b8260046000805b600280549050811015611afc578360028281548110611a6757611a66612686565b5b906000526020600020906009020160000154148015611adb5750826007811115611a9457611a93612628565b5b60028281548110611aa857611aa7612686565b5b906000526020600020906009020160050160009054906101000a900460ff166007811115611ad957611ad8612628565b5b145b15611ae95760019150611afc565b8080611af4906125b0565b915050611a45565b5080611b0757600080fd5b60005b600280549050811015611baa578660028281548110611b2c57611b2b612686565b5b9060005260206000209060090201600001541415611b9757600560028281548110611b5a57611b59612686565b5b906000526020600020906009020160050160006101000a81548160ff02191690836007811115611b8d57611b8c612628565b5b0217905550611baa565b8080611ba2906125b0565b915050611b0a565b50505050505050565b828054611bbf9061254d565b90600052602060002090601f016020900481019282611be15760008555611c28565b82601f10611bfa57805160ff1916838001178555611c28565b82800160010185558215611c28579182015b82811115611c27578251825591602001919060010190611c0c565b5b509050611c359190611cd5565b5090565b604051806101600160405280600081526020016000815260200160008152602001600081526020016060815260200160006007811115611c7c57611c7b612628565b5b8152602001600073ffffffffffffffffffffffffffffffffffffffff168152602001600073ffffffffffffffffffffffffffffffffffffffff168152602001600081526020016000151581526020016000151581525090565b5b80821115611cee576000816000905550600101611cd6565b5090565b6000611d05611d00846123b1565b61238c565b905082815260208101848484011115611d2157611d206126e9565b5b611d2c84828561250b565b509392505050565b600081359050611d438161276f565b92915050565b600081519050611d5881612786565b92915050565b600082601f830112611d7357611d726126e4565b5b8135611d83848260208601611cf2565b91505092915050565b600081359050611d9b8161279d565b92915050565b600060208284031215611db757611db66126f3565b5b6000611dc584828501611d49565b91505092915050565b600060208284031215611de457611de36126f3565b5b6000611df284828501611d8c565b91505092915050565b60008060008060008060c08789031215611e1857611e176126f3565b5b6000611e2689828a01611d8c565b9650506020611e3789828a01611d8c565b9550506040611e4889828a01611d8c565b945050606087013567ffffffffffffffff811115611e6957611e686126ee565b5b611e7589828a01611d5e565b9350506080611e8689828a01611d34565b92505060a0611e9789828a01611d8c565b9150509295509295509295565b6000611eb0838361203f565b905092915050565b611ec18161249e565b82525050565b611ed08161249e565b82525050565b6000611ee1826123f2565b611eeb8185612415565b935083602082028501611efd856123e2565b8060005b85811015611f395784840389528151611f1a8582611ea4565b9450611f2583612408565b925060208a01995050600181019050611f01565b50829750879550505050505092915050565b611f54816124b0565b82525050565b611f63816124b0565b82525050565b611f72816124f9565b82525050565b611f81816124f9565b82525050565b6000611f92826123fd565b611f9c8185612426565b9350611fac81856020860161251a565b611fb5816126f8565b840191505092915050565b6000611fcb826123fd565b611fd58185612437565b9350611fe581856020860161251a565b611fee816126f8565b840191505092915050565b6000612006600d83612437565b915061201182612709565b602082019050919050565b6000612029600b83612437565b915061203482612732565b602082019050919050565b600061016083016000830151612058600086018261221d565b50602083015161206b602086018261221d565b50604083015161207e604086018261221d565b506060830151612091606086018261221d565b50608083015184820360808601526120a98282611f87565b91505060a08301516120be60a0860182611f69565b5060c08301516120d160c0860182611eb8565b5060e08301516120e460e0860182611eb8565b506101008301516120f961010086018261221d565b5061012083015161210e610120860182611f4b565b50610140830151612123610140860182611f4b565b508091505092915050565b600061016083016000830151612147600086018261221d565b50602083015161215a602086018261221d565b50604083015161216d604086018261221d565b506060830151612180606086018261221d565b50608083015184820360808601526121988282611f87565b91505060a08301516121ad60a0860182611f69565b5060c08301516121c060c0860182611eb8565b5060e08301516121d360e0860182611eb8565b506101008301516121e861010086018261221d565b506101208301516121fd610120860182611f4b565b50610140830151612212610140860182611f4b565b508091505092915050565b612226816124ef565b82525050565b612235816124ef565b82525050565b60006020820190506122506000830184611ec7565b92915050565b600060208201905081810360008301526122708184611ed6565b905092915050565b6000602082019050818103600083015261229181611ff9565b9050919050565b600060208201905081810360008301526122b18161201c565b9050919050565b600060208201905081810360008301526122d2818461212e565b905092915050565b6000610160820190506122f0600083018e61222c565b6122fd602083018d61222c565b61230a604083018c61222c565b612317606083018b61222c565b8181036080830152612329818a611fc0565b905061233860a0830189611f78565b61234560c0830188611ec7565b61235260e0830187611ec7565b61236061010083018661222c565b61236e610120830185611f5a565b61237c610140830184611f5a565b9c9b505050505050505050505050565b60006123966123a7565b90506123a2828261257f565b919050565b6000604051905090565b600067ffffffffffffffff8211156123cc576123cb6126b5565b5b6123d5826126f8565b9050602081019050919050565b6000819050602082019050919050565b600081519050919050565b600081519050919050565b6000602082019050919050565b600082825260208201905092915050565b600082825260208201905092915050565b600082825260208201905092915050565b6000612453826124ef565b915061245e836124ef565b9250827fffffffffffffffffffffffffffffffffffffffffffffffffffffffffffffffff03821115612493576124926125f9565b5b828201905092915050565b60006124a9826124cf565b9050919050565b60008115159050919050565b60008190506124ca8261275b565b919050565b600073ffffffffffffffffffffffffffffffffffffffff82169050919050565b6000819050919050565b6000612504826124bc565b9050919050565b82818337600083830152505050565b60005b8381101561253857808201518184015260208101905061251d565b83811115612547576000848401525b50505050565b6000600282049050600182168061256557607f821691505b6020821081141561257957612578612657565b5b50919050565b612588826126f8565b810181811067ffffffffffffffff821117156125a7576125a66126b5565b5b80604052505050565b60006125bb826124ef565b91507fffffffffffffffffffffffffffffffffffffffffffffffffffffffffffffffff8214156125ee576125ed6125f9565b5b600182019050919050565b7f4e487b7100000000000000000000000000000000000000000000000000000000600052601160045260246000fd5b7f4e487b7100000000000000000000000000000000000000000000000000000000600052602160045260246000fd5b7f4e487b7100000000000000000000000000000000000000000000000000000000600052602260045260246000fd5b7f4e487b7100000000000000000000000000000000000000000000000000000000600052603260045260246000fd5b7f4e487b7100000000000000000000000000000000000000000000000000000000600052604160045260246000fd5b600080fd5b600080fd5b600080fd5b600080fd5b6000601f19601f8301169050919050565b7f426f72726f776572204f6e6c7900000000000000000000000000000000000000600082015250565b7f42726f6b6572204f6e6c79000000000000000000000000000000000000000000600082015250565b6008811061276c5761276b612628565b5b50565b6127788161249e565b811461278357600080fd5b50565b61278f816124b0565b811461279a57600080fd5b50565b6127a6816124ef565b81146127b157600080fd5b5056fea2646970667358221220e94c6da6a9da96673dd666f514413b63445aea95a27443af9db99921503b5a9a64736f6c63430008070033",
					"opcodes": "PUSH1 0x80 PUSH1 0x40 MSTORE CALLVALUE DUP1 ISZERO PUSH3 0x11 JUMPI PUSH1 0x0 DUP1 REVERT JUMPDEST POP PUSH1 0x40 MLOAD PUSH3 0x2955 CODESIZE SUB DUP1 PUSH3 0x2955 DUP4 CODECOPY DUP2 DUP2 ADD PUSH1 0x40 MSTORE DUP2 ADD SWAP1 PUSH3 0x37 SWAP2 SWAP1 PUSH3 0xD6 JUMP JUMPDEST CALLER PUSH1 0x0 DUP1 PUSH2 0x100 EXP DUP2 SLOAD DUP2 PUSH20 0xFFFFFFFFFFFFFFFFFFFFFFFFFFFFFFFFFFFFFFFF MUL NOT AND SWAP1 DUP4 PUSH20 0xFFFFFFFFFFFFFFFFFFFFFFFFFFFFFFFFFFFFFFFF AND MUL OR SWAP1 SSTORE POP DUP1 PUSH1 0x1 PUSH1 0x0 PUSH2 0x100 EXP DUP2 SLOAD DUP2 PUSH20 0xFFFFFFFFFFFFFFFFFFFFFFFFFFFFFFFFFFFFFFFF MUL NOT AND SWAP1 DUP4 PUSH20 0xFFFFFFFFFFFFFFFFFFFFFFFFFFFFFFFFFFFFFFFF AND MUL OR SWAP1 SSTORE POP POP PUSH3 0x15B JUMP JUMPDEST PUSH1 0x0 DUP2 MLOAD SWAP1 POP PUSH3 0xD0 DUP2 PUSH3 0x141 JUMP JUMPDEST SWAP3 SWAP2 POP POP JUMP JUMPDEST PUSH1 0x0 PUSH1 0x20 DUP3 DUP5 SUB SLT ISZERO PUSH3 0xEF JUMPI PUSH3 0xEE PUSH3 0x13C JUMP JUMPDEST JUMPDEST PUSH1 0x0 PUSH3 0xFF DUP5 DUP3 DUP6 ADD PUSH3 0xBF JUMP JUMPDEST SWAP2 POP POP SWAP3 SWAP2 POP POP JUMP JUMPDEST PUSH1 0x0 PUSH3 0x115 DUP3 PUSH3 0x11C JUMP JUMPDEST SWAP1 POP SWAP2 SWAP1 POP JUMP JUMPDEST PUSH1 0x0 PUSH20 0xFFFFFFFFFFFFFFFFFFFFFFFFFFFFFFFFFFFFFFFF DUP3 AND SWAP1 POP SWAP2 SWAP1 POP JUMP JUMPDEST PUSH1 0x0 DUP1 REVERT JUMPDEST PUSH3 0x14C DUP2 PUSH3 0x108 JUMP JUMPDEST DUP2 EQ PUSH3 0x158 JUMPI PUSH1 0x0 DUP1 REVERT JUMPDEST POP JUMP JUMPDEST PUSH2 0x27EA DUP1 PUSH3 0x16B PUSH1 0x0 CODECOPY PUSH1 0x0 RETURN INVALID PUSH1 0x80 PUSH1 0x40 MSTORE CALLVALUE DUP1 ISZERO PUSH2 0x10 JUMPI PUSH1 0x0 DUP1 REVERT JUMPDEST POP PUSH1 0x4 CALLDATASIZE LT PUSH2 0x9E JUMPI PUSH1 0x0 CALLDATALOAD PUSH1 0xE0 SHR DUP1 PUSH4 0xAADC1AC1 GT PUSH2 0x66 JUMPI DUP1 PUSH4 0xAADC1AC1 EQ PUSH2 0x131 JUMPI DUP1 PUSH4 0xC99771F9 EQ PUSH2 0x14D JUMPI DUP1 PUSH4 0xD028AA62 EQ PUSH2 0x169 JUMPI DUP1 PUSH4 0xD05951A0 EQ PUSH2 0x199 JUMPI DUP1 PUSH4 0xD6E67FFB EQ PUSH2 0x1B5 JUMPI PUSH2 0x9E JUMP JUMPDEST DUP1 PUSH4 0x5D29CB98 EQ PUSH2 0xA3 JUMPI DUP1 PUSH4 0x8E4E1BEE EQ PUSH2 0xBF JUMPI DUP1 PUSH4 0x9781503F EQ PUSH2 0xDB JUMPI DUP1 PUSH4 0xA8743022 EQ PUSH2 0xF7 JUMPI DUP1 PUSH4 0xAA4A8711 EQ PUSH2 0x113 JUMPI JUMPDEST PUSH1 0x0 DUP1 REVERT JUMPDEST PUSH2 0xBD PUSH1 0x4 DUP1 CALLDATASIZE SUB DUP2 ADD SWAP1 PUSH2 0xB8 SWAP2 SWAP1 PUSH2 0x1DCE JUMP JUMPDEST PUSH2 0x1D1 JUMP JUMPDEST STOP JUMPDEST PUSH2 0xD9 PUSH1 0x4 DUP1 CALLDATASIZE SUB DUP2 ADD SWAP1 PUSH2 0xD4 SWAP2 SWAP1 PUSH2 0x1DCE JUMP JUMPDEST PUSH2 0x442 JUMP JUMPDEST STOP JUMPDEST PUSH2 0xF5 PUSH1 0x4 DUP1 CALLDATASIZE SUB DUP2 ADD SWAP1 PUSH2 0xF0 SWAP2 SWAP1 PUSH2 0x1DFB JUMP JUMPDEST PUSH2 0x675 JUMP JUMPDEST STOP JUMPDEST PUSH2 0x111 PUSH1 0x4 DUP1 CALLDATASIZE SUB DUP2 ADD SWAP1 PUSH2 0x10C SWAP2 SWAP1 PUSH2 0x1DCE JUMP JUMPDEST PUSH2 0xAF2 JUMP JUMPDEST STOP JUMPDEST PUSH2 0x11B PUSH2 0xD25 JUMP JUMPDEST PUSH1 0x40 MLOAD PUSH2 0x128 SWAP2 SWAP1 PUSH2 0x2256 JUMP JUMPDEST PUSH1 0x40 MLOAD DUP1 SWAP2 SUB SWAP1 RETURN JUMPDEST PUSH2 0x14B PUSH1 0x4 DUP1 CALLDATASIZE SUB DUP2 ADD SWAP1 PUSH2 0x146 SWAP2 SWAP1 PUSH2 0x1DCE JUMP JUMPDEST PUSH2 0xF66 JUMP JUMPDEST STOP JUMPDEST PUSH2 0x167 PUSH1 0x4 DUP1 CALLDATASIZE SUB DUP2 ADD SWAP1 PUSH2 0x162 SWAP2 SWAP1 PUSH2 0x1DCE JUMP JUMPDEST PUSH2 0x11D6 JUMP JUMPDEST STOP JUMPDEST PUSH2 0x183 PUSH1 0x4 DUP1 CALLDATASIZE SUB DUP2 ADD SWAP1 PUSH2 0x17E SWAP2 SWAP1 PUSH2 0x1DCE JUMP JUMPDEST PUSH2 0x14D7 JUMP JUMPDEST PUSH1 0x40 MLOAD PUSH2 0x190 SWAP2 SWAP1 PUSH2 0x22B8 JUMP JUMPDEST PUSH1 0x40 MLOAD DUP1 SWAP2 SUB SWAP1 RETURN JUMPDEST PUSH2 0x1B3 PUSH1 0x4 DUP1 CALLDATASIZE SUB DUP2 ADD SWAP1 PUSH2 0x1AE SWAP2 SWAP1 PUSH2 0x1DCE JUMP JUMPDEST PUSH2 0x174D JUMP JUMPDEST STOP JUMPDEST PUSH2 0x1CF PUSH1 0x4 DUP1 CALLDATASIZE SUB DUP2 ADD SWAP1 PUSH2 0x1CA SWAP2 SWAP1 PUSH2 0x1DCE JUMP JUMPDEST PUSH2 0x1980 JUMP JUMPDEST STOP JUMPDEST PUSH1 0x0 DUP1 SLOAD SWAP1 PUSH2 0x100 EXP SWAP1 DIV PUSH20 0xFFFFFFFFFFFFFFFFFFFFFFFFFFFFFFFFFFFFFFFF AND PUSH20 0xFFFFFFFFFFFFFFFFFFFFFFFFFFFFFFFFFFFFFFFF AND CALLER PUSH20 0xFFFFFFFFFFFFFFFFFFFFFFFFFFFFFFFFFFFFFFFF AND EQ PUSH2 0x229 JUMPI PUSH1 0x0 DUP1 REVERT JUMPDEST DUP1 PUSH1 0x0 DUP1 JUMPDEST PUSH1 0x2 DUP1 SLOAD SWAP1 POP DUP2 LT ISZERO PUSH2 0x284 JUMPI DUP3 PUSH1 0x2 DUP3 DUP2 SLOAD DUP2 LT PUSH2 0x250 JUMPI PUSH2 0x24F PUSH2 0x2686 JUMP JUMPDEST JUMPDEST SWAP1 PUSH1 0x0 MSTORE PUSH1 0x20 PUSH1 0x0 KECCAK256 SWAP1 PUSH1 0x9 MUL ADD PUSH1 0x0 ADD SLOAD EQ ISZERO PUSH2 0x271 JUMPI PUSH1 0x1 SWAP2 POP PUSH2 0x284 JUMP JUMPDEST DUP1 DUP1 PUSH2 0x27C SWAP1 PUSH2 0x25B0 JUMP JUMPDEST SWAP2 POP POP PUSH2 0x22E JUMP JUMPDEST POP DUP1 PUSH2 0x28F JUMPI PUSH1 0x0 DUP1 REVERT JUMPDEST DUP3 PUSH1 0x1 PUSH1 0x0 DUP1 JUMPDEST PUSH1 0x2 DUP1 SLOAD SWAP1 POP DUP2 LT ISZERO PUSH2 0x34D JUMPI DUP4 PUSH1 0x2 DUP3 DUP2 SLOAD DUP2 LT PUSH2 0x2B8 JUMPI PUSH2 0x2B7 PUSH2 0x2686 JUMP JUMPDEST JUMPDEST SWAP1 PUSH1 0x0 MSTORE PUSH1 0x20 PUSH1 0x0 KECCAK256 SWAP1 PUSH1 0x9 MUL ADD PUSH1 0x0 ADD SLOAD EQ DUP1 ISZERO PUSH2 0x32C JUMPI POP DUP3 PUSH1 0x7 DUP2 GT ISZERO PUSH2 0x2E5 JUMPI PUSH2 0x2E4 PUSH2 0x2628 JUMP JUMPDEST JUMPDEST PUSH1 0x2 DUP3 DUP2 SLOAD DUP2 LT PUSH2 0x2F9 JUMPI PUSH2 0x2F8 PUSH2 0x2686 JUMP JUMPDEST JUMPDEST SWAP1 PUSH1 0x0 MSTORE PUSH1 0x20 PUSH1 0x0 KECCAK256 SWAP1 PUSH1 0x9 MUL ADD PUSH1 0x5 ADD PUSH1 0x0 SWAP1 SLOAD SWAP1 PUSH2 0x100 EXP SWAP1 DIV PUSH1 0xFF AND PUSH1 0x7 DUP2 GT ISZERO PUSH2 0x32A JUMPI PUSH2 0x329 PUSH2 0x2628 JUMP JUMPDEST JUMPDEST EQ JUMPDEST ISZERO PUSH2 0x33A JUMPI PUSH1 0x1 SWAP2 POP PUSH2 0x34D JUMP JUMPDEST DUP1 DUP1 PUSH2 0x345 SWAP1 PUSH2 0x25B0 JUMP JUMPDEST SWAP2 POP POP PUSH2 0x296 JUMP JUMPDEST POP DUP1 PUSH2 0x358 JUMPI PUSH1 0x0 DUP1 REVERT JUMPDEST PUSH1 0x0 JUMPDEST PUSH1 0x2 DUP1 SLOAD SWAP1 POP DUP2 LT ISZERO PUSH2 0x439 JUMPI DUP7 PUSH1 0x2 DUP3 DUP2 SLOAD DUP2 LT PUSH2 0x37D JUMPI PUSH2 0x37C PUSH2 0x2686 JUMP JUMPDEST JUMPDEST SWAP1 PUSH1 0x0 MSTORE PUSH1 0x20 PUSH1 0x0 KECCAK256 SWAP1 PUSH1 0x9 MUL ADD PUSH1 0x0 ADD SLOAD EQ ISZERO PUSH2 0x426 JUMPI PUSH1 0x0 PUSH1 0x2 DUP3 DUP2 SLOAD DUP2 LT PUSH2 0x3AB JUMPI PUSH2 0x3AA PUSH2 0x2686 JUMP JUMPDEST JUMPDEST SWAP1 PUSH1 0x0 MSTORE PUSH1 0x20 PUSH1 0x0 KECCAK256 SWAP1 PUSH1 0x9 MUL ADD PUSH1 0x8 ADD PUSH1 0x0 PUSH2 0x100 EXP DUP2 SLOAD DUP2 PUSH1 0xFF MUL NOT AND SWAP1 DUP4 ISZERO ISZERO MUL OR SWAP1 SSTORE POP PUSH1 0x3 PUSH1 0x2 DUP3 DUP2 SLOAD DUP2 LT PUSH2 0x3E9 JUMPI PUSH2 0x3E8 PUSH2 0x2686 JUMP JUMPDEST JUMPDEST SWAP1 PUSH1 0x0 MSTORE PUSH1 0x20 PUSH1 0x0 KECCAK256 SWAP1 PUSH1 0x9 MUL ADD PUSH1 0x5 ADD PUSH1 0x0 PUSH2 0x100 EXP DUP2 SLOAD DUP2 PUSH1 0xFF MUL NOT AND SWAP1 DUP4 PUSH1 0x7 DUP2 GT ISZERO PUSH2 0x41C JUMPI PUSH2 0x41B PUSH2 0x2628 JUMP JUMPDEST JUMPDEST MUL OR SWAP1 SSTORE POP PUSH2 0x439 JUMP JUMPDEST DUP1 DUP1 PUSH2 0x431 SWAP1 PUSH2 0x25B0 JUMP JUMPDEST SWAP2 POP POP PUSH2 0x35B JUMP JUMPDEST POP POP POP POP POP POP POP JUMP JUMPDEST PUSH1 0x0 DUP1 SLOAD SWAP1 PUSH2 0x100 EXP SWAP1 DIV PUSH20 0xFFFFFFFFFFFFFFFFFFFFFFFFFFFFFFFFFFFFFFFF AND PUSH20 0xFFFFFFFFFFFFFFFFFFFFFFFFFFFFFFFFFFFFFFFF AND CALLER PUSH20 0xFFFFFFFFFFFFFFFFFFFFFFFFFFFFFFFFFFFFFFFF AND EQ PUSH2 0x49A JUMPI PUSH1 0x0 DUP1 REVERT JUMPDEST DUP1 PUSH1 0x0 DUP1 JUMPDEST PUSH1 0x2 DUP1 SLOAD SWAP1 POP DUP2 LT ISZERO PUSH2 0x4F5 JUMPI DUP3 PUSH1 0x2 DUP3 DUP2 SLOAD DUP2 LT PUSH2 0x4C1 JUMPI PUSH2 0x4C0 PUSH2 0x2686 JUMP JUMPDEST JUMPDEST SWAP1 PUSH1 0x0 MSTORE PUSH1 0x20 PUSH1 0x0 KECCAK256 SWAP1 PUSH1 0x9 MUL ADD PUSH1 0x0 ADD SLOAD EQ ISZERO PUSH2 0x4E2 JUMPI PUSH1 0x1 SWAP2 POP PUSH2 0x4F5 JUMP JUMPDEST DUP1 DUP1 PUSH2 0x4ED SWAP1 PUSH2 0x25B0 JUMP JUMPDEST SWAP2 POP POP PUSH2 0x49F JUMP JUMPDEST POP DUP1 PUSH2 0x500 JUMPI PUSH1 0x0 DUP1 REVERT JUMPDEST DUP3 PUSH1 0x2 PUSH1 0x0 DUP1 JUMPDEST PUSH1 0x2 DUP1 SLOAD SWAP1 POP DUP2 LT ISZERO PUSH2 0x5BE JUMPI DUP4 PUSH1 0x2 DUP3 DUP2 SLOAD DUP2 LT PUSH2 0x529 JUMPI PUSH2 0x528 PUSH2 0x2686 JUMP JUMPDEST JUMPDEST SWAP1 PUSH1 0x0 MSTORE PUSH1 0x20 PUSH1 0x0 KECCAK256 SWAP1 PUSH1 0x9 MUL ADD PUSH1 0x0 ADD SLOAD EQ DUP1 ISZERO PUSH2 0x59D JUMPI POP DUP3 PUSH1 0x7 DUP2 GT ISZERO PUSH2 0x556 JUMPI PUSH2 0x555 PUSH2 0x2628 JUMP JUMPDEST JUMPDEST PUSH1 0x2 DUP3 DUP2 SLOAD DUP2 LT PUSH2 0x56A JUMPI PUSH2 0x569 PUSH2 0x2686 JUMP JUMPDEST JUMPDEST SWAP1 PUSH1 0x0 MSTORE PUSH1 0x20 PUSH1 0x0 KECCAK256 SWAP1 PUSH1 0x9 MUL ADD PUSH1 0x5 ADD PUSH1 0x0 SWAP1 SLOAD SWAP1 PUSH2 0x100 EXP SWAP1 DIV PUSH1 0xFF AND PUSH1 0x7 DUP2 GT ISZERO PUSH2 0x59B JUMPI PUSH2 0x59A PUSH2 0x2628 JUMP JUMPDEST JUMPDEST EQ JUMPDEST ISZERO PUSH2 0x5AB JUMPI PUSH1 0x1 SWAP2 POP PUSH2 0x5BE JUMP JUMPDEST DUP1 DUP1 PUSH2 0x5B6 SWAP1 PUSH2 0x25B0 JUMP JUMPDEST SWAP2 POP POP PUSH2 0x507 JUMP JUMPDEST POP DUP1 PUSH2 0x5C9 JUMPI PUSH1 0x0 DUP1 REVERT JUMPDEST PUSH1 0x0 JUMPDEST PUSH1 0x2 DUP1 SLOAD SWAP1 POP DUP2 LT ISZERO PUSH2 0x66C JUMPI DUP7 PUSH1 0x2 DUP3 DUP2 SLOAD DUP2 LT PUSH2 0x5EE JUMPI PUSH2 0x5ED PUSH2 0x2686 JUMP JUMPDEST JUMPDEST SWAP1 PUSH1 0x0 MSTORE PUSH1 0x20 PUSH1 0x0 KECCAK256 SWAP1 PUSH1 0x9 MUL ADD PUSH1 0x0 ADD SLOAD EQ ISZERO PUSH2 0x659 JUMPI PUSH1 0x4 PUSH1 0x2 DUP3 DUP2 SLOAD DUP2 LT PUSH2 0x61C JUMPI PUSH2 0x61B PUSH2 0x2686 JUMP JUMPDEST JUMPDEST SWAP1 PUSH1 0x0 MSTORE PUSH1 0x20 PUSH1 0x0 KECCAK256 SWAP1 PUSH1 0x9 MUL ADD PUSH1 0x5 ADD PUSH1 0x0 PUSH2 0x100 EXP DUP2 SLOAD DUP2 PUSH1 0xFF MUL NOT AND SWAP1 DUP4 PUSH1 0x7 DUP2 GT ISZERO PUSH2 0x64F JUMPI PUSH2 0x64E PUSH2 0x2628 JUMP JUMPDEST JUMPDEST MUL OR SWAP1 SSTORE POP PUSH2 0x66C JUMP JUMPDEST DUP1 DUP1 PUSH2 0x664 SWAP1 PUSH2 0x25B0 JUMP JUMPDEST SWAP2 POP POP PUSH2 0x5CC JUMP JUMPDEST POP POP POP POP POP POP POP JUMP JUMPDEST PUSH1 0x1 PUSH1 0x0 SWAP1 SLOAD SWAP1 PUSH2 0x100 EXP SWAP1 DIV PUSH20 0xFFFFFFFFFFFFFFFFFFFFFFFFFFFFFFFFFFFFFFFF AND PUSH20 0xFFFFFFFFFFFFFFFFFFFFFFFFFFFFFFFFFFFFFFFF AND PUSH4 0x3314168C CALLER PUSH1 0x40 MLOAD DUP3 PUSH4 0xFFFFFFFF AND PUSH1 0xE0 SHL DUP2 MSTORE PUSH1 0x4 ADD PUSH2 0x6D0 SWAP2 SWAP1 PUSH2 0x223B JUMP JUMPDEST PUSH1 0x20 PUSH1 0x40 MLOAD DUP1 DUP4 SUB DUP2 DUP7 DUP1 EXTCODESIZE ISZERO DUP1 ISZERO PUSH2 0x6E8 JUMPI PUSH1 0x0 DUP1 REVERT JUMPDEST POP GAS STATICCALL ISZERO DUP1 ISZERO PUSH2 0x6FC JUMPI RETURNDATASIZE PUSH1 0x0 DUP1 RETURNDATACOPY RETURNDATASIZE PUSH1 0x0 REVERT JUMPDEST POP POP POP POP PUSH1 0x40 MLOAD RETURNDATASIZE PUSH1 0x1F NOT PUSH1 0x1F DUP3 ADD AND DUP3 ADD DUP1 PUSH1 0x40 MSTORE POP DUP2 ADD SWAP1 PUSH2 0x720 SWAP2 SWAP1 PUSH2 0x1DA1 JUMP JUMPDEST PUSH2 0x75F JUMPI PUSH1 0x40 MLOAD PUSH32 0x8C379A000000000000000000000000000000000000000000000000000000000 DUP2 MSTORE PUSH1 0x4 ADD PUSH2 0x756 SWAP1 PUSH2 0x2298 JUMP JUMPDEST PUSH1 0x40 MLOAD DUP1 SWAP2 SUB SWAP1 REVERT JUMPDEST DUP2 PUSH1 0x1 PUSH1 0x0 SWAP1 SLOAD SWAP1 PUSH2 0x100 EXP SWAP1 DIV PUSH20 0xFFFFFFFFFFFFFFFFFFFFFFFFFFFFFFFFFFFFFFFF AND PUSH20 0xFFFFFFFFFFFFFFFFFFFFFFFFFFFFFFFFFFFFFFFF AND PUSH4 0xE701C350 DUP3 PUSH1 0x40 MLOAD DUP3 PUSH4 0xFFFFFFFF AND PUSH1 0xE0 SHL DUP2 MSTORE PUSH1 0x4 ADD PUSH2 0x7BB SWAP2 SWAP1 PUSH2 0x223B JUMP JUMPDEST PUSH1 0x20 PUSH1 0x40 MLOAD DUP1 DUP4 SUB DUP2 DUP7 DUP1 EXTCODESIZE ISZERO DUP1 ISZERO PUSH2 0x7D3 JUMPI PUSH1 0x0 DUP1 REVERT JUMPDEST POP GAS STATICCALL ISZERO DUP1 ISZERO PUSH2 0x7E7 JUMPI RETURNDATASIZE PUSH1 0x0 DUP1 RETURNDATACOPY RETURNDATASIZE PUSH1 0x0 REVERT JUMPDEST POP POP POP POP PUSH1 0x40 MLOAD RETURNDATASIZE PUSH1 0x1F NOT PUSH1 0x1F DUP3 ADD AND DUP3 ADD DUP1 PUSH1 0x40 MSTORE POP DUP2 ADD SWAP1 PUSH2 0x80B SWAP2 SWAP1 PUSH2 0x1DA1 JUMP JUMPDEST PUSH2 0x84A JUMPI PUSH1 0x40 MLOAD PUSH32 0x8C379A000000000000000000000000000000000000000000000000000000000 DUP2 MSTORE PUSH1 0x4 ADD PUSH2 0x841 SWAP1 PUSH2 0x2278 JUMP JUMPDEST PUSH1 0x40 MLOAD DUP1 SWAP2 SUB SWAP1 REVERT JUMPDEST PUSH1 0x0 PUSH1 0x40 MLOAD DUP1 PUSH2 0x160 ADD PUSH1 0x40 MSTORE DUP1 PUSH1 0x1 PUSH1 0x2 DUP1 SLOAD SWAP1 POP PUSH2 0x86A SWAP2 SWAP1 PUSH2 0x2448 JUMP JUMPDEST DUP2 MSTORE PUSH1 0x20 ADD DUP10 DUP2 MSTORE PUSH1 0x20 ADD DUP9 DUP2 MSTORE PUSH1 0x20 ADD DUP8 DUP2 MSTORE PUSH1 0x20 ADD DUP7 DUP2 MSTORE PUSH1 0x20 ADD PUSH1 0x0 PUSH1 0x7 DUP2 GT ISZERO PUSH2 0x89B JUMPI PUSH2 0x89A PUSH2 0x2628 JUMP JUMPDEST JUMPDEST DUP2 MSTORE PUSH1 0x20 ADD CALLER PUSH20 0xFFFFFFFFFFFFFFFFFFFFFFFFFFFFFFFFFFFFFFFF AND DUP2 MSTORE PUSH1 0x20 ADD DUP6 PUSH20 0xFFFFFFFFFFFFFFFFFFFFFFFFFFFFFFFFFFFFFFFF AND DUP2 MSTORE PUSH1 0x20 ADD DUP5 DUP2 MSTORE PUSH1 0x20 ADD PUSH1 0x0 ISZERO ISZERO DUP2 MSTORE PUSH1 0x20 ADD PUSH1 0x0 ISZERO ISZERO DUP2 MSTORE POP SWAP1 POP PUSH1 0x2 DUP2 SWAP1 DUP1 PUSH1 0x1 DUP2 SLOAD ADD DUP1 DUP3 SSTORE DUP1 SWAP2 POP POP PUSH1 0x1 SWAP1 SUB SWAP1 PUSH1 0x0 MSTORE PUSH1 0x20 PUSH1 0x0 KECCAK256 SWAP1 PUSH1 0x9 MUL ADD PUSH1 0x0 SWAP1 SWAP2 SWAP1 SWAP2 SWAP1 SWAP2 POP PUSH1 0x0 DUP3 ADD MLOAD DUP2 PUSH1 0x0 ADD SSTORE PUSH1 0x20 DUP3 ADD MLOAD DUP2 PUSH1 0x1 ADD SSTORE PUSH1 0x40 DUP3 ADD MLOAD DUP2 PUSH1 0x2 ADD SSTORE PUSH1 0x60 DUP3 ADD MLOAD DUP2 PUSH1 0x3 ADD SSTORE PUSH1 0x80 DUP3 ADD MLOAD DUP2 PUSH1 0x4 ADD SWAP1 DUP1 MLOAD SWAP1 PUSH1 0x20 ADD SWAP1 PUSH2 0x960 SWAP3 SWAP2 SWAP1 PUSH2 0x1BB3 JUMP JUMPDEST POP PUSH1 0xA0 DUP3 ADD MLOAD DUP2 PUSH1 0x5 ADD PUSH1 0x0 PUSH2 0x100 EXP DUP2 SLOAD DUP2 PUSH1 0xFF MUL NOT AND SWAP1 DUP4 PUSH1 0x7 DUP2 GT ISZERO PUSH2 0x98C JUMPI PUSH2 0x98B PUSH2 0x2628 JUMP JUMPDEST JUMPDEST MUL OR SWAP1 SSTORE POP PUSH1 0xC0 DUP3 ADD MLOAD DUP2 PUSH1 0x5 ADD PUSH1 0x1 PUSH2 0x100 EXP DUP2 SLOAD DUP2 PUSH20 0xFFFFFFFFFFFFFFFFFFFFFFFFFFFFFFFFFFFFFFFF MUL NOT AND SWAP1 DUP4 PUSH20 0xFFFFFFFFFFFFFFFFFFFFFFFFFFFFFFFFFFFFFFFF AND MUL OR SWAP1 SSTORE POP PUSH1 0xE0 DUP3 ADD MLOAD DUP2 PUSH1 0x6 ADD PUSH1 0x0 PUSH2 0x100 EXP DUP2 SLOAD DUP2 PUSH20 0xFFFFFFFFFFFFFFFFFFFFFFFFFFFFFFFFFFFFFFFF MUL NOT AND SWAP1 DUP4 PUSH20 0xFFFFFFFFFFFFFFFFFFFFFFFFFFFFFFFFFFFFFFFF AND MUL OR SWAP1 SSTORE POP PUSH2 0x100 DUP3 ADD MLOAD DUP2 PUSH1 0x7 ADD SSTORE PUSH2 0x120 DUP3 ADD MLOAD DUP2 PUSH1 0x8 ADD PUSH1 0x0 PUSH2 0x100 EXP DUP2 SLOAD DUP2 PUSH1 0xFF MUL NOT AND SWAP1 DUP4 ISZERO ISZERO MUL OR SWAP1 SSTORE POP PUSH2 0x140 DUP3 ADD MLOAD DUP2 PUSH1 0x8 ADD PUSH1 0x1 PUSH2 0x100 EXP DUP2 SLOAD DUP2 PUSH1 0xFF MUL NOT AND SWAP1 DUP4 ISZERO ISZERO MUL OR SWAP1 SSTORE POP POP POP PUSH32 0x15ADAC5CCEAA4E4F4E554F4BFA4EDFD231E27A4A540C91C3E47F9C093502E976 DUP2 PUSH1 0x0 ADD MLOAD DUP3 PUSH1 0x20 ADD MLOAD DUP4 PUSH1 0x40 ADD MLOAD DUP5 PUSH1 0x60 ADD MLOAD DUP6 PUSH1 0x80 ADD MLOAD DUP7 PUSH1 0xA0 ADD MLOAD DUP8 PUSH1 0xC0 ADD MLOAD DUP9 PUSH1 0xE0 ADD MLOAD DUP10 PUSH2 0x100 ADD MLOAD DUP11 PUSH2 0x120 ADD MLOAD DUP12 PUSH2 0x140 ADD MLOAD PUSH1 0x40 MLOAD PUSH2 0xAE0 SWAP12 SWAP11 SWAP10 SWAP9 SWAP8 SWAP7 SWAP6 SWAP5 SWAP4 SWAP3 SWAP2 SWAP1 PUSH2 0x22DA JUMP JUMPDEST PUSH1 0x40 MLOAD DUP1 SWAP2 SUB SWAP1 LOG1 POP POP POP POP POP POP POP POP JUMP JUMPDEST PUSH1 0x0 DUP1 SLOAD SWAP1 PUSH2 0x100 EXP SWAP1 DIV PUSH20 0xFFFFFFFFFFFFFFFFFFFFFFFFFFFFFFFFFFFFFFFF AND PUSH20 0xFFFFFFFFFFFFFFFFFFFFFFFFFFFFFFFFFFFFFFFF AND CALLER PUSH20 0xFFFFFFFFFFFFFFFFFFFFFFFFFFFFFFFFFFFFFFFF AND EQ PUSH2 0xB4A JUMPI PUSH1 0x0 DUP1 REVERT JUMPDEST DUP1 PUSH1 0x0 DUP1 JUMPDEST PUSH1 0x2 DUP1 SLOAD SWAP1 POP DUP2 LT ISZERO PUSH2 0xBA5 JUMPI DUP3 PUSH1 0x2 DUP3 DUP2 SLOAD DUP2 LT PUSH2 0xB71 JUMPI PUSH2 0xB70 PUSH2 0x2686 JUMP JUMPDEST JUMPDEST SWAP1 PUSH1 0x0 MSTORE PUSH1 0x20 PUSH1 0x0 KECCAK256 SWAP1 PUSH1 0x9 MUL ADD PUSH1 0x0 ADD SLOAD EQ ISZERO PUSH2 0xB92 JUMPI PUSH1 0x1 SWAP2 POP PUSH2 0xBA5 JUMP JUMPDEST DUP1 DUP1 PUSH2 0xB9D SWAP1 PUSH2 0x25B0 JUMP JUMPDEST SWAP2 POP POP PUSH2 0xB4F JUMP JUMPDEST POP DUP1 PUSH2 0xBB0 JUMPI PUSH1 0x0 DUP1 REVERT JUMPDEST DUP3 PUSH1 0x5 PUSH1 0x0 DUP1 JUMPDEST PUSH1 0x2 DUP1 SLOAD SWAP1 POP DUP2 LT ISZERO PUSH2 0xC6E JUMPI DUP4 PUSH1 0x2 DUP3 DUP2 SLOAD DUP2 LT PUSH2 0xBD9 JUMPI PUSH2 0xBD8 PUSH2 0x2686 JUMP JUMPDEST JUMPDEST SWAP1 PUSH1 0x0 MSTORE PUSH1 0x20 PUSH1 0x0 KECCAK256 SWAP1 PUSH1 0x9 MUL ADD PUSH1 0x0 ADD SLOAD EQ DUP1 ISZERO PUSH2 0xC4D JUMPI POP DUP3 PUSH1 0x7 DUP2 GT ISZERO PUSH2 0xC06 JUMPI PUSH2 0xC05 PUSH2 0x2628 JUMP JUMPDEST JUMPDEST PUSH1 0x2 DUP3 DUP2 SLOAD DUP2 LT PUSH2 0xC1A JUMPI PUSH2 0xC19 PUSH2 0x2686 JUMP JUMPDEST JUMPDEST SWAP1 PUSH1 0x0 MSTORE PUSH1 0x20 PUSH1 0x0 KECCAK256 SWAP1 PUSH1 0x9 MUL ADD PUSH1 0x5 ADD PUSH1 0x0 SWAP1 SLOAD SWAP1 PUSH2 0x100 EXP SWAP1 DIV PUSH1 0xFF AND PUSH1 0x7 DUP2 GT ISZERO PUSH2 0xC4B JUMPI PUSH2 0xC4A PUSH2 0x2628 JUMP JUMPDEST JUMPDEST EQ JUMPDEST ISZERO PUSH2 0xC5B JUMPI PUSH1 0x1 SWAP2 POP PUSH2 0xC6E JUMP JUMPDEST DUP1 DUP1 PUSH2 0xC66 SWAP1 PUSH2 0x25B0 JUMP JUMPDEST SWAP2 POP POP PUSH2 0xBB7 JUMP JUMPDEST POP DUP1 PUSH2 0xC79 JUMPI PUSH1 0x0 DUP1 REVERT JUMPDEST PUSH1 0x0 JUMPDEST PUSH1 0x2 DUP1 SLOAD SWAP1 POP DUP2 LT ISZERO PUSH2 0xD1C JUMPI DUP7 PUSH1 0x2 DUP3 DUP2 SLOAD DUP2 LT PUSH2 0xC9E JUMPI PUSH2 0xC9D PUSH2 0x2686 JUMP JUMPDEST JUMPDEST SWAP1 PUSH1 0x0 MSTORE PUSH1 0x20 PUSH1 0x0 KECCAK256 SWAP1 PUSH1 0x9 MUL ADD PUSH1 0x0 ADD SLOAD EQ ISZERO PUSH2 0xD09 JUMPI PUSH1 0x6 PUSH1 0x2 DUP3 DUP2 SLOAD DUP2 LT PUSH2 0xCCC JUMPI PUSH2 0xCCB PUSH2 0x2686 JUMP JUMPDEST JUMPDEST SWAP1 PUSH1 0x0 MSTORE PUSH1 0x20 PUSH1 0x0 KECCAK256 SWAP1 PUSH1 0x9 MUL ADD PUSH1 0x5 ADD PUSH1 0x0 PUSH2 0x100 EXP DUP2 SLOAD DUP2 PUSH1 0xFF MUL NOT AND SWAP1 DUP4 PUSH1 0x7 DUP2 GT ISZERO PUSH2 0xCFF JUMPI PUSH2 0xCFE PUSH2 0x2628 JUMP JUMPDEST JUMPDEST MUL OR SWAP1 SSTORE POP PUSH2 0xD1C JUMP JUMPDEST DUP1 DUP1 PUSH2 0xD14 SWAP1 PUSH2 0x25B0 JUMP JUMPDEST SWAP2 POP POP PUSH2 0xC7C JUMP JUMPDEST POP POP POP POP POP POP POP JUMP JUMPDEST PUSH1 0x60 PUSH1 0x2 DUP1 SLOAD DUP1 PUSH1 0x20 MUL PUSH1 0x20 ADD PUSH1 0x40 MLOAD SWAP1 DUP2 ADD PUSH1 0x40 MSTORE DUP1 SWAP3 SWAP2 SWAP1 DUP2 DUP2 MSTORE PUSH1 0x20 ADD PUSH1 0x0 SWAP1 JUMPDEST DUP3 DUP3 LT ISZERO PUSH2 0xF5D JUMPI DUP4 DUP3 SWAP1 PUSH1 0x0 MSTORE PUSH1 0x20 PUSH1 0x0 KECCAK256 SWAP1 PUSH1 0x9 MUL ADD PUSH1 0x40 MLOAD DUP1 PUSH2 0x160 ADD PUSH1 0x40 MSTORE SWAP1 DUP2 PUSH1 0x0 DUP3 ADD SLOAD DUP2 MSTORE PUSH1 0x20 ADD PUSH1 0x1 DUP3 ADD SLOAD DUP2 MSTORE PUSH1 0x20 ADD PUSH1 0x2 DUP3 ADD SLOAD DUP2 MSTORE PUSH1 0x20 ADD PUSH1 0x3 DUP3 ADD SLOAD DUP2 MSTORE PUSH1 0x20 ADD PUSH1 0x4 DUP3 ADD DUP1 SLOAD PUSH2 0xDA5 SWAP1 PUSH2 0x254D JUMP JUMPDEST DUP1 PUSH1 0x1F ADD PUSH1 0x20 DUP1 SWAP2 DIV MUL PUSH1 0x20 ADD PUSH1 0x40 MLOAD SWAP1 DUP2 ADD PUSH1 0x40 MSTORE DUP1 SWAP3 SWAP2 SWAP1 DUP2 DUP2 MSTORE PUSH1 0x20 ADD DUP3 DUP1 SLOAD PUSH2 0xDD1 SWAP1 PUSH2 0x254D JUMP JUMPDEST DUP1 ISZERO PUSH2 0xE1E JUMPI DUP1 PUSH1 0x1F LT PUSH2 0xDF3 JUMPI PUSH2 0x100 DUP1 DUP4 SLOAD DIV MUL DUP4 MSTORE SWAP2 PUSH1 0x20 ADD SWAP2 PUSH2 0xE1E JUMP JUMPDEST DUP3 ADD SWAP2 SWAP1 PUSH1 0x0 MSTORE PUSH1 0x20 PUSH1 0x0 KECCAK256 SWAP1 JUMPDEST DUP2 SLOAD DUP2 MSTORE SWAP1 PUSH1 0x1 ADD SWAP1 PUSH1 0x20 ADD DUP1 DUP4 GT PUSH2 0xE01 JUMPI DUP3 SWAP1 SUB PUSH1 0x1F AND DUP3 ADD SWAP2 JUMPDEST POP POP POP POP POP DUP2 MSTORE PUSH1 0x20 ADD PUSH1 0x5 DUP3 ADD PUSH1 0x0 SWAP1 SLOAD SWAP1 PUSH2 0x100 EXP SWAP1 DIV PUSH1 0xFF AND PUSH1 0x7 DUP2 GT ISZERO PUSH2 0xE4C JUMPI PUSH2 0xE4B PUSH2 0x2628 JUMP JUMPDEST JUMPDEST PUSH1 0x7 DUP2 GT ISZERO PUSH2 0xE5E JUMPI PUSH2 0xE5D PUSH2 0x2628 JUMP JUMPDEST JUMPDEST DUP2 MSTORE PUSH1 0x20 ADD PUSH1 0x5 DUP3 ADD PUSH1 0x1 SWAP1 SLOAD SWAP1 PUSH2 0x100 EXP SWAP1 DIV PUSH20 0xFFFFFFFFFFFFFFFFFFFFFFFFFFFFFFFFFFFFFFFF AND PUSH20 0xFFFFFFFFFFFFFFFFFFFFFFFFFFFFFFFFFFFFFFFF AND PUSH20 0xFFFFFFFFFFFFFFFFFFFFFFFFFFFFFFFFFFFFFFFF AND DUP2 MSTORE PUSH1 0x20 ADD PUSH1 0x6 DUP3 ADD PUSH1 0x0 SWAP1 SLOAD SWAP1 PUSH2 0x100 EXP SWAP1 DIV PUSH20 0xFFFFFFFFFFFFFFFFFFFFFFFFFFFFFFFFFFFFFFFF AND PUSH20 0xFFFFFFFFFFFFFFFFFFFFFFFFFFFFFFFFFFFFFFFF AND PUSH20 0xFFFFFFFFFFFFFFFFFFFFFFFFFFFFFFFFFFFFFFFF AND DUP2 MSTORE PUSH1 0x20 ADD PUSH1 0x7 DUP3 ADD SLOAD DUP2 MSTORE PUSH1 0x20 ADD PUSH1 0x8 DUP3 ADD PUSH1 0x0 SWAP1 SLOAD SWAP1 PUSH2 0x100 EXP SWAP1 DIV PUSH1 0xFF AND ISZERO ISZERO ISZERO ISZERO DUP2 MSTORE PUSH1 0x20 ADD PUSH1 0x8 DUP3 ADD PUSH1 0x1 SWAP1 SLOAD SWAP1 PUSH2 0x100 EXP SWAP1 DIV PUSH1 0xFF AND ISZERO ISZERO ISZERO ISZERO DUP2 MSTORE POP POP DUP2 MSTORE PUSH1 0x20 ADD SWAP1 PUSH1 0x1 ADD SWAP1 PUSH2 0xD49 JUMP JUMPDEST POP POP POP POP SWAP1 POP SWAP1 JUMP JUMPDEST PUSH1 0x0 DUP1 SLOAD SWAP1 PUSH2 0x100 EXP SWAP1 DIV PUSH20 0xFFFFFFFFFFFFFFFFFFFFFFFFFFFFFFFFFFFFFFFF AND PUSH20 0xFFFFFFFFFFFFFFFFFFFFFFFFFFFFFFFFFFFFFFFF AND CALLER PUSH20 0xFFFFFFFFFFFFFFFFFFFFFFFFFFFFFFFFFFFFFFFF AND EQ PUSH2 0xFBE JUMPI PUSH1 0x0 DUP1 REVERT JUMPDEST DUP1 PUSH1 0x0 DUP1 JUMPDEST PUSH1 0x2 DUP1 SLOAD SWAP1 POP DUP2 LT ISZERO PUSH2 0x1019 JUMPI DUP3 PUSH1 0x2 DUP3 DUP2 SLOAD DUP2 LT PUSH2 0xFE5 JUMPI PUSH2 0xFE4 PUSH2 0x2686 JUMP JUMPDEST JUMPDEST SWAP1 PUSH1 0x0 MSTORE PUSH1 0x20 PUSH1 0x0 KECCAK256 SWAP1 PUSH1 0x9 MUL ADD PUSH1 0x0 ADD SLOAD EQ ISZERO PUSH2 0x1006 JUMPI PUSH1 0x1 SWAP2 POP PUSH2 0x1019 JUMP JUMPDEST DUP1 DUP1 PUSH2 0x1011 SWAP1 PUSH2 0x25B0 JUMP JUMPDEST SWAP2 POP POP PUSH2 0xFC3 JUMP JUMPDEST POP DUP1 PUSH2 0x1024 JUMPI PUSH1 0x0 DUP1 REVERT JUMPDEST DUP3 PUSH1 0x1 PUSH1 0x0 DUP1 JUMPDEST PUSH1 0x2 DUP1 SLOAD SWAP1 POP DUP2 LT ISZERO PUSH2 0x10E2 JUMPI DUP4 PUSH1 0x2 DUP3 DUP2 SLOAD DUP2 LT PUSH2 0x104D JUMPI PUSH2 0x104C PUSH2 0x2686 JUMP JUMPDEST JUMPDEST SWAP1 PUSH1 0x0 MSTORE PUSH1 0x20 PUSH1 0x0 KECCAK256 SWAP1 PUSH1 0x9 MUL ADD PUSH1 0x0 ADD SLOAD EQ DUP1 ISZERO PUSH2 0x10C1 JUMPI POP DUP3 PUSH1 0x7 DUP2 GT ISZERO PUSH2 0x107A JUMPI PUSH2 0x1079 PUSH2 0x2628 JUMP JUMPDEST JUMPDEST PUSH1 0x2 DUP3 DUP2 SLOAD DUP2 LT PUSH2 0x108E JUMPI PUSH2 0x108D PUSH2 0x2686 JUMP JUMPDEST JUMPDEST SWAP1 PUSH1 0x0 MSTORE PUSH1 0x20 PUSH1 0x0 KECCAK256 SWAP1 PUSH1 0x9 MUL ADD PUSH1 0x5 ADD PUSH1 0x0 SWAP1 SLOAD SWAP1 PUSH2 0x100 EXP SWAP1 DIV PUSH1 0xFF AND PUSH1 0x7 DUP2 GT ISZERO PUSH2 0x10BF JUMPI PUSH2 0x10BE PUSH2 0x2628 JUMP JUMPDEST JUMPDEST EQ JUMPDEST ISZERO PUSH2 0x10CF JUMPI PUSH1 0x1 SWAP2 POP PUSH2 0x10E2 JUMP JUMPDEST DUP1 DUP1 PUSH2 0x10DA SWAP1 PUSH2 0x25B0 JUMP JUMPDEST SWAP2 POP POP PUSH2 0x102B JUMP JUMPDEST POP DUP1 PUSH2 0x10ED JUMPI PUSH1 0x0 DUP1 REVERT JUMPDEST PUSH1 0x0 JUMPDEST PUSH1 0x2 DUP1 SLOAD SWAP1 POP DUP2 LT ISZERO PUSH2 0x11CD JUMPI DUP7 PUSH1 0x2 DUP3 DUP2 SLOAD DUP2 LT PUSH2 0x1112 JUMPI PUSH2 0x1111 PUSH2 0x2686 JUMP JUMPDEST JUMPDEST SWAP1 PUSH1 0x0 MSTORE PUSH1 0x20 PUSH1 0x0 KECCAK256 SWAP1 PUSH1 0x9 MUL ADD PUSH1 0x0 ADD SLOAD EQ ISZERO PUSH2 0x11BA JUMPI PUSH1 0x1 PUSH1 0x2 DUP3 DUP2 SLOAD DUP2 LT PUSH2 0x1140 JUMPI PUSH2 0x113F PUSH2 0x2686 JUMP JUMPDEST JUMPDEST SWAP1 PUSH1 0x0 MSTORE PUSH1 0x20 PUSH1 0x0 KECCAK256 SWAP1 PUSH1 0x9 MUL ADD PUSH1 0x8 ADD PUSH1 0x0 PUSH2 0x100 EXP DUP2 SLOAD DUP2 PUSH1 0xFF MUL NOT AND SWAP1 DUP4 ISZERO ISZERO MUL OR SWAP1 SSTORE POP PUSH1 0x2 DUP1 DUP3 DUP2 SLOAD DUP2 LT PUSH2 0x117D JUMPI PUSH2 0x117C PUSH2 0x2686 JUMP JUMPDEST JUMPDEST SWAP1 PUSH1 0x0 MSTORE PUSH1 0x20 PUSH1 0x0 KECCAK256 SWAP1 PUSH1 0x9 MUL ADD PUSH1 0x5 ADD PUSH1 0x0 PUSH2 0x100 EXP DUP2 SLOAD DUP2 PUSH1 0xFF MUL NOT AND SWAP1 DUP4 PUSH1 0x7 DUP2 GT ISZERO PUSH2 0x11B0 JUMPI PUSH2 0x11AF PUSH2 0x2628 JUMP JUMPDEST JUMPDEST MUL OR SWAP1 SSTORE POP PUSH2 0x11CD JUMP JUMPDEST DUP1 DUP1 PUSH2 0x11C5 SWAP1 PUSH2 0x25B0 JUMP JUMPDEST SWAP2 POP POP PUSH2 0x10F0 JUMP JUMPDEST POP POP POP POP POP POP POP JUMP JUMPDEST DUP1 PUSH1 0x0 DUP1 JUMPDEST PUSH1 0x2 DUP1 SLOAD SWAP1 POP DUP2 LT ISZERO PUSH2 0x12AD JUMPI DUP3 PUSH1 0x2 DUP3 DUP2 SLOAD DUP2 LT PUSH2 0x11FD JUMPI PUSH2 0x11FC PUSH2 0x2686 JUMP JUMPDEST JUMPDEST SWAP1 PUSH1 0x0 MSTORE PUSH1 0x20 PUSH1 0x0 KECCAK256 SWAP1 PUSH1 0x9 MUL ADD PUSH1 0x0 ADD SLOAD EQ DUP1 ISZERO PUSH2 0x128C JUMPI POP CALLER PUSH20 0xFFFFFFFFFFFFFFFFFFFFFFFFFFFFFFFFFFFFFFFF AND PUSH1 0x2 DUP3 DUP2 SLOAD DUP2 LT PUSH2 0x1242 JUMPI PUSH2 0x1241 PUSH2 0x2686 JUMP JUMPDEST JUMPDEST SWAP1 PUSH1 0x0 MSTORE PUSH1 0x20 PUSH1 0x0 KECCAK256 SWAP1 PUSH1 0x9 MUL ADD PUSH1 0x6 ADD PUSH1 0x0 SWAP1 SLOAD SWAP1 PUSH2 0x100 EXP SWAP1 DIV PUSH20 0xFFFFFFFFFFFFFFFFFFFFFFFFFFFFFFFFFFFFFFFF AND PUSH20 0xFFFFFFFFFFFFFFFFFFFFFFFFFFFFFFFFFFFFFFFF AND EQ JUMPDEST ISZERO PUSH2 0x129A JUMPI PUSH1 0x1 SWAP2 POP PUSH2 0x12AD JUMP JUMPDEST DUP1 DUP1 PUSH2 0x12A5 SWAP1 PUSH2 0x25B0 JUMP JUMPDEST SWAP2 POP POP PUSH2 0x11DB JUMP JUMPDEST POP DUP1 PUSH2 0x12B8 JUMPI PUSH1 0x0 DUP1 REVERT JUMPDEST DUP3 PUSH1 0x0 DUP1 JUMPDEST PUSH1 0x2 DUP1 SLOAD SWAP1 POP DUP2 LT ISZERO PUSH2 0x1313 JUMPI DUP3 PUSH1 0x2 DUP3 DUP2 SLOAD DUP2 LT PUSH2 0x12DF JUMPI PUSH2 0x12DE PUSH2 0x2686 JUMP JUMPDEST JUMPDEST SWAP1 PUSH1 0x0 MSTORE PUSH1 0x20 PUSH1 0x0 KECCAK256 SWAP1 PUSH1 0x9 MUL ADD PUSH1 0x0 ADD SLOAD EQ ISZERO PUSH2 0x1300 JUMPI PUSH1 0x1 SWAP2 POP PUSH2 0x1313 JUMP JUMPDEST DUP1 DUP1 PUSH2 0x130B SWAP1 PUSH2 0x25B0 JUMP JUMPDEST SWAP2 POP POP PUSH2 0x12BD JUMP JUMPDEST POP DUP1 PUSH2 0x131E JUMPI PUSH1 0x0 DUP1 REVERT JUMPDEST DUP5 PUSH1 0x0 DUP1 PUSH1 0x0 SWAP1 POP PUSH1 0x0 JUMPDEST PUSH1 0x2 DUP1 SLOAD SWAP1 POP DUP2 LT ISZERO PUSH2 0x13E0 JUMPI DUP4 PUSH1 0x2 DUP3 DUP2 SLOAD DUP2 LT PUSH2 0x134B JUMPI PUSH2 0x134A PUSH2 0x2686 JUMP JUMPDEST JUMPDEST SWAP1 PUSH1 0x0 MSTORE PUSH1 0x20 PUSH1 0x0 KECCAK256 SWAP1 PUSH1 0x9 MUL ADD PUSH1 0x0 ADD SLOAD EQ DUP1 ISZERO PUSH2 0x13BF JUMPI POP DUP3 PUSH1 0x7 DUP2 GT ISZERO PUSH2 0x1378 JUMPI PUSH2 0x1377 PUSH2 0x2628 JUMP JUMPDEST JUMPDEST PUSH1 0x2 DUP3 DUP2 SLOAD DUP2 LT PUSH2 0x138C JUMPI PUSH2 0x138B PUSH2 0x2686 JUMP JUMPDEST JUMPDEST SWAP1 PUSH1 0x0 MSTORE PUSH1 0x20 PUSH1 0x0 KECCAK256 SWAP1 PUSH1 0x9 MUL ADD PUSH1 0x5 ADD PUSH1 0x0 SWAP1 SLOAD SWAP1 PUSH2 0x100 EXP SWAP1 DIV PUSH1 0xFF AND PUSH1 0x7 DUP2 GT ISZERO PUSH2 0x13BD JUMPI PUSH2 0x13BC PUSH2 0x2628 JUMP JUMPDEST JUMPDEST EQ JUMPDEST ISZERO PUSH2 0x13CD JUMPI PUSH1 0x1 SWAP2 POP PUSH2 0x13E0 JUMP JUMPDEST DUP1 DUP1 PUSH2 0x13D8 SWAP1 PUSH2 0x25B0 JUMP JUMPDEST SWAP2 POP POP PUSH2 0x1329 JUMP JUMPDEST POP DUP1 PUSH2 0x13EB JUMPI PUSH1 0x0 DUP1 REVERT JUMPDEST PUSH1 0x0 JUMPDEST PUSH1 0x2 DUP1 SLOAD SWAP1 POP DUP2 LT ISZERO PUSH2 0x14CC JUMPI DUP9 PUSH1 0x2 DUP3 DUP2 SLOAD DUP2 LT PUSH2 0x1410 JUMPI PUSH2 0x140F PUSH2 0x2686 JUMP JUMPDEST JUMPDEST SWAP1 PUSH1 0x0 MSTORE PUSH1 0x20 PUSH1 0x0 KECCAK256 SWAP1 PUSH1 0x9 MUL ADD PUSH1 0x0 ADD SLOAD EQ ISZERO PUSH2 0x14B9 JUMPI PUSH1 0x1 PUSH1 0x2 DUP3 DUP2 SLOAD DUP2 LT PUSH2 0x143E JUMPI PUSH2 0x143D PUSH2 0x2686 JUMP JUMPDEST JUMPDEST SWAP1 PUSH1 0x0 MSTORE PUSH1 0x20 PUSH1 0x0 KECCAK256 SWAP1 PUSH1 0x9 MUL ADD PUSH1 0x8 ADD PUSH1 0x1 PUSH2 0x100 EXP DUP2 SLOAD DUP2 PUSH1 0xFF MUL NOT AND SWAP1 DUP4 ISZERO ISZERO MUL OR SWAP1 SSTORE POP PUSH1 0x1 PUSH1 0x2 DUP3 DUP2 SLOAD DUP2 LT PUSH2 0x147C JUMPI PUSH2 0x147B PUSH2 0x2686 JUMP JUMPDEST JUMPDEST SWAP1 PUSH1 0x0 MSTORE PUSH1 0x20 PUSH1 0x0 KECCAK256 SWAP1 PUSH1 0x9 MUL ADD PUSH1 0x5 ADD PUSH1 0x0 PUSH2 0x100 EXP DUP2 SLOAD DUP2 PUSH1 0xFF MUL NOT AND SWAP1 DUP4 PUSH1 0x7 DUP2 GT ISZERO PUSH2 0x14AF JUMPI PUSH2 0x14AE PUSH2 0x2628 JUMP JUMPDEST JUMPDEST MUL OR SWAP1 SSTORE POP PUSH2 0x14CC JUMP JUMPDEST DUP1 DUP1 PUSH2 0x14C4 SWAP1 PUSH2 0x25B0 JUMP JUMPDEST SWAP2 POP POP PUSH2 0x13EE JUMP JUMPDEST POP POP POP POP POP POP POP POP POP JUMP JUMPDEST PUSH2 0x14DF PUSH2 0x1C39 JUMP JUMPDEST PUSH1 0x0 JUMPDEST PUSH1 0x2 DUP1 SLOAD SWAP1 POP DUP2 LT ISZERO PUSH2 0x1746 JUMPI DUP3 PUSH1 0x2 DUP3 DUP2 SLOAD DUP2 LT PUSH2 0x1504 JUMPI PUSH2 0x1503 PUSH2 0x2686 JUMP JUMPDEST JUMPDEST SWAP1 PUSH1 0x0 MSTORE PUSH1 0x20 PUSH1 0x0 KECCAK256 SWAP1 PUSH1 0x9 MUL ADD PUSH1 0x0 ADD SLOAD EQ ISZERO PUSH2 0x1733 JUMPI PUSH1 0x2 DUP2 DUP2 SLOAD DUP2 LT PUSH2 0x1530 JUMPI PUSH2 0x152F PUSH2 0x2686 JUMP JUMPDEST JUMPDEST SWAP1 PUSH1 0x0 MSTORE PUSH1 0x20 PUSH1 0x0 KECCAK256 SWAP1 PUSH1 0x9 MUL ADD PUSH1 0x40 MLOAD DUP1 PUSH2 0x160 ADD PUSH1 0x40 MSTORE SWAP1 DUP2 PUSH1 0x0 DUP3 ADD SLOAD DUP2 MSTORE PUSH1 0x20 ADD PUSH1 0x1 DUP3 ADD SLOAD DUP2 MSTORE PUSH1 0x20 ADD PUSH1 0x2 DUP3 ADD SLOAD DUP2 MSTORE PUSH1 0x20 ADD PUSH1 0x3 DUP3 ADD SLOAD DUP2 MSTORE PUSH1 0x20 ADD PUSH1 0x4 DUP3 ADD DUP1 SLOAD PUSH2 0x1582 SWAP1 PUSH2 0x254D JUMP JUMPDEST DUP1 PUSH1 0x1F ADD PUSH1 0x20 DUP1 SWAP2 DIV MUL PUSH1 0x20 ADD PUSH1 0x40 MLOAD SWAP1 DUP2 ADD PUSH1 0x40 MSTORE DUP1 SWAP3 SWAP2 SWAP1 DUP2 DUP2 MSTORE PUSH1 0x20 ADD DUP3 DUP1 SLOAD PUSH2 0x15AE SWAP1 PUSH2 0x254D JUMP JUMPDEST DUP1 ISZERO PUSH2 0x15FB JUMPI DUP1 PUSH1 0x1F LT PUSH2 0x15D0 JUMPI PUSH2 0x100 DUP1 DUP4 SLOAD DIV MUL DUP4 MSTORE SWAP2 PUSH1 0x20 ADD SWAP2 PUSH2 0x15FB JUMP JUMPDEST DUP3 ADD SWAP2 SWAP1 PUSH1 0x0 MSTORE PUSH1 0x20 PUSH1 0x0 KECCAK256 SWAP1 JUMPDEST DUP2 SLOAD DUP2 MSTORE SWAP1 PUSH1 0x1 ADD SWAP1 PUSH1 0x20 ADD DUP1 DUP4 GT PUSH2 0x15DE JUMPI DUP3 SWAP1 SUB PUSH1 0x1F AND DUP3 ADD SWAP2 JUMPDEST POP POP POP POP POP DUP2 MSTORE PUSH1 0x20 ADD PUSH1 0x5 DUP3 ADD PUSH1 0x0 SWAP1 SLOAD SWAP1 PUSH2 0x100 EXP SWAP1 DIV PUSH1 0xFF AND PUSH1 0x7 DUP2 GT ISZERO PUSH2 0x1629 JUMPI PUSH2 0x1628 PUSH2 0x2628 JUMP JUMPDEST JUMPDEST PUSH1 0x7 DUP2 GT ISZERO PUSH2 0x163B JUMPI PUSH2 0x163A PUSH2 0x2628 JUMP JUMPDEST JUMPDEST DUP2 MSTORE PUSH1 0x20 ADD PUSH1 0x5 DUP3 ADD PUSH1 0x1 SWAP1 SLOAD SWAP1 PUSH2 0x100 EXP SWAP1 DIV PUSH20 0xFFFFFFFFFFFFFFFFFFFFFFFFFFFFFFFFFFFFFFFF AND PUSH20 0xFFFFFFFFFFFFFFFFFFFFFFFFFFFFFFFFFFFFFFFF AND PUSH20 0xFFFFFFFFFFFFFFFFFFFFFFFFFFFFFFFFFFFFFFFF AND DUP2 MSTORE PUSH1 0x20 ADD PUSH1 0x6 DUP3 ADD PUSH1 0x0 SWAP1 SLOAD SWAP1 PUSH2 0x100 EXP SWAP1 DIV PUSH20 0xFFFFFFFFFFFFFFFFFFFFFFFFFFFFFFFFFFFFFFFF AND PUSH20 0xFFFFFFFFFFFFFFFFFFFFFFFFFFFFFFFFFFFFFFFF AND PUSH20 0xFFFFFFFFFFFFFFFFFFFFFFFFFFFFFFFFFFFFFFFF AND DUP2 MSTORE PUSH1 0x20 ADD PUSH1 0x7 DUP3 ADD SLOAD DUP2 MSTORE PUSH1 0x20 ADD PUSH1 0x8 DUP3 ADD PUSH1 0x0 SWAP1 SLOAD SWAP1 PUSH2 0x100 EXP SWAP1 DIV PUSH1 0xFF AND ISZERO ISZERO ISZERO ISZERO DUP2 MSTORE PUSH1 0x20 ADD PUSH1 0x8 DUP3 ADD PUSH1 0x1 SWAP1 SLOAD SWAP1 PUSH2 0x100 EXP SWAP1 DIV PUSH1 0xFF AND ISZERO ISZERO ISZERO ISZERO DUP2 MSTORE POP POP SWAP2 POP POP PUSH2 0x1748 JUMP JUMPDEST DUP1 DUP1 PUSH2 0x173E SWAP1 PUSH2 0x25B0 JUMP JUMPDEST SWAP2 POP POP PUSH2 0x14E2 JUMP JUMPDEST POP JUMPDEST SWAP2 SWAP1 POP JUMP JUMPDEST PUSH1 0x0 DUP1 SLOAD SWAP1 PUSH2 0x100 EXP SWAP1 DIV PUSH20 0xFFFFFFFFFFFFFFFFFFFFFFFFFFFFFFFFFFFFFFFF AND PUSH20 0xFFFFFFFFFFFFFFFFFFFFFFFFFFFFFFFFFFFFFFFF AND CALLER PUSH20 0xFFFFFFFFFFFFFFFFFFFFFFFFFFFFFFFFFFFFFFFF AND EQ PUSH2 0x17A5 JUMPI PUSH1 0x0 DUP1 REVERT JUMPDEST DUP1 PUSH1 0x0 DUP1 JUMPDEST PUSH1 0x2 DUP1 SLOAD SWAP1 POP DUP2 LT ISZERO PUSH2 0x1800 JUMPI DUP3 PUSH1 0x2 DUP3 DUP2 SLOAD DUP2 LT PUSH2 0x17CC JUMPI PUSH2 0x17CB PUSH2 0x2686 JUMP JUMPDEST JUMPDEST SWAP1 PUSH1 0x0 MSTORE PUSH1 0x20 PUSH1 0x0 KECCAK256 SWAP1 PUSH1 0x9 MUL ADD PUSH1 0x0 ADD SLOAD EQ ISZERO PUSH2 0x17ED JUMPI PUSH1 0x1 SWAP2 POP PUSH2 0x1800 JUMP JUMPDEST DUP1 DUP1 PUSH2 0x17F8 SWAP1 PUSH2 0x25B0 JUMP JUMPDEST SWAP2 POP POP PUSH2 0x17AA JUMP JUMPDEST POP DUP1 PUSH2 0x180B JUMPI PUSH1 0x0 DUP1 REVERT JUMPDEST DUP3 PUSH1 0x5 PUSH1 0x0 DUP1 JUMPDEST PUSH1 0x2 DUP1 SLOAD SWAP1 POP DUP2 LT ISZERO PUSH2 0x18C9 JUMPI DUP4 PUSH1 0x2 DUP3 DUP2 SLOAD DUP2 LT PUSH2 0x1834 JUMPI PUSH2 0x1833 PUSH2 0x2686 JUMP JUMPDEST JUMPDEST SWAP1 PUSH1 0x0 MSTORE PUSH1 0x20 PUSH1 0x0 KECCAK256 SWAP1 PUSH1 0x9 MUL ADD PUSH1 0x0 ADD SLOAD EQ DUP1 ISZERO PUSH2 0x18A8 JUMPI POP DUP3 PUSH1 0x7 DUP2 GT ISZERO PUSH2 0x1861 JUMPI PUSH2 0x1860 PUSH2 0x2628 JUMP JUMPDEST JUMPDEST PUSH1 0x2 DUP3 DUP2 SLOAD DUP2 LT PUSH2 0x1875 JUMPI PUSH2 0x1874 PUSH2 0x2686 JUMP JUMPDEST JUMPDEST SWAP1 PUSH1 0x0 MSTORE PUSH1 0x20 PUSH1 0x0 KECCAK256 SWAP1 PUSH1 0x9 MUL ADD PUSH1 0x5 ADD PUSH1 0x0 SWAP1 SLOAD SWAP1 PUSH2 0x100 EXP SWAP1 DIV PUSH1 0xFF AND PUSH1 0x7 DUP2 GT ISZERO PUSH2 0x18A6 JUMPI PUSH2 0x18A5 PUSH2 0x2628 JUMP JUMPDEST JUMPDEST EQ JUMPDEST ISZERO PUSH2 0x18B6 JUMPI PUSH1 0x1 SWAP2 POP PUSH2 0x18C9 JUMP JUMPDEST DUP1 DUP1 PUSH2 0x18C1 SWAP1 PUSH2 0x25B0 JUMP JUMPDEST SWAP2 POP POP PUSH2 0x1812 JUMP JUMPDEST POP DUP1 PUSH2 0x18D4 JUMPI PUSH1 0x0 DUP1 REVERT JUMPDEST PUSH1 0x0 JUMPDEST PUSH1 0x2 DUP1 SLOAD SWAP1 POP DUP2 LT ISZERO PUSH2 0x1977 JUMPI DUP7 PUSH1 0x2 DUP3 DUP2 SLOAD DUP2 LT PUSH2 0x18F9 JUMPI PUSH2 0x18F8 PUSH2 0x2686 JUMP JUMPDEST JUMPDEST SWAP1 PUSH1 0x0 MSTORE PUSH1 0x20 PUSH1 0x0 KECCAK256 SWAP1 PUSH1 0x9 MUL ADD PUSH1 0x0 ADD SLOAD EQ ISZERO PUSH2 0x1964 JUMPI PUSH1 0x7 PUSH1 0x2 DUP3 DUP2 SLOAD DUP2 LT PUSH2 0x1927 JUMPI PUSH2 0x1926 PUSH2 0x2686 JUMP JUMPDEST JUMPDEST SWAP1 PUSH1 0x0 MSTORE PUSH1 0x20 PUSH1 0x0 KECCAK256 SWAP1 PUSH1 0x9 MUL ADD PUSH1 0x5 ADD PUSH1 0x0 PUSH2 0x100 EXP DUP2 SLOAD DUP2 PUSH1 0xFF MUL NOT AND SWAP1 DUP4 PUSH1 0x7 DUP2 GT ISZERO PUSH2 0x195A JUMPI PUSH2 0x1959 PUSH2 0x2628 JUMP JUMPDEST JUMPDEST MUL OR SWAP1 SSTORE POP PUSH2 0x1977 JUMP JUMPDEST DUP1 DUP1 PUSH2 0x196F SWAP1 PUSH2 0x25B0 JUMP JUMPDEST SWAP2 POP POP PUSH2 0x18D7 JUMP JUMPDEST POP POP POP POP POP POP POP JUMP JUMPDEST PUSH1 0x0 DUP1 SLOAD SWAP1 PUSH2 0x100 EXP SWAP1 DIV PUSH20 0xFFFFFFFFFFFFFFFFFFFFFFFFFFFFFFFFFFFFFFFF AND PUSH20 0xFFFFFFFFFFFFFFFFFFFFFFFFFFFFFFFFFFFFFFFF AND CALLER PUSH20 0xFFFFFFFFFFFFFFFFFFFFFFFFFFFFFFFFFFFFFFFF AND EQ PUSH2 0x19D8 JUMPI PUSH1 0x0 DUP1 REVERT JUMPDEST DUP1 PUSH1 0x0 DUP1 JUMPDEST PUSH1 0x2 DUP1 SLOAD SWAP1 POP DUP2 LT ISZERO PUSH2 0x1A33 JUMPI DUP3 PUSH1 0x2 DUP3 DUP2 SLOAD DUP2 LT PUSH2 0x19FF JUMPI PUSH2 0x19FE PUSH2 0x2686 JUMP JUMPDEST JUMPDEST SWAP1 PUSH1 0x0 MSTORE PUSH1 0x20 PUSH1 0x0 KECCAK256 SWAP1 PUSH1 0x9 MUL ADD PUSH1 0x0 ADD SLOAD EQ ISZERO PUSH2 0x1A20 JUMPI PUSH1 0x1 SWAP2 POP PUSH2 0x1A33 JUMP JUMPDEST DUP1 DUP1 PUSH2 0x1A2B SWAP1 PUSH2 0x25B0 JUMP JUMPDEST SWAP2 POP POP PUSH2 0x19DD JUMP JUMPDEST POP DUP1 PUSH2 0x1A3E JUMPI PUSH1 0x0 DUP1 REVERT JUMPDEST DUP3 PUSH1 0x4 PUSH1 0x0 DUP1 JUMPDEST PUSH1 0x2 DUP1 SLOAD SWAP1 POP DUP2 LT ISZERO PUSH2 0x1AFC JUMPI DUP4 PUSH1 0x2 DUP3 DUP2 SLOAD DUP2 LT PUSH2 0x1A67 JUMPI PUSH2 0x1A66 PUSH2 0x2686 JUMP JUMPDEST JUMPDEST SWAP1 PUSH1 0x0 MSTORE PUSH1 0x20 PUSH1 0x0 KECCAK256 SWAP1 PUSH1 0x9 MUL ADD PUSH1 0x0 ADD SLOAD EQ DUP1 ISZERO PUSH2 0x1ADB JUMPI POP DUP3 PUSH1 0x7 DUP2 GT ISZERO PUSH2 0x1A94 JUMPI PUSH2 0x1A93 PUSH2 0x2628 JUMP JUMPDEST JUMPDEST PUSH1 0x2 DUP3 DUP2 SLOAD DUP2 LT PUSH2 0x1AA8 JUMPI PUSH2 0x1AA7 PUSH2 0x2686 JUMP JUMPDEST JUMPDEST SWAP1 PUSH1 0x0 MSTORE PUSH1 0x20 PUSH1 0x0 KECCAK256 SWAP1 PUSH1 0x9 MUL ADD PUSH1 0x5 ADD PUSH1 0x0 SWAP1 SLOAD SWAP1 PUSH2 0x100 EXP SWAP1 DIV PUSH1 0xFF AND PUSH1 0x7 DUP2 GT ISZERO PUSH2 0x1AD9 JUMPI PUSH2 0x1AD8 PUSH2 0x2628 JUMP JUMPDEST JUMPDEST EQ JUMPDEST ISZERO PUSH2 0x1AE9 JUMPI PUSH1 0x1 SWAP2 POP PUSH2 0x1AFC JUMP JUMPDEST DUP1 DUP1 PUSH2 0x1AF4 SWAP1 PUSH2 0x25B0 JUMP JUMPDEST SWAP2 POP POP PUSH2 0x1A45 JUMP JUMPDEST POP DUP1 PUSH2 0x1B07 JUMPI PUSH1 0x0 DUP1 REVERT JUMPDEST PUSH1 0x0 JUMPDEST PUSH1 0x2 DUP1 SLOAD SWAP1 POP DUP2 LT ISZERO PUSH2 0x1BAA JUMPI DUP7 PUSH1 0x2 DUP3 DUP2 SLOAD DUP2 LT PUSH2 0x1B2C JUMPI PUSH2 0x1B2B PUSH2 0x2686 JUMP JUMPDEST JUMPDEST SWAP1 PUSH1 0x0 MSTORE PUSH1 0x20 PUSH1 0x0 KECCAK256 SWAP1 PUSH1 0x9 MUL ADD PUSH1 0x0 ADD SLOAD EQ ISZERO PUSH2 0x1B97 JUMPI PUSH1 0x5 PUSH1 0x2 DUP3 DUP2 SLOAD DUP2 LT PUSH2 0x1B5A JUMPI PUSH2 0x1B59 PUSH2 0x2686 JUMP JUMPDEST JUMPDEST SWAP1 PUSH1 0x0 MSTORE PUSH1 0x20 PUSH1 0x0 KECCAK256 SWAP1 PUSH1 0x9 MUL ADD PUSH1 0x5 ADD PUSH1 0x0 PUSH2 0x100 EXP DUP2 SLOAD DUP2 PUSH1 0xFF MUL NOT AND SWAP1 DUP4 PUSH1 0x7 DUP2 GT ISZERO PUSH2 0x1B8D JUMPI PUSH2 0x1B8C PUSH2 0x2628 JUMP JUMPDEST JUMPDEST MUL OR SWAP1 SSTORE POP PUSH2 0x1BAA JUMP JUMPDEST DUP1 DUP1 PUSH2 0x1BA2 SWAP1 PUSH2 0x25B0 JUMP JUMPDEST SWAP2 POP POP PUSH2 0x1B0A JUMP JUMPDEST POP POP POP POP POP POP POP JUMP JUMPDEST DUP3 DUP1 SLOAD PUSH2 0x1BBF SWAP1 PUSH2 0x254D JUMP JUMPDEST SWAP1 PUSH1 0x0 MSTORE PUSH1 0x20 PUSH1 0x0 KECCAK256 SWAP1 PUSH1 0x1F ADD PUSH1 0x20 SWAP1 DIV DUP2 ADD SWAP3 DUP3 PUSH2 0x1BE1 JUMPI PUSH1 0x0 DUP6 SSTORE PUSH2 0x1C28 JUMP JUMPDEST DUP3 PUSH1 0x1F LT PUSH2 0x1BFA JUMPI DUP1 MLOAD PUSH1 0xFF NOT AND DUP4 DUP1 ADD OR DUP6 SSTORE PUSH2 0x1C28 JUMP JUMPDEST DUP3 DUP1 ADD PUSH1 0x1 ADD DUP6 SSTORE DUP3 ISZERO PUSH2 0x1C28 JUMPI SWAP2 DUP3 ADD JUMPDEST DUP3 DUP2 GT ISZERO PUSH2 0x1C27 JUMPI DUP3 MLOAD DUP3 SSTORE SWAP2 PUSH1 0x20 ADD SWAP2 SWAP1 PUSH1 0x1 ADD SWAP1 PUSH2 0x1C0C JUMP JUMPDEST JUMPDEST POP SWAP1 POP PUSH2 0x1C35 SWAP2 SWAP1 PUSH2 0x1CD5 JUMP JUMPDEST POP SWAP1 JUMP JUMPDEST PUSH1 0x40 MLOAD DUP1 PUSH2 0x160 ADD PUSH1 0x40 MSTORE DUP1 PUSH1 0x0 DUP2 MSTORE PUSH1 0x20 ADD PUSH1 0x0 DUP2 MSTORE PUSH1 0x20 ADD PUSH1 0x0 DUP2 MSTORE PUSH1 0x20 ADD PUSH1 0x0 DUP2 MSTORE PUSH1 0x20 ADD PUSH1 0x60 DUP2 MSTORE PUSH1 0x20 ADD PUSH1 0x0 PUSH1 0x7 DUP2 GT ISZERO PUSH2 0x1C7C JUMPI PUSH2 0x1C7B PUSH2 0x2628 JUMP JUMPDEST JUMPDEST DUP2 MSTORE PUSH1 0x20 ADD PUSH1 0x0 PUSH20 0xFFFFFFFFFFFFFFFFFFFFFFFFFFFFFFFFFFFFFFFF AND DUP2 MSTORE PUSH1 0x20 ADD PUSH1 0x0 PUSH20 0xFFFFFFFFFFFFFFFFFFFFFFFFFFFFFFFFFFFFFFFF AND DUP2 MSTORE PUSH1 0x20 ADD PUSH1 0x0 DUP2 MSTORE PUSH1 0x20 ADD PUSH1 0x0 ISZERO ISZERO DUP2 MSTORE PUSH1 0x20 ADD PUSH1 0x0 ISZERO ISZERO DUP2 MSTORE POP SWAP1 JUMP JUMPDEST JUMPDEST DUP1 DUP3 GT ISZERO PUSH2 0x1CEE JUMPI PUSH1 0x0 DUP2 PUSH1 0x0 SWAP1 SSTORE POP PUSH1 0x1 ADD PUSH2 0x1CD6 JUMP JUMPDEST POP SWAP1 JUMP JUMPDEST PUSH1 0x0 PUSH2 0x1D05 PUSH2 0x1D00 DUP5 PUSH2 0x23B1 JUMP JUMPDEST PUSH2 0x238C JUMP JUMPDEST SWAP1 POP DUP3 DUP2 MSTORE PUSH1 0x20 DUP2 ADD DUP5 DUP5 DUP5 ADD GT ISZERO PUSH2 0x1D21 JUMPI PUSH2 0x1D20 PUSH2 0x26E9 JUMP JUMPDEST JUMPDEST PUSH2 0x1D2C DUP5 DUP3 DUP6 PUSH2 0x250B JUMP JUMPDEST POP SWAP4 SWAP3 POP POP POP JUMP JUMPDEST PUSH1 0x0 DUP2 CALLDATALOAD SWAP1 POP PUSH2 0x1D43 DUP2 PUSH2 0x276F JUMP JUMPDEST SWAP3 SWAP2 POP POP JUMP JUMPDEST PUSH1 0x0 DUP2 MLOAD SWAP1 POP PUSH2 0x1D58 DUP2 PUSH2 0x2786 JUMP JUMPDEST SWAP3 SWAP2 POP POP JUMP JUMPDEST PUSH1 0x0 DUP3 PUSH1 0x1F DUP4 ADD SLT PUSH2 0x1D73 JUMPI PUSH2 0x1D72 PUSH2 0x26E4 JUMP JUMPDEST JUMPDEST DUP2 CALLDATALOAD PUSH2 0x1D83 DUP5 DUP3 PUSH1 0x20 DUP7 ADD PUSH2 0x1CF2 JUMP JUMPDEST SWAP2 POP POP SWAP3 SWAP2 POP POP JUMP JUMPDEST PUSH1 0x0 DUP2 CALLDATALOAD SWAP1 POP PUSH2 0x1D9B DUP2 PUSH2 0x279D JUMP JUMPDEST SWAP3 SWAP2 POP POP JUMP JUMPDEST PUSH1 0x0 PUSH1 0x20 DUP3 DUP5 SUB SLT ISZERO PUSH2 0x1DB7 JUMPI PUSH2 0x1DB6 PUSH2 0x26F3 JUMP JUMPDEST JUMPDEST PUSH1 0x0 PUSH2 0x1DC5 DUP5 DUP3 DUP6 ADD PUSH2 0x1D49 JUMP JUMPDEST SWAP2 POP POP SWAP3 SWAP2 POP POP JUMP JUMPDEST PUSH1 0x0 PUSH1 0x20 DUP3 DUP5 SUB SLT ISZERO PUSH2 0x1DE4 JUMPI PUSH2 0x1DE3 PUSH2 0x26F3 JUMP JUMPDEST JUMPDEST PUSH1 0x0 PUSH2 0x1DF2 DUP5 DUP3 DUP6 ADD PUSH2 0x1D8C JUMP JUMPDEST SWAP2 POP POP SWAP3 SWAP2 POP POP JUMP JUMPDEST PUSH1 0x0 DUP1 PUSH1 0x0 DUP1 PUSH1 0x0 DUP1 PUSH1 0xC0 DUP8 DUP10 SUB SLT ISZERO PUSH2 0x1E18 JUMPI PUSH2 0x1E17 PUSH2 0x26F3 JUMP JUMPDEST JUMPDEST PUSH1 0x0 PUSH2 0x1E26 DUP10 DUP3 DUP11 ADD PUSH2 0x1D8C JUMP JUMPDEST SWAP7 POP POP PUSH1 0x20 PUSH2 0x1E37 DUP10 DUP3 DUP11 ADD PUSH2 0x1D8C JUMP JUMPDEST SWAP6 POP POP PUSH1 0x40 PUSH2 0x1E48 DUP10 DUP3 DUP11 ADD PUSH2 0x1D8C JUMP JUMPDEST SWAP5 POP POP PUSH1 0x60 DUP8 ADD CALLDATALOAD PUSH8 0xFFFFFFFFFFFFFFFF DUP2 GT ISZERO PUSH2 0x1E69 JUMPI PUSH2 0x1E68 PUSH2 0x26EE JUMP JUMPDEST JUMPDEST PUSH2 0x1E75 DUP10 DUP3 DUP11 ADD PUSH2 0x1D5E JUMP JUMPDEST SWAP4 POP POP PUSH1 0x80 PUSH2 0x1E86 DUP10 DUP3 DUP11 ADD PUSH2 0x1D34 JUMP JUMPDEST SWAP3 POP POP PUSH1 0xA0 PUSH2 0x1E97 DUP10 DUP3 DUP11 ADD PUSH2 0x1D8C JUMP JUMPDEST SWAP2 POP POP SWAP3 SWAP6 POP SWAP3 SWAP6 POP SWAP3 SWAP6 JUMP JUMPDEST PUSH1 0x0 PUSH2 0x1EB0 DUP4 DUP4 PUSH2 0x203F JUMP JUMPDEST SWAP1 POP SWAP3 SWAP2 POP POP JUMP JUMPDEST PUSH2 0x1EC1 DUP2 PUSH2 0x249E JUMP JUMPDEST DUP3 MSTORE POP POP JUMP JUMPDEST PUSH2 0x1ED0 DUP2 PUSH2 0x249E JUMP JUMPDEST DUP3 MSTORE POP POP JUMP JUMPDEST PUSH1 0x0 PUSH2 0x1EE1 DUP3 PUSH2 0x23F2 JUMP JUMPDEST PUSH2 0x1EEB DUP2 DUP6 PUSH2 0x2415 JUMP JUMPDEST SWAP4 POP DUP4 PUSH1 0x20 DUP3 MUL DUP6 ADD PUSH2 0x1EFD DUP6 PUSH2 0x23E2 JUMP JUMPDEST DUP1 PUSH1 0x0 JUMPDEST DUP6 DUP2 LT ISZERO PUSH2 0x1F39 JUMPI DUP5 DUP5 SUB DUP10 MSTORE DUP2 MLOAD PUSH2 0x1F1A DUP6 DUP3 PUSH2 0x1EA4 JUMP JUMPDEST SWAP5 POP PUSH2 0x1F25 DUP4 PUSH2 0x2408 JUMP JUMPDEST SWAP3 POP PUSH1 0x20 DUP11 ADD SWAP10 POP POP PUSH1 0x1 DUP2 ADD SWAP1 POP PUSH2 0x1F01 JUMP JUMPDEST POP DUP3 SWAP8 POP DUP8 SWAP6 POP POP POP POP POP POP SWAP3 SWAP2 POP POP JUMP JUMPDEST PUSH2 0x1F54 DUP2 PUSH2 0x24B0 JUMP JUMPDEST DUP3 MSTORE POP POP JUMP JUMPDEST PUSH2 0x1F63 DUP2 PUSH2 0x24B0 JUMP JUMPDEST DUP3 MSTORE POP POP JUMP JUMPDEST PUSH2 0x1F72 DUP2 PUSH2 0x24F9 JUMP JUMPDEST DUP3 MSTORE POP POP JUMP JUMPDEST PUSH2 0x1F81 DUP2 PUSH2 0x24F9 JUMP JUMPDEST DUP3 MSTORE POP POP JUMP JUMPDEST PUSH1 0x0 PUSH2 0x1F92 DUP3 PUSH2 0x23FD JUMP JUMPDEST PUSH2 0x1F9C DUP2 DUP6 PUSH2 0x2426 JUMP JUMPDEST SWAP4 POP PUSH2 0x1FAC DUP2 DUP6 PUSH1 0x20 DUP7 ADD PUSH2 0x251A JUMP JUMPDEST PUSH2 0x1FB5 DUP2 PUSH2 0x26F8 JUMP JUMPDEST DUP5 ADD SWAP2 POP POP SWAP3 SWAP2 POP POP JUMP JUMPDEST PUSH1 0x0 PUSH2 0x1FCB DUP3 PUSH2 0x23FD JUMP JUMPDEST PUSH2 0x1FD5 DUP2 DUP6 PUSH2 0x2437 JUMP JUMPDEST SWAP4 POP PUSH2 0x1FE5 DUP2 DUP6 PUSH1 0x20 DUP7 ADD PUSH2 0x251A JUMP JUMPDEST PUSH2 0x1FEE DUP2 PUSH2 0x26F8 JUMP JUMPDEST DUP5 ADD SWAP2 POP POP SWAP3 SWAP2 POP POP JUMP JUMPDEST PUSH1 0x0 PUSH2 0x2006 PUSH1 0xD DUP4 PUSH2 0x2437 JUMP JUMPDEST SWAP2 POP PUSH2 0x2011 DUP3 PUSH2 0x2709 JUMP JUMPDEST PUSH1 0x20 DUP3 ADD SWAP1 POP SWAP2 SWAP1 POP JUMP JUMPDEST PUSH1 0x0 PUSH2 0x2029 PUSH1 0xB DUP4 PUSH2 0x2437 JUMP JUMPDEST SWAP2 POP PUSH2 0x2034 DUP3 PUSH2 0x2732 JUMP JUMPDEST PUSH1 0x20 DUP3 ADD SWAP1 POP SWAP2 SWAP1 POP JUMP JUMPDEST PUSH1 0x0 PUSH2 0x160 DUP4 ADD PUSH1 0x0 DUP4 ADD MLOAD PUSH2 0x2058 PUSH1 0x0 DUP7 ADD DUP3 PUSH2 0x221D JUMP JUMPDEST POP PUSH1 0x20 DUP4 ADD MLOAD PUSH2 0x206B PUSH1 0x20 DUP7 ADD DUP3 PUSH2 0x221D JUMP JUMPDEST POP PUSH1 0x40 DUP4 ADD MLOAD PUSH2 0x207E PUSH1 0x40 DUP7 ADD DUP3 PUSH2 0x221D JUMP JUMPDEST POP PUSH1 0x60 DUP4 ADD MLOAD PUSH2 0x2091 PUSH1 0x60 DUP7 ADD DUP3 PUSH2 0x221D JUMP JUMPDEST POP PUSH1 0x80 DUP4 ADD MLOAD DUP5 DUP3 SUB PUSH1 0x80 DUP7 ADD MSTORE PUSH2 0x20A9 DUP3 DUP3 PUSH2 0x1F87 JUMP JUMPDEST SWAP2 POP POP PUSH1 0xA0 DUP4 ADD MLOAD PUSH2 0x20BE PUSH1 0xA0 DUP7 ADD DUP3 PUSH2 0x1F69 JUMP JUMPDEST POP PUSH1 0xC0 DUP4 ADD MLOAD PUSH2 0x20D1 PUSH1 0xC0 DUP7 ADD DUP3 PUSH2 0x1EB8 JUMP JUMPDEST POP PUSH1 0xE0 DUP4 ADD MLOAD PUSH2 0x20E4 PUSH1 0xE0 DUP7 ADD DUP3 PUSH2 0x1EB8 JUMP JUMPDEST POP PUSH2 0x100 DUP4 ADD MLOAD PUSH2 0x20F9 PUSH2 0x100 DUP7 ADD DUP3 PUSH2 0x221D JUMP JUMPDEST POP PUSH2 0x120 DUP4 ADD MLOAD PUSH2 0x210E PUSH2 0x120 DUP7 ADD DUP3 PUSH2 0x1F4B JUMP JUMPDEST POP PUSH2 0x140 DUP4 ADD MLOAD PUSH2 0x2123 PUSH2 0x140 DUP7 ADD DUP3 PUSH2 0x1F4B JUMP JUMPDEST POP DUP1 SWAP2 POP POP SWAP3 SWAP2 POP POP JUMP JUMPDEST PUSH1 0x0 PUSH2 0x160 DUP4 ADD PUSH1 0x0 DUP4 ADD MLOAD PUSH2 0x2147 PUSH1 0x0 DUP7 ADD DUP3 PUSH2 0x221D JUMP JUMPDEST POP PUSH1 0x20 DUP4 ADD MLOAD PUSH2 0x215A PUSH1 0x20 DUP7 ADD DUP3 PUSH2 0x221D JUMP JUMPDEST POP PUSH1 0x40 DUP4 ADD MLOAD PUSH2 0x216D PUSH1 0x40 DUP7 ADD DUP3 PUSH2 0x221D JUMP JUMPDEST POP PUSH1 0x60 DUP4 ADD MLOAD PUSH2 0x2180 PUSH1 0x60 DUP7 ADD DUP3 PUSH2 0x221D JUMP JUMPDEST POP PUSH1 0x80 DUP4 ADD MLOAD DUP5 DUP3 SUB PUSH1 0x80 DUP7 ADD MSTORE PUSH2 0x2198 DUP3 DUP3 PUSH2 0x1F87 JUMP JUMPDEST SWAP2 POP POP PUSH1 0xA0 DUP4 ADD MLOAD PUSH2 0x21AD PUSH1 0xA0 DUP7 ADD DUP3 PUSH2 0x1F69 JUMP JUMPDEST POP PUSH1 0xC0 DUP4 ADD MLOAD PUSH2 0x21C0 PUSH1 0xC0 DUP7 ADD DUP3 PUSH2 0x1EB8 JUMP JUMPDEST POP PUSH1 0xE0 DUP4 ADD MLOAD PUSH2 0x21D3 PUSH1 0xE0 DUP7 ADD DUP3 PUSH2 0x1EB8 JUMP JUMPDEST POP PUSH2 0x100 DUP4 ADD MLOAD PUSH2 0x21E8 PUSH2 0x100 DUP7 ADD DUP3 PUSH2 0x221D JUMP JUMPDEST POP PUSH2 0x120 DUP4 ADD MLOAD PUSH2 0x21FD PUSH2 0x120 DUP7 ADD DUP3 PUSH2 0x1F4B JUMP JUMPDEST POP PUSH2 0x140 DUP4 ADD MLOAD PUSH2 0x2212 PUSH2 0x140 DUP7 ADD DUP3 PUSH2 0x1F4B JUMP JUMPDEST POP DUP1 SWAP2 POP POP SWAP3 SWAP2 POP POP JUMP JUMPDEST PUSH2 0x2226 DUP2 PUSH2 0x24EF JUMP JUMPDEST DUP3 MSTORE POP POP JUMP JUMPDEST PUSH2 0x2235 DUP2 PUSH2 0x24EF JUMP JUMPDEST DUP3 MSTORE POP POP JUMP JUMPDEST PUSH1 0x0 PUSH1 0x20 DUP3 ADD SWAP1 POP PUSH2 0x2250 PUSH1 0x0 DUP4 ADD DUP5 PUSH2 0x1EC7 JUMP JUMPDEST SWAP3 SWAP2 POP POP JUMP JUMPDEST PUSH1 0x0 PUSH1 0x20 DUP3 ADD SWAP1 POP DUP2 DUP2 SUB PUSH1 0x0 DUP4 ADD MSTORE PUSH2 0x2270 DUP2 DUP5 PUSH2 0x1ED6 JUMP JUMPDEST SWAP1 POP SWAP3 SWAP2 POP POP JUMP JUMPDEST PUSH1 0x0 PUSH1 0x20 DUP3 ADD SWAP1 POP DUP2 DUP2 SUB PUSH1 0x0 DUP4 ADD MSTORE PUSH2 0x2291 DUP2 PUSH2 0x1FF9 JUMP JUMPDEST SWAP1 POP SWAP2 SWAP1 POP JUMP JUMPDEST PUSH1 0x0 PUSH1 0x20 DUP3 ADD SWAP1 POP DUP2 DUP2 SUB PUSH1 0x0 DUP4 ADD MSTORE PUSH2 0x22B1 DUP2 PUSH2 0x201C JUMP JUMPDEST SWAP1 POP SWAP2 SWAP1 POP JUMP JUMPDEST PUSH1 0x0 PUSH1 0x20 DUP3 ADD SWAP1 POP DUP2 DUP2 SUB PUSH1 0x0 DUP4 ADD MSTORE PUSH2 0x22D2 DUP2 DUP5 PUSH2 0x212E JUMP JUMPDEST SWAP1 POP SWAP3 SWAP2 POP POP JUMP JUMPDEST PUSH1 0x0 PUSH2 0x160 DUP3 ADD SWAP1 POP PUSH2 0x22F0 PUSH1 0x0 DUP4 ADD DUP15 PUSH2 0x222C JUMP JUMPDEST PUSH2 0x22FD PUSH1 0x20 DUP4 ADD DUP14 PUSH2 0x222C JUMP JUMPDEST PUSH2 0x230A PUSH1 0x40 DUP4 ADD DUP13 PUSH2 0x222C JUMP JUMPDEST PUSH2 0x2317 PUSH1 0x60 DUP4 ADD DUP12 PUSH2 0x222C JUMP JUMPDEST DUP2 DUP2 SUB PUSH1 0x80 DUP4 ADD MSTORE PUSH2 0x2329 DUP2 DUP11 PUSH2 0x1FC0 JUMP JUMPDEST SWAP1 POP PUSH2 0x2338 PUSH1 0xA0 DUP4 ADD DUP10 PUSH2 0x1F78 JUMP JUMPDEST PUSH2 0x2345 PUSH1 0xC0 DUP4 ADD DUP9 PUSH2 0x1EC7 JUMP JUMPDEST PUSH2 0x2352 PUSH1 0xE0 DUP4 ADD DUP8 PUSH2 0x1EC7 JUMP JUMPDEST PUSH2 0x2360 PUSH2 0x100 DUP4 ADD DUP7 PUSH2 0x222C JUMP JUMPDEST PUSH2 0x236E PUSH2 0x120 DUP4 ADD DUP6 PUSH2 0x1F5A JUMP JUMPDEST PUSH2 0x237C PUSH2 0x140 DUP4 ADD DUP5 PUSH2 0x1F5A JUMP JUMPDEST SWAP13 SWAP12 POP POP POP POP POP POP POP POP POP POP POP POP JUMP JUMPDEST PUSH1 0x0 PUSH2 0x2396 PUSH2 0x23A7 JUMP JUMPDEST SWAP1 POP PUSH2 0x23A2 DUP3 DUP3 PUSH2 0x257F JUMP JUMPDEST SWAP2 SWAP1 POP JUMP JUMPDEST PUSH1 0x0 PUSH1 0x40 MLOAD SWAP1 POP SWAP1 JUMP JUMPDEST PUSH1 0x0 PUSH8 0xFFFFFFFFFFFFFFFF DUP3 GT ISZERO PUSH2 0x23CC JUMPI PUSH2 0x23CB PUSH2 0x26B5 JUMP JUMPDEST JUMPDEST PUSH2 0x23D5 DUP3 PUSH2 0x26F8 JUMP JUMPDEST SWAP1 POP PUSH1 0x20 DUP2 ADD SWAP1 POP SWAP2 SWAP1 POP JUMP JUMPDEST PUSH1 0x0 DUP2 SWAP1 POP PUSH1 0x20 DUP3 ADD SWAP1 POP SWAP2 SWAP1 POP JUMP JUMPDEST PUSH1 0x0 DUP2 MLOAD SWAP1 POP SWAP2 SWAP1 POP JUMP JUMPDEST PUSH1 0x0 DUP2 MLOAD SWAP1 POP SWAP2 SWAP1 POP JUMP JUMPDEST PUSH1 0x0 PUSH1 0x20 DUP3 ADD SWAP1 POP SWAP2 SWAP1 POP JUMP JUMPDEST PUSH1 0x0 DUP3 DUP3 MSTORE PUSH1 0x20 DUP3 ADD SWAP1 POP SWAP3 SWAP2 POP POP JUMP JUMPDEST PUSH1 0x0 DUP3 DUP3 MSTORE PUSH1 0x20 DUP3 ADD SWAP1 POP SWAP3 SWAP2 POP POP JUMP JUMPDEST PUSH1 0x0 DUP3 DUP3 MSTORE PUSH1 0x20 DUP3 ADD SWAP1 POP SWAP3 SWAP2 POP POP JUMP JUMPDEST PUSH1 0x0 PUSH2 0x2453 DUP3 PUSH2 0x24EF JUMP JUMPDEST SWAP2 POP PUSH2 0x245E DUP4 PUSH2 0x24EF JUMP JUMPDEST SWAP3 POP DUP3 PUSH32 0xFFFFFFFFFFFFFFFFFFFFFFFFFFFFFFFFFFFFFFFFFFFFFFFFFFFFFFFFFFFFFFFF SUB DUP3 GT ISZERO PUSH2 0x2493 JUMPI PUSH2 0x2492 PUSH2 0x25F9 JUMP JUMPDEST JUMPDEST DUP3 DUP3 ADD SWAP1 POP SWAP3 SWAP2 POP POP JUMP JUMPDEST PUSH1 0x0 PUSH2 0x24A9 DUP3 PUSH2 0x24CF JUMP JUMPDEST SWAP1 POP SWAP2 SWAP1 POP JUMP JUMPDEST PUSH1 0x0 DUP2 ISZERO ISZERO SWAP1 POP SWAP2 SWAP1 POP JUMP JUMPDEST PUSH1 0x0 DUP2 SWAP1 POP PUSH2 0x24CA DUP3 PUSH2 0x275B JUMP JUMPDEST SWAP2 SWAP1 POP JUMP JUMPDEST PUSH1 0x0 PUSH20 0xFFFFFFFFFFFFFFFFFFFFFFFFFFFFFFFFFFFFFFFF DUP3 AND SWAP1 POP SWAP2 SWAP1 POP JUMP JUMPDEST PUSH1 0x0 DUP2 SWAP1 POP SWAP2 SWAP1 POP JUMP JUMPDEST PUSH1 0x0 PUSH2 0x2504 DUP3 PUSH2 0x24BC JUMP JUMPDEST SWAP1 POP SWAP2 SWAP1 POP JUMP JUMPDEST DUP3 DUP2 DUP4 CALLDATACOPY PUSH1 0x0 DUP4 DUP4 ADD MSTORE POP POP POP JUMP JUMPDEST PUSH1 0x0 JUMPDEST DUP4 DUP2 LT ISZERO PUSH2 0x2538 JUMPI DUP1 DUP3 ADD MLOAD DUP2 DUP5 ADD MSTORE PUSH1 0x20 DUP2 ADD SWAP1 POP PUSH2 0x251D JUMP JUMPDEST DUP4 DUP2 GT ISZERO PUSH2 0x2547 JUMPI PUSH1 0x0 DUP5 DUP5 ADD MSTORE JUMPDEST POP POP POP POP JUMP JUMPDEST PUSH1 0x0 PUSH1 0x2 DUP3 DIV SWAP1 POP PUSH1 0x1 DUP3 AND DUP1 PUSH2 0x2565 JUMPI PUSH1 0x7F DUP3 AND SWAP2 POP JUMPDEST PUSH1 0x20 DUP3 LT DUP2 EQ ISZERO PUSH2 0x2579 JUMPI PUSH2 0x2578 PUSH2 0x2657 JUMP JUMPDEST JUMPDEST POP SWAP2 SWAP1 POP JUMP JUMPDEST PUSH2 0x2588 DUP3 PUSH2 0x26F8 JUMP JUMPDEST DUP2 ADD DUP2 DUP2 LT PUSH8 0xFFFFFFFFFFFFFFFF DUP3 GT OR ISZERO PUSH2 0x25A7 JUMPI PUSH2 0x25A6 PUSH2 0x26B5 JUMP JUMPDEST JUMPDEST DUP1 PUSH1 0x40 MSTORE POP POP POP JUMP JUMPDEST PUSH1 0x0 PUSH2 0x25BB DUP3 PUSH2 0x24EF JUMP JUMPDEST SWAP2 POP PUSH32 0xFFFFFFFFFFFFFFFFFFFFFFFFFFFFFFFFFFFFFFFFFFFFFFFFFFFFFFFFFFFFFFFF DUP3 EQ ISZERO PUSH2 0x25EE JUMPI PUSH2 0x25ED PUSH2 0x25F9 JUMP JUMPDEST JUMPDEST PUSH1 0x1 DUP3 ADD SWAP1 POP SWAP2 SWAP1 POP JUMP JUMPDEST PUSH32 0x4E487B7100000000000000000000000000000000000000000000000000000000 PUSH1 0x0 MSTORE PUSH1 0x11 PUSH1 0x4 MSTORE PUSH1 0x24 PUSH1 0x0 REVERT JUMPDEST PUSH32 0x4E487B7100000000000000000000000000000000000000000000000000000000 PUSH1 0x0 MSTORE PUSH1 0x21 PUSH1 0x4 MSTORE PUSH1 0x24 PUSH1 0x0 REVERT JUMPDEST PUSH32 0x4E487B7100000000000000000000000000000000000000000000000000000000 PUSH1 0x0 MSTORE PUSH1 0x22 PUSH1 0x4 MSTORE PUSH1 0x24 PUSH1 0x0 REVERT JUMPDEST PUSH32 0x4E487B7100000000000000000000000000000000000000000000000000000000 PUSH1 0x0 MSTORE PUSH1 0x32 PUSH1 0x4 MSTORE PUSH1 0x24 PUSH1 0x0 REVERT JUMPDEST PUSH32 0x4E487B7100000000000000000000000000000000000000000000000000000000 PUSH1 0x0 MSTORE PUSH1 0x41 PUSH1 0x4 MSTORE PUSH1 0x24 PUSH1 0x0 REVERT JUMPDEST PUSH1 0x0 DUP1 REVERT JUMPDEST PUSH1 0x0 DUP1 REVERT JUMPDEST PUSH1 0x0 DUP1 REVERT JUMPDEST PUSH1 0x0 DUP1 REVERT JUMPDEST PUSH1 0x0 PUSH1 0x1F NOT PUSH1 0x1F DUP4 ADD AND SWAP1 POP SWAP2 SWAP1 POP JUMP JUMPDEST PUSH32 0x426F72726F776572204F6E6C7900000000000000000000000000000000000000 PUSH1 0x0 DUP3 ADD MSTORE POP JUMP JUMPDEST PUSH32 0x42726F6B6572204F6E6C79000000000000000000000000000000000000000000 PUSH1 0x0 DUP3 ADD MSTORE POP JUMP JUMPDEST PUSH1 0x8 DUP2 LT PUSH2 0x276C JUMPI PUSH2 0x276B PUSH2 0x2628 JUMP JUMPDEST JUMPDEST POP JUMP JUMPDEST PUSH2 0x2778 DUP2 PUSH2 0x249E JUMP JUMPDEST DUP2 EQ PUSH2 0x2783 JUMPI PUSH1 0x0 DUP1 REVERT JUMPDEST POP JUMP JUMPDEST PUSH2 0x278F DUP2 PUSH2 0x24B0 JUMP JUMPDEST DUP2 EQ PUSH2 0x279A JUMPI PUSH1 0x0 DUP1 REVERT JUMPDEST POP JUMP JUMPDEST PUSH2 0x27A6 DUP2 PUSH2 0x24EF JUMP JUMPDEST DUP2 EQ PUSH2 0x27B1 JUMPI PUSH1 0x0 DUP1 REVERT JUMPDEST POP JUMP INVALID LOG2 PUSH5 0x6970667358 0x22 SLT KECCAK256 0xE9 0x4C PUSH14 0xA6A9DA96673DD666F514413B6344 GAS 0xEA SWAP6 LOG2 PUSH21 0x43AF9DB99921503B5A9A64736F6C63430008070033 "
				},
				"gasEstimates": {
					"creation": {
						"codeDepositCost": "2043600",
						"executionCost": "infinite",
						"totalCost": "infinite"
					},
					"external": {
						"applyLoan(uint256,uint256,uint256,string,address,uint256)": "infinite",
						"approveLoan(uint256)": "infinite",
						"closeLoan(uint256)": "infinite",
						"confirmTokenTrasferToBorrower(uint256)": "infinite",
						"confirmTokenTrasferToBroker(uint256)": "infinite",
						"getLoans()": "infinite",
						"markAsDefaulted(uint256)": "infinite",
						"rejectLoan(uint256)": "infinite",
						"signByBorrower(uint256)": "infinite",
						"viewLoan(uint256)": "infinite"
					}
				},
				"methodIdentifiers": {
					"applyLoan(uint256,uint256,uint256,string,address,uint256)": "9781503f",
					"approveLoan(uint256)": "aadc1ac1",
					"closeLoan(uint256)": "d05951a0",
					"confirmTokenTrasferToBorrower(uint256)": "d6e67ffb",
					"confirmTokenTrasferToBroker(uint256)": "8e4e1bee",
					"getLoans()": "aa4a8711",
					"markAsDefaulted(uint256)": "a8743022",
					"rejectLoan(uint256)": "5d29cb98",
					"signByBorrower(uint256)": "c99771f9",
					"viewLoan(uint256)": "d028aa62"
				}
			},
			"userdoc": {
				"kind": "user",
				"methods": {},
				"version": 1
			}
		}
	}
}