{
	"contracts/UserIdentity.sol": {
		"UserIdentity": {
			"abi": [
				{
					"inputs": [],
					"stateMutability": "nonpayable",
					"type": "constructor"
				},
				{
					"inputs": [
						{
							"internalType": "string",
							"name": "_socialSecurityId",
							"type": "string"
						},
						{
							"internalType": "address",
							"name": "_address",
							"type": "address"
						},
						{
							"internalType": "string",
							"name": "_name",
							"type": "string"
						}
					],
					"name": "addBorrower",
					"outputs": [],
					"stateMutability": "nonpayable",
					"type": "function"
				},
				{
					"inputs": [
						{
							"internalType": "string",
							"name": "_socialSecurityId",
							"type": "string"
						},
						{
							"internalType": "address",
							"name": "_address",
							"type": "address"
						},
						{
							"internalType": "string",
							"name": "_name",
							"type": "string"
						}
					],
					"name": "addBroker",
					"outputs": [],
					"stateMutability": "nonpayable",
					"type": "function"
				},
				{
					"inputs": [],
					"name": "getAllBorrowers",
					"outputs": [
						{
							"components": [
								{
									"internalType": "uint256",
									"name": "id",
									"type": "uint256"
								},
								{
									"internalType": "string",
									"name": "socialSecurityId",
									"type": "string"
								},
								{
									"internalType": "address",
									"name": "walletAddress",
									"type": "address"
								},
								{
									"internalType": "string",
									"name": "name",
									"type": "string"
								},
								{
									"internalType": "enum UserIdentity.Role",
									"name": "role",
									"type": "uint8"
								}
							],
							"internalType": "struct UserIdentity.User[]",
							"name": "",
							"type": "tuple[]"
						}
					],
					"stateMutability": "view",
					"type": "function"
				},
				{
					"inputs": [],
					"name": "getAllBrokers",
					"outputs": [
						{
							"components": [
								{
									"internalType": "uint256",
									"name": "id",
									"type": "uint256"
								},
								{
									"internalType": "string",
									"name": "socialSecurityId",
									"type": "string"
								},
								{
									"internalType": "address",
									"name": "walletAddress",
									"type": "address"
								},
								{
									"internalType": "string",
									"name": "name",
									"type": "string"
								},
								{
									"internalType": "enum UserIdentity.Role",
									"name": "role",
									"type": "uint8"
								}
							],
							"internalType": "struct UserIdentity.User[]",
							"name": "",
							"type": "tuple[]"
						}
					],
					"stateMutability": "view",
					"type": "function"
				},
				{
					"inputs": [
						{
							"internalType": "address",
							"name": "_address",
							"type": "address"
						}
					],
					"name": "verifyIsBorrower",
					"outputs": [
						{
							"internalType": "bool",
							"name": "",
							"type": "bool"
						}
					],
					"stateMutability": "view",
					"type": "function"
				},
				{
					"inputs": [
						{
							"internalType": "address",
							"name": "_address",
							"type": "address"
						}
					],
					"name": "verifyIsBroker",
					"outputs": [
						{
							"internalType": "bool",
							"name": "",
							"type": "bool"
						}
					],
					"stateMutability": "view",
					"type": "function"
				}
			],
			"devdoc": {
				"kind": "dev",
				"methods": {},
				"version": 1
			},
			"evm": {
				"assembly": "    /* \"contracts/UserIdentity.sol\":69:2485  contract UserIdentity{... */\n  mstore(0x40, 0x80)\n    /* \"contracts/UserIdentity.sol\":408:409  0 */\n  0x00\n    /* \"contracts/UserIdentity.sol\":380:409  uint private brokersCount = 0 */\n  0x01\n  sstore\n    /* \"contracts/UserIdentity.sol\":445:446  0 */\n  0x00\n    /* \"contracts/UserIdentity.sol\":415:446  uint private borrowersCount = 0 */\n  0x02\n  sstore\n    /* \"contracts/UserIdentity.sol\":643:727  constructor()... */\n  callvalue\n  dup1\n  iszero\n  tag_1\n  jumpi\n  0x00\n  dup1\n  revert\ntag_1:\n  pop\n    /* \"contracts/UserIdentity.sol\":679:689  msg.sender */\n  caller\n    /* \"contracts/UserIdentity.sol\":671:676  admin */\n  0x00\n  dup1\n    /* \"contracts/UserIdentity.sol\":671:689  admin = msg.sender */\n  0x0100\n  exp\n  dup2\n  sload\n  dup2\n  0xffffffffffffffffffffffffffffffffffffffff\n  mul\n  not\n  and\n  swap1\n  dup4\n  0xffffffffffffffffffffffffffffffffffffffff\n  and\n  mul\n  or\n  swap1\n  sstore\n  pop\n    /* \"contracts/UserIdentity.sol\":69:2485  contract UserIdentity{... */\n  dataSize(sub_0)\n  dup1\n  dataOffset(sub_0)\n  0x00\n  codecopy\n  0x00\n  return\nstop\n\nsub_0: assembly {\n        /* \"contracts/UserIdentity.sol\":69:2485  contract UserIdentity{... */\n      mstore(0x40, 0x80)\n      callvalue\n      dup1\n      iszero\n      tag_1\n      jumpi\n      0x00\n      dup1\n      revert\n    tag_1:\n      pop\n      jumpi(tag_2, lt(calldatasize, 0x04))\n      shr(0xe0, calldataload(0x00))\n      dup1\n      0x053ff76c\n      eq\n      tag_3\n      jumpi\n      dup1\n      0x32abcdbe\n      eq\n      tag_4\n      jumpi\n      dup1\n      0x3314168c\n      eq\n      tag_5\n      jumpi\n      dup1\n      0xa3bee99a\n      eq\n      tag_6\n      jumpi\n      dup1\n      0xe701c350\n      eq\n      tag_7\n      jumpi\n      dup1\n      0xee6fc3b4\n      eq\n      tag_8\n      jumpi\n    tag_2:\n      0x00\n      dup1\n      revert\n        /* \"contracts/UserIdentity.sol\":1593:1949  function addBorrower(string memory _socialSecurityId, address _address, string memory _name) ... */\n    tag_3:\n      tag_9\n      0x04\n      dup1\n      calldatasize\n      sub\n      dup2\n      add\n      swap1\n      tag_10\n      swap2\n      swap1\n      tag_11\n      jump\t// in\n    tag_10:\n      tag_12\n      jump\t// in\n    tag_9:\n      stop\n        /* \"contracts/UserIdentity.sol\":2221:2483  function getAllBorrowers() public view returns (User[] memory){... */\n    tag_4:\n      tag_13\n      tag_14\n      jump\t// in\n    tag_13:\n      mload(0x40)\n      tag_15\n      swap2\n      swap1\n      tag_16\n      jump\t// in\n    tag_15:\n      mload(0x40)\n      dup1\n      swap2\n      sub\n      swap1\n      return\n        /* \"contracts/UserIdentity.sol\":840:1030  function verifyIsBroker(address _address) public view returns(bool)... */\n    tag_5:\n      tag_17\n      0x04\n      dup1\n      calldatasize\n      sub\n      dup2\n      add\n      swap1\n      tag_18\n      swap2\n      swap1\n      tag_19\n      jump\t// in\n    tag_18:\n      tag_20\n      jump\t// in\n    tag_17:\n      mload(0x40)\n      tag_21\n      swap2\n      swap1\n      tag_22\n      jump\t// in\n    tag_21:\n      mload(0x40)\n      dup1\n      swap2\n      sub\n      swap1\n      return\n        /* \"contracts/UserIdentity.sol\":1242:1583  function addBroker(string memory _socialSecurityId, address _address, string memory _name) ... */\n    tag_6:\n      tag_23\n      0x04\n      dup1\n      calldatasize\n      sub\n      dup2\n      add\n      swap1\n      tag_24\n      swap2\n      swap1\n      tag_11\n      jump\t// in\n    tag_24:\n      tag_25\n      jump\t// in\n    tag_23:\n      stop\n        /* \"contracts/UserIdentity.sol\":1040:1236  function verifyIsBorrower(address _address) public view returns(bool)... */\n    tag_7:\n      tag_26\n      0x04\n      dup1\n      calldatasize\n      sub\n      dup2\n      add\n      swap1\n      tag_27\n      swap2\n      swap1\n      tag_19\n      jump\t// in\n    tag_27:\n      tag_28\n      jump\t// in\n    tag_26:\n      mload(0x40)\n      tag_29\n      swap2\n      swap1\n      tag_22\n      jump\t// in\n    tag_29:\n      mload(0x40)\n      dup1\n      swap2\n      sub\n      swap1\n      return\n        /* \"contracts/UserIdentity.sol\":1959:2211  function getAllBrokers() public view returns (User[] memory){... */\n    tag_8:\n      tag_30\n      tag_31\n      jump\t// in\n    tag_30:\n      mload(0x40)\n      tag_32\n      swap2\n      swap1\n      tag_16\n      jump\t// in\n    tag_32:\n      mload(0x40)\n      dup1\n      swap2\n      sub\n      swap1\n      return\n        /* \"contracts/UserIdentity.sol\":1593:1949  function addBorrower(string memory _socialSecurityId, address _address, string memory _name) ... */\n    tag_12:\n        /* \"contracts/UserIdentity.sol\":787:797  msg.sender */\n      caller\n        /* \"contracts/UserIdentity.sol\":778:797  admin == msg.sender */\n      0xffffffffffffffffffffffffffffffffffffffff\n      and\n        /* \"contracts/UserIdentity.sol\":778:783  admin */\n      0x00\n      dup1\n      sload\n      swap1\n      0x0100\n      exp\n      swap1\n      div\n      0xffffffffffffffffffffffffffffffffffffffff\n      and\n        /* \"contracts/UserIdentity.sol\":778:797  admin == msg.sender */\n      0xffffffffffffffffffffffffffffffffffffffff\n      and\n      eq\n        /* \"contracts/UserIdentity.sol\":770:812  require(admin == msg.sender, 'Admin Only') */\n      tag_34\n      jumpi\n      mload(0x40)\n      0x08c379a000000000000000000000000000000000000000000000000000000000\n      dup2\n      mstore\n      0x04\n      add\n      tag_35\n      swap1\n      tag_36\n      jump\t// in\n    tag_35:\n      mload(0x40)\n      dup1\n      swap2\n      sub\n      swap1\n      revert\n    tag_34:\n        /* \"contracts/UserIdentity.sol\":1760:1761  1 */\n      0x01\n        /* \"contracts/UserIdentity.sol\":1743:1757  borrowersCount */\n      sload(0x02)\n        /* \"contracts/UserIdentity.sol\":1743:1761  borrowersCount + 1 */\n      tag_38\n      swap2\n      swap1\n      tag_39\n      jump\t// in\n    tag_38:\n        /* \"contracts/UserIdentity.sol\":1726:1740  borrowersCount */\n      0x02\n        /* \"contracts/UserIdentity.sol\":1726:1761  borrowersCount = borrowersCount + 1 */\n      dup2\n      swap1\n      sstore\n      pop\n        /* \"contracts/UserIdentity.sol\":1771:1787  User memory user */\n      0x00\n        /* \"contracts/UserIdentity.sol\":1790:1863  User(borrowersCount, _socialSecurityId, _address, _name,  Role.BORROWER ) */\n      mload(0x40)\n      dup1\n      0xa0\n      add\n      0x40\n      mstore\n      dup1\n        /* \"contracts/UserIdentity.sol\":1795:1809  borrowersCount */\n      sload(0x02)\n        /* \"contracts/UserIdentity.sol\":1790:1863  User(borrowersCount, _socialSecurityId, _address, _name,  Role.BORROWER ) */\n      dup2\n      mstore\n      0x20\n      add\n        /* \"contracts/UserIdentity.sol\":1811:1828  _socialSecurityId */\n      dup6\n        /* \"contracts/UserIdentity.sol\":1790:1863  User(borrowersCount, _socialSecurityId, _address, _name,  Role.BORROWER ) */\n      dup2\n      mstore\n      0x20\n      add\n        /* \"contracts/UserIdentity.sol\":1830:1838  _address */\n      dup5\n        /* \"contracts/UserIdentity.sol\":1790:1863  User(borrowersCount, _socialSecurityId, _address, _name,  Role.BORROWER ) */\n      0xffffffffffffffffffffffffffffffffffffffff\n      and\n      dup2\n      mstore\n      0x20\n      add\n        /* \"contracts/UserIdentity.sol\":1840:1845  _name */\n      dup4\n        /* \"contracts/UserIdentity.sol\":1790:1863  User(borrowersCount, _socialSecurityId, _address, _name,  Role.BORROWER ) */\n      dup2\n      mstore\n      0x20\n      add\n        /* \"contracts/UserIdentity.sol\":1848:1861  Role.BORROWER */\n      0x02\n        /* \"contracts/UserIdentity.sol\":1790:1863  User(borrowersCount, _socialSecurityId, _address, _name,  Role.BORROWER ) */\n      dup1\n      dup2\n      gt\n      iszero\n      tag_40\n      jumpi\n      tag_41\n      tag_42\n      jump\t// in\n    tag_41:\n    tag_40:\n      dup2\n      mstore\n      pop\n        /* \"contracts/UserIdentity.sol\":1771:1863  User memory user = User(borrowersCount, _socialSecurityId, _address, _name,  Role.BORROWER ) */\n      swap1\n      pop\n        /* \"contracts/UserIdentity.sol\":1895:1899  user */\n      dup1\n        /* \"contracts/UserIdentity.sol\":1873:1882  borrowers */\n      0x03\n        /* \"contracts/UserIdentity.sol\":1873:1892  borrowers[_address] */\n      0x00\n        /* \"contracts/UserIdentity.sol\":1883:1891  _address */\n      dup6\n        /* \"contracts/UserIdentity.sol\":1873:1892  borrowers[_address] */\n      0xffffffffffffffffffffffffffffffffffffffff\n      and\n      0xffffffffffffffffffffffffffffffffffffffff\n      and\n      dup2\n      mstore\n      0x20\n      add\n      swap1\n      dup2\n      mstore\n      0x20\n      add\n      0x00\n      keccak256\n        /* \"contracts/UserIdentity.sol\":1873:1899  borrowers[_address] = user */\n      0x00\n      dup3\n      add\n      mload\n      dup2\n      0x00\n      add\n      sstore\n      0x20\n      dup3\n      add\n      mload\n      dup2\n      0x01\n      add\n      swap1\n      dup1\n      mload\n      swap1\n      0x20\n      add\n      swap1\n      tag_43\n      swap3\n      swap2\n      swap1\n      tag_44\n      jump\t// in\n    tag_43:\n      pop\n      0x40\n      dup3\n      add\n      mload\n      dup2\n      0x02\n      add\n      exp(0x0100, 0x00)\n      dup2\n      sload\n      dup2\n      0xffffffffffffffffffffffffffffffffffffffff\n      mul\n      not\n      and\n      swap1\n      dup4\n      0xffffffffffffffffffffffffffffffffffffffff\n      and\n      mul\n      or\n      swap1\n      sstore\n      pop\n      0x60\n      dup3\n      add\n      mload\n      dup2\n      0x03\n      add\n      swap1\n      dup1\n      mload\n      swap1\n      0x20\n      add\n      swap1\n      tag_45\n      swap3\n      swap2\n      swap1\n      tag_44\n      jump\t// in\n    tag_45:\n      pop\n      0x80\n      dup3\n      add\n      mload\n      dup2\n      0x04\n      add\n      exp(0x0100, 0x00)\n      dup2\n      sload\n      dup2\n      0xff\n      mul\n      not\n      and\n      swap1\n      dup4\n      0x02\n      dup2\n      gt\n      iszero\n      tag_46\n      jumpi\n      tag_47\n      tag_42\n      jump\t// in\n    tag_47:\n    tag_46:\n      mul\n      or\n      swap1\n      sstore\n      pop\n      swap1\n      pop\n      pop\n        /* \"contracts/UserIdentity.sol\":1909:1927  borrowersAddresses */\n      0x06\n        /* \"contracts/UserIdentity.sol\":1933:1941  _address */\n      dup4\n        /* \"contracts/UserIdentity.sol\":1909:1942  borrowersAddresses.push(_address) */\n      swap1\n      dup1\n      0x01\n      dup2\n      sload\n      add\n      dup1\n      dup3\n      sstore\n      dup1\n      swap2\n      pop\n      pop\n      0x01\n      swap1\n      sub\n      swap1\n      0x00\n      mstore\n      keccak256(0x00, 0x20)\n      add\n      0x00\n      swap1\n      swap2\n      swap1\n      swap2\n      swap1\n      swap2\n      0x0100\n      exp\n      dup2\n      sload\n      dup2\n      0xffffffffffffffffffffffffffffffffffffffff\n      mul\n      not\n      and\n      swap1\n      dup4\n      0xffffffffffffffffffffffffffffffffffffffff\n      and\n      mul\n      or\n      swap1\n      sstore\n      pop\n        /* \"contracts/UserIdentity.sol\":1716:1949  {... */\n      pop\n        /* \"contracts/UserIdentity.sol\":1593:1949  function addBorrower(string memory _socialSecurityId, address _address, string memory _name) ... */\n      pop\n      pop\n      pop\n      jump\t// out\n        /* \"contracts/UserIdentity.sol\":2221:2483  function getAllBorrowers() public view returns (User[] memory){... */\n    tag_14:\n        /* \"contracts/UserIdentity.sol\":2269:2282  User[] memory */\n      0x60\n        /* \"contracts/UserIdentity.sol\":2293:2310  User[] memory ret */\n      0x00\n        /* \"contracts/UserIdentity.sol\":2324:2338  borrowersCount */\n      sload(0x02)\n        /* \"contracts/UserIdentity.sol\":2313:2339  new User[](borrowersCount) */\n      0xffffffffffffffff\n      dup2\n      gt\n      iszero\n      tag_50\n      jumpi\n      tag_51\n      tag_52\n      jump\t// in\n    tag_51:\n    tag_50:\n      mload(0x40)\n      swap1\n      dup1\n      dup3\n      mstore\n      dup1\n      0x20\n      mul\n      0x20\n      add\n      dup3\n      add\n      0x40\n      mstore\n      dup1\n      iszero\n      tag_53\n      jumpi\n      dup2\n      0x20\n      add\n    tag_54:\n      tag_55\n      tag_56\n      jump\t// in\n    tag_55:\n      dup2\n      mstore\n      0x20\n      add\n      swap1\n      0x01\n      swap1\n      sub\n      swap1\n      dup2\n      tag_54\n      jumpi\n      swap1\n      pop\n    tag_53:\n      pop\n        /* \"contracts/UserIdentity.sol\":2293:2339  User[] memory ret = new User[](borrowersCount) */\n      swap1\n      pop\n        /* \"contracts/UserIdentity.sol\":2354:2360  uint i */\n      0x00\n        /* \"contracts/UserIdentity.sol\":2349:2457  for (uint i = 0; i < borrowersCount; i++) {... */\n    tag_57:\n        /* \"contracts/UserIdentity.sol\":2370:2384  borrowersCount */\n      sload(0x02)\n        /* \"contracts/UserIdentity.sol\":2366:2367  i */\n      dup2\n        /* \"contracts/UserIdentity.sol\":2366:2384  i < borrowersCount */\n      lt\n        /* \"contracts/UserIdentity.sol\":2349:2457  for (uint i = 0; i < borrowersCount; i++) {... */\n      iszero\n      tag_58\n      jumpi\n        /* \"contracts/UserIdentity.sol\":2414:2423  borrowers */\n      0x03\n        /* \"contracts/UserIdentity.sol\":2414:2446  borrowers[borrowersAddresses[i]] */\n      0x00\n        /* \"contracts/UserIdentity.sol\":2424:2442  borrowersAddresses */\n      0x06\n        /* \"contracts/UserIdentity.sol\":2443:2444  i */\n      dup4\n        /* \"contracts/UserIdentity.sol\":2424:2445  borrowersAddresses[i] */\n      dup2\n      sload\n      dup2\n      lt\n      tag_60\n      jumpi\n      tag_61\n      tag_62\n      jump\t// in\n    tag_61:\n    tag_60:\n      swap1\n      0x00\n      mstore\n      keccak256(0x00, 0x20)\n      add\n      0x00\n      swap1\n      sload\n      swap1\n      0x0100\n      exp\n      swap1\n      div\n      0xffffffffffffffffffffffffffffffffffffffff\n      and\n        /* \"contracts/UserIdentity.sol\":2414:2446  borrowers[borrowersAddresses[i]] */\n      0xffffffffffffffffffffffffffffffffffffffff\n      and\n      0xffffffffffffffffffffffffffffffffffffffff\n      and\n      dup2\n      mstore\n      0x20\n      add\n      swap1\n      dup2\n      mstore\n      0x20\n      add\n      0x00\n      keccak256\n        /* \"contracts/UserIdentity.sol\":2405:2446  ret[i] = borrowers[borrowersAddresses[i]] */\n      mload(0x40)\n      dup1\n      0xa0\n      add\n      0x40\n      mstore\n      swap1\n      dup2\n      0x00\n      dup3\n      add\n      sload\n      dup2\n      mstore\n      0x20\n      add\n      0x01\n      dup3\n      add\n      dup1\n      sload\n      tag_64\n      swap1\n      tag_65\n      jump\t// in\n    tag_64:\n      dup1\n      0x1f\n      add\n      0x20\n      dup1\n      swap2\n      div\n      mul\n      0x20\n      add\n      mload(0x40)\n      swap1\n      dup2\n      add\n      0x40\n      mstore\n      dup1\n      swap3\n      swap2\n      swap1\n      dup2\n      dup2\n      mstore\n      0x20\n      add\n      dup3\n      dup1\n      sload\n      tag_66\n      swap1\n      tag_65\n      jump\t// in\n    tag_66:\n      dup1\n      iszero\n      tag_67\n      jumpi\n      dup1\n      0x1f\n      lt\n      tag_68\n      jumpi\n      0x0100\n      dup1\n      dup4\n      sload\n      div\n      mul\n      dup4\n      mstore\n      swap2\n      0x20\n      add\n      swap2\n      jump(tag_67)\n    tag_68:\n      dup3\n      add\n      swap2\n      swap1\n      0x00\n      mstore\n      keccak256(0x00, 0x20)\n      swap1\n    tag_69:\n      dup2\n      sload\n      dup2\n      mstore\n      swap1\n      0x01\n      add\n      swap1\n      0x20\n      add\n      dup1\n      dup4\n      gt\n      tag_69\n      jumpi\n      dup3\n      swap1\n      sub\n      0x1f\n      and\n      dup3\n      add\n      swap2\n    tag_67:\n      pop\n      pop\n      pop\n      pop\n      pop\n      dup2\n      mstore\n      0x20\n      add\n      0x02\n      dup3\n      add\n      0x00\n      swap1\n      sload\n      swap1\n      0x0100\n      exp\n      swap1\n      div\n      0xffffffffffffffffffffffffffffffffffffffff\n      and\n      0xffffffffffffffffffffffffffffffffffffffff\n      and\n      0xffffffffffffffffffffffffffffffffffffffff\n      and\n      dup2\n      mstore\n      0x20\n      add\n      0x03\n      dup3\n      add\n      dup1\n      sload\n      tag_70\n      swap1\n      tag_65\n      jump\t// in\n    tag_70:\n      dup1\n      0x1f\n      add\n      0x20\n      dup1\n      swap2\n      div\n      mul\n      0x20\n      add\n      mload(0x40)\n      swap1\n      dup2\n      add\n      0x40\n      mstore\n      dup1\n      swap3\n      swap2\n      swap1\n      dup2\n      dup2\n      mstore\n      0x20\n      add\n      dup3\n      dup1\n      sload\n      tag_71\n      swap1\n      tag_65\n      jump\t// in\n    tag_71:\n      dup1\n      iszero\n      tag_72\n      jumpi\n      dup1\n      0x1f\n      lt\n      tag_73\n      jumpi\n      0x0100\n      dup1\n      dup4\n      sload\n      div\n      mul\n      dup4\n      mstore\n      swap2\n      0x20\n      add\n      swap2\n      jump(tag_72)\n    tag_73:\n      dup3\n      add\n      swap2\n      swap1\n      0x00\n      mstore\n      keccak256(0x00, 0x20)\n      swap1\n    tag_74:\n      dup2\n      sload\n      dup2\n      mstore\n      swap1\n      0x01\n      add\n      swap1\n      0x20\n      add\n      dup1\n      dup4\n      gt\n      tag_74\n      jumpi\n      dup3\n      swap1\n      sub\n      0x1f\n      and\n      dup3\n      add\n      swap2\n    tag_72:\n      pop\n      pop\n      pop\n      pop\n      pop\n      dup2\n      mstore\n      0x20\n      add\n      0x04\n      dup3\n      add\n      0x00\n      swap1\n      sload\n      swap1\n      0x0100\n      exp\n      swap1\n      div\n      0xff\n      and\n      0x02\n      dup2\n      gt\n      iszero\n      tag_75\n      jumpi\n      tag_76\n      tag_42\n      jump\t// in\n    tag_76:\n    tag_75:\n      0x02\n      dup2\n      gt\n      iszero\n      tag_77\n      jumpi\n      tag_78\n      tag_42\n      jump\t// in\n    tag_78:\n    tag_77:\n      dup2\n      mstore\n      pop\n      pop\n        /* \"contracts/UserIdentity.sol\":2405:2408  ret */\n      dup3\n        /* \"contracts/UserIdentity.sol\":2409:2410  i */\n      dup3\n        /* \"contracts/UserIdentity.sol\":2405:2411  ret[i] */\n      dup2\n      mload\n      dup2\n      lt\n      tag_79\n      jumpi\n      tag_80\n      tag_62\n      jump\t// in\n    tag_80:\n    tag_79:\n      0x20\n      mul\n      0x20\n      add\n      add\n        /* \"contracts/UserIdentity.sol\":2405:2446  ret[i] = borrowers[borrowersAddresses[i]] */\n      dup2\n      swap1\n      mstore\n      pop\n        /* \"contracts/UserIdentity.sol\":2386:2389  i++ */\n      dup1\n      dup1\n      tag_81\n      swap1\n      tag_82\n      jump\t// in\n    tag_81:\n      swap2\n      pop\n      pop\n        /* \"contracts/UserIdentity.sol\":2349:2457  for (uint i = 0; i < borrowersCount; i++) {... */\n      jump(tag_57)\n    tag_58:\n      pop\n        /* \"contracts/UserIdentity.sol\":2473:2476  ret */\n      dup1\n        /* \"contracts/UserIdentity.sol\":2466:2476  return ret */\n      swap2\n      pop\n      pop\n        /* \"contracts/UserIdentity.sol\":2221:2483  function getAllBorrowers() public view returns (User[] memory){... */\n      swap1\n      jump\t// out\n        /* \"contracts/UserIdentity.sol\":840:1030  function verifyIsBroker(address _address) public view returns(bool)... */\n    tag_20:\n        /* \"contracts/UserIdentity.sol\":902:906  bool */\n      0x00\n        /* \"contracts/UserIdentity.sol\":922:934  bool isValid */\n      dup1\n        /* \"contracts/UserIdentity.sol\":937:942  false */\n      0x00\n        /* \"contracts/UserIdentity.sol\":922:942  bool isValid = false */\n      swap1\n      pop\n        /* \"contracts/UserIdentity.sol\":988:999  Role.BROKER */\n      0x01\n        /* \"contracts/UserIdentity.sol\":962:999  brokers[_address].role == Role.BROKER */\n      0x02\n      dup2\n      gt\n      iszero\n      tag_84\n      jumpi\n      tag_85\n      tag_42\n      jump\t// in\n    tag_85:\n    tag_84:\n        /* \"contracts/UserIdentity.sol\":962:969  brokers */\n      0x04\n        /* \"contracts/UserIdentity.sol\":962:979  brokers[_address] */\n      0x00\n        /* \"contracts/UserIdentity.sol\":970:978  _address */\n      dup6\n        /* \"contracts/UserIdentity.sol\":962:979  brokers[_address] */\n      0xffffffffffffffffffffffffffffffffffffffff\n      and\n      0xffffffffffffffffffffffffffffffffffffffff\n      and\n      dup2\n      mstore\n      0x20\n      add\n      swap1\n      dup2\n      mstore\n      0x20\n      add\n      0x00\n      keccak256\n        /* \"contracts/UserIdentity.sol\":962:984  brokers[_address].role */\n      0x04\n      add\n      0x00\n      swap1\n      sload\n      swap1\n      0x0100\n      exp\n      swap1\n      div\n      0xff\n      and\n        /* \"contracts/UserIdentity.sol\":962:999  brokers[_address].role == Role.BROKER */\n      0x02\n      dup2\n      gt\n      iszero\n      tag_86\n      jumpi\n      tag_87\n      tag_42\n      jump\t// in\n    tag_87:\n    tag_86:\n      eq\n        /* \"contracts/UserIdentity.sol\":952:999  isValid = brokers[_address].role == Role.BROKER */\n      swap1\n      pop\n        /* \"contracts/UserIdentity.sol\":1016:1023  isValid */\n      dup1\n        /* \"contracts/UserIdentity.sol\":1009:1023  return isValid */\n      swap2\n      pop\n      pop\n        /* \"contracts/UserIdentity.sol\":840:1030  function verifyIsBroker(address _address) public view returns(bool)... */\n      swap2\n      swap1\n      pop\n      jump\t// out\n        /* \"contracts/UserIdentity.sol\":1242:1583  function addBroker(string memory _socialSecurityId, address _address, string memory _name) ... */\n    tag_25:\n        /* \"contracts/UserIdentity.sol\":787:797  msg.sender */\n      caller\n        /* \"contracts/UserIdentity.sol\":778:797  admin == msg.sender */\n      0xffffffffffffffffffffffffffffffffffffffff\n      and\n        /* \"contracts/UserIdentity.sol\":778:783  admin */\n      0x00\n      dup1\n      sload\n      swap1\n      0x0100\n      exp\n      swap1\n      div\n      0xffffffffffffffffffffffffffffffffffffffff\n      and\n        /* \"contracts/UserIdentity.sol\":778:797  admin == msg.sender */\n      0xffffffffffffffffffffffffffffffffffffffff\n      and\n      eq\n        /* \"contracts/UserIdentity.sol\":770:812  require(admin == msg.sender, 'Admin Only') */\n      tag_89\n      jumpi\n      mload(0x40)\n      0x08c379a000000000000000000000000000000000000000000000000000000000\n      dup2\n      mstore\n      0x04\n      add\n      tag_90\n      swap1\n      tag_36\n      jump\t// in\n    tag_90:\n      mload(0x40)\n      dup1\n      swap2\n      sub\n      swap1\n      revert\n    tag_89:\n        /* \"contracts/UserIdentity.sol\":1403:1404  1 */\n      0x01\n        /* \"contracts/UserIdentity.sol\":1388:1400  brokersCount */\n      dup1\n      sload\n        /* \"contracts/UserIdentity.sol\":1388:1404  brokersCount + 1 */\n      tag_92\n      swap2\n      swap1\n      tag_39\n      jump\t// in\n    tag_92:\n        /* \"contracts/UserIdentity.sol\":1373:1385  brokersCount */\n      0x01\n        /* \"contracts/UserIdentity.sol\":1373:1404  brokersCount = brokersCount + 1 */\n      dup2\n      swap1\n      sstore\n      pop\n        /* \"contracts/UserIdentity.sol\":1414:1430  User memory user */\n      0x00\n        /* \"contracts/UserIdentity.sol\":1433:1501  User(brokersCount, _socialSecurityId, _address, _name, Role.BROKER ) */\n      mload(0x40)\n      dup1\n      0xa0\n      add\n      0x40\n      mstore\n      dup1\n        /* \"contracts/UserIdentity.sol\":1438:1450  brokersCount */\n      sload(0x01)\n        /* \"contracts/UserIdentity.sol\":1433:1501  User(brokersCount, _socialSecurityId, _address, _name, Role.BROKER ) */\n      dup2\n      mstore\n      0x20\n      add\n        /* \"contracts/UserIdentity.sol\":1452:1469  _socialSecurityId */\n      dup6\n        /* \"contracts/UserIdentity.sol\":1433:1501  User(brokersCount, _socialSecurityId, _address, _name, Role.BROKER ) */\n      dup2\n      mstore\n      0x20\n      add\n        /* \"contracts/UserIdentity.sol\":1471:1479  _address */\n      dup5\n        /* \"contracts/UserIdentity.sol\":1433:1501  User(brokersCount, _socialSecurityId, _address, _name, Role.BROKER ) */\n      0xffffffffffffffffffffffffffffffffffffffff\n      and\n      dup2\n      mstore\n      0x20\n      add\n        /* \"contracts/UserIdentity.sol\":1481:1486  _name */\n      dup4\n        /* \"contracts/UserIdentity.sol\":1433:1501  User(brokersCount, _socialSecurityId, _address, _name, Role.BROKER ) */\n      dup2\n      mstore\n      0x20\n      add\n        /* \"contracts/UserIdentity.sol\":1488:1499  Role.BROKER */\n      0x01\n        /* \"contracts/UserIdentity.sol\":1433:1501  User(brokersCount, _socialSecurityId, _address, _name, Role.BROKER ) */\n      0x02\n      dup2\n      gt\n      iszero\n      tag_93\n      jumpi\n      tag_94\n      tag_42\n      jump\t// in\n    tag_94:\n    tag_93:\n      dup2\n      mstore\n      pop\n        /* \"contracts/UserIdentity.sol\":1414:1501  User memory user = User(brokersCount, _socialSecurityId, _address, _name, Role.BROKER ) */\n      swap1\n      pop\n        /* \"contracts/UserIdentity.sol\":1531:1535  user */\n      dup1\n        /* \"contracts/UserIdentity.sol\":1511:1518  brokers */\n      0x04\n        /* \"contracts/UserIdentity.sol\":1511:1528  brokers[_address] */\n      0x00\n        /* \"contracts/UserIdentity.sol\":1519:1527  _address */\n      dup6\n        /* \"contracts/UserIdentity.sol\":1511:1528  brokers[_address] */\n      0xffffffffffffffffffffffffffffffffffffffff\n      and\n      0xffffffffffffffffffffffffffffffffffffffff\n      and\n      dup2\n      mstore\n      0x20\n      add\n      swap1\n      dup2\n      mstore\n      0x20\n      add\n      0x00\n      keccak256\n        /* \"contracts/UserIdentity.sol\":1511:1535  brokers[_address] = user */\n      0x00\n      dup3\n      add\n      mload\n      dup2\n      0x00\n      add\n      sstore\n      0x20\n      dup3\n      add\n      mload\n      dup2\n      0x01\n      add\n      swap1\n      dup1\n      mload\n      swap1\n      0x20\n      add\n      swap1\n      tag_95\n      swap3\n      swap2\n      swap1\n      tag_44\n      jump\t// in\n    tag_95:\n      pop\n      0x40\n      dup3\n      add\n      mload\n      dup2\n      0x02\n      add\n      exp(0x0100, 0x00)\n      dup2\n      sload\n      dup2\n      0xffffffffffffffffffffffffffffffffffffffff\n      mul\n      not\n      and\n      swap1\n      dup4\n      0xffffffffffffffffffffffffffffffffffffffff\n      and\n      mul\n      or\n      swap1\n      sstore\n      pop\n      0x60\n      dup3\n      add\n      mload\n      dup2\n      0x03\n      add\n      swap1\n      dup1\n      mload\n      swap1\n      0x20\n      add\n      swap1\n      tag_96\n      swap3\n      swap2\n      swap1\n      tag_44\n      jump\t// in\n    tag_96:\n      pop\n      0x80\n      dup3\n      add\n      mload\n      dup2\n      0x04\n      add\n      exp(0x0100, 0x00)\n      dup2\n      sload\n      dup2\n      0xff\n      mul\n      not\n      and\n      swap1\n      dup4\n      0x02\n      dup2\n      gt\n      iszero\n      tag_97\n      jumpi\n      tag_98\n      tag_42\n      jump\t// in\n    tag_98:\n    tag_97:\n      mul\n      or\n      swap1\n      sstore\n      pop\n      swap1\n      pop\n      pop\n        /* \"contracts/UserIdentity.sol\":1545:1561  brokersAddresses */\n      0x05\n        /* \"contracts/UserIdentity.sol\":1567:1575  _address */\n      dup4\n        /* \"contracts/UserIdentity.sol\":1545:1576  brokersAddresses.push(_address) */\n      swap1\n      dup1\n      0x01\n      dup2\n      sload\n      add\n      dup1\n      dup3\n      sstore\n      dup1\n      swap2\n      pop\n      pop\n      0x01\n      swap1\n      sub\n      swap1\n      0x00\n      mstore\n      keccak256(0x00, 0x20)\n      add\n      0x00\n      swap1\n      swap2\n      swap1\n      swap2\n      swap1\n      swap2\n      0x0100\n      exp\n      dup2\n      sload\n      dup2\n      0xffffffffffffffffffffffffffffffffffffffff\n      mul\n      not\n      and\n      swap1\n      dup4\n      0xffffffffffffffffffffffffffffffffffffffff\n      and\n      mul\n      or\n      swap1\n      sstore\n      pop\n        /* \"contracts/UserIdentity.sol\":1363:1583  {... */\n      pop\n        /* \"contracts/UserIdentity.sol\":1242:1583  function addBroker(string memory _socialSecurityId, address _address, string memory _name) ... */\n      pop\n      pop\n      pop\n      jump\t// out\n        /* \"contracts/UserIdentity.sol\":1040:1236  function verifyIsBorrower(address _address) public view returns(bool)... */\n    tag_28:\n        /* \"contracts/UserIdentity.sol\":1104:1108  bool */\n      0x00\n        /* \"contracts/UserIdentity.sol\":1124:1136  bool isValid */\n      dup1\n        /* \"contracts/UserIdentity.sol\":1139:1144  false */\n      0x00\n        /* \"contracts/UserIdentity.sol\":1124:1144  bool isValid = false */\n      swap1\n      pop\n        /* \"contracts/UserIdentity.sol\":1192:1205  Role.BORROWER */\n      0x02\n        /* \"contracts/UserIdentity.sol\":1164:1205  borrowers[_address].role == Role.BORROWER */\n      dup1\n      dup2\n      gt\n      iszero\n      tag_101\n      jumpi\n      tag_102\n      tag_42\n      jump\t// in\n    tag_102:\n    tag_101:\n        /* \"contracts/UserIdentity.sol\":1164:1173  borrowers */\n      0x03\n        /* \"contracts/UserIdentity.sol\":1164:1183  borrowers[_address] */\n      0x00\n        /* \"contracts/UserIdentity.sol\":1174:1182  _address */\n      dup6\n        /* \"contracts/UserIdentity.sol\":1164:1183  borrowers[_address] */\n      0xffffffffffffffffffffffffffffffffffffffff\n      and\n      0xffffffffffffffffffffffffffffffffffffffff\n      and\n      dup2\n      mstore\n      0x20\n      add\n      swap1\n      dup2\n      mstore\n      0x20\n      add\n      0x00\n      keccak256\n        /* \"contracts/UserIdentity.sol\":1164:1188  borrowers[_address].role */\n      0x04\n      add\n      0x00\n      swap1\n      sload\n      swap1\n      0x0100\n      exp\n      swap1\n      div\n      0xff\n      and\n        /* \"contracts/UserIdentity.sol\":1164:1205  borrowers[_address].role == Role.BORROWER */\n      0x02\n      dup2\n      gt\n      iszero\n      tag_103\n      jumpi\n      tag_104\n      tag_42\n      jump\t// in\n    tag_104:\n    tag_103:\n      eq\n        /* \"contracts/UserIdentity.sol\":1154:1205  isValid = borrowers[_address].role == Role.BORROWER */\n      swap1\n      pop\n        /* \"contracts/UserIdentity.sol\":1222:1229  isValid */\n      dup1\n        /* \"contracts/UserIdentity.sol\":1215:1229  return isValid */\n      swap2\n      pop\n      pop\n        /* \"contracts/UserIdentity.sol\":1040:1236  function verifyIsBorrower(address _address) public view returns(bool)... */\n      swap2\n      swap1\n      pop\n      jump\t// out\n        /* \"contracts/UserIdentity.sol\":1959:2211  function getAllBrokers() public view returns (User[] memory){... */\n    tag_31:\n        /* \"contracts/UserIdentity.sol\":2005:2018  User[] memory */\n      0x60\n        /* \"contracts/UserIdentity.sol\":2029:2046  User[] memory ret */\n      0x00\n        /* \"contracts/UserIdentity.sol\":2060:2072  brokersCount */\n      sload(0x01)\n        /* \"contracts/UserIdentity.sol\":2049:2073  new User[](brokersCount) */\n      0xffffffffffffffff\n      dup2\n      gt\n      iszero\n      tag_106\n      jumpi\n      tag_107\n      tag_52\n      jump\t// in\n    tag_107:\n    tag_106:\n      mload(0x40)\n      swap1\n      dup1\n      dup3\n      mstore\n      dup1\n      0x20\n      mul\n      0x20\n      add\n      dup3\n      add\n      0x40\n      mstore\n      dup1\n      iszero\n      tag_108\n      jumpi\n      dup2\n      0x20\n      add\n    tag_109:\n      tag_110\n      tag_56\n      jump\t// in\n    tag_110:\n      dup2\n      mstore\n      0x20\n      add\n      swap1\n      0x01\n      swap1\n      sub\n      swap1\n      dup2\n      tag_109\n      jumpi\n      swap1\n      pop\n    tag_108:\n      pop\n        /* \"contracts/UserIdentity.sol\":2029:2073  User[] memory ret = new User[](brokersCount) */\n      swap1\n      pop\n        /* \"contracts/UserIdentity.sol\":2088:2094  uint i */\n      0x00\n        /* \"contracts/UserIdentity.sol\":2083:2185  for (uint i = 0; i < brokersCount; i++) {... */\n    tag_111:\n        /* \"contracts/UserIdentity.sol\":2104:2116  brokersCount */\n      sload(0x01)\n        /* \"contracts/UserIdentity.sol\":2100:2101  i */\n      dup2\n        /* \"contracts/UserIdentity.sol\":2100:2116  i < brokersCount */\n      lt\n        /* \"contracts/UserIdentity.sol\":2083:2185  for (uint i = 0; i < brokersCount; i++) {... */\n      iszero\n      tag_112\n      jumpi\n        /* \"contracts/UserIdentity.sol\":2146:2153  brokers */\n      0x04\n        /* \"contracts/UserIdentity.sol\":2146:2174  brokers[brokersAddresses[i]] */\n      0x00\n        /* \"contracts/UserIdentity.sol\":2154:2170  brokersAddresses */\n      0x05\n        /* \"contracts/UserIdentity.sol\":2171:2172  i */\n      dup4\n        /* \"contracts/UserIdentity.sol\":2154:2173  brokersAddresses[i] */\n      dup2\n      sload\n      dup2\n      lt\n      tag_114\n      jumpi\n      tag_115\n      tag_62\n      jump\t// in\n    tag_115:\n    tag_114:\n      swap1\n      0x00\n      mstore\n      keccak256(0x00, 0x20)\n      add\n      0x00\n      swap1\n      sload\n      swap1\n      0x0100\n      exp\n      swap1\n      div\n      0xffffffffffffffffffffffffffffffffffffffff\n      and\n        /* \"contracts/UserIdentity.sol\":2146:2174  brokers[brokersAddresses[i]] */\n      0xffffffffffffffffffffffffffffffffffffffff\n      and\n      0xffffffffffffffffffffffffffffffffffffffff\n      and\n      dup2\n      mstore\n      0x20\n      add\n      swap1\n      dup2\n      mstore\n      0x20\n      add\n      0x00\n      keccak256\n        /* \"contracts/UserIdentity.sol\":2137:2174  ret[i] = brokers[brokersAddresses[i]] */\n      mload(0x40)\n      dup1\n      0xa0\n      add\n      0x40\n      mstore\n      swap1\n      dup2\n      0x00\n      dup3\n      add\n      sload\n      dup2\n      mstore\n      0x20\n      add\n      0x01\n      dup3\n      add\n      dup1\n      sload\n      tag_117\n      swap1\n      tag_65\n      jump\t// in\n    tag_117:\n      dup1\n      0x1f\n      add\n      0x20\n      dup1\n      swap2\n      div\n      mul\n      0x20\n      add\n      mload(0x40)\n      swap1\n      dup2\n      add\n      0x40\n      mstore\n      dup1\n      swap3\n      swap2\n      swap1\n      dup2\n      dup2\n      mstore\n      0x20\n      add\n      dup3\n      dup1\n      sload\n      tag_118\n      swap1\n      tag_65\n      jump\t// in\n    tag_118:\n      dup1\n      iszero\n      tag_119\n      jumpi\n      dup1\n      0x1f\n      lt\n      tag_120\n      jumpi\n      0x0100\n      dup1\n      dup4\n      sload\n      div\n      mul\n      dup4\n      mstore\n      swap2\n      0x20\n      add\n      swap2\n      jump(tag_119)\n    tag_120:\n      dup3\n      add\n      swap2\n      swap1\n      0x00\n      mstore\n      keccak256(0x00, 0x20)\n      swap1\n    tag_121:\n      dup2\n      sload\n      dup2\n      mstore\n      swap1\n      0x01\n      add\n      swap1\n      0x20\n      add\n      dup1\n      dup4\n      gt\n      tag_121\n      jumpi\n      dup3\n      swap1\n      sub\n      0x1f\n      and\n      dup3\n      add\n      swap2\n    tag_119:\n      pop\n      pop\n      pop\n      pop\n      pop\n      dup2\n      mstore\n      0x20\n      add\n      0x02\n      dup3\n      add\n      0x00\n      swap1\n      sload\n      swap1\n      0x0100\n      exp\n      swap1\n      div\n      0xffffffffffffffffffffffffffffffffffffffff\n      and\n      0xffffffffffffffffffffffffffffffffffffffff\n      and\n      0xffffffffffffffffffffffffffffffffffffffff\n      and\n      dup2\n      mstore\n      0x20\n      add\n      0x03\n      dup3\n      add\n      dup1\n      sload\n      tag_122\n      swap1\n      tag_65\n      jump\t// in\n    tag_122:\n      dup1\n      0x1f\n      add\n      0x20\n      dup1\n      swap2\n      div\n      mul\n      0x20\n      add\n      mload(0x40)\n      swap1\n      dup2\n      add\n      0x40\n      mstore\n      dup1\n      swap3\n      swap2\n      swap1\n      dup2\n      dup2\n      mstore\n      0x20\n      add\n      dup3\n      dup1\n      sload\n      tag_123\n      swap1\n      tag_65\n      jump\t// in\n    tag_123:\n      dup1\n      iszero\n      tag_124\n      jumpi\n      dup1\n      0x1f\n      lt\n      tag_125\n      jumpi\n      0x0100\n      dup1\n      dup4\n      sload\n      div\n      mul\n      dup4\n      mstore\n      swap2\n      0x20\n      add\n      swap2\n      jump(tag_124)\n    tag_125:\n      dup3\n      add\n      swap2\n      swap1\n      0x00\n      mstore\n      keccak256(0x00, 0x20)\n      swap1\n    tag_126:\n      dup2\n      sload\n      dup2\n      mstore\n      swap1\n      0x01\n      add\n      swap1\n      0x20\n      add\n      dup1\n      dup4\n      gt\n      tag_126\n      jumpi\n      dup3\n      swap1\n      sub\n      0x1f\n      and\n      dup3\n      add\n      swap2\n    tag_124:\n      pop\n      pop\n      pop\n      pop\n      pop\n      dup2\n      mstore\n      0x20\n      add\n      0x04\n      dup3\n      add\n      0x00\n      swap1\n      sload\n      swap1\n      0x0100\n      exp\n      swap1\n      div\n      0xff\n      and\n      0x02\n      dup2\n      gt\n      iszero\n      tag_127\n      jumpi\n      tag_128\n      tag_42\n      jump\t// in\n    tag_128:\n    tag_127:\n      0x02\n      dup2\n      gt\n      iszero\n      tag_129\n      jumpi\n      tag_130\n      tag_42\n      jump\t// in\n    tag_130:\n    tag_129:\n      dup2\n      mstore\n      pop\n      pop\n        /* \"contracts/UserIdentity.sol\":2137:2140  ret */\n      dup3\n        /* \"contracts/UserIdentity.sol\":2141:2142  i */\n      dup3\n        /* \"contracts/UserIdentity.sol\":2137:2143  ret[i] */\n      dup2\n      mload\n      dup2\n      lt\n      tag_131\n      jumpi\n      tag_132\n      tag_62\n      jump\t// in\n    tag_132:\n    tag_131:\n      0x20\n      mul\n      0x20\n      add\n      add\n        /* \"contracts/UserIdentity.sol\":2137:2174  ret[i] = brokers[brokersAddresses[i]] */\n      dup2\n      swap1\n      mstore\n      pop\n        /* \"contracts/UserIdentity.sol\":2118:2121  i++ */\n      dup1\n      dup1\n      tag_133\n      swap1\n      tag_82\n      jump\t// in\n    tag_133:\n      swap2\n      pop\n      pop\n        /* \"contracts/UserIdentity.sol\":2083:2185  for (uint i = 0; i < brokersCount; i++) {... */\n      jump(tag_111)\n    tag_112:\n      pop\n        /* \"contracts/UserIdentity.sol\":2201:2204  ret */\n      dup1\n        /* \"contracts/UserIdentity.sol\":2194:2204  return ret */\n      swap2\n      pop\n      pop\n        /* \"contracts/UserIdentity.sol\":1959:2211  function getAllBrokers() public view returns (User[] memory){... */\n      swap1\n      jump\t// out\n    tag_44:\n      dup3\n      dup1\n      sload\n      tag_134\n      swap1\n      tag_65\n      jump\t// in\n    tag_134:\n      swap1\n      0x00\n      mstore\n      keccak256(0x00, 0x20)\n      swap1\n      0x1f\n      add\n      0x20\n      swap1\n      div\n      dup2\n      add\n      swap3\n      dup3\n      tag_136\n      jumpi\n      0x00\n      dup6\n      sstore\n      jump(tag_135)\n    tag_136:\n      dup3\n      0x1f\n      lt\n      tag_137\n      jumpi\n      dup1\n      mload\n      not(0xff)\n      and\n      dup4\n      dup1\n      add\n      or\n      dup6\n      sstore\n      jump(tag_135)\n    tag_137:\n      dup3\n      dup1\n      add\n      0x01\n      add\n      dup6\n      sstore\n      dup3\n      iszero\n      tag_135\n      jumpi\n      swap2\n      dup3\n      add\n    tag_138:\n      dup3\n      dup2\n      gt\n      iszero\n      tag_139\n      jumpi\n      dup3\n      mload\n      dup3\n      sstore\n      swap2\n      0x20\n      add\n      swap2\n      swap1\n      0x01\n      add\n      swap1\n      jump(tag_138)\n    tag_139:\n    tag_135:\n      pop\n      swap1\n      pop\n      tag_140\n      swap2\n      swap1\n      tag_141\n      jump\t// in\n    tag_140:\n      pop\n      swap1\n      jump\t// out\n    tag_56:\n      mload(0x40)\n      dup1\n      0xa0\n      add\n      0x40\n      mstore\n      dup1\n      0x00\n      dup2\n      mstore\n      0x20\n      add\n      0x60\n      dup2\n      mstore\n      0x20\n      add\n      and(0xffffffffffffffffffffffffffffffffffffffff, 0x00)\n      dup2\n      mstore\n      0x20\n      add\n      0x60\n      dup2\n      mstore\n      0x20\n      add\n      0x00\n      0x02\n      dup2\n      gt\n      iszero\n      tag_142\n      jumpi\n      tag_143\n      tag_42\n      jump\t// in\n    tag_143:\n    tag_142:\n      dup2\n      mstore\n      pop\n      swap1\n      jump\t// out\n    tag_141:\n    tag_144:\n      dup1\n      dup3\n      gt\n      iszero\n      tag_145\n      jumpi\n      0x00\n      dup2\n      0x00\n      swap1\n      sstore\n      pop\n      0x01\n      add\n      jump(tag_144)\n    tag_145:\n      pop\n      swap1\n      jump\t// out\n        /* \"#utility.yul\":7:419   */\n    tag_147:\n        /* \"#utility.yul\":85:90   */\n      0x00\n        /* \"#utility.yul\":110:176   */\n      tag_149\n        /* \"#utility.yul\":126:175   */\n      tag_150\n        /* \"#utility.yul\":168:174   */\n      dup5\n        /* \"#utility.yul\":126:175   */\n      tag_151\n      jump\t// in\n    tag_150:\n        /* \"#utility.yul\":110:176   */\n      tag_152\n      jump\t// in\n    tag_149:\n        /* \"#utility.yul\":101:176   */\n      swap1\n      pop\n        /* \"#utility.yul\":199:205   */\n      dup3\n        /* \"#utility.yul\":192:197   */\n      dup2\n        /* \"#utility.yul\":185:206   */\n      mstore\n        /* \"#utility.yul\":237:241   */\n      0x20\n        /* \"#utility.yul\":230:235   */\n      dup2\n        /* \"#utility.yul\":226:242   */\n      add\n        /* \"#utility.yul\":275:278   */\n      dup5\n        /* \"#utility.yul\":266:272   */\n      dup5\n        /* \"#utility.yul\":261:264   */\n      dup5\n        /* \"#utility.yul\":257:273   */\n      add\n        /* \"#utility.yul\":254:279   */\n      gt\n        /* \"#utility.yul\":251:363   */\n      iszero\n      tag_153\n      jumpi\n        /* \"#utility.yul\":282:361   */\n      tag_154\n      tag_155\n      jump\t// in\n    tag_154:\n        /* \"#utility.yul\":251:363   */\n    tag_153:\n        /* \"#utility.yul\":372:413   */\n      tag_156\n        /* \"#utility.yul\":406:412   */\n      dup5\n        /* \"#utility.yul\":401:404   */\n      dup3\n        /* \"#utility.yul\":396:399   */\n      dup6\n        /* \"#utility.yul\":372:413   */\n      tag_157\n      jump\t// in\n    tag_156:\n        /* \"#utility.yul\":91:419   */\n      pop\n        /* \"#utility.yul\":7:419   */\n      swap4\n      swap3\n      pop\n      pop\n      pop\n      jump\t// out\n        /* \"#utility.yul\":425:564   */\n    tag_158:\n        /* \"#utility.yul\":471:476   */\n      0x00\n        /* \"#utility.yul\":509:515   */\n      dup2\n        /* \"#utility.yul\":496:516   */\n      calldataload\n        /* \"#utility.yul\":487:516   */\n      swap1\n      pop\n        /* \"#utility.yul\":525:558   */\n      tag_160\n        /* \"#utility.yul\":552:557   */\n      dup2\n        /* \"#utility.yul\":525:558   */\n      tag_161\n      jump\t// in\n    tag_160:\n        /* \"#utility.yul\":425:564   */\n      swap3\n      swap2\n      pop\n      pop\n      jump\t// out\n        /* \"#utility.yul\":584:924   */\n    tag_162:\n        /* \"#utility.yul\":640:645   */\n      0x00\n        /* \"#utility.yul\":689:692   */\n      dup3\n        /* \"#utility.yul\":682:686   */\n      0x1f\n        /* \"#utility.yul\":674:680   */\n      dup4\n        /* \"#utility.yul\":670:687   */\n      add\n        /* \"#utility.yul\":666:693   */\n      slt\n        /* \"#utility.yul\":656:778   */\n      tag_164\n      jumpi\n        /* \"#utility.yul\":697:776   */\n      tag_165\n      tag_166\n      jump\t// in\n    tag_165:\n        /* \"#utility.yul\":656:778   */\n    tag_164:\n        /* \"#utility.yul\":814:820   */\n      dup2\n        /* \"#utility.yul\":801:821   */\n      calldataload\n        /* \"#utility.yul\":839:918   */\n      tag_167\n        /* \"#utility.yul\":914:917   */\n      dup5\n        /* \"#utility.yul\":906:912   */\n      dup3\n        /* \"#utility.yul\":899:903   */\n      0x20\n        /* \"#utility.yul\":891:897   */\n      dup7\n        /* \"#utility.yul\":887:904   */\n      add\n        /* \"#utility.yul\":839:918   */\n      tag_147\n      jump\t// in\n    tag_167:\n        /* \"#utility.yul\":830:918   */\n      swap2\n      pop\n        /* \"#utility.yul\":646:924   */\n      pop\n        /* \"#utility.yul\":584:924   */\n      swap3\n      swap2\n      pop\n      pop\n      jump\t// out\n        /* \"#utility.yul\":930:1259   */\n    tag_19:\n        /* \"#utility.yul\":989:995   */\n      0x00\n        /* \"#utility.yul\":1038:1040   */\n      0x20\n        /* \"#utility.yul\":1026:1035   */\n      dup3\n        /* \"#utility.yul\":1017:1024   */\n      dup5\n        /* \"#utility.yul\":1013:1036   */\n      sub\n        /* \"#utility.yul\":1009:1041   */\n      slt\n        /* \"#utility.yul\":1006:1125   */\n      iszero\n      tag_169\n      jumpi\n        /* \"#utility.yul\":1044:1123   */\n      tag_170\n      tag_171\n      jump\t// in\n    tag_170:\n        /* \"#utility.yul\":1006:1125   */\n    tag_169:\n        /* \"#utility.yul\":1164:1165   */\n      0x00\n        /* \"#utility.yul\":1189:1242   */\n      tag_172\n        /* \"#utility.yul\":1234:1241   */\n      dup5\n        /* \"#utility.yul\":1225:1231   */\n      dup3\n        /* \"#utility.yul\":1214:1223   */\n      dup6\n        /* \"#utility.yul\":1210:1232   */\n      add\n        /* \"#utility.yul\":1189:1242   */\n      tag_158\n      jump\t// in\n    tag_172:\n        /* \"#utility.yul\":1179:1242   */\n      swap2\n      pop\n        /* \"#utility.yul\":1135:1252   */\n      pop\n        /* \"#utility.yul\":930:1259   */\n      swap3\n      swap2\n      pop\n      pop\n      jump\t// out\n        /* \"#utility.yul\":1265:2244   */\n    tag_11:\n        /* \"#utility.yul\":1362:1368   */\n      0x00\n        /* \"#utility.yul\":1370:1376   */\n      dup1\n        /* \"#utility.yul\":1378:1384   */\n      0x00\n        /* \"#utility.yul\":1427:1429   */\n      0x60\n        /* \"#utility.yul\":1415:1424   */\n      dup5\n        /* \"#utility.yul\":1406:1413   */\n      dup7\n        /* \"#utility.yul\":1402:1425   */\n      sub\n        /* \"#utility.yul\":1398:1430   */\n      slt\n        /* \"#utility.yul\":1395:1514   */\n      iszero\n      tag_174\n      jumpi\n        /* \"#utility.yul\":1433:1512   */\n      tag_175\n      tag_171\n      jump\t// in\n    tag_175:\n        /* \"#utility.yul\":1395:1514   */\n    tag_174:\n        /* \"#utility.yul\":1581:1582   */\n      0x00\n        /* \"#utility.yul\":1570:1579   */\n      dup5\n        /* \"#utility.yul\":1566:1583   */\n      add\n        /* \"#utility.yul\":1553:1584   */\n      calldataload\n        /* \"#utility.yul\":1611:1629   */\n      0xffffffffffffffff\n        /* \"#utility.yul\":1603:1609   */\n      dup2\n        /* \"#utility.yul\":1600:1630   */\n      gt\n        /* \"#utility.yul\":1597:1714   */\n      iszero\n      tag_176\n      jumpi\n        /* \"#utility.yul\":1633:1712   */\n      tag_177\n      tag_178\n      jump\t// in\n    tag_177:\n        /* \"#utility.yul\":1597:1714   */\n    tag_176:\n        /* \"#utility.yul\":1738:1801   */\n      tag_179\n        /* \"#utility.yul\":1793:1800   */\n      dup7\n        /* \"#utility.yul\":1784:1790   */\n      dup3\n        /* \"#utility.yul\":1773:1782   */\n      dup8\n        /* \"#utility.yul\":1769:1791   */\n      add\n        /* \"#utility.yul\":1738:1801   */\n      tag_162\n      jump\t// in\n    tag_179:\n        /* \"#utility.yul\":1728:1801   */\n      swap4\n      pop\n        /* \"#utility.yul\":1524:1811   */\n      pop\n        /* \"#utility.yul\":1850:1852   */\n      0x20\n        /* \"#utility.yul\":1876:1929   */\n      tag_180\n        /* \"#utility.yul\":1921:1928   */\n      dup7\n        /* \"#utility.yul\":1912:1918   */\n      dup3\n        /* \"#utility.yul\":1901:1910   */\n      dup8\n        /* \"#utility.yul\":1897:1919   */\n      add\n        /* \"#utility.yul\":1876:1929   */\n      tag_158\n      jump\t// in\n    tag_180:\n        /* \"#utility.yul\":1866:1929   */\n      swap3\n      pop\n        /* \"#utility.yul\":1821:1939   */\n      pop\n        /* \"#utility.yul\":2006:2008   */\n      0x40\n        /* \"#utility.yul\":1995:2004   */\n      dup5\n        /* \"#utility.yul\":1991:2009   */\n      add\n        /* \"#utility.yul\":1978:2010   */\n      calldataload\n        /* \"#utility.yul\":2037:2055   */\n      0xffffffffffffffff\n        /* \"#utility.yul\":2029:2035   */\n      dup2\n        /* \"#utility.yul\":2026:2056   */\n      gt\n        /* \"#utility.yul\":2023:2140   */\n      iszero\n      tag_181\n      jumpi\n        /* \"#utility.yul\":2059:2138   */\n      tag_182\n      tag_178\n      jump\t// in\n    tag_182:\n        /* \"#utility.yul\":2023:2140   */\n    tag_181:\n        /* \"#utility.yul\":2164:2227   */\n      tag_183\n        /* \"#utility.yul\":2219:2226   */\n      dup7\n        /* \"#utility.yul\":2210:2216   */\n      dup3\n        /* \"#utility.yul\":2199:2208   */\n      dup8\n        /* \"#utility.yul\":2195:2217   */\n      add\n        /* \"#utility.yul\":2164:2227   */\n      tag_162\n      jump\t// in\n    tag_183:\n        /* \"#utility.yul\":2154:2227   */\n      swap2\n      pop\n        /* \"#utility.yul\":1949:2237   */\n      pop\n        /* \"#utility.yul\":1265:2244   */\n      swap3\n      pop\n      swap3\n      pop\n      swap3\n      jump\t// out\n        /* \"#utility.yul\":2250:2486   */\n    tag_184:\n        /* \"#utility.yul\":2359:2369   */\n      0x00\n        /* \"#utility.yul\":2394:2480   */\n      tag_186\n        /* \"#utility.yul\":2476:2479   */\n      dup4\n        /* \"#utility.yul\":2468:2474   */\n      dup4\n        /* \"#utility.yul\":2394:2480   */\n      tag_187\n      jump\t// in\n    tag_186:\n        /* \"#utility.yul\":2380:2480   */\n      swap1\n      pop\n        /* \"#utility.yul\":2250:2486   */\n      swap3\n      swap2\n      pop\n      pop\n      jump\t// out\n        /* \"#utility.yul\":2492:2600   */\n    tag_188:\n        /* \"#utility.yul\":2569:2593   */\n      tag_190\n        /* \"#utility.yul\":2587:2592   */\n      dup2\n        /* \"#utility.yul\":2569:2593   */\n      tag_191\n      jump\t// in\n    tag_190:\n        /* \"#utility.yul\":2564:2567   */\n      dup3\n        /* \"#utility.yul\":2557:2594   */\n      mstore\n        /* \"#utility.yul\":2492:2600   */\n      pop\n      pop\n      jump\t// out\n        /* \"#utility.yul\":2670:3741   */\n    tag_192:\n        /* \"#utility.yul\":2829:2832   */\n      0x00\n        /* \"#utility.yul\":2858:2932   */\n      tag_194\n        /* \"#utility.yul\":2926:2931   */\n      dup3\n        /* \"#utility.yul\":2858:2932   */\n      tag_195\n      jump\t// in\n    tag_194:\n        /* \"#utility.yul\":2948:3054   */\n      tag_196\n        /* \"#utility.yul\":3047:3053   */\n      dup2\n        /* \"#utility.yul\":3042:3045   */\n      dup6\n        /* \"#utility.yul\":2948:3054   */\n      tag_197\n      jump\t// in\n    tag_196:\n        /* \"#utility.yul\":2941:3054   */\n      swap4\n      pop\n        /* \"#utility.yul\":3080:3083   */\n      dup4\n        /* \"#utility.yul\":3125:3129   */\n      0x20\n        /* \"#utility.yul\":3117:3123   */\n      dup3\n        /* \"#utility.yul\":3113:3130   */\n      mul\n        /* \"#utility.yul\":3108:3111   */\n      dup6\n        /* \"#utility.yul\":3104:3131   */\n      add\n        /* \"#utility.yul\":3155:3231   */\n      tag_198\n        /* \"#utility.yul\":3225:3230   */\n      dup6\n        /* \"#utility.yul\":3155:3231   */\n      tag_199\n      jump\t// in\n    tag_198:\n        /* \"#utility.yul\":3254:3261   */\n      dup1\n        /* \"#utility.yul\":3285:3286   */\n      0x00\n        /* \"#utility.yul\":3270:3696   */\n    tag_200:\n        /* \"#utility.yul\":3295:3301   */\n      dup6\n        /* \"#utility.yul\":3292:3293   */\n      dup2\n        /* \"#utility.yul\":3289:3302   */\n      lt\n        /* \"#utility.yul\":3270:3696   */\n      iszero\n      tag_202\n      jumpi\n        /* \"#utility.yul\":3366:3375   */\n      dup5\n        /* \"#utility.yul\":3360:3364   */\n      dup5\n        /* \"#utility.yul\":3356:3376   */\n      sub\n        /* \"#utility.yul\":3351:3354   */\n      dup10\n        /* \"#utility.yul\":3344:3377   */\n      mstore\n        /* \"#utility.yul\":3417:3423   */\n      dup2\n        /* \"#utility.yul\":3411:3424   */\n      mload\n        /* \"#utility.yul\":3445:3549   */\n      tag_203\n        /* \"#utility.yul\":3544:3548   */\n      dup6\n        /* \"#utility.yul\":3529:3542   */\n      dup3\n        /* \"#utility.yul\":3445:3549   */\n      tag_184\n      jump\t// in\n    tag_203:\n        /* \"#utility.yul\":3437:3549   */\n      swap5\n      pop\n        /* \"#utility.yul\":3572:3652   */\n      tag_204\n        /* \"#utility.yul\":3645:3651   */\n      dup4\n        /* \"#utility.yul\":3572:3652   */\n      tag_205\n      jump\t// in\n    tag_204:\n        /* \"#utility.yul\":3562:3652   */\n      swap3\n      pop\n        /* \"#utility.yul\":3681:3685   */\n      0x20\n        /* \"#utility.yul\":3676:3679   */\n      dup11\n        /* \"#utility.yul\":3672:3686   */\n      add\n        /* \"#utility.yul\":3665:3686   */\n      swap10\n      pop\n        /* \"#utility.yul\":3330:3696   */\n      pop\n        /* \"#utility.yul\":3317:3318   */\n      0x01\n        /* \"#utility.yul\":3314:3315   */\n      dup2\n        /* \"#utility.yul\":3310:3319   */\n      add\n        /* \"#utility.yul\":3305:3319   */\n      swap1\n      pop\n        /* \"#utility.yul\":3270:3696   */\n      jump(tag_200)\n    tag_202:\n        /* \"#utility.yul\":3274:3288   */\n      pop\n        /* \"#utility.yul\":3712:3716   */\n      dup3\n        /* \"#utility.yul\":3705:3716   */\n      swap8\n      pop\n        /* \"#utility.yul\":3732:3735   */\n      dup8\n        /* \"#utility.yul\":3725:3735   */\n      swap6\n      pop\n        /* \"#utility.yul\":2834:3741   */\n      pop\n      pop\n      pop\n      pop\n      pop\n        /* \"#utility.yul\":2670:3741   */\n      swap3\n      swap2\n      pop\n      pop\n      jump\t// out\n        /* \"#utility.yul\":3747:3856   */\n    tag_206:\n        /* \"#utility.yul\":3828:3849   */\n      tag_208\n        /* \"#utility.yul\":3843:3848   */\n      dup2\n        /* \"#utility.yul\":3828:3849   */\n      tag_209\n      jump\t// in\n    tag_208:\n        /* \"#utility.yul\":3823:3826   */\n      dup3\n        /* \"#utility.yul\":3816:3850   */\n      mstore\n        /* \"#utility.yul\":3747:3856   */\n      pop\n      pop\n      jump\t// out\n        /* \"#utility.yul\":3862:3991   */\n    tag_210:\n        /* \"#utility.yul\":3943:3984   */\n      tag_212\n        /* \"#utility.yul\":3978:3983   */\n      dup2\n        /* \"#utility.yul\":3943:3984   */\n      tag_213\n      jump\t// in\n    tag_212:\n        /* \"#utility.yul\":3938:3941   */\n      dup3\n        /* \"#utility.yul\":3931:3985   */\n      mstore\n        /* \"#utility.yul\":3862:3991   */\n      pop\n      pop\n      jump\t// out\n        /* \"#utility.yul\":3997:4341   */\n    tag_214:\n        /* \"#utility.yul\":4075:4078   */\n      0x00\n        /* \"#utility.yul\":4103:4142   */\n      tag_216\n        /* \"#utility.yul\":4136:4141   */\n      dup3\n        /* \"#utility.yul\":4103:4142   */\n      tag_217\n      jump\t// in\n    tag_216:\n        /* \"#utility.yul\":4158:4219   */\n      tag_218\n        /* \"#utility.yul\":4212:4218   */\n      dup2\n        /* \"#utility.yul\":4207:4210   */\n      dup6\n        /* \"#utility.yul\":4158:4219   */\n      tag_219\n      jump\t// in\n    tag_218:\n        /* \"#utility.yul\":4151:4219   */\n      swap4\n      pop\n        /* \"#utility.yul\":4228:4280   */\n      tag_220\n        /* \"#utility.yul\":4273:4279   */\n      dup2\n        /* \"#utility.yul\":4268:4271   */\n      dup6\n        /* \"#utility.yul\":4261:4265   */\n      0x20\n        /* \"#utility.yul\":4254:4259   */\n      dup7\n        /* \"#utility.yul\":4250:4266   */\n      add\n        /* \"#utility.yul\":4228:4280   */\n      tag_221\n      jump\t// in\n    tag_220:\n        /* \"#utility.yul\":4305:4334   */\n      tag_222\n        /* \"#utility.yul\":4327:4333   */\n      dup2\n        /* \"#utility.yul\":4305:4334   */\n      tag_223\n      jump\t// in\n    tag_222:\n        /* \"#utility.yul\":4300:4303   */\n      dup5\n        /* \"#utility.yul\":4296:4335   */\n      add\n        /* \"#utility.yul\":4289:4335   */\n      swap2\n      pop\n        /* \"#utility.yul\":4079:4341   */\n      pop\n        /* \"#utility.yul\":3997:4341   */\n      swap3\n      swap2\n      pop\n      pop\n      jump\t// out\n        /* \"#utility.yul\":4347:4713   */\n    tag_224:\n        /* \"#utility.yul\":4489:4492   */\n      0x00\n        /* \"#utility.yul\":4510:4577   */\n      tag_226\n        /* \"#utility.yul\":4574:4576   */\n      0x0a\n        /* \"#utility.yul\":4569:4572   */\n      dup4\n        /* \"#utility.yul\":4510:4577   */\n      tag_227\n      jump\t// in\n    tag_226:\n        /* \"#utility.yul\":4503:4577   */\n      swap2\n      pop\n        /* \"#utility.yul\":4586:4679   */\n      tag_228\n        /* \"#utility.yul\":4675:4678   */\n      dup3\n        /* \"#utility.yul\":4586:4679   */\n      tag_229\n      jump\t// in\n    tag_228:\n        /* \"#utility.yul\":4704:4706   */\n      0x20\n        /* \"#utility.yul\":4699:4702   */\n      dup3\n        /* \"#utility.yul\":4695:4707   */\n      add\n        /* \"#utility.yul\":4688:4707   */\n      swap1\n      pop\n        /* \"#utility.yul\":4347:4713   */\n      swap2\n      swap1\n      pop\n      jump\t// out\n        /* \"#utility.yul\":4779:5981   */\n    tag_187:\n        /* \"#utility.yul\":4878:4881   */\n      0x00\n        /* \"#utility.yul\":4914:4918   */\n      0xa0\n        /* \"#utility.yul\":4909:4912   */\n      dup4\n        /* \"#utility.yul\":4905:4919   */\n      add\n        /* \"#utility.yul\":4999:5003   */\n      0x00\n        /* \"#utility.yul\":4992:4997   */\n      dup4\n        /* \"#utility.yul\":4988:5004   */\n      add\n        /* \"#utility.yul\":4982:5005   */\n      mload\n        /* \"#utility.yul\":5018:5081   */\n      tag_231\n        /* \"#utility.yul\":5075:5079   */\n      0x00\n        /* \"#utility.yul\":5070:5073   */\n      dup7\n        /* \"#utility.yul\":5066:5080   */\n      add\n        /* \"#utility.yul\":5052:5064   */\n      dup3\n        /* \"#utility.yul\":5018:5081   */\n      tag_232\n      jump\t// in\n    tag_231:\n        /* \"#utility.yul\":4929:5091   */\n      pop\n        /* \"#utility.yul\":5185:5189   */\n      0x20\n        /* \"#utility.yul\":5178:5183   */\n      dup4\n        /* \"#utility.yul\":5174:5190   */\n      add\n        /* \"#utility.yul\":5168:5191   */\n      mload\n        /* \"#utility.yul\":5238:5241   */\n      dup5\n        /* \"#utility.yul\":5232:5236   */\n      dup3\n        /* \"#utility.yul\":5228:5242   */\n      sub\n        /* \"#utility.yul\":5221:5225   */\n      0x20\n        /* \"#utility.yul\":5216:5219   */\n      dup7\n        /* \"#utility.yul\":5212:5226   */\n      add\n        /* \"#utility.yul\":5205:5243   */\n      mstore\n        /* \"#utility.yul\":5264:5337   */\n      tag_233\n        /* \"#utility.yul\":5332:5336   */\n      dup3\n        /* \"#utility.yul\":5318:5330   */\n      dup3\n        /* \"#utility.yul\":5264:5337   */\n      tag_214\n      jump\t// in\n    tag_233:\n        /* \"#utility.yul\":5256:5337   */\n      swap2\n      pop\n        /* \"#utility.yul\":5101:5348   */\n      pop\n        /* \"#utility.yul\":5439:5443   */\n      0x40\n        /* \"#utility.yul\":5432:5437   */\n      dup4\n        /* \"#utility.yul\":5428:5444   */\n      add\n        /* \"#utility.yul\":5422:5445   */\n      mload\n        /* \"#utility.yul\":5458:5521   */\n      tag_234\n        /* \"#utility.yul\":5515:5519   */\n      0x40\n        /* \"#utility.yul\":5510:5513   */\n      dup7\n        /* \"#utility.yul\":5506:5520   */\n      add\n        /* \"#utility.yul\":5492:5504   */\n      dup3\n        /* \"#utility.yul\":5458:5521   */\n      tag_188\n      jump\t// in\n    tag_234:\n        /* \"#utility.yul\":5358:5531   */\n      pop\n        /* \"#utility.yul\":5613:5617   */\n      0x60\n        /* \"#utility.yul\":5606:5611   */\n      dup4\n        /* \"#utility.yul\":5602:5618   */\n      add\n        /* \"#utility.yul\":5596:5619   */\n      mload\n        /* \"#utility.yul\":5666:5669   */\n      dup5\n        /* \"#utility.yul\":5660:5664   */\n      dup3\n        /* \"#utility.yul\":5656:5670   */\n      sub\n        /* \"#utility.yul\":5649:5653   */\n      0x60\n        /* \"#utility.yul\":5644:5647   */\n      dup7\n        /* \"#utility.yul\":5640:5654   */\n      add\n        /* \"#utility.yul\":5633:5671   */\n      mstore\n        /* \"#utility.yul\":5692:5765   */\n      tag_235\n        /* \"#utility.yul\":5760:5764   */\n      dup3\n        /* \"#utility.yul\":5746:5758   */\n      dup3\n        /* \"#utility.yul\":5692:5765   */\n      tag_214\n      jump\t// in\n    tag_235:\n        /* \"#utility.yul\":5684:5765   */\n      swap2\n      pop\n        /* \"#utility.yul\":5541:5776   */\n      pop\n        /* \"#utility.yul\":5858:5862   */\n      0x80\n        /* \"#utility.yul\":5851:5856   */\n      dup4\n        /* \"#utility.yul\":5847:5863   */\n      add\n        /* \"#utility.yul\":5841:5864   */\n      mload\n        /* \"#utility.yul\":5877:5944   */\n      tag_236\n        /* \"#utility.yul\":5938:5942   */\n      0x80\n        /* \"#utility.yul\":5933:5936   */\n      dup7\n        /* \"#utility.yul\":5929:5943   */\n      add\n        /* \"#utility.yul\":5915:5927   */\n      dup3\n        /* \"#utility.yul\":5877:5944   */\n      tag_210\n      jump\t// in\n    tag_236:\n        /* \"#utility.yul\":5786:5954   */\n      pop\n        /* \"#utility.yul\":5971:5975   */\n      dup1\n        /* \"#utility.yul\":5964:5975   */\n      swap2\n      pop\n        /* \"#utility.yul\":4883:5981   */\n      pop\n        /* \"#utility.yul\":4779:5981   */\n      swap3\n      swap2\n      pop\n      pop\n      jump\t// out\n        /* \"#utility.yul\":5987:6095   */\n    tag_232:\n        /* \"#utility.yul\":6064:6088   */\n      tag_238\n        /* \"#utility.yul\":6082:6087   */\n      dup2\n        /* \"#utility.yul\":6064:6088   */\n      tag_239\n      jump\t// in\n    tag_238:\n        /* \"#utility.yul\":6059:6062   */\n      dup3\n        /* \"#utility.yul\":6052:6089   */\n      mstore\n        /* \"#utility.yul\":5987:6095   */\n      pop\n      pop\n      jump\t// out\n        /* \"#utility.yul\":6101:6554   */\n    tag_16:\n        /* \"#utility.yul\":6284:6288   */\n      0x00\n        /* \"#utility.yul\":6322:6324   */\n      0x20\n        /* \"#utility.yul\":6311:6320   */\n      dup3\n        /* \"#utility.yul\":6307:6325   */\n      add\n        /* \"#utility.yul\":6299:6325   */\n      swap1\n      pop\n        /* \"#utility.yul\":6371:6380   */\n      dup2\n        /* \"#utility.yul\":6365:6369   */\n      dup2\n        /* \"#utility.yul\":6361:6381   */\n      sub\n        /* \"#utility.yul\":6357:6358   */\n      0x00\n        /* \"#utility.yul\":6346:6355   */\n      dup4\n        /* \"#utility.yul\":6342:6359   */\n      add\n        /* \"#utility.yul\":6335:6382   */\n      mstore\n        /* \"#utility.yul\":6399:6547   */\n      tag_241\n        /* \"#utility.yul\":6542:6546   */\n      dup2\n        /* \"#utility.yul\":6533:6539   */\n      dup5\n        /* \"#utility.yul\":6399:6547   */\n      tag_192\n      jump\t// in\n    tag_241:\n        /* \"#utility.yul\":6391:6547   */\n      swap1\n      pop\n        /* \"#utility.yul\":6101:6554   */\n      swap3\n      swap2\n      pop\n      pop\n      jump\t// out\n        /* \"#utility.yul\":6560:6770   */\n    tag_22:\n        /* \"#utility.yul\":6647:6651   */\n      0x00\n        /* \"#utility.yul\":6685:6687   */\n      0x20\n        /* \"#utility.yul\":6674:6683   */\n      dup3\n        /* \"#utility.yul\":6670:6688   */\n      add\n        /* \"#utility.yul\":6662:6688   */\n      swap1\n      pop\n        /* \"#utility.yul\":6698:6763   */\n      tag_243\n        /* \"#utility.yul\":6760:6761   */\n      0x00\n        /* \"#utility.yul\":6749:6758   */\n      dup4\n        /* \"#utility.yul\":6745:6762   */\n      add\n        /* \"#utility.yul\":6736:6742   */\n      dup5\n        /* \"#utility.yul\":6698:6763   */\n      tag_206\n      jump\t// in\n    tag_243:\n        /* \"#utility.yul\":6560:6770   */\n      swap3\n      swap2\n      pop\n      pop\n      jump\t// out\n        /* \"#utility.yul\":6776:7195   */\n    tag_36:\n        /* \"#utility.yul\":6942:6946   */\n      0x00\n        /* \"#utility.yul\":6980:6982   */\n      0x20\n        /* \"#utility.yul\":6969:6978   */\n      dup3\n        /* \"#utility.yul\":6965:6983   */\n      add\n        /* \"#utility.yul\":6957:6983   */\n      swap1\n      pop\n        /* \"#utility.yul\":7029:7038   */\n      dup2\n        /* \"#utility.yul\":7023:7027   */\n      dup2\n        /* \"#utility.yul\":7019:7039   */\n      sub\n        /* \"#utility.yul\":7015:7016   */\n      0x00\n        /* \"#utility.yul\":7004:7013   */\n      dup4\n        /* \"#utility.yul\":7000:7017   */\n      add\n        /* \"#utility.yul\":6993:7040   */\n      mstore\n        /* \"#utility.yul\":7057:7188   */\n      tag_245\n        /* \"#utility.yul\":7183:7187   */\n      dup2\n        /* \"#utility.yul\":7057:7188   */\n      tag_224\n      jump\t// in\n    tag_245:\n        /* \"#utility.yul\":7049:7188   */\n      swap1\n      pop\n        /* \"#utility.yul\":6776:7195   */\n      swap2\n      swap1\n      pop\n      jump\t// out\n        /* \"#utility.yul\":7201:7330   */\n    tag_152:\n        /* \"#utility.yul\":7235:7241   */\n      0x00\n        /* \"#utility.yul\":7262:7282   */\n      tag_247\n      tag_248\n      jump\t// in\n    tag_247:\n        /* \"#utility.yul\":7252:7282   */\n      swap1\n      pop\n        /* \"#utility.yul\":7291:7324   */\n      tag_249\n        /* \"#utility.yul\":7319:7323   */\n      dup3\n        /* \"#utility.yul\":7311:7317   */\n      dup3\n        /* \"#utility.yul\":7291:7324   */\n      tag_250\n      jump\t// in\n    tag_249:\n        /* \"#utility.yul\":7201:7330   */\n      swap2\n      swap1\n      pop\n      jump\t// out\n        /* \"#utility.yul\":7336:7411   */\n    tag_248:\n        /* \"#utility.yul\":7369:7375   */\n      0x00\n        /* \"#utility.yul\":7402:7404   */\n      0x40\n        /* \"#utility.yul\":7396:7405   */\n      mload\n        /* \"#utility.yul\":7386:7405   */\n      swap1\n      pop\n        /* \"#utility.yul\":7336:7411   */\n      swap1\n      jump\t// out\n        /* \"#utility.yul\":7417:7725   */\n    tag_151:\n        /* \"#utility.yul\":7479:7483   */\n      0x00\n        /* \"#utility.yul\":7569:7587   */\n      0xffffffffffffffff\n        /* \"#utility.yul\":7561:7567   */\n      dup3\n        /* \"#utility.yul\":7558:7588   */\n      gt\n        /* \"#utility.yul\":7555:7611   */\n      iszero\n      tag_253\n      jumpi\n        /* \"#utility.yul\":7591:7609   */\n      tag_254\n      tag_52\n      jump\t// in\n    tag_254:\n        /* \"#utility.yul\":7555:7611   */\n    tag_253:\n        /* \"#utility.yul\":7629:7658   */\n      tag_255\n        /* \"#utility.yul\":7651:7657   */\n      dup3\n        /* \"#utility.yul\":7629:7658   */\n      tag_223\n      jump\t// in\n    tag_255:\n        /* \"#utility.yul\":7621:7658   */\n      swap1\n      pop\n        /* \"#utility.yul\":7713:7717   */\n      0x20\n        /* \"#utility.yul\":7707:7711   */\n      dup2\n        /* \"#utility.yul\":7703:7718   */\n      add\n        /* \"#utility.yul\":7695:7718   */\n      swap1\n      pop\n        /* \"#utility.yul\":7417:7725   */\n      swap2\n      swap1\n      pop\n      jump\t// out\n        /* \"#utility.yul\":7731:7883   */\n    tag_199:\n        /* \"#utility.yul\":7818:7822   */\n      0x00\n        /* \"#utility.yul\":7841:7844   */\n      dup2\n        /* \"#utility.yul\":7833:7844   */\n      swap1\n      pop\n        /* \"#utility.yul\":7871:7875   */\n      0x20\n        /* \"#utility.yul\":7866:7869   */\n      dup3\n        /* \"#utility.yul\":7862:7876   */\n      add\n        /* \"#utility.yul\":7854:7876   */\n      swap1\n      pop\n        /* \"#utility.yul\":7731:7883   */\n      swap2\n      swap1\n      pop\n      jump\t// out\n        /* \"#utility.yul\":7889:8023   */\n    tag_195:\n        /* \"#utility.yul\":7976:7982   */\n      0x00\n        /* \"#utility.yul\":8010:8015   */\n      dup2\n        /* \"#utility.yul\":8004:8016   */\n      mload\n        /* \"#utility.yul\":7994:8016   */\n      swap1\n      pop\n        /* \"#utility.yul\":7889:8023   */\n      swap2\n      swap1\n      pop\n      jump\t// out\n        /* \"#utility.yul\":8029:8128   */\n    tag_217:\n        /* \"#utility.yul\":8081:8087   */\n      0x00\n        /* \"#utility.yul\":8115:8120   */\n      dup2\n        /* \"#utility.yul\":8109:8121   */\n      mload\n        /* \"#utility.yul\":8099:8121   */\n      swap1\n      pop\n        /* \"#utility.yul\":8029:8128   */\n      swap2\n      swap1\n      pop\n      jump\t// out\n        /* \"#utility.yul\":8134:8267   */\n    tag_205:\n        /* \"#utility.yul\":8224:8228   */\n      0x00\n        /* \"#utility.yul\":8256:8260   */\n      0x20\n        /* \"#utility.yul\":8251:8254   */\n      dup3\n        /* \"#utility.yul\":8247:8261   */\n      add\n        /* \"#utility.yul\":8239:8261   */\n      swap1\n      pop\n        /* \"#utility.yul\":8134:8267   */\n      swap2\n      swap1\n      pop\n      jump\t// out\n        /* \"#utility.yul\":8273:8477   */\n    tag_197:\n        /* \"#utility.yul\":8392:8403   */\n      0x00\n        /* \"#utility.yul\":8426:8432   */\n      dup3\n        /* \"#utility.yul\":8421:8424   */\n      dup3\n        /* \"#utility.yul\":8414:8433   */\n      mstore\n        /* \"#utility.yul\":8466:8470   */\n      0x20\n        /* \"#utility.yul\":8461:8464   */\n      dup3\n        /* \"#utility.yul\":8457:8471   */\n      add\n        /* \"#utility.yul\":8442:8471   */\n      swap1\n      pop\n        /* \"#utility.yul\":8273:8477   */\n      swap3\n      swap2\n      pop\n      pop\n      jump\t// out\n        /* \"#utility.yul\":8483:8642   */\n    tag_219:\n        /* \"#utility.yul\":8557:8568   */\n      0x00\n        /* \"#utility.yul\":8591:8597   */\n      dup3\n        /* \"#utility.yul\":8586:8589   */\n      dup3\n        /* \"#utility.yul\":8579:8598   */\n      mstore\n        /* \"#utility.yul\":8631:8635   */\n      0x20\n        /* \"#utility.yul\":8626:8629   */\n      dup3\n        /* \"#utility.yul\":8622:8636   */\n      add\n        /* \"#utility.yul\":8607:8636   */\n      swap1\n      pop\n        /* \"#utility.yul\":8483:8642   */\n      swap3\n      swap2\n      pop\n      pop\n      jump\t// out\n        /* \"#utility.yul\":8648:8817   */\n    tag_227:\n        /* \"#utility.yul\":8732:8743   */\n      0x00\n        /* \"#utility.yul\":8766:8772   */\n      dup3\n        /* \"#utility.yul\":8761:8764   */\n      dup3\n        /* \"#utility.yul\":8754:8773   */\n      mstore\n        /* \"#utility.yul\":8806:8810   */\n      0x20\n        /* \"#utility.yul\":8801:8804   */\n      dup3\n        /* \"#utility.yul\":8797:8811   */\n      add\n        /* \"#utility.yul\":8782:8811   */\n      swap1\n      pop\n        /* \"#utility.yul\":8648:8817   */\n      swap3\n      swap2\n      pop\n      pop\n      jump\t// out\n        /* \"#utility.yul\":8823:9128   */\n    tag_39:\n        /* \"#utility.yul\":8863:8866   */\n      0x00\n        /* \"#utility.yul\":8882:8902   */\n      tag_264\n        /* \"#utility.yul\":8900:8901   */\n      dup3\n        /* \"#utility.yul\":8882:8902   */\n      tag_239\n      jump\t// in\n    tag_264:\n        /* \"#utility.yul\":8877:8902   */\n      swap2\n      pop\n        /* \"#utility.yul\":8916:8936   */\n      tag_265\n        /* \"#utility.yul\":8934:8935   */\n      dup4\n        /* \"#utility.yul\":8916:8936   */\n      tag_239\n      jump\t// in\n    tag_265:\n        /* \"#utility.yul\":8911:8936   */\n      swap3\n      pop\n        /* \"#utility.yul\":9070:9071   */\n      dup3\n        /* \"#utility.yul\":9002:9068   */\n      0xffffffffffffffffffffffffffffffffffffffffffffffffffffffffffffffff\n        /* \"#utility.yul\":8998:9072   */\n      sub\n        /* \"#utility.yul\":8995:8996   */\n      dup3\n        /* \"#utility.yul\":8992:9073   */\n      gt\n        /* \"#utility.yul\":8989:9096   */\n      iszero\n      tag_266\n      jumpi\n        /* \"#utility.yul\":9076:9094   */\n      tag_267\n      tag_268\n      jump\t// in\n    tag_267:\n        /* \"#utility.yul\":8989:9096   */\n    tag_266:\n        /* \"#utility.yul\":9120:9121   */\n      dup3\n        /* \"#utility.yul\":9117:9118   */\n      dup3\n        /* \"#utility.yul\":9113:9122   */\n      add\n        /* \"#utility.yul\":9106:9122   */\n      swap1\n      pop\n        /* \"#utility.yul\":8823:9128   */\n      swap3\n      swap2\n      pop\n      pop\n      jump\t// out\n        /* \"#utility.yul\":9134:9230   */\n    tag_191:\n        /* \"#utility.yul\":9171:9178   */\n      0x00\n        /* \"#utility.yul\":9200:9224   */\n      tag_270\n        /* \"#utility.yul\":9218:9223   */\n      dup3\n        /* \"#utility.yul\":9200:9224   */\n      tag_271\n      jump\t// in\n    tag_270:\n        /* \"#utility.yul\":9189:9224   */\n      swap1\n      pop\n        /* \"#utility.yul\":9134:9230   */\n      swap2\n      swap1\n      pop\n      jump\t// out\n        /* \"#utility.yul\":9236:9326   */\n    tag_209:\n        /* \"#utility.yul\":9270:9277   */\n      0x00\n        /* \"#utility.yul\":9313:9318   */\n      dup2\n        /* \"#utility.yul\":9306:9319   */\n      iszero\n        /* \"#utility.yul\":9299:9320   */\n      iszero\n        /* \"#utility.yul\":9288:9320   */\n      swap1\n      pop\n        /* \"#utility.yul\":9236:9326   */\n      swap2\n      swap1\n      pop\n      jump\t// out\n        /* \"#utility.yul\":9332:9455   */\n    tag_273:\n        /* \"#utility.yul\":9375:9382   */\n      0x00\n        /* \"#utility.yul\":9404:9409   */\n      dup2\n        /* \"#utility.yul\":9393:9409   */\n      swap1\n      pop\n        /* \"#utility.yul\":9410:9449   */\n      tag_275\n        /* \"#utility.yul\":9443:9448   */\n      dup3\n        /* \"#utility.yul\":9410:9449   */\n      tag_276\n      jump\t// in\n    tag_275:\n        /* \"#utility.yul\":9332:9455   */\n      swap2\n      swap1\n      pop\n      jump\t// out\n        /* \"#utility.yul\":9461:9587   */\n    tag_271:\n        /* \"#utility.yul\":9498:9505   */\n      0x00\n        /* \"#utility.yul\":9538:9580   */\n      0xffffffffffffffffffffffffffffffffffffffff\n        /* \"#utility.yul\":9531:9536   */\n      dup3\n        /* \"#utility.yul\":9527:9581   */\n      and\n        /* \"#utility.yul\":9516:9581   */\n      swap1\n      pop\n        /* \"#utility.yul\":9461:9587   */\n      swap2\n      swap1\n      pop\n      jump\t// out\n        /* \"#utility.yul\":9593:9670   */\n    tag_239:\n        /* \"#utility.yul\":9630:9637   */\n      0x00\n        /* \"#utility.yul\":9659:9664   */\n      dup2\n        /* \"#utility.yul\":9648:9664   */\n      swap1\n      pop\n        /* \"#utility.yul\":9593:9670   */\n      swap2\n      swap1\n      pop\n      jump\t// out\n        /* \"#utility.yul\":9676:9799   */\n    tag_213:\n        /* \"#utility.yul\":9730:9739   */\n      0x00\n        /* \"#utility.yul\":9763:9793   */\n      tag_280\n        /* \"#utility.yul\":9787:9792   */\n      dup3\n        /* \"#utility.yul\":9763:9793   */\n      tag_273\n      jump\t// in\n    tag_280:\n        /* \"#utility.yul\":9750:9793   */\n      swap1\n      pop\n        /* \"#utility.yul\":9676:9799   */\n      swap2\n      swap1\n      pop\n      jump\t// out\n        /* \"#utility.yul\":9805:9959   */\n    tag_157:\n        /* \"#utility.yul\":9889:9895   */\n      dup3\n        /* \"#utility.yul\":9884:9887   */\n      dup2\n        /* \"#utility.yul\":9879:9882   */\n      dup4\n        /* \"#utility.yul\":9866:9896   */\n      calldatacopy\n        /* \"#utility.yul\":9951:9952   */\n      0x00\n        /* \"#utility.yul\":9942:9948   */\n      dup4\n        /* \"#utility.yul\":9937:9940   */\n      dup4\n        /* \"#utility.yul\":9933:9949   */\n      add\n        /* \"#utility.yul\":9926:9953   */\n      mstore\n        /* \"#utility.yul\":9805:9959   */\n      pop\n      pop\n      pop\n      jump\t// out\n        /* \"#utility.yul\":9965:10272   */\n    tag_221:\n        /* \"#utility.yul\":10033:10034   */\n      0x00\n        /* \"#utility.yul\":10043:10156   */\n    tag_283:\n        /* \"#utility.yul\":10057:10063   */\n      dup4\n        /* \"#utility.yul\":10054:10055   */\n      dup2\n        /* \"#utility.yul\":10051:10064   */\n      lt\n        /* \"#utility.yul\":10043:10156   */\n      iszero\n      tag_285\n      jumpi\n        /* \"#utility.yul\":10142:10143   */\n      dup1\n        /* \"#utility.yul\":10137:10140   */\n      dup3\n        /* \"#utility.yul\":10133:10144   */\n      add\n        /* \"#utility.yul\":10127:10145   */\n      mload\n        /* \"#utility.yul\":10123:10124   */\n      dup2\n        /* \"#utility.yul\":10118:10121   */\n      dup5\n        /* \"#utility.yul\":10114:10125   */\n      add\n        /* \"#utility.yul\":10107:10146   */\n      mstore\n        /* \"#utility.yul\":10079:10081   */\n      0x20\n        /* \"#utility.yul\":10076:10077   */\n      dup2\n        /* \"#utility.yul\":10072:10082   */\n      add\n        /* \"#utility.yul\":10067:10082   */\n      swap1\n      pop\n        /* \"#utility.yul\":10043:10156   */\n      jump(tag_283)\n    tag_285:\n        /* \"#utility.yul\":10174:10180   */\n      dup4\n        /* \"#utility.yul\":10171:10172   */\n      dup2\n        /* \"#utility.yul\":10168:10181   */\n      gt\n        /* \"#utility.yul\":10165:10266   */\n      iszero\n      tag_286\n      jumpi\n        /* \"#utility.yul\":10254:10255   */\n      0x00\n        /* \"#utility.yul\":10245:10251   */\n      dup5\n        /* \"#utility.yul\":10240:10243   */\n      dup5\n        /* \"#utility.yul\":10236:10252   */\n      add\n        /* \"#utility.yul\":10229:10256   */\n      mstore\n        /* \"#utility.yul\":10165:10266   */\n    tag_286:\n        /* \"#utility.yul\":10014:10272   */\n      pop\n        /* \"#utility.yul\":9965:10272   */\n      pop\n      pop\n      pop\n      jump\t// out\n        /* \"#utility.yul\":10278:10598   */\n    tag_65:\n        /* \"#utility.yul\":10322:10328   */\n      0x00\n        /* \"#utility.yul\":10359:10360   */\n      0x02\n        /* \"#utility.yul\":10353:10357   */\n      dup3\n        /* \"#utility.yul\":10349:10361   */\n      div\n        /* \"#utility.yul\":10339:10361   */\n      swap1\n      pop\n        /* \"#utility.yul\":10406:10407   */\n      0x01\n        /* \"#utility.yul\":10400:10404   */\n      dup3\n        /* \"#utility.yul\":10396:10408   */\n      and\n        /* \"#utility.yul\":10427:10445   */\n      dup1\n        /* \"#utility.yul\":10417:10498   */\n      tag_288\n      jumpi\n        /* \"#utility.yul\":10483:10487   */\n      0x7f\n        /* \"#utility.yul\":10475:10481   */\n      dup3\n        /* \"#utility.yul\":10471:10488   */\n      and\n        /* \"#utility.yul\":10461:10488   */\n      swap2\n      pop\n        /* \"#utility.yul\":10417:10498   */\n    tag_288:\n        /* \"#utility.yul\":10545:10547   */\n      0x20\n        /* \"#utility.yul\":10537:10543   */\n      dup3\n        /* \"#utility.yul\":10534:10548   */\n      lt\n        /* \"#utility.yul\":10514:10532   */\n      dup2\n        /* \"#utility.yul\":10511:10549   */\n      eq\n        /* \"#utility.yul\":10508:10592   */\n      iszero\n      tag_289\n      jumpi\n        /* \"#utility.yul\":10564:10582   */\n      tag_290\n      tag_291\n      jump\t// in\n    tag_290:\n        /* \"#utility.yul\":10508:10592   */\n    tag_289:\n        /* \"#utility.yul\":10329:10598   */\n      pop\n        /* \"#utility.yul\":10278:10598   */\n      swap2\n      swap1\n      pop\n      jump\t// out\n        /* \"#utility.yul\":10604:10885   */\n    tag_250:\n        /* \"#utility.yul\":10687:10714   */\n      tag_293\n        /* \"#utility.yul\":10709:10713   */\n      dup3\n        /* \"#utility.yul\":10687:10714   */\n      tag_223\n      jump\t// in\n    tag_293:\n        /* \"#utility.yul\":10679:10685   */\n      dup2\n        /* \"#utility.yul\":10675:10715   */\n      add\n        /* \"#utility.yul\":10817:10823   */\n      dup2\n        /* \"#utility.yul\":10805:10815   */\n      dup2\n        /* \"#utility.yul\":10802:10824   */\n      lt\n        /* \"#utility.yul\":10781:10799   */\n      0xffffffffffffffff\n        /* \"#utility.yul\":10769:10779   */\n      dup3\n        /* \"#utility.yul\":10766:10800   */\n      gt\n        /* \"#utility.yul\":10763:10825   */\n      or\n        /* \"#utility.yul\":10760:10848   */\n      iszero\n      tag_294\n      jumpi\n        /* \"#utility.yul\":10828:10846   */\n      tag_295\n      tag_52\n      jump\t// in\n    tag_295:\n        /* \"#utility.yul\":10760:10848   */\n    tag_294:\n        /* \"#utility.yul\":10868:10878   */\n      dup1\n        /* \"#utility.yul\":10864:10866   */\n      0x40\n        /* \"#utility.yul\":10857:10879   */\n      mstore\n        /* \"#utility.yul\":10647:10885   */\n      pop\n        /* \"#utility.yul\":10604:10885   */\n      pop\n      pop\n      jump\t// out\n        /* \"#utility.yul\":10891:11124   */\n    tag_82:\n        /* \"#utility.yul\":10930:10933   */\n      0x00\n        /* \"#utility.yul\":10953:10977   */\n      tag_297\n        /* \"#utility.yul\":10971:10976   */\n      dup3\n        /* \"#utility.yul\":10953:10977   */\n      tag_239\n      jump\t// in\n    tag_297:\n        /* \"#utility.yul\":10944:10977   */\n      swap2\n      pop\n        /* \"#utility.yul\":10999:11065   */\n      0xffffffffffffffffffffffffffffffffffffffffffffffffffffffffffffffff\n        /* \"#utility.yul\":10992:10997   */\n      dup3\n        /* \"#utility.yul\":10989:11066   */\n      eq\n        /* \"#utility.yul\":10986:11089   */\n      iszero\n      tag_298\n      jumpi\n        /* \"#utility.yul\":11069:11087   */\n      tag_299\n      tag_268\n      jump\t// in\n    tag_299:\n        /* \"#utility.yul\":10986:11089   */\n    tag_298:\n        /* \"#utility.yul\":11116:11117   */\n      0x01\n        /* \"#utility.yul\":11109:11114   */\n      dup3\n        /* \"#utility.yul\":11105:11118   */\n      add\n        /* \"#utility.yul\":11098:11118   */\n      swap1\n      pop\n        /* \"#utility.yul\":10891:11124   */\n      swap2\n      swap1\n      pop\n      jump\t// out\n        /* \"#utility.yul\":11130:11310   */\n    tag_268:\n        /* \"#utility.yul\":11178:11255   */\n      0x4e487b7100000000000000000000000000000000000000000000000000000000\n        /* \"#utility.yul\":11175:11176   */\n      0x00\n        /* \"#utility.yul\":11168:11256   */\n      mstore\n        /* \"#utility.yul\":11275:11279   */\n      0x11\n        /* \"#utility.yul\":11272:11273   */\n      0x04\n        /* \"#utility.yul\":11265:11280   */\n      mstore\n        /* \"#utility.yul\":11299:11303   */\n      0x24\n        /* \"#utility.yul\":11296:11297   */\n      0x00\n        /* \"#utility.yul\":11289:11304   */\n      revert\n        /* \"#utility.yul\":11316:11496   */\n    tag_42:\n        /* \"#utility.yul\":11364:11441   */\n      0x4e487b7100000000000000000000000000000000000000000000000000000000\n        /* \"#utility.yul\":11361:11362   */\n      0x00\n        /* \"#utility.yul\":11354:11442   */\n      mstore\n        /* \"#utility.yul\":11461:11465   */\n      0x21\n        /* \"#utility.yul\":11458:11459   */\n      0x04\n        /* \"#utility.yul\":11451:11466   */\n      mstore\n        /* \"#utility.yul\":11485:11489   */\n      0x24\n        /* \"#utility.yul\":11482:11483   */\n      0x00\n        /* \"#utility.yul\":11475:11490   */\n      revert\n        /* \"#utility.yul\":11502:11682   */\n    tag_291:\n        /* \"#utility.yul\":11550:11627   */\n      0x4e487b7100000000000000000000000000000000000000000000000000000000\n        /* \"#utility.yul\":11547:11548   */\n      0x00\n        /* \"#utility.yul\":11540:11628   */\n      mstore\n        /* \"#utility.yul\":11647:11651   */\n      0x22\n        /* \"#utility.yul\":11644:11645   */\n      0x04\n        /* \"#utility.yul\":11637:11652   */\n      mstore\n        /* \"#utility.yul\":11671:11675   */\n      0x24\n        /* \"#utility.yul\":11668:11669   */\n      0x00\n        /* \"#utility.yul\":11661:11676   */\n      revert\n        /* \"#utility.yul\":11688:11868   */\n    tag_62:\n        /* \"#utility.yul\":11736:11813   */\n      0x4e487b7100000000000000000000000000000000000000000000000000000000\n        /* \"#utility.yul\":11733:11734   */\n      0x00\n        /* \"#utility.yul\":11726:11814   */\n      mstore\n        /* \"#utility.yul\":11833:11837   */\n      0x32\n        /* \"#utility.yul\":11830:11831   */\n      0x04\n        /* \"#utility.yul\":11823:11838   */\n      mstore\n        /* \"#utility.yul\":11857:11861   */\n      0x24\n        /* \"#utility.yul\":11854:11855   */\n      0x00\n        /* \"#utility.yul\":11847:11862   */\n      revert\n        /* \"#utility.yul\":11874:12054   */\n    tag_52:\n        /* \"#utility.yul\":11922:11999   */\n      0x4e487b7100000000000000000000000000000000000000000000000000000000\n        /* \"#utility.yul\":11919:11920   */\n      0x00\n        /* \"#utility.yul\":11912:12000   */\n      mstore\n        /* \"#utility.yul\":12019:12023   */\n      0x41\n        /* \"#utility.yul\":12016:12017   */\n      0x04\n        /* \"#utility.yul\":12009:12024   */\n      mstore\n        /* \"#utility.yul\":12043:12047   */\n      0x24\n        /* \"#utility.yul\":12040:12041   */\n      0x00\n        /* \"#utility.yul\":12033:12048   */\n      revert\n        /* \"#utility.yul\":12060:12177   */\n    tag_166:\n        /* \"#utility.yul\":12169:12170   */\n      0x00\n        /* \"#utility.yul\":12166:12167   */\n      dup1\n        /* \"#utility.yul\":12159:12171   */\n      revert\n        /* \"#utility.yul\":12183:12300   */\n    tag_155:\n        /* \"#utility.yul\":12292:12293   */\n      0x00\n        /* \"#utility.yul\":12289:12290   */\n      dup1\n        /* \"#utility.yul\":12282:12294   */\n      revert\n        /* \"#utility.yul\":12306:12423   */\n    tag_178:\n        /* \"#utility.yul\":12415:12416   */\n      0x00\n        /* \"#utility.yul\":12412:12413   */\n      dup1\n        /* \"#utility.yul\":12405:12417   */\n      revert\n        /* \"#utility.yul\":12429:12546   */\n    tag_171:\n        /* \"#utility.yul\":12538:12539   */\n      0x00\n        /* \"#utility.yul\":12535:12536   */\n      dup1\n        /* \"#utility.yul\":12528:12540   */\n      revert\n        /* \"#utility.yul\":12552:12654   */\n    tag_223:\n        /* \"#utility.yul\":12593:12599   */\n      0x00\n        /* \"#utility.yul\":12644:12646   */\n      0x1f\n        /* \"#utility.yul\":12640:12647   */\n      not\n        /* \"#utility.yul\":12635:12637   */\n      0x1f\n        /* \"#utility.yul\":12628:12633   */\n      dup4\n        /* \"#utility.yul\":12624:12638   */\n      add\n        /* \"#utility.yul\":12620:12648   */\n      and\n        /* \"#utility.yul\":12610:12648   */\n      swap1\n      pop\n        /* \"#utility.yul\":12552:12654   */\n      swap2\n      swap1\n      pop\n      jump\t// out\n        /* \"#utility.yul\":12660:12820   */\n    tag_229:\n        /* \"#utility.yul\":12800:12812   */\n      0x41646d696e204f6e6c7900000000000000000000000000000000000000000000\n        /* \"#utility.yul\":12796:12797   */\n      0x00\n        /* \"#utility.yul\":12788:12794   */\n      dup3\n        /* \"#utility.yul\":12784:12798   */\n      add\n        /* \"#utility.yul\":12777:12813   */\n      mstore\n        /* \"#utility.yul\":12660:12820   */\n      pop\n      jump\t// out\n        /* \"#utility.yul\":12826:12937   */\n    tag_276:\n        /* \"#utility.yul\":12905:12906   */\n      0x03\n        /* \"#utility.yul\":12898:12903   */\n      dup2\n        /* \"#utility.yul\":12895:12907   */\n      lt\n        /* \"#utility.yul\":12885:12931   */\n      tag_312\n      jumpi\n        /* \"#utility.yul\":12911:12929   */\n      tag_313\n      tag_42\n      jump\t// in\n    tag_313:\n        /* \"#utility.yul\":12885:12931   */\n    tag_312:\n        /* \"#utility.yul\":12826:12937   */\n      pop\n      jump\t// out\n        /* \"#utility.yul\":12943:13065   */\n    tag_161:\n        /* \"#utility.yul\":13016:13040   */\n      tag_315\n        /* \"#utility.yul\":13034:13039   */\n      dup2\n        /* \"#utility.yul\":13016:13040   */\n      tag_191\n      jump\t// in\n    tag_315:\n        /* \"#utility.yul\":13009:13014   */\n      dup2\n        /* \"#utility.yul\":13006:13041   */\n      eq\n        /* \"#utility.yul\":12996:13059   */\n      tag_316\n      jumpi\n        /* \"#utility.yul\":13055:13056   */\n      0x00\n        /* \"#utility.yul\":13052:13053   */\n      dup1\n        /* \"#utility.yul\":13045:13057   */\n      revert\n        /* \"#utility.yul\":12996:13059   */\n    tag_316:\n        /* \"#utility.yul\":12943:13065   */\n      pop\n      jump\t// out\n\n    auxdata: 0xa2646970667358221220c3ca1986d0b5224b0f0c582e31ef27a157087a3f8fa1dc2e460556e0cff0556864736f6c63430008070033\n}\n",
				"bytecode": {
					"linkReferences": {},
					"object": "60806040526000600155600060025534801561001a57600080fd5b50336000806101000a81548173ffffffffffffffffffffffffffffffffffffffff021916908373ffffffffffffffffffffffffffffffffffffffff1602179055506115158061006a6000396000f3fe608060405234801561001057600080fd5b50600436106100625760003560e01c8063053ff76c1461006757806332abcdbe146100835780633314168c146100a1578063a3bee99a146100d1578063e701c350146100ed578063ee6fc3b41461011d575b600080fd5b610081600480360381019061007c9190610e88565b61013b565b005b61008b61039a565b60405161009891906110b1565b60405180910390f35b6100bb60048036038101906100b69190610e5b565b610683565b6040516100c891906110d3565b60405180910390f35b6100eb60048036038101906100e69190610e88565b61070c565b005b61010760048036038101906101029190610e5b565b61096b565b60405161011491906110d3565b60405180910390f35b6101256109f3565b60405161013291906110b1565b60405180910390f35b3373ffffffffffffffffffffffffffffffffffffffff1660008054906101000a900473ffffffffffffffffffffffffffffffffffffffff1673ffffffffffffffffffffffffffffffffffffffff16146101c9576040517f08c379a00000000000000000000000000000000000000000000000000000000081526004016101c0906110ee565b60405180910390fd5b60016002546101d891906111ca565b60028190555060006040518060a0016040528060025481526020018581526020018473ffffffffffffffffffffffffffffffffffffffff16815260200183815260200160028081111561022e5761022d6113aa565b5b815250905080600360008573ffffffffffffffffffffffffffffffffffffffff1673ffffffffffffffffffffffffffffffffffffffff168152602001908152602001600020600082015181600001556020820151816001019080519060200190610299929190610cdc565b5060408201518160020160006101000a81548173ffffffffffffffffffffffffffffffffffffffff021916908373ffffffffffffffffffffffffffffffffffffffff16021790555060608201518160030190805190602001906102fd929190610cdc565b5060808201518160040160006101000a81548160ff02191690836002811115610329576103286113aa565b5b02179055509050506006839080600181540180825580915050600190039060005260206000200160009091909190916101000a81548173ffffffffffffffffffffffffffffffffffffffff021916908373ffffffffffffffffffffffffffffffffffffffff16021790555050505050565b6060600060025467ffffffffffffffff8111156103ba576103b9611437565b5b6040519080825280602002602001820160405280156103f357816020015b6103e0610d62565b8152602001906001900390816103d85790505b50905060005b60025481101561067b57600360006006838154811061041b5761041a611408565b5b9060005260206000200160009054906101000a900473ffffffffffffffffffffffffffffffffffffffff1673ffffffffffffffffffffffffffffffffffffffff1673ffffffffffffffffffffffffffffffffffffffff1681526020019081526020016000206040518060a0016040529081600082015481526020016001820180546104a5906112cf565b80601f01602080910402602001604051908101604052809291908181526020018280546104d1906112cf565b801561051e5780601f106104f35761010080835404028352916020019161051e565b820191906000526020600020905b81548152906001019060200180831161050157829003601f168201915b505050505081526020016002820160009054906101000a900473ffffffffffffffffffffffffffffffffffffffff1673ffffffffffffffffffffffffffffffffffffffff1673ffffffffffffffffffffffffffffffffffffffff16815260200160038201805461058d906112cf565b80601f01602080910402602001604051908101604052809291908181526020018280546105b9906112cf565b80156106065780601f106105db57610100808354040283529160200191610606565b820191906000526020600020905b8154815290600101906020018083116105e957829003601f168201915b505050505081526020016004820160009054906101000a900460ff166002811115610634576106336113aa565b5b6002811115610646576106456113aa565b5b8152505082828151811061065d5761065c611408565b5b6020026020010181905250808061067390611332565b9150506103f9565b508091505090565b600080600090506001600281111561069e5761069d6113aa565b5b600460008573ffffffffffffffffffffffffffffffffffffffff1673ffffffffffffffffffffffffffffffffffffffff16815260200190815260200160002060040160009054906101000a900460ff166002811115610700576106ff6113aa565b5b14905080915050919050565b3373ffffffffffffffffffffffffffffffffffffffff1660008054906101000a900473ffffffffffffffffffffffffffffffffffffffff1673ffffffffffffffffffffffffffffffffffffffff161461079a576040517f08c379a0000000000000000000000000000000000000000000000000000000008152600401610791906110ee565b60405180910390fd5b600180546107a891906111ca565b60018190555060006040518060a0016040528060015481526020018581526020018473ffffffffffffffffffffffffffffffffffffffff168152602001838152602001600160028111156107ff576107fe6113aa565b5b815250905080600460008573ffffffffffffffffffffffffffffffffffffffff1673ffffffffffffffffffffffffffffffffffffffff16815260200190815260200160002060008201518160000155602082015181600101908051906020019061086a929190610cdc565b5060408201518160020160006101000a81548173ffffffffffffffffffffffffffffffffffffffff021916908373ffffffffffffffffffffffffffffffffffffffff16021790555060608201518160030190805190602001906108ce929190610cdc565b5060808201518160040160006101000a81548160ff021916908360028111156108fa576108f96113aa565b5b02179055509050506005839080600181540180825580915050600190039060005260206000200160009091909190916101000a81548173ffffffffffffffffffffffffffffffffffffffff021916908373ffffffffffffffffffffffffffffffffffffffff16021790555050505050565b60008060009050600280811115610985576109846113aa565b5b600360008573ffffffffffffffffffffffffffffffffffffffff1673ffffffffffffffffffffffffffffffffffffffff16815260200190815260200160002060040160009054906101000a900460ff1660028111156109e7576109e66113aa565b5b14905080915050919050565b6060600060015467ffffffffffffffff811115610a1357610a12611437565b5b604051908082528060200260200182016040528015610a4c57816020015b610a39610d62565b815260200190600190039081610a315790505b50905060005b600154811015610cd4576004600060058381548110610a7457610a73611408565b5b9060005260206000200160009054906101000a900473ffffffffffffffffffffffffffffffffffffffff1673ffffffffffffffffffffffffffffffffffffffff1673ffffffffffffffffffffffffffffffffffffffff1681526020019081526020016000206040518060a001604052908160008201548152602001600182018054610afe906112cf565b80601f0160208091040260200160405190810160405280929190818152602001828054610b2a906112cf565b8015610b775780601f10610b4c57610100808354040283529160200191610b77565b820191906000526020600020905b815481529060010190602001808311610b5a57829003601f168201915b505050505081526020016002820160009054906101000a900473ffffffffffffffffffffffffffffffffffffffff1673ffffffffffffffffffffffffffffffffffffffff1673ffffffffffffffffffffffffffffffffffffffff168152602001600382018054610be6906112cf565b80601f0160208091040260200160405190810160405280929190818152602001828054610c12906112cf565b8015610c5f5780601f10610c3457610100808354040283529160200191610c5f565b820191906000526020600020905b815481529060010190602001808311610c4257829003601f168201915b505050505081526020016004820160009054906101000a900460ff166002811115610c8d57610c8c6113aa565b5b6002811115610c9f57610c9e6113aa565b5b81525050828281518110610cb657610cb5611408565b5b60200260200101819052508080610ccc90611332565b915050610a52565b508091505090565b828054610ce8906112cf565b90600052602060002090601f016020900481019282610d0a5760008555610d51565b82601f10610d2357805160ff1916838001178555610d51565b82800160010185558215610d51579182015b82811115610d50578251825591602001919060010190610d35565b5b509050610d5e9190610db9565b5090565b6040518060a001604052806000815260200160608152602001600073ffffffffffffffffffffffffffffffffffffffff1681526020016060815260200160006002811115610db357610db26113aa565b5b81525090565b5b80821115610dd2576000816000905550600101610dba565b5090565b6000610de9610de484611133565b61110e565b905082815260208101848484011115610e0557610e0461146b565b5b610e1084828561128d565b509392505050565b600081359050610e27816114c8565b92915050565b600082601f830112610e4257610e41611466565b5b8135610e52848260208601610dd6565b91505092915050565b600060208284031215610e7157610e70611475565b5b6000610e7f84828501610e18565b91505092915050565b600080600060608486031215610ea157610ea0611475565b5b600084013567ffffffffffffffff811115610ebf57610ebe611470565b5b610ecb86828701610e2d565b9350506020610edc86828701610e18565b925050604084013567ffffffffffffffff811115610efd57610efc611470565b5b610f0986828701610e2d565b9150509250925092565b6000610f1f8383611025565b905092915050565b610f3081611220565b82525050565b6000610f4182611174565b610f4b8185611197565b935083602082028501610f5d85611164565b8060005b85811015610f995784840389528151610f7a8582610f13565b9450610f858361118a565b925060208a01995050600181019050610f61565b50829750879550505050505092915050565b610fb481611232565b82525050565b610fc38161127b565b82525050565b6000610fd48261117f565b610fde81856111a8565b9350610fee81856020860161129c565b610ff78161147a565b840191505092915050565b600061100f600a836111b9565b915061101a8261148b565b602082019050919050565b600060a08301600083015161103d60008601826110a2565b50602083015184820360208601526110558282610fc9565b915050604083015161106a6040860182610f27565b50606083015184820360608601526110828282610fc9565b91505060808301516110976080860182610fba565b508091505092915050565b6110ab81611271565b82525050565b600060208201905081810360008301526110cb8184610f36565b905092915050565b60006020820190506110e86000830184610fab565b92915050565b6000602082019050818103600083015261110781611002565b9050919050565b6000611118611129565b90506111248282611301565b919050565b6000604051905090565b600067ffffffffffffffff82111561114e5761114d611437565b5b6111578261147a565b9050602081019050919050565b6000819050602082019050919050565b600081519050919050565b600081519050919050565b6000602082019050919050565b600082825260208201905092915050565b600082825260208201905092915050565b600082825260208201905092915050565b60006111d582611271565b91506111e083611271565b9250827fffffffffffffffffffffffffffffffffffffffffffffffffffffffffffffffff038211156112155761121461137b565b5b828201905092915050565b600061122b82611251565b9050919050565b60008115159050919050565b600081905061124c826114b4565b919050565b600073ffffffffffffffffffffffffffffffffffffffff82169050919050565b6000819050919050565b60006112868261123e565b9050919050565b82818337600083830152505050565b60005b838110156112ba57808201518184015260208101905061129f565b838111156112c9576000848401525b50505050565b600060028204905060018216806112e757607f821691505b602082108114156112fb576112fa6113d9565b5b50919050565b61130a8261147a565b810181811067ffffffffffffffff8211171561132957611328611437565b5b80604052505050565b600061133d82611271565b91507fffffffffffffffffffffffffffffffffffffffffffffffffffffffffffffffff8214156113705761136f61137b565b5b600182019050919050565b7f4e487b7100000000000000000000000000000000000000000000000000000000600052601160045260246000fd5b7f4e487b7100000000000000000000000000000000000000000000000000000000600052602160045260246000fd5b7f4e487b7100000000000000000000000000000000000000000000000000000000600052602260045260246000fd5b7f4e487b7100000000000000000000000000000000000000000000000000000000600052603260045260246000fd5b7f4e487b7100000000000000000000000000000000000000000000000000000000600052604160045260246000fd5b600080fd5b600080fd5b600080fd5b600080fd5b6000601f19601f8301169050919050565b7f41646d696e204f6e6c7900000000000000000000000000000000000000000000600082015250565b600381106114c5576114c46113aa565b5b50565b6114d181611220565b81146114dc57600080fd5b5056fea2646970667358221220c3ca1986d0b5224b0f0c582e31ef27a157087a3f8fa1dc2e460556e0cff0556864736f6c63430008070033",
					"opcodes": "PUSH1 0x80 PUSH1 0x40 MSTORE PUSH1 0x0 PUSH1 0x1 SSTORE PUSH1 0x0 PUSH1 0x2 SSTORE CALLVALUE DUP1 ISZERO PUSH2 0x1A JUMPI PUSH1 0x0 DUP1 REVERT JUMPDEST POP CALLER PUSH1 0x0 DUP1 PUSH2 0x100 EXP DUP2 SLOAD DUP2 PUSH20 0xFFFFFFFFFFFFFFFFFFFFFFFFFFFFFFFFFFFFFFFF MUL NOT AND SWAP1 DUP4 PUSH20 0xFFFFFFFFFFFFFFFFFFFFFFFFFFFFFFFFFFFFFFFF AND MUL OR SWAP1 SSTORE POP PUSH2 0x1515 DUP1 PUSH2 0x6A PUSH1 0x0 CODECOPY PUSH1 0x0 RETURN INVALID PUSH1 0x80 PUSH1 0x40 MSTORE CALLVALUE DUP1 ISZERO PUSH2 0x10 JUMPI PUSH1 0x0 DUP1 REVERT JUMPDEST POP PUSH1 0x4 CALLDATASIZE LT PUSH2 0x62 JUMPI PUSH1 0x0 CALLDATALOAD PUSH1 0xE0 SHR DUP1 PUSH4 0x53FF76C EQ PUSH2 0x67 JUMPI DUP1 PUSH4 0x32ABCDBE EQ PUSH2 0x83 JUMPI DUP1 PUSH4 0x3314168C EQ PUSH2 0xA1 JUMPI DUP1 PUSH4 0xA3BEE99A EQ PUSH2 0xD1 JUMPI DUP1 PUSH4 0xE701C350 EQ PUSH2 0xED JUMPI DUP1 PUSH4 0xEE6FC3B4 EQ PUSH2 0x11D JUMPI JUMPDEST PUSH1 0x0 DUP1 REVERT JUMPDEST PUSH2 0x81 PUSH1 0x4 DUP1 CALLDATASIZE SUB DUP2 ADD SWAP1 PUSH2 0x7C SWAP2 SWAP1 PUSH2 0xE88 JUMP JUMPDEST PUSH2 0x13B JUMP JUMPDEST STOP JUMPDEST PUSH2 0x8B PUSH2 0x39A JUMP JUMPDEST PUSH1 0x40 MLOAD PUSH2 0x98 SWAP2 SWAP1 PUSH2 0x10B1 JUMP JUMPDEST PUSH1 0x40 MLOAD DUP1 SWAP2 SUB SWAP1 RETURN JUMPDEST PUSH2 0xBB PUSH1 0x4 DUP1 CALLDATASIZE SUB DUP2 ADD SWAP1 PUSH2 0xB6 SWAP2 SWAP1 PUSH2 0xE5B JUMP JUMPDEST PUSH2 0x683 JUMP JUMPDEST PUSH1 0x40 MLOAD PUSH2 0xC8 SWAP2 SWAP1 PUSH2 0x10D3 JUMP JUMPDEST PUSH1 0x40 MLOAD DUP1 SWAP2 SUB SWAP1 RETURN JUMPDEST PUSH2 0xEB PUSH1 0x4 DUP1 CALLDATASIZE SUB DUP2 ADD SWAP1 PUSH2 0xE6 SWAP2 SWAP1 PUSH2 0xE88 JUMP JUMPDEST PUSH2 0x70C JUMP JUMPDEST STOP JUMPDEST PUSH2 0x107 PUSH1 0x4 DUP1 CALLDATASIZE SUB DUP2 ADD SWAP1 PUSH2 0x102 SWAP2 SWAP1 PUSH2 0xE5B JUMP JUMPDEST PUSH2 0x96B JUMP JUMPDEST PUSH1 0x40 MLOAD PUSH2 0x114 SWAP2 SWAP1 PUSH2 0x10D3 JUMP JUMPDEST PUSH1 0x40 MLOAD DUP1 SWAP2 SUB SWAP1 RETURN JUMPDEST PUSH2 0x125 PUSH2 0x9F3 JUMP JUMPDEST PUSH1 0x40 MLOAD PUSH2 0x132 SWAP2 SWAP1 PUSH2 0x10B1 JUMP JUMPDEST PUSH1 0x40 MLOAD DUP1 SWAP2 SUB SWAP1 RETURN JUMPDEST CALLER PUSH20 0xFFFFFFFFFFFFFFFFFFFFFFFFFFFFFFFFFFFFFFFF AND PUSH1 0x0 DUP1 SLOAD SWAP1 PUSH2 0x100 EXP SWAP1 DIV PUSH20 0xFFFFFFFFFFFFFFFFFFFFFFFFFFFFFFFFFFFFFFFF AND PUSH20 0xFFFFFFFFFFFFFFFFFFFFFFFFFFFFFFFFFFFFFFFF AND EQ PUSH2 0x1C9 JUMPI PUSH1 0x40 MLOAD PUSH32 0x8C379A000000000000000000000000000000000000000000000000000000000 DUP2 MSTORE PUSH1 0x4 ADD PUSH2 0x1C0 SWAP1 PUSH2 0x10EE JUMP JUMPDEST PUSH1 0x40 MLOAD DUP1 SWAP2 SUB SWAP1 REVERT JUMPDEST PUSH1 0x1 PUSH1 0x2 SLOAD PUSH2 0x1D8 SWAP2 SWAP1 PUSH2 0x11CA JUMP JUMPDEST PUSH1 0x2 DUP2 SWAP1 SSTORE POP PUSH1 0x0 PUSH1 0x40 MLOAD DUP1 PUSH1 0xA0 ADD PUSH1 0x40 MSTORE DUP1 PUSH1 0x2 SLOAD DUP2 MSTORE PUSH1 0x20 ADD DUP6 DUP2 MSTORE PUSH1 0x20 ADD DUP5 PUSH20 0xFFFFFFFFFFFFFFFFFFFFFFFFFFFFFFFFFFFFFFFF AND DUP2 MSTORE PUSH1 0x20 ADD DUP4 DUP2 MSTORE PUSH1 0x20 ADD PUSH1 0x2 DUP1 DUP2 GT ISZERO PUSH2 0x22E JUMPI PUSH2 0x22D PUSH2 0x13AA JUMP JUMPDEST JUMPDEST DUP2 MSTORE POP SWAP1 POP DUP1 PUSH1 0x3 PUSH1 0x0 DUP6 PUSH20 0xFFFFFFFFFFFFFFFFFFFFFFFFFFFFFFFFFFFFFFFF AND PUSH20 0xFFFFFFFFFFFFFFFFFFFFFFFFFFFFFFFFFFFFFFFF AND DUP2 MSTORE PUSH1 0x20 ADD SWAP1 DUP2 MSTORE PUSH1 0x20 ADD PUSH1 0x0 KECCAK256 PUSH1 0x0 DUP3 ADD MLOAD DUP2 PUSH1 0x0 ADD SSTORE PUSH1 0x20 DUP3 ADD MLOAD DUP2 PUSH1 0x1 ADD SWAP1 DUP1 MLOAD SWAP1 PUSH1 0x20 ADD SWAP1 PUSH2 0x299 SWAP3 SWAP2 SWAP1 PUSH2 0xCDC JUMP JUMPDEST POP PUSH1 0x40 DUP3 ADD MLOAD DUP2 PUSH1 0x2 ADD PUSH1 0x0 PUSH2 0x100 EXP DUP2 SLOAD DUP2 PUSH20 0xFFFFFFFFFFFFFFFFFFFFFFFFFFFFFFFFFFFFFFFF MUL NOT AND SWAP1 DUP4 PUSH20 0xFFFFFFFFFFFFFFFFFFFFFFFFFFFFFFFFFFFFFFFF AND MUL OR SWAP1 SSTORE POP PUSH1 0x60 DUP3 ADD MLOAD DUP2 PUSH1 0x3 ADD SWAP1 DUP1 MLOAD SWAP1 PUSH1 0x20 ADD SWAP1 PUSH2 0x2FD SWAP3 SWAP2 SWAP1 PUSH2 0xCDC JUMP JUMPDEST POP PUSH1 0x80 DUP3 ADD MLOAD DUP2 PUSH1 0x4 ADD PUSH1 0x0 PUSH2 0x100 EXP DUP2 SLOAD DUP2 PUSH1 0xFF MUL NOT AND SWAP1 DUP4 PUSH1 0x2 DUP2 GT ISZERO PUSH2 0x329 JUMPI PUSH2 0x328 PUSH2 0x13AA JUMP JUMPDEST JUMPDEST MUL OR SWAP1 SSTORE POP SWAP1 POP POP PUSH1 0x6 DUP4 SWAP1 DUP1 PUSH1 0x1 DUP2 SLOAD ADD DUP1 DUP3 SSTORE DUP1 SWAP2 POP POP PUSH1 0x1 SWAP1 SUB SWAP1 PUSH1 0x0 MSTORE PUSH1 0x20 PUSH1 0x0 KECCAK256 ADD PUSH1 0x0 SWAP1 SWAP2 SWAP1 SWAP2 SWAP1 SWAP2 PUSH2 0x100 EXP DUP2 SLOAD DUP2 PUSH20 0xFFFFFFFFFFFFFFFFFFFFFFFFFFFFFFFFFFFFFFFF MUL NOT AND SWAP1 DUP4 PUSH20 0xFFFFFFFFFFFFFFFFFFFFFFFFFFFFFFFFFFFFFFFF AND MUL OR SWAP1 SSTORE POP POP POP POP POP JUMP JUMPDEST PUSH1 0x60 PUSH1 0x0 PUSH1 0x2 SLOAD PUSH8 0xFFFFFFFFFFFFFFFF DUP2 GT ISZERO PUSH2 0x3BA JUMPI PUSH2 0x3B9 PUSH2 0x1437 JUMP JUMPDEST JUMPDEST PUSH1 0x40 MLOAD SWAP1 DUP1 DUP3 MSTORE DUP1 PUSH1 0x20 MUL PUSH1 0x20 ADD DUP3 ADD PUSH1 0x40 MSTORE DUP1 ISZERO PUSH2 0x3F3 JUMPI DUP2 PUSH1 0x20 ADD JUMPDEST PUSH2 0x3E0 PUSH2 0xD62 JUMP JUMPDEST DUP2 MSTORE PUSH1 0x20 ADD SWAP1 PUSH1 0x1 SWAP1 SUB SWAP1 DUP2 PUSH2 0x3D8 JUMPI SWAP1 POP JUMPDEST POP SWAP1 POP PUSH1 0x0 JUMPDEST PUSH1 0x2 SLOAD DUP2 LT ISZERO PUSH2 0x67B JUMPI PUSH1 0x3 PUSH1 0x0 PUSH1 0x6 DUP4 DUP2 SLOAD DUP2 LT PUSH2 0x41B JUMPI PUSH2 0x41A PUSH2 0x1408 JUMP JUMPDEST JUMPDEST SWAP1 PUSH1 0x0 MSTORE PUSH1 0x20 PUSH1 0x0 KECCAK256 ADD PUSH1 0x0 SWAP1 SLOAD SWAP1 PUSH2 0x100 EXP SWAP1 DIV PUSH20 0xFFFFFFFFFFFFFFFFFFFFFFFFFFFFFFFFFFFFFFFF AND PUSH20 0xFFFFFFFFFFFFFFFFFFFFFFFFFFFFFFFFFFFFFFFF AND PUSH20 0xFFFFFFFFFFFFFFFFFFFFFFFFFFFFFFFFFFFFFFFF AND DUP2 MSTORE PUSH1 0x20 ADD SWAP1 DUP2 MSTORE PUSH1 0x20 ADD PUSH1 0x0 KECCAK256 PUSH1 0x40 MLOAD DUP1 PUSH1 0xA0 ADD PUSH1 0x40 MSTORE SWAP1 DUP2 PUSH1 0x0 DUP3 ADD SLOAD DUP2 MSTORE PUSH1 0x20 ADD PUSH1 0x1 DUP3 ADD DUP1 SLOAD PUSH2 0x4A5 SWAP1 PUSH2 0x12CF JUMP JUMPDEST DUP1 PUSH1 0x1F ADD PUSH1 0x20 DUP1 SWAP2 DIV MUL PUSH1 0x20 ADD PUSH1 0x40 MLOAD SWAP1 DUP2 ADD PUSH1 0x40 MSTORE DUP1 SWAP3 SWAP2 SWAP1 DUP2 DUP2 MSTORE PUSH1 0x20 ADD DUP3 DUP1 SLOAD PUSH2 0x4D1 SWAP1 PUSH2 0x12CF JUMP JUMPDEST DUP1 ISZERO PUSH2 0x51E JUMPI DUP1 PUSH1 0x1F LT PUSH2 0x4F3 JUMPI PUSH2 0x100 DUP1 DUP4 SLOAD DIV MUL DUP4 MSTORE SWAP2 PUSH1 0x20 ADD SWAP2 PUSH2 0x51E JUMP JUMPDEST DUP3 ADD SWAP2 SWAP1 PUSH1 0x0 MSTORE PUSH1 0x20 PUSH1 0x0 KECCAK256 SWAP1 JUMPDEST DUP2 SLOAD DUP2 MSTORE SWAP1 PUSH1 0x1 ADD SWAP1 PUSH1 0x20 ADD DUP1 DUP4 GT PUSH2 0x501 JUMPI DUP3 SWAP1 SUB PUSH1 0x1F AND DUP3 ADD SWAP2 JUMPDEST POP POP POP POP POP DUP2 MSTORE PUSH1 0x20 ADD PUSH1 0x2 DUP3 ADD PUSH1 0x0 SWAP1 SLOAD SWAP1 PUSH2 0x100 EXP SWAP1 DIV PUSH20 0xFFFFFFFFFFFFFFFFFFFFFFFFFFFFFFFFFFFFFFFF AND PUSH20 0xFFFFFFFFFFFFFFFFFFFFFFFFFFFFFFFFFFFFFFFF AND PUSH20 0xFFFFFFFFFFFFFFFFFFFFFFFFFFFFFFFFFFFFFFFF AND DUP2 MSTORE PUSH1 0x20 ADD PUSH1 0x3 DUP3 ADD DUP1 SLOAD PUSH2 0x58D SWAP1 PUSH2 0x12CF JUMP JUMPDEST DUP1 PUSH1 0x1F ADD PUSH1 0x20 DUP1 SWAP2 DIV MUL PUSH1 0x20 ADD PUSH1 0x40 MLOAD SWAP1 DUP2 ADD PUSH1 0x40 MSTORE DUP1 SWAP3 SWAP2 SWAP1 DUP2 DUP2 MSTORE PUSH1 0x20 ADD DUP3 DUP1 SLOAD PUSH2 0x5B9 SWAP1 PUSH2 0x12CF JUMP JUMPDEST DUP1 ISZERO PUSH2 0x606 JUMPI DUP1 PUSH1 0x1F LT PUSH2 0x5DB JUMPI PUSH2 0x100 DUP1 DUP4 SLOAD DIV MUL DUP4 MSTORE SWAP2 PUSH1 0x20 ADD SWAP2 PUSH2 0x606 JUMP JUMPDEST DUP3 ADD SWAP2 SWAP1 PUSH1 0x0 MSTORE PUSH1 0x20 PUSH1 0x0 KECCAK256 SWAP1 JUMPDEST DUP2 SLOAD DUP2 MSTORE SWAP1 PUSH1 0x1 ADD SWAP1 PUSH1 0x20 ADD DUP1 DUP4 GT PUSH2 0x5E9 JUMPI DUP3 SWAP1 SUB PUSH1 0x1F AND DUP3 ADD SWAP2 JUMPDEST POP POP POP POP POP DUP2 MSTORE PUSH1 0x20 ADD PUSH1 0x4 DUP3 ADD PUSH1 0x0 SWAP1 SLOAD SWAP1 PUSH2 0x100 EXP SWAP1 DIV PUSH1 0xFF AND PUSH1 0x2 DUP2 GT ISZERO PUSH2 0x634 JUMPI PUSH2 0x633 PUSH2 0x13AA JUMP JUMPDEST JUMPDEST PUSH1 0x2 DUP2 GT ISZERO PUSH2 0x646 JUMPI PUSH2 0x645 PUSH2 0x13AA JUMP JUMPDEST JUMPDEST DUP2 MSTORE POP POP DUP3 DUP3 DUP2 MLOAD DUP2 LT PUSH2 0x65D JUMPI PUSH2 0x65C PUSH2 0x1408 JUMP JUMPDEST JUMPDEST PUSH1 0x20 MUL PUSH1 0x20 ADD ADD DUP2 SWAP1 MSTORE POP DUP1 DUP1 PUSH2 0x673 SWAP1 PUSH2 0x1332 JUMP JUMPDEST SWAP2 POP POP PUSH2 0x3F9 JUMP JUMPDEST POP DUP1 SWAP2 POP POP SWAP1 JUMP JUMPDEST PUSH1 0x0 DUP1 PUSH1 0x0 SWAP1 POP PUSH1 0x1 PUSH1 0x2 DUP2 GT ISZERO PUSH2 0x69E JUMPI PUSH2 0x69D PUSH2 0x13AA JUMP JUMPDEST JUMPDEST PUSH1 0x4 PUSH1 0x0 DUP6 PUSH20 0xFFFFFFFFFFFFFFFFFFFFFFFFFFFFFFFFFFFFFFFF AND PUSH20 0xFFFFFFFFFFFFFFFFFFFFFFFFFFFFFFFFFFFFFFFF AND DUP2 MSTORE PUSH1 0x20 ADD SWAP1 DUP2 MSTORE PUSH1 0x20 ADD PUSH1 0x0 KECCAK256 PUSH1 0x4 ADD PUSH1 0x0 SWAP1 SLOAD SWAP1 PUSH2 0x100 EXP SWAP1 DIV PUSH1 0xFF AND PUSH1 0x2 DUP2 GT ISZERO PUSH2 0x700 JUMPI PUSH2 0x6FF PUSH2 0x13AA JUMP JUMPDEST JUMPDEST EQ SWAP1 POP DUP1 SWAP2 POP POP SWAP2 SWAP1 POP JUMP JUMPDEST CALLER PUSH20 0xFFFFFFFFFFFFFFFFFFFFFFFFFFFFFFFFFFFFFFFF AND PUSH1 0x0 DUP1 SLOAD SWAP1 PUSH2 0x100 EXP SWAP1 DIV PUSH20 0xFFFFFFFFFFFFFFFFFFFFFFFFFFFFFFFFFFFFFFFF AND PUSH20 0xFFFFFFFFFFFFFFFFFFFFFFFFFFFFFFFFFFFFFFFF AND EQ PUSH2 0x79A JUMPI PUSH1 0x40 MLOAD PUSH32 0x8C379A000000000000000000000000000000000000000000000000000000000 DUP2 MSTORE PUSH1 0x4 ADD PUSH2 0x791 SWAP1 PUSH2 0x10EE JUMP JUMPDEST PUSH1 0x40 MLOAD DUP1 SWAP2 SUB SWAP1 REVERT JUMPDEST PUSH1 0x1 DUP1 SLOAD PUSH2 0x7A8 SWAP2 SWAP1 PUSH2 0x11CA JUMP JUMPDEST PUSH1 0x1 DUP2 SWAP1 SSTORE POP PUSH1 0x0 PUSH1 0x40 MLOAD DUP1 PUSH1 0xA0 ADD PUSH1 0x40 MSTORE DUP1 PUSH1 0x1 SLOAD DUP2 MSTORE PUSH1 0x20 ADD DUP6 DUP2 MSTORE PUSH1 0x20 ADD DUP5 PUSH20 0xFFFFFFFFFFFFFFFFFFFFFFFFFFFFFFFFFFFFFFFF AND DUP2 MSTORE PUSH1 0x20 ADD DUP4 DUP2 MSTORE PUSH1 0x20 ADD PUSH1 0x1 PUSH1 0x2 DUP2 GT ISZERO PUSH2 0x7FF JUMPI PUSH2 0x7FE PUSH2 0x13AA JUMP JUMPDEST JUMPDEST DUP2 MSTORE POP SWAP1 POP DUP1 PUSH1 0x4 PUSH1 0x0 DUP6 PUSH20 0xFFFFFFFFFFFFFFFFFFFFFFFFFFFFFFFFFFFFFFFF AND PUSH20 0xFFFFFFFFFFFFFFFFFFFFFFFFFFFFFFFFFFFFFFFF AND DUP2 MSTORE PUSH1 0x20 ADD SWAP1 DUP2 MSTORE PUSH1 0x20 ADD PUSH1 0x0 KECCAK256 PUSH1 0x0 DUP3 ADD MLOAD DUP2 PUSH1 0x0 ADD SSTORE PUSH1 0x20 DUP3 ADD MLOAD DUP2 PUSH1 0x1 ADD SWAP1 DUP1 MLOAD SWAP1 PUSH1 0x20 ADD SWAP1 PUSH2 0x86A SWAP3 SWAP2 SWAP1 PUSH2 0xCDC JUMP JUMPDEST POP PUSH1 0x40 DUP3 ADD MLOAD DUP2 PUSH1 0x2 ADD PUSH1 0x0 PUSH2 0x100 EXP DUP2 SLOAD DUP2 PUSH20 0xFFFFFFFFFFFFFFFFFFFFFFFFFFFFFFFFFFFFFFFF MUL NOT AND SWAP1 DUP4 PUSH20 0xFFFFFFFFFFFFFFFFFFFFFFFFFFFFFFFFFFFFFFFF AND MUL OR SWAP1 SSTORE POP PUSH1 0x60 DUP3 ADD MLOAD DUP2 PUSH1 0x3 ADD SWAP1 DUP1 MLOAD SWAP1 PUSH1 0x20 ADD SWAP1 PUSH2 0x8CE SWAP3 SWAP2 SWAP1 PUSH2 0xCDC JUMP JUMPDEST POP PUSH1 0x80 DUP3 ADD MLOAD DUP2 PUSH1 0x4 ADD PUSH1 0x0 PUSH2 0x100 EXP DUP2 SLOAD DUP2 PUSH1 0xFF MUL NOT AND SWAP1 DUP4 PUSH1 0x2 DUP2 GT ISZERO PUSH2 0x8FA JUMPI PUSH2 0x8F9 PUSH2 0x13AA JUMP JUMPDEST JUMPDEST MUL OR SWAP1 SSTORE POP SWAP1 POP POP PUSH1 0x5 DUP4 SWAP1 DUP1 PUSH1 0x1 DUP2 SLOAD ADD DUP1 DUP3 SSTORE DUP1 SWAP2 POP POP PUSH1 0x1 SWAP1 SUB SWAP1 PUSH1 0x0 MSTORE PUSH1 0x20 PUSH1 0x0 KECCAK256 ADD PUSH1 0x0 SWAP1 SWAP2 SWAP1 SWAP2 SWAP1 SWAP2 PUSH2 0x100 EXP DUP2 SLOAD DUP2 PUSH20 0xFFFFFFFFFFFFFFFFFFFFFFFFFFFFFFFFFFFFFFFF MUL NOT AND SWAP1 DUP4 PUSH20 0xFFFFFFFFFFFFFFFFFFFFFFFFFFFFFFFFFFFFFFFF AND MUL OR SWAP1 SSTORE POP POP POP POP POP JUMP JUMPDEST PUSH1 0x0 DUP1 PUSH1 0x0 SWAP1 POP PUSH1 0x2 DUP1 DUP2 GT ISZERO PUSH2 0x985 JUMPI PUSH2 0x984 PUSH2 0x13AA JUMP JUMPDEST JUMPDEST PUSH1 0x3 PUSH1 0x0 DUP6 PUSH20 0xFFFFFFFFFFFFFFFFFFFFFFFFFFFFFFFFFFFFFFFF AND PUSH20 0xFFFFFFFFFFFFFFFFFFFFFFFFFFFFFFFFFFFFFFFF AND DUP2 MSTORE PUSH1 0x20 ADD SWAP1 DUP2 MSTORE PUSH1 0x20 ADD PUSH1 0x0 KECCAK256 PUSH1 0x4 ADD PUSH1 0x0 SWAP1 SLOAD SWAP1 PUSH2 0x100 EXP SWAP1 DIV PUSH1 0xFF AND PUSH1 0x2 DUP2 GT ISZERO PUSH2 0x9E7 JUMPI PUSH2 0x9E6 PUSH2 0x13AA JUMP JUMPDEST JUMPDEST EQ SWAP1 POP DUP1 SWAP2 POP POP SWAP2 SWAP1 POP JUMP JUMPDEST PUSH1 0x60 PUSH1 0x0 PUSH1 0x1 SLOAD PUSH8 0xFFFFFFFFFFFFFFFF DUP2 GT ISZERO PUSH2 0xA13 JUMPI PUSH2 0xA12 PUSH2 0x1437 JUMP JUMPDEST JUMPDEST PUSH1 0x40 MLOAD SWAP1 DUP1 DUP3 MSTORE DUP1 PUSH1 0x20 MUL PUSH1 0x20 ADD DUP3 ADD PUSH1 0x40 MSTORE DUP1 ISZERO PUSH2 0xA4C JUMPI DUP2 PUSH1 0x20 ADD JUMPDEST PUSH2 0xA39 PUSH2 0xD62 JUMP JUMPDEST DUP2 MSTORE PUSH1 0x20 ADD SWAP1 PUSH1 0x1 SWAP1 SUB SWAP1 DUP2 PUSH2 0xA31 JUMPI SWAP1 POP JUMPDEST POP SWAP1 POP PUSH1 0x0 JUMPDEST PUSH1 0x1 SLOAD DUP2 LT ISZERO PUSH2 0xCD4 JUMPI PUSH1 0x4 PUSH1 0x0 PUSH1 0x5 DUP4 DUP2 SLOAD DUP2 LT PUSH2 0xA74 JUMPI PUSH2 0xA73 PUSH2 0x1408 JUMP JUMPDEST JUMPDEST SWAP1 PUSH1 0x0 MSTORE PUSH1 0x20 PUSH1 0x0 KECCAK256 ADD PUSH1 0x0 SWAP1 SLOAD SWAP1 PUSH2 0x100 EXP SWAP1 DIV PUSH20 0xFFFFFFFFFFFFFFFFFFFFFFFFFFFFFFFFFFFFFFFF AND PUSH20 0xFFFFFFFFFFFFFFFFFFFFFFFFFFFFFFFFFFFFFFFF AND PUSH20 0xFFFFFFFFFFFFFFFFFFFFFFFFFFFFFFFFFFFFFFFF AND DUP2 MSTORE PUSH1 0x20 ADD SWAP1 DUP2 MSTORE PUSH1 0x20 ADD PUSH1 0x0 KECCAK256 PUSH1 0x40 MLOAD DUP1 PUSH1 0xA0 ADD PUSH1 0x40 MSTORE SWAP1 DUP2 PUSH1 0x0 DUP3 ADD SLOAD DUP2 MSTORE PUSH1 0x20 ADD PUSH1 0x1 DUP3 ADD DUP1 SLOAD PUSH2 0xAFE SWAP1 PUSH2 0x12CF JUMP JUMPDEST DUP1 PUSH1 0x1F ADD PUSH1 0x20 DUP1 SWAP2 DIV MUL PUSH1 0x20 ADD PUSH1 0x40 MLOAD SWAP1 DUP2 ADD PUSH1 0x40 MSTORE DUP1 SWAP3 SWAP2 SWAP1 DUP2 DUP2 MSTORE PUSH1 0x20 ADD DUP3 DUP1 SLOAD PUSH2 0xB2A SWAP1 PUSH2 0x12CF JUMP JUMPDEST DUP1 ISZERO PUSH2 0xB77 JUMPI DUP1 PUSH1 0x1F LT PUSH2 0xB4C JUMPI PUSH2 0x100 DUP1 DUP4 SLOAD DIV MUL DUP4 MSTORE SWAP2 PUSH1 0x20 ADD SWAP2 PUSH2 0xB77 JUMP JUMPDEST DUP3 ADD SWAP2 SWAP1 PUSH1 0x0 MSTORE PUSH1 0x20 PUSH1 0x0 KECCAK256 SWAP1 JUMPDEST DUP2 SLOAD DUP2 MSTORE SWAP1 PUSH1 0x1 ADD SWAP1 PUSH1 0x20 ADD DUP1 DUP4 GT PUSH2 0xB5A JUMPI DUP3 SWAP1 SUB PUSH1 0x1F AND DUP3 ADD SWAP2 JUMPDEST POP POP POP POP POP DUP2 MSTORE PUSH1 0x20 ADD PUSH1 0x2 DUP3 ADD PUSH1 0x0 SWAP1 SLOAD SWAP1 PUSH2 0x100 EXP SWAP1 DIV PUSH20 0xFFFFFFFFFFFFFFFFFFFFFFFFFFFFFFFFFFFFFFFF AND PUSH20 0xFFFFFFFFFFFFFFFFFFFFFFFFFFFFFFFFFFFFFFFF AND PUSH20 0xFFFFFFFFFFFFFFFFFFFFFFFFFFFFFFFFFFFFFFFF AND DUP2 MSTORE PUSH1 0x20 ADD PUSH1 0x3 DUP3 ADD DUP1 SLOAD PUSH2 0xBE6 SWAP1 PUSH2 0x12CF JUMP JUMPDEST DUP1 PUSH1 0x1F ADD PUSH1 0x20 DUP1 SWAP2 DIV MUL PUSH1 0x20 ADD PUSH1 0x40 MLOAD SWAP1 DUP2 ADD PUSH1 0x40 MSTORE DUP1 SWAP3 SWAP2 SWAP1 DUP2 DUP2 MSTORE PUSH1 0x20 ADD DUP3 DUP1 SLOAD PUSH2 0xC12 SWAP1 PUSH2 0x12CF JUMP JUMPDEST DUP1 ISZERO PUSH2 0xC5F JUMPI DUP1 PUSH1 0x1F LT PUSH2 0xC34 JUMPI PUSH2 0x100 DUP1 DUP4 SLOAD DIV MUL DUP4 MSTORE SWAP2 PUSH1 0x20 ADD SWAP2 PUSH2 0xC5F JUMP JUMPDEST DUP3 ADD SWAP2 SWAP1 PUSH1 0x0 MSTORE PUSH1 0x20 PUSH1 0x0 KECCAK256 SWAP1 JUMPDEST DUP2 SLOAD DUP2 MSTORE SWAP1 PUSH1 0x1 ADD SWAP1 PUSH1 0x20 ADD DUP1 DUP4 GT PUSH2 0xC42 JUMPI DUP3 SWAP1 SUB PUSH1 0x1F AND DUP3 ADD SWAP2 JUMPDEST POP POP POP POP POP DUP2 MSTORE PUSH1 0x20 ADD PUSH1 0x4 DUP3 ADD PUSH1 0x0 SWAP1 SLOAD SWAP1 PUSH2 0x100 EXP SWAP1 DIV PUSH1 0xFF AND PUSH1 0x2 DUP2 GT ISZERO PUSH2 0xC8D JUMPI PUSH2 0xC8C PUSH2 0x13AA JUMP JUMPDEST JUMPDEST PUSH1 0x2 DUP2 GT ISZERO PUSH2 0xC9F JUMPI PUSH2 0xC9E PUSH2 0x13AA JUMP JUMPDEST JUMPDEST DUP2 MSTORE POP POP DUP3 DUP3 DUP2 MLOAD DUP2 LT PUSH2 0xCB6 JUMPI PUSH2 0xCB5 PUSH2 0x1408 JUMP JUMPDEST JUMPDEST PUSH1 0x20 MUL PUSH1 0x20 ADD ADD DUP2 SWAP1 MSTORE POP DUP1 DUP1 PUSH2 0xCCC SWAP1 PUSH2 0x1332 JUMP JUMPDEST SWAP2 POP POP PUSH2 0xA52 JUMP JUMPDEST POP DUP1 SWAP2 POP POP SWAP1 JUMP JUMPDEST DUP3 DUP1 SLOAD PUSH2 0xCE8 SWAP1 PUSH2 0x12CF JUMP JUMPDEST SWAP1 PUSH1 0x0 MSTORE PUSH1 0x20 PUSH1 0x0 KECCAK256 SWAP1 PUSH1 0x1F ADD PUSH1 0x20 SWAP1 DIV DUP2 ADD SWAP3 DUP3 PUSH2 0xD0A JUMPI PUSH1 0x0 DUP6 SSTORE PUSH2 0xD51 JUMP JUMPDEST DUP3 PUSH1 0x1F LT PUSH2 0xD23 JUMPI DUP1 MLOAD PUSH1 0xFF NOT AND DUP4 DUP1 ADD OR DUP6 SSTORE PUSH2 0xD51 JUMP JUMPDEST DUP3 DUP1 ADD PUSH1 0x1 ADD DUP6 SSTORE DUP3 ISZERO PUSH2 0xD51 JUMPI SWAP2 DUP3 ADD JUMPDEST DUP3 DUP2 GT ISZERO PUSH2 0xD50 JUMPI DUP3 MLOAD DUP3 SSTORE SWAP2 PUSH1 0x20 ADD SWAP2 SWAP1 PUSH1 0x1 ADD SWAP1 PUSH2 0xD35 JUMP JUMPDEST JUMPDEST POP SWAP1 POP PUSH2 0xD5E SWAP2 SWAP1 PUSH2 0xDB9 JUMP JUMPDEST POP SWAP1 JUMP JUMPDEST PUSH1 0x40 MLOAD DUP1 PUSH1 0xA0 ADD PUSH1 0x40 MSTORE DUP1 PUSH1 0x0 DUP2 MSTORE PUSH1 0x20 ADD PUSH1 0x60 DUP2 MSTORE PUSH1 0x20 ADD PUSH1 0x0 PUSH20 0xFFFFFFFFFFFFFFFFFFFFFFFFFFFFFFFFFFFFFFFF AND DUP2 MSTORE PUSH1 0x20 ADD PUSH1 0x60 DUP2 MSTORE PUSH1 0x20 ADD PUSH1 0x0 PUSH1 0x2 DUP2 GT ISZERO PUSH2 0xDB3 JUMPI PUSH2 0xDB2 PUSH2 0x13AA JUMP JUMPDEST JUMPDEST DUP2 MSTORE POP SWAP1 JUMP JUMPDEST JUMPDEST DUP1 DUP3 GT ISZERO PUSH2 0xDD2 JUMPI PUSH1 0x0 DUP2 PUSH1 0x0 SWAP1 SSTORE POP PUSH1 0x1 ADD PUSH2 0xDBA JUMP JUMPDEST POP SWAP1 JUMP JUMPDEST PUSH1 0x0 PUSH2 0xDE9 PUSH2 0xDE4 DUP5 PUSH2 0x1133 JUMP JUMPDEST PUSH2 0x110E JUMP JUMPDEST SWAP1 POP DUP3 DUP2 MSTORE PUSH1 0x20 DUP2 ADD DUP5 DUP5 DUP5 ADD GT ISZERO PUSH2 0xE05 JUMPI PUSH2 0xE04 PUSH2 0x146B JUMP JUMPDEST JUMPDEST PUSH2 0xE10 DUP5 DUP3 DUP6 PUSH2 0x128D JUMP JUMPDEST POP SWAP4 SWAP3 POP POP POP JUMP JUMPDEST PUSH1 0x0 DUP2 CALLDATALOAD SWAP1 POP PUSH2 0xE27 DUP2 PUSH2 0x14C8 JUMP JUMPDEST SWAP3 SWAP2 POP POP JUMP JUMPDEST PUSH1 0x0 DUP3 PUSH1 0x1F DUP4 ADD SLT PUSH2 0xE42 JUMPI PUSH2 0xE41 PUSH2 0x1466 JUMP JUMPDEST JUMPDEST DUP2 CALLDATALOAD PUSH2 0xE52 DUP5 DUP3 PUSH1 0x20 DUP7 ADD PUSH2 0xDD6 JUMP JUMPDEST SWAP2 POP POP SWAP3 SWAP2 POP POP JUMP JUMPDEST PUSH1 0x0 PUSH1 0x20 DUP3 DUP5 SUB SLT ISZERO PUSH2 0xE71 JUMPI PUSH2 0xE70 PUSH2 0x1475 JUMP JUMPDEST JUMPDEST PUSH1 0x0 PUSH2 0xE7F DUP5 DUP3 DUP6 ADD PUSH2 0xE18 JUMP JUMPDEST SWAP2 POP POP SWAP3 SWAP2 POP POP JUMP JUMPDEST PUSH1 0x0 DUP1 PUSH1 0x0 PUSH1 0x60 DUP5 DUP7 SUB SLT ISZERO PUSH2 0xEA1 JUMPI PUSH2 0xEA0 PUSH2 0x1475 JUMP JUMPDEST JUMPDEST PUSH1 0x0 DUP5 ADD CALLDATALOAD PUSH8 0xFFFFFFFFFFFFFFFF DUP2 GT ISZERO PUSH2 0xEBF JUMPI PUSH2 0xEBE PUSH2 0x1470 JUMP JUMPDEST JUMPDEST PUSH2 0xECB DUP7 DUP3 DUP8 ADD PUSH2 0xE2D JUMP JUMPDEST SWAP4 POP POP PUSH1 0x20 PUSH2 0xEDC DUP7 DUP3 DUP8 ADD PUSH2 0xE18 JUMP JUMPDEST SWAP3 POP POP PUSH1 0x40 DUP5 ADD CALLDATALOAD PUSH8 0xFFFFFFFFFFFFFFFF DUP2 GT ISZERO PUSH2 0xEFD JUMPI PUSH2 0xEFC PUSH2 0x1470 JUMP JUMPDEST JUMPDEST PUSH2 0xF09 DUP7 DUP3 DUP8 ADD PUSH2 0xE2D JUMP JUMPDEST SWAP2 POP POP SWAP3 POP SWAP3 POP SWAP3 JUMP JUMPDEST PUSH1 0x0 PUSH2 0xF1F DUP4 DUP4 PUSH2 0x1025 JUMP JUMPDEST SWAP1 POP SWAP3 SWAP2 POP POP JUMP JUMPDEST PUSH2 0xF30 DUP2 PUSH2 0x1220 JUMP JUMPDEST DUP3 MSTORE POP POP JUMP JUMPDEST PUSH1 0x0 PUSH2 0xF41 DUP3 PUSH2 0x1174 JUMP JUMPDEST PUSH2 0xF4B DUP2 DUP6 PUSH2 0x1197 JUMP JUMPDEST SWAP4 POP DUP4 PUSH1 0x20 DUP3 MUL DUP6 ADD PUSH2 0xF5D DUP6 PUSH2 0x1164 JUMP JUMPDEST DUP1 PUSH1 0x0 JUMPDEST DUP6 DUP2 LT ISZERO PUSH2 0xF99 JUMPI DUP5 DUP5 SUB DUP10 MSTORE DUP2 MLOAD PUSH2 0xF7A DUP6 DUP3 PUSH2 0xF13 JUMP JUMPDEST SWAP5 POP PUSH2 0xF85 DUP4 PUSH2 0x118A JUMP JUMPDEST SWAP3 POP PUSH1 0x20 DUP11 ADD SWAP10 POP POP PUSH1 0x1 DUP2 ADD SWAP1 POP PUSH2 0xF61 JUMP JUMPDEST POP DUP3 SWAP8 POP DUP8 SWAP6 POP POP POP POP POP POP SWAP3 SWAP2 POP POP JUMP JUMPDEST PUSH2 0xFB4 DUP2 PUSH2 0x1232 JUMP JUMPDEST DUP3 MSTORE POP POP JUMP JUMPDEST PUSH2 0xFC3 DUP2 PUSH2 0x127B JUMP JUMPDEST DUP3 MSTORE POP POP JUMP JUMPDEST PUSH1 0x0 PUSH2 0xFD4 DUP3 PUSH2 0x117F JUMP JUMPDEST PUSH2 0xFDE DUP2 DUP6 PUSH2 0x11A8 JUMP JUMPDEST SWAP4 POP PUSH2 0xFEE DUP2 DUP6 PUSH1 0x20 DUP7 ADD PUSH2 0x129C JUMP JUMPDEST PUSH2 0xFF7 DUP2 PUSH2 0x147A JUMP JUMPDEST DUP5 ADD SWAP2 POP POP SWAP3 SWAP2 POP POP JUMP JUMPDEST PUSH1 0x0 PUSH2 0x100F PUSH1 0xA DUP4 PUSH2 0x11B9 JUMP JUMPDEST SWAP2 POP PUSH2 0x101A DUP3 PUSH2 0x148B JUMP JUMPDEST PUSH1 0x20 DUP3 ADD SWAP1 POP SWAP2 SWAP1 POP JUMP JUMPDEST PUSH1 0x0 PUSH1 0xA0 DUP4 ADD PUSH1 0x0 DUP4 ADD MLOAD PUSH2 0x103D PUSH1 0x0 DUP7 ADD DUP3 PUSH2 0x10A2 JUMP JUMPDEST POP PUSH1 0x20 DUP4 ADD MLOAD DUP5 DUP3 SUB PUSH1 0x20 DUP7 ADD MSTORE PUSH2 0x1055 DUP3 DUP3 PUSH2 0xFC9 JUMP JUMPDEST SWAP2 POP POP PUSH1 0x40 DUP4 ADD MLOAD PUSH2 0x106A PUSH1 0x40 DUP7 ADD DUP3 PUSH2 0xF27 JUMP JUMPDEST POP PUSH1 0x60 DUP4 ADD MLOAD DUP5 DUP3 SUB PUSH1 0x60 DUP7 ADD MSTORE PUSH2 0x1082 DUP3 DUP3 PUSH2 0xFC9 JUMP JUMPDEST SWAP2 POP POP PUSH1 0x80 DUP4 ADD MLOAD PUSH2 0x1097 PUSH1 0x80 DUP7 ADD DUP3 PUSH2 0xFBA JUMP JUMPDEST POP DUP1 SWAP2 POP POP SWAP3 SWAP2 POP POP JUMP JUMPDEST PUSH2 0x10AB DUP2 PUSH2 0x1271 JUMP JUMPDEST DUP3 MSTORE POP POP JUMP JUMPDEST PUSH1 0x0 PUSH1 0x20 DUP3 ADD SWAP1 POP DUP2 DUP2 SUB PUSH1 0x0 DUP4 ADD MSTORE PUSH2 0x10CB DUP2 DUP5 PUSH2 0xF36 JUMP JUMPDEST SWAP1 POP SWAP3 SWAP2 POP POP JUMP JUMPDEST PUSH1 0x0 PUSH1 0x20 DUP3 ADD SWAP1 POP PUSH2 0x10E8 PUSH1 0x0 DUP4 ADD DUP5 PUSH2 0xFAB JUMP JUMPDEST SWAP3 SWAP2 POP POP JUMP JUMPDEST PUSH1 0x0 PUSH1 0x20 DUP3 ADD SWAP1 POP DUP2 DUP2 SUB PUSH1 0x0 DUP4 ADD MSTORE PUSH2 0x1107 DUP2 PUSH2 0x1002 JUMP JUMPDEST SWAP1 POP SWAP2 SWAP1 POP JUMP JUMPDEST PUSH1 0x0 PUSH2 0x1118 PUSH2 0x1129 JUMP JUMPDEST SWAP1 POP PUSH2 0x1124 DUP3 DUP3 PUSH2 0x1301 JUMP JUMPDEST SWAP2 SWAP1 POP JUMP JUMPDEST PUSH1 0x0 PUSH1 0x40 MLOAD SWAP1 POP SWAP1 JUMP JUMPDEST PUSH1 0x0 PUSH8 0xFFFFFFFFFFFFFFFF DUP3 GT ISZERO PUSH2 0x114E JUMPI PUSH2 0x114D PUSH2 0x1437 JUMP JUMPDEST JUMPDEST PUSH2 0x1157 DUP3 PUSH2 0x147A JUMP JUMPDEST SWAP1 POP PUSH1 0x20 DUP2 ADD SWAP1 POP SWAP2 SWAP1 POP JUMP JUMPDEST PUSH1 0x0 DUP2 SWAP1 POP PUSH1 0x20 DUP3 ADD SWAP1 POP SWAP2 SWAP1 POP JUMP JUMPDEST PUSH1 0x0 DUP2 MLOAD SWAP1 POP SWAP2 SWAP1 POP JUMP JUMPDEST PUSH1 0x0 DUP2 MLOAD SWAP1 POP SWAP2 SWAP1 POP JUMP JUMPDEST PUSH1 0x0 PUSH1 0x20 DUP3 ADD SWAP1 POP SWAP2 SWAP1 POP JUMP JUMPDEST PUSH1 0x0 DUP3 DUP3 MSTORE PUSH1 0x20 DUP3 ADD SWAP1 POP SWAP3 SWAP2 POP POP JUMP JUMPDEST PUSH1 0x0 DUP3 DUP3 MSTORE PUSH1 0x20 DUP3 ADD SWAP1 POP SWAP3 SWAP2 POP POP JUMP JUMPDEST PUSH1 0x0 DUP3 DUP3 MSTORE PUSH1 0x20 DUP3 ADD SWAP1 POP SWAP3 SWAP2 POP POP JUMP JUMPDEST PUSH1 0x0 PUSH2 0x11D5 DUP3 PUSH2 0x1271 JUMP JUMPDEST SWAP2 POP PUSH2 0x11E0 DUP4 PUSH2 0x1271 JUMP JUMPDEST SWAP3 POP DUP3 PUSH32 0xFFFFFFFFFFFFFFFFFFFFFFFFFFFFFFFFFFFFFFFFFFFFFFFFFFFFFFFFFFFFFFFF SUB DUP3 GT ISZERO PUSH2 0x1215 JUMPI PUSH2 0x1214 PUSH2 0x137B JUMP JUMPDEST JUMPDEST DUP3 DUP3 ADD SWAP1 POP SWAP3 SWAP2 POP POP JUMP JUMPDEST PUSH1 0x0 PUSH2 0x122B DUP3 PUSH2 0x1251 JUMP JUMPDEST SWAP1 POP SWAP2 SWAP1 POP JUMP JUMPDEST PUSH1 0x0 DUP2 ISZERO ISZERO SWAP1 POP SWAP2 SWAP1 POP JUMP JUMPDEST PUSH1 0x0 DUP2 SWAP1 POP PUSH2 0x124C DUP3 PUSH2 0x14B4 JUMP JUMPDEST SWAP2 SWAP1 POP JUMP JUMPDEST PUSH1 0x0 PUSH20 0xFFFFFFFFFFFFFFFFFFFFFFFFFFFFFFFFFFFFFFFF DUP3 AND SWAP1 POP SWAP2 SWAP1 POP JUMP JUMPDEST PUSH1 0x0 DUP2 SWAP1 POP SWAP2 SWAP1 POP JUMP JUMPDEST PUSH1 0x0 PUSH2 0x1286 DUP3 PUSH2 0x123E JUMP JUMPDEST SWAP1 POP SWAP2 SWAP1 POP JUMP JUMPDEST DUP3 DUP2 DUP4 CALLDATACOPY PUSH1 0x0 DUP4 DUP4 ADD MSTORE POP POP POP JUMP JUMPDEST PUSH1 0x0 JUMPDEST DUP4 DUP2 LT ISZERO PUSH2 0x12BA JUMPI DUP1 DUP3 ADD MLOAD DUP2 DUP5 ADD MSTORE PUSH1 0x20 DUP2 ADD SWAP1 POP PUSH2 0x129F JUMP JUMPDEST DUP4 DUP2 GT ISZERO PUSH2 0x12C9 JUMPI PUSH1 0x0 DUP5 DUP5 ADD MSTORE JUMPDEST POP POP POP POP JUMP JUMPDEST PUSH1 0x0 PUSH1 0x2 DUP3 DIV SWAP1 POP PUSH1 0x1 DUP3 AND DUP1 PUSH2 0x12E7 JUMPI PUSH1 0x7F DUP3 AND SWAP2 POP JUMPDEST PUSH1 0x20 DUP3 LT DUP2 EQ ISZERO PUSH2 0x12FB JUMPI PUSH2 0x12FA PUSH2 0x13D9 JUMP JUMPDEST JUMPDEST POP SWAP2 SWAP1 POP JUMP JUMPDEST PUSH2 0x130A DUP3 PUSH2 0x147A JUMP JUMPDEST DUP2 ADD DUP2 DUP2 LT PUSH8 0xFFFFFFFFFFFFFFFF DUP3 GT OR ISZERO PUSH2 0x1329 JUMPI PUSH2 0x1328 PUSH2 0x1437 JUMP JUMPDEST JUMPDEST DUP1 PUSH1 0x40 MSTORE POP POP POP JUMP JUMPDEST PUSH1 0x0 PUSH2 0x133D DUP3 PUSH2 0x1271 JUMP JUMPDEST SWAP2 POP PUSH32 0xFFFFFFFFFFFFFFFFFFFFFFFFFFFFFFFFFFFFFFFFFFFFFFFFFFFFFFFFFFFFFFFF DUP3 EQ ISZERO PUSH2 0x1370 JUMPI PUSH2 0x136F PUSH2 0x137B JUMP JUMPDEST JUMPDEST PUSH1 0x1 DUP3 ADD SWAP1 POP SWAP2 SWAP1 POP JUMP JUMPDEST PUSH32 0x4E487B7100000000000000000000000000000000000000000000000000000000 PUSH1 0x0 MSTORE PUSH1 0x11 PUSH1 0x4 MSTORE PUSH1 0x24 PUSH1 0x0 REVERT JUMPDEST PUSH32 0x4E487B7100000000000000000000000000000000000000000000000000000000 PUSH1 0x0 MSTORE PUSH1 0x21 PUSH1 0x4 MSTORE PUSH1 0x24 PUSH1 0x0 REVERT JUMPDEST PUSH32 0x4E487B7100000000000000000000000000000000000000000000000000000000 PUSH1 0x0 MSTORE PUSH1 0x22 PUSH1 0x4 MSTORE PUSH1 0x24 PUSH1 0x0 REVERT JUMPDEST PUSH32 0x4E487B7100000000000000000000000000000000000000000000000000000000 PUSH1 0x0 MSTORE PUSH1 0x32 PUSH1 0x4 MSTORE PUSH1 0x24 PUSH1 0x0 REVERT JUMPDEST PUSH32 0x4E487B7100000000000000000000000000000000000000000000000000000000 PUSH1 0x0 MSTORE PUSH1 0x41 PUSH1 0x4 MSTORE PUSH1 0x24 PUSH1 0x0 REVERT JUMPDEST PUSH1 0x0 DUP1 REVERT JUMPDEST PUSH1 0x0 DUP1 REVERT JUMPDEST PUSH1 0x0 DUP1 REVERT JUMPDEST PUSH1 0x0 DUP1 REVERT JUMPDEST PUSH1 0x0 PUSH1 0x1F NOT PUSH1 0x1F DUP4 ADD AND SWAP1 POP SWAP2 SWAP1 POP JUMP JUMPDEST PUSH32 0x41646D696E204F6E6C7900000000000000000000000000000000000000000000 PUSH1 0x0 DUP3 ADD MSTORE POP JUMP JUMPDEST PUSH1 0x3 DUP2 LT PUSH2 0x14C5 JUMPI PUSH2 0x14C4 PUSH2 0x13AA JUMP JUMPDEST JUMPDEST POP JUMP JUMPDEST PUSH2 0x14D1 DUP2 PUSH2 0x1220 JUMP JUMPDEST DUP2 EQ PUSH2 0x14DC JUMPI PUSH1 0x0 DUP1 REVERT JUMPDEST POP JUMP INVALID LOG2 PUSH5 0x6970667358 0x22 SLT KECCAK256 0xC3 0xCA NOT DUP7 0xD0 0xB5 0x22 0x4B 0xF 0xC PC 0x2E BALANCE 0xEF 0x27 LOG1 JUMPI ADDMOD PUSH27 0x3F8FA1DC2E460556E0CFF0556864736F6C63430008070033000000 "
				},
				"gasEstimates": {
					"creation": {
						"codeDepositCost": "1079400",
						"executionCost": "35398",
						"totalCost": "1114798"
					},
					"external": {
						"addBorrower(string,address,string)": "infinite",
						"addBroker(string,address,string)": "infinite",
						"getAllBorrowers()": "infinite",
						"getAllBrokers()": "infinite",
						"verifyIsBorrower(address)": "3034",
						"verifyIsBroker(address)": "2990"
					}
				},
				"methodIdentifiers": {
					"addBorrower(string,address,string)": "053ff76c",
					"addBroker(string,address,string)": "a3bee99a",
					"getAllBorrowers()": "32abcdbe",
					"getAllBrokers()": "ee6fc3b4",
					"verifyIsBorrower(address)": "e701c350",
					"verifyIsBroker(address)": "3314168c"
				}
			},
			"userdoc": {
				"kind": "user",
				"methods": {},
				"version": 1
			}
		}
	}
}