{
	"contracts/CarRentalSmartContract.sol": {
		"CarRental": {
			"abi": [
				{
					"inputs": [
						{
							"internalType": "address",
							"name": "microTokenContractAddress",
							"type": "address"
						},
						{
							"internalType": "address",
							"name": "userIdentityContractAddress",
							"type": "address"
						}
					],
					"stateMutability": "nonpayable",
					"type": "constructor"
				},
				{
					"inputs": [
						{
							"internalType": "string",
							"name": "carName",
							"type": "string"
						},
						{
							"internalType": "uint256",
							"name": "carDailyRent",
							"type": "uint256"
						},
						{
							"internalType": "uint256",
							"name": "number",
							"type": "uint256"
						}
					],
					"name": "ABCAddCar",
					"outputs": [
						{
							"internalType": "bool",
							"name": "",
							"type": "bool"
						}
					],
					"stateMutability": "nonpayable",
					"type": "function"
				},
				{
					"inputs": [],
					"name": "ABCAddress",
					"outputs": [
						{
							"internalType": "address",
							"name": "",
							"type": "address"
						}
					],
					"stateMutability": "view",
					"type": "function"
				},
				{
					"inputs": [
						{
							"internalType": "uint256",
							"name": "returnRecordId",
							"type": "uint256"
						},
						{
							"internalType": "uint256",
							"name": "damageFixFeeHere",
							"type": "uint256"
						}
					],
					"name": "ABCAuditDeposit",
					"outputs": [
						{
							"components": [
								{
									"internalType": "uint256",
									"name": "auditRecordId",
									"type": "uint256"
								},
								{
									"internalType": "uint256",
									"name": "returnRecordId",
									"type": "uint256"
								},
								{
									"internalType": "address",
									"name": "customerAddress",
									"type": "address"
								},
								{
									"internalType": "uint256",
									"name": "damageFixFee",
									"type": "uint256"
								},
								{
									"internalType": "uint256",
									"name": "actualRefundAmount",
									"type": "uint256"
								}
							],
							"internalType": "struct CarRental.ABCAuditDepositRecord",
							"name": "",
							"type": "tuple"
						}
					],
					"stateMutability": "payable",
					"type": "function"
				},
				{
					"inputs": [
						{
							"internalType": "uint256",
							"name": "",
							"type": "uint256"
						}
					],
					"name": "allABCAuditDepositRecord",
					"outputs": [
						{
							"internalType": "uint256",
							"name": "auditRecordId",
							"type": "uint256"
						},
						{
							"internalType": "uint256",
							"name": "returnRecordId",
							"type": "uint256"
						},
						{
							"internalType": "address",
							"name": "customerAddress",
							"type": "address"
						},
						{
							"internalType": "uint256",
							"name": "damageFixFee",
							"type": "uint256"
						},
						{
							"internalType": "uint256",
							"name": "actualRefundAmount",
							"type": "uint256"
						}
					],
					"stateMutability": "view",
					"type": "function"
				},
				{
					"inputs": [
						{
							"internalType": "uint256",
							"name": "",
							"type": "uint256"
						}
					],
					"name": "allCustomerRentCarRecord",
					"outputs": [
						{
							"internalType": "uint256",
							"name": "rentRecordId",
							"type": "uint256"
						},
						{
							"internalType": "address",
							"name": "customerAddress",
							"type": "address"
						},
						{
							"internalType": "string",
							"name": "carName",
							"type": "string"
						},
						{
							"internalType": "uint256",
							"name": "rentDays",
							"type": "uint256"
						},
						{
							"internalType": "uint256",
							"name": "totalMoneyDeposit",
							"type": "uint256"
						},
						{
							"internalType": "uint256",
							"name": "rentTimeStamp",
							"type": "uint256"
						},
						{
							"internalType": "int256",
							"name": "returnRecordId",
							"type": "int256"
						}
					],
					"stateMutability": "view",
					"type": "function"
				},
				{
					"inputs": [
						{
							"internalType": "uint256",
							"name": "",
							"type": "uint256"
						}
					],
					"name": "allCustomerReturnCarRecord",
					"outputs": [
						{
							"internalType": "uint256",
							"name": "returnRecordId",
							"type": "uint256"
						},
						{
							"internalType": "uint256",
							"name": "rentRecordId",
							"type": "uint256"
						},
						{
							"internalType": "address",
							"name": "customerAddress",
							"type": "address"
						},
						{
							"internalType": "string",
							"name": "carName",
							"type": "string"
						},
						{
							"internalType": "uint256",
							"name": "returnTimeStamp",
							"type": "uint256"
						},
						{
							"internalType": "uint256",
							"name": "rentFee",
							"type": "uint256"
						},
						{
							"internalType": "int256",
							"name": "auditRecordId",
							"type": "int256"
						}
					],
					"stateMutability": "view",
					"type": "function"
				},
				{
					"inputs": [
						{
							"internalType": "string",
							"name": "",
							"type": "string"
						}
					],
					"name": "carAvailability",
					"outputs": [
						{
							"internalType": "uint256",
							"name": "",
							"type": "uint256"
						}
					],
					"stateMutability": "view",
					"type": "function"
				},
				{
					"inputs": [
						{
							"internalType": "string",
							"name": "",
							"type": "string"
						}
					],
					"name": "carInfo",
					"outputs": [
						{
							"internalType": "string",
							"name": "name",
							"type": "string"
						},
						{
							"internalType": "uint256",
							"name": "needDeposit",
							"type": "uint256"
						},
						{
							"internalType": "uint256",
							"name": "dailyRent",
							"type": "uint256"
						}
					],
					"stateMutability": "view",
					"type": "function"
				},
				{
					"inputs": [],
					"name": "currentAuditRecordId",
					"outputs": [
						{
							"internalType": "uint256",
							"name": "",
							"type": "uint256"
						}
					],
					"stateMutability": "view",
					"type": "function"
				},
				{
					"inputs": [],
					"name": "currentRentRecordId",
					"outputs": [
						{
							"internalType": "uint256",
							"name": "",
							"type": "uint256"
						}
					],
					"stateMutability": "view",
					"type": "function"
				},
				{
					"inputs": [],
					"name": "currentReturnRecordId",
					"outputs": [
						{
							"internalType": "uint256",
							"name": "",
							"type": "uint256"
						}
					],
					"stateMutability": "view",
					"type": "function"
				},
				{
					"inputs": [
						{
							"internalType": "string",
							"name": "carName",
							"type": "string"
						},
						{
							"internalType": "uint256",
							"name": "rentDays",
							"type": "uint256"
						}
					],
					"name": "customerRentCar",
					"outputs": [
						{
							"components": [
								{
									"internalType": "uint256",
									"name": "rentRecordId",
									"type": "uint256"
								},
								{
									"internalType": "address",
									"name": "customerAddress",
									"type": "address"
								},
								{
									"internalType": "string",
									"name": "carName",
									"type": "string"
								},
								{
									"internalType": "uint256",
									"name": "rentDays",
									"type": "uint256"
								},
								{
									"internalType": "uint256",
									"name": "totalMoneyDeposit",
									"type": "uint256"
								},
								{
									"internalType": "uint256",
									"name": "rentTimeStamp",
									"type": "uint256"
								},
								{
									"internalType": "int256",
									"name": "returnRecordId",
									"type": "int256"
								}
							],
							"internalType": "struct CarRental.customerRentCarRecord",
							"name": "",
							"type": "tuple"
						}
					],
					"stateMutability": "payable",
					"type": "function"
				},
				{
					"inputs": [
						{
							"internalType": "address",
							"name": "",
							"type": "address"
						},
						{
							"internalType": "string",
							"name": "",
							"type": "string"
						}
					],
					"name": "customerRentingCarNumber",
					"outputs": [
						{
							"internalType": "uint256",
							"name": "",
							"type": "uint256"
						}
					],
					"stateMutability": "view",
					"type": "function"
				},
				{
					"inputs": [
						{
							"internalType": "uint256",
							"name": "rentRecordId",
							"type": "uint256"
						}
					],
					"name": "customerReturnCar",
					"outputs": [
						{
							"components": [
								{
									"internalType": "uint256",
									"name": "returnRecordId",
									"type": "uint256"
								},
								{
									"internalType": "uint256",
									"name": "rentRecordId",
									"type": "uint256"
								},
								{
									"internalType": "address",
									"name": "customerAddress",
									"type": "address"
								},
								{
									"internalType": "string",
									"name": "carName",
									"type": "string"
								},
								{
									"internalType": "uint256",
									"name": "returnTimeStamp",
									"type": "uint256"
								},
								{
									"internalType": "uint256",
									"name": "rentFee",
									"type": "uint256"
								},
								{
									"internalType": "int256",
									"name": "auditRecordId",
									"type": "int256"
								}
							],
							"internalType": "struct CarRental.customerReturnCarRecord",
							"name": "",
							"type": "tuple"
						}
					],
					"stateMutability": "nonpayable",
					"type": "function"
				},
				{
					"inputs": [],
					"name": "identitySC",
					"outputs": [
						{
							"internalType": "contract UserIdentity",
							"name": "",
							"type": "address"
						}
					],
					"stateMutability": "view",
					"type": "function"
				},
				{
					"inputs": [],
					"name": "tokenSC",
					"outputs": [
						{
							"internalType": "contract MicroToken",
							"name": "",
							"type": "address"
						}
					],
					"stateMutability": "view",
					"type": "function"
				}
			],
			"devdoc": {
				"kind": "dev",
				"methods": {},
				"version": 1
			},
			"evm": {
				"assembly": "    /* \"contracts/CarRentalSmartContract.sol\":91:10249  contract CarRental {... */\n  mstore(0x40, 0x80)\n    /* \"contracts/CarRentalSmartContract.sol\":1956:1957  1 */\n  0x01\n    /* \"contracts/CarRentalSmartContract.sol\":1921:1957  uint public currentRentRecordId  = 1 */\n  0x04\n  sstore\n    /* \"contracts/CarRentalSmartContract.sol\":2077:2078  1 */\n  0x01\n    /* \"contracts/CarRentalSmartContract.sol\":2041:2078  uint public currentReturnRecordId = 1 */\n  0x06\n  sstore\n    /* \"contracts/CarRentalSmartContract.sol\":2201:2202  1 */\n  0x01\n    /* \"contracts/CarRentalSmartContract.sol\":2166:2202  uint public currentAuditRecordId = 1 */\n  0x08\n  sstore\n    /* \"contracts/CarRentalSmartContract.sol\":2983:3228  constructor(address microTokenContractAddress, address userIdentityContractAddress) {... */\n  callvalue\n  dup1\n  iszero\n  tag_1\n  jumpi\n  0x00\n  dup1\n  revert\ntag_1:\n  pop\n  mload(0x40)\n  sub(codesize, bytecodeSize)\n  dup1\n  bytecodeSize\n  dup4\n  codecopy\n  dup2\n  dup2\n  add\n  0x40\n  mstore\n  dup2\n  add\n  swap1\n  tag_2\n  swap2\n  swap1\n  tag_3\n  jump\t// in\ntag_2:\n    /* \"contracts/CarRentalSmartContract.sol\":3090:3100  msg.sender */\n  caller\n    /* \"contracts/CarRentalSmartContract.sol\":3077:3087  ABCAddress */\n  0x00\n  dup1\n    /* \"contracts/CarRentalSmartContract.sol\":3077:3100  ABCAddress = msg.sender */\n  0x0100\n  exp\n  dup2\n  sload\n  dup2\n  0xffffffffffffffffffffffffffffffffffffffff\n  mul\n  not\n  and\n  swap1\n  dup4\n  0xffffffffffffffffffffffffffffffffffffffff\n  and\n  mul\n  or\n  swap1\n  sstore\n  pop\n    /* \"contracts/CarRentalSmartContract.sol\":3131:3156  microTokenContractAddress */\n  dup2\n    /* \"contracts/CarRentalSmartContract.sol\":3110:3117  tokenSC */\n  0x0a\n  0x00\n    /* \"contracts/CarRentalSmartContract.sol\":3110:3157  tokenSC = MicroToken(microTokenContractAddress) */\n  0x0100\n  exp\n  dup2\n  sload\n  dup2\n  0xffffffffffffffffffffffffffffffffffffffff\n  mul\n  not\n  and\n  swap1\n  dup4\n  0xffffffffffffffffffffffffffffffffffffffff\n  and\n  mul\n  or\n  swap1\n  sstore\n  pop\n    /* \"contracts/CarRentalSmartContract.sol\":3193:3220  userIdentityContractAddress */\n  dup1\n    /* \"contracts/CarRentalSmartContract.sol\":3167:3177  identitySC */\n  0x0b\n  0x00\n    /* \"contracts/CarRentalSmartContract.sol\":3167:3221  identitySC = UserIdentity(userIdentityContractAddress) */\n  0x0100\n  exp\n  dup2\n  sload\n  dup2\n  0xffffffffffffffffffffffffffffffffffffffff\n  mul\n  not\n  and\n  swap1\n  dup4\n  0xffffffffffffffffffffffffffffffffffffffff\n  and\n  mul\n  or\n  swap1\n  sstore\n  pop\n    /* \"contracts/CarRentalSmartContract.sol\":2983:3228  constructor(address microTokenContractAddress, address userIdentityContractAddress) {... */\n  pop\n  pop\n    /* \"contracts/CarRentalSmartContract.sol\":91:10249  contract CarRental {... */\n  jump(tag_6)\n    /* \"#utility.yul\":7:150   */\ntag_8:\n    /* \"#utility.yul\":64:69   */\n  0x00\n    /* \"#utility.yul\":95:101   */\n  dup2\n    /* \"#utility.yul\":89:102   */\n  mload\n    /* \"#utility.yul\":80:102   */\n  swap1\n  pop\n    /* \"#utility.yul\":111:144   */\n  tag_10\n    /* \"#utility.yul\":138:143   */\n  dup2\n    /* \"#utility.yul\":111:144   */\n  tag_11\n  jump\t// in\ntag_10:\n    /* \"#utility.yul\":7:150   */\n  swap3\n  swap2\n  pop\n  pop\n  jump\t// out\n    /* \"#utility.yul\":156:663   */\ntag_3:\n    /* \"#utility.yul\":235:241   */\n  0x00\n    /* \"#utility.yul\":243:249   */\n  dup1\n    /* \"#utility.yul\":292:294   */\n  0x40\n    /* \"#utility.yul\":280:289   */\n  dup4\n    /* \"#utility.yul\":271:278   */\n  dup6\n    /* \"#utility.yul\":267:290   */\n  sub\n    /* \"#utility.yul\":263:295   */\n  slt\n    /* \"#utility.yul\":260:379   */\n  iszero\n  tag_13\n  jumpi\n    /* \"#utility.yul\":298:377   */\n  tag_14\n  tag_15\n  jump\t// in\ntag_14:\n    /* \"#utility.yul\":260:379   */\ntag_13:\n    /* \"#utility.yul\":418:419   */\n  0x00\n    /* \"#utility.yul\":443:507   */\n  tag_16\n    /* \"#utility.yul\":499:506   */\n  dup6\n    /* \"#utility.yul\":490:496   */\n  dup3\n    /* \"#utility.yul\":479:488   */\n  dup7\n    /* \"#utility.yul\":475:497   */\n  add\n    /* \"#utility.yul\":443:507   */\n  tag_8\n  jump\t// in\ntag_16:\n    /* \"#utility.yul\":433:507   */\n  swap3\n  pop\n    /* \"#utility.yul\":389:517   */\n  pop\n    /* \"#utility.yul\":556:558   */\n  0x20\n    /* \"#utility.yul\":582:646   */\n  tag_17\n    /* \"#utility.yul\":638:645   */\n  dup6\n    /* \"#utility.yul\":629:635   */\n  dup3\n    /* \"#utility.yul\":618:627   */\n  dup7\n    /* \"#utility.yul\":614:636   */\n  add\n    /* \"#utility.yul\":582:646   */\n  tag_8\n  jump\t// in\ntag_17:\n    /* \"#utility.yul\":572:646   */\n  swap2\n  pop\n    /* \"#utility.yul\":527:656   */\n  pop\n    /* \"#utility.yul\":156:663   */\n  swap3\n  pop\n  swap3\n  swap1\n  pop\n  jump\t// out\n    /* \"#utility.yul\":750:846   */\ntag_20:\n    /* \"#utility.yul\":787:794   */\n  0x00\n    /* \"#utility.yul\":816:840   */\n  tag_22\n    /* \"#utility.yul\":834:839   */\n  dup3\n    /* \"#utility.yul\":816:840   */\n  tag_23\n  jump\t// in\ntag_22:\n    /* \"#utility.yul\":805:840   */\n  swap1\n  pop\n    /* \"#utility.yul\":750:846   */\n  swap2\n  swap1\n  pop\n  jump\t// out\n    /* \"#utility.yul\":852:978   */\ntag_23:\n    /* \"#utility.yul\":889:896   */\n  0x00\n    /* \"#utility.yul\":929:971   */\n  0xffffffffffffffffffffffffffffffffffffffff\n    /* \"#utility.yul\":922:927   */\n  dup3\n    /* \"#utility.yul\":918:972   */\n  and\n    /* \"#utility.yul\":907:972   */\n  swap1\n  pop\n    /* \"#utility.yul\":852:978   */\n  swap2\n  swap1\n  pop\n  jump\t// out\n    /* \"#utility.yul\":1107:1224   */\ntag_15:\n    /* \"#utility.yul\":1216:1217   */\n  0x00\n    /* \"#utility.yul\":1213:1214   */\n  dup1\n    /* \"#utility.yul\":1206:1218   */\n  revert\n    /* \"#utility.yul\":1230:1352   */\ntag_11:\n    /* \"#utility.yul\":1303:1327   */\n  tag_29\n    /* \"#utility.yul\":1321:1326   */\n  dup2\n    /* \"#utility.yul\":1303:1327   */\n  tag_20\n  jump\t// in\ntag_29:\n    /* \"#utility.yul\":1296:1301   */\n  dup2\n    /* \"#utility.yul\":1293:1328   */\n  eq\n    /* \"#utility.yul\":1283:1346   */\n  tag_30\n  jumpi\n    /* \"#utility.yul\":1342:1343   */\n  0x00\n    /* \"#utility.yul\":1339:1340   */\n  dup1\n    /* \"#utility.yul\":1332:1344   */\n  revert\n    /* \"#utility.yul\":1283:1346   */\ntag_30:\n    /* \"#utility.yul\":1230:1352   */\n  pop\n  jump\t// out\n    /* \"contracts/CarRentalSmartContract.sol\":91:10249  contract CarRental {... */\ntag_6:\n  dataSize(sub_0)\n  dup1\n  dataOffset(sub_0)\n  0x00\n  codecopy\n  0x00\n  return\nstop\n\nsub_0: assembly {\n        /* \"contracts/CarRentalSmartContract.sol\":91:10249  contract CarRental {... */\n      mstore(0x40, 0x80)\n      jumpi(tag_1, lt(calldatasize, 0x04))\n      shr(0xe0, calldataload(0x00))\n      dup1\n      0x6b93e409\n      gt\n      tag_18\n      jumpi\n      dup1\n      0xb027a759\n      gt\n      tag_19\n      jumpi\n      dup1\n      0xb027a759\n      eq\n      tag_14\n      jumpi\n      dup1\n      0xc16849c0\n      eq\n      tag_15\n      jumpi\n      dup1\n      0xcb2acd80\n      eq\n      tag_16\n      jumpi\n      dup1\n      0xd05a0447\n      eq\n      tag_17\n      jumpi\n      jump(tag_1)\n    tag_19:\n      dup1\n      0x6b93e409\n      eq\n      tag_10\n      jumpi\n      dup1\n      0x90720b32\n      eq\n      tag_11\n      jumpi\n      dup1\n      0x94fa8235\n      eq\n      tag_12\n      jumpi\n      dup1\n      0x9532007a\n      eq\n      tag_13\n      jumpi\n      jump(tag_1)\n    tag_18:\n      dup1\n      0x3a8c0e6e\n      gt\n      tag_20\n      jumpi\n      dup1\n      0x3a8c0e6e\n      eq\n      tag_6\n      jumpi\n      dup1\n      0x3e7ab6a8\n      eq\n      tag_7\n      jumpi\n      dup1\n      0x5177d6d2\n      eq\n      tag_8\n      jumpi\n      dup1\n      0x586fa64d\n      eq\n      tag_9\n      jumpi\n      jump(tag_1)\n    tag_20:\n      dup1\n      0x1e4c44\n      eq\n      tag_2\n      jumpi\n      dup1\n      0x0958d944\n      eq\n      tag_3\n      jumpi\n      dup1\n      0x1049f50a\n      eq\n      tag_4\n      jumpi\n      dup1\n      0x38266fe5\n      eq\n      tag_5\n      jumpi\n    tag_1:\n      0x00\n      dup1\n      revert\n        /* \"contracts/CarRentalSmartContract.sol\":2166:2202  uint public currentAuditRecordId = 1 */\n    tag_2:\n      callvalue\n      dup1\n      iszero\n      tag_21\n      jumpi\n      0x00\n      dup1\n      revert\n    tag_21:\n      pop\n      tag_22\n      tag_23\n      jump\t// in\n    tag_22:\n      mload(0x40)\n      tag_24\n      swap2\n      swap1\n      tag_25\n      jump\t// in\n    tag_24:\n      mload(0x40)\n      dup1\n      swap2\n      sub\n      swap1\n      return\n        /* \"contracts/CarRentalSmartContract.sol\":5710:8151  function customerReturnCar(uint rentRecordId) public onlyRegisteredCustomerCanCall returns (customerReturnCarRecord memory) {... */\n    tag_3:\n      callvalue\n      dup1\n      iszero\n      tag_26\n      jumpi\n      0x00\n      dup1\n      revert\n    tag_26:\n      pop\n      tag_27\n      0x04\n      dup1\n      calldatasize\n      sub\n      dup2\n      add\n      swap1\n      tag_28\n      swap2\n      swap1\n      tag_29\n      jump\t// in\n    tag_28:\n      tag_30\n      jump\t// in\n    tag_27:\n      mload(0x40)\n      tag_31\n      swap2\n      swap1\n      tag_32\n      jump\t// in\n    tag_31:\n      mload(0x40)\n      dup1\n      swap2\n      sub\n      swap1\n      return\n        /* \"contracts/CarRentalSmartContract.sol\":1664:1702  mapping (string => Car) public carInfo */\n    tag_4:\n      callvalue\n      dup1\n      iszero\n      tag_33\n      jumpi\n      0x00\n      dup1\n      revert\n    tag_33:\n      pop\n      tag_34\n      0x04\n      dup1\n      calldatasize\n      sub\n      dup2\n      add\n      swap1\n      tag_35\n      swap2\n      swap1\n      tag_36\n      jump\t// in\n    tag_35:\n      tag_37\n      jump\t// in\n    tag_34:\n      mload(0x40)\n      tag_38\n      swap4\n      swap3\n      swap2\n      swap1\n      tag_39\n      jump\t// in\n    tag_38:\n      mload(0x40)\n      dup1\n      swap2\n      sub\n      swap1\n      return\n        /* \"contracts/CarRentalSmartContract.sol\":1521:1597  mapping (address => mapping(string => uint)) public customerRentingCarNumber */\n    tag_5:\n      callvalue\n      dup1\n      iszero\n      tag_40\n      jumpi\n      0x00\n      dup1\n      revert\n    tag_40:\n      pop\n      tag_41\n      0x04\n      dup1\n      calldatasize\n      sub\n      dup2\n      add\n      swap1\n      tag_42\n      swap2\n      swap1\n      tag_43\n      jump\t// in\n    tag_42:\n      tag_44\n      jump\t// in\n    tag_41:\n      mload(0x40)\n      tag_45\n      swap2\n      swap1\n      tag_25\n      jump\t// in\n    tag_45:\n      mload(0x40)\n      dup1\n      swap2\n      sub\n      swap1\n      return\n        /* \"contracts/CarRentalSmartContract.sol\":2084:2159  mapping (uint => customerReturnCarRecord) public allCustomerReturnCarRecord */\n    tag_6:\n      callvalue\n      dup1\n      iszero\n      tag_46\n      jumpi\n      0x00\n      dup1\n      revert\n    tag_46:\n      pop\n      tag_47\n      0x04\n      dup1\n      calldatasize\n      sub\n      dup2\n      add\n      swap1\n      tag_48\n      swap2\n      swap1\n      tag_29\n      jump\t// in\n    tag_48:\n      tag_49\n      jump\t// in\n    tag_47:\n      mload(0x40)\n      tag_50\n      swap8\n      swap7\n      swap6\n      swap5\n      swap4\n      swap3\n      swap2\n      swap1\n      tag_51\n      jump\t// in\n    tag_50:\n      mload(0x40)\n      dup1\n      swap2\n      sub\n      swap1\n      return\n        /* \"contracts/CarRentalSmartContract.sol\":8343:10246  function ABCAuditDeposit(uint returnRecordId, uint damageFixFeeHere) payable public onlyABCCompanyCanCall returns (ABCAuditDepositRecord memory) {... */\n    tag_7:\n      tag_52\n      0x04\n      dup1\n      calldatasize\n      sub\n      dup2\n      add\n      swap1\n      tag_53\n      swap2\n      swap1\n      tag_54\n      jump\t// in\n    tag_53:\n      tag_55\n      jump\t// in\n    tag_52:\n      mload(0x40)\n      tag_56\n      swap2\n      swap1\n      tag_57\n      jump\t// in\n    tag_56:\n      mload(0x40)\n      dup1\n      swap2\n      sub\n      swap1\n      return\n        /* \"contracts/CarRentalSmartContract.sol\":2041:2078  uint public currentReturnRecordId = 1 */\n    tag_8:\n      callvalue\n      dup1\n      iszero\n      tag_58\n      jumpi\n      0x00\n      dup1\n      revert\n    tag_58:\n      pop\n      tag_59\n      tag_60\n      jump\t// in\n    tag_59:\n      mload(0x40)\n      tag_61\n      swap2\n      swap1\n      tag_25\n      jump\t// in\n    tag_61:\n      mload(0x40)\n      dup1\n      swap2\n      sub\n      swap1\n      return\n        /* \"contracts/CarRentalSmartContract.sol\":1766:1813  mapping (string => uint) public carAvailability */\n    tag_9:\n      callvalue\n      dup1\n      iszero\n      tag_62\n      jumpi\n      0x00\n      dup1\n      revert\n    tag_62:\n      pop\n      tag_63\n      0x04\n      dup1\n      calldatasize\n      sub\n      dup2\n      add\n      swap1\n      tag_64\n      swap2\n      swap1\n      tag_36\n      jump\t// in\n    tag_64:\n      tag_65\n      jump\t// in\n    tag_63:\n      mload(0x40)\n      tag_66\n      swap2\n      swap1\n      tag_25\n      jump\t// in\n    tag_66:\n      mload(0x40)\n      dup1\n      swap2\n      sub\n      swap1\n      return\n        /* \"contracts/CarRentalSmartContract.sol\":4177:5557  function customerRentCar(string calldata carName, uint rentDays) payable public onlyRegisteredCustomerCanCall returns (customerRentCarRecord memory) {... */\n    tag_10:\n      tag_67\n      0x04\n      dup1\n      calldatasize\n      sub\n      dup2\n      add\n      swap1\n      tag_68\n      swap2\n      swap1\n      tag_69\n      jump\t// in\n    tag_68:\n      tag_70\n      jump\t// in\n    tag_67:\n      mload(0x40)\n      tag_71\n      swap2\n      swap1\n      tag_72\n      jump\t// in\n    tag_71:\n      mload(0x40)\n      dup1\n      swap2\n      sub\n      swap1\n      return\n        /* \"contracts/CarRentalSmartContract.sol\":2383:2413  UserIdentity public identitySC */\n    tag_11:\n      callvalue\n      dup1\n      iszero\n      tag_73\n      jumpi\n      0x00\n      dup1\n      revert\n    tag_73:\n      pop\n      tag_74\n      tag_75\n      jump\t// in\n    tag_74:\n      mload(0x40)\n      tag_76\n      swap2\n      swap1\n      tag_77\n      jump\t// in\n    tag_76:\n      mload(0x40)\n      dup1\n      swap2\n      sub\n      swap1\n      return\n        /* \"contracts/CarRentalSmartContract.sol\":3635:4054  function ABCAddCar(string calldata carName, uint carDailyRent, uint number) public onlyABCCompanyCanCall returns (bool) {... */\n    tag_12:\n      callvalue\n      dup1\n      iszero\n      tag_78\n      jumpi\n      0x00\n      dup1\n      revert\n    tag_78:\n      pop\n      tag_79\n      0x04\n      dup1\n      calldatasize\n      sub\n      dup2\n      add\n      swap1\n      tag_80\n      swap2\n      swap1\n      tag_81\n      jump\t// in\n    tag_80:\n      tag_82\n      jump\t// in\n    tag_79:\n      mload(0x40)\n      tag_83\n      swap2\n      swap1\n      tag_84\n      jump\t// in\n    tag_83:\n      mload(0x40)\n      dup1\n      swap2\n      sub\n      swap1\n      return\n        /* \"contracts/CarRentalSmartContract.sol\":1921:1957  uint public currentRentRecordId  = 1 */\n    tag_13:\n      callvalue\n      dup1\n      iszero\n      tag_85\n      jumpi\n      0x00\n      dup1\n      revert\n    tag_85:\n      pop\n      tag_86\n      tag_87\n      jump\t// in\n    tag_86:\n      mload(0x40)\n      tag_88\n      swap2\n      swap1\n      tag_25\n      jump\t// in\n    tag_88:\n      mload(0x40)\n      dup1\n      swap2\n      sub\n      swap1\n      return\n        /* \"contracts/CarRentalSmartContract.sol\":2208:2279  mapping (uint => ABCAuditDepositRecord) public allABCAuditDepositRecord */\n    tag_14:\n      callvalue\n      dup1\n      iszero\n      tag_89\n      jumpi\n      0x00\n      dup1\n      revert\n    tag_89:\n      pop\n      tag_90\n      0x04\n      dup1\n      calldatasize\n      sub\n      dup2\n      add\n      swap1\n      tag_91\n      swap2\n      swap1\n      tag_29\n      jump\t// in\n    tag_91:\n      tag_92\n      jump\t// in\n    tag_90:\n      mload(0x40)\n      tag_93\n      swap6\n      swap5\n      swap4\n      swap3\n      swap2\n      swap1\n      tag_94\n      jump\t// in\n    tag_93:\n      mload(0x40)\n      dup1\n      swap2\n      sub\n      swap1\n      return\n        /* \"contracts/CarRentalSmartContract.sol\":2314:2339  MicroToken public tokenSC */\n    tag_15:\n      callvalue\n      dup1\n      iszero\n      tag_95\n      jumpi\n      0x00\n      dup1\n      revert\n    tag_95:\n      pop\n      tag_96\n      tag_97\n      jump\t// in\n    tag_96:\n      mload(0x40)\n      tag_98\n      swap2\n      swap1\n      tag_99\n      jump\t// in\n    tag_98:\n      mload(0x40)\n      dup1\n      swap2\n      sub\n      swap1\n      return\n        /* \"contracts/CarRentalSmartContract.sol\":1963:2034  mapping (uint => customerRentCarRecord) public allCustomerRentCarRecord */\n    tag_16:\n      callvalue\n      dup1\n      iszero\n      tag_100\n      jumpi\n      0x00\n      dup1\n      revert\n    tag_100:\n      pop\n      tag_101\n      0x04\n      dup1\n      calldatasize\n      sub\n      dup2\n      add\n      swap1\n      tag_102\n      swap2\n      swap1\n      tag_29\n      jump\t// in\n    tag_102:\n      tag_103\n      jump\t// in\n    tag_101:\n      mload(0x40)\n      tag_104\n      swap8\n      swap7\n      swap6\n      swap5\n      swap4\n      swap3\n      swap2\n      swap1\n      tag_105\n      jump\t// in\n    tag_104:\n      mload(0x40)\n      dup1\n      swap2\n      sub\n      swap1\n      return\n        /* \"contracts/CarRentalSmartContract.sol\":1071:1096  address public ABCAddress */\n    tag_17:\n      callvalue\n      dup1\n      iszero\n      tag_106\n      jumpi\n      0x00\n      dup1\n      revert\n    tag_106:\n      pop\n      tag_107\n      tag_108\n      jump\t// in\n    tag_107:\n      mload(0x40)\n      tag_109\n      swap2\n      swap1\n      tag_110\n      jump\t// in\n    tag_109:\n      mload(0x40)\n      dup1\n      swap2\n      sub\n      swap1\n      return\n        /* \"contracts/CarRentalSmartContract.sol\":2166:2202  uint public currentAuditRecordId = 1 */\n    tag_23:\n      sload(0x08)\n      dup2\n      jump\t// out\n        /* \"contracts/CarRentalSmartContract.sol\":5710:8151  function customerReturnCar(uint rentRecordId) public onlyRegisteredCustomerCanCall returns (customerReturnCarRecord memory) {... */\n    tag_30:\n        /* \"contracts/CarRentalSmartContract.sol\":5802:5832  customerReturnCarRecord memory */\n      tag_111\n      tag_112\n      jump\t// in\n    tag_111:\n        /* \"contracts/CarRentalSmartContract.sol\":2813:2823  identitySC */\n      0x0b\n      0x00\n      swap1\n      sload\n      swap1\n      0x0100\n      exp\n      swap1\n      div\n      0xffffffffffffffffffffffffffffffffffffffff\n      and\n        /* \"contracts/CarRentalSmartContract.sol\":2813:2840  identitySC.verifyIsBorrower */\n      0xffffffffffffffffffffffffffffffffffffffff\n      and\n      0xe701c350\n        /* \"contracts/CarRentalSmartContract.sol\":2841:2851  msg.sender */\n      caller\n        /* \"contracts/CarRentalSmartContract.sol\":2813:2852  identitySC.verifyIsBorrower(msg.sender) */\n      mload(0x40)\n      dup3\n      0xffffffff\n      and\n      0xe0\n      shl\n      dup2\n      mstore\n      0x04\n      add\n      tag_114\n      swap2\n      swap1\n      tag_110\n      jump\t// in\n    tag_114:\n      0x20\n      mload(0x40)\n      dup1\n      dup4\n      sub\n      dup2\n      dup7\n      dup1\n      extcodesize\n      iszero\n      dup1\n      iszero\n      tag_115\n      jumpi\n      0x00\n      dup1\n      revert\n    tag_115:\n      pop\n      gas\n      staticcall\n      iszero\n      dup1\n      iszero\n      tag_117\n      jumpi\n      returndatasize\n      0x00\n      dup1\n      returndatacopy\n      revert(0x00, returndatasize)\n    tag_117:\n      pop\n      pop\n      pop\n      pop\n      mload(0x40)\n      returndatasize\n      not(0x1f)\n      0x1f\n      dup3\n      add\n      and\n      dup3\n      add\n      dup1\n      0x40\n      mstore\n      pop\n      dup2\n      add\n      swap1\n      tag_118\n      swap2\n      swap1\n      tag_119\n      jump\t// in\n    tag_118:\n        /* \"contracts/CarRentalSmartContract.sol\":2805:2870  require(identitySC.verifyIsBorrower(msg.sender), \"Borrower Only\") */\n      tag_120\n      jumpi\n      mload(0x40)\n      0x08c379a000000000000000000000000000000000000000000000000000000000\n      dup2\n      mstore\n      0x04\n      add\n      tag_121\n      swap1\n      tag_122\n      jump\t// in\n    tag_121:\n      mload(0x40)\n      dup1\n      swap2\n      sub\n      swap1\n      revert\n    tag_120:\n        /* \"contracts/CarRentalSmartContract.sol\":5868:5887  currentRentRecordId */\n      sload(0x04)\n        /* \"contracts/CarRentalSmartContract.sol\":5852:5864  rentRecordId */\n      dup3\n        /* \"contracts/CarRentalSmartContract.sol\":5852:5887  rentRecordId <= currentRentRecordId */\n      gt\n      iszero\n        /* \"contracts/CarRentalSmartContract.sol\":5852:5907  rentRecordId <= currentRentRecordId && rentRecordId > 0 */\n      dup1\n      iszero\n      tag_124\n      jumpi\n      pop\n        /* \"contracts/CarRentalSmartContract.sol\":5906:5907  0 */\n      0x00\n        /* \"contracts/CarRentalSmartContract.sol\":5891:5903  rentRecordId */\n      dup3\n        /* \"contracts/CarRentalSmartContract.sol\":5891:5907  rentRecordId > 0 */\n      gt\n        /* \"contracts/CarRentalSmartContract.sol\":5852:5907  rentRecordId <= currentRentRecordId && rentRecordId > 0 */\n    tag_124:\n        /* \"contracts/CarRentalSmartContract.sol\":5844:5938  require(rentRecordId <= currentRentRecordId && rentRecordId > 0, \"Input rentRecordId Invaid!\") */\n      tag_125\n      jumpi\n      mload(0x40)\n      0x08c379a000000000000000000000000000000000000000000000000000000000\n      dup2\n      mstore\n      0x04\n      add\n      tag_126\n      swap1\n      tag_127\n      jump\t// in\n    tag_126:\n      mload(0x40)\n      dup1\n      swap2\n      sub\n      swap1\n      revert\n    tag_125:\n        /* \"contracts/CarRentalSmartContract.sol\":5970:5994  allCustomerRentCarRecord */\n      0x05\n        /* \"contracts/CarRentalSmartContract.sol\":5970:6008  allCustomerRentCarRecord[rentRecordId] */\n      0x00\n        /* \"contracts/CarRentalSmartContract.sol\":5995:6007  rentRecordId */\n      dup4\n        /* \"contracts/CarRentalSmartContract.sol\":5970:6008  allCustomerRentCarRecord[rentRecordId] */\n      dup2\n      mstore\n      0x20\n      add\n      swap1\n      dup2\n      mstore\n      0x20\n      add\n      0x00\n      keccak256\n        /* \"contracts/CarRentalSmartContract.sol\":5970:6024  allCustomerRentCarRecord[rentRecordId].customerAddress */\n      0x01\n      add\n      0x00\n      swap1\n      sload\n      swap1\n      0x0100\n      exp\n      swap1\n      div\n      0xffffffffffffffffffffffffffffffffffffffff\n      and\n        /* \"contracts/CarRentalSmartContract.sol\":5956:6024  msg.sender == allCustomerRentCarRecord[rentRecordId].customerAddress */\n      0xffffffffffffffffffffffffffffffffffffffff\n      and\n        /* \"contracts/CarRentalSmartContract.sol\":5956:5966  msg.sender */\n      caller\n        /* \"contracts/CarRentalSmartContract.sol\":5956:6024  msg.sender == allCustomerRentCarRecord[rentRecordId].customerAddress */\n      0xffffffffffffffffffffffffffffffffffffffff\n      and\n      eq\n        /* \"contracts/CarRentalSmartContract.sol\":5948:6068  require(msg.sender == allCustomerRentCarRecord[rentRecordId].customerAddress, \"The customer's address doesn't matched!\") */\n      tag_128\n      jumpi\n      mload(0x40)\n      0x08c379a000000000000000000000000000000000000000000000000000000000\n      dup2\n      mstore\n      0x04\n      add\n      tag_129\n      swap1\n      tag_130\n      jump\t// in\n    tag_129:\n      mload(0x40)\n      dup1\n      swap2\n      sub\n      swap1\n      revert\n    tag_128:\n        /* \"contracts/CarRentalSmartContract.sol\":6143:6145  -1 */\n      0xffffffffffffffffffffffffffffffffffffffffffffffffffffffffffffffff\n        /* \"contracts/CarRentalSmartContract.sol\":6086:6110  allCustomerRentCarRecord */\n      0x05\n        /* \"contracts/CarRentalSmartContract.sol\":6086:6124  allCustomerRentCarRecord[rentRecordId] */\n      0x00\n        /* \"contracts/CarRentalSmartContract.sol\":6111:6123  rentRecordId */\n      dup5\n        /* \"contracts/CarRentalSmartContract.sol\":6086:6124  allCustomerRentCarRecord[rentRecordId] */\n      dup2\n      mstore\n      0x20\n      add\n      swap1\n      dup2\n      mstore\n      0x20\n      add\n      0x00\n      keccak256\n        /* \"contracts/CarRentalSmartContract.sol\":6086:6139  allCustomerRentCarRecord[rentRecordId].returnRecordId */\n      0x06\n      add\n      sload\n        /* \"contracts/CarRentalSmartContract.sol\":6086:6145  allCustomerRentCarRecord[rentRecordId].returnRecordId == -1 */\n      eq\n        /* \"contracts/CarRentalSmartContract.sol\":6078:6200  require(allCustomerRentCarRecord[rentRecordId].returnRecordId == -1, \"The rent of this rentId has been already returned!\") */\n      tag_131\n      jumpi\n      mload(0x40)\n      0x08c379a000000000000000000000000000000000000000000000000000000000\n      dup2\n      mstore\n      0x04\n      add\n      tag_132\n      swap1\n      tag_133\n      jump\t// in\n    tag_132:\n      mload(0x40)\n      dup1\n      swap2\n      sub\n      swap1\n      revert\n    tag_131:\n        /* \"contracts/CarRentalSmartContract.sol\":6252:6277  string memory carNameHere */\n      0x00\n        /* \"contracts/CarRentalSmartContract.sol\":6280:6304  allCustomerRentCarRecord */\n      0x05\n        /* \"contracts/CarRentalSmartContract.sol\":6280:6318  allCustomerRentCarRecord[rentRecordId] */\n      0x00\n        /* \"contracts/CarRentalSmartContract.sol\":6305:6317  rentRecordId */\n      dup5\n        /* \"contracts/CarRentalSmartContract.sol\":6280:6318  allCustomerRentCarRecord[rentRecordId] */\n      dup2\n      mstore\n      0x20\n      add\n      swap1\n      dup2\n      mstore\n      0x20\n      add\n      0x00\n      keccak256\n        /* \"contracts/CarRentalSmartContract.sol\":6280:6326  allCustomerRentCarRecord[rentRecordId].carName */\n      0x02\n      add\n        /* \"contracts/CarRentalSmartContract.sol\":6252:6326  string memory carNameHere = allCustomerRentCarRecord[rentRecordId].carName */\n      dup1\n      sload\n      tag_134\n      swap1\n      tag_135\n      jump\t// in\n    tag_134:\n      dup1\n      0x1f\n      add\n      0x20\n      dup1\n      swap2\n      div\n      mul\n      0x20\n      add\n      mload(0x40)\n      swap1\n      dup2\n      add\n      0x40\n      mstore\n      dup1\n      swap3\n      swap2\n      swap1\n      dup2\n      dup2\n      mstore\n      0x20\n      add\n      dup3\n      dup1\n      sload\n      tag_136\n      swap1\n      tag_135\n      jump\t// in\n    tag_136:\n      dup1\n      iszero\n      tag_137\n      jumpi\n      dup1\n      0x1f\n      lt\n      tag_138\n      jumpi\n      0x0100\n      dup1\n      dup4\n      sload\n      div\n      mul\n      dup4\n      mstore\n      swap2\n      0x20\n      add\n      swap2\n      jump(tag_137)\n    tag_138:\n      dup3\n      add\n      swap2\n      swap1\n      0x00\n      mstore\n      keccak256(0x00, 0x20)\n      swap1\n    tag_139:\n      dup2\n      sload\n      dup2\n      mstore\n      swap1\n      0x01\n      add\n      swap1\n      0x20\n      add\n      dup1\n      dup4\n      gt\n      tag_139\n      jumpi\n      dup3\n      swap1\n      sub\n      0x1f\n      and\n      dup3\n      add\n      swap2\n    tag_137:\n      pop\n      pop\n      pop\n      pop\n      pop\n      swap1\n      pop\n        /* \"contracts/CarRentalSmartContract.sol\":6336:6358  uint rentTimeStampHere */\n      0x00\n        /* \"contracts/CarRentalSmartContract.sol\":6361:6385  allCustomerRentCarRecord */\n      0x05\n        /* \"contracts/CarRentalSmartContract.sol\":6361:6399  allCustomerRentCarRecord[rentRecordId] */\n      0x00\n        /* \"contracts/CarRentalSmartContract.sol\":6386:6398  rentRecordId */\n      dup6\n        /* \"contracts/CarRentalSmartContract.sol\":6361:6399  allCustomerRentCarRecord[rentRecordId] */\n      dup2\n      mstore\n      0x20\n      add\n      swap1\n      dup2\n      mstore\n      0x20\n      add\n      0x00\n      keccak256\n        /* \"contracts/CarRentalSmartContract.sol\":6361:6413  allCustomerRentCarRecord[rentRecordId].rentTimeStamp */\n      0x05\n      add\n      sload\n        /* \"contracts/CarRentalSmartContract.sol\":6336:6413  uint rentTimeStampHere = allCustomerRentCarRecord[rentRecordId].rentTimeStamp */\n      swap1\n      pop\n        /* \"contracts/CarRentalSmartContract.sol\":6529:6530  1 */\n      0x01\n        /* \"contracts/CarRentalSmartContract.sol\":6476:6500  customerRentingCarNumber */\n      dup1\n        /* \"contracts/CarRentalSmartContract.sol\":6476:6512  customerRentingCarNumber[msg.sender] */\n      0x00\n        /* \"contracts/CarRentalSmartContract.sol\":6501:6511  msg.sender */\n      caller\n        /* \"contracts/CarRentalSmartContract.sol\":6476:6512  customerRentingCarNumber[msg.sender] */\n      0xffffffffffffffffffffffffffffffffffffffff\n      and\n      0xffffffffffffffffffffffffffffffffffffffff\n      and\n      dup2\n      mstore\n      0x20\n      add\n      swap1\n      dup2\n      mstore\n      0x20\n      add\n      0x00\n      keccak256\n        /* \"contracts/CarRentalSmartContract.sol\":6513:6524  carNameHere */\n      dup4\n        /* \"contracts/CarRentalSmartContract.sol\":6476:6525  customerRentingCarNumber[msg.sender][carNameHere] */\n      mload(0x40)\n      tag_140\n      swap2\n      swap1\n      tag_141\n      jump\t// in\n    tag_140:\n      swap1\n      dup2\n      mstore\n      0x20\n      add\n      mload(0x40)\n      dup1\n      swap2\n      sub\n      swap1\n      keccak256\n      0x00\n        /* \"contracts/CarRentalSmartContract.sol\":6476:6530  customerRentingCarNumber[msg.sender][carNameHere] -= 1 */\n      dup3\n      dup3\n      sload\n      tag_142\n      swap2\n      swap1\n      tag_143\n      jump\t// in\n    tag_142:\n      swap3\n      pop\n      pop\n      dup2\n      swap1\n      sstore\n      pop\n        /* \"contracts/CarRentalSmartContract.sol\":6614:6615  1 */\n      0x01\n        /* \"contracts/CarRentalSmartContract.sol\":6582:6597  carAvailability */\n      0x03\n        /* \"contracts/CarRentalSmartContract.sol\":6598:6609  carNameHere */\n      dup4\n        /* \"contracts/CarRentalSmartContract.sol\":6582:6610  carAvailability[carNameHere] */\n      mload(0x40)\n      tag_144\n      swap2\n      swap1\n      tag_141\n      jump\t// in\n    tag_144:\n      swap1\n      dup2\n      mstore\n      0x20\n      add\n      mload(0x40)\n      dup1\n      swap2\n      sub\n      swap1\n      keccak256\n      0x00\n        /* \"contracts/CarRentalSmartContract.sol\":6582:6615  carAvailability[carNameHere] += 1 */\n      dup3\n      dup3\n      sload\n      tag_145\n      swap2\n      swap1\n      tag_146\n      jump\t// in\n    tag_145:\n      swap3\n      pop\n      pop\n      dup2\n      swap1\n      sstore\n      pop\n        /* \"contracts/CarRentalSmartContract.sol\":6674:6686  uint timeNow */\n      0x00\n        /* \"contracts/CarRentalSmartContract.sol\":6689:6704  block.timestamp */\n      timestamp\n        /* \"contracts/CarRentalSmartContract.sol\":6674:6704  uint timeNow = block.timestamp */\n      swap1\n      pop\n        /* \"contracts/CarRentalSmartContract.sol\":6714:6735  uint actualTimePassed */\n      0x00\n        /* \"contracts/CarRentalSmartContract.sol\":6749:6766  rentTimeStampHere */\n      dup3\n        /* \"contracts/CarRentalSmartContract.sol\":6739:6746  timeNow */\n      dup3\n        /* \"contracts/CarRentalSmartContract.sol\":6739:6766  timeNow - rentTimeStampHere */\n      tag_147\n      swap2\n      swap1\n      tag_143\n      jump\t// in\n    tag_147:\n        /* \"contracts/CarRentalSmartContract.sol\":6714:6766  uint actualTimePassed =  timeNow - rentTimeStampHere */\n      swap1\n      pop\n        /* \"contracts/CarRentalSmartContract.sol\":6941:6961  uint actualDayPassed */\n      0x00\n        /* \"contracts/CarRentalSmartContract.sol\":6998:6999  1 */\n      0x01\n        /* \"contracts/CarRentalSmartContract.sol\":6993:6995  24 */\n      0x18\n        /* \"contracts/CarRentalSmartContract.sol\":6988:6990  60 */\n      0x3c\n        /* \"contracts/CarRentalSmartContract.sol\":6983:6985  60 */\n      dup1\n        /* \"contracts/CarRentalSmartContract.sol\":6964:6980  actualTimePassed */\n      dup6\n        /* \"contracts/CarRentalSmartContract.sol\":6964:6985  actualTimePassed / 60 */\n      tag_148\n      swap2\n      swap1\n      tag_149\n      jump\t// in\n    tag_148:\n        /* \"contracts/CarRentalSmartContract.sol\":6964:6990  actualTimePassed / 60 / 60 */\n      tag_150\n      swap2\n      swap1\n      tag_149\n      jump\t// in\n    tag_150:\n        /* \"contracts/CarRentalSmartContract.sol\":6964:6995  actualTimePassed / 60 / 60 / 24 */\n      tag_151\n      swap2\n      swap1\n      tag_149\n      jump\t// in\n    tag_151:\n        /* \"contracts/CarRentalSmartContract.sol\":6964:6999  actualTimePassed / 60 / 60 / 24 + 1 */\n      tag_152\n      swap2\n      swap1\n      tag_146\n      jump\t// in\n    tag_152:\n        /* \"contracts/CarRentalSmartContract.sol\":6941:6999  uint actualDayPassed = actualTimePassed / 60 / 60 / 24 + 1 */\n      swap1\n      pop\n        /* \"contracts/CarRentalSmartContract.sol\":7040:7056  uint rentFeeHere */\n      0x00\n        /* \"contracts/CarRentalSmartContract.sol\":7077:7084  carInfo */\n      0x02\n        /* \"contracts/CarRentalSmartContract.sol\":7085:7096  carNameHere */\n      dup7\n        /* \"contracts/CarRentalSmartContract.sol\":7077:7097  carInfo[carNameHere] */\n      mload(0x40)\n      tag_153\n      swap2\n      swap1\n      tag_141\n      jump\t// in\n    tag_153:\n      swap1\n      dup2\n      mstore\n      0x20\n      add\n      mload(0x40)\n      dup1\n      swap2\n      sub\n      swap1\n      keccak256\n        /* \"contracts/CarRentalSmartContract.sol\":7077:7107  carInfo[carNameHere].dailyRent */\n      0x02\n      add\n      sload\n        /* \"contracts/CarRentalSmartContract.sol\":7059:7074  actualDayPassed */\n      dup3\n        /* \"contracts/CarRentalSmartContract.sol\":7059:7107  actualDayPassed * carInfo[carNameHere].dailyRent */\n      tag_154\n      swap2\n      swap1\n      tag_155\n      jump\t// in\n    tag_154:\n        /* \"contracts/CarRentalSmartContract.sol\":7040:7107  uint rentFeeHere = actualDayPassed * carInfo[carNameHere].dailyRent */\n      swap1\n      pop\n        /* \"contracts/CarRentalSmartContract.sol\":7218:7268  customerReturnCarRecord memory thisReturnCarRecord */\n      0x00\n        /* \"contracts/CarRentalSmartContract.sol\":7271:7898  customerReturnCarRecord(currentReturnRecordId, ... */\n      mload(0x40)\n      dup1\n      0xe0\n      add\n      0x40\n      mstore\n      dup1\n        /* \"contracts/CarRentalSmartContract.sol\":7295:7316  currentReturnRecordId */\n      sload(0x06)\n        /* \"contracts/CarRentalSmartContract.sol\":7271:7898  customerReturnCarRecord(currentReturnRecordId, ... */\n      dup2\n      mstore\n      0x20\n      add\n        /* \"contracts/CarRentalSmartContract.sol\":7404:7416  rentRecordId */\n      dup11\n        /* \"contracts/CarRentalSmartContract.sol\":7271:7898  customerReturnCarRecord(currentReturnRecordId, ... */\n      dup2\n      mstore\n      0x20\n      add\n        /* \"contracts/CarRentalSmartContract.sol\":7504:7514  msg.sender */\n      caller\n        /* \"contracts/CarRentalSmartContract.sol\":7271:7898  customerReturnCarRecord(currentReturnRecordId, ... */\n      0xffffffffffffffffffffffffffffffffffffffff\n      and\n      dup2\n      mstore\n      0x20\n      add\n        /* \"contracts/CarRentalSmartContract.sol\":7602:7613  carNameHere */\n      dup9\n        /* \"contracts/CarRentalSmartContract.sol\":7271:7898  customerReturnCarRecord(currentReturnRecordId, ... */\n      dup2\n      mstore\n      0x20\n      add\n        /* \"contracts/CarRentalSmartContract.sol\":7701:7708  timeNow */\n      dup7\n        /* \"contracts/CarRentalSmartContract.sol\":7271:7898  customerReturnCarRecord(currentReturnRecordId, ... */\n      dup2\n      mstore\n      0x20\n      add\n        /* \"contracts/CarRentalSmartContract.sol\":7796:7807  rentFeeHere */\n      dup4\n        /* \"contracts/CarRentalSmartContract.sol\":7271:7898  customerReturnCarRecord(currentReturnRecordId, ... */\n      dup2\n      mstore\n      0x20\n      add\n        /* \"contracts/CarRentalSmartContract.sol\":7895:7897  -1 */\n      0xffffffffffffffffffffffffffffffffffffffffffffffffffffffffffffffff\n        /* \"contracts/CarRentalSmartContract.sol\":7271:7898  customerReturnCarRecord(currentReturnRecordId, ... */\n      dup2\n      mstore\n      pop\n        /* \"contracts/CarRentalSmartContract.sol\":7218:7898  customerReturnCarRecord memory thisReturnCarRecord = customerReturnCarRecord(currentReturnRecordId, ... */\n      swap1\n      pop\n        /* \"contracts/CarRentalSmartContract.sol\":7960:7979  thisReturnCarRecord */\n      dup1\n        /* \"contracts/CarRentalSmartContract.sol\":7908:7934  allCustomerReturnCarRecord */\n      0x07\n        /* \"contracts/CarRentalSmartContract.sol\":7908:7957  allCustomerReturnCarRecord[currentReturnRecordId] */\n      0x00\n        /* \"contracts/CarRentalSmartContract.sol\":7935:7956  currentReturnRecordId */\n      sload(0x06)\n        /* \"contracts/CarRentalSmartContract.sol\":7908:7957  allCustomerReturnCarRecord[currentReturnRecordId] */\n      dup2\n      mstore\n      0x20\n      add\n      swap1\n      dup2\n      mstore\n      0x20\n      add\n      0x00\n      keccak256\n        /* \"contracts/CarRentalSmartContract.sol\":7908:7979  allCustomerReturnCarRecord[currentReturnRecordId] = thisReturnCarRecord */\n      0x00\n      dup3\n      add\n      mload\n      dup2\n      0x00\n      add\n      sstore\n      0x20\n      dup3\n      add\n      mload\n      dup2\n      0x01\n      add\n      sstore\n      0x40\n      dup3\n      add\n      mload\n      dup2\n      0x02\n      add\n      exp(0x0100, 0x00)\n      dup2\n      sload\n      dup2\n      0xffffffffffffffffffffffffffffffffffffffff\n      mul\n      not\n      and\n      swap1\n      dup4\n      0xffffffffffffffffffffffffffffffffffffffff\n      and\n      mul\n      or\n      swap1\n      sstore\n      pop\n      0x60\n      dup3\n      add\n      mload\n      dup2\n      0x03\n      add\n      swap1\n      dup1\n      mload\n      swap1\n      0x20\n      add\n      swap1\n      tag_156\n      swap3\n      swap2\n      swap1\n      tag_157\n      jump\t// in\n    tag_156:\n      pop\n      0x80\n      dup3\n      add\n      mload\n      dup2\n      0x04\n      add\n      sstore\n      0xa0\n      dup3\n      add\n      mload\n      dup2\n      0x05\n      add\n      sstore\n      0xc0\n      dup3\n      add\n      mload\n      dup2\n      0x06\n      add\n      sstore\n      swap1\n      pop\n      pop\n        /* \"contracts/CarRentalSmartContract.sol\":8049:8070  currentReturnRecordId */\n      sload(0x06)\n        /* \"contracts/CarRentalSmartContract.sol\":7989:8013  allCustomerRentCarRecord */\n      0x05\n        /* \"contracts/CarRentalSmartContract.sol\":7989:8027  allCustomerRentCarRecord[rentRecordId] */\n      0x00\n        /* \"contracts/CarRentalSmartContract.sol\":8014:8026  rentRecordId */\n      dup12\n        /* \"contracts/CarRentalSmartContract.sol\":7989:8027  allCustomerRentCarRecord[rentRecordId] */\n      dup2\n      mstore\n      0x20\n      add\n      swap1\n      dup2\n      mstore\n      0x20\n      add\n      0x00\n      keccak256\n        /* \"contracts/CarRentalSmartContract.sol\":7989:8042  allCustomerRentCarRecord[rentRecordId].returnRecordId */\n      0x06\n      add\n        /* \"contracts/CarRentalSmartContract.sol\":7989:8071  allCustomerRentCarRecord[rentRecordId].returnRecordId = int(currentReturnRecordId) */\n      dup2\n      swap1\n      sstore\n      pop\n        /* \"contracts/CarRentalSmartContract.sol\":8106:8107  1 */\n      0x01\n        /* \"contracts/CarRentalSmartContract.sol\":8081:8102  currentReturnRecordId */\n      0x06\n      0x00\n        /* \"contracts/CarRentalSmartContract.sol\":8081:8107  currentReturnRecordId += 1 */\n      dup3\n      dup3\n      sload\n      tag_158\n      swap2\n      swap1\n      tag_146\n      jump\t// in\n    tag_158:\n      swap3\n      pop\n      pop\n      dup2\n      swap1\n      sstore\n      pop\n        /* \"contracts/CarRentalSmartContract.sol\":8125:8144  thisReturnCarRecord */\n      dup1\n        /* \"contracts/CarRentalSmartContract.sol\":8118:8144  return thisReturnCarRecord */\n      swap8\n      pop\n      pop\n      pop\n      pop\n      pop\n      pop\n      pop\n      pop\n        /* \"contracts/CarRentalSmartContract.sol\":5710:8151  function customerReturnCar(uint rentRecordId) public onlyRegisteredCustomerCanCall returns (customerReturnCarRecord memory) {... */\n      swap2\n      swap1\n      pop\n      jump\t// out\n        /* \"contracts/CarRentalSmartContract.sol\":1664:1702  mapping (string => Car) public carInfo */\n    tag_37:\n      0x02\n      dup2\n      dup1\n      mload\n      0x20\n      dup2\n      add\n      dup3\n      add\n      dup1\n      mload\n      dup5\n      dup3\n      mstore\n      0x20\n      dup4\n      add\n      0x20\n      dup6\n      add\n      keccak256\n      dup2\n      dup4\n      mstore\n      dup1\n      swap6\n      pop\n      pop\n      pop\n      pop\n      pop\n      pop\n      0x00\n      swap2\n      pop\n      swap1\n      pop\n      dup1\n      0x00\n      add\n      dup1\n      sload\n      tag_159\n      swap1\n      tag_135\n      jump\t// in\n    tag_159:\n      dup1\n      0x1f\n      add\n      0x20\n      dup1\n      swap2\n      div\n      mul\n      0x20\n      add\n      mload(0x40)\n      swap1\n      dup2\n      add\n      0x40\n      mstore\n      dup1\n      swap3\n      swap2\n      swap1\n      dup2\n      dup2\n      mstore\n      0x20\n      add\n      dup3\n      dup1\n      sload\n      tag_160\n      swap1\n      tag_135\n      jump\t// in\n    tag_160:\n      dup1\n      iszero\n      tag_161\n      jumpi\n      dup1\n      0x1f\n      lt\n      tag_162\n      jumpi\n      0x0100\n      dup1\n      dup4\n      sload\n      div\n      mul\n      dup4\n      mstore\n      swap2\n      0x20\n      add\n      swap2\n      jump(tag_161)\n    tag_162:\n      dup3\n      add\n      swap2\n      swap1\n      0x00\n      mstore\n      keccak256(0x00, 0x20)\n      swap1\n    tag_163:\n      dup2\n      sload\n      dup2\n      mstore\n      swap1\n      0x01\n      add\n      swap1\n      0x20\n      add\n      dup1\n      dup4\n      gt\n      tag_163\n      jumpi\n      dup3\n      swap1\n      sub\n      0x1f\n      and\n      dup3\n      add\n      swap2\n    tag_161:\n      pop\n      pop\n      pop\n      pop\n      pop\n      swap1\n      dup1\n      0x01\n      add\n      sload\n      swap1\n      dup1\n      0x02\n      add\n      sload\n      swap1\n      pop\n      dup4\n      jump\t// out\n        /* \"contracts/CarRentalSmartContract.sol\":1521:1597  mapping (address => mapping(string => uint)) public customerRentingCarNumber */\n    tag_44:\n      mstore(0x20, 0x01)\n      dup2\n      0x00\n      mstore\n      keccak256(0x00, 0x40)\n      dup2\n      dup1\n      mload\n      0x20\n      dup2\n      add\n      dup3\n      add\n      dup1\n      mload\n      dup5\n      dup3\n      mstore\n      0x20\n      dup4\n      add\n      0x20\n      dup6\n      add\n      keccak256\n      dup2\n      dup4\n      mstore\n      dup1\n      swap6\n      pop\n      pop\n      pop\n      pop\n      pop\n      pop\n      0x00\n      swap2\n      pop\n      swap2\n      pop\n      pop\n      sload\n      dup2\n      jump\t// out\n        /* \"contracts/CarRentalSmartContract.sol\":2084:2159  mapping (uint => customerReturnCarRecord) public allCustomerReturnCarRecord */\n    tag_49:\n      mstore(0x20, 0x07)\n      dup1\n      0x00\n      mstore\n      keccak256(0x00, 0x40)\n      0x00\n      swap2\n      pop\n      swap1\n      pop\n      dup1\n      0x00\n      add\n      sload\n      swap1\n      dup1\n      0x01\n      add\n      sload\n      swap1\n      dup1\n      0x02\n      add\n      0x00\n      swap1\n      sload\n      swap1\n      0x0100\n      exp\n      swap1\n      div\n      0xffffffffffffffffffffffffffffffffffffffff\n      and\n      swap1\n      dup1\n      0x03\n      add\n      dup1\n      sload\n      tag_164\n      swap1\n      tag_135\n      jump\t// in\n    tag_164:\n      dup1\n      0x1f\n      add\n      0x20\n      dup1\n      swap2\n      div\n      mul\n      0x20\n      add\n      mload(0x40)\n      swap1\n      dup2\n      add\n      0x40\n      mstore\n      dup1\n      swap3\n      swap2\n      swap1\n      dup2\n      dup2\n      mstore\n      0x20\n      add\n      dup3\n      dup1\n      sload\n      tag_165\n      swap1\n      tag_135\n      jump\t// in\n    tag_165:\n      dup1\n      iszero\n      tag_166\n      jumpi\n      dup1\n      0x1f\n      lt\n      tag_167\n      jumpi\n      0x0100\n      dup1\n      dup4\n      sload\n      div\n      mul\n      dup4\n      mstore\n      swap2\n      0x20\n      add\n      swap2\n      jump(tag_166)\n    tag_167:\n      dup3\n      add\n      swap2\n      swap1\n      0x00\n      mstore\n      keccak256(0x00, 0x20)\n      swap1\n    tag_168:\n      dup2\n      sload\n      dup2\n      mstore\n      swap1\n      0x01\n      add\n      swap1\n      0x20\n      add\n      dup1\n      dup4\n      gt\n      tag_168\n      jumpi\n      dup3\n      swap1\n      sub\n      0x1f\n      and\n      dup3\n      add\n      swap2\n    tag_166:\n      pop\n      pop\n      pop\n      pop\n      pop\n      swap1\n      dup1\n      0x04\n      add\n      sload\n      swap1\n      dup1\n      0x05\n      add\n      sload\n      swap1\n      dup1\n      0x06\n      add\n      sload\n      swap1\n      pop\n      dup8\n      jump\t// out\n        /* \"contracts/CarRentalSmartContract.sol\":8343:10246  function ABCAuditDeposit(uint returnRecordId, uint damageFixFeeHere) payable public onlyABCCompanyCanCall returns (ABCAuditDepositRecord memory) {... */\n    tag_55:\n        /* \"contracts/CarRentalSmartContract.sol\":8458:8486  ABCAuditDepositRecord memory */\n      tag_169\n      tag_170\n      jump\t// in\n    tag_169:\n        /* \"contracts/CarRentalSmartContract.sol\":2559:2569  ABCAddress */\n      0x00\n      dup1\n      sload\n      swap1\n      0x0100\n      exp\n      swap1\n      div\n      0xffffffffffffffffffffffffffffffffffffffff\n      and\n        /* \"contracts/CarRentalSmartContract.sol\":2545:2569  msg.sender == ABCAddress */\n      0xffffffffffffffffffffffffffffffffffffffff\n      and\n        /* \"contracts/CarRentalSmartContract.sol\":2545:2555  msg.sender */\n      caller\n        /* \"contracts/CarRentalSmartContract.sol\":2545:2569  msg.sender == ABCAddress */\n      0xffffffffffffffffffffffffffffffffffffffff\n      and\n      eq\n        /* \"contracts/CarRentalSmartContract.sol\":2537:2606  require(msg.sender == ABCAddress, \"Only ABC can call this function!\") */\n      tag_172\n      jumpi\n      mload(0x40)\n      0x08c379a000000000000000000000000000000000000000000000000000000000\n      dup2\n      mstore\n      0x04\n      add\n      tag_173\n      swap1\n      tag_174\n      jump\t// in\n    tag_173:\n      mload(0x40)\n      dup1\n      swap2\n      sub\n      swap1\n      revert\n    tag_172:\n        /* \"contracts/CarRentalSmartContract.sol\":8524:8545  currentReturnRecordId */\n      sload(0x06)\n        /* \"contracts/CarRentalSmartContract.sol\":8506:8520  returnRecordId */\n      dup4\n        /* \"contracts/CarRentalSmartContract.sol\":8506:8545  returnRecordId <= currentReturnRecordId */\n      gt\n      iszero\n        /* \"contracts/CarRentalSmartContract.sol\":8506:8567  returnRecordId <= currentReturnRecordId && returnRecordId > 0 */\n      dup1\n      iszero\n      tag_176\n      jumpi\n      pop\n        /* \"contracts/CarRentalSmartContract.sol\":8566:8567  0 */\n      0x00\n        /* \"contracts/CarRentalSmartContract.sol\":8549:8563  returnRecordId */\n      dup4\n        /* \"contracts/CarRentalSmartContract.sol\":8549:8567  returnRecordId > 0 */\n      gt\n        /* \"contracts/CarRentalSmartContract.sol\":8506:8567  returnRecordId <= currentReturnRecordId && returnRecordId > 0 */\n    tag_176:\n        /* \"contracts/CarRentalSmartContract.sol\":8498:8600  require(returnRecordId <= currentReturnRecordId && returnRecordId > 0, \"Input returnRecordId Invaid!\") */\n      tag_177\n      jumpi\n      mload(0x40)\n      0x08c379a000000000000000000000000000000000000000000000000000000000\n      dup2\n      mstore\n      0x04\n      add\n      tag_178\n      swap1\n      tag_179\n      jump\t// in\n    tag_178:\n      mload(0x40)\n      dup1\n      swap2\n      sub\n      swap1\n      revert\n    tag_177:\n        /* \"contracts/CarRentalSmartContract.sol\":8766:8768  -1 */\n      0xffffffffffffffffffffffffffffffffffffffffffffffffffffffffffffffff\n        /* \"contracts/CarRentalSmartContract.sol\":8706:8732  allCustomerReturnCarRecord */\n      0x07\n        /* \"contracts/CarRentalSmartContract.sol\":8706:8748  allCustomerReturnCarRecord[returnRecordId] */\n      0x00\n        /* \"contracts/CarRentalSmartContract.sol\":8733:8747  returnRecordId */\n      dup6\n        /* \"contracts/CarRentalSmartContract.sol\":8706:8748  allCustomerReturnCarRecord[returnRecordId] */\n      dup2\n      mstore\n      0x20\n      add\n      swap1\n      dup2\n      mstore\n      0x20\n      add\n      0x00\n      keccak256\n        /* \"contracts/CarRentalSmartContract.sol\":8706:8762  allCustomerReturnCarRecord[returnRecordId].auditRecordId */\n      0x06\n      add\n      sload\n        /* \"contracts/CarRentalSmartContract.sol\":8706:8768  allCustomerReturnCarRecord[returnRecordId].auditRecordId == -1 */\n      eq\n        /* \"contracts/CarRentalSmartContract.sol\":8698:8826  require(allCustomerReturnCarRecord[returnRecordId].auditRecordId == -1, \"The return of this returnId has been already audited!\") */\n      tag_180\n      jumpi\n      mload(0x40)\n      0x08c379a000000000000000000000000000000000000000000000000000000000\n      dup2\n      mstore\n      0x04\n      add\n      tag_181\n      swap1\n      tag_182\n      jump\t// in\n    tag_181:\n      mload(0x40)\n      dup1\n      swap2\n      sub\n      swap1\n      revert\n    tag_180:\n        /* \"contracts/CarRentalSmartContract.sol\":8894:8921  address customerAddressHere */\n      0x00\n        /* \"contracts/CarRentalSmartContract.sol\":8924:8950  allCustomerReturnCarRecord */\n      0x07\n        /* \"contracts/CarRentalSmartContract.sol\":8924:8966  allCustomerReturnCarRecord[returnRecordId] */\n      0x00\n        /* \"contracts/CarRentalSmartContract.sol\":8951:8965  returnRecordId */\n      dup6\n        /* \"contracts/CarRentalSmartContract.sol\":8924:8966  allCustomerReturnCarRecord[returnRecordId] */\n      dup2\n      mstore\n      0x20\n      add\n      swap1\n      dup2\n      mstore\n      0x20\n      add\n      0x00\n      keccak256\n        /* \"contracts/CarRentalSmartContract.sol\":8924:8982  allCustomerReturnCarRecord[returnRecordId].customerAddress */\n      0x02\n      add\n      0x00\n      swap1\n      sload\n      swap1\n      0x0100\n      exp\n      swap1\n      div\n      0xffffffffffffffffffffffffffffffffffffffff\n      and\n        /* \"contracts/CarRentalSmartContract.sol\":8894:8982  address customerAddressHere = allCustomerReturnCarRecord[returnRecordId].customerAddress */\n      swap1\n      pop\n        /* \"contracts/CarRentalSmartContract.sol\":8992:9013  uint totalDepositHere */\n      0x00\n        /* \"contracts/CarRentalSmartContract.sol\":9016:9040  allCustomerRentCarRecord */\n      0x05\n        /* \"contracts/CarRentalSmartContract.sol\":9016:9097  allCustomerRentCarRecord[allCustomerReturnCarRecord[returnRecordId].rentRecordId] */\n      0x00\n        /* \"contracts/CarRentalSmartContract.sol\":9041:9067  allCustomerReturnCarRecord */\n      0x07\n        /* \"contracts/CarRentalSmartContract.sol\":9041:9083  allCustomerReturnCarRecord[returnRecordId] */\n      0x00\n        /* \"contracts/CarRentalSmartContract.sol\":9068:9082  returnRecordId */\n      dup9\n        /* \"contracts/CarRentalSmartContract.sol\":9041:9083  allCustomerReturnCarRecord[returnRecordId] */\n      dup2\n      mstore\n      0x20\n      add\n      swap1\n      dup2\n      mstore\n      0x20\n      add\n      0x00\n      keccak256\n        /* \"contracts/CarRentalSmartContract.sol\":9041:9096  allCustomerReturnCarRecord[returnRecordId].rentRecordId */\n      0x01\n      add\n      sload\n        /* \"contracts/CarRentalSmartContract.sol\":9016:9097  allCustomerRentCarRecord[allCustomerReturnCarRecord[returnRecordId].rentRecordId] */\n      dup2\n      mstore\n      0x20\n      add\n      swap1\n      dup2\n      mstore\n      0x20\n      add\n      0x00\n      keccak256\n        /* \"contracts/CarRentalSmartContract.sol\":9016:9115  allCustomerRentCarRecord[allCustomerReturnCarRecord[returnRecordId].rentRecordId].totalMoneyDeposit */\n      0x04\n      add\n      sload\n        /* \"contracts/CarRentalSmartContract.sol\":8992:9115  uint totalDepositHere = allCustomerRentCarRecord[allCustomerReturnCarRecord[returnRecordId].rentRecordId].totalMoneyDeposit */\n      swap1\n      pop\n        /* \"contracts/CarRentalSmartContract.sol\":9125:9141  uint rentFeeHere */\n      0x00\n        /* \"contracts/CarRentalSmartContract.sol\":9144:9170  allCustomerReturnCarRecord */\n      0x07\n        /* \"contracts/CarRentalSmartContract.sol\":9144:9186  allCustomerReturnCarRecord[returnRecordId] */\n      0x00\n        /* \"contracts/CarRentalSmartContract.sol\":9171:9185  returnRecordId */\n      dup8\n        /* \"contracts/CarRentalSmartContract.sol\":9144:9186  allCustomerReturnCarRecord[returnRecordId] */\n      dup2\n      mstore\n      0x20\n      add\n      swap1\n      dup2\n      mstore\n      0x20\n      add\n      0x00\n      keccak256\n        /* \"contracts/CarRentalSmartContract.sol\":9144:9194  allCustomerReturnCarRecord[returnRecordId].rentFee */\n      0x05\n      add\n      sload\n        /* \"contracts/CarRentalSmartContract.sol\":9125:9194  uint rentFeeHere = allCustomerReturnCarRecord[returnRecordId].rentFee */\n      swap1\n      pop\n        /* \"contracts/CarRentalSmartContract.sol\":9275:9296  uint refundAmountHere */\n      0x00\n        /* \"contracts/CarRentalSmartContract.sol\":9332:9348  damageFixFeeHere */\n      dup6\n        /* \"contracts/CarRentalSmartContract.sol\":9318:9329  rentFeeHere */\n      dup3\n        /* \"contracts/CarRentalSmartContract.sol\":9299:9315  totalDepositHere */\n      dup5\n        /* \"contracts/CarRentalSmartContract.sol\":9299:9329  totalDepositHere - rentFeeHere */\n      tag_183\n      swap2\n      swap1\n      tag_143\n      jump\t// in\n    tag_183:\n        /* \"contracts/CarRentalSmartContract.sol\":9299:9348  totalDepositHere - rentFeeHere - damageFixFeeHere */\n      tag_184\n      swap2\n      swap1\n      tag_143\n      jump\t// in\n    tag_184:\n        /* \"contracts/CarRentalSmartContract.sol\":9275:9348  uint refundAmountHere = totalDepositHere - rentFeeHere - damageFixFeeHere */\n      swap1\n      pop\n        /* \"contracts/CarRentalSmartContract.sol\":9389:9396  tokenSC */\n      0x0a\n      0x00\n      swap1\n      sload\n      swap1\n      0x0100\n      exp\n      swap1\n      div\n      0xffffffffffffffffffffffffffffffffffffffff\n      and\n        /* \"contracts/CarRentalSmartContract.sol\":9389:9409  tokenSC.transferFrom */\n      0xffffffffffffffffffffffffffffffffffffffff\n      and\n      0x23b872dd\n        /* \"contracts/CarRentalSmartContract.sol\":9410:9420  ABCAddress */\n      0x00\n      dup1\n      sload\n      swap1\n      0x0100\n      exp\n      swap1\n      div\n      0xffffffffffffffffffffffffffffffffffffffff\n      and\n        /* \"contracts/CarRentalSmartContract.sol\":9422:9441  customerAddressHere */\n      dup7\n        /* \"contracts/CarRentalSmartContract.sol\":9443:9459  refundAmountHere */\n      dup5\n        /* \"contracts/CarRentalSmartContract.sol\":9389:9460  tokenSC.transferFrom(ABCAddress, customerAddressHere, refundAmountHere) */\n      mload(0x40)\n      dup5\n      0xffffffff\n      and\n      0xe0\n      shl\n      dup2\n      mstore\n      0x04\n      add\n      tag_185\n      swap4\n      swap3\n      swap2\n      swap1\n      tag_186\n      jump\t// in\n    tag_185:\n      0x20\n      mload(0x40)\n      dup1\n      dup4\n      sub\n      dup2\n      0x00\n      dup8\n      dup1\n      extcodesize\n      iszero\n      dup1\n      iszero\n      tag_187\n      jumpi\n      0x00\n      dup1\n      revert\n    tag_187:\n      pop\n      gas\n      call\n      iszero\n      dup1\n      iszero\n      tag_189\n      jumpi\n      returndatasize\n      0x00\n      dup1\n      returndatacopy\n      revert(0x00, returndatasize)\n    tag_189:\n      pop\n      pop\n      pop\n      pop\n      mload(0x40)\n      returndatasize\n      not(0x1f)\n      0x1f\n      dup3\n      add\n      and\n      dup3\n      add\n      dup1\n      0x40\n      mstore\n      pop\n      dup2\n      add\n      swap1\n      tag_190\n      swap2\n      swap1\n      tag_119\n      jump\t// in\n    tag_190:\n      pop\n        /* \"contracts/CarRentalSmartContract.sol\":9471:9522  ABCAuditDepositRecord memory auditDepositRecordHere */\n      0x00\n        /* \"contracts/CarRentalSmartContract.sol\":9525:9980  ABCAuditDepositRecord(currentAuditRecordId, ... */\n      mload(0x40)\n      dup1\n      0xa0\n      add\n      0x40\n      mstore\n      dup1\n        /* \"contracts/CarRentalSmartContract.sol\":9547:9567  currentAuditRecordId */\n      sload(0x08)\n        /* \"contracts/CarRentalSmartContract.sol\":9525:9980  ABCAuditDepositRecord(currentAuditRecordId, ... */\n      dup2\n      mstore\n      0x20\n      add\n        /* \"contracts/CarRentalSmartContract.sol\":9654:9668  returnRecordId */\n      dup10\n        /* \"contracts/CarRentalSmartContract.sol\":9525:9980  ABCAuditDepositRecord(currentAuditRecordId, ... */\n      dup2\n      mstore\n      0x20\n      add\n        /* \"contracts/CarRentalSmartContract.sol\":9754:9773  customerAddressHere */\n      dup7\n        /* \"contracts/CarRentalSmartContract.sol\":9525:9980  ABCAuditDepositRecord(currentAuditRecordId, ... */\n      0xffffffffffffffffffffffffffffffffffffffff\n      and\n      dup2\n      mstore\n      0x20\n      add\n        /* \"contracts/CarRentalSmartContract.sol\":9860:9876  damageFixFeeHere */\n      dup9\n        /* \"contracts/CarRentalSmartContract.sol\":9525:9980  ABCAuditDepositRecord(currentAuditRecordId, ... */\n      dup2\n      mstore\n      0x20\n      add\n        /* \"contracts/CarRentalSmartContract.sol\":9963:9979  refundAmountHere */\n      dup4\n        /* \"contracts/CarRentalSmartContract.sol\":9525:9980  ABCAuditDepositRecord(currentAuditRecordId, ... */\n      dup2\n      mstore\n      pop\n        /* \"contracts/CarRentalSmartContract.sol\":9471:9980  ABCAuditDepositRecord memory auditDepositRecordHere = ABCAuditDepositRecord(currentAuditRecordId, ... */\n      swap1\n      pop\n        /* \"contracts/CarRentalSmartContract.sol\":10040:10062  auditDepositRecordHere */\n      dup1\n        /* \"contracts/CarRentalSmartContract.sol\":9991:10015  allABCAuditDepositRecord */\n      0x09\n        /* \"contracts/CarRentalSmartContract.sol\":9991:10037  allABCAuditDepositRecord[currentAuditRecordId] */\n      0x00\n        /* \"contracts/CarRentalSmartContract.sol\":10016:10036  currentAuditRecordId */\n      sload(0x08)\n        /* \"contracts/CarRentalSmartContract.sol\":9991:10037  allABCAuditDepositRecord[currentAuditRecordId] */\n      dup2\n      mstore\n      0x20\n      add\n      swap1\n      dup2\n      mstore\n      0x20\n      add\n      0x00\n      keccak256\n        /* \"contracts/CarRentalSmartContract.sol\":9991:10062  allABCAuditDepositRecord[currentAuditRecordId] = auditDepositRecordHere */\n      0x00\n      dup3\n      add\n      mload\n      dup2\n      0x00\n      add\n      sstore\n      0x20\n      dup3\n      add\n      mload\n      dup2\n      0x01\n      add\n      sstore\n      0x40\n      dup3\n      add\n      mload\n      dup2\n      0x02\n      add\n      exp(0x0100, 0x00)\n      dup2\n      sload\n      dup2\n      0xffffffffffffffffffffffffffffffffffffffff\n      mul\n      not\n      and\n      swap1\n      dup4\n      0xffffffffffffffffffffffffffffffffffffffff\n      and\n      mul\n      or\n      swap1\n      sstore\n      pop\n      0x60\n      dup3\n      add\n      mload\n      dup2\n      0x03\n      add\n      sstore\n      0x80\n      dup3\n      add\n      mload\n      dup2\n      0x04\n      add\n      sstore\n      swap1\n      pop\n      pop\n        /* \"contracts/CarRentalSmartContract.sol\":10135:10155  currentAuditRecordId */\n      sload(0x08)\n        /* \"contracts/CarRentalSmartContract.sol\":10072:10098  allCustomerReturnCarRecord */\n      0x07\n        /* \"contracts/CarRentalSmartContract.sol\":10072:10114  allCustomerReturnCarRecord[returnRecordId] */\n      0x00\n        /* \"contracts/CarRentalSmartContract.sol\":10099:10113  returnRecordId */\n      dup11\n        /* \"contracts/CarRentalSmartContract.sol\":10072:10114  allCustomerReturnCarRecord[returnRecordId] */\n      dup2\n      mstore\n      0x20\n      add\n      swap1\n      dup2\n      mstore\n      0x20\n      add\n      0x00\n      keccak256\n        /* \"contracts/CarRentalSmartContract.sol\":10072:10128  allCustomerReturnCarRecord[returnRecordId].auditRecordId */\n      0x06\n      add\n        /* \"contracts/CarRentalSmartContract.sol\":10072:10156  allCustomerReturnCarRecord[returnRecordId].auditRecordId = int(currentAuditRecordId) */\n      dup2\n      swap1\n      sstore\n      pop\n        /* \"contracts/CarRentalSmartContract.sol\":10190:10191  1 */\n      0x01\n        /* \"contracts/CarRentalSmartContract.sol\":10166:10186  currentAuditRecordId */\n      0x08\n      0x00\n        /* \"contracts/CarRentalSmartContract.sol\":10166:10191  currentAuditRecordId += 1 */\n      dup3\n      dup3\n      sload\n      tag_191\n      swap2\n      swap1\n      tag_146\n      jump\t// in\n    tag_191:\n      swap3\n      pop\n      pop\n      dup2\n      swap1\n      sstore\n      pop\n        /* \"contracts/CarRentalSmartContract.sol\":10217:10239  auditDepositRecordHere */\n      dup1\n        /* \"contracts/CarRentalSmartContract.sol\":10210:10239  return auditDepositRecordHere */\n      swap6\n      pop\n      pop\n      pop\n      pop\n      pop\n      pop\n        /* \"contracts/CarRentalSmartContract.sol\":8343:10246  function ABCAuditDeposit(uint returnRecordId, uint damageFixFeeHere) payable public onlyABCCompanyCanCall returns (ABCAuditDepositRecord memory) {... */\n      swap3\n      swap2\n      pop\n      pop\n      jump\t// out\n        /* \"contracts/CarRentalSmartContract.sol\":2041:2078  uint public currentReturnRecordId = 1 */\n    tag_60:\n      sload(0x06)\n      dup2\n      jump\t// out\n        /* \"contracts/CarRentalSmartContract.sol\":1766:1813  mapping (string => uint) public carAvailability */\n    tag_65:\n      0x03\n      dup2\n      dup1\n      mload\n      0x20\n      dup2\n      add\n      dup3\n      add\n      dup1\n      mload\n      dup5\n      dup3\n      mstore\n      0x20\n      dup4\n      add\n      0x20\n      dup6\n      add\n      keccak256\n      dup2\n      dup4\n      mstore\n      dup1\n      swap6\n      pop\n      pop\n      pop\n      pop\n      pop\n      pop\n      0x00\n      swap2\n      pop\n      swap1\n      pop\n      sload\n      dup2\n      jump\t// out\n        /* \"contracts/CarRentalSmartContract.sol\":4177:5557  function customerRentCar(string calldata carName, uint rentDays) payable public onlyRegisteredCustomerCanCall returns (customerRentCarRecord memory) {... */\n    tag_70:\n        /* \"contracts/CarRentalSmartContract.sol\":4296:4324  customerRentCarRecord memory */\n      tag_192\n      tag_193\n      jump\t// in\n    tag_192:\n        /* \"contracts/CarRentalSmartContract.sol\":2813:2823  identitySC */\n      0x0b\n      0x00\n      swap1\n      sload\n      swap1\n      0x0100\n      exp\n      swap1\n      div\n      0xffffffffffffffffffffffffffffffffffffffff\n      and\n        /* \"contracts/CarRentalSmartContract.sol\":2813:2840  identitySC.verifyIsBorrower */\n      0xffffffffffffffffffffffffffffffffffffffff\n      and\n      0xe701c350\n        /* \"contracts/CarRentalSmartContract.sol\":2841:2851  msg.sender */\n      caller\n        /* \"contracts/CarRentalSmartContract.sol\":2813:2852  identitySC.verifyIsBorrower(msg.sender) */\n      mload(0x40)\n      dup3\n      0xffffffff\n      and\n      0xe0\n      shl\n      dup2\n      mstore\n      0x04\n      add\n      tag_195\n      swap2\n      swap1\n      tag_110\n      jump\t// in\n    tag_195:\n      0x20\n      mload(0x40)\n      dup1\n      dup4\n      sub\n      dup2\n      dup7\n      dup1\n      extcodesize\n      iszero\n      dup1\n      iszero\n      tag_196\n      jumpi\n      0x00\n      dup1\n      revert\n    tag_196:\n      pop\n      gas\n      staticcall\n      iszero\n      dup1\n      iszero\n      tag_198\n      jumpi\n      returndatasize\n      0x00\n      dup1\n      returndatacopy\n      revert(0x00, returndatasize)\n    tag_198:\n      pop\n      pop\n      pop\n      pop\n      mload(0x40)\n      returndatasize\n      not(0x1f)\n      0x1f\n      dup3\n      add\n      and\n      dup3\n      add\n      dup1\n      0x40\n      mstore\n      pop\n      dup2\n      add\n      swap1\n      tag_199\n      swap2\n      swap1\n      tag_119\n      jump\t// in\n    tag_199:\n        /* \"contracts/CarRentalSmartContract.sol\":2805:2870  require(identitySC.verifyIsBorrower(msg.sender), \"Borrower Only\") */\n      tag_200\n      jumpi\n      mload(0x40)\n      0x08c379a000000000000000000000000000000000000000000000000000000000\n      dup2\n      mstore\n      0x04\n      add\n      tag_201\n      swap1\n      tag_122\n      jump\t// in\n    tag_201:\n      mload(0x40)\n      dup1\n      swap2\n      sub\n      swap1\n      revert\n    tag_200:\n        /* \"contracts/CarRentalSmartContract.sol\":4483:4484  0 */\n      0x00\n        /* \"contracts/CarRentalSmartContract.sol\":4456:4471  carAvailability */\n      0x03\n        /* \"contracts/CarRentalSmartContract.sol\":4472:4479  carName */\n      dup6\n      dup6\n        /* \"contracts/CarRentalSmartContract.sol\":4456:4480  carAvailability[carName] */\n      mload(0x40)\n      tag_203\n      swap3\n      swap2\n      swap1\n      tag_204\n      jump\t// in\n    tag_203:\n      swap1\n      dup2\n      mstore\n      0x20\n      add\n      mload(0x40)\n      dup1\n      swap2\n      sub\n      swap1\n      keccak256\n      sload\n        /* \"contracts/CarRentalSmartContract.sol\":4456:4484  carAvailability[carName] > 0 */\n      gt\n        /* \"contracts/CarRentalSmartContract.sol\":4448:4523  require(carAvailability[carName] > 0, \"No this type's cars available now!\") */\n      tag_205\n      jumpi\n      mload(0x40)\n      0x08c379a000000000000000000000000000000000000000000000000000000000\n      dup2\n      mstore\n      0x04\n      add\n      tag_206\n      swap1\n      tag_207\n      jump\t// in\n    tag_206:\n      mload(0x40)\n      dup1\n      swap2\n      sub\n      swap1\n      revert\n    tag_205:\n        /* \"contracts/CarRentalSmartContract.sol\":4534:4555  uint depositValueHere */\n      0x00\n        /* \"contracts/CarRentalSmartContract.sol\":4600:4607  carInfo */\n      0x02\n        /* \"contracts/CarRentalSmartContract.sol\":4608:4615  carName */\n      dup6\n      dup6\n        /* \"contracts/CarRentalSmartContract.sol\":4600:4616  carInfo[carName] */\n      mload(0x40)\n      tag_208\n      swap3\n      swap2\n      swap1\n      tag_204\n      jump\t// in\n    tag_208:\n      swap1\n      dup2\n      mstore\n      0x20\n      add\n      mload(0x40)\n      dup1\n      swap2\n      sub\n      swap1\n      keccak256\n        /* \"contracts/CarRentalSmartContract.sol\":4600:4626  carInfo[carName].dailyRent */\n      0x02\n      add\n      sload\n        /* \"contracts/CarRentalSmartContract.sol\":4589:4597  rentDays */\n      dup4\n        /* \"contracts/CarRentalSmartContract.sol\":4589:4626  rentDays * carInfo[carName].dailyRent */\n      tag_209\n      swap2\n      swap1\n      tag_155\n      jump\t// in\n    tag_209:\n        /* \"contracts/CarRentalSmartContract.sol\":4558:4565  carInfo */\n      0x02\n        /* \"contracts/CarRentalSmartContract.sol\":4566:4573  carName */\n      dup7\n      dup7\n        /* \"contracts/CarRentalSmartContract.sol\":4558:4574  carInfo[carName] */\n      mload(0x40)\n      tag_210\n      swap3\n      swap2\n      swap1\n      tag_204\n      jump\t// in\n    tag_210:\n      swap1\n      dup2\n      mstore\n      0x20\n      add\n      mload(0x40)\n      dup1\n      swap2\n      sub\n      swap1\n      keccak256\n        /* \"contracts/CarRentalSmartContract.sol\":4558:4586  carInfo[carName].needDeposit */\n      0x01\n      add\n      sload\n        /* \"contracts/CarRentalSmartContract.sol\":4558:4626  carInfo[carName].needDeposit + rentDays * carInfo[carName].dailyRent */\n      tag_211\n      swap2\n      swap1\n      tag_146\n      jump\t// in\n    tag_211:\n        /* \"contracts/CarRentalSmartContract.sol\":4534:4626  uint depositValueHere = carInfo[carName].needDeposit + rentDays * carInfo[carName].dailyRent */\n      swap1\n      pop\n        /* \"contracts/CarRentalSmartContract.sol\":4929:4930  1 */\n      0x01\n        /* \"contracts/CarRentalSmartContract.sol\":4880:4904  customerRentingCarNumber */\n      dup1\n        /* \"contracts/CarRentalSmartContract.sol\":4880:4916  customerRentingCarNumber[msg.sender] */\n      0x00\n        /* \"contracts/CarRentalSmartContract.sol\":4905:4915  msg.sender */\n      caller\n        /* \"contracts/CarRentalSmartContract.sol\":4880:4916  customerRentingCarNumber[msg.sender] */\n      0xffffffffffffffffffffffffffffffffffffffff\n      and\n      0xffffffffffffffffffffffffffffffffffffffff\n      and\n      dup2\n      mstore\n      0x20\n      add\n      swap1\n      dup2\n      mstore\n      0x20\n      add\n      0x00\n      keccak256\n        /* \"contracts/CarRentalSmartContract.sol\":4917:4924  carName */\n      dup7\n      dup7\n        /* \"contracts/CarRentalSmartContract.sol\":4880:4925  customerRentingCarNumber[msg.sender][carName] */\n      mload(0x40)\n      tag_212\n      swap3\n      swap2\n      swap1\n      tag_204\n      jump\t// in\n    tag_212:\n      swap1\n      dup2\n      mstore\n      0x20\n      add\n      mload(0x40)\n      dup1\n      swap2\n      sub\n      swap1\n      keccak256\n      0x00\n        /* \"contracts/CarRentalSmartContract.sol\":4880:4930  customerRentingCarNumber[msg.sender][carName] += 1 */\n      dup3\n      dup3\n      sload\n      tag_213\n      swap2\n      swap1\n      tag_146\n      jump\t// in\n    tag_213:\n      swap3\n      pop\n      pop\n      dup2\n      swap1\n      sstore\n      pop\n        /* \"contracts/CarRentalSmartContract.sol\":5010:5011  1 */\n      0x01\n        /* \"contracts/CarRentalSmartContract.sol\":4982:4997  carAvailability */\n      0x03\n        /* \"contracts/CarRentalSmartContract.sol\":4998:5005  carName */\n      dup7\n      dup7\n        /* \"contracts/CarRentalSmartContract.sol\":4982:5006  carAvailability[carName] */\n      mload(0x40)\n      tag_214\n      swap3\n      swap2\n      swap1\n      tag_204\n      jump\t// in\n    tag_214:\n      swap1\n      dup2\n      mstore\n      0x20\n      add\n      mload(0x40)\n      dup1\n      swap2\n      sub\n      swap1\n      keccak256\n      0x00\n        /* \"contracts/CarRentalSmartContract.sol\":4982:5011  carAvailability[carName] -= 1 */\n      dup3\n      dup3\n      sload\n      tag_215\n      swap2\n      swap1\n      tag_143\n      jump\t// in\n    tag_215:\n      swap3\n      pop\n      pop\n      dup2\n      swap1\n      sstore\n      pop\n        /* \"contracts/CarRentalSmartContract.sol\":5111:5157  customerRentCarRecord memory thisRentCarRecord */\n      0x00\n        /* \"contracts/CarRentalSmartContract.sol\":5160:5265  customerRentCarRecord(currentRentRecordId, msg.sender, carName, rentDays, msg.value, block.timestamp, -1) */\n      mload(0x40)\n      dup1\n      0xe0\n      add\n      0x40\n      mstore\n      dup1\n        /* \"contracts/CarRentalSmartContract.sol\":5182:5201  currentRentRecordId */\n      sload(0x04)\n        /* \"contracts/CarRentalSmartContract.sol\":5160:5265  customerRentCarRecord(currentRentRecordId, msg.sender, carName, rentDays, msg.value, block.timestamp, -1) */\n      dup2\n      mstore\n      0x20\n      add\n        /* \"contracts/CarRentalSmartContract.sol\":5203:5213  msg.sender */\n      caller\n        /* \"contracts/CarRentalSmartContract.sol\":5160:5265  customerRentCarRecord(currentRentRecordId, msg.sender, carName, rentDays, msg.value, block.timestamp, -1) */\n      0xffffffffffffffffffffffffffffffffffffffff\n      and\n      dup2\n      mstore\n      0x20\n      add\n        /* \"contracts/CarRentalSmartContract.sol\":5215:5222  carName */\n      dup8\n      dup8\n        /* \"contracts/CarRentalSmartContract.sol\":5160:5265  customerRentCarRecord(currentRentRecordId, msg.sender, carName, rentDays, msg.value, block.timestamp, -1) */\n      dup1\n      dup1\n      0x1f\n      add\n      0x20\n      dup1\n      swap2\n      div\n      mul\n      0x20\n      add\n      mload(0x40)\n      swap1\n      dup2\n      add\n      0x40\n      mstore\n      dup1\n      swap4\n      swap3\n      swap2\n      swap1\n      dup2\n      dup2\n      mstore\n      0x20\n      add\n      dup4\n      dup4\n      dup1\n      dup3\n      dup5\n      calldatacopy\n      0x00\n      dup2\n      dup5\n      add\n      mstore\n      not(0x1f)\n      0x1f\n      dup3\n      add\n      and\n      swap1\n      pop\n      dup1\n      dup4\n      add\n      swap3\n      pop\n      pop\n      pop\n      pop\n      pop\n      pop\n      pop\n      dup2\n      mstore\n      0x20\n      add\n        /* \"contracts/CarRentalSmartContract.sol\":5224:5232  rentDays */\n      dup6\n        /* \"contracts/CarRentalSmartContract.sol\":5160:5265  customerRentCarRecord(currentRentRecordId, msg.sender, carName, rentDays, msg.value, block.timestamp, -1) */\n      dup2\n      mstore\n      0x20\n      add\n        /* \"contracts/CarRentalSmartContract.sol\":5234:5243  msg.value */\n      callvalue\n        /* \"contracts/CarRentalSmartContract.sol\":5160:5265  customerRentCarRecord(currentRentRecordId, msg.sender, carName, rentDays, msg.value, block.timestamp, -1) */\n      dup2\n      mstore\n      0x20\n      add\n        /* \"contracts/CarRentalSmartContract.sol\":5245:5260  block.timestamp */\n      timestamp\n        /* \"contracts/CarRentalSmartContract.sol\":5160:5265  customerRentCarRecord(currentRentRecordId, msg.sender, carName, rentDays, msg.value, block.timestamp, -1) */\n      dup2\n      mstore\n      0x20\n      add\n        /* \"contracts/CarRentalSmartContract.sol\":5262:5264  -1 */\n      0xffffffffffffffffffffffffffffffffffffffffffffffffffffffffffffffff\n        /* \"contracts/CarRentalSmartContract.sol\":5160:5265  customerRentCarRecord(currentRentRecordId, msg.sender, carName, rentDays, msg.value, block.timestamp, -1) */\n      dup2\n      mstore\n      pop\n        /* \"contracts/CarRentalSmartContract.sol\":5111:5265  customerRentCarRecord memory thisRentCarRecord = customerRentCarRecord(currentRentRecordId, msg.sender, carName, rentDays, msg.value, block.timestamp, -1) */\n      swap1\n      pop\n        /* \"contracts/CarRentalSmartContract.sol\":5323:5340  thisRentCarRecord */\n      dup1\n        /* \"contracts/CarRentalSmartContract.sol\":5275:5299  allCustomerRentCarRecord */\n      0x05\n        /* \"contracts/CarRentalSmartContract.sol\":5275:5320  allCustomerRentCarRecord[currentRentRecordId] */\n      0x00\n        /* \"contracts/CarRentalSmartContract.sol\":5300:5319  currentRentRecordId */\n      sload(0x04)\n        /* \"contracts/CarRentalSmartContract.sol\":5275:5320  allCustomerRentCarRecord[currentRentRecordId] */\n      dup2\n      mstore\n      0x20\n      add\n      swap1\n      dup2\n      mstore\n      0x20\n      add\n      0x00\n      keccak256\n        /* \"contracts/CarRentalSmartContract.sol\":5275:5340  allCustomerRentCarRecord[currentRentRecordId] = thisRentCarRecord */\n      0x00\n      dup3\n      add\n      mload\n      dup2\n      0x00\n      add\n      sstore\n      0x20\n      dup3\n      add\n      mload\n      dup2\n      0x01\n      add\n      exp(0x0100, 0x00)\n      dup2\n      sload\n      dup2\n      0xffffffffffffffffffffffffffffffffffffffff\n      mul\n      not\n      and\n      swap1\n      dup4\n      0xffffffffffffffffffffffffffffffffffffffff\n      and\n      mul\n      or\n      swap1\n      sstore\n      pop\n      0x40\n      dup3\n      add\n      mload\n      dup2\n      0x02\n      add\n      swap1\n      dup1\n      mload\n      swap1\n      0x20\n      add\n      swap1\n      tag_216\n      swap3\n      swap2\n      swap1\n      tag_157\n      jump\t// in\n    tag_216:\n      pop\n      0x60\n      dup3\n      add\n      mload\n      dup2\n      0x03\n      add\n      sstore\n      0x80\n      dup3\n      add\n      mload\n      dup2\n      0x04\n      add\n      sstore\n      0xa0\n      dup3\n      add\n      mload\n      dup2\n      0x05\n      add\n      sstore\n      0xc0\n      dup3\n      add\n      mload\n      dup2\n      0x06\n      add\n      sstore\n      swap1\n      pop\n      pop\n        /* \"contracts/CarRentalSmartContract.sol\":5373:5374  1 */\n      0x01\n        /* \"contracts/CarRentalSmartContract.sol\":5350:5369  currentRentRecordId */\n      0x04\n      0x00\n        /* \"contracts/CarRentalSmartContract.sol\":5350:5374  currentRentRecordId += 1 */\n      dup3\n      dup3\n      sload\n      tag_217\n      swap2\n      swap1\n      tag_146\n      jump\t// in\n    tag_217:\n      swap3\n      pop\n      pop\n      dup2\n      swap1\n      sstore\n      pop\n        /* \"contracts/CarRentalSmartContract.sol\":5444:5451  tokenSC */\n      0x0a\n      0x00\n      swap1\n      sload\n      swap1\n      0x0100\n      exp\n      swap1\n      div\n      0xffffffffffffffffffffffffffffffffffffffff\n      and\n        /* \"contracts/CarRentalSmartContract.sol\":5444:5464  tokenSC.transferFrom */\n      0xffffffffffffffffffffffffffffffffffffffff\n      and\n      0x23b872dd\n        /* \"contracts/CarRentalSmartContract.sol\":5465:5475  msg.sender */\n      caller\n        /* \"contracts/CarRentalSmartContract.sol\":5477:5487  ABCAddress */\n      0x00\n      dup1\n      sload\n      swap1\n      0x0100\n      exp\n      swap1\n      div\n      0xffffffffffffffffffffffffffffffffffffffff\n      and\n        /* \"contracts/CarRentalSmartContract.sol\":5489:5505  depositValueHere */\n      dup6\n        /* \"contracts/CarRentalSmartContract.sol\":5444:5506  tokenSC.transferFrom(msg.sender, ABCAddress, depositValueHere) */\n      mload(0x40)\n      dup5\n      0xffffffff\n      and\n      0xe0\n      shl\n      dup2\n      mstore\n      0x04\n      add\n      tag_218\n      swap4\n      swap3\n      swap2\n      swap1\n      tag_186\n      jump\t// in\n    tag_218:\n      0x20\n      mload(0x40)\n      dup1\n      dup4\n      sub\n      dup2\n      0x00\n      dup8\n      dup1\n      extcodesize\n      iszero\n      dup1\n      iszero\n      tag_219\n      jumpi\n      0x00\n      dup1\n      revert\n    tag_219:\n      pop\n      gas\n      call\n      iszero\n      dup1\n      iszero\n      tag_221\n      jumpi\n      returndatasize\n      0x00\n      dup1\n      returndatacopy\n      revert(0x00, returndatasize)\n    tag_221:\n      pop\n      pop\n      pop\n      pop\n      mload(0x40)\n      returndatasize\n      not(0x1f)\n      0x1f\n      dup3\n      add\n      and\n      dup3\n      add\n      dup1\n      0x40\n      mstore\n      pop\n      dup2\n      add\n      swap1\n      tag_222\n      swap2\n      swap1\n      tag_119\n      jump\t// in\n    tag_222:\n      pop\n        /* \"contracts/CarRentalSmartContract.sol\":5533:5550  thisRentCarRecord */\n      dup1\n        /* \"contracts/CarRentalSmartContract.sol\":5526:5550  return thisRentCarRecord */\n      swap3\n      pop\n      pop\n      pop\n        /* \"contracts/CarRentalSmartContract.sol\":4177:5557  function customerRentCar(string calldata carName, uint rentDays) payable public onlyRegisteredCustomerCanCall returns (customerRentCarRecord memory) {... */\n      swap4\n      swap3\n      pop\n      pop\n      pop\n      jump\t// out\n        /* \"contracts/CarRentalSmartContract.sol\":2383:2413  UserIdentity public identitySC */\n    tag_75:\n      0x0b\n      0x00\n      swap1\n      sload\n      swap1\n      0x0100\n      exp\n      swap1\n      div\n      0xffffffffffffffffffffffffffffffffffffffff\n      and\n      dup2\n      jump\t// out\n        /* \"contracts/CarRentalSmartContract.sol\":3635:4054  function ABCAddCar(string calldata carName, uint carDailyRent, uint number) public onlyABCCompanyCanCall returns (bool) {... */\n    tag_82:\n        /* \"contracts/CarRentalSmartContract.sol\":3749:3753  bool */\n      0x00\n        /* \"contracts/CarRentalSmartContract.sol\":2559:2569  ABCAddress */\n      dup1\n      0x00\n      swap1\n      sload\n      swap1\n      0x0100\n      exp\n      swap1\n      div\n      0xffffffffffffffffffffffffffffffffffffffff\n      and\n        /* \"contracts/CarRentalSmartContract.sol\":2545:2569  msg.sender == ABCAddress */\n      0xffffffffffffffffffffffffffffffffffffffff\n      and\n        /* \"contracts/CarRentalSmartContract.sol\":2545:2555  msg.sender */\n      caller\n        /* \"contracts/CarRentalSmartContract.sol\":2545:2569  msg.sender == ABCAddress */\n      0xffffffffffffffffffffffffffffffffffffffff\n      and\n      eq\n        /* \"contracts/CarRentalSmartContract.sol\":2537:2606  require(msg.sender == ABCAddress, \"Only ABC can call this function!\") */\n      tag_224\n      jumpi\n      mload(0x40)\n      0x08c379a000000000000000000000000000000000000000000000000000000000\n      dup2\n      mstore\n      0x04\n      add\n      tag_225\n      swap1\n      tag_174\n      jump\t// in\n    tag_225:\n      mload(0x40)\n      dup1\n      swap2\n      sub\n      swap1\n      revert\n    tag_224:\n        /* \"contracts/CarRentalSmartContract.sol\":3856:3980  Car({... */\n      mload(0x40)\n      dup1\n      0x60\n      add\n      0x40\n      mstore\n      dup1\n        /* \"contracts/CarRentalSmartContract.sol\":3880:3887  carName */\n      dup7\n      dup7\n        /* \"contracts/CarRentalSmartContract.sol\":3856:3980  Car({... */\n      dup1\n      dup1\n      0x1f\n      add\n      0x20\n      dup1\n      swap2\n      div\n      mul\n      0x20\n      add\n      mload(0x40)\n      swap1\n      dup2\n      add\n      0x40\n      mstore\n      dup1\n      swap4\n      swap3\n      swap2\n      swap1\n      dup2\n      dup2\n      mstore\n      0x20\n      add\n      dup4\n      dup4\n      dup1\n      dup3\n      dup5\n      calldatacopy\n      0x00\n      dup2\n      dup5\n      add\n      mstore\n      not(0x1f)\n      0x1f\n      dup3\n      add\n      and\n      swap1\n      pop\n      dup1\n      dup4\n      add\n      swap3\n      pop\n      pop\n      pop\n      pop\n      pop\n      pop\n      pop\n      dup2\n      mstore\n      0x20\n      add\n        /* \"contracts/CarRentalSmartContract.sol\":3930:3932  90 */\n      0x5a\n        /* \"contracts/CarRentalSmartContract.sol\":3915:3927  carDailyRent */\n      dup6\n        /* \"contracts/CarRentalSmartContract.sol\":3915:3932  carDailyRent * 90 */\n      tag_227\n      swap2\n      swap1\n      tag_155\n      jump\t// in\n    tag_227:\n        /* \"contracts/CarRentalSmartContract.sol\":3856:3980  Car({... */\n      dup2\n      mstore\n      0x20\n      add\n        /* \"contracts/CarRentalSmartContract.sol\":3957:3969  carDailyRent */\n      dup5\n        /* \"contracts/CarRentalSmartContract.sol\":3856:3980  Car({... */\n      dup2\n      mstore\n      pop\n        /* \"contracts/CarRentalSmartContract.sol\":3837:3844  carInfo */\n      0x02\n        /* \"contracts/CarRentalSmartContract.sol\":3845:3852  carName */\n      dup7\n      dup7\n        /* \"contracts/CarRentalSmartContract.sol\":3837:3853  carInfo[carName] */\n      mload(0x40)\n      tag_228\n      swap3\n      swap2\n      swap1\n      tag_204\n      jump\t// in\n    tag_228:\n      swap1\n      dup2\n      mstore\n      0x20\n      add\n      mload(0x40)\n      dup1\n      swap2\n      sub\n      swap1\n      keccak256\n        /* \"contracts/CarRentalSmartContract.sol\":3837:3980  carInfo[carName] = Car({... */\n      0x00\n      dup3\n      add\n      mload\n      dup2\n      0x00\n      add\n      swap1\n      dup1\n      mload\n      swap1\n      0x20\n      add\n      swap1\n      tag_229\n      swap3\n      swap2\n      swap1\n      tag_157\n      jump\t// in\n    tag_229:\n      pop\n      0x20\n      dup3\n      add\n      mload\n      dup2\n      0x01\n      add\n      sstore\n      0x40\n      dup3\n      add\n      mload\n      dup2\n      0x02\n      add\n      sstore\n      swap1\n      pop\n      pop\n        /* \"contracts/CarRentalSmartContract.sol\":4019:4025  number */\n      dup2\n        /* \"contracts/CarRentalSmartContract.sol\":3991:4006  carAvailability */\n      0x03\n        /* \"contracts/CarRentalSmartContract.sol\":4007:4014  carName */\n      dup7\n      dup7\n        /* \"contracts/CarRentalSmartContract.sol\":3991:4015  carAvailability[carName] */\n      mload(0x40)\n      tag_230\n      swap3\n      swap2\n      swap1\n      tag_204\n      jump\t// in\n    tag_230:\n      swap1\n      dup2\n      mstore\n      0x20\n      add\n      mload(0x40)\n      dup1\n      swap2\n      sub\n      swap1\n      keccak256\n      0x00\n        /* \"contracts/CarRentalSmartContract.sol\":3991:4025  carAvailability[carName] += number */\n      dup3\n      dup3\n      sload\n      tag_231\n      swap2\n      swap1\n      tag_146\n      jump\t// in\n    tag_231:\n      swap3\n      pop\n      pop\n      dup2\n      swap1\n      sstore\n      pop\n        /* \"contracts/CarRentalSmartContract.sol\":4043:4047  true */\n      0x01\n        /* \"contracts/CarRentalSmartContract.sol\":4036:4047  return true */\n      swap1\n      pop\n        /* \"contracts/CarRentalSmartContract.sol\":3635:4054  function ABCAddCar(string calldata carName, uint carDailyRent, uint number) public onlyABCCompanyCanCall returns (bool) {... */\n      swap5\n      swap4\n      pop\n      pop\n      pop\n      pop\n      jump\t// out\n        /* \"contracts/CarRentalSmartContract.sol\":1921:1957  uint public currentRentRecordId  = 1 */\n    tag_87:\n      sload(0x04)\n      dup2\n      jump\t// out\n        /* \"contracts/CarRentalSmartContract.sol\":2208:2279  mapping (uint => ABCAuditDepositRecord) public allABCAuditDepositRecord */\n    tag_92:\n      mstore(0x20, 0x09)\n      dup1\n      0x00\n      mstore\n      keccak256(0x00, 0x40)\n      0x00\n      swap2\n      pop\n      swap1\n      pop\n      dup1\n      0x00\n      add\n      sload\n      swap1\n      dup1\n      0x01\n      add\n      sload\n      swap1\n      dup1\n      0x02\n      add\n      0x00\n      swap1\n      sload\n      swap1\n      0x0100\n      exp\n      swap1\n      div\n      0xffffffffffffffffffffffffffffffffffffffff\n      and\n      swap1\n      dup1\n      0x03\n      add\n      sload\n      swap1\n      dup1\n      0x04\n      add\n      sload\n      swap1\n      pop\n      dup6\n      jump\t// out\n        /* \"contracts/CarRentalSmartContract.sol\":2314:2339  MicroToken public tokenSC */\n    tag_97:\n      0x0a\n      0x00\n      swap1\n      sload\n      swap1\n      0x0100\n      exp\n      swap1\n      div\n      0xffffffffffffffffffffffffffffffffffffffff\n      and\n      dup2\n      jump\t// out\n        /* \"contracts/CarRentalSmartContract.sol\":1963:2034  mapping (uint => customerRentCarRecord) public allCustomerRentCarRecord */\n    tag_103:\n      mstore(0x20, 0x05)\n      dup1\n      0x00\n      mstore\n      keccak256(0x00, 0x40)\n      0x00\n      swap2\n      pop\n      swap1\n      pop\n      dup1\n      0x00\n      add\n      sload\n      swap1\n      dup1\n      0x01\n      add\n      0x00\n      swap1\n      sload\n      swap1\n      0x0100\n      exp\n      swap1\n      div\n      0xffffffffffffffffffffffffffffffffffffffff\n      and\n      swap1\n      dup1\n      0x02\n      add\n      dup1\n      sload\n      tag_232\n      swap1\n      tag_135\n      jump\t// in\n    tag_232:\n      dup1\n      0x1f\n      add\n      0x20\n      dup1\n      swap2\n      div\n      mul\n      0x20\n      add\n      mload(0x40)\n      swap1\n      dup2\n      add\n      0x40\n      mstore\n      dup1\n      swap3\n      swap2\n      swap1\n      dup2\n      dup2\n      mstore\n      0x20\n      add\n      dup3\n      dup1\n      sload\n      tag_233\n      swap1\n      tag_135\n      jump\t// in\n    tag_233:\n      dup1\n      iszero\n      tag_234\n      jumpi\n      dup1\n      0x1f\n      lt\n      tag_235\n      jumpi\n      0x0100\n      dup1\n      dup4\n      sload\n      div\n      mul\n      dup4\n      mstore\n      swap2\n      0x20\n      add\n      swap2\n      jump(tag_234)\n    tag_235:\n      dup3\n      add\n      swap2\n      swap1\n      0x00\n      mstore\n      keccak256(0x00, 0x20)\n      swap1\n    tag_236:\n      dup2\n      sload\n      dup2\n      mstore\n      swap1\n      0x01\n      add\n      swap1\n      0x20\n      add\n      dup1\n      dup4\n      gt\n      tag_236\n      jumpi\n      dup3\n      swap1\n      sub\n      0x1f\n      and\n      dup3\n      add\n      swap2\n    tag_234:\n      pop\n      pop\n      pop\n      pop\n      pop\n      swap1\n      dup1\n      0x03\n      add\n      sload\n      swap1\n      dup1\n      0x04\n      add\n      sload\n      swap1\n      dup1\n      0x05\n      add\n      sload\n      swap1\n      dup1\n      0x06\n      add\n      sload\n      swap1\n      pop\n      dup8\n      jump\t// out\n        /* \"contracts/CarRentalSmartContract.sol\":1071:1096  address public ABCAddress */\n    tag_108:\n      0x00\n      dup1\n      sload\n      swap1\n      0x0100\n      exp\n      swap1\n      div\n      0xffffffffffffffffffffffffffffffffffffffff\n      and\n      dup2\n      jump\t// out\n    tag_112:\n      mload(0x40)\n      dup1\n      0xe0\n      add\n      0x40\n      mstore\n      dup1\n      0x00\n      dup2\n      mstore\n      0x20\n      add\n      0x00\n      dup2\n      mstore\n      0x20\n      add\n      and(0xffffffffffffffffffffffffffffffffffffffff, 0x00)\n      dup2\n      mstore\n      0x20\n      add\n      0x60\n      dup2\n      mstore\n      0x20\n      add\n      0x00\n      dup2\n      mstore\n      0x20\n      add\n      0x00\n      dup2\n      mstore\n      0x20\n      add\n      0x00\n      dup2\n      mstore\n      pop\n      swap1\n      jump\t// out\n    tag_157:\n      dup3\n      dup1\n      sload\n      tag_237\n      swap1\n      tag_135\n      jump\t// in\n    tag_237:\n      swap1\n      0x00\n      mstore\n      keccak256(0x00, 0x20)\n      swap1\n      0x1f\n      add\n      0x20\n      swap1\n      div\n      dup2\n      add\n      swap3\n      dup3\n      tag_239\n      jumpi\n      0x00\n      dup6\n      sstore\n      jump(tag_238)\n    tag_239:\n      dup3\n      0x1f\n      lt\n      tag_240\n      jumpi\n      dup1\n      mload\n      not(0xff)\n      and\n      dup4\n      dup1\n      add\n      or\n      dup6\n      sstore\n      jump(tag_238)\n    tag_240:\n      dup3\n      dup1\n      add\n      0x01\n      add\n      dup6\n      sstore\n      dup3\n      iszero\n      tag_238\n      jumpi\n      swap2\n      dup3\n      add\n    tag_241:\n      dup3\n      dup2\n      gt\n      iszero\n      tag_242\n      jumpi\n      dup3\n      mload\n      dup3\n      sstore\n      swap2\n      0x20\n      add\n      swap2\n      swap1\n      0x01\n      add\n      swap1\n      jump(tag_241)\n    tag_242:\n    tag_238:\n      pop\n      swap1\n      pop\n      tag_243\n      swap2\n      swap1\n      tag_244\n      jump\t// in\n    tag_243:\n      pop\n      swap1\n      jump\t// out\n    tag_170:\n      mload(0x40)\n      dup1\n      0xa0\n      add\n      0x40\n      mstore\n      dup1\n      0x00\n      dup2\n      mstore\n      0x20\n      add\n      0x00\n      dup2\n      mstore\n      0x20\n      add\n      and(0xffffffffffffffffffffffffffffffffffffffff, 0x00)\n      dup2\n      mstore\n      0x20\n      add\n      0x00\n      dup2\n      mstore\n      0x20\n      add\n      0x00\n      dup2\n      mstore\n      pop\n      swap1\n      jump\t// out\n    tag_193:\n      mload(0x40)\n      dup1\n      0xe0\n      add\n      0x40\n      mstore\n      dup1\n      0x00\n      dup2\n      mstore\n      0x20\n      add\n      and(0xffffffffffffffffffffffffffffffffffffffff, 0x00)\n      dup2\n      mstore\n      0x20\n      add\n      0x60\n      dup2\n      mstore\n      0x20\n      add\n      0x00\n      dup2\n      mstore\n      0x20\n      add\n      0x00\n      dup2\n      mstore\n      0x20\n      add\n      0x00\n      dup2\n      mstore\n      0x20\n      add\n      0x00\n      dup2\n      mstore\n      pop\n      swap1\n      jump\t// out\n    tag_244:\n    tag_245:\n      dup1\n      dup3\n      gt\n      iszero\n      tag_246\n      jumpi\n      0x00\n      dup2\n      0x00\n      swap1\n      sstore\n      pop\n      0x01\n      add\n      jump(tag_245)\n    tag_246:\n      pop\n      swap1\n      jump\t// out\n        /* \"#utility.yul\":7:419   */\n    tag_248:\n        /* \"#utility.yul\":85:90   */\n      0x00\n        /* \"#utility.yul\":110:176   */\n      tag_250\n        /* \"#utility.yul\":126:175   */\n      tag_251\n        /* \"#utility.yul\":168:174   */\n      dup5\n        /* \"#utility.yul\":126:175   */\n      tag_252\n      jump\t// in\n    tag_251:\n        /* \"#utility.yul\":110:176   */\n      tag_253\n      jump\t// in\n    tag_250:\n        /* \"#utility.yul\":101:176   */\n      swap1\n      pop\n        /* \"#utility.yul\":199:205   */\n      dup3\n        /* \"#utility.yul\":192:197   */\n      dup2\n        /* \"#utility.yul\":185:206   */\n      mstore\n        /* \"#utility.yul\":237:241   */\n      0x20\n        /* \"#utility.yul\":230:235   */\n      dup2\n        /* \"#utility.yul\":226:242   */\n      add\n        /* \"#utility.yul\":275:278   */\n      dup5\n        /* \"#utility.yul\":266:272   */\n      dup5\n        /* \"#utility.yul\":261:264   */\n      dup5\n        /* \"#utility.yul\":257:273   */\n      add\n        /* \"#utility.yul\":254:279   */\n      gt\n        /* \"#utility.yul\":251:363   */\n      iszero\n      tag_254\n      jumpi\n        /* \"#utility.yul\":282:361   */\n      tag_255\n      tag_256\n      jump\t// in\n    tag_255:\n        /* \"#utility.yul\":251:363   */\n    tag_254:\n        /* \"#utility.yul\":372:413   */\n      tag_257\n        /* \"#utility.yul\":406:412   */\n      dup5\n        /* \"#utility.yul\":401:404   */\n      dup3\n        /* \"#utility.yul\":396:399   */\n      dup6\n        /* \"#utility.yul\":372:413   */\n      tag_258\n      jump\t// in\n    tag_257:\n        /* \"#utility.yul\":91:419   */\n      pop\n        /* \"#utility.yul\":7:419   */\n      swap4\n      swap3\n      pop\n      pop\n      pop\n      jump\t// out\n        /* \"#utility.yul\":425:564   */\n    tag_259:\n        /* \"#utility.yul\":471:476   */\n      0x00\n        /* \"#utility.yul\":509:515   */\n      dup2\n        /* \"#utility.yul\":496:516   */\n      calldataload\n        /* \"#utility.yul\":487:516   */\n      swap1\n      pop\n        /* \"#utility.yul\":525:558   */\n      tag_261\n        /* \"#utility.yul\":552:557   */\n      dup2\n        /* \"#utility.yul\":525:558   */\n      tag_262\n      jump\t// in\n    tag_261:\n        /* \"#utility.yul\":425:564   */\n      swap3\n      swap2\n      pop\n      pop\n      jump\t// out\n        /* \"#utility.yul\":570:707   */\n    tag_263:\n        /* \"#utility.yul\":624:629   */\n      0x00\n        /* \"#utility.yul\":655:661   */\n      dup2\n        /* \"#utility.yul\":649:662   */\n      mload\n        /* \"#utility.yul\":640:662   */\n      swap1\n      pop\n        /* \"#utility.yul\":671:701   */\n      tag_265\n        /* \"#utility.yul\":695:700   */\n      dup2\n        /* \"#utility.yul\":671:701   */\n      tag_266\n      jump\t// in\n    tag_265:\n        /* \"#utility.yul\":570:707   */\n      swap3\n      swap2\n      pop\n      pop\n      jump\t// out\n        /* \"#utility.yul\":727:1280   */\n    tag_267:\n        /* \"#utility.yul\":785:793   */\n      0x00\n        /* \"#utility.yul\":795:801   */\n      dup1\n        /* \"#utility.yul\":845:848   */\n      dup4\n        /* \"#utility.yul\":838:842   */\n      0x1f\n        /* \"#utility.yul\":830:836   */\n      dup5\n        /* \"#utility.yul\":826:843   */\n      add\n        /* \"#utility.yul\":822:849   */\n      slt\n        /* \"#utility.yul\":812:934   */\n      tag_269\n      jumpi\n        /* \"#utility.yul\":853:932   */\n      tag_270\n      tag_271\n      jump\t// in\n    tag_270:\n        /* \"#utility.yul\":812:934   */\n    tag_269:\n        /* \"#utility.yul\":966:972   */\n      dup3\n        /* \"#utility.yul\":953:973   */\n      calldataload\n        /* \"#utility.yul\":943:973   */\n      swap1\n      pop\n        /* \"#utility.yul\":996:1014   */\n      0xffffffffffffffff\n        /* \"#utility.yul\":988:994   */\n      dup2\n        /* \"#utility.yul\":985:1015   */\n      gt\n        /* \"#utility.yul\":982:1099   */\n      iszero\n      tag_272\n      jumpi\n        /* \"#utility.yul\":1018:1097   */\n      tag_273\n      tag_274\n      jump\t// in\n    tag_273:\n        /* \"#utility.yul\":982:1099   */\n    tag_272:\n        /* \"#utility.yul\":1132:1136   */\n      0x20\n        /* \"#utility.yul\":1124:1130   */\n      dup4\n        /* \"#utility.yul\":1120:1137   */\n      add\n        /* \"#utility.yul\":1108:1137   */\n      swap2\n      pop\n        /* \"#utility.yul\":1186:1189   */\n      dup4\n        /* \"#utility.yul\":1178:1182   */\n      0x01\n        /* \"#utility.yul\":1170:1176   */\n      dup3\n        /* \"#utility.yul\":1166:1183   */\n      mul\n        /* \"#utility.yul\":1156:1164   */\n      dup4\n        /* \"#utility.yul\":1152:1184   */\n      add\n        /* \"#utility.yul\":1149:1190   */\n      gt\n        /* \"#utility.yul\":1146:1274   */\n      iszero\n      tag_275\n      jumpi\n        /* \"#utility.yul\":1193:1272   */\n      tag_276\n      tag_277\n      jump\t// in\n    tag_276:\n        /* \"#utility.yul\":1146:1274   */\n    tag_275:\n        /* \"#utility.yul\":727:1280   */\n      swap3\n      pop\n      swap3\n      swap1\n      pop\n      jump\t// out\n        /* \"#utility.yul\":1300:1640   */\n    tag_278:\n        /* \"#utility.yul\":1356:1361   */\n      0x00\n        /* \"#utility.yul\":1405:1408   */\n      dup3\n        /* \"#utility.yul\":1398:1402   */\n      0x1f\n        /* \"#utility.yul\":1390:1396   */\n      dup4\n        /* \"#utility.yul\":1386:1403   */\n      add\n        /* \"#utility.yul\":1382:1409   */\n      slt\n        /* \"#utility.yul\":1372:1494   */\n      tag_280\n      jumpi\n        /* \"#utility.yul\":1413:1492   */\n      tag_281\n      tag_271\n      jump\t// in\n    tag_281:\n        /* \"#utility.yul\":1372:1494   */\n    tag_280:\n        /* \"#utility.yul\":1530:1536   */\n      dup2\n        /* \"#utility.yul\":1517:1537   */\n      calldataload\n        /* \"#utility.yul\":1555:1634   */\n      tag_282\n        /* \"#utility.yul\":1630:1633   */\n      dup5\n        /* \"#utility.yul\":1622:1628   */\n      dup3\n        /* \"#utility.yul\":1615:1619   */\n      0x20\n        /* \"#utility.yul\":1607:1613   */\n      dup7\n        /* \"#utility.yul\":1603:1620   */\n      add\n        /* \"#utility.yul\":1555:1634   */\n      tag_248\n      jump\t// in\n    tag_282:\n        /* \"#utility.yul\":1546:1634   */\n      swap2\n      pop\n        /* \"#utility.yul\":1362:1640   */\n      pop\n        /* \"#utility.yul\":1300:1640   */\n      swap3\n      swap2\n      pop\n      pop\n      jump\t// out\n        /* \"#utility.yul\":1646:1785   */\n    tag_283:\n        /* \"#utility.yul\":1692:1697   */\n      0x00\n        /* \"#utility.yul\":1730:1736   */\n      dup2\n        /* \"#utility.yul\":1717:1737   */\n      calldataload\n        /* \"#utility.yul\":1708:1737   */\n      swap1\n      pop\n        /* \"#utility.yul\":1746:1779   */\n      tag_285\n        /* \"#utility.yul\":1773:1778   */\n      dup2\n        /* \"#utility.yul\":1746:1779   */\n      tag_286\n      jump\t// in\n    tag_285:\n        /* \"#utility.yul\":1646:1785   */\n      swap3\n      swap2\n      pop\n      pop\n      jump\t// out\n        /* \"#utility.yul\":1791:2445   */\n    tag_43:\n        /* \"#utility.yul\":1869:1875   */\n      0x00\n        /* \"#utility.yul\":1877:1883   */\n      dup1\n        /* \"#utility.yul\":1926:1928   */\n      0x40\n        /* \"#utility.yul\":1914:1923   */\n      dup4\n        /* \"#utility.yul\":1905:1912   */\n      dup6\n        /* \"#utility.yul\":1901:1924   */\n      sub\n        /* \"#utility.yul\":1897:1929   */\n      slt\n        /* \"#utility.yul\":1894:2013   */\n      iszero\n      tag_288\n      jumpi\n        /* \"#utility.yul\":1932:2011   */\n      tag_289\n      tag_290\n      jump\t// in\n    tag_289:\n        /* \"#utility.yul\":1894:2013   */\n    tag_288:\n        /* \"#utility.yul\":2052:2053   */\n      0x00\n        /* \"#utility.yul\":2077:2130   */\n      tag_291\n        /* \"#utility.yul\":2122:2129   */\n      dup6\n        /* \"#utility.yul\":2113:2119   */\n      dup3\n        /* \"#utility.yul\":2102:2111   */\n      dup7\n        /* \"#utility.yul\":2098:2120   */\n      add\n        /* \"#utility.yul\":2077:2130   */\n      tag_259\n      jump\t// in\n    tag_291:\n        /* \"#utility.yul\":2067:2130   */\n      swap3\n      pop\n        /* \"#utility.yul\":2023:2140   */\n      pop\n        /* \"#utility.yul\":2207:2209   */\n      0x20\n        /* \"#utility.yul\":2196:2205   */\n      dup4\n        /* \"#utility.yul\":2192:2210   */\n      add\n        /* \"#utility.yul\":2179:2211   */\n      calldataload\n        /* \"#utility.yul\":2238:2256   */\n      0xffffffffffffffff\n        /* \"#utility.yul\":2230:2236   */\n      dup2\n        /* \"#utility.yul\":2227:2257   */\n      gt\n        /* \"#utility.yul\":2224:2341   */\n      iszero\n      tag_292\n      jumpi\n        /* \"#utility.yul\":2260:2339   */\n      tag_293\n      tag_294\n      jump\t// in\n    tag_293:\n        /* \"#utility.yul\":2224:2341   */\n    tag_292:\n        /* \"#utility.yul\":2365:2428   */\n      tag_295\n        /* \"#utility.yul\":2420:2427   */\n      dup6\n        /* \"#utility.yul\":2411:2417   */\n      dup3\n        /* \"#utility.yul\":2400:2409   */\n      dup7\n        /* \"#utility.yul\":2396:2418   */\n      add\n        /* \"#utility.yul\":2365:2428   */\n      tag_278\n      jump\t// in\n    tag_295:\n        /* \"#utility.yul\":2355:2428   */\n      swap2\n      pop\n        /* \"#utility.yul\":2150:2438   */\n      pop\n        /* \"#utility.yul\":1791:2445   */\n      swap3\n      pop\n      swap3\n      swap1\n      pop\n      jump\t// out\n        /* \"#utility.yul\":2451:2796   */\n    tag_119:\n        /* \"#utility.yul\":2518:2524   */\n      0x00\n        /* \"#utility.yul\":2567:2569   */\n      0x20\n        /* \"#utility.yul\":2555:2564   */\n      dup3\n        /* \"#utility.yul\":2546:2553   */\n      dup5\n        /* \"#utility.yul\":2542:2565   */\n      sub\n        /* \"#utility.yul\":2538:2570   */\n      slt\n        /* \"#utility.yul\":2535:2654   */\n      iszero\n      tag_297\n      jumpi\n        /* \"#utility.yul\":2573:2652   */\n      tag_298\n      tag_290\n      jump\t// in\n    tag_298:\n        /* \"#utility.yul\":2535:2654   */\n    tag_297:\n        /* \"#utility.yul\":2693:2694   */\n      0x00\n        /* \"#utility.yul\":2718:2779   */\n      tag_299\n        /* \"#utility.yul\":2771:2778   */\n      dup5\n        /* \"#utility.yul\":2762:2768   */\n      dup3\n        /* \"#utility.yul\":2751:2760   */\n      dup6\n        /* \"#utility.yul\":2747:2769   */\n      add\n        /* \"#utility.yul\":2718:2779   */\n      tag_263\n      jump\t// in\n    tag_299:\n        /* \"#utility.yul\":2708:2779   */\n      swap2\n      pop\n        /* \"#utility.yul\":2664:2789   */\n      pop\n        /* \"#utility.yul\":2451:2796   */\n      swap3\n      swap2\n      pop\n      pop\n      jump\t// out\n        /* \"#utility.yul\":2802:3476   */\n    tag_69:\n        /* \"#utility.yul\":2882:2888   */\n      0x00\n        /* \"#utility.yul\":2890:2896   */\n      dup1\n        /* \"#utility.yul\":2898:2904   */\n      0x00\n        /* \"#utility.yul\":2947:2949   */\n      0x40\n        /* \"#utility.yul\":2935:2944   */\n      dup5\n        /* \"#utility.yul\":2926:2933   */\n      dup7\n        /* \"#utility.yul\":2922:2945   */\n      sub\n        /* \"#utility.yul\":2918:2950   */\n      slt\n        /* \"#utility.yul\":2915:3034   */\n      iszero\n      tag_301\n      jumpi\n        /* \"#utility.yul\":2953:3032   */\n      tag_302\n      tag_290\n      jump\t// in\n    tag_302:\n        /* \"#utility.yul\":2915:3034   */\n    tag_301:\n        /* \"#utility.yul\":3101:3102   */\n      0x00\n        /* \"#utility.yul\":3090:3099   */\n      dup5\n        /* \"#utility.yul\":3086:3103   */\n      add\n        /* \"#utility.yul\":3073:3104   */\n      calldataload\n        /* \"#utility.yul\":3131:3149   */\n      0xffffffffffffffff\n        /* \"#utility.yul\":3123:3129   */\n      dup2\n        /* \"#utility.yul\":3120:3150   */\n      gt\n        /* \"#utility.yul\":3117:3234   */\n      iszero\n      tag_303\n      jumpi\n        /* \"#utility.yul\":3153:3232   */\n      tag_304\n      tag_294\n      jump\t// in\n    tag_304:\n        /* \"#utility.yul\":3117:3234   */\n    tag_303:\n        /* \"#utility.yul\":3266:3331   */\n      tag_305\n        /* \"#utility.yul\":3323:3330   */\n      dup7\n        /* \"#utility.yul\":3314:3320   */\n      dup3\n        /* \"#utility.yul\":3303:3312   */\n      dup8\n        /* \"#utility.yul\":3299:3321   */\n      add\n        /* \"#utility.yul\":3266:3331   */\n      tag_267\n      jump\t// in\n    tag_305:\n        /* \"#utility.yul\":3248:3331   */\n      swap4\n      pop\n      swap4\n      pop\n        /* \"#utility.yul\":3044:3341   */\n      pop\n        /* \"#utility.yul\":3380:3382   */\n      0x20\n        /* \"#utility.yul\":3406:3459   */\n      tag_306\n        /* \"#utility.yul\":3451:3458   */\n      dup7\n        /* \"#utility.yul\":3442:3448   */\n      dup3\n        /* \"#utility.yul\":3431:3440   */\n      dup8\n        /* \"#utility.yul\":3427:3449   */\n      add\n        /* \"#utility.yul\":3406:3459   */\n      tag_283\n      jump\t// in\n    tag_306:\n        /* \"#utility.yul\":3396:3459   */\n      swap2\n      pop\n        /* \"#utility.yul\":3351:3469   */\n      pop\n        /* \"#utility.yul\":2802:3476   */\n      swap3\n      pop\n      swap3\n      pop\n      swap3\n      jump\t// out\n        /* \"#utility.yul\":3482:4301   */\n    tag_81:\n        /* \"#utility.yul\":3571:3577   */\n      0x00\n        /* \"#utility.yul\":3579:3585   */\n      dup1\n        /* \"#utility.yul\":3587:3593   */\n      0x00\n        /* \"#utility.yul\":3595:3601   */\n      dup1\n        /* \"#utility.yul\":3644:3646   */\n      0x60\n        /* \"#utility.yul\":3632:3641   */\n      dup6\n        /* \"#utility.yul\":3623:3630   */\n      dup8\n        /* \"#utility.yul\":3619:3642   */\n      sub\n        /* \"#utility.yul\":3615:3647   */\n      slt\n        /* \"#utility.yul\":3612:3731   */\n      iszero\n      tag_308\n      jumpi\n        /* \"#utility.yul\":3650:3729   */\n      tag_309\n      tag_290\n      jump\t// in\n    tag_309:\n        /* \"#utility.yul\":3612:3731   */\n    tag_308:\n        /* \"#utility.yul\":3798:3799   */\n      0x00\n        /* \"#utility.yul\":3787:3796   */\n      dup6\n        /* \"#utility.yul\":3783:3800   */\n      add\n        /* \"#utility.yul\":3770:3801   */\n      calldataload\n        /* \"#utility.yul\":3828:3846   */\n      0xffffffffffffffff\n        /* \"#utility.yul\":3820:3826   */\n      dup2\n        /* \"#utility.yul\":3817:3847   */\n      gt\n        /* \"#utility.yul\":3814:3931   */\n      iszero\n      tag_310\n      jumpi\n        /* \"#utility.yul\":3850:3929   */\n      tag_311\n      tag_294\n      jump\t// in\n    tag_311:\n        /* \"#utility.yul\":3814:3931   */\n    tag_310:\n        /* \"#utility.yul\":3963:4028   */\n      tag_312\n        /* \"#utility.yul\":4020:4027   */\n      dup8\n        /* \"#utility.yul\":4011:4017   */\n      dup3\n        /* \"#utility.yul\":4000:4009   */\n      dup9\n        /* \"#utility.yul\":3996:4018   */\n      add\n        /* \"#utility.yul\":3963:4028   */\n      tag_267\n      jump\t// in\n    tag_312:\n        /* \"#utility.yul\":3945:4028   */\n      swap5\n      pop\n      swap5\n      pop\n        /* \"#utility.yul\":3741:4038   */\n      pop\n        /* \"#utility.yul\":4077:4079   */\n      0x20\n        /* \"#utility.yul\":4103:4156   */\n      tag_313\n        /* \"#utility.yul\":4148:4155   */\n      dup8\n        /* \"#utility.yul\":4139:4145   */\n      dup3\n        /* \"#utility.yul\":4128:4137   */\n      dup9\n        /* \"#utility.yul\":4124:4146   */\n      add\n        /* \"#utility.yul\":4103:4156   */\n      tag_283\n      jump\t// in\n    tag_313:\n        /* \"#utility.yul\":4093:4156   */\n      swap3\n      pop\n        /* \"#utility.yul\":4048:4166   */\n      pop\n        /* \"#utility.yul\":4205:4207   */\n      0x40\n        /* \"#utility.yul\":4231:4284   */\n      tag_314\n        /* \"#utility.yul\":4276:4283   */\n      dup8\n        /* \"#utility.yul\":4267:4273   */\n      dup3\n        /* \"#utility.yul\":4256:4265   */\n      dup9\n        /* \"#utility.yul\":4252:4274   */\n      add\n        /* \"#utility.yul\":4231:4284   */\n      tag_283\n      jump\t// in\n    tag_314:\n        /* \"#utility.yul\":4221:4284   */\n      swap2\n      pop\n        /* \"#utility.yul\":4176:4294   */\n      pop\n        /* \"#utility.yul\":3482:4301   */\n      swap3\n      swap6\n      swap2\n      swap5\n      pop\n      swap3\n      pop\n      jump\t// out\n        /* \"#utility.yul\":4307:4816   */\n    tag_36:\n        /* \"#utility.yul\":4376:4382   */\n      0x00\n        /* \"#utility.yul\":4425:4427   */\n      0x20\n        /* \"#utility.yul\":4413:4422   */\n      dup3\n        /* \"#utility.yul\":4404:4411   */\n      dup5\n        /* \"#utility.yul\":4400:4423   */\n      sub\n        /* \"#utility.yul\":4396:4428   */\n      slt\n        /* \"#utility.yul\":4393:4512   */\n      iszero\n      tag_316\n      jumpi\n        /* \"#utility.yul\":4431:4510   */\n      tag_317\n      tag_290\n      jump\t// in\n    tag_317:\n        /* \"#utility.yul\":4393:4512   */\n    tag_316:\n        /* \"#utility.yul\":4579:4580   */\n      0x00\n        /* \"#utility.yul\":4568:4577   */\n      dup3\n        /* \"#utility.yul\":4564:4581   */\n      add\n        /* \"#utility.yul\":4551:4582   */\n      calldataload\n        /* \"#utility.yul\":4609:4627   */\n      0xffffffffffffffff\n        /* \"#utility.yul\":4601:4607   */\n      dup2\n        /* \"#utility.yul\":4598:4628   */\n      gt\n        /* \"#utility.yul\":4595:4712   */\n      iszero\n      tag_318\n      jumpi\n        /* \"#utility.yul\":4631:4710   */\n      tag_319\n      tag_294\n      jump\t// in\n    tag_319:\n        /* \"#utility.yul\":4595:4712   */\n    tag_318:\n        /* \"#utility.yul\":4736:4799   */\n      tag_320\n        /* \"#utility.yul\":4791:4798   */\n      dup5\n        /* \"#utility.yul\":4782:4788   */\n      dup3\n        /* \"#utility.yul\":4771:4780   */\n      dup6\n        /* \"#utility.yul\":4767:4789   */\n      add\n        /* \"#utility.yul\":4736:4799   */\n      tag_278\n      jump\t// in\n    tag_320:\n        /* \"#utility.yul\":4726:4799   */\n      swap2\n      pop\n        /* \"#utility.yul\":4522:4809   */\n      pop\n        /* \"#utility.yul\":4307:4816   */\n      swap3\n      swap2\n      pop\n      pop\n      jump\t// out\n        /* \"#utility.yul\":4822:5151   */\n    tag_29:\n        /* \"#utility.yul\":4881:4887   */\n      0x00\n        /* \"#utility.yul\":4930:4932   */\n      0x20\n        /* \"#utility.yul\":4918:4927   */\n      dup3\n        /* \"#utility.yul\":4909:4916   */\n      dup5\n        /* \"#utility.yul\":4905:4928   */\n      sub\n        /* \"#utility.yul\":4901:4933   */\n      slt\n        /* \"#utility.yul\":4898:5017   */\n      iszero\n      tag_322\n      jumpi\n        /* \"#utility.yul\":4936:5015   */\n      tag_323\n      tag_290\n      jump\t// in\n    tag_323:\n        /* \"#utility.yul\":4898:5017   */\n    tag_322:\n        /* \"#utility.yul\":5056:5057   */\n      0x00\n        /* \"#utility.yul\":5081:5134   */\n      tag_324\n        /* \"#utility.yul\":5126:5133   */\n      dup5\n        /* \"#utility.yul\":5117:5123   */\n      dup3\n        /* \"#utility.yul\":5106:5115   */\n      dup6\n        /* \"#utility.yul\":5102:5124   */\n      add\n        /* \"#utility.yul\":5081:5134   */\n      tag_283\n      jump\t// in\n    tag_324:\n        /* \"#utility.yul\":5071:5134   */\n      swap2\n      pop\n        /* \"#utility.yul\":5027:5144   */\n      pop\n        /* \"#utility.yul\":4822:5151   */\n      swap3\n      swap2\n      pop\n      pop\n      jump\t// out\n        /* \"#utility.yul\":5157:5631   */\n    tag_54:\n        /* \"#utility.yul\":5225:5231   */\n      0x00\n        /* \"#utility.yul\":5233:5239   */\n      dup1\n        /* \"#utility.yul\":5282:5284   */\n      0x40\n        /* \"#utility.yul\":5270:5279   */\n      dup4\n        /* \"#utility.yul\":5261:5268   */\n      dup6\n        /* \"#utility.yul\":5257:5280   */\n      sub\n        /* \"#utility.yul\":5253:5285   */\n      slt\n        /* \"#utility.yul\":5250:5369   */\n      iszero\n      tag_326\n      jumpi\n        /* \"#utility.yul\":5288:5367   */\n      tag_327\n      tag_290\n      jump\t// in\n    tag_327:\n        /* \"#utility.yul\":5250:5369   */\n    tag_326:\n        /* \"#utility.yul\":5408:5409   */\n      0x00\n        /* \"#utility.yul\":5433:5486   */\n      tag_328\n        /* \"#utility.yul\":5478:5485   */\n      dup6\n        /* \"#utility.yul\":5469:5475   */\n      dup3\n        /* \"#utility.yul\":5458:5467   */\n      dup7\n        /* \"#utility.yul\":5454:5476   */\n      add\n        /* \"#utility.yul\":5433:5486   */\n      tag_283\n      jump\t// in\n    tag_328:\n        /* \"#utility.yul\":5423:5486   */\n      swap3\n      pop\n        /* \"#utility.yul\":5379:5496   */\n      pop\n        /* \"#utility.yul\":5535:5537   */\n      0x20\n        /* \"#utility.yul\":5561:5614   */\n      tag_329\n        /* \"#utility.yul\":5606:5613   */\n      dup6\n        /* \"#utility.yul\":5597:5603   */\n      dup3\n        /* \"#utility.yul\":5586:5595   */\n      dup7\n        /* \"#utility.yul\":5582:5604   */\n      add\n        /* \"#utility.yul\":5561:5614   */\n      tag_283\n      jump\t// in\n    tag_329:\n        /* \"#utility.yul\":5551:5614   */\n      swap2\n      pop\n        /* \"#utility.yul\":5506:5624   */\n      pop\n        /* \"#utility.yul\":5157:5631   */\n      swap3\n      pop\n      swap3\n      swap1\n      pop\n      jump\t// out\n        /* \"#utility.yul\":5637:5745   */\n    tag_330:\n        /* \"#utility.yul\":5714:5738   */\n      tag_332\n        /* \"#utility.yul\":5732:5737   */\n      dup2\n        /* \"#utility.yul\":5714:5738   */\n      tag_333\n      jump\t// in\n    tag_332:\n        /* \"#utility.yul\":5709:5712   */\n      dup3\n        /* \"#utility.yul\":5702:5739   */\n      mstore\n        /* \"#utility.yul\":5637:5745   */\n      pop\n      pop\n      jump\t// out\n        /* \"#utility.yul\":5751:5869   */\n    tag_334:\n        /* \"#utility.yul\":5838:5862   */\n      tag_336\n        /* \"#utility.yul\":5856:5861   */\n      dup2\n        /* \"#utility.yul\":5838:5862   */\n      tag_333\n      jump\t// in\n    tag_336:\n        /* \"#utility.yul\":5833:5836   */\n      dup3\n        /* \"#utility.yul\":5826:5863   */\n      mstore\n        /* \"#utility.yul\":5751:5869   */\n      pop\n      pop\n      jump\t// out\n        /* \"#utility.yul\":5875:5984   */\n    tag_337:\n        /* \"#utility.yul\":5956:5977   */\n      tag_339\n        /* \"#utility.yul\":5971:5976   */\n      dup2\n        /* \"#utility.yul\":5956:5977   */\n      tag_340\n      jump\t// in\n    tag_339:\n        /* \"#utility.yul\":5951:5954   */\n      dup3\n        /* \"#utility.yul\":5944:5978   */\n      mstore\n        /* \"#utility.yul\":5875:5984   */\n      pop\n      pop\n      jump\t// out\n        /* \"#utility.yul\":5990:6157   */\n    tag_341:\n        /* \"#utility.yul\":6095:6150   */\n      tag_343\n        /* \"#utility.yul\":6144:6149   */\n      dup2\n        /* \"#utility.yul\":6095:6150   */\n      tag_344\n      jump\t// in\n    tag_343:\n        /* \"#utility.yul\":6090:6093   */\n      dup3\n        /* \"#utility.yul\":6083:6151   */\n      mstore\n        /* \"#utility.yul\":5990:6157   */\n      pop\n      pop\n      jump\t// out\n        /* \"#utility.yul\":6163:6334   */\n    tag_345:\n        /* \"#utility.yul\":6270:6327   */\n      tag_347\n        /* \"#utility.yul\":6321:6326   */\n      dup2\n        /* \"#utility.yul\":6270:6327   */\n      tag_348\n      jump\t// in\n    tag_347:\n        /* \"#utility.yul\":6265:6268   */\n      dup3\n        /* \"#utility.yul\":6258:6328   */\n      mstore\n        /* \"#utility.yul\":6163:6334   */\n      pop\n      pop\n      jump\t// out\n        /* \"#utility.yul\":6340:6445   */\n    tag_349:\n        /* \"#utility.yul\":6415:6438   */\n      tag_351\n        /* \"#utility.yul\":6432:6437   */\n      dup2\n        /* \"#utility.yul\":6415:6438   */\n      tag_352\n      jump\t// in\n    tag_351:\n        /* \"#utility.yul\":6410:6413   */\n      dup3\n        /* \"#utility.yul\":6403:6439   */\n      mstore\n        /* \"#utility.yul\":6340:6445   */\n      pop\n      pop\n      jump\t// out\n        /* \"#utility.yul\":6451:6566   */\n    tag_353:\n        /* \"#utility.yul\":6536:6559   */\n      tag_355\n        /* \"#utility.yul\":6553:6558   */\n      dup2\n        /* \"#utility.yul\":6536:6559   */\n      tag_352\n      jump\t// in\n    tag_355:\n        /* \"#utility.yul\":6531:6534   */\n      dup3\n        /* \"#utility.yul\":6524:6560   */\n      mstore\n        /* \"#utility.yul\":6451:6566   */\n      pop\n      pop\n      jump\t// out\n        /* \"#utility.yul\":6596:6913   */\n    tag_356:\n        /* \"#utility.yul\":6712:6715   */\n      0x00\n        /* \"#utility.yul\":6733:6822   */\n      tag_358\n        /* \"#utility.yul\":6815:6821   */\n      dup4\n        /* \"#utility.yul\":6810:6813   */\n      dup6\n        /* \"#utility.yul\":6733:6822   */\n      tag_359\n      jump\t// in\n    tag_358:\n        /* \"#utility.yul\":6726:6822   */\n      swap4\n      pop\n        /* \"#utility.yul\":6832:6875   */\n      tag_360\n        /* \"#utility.yul\":6868:6874   */\n      dup4\n        /* \"#utility.yul\":6863:6866   */\n      dup6\n        /* \"#utility.yul\":6856:6861   */\n      dup5\n        /* \"#utility.yul\":6832:6875   */\n      tag_258\n      jump\t// in\n    tag_360:\n        /* \"#utility.yul\":6900:6906   */\n      dup3\n        /* \"#utility.yul\":6895:6898   */\n      dup5\n        /* \"#utility.yul\":6891:6907   */\n      add\n        /* \"#utility.yul\":6884:6907   */\n      swap1\n      pop\n        /* \"#utility.yul\":6596:6913   */\n      swap4\n      swap3\n      pop\n      pop\n      pop\n      jump\t// out\n        /* \"#utility.yul\":6919:7263   */\n    tag_361:\n        /* \"#utility.yul\":6997:7000   */\n      0x00\n        /* \"#utility.yul\":7025:7064   */\n      tag_363\n        /* \"#utility.yul\":7058:7063   */\n      dup3\n        /* \"#utility.yul\":7025:7064   */\n      tag_364\n      jump\t// in\n    tag_363:\n        /* \"#utility.yul\":7080:7141   */\n      tag_365\n        /* \"#utility.yul\":7134:7140   */\n      dup2\n        /* \"#utility.yul\":7129:7132   */\n      dup6\n        /* \"#utility.yul\":7080:7141   */\n      tag_366\n      jump\t// in\n    tag_365:\n        /* \"#utility.yul\":7073:7141   */\n      swap4\n      pop\n        /* \"#utility.yul\":7150:7202   */\n      tag_367\n        /* \"#utility.yul\":7195:7201   */\n      dup2\n        /* \"#utility.yul\":7190:7193   */\n      dup6\n        /* \"#utility.yul\":7183:7187   */\n      0x20\n        /* \"#utility.yul\":7176:7181   */\n      dup7\n        /* \"#utility.yul\":7172:7188   */\n      add\n        /* \"#utility.yul\":7150:7202   */\n      tag_368\n      jump\t// in\n    tag_367:\n        /* \"#utility.yul\":7227:7256   */\n      tag_369\n        /* \"#utility.yul\":7249:7255   */\n      dup2\n        /* \"#utility.yul\":7227:7256   */\n      tag_370\n      jump\t// in\n    tag_369:\n        /* \"#utility.yul\":7222:7225   */\n      dup5\n        /* \"#utility.yul\":7218:7257   */\n      add\n        /* \"#utility.yul\":7211:7257   */\n      swap2\n      pop\n        /* \"#utility.yul\":7001:7263   */\n      pop\n        /* \"#utility.yul\":6919:7263   */\n      swap3\n      swap2\n      pop\n      pop\n      jump\t// out\n        /* \"#utility.yul\":7269:7633   */\n    tag_371:\n        /* \"#utility.yul\":7357:7360   */\n      0x00\n        /* \"#utility.yul\":7385:7424   */\n      tag_373\n        /* \"#utility.yul\":7418:7423   */\n      dup3\n        /* \"#utility.yul\":7385:7424   */\n      tag_364\n      jump\t// in\n    tag_373:\n        /* \"#utility.yul\":7440:7511   */\n      tag_374\n        /* \"#utility.yul\":7504:7510   */\n      dup2\n        /* \"#utility.yul\":7499:7502   */\n      dup6\n        /* \"#utility.yul\":7440:7511   */\n      tag_375\n      jump\t// in\n    tag_374:\n        /* \"#utility.yul\":7433:7511   */\n      swap4\n      pop\n        /* \"#utility.yul\":7520:7572   */\n      tag_376\n        /* \"#utility.yul\":7565:7571   */\n      dup2\n        /* \"#utility.yul\":7560:7563   */\n      dup6\n        /* \"#utility.yul\":7553:7557   */\n      0x20\n        /* \"#utility.yul\":7546:7551   */\n      dup7\n        /* \"#utility.yul\":7542:7558   */\n      add\n        /* \"#utility.yul\":7520:7572   */\n      tag_368\n      jump\t// in\n    tag_376:\n        /* \"#utility.yul\":7597:7626   */\n      tag_377\n        /* \"#utility.yul\":7619:7625   */\n      dup2\n        /* \"#utility.yul\":7597:7626   */\n      tag_370\n      jump\t// in\n    tag_377:\n        /* \"#utility.yul\":7592:7595   */\n      dup5\n        /* \"#utility.yul\":7588:7627   */\n      add\n        /* \"#utility.yul\":7581:7627   */\n      swap2\n      pop\n        /* \"#utility.yul\":7361:7633   */\n      pop\n        /* \"#utility.yul\":7269:7633   */\n      swap3\n      swap2\n      pop\n      pop\n      jump\t// out\n        /* \"#utility.yul\":7639:8016   */\n    tag_378:\n        /* \"#utility.yul\":7745:7748   */\n      0x00\n        /* \"#utility.yul\":7773:7812   */\n      tag_380\n        /* \"#utility.yul\":7806:7811   */\n      dup3\n        /* \"#utility.yul\":7773:7812   */\n      tag_364\n      jump\t// in\n    tag_380:\n        /* \"#utility.yul\":7828:7917   */\n      tag_381\n        /* \"#utility.yul\":7910:7916   */\n      dup2\n        /* \"#utility.yul\":7905:7908   */\n      dup6\n        /* \"#utility.yul\":7828:7917   */\n      tag_359\n      jump\t// in\n    tag_381:\n        /* \"#utility.yul\":7821:7917   */\n      swap4\n      pop\n        /* \"#utility.yul\":7926:7978   */\n      tag_382\n        /* \"#utility.yul\":7971:7977   */\n      dup2\n        /* \"#utility.yul\":7966:7969   */\n      dup6\n        /* \"#utility.yul\":7959:7963   */\n      0x20\n        /* \"#utility.yul\":7952:7957   */\n      dup7\n        /* \"#utility.yul\":7948:7964   */\n      add\n        /* \"#utility.yul\":7926:7978   */\n      tag_368\n      jump\t// in\n    tag_382:\n        /* \"#utility.yul\":8003:8009   */\n      dup1\n        /* \"#utility.yul\":7998:8001   */\n      dup5\n        /* \"#utility.yul\":7994:8010   */\n      add\n        /* \"#utility.yul\":7987:8010   */\n      swap2\n      pop\n        /* \"#utility.yul\":7749:8016   */\n      pop\n        /* \"#utility.yul\":7639:8016   */\n      swap3\n      swap2\n      pop\n      pop\n      jump\t// out\n        /* \"#utility.yul\":8022:8388   */\n    tag_383:\n        /* \"#utility.yul\":8164:8167   */\n      0x00\n        /* \"#utility.yul\":8185:8252   */\n      tag_385\n        /* \"#utility.yul\":8249:8251   */\n      0x35\n        /* \"#utility.yul\":8244:8247   */\n      dup4\n        /* \"#utility.yul\":8185:8252   */\n      tag_375\n      jump\t// in\n    tag_385:\n        /* \"#utility.yul\":8178:8252   */\n      swap2\n      pop\n        /* \"#utility.yul\":8261:8354   */\n      tag_386\n        /* \"#utility.yul\":8350:8353   */\n      dup3\n        /* \"#utility.yul\":8261:8354   */\n      tag_387\n      jump\t// in\n    tag_386:\n        /* \"#utility.yul\":8379:8381   */\n      0x40\n        /* \"#utility.yul\":8374:8377   */\n      dup3\n        /* \"#utility.yul\":8370:8382   */\n      add\n        /* \"#utility.yul\":8363:8382   */\n      swap1\n      pop\n        /* \"#utility.yul\":8022:8388   */\n      swap2\n      swap1\n      pop\n      jump\t// out\n        /* \"#utility.yul\":8394:8760   */\n    tag_388:\n        /* \"#utility.yul\":8536:8539   */\n      0x00\n        /* \"#utility.yul\":8557:8624   */\n      tag_390\n        /* \"#utility.yul\":8621:8623   */\n      0x22\n        /* \"#utility.yul\":8616:8619   */\n      dup4\n        /* \"#utility.yul\":8557:8624   */\n      tag_375\n      jump\t// in\n    tag_390:\n        /* \"#utility.yul\":8550:8624   */\n      swap2\n      pop\n        /* \"#utility.yul\":8633:8726   */\n      tag_391\n        /* \"#utility.yul\":8722:8725   */\n      dup3\n        /* \"#utility.yul\":8633:8726   */\n      tag_392\n      jump\t// in\n    tag_391:\n        /* \"#utility.yul\":8751:8753   */\n      0x40\n        /* \"#utility.yul\":8746:8749   */\n      dup3\n        /* \"#utility.yul\":8742:8754   */\n      add\n        /* \"#utility.yul\":8735:8754   */\n      swap1\n      pop\n        /* \"#utility.yul\":8394:8760   */\n      swap2\n      swap1\n      pop\n      jump\t// out\n        /* \"#utility.yul\":8766:9132   */\n    tag_393:\n        /* \"#utility.yul\":8908:8911   */\n      0x00\n        /* \"#utility.yul\":8929:8996   */\n      tag_395\n        /* \"#utility.yul\":8993:8995   */\n      0x0d\n        /* \"#utility.yul\":8988:8991   */\n      dup4\n        /* \"#utility.yul\":8929:8996   */\n      tag_375\n      jump\t// in\n    tag_395:\n        /* \"#utility.yul\":8922:8996   */\n      swap2\n      pop\n        /* \"#utility.yul\":9005:9098   */\n      tag_396\n        /* \"#utility.yul\":9094:9097   */\n      dup3\n        /* \"#utility.yul\":9005:9098   */\n      tag_397\n      jump\t// in\n    tag_396:\n        /* \"#utility.yul\":9123:9125   */\n      0x20\n        /* \"#utility.yul\":9118:9121   */\n      dup3\n        /* \"#utility.yul\":9114:9126   */\n      add\n        /* \"#utility.yul\":9107:9126   */\n      swap1\n      pop\n        /* \"#utility.yul\":8766:9132   */\n      swap2\n      swap1\n      pop\n      jump\t// out\n        /* \"#utility.yul\":9138:9504   */\n    tag_398:\n        /* \"#utility.yul\":9280:9283   */\n      0x00\n        /* \"#utility.yul\":9301:9368   */\n      tag_400\n        /* \"#utility.yul\":9365:9367   */\n      0x32\n        /* \"#utility.yul\":9360:9363   */\n      dup4\n        /* \"#utility.yul\":9301:9368   */\n      tag_375\n      jump\t// in\n    tag_400:\n        /* \"#utility.yul\":9294:9368   */\n      swap2\n      pop\n        /* \"#utility.yul\":9377:9470   */\n      tag_401\n        /* \"#utility.yul\":9466:9469   */\n      dup3\n        /* \"#utility.yul\":9377:9470   */\n      tag_402\n      jump\t// in\n    tag_401:\n        /* \"#utility.yul\":9495:9497   */\n      0x40\n        /* \"#utility.yul\":9490:9493   */\n      dup3\n        /* \"#utility.yul\":9486:9498   */\n      add\n        /* \"#utility.yul\":9479:9498   */\n      swap1\n      pop\n        /* \"#utility.yul\":9138:9504   */\n      swap2\n      swap1\n      pop\n      jump\t// out\n        /* \"#utility.yul\":9510:9876   */\n    tag_403:\n        /* \"#utility.yul\":9652:9655   */\n      0x00\n        /* \"#utility.yul\":9673:9740   */\n      tag_405\n        /* \"#utility.yul\":9737:9739   */\n      0x1a\n        /* \"#utility.yul\":9732:9735   */\n      dup4\n        /* \"#utility.yul\":9673:9740   */\n      tag_375\n      jump\t// in\n    tag_405:\n        /* \"#utility.yul\":9666:9740   */\n      swap2\n      pop\n        /* \"#utility.yul\":9749:9842   */\n      tag_406\n        /* \"#utility.yul\":9838:9841   */\n      dup3\n        /* \"#utility.yul\":9749:9842   */\n      tag_407\n      jump\t// in\n    tag_406:\n        /* \"#utility.yul\":9867:9869   */\n      0x20\n        /* \"#utility.yul\":9862:9865   */\n      dup3\n        /* \"#utility.yul\":9858:9870   */\n      add\n        /* \"#utility.yul\":9851:9870   */\n      swap1\n      pop\n        /* \"#utility.yul\":9510:9876   */\n      swap2\n      swap1\n      pop\n      jump\t// out\n        /* \"#utility.yul\":9882:10248   */\n    tag_408:\n        /* \"#utility.yul\":10024:10027   */\n      0x00\n        /* \"#utility.yul\":10045:10112   */\n      tag_410\n        /* \"#utility.yul\":10109:10111   */\n      0x1c\n        /* \"#utility.yul\":10104:10107   */\n      dup4\n        /* \"#utility.yul\":10045:10112   */\n      tag_375\n      jump\t// in\n    tag_410:\n        /* \"#utility.yul\":10038:10112   */\n      swap2\n      pop\n        /* \"#utility.yul\":10121:10214   */\n      tag_411\n        /* \"#utility.yul\":10210:10213   */\n      dup3\n        /* \"#utility.yul\":10121:10214   */\n      tag_412\n      jump\t// in\n    tag_411:\n        /* \"#utility.yul\":10239:10241   */\n      0x20\n        /* \"#utility.yul\":10234:10237   */\n      dup3\n        /* \"#utility.yul\":10230:10242   */\n      add\n        /* \"#utility.yul\":10223:10242   */\n      swap1\n      pop\n        /* \"#utility.yul\":9882:10248   */\n      swap2\n      swap1\n      pop\n      jump\t// out\n        /* \"#utility.yul\":10254:10620   */\n    tag_413:\n        /* \"#utility.yul\":10396:10399   */\n      0x00\n        /* \"#utility.yul\":10417:10484   */\n      tag_415\n        /* \"#utility.yul\":10481:10483   */\n      0x20\n        /* \"#utility.yul\":10476:10479   */\n      dup4\n        /* \"#utility.yul\":10417:10484   */\n      tag_375\n      jump\t// in\n    tag_415:\n        /* \"#utility.yul\":10410:10484   */\n      swap2\n      pop\n        /* \"#utility.yul\":10493:10586   */\n      tag_416\n        /* \"#utility.yul\":10582:10585   */\n      dup3\n        /* \"#utility.yul\":10493:10586   */\n      tag_417\n      jump\t// in\n    tag_416:\n        /* \"#utility.yul\":10611:10613   */\n      0x20\n        /* \"#utility.yul\":10606:10609   */\n      dup3\n        /* \"#utility.yul\":10602:10614   */\n      add\n        /* \"#utility.yul\":10595:10614   */\n      swap1\n      pop\n        /* \"#utility.yul\":10254:10620   */\n      swap2\n      swap1\n      pop\n      jump\t// out\n        /* \"#utility.yul\":10626:10992   */\n    tag_418:\n        /* \"#utility.yul\":10768:10771   */\n      0x00\n        /* \"#utility.yul\":10789:10856   */\n      tag_420\n        /* \"#utility.yul\":10853:10855   */\n      0x27\n        /* \"#utility.yul\":10848:10851   */\n      dup4\n        /* \"#utility.yul\":10789:10856   */\n      tag_375\n      jump\t// in\n    tag_420:\n        /* \"#utility.yul\":10782:10856   */\n      swap2\n      pop\n        /* \"#utility.yul\":10865:10958   */\n      tag_421\n        /* \"#utility.yul\":10954:10957   */\n      dup3\n        /* \"#utility.yul\":10865:10958   */\n      tag_422\n      jump\t// in\n    tag_421:\n        /* \"#utility.yul\":10983:10985   */\n      0x40\n        /* \"#utility.yul\":10978:10981   */\n      dup3\n        /* \"#utility.yul\":10974:10986   */\n      add\n        /* \"#utility.yul\":10967:10986   */\n      swap1\n      pop\n        /* \"#utility.yul\":10626:10992   */\n      swap2\n      swap1\n      pop\n      jump\t// out\n        /* \"#utility.yul\":11086:12193   */\n    tag_423:\n        /* \"#utility.yul\":11259:11263   */\n      0xa0\n        /* \"#utility.yul\":11254:11257   */\n      dup3\n        /* \"#utility.yul\":11250:11264   */\n      add\n        /* \"#utility.yul\":11355:11359   */\n      0x00\n        /* \"#utility.yul\":11348:11353   */\n      dup3\n        /* \"#utility.yul\":11344:11360   */\n      add\n        /* \"#utility.yul\":11338:11361   */\n      mload\n        /* \"#utility.yul\":11374:11437   */\n      tag_425\n        /* \"#utility.yul\":11431:11435   */\n      0x00\n        /* \"#utility.yul\":11426:11429   */\n      dup6\n        /* \"#utility.yul\":11422:11436   */\n      add\n        /* \"#utility.yul\":11408:11420   */\n      dup3\n        /* \"#utility.yul\":11374:11437   */\n      tag_426\n      jump\t// in\n    tag_425:\n        /* \"#utility.yul\":11274:11447   */\n      pop\n        /* \"#utility.yul\":11539:11543   */\n      0x20\n        /* \"#utility.yul\":11532:11537   */\n      dup3\n        /* \"#utility.yul\":11528:11544   */\n      add\n        /* \"#utility.yul\":11522:11545   */\n      mload\n        /* \"#utility.yul\":11558:11621   */\n      tag_427\n        /* \"#utility.yul\":11615:11619   */\n      0x20\n        /* \"#utility.yul\":11610:11613   */\n      dup6\n        /* \"#utility.yul\":11606:11620   */\n      add\n        /* \"#utility.yul\":11592:11604   */\n      dup3\n        /* \"#utility.yul\":11558:11621   */\n      tag_426\n      jump\t// in\n    tag_427:\n        /* \"#utility.yul\":11457:11631   */\n      pop\n        /* \"#utility.yul\":11724:11728   */\n      0x40\n        /* \"#utility.yul\":11717:11722   */\n      dup3\n        /* \"#utility.yul\":11713:11729   */\n      add\n        /* \"#utility.yul\":11707:11730   */\n      mload\n        /* \"#utility.yul\":11743:11806   */\n      tag_428\n        /* \"#utility.yul\":11800:11804   */\n      0x40\n        /* \"#utility.yul\":11795:11798   */\n      dup6\n        /* \"#utility.yul\":11791:11805   */\n      add\n        /* \"#utility.yul\":11777:11789   */\n      dup3\n        /* \"#utility.yul\":11743:11806   */\n      tag_330\n      jump\t// in\n    tag_428:\n        /* \"#utility.yul\":11641:11816   */\n      pop\n        /* \"#utility.yul\":11906:11910   */\n      0x60\n        /* \"#utility.yul\":11899:11904   */\n      dup3\n        /* \"#utility.yul\":11895:11911   */\n      add\n        /* \"#utility.yul\":11889:11912   */\n      mload\n        /* \"#utility.yul\":11925:11988   */\n      tag_429\n        /* \"#utility.yul\":11982:11986   */\n      0x60\n        /* \"#utility.yul\":11977:11980   */\n      dup6\n        /* \"#utility.yul\":11973:11987   */\n      add\n        /* \"#utility.yul\":11959:11971   */\n      dup3\n        /* \"#utility.yul\":11925:11988   */\n      tag_426\n      jump\t// in\n    tag_429:\n        /* \"#utility.yul\":11826:11998   */\n      pop\n        /* \"#utility.yul\":12094:12098   */\n      0x80\n        /* \"#utility.yul\":12087:12092   */\n      dup3\n        /* \"#utility.yul\":12083:12099   */\n      add\n        /* \"#utility.yul\":12077:12100   */\n      mload\n        /* \"#utility.yul\":12113:12176   */\n      tag_430\n        /* \"#utility.yul\":12170:12174   */\n      0x80\n        /* \"#utility.yul\":12165:12168   */\n      dup6\n        /* \"#utility.yul\":12161:12175   */\n      add\n        /* \"#utility.yul\":12147:12159   */\n      dup3\n        /* \"#utility.yul\":12113:12176   */\n      tag_426\n      jump\t// in\n    tag_430:\n        /* \"#utility.yul\":12008:12186   */\n      pop\n        /* \"#utility.yul\":11228:12193   */\n      pop\n        /* \"#utility.yul\":11086:12193   */\n      pop\n      pop\n      jump\t// out\n        /* \"#utility.yul\":12287:13845   */\n    tag_431:\n        /* \"#utility.yul\":12432:12435   */\n      0x00\n        /* \"#utility.yul\":12468:12472   */\n      0xe0\n        /* \"#utility.yul\":12463:12466   */\n      dup4\n        /* \"#utility.yul\":12459:12473   */\n      add\n        /* \"#utility.yul\":12563:12567   */\n      0x00\n        /* \"#utility.yul\":12556:12561   */\n      dup4\n        /* \"#utility.yul\":12552:12568   */\n      add\n        /* \"#utility.yul\":12546:12569   */\n      mload\n        /* \"#utility.yul\":12582:12645   */\n      tag_433\n        /* \"#utility.yul\":12639:12643   */\n      0x00\n        /* \"#utility.yul\":12634:12637   */\n      dup7\n        /* \"#utility.yul\":12630:12644   */\n      add\n        /* \"#utility.yul\":12616:12628   */\n      dup3\n        /* \"#utility.yul\":12582:12645   */\n      tag_426\n      jump\t// in\n    tag_433:\n        /* \"#utility.yul\":12483:12655   */\n      pop\n        /* \"#utility.yul\":12748:12752   */\n      0x20\n        /* \"#utility.yul\":12741:12746   */\n      dup4\n        /* \"#utility.yul\":12737:12753   */\n      add\n        /* \"#utility.yul\":12731:12754   */\n      mload\n        /* \"#utility.yul\":12767:12830   */\n      tag_434\n        /* \"#utility.yul\":12824:12828   */\n      0x20\n        /* \"#utility.yul\":12819:12822   */\n      dup7\n        /* \"#utility.yul\":12815:12829   */\n      add\n        /* \"#utility.yul\":12801:12813   */\n      dup3\n        /* \"#utility.yul\":12767:12830   */\n      tag_330\n      jump\t// in\n    tag_434:\n        /* \"#utility.yul\":12665:12840   */\n      pop\n        /* \"#utility.yul\":12925:12929   */\n      0x40\n        /* \"#utility.yul\":12918:12923   */\n      dup4\n        /* \"#utility.yul\":12914:12930   */\n      add\n        /* \"#utility.yul\":12908:12931   */\n      mload\n        /* \"#utility.yul\":12978:12981   */\n      dup5\n        /* \"#utility.yul\":12972:12976   */\n      dup3\n        /* \"#utility.yul\":12968:12982   */\n      sub\n        /* \"#utility.yul\":12961:12965   */\n      0x40\n        /* \"#utility.yul\":12956:12959   */\n      dup7\n        /* \"#utility.yul\":12952:12966   */\n      add\n        /* \"#utility.yul\":12945:12983   */\n      mstore\n        /* \"#utility.yul\":13004:13077   */\n      tag_435\n        /* \"#utility.yul\":13072:13076   */\n      dup3\n        /* \"#utility.yul\":13058:13070   */\n      dup3\n        /* \"#utility.yul\":13004:13077   */\n      tag_361\n      jump\t// in\n    tag_435:\n        /* \"#utility.yul\":12996:13077   */\n      swap2\n      pop\n        /* \"#utility.yul\":12850:13088   */\n      pop\n        /* \"#utility.yul\":13174:13178   */\n      0x60\n        /* \"#utility.yul\":13167:13172   */\n      dup4\n        /* \"#utility.yul\":13163:13179   */\n      add\n        /* \"#utility.yul\":13157:13180   */\n      mload\n        /* \"#utility.yul\":13193:13256   */\n      tag_436\n        /* \"#utility.yul\":13250:13254   */\n      0x60\n        /* \"#utility.yul\":13245:13248   */\n      dup7\n        /* \"#utility.yul\":13241:13255   */\n      add\n        /* \"#utility.yul\":13227:13239   */\n      dup3\n        /* \"#utility.yul\":13193:13256   */\n      tag_426\n      jump\t// in\n    tag_436:\n        /* \"#utility.yul\":13098:13266   */\n      pop\n        /* \"#utility.yul\":13361:13365   */\n      0x80\n        /* \"#utility.yul\":13354:13359   */\n      dup4\n        /* \"#utility.yul\":13350:13366   */\n      add\n        /* \"#utility.yul\":13344:13367   */\n      mload\n        /* \"#utility.yul\":13380:13443   */\n      tag_437\n        /* \"#utility.yul\":13437:13441   */\n      0x80\n        /* \"#utility.yul\":13432:13435   */\n      dup7\n        /* \"#utility.yul\":13428:13442   */\n      add\n        /* \"#utility.yul\":13414:13426   */\n      dup3\n        /* \"#utility.yul\":13380:13443   */\n      tag_426\n      jump\t// in\n    tag_437:\n        /* \"#utility.yul\":13276:13453   */\n      pop\n        /* \"#utility.yul\":13544:13548   */\n      0xa0\n        /* \"#utility.yul\":13537:13542   */\n      dup4\n        /* \"#utility.yul\":13533:13549   */\n      add\n        /* \"#utility.yul\":13527:13550   */\n      mload\n        /* \"#utility.yul\":13563:13626   */\n      tag_438\n        /* \"#utility.yul\":13620:13624   */\n      0xa0\n        /* \"#utility.yul\":13615:13618   */\n      dup7\n        /* \"#utility.yul\":13611:13625   */\n      add\n        /* \"#utility.yul\":13597:13609   */\n      dup3\n        /* \"#utility.yul\":13563:13626   */\n      tag_426\n      jump\t// in\n    tag_438:\n        /* \"#utility.yul\":13463:13636   */\n      pop\n        /* \"#utility.yul\":13728:13732   */\n      0xc0\n        /* \"#utility.yul\":13721:13726   */\n      dup4\n        /* \"#utility.yul\":13717:13733   */\n      add\n        /* \"#utility.yul\":13711:13734   */\n      mload\n        /* \"#utility.yul\":13747:13808   */\n      tag_439\n        /* \"#utility.yul\":13802:13806   */\n      0xc0\n        /* \"#utility.yul\":13797:13800   */\n      dup7\n        /* \"#utility.yul\":13793:13807   */\n      add\n        /* \"#utility.yul\":13779:13791   */\n      dup3\n        /* \"#utility.yul\":13747:13808   */\n      tag_349\n      jump\t// in\n    tag_439:\n        /* \"#utility.yul\":13646:13818   */\n      pop\n        /* \"#utility.yul\":13835:13839   */\n      dup1\n        /* \"#utility.yul\":13828:13839   */\n      swap2\n      pop\n        /* \"#utility.yul\":12437:13845   */\n      pop\n        /* \"#utility.yul\":12287:13845   */\n      swap3\n      swap2\n      pop\n      pop\n      jump\t// out\n        /* \"#utility.yul\":13943:15502   */\n    tag_440:\n        /* \"#utility.yul\":14092:14095   */\n      0x00\n        /* \"#utility.yul\":14128:14132   */\n      0xe0\n        /* \"#utility.yul\":14123:14126   */\n      dup4\n        /* \"#utility.yul\":14119:14133   */\n      add\n        /* \"#utility.yul\":14225:14229   */\n      0x00\n        /* \"#utility.yul\":14218:14223   */\n      dup4\n        /* \"#utility.yul\":14214:14230   */\n      add\n        /* \"#utility.yul\":14208:14231   */\n      mload\n        /* \"#utility.yul\":14244:14307   */\n      tag_442\n        /* \"#utility.yul\":14301:14305   */\n      0x00\n        /* \"#utility.yul\":14296:14299   */\n      dup7\n        /* \"#utility.yul\":14292:14306   */\n      add\n        /* \"#utility.yul\":14278:14290   */\n      dup3\n        /* \"#utility.yul\":14244:14307   */\n      tag_426\n      jump\t// in\n    tag_442:\n        /* \"#utility.yul\":14143:14317   */\n      pop\n        /* \"#utility.yul\":14407:14411   */\n      0x20\n        /* \"#utility.yul\":14400:14405   */\n      dup4\n        /* \"#utility.yul\":14396:14412   */\n      add\n        /* \"#utility.yul\":14390:14413   */\n      mload\n        /* \"#utility.yul\":14426:14489   */\n      tag_443\n        /* \"#utility.yul\":14483:14487   */\n      0x20\n        /* \"#utility.yul\":14478:14481   */\n      dup7\n        /* \"#utility.yul\":14474:14488   */\n      add\n        /* \"#utility.yul\":14460:14472   */\n      dup3\n        /* \"#utility.yul\":14426:14489   */\n      tag_426\n      jump\t// in\n    tag_443:\n        /* \"#utility.yul\":14327:14499   */\n      pop\n        /* \"#utility.yul\":14592:14596   */\n      0x40\n        /* \"#utility.yul\":14585:14590   */\n      dup4\n        /* \"#utility.yul\":14581:14597   */\n      add\n        /* \"#utility.yul\":14575:14598   */\n      mload\n        /* \"#utility.yul\":14611:14674   */\n      tag_444\n        /* \"#utility.yul\":14668:14672   */\n      0x40\n        /* \"#utility.yul\":14663:14666   */\n      dup7\n        /* \"#utility.yul\":14659:14673   */\n      add\n        /* \"#utility.yul\":14645:14657   */\n      dup3\n        /* \"#utility.yul\":14611:14674   */\n      tag_330\n      jump\t// in\n    tag_444:\n        /* \"#utility.yul\":14509:14684   */\n      pop\n        /* \"#utility.yul\":14769:14773   */\n      0x60\n        /* \"#utility.yul\":14762:14767   */\n      dup4\n        /* \"#utility.yul\":14758:14774   */\n      add\n        /* \"#utility.yul\":14752:14775   */\n      mload\n        /* \"#utility.yul\":14822:14825   */\n      dup5\n        /* \"#utility.yul\":14816:14820   */\n      dup3\n        /* \"#utility.yul\":14812:14826   */\n      sub\n        /* \"#utility.yul\":14805:14809   */\n      0x60\n        /* \"#utility.yul\":14800:14803   */\n      dup7\n        /* \"#utility.yul\":14796:14810   */\n      add\n        /* \"#utility.yul\":14789:14827   */\n      mstore\n        /* \"#utility.yul\":14848:14921   */\n      tag_445\n        /* \"#utility.yul\":14916:14920   */\n      dup3\n        /* \"#utility.yul\":14902:14914   */\n      dup3\n        /* \"#utility.yul\":14848:14921   */\n      tag_361\n      jump\t// in\n    tag_445:\n        /* \"#utility.yul\":14840:14921   */\n      swap2\n      pop\n        /* \"#utility.yul\":14694:14932   */\n      pop\n        /* \"#utility.yul\":15025:15029   */\n      0x80\n        /* \"#utility.yul\":15018:15023   */\n      dup4\n        /* \"#utility.yul\":15014:15030   */\n      add\n        /* \"#utility.yul\":15008:15031   */\n      mload\n        /* \"#utility.yul\":15044:15107   */\n      tag_446\n        /* \"#utility.yul\":15101:15105   */\n      0x80\n        /* \"#utility.yul\":15096:15099   */\n      dup7\n        /* \"#utility.yul\":15092:15106   */\n      add\n        /* \"#utility.yul\":15078:15090   */\n      dup3\n        /* \"#utility.yul\":15044:15107   */\n      tag_426\n      jump\t// in\n    tag_446:\n        /* \"#utility.yul\":14942:15117   */\n      pop\n        /* \"#utility.yul\":15202:15206   */\n      0xa0\n        /* \"#utility.yul\":15195:15200   */\n      dup4\n        /* \"#utility.yul\":15191:15207   */\n      add\n        /* \"#utility.yul\":15185:15208   */\n      mload\n        /* \"#utility.yul\":15221:15284   */\n      tag_447\n        /* \"#utility.yul\":15278:15282   */\n      0xa0\n        /* \"#utility.yul\":15273:15276   */\n      dup7\n        /* \"#utility.yul\":15269:15283   */\n      add\n        /* \"#utility.yul\":15255:15267   */\n      dup3\n        /* \"#utility.yul\":15221:15284   */\n      tag_426\n      jump\t// in\n    tag_447:\n        /* \"#utility.yul\":15127:15294   */\n      pop\n        /* \"#utility.yul\":15385:15389   */\n      0xc0\n        /* \"#utility.yul\":15378:15383   */\n      dup4\n        /* \"#utility.yul\":15374:15390   */\n      add\n        /* \"#utility.yul\":15368:15391   */\n      mload\n        /* \"#utility.yul\":15404:15465   */\n      tag_448\n        /* \"#utility.yul\":15459:15463   */\n      0xc0\n        /* \"#utility.yul\":15454:15457   */\n      dup7\n        /* \"#utility.yul\":15450:15464   */\n      add\n        /* \"#utility.yul\":15436:15448   */\n      dup3\n        /* \"#utility.yul\":15404:15465   */\n      tag_349\n      jump\t// in\n    tag_448:\n        /* \"#utility.yul\":15304:15475   */\n      pop\n        /* \"#utility.yul\":15492:15496   */\n      dup1\n        /* \"#utility.yul\":15485:15496   */\n      swap2\n      pop\n        /* \"#utility.yul\":14097:15502   */\n      pop\n        /* \"#utility.yul\":13943:15502   */\n      swap3\n      swap2\n      pop\n      pop\n      jump\t// out\n        /* \"#utility.yul\":15508:15616   */\n    tag_426:\n        /* \"#utility.yul\":15585:15609   */\n      tag_450\n        /* \"#utility.yul\":15603:15608   */\n      dup2\n        /* \"#utility.yul\":15585:15609   */\n      tag_451\n      jump\t// in\n    tag_450:\n        /* \"#utility.yul\":15580:15583   */\n      dup3\n        /* \"#utility.yul\":15573:15610   */\n      mstore\n        /* \"#utility.yul\":15508:15616   */\n      pop\n      pop\n      jump\t// out\n        /* \"#utility.yul\":15622:15740   */\n    tag_452:\n        /* \"#utility.yul\":15709:15733   */\n      tag_454\n        /* \"#utility.yul\":15727:15732   */\n      dup2\n        /* \"#utility.yul\":15709:15733   */\n      tag_451\n      jump\t// in\n    tag_454:\n        /* \"#utility.yul\":15704:15707   */\n      dup3\n        /* \"#utility.yul\":15697:15734   */\n      mstore\n        /* \"#utility.yul\":15622:15740   */\n      pop\n      pop\n      jump\t// out\n        /* \"#utility.yul\":15746:16041   */\n    tag_204:\n        /* \"#utility.yul\":15888:15891   */\n      0x00\n        /* \"#utility.yul\":15910:16015   */\n      tag_456\n        /* \"#utility.yul\":16011:16014   */\n      dup3\n        /* \"#utility.yul\":16002:16008   */\n      dup5\n        /* \"#utility.yul\":15994:16000   */\n      dup7\n        /* \"#utility.yul\":15910:16015   */\n      tag_356\n      jump\t// in\n    tag_456:\n        /* \"#utility.yul\":15903:16015   */\n      swap2\n      pop\n        /* \"#utility.yul\":16032:16035   */\n      dup2\n        /* \"#utility.yul\":16025:16035   */\n      swap1\n      pop\n        /* \"#utility.yul\":15746:16041   */\n      swap4\n      swap3\n      pop\n      pop\n      pop\n      jump\t// out\n        /* \"#utility.yul\":16047:16322   */\n    tag_141:\n        /* \"#utility.yul\":16179:16182   */\n      0x00\n        /* \"#utility.yul\":16201:16296   */\n      tag_458\n        /* \"#utility.yul\":16292:16295   */\n      dup3\n        /* \"#utility.yul\":16283:16289   */\n      dup5\n        /* \"#utility.yul\":16201:16296   */\n      tag_378\n      jump\t// in\n    tag_458:\n        /* \"#utility.yul\":16194:16296   */\n      swap2\n      pop\n        /* \"#utility.yul\":16313:16316   */\n      dup2\n        /* \"#utility.yul\":16306:16316   */\n      swap1\n      pop\n        /* \"#utility.yul\":16047:16322   */\n      swap3\n      swap2\n      pop\n      pop\n      jump\t// out\n        /* \"#utility.yul\":16328:16550   */\n    tag_110:\n        /* \"#utility.yul\":16421:16425   */\n      0x00\n        /* \"#utility.yul\":16459:16461   */\n      0x20\n        /* \"#utility.yul\":16448:16457   */\n      dup3\n        /* \"#utility.yul\":16444:16462   */\n      add\n        /* \"#utility.yul\":16436:16462   */\n      swap1\n      pop\n        /* \"#utility.yul\":16472:16543   */\n      tag_460\n        /* \"#utility.yul\":16540:16541   */\n      0x00\n        /* \"#utility.yul\":16529:16538   */\n      dup4\n        /* \"#utility.yul\":16525:16542   */\n      add\n        /* \"#utility.yul\":16516:16522   */\n      dup5\n        /* \"#utility.yul\":16472:16543   */\n      tag_334\n      jump\t// in\n    tag_460:\n        /* \"#utility.yul\":16328:16550   */\n      swap3\n      swap2\n      pop\n      pop\n      jump\t// out\n        /* \"#utility.yul\":16556:16998   */\n    tag_186:\n        /* \"#utility.yul\":16705:16709   */\n      0x00\n        /* \"#utility.yul\":16743:16745   */\n      0x60\n        /* \"#utility.yul\":16732:16741   */\n      dup3\n        /* \"#utility.yul\":16728:16746   */\n      add\n        /* \"#utility.yul\":16720:16746   */\n      swap1\n      pop\n        /* \"#utility.yul\":16756:16827   */\n      tag_462\n        /* \"#utility.yul\":16824:16825   */\n      0x00\n        /* \"#utility.yul\":16813:16822   */\n      dup4\n        /* \"#utility.yul\":16809:16826   */\n      add\n        /* \"#utility.yul\":16800:16806   */\n      dup7\n        /* \"#utility.yul\":16756:16827   */\n      tag_334\n      jump\t// in\n    tag_462:\n        /* \"#utility.yul\":16837:16909   */\n      tag_463\n        /* \"#utility.yul\":16905:16907   */\n      0x20\n        /* \"#utility.yul\":16894:16903   */\n      dup4\n        /* \"#utility.yul\":16890:16908   */\n      add\n        /* \"#utility.yul\":16881:16887   */\n      dup6\n        /* \"#utility.yul\":16837:16909   */\n      tag_334\n      jump\t// in\n    tag_463:\n        /* \"#utility.yul\":16919:16991   */\n      tag_464\n        /* \"#utility.yul\":16987:16989   */\n      0x40\n        /* \"#utility.yul\":16976:16985   */\n      dup4\n        /* \"#utility.yul\":16972:16990   */\n      add\n        /* \"#utility.yul\":16963:16969   */\n      dup5\n        /* \"#utility.yul\":16919:16991   */\n      tag_452\n      jump\t// in\n    tag_464:\n        /* \"#utility.yul\":16556:16998   */\n      swap5\n      swap4\n      pop\n      pop\n      pop\n      pop\n      jump\t// out\n        /* \"#utility.yul\":17004:17214   */\n    tag_84:\n        /* \"#utility.yul\":17091:17095   */\n      0x00\n        /* \"#utility.yul\":17129:17131   */\n      0x20\n        /* \"#utility.yul\":17118:17127   */\n      dup3\n        /* \"#utility.yul\":17114:17132   */\n      add\n        /* \"#utility.yul\":17106:17132   */\n      swap1\n      pop\n        /* \"#utility.yul\":17142:17207   */\n      tag_466\n        /* \"#utility.yul\":17204:17205   */\n      0x00\n        /* \"#utility.yul\":17193:17202   */\n      dup4\n        /* \"#utility.yul\":17189:17206   */\n      add\n        /* \"#utility.yul\":17180:17186   */\n      dup5\n        /* \"#utility.yul\":17142:17207   */\n      tag_337\n      jump\t// in\n    tag_466:\n        /* \"#utility.yul\":17004:17214   */\n      swap3\n      swap2\n      pop\n      pop\n      jump\t// out\n        /* \"#utility.yul\":17220:17478   */\n    tag_99:\n        /* \"#utility.yul\":17331:17335   */\n      0x00\n        /* \"#utility.yul\":17369:17371   */\n      0x20\n        /* \"#utility.yul\":17358:17367   */\n      dup3\n        /* \"#utility.yul\":17354:17372   */\n      add\n        /* \"#utility.yul\":17346:17372   */\n      swap1\n      pop\n        /* \"#utility.yul\":17382:17471   */\n      tag_468\n        /* \"#utility.yul\":17468:17469   */\n      0x00\n        /* \"#utility.yul\":17457:17466   */\n      dup4\n        /* \"#utility.yul\":17453:17470   */\n      add\n        /* \"#utility.yul\":17444:17450   */\n      dup5\n        /* \"#utility.yul\":17382:17471   */\n      tag_341\n      jump\t// in\n    tag_468:\n        /* \"#utility.yul\":17220:17478   */\n      swap3\n      swap2\n      pop\n      pop\n      jump\t// out\n        /* \"#utility.yul\":17484:17746   */\n    tag_77:\n        /* \"#utility.yul\":17597:17601   */\n      0x00\n        /* \"#utility.yul\":17635:17637   */\n      0x20\n        /* \"#utility.yul\":17624:17633   */\n      dup3\n        /* \"#utility.yul\":17620:17638   */\n      add\n        /* \"#utility.yul\":17612:17638   */\n      swap1\n      pop\n        /* \"#utility.yul\":17648:17739   */\n      tag_470\n        /* \"#utility.yul\":17736:17737   */\n      0x00\n        /* \"#utility.yul\":17725:17734   */\n      dup4\n        /* \"#utility.yul\":17721:17738   */\n      add\n        /* \"#utility.yul\":17712:17718   */\n      dup5\n        /* \"#utility.yul\":17648:17739   */\n      tag_345\n      jump\t// in\n    tag_470:\n        /* \"#utility.yul\":17484:17746   */\n      swap3\n      swap2\n      pop\n      pop\n      jump\t// out\n        /* \"#utility.yul\":17752:18285   */\n    tag_39:\n        /* \"#utility.yul\":17921:17925   */\n      0x00\n        /* \"#utility.yul\":17959:17961   */\n      0x60\n        /* \"#utility.yul\":17948:17957   */\n      dup3\n        /* \"#utility.yul\":17944:17962   */\n      add\n        /* \"#utility.yul\":17936:17962   */\n      swap1\n      pop\n        /* \"#utility.yul\":18008:18017   */\n      dup2\n        /* \"#utility.yul\":18002:18006   */\n      dup2\n        /* \"#utility.yul\":17998:18018   */\n      sub\n        /* \"#utility.yul\":17994:17995   */\n      0x00\n        /* \"#utility.yul\":17983:17992   */\n      dup4\n        /* \"#utility.yul\":17979:17996   */\n      add\n        /* \"#utility.yul\":17972:18019   */\n      mstore\n        /* \"#utility.yul\":18036:18114   */\n      tag_472\n        /* \"#utility.yul\":18109:18113   */\n      dup2\n        /* \"#utility.yul\":18100:18106   */\n      dup7\n        /* \"#utility.yul\":18036:18114   */\n      tag_371\n      jump\t// in\n    tag_472:\n        /* \"#utility.yul\":18028:18114   */\n      swap1\n      pop\n        /* \"#utility.yul\":18124:18196   */\n      tag_473\n        /* \"#utility.yul\":18192:18194   */\n      0x20\n        /* \"#utility.yul\":18181:18190   */\n      dup4\n        /* \"#utility.yul\":18177:18195   */\n      add\n        /* \"#utility.yul\":18168:18174   */\n      dup6\n        /* \"#utility.yul\":18124:18196   */\n      tag_452\n      jump\t// in\n    tag_473:\n        /* \"#utility.yul\":18206:18278   */\n      tag_474\n        /* \"#utility.yul\":18274:18276   */\n      0x40\n        /* \"#utility.yul\":18263:18272   */\n      dup4\n        /* \"#utility.yul\":18259:18277   */\n      add\n        /* \"#utility.yul\":18250:18256   */\n      dup5\n        /* \"#utility.yul\":18206:18278   */\n      tag_452\n      jump\t// in\n    tag_474:\n        /* \"#utility.yul\":17752:18285   */\n      swap5\n      swap4\n      pop\n      pop\n      pop\n      pop\n      jump\t// out\n        /* \"#utility.yul\":18291:18710   */\n    tag_182:\n        /* \"#utility.yul\":18457:18461   */\n      0x00\n        /* \"#utility.yul\":18495:18497   */\n      0x20\n        /* \"#utility.yul\":18484:18493   */\n      dup3\n        /* \"#utility.yul\":18480:18498   */\n      add\n        /* \"#utility.yul\":18472:18498   */\n      swap1\n      pop\n        /* \"#utility.yul\":18544:18553   */\n      dup2\n        /* \"#utility.yul\":18538:18542   */\n      dup2\n        /* \"#utility.yul\":18534:18554   */\n      sub\n        /* \"#utility.yul\":18530:18531   */\n      0x00\n        /* \"#utility.yul\":18519:18528   */\n      dup4\n        /* \"#utility.yul\":18515:18532   */\n      add\n        /* \"#utility.yul\":18508:18555   */\n      mstore\n        /* \"#utility.yul\":18572:18703   */\n      tag_476\n        /* \"#utility.yul\":18698:18702   */\n      dup2\n        /* \"#utility.yul\":18572:18703   */\n      tag_383\n      jump\t// in\n    tag_476:\n        /* \"#utility.yul\":18564:18703   */\n      swap1\n      pop\n        /* \"#utility.yul\":18291:18710   */\n      swap2\n      swap1\n      pop\n      jump\t// out\n        /* \"#utility.yul\":18716:19135   */\n    tag_207:\n        /* \"#utility.yul\":18882:18886   */\n      0x00\n        /* \"#utility.yul\":18920:18922   */\n      0x20\n        /* \"#utility.yul\":18909:18918   */\n      dup3\n        /* \"#utility.yul\":18905:18923   */\n      add\n        /* \"#utility.yul\":18897:18923   */\n      swap1\n      pop\n        /* \"#utility.yul\":18969:18978   */\n      dup2\n        /* \"#utility.yul\":18963:18967   */\n      dup2\n        /* \"#utility.yul\":18959:18979   */\n      sub\n        /* \"#utility.yul\":18955:18956   */\n      0x00\n        /* \"#utility.yul\":18944:18953   */\n      dup4\n        /* \"#utility.yul\":18940:18957   */\n      add\n        /* \"#utility.yul\":18933:18980   */\n      mstore\n        /* \"#utility.yul\":18997:19128   */\n      tag_478\n        /* \"#utility.yul\":19123:19127   */\n      dup2\n        /* \"#utility.yul\":18997:19128   */\n      tag_388\n      jump\t// in\n    tag_478:\n        /* \"#utility.yul\":18989:19128   */\n      swap1\n      pop\n        /* \"#utility.yul\":18716:19135   */\n      swap2\n      swap1\n      pop\n      jump\t// out\n        /* \"#utility.yul\":19141:19560   */\n    tag_122:\n        /* \"#utility.yul\":19307:19311   */\n      0x00\n        /* \"#utility.yul\":19345:19347   */\n      0x20\n        /* \"#utility.yul\":19334:19343   */\n      dup3\n        /* \"#utility.yul\":19330:19348   */\n      add\n        /* \"#utility.yul\":19322:19348   */\n      swap1\n      pop\n        /* \"#utility.yul\":19394:19403   */\n      dup2\n        /* \"#utility.yul\":19388:19392   */\n      dup2\n        /* \"#utility.yul\":19384:19404   */\n      sub\n        /* \"#utility.yul\":19380:19381   */\n      0x00\n        /* \"#utility.yul\":19369:19378   */\n      dup4\n        /* \"#utility.yul\":19365:19382   */\n      add\n        /* \"#utility.yul\":19358:19405   */\n      mstore\n        /* \"#utility.yul\":19422:19553   */\n      tag_480\n        /* \"#utility.yul\":19548:19552   */\n      dup2\n        /* \"#utility.yul\":19422:19553   */\n      tag_393\n      jump\t// in\n    tag_480:\n        /* \"#utility.yul\":19414:19553   */\n      swap1\n      pop\n        /* \"#utility.yul\":19141:19560   */\n      swap2\n      swap1\n      pop\n      jump\t// out\n        /* \"#utility.yul\":19566:19985   */\n    tag_133:\n        /* \"#utility.yul\":19732:19736   */\n      0x00\n        /* \"#utility.yul\":19770:19772   */\n      0x20\n        /* \"#utility.yul\":19759:19768   */\n      dup3\n        /* \"#utility.yul\":19755:19773   */\n      add\n        /* \"#utility.yul\":19747:19773   */\n      swap1\n      pop\n        /* \"#utility.yul\":19819:19828   */\n      dup2\n        /* \"#utility.yul\":19813:19817   */\n      dup2\n        /* \"#utility.yul\":19809:19829   */\n      sub\n        /* \"#utility.yul\":19805:19806   */\n      0x00\n        /* \"#utility.yul\":19794:19803   */\n      dup4\n        /* \"#utility.yul\":19790:19807   */\n      add\n        /* \"#utility.yul\":19783:19830   */\n      mstore\n        /* \"#utility.yul\":19847:19978   */\n      tag_482\n        /* \"#utility.yul\":19973:19977   */\n      dup2\n        /* \"#utility.yul\":19847:19978   */\n      tag_398\n      jump\t// in\n    tag_482:\n        /* \"#utility.yul\":19839:19978   */\n      swap1\n      pop\n        /* \"#utility.yul\":19566:19985   */\n      swap2\n      swap1\n      pop\n      jump\t// out\n        /* \"#utility.yul\":19991:20410   */\n    tag_127:\n        /* \"#utility.yul\":20157:20161   */\n      0x00\n        /* \"#utility.yul\":20195:20197   */\n      0x20\n        /* \"#utility.yul\":20184:20193   */\n      dup3\n        /* \"#utility.yul\":20180:20198   */\n      add\n        /* \"#utility.yul\":20172:20198   */\n      swap1\n      pop\n        /* \"#utility.yul\":20244:20253   */\n      dup2\n        /* \"#utility.yul\":20238:20242   */\n      dup2\n        /* \"#utility.yul\":20234:20254   */\n      sub\n        /* \"#utility.yul\":20230:20231   */\n      0x00\n        /* \"#utility.yul\":20219:20228   */\n      dup4\n        /* \"#utility.yul\":20215:20232   */\n      add\n        /* \"#utility.yul\":20208:20255   */\n      mstore\n        /* \"#utility.yul\":20272:20403   */\n      tag_484\n        /* \"#utility.yul\":20398:20402   */\n      dup2\n        /* \"#utility.yul\":20272:20403   */\n      tag_403\n      jump\t// in\n    tag_484:\n        /* \"#utility.yul\":20264:20403   */\n      swap1\n      pop\n        /* \"#utility.yul\":19991:20410   */\n      swap2\n      swap1\n      pop\n      jump\t// out\n        /* \"#utility.yul\":20416:20835   */\n    tag_179:\n        /* \"#utility.yul\":20582:20586   */\n      0x00\n        /* \"#utility.yul\":20620:20622   */\n      0x20\n        /* \"#utility.yul\":20609:20618   */\n      dup3\n        /* \"#utility.yul\":20605:20623   */\n      add\n        /* \"#utility.yul\":20597:20623   */\n      swap1\n      pop\n        /* \"#utility.yul\":20669:20678   */\n      dup2\n        /* \"#utility.yul\":20663:20667   */\n      dup2\n        /* \"#utility.yul\":20659:20679   */\n      sub\n        /* \"#utility.yul\":20655:20656   */\n      0x00\n        /* \"#utility.yul\":20644:20653   */\n      dup4\n        /* \"#utility.yul\":20640:20657   */\n      add\n        /* \"#utility.yul\":20633:20680   */\n      mstore\n        /* \"#utility.yul\":20697:20828   */\n      tag_486\n        /* \"#utility.yul\":20823:20827   */\n      dup2\n        /* \"#utility.yul\":20697:20828   */\n      tag_408\n      jump\t// in\n    tag_486:\n        /* \"#utility.yul\":20689:20828   */\n      swap1\n      pop\n        /* \"#utility.yul\":20416:20835   */\n      swap2\n      swap1\n      pop\n      jump\t// out\n        /* \"#utility.yul\":20841:21260   */\n    tag_174:\n        /* \"#utility.yul\":21007:21011   */\n      0x00\n        /* \"#utility.yul\":21045:21047   */\n      0x20\n        /* \"#utility.yul\":21034:21043   */\n      dup3\n        /* \"#utility.yul\":21030:21048   */\n      add\n        /* \"#utility.yul\":21022:21048   */\n      swap1\n      pop\n        /* \"#utility.yul\":21094:21103   */\n      dup2\n        /* \"#utility.yul\":21088:21092   */\n      dup2\n        /* \"#utility.yul\":21084:21104   */\n      sub\n        /* \"#utility.yul\":21080:21081   */\n      0x00\n        /* \"#utility.yul\":21069:21078   */\n      dup4\n        /* \"#utility.yul\":21065:21082   */\n      add\n        /* \"#utility.yul\":21058:21105   */\n      mstore\n        /* \"#utility.yul\":21122:21253   */\n      tag_488\n        /* \"#utility.yul\":21248:21252   */\n      dup2\n        /* \"#utility.yul\":21122:21253   */\n      tag_413\n      jump\t// in\n    tag_488:\n        /* \"#utility.yul\":21114:21253   */\n      swap1\n      pop\n        /* \"#utility.yul\":20841:21260   */\n      swap2\n      swap1\n      pop\n      jump\t// out\n        /* \"#utility.yul\":21266:21685   */\n    tag_130:\n        /* \"#utility.yul\":21432:21436   */\n      0x00\n        /* \"#utility.yul\":21470:21472   */\n      0x20\n        /* \"#utility.yul\":21459:21468   */\n      dup3\n        /* \"#utility.yul\":21455:21473   */\n      add\n        /* \"#utility.yul\":21447:21473   */\n      swap1\n      pop\n        /* \"#utility.yul\":21519:21528   */\n      dup2\n        /* \"#utility.yul\":21513:21517   */\n      dup2\n        /* \"#utility.yul\":21509:21529   */\n      sub\n        /* \"#utility.yul\":21505:21506   */\n      0x00\n        /* \"#utility.yul\":21494:21503   */\n      dup4\n        /* \"#utility.yul\":21490:21507   */\n      add\n        /* \"#utility.yul\":21483:21530   */\n      mstore\n        /* \"#utility.yul\":21547:21678   */\n      tag_490\n        /* \"#utility.yul\":21673:21677   */\n      dup2\n        /* \"#utility.yul\":21547:21678   */\n      tag_418\n      jump\t// in\n    tag_490:\n        /* \"#utility.yul\":21539:21678   */\n      swap1\n      pop\n        /* \"#utility.yul\":21266:21685   */\n      swap2\n      swap1\n      pop\n      jump\t// out\n        /* \"#utility.yul\":21691:22066   */\n    tag_57:\n        /* \"#utility.yul\":21860:21864   */\n      0x00\n        /* \"#utility.yul\":21898:21901   */\n      0xa0\n        /* \"#utility.yul\":21887:21896   */\n      dup3\n        /* \"#utility.yul\":21883:21902   */\n      add\n        /* \"#utility.yul\":21875:21902   */\n      swap1\n      pop\n        /* \"#utility.yul\":21912:22059   */\n      tag_492\n        /* \"#utility.yul\":22056:22057   */\n      0x00\n        /* \"#utility.yul\":22045:22054   */\n      dup4\n        /* \"#utility.yul\":22041:22058   */\n      add\n        /* \"#utility.yul\":22032:22038   */\n      dup5\n        /* \"#utility.yul\":21912:22059   */\n      tag_423\n      jump\t// in\n    tag_492:\n        /* \"#utility.yul\":21691:22066   */\n      swap3\n      swap2\n      pop\n      pop\n      jump\t// out\n        /* \"#utility.yul\":22072:22497   */\n    tag_72:\n        /* \"#utility.yul\":22241:22245   */\n      0x00\n        /* \"#utility.yul\":22279:22281   */\n      0x20\n        /* \"#utility.yul\":22268:22277   */\n      dup3\n        /* \"#utility.yul\":22264:22282   */\n      add\n        /* \"#utility.yul\":22256:22282   */\n      swap1\n      pop\n        /* \"#utility.yul\":22328:22337   */\n      dup2\n        /* \"#utility.yul\":22322:22326   */\n      dup2\n        /* \"#utility.yul\":22318:22338   */\n      sub\n        /* \"#utility.yul\":22314:22315   */\n      0x00\n        /* \"#utility.yul\":22303:22312   */\n      dup4\n        /* \"#utility.yul\":22299:22316   */\n      add\n        /* \"#utility.yul\":22292:22339   */\n      mstore\n        /* \"#utility.yul\":22356:22490   */\n      tag_494\n        /* \"#utility.yul\":22485:22489   */\n      dup2\n        /* \"#utility.yul\":22476:22482   */\n      dup5\n        /* \"#utility.yul\":22356:22490   */\n      tag_431\n      jump\t// in\n    tag_494:\n        /* \"#utility.yul\":22348:22490   */\n      swap1\n      pop\n        /* \"#utility.yul\":22072:22497   */\n      swap3\n      swap2\n      pop\n      pop\n      jump\t// out\n        /* \"#utility.yul\":22503:22936   */\n    tag_32:\n        /* \"#utility.yul\":22676:22680   */\n      0x00\n        /* \"#utility.yul\":22714:22716   */\n      0x20\n        /* \"#utility.yul\":22703:22712   */\n      dup3\n        /* \"#utility.yul\":22699:22717   */\n      add\n        /* \"#utility.yul\":22691:22717   */\n      swap1\n      pop\n        /* \"#utility.yul\":22763:22772   */\n      dup2\n        /* \"#utility.yul\":22757:22761   */\n      dup2\n        /* \"#utility.yul\":22753:22773   */\n      sub\n        /* \"#utility.yul\":22749:22750   */\n      0x00\n        /* \"#utility.yul\":22738:22747   */\n      dup4\n        /* \"#utility.yul\":22734:22751   */\n      add\n        /* \"#utility.yul\":22727:22774   */\n      mstore\n        /* \"#utility.yul\":22791:22929   */\n      tag_496\n        /* \"#utility.yul\":22924:22928   */\n      dup2\n        /* \"#utility.yul\":22915:22921   */\n      dup5\n        /* \"#utility.yul\":22791:22929   */\n      tag_440\n      jump\t// in\n    tag_496:\n        /* \"#utility.yul\":22783:22929   */\n      swap1\n      pop\n        /* \"#utility.yul\":22503:22936   */\n      swap3\n      swap2\n      pop\n      pop\n      jump\t// out\n        /* \"#utility.yul\":22942:23164   */\n    tag_25:\n        /* \"#utility.yul\":23035:23039   */\n      0x00\n        /* \"#utility.yul\":23073:23075   */\n      0x20\n        /* \"#utility.yul\":23062:23071   */\n      dup3\n        /* \"#utility.yul\":23058:23076   */\n      add\n        /* \"#utility.yul\":23050:23076   */\n      swap1\n      pop\n        /* \"#utility.yul\":23086:23157   */\n      tag_498\n        /* \"#utility.yul\":23154:23155   */\n      0x00\n        /* \"#utility.yul\":23143:23152   */\n      dup4\n        /* \"#utility.yul\":23139:23156   */\n      add\n        /* \"#utility.yul\":23130:23136   */\n      dup5\n        /* \"#utility.yul\":23086:23157   */\n      tag_452\n      jump\t// in\n    tag_498:\n        /* \"#utility.yul\":22942:23164   */\n      swap3\n      swap2\n      pop\n      pop\n      jump\t// out\n        /* \"#utility.yul\":23170:24143   */\n    tag_105:\n        /* \"#utility.yul\":23449:23453   */\n      0x00\n        /* \"#utility.yul\":23487:23490   */\n      0xe0\n        /* \"#utility.yul\":23476:23485   */\n      dup3\n        /* \"#utility.yul\":23472:23491   */\n      add\n        /* \"#utility.yul\":23464:23491   */\n      swap1\n      pop\n        /* \"#utility.yul\":23501:23572   */\n      tag_500\n        /* \"#utility.yul\":23569:23570   */\n      0x00\n        /* \"#utility.yul\":23558:23567   */\n      dup4\n        /* \"#utility.yul\":23554:23571   */\n      add\n        /* \"#utility.yul\":23545:23551   */\n      dup11\n        /* \"#utility.yul\":23501:23572   */\n      tag_452\n      jump\t// in\n    tag_500:\n        /* \"#utility.yul\":23582:23654   */\n      tag_501\n        /* \"#utility.yul\":23650:23652   */\n      0x20\n        /* \"#utility.yul\":23639:23648   */\n      dup4\n        /* \"#utility.yul\":23635:23653   */\n      add\n        /* \"#utility.yul\":23626:23632   */\n      dup10\n        /* \"#utility.yul\":23582:23654   */\n      tag_334\n      jump\t// in\n    tag_501:\n        /* \"#utility.yul\":23701:23710   */\n      dup2\n        /* \"#utility.yul\":23695:23699   */\n      dup2\n        /* \"#utility.yul\":23691:23711   */\n      sub\n        /* \"#utility.yul\":23686:23688   */\n      0x40\n        /* \"#utility.yul\":23675:23684   */\n      dup4\n        /* \"#utility.yul\":23671:23689   */\n      add\n        /* \"#utility.yul\":23664:23712   */\n      mstore\n        /* \"#utility.yul\":23729:23807   */\n      tag_502\n        /* \"#utility.yul\":23802:23806   */\n      dup2\n        /* \"#utility.yul\":23793:23799   */\n      dup9\n        /* \"#utility.yul\":23729:23807   */\n      tag_371\n      jump\t// in\n    tag_502:\n        /* \"#utility.yul\":23721:23807   */\n      swap1\n      pop\n        /* \"#utility.yul\":23817:23889   */\n      tag_503\n        /* \"#utility.yul\":23885:23887   */\n      0x60\n        /* \"#utility.yul\":23874:23883   */\n      dup4\n        /* \"#utility.yul\":23870:23888   */\n      add\n        /* \"#utility.yul\":23861:23867   */\n      dup8\n        /* \"#utility.yul\":23817:23889   */\n      tag_452\n      jump\t// in\n    tag_503:\n        /* \"#utility.yul\":23899:23972   */\n      tag_504\n        /* \"#utility.yul\":23967:23970   */\n      0x80\n        /* \"#utility.yul\":23956:23965   */\n      dup4\n        /* \"#utility.yul\":23952:23971   */\n      add\n        /* \"#utility.yul\":23943:23949   */\n      dup7\n        /* \"#utility.yul\":23899:23972   */\n      tag_452\n      jump\t// in\n    tag_504:\n        /* \"#utility.yul\":23982:24055   */\n      tag_505\n        /* \"#utility.yul\":24050:24053   */\n      0xa0\n        /* \"#utility.yul\":24039:24048   */\n      dup4\n        /* \"#utility.yul\":24035:24054   */\n      add\n        /* \"#utility.yul\":24026:24032   */\n      dup6\n        /* \"#utility.yul\":23982:24055   */\n      tag_452\n      jump\t// in\n    tag_505:\n        /* \"#utility.yul\":24065:24136   */\n      tag_506\n        /* \"#utility.yul\":24131:24134   */\n      0xc0\n        /* \"#utility.yul\":24120:24129   */\n      dup4\n        /* \"#utility.yul\":24116:24135   */\n      add\n        /* \"#utility.yul\":24107:24113   */\n      dup5\n        /* \"#utility.yul\":24065:24136   */\n      tag_353\n      jump\t// in\n    tag_506:\n        /* \"#utility.yul\":23170:24143   */\n      swap9\n      swap8\n      pop\n      pop\n      pop\n      pop\n      pop\n      pop\n      pop\n      pop\n      jump\t// out\n        /* \"#utility.yul\":24149:25122   */\n    tag_51:\n        /* \"#utility.yul\":24428:24432   */\n      0x00\n        /* \"#utility.yul\":24466:24469   */\n      0xe0\n        /* \"#utility.yul\":24455:24464   */\n      dup3\n        /* \"#utility.yul\":24451:24470   */\n      add\n        /* \"#utility.yul\":24443:24470   */\n      swap1\n      pop\n        /* \"#utility.yul\":24480:24551   */\n      tag_508\n        /* \"#utility.yul\":24548:24549   */\n      0x00\n        /* \"#utility.yul\":24537:24546   */\n      dup4\n        /* \"#utility.yul\":24533:24550   */\n      add\n        /* \"#utility.yul\":24524:24530   */\n      dup11\n        /* \"#utility.yul\":24480:24551   */\n      tag_452\n      jump\t// in\n    tag_508:\n        /* \"#utility.yul\":24561:24633   */\n      tag_509\n        /* \"#utility.yul\":24629:24631   */\n      0x20\n        /* \"#utility.yul\":24618:24627   */\n      dup4\n        /* \"#utility.yul\":24614:24632   */\n      add\n        /* \"#utility.yul\":24605:24611   */\n      dup10\n        /* \"#utility.yul\":24561:24633   */\n      tag_452\n      jump\t// in\n    tag_509:\n        /* \"#utility.yul\":24643:24715   */\n      tag_510\n        /* \"#utility.yul\":24711:24713   */\n      0x40\n        /* \"#utility.yul\":24700:24709   */\n      dup4\n        /* \"#utility.yul\":24696:24714   */\n      add\n        /* \"#utility.yul\":24687:24693   */\n      dup9\n        /* \"#utility.yul\":24643:24715   */\n      tag_334\n      jump\t// in\n    tag_510:\n        /* \"#utility.yul\":24762:24771   */\n      dup2\n        /* \"#utility.yul\":24756:24760   */\n      dup2\n        /* \"#utility.yul\":24752:24772   */\n      sub\n        /* \"#utility.yul\":24747:24749   */\n      0x60\n        /* \"#utility.yul\":24736:24745   */\n      dup4\n        /* \"#utility.yul\":24732:24750   */\n      add\n        /* \"#utility.yul\":24725:24773   */\n      mstore\n        /* \"#utility.yul\":24790:24868   */\n      tag_511\n        /* \"#utility.yul\":24863:24867   */\n      dup2\n        /* \"#utility.yul\":24854:24860   */\n      dup8\n        /* \"#utility.yul\":24790:24868   */\n      tag_371\n      jump\t// in\n    tag_511:\n        /* \"#utility.yul\":24782:24868   */\n      swap1\n      pop\n        /* \"#utility.yul\":24878:24951   */\n      tag_512\n        /* \"#utility.yul\":24946:24949   */\n      0x80\n        /* \"#utility.yul\":24935:24944   */\n      dup4\n        /* \"#utility.yul\":24931:24950   */\n      add\n        /* \"#utility.yul\":24922:24928   */\n      dup7\n        /* \"#utility.yul\":24878:24951   */\n      tag_452\n      jump\t// in\n    tag_512:\n        /* \"#utility.yul\":24961:25034   */\n      tag_513\n        /* \"#utility.yul\":25029:25032   */\n      0xa0\n        /* \"#utility.yul\":25018:25027   */\n      dup4\n        /* \"#utility.yul\":25014:25033   */\n      add\n        /* \"#utility.yul\":25005:25011   */\n      dup6\n        /* \"#utility.yul\":24961:25034   */\n      tag_452\n      jump\t// in\n    tag_513:\n        /* \"#utility.yul\":25044:25115   */\n      tag_514\n        /* \"#utility.yul\":25110:25113   */\n      0xc0\n        /* \"#utility.yul\":25099:25108   */\n      dup4\n        /* \"#utility.yul\":25095:25114   */\n      add\n        /* \"#utility.yul\":25086:25092   */\n      dup5\n        /* \"#utility.yul\":25044:25115   */\n      tag_353\n      jump\t// in\n    tag_514:\n        /* \"#utility.yul\":24149:25122   */\n      swap9\n      swap8\n      pop\n      pop\n      pop\n      pop\n      pop\n      pop\n      pop\n      pop\n      jump\t// out\n        /* \"#utility.yul\":25128:25792   */\n    tag_94:\n        /* \"#utility.yul\":25333:25337   */\n      0x00\n        /* \"#utility.yul\":25371:25374   */\n      0xa0\n        /* \"#utility.yul\":25360:25369   */\n      dup3\n        /* \"#utility.yul\":25356:25375   */\n      add\n        /* \"#utility.yul\":25348:25375   */\n      swap1\n      pop\n        /* \"#utility.yul\":25385:25456   */\n      tag_516\n        /* \"#utility.yul\":25453:25454   */\n      0x00\n        /* \"#utility.yul\":25442:25451   */\n      dup4\n        /* \"#utility.yul\":25438:25455   */\n      add\n        /* \"#utility.yul\":25429:25435   */\n      dup9\n        /* \"#utility.yul\":25385:25456   */\n      tag_452\n      jump\t// in\n    tag_516:\n        /* \"#utility.yul\":25466:25538   */\n      tag_517\n        /* \"#utility.yul\":25534:25536   */\n      0x20\n        /* \"#utility.yul\":25523:25532   */\n      dup4\n        /* \"#utility.yul\":25519:25537   */\n      add\n        /* \"#utility.yul\":25510:25516   */\n      dup8\n        /* \"#utility.yul\":25466:25538   */\n      tag_452\n      jump\t// in\n    tag_517:\n        /* \"#utility.yul\":25548:25620   */\n      tag_518\n        /* \"#utility.yul\":25616:25618   */\n      0x40\n        /* \"#utility.yul\":25605:25614   */\n      dup4\n        /* \"#utility.yul\":25601:25619   */\n      add\n        /* \"#utility.yul\":25592:25598   */\n      dup7\n        /* \"#utility.yul\":25548:25620   */\n      tag_334\n      jump\t// in\n    tag_518:\n        /* \"#utility.yul\":25630:25702   */\n      tag_519\n        /* \"#utility.yul\":25698:25700   */\n      0x60\n        /* \"#utility.yul\":25687:25696   */\n      dup4\n        /* \"#utility.yul\":25683:25701   */\n      add\n        /* \"#utility.yul\":25674:25680   */\n      dup6\n        /* \"#utility.yul\":25630:25702   */\n      tag_452\n      jump\t// in\n    tag_519:\n        /* \"#utility.yul\":25712:25785   */\n      tag_520\n        /* \"#utility.yul\":25780:25783   */\n      0x80\n        /* \"#utility.yul\":25769:25778   */\n      dup4\n        /* \"#utility.yul\":25765:25784   */\n      add\n        /* \"#utility.yul\":25756:25762   */\n      dup5\n        /* \"#utility.yul\":25712:25785   */\n      tag_452\n      jump\t// in\n    tag_520:\n        /* \"#utility.yul\":25128:25792   */\n      swap7\n      swap6\n      pop\n      pop\n      pop\n      pop\n      pop\n      pop\n      jump\t// out\n        /* \"#utility.yul\":25798:25927   */\n    tag_253:\n        /* \"#utility.yul\":25832:25838   */\n      0x00\n        /* \"#utility.yul\":25859:25879   */\n      tag_522\n      tag_523\n      jump\t// in\n    tag_522:\n        /* \"#utility.yul\":25849:25879   */\n      swap1\n      pop\n        /* \"#utility.yul\":25888:25921   */\n      tag_524\n        /* \"#utility.yul\":25916:25920   */\n      dup3\n        /* \"#utility.yul\":25908:25914   */\n      dup3\n        /* \"#utility.yul\":25888:25921   */\n      tag_525\n      jump\t// in\n    tag_524:\n        /* \"#utility.yul\":25798:25927   */\n      swap2\n      swap1\n      pop\n      jump\t// out\n        /* \"#utility.yul\":25933:26008   */\n    tag_523:\n        /* \"#utility.yul\":25966:25972   */\n      0x00\n        /* \"#utility.yul\":25999:26001   */\n      0x40\n        /* \"#utility.yul\":25993:26002   */\n      mload\n        /* \"#utility.yul\":25983:26002   */\n      swap1\n      pop\n        /* \"#utility.yul\":25933:26008   */\n      swap1\n      jump\t// out\n        /* \"#utility.yul\":26014:26322   */\n    tag_252:\n        /* \"#utility.yul\":26076:26080   */\n      0x00\n        /* \"#utility.yul\":26166:26184   */\n      0xffffffffffffffff\n        /* \"#utility.yul\":26158:26164   */\n      dup3\n        /* \"#utility.yul\":26155:26185   */\n      gt\n        /* \"#utility.yul\":26152:26208   */\n      iszero\n      tag_528\n      jumpi\n        /* \"#utility.yul\":26188:26206   */\n      tag_529\n      tag_530\n      jump\t// in\n    tag_529:\n        /* \"#utility.yul\":26152:26208   */\n    tag_528:\n        /* \"#utility.yul\":26226:26255   */\n      tag_531\n        /* \"#utility.yul\":26248:26254   */\n      dup3\n        /* \"#utility.yul\":26226:26255   */\n      tag_370\n      jump\t// in\n    tag_531:\n        /* \"#utility.yul\":26218:26255   */\n      swap1\n      pop\n        /* \"#utility.yul\":26310:26314   */\n      0x20\n        /* \"#utility.yul\":26304:26308   */\n      dup2\n        /* \"#utility.yul\":26300:26315   */\n      add\n        /* \"#utility.yul\":26292:26315   */\n      swap1\n      pop\n        /* \"#utility.yul\":26014:26322   */\n      swap2\n      swap1\n      pop\n      jump\t// out\n        /* \"#utility.yul\":26328:26427   */\n    tag_364:\n        /* \"#utility.yul\":26380:26386   */\n      0x00\n        /* \"#utility.yul\":26414:26419   */\n      dup2\n        /* \"#utility.yul\":26408:26420   */\n      mload\n        /* \"#utility.yul\":26398:26420   */\n      swap1\n      pop\n        /* \"#utility.yul\":26328:26427   */\n      swap2\n      swap1\n      pop\n      jump\t// out\n        /* \"#utility.yul\":26433:26592   */\n    tag_366:\n        /* \"#utility.yul\":26507:26518   */\n      0x00\n        /* \"#utility.yul\":26541:26547   */\n      dup3\n        /* \"#utility.yul\":26536:26539   */\n      dup3\n        /* \"#utility.yul\":26529:26548   */\n      mstore\n        /* \"#utility.yul\":26581:26585   */\n      0x20\n        /* \"#utility.yul\":26576:26579   */\n      dup3\n        /* \"#utility.yul\":26572:26586   */\n      add\n        /* \"#utility.yul\":26557:26586   */\n      swap1\n      pop\n        /* \"#utility.yul\":26433:26592   */\n      swap3\n      swap2\n      pop\n      pop\n      jump\t// out\n        /* \"#utility.yul\":26598:26767   */\n    tag_375:\n        /* \"#utility.yul\":26682:26693   */\n      0x00\n        /* \"#utility.yul\":26716:26722   */\n      dup3\n        /* \"#utility.yul\":26711:26714   */\n      dup3\n        /* \"#utility.yul\":26704:26723   */\n      mstore\n        /* \"#utility.yul\":26756:26760   */\n      0x20\n        /* \"#utility.yul\":26751:26754   */\n      dup3\n        /* \"#utility.yul\":26747:26761   */\n      add\n        /* \"#utility.yul\":26732:26761   */\n      swap1\n      pop\n        /* \"#utility.yul\":26598:26767   */\n      swap3\n      swap2\n      pop\n      pop\n      jump\t// out\n        /* \"#utility.yul\":26773:26921   */\n    tag_359:\n        /* \"#utility.yul\":26875:26886   */\n      0x00\n        /* \"#utility.yul\":26912:26915   */\n      dup2\n        /* \"#utility.yul\":26897:26915   */\n      swap1\n      pop\n        /* \"#utility.yul\":26773:26921   */\n      swap3\n      swap2\n      pop\n      pop\n      jump\t// out\n        /* \"#utility.yul\":26927:27232   */\n    tag_146:\n        /* \"#utility.yul\":26967:26970   */\n      0x00\n        /* \"#utility.yul\":26986:27006   */\n      tag_537\n        /* \"#utility.yul\":27004:27005   */\n      dup3\n        /* \"#utility.yul\":26986:27006   */\n      tag_451\n      jump\t// in\n    tag_537:\n        /* \"#utility.yul\":26981:27006   */\n      swap2\n      pop\n        /* \"#utility.yul\":27020:27040   */\n      tag_538\n        /* \"#utility.yul\":27038:27039   */\n      dup4\n        /* \"#utility.yul\":27020:27040   */\n      tag_451\n      jump\t// in\n    tag_538:\n        /* \"#utility.yul\":27015:27040   */\n      swap3\n      pop\n        /* \"#utility.yul\":27174:27175   */\n      dup3\n        /* \"#utility.yul\":27106:27172   */\n      0xffffffffffffffffffffffffffffffffffffffffffffffffffffffffffffffff\n        /* \"#utility.yul\":27102:27176   */\n      sub\n        /* \"#utility.yul\":27099:27100   */\n      dup3\n        /* \"#utility.yul\":27096:27177   */\n      gt\n        /* \"#utility.yul\":27093:27200   */\n      iszero\n      tag_539\n      jumpi\n        /* \"#utility.yul\":27180:27198   */\n      tag_540\n      tag_541\n      jump\t// in\n    tag_540:\n        /* \"#utility.yul\":27093:27200   */\n    tag_539:\n        /* \"#utility.yul\":27224:27225   */\n      dup3\n        /* \"#utility.yul\":27221:27222   */\n      dup3\n        /* \"#utility.yul\":27217:27226   */\n      add\n        /* \"#utility.yul\":27210:27226   */\n      swap1\n      pop\n        /* \"#utility.yul\":26927:27232   */\n      swap3\n      swap2\n      pop\n      pop\n      jump\t// out\n        /* \"#utility.yul\":27238:27423   */\n    tag_149:\n        /* \"#utility.yul\":27278:27279   */\n      0x00\n        /* \"#utility.yul\":27295:27315   */\n      tag_543\n        /* \"#utility.yul\":27313:27314   */\n      dup3\n        /* \"#utility.yul\":27295:27315   */\n      tag_451\n      jump\t// in\n    tag_543:\n        /* \"#utility.yul\":27290:27315   */\n      swap2\n      pop\n        /* \"#utility.yul\":27329:27349   */\n      tag_544\n        /* \"#utility.yul\":27347:27348   */\n      dup4\n        /* \"#utility.yul\":27329:27349   */\n      tag_451\n      jump\t// in\n    tag_544:\n        /* \"#utility.yul\":27324:27349   */\n      swap3\n      pop\n        /* \"#utility.yul\":27368:27369   */\n      dup3\n        /* \"#utility.yul\":27358:27393   */\n      tag_545\n      jumpi\n        /* \"#utility.yul\":27373:27391   */\n      tag_546\n      tag_547\n      jump\t// in\n    tag_546:\n        /* \"#utility.yul\":27358:27393   */\n    tag_545:\n        /* \"#utility.yul\":27415:27416   */\n      dup3\n        /* \"#utility.yul\":27412:27413   */\n      dup3\n        /* \"#utility.yul\":27408:27417   */\n      div\n        /* \"#utility.yul\":27403:27417   */\n      swap1\n      pop\n        /* \"#utility.yul\":27238:27423   */\n      swap3\n      swap2\n      pop\n      pop\n      jump\t// out\n        /* \"#utility.yul\":27429:27777   */\n    tag_155:\n        /* \"#utility.yul\":27469:27476   */\n      0x00\n        /* \"#utility.yul\":27492:27512   */\n      tag_549\n        /* \"#utility.yul\":27510:27511   */\n      dup3\n        /* \"#utility.yul\":27492:27512   */\n      tag_451\n      jump\t// in\n    tag_549:\n        /* \"#utility.yul\":27487:27512   */\n      swap2\n      pop\n        /* \"#utility.yul\":27526:27546   */\n      tag_550\n        /* \"#utility.yul\":27544:27545   */\n      dup4\n        /* \"#utility.yul\":27526:27546   */\n      tag_451\n      jump\t// in\n    tag_550:\n        /* \"#utility.yul\":27521:27546   */\n      swap3\n      pop\n        /* \"#utility.yul\":27714:27715   */\n      dup2\n        /* \"#utility.yul\":27646:27712   */\n      0xffffffffffffffffffffffffffffffffffffffffffffffffffffffffffffffff\n        /* \"#utility.yul\":27642:27716   */\n      div\n        /* \"#utility.yul\":27639:27640   */\n      dup4\n        /* \"#utility.yul\":27636:27717   */\n      gt\n        /* \"#utility.yul\":27631:27632   */\n      dup3\n        /* \"#utility.yul\":27624:27633   */\n      iszero\n        /* \"#utility.yul\":27617:27634   */\n      iszero\n        /* \"#utility.yul\":27613:27718   */\n      and\n        /* \"#utility.yul\":27610:27741   */\n      iszero\n      tag_551\n      jumpi\n        /* \"#utility.yul\":27721:27739   */\n      tag_552\n      tag_541\n      jump\t// in\n    tag_552:\n        /* \"#utility.yul\":27610:27741   */\n    tag_551:\n        /* \"#utility.yul\":27769:27770   */\n      dup3\n        /* \"#utility.yul\":27766:27767   */\n      dup3\n        /* \"#utility.yul\":27762:27771   */\n      mul\n        /* \"#utility.yul\":27751:27771   */\n      swap1\n      pop\n        /* \"#utility.yul\":27429:27777   */\n      swap3\n      swap2\n      pop\n      pop\n      jump\t// out\n        /* \"#utility.yul\":27783:27974   */\n    tag_143:\n        /* \"#utility.yul\":27823:27827   */\n      0x00\n        /* \"#utility.yul\":27843:27863   */\n      tag_554\n        /* \"#utility.yul\":27861:27862   */\n      dup3\n        /* \"#utility.yul\":27843:27863   */\n      tag_451\n      jump\t// in\n    tag_554:\n        /* \"#utility.yul\":27838:27863   */\n      swap2\n      pop\n        /* \"#utility.yul\":27877:27897   */\n      tag_555\n        /* \"#utility.yul\":27895:27896   */\n      dup4\n        /* \"#utility.yul\":27877:27897   */\n      tag_451\n      jump\t// in\n    tag_555:\n        /* \"#utility.yul\":27872:27897   */\n      swap3\n      pop\n        /* \"#utility.yul\":27916:27917   */\n      dup3\n        /* \"#utility.yul\":27913:27914   */\n      dup3\n        /* \"#utility.yul\":27910:27918   */\n      lt\n        /* \"#utility.yul\":27907:27941   */\n      iszero\n      tag_556\n      jumpi\n        /* \"#utility.yul\":27921:27939   */\n      tag_557\n      tag_541\n      jump\t// in\n    tag_557:\n        /* \"#utility.yul\":27907:27941   */\n    tag_556:\n        /* \"#utility.yul\":27966:27967   */\n      dup3\n        /* \"#utility.yul\":27963:27964   */\n      dup3\n        /* \"#utility.yul\":27959:27968   */\n      sub\n        /* \"#utility.yul\":27951:27968   */\n      swap1\n      pop\n        /* \"#utility.yul\":27783:27974   */\n      swap3\n      swap2\n      pop\n      pop\n      jump\t// out\n        /* \"#utility.yul\":27980:28076   */\n    tag_333:\n        /* \"#utility.yul\":28017:28024   */\n      0x00\n        /* \"#utility.yul\":28046:28070   */\n      tag_559\n        /* \"#utility.yul\":28064:28069   */\n      dup3\n        /* \"#utility.yul\":28046:28070   */\n      tag_560\n      jump\t// in\n    tag_559:\n        /* \"#utility.yul\":28035:28070   */\n      swap1\n      pop\n        /* \"#utility.yul\":27980:28076   */\n      swap2\n      swap1\n      pop\n      jump\t// out\n        /* \"#utility.yul\":28082:28172   */\n    tag_340:\n        /* \"#utility.yul\":28116:28123   */\n      0x00\n        /* \"#utility.yul\":28159:28164   */\n      dup2\n        /* \"#utility.yul\":28152:28165   */\n      iszero\n        /* \"#utility.yul\":28145:28166   */\n      iszero\n        /* \"#utility.yul\":28134:28166   */\n      swap1\n      pop\n        /* \"#utility.yul\":28082:28172   */\n      swap2\n      swap1\n      pop\n      jump\t// out\n        /* \"#utility.yul\":28178:28254   */\n    tag_352:\n        /* \"#utility.yul\":28214:28221   */\n      0x00\n        /* \"#utility.yul\":28243:28248   */\n      dup2\n        /* \"#utility.yul\":28232:28248   */\n      swap1\n      pop\n        /* \"#utility.yul\":28178:28254   */\n      swap2\n      swap1\n      pop\n      jump\t// out\n        /* \"#utility.yul\":28260:28386   */\n    tag_560:\n        /* \"#utility.yul\":28297:28304   */\n      0x00\n        /* \"#utility.yul\":28337:28379   */\n      0xffffffffffffffffffffffffffffffffffffffff\n        /* \"#utility.yul\":28330:28335   */\n      dup3\n        /* \"#utility.yul\":28326:28380   */\n      and\n        /* \"#utility.yul\":28315:28380   */\n      swap1\n      pop\n        /* \"#utility.yul\":28260:28386   */\n      swap2\n      swap1\n      pop\n      jump\t// out\n        /* \"#utility.yul\":28392:28469   */\n    tag_451:\n        /* \"#utility.yul\":28429:28436   */\n      0x00\n        /* \"#utility.yul\":28458:28463   */\n      dup2\n        /* \"#utility.yul\":28447:28463   */\n      swap1\n      pop\n        /* \"#utility.yul\":28392:28469   */\n      swap2\n      swap1\n      pop\n      jump\t// out\n        /* \"#utility.yul\":28475:28619   */\n    tag_344:\n        /* \"#utility.yul\":28543:28552   */\n      0x00\n        /* \"#utility.yul\":28576:28613   */\n      tag_566\n        /* \"#utility.yul\":28607:28612   */\n      dup3\n        /* \"#utility.yul\":28576:28613   */\n      tag_567\n      jump\t// in\n    tag_566:\n        /* \"#utility.yul\":28563:28613   */\n      swap1\n      pop\n        /* \"#utility.yul\":28475:28619   */\n      swap2\n      swap1\n      pop\n      jump\t// out\n        /* \"#utility.yul\":28625:28771   */\n    tag_348:\n        /* \"#utility.yul\":28695:28704   */\n      0x00\n        /* \"#utility.yul\":28728:28765   */\n      tag_569\n        /* \"#utility.yul\":28759:28764   */\n      dup3\n        /* \"#utility.yul\":28728:28765   */\n      tag_567\n      jump\t// in\n    tag_569:\n        /* \"#utility.yul\":28715:28765   */\n      swap1\n      pop\n        /* \"#utility.yul\":28625:28771   */\n      swap2\n      swap1\n      pop\n      jump\t// out\n        /* \"#utility.yul\":28777:28903   */\n    tag_567:\n        /* \"#utility.yul\":28827:28836   */\n      0x00\n        /* \"#utility.yul\":28860:28897   */\n      tag_571\n        /* \"#utility.yul\":28891:28896   */\n      dup3\n        /* \"#utility.yul\":28860:28897   */\n      tag_572\n      jump\t// in\n    tag_571:\n        /* \"#utility.yul\":28847:28897   */\n      swap1\n      pop\n        /* \"#utility.yul\":28777:28903   */\n      swap2\n      swap1\n      pop\n      jump\t// out\n        /* \"#utility.yul\":28909:29022   */\n    tag_572:\n        /* \"#utility.yul\":28959:28968   */\n      0x00\n        /* \"#utility.yul\":28992:29016   */\n      tag_574\n        /* \"#utility.yul\":29010:29015   */\n      dup3\n        /* \"#utility.yul\":28992:29016   */\n      tag_560\n      jump\t// in\n    tag_574:\n        /* \"#utility.yul\":28979:29016   */\n      swap1\n      pop\n        /* \"#utility.yul\":28909:29022   */\n      swap2\n      swap1\n      pop\n      jump\t// out\n        /* \"#utility.yul\":29028:29182   */\n    tag_258:\n        /* \"#utility.yul\":29112:29118   */\n      dup3\n        /* \"#utility.yul\":29107:29110   */\n      dup2\n        /* \"#utility.yul\":29102:29105   */\n      dup4\n        /* \"#utility.yul\":29089:29119   */\n      calldatacopy\n        /* \"#utility.yul\":29174:29175   */\n      0x00\n        /* \"#utility.yul\":29165:29171   */\n      dup4\n        /* \"#utility.yul\":29160:29163   */\n      dup4\n        /* \"#utility.yul\":29156:29172   */\n      add\n        /* \"#utility.yul\":29149:29176   */\n      mstore\n        /* \"#utility.yul\":29028:29182   */\n      pop\n      pop\n      pop\n      jump\t// out\n        /* \"#utility.yul\":29188:29495   */\n    tag_368:\n        /* \"#utility.yul\":29256:29257   */\n      0x00\n        /* \"#utility.yul\":29266:29379   */\n    tag_577:\n        /* \"#utility.yul\":29280:29286   */\n      dup4\n        /* \"#utility.yul\":29277:29278   */\n      dup2\n        /* \"#utility.yul\":29274:29287   */\n      lt\n        /* \"#utility.yul\":29266:29379   */\n      iszero\n      tag_579\n      jumpi\n        /* \"#utility.yul\":29365:29366   */\n      dup1\n        /* \"#utility.yul\":29360:29363   */\n      dup3\n        /* \"#utility.yul\":29356:29367   */\n      add\n        /* \"#utility.yul\":29350:29368   */\n      mload\n        /* \"#utility.yul\":29346:29347   */\n      dup2\n        /* \"#utility.yul\":29341:29344   */\n      dup5\n        /* \"#utility.yul\":29337:29348   */\n      add\n        /* \"#utility.yul\":29330:29369   */\n      mstore\n        /* \"#utility.yul\":29302:29304   */\n      0x20\n        /* \"#utility.yul\":29299:29300   */\n      dup2\n        /* \"#utility.yul\":29295:29305   */\n      add\n        /* \"#utility.yul\":29290:29305   */\n      swap1\n      pop\n        /* \"#utility.yul\":29266:29379   */\n      jump(tag_577)\n    tag_579:\n        /* \"#utility.yul\":29397:29403   */\n      dup4\n        /* \"#utility.yul\":29394:29395   */\n      dup2\n        /* \"#utility.yul\":29391:29404   */\n      gt\n        /* \"#utility.yul\":29388:29489   */\n      iszero\n      tag_580\n      jumpi\n        /* \"#utility.yul\":29477:29478   */\n      0x00\n        /* \"#utility.yul\":29468:29474   */\n      dup5\n        /* \"#utility.yul\":29463:29466   */\n      dup5\n        /* \"#utility.yul\":29459:29475   */\n      add\n        /* \"#utility.yul\":29452:29479   */\n      mstore\n        /* \"#utility.yul\":29388:29489   */\n    tag_580:\n        /* \"#utility.yul\":29237:29495   */\n      pop\n        /* \"#utility.yul\":29188:29495   */\n      pop\n      pop\n      pop\n      jump\t// out\n        /* \"#utility.yul\":29501:29821   */\n    tag_135:\n        /* \"#utility.yul\":29545:29551   */\n      0x00\n        /* \"#utility.yul\":29582:29583   */\n      0x02\n        /* \"#utility.yul\":29576:29580   */\n      dup3\n        /* \"#utility.yul\":29572:29584   */\n      div\n        /* \"#utility.yul\":29562:29584   */\n      swap1\n      pop\n        /* \"#utility.yul\":29629:29630   */\n      0x01\n        /* \"#utility.yul\":29623:29627   */\n      dup3\n        /* \"#utility.yul\":29619:29631   */\n      and\n        /* \"#utility.yul\":29650:29668   */\n      dup1\n        /* \"#utility.yul\":29640:29721   */\n      tag_582\n      jumpi\n        /* \"#utility.yul\":29706:29710   */\n      0x7f\n        /* \"#utility.yul\":29698:29704   */\n      dup3\n        /* \"#utility.yul\":29694:29711   */\n      and\n        /* \"#utility.yul\":29684:29711   */\n      swap2\n      pop\n        /* \"#utility.yul\":29640:29721   */\n    tag_582:\n        /* \"#utility.yul\":29768:29770   */\n      0x20\n        /* \"#utility.yul\":29760:29766   */\n      dup3\n        /* \"#utility.yul\":29757:29771   */\n      lt\n        /* \"#utility.yul\":29737:29755   */\n      dup2\n        /* \"#utility.yul\":29734:29772   */\n      eq\n        /* \"#utility.yul\":29731:29815   */\n      iszero\n      tag_583\n      jumpi\n        /* \"#utility.yul\":29787:29805   */\n      tag_584\n      tag_585\n      jump\t// in\n    tag_584:\n        /* \"#utility.yul\":29731:29815   */\n    tag_583:\n        /* \"#utility.yul\":29552:29821   */\n      pop\n        /* \"#utility.yul\":29501:29821   */\n      swap2\n      swap1\n      pop\n      jump\t// out\n        /* \"#utility.yul\":29827:30108   */\n    tag_525:\n        /* \"#utility.yul\":29910:29937   */\n      tag_587\n        /* \"#utility.yul\":29932:29936   */\n      dup3\n        /* \"#utility.yul\":29910:29937   */\n      tag_370\n      jump\t// in\n    tag_587:\n        /* \"#utility.yul\":29902:29908   */\n      dup2\n        /* \"#utility.yul\":29898:29938   */\n      add\n        /* \"#utility.yul\":30040:30046   */\n      dup2\n        /* \"#utility.yul\":30028:30038   */\n      dup2\n        /* \"#utility.yul\":30025:30047   */\n      lt\n        /* \"#utility.yul\":30004:30022   */\n      0xffffffffffffffff\n        /* \"#utility.yul\":29992:30002   */\n      dup3\n        /* \"#utility.yul\":29989:30023   */\n      gt\n        /* \"#utility.yul\":29986:30048   */\n      or\n        /* \"#utility.yul\":29983:30071   */\n      iszero\n      tag_588\n      jumpi\n        /* \"#utility.yul\":30051:30069   */\n      tag_589\n      tag_530\n      jump\t// in\n    tag_589:\n        /* \"#utility.yul\":29983:30071   */\n    tag_588:\n        /* \"#utility.yul\":30091:30101   */\n      dup1\n        /* \"#utility.yul\":30087:30089   */\n      0x40\n        /* \"#utility.yul\":30080:30102   */\n      mstore\n        /* \"#utility.yul\":29870:30108   */\n      pop\n        /* \"#utility.yul\":29827:30108   */\n      pop\n      pop\n      jump\t// out\n        /* \"#utility.yul\":30114:30294   */\n    tag_541:\n        /* \"#utility.yul\":30162:30239   */\n      0x4e487b7100000000000000000000000000000000000000000000000000000000\n        /* \"#utility.yul\":30159:30160   */\n      0x00\n        /* \"#utility.yul\":30152:30240   */\n      mstore\n        /* \"#utility.yul\":30259:30263   */\n      0x11\n        /* \"#utility.yul\":30256:30257   */\n      0x04\n        /* \"#utility.yul\":30249:30264   */\n      mstore\n        /* \"#utility.yul\":30283:30287   */\n      0x24\n        /* \"#utility.yul\":30280:30281   */\n      0x00\n        /* \"#utility.yul\":30273:30288   */\n      revert\n        /* \"#utility.yul\":30300:30480   */\n    tag_547:\n        /* \"#utility.yul\":30348:30425   */\n      0x4e487b7100000000000000000000000000000000000000000000000000000000\n        /* \"#utility.yul\":30345:30346   */\n      0x00\n        /* \"#utility.yul\":30338:30426   */\n      mstore\n        /* \"#utility.yul\":30445:30449   */\n      0x12\n        /* \"#utility.yul\":30442:30443   */\n      0x04\n        /* \"#utility.yul\":30435:30450   */\n      mstore\n        /* \"#utility.yul\":30469:30473   */\n      0x24\n        /* \"#utility.yul\":30466:30467   */\n      0x00\n        /* \"#utility.yul\":30459:30474   */\n      revert\n        /* \"#utility.yul\":30486:30666   */\n    tag_585:\n        /* \"#utility.yul\":30534:30611   */\n      0x4e487b7100000000000000000000000000000000000000000000000000000000\n        /* \"#utility.yul\":30531:30532   */\n      0x00\n        /* \"#utility.yul\":30524:30612   */\n      mstore\n        /* \"#utility.yul\":30631:30635   */\n      0x22\n        /* \"#utility.yul\":30628:30629   */\n      0x04\n        /* \"#utility.yul\":30621:30636   */\n      mstore\n        /* \"#utility.yul\":30655:30659   */\n      0x24\n        /* \"#utility.yul\":30652:30653   */\n      0x00\n        /* \"#utility.yul\":30645:30660   */\n      revert\n        /* \"#utility.yul\":30672:30852   */\n    tag_530:\n        /* \"#utility.yul\":30720:30797   */\n      0x4e487b7100000000000000000000000000000000000000000000000000000000\n        /* \"#utility.yul\":30717:30718   */\n      0x00\n        /* \"#utility.yul\":30710:30798   */\n      mstore\n        /* \"#utility.yul\":30817:30821   */\n      0x41\n        /* \"#utility.yul\":30814:30815   */\n      0x04\n        /* \"#utility.yul\":30807:30822   */\n      mstore\n        /* \"#utility.yul\":30841:30845   */\n      0x24\n        /* \"#utility.yul\":30838:30839   */\n      0x00\n        /* \"#utility.yul\":30831:30846   */\n      revert\n        /* \"#utility.yul\":30858:30975   */\n    tag_274:\n        /* \"#utility.yul\":30967:30968   */\n      0x00\n        /* \"#utility.yul\":30964:30965   */\n      dup1\n        /* \"#utility.yul\":30957:30969   */\n      revert\n        /* \"#utility.yul\":30981:31098   */\n    tag_271:\n        /* \"#utility.yul\":31090:31091   */\n      0x00\n        /* \"#utility.yul\":31087:31088   */\n      dup1\n        /* \"#utility.yul\":31080:31092   */\n      revert\n        /* \"#utility.yul\":31104:31221   */\n    tag_277:\n        /* \"#utility.yul\":31213:31214   */\n      0x00\n        /* \"#utility.yul\":31210:31211   */\n      dup1\n        /* \"#utility.yul\":31203:31215   */\n      revert\n        /* \"#utility.yul\":31227:31344   */\n    tag_256:\n        /* \"#utility.yul\":31336:31337   */\n      0x00\n        /* \"#utility.yul\":31333:31334   */\n      dup1\n        /* \"#utility.yul\":31326:31338   */\n      revert\n        /* \"#utility.yul\":31350:31467   */\n    tag_294:\n        /* \"#utility.yul\":31459:31460   */\n      0x00\n        /* \"#utility.yul\":31456:31457   */\n      dup1\n        /* \"#utility.yul\":31449:31461   */\n      revert\n        /* \"#utility.yul\":31473:31590   */\n    tag_290:\n        /* \"#utility.yul\":31582:31583   */\n      0x00\n        /* \"#utility.yul\":31579:31580   */\n      dup1\n        /* \"#utility.yul\":31572:31584   */\n      revert\n        /* \"#utility.yul\":31596:31698   */\n    tag_370:\n        /* \"#utility.yul\":31637:31643   */\n      0x00\n        /* \"#utility.yul\":31688:31690   */\n      0x1f\n        /* \"#utility.yul\":31684:31691   */\n      not\n        /* \"#utility.yul\":31679:31681   */\n      0x1f\n        /* \"#utility.yul\":31672:31677   */\n      dup4\n        /* \"#utility.yul\":31668:31682   */\n      add\n        /* \"#utility.yul\":31664:31692   */\n      and\n        /* \"#utility.yul\":31654:31692   */\n      swap1\n      pop\n        /* \"#utility.yul\":31596:31698   */\n      swap2\n      swap1\n      pop\n      jump\t// out\n        /* \"#utility.yul\":31704:31944   */\n    tag_387:\n        /* \"#utility.yul\":31844:31878   */\n      0x5468652072657475726e206f6620746869732072657475726e49642068617320\n        /* \"#utility.yul\":31840:31841   */\n      0x00\n        /* \"#utility.yul\":31832:31838   */\n      dup3\n        /* \"#utility.yul\":31828:31842   */\n      add\n        /* \"#utility.yul\":31821:31879   */\n      mstore\n        /* \"#utility.yul\":31913:31936   */\n      0x6265656e20616c72656164792061756469746564210000000000000000000000\n        /* \"#utility.yul\":31908:31910   */\n      0x20\n        /* \"#utility.yul\":31900:31906   */\n      dup3\n        /* \"#utility.yul\":31896:31911   */\n      add\n        /* \"#utility.yul\":31889:31937   */\n      mstore\n        /* \"#utility.yul\":31704:31944   */\n      pop\n      jump\t// out\n        /* \"#utility.yul\":31950:32171   */\n    tag_392:\n        /* \"#utility.yul\":32090:32124   */\n      0x4e6f207468697320747970652773206361727320617661696c61626c65206e6f\n        /* \"#utility.yul\":32086:32087   */\n      0x00\n        /* \"#utility.yul\":32078:32084   */\n      dup3\n        /* \"#utility.yul\":32074:32088   */\n      add\n        /* \"#utility.yul\":32067:32125   */\n      mstore\n        /* \"#utility.yul\":32159:32163   */\n      0x7721000000000000000000000000000000000000000000000000000000000000\n        /* \"#utility.yul\":32154:32156   */\n      0x20\n        /* \"#utility.yul\":32146:32152   */\n      dup3\n        /* \"#utility.yul\":32142:32157   */\n      add\n        /* \"#utility.yul\":32135:32164   */\n      mstore\n        /* \"#utility.yul\":31950:32171   */\n      pop\n      jump\t// out\n        /* \"#utility.yul\":32177:32340   */\n    tag_397:\n        /* \"#utility.yul\":32317:32332   */\n      0x426f72726f776572204f6e6c7900000000000000000000000000000000000000\n        /* \"#utility.yul\":32313:32314   */\n      0x00\n        /* \"#utility.yul\":32305:32311   */\n      dup3\n        /* \"#utility.yul\":32301:32315   */\n      add\n        /* \"#utility.yul\":32294:32333   */\n      mstore\n        /* \"#utility.yul\":32177:32340   */\n      pop\n      jump\t// out\n        /* \"#utility.yul\":32346:32583   */\n    tag_402:\n        /* \"#utility.yul\":32486:32520   */\n      0x5468652072656e74206f6620746869732072656e74496420686173206265656e\n        /* \"#utility.yul\":32482:32483   */\n      0x00\n        /* \"#utility.yul\":32474:32480   */\n      dup3\n        /* \"#utility.yul\":32470:32484   */\n      add\n        /* \"#utility.yul\":32463:32521   */\n      mstore\n        /* \"#utility.yul\":32555:32575   */\n      0x20616c72656164792072657475726e6564210000000000000000000000000000\n        /* \"#utility.yul\":32550:32552   */\n      0x20\n        /* \"#utility.yul\":32542:32548   */\n      dup3\n        /* \"#utility.yul\":32538:32553   */\n      add\n        /* \"#utility.yul\":32531:32576   */\n      mstore\n        /* \"#utility.yul\":32346:32583   */\n      pop\n      jump\t// out\n        /* \"#utility.yul\":32589:32765   */\n    tag_407:\n        /* \"#utility.yul\":32729:32757   */\n      0x496e7075742072656e745265636f7264496420496e7661696421000000000000\n        /* \"#utility.yul\":32725:32726   */\n      0x00\n        /* \"#utility.yul\":32717:32723   */\n      dup3\n        /* \"#utility.yul\":32713:32727   */\n      add\n        /* \"#utility.yul\":32706:32758   */\n      mstore\n        /* \"#utility.yul\":32589:32765   */\n      pop\n      jump\t// out\n        /* \"#utility.yul\":32771:32949   */\n    tag_412:\n        /* \"#utility.yul\":32911:32941   */\n      0x496e7075742072657475726e5265636f7264496420496e766169642100000000\n        /* \"#utility.yul\":32907:32908   */\n      0x00\n        /* \"#utility.yul\":32899:32905   */\n      dup3\n        /* \"#utility.yul\":32895:32909   */\n      add\n        /* \"#utility.yul\":32888:32942   */\n      mstore\n        /* \"#utility.yul\":32771:32949   */\n      pop\n      jump\t// out\n        /* \"#utility.yul\":32955:33137   */\n    tag_417:\n        /* \"#utility.yul\":33095:33129   */\n      0x4f6e6c79204142432063616e2063616c6c20746869732066756e6374696f6e21\n        /* \"#utility.yul\":33091:33092   */\n      0x00\n        /* \"#utility.yul\":33083:33089   */\n      dup3\n        /* \"#utility.yul\":33079:33093   */\n      add\n        /* \"#utility.yul\":33072:33130   */\n      mstore\n        /* \"#utility.yul\":32955:33137   */\n      pop\n      jump\t// out\n        /* \"#utility.yul\":33143:33369   */\n    tag_422:\n        /* \"#utility.yul\":33283:33317   */\n      0x54686520637573746f6d65722773206164647265737320646f65736e2774206d\n        /* \"#utility.yul\":33279:33280   */\n      0x00\n        /* \"#utility.yul\":33271:33277   */\n      dup3\n        /* \"#utility.yul\":33267:33281   */\n      add\n        /* \"#utility.yul\":33260:33318   */\n      mstore\n        /* \"#utility.yul\":33352:33361   */\n      0x6174636865642100000000000000000000000000000000000000000000000000\n        /* \"#utility.yul\":33347:33349   */\n      0x20\n        /* \"#utility.yul\":33339:33345   */\n      dup3\n        /* \"#utility.yul\":33335:33350   */\n      add\n        /* \"#utility.yul\":33328:33362   */\n      mstore\n        /* \"#utility.yul\":33143:33369   */\n      pop\n      jump\t// out\n        /* \"#utility.yul\":33375:33497   */\n    tag_262:\n        /* \"#utility.yul\":33448:33472   */\n      tag_610\n        /* \"#utility.yul\":33466:33471   */\n      dup2\n        /* \"#utility.yul\":33448:33472   */\n      tag_333\n      jump\t// in\n    tag_610:\n        /* \"#utility.yul\":33441:33446   */\n      dup2\n        /* \"#utility.yul\":33438:33473   */\n      eq\n        /* \"#utility.yul\":33428:33491   */\n      tag_611\n      jumpi\n        /* \"#utility.yul\":33487:33488   */\n      0x00\n        /* \"#utility.yul\":33484:33485   */\n      dup1\n        /* \"#utility.yul\":33477:33489   */\n      revert\n        /* \"#utility.yul\":33428:33491   */\n    tag_611:\n        /* \"#utility.yul\":33375:33497   */\n      pop\n      jump\t// out\n        /* \"#utility.yul\":33503:33619   */\n    tag_266:\n        /* \"#utility.yul\":33573:33594   */\n      tag_613\n        /* \"#utility.yul\":33588:33593   */\n      dup2\n        /* \"#utility.yul\":33573:33594   */\n      tag_340\n      jump\t// in\n    tag_613:\n        /* \"#utility.yul\":33566:33571   */\n      dup2\n        /* \"#utility.yul\":33563:33595   */\n      eq\n        /* \"#utility.yul\":33553:33613   */\n      tag_614\n      jumpi\n        /* \"#utility.yul\":33609:33610   */\n      0x00\n        /* \"#utility.yul\":33606:33607   */\n      dup1\n        /* \"#utility.yul\":33599:33611   */\n      revert\n        /* \"#utility.yul\":33553:33613   */\n    tag_614:\n        /* \"#utility.yul\":33503:33619   */\n      pop\n      jump\t// out\n        /* \"#utility.yul\":33625:33747   */\n    tag_286:\n        /* \"#utility.yul\":33698:33722   */\n      tag_616\n        /* \"#utility.yul\":33716:33721   */\n      dup2\n        /* \"#utility.yul\":33698:33722   */\n      tag_451\n      jump\t// in\n    tag_616:\n        /* \"#utility.yul\":33691:33696   */\n      dup2\n        /* \"#utility.yul\":33688:33723   */\n      eq\n        /* \"#utility.yul\":33678:33741   */\n      tag_617\n      jumpi\n        /* \"#utility.yul\":33737:33738   */\n      0x00\n        /* \"#utility.yul\":33734:33735   */\n      dup1\n        /* \"#utility.yul\":33727:33739   */\n      revert\n        /* \"#utility.yul\":33678:33741   */\n    tag_617:\n        /* \"#utility.yul\":33625:33747   */\n      pop\n      jump\t// out\n\n    auxdata: 0xa2646970667358221220263871a32e483fc85f12528018041574cd920b1cd453faa4a5fc6d498267f5b264736f6c63430008070033\n}\n",
				"bytecode": {
					"linkReferences": {},
					"object": "60806040526001600455600160065560016008553480156200002057600080fd5b5060405162002c7538038062002c75833981810160405281019062000046919062000127565b336000806101000a81548173ffffffffffffffffffffffffffffffffffffffff021916908373ffffffffffffffffffffffffffffffffffffffff16021790555081600a60006101000a81548173ffffffffffffffffffffffffffffffffffffffff021916908373ffffffffffffffffffffffffffffffffffffffff16021790555080600b60006101000a81548173ffffffffffffffffffffffffffffffffffffffff021916908373ffffffffffffffffffffffffffffffffffffffff1602179055505050620001c1565b6000815190506200012181620001a7565b92915050565b60008060408385031215620001415762000140620001a2565b5b6000620001518582860162000110565b9250506020620001648582860162000110565b9150509250929050565b60006200017b8262000182565b9050919050565b600073ffffffffffffffffffffffffffffffffffffffff82169050919050565b600080fd5b620001b2816200016e565b8114620001be57600080fd5b50565b612aa480620001d16000396000f3fe6080604052600436106100f25760003560e01c80636b93e4091161008a578063b027a75911610059578063b027a75914610379578063c16849c0146103ba578063cb2acd80146103e5578063d05a044714610428576100f2565b80636b93e409146102b657806390720b32146102e657806394fa8235146103115780639532007a1461034e576100f2565b80633a8c0e6e116100c65780633a8c0e6e146101db5780633e7ab6a81461021e5780635177d6d21461024e578063586fa64d14610279576100f2565b80621e4c44146100f75780630958d944146101225780631049f50a1461015f57806338266fe51461019e575b600080fd5b34801561010357600080fd5b5061010c610453565b6040516101199190612322565b60405180910390f35b34801561012e57600080fd5b5061014960048036038101906101449190611c3e565b610459565b6040516101569190612300565b60405180910390f35b34801561016b57600080fd5b5061018660048036038101906101819190611bf5565b6109fc565b60405161019593929190612185565b60405180910390f35b3480156101aa57600080fd5b506101c560048036038101906101c09190611a98565b610ac4565b6040516101d29190612322565b60405180910390f35b3480156101e757600080fd5b5061020260048036038101906101fd9190611c3e565b610aff565b60405161021597969594939291906123b3565b60405180910390f35b61023860048036038101906102339190611c6b565b610be9565b60405161024591906122c3565b60405180910390f35b34801561025a57600080fd5b50610263610fcc565b6040516102709190612322565b60405180910390f35b34801561028557600080fd5b506102a0600480360381019061029b9190611bf5565b610fd2565b6040516102ad9190612322565b60405180910390f35b6102d060048036038101906102cb9190611b21565b611000565b6040516102dd91906122de565b60405180910390f35b3480156102f257600080fd5b506102fb6114bc565b604051610308919061216a565b60405180910390f35b34801561031d57600080fd5b5061033860048036038101906103339190611b81565b6114e2565b6040516103459190612134565b60405180910390f35b34801561035a57600080fd5b50610363611675565b6040516103709190612322565b60405180910390f35b34801561038557600080fd5b506103a0600480360381019061039b9190611c3e565b61167b565b6040516103b1959493929190612429565b60405180910390f35b3480156103c657600080fd5b506103cf6116d1565b6040516103dc919061214f565b60405180910390f35b3480156103f157600080fd5b5061040c60048036038101906104079190611c3e565b6116f7565b60405161041f979695949392919061233d565b60405180910390f35b34801561043457600080fd5b5061043d6117e1565b60405161044a91906120e2565b60405180910390f35b60085481565b610461611805565b600b60009054906101000a900473ffffffffffffffffffffffffffffffffffffffff1673ffffffffffffffffffffffffffffffffffffffff1663e701c350336040518263ffffffff1660e01b81526004016104bc91906120e2565b60206040518083038186803b1580156104d457600080fd5b505afa1580156104e8573d6000803e3d6000fd5b505050506040513d601f19601f8201168201806040525081019061050c9190611af4565b61054b576040517f08c379a000000000000000000000000000000000000000000000000000000000815260040161054290612203565b60405180910390fd5b600454821115801561055d5750600082115b61059c576040517f08c379a000000000000000000000000000000000000000000000000000000000815260040161059390612243565b60405180910390fd5b6005600083815260200190815260200160002060010160009054906101000a900473ffffffffffffffffffffffffffffffffffffffff1673ffffffffffffffffffffffffffffffffffffffff163373ffffffffffffffffffffffffffffffffffffffff1614610640576040517f08c379a0000000000000000000000000000000000000000000000000000000008152600401610637906122a3565b60405180910390fd5b7fffffffffffffffffffffffffffffffffffffffffffffffffffffffffffffffff6005600084815260200190815260200160002060060154146106b8576040517f08c379a00000000000000000000000000000000000000000000000000000000081526004016106af90612223565b60405180910390fd5b60006005600084815260200190815260200160002060020180546106db906126fb565b80601f0160208091040260200160405190810160405280929190818152602001828054610707906126fb565b80156107545780601f1061072957610100808354040283529160200191610754565b820191906000526020600020905b81548152906001019060200180831161073757829003601f168201915b5050505050905060006005600085815260200190815260200160002060050154905060018060003373ffffffffffffffffffffffffffffffffffffffff1673ffffffffffffffffffffffffffffffffffffffff168152602001908152602001600020836040516107c491906120cb565b908152602001604051809103902060008282546107e191906125eb565b9250508190555060016003836040516107fa91906120cb565b90815260200160405180910390206000828254610817919061250a565b9250508190555060004290506000828261083191906125eb565b9050600060016018603c80856108479190612560565b6108519190612560565b61085b9190612560565b610865919061250a565b9050600060028660405161087991906120cb565b908152602001604051809103902060020154826108969190612591565b905060006040518060e0016040528060065481526020018a81526020013373ffffffffffffffffffffffffffffffffffffffff1681526020018881526020018681526020018381526020017fffffffffffffffffffffffffffffffffffffffffffffffffffffffffffffffff815250905080600760006006548152602001908152602001600020600082015181600001556020820151816001015560408201518160020160006101000a81548173ffffffffffffffffffffffffffffffffffffffff021916908373ffffffffffffffffffffffffffffffffffffffff1602179055506060820151816003019080519060200190610994929190611858565b506080820151816004015560a0820151816005015560c08201518160060155905050600654600560008b8152602001908152602001600020600601819055506001600660008282546109e6919061250a565b9250508190555080975050505050505050919050565b600281805160208101820180518482526020830160208501208183528095505050505050600091509050806000018054610a35906126fb565b80601f0160208091040260200160405190810160405280929190818152602001828054610a61906126fb565b8015610aae5780601f10610a8357610100808354040283529160200191610aae565b820191906000526020600020905b815481529060010190602001808311610a9157829003601f168201915b5050505050908060010154908060020154905083565b600160205281600052604060002081805160208101820180518482526020830160208501208183528095505050505050600091509150505481565b60076020528060005260406000206000915090508060000154908060010154908060020160009054906101000a900473ffffffffffffffffffffffffffffffffffffffff1690806003018054610b54906126fb565b80601f0160208091040260200160405190810160405280929190818152602001828054610b80906126fb565b8015610bcd5780601f10610ba257610100808354040283529160200191610bcd565b820191906000526020600020905b815481529060010190602001808311610bb057829003601f168201915b5050505050908060040154908060050154908060060154905087565b610bf16118de565b60008054906101000a900473ffffffffffffffffffffffffffffffffffffffff1673ffffffffffffffffffffffffffffffffffffffff163373ffffffffffffffffffffffffffffffffffffffff1614610c7f576040517f08c379a0000000000000000000000000000000000000000000000000000000008152600401610c7690612283565b60405180910390fd5b6006548311158015610c915750600083115b610cd0576040517f08c379a0000000000000000000000000000000000000000000000000000000008152600401610cc790612263565b60405180910390fd5b7fffffffffffffffffffffffffffffffffffffffffffffffffffffffffffffffff600760008581526020019081526020016000206006015414610d48576040517f08c379a0000000000000000000000000000000000000000000000000000000008152600401610d3f906121c3565b60405180910390fd5b60006007600085815260200190815260200160002060020160009054906101000a900473ffffffffffffffffffffffffffffffffffffffff169050600060056000600760008881526020019081526020016000206001015481526020019081526020016000206004015490506000600760008781526020019081526020016000206005015490506000858284610dde91906125eb565b610de891906125eb565b9050600a60009054906101000a900473ffffffffffffffffffffffffffffffffffffffff1673ffffffffffffffffffffffffffffffffffffffff166323b872dd60008054906101000a900473ffffffffffffffffffffffffffffffffffffffff1686846040518463ffffffff1660e01b8152600401610e69939291906120fd565b602060405180830381600087803b158015610e8357600080fd5b505af1158015610e97573d6000803e3d6000fd5b505050506040513d601f19601f82011682018060405250810190610ebb9190611af4565b5060006040518060a0016040528060085481526020018981526020018673ffffffffffffffffffffffffffffffffffffffff16815260200188815260200183815250905080600960006008548152602001908152602001600020600082015181600001556020820151816001015560408201518160020160006101000a81548173ffffffffffffffffffffffffffffffffffffffff021916908373ffffffffffffffffffffffffffffffffffffffff1602179055506060820151816003015560808201518160040155905050600854600760008a815260200190815260200160002060060181905550600160086000828254610fb7919061250a565b92505081905550809550505050505092915050565b60065481565b6003818051602081018201805184825260208301602085012081835280955050505050506000915090505481565b611008611923565b600b60009054906101000a900473ffffffffffffffffffffffffffffffffffffffff1673ffffffffffffffffffffffffffffffffffffffff1663e701c350336040518263ffffffff1660e01b815260040161106391906120e2565b60206040518083038186803b15801561107b57600080fd5b505afa15801561108f573d6000803e3d6000fd5b505050506040513d601f19601f820116820180604052508101906110b39190611af4565b6110f2576040517f08c379a00000000000000000000000000000000000000000000000000000000081526004016110e990612203565b60405180910390fd5b6000600385856040516111069291906120b2565b90815260200160405180910390205411611155576040517f08c379a000000000000000000000000000000000000000000000000000000000815260040161114c906121e3565b60405180910390fd5b6000600285856040516111699291906120b2565b908152602001604051809103902060020154836111869190612591565b600286866040516111989291906120b2565b9081526020016040518091039020600101546111b4919061250a565b905060018060003373ffffffffffffffffffffffffffffffffffffffff1673ffffffffffffffffffffffffffffffffffffffff16815260200190815260200160002086866040516112069291906120b2565b90815260200160405180910390206000828254611223919061250a565b9250508190555060016003868660405161123e9291906120b2565b9081526020016040518091039020600082825461125b91906125eb565b9250508190555060006040518060e0016040528060045481526020013373ffffffffffffffffffffffffffffffffffffffff16815260200187878080601f016020809104026020016040519081016040528093929190818152602001838380828437600081840152601f19601f8201169050808301925050505050505081526020018581526020013481526020014281526020017fffffffffffffffffffffffffffffffffffffffffffffffffffffffffffffffff8152509050806005600060045481526020019081526020016000206000820151816000015560208201518160010160006101000a81548173ffffffffffffffffffffffffffffffffffffffff021916908373ffffffffffffffffffffffffffffffffffffffff1602179055506040820151816002019080519060200190611398929190611858565b50606082015181600301556080820151816004015560a0820151816005015560c082015181600601559050506001600460008282546113d7919061250a565b92505081905550600a60009054906101000a900473ffffffffffffffffffffffffffffffffffffffff1673ffffffffffffffffffffffffffffffffffffffff166323b872dd3360008054906101000a900473ffffffffffffffffffffffffffffffffffffffff16856040518463ffffffff1660e01b815260040161145d939291906120fd565b602060405180830381600087803b15801561147757600080fd5b505af115801561148b573d6000803e3d6000fd5b505050506040513d601f19601f820116820180604052508101906114af9190611af4565b5080925050509392505050565b600b60009054906101000a900473ffffffffffffffffffffffffffffffffffffffff1681565b60008060009054906101000a900473ffffffffffffffffffffffffffffffffffffffff1673ffffffffffffffffffffffffffffffffffffffff163373ffffffffffffffffffffffffffffffffffffffff1614611573576040517f08c379a000000000000000000000000000000000000000000000000000000000815260040161156a90612283565b60405180910390fd5b604051806060016040528086868080601f016020809104026020016040519081016040528093929190818152602001838380828437600081840152601f19601f820116905080830192505050505050508152602001605a856115d59190612591565b815260200184815250600286866040516115f09291906120b2565b9081526020016040518091039020600082015181600001908051906020019061161a929190611858565b50602082015181600101556040820151816002015590505081600386866040516116459291906120b2565b90815260200160405180910390206000828254611662919061250a565b9250508190555060019050949350505050565b60045481565b60096020528060005260406000206000915090508060000154908060010154908060020160009054906101000a900473ffffffffffffffffffffffffffffffffffffffff16908060030154908060040154905085565b600a60009054906101000a900473ffffffffffffffffffffffffffffffffffffffff1681565b60056020528060005260406000206000915090508060000154908060010160009054906101000a900473ffffffffffffffffffffffffffffffffffffffff1690806002018054611746906126fb565b80601f0160208091040260200160405190810160405280929190818152602001828054611772906126fb565b80156117bf5780601f10611794576101008083540402835291602001916117bf565b820191906000526020600020905b8154815290600101906020018083116117a257829003601f168201915b5050505050908060030154908060040154908060050154908060060154905087565b60008054906101000a900473ffffffffffffffffffffffffffffffffffffffff1681565b6040518060e001604052806000815260200160008152602001600073ffffffffffffffffffffffffffffffffffffffff168152602001606081526020016000815260200160008152602001600081525090565b828054611864906126fb565b90600052602060002090601f01602090048101928261188657600085556118cd565b82601f1061189f57805160ff19168380011785556118cd565b828001600101855582156118cd579182015b828111156118cc5782518255916020019190600101906118b1565b5b5090506118da9190611976565b5090565b6040518060a001604052806000815260200160008152602001600073ffffffffffffffffffffffffffffffffffffffff16815260200160008152602001600081525090565b6040518060e0016040528060008152602001600073ffffffffffffffffffffffffffffffffffffffff16815260200160608152602001600081526020016000815260200160008152602001600081525090565b5b8082111561198f576000816000905550600101611977565b5090565b60006119a66119a1846124a1565b61247c565b9050828152602081018484840111156119c2576119c1612829565b5b6119cd8482856126b9565b509392505050565b6000813590506119e481612a29565b92915050565b6000815190506119f981612a40565b92915050565b60008083601f840112611a1557611a1461281f565b5b8235905067ffffffffffffffff811115611a3257611a3161281a565b5b602083019150836001820283011115611a4e57611a4d612824565b5b9250929050565b600082601f830112611a6a57611a6961281f565b5b8135611a7a848260208601611993565b91505092915050565b600081359050611a9281612a57565b92915050565b60008060408385031215611aaf57611aae612833565b5b6000611abd858286016119d5565b925050602083013567ffffffffffffffff811115611ade57611add61282e565b5b611aea85828601611a55565b9150509250929050565b600060208284031215611b0a57611b09612833565b5b6000611b18848285016119ea565b91505092915050565b600080600060408486031215611b3a57611b39612833565b5b600084013567ffffffffffffffff811115611b5857611b5761282e565b5b611b64868287016119ff565b93509350506020611b7786828701611a83565b9150509250925092565b60008060008060608587031215611b9b57611b9a612833565b5b600085013567ffffffffffffffff811115611bb957611bb861282e565b5b611bc5878288016119ff565b94509450506020611bd887828801611a83565b9250506040611be987828801611a83565b91505092959194509250565b600060208284031215611c0b57611c0a612833565b5b600082013567ffffffffffffffff811115611c2957611c2861282e565b5b611c3584828501611a55565b91505092915050565b600060208284031215611c5457611c53612833565b5b6000611c6284828501611a83565b91505092915050565b60008060408385031215611c8257611c81612833565b5b6000611c9085828601611a83565b9250506020611ca185828601611a83565b9150509250929050565b611cb48161261f565b82525050565b611cc38161261f565b82525050565b611cd281612631565b82525050565b611ce181612671565b82525050565b611cf081612683565b82525050565b611cff8161263d565b82525050565b611d0e8161263d565b82525050565b6000611d2083856124ff565b9350611d2d8385846126b9565b82840190509392505050565b6000611d44826124d2565b611d4e81856124dd565b9350611d5e8185602086016126c8565b611d6781612838565b840191505092915050565b6000611d7d826124d2565b611d8781856124ee565b9350611d978185602086016126c8565b611da081612838565b840191505092915050565b6000611db6826124d2565b611dc081856124ff565b9350611dd08185602086016126c8565b80840191505092915050565b6000611de96035836124ee565b9150611df482612849565b604082019050919050565b6000611e0c6022836124ee565b9150611e1782612898565b604082019050919050565b6000611e2f600d836124ee565b9150611e3a826128e7565b602082019050919050565b6000611e526032836124ee565b9150611e5d82612910565b604082019050919050565b6000611e75601a836124ee565b9150611e808261295f565b602082019050919050565b6000611e98601c836124ee565b9150611ea382612988565b602082019050919050565b6000611ebb6020836124ee565b9150611ec6826129b1565b602082019050919050565b6000611ede6027836124ee565b9150611ee9826129da565b604082019050919050565b60a082016000820151611f0a6000850182612094565b506020820151611f1d6020850182612094565b506040820151611f306040850182611cab565b506060820151611f436060850182612094565b506080820151611f566080850182612094565b50505050565b600060e083016000830151611f746000860182612094565b506020830151611f876020860182611cab565b5060408301518482036040860152611f9f8282611d39565b9150506060830151611fb46060860182612094565b506080830151611fc76080860182612094565b5060a0830151611fda60a0860182612094565b5060c0830151611fed60c0860182611cf6565b508091505092915050565b600060e0830160008301516120106000860182612094565b5060208301516120236020860182612094565b5060408301516120366040860182611cab565b506060830151848203606086015261204e8282611d39565b91505060808301516120636080860182612094565b5060a083015161207660a0860182612094565b5060c083015161208960c0860182611cf6565b508091505092915050565b61209d81612667565b82525050565b6120ac81612667565b82525050565b60006120bf828486611d14565b91508190509392505050565b60006120d78284611dab565b915081905092915050565b60006020820190506120f76000830184611cba565b92915050565b60006060820190506121126000830186611cba565b61211f6020830185611cba565b61212c60408301846120a3565b949350505050565b60006020820190506121496000830184611cc9565b92915050565b60006020820190506121646000830184611cd8565b92915050565b600060208201905061217f6000830184611ce7565b92915050565b6000606082019050818103600083015261219f8186611d72565b90506121ae60208301856120a3565b6121bb60408301846120a3565b949350505050565b600060208201905081810360008301526121dc81611ddc565b9050919050565b600060208201905081810360008301526121fc81611dff565b9050919050565b6000602082019050818103600083015261221c81611e22565b9050919050565b6000602082019050818103600083015261223c81611e45565b9050919050565b6000602082019050818103600083015261225c81611e68565b9050919050565b6000602082019050818103600083015261227c81611e8b565b9050919050565b6000602082019050818103600083015261229c81611eae565b9050919050565b600060208201905081810360008301526122bc81611ed1565b9050919050565b600060a0820190506122d86000830184611ef4565b92915050565b600060208201905081810360008301526122f88184611f5c565b905092915050565b6000602082019050818103600083015261231a8184611ff8565b905092915050565b600060208201905061233760008301846120a3565b92915050565b600060e082019050612352600083018a6120a3565b61235f6020830189611cba565b81810360408301526123718188611d72565b905061238060608301876120a3565b61238d60808301866120a3565b61239a60a08301856120a3565b6123a760c0830184611d05565b98975050505050505050565b600060e0820190506123c8600083018a6120a3565b6123d560208301896120a3565b6123e26040830188611cba565b81810360608301526123f48187611d72565b905061240360808301866120a3565b61241060a08301856120a3565b61241d60c0830184611d05565b98975050505050505050565b600060a08201905061243e60008301886120a3565b61244b60208301876120a3565b6124586040830186611cba565b61246560608301856120a3565b61247260808301846120a3565b9695505050505050565b6000612486612497565b9050612492828261272d565b919050565b6000604051905090565b600067ffffffffffffffff8211156124bc576124bb6127eb565b5b6124c582612838565b9050602081019050919050565b600081519050919050565b600082825260208201905092915050565b600082825260208201905092915050565b600081905092915050565b600061251582612667565b915061252083612667565b9250827fffffffffffffffffffffffffffffffffffffffffffffffffffffffffffffffff038211156125555761255461275e565b5b828201905092915050565b600061256b82612667565b915061257683612667565b9250826125865761258561278d565b5b828204905092915050565b600061259c82612667565b91506125a783612667565b9250817fffffffffffffffffffffffffffffffffffffffffffffffffffffffffffffffff04831182151516156125e0576125df61275e565b5b828202905092915050565b60006125f682612667565b915061260183612667565b9250828210156126145761261361275e565b5b828203905092915050565b600061262a82612647565b9050919050565b60008115159050919050565b6000819050919050565b600073ffffffffffffffffffffffffffffffffffffffff82169050919050565b6000819050919050565b600061267c82612695565b9050919050565b600061268e82612695565b9050919050565b60006126a0826126a7565b9050919050565b60006126b282612647565b9050919050565b82818337600083830152505050565b60005b838110156126e65780820151818401526020810190506126cb565b838111156126f5576000848401525b50505050565b6000600282049050600182168061271357607f821691505b60208210811415612727576127266127bc565b5b50919050565b61273682612838565b810181811067ffffffffffffffff82111715612755576127546127eb565b5b80604052505050565b7f4e487b7100000000000000000000000000000000000000000000000000000000600052601160045260246000fd5b7f4e487b7100000000000000000000000000000000000000000000000000000000600052601260045260246000fd5b7f4e487b7100000000000000000000000000000000000000000000000000000000600052602260045260246000fd5b7f4e487b7100000000000000000000000000000000000000000000000000000000600052604160045260246000fd5b600080fd5b600080fd5b600080fd5b600080fd5b600080fd5b600080fd5b6000601f19601f8301169050919050565b7f5468652072657475726e206f6620746869732072657475726e4964206861732060008201527f6265656e20616c72656164792061756469746564210000000000000000000000602082015250565b7f4e6f207468697320747970652773206361727320617661696c61626c65206e6f60008201527f7721000000000000000000000000000000000000000000000000000000000000602082015250565b7f426f72726f776572204f6e6c7900000000000000000000000000000000000000600082015250565b7f5468652072656e74206f6620746869732072656e74496420686173206265656e60008201527f20616c72656164792072657475726e6564210000000000000000000000000000602082015250565b7f496e7075742072656e745265636f7264496420496e7661696421000000000000600082015250565b7f496e7075742072657475726e5265636f7264496420496e766169642100000000600082015250565b7f4f6e6c79204142432063616e2063616c6c20746869732066756e6374696f6e21600082015250565b7f54686520637573746f6d65722773206164647265737320646f65736e2774206d60008201527f6174636865642100000000000000000000000000000000000000000000000000602082015250565b612a328161261f565b8114612a3d57600080fd5b50565b612a4981612631565b8114612a5457600080fd5b50565b612a6081612667565b8114612a6b57600080fd5b5056fea2646970667358221220263871a32e483fc85f12528018041574cd920b1cd453faa4a5fc6d498267f5b264736f6c63430008070033",
					"opcodes": "PUSH1 0x80 PUSH1 0x40 MSTORE PUSH1 0x1 PUSH1 0x4 SSTORE PUSH1 0x1 PUSH1 0x6 SSTORE PUSH1 0x1 PUSH1 0x8 SSTORE CALLVALUE DUP1 ISZERO PUSH3 0x20 JUMPI PUSH1 0x0 DUP1 REVERT JUMPDEST POP PUSH1 0x40 MLOAD PUSH3 0x2C75 CODESIZE SUB DUP1 PUSH3 0x2C75 DUP4 CODECOPY DUP2 DUP2 ADD PUSH1 0x40 MSTORE DUP2 ADD SWAP1 PUSH3 0x46 SWAP2 SWAP1 PUSH3 0x127 JUMP JUMPDEST CALLER PUSH1 0x0 DUP1 PUSH2 0x100 EXP DUP2 SLOAD DUP2 PUSH20 0xFFFFFFFFFFFFFFFFFFFFFFFFFFFFFFFFFFFFFFFF MUL NOT AND SWAP1 DUP4 PUSH20 0xFFFFFFFFFFFFFFFFFFFFFFFFFFFFFFFFFFFFFFFF AND MUL OR SWAP1 SSTORE POP DUP2 PUSH1 0xA PUSH1 0x0 PUSH2 0x100 EXP DUP2 SLOAD DUP2 PUSH20 0xFFFFFFFFFFFFFFFFFFFFFFFFFFFFFFFFFFFFFFFF MUL NOT AND SWAP1 DUP4 PUSH20 0xFFFFFFFFFFFFFFFFFFFFFFFFFFFFFFFFFFFFFFFF AND MUL OR SWAP1 SSTORE POP DUP1 PUSH1 0xB PUSH1 0x0 PUSH2 0x100 EXP DUP2 SLOAD DUP2 PUSH20 0xFFFFFFFFFFFFFFFFFFFFFFFFFFFFFFFFFFFFFFFF MUL NOT AND SWAP1 DUP4 PUSH20 0xFFFFFFFFFFFFFFFFFFFFFFFFFFFFFFFFFFFFFFFF AND MUL OR SWAP1 SSTORE POP POP POP PUSH3 0x1C1 JUMP JUMPDEST PUSH1 0x0 DUP2 MLOAD SWAP1 POP PUSH3 0x121 DUP2 PUSH3 0x1A7 JUMP JUMPDEST SWAP3 SWAP2 POP POP JUMP JUMPDEST PUSH1 0x0 DUP1 PUSH1 0x40 DUP4 DUP6 SUB SLT ISZERO PUSH3 0x141 JUMPI PUSH3 0x140 PUSH3 0x1A2 JUMP JUMPDEST JUMPDEST PUSH1 0x0 PUSH3 0x151 DUP6 DUP3 DUP7 ADD PUSH3 0x110 JUMP JUMPDEST SWAP3 POP POP PUSH1 0x20 PUSH3 0x164 DUP6 DUP3 DUP7 ADD PUSH3 0x110 JUMP JUMPDEST SWAP2 POP POP SWAP3 POP SWAP3 SWAP1 POP JUMP JUMPDEST PUSH1 0x0 PUSH3 0x17B DUP3 PUSH3 0x182 JUMP JUMPDEST SWAP1 POP SWAP2 SWAP1 POP JUMP JUMPDEST PUSH1 0x0 PUSH20 0xFFFFFFFFFFFFFFFFFFFFFFFFFFFFFFFFFFFFFFFF DUP3 AND SWAP1 POP SWAP2 SWAP1 POP JUMP JUMPDEST PUSH1 0x0 DUP1 REVERT JUMPDEST PUSH3 0x1B2 DUP2 PUSH3 0x16E JUMP JUMPDEST DUP2 EQ PUSH3 0x1BE JUMPI PUSH1 0x0 DUP1 REVERT JUMPDEST POP JUMP JUMPDEST PUSH2 0x2AA4 DUP1 PUSH3 0x1D1 PUSH1 0x0 CODECOPY PUSH1 0x0 RETURN INVALID PUSH1 0x80 PUSH1 0x40 MSTORE PUSH1 0x4 CALLDATASIZE LT PUSH2 0xF2 JUMPI PUSH1 0x0 CALLDATALOAD PUSH1 0xE0 SHR DUP1 PUSH4 0x6B93E409 GT PUSH2 0x8A JUMPI DUP1 PUSH4 0xB027A759 GT PUSH2 0x59 JUMPI DUP1 PUSH4 0xB027A759 EQ PUSH2 0x379 JUMPI DUP1 PUSH4 0xC16849C0 EQ PUSH2 0x3BA JUMPI DUP1 PUSH4 0xCB2ACD80 EQ PUSH2 0x3E5 JUMPI DUP1 PUSH4 0xD05A0447 EQ PUSH2 0x428 JUMPI PUSH2 0xF2 JUMP JUMPDEST DUP1 PUSH4 0x6B93E409 EQ PUSH2 0x2B6 JUMPI DUP1 PUSH4 0x90720B32 EQ PUSH2 0x2E6 JUMPI DUP1 PUSH4 0x94FA8235 EQ PUSH2 0x311 JUMPI DUP1 PUSH4 0x9532007A EQ PUSH2 0x34E JUMPI PUSH2 0xF2 JUMP JUMPDEST DUP1 PUSH4 0x3A8C0E6E GT PUSH2 0xC6 JUMPI DUP1 PUSH4 0x3A8C0E6E EQ PUSH2 0x1DB JUMPI DUP1 PUSH4 0x3E7AB6A8 EQ PUSH2 0x21E JUMPI DUP1 PUSH4 0x5177D6D2 EQ PUSH2 0x24E JUMPI DUP1 PUSH4 0x586FA64D EQ PUSH2 0x279 JUMPI PUSH2 0xF2 JUMP JUMPDEST DUP1 PUSH3 0x1E4C44 EQ PUSH2 0xF7 JUMPI DUP1 PUSH4 0x958D944 EQ PUSH2 0x122 JUMPI DUP1 PUSH4 0x1049F50A EQ PUSH2 0x15F JUMPI DUP1 PUSH4 0x38266FE5 EQ PUSH2 0x19E JUMPI JUMPDEST PUSH1 0x0 DUP1 REVERT JUMPDEST CALLVALUE DUP1 ISZERO PUSH2 0x103 JUMPI PUSH1 0x0 DUP1 REVERT JUMPDEST POP PUSH2 0x10C PUSH2 0x453 JUMP JUMPDEST PUSH1 0x40 MLOAD PUSH2 0x119 SWAP2 SWAP1 PUSH2 0x2322 JUMP JUMPDEST PUSH1 0x40 MLOAD DUP1 SWAP2 SUB SWAP1 RETURN JUMPDEST CALLVALUE DUP1 ISZERO PUSH2 0x12E JUMPI PUSH1 0x0 DUP1 REVERT JUMPDEST POP PUSH2 0x149 PUSH1 0x4 DUP1 CALLDATASIZE SUB DUP2 ADD SWAP1 PUSH2 0x144 SWAP2 SWAP1 PUSH2 0x1C3E JUMP JUMPDEST PUSH2 0x459 JUMP JUMPDEST PUSH1 0x40 MLOAD PUSH2 0x156 SWAP2 SWAP1 PUSH2 0x2300 JUMP JUMPDEST PUSH1 0x40 MLOAD DUP1 SWAP2 SUB SWAP1 RETURN JUMPDEST CALLVALUE DUP1 ISZERO PUSH2 0x16B JUMPI PUSH1 0x0 DUP1 REVERT JUMPDEST POP PUSH2 0x186 PUSH1 0x4 DUP1 CALLDATASIZE SUB DUP2 ADD SWAP1 PUSH2 0x181 SWAP2 SWAP1 PUSH2 0x1BF5 JUMP JUMPDEST PUSH2 0x9FC JUMP JUMPDEST PUSH1 0x40 MLOAD PUSH2 0x195 SWAP4 SWAP3 SWAP2 SWAP1 PUSH2 0x2185 JUMP JUMPDEST PUSH1 0x40 MLOAD DUP1 SWAP2 SUB SWAP1 RETURN JUMPDEST CALLVALUE DUP1 ISZERO PUSH2 0x1AA JUMPI PUSH1 0x0 DUP1 REVERT JUMPDEST POP PUSH2 0x1C5 PUSH1 0x4 DUP1 CALLDATASIZE SUB DUP2 ADD SWAP1 PUSH2 0x1C0 SWAP2 SWAP1 PUSH2 0x1A98 JUMP JUMPDEST PUSH2 0xAC4 JUMP JUMPDEST PUSH1 0x40 MLOAD PUSH2 0x1D2 SWAP2 SWAP1 PUSH2 0x2322 JUMP JUMPDEST PUSH1 0x40 MLOAD DUP1 SWAP2 SUB SWAP1 RETURN JUMPDEST CALLVALUE DUP1 ISZERO PUSH2 0x1E7 JUMPI PUSH1 0x0 DUP1 REVERT JUMPDEST POP PUSH2 0x202 PUSH1 0x4 DUP1 CALLDATASIZE SUB DUP2 ADD SWAP1 PUSH2 0x1FD SWAP2 SWAP1 PUSH2 0x1C3E JUMP JUMPDEST PUSH2 0xAFF JUMP JUMPDEST PUSH1 0x40 MLOAD PUSH2 0x215 SWAP8 SWAP7 SWAP6 SWAP5 SWAP4 SWAP3 SWAP2 SWAP1 PUSH2 0x23B3 JUMP JUMPDEST PUSH1 0x40 MLOAD DUP1 SWAP2 SUB SWAP1 RETURN JUMPDEST PUSH2 0x238 PUSH1 0x4 DUP1 CALLDATASIZE SUB DUP2 ADD SWAP1 PUSH2 0x233 SWAP2 SWAP1 PUSH2 0x1C6B JUMP JUMPDEST PUSH2 0xBE9 JUMP JUMPDEST PUSH1 0x40 MLOAD PUSH2 0x245 SWAP2 SWAP1 PUSH2 0x22C3 JUMP JUMPDEST PUSH1 0x40 MLOAD DUP1 SWAP2 SUB SWAP1 RETURN JUMPDEST CALLVALUE DUP1 ISZERO PUSH2 0x25A JUMPI PUSH1 0x0 DUP1 REVERT JUMPDEST POP PUSH2 0x263 PUSH2 0xFCC JUMP JUMPDEST PUSH1 0x40 MLOAD PUSH2 0x270 SWAP2 SWAP1 PUSH2 0x2322 JUMP JUMPDEST PUSH1 0x40 MLOAD DUP1 SWAP2 SUB SWAP1 RETURN JUMPDEST CALLVALUE DUP1 ISZERO PUSH2 0x285 JUMPI PUSH1 0x0 DUP1 REVERT JUMPDEST POP PUSH2 0x2A0 PUSH1 0x4 DUP1 CALLDATASIZE SUB DUP2 ADD SWAP1 PUSH2 0x29B SWAP2 SWAP1 PUSH2 0x1BF5 JUMP JUMPDEST PUSH2 0xFD2 JUMP JUMPDEST PUSH1 0x40 MLOAD PUSH2 0x2AD SWAP2 SWAP1 PUSH2 0x2322 JUMP JUMPDEST PUSH1 0x40 MLOAD DUP1 SWAP2 SUB SWAP1 RETURN JUMPDEST PUSH2 0x2D0 PUSH1 0x4 DUP1 CALLDATASIZE SUB DUP2 ADD SWAP1 PUSH2 0x2CB SWAP2 SWAP1 PUSH2 0x1B21 JUMP JUMPDEST PUSH2 0x1000 JUMP JUMPDEST PUSH1 0x40 MLOAD PUSH2 0x2DD SWAP2 SWAP1 PUSH2 0x22DE JUMP JUMPDEST PUSH1 0x40 MLOAD DUP1 SWAP2 SUB SWAP1 RETURN JUMPDEST CALLVALUE DUP1 ISZERO PUSH2 0x2F2 JUMPI PUSH1 0x0 DUP1 REVERT JUMPDEST POP PUSH2 0x2FB PUSH2 0x14BC JUMP JUMPDEST PUSH1 0x40 MLOAD PUSH2 0x308 SWAP2 SWAP1 PUSH2 0x216A JUMP JUMPDEST PUSH1 0x40 MLOAD DUP1 SWAP2 SUB SWAP1 RETURN JUMPDEST CALLVALUE DUP1 ISZERO PUSH2 0x31D JUMPI PUSH1 0x0 DUP1 REVERT JUMPDEST POP PUSH2 0x338 PUSH1 0x4 DUP1 CALLDATASIZE SUB DUP2 ADD SWAP1 PUSH2 0x333 SWAP2 SWAP1 PUSH2 0x1B81 JUMP JUMPDEST PUSH2 0x14E2 JUMP JUMPDEST PUSH1 0x40 MLOAD PUSH2 0x345 SWAP2 SWAP1 PUSH2 0x2134 JUMP JUMPDEST PUSH1 0x40 MLOAD DUP1 SWAP2 SUB SWAP1 RETURN JUMPDEST CALLVALUE DUP1 ISZERO PUSH2 0x35A JUMPI PUSH1 0x0 DUP1 REVERT JUMPDEST POP PUSH2 0x363 PUSH2 0x1675 JUMP JUMPDEST PUSH1 0x40 MLOAD PUSH2 0x370 SWAP2 SWAP1 PUSH2 0x2322 JUMP JUMPDEST PUSH1 0x40 MLOAD DUP1 SWAP2 SUB SWAP1 RETURN JUMPDEST CALLVALUE DUP1 ISZERO PUSH2 0x385 JUMPI PUSH1 0x0 DUP1 REVERT JUMPDEST POP PUSH2 0x3A0 PUSH1 0x4 DUP1 CALLDATASIZE SUB DUP2 ADD SWAP1 PUSH2 0x39B SWAP2 SWAP1 PUSH2 0x1C3E JUMP JUMPDEST PUSH2 0x167B JUMP JUMPDEST PUSH1 0x40 MLOAD PUSH2 0x3B1 SWAP6 SWAP5 SWAP4 SWAP3 SWAP2 SWAP1 PUSH2 0x2429 JUMP JUMPDEST PUSH1 0x40 MLOAD DUP1 SWAP2 SUB SWAP1 RETURN JUMPDEST CALLVALUE DUP1 ISZERO PUSH2 0x3C6 JUMPI PUSH1 0x0 DUP1 REVERT JUMPDEST POP PUSH2 0x3CF PUSH2 0x16D1 JUMP JUMPDEST PUSH1 0x40 MLOAD PUSH2 0x3DC SWAP2 SWAP1 PUSH2 0x214F JUMP JUMPDEST PUSH1 0x40 MLOAD DUP1 SWAP2 SUB SWAP1 RETURN JUMPDEST CALLVALUE DUP1 ISZERO PUSH2 0x3F1 JUMPI PUSH1 0x0 DUP1 REVERT JUMPDEST POP PUSH2 0x40C PUSH1 0x4 DUP1 CALLDATASIZE SUB DUP2 ADD SWAP1 PUSH2 0x407 SWAP2 SWAP1 PUSH2 0x1C3E JUMP JUMPDEST PUSH2 0x16F7 JUMP JUMPDEST PUSH1 0x40 MLOAD PUSH2 0x41F SWAP8 SWAP7 SWAP6 SWAP5 SWAP4 SWAP3 SWAP2 SWAP1 PUSH2 0x233D JUMP JUMPDEST PUSH1 0x40 MLOAD DUP1 SWAP2 SUB SWAP1 RETURN JUMPDEST CALLVALUE DUP1 ISZERO PUSH2 0x434 JUMPI PUSH1 0x0 DUP1 REVERT JUMPDEST POP PUSH2 0x43D PUSH2 0x17E1 JUMP JUMPDEST PUSH1 0x40 MLOAD PUSH2 0x44A SWAP2 SWAP1 PUSH2 0x20E2 JUMP JUMPDEST PUSH1 0x40 MLOAD DUP1 SWAP2 SUB SWAP1 RETURN JUMPDEST PUSH1 0x8 SLOAD DUP2 JUMP JUMPDEST PUSH2 0x461 PUSH2 0x1805 JUMP JUMPDEST PUSH1 0xB PUSH1 0x0 SWAP1 SLOAD SWAP1 PUSH2 0x100 EXP SWAP1 DIV PUSH20 0xFFFFFFFFFFFFFFFFFFFFFFFFFFFFFFFFFFFFFFFF AND PUSH20 0xFFFFFFFFFFFFFFFFFFFFFFFFFFFFFFFFFFFFFFFF AND PUSH4 0xE701C350 CALLER PUSH1 0x40 MLOAD DUP3 PUSH4 0xFFFFFFFF AND PUSH1 0xE0 SHL DUP2 MSTORE PUSH1 0x4 ADD PUSH2 0x4BC SWAP2 SWAP1 PUSH2 0x20E2 JUMP JUMPDEST PUSH1 0x20 PUSH1 0x40 MLOAD DUP1 DUP4 SUB DUP2 DUP7 DUP1 EXTCODESIZE ISZERO DUP1 ISZERO PUSH2 0x4D4 JUMPI PUSH1 0x0 DUP1 REVERT JUMPDEST POP GAS STATICCALL ISZERO DUP1 ISZERO PUSH2 0x4E8 JUMPI RETURNDATASIZE PUSH1 0x0 DUP1 RETURNDATACOPY RETURNDATASIZE PUSH1 0x0 REVERT JUMPDEST POP POP POP POP PUSH1 0x40 MLOAD RETURNDATASIZE PUSH1 0x1F NOT PUSH1 0x1F DUP3 ADD AND DUP3 ADD DUP1 PUSH1 0x40 MSTORE POP DUP2 ADD SWAP1 PUSH2 0x50C SWAP2 SWAP1 PUSH2 0x1AF4 JUMP JUMPDEST PUSH2 0x54B JUMPI PUSH1 0x40 MLOAD PUSH32 0x8C379A000000000000000000000000000000000000000000000000000000000 DUP2 MSTORE PUSH1 0x4 ADD PUSH2 0x542 SWAP1 PUSH2 0x2203 JUMP JUMPDEST PUSH1 0x40 MLOAD DUP1 SWAP2 SUB SWAP1 REVERT JUMPDEST PUSH1 0x4 SLOAD DUP3 GT ISZERO DUP1 ISZERO PUSH2 0x55D JUMPI POP PUSH1 0x0 DUP3 GT JUMPDEST PUSH2 0x59C JUMPI PUSH1 0x40 MLOAD PUSH32 0x8C379A000000000000000000000000000000000000000000000000000000000 DUP2 MSTORE PUSH1 0x4 ADD PUSH2 0x593 SWAP1 PUSH2 0x2243 JUMP JUMPDEST PUSH1 0x40 MLOAD DUP1 SWAP2 SUB SWAP1 REVERT JUMPDEST PUSH1 0x5 PUSH1 0x0 DUP4 DUP2 MSTORE PUSH1 0x20 ADD SWAP1 DUP2 MSTORE PUSH1 0x20 ADD PUSH1 0x0 KECCAK256 PUSH1 0x1 ADD PUSH1 0x0 SWAP1 SLOAD SWAP1 PUSH2 0x100 EXP SWAP1 DIV PUSH20 0xFFFFFFFFFFFFFFFFFFFFFFFFFFFFFFFFFFFFFFFF AND PUSH20 0xFFFFFFFFFFFFFFFFFFFFFFFFFFFFFFFFFFFFFFFF AND CALLER PUSH20 0xFFFFFFFFFFFFFFFFFFFFFFFFFFFFFFFFFFFFFFFF AND EQ PUSH2 0x640 JUMPI PUSH1 0x40 MLOAD PUSH32 0x8C379A000000000000000000000000000000000000000000000000000000000 DUP2 MSTORE PUSH1 0x4 ADD PUSH2 0x637 SWAP1 PUSH2 0x22A3 JUMP JUMPDEST PUSH1 0x40 MLOAD DUP1 SWAP2 SUB SWAP1 REVERT JUMPDEST PUSH32 0xFFFFFFFFFFFFFFFFFFFFFFFFFFFFFFFFFFFFFFFFFFFFFFFFFFFFFFFFFFFFFFFF PUSH1 0x5 PUSH1 0x0 DUP5 DUP2 MSTORE PUSH1 0x20 ADD SWAP1 DUP2 MSTORE PUSH1 0x20 ADD PUSH1 0x0 KECCAK256 PUSH1 0x6 ADD SLOAD EQ PUSH2 0x6B8 JUMPI PUSH1 0x40 MLOAD PUSH32 0x8C379A000000000000000000000000000000000000000000000000000000000 DUP2 MSTORE PUSH1 0x4 ADD PUSH2 0x6AF SWAP1 PUSH2 0x2223 JUMP JUMPDEST PUSH1 0x40 MLOAD DUP1 SWAP2 SUB SWAP1 REVERT JUMPDEST PUSH1 0x0 PUSH1 0x5 PUSH1 0x0 DUP5 DUP2 MSTORE PUSH1 0x20 ADD SWAP1 DUP2 MSTORE PUSH1 0x20 ADD PUSH1 0x0 KECCAK256 PUSH1 0x2 ADD DUP1 SLOAD PUSH2 0x6DB SWAP1 PUSH2 0x26FB JUMP JUMPDEST DUP1 PUSH1 0x1F ADD PUSH1 0x20 DUP1 SWAP2 DIV MUL PUSH1 0x20 ADD PUSH1 0x40 MLOAD SWAP1 DUP2 ADD PUSH1 0x40 MSTORE DUP1 SWAP3 SWAP2 SWAP1 DUP2 DUP2 MSTORE PUSH1 0x20 ADD DUP3 DUP1 SLOAD PUSH2 0x707 SWAP1 PUSH2 0x26FB JUMP JUMPDEST DUP1 ISZERO PUSH2 0x754 JUMPI DUP1 PUSH1 0x1F LT PUSH2 0x729 JUMPI PUSH2 0x100 DUP1 DUP4 SLOAD DIV MUL DUP4 MSTORE SWAP2 PUSH1 0x20 ADD SWAP2 PUSH2 0x754 JUMP JUMPDEST DUP3 ADD SWAP2 SWAP1 PUSH1 0x0 MSTORE PUSH1 0x20 PUSH1 0x0 KECCAK256 SWAP1 JUMPDEST DUP2 SLOAD DUP2 MSTORE SWAP1 PUSH1 0x1 ADD SWAP1 PUSH1 0x20 ADD DUP1 DUP4 GT PUSH2 0x737 JUMPI DUP3 SWAP1 SUB PUSH1 0x1F AND DUP3 ADD SWAP2 JUMPDEST POP POP POP POP POP SWAP1 POP PUSH1 0x0 PUSH1 0x5 PUSH1 0x0 DUP6 DUP2 MSTORE PUSH1 0x20 ADD SWAP1 DUP2 MSTORE PUSH1 0x20 ADD PUSH1 0x0 KECCAK256 PUSH1 0x5 ADD SLOAD SWAP1 POP PUSH1 0x1 DUP1 PUSH1 0x0 CALLER PUSH20 0xFFFFFFFFFFFFFFFFFFFFFFFFFFFFFFFFFFFFFFFF AND PUSH20 0xFFFFFFFFFFFFFFFFFFFFFFFFFFFFFFFFFFFFFFFF AND DUP2 MSTORE PUSH1 0x20 ADD SWAP1 DUP2 MSTORE PUSH1 0x20 ADD PUSH1 0x0 KECCAK256 DUP4 PUSH1 0x40 MLOAD PUSH2 0x7C4 SWAP2 SWAP1 PUSH2 0x20CB JUMP JUMPDEST SWAP1 DUP2 MSTORE PUSH1 0x20 ADD PUSH1 0x40 MLOAD DUP1 SWAP2 SUB SWAP1 KECCAK256 PUSH1 0x0 DUP3 DUP3 SLOAD PUSH2 0x7E1 SWAP2 SWAP1 PUSH2 0x25EB JUMP JUMPDEST SWAP3 POP POP DUP2 SWAP1 SSTORE POP PUSH1 0x1 PUSH1 0x3 DUP4 PUSH1 0x40 MLOAD PUSH2 0x7FA SWAP2 SWAP1 PUSH2 0x20CB JUMP JUMPDEST SWAP1 DUP2 MSTORE PUSH1 0x20 ADD PUSH1 0x40 MLOAD DUP1 SWAP2 SUB SWAP1 KECCAK256 PUSH1 0x0 DUP3 DUP3 SLOAD PUSH2 0x817 SWAP2 SWAP1 PUSH2 0x250A JUMP JUMPDEST SWAP3 POP POP DUP2 SWAP1 SSTORE POP PUSH1 0x0 TIMESTAMP SWAP1 POP PUSH1 0x0 DUP3 DUP3 PUSH2 0x831 SWAP2 SWAP1 PUSH2 0x25EB JUMP JUMPDEST SWAP1 POP PUSH1 0x0 PUSH1 0x1 PUSH1 0x18 PUSH1 0x3C DUP1 DUP6 PUSH2 0x847 SWAP2 SWAP1 PUSH2 0x2560 JUMP JUMPDEST PUSH2 0x851 SWAP2 SWAP1 PUSH2 0x2560 JUMP JUMPDEST PUSH2 0x85B SWAP2 SWAP1 PUSH2 0x2560 JUMP JUMPDEST PUSH2 0x865 SWAP2 SWAP1 PUSH2 0x250A JUMP JUMPDEST SWAP1 POP PUSH1 0x0 PUSH1 0x2 DUP7 PUSH1 0x40 MLOAD PUSH2 0x879 SWAP2 SWAP1 PUSH2 0x20CB JUMP JUMPDEST SWAP1 DUP2 MSTORE PUSH1 0x20 ADD PUSH1 0x40 MLOAD DUP1 SWAP2 SUB SWAP1 KECCAK256 PUSH1 0x2 ADD SLOAD DUP3 PUSH2 0x896 SWAP2 SWAP1 PUSH2 0x2591 JUMP JUMPDEST SWAP1 POP PUSH1 0x0 PUSH1 0x40 MLOAD DUP1 PUSH1 0xE0 ADD PUSH1 0x40 MSTORE DUP1 PUSH1 0x6 SLOAD DUP2 MSTORE PUSH1 0x20 ADD DUP11 DUP2 MSTORE PUSH1 0x20 ADD CALLER PUSH20 0xFFFFFFFFFFFFFFFFFFFFFFFFFFFFFFFFFFFFFFFF AND DUP2 MSTORE PUSH1 0x20 ADD DUP9 DUP2 MSTORE PUSH1 0x20 ADD DUP7 DUP2 MSTORE PUSH1 0x20 ADD DUP4 DUP2 MSTORE PUSH1 0x20 ADD PUSH32 0xFFFFFFFFFFFFFFFFFFFFFFFFFFFFFFFFFFFFFFFFFFFFFFFFFFFFFFFFFFFFFFFF DUP2 MSTORE POP SWAP1 POP DUP1 PUSH1 0x7 PUSH1 0x0 PUSH1 0x6 SLOAD DUP2 MSTORE PUSH1 0x20 ADD SWAP1 DUP2 MSTORE PUSH1 0x20 ADD PUSH1 0x0 KECCAK256 PUSH1 0x0 DUP3 ADD MLOAD DUP2 PUSH1 0x0 ADD SSTORE PUSH1 0x20 DUP3 ADD MLOAD DUP2 PUSH1 0x1 ADD SSTORE PUSH1 0x40 DUP3 ADD MLOAD DUP2 PUSH1 0x2 ADD PUSH1 0x0 PUSH2 0x100 EXP DUP2 SLOAD DUP2 PUSH20 0xFFFFFFFFFFFFFFFFFFFFFFFFFFFFFFFFFFFFFFFF MUL NOT AND SWAP1 DUP4 PUSH20 0xFFFFFFFFFFFFFFFFFFFFFFFFFFFFFFFFFFFFFFFF AND MUL OR SWAP1 SSTORE POP PUSH1 0x60 DUP3 ADD MLOAD DUP2 PUSH1 0x3 ADD SWAP1 DUP1 MLOAD SWAP1 PUSH1 0x20 ADD SWAP1 PUSH2 0x994 SWAP3 SWAP2 SWAP1 PUSH2 0x1858 JUMP JUMPDEST POP PUSH1 0x80 DUP3 ADD MLOAD DUP2 PUSH1 0x4 ADD SSTORE PUSH1 0xA0 DUP3 ADD MLOAD DUP2 PUSH1 0x5 ADD SSTORE PUSH1 0xC0 DUP3 ADD MLOAD DUP2 PUSH1 0x6 ADD SSTORE SWAP1 POP POP PUSH1 0x6 SLOAD PUSH1 0x5 PUSH1 0x0 DUP12 DUP2 MSTORE PUSH1 0x20 ADD SWAP1 DUP2 MSTORE PUSH1 0x20 ADD PUSH1 0x0 KECCAK256 PUSH1 0x6 ADD DUP2 SWAP1 SSTORE POP PUSH1 0x1 PUSH1 0x6 PUSH1 0x0 DUP3 DUP3 SLOAD PUSH2 0x9E6 SWAP2 SWAP1 PUSH2 0x250A JUMP JUMPDEST SWAP3 POP POP DUP2 SWAP1 SSTORE POP DUP1 SWAP8 POP POP POP POP POP POP POP POP SWAP2 SWAP1 POP JUMP JUMPDEST PUSH1 0x2 DUP2 DUP1 MLOAD PUSH1 0x20 DUP2 ADD DUP3 ADD DUP1 MLOAD DUP5 DUP3 MSTORE PUSH1 0x20 DUP4 ADD PUSH1 0x20 DUP6 ADD KECCAK256 DUP2 DUP4 MSTORE DUP1 SWAP6 POP POP POP POP POP POP PUSH1 0x0 SWAP2 POP SWAP1 POP DUP1 PUSH1 0x0 ADD DUP1 SLOAD PUSH2 0xA35 SWAP1 PUSH2 0x26FB JUMP JUMPDEST DUP1 PUSH1 0x1F ADD PUSH1 0x20 DUP1 SWAP2 DIV MUL PUSH1 0x20 ADD PUSH1 0x40 MLOAD SWAP1 DUP2 ADD PUSH1 0x40 MSTORE DUP1 SWAP3 SWAP2 SWAP1 DUP2 DUP2 MSTORE PUSH1 0x20 ADD DUP3 DUP1 SLOAD PUSH2 0xA61 SWAP1 PUSH2 0x26FB JUMP JUMPDEST DUP1 ISZERO PUSH2 0xAAE JUMPI DUP1 PUSH1 0x1F LT PUSH2 0xA83 JUMPI PUSH2 0x100 DUP1 DUP4 SLOAD DIV MUL DUP4 MSTORE SWAP2 PUSH1 0x20 ADD SWAP2 PUSH2 0xAAE JUMP JUMPDEST DUP3 ADD SWAP2 SWAP1 PUSH1 0x0 MSTORE PUSH1 0x20 PUSH1 0x0 KECCAK256 SWAP1 JUMPDEST DUP2 SLOAD DUP2 MSTORE SWAP1 PUSH1 0x1 ADD SWAP1 PUSH1 0x20 ADD DUP1 DUP4 GT PUSH2 0xA91 JUMPI DUP3 SWAP1 SUB PUSH1 0x1F AND DUP3 ADD SWAP2 JUMPDEST POP POP POP POP POP SWAP1 DUP1 PUSH1 0x1 ADD SLOAD SWAP1 DUP1 PUSH1 0x2 ADD SLOAD SWAP1 POP DUP4 JUMP JUMPDEST PUSH1 0x1 PUSH1 0x20 MSTORE DUP2 PUSH1 0x0 MSTORE PUSH1 0x40 PUSH1 0x0 KECCAK256 DUP2 DUP1 MLOAD PUSH1 0x20 DUP2 ADD DUP3 ADD DUP1 MLOAD DUP5 DUP3 MSTORE PUSH1 0x20 DUP4 ADD PUSH1 0x20 DUP6 ADD KECCAK256 DUP2 DUP4 MSTORE DUP1 SWAP6 POP POP POP POP POP POP PUSH1 0x0 SWAP2 POP SWAP2 POP POP SLOAD DUP2 JUMP JUMPDEST PUSH1 0x7 PUSH1 0x20 MSTORE DUP1 PUSH1 0x0 MSTORE PUSH1 0x40 PUSH1 0x0 KECCAK256 PUSH1 0x0 SWAP2 POP SWAP1 POP DUP1 PUSH1 0x0 ADD SLOAD SWAP1 DUP1 PUSH1 0x1 ADD SLOAD SWAP1 DUP1 PUSH1 0x2 ADD PUSH1 0x0 SWAP1 SLOAD SWAP1 PUSH2 0x100 EXP SWAP1 DIV PUSH20 0xFFFFFFFFFFFFFFFFFFFFFFFFFFFFFFFFFFFFFFFF AND SWAP1 DUP1 PUSH1 0x3 ADD DUP1 SLOAD PUSH2 0xB54 SWAP1 PUSH2 0x26FB JUMP JUMPDEST DUP1 PUSH1 0x1F ADD PUSH1 0x20 DUP1 SWAP2 DIV MUL PUSH1 0x20 ADD PUSH1 0x40 MLOAD SWAP1 DUP2 ADD PUSH1 0x40 MSTORE DUP1 SWAP3 SWAP2 SWAP1 DUP2 DUP2 MSTORE PUSH1 0x20 ADD DUP3 DUP1 SLOAD PUSH2 0xB80 SWAP1 PUSH2 0x26FB JUMP JUMPDEST DUP1 ISZERO PUSH2 0xBCD JUMPI DUP1 PUSH1 0x1F LT PUSH2 0xBA2 JUMPI PUSH2 0x100 DUP1 DUP4 SLOAD DIV MUL DUP4 MSTORE SWAP2 PUSH1 0x20 ADD SWAP2 PUSH2 0xBCD JUMP JUMPDEST DUP3 ADD SWAP2 SWAP1 PUSH1 0x0 MSTORE PUSH1 0x20 PUSH1 0x0 KECCAK256 SWAP1 JUMPDEST DUP2 SLOAD DUP2 MSTORE SWAP1 PUSH1 0x1 ADD SWAP1 PUSH1 0x20 ADD DUP1 DUP4 GT PUSH2 0xBB0 JUMPI DUP3 SWAP1 SUB PUSH1 0x1F AND DUP3 ADD SWAP2 JUMPDEST POP POP POP POP POP SWAP1 DUP1 PUSH1 0x4 ADD SLOAD SWAP1 DUP1 PUSH1 0x5 ADD SLOAD SWAP1 DUP1 PUSH1 0x6 ADD SLOAD SWAP1 POP DUP8 JUMP JUMPDEST PUSH2 0xBF1 PUSH2 0x18DE JUMP JUMPDEST PUSH1 0x0 DUP1 SLOAD SWAP1 PUSH2 0x100 EXP SWAP1 DIV PUSH20 0xFFFFFFFFFFFFFFFFFFFFFFFFFFFFFFFFFFFFFFFF AND PUSH20 0xFFFFFFFFFFFFFFFFFFFFFFFFFFFFFFFFFFFFFFFF AND CALLER PUSH20 0xFFFFFFFFFFFFFFFFFFFFFFFFFFFFFFFFFFFFFFFF AND EQ PUSH2 0xC7F JUMPI PUSH1 0x40 MLOAD PUSH32 0x8C379A000000000000000000000000000000000000000000000000000000000 DUP2 MSTORE PUSH1 0x4 ADD PUSH2 0xC76 SWAP1 PUSH2 0x2283 JUMP JUMPDEST PUSH1 0x40 MLOAD DUP1 SWAP2 SUB SWAP1 REVERT JUMPDEST PUSH1 0x6 SLOAD DUP4 GT ISZERO DUP1 ISZERO PUSH2 0xC91 JUMPI POP PUSH1 0x0 DUP4 GT JUMPDEST PUSH2 0xCD0 JUMPI PUSH1 0x40 MLOAD PUSH32 0x8C379A000000000000000000000000000000000000000000000000000000000 DUP2 MSTORE PUSH1 0x4 ADD PUSH2 0xCC7 SWAP1 PUSH2 0x2263 JUMP JUMPDEST PUSH1 0x40 MLOAD DUP1 SWAP2 SUB SWAP1 REVERT JUMPDEST PUSH32 0xFFFFFFFFFFFFFFFFFFFFFFFFFFFFFFFFFFFFFFFFFFFFFFFFFFFFFFFFFFFFFFFF PUSH1 0x7 PUSH1 0x0 DUP6 DUP2 MSTORE PUSH1 0x20 ADD SWAP1 DUP2 MSTORE PUSH1 0x20 ADD PUSH1 0x0 KECCAK256 PUSH1 0x6 ADD SLOAD EQ PUSH2 0xD48 JUMPI PUSH1 0x40 MLOAD PUSH32 0x8C379A000000000000000000000000000000000000000000000000000000000 DUP2 MSTORE PUSH1 0x4 ADD PUSH2 0xD3F SWAP1 PUSH2 0x21C3 JUMP JUMPDEST PUSH1 0x40 MLOAD DUP1 SWAP2 SUB SWAP1 REVERT JUMPDEST PUSH1 0x0 PUSH1 0x7 PUSH1 0x0 DUP6 DUP2 MSTORE PUSH1 0x20 ADD SWAP1 DUP2 MSTORE PUSH1 0x20 ADD PUSH1 0x0 KECCAK256 PUSH1 0x2 ADD PUSH1 0x0 SWAP1 SLOAD SWAP1 PUSH2 0x100 EXP SWAP1 DIV PUSH20 0xFFFFFFFFFFFFFFFFFFFFFFFFFFFFFFFFFFFFFFFF AND SWAP1 POP PUSH1 0x0 PUSH1 0x5 PUSH1 0x0 PUSH1 0x7 PUSH1 0x0 DUP9 DUP2 MSTORE PUSH1 0x20 ADD SWAP1 DUP2 MSTORE PUSH1 0x20 ADD PUSH1 0x0 KECCAK256 PUSH1 0x1 ADD SLOAD DUP2 MSTORE PUSH1 0x20 ADD SWAP1 DUP2 MSTORE PUSH1 0x20 ADD PUSH1 0x0 KECCAK256 PUSH1 0x4 ADD SLOAD SWAP1 POP PUSH1 0x0 PUSH1 0x7 PUSH1 0x0 DUP8 DUP2 MSTORE PUSH1 0x20 ADD SWAP1 DUP2 MSTORE PUSH1 0x20 ADD PUSH1 0x0 KECCAK256 PUSH1 0x5 ADD SLOAD SWAP1 POP PUSH1 0x0 DUP6 DUP3 DUP5 PUSH2 0xDDE SWAP2 SWAP1 PUSH2 0x25EB JUMP JUMPDEST PUSH2 0xDE8 SWAP2 SWAP1 PUSH2 0x25EB JUMP JUMPDEST SWAP1 POP PUSH1 0xA PUSH1 0x0 SWAP1 SLOAD SWAP1 PUSH2 0x100 EXP SWAP1 DIV PUSH20 0xFFFFFFFFFFFFFFFFFFFFFFFFFFFFFFFFFFFFFFFF AND PUSH20 0xFFFFFFFFFFFFFFFFFFFFFFFFFFFFFFFFFFFFFFFF AND PUSH4 0x23B872DD PUSH1 0x0 DUP1 SLOAD SWAP1 PUSH2 0x100 EXP SWAP1 DIV PUSH20 0xFFFFFFFFFFFFFFFFFFFFFFFFFFFFFFFFFFFFFFFF AND DUP7 DUP5 PUSH1 0x40 MLOAD DUP5 PUSH4 0xFFFFFFFF AND PUSH1 0xE0 SHL DUP2 MSTORE PUSH1 0x4 ADD PUSH2 0xE69 SWAP4 SWAP3 SWAP2 SWAP1 PUSH2 0x20FD JUMP JUMPDEST PUSH1 0x20 PUSH1 0x40 MLOAD DUP1 DUP4 SUB DUP2 PUSH1 0x0 DUP8 DUP1 EXTCODESIZE ISZERO DUP1 ISZERO PUSH2 0xE83 JUMPI PUSH1 0x0 DUP1 REVERT JUMPDEST POP GAS CALL ISZERO DUP1 ISZERO PUSH2 0xE97 JUMPI RETURNDATASIZE PUSH1 0x0 DUP1 RETURNDATACOPY RETURNDATASIZE PUSH1 0x0 REVERT JUMPDEST POP POP POP POP PUSH1 0x40 MLOAD RETURNDATASIZE PUSH1 0x1F NOT PUSH1 0x1F DUP3 ADD AND DUP3 ADD DUP1 PUSH1 0x40 MSTORE POP DUP2 ADD SWAP1 PUSH2 0xEBB SWAP2 SWAP1 PUSH2 0x1AF4 JUMP JUMPDEST POP PUSH1 0x0 PUSH1 0x40 MLOAD DUP1 PUSH1 0xA0 ADD PUSH1 0x40 MSTORE DUP1 PUSH1 0x8 SLOAD DUP2 MSTORE PUSH1 0x20 ADD DUP10 DUP2 MSTORE PUSH1 0x20 ADD DUP7 PUSH20 0xFFFFFFFFFFFFFFFFFFFFFFFFFFFFFFFFFFFFFFFF AND DUP2 MSTORE PUSH1 0x20 ADD DUP9 DUP2 MSTORE PUSH1 0x20 ADD DUP4 DUP2 MSTORE POP SWAP1 POP DUP1 PUSH1 0x9 PUSH1 0x0 PUSH1 0x8 SLOAD DUP2 MSTORE PUSH1 0x20 ADD SWAP1 DUP2 MSTORE PUSH1 0x20 ADD PUSH1 0x0 KECCAK256 PUSH1 0x0 DUP3 ADD MLOAD DUP2 PUSH1 0x0 ADD SSTORE PUSH1 0x20 DUP3 ADD MLOAD DUP2 PUSH1 0x1 ADD SSTORE PUSH1 0x40 DUP3 ADD MLOAD DUP2 PUSH1 0x2 ADD PUSH1 0x0 PUSH2 0x100 EXP DUP2 SLOAD DUP2 PUSH20 0xFFFFFFFFFFFFFFFFFFFFFFFFFFFFFFFFFFFFFFFF MUL NOT AND SWAP1 DUP4 PUSH20 0xFFFFFFFFFFFFFFFFFFFFFFFFFFFFFFFFFFFFFFFF AND MUL OR SWAP1 SSTORE POP PUSH1 0x60 DUP3 ADD MLOAD DUP2 PUSH1 0x3 ADD SSTORE PUSH1 0x80 DUP3 ADD MLOAD DUP2 PUSH1 0x4 ADD SSTORE SWAP1 POP POP PUSH1 0x8 SLOAD PUSH1 0x7 PUSH1 0x0 DUP11 DUP2 MSTORE PUSH1 0x20 ADD SWAP1 DUP2 MSTORE PUSH1 0x20 ADD PUSH1 0x0 KECCAK256 PUSH1 0x6 ADD DUP2 SWAP1 SSTORE POP PUSH1 0x1 PUSH1 0x8 PUSH1 0x0 DUP3 DUP3 SLOAD PUSH2 0xFB7 SWAP2 SWAP1 PUSH2 0x250A JUMP JUMPDEST SWAP3 POP POP DUP2 SWAP1 SSTORE POP DUP1 SWAP6 POP POP POP POP POP POP SWAP3 SWAP2 POP POP JUMP JUMPDEST PUSH1 0x6 SLOAD DUP2 JUMP JUMPDEST PUSH1 0x3 DUP2 DUP1 MLOAD PUSH1 0x20 DUP2 ADD DUP3 ADD DUP1 MLOAD DUP5 DUP3 MSTORE PUSH1 0x20 DUP4 ADD PUSH1 0x20 DUP6 ADD KECCAK256 DUP2 DUP4 MSTORE DUP1 SWAP6 POP POP POP POP POP POP PUSH1 0x0 SWAP2 POP SWAP1 POP SLOAD DUP2 JUMP JUMPDEST PUSH2 0x1008 PUSH2 0x1923 JUMP JUMPDEST PUSH1 0xB PUSH1 0x0 SWAP1 SLOAD SWAP1 PUSH2 0x100 EXP SWAP1 DIV PUSH20 0xFFFFFFFFFFFFFFFFFFFFFFFFFFFFFFFFFFFFFFFF AND PUSH20 0xFFFFFFFFFFFFFFFFFFFFFFFFFFFFFFFFFFFFFFFF AND PUSH4 0xE701C350 CALLER PUSH1 0x40 MLOAD DUP3 PUSH4 0xFFFFFFFF AND PUSH1 0xE0 SHL DUP2 MSTORE PUSH1 0x4 ADD PUSH2 0x1063 SWAP2 SWAP1 PUSH2 0x20E2 JUMP JUMPDEST PUSH1 0x20 PUSH1 0x40 MLOAD DUP1 DUP4 SUB DUP2 DUP7 DUP1 EXTCODESIZE ISZERO DUP1 ISZERO PUSH2 0x107B JUMPI PUSH1 0x0 DUP1 REVERT JUMPDEST POP GAS STATICCALL ISZERO DUP1 ISZERO PUSH2 0x108F JUMPI RETURNDATASIZE PUSH1 0x0 DUP1 RETURNDATACOPY RETURNDATASIZE PUSH1 0x0 REVERT JUMPDEST POP POP POP POP PUSH1 0x40 MLOAD RETURNDATASIZE PUSH1 0x1F NOT PUSH1 0x1F DUP3 ADD AND DUP3 ADD DUP1 PUSH1 0x40 MSTORE POP DUP2 ADD SWAP1 PUSH2 0x10B3 SWAP2 SWAP1 PUSH2 0x1AF4 JUMP JUMPDEST PUSH2 0x10F2 JUMPI PUSH1 0x40 MLOAD PUSH32 0x8C379A000000000000000000000000000000000000000000000000000000000 DUP2 MSTORE PUSH1 0x4 ADD PUSH2 0x10E9 SWAP1 PUSH2 0x2203 JUMP JUMPDEST PUSH1 0x40 MLOAD DUP1 SWAP2 SUB SWAP1 REVERT JUMPDEST PUSH1 0x0 PUSH1 0x3 DUP6 DUP6 PUSH1 0x40 MLOAD PUSH2 0x1106 SWAP3 SWAP2 SWAP1 PUSH2 0x20B2 JUMP JUMPDEST SWAP1 DUP2 MSTORE PUSH1 0x20 ADD PUSH1 0x40 MLOAD DUP1 SWAP2 SUB SWAP1 KECCAK256 SLOAD GT PUSH2 0x1155 JUMPI PUSH1 0x40 MLOAD PUSH32 0x8C379A000000000000000000000000000000000000000000000000000000000 DUP2 MSTORE PUSH1 0x4 ADD PUSH2 0x114C SWAP1 PUSH2 0x21E3 JUMP JUMPDEST PUSH1 0x40 MLOAD DUP1 SWAP2 SUB SWAP1 REVERT JUMPDEST PUSH1 0x0 PUSH1 0x2 DUP6 DUP6 PUSH1 0x40 MLOAD PUSH2 0x1169 SWAP3 SWAP2 SWAP1 PUSH2 0x20B2 JUMP JUMPDEST SWAP1 DUP2 MSTORE PUSH1 0x20 ADD PUSH1 0x40 MLOAD DUP1 SWAP2 SUB SWAP1 KECCAK256 PUSH1 0x2 ADD SLOAD DUP4 PUSH2 0x1186 SWAP2 SWAP1 PUSH2 0x2591 JUMP JUMPDEST PUSH1 0x2 DUP7 DUP7 PUSH1 0x40 MLOAD PUSH2 0x1198 SWAP3 SWAP2 SWAP1 PUSH2 0x20B2 JUMP JUMPDEST SWAP1 DUP2 MSTORE PUSH1 0x20 ADD PUSH1 0x40 MLOAD DUP1 SWAP2 SUB SWAP1 KECCAK256 PUSH1 0x1 ADD SLOAD PUSH2 0x11B4 SWAP2 SWAP1 PUSH2 0x250A JUMP JUMPDEST SWAP1 POP PUSH1 0x1 DUP1 PUSH1 0x0 CALLER PUSH20 0xFFFFFFFFFFFFFFFFFFFFFFFFFFFFFFFFFFFFFFFF AND PUSH20 0xFFFFFFFFFFFFFFFFFFFFFFFFFFFFFFFFFFFFFFFF AND DUP2 MSTORE PUSH1 0x20 ADD SWAP1 DUP2 MSTORE PUSH1 0x20 ADD PUSH1 0x0 KECCAK256 DUP7 DUP7 PUSH1 0x40 MLOAD PUSH2 0x1206 SWAP3 SWAP2 SWAP1 PUSH2 0x20B2 JUMP JUMPDEST SWAP1 DUP2 MSTORE PUSH1 0x20 ADD PUSH1 0x40 MLOAD DUP1 SWAP2 SUB SWAP1 KECCAK256 PUSH1 0x0 DUP3 DUP3 SLOAD PUSH2 0x1223 SWAP2 SWAP1 PUSH2 0x250A JUMP JUMPDEST SWAP3 POP POP DUP2 SWAP1 SSTORE POP PUSH1 0x1 PUSH1 0x3 DUP7 DUP7 PUSH1 0x40 MLOAD PUSH2 0x123E SWAP3 SWAP2 SWAP1 PUSH2 0x20B2 JUMP JUMPDEST SWAP1 DUP2 MSTORE PUSH1 0x20 ADD PUSH1 0x40 MLOAD DUP1 SWAP2 SUB SWAP1 KECCAK256 PUSH1 0x0 DUP3 DUP3 SLOAD PUSH2 0x125B SWAP2 SWAP1 PUSH2 0x25EB JUMP JUMPDEST SWAP3 POP POP DUP2 SWAP1 SSTORE POP PUSH1 0x0 PUSH1 0x40 MLOAD DUP1 PUSH1 0xE0 ADD PUSH1 0x40 MSTORE DUP1 PUSH1 0x4 SLOAD DUP2 MSTORE PUSH1 0x20 ADD CALLER PUSH20 0xFFFFFFFFFFFFFFFFFFFFFFFFFFFFFFFFFFFFFFFF AND DUP2 MSTORE PUSH1 0x20 ADD DUP8 DUP8 DUP1 DUP1 PUSH1 0x1F ADD PUSH1 0x20 DUP1 SWAP2 DIV MUL PUSH1 0x20 ADD PUSH1 0x40 MLOAD SWAP1 DUP2 ADD PUSH1 0x40 MSTORE DUP1 SWAP4 SWAP3 SWAP2 SWAP1 DUP2 DUP2 MSTORE PUSH1 0x20 ADD DUP4 DUP4 DUP1 DUP3 DUP5 CALLDATACOPY PUSH1 0x0 DUP2 DUP5 ADD MSTORE PUSH1 0x1F NOT PUSH1 0x1F DUP3 ADD AND SWAP1 POP DUP1 DUP4 ADD SWAP3 POP POP POP POP POP POP POP DUP2 MSTORE PUSH1 0x20 ADD DUP6 DUP2 MSTORE PUSH1 0x20 ADD CALLVALUE DUP2 MSTORE PUSH1 0x20 ADD TIMESTAMP DUP2 MSTORE PUSH1 0x20 ADD PUSH32 0xFFFFFFFFFFFFFFFFFFFFFFFFFFFFFFFFFFFFFFFFFFFFFFFFFFFFFFFFFFFFFFFF DUP2 MSTORE POP SWAP1 POP DUP1 PUSH1 0x5 PUSH1 0x0 PUSH1 0x4 SLOAD DUP2 MSTORE PUSH1 0x20 ADD SWAP1 DUP2 MSTORE PUSH1 0x20 ADD PUSH1 0x0 KECCAK256 PUSH1 0x0 DUP3 ADD MLOAD DUP2 PUSH1 0x0 ADD SSTORE PUSH1 0x20 DUP3 ADD MLOAD DUP2 PUSH1 0x1 ADD PUSH1 0x0 PUSH2 0x100 EXP DUP2 SLOAD DUP2 PUSH20 0xFFFFFFFFFFFFFFFFFFFFFFFFFFFFFFFFFFFFFFFF MUL NOT AND SWAP1 DUP4 PUSH20 0xFFFFFFFFFFFFFFFFFFFFFFFFFFFFFFFFFFFFFFFF AND MUL OR SWAP1 SSTORE POP PUSH1 0x40 DUP3 ADD MLOAD DUP2 PUSH1 0x2 ADD SWAP1 DUP1 MLOAD SWAP1 PUSH1 0x20 ADD SWAP1 PUSH2 0x1398 SWAP3 SWAP2 SWAP1 PUSH2 0x1858 JUMP JUMPDEST POP PUSH1 0x60 DUP3 ADD MLOAD DUP2 PUSH1 0x3 ADD SSTORE PUSH1 0x80 DUP3 ADD MLOAD DUP2 PUSH1 0x4 ADD SSTORE PUSH1 0xA0 DUP3 ADD MLOAD DUP2 PUSH1 0x5 ADD SSTORE PUSH1 0xC0 DUP3 ADD MLOAD DUP2 PUSH1 0x6 ADD SSTORE SWAP1 POP POP PUSH1 0x1 PUSH1 0x4 PUSH1 0x0 DUP3 DUP3 SLOAD PUSH2 0x13D7 SWAP2 SWAP1 PUSH2 0x250A JUMP JUMPDEST SWAP3 POP POP DUP2 SWAP1 SSTORE POP PUSH1 0xA PUSH1 0x0 SWAP1 SLOAD SWAP1 PUSH2 0x100 EXP SWAP1 DIV PUSH20 0xFFFFFFFFFFFFFFFFFFFFFFFFFFFFFFFFFFFFFFFF AND PUSH20 0xFFFFFFFFFFFFFFFFFFFFFFFFFFFFFFFFFFFFFFFF AND PUSH4 0x23B872DD CALLER PUSH1 0x0 DUP1 SLOAD SWAP1 PUSH2 0x100 EXP SWAP1 DIV PUSH20 0xFFFFFFFFFFFFFFFFFFFFFFFFFFFFFFFFFFFFFFFF AND DUP6 PUSH1 0x40 MLOAD DUP5 PUSH4 0xFFFFFFFF AND PUSH1 0xE0 SHL DUP2 MSTORE PUSH1 0x4 ADD PUSH2 0x145D SWAP4 SWAP3 SWAP2 SWAP1 PUSH2 0x20FD JUMP JUMPDEST PUSH1 0x20 PUSH1 0x40 MLOAD DUP1 DUP4 SUB DUP2 PUSH1 0x0 DUP8 DUP1 EXTCODESIZE ISZERO DUP1 ISZERO PUSH2 0x1477 JUMPI PUSH1 0x0 DUP1 REVERT JUMPDEST POP GAS CALL ISZERO DUP1 ISZERO PUSH2 0x148B JUMPI RETURNDATASIZE PUSH1 0x0 DUP1 RETURNDATACOPY RETURNDATASIZE PUSH1 0x0 REVERT JUMPDEST POP POP POP POP PUSH1 0x40 MLOAD RETURNDATASIZE PUSH1 0x1F NOT PUSH1 0x1F DUP3 ADD AND DUP3 ADD DUP1 PUSH1 0x40 MSTORE POP DUP2 ADD SWAP1 PUSH2 0x14AF SWAP2 SWAP1 PUSH2 0x1AF4 JUMP JUMPDEST POP DUP1 SWAP3 POP POP POP SWAP4 SWAP3 POP POP POP JUMP JUMPDEST PUSH1 0xB PUSH1 0x0 SWAP1 SLOAD SWAP1 PUSH2 0x100 EXP SWAP1 DIV PUSH20 0xFFFFFFFFFFFFFFFFFFFFFFFFFFFFFFFFFFFFFFFF AND DUP2 JUMP JUMPDEST PUSH1 0x0 DUP1 PUSH1 0x0 SWAP1 SLOAD SWAP1 PUSH2 0x100 EXP SWAP1 DIV PUSH20 0xFFFFFFFFFFFFFFFFFFFFFFFFFFFFFFFFFFFFFFFF AND PUSH20 0xFFFFFFFFFFFFFFFFFFFFFFFFFFFFFFFFFFFFFFFF AND CALLER PUSH20 0xFFFFFFFFFFFFFFFFFFFFFFFFFFFFFFFFFFFFFFFF AND EQ PUSH2 0x1573 JUMPI PUSH1 0x40 MLOAD PUSH32 0x8C379A000000000000000000000000000000000000000000000000000000000 DUP2 MSTORE PUSH1 0x4 ADD PUSH2 0x156A SWAP1 PUSH2 0x2283 JUMP JUMPDEST PUSH1 0x40 MLOAD DUP1 SWAP2 SUB SWAP1 REVERT JUMPDEST PUSH1 0x40 MLOAD DUP1 PUSH1 0x60 ADD PUSH1 0x40 MSTORE DUP1 DUP7 DUP7 DUP1 DUP1 PUSH1 0x1F ADD PUSH1 0x20 DUP1 SWAP2 DIV MUL PUSH1 0x20 ADD PUSH1 0x40 MLOAD SWAP1 DUP2 ADD PUSH1 0x40 MSTORE DUP1 SWAP4 SWAP3 SWAP2 SWAP1 DUP2 DUP2 MSTORE PUSH1 0x20 ADD DUP4 DUP4 DUP1 DUP3 DUP5 CALLDATACOPY PUSH1 0x0 DUP2 DUP5 ADD MSTORE PUSH1 0x1F NOT PUSH1 0x1F DUP3 ADD AND SWAP1 POP DUP1 DUP4 ADD SWAP3 POP POP POP POP POP POP POP DUP2 MSTORE PUSH1 0x20 ADD PUSH1 0x5A DUP6 PUSH2 0x15D5 SWAP2 SWAP1 PUSH2 0x2591 JUMP JUMPDEST DUP2 MSTORE PUSH1 0x20 ADD DUP5 DUP2 MSTORE POP PUSH1 0x2 DUP7 DUP7 PUSH1 0x40 MLOAD PUSH2 0x15F0 SWAP3 SWAP2 SWAP1 PUSH2 0x20B2 JUMP JUMPDEST SWAP1 DUP2 MSTORE PUSH1 0x20 ADD PUSH1 0x40 MLOAD DUP1 SWAP2 SUB SWAP1 KECCAK256 PUSH1 0x0 DUP3 ADD MLOAD DUP2 PUSH1 0x0 ADD SWAP1 DUP1 MLOAD SWAP1 PUSH1 0x20 ADD SWAP1 PUSH2 0x161A SWAP3 SWAP2 SWAP1 PUSH2 0x1858 JUMP JUMPDEST POP PUSH1 0x20 DUP3 ADD MLOAD DUP2 PUSH1 0x1 ADD SSTORE PUSH1 0x40 DUP3 ADD MLOAD DUP2 PUSH1 0x2 ADD SSTORE SWAP1 POP POP DUP2 PUSH1 0x3 DUP7 DUP7 PUSH1 0x40 MLOAD PUSH2 0x1645 SWAP3 SWAP2 SWAP1 PUSH2 0x20B2 JUMP JUMPDEST SWAP1 DUP2 MSTORE PUSH1 0x20 ADD PUSH1 0x40 MLOAD DUP1 SWAP2 SUB SWAP1 KECCAK256 PUSH1 0x0 DUP3 DUP3 SLOAD PUSH2 0x1662 SWAP2 SWAP1 PUSH2 0x250A JUMP JUMPDEST SWAP3 POP POP DUP2 SWAP1 SSTORE POP PUSH1 0x1 SWAP1 POP SWAP5 SWAP4 POP POP POP POP JUMP JUMPDEST PUSH1 0x4 SLOAD DUP2 JUMP JUMPDEST PUSH1 0x9 PUSH1 0x20 MSTORE DUP1 PUSH1 0x0 MSTORE PUSH1 0x40 PUSH1 0x0 KECCAK256 PUSH1 0x0 SWAP2 POP SWAP1 POP DUP1 PUSH1 0x0 ADD SLOAD SWAP1 DUP1 PUSH1 0x1 ADD SLOAD SWAP1 DUP1 PUSH1 0x2 ADD PUSH1 0x0 SWAP1 SLOAD SWAP1 PUSH2 0x100 EXP SWAP1 DIV PUSH20 0xFFFFFFFFFFFFFFFFFFFFFFFFFFFFFFFFFFFFFFFF AND SWAP1 DUP1 PUSH1 0x3 ADD SLOAD SWAP1 DUP1 PUSH1 0x4 ADD SLOAD SWAP1 POP DUP6 JUMP JUMPDEST PUSH1 0xA PUSH1 0x0 SWAP1 SLOAD SWAP1 PUSH2 0x100 EXP SWAP1 DIV PUSH20 0xFFFFFFFFFFFFFFFFFFFFFFFFFFFFFFFFFFFFFFFF AND DUP2 JUMP JUMPDEST PUSH1 0x5 PUSH1 0x20 MSTORE DUP1 PUSH1 0x0 MSTORE PUSH1 0x40 PUSH1 0x0 KECCAK256 PUSH1 0x0 SWAP2 POP SWAP1 POP DUP1 PUSH1 0x0 ADD SLOAD SWAP1 DUP1 PUSH1 0x1 ADD PUSH1 0x0 SWAP1 SLOAD SWAP1 PUSH2 0x100 EXP SWAP1 DIV PUSH20 0xFFFFFFFFFFFFFFFFFFFFFFFFFFFFFFFFFFFFFFFF AND SWAP1 DUP1 PUSH1 0x2 ADD DUP1 SLOAD PUSH2 0x1746 SWAP1 PUSH2 0x26FB JUMP JUMPDEST DUP1 PUSH1 0x1F ADD PUSH1 0x20 DUP1 SWAP2 DIV MUL PUSH1 0x20 ADD PUSH1 0x40 MLOAD SWAP1 DUP2 ADD PUSH1 0x40 MSTORE DUP1 SWAP3 SWAP2 SWAP1 DUP2 DUP2 MSTORE PUSH1 0x20 ADD DUP3 DUP1 SLOAD PUSH2 0x1772 SWAP1 PUSH2 0x26FB JUMP JUMPDEST DUP1 ISZERO PUSH2 0x17BF JUMPI DUP1 PUSH1 0x1F LT PUSH2 0x1794 JUMPI PUSH2 0x100 DUP1 DUP4 SLOAD DIV MUL DUP4 MSTORE SWAP2 PUSH1 0x20 ADD SWAP2 PUSH2 0x17BF JUMP JUMPDEST DUP3 ADD SWAP2 SWAP1 PUSH1 0x0 MSTORE PUSH1 0x20 PUSH1 0x0 KECCAK256 SWAP1 JUMPDEST DUP2 SLOAD DUP2 MSTORE SWAP1 PUSH1 0x1 ADD SWAP1 PUSH1 0x20 ADD DUP1 DUP4 GT PUSH2 0x17A2 JUMPI DUP3 SWAP1 SUB PUSH1 0x1F AND DUP3 ADD SWAP2 JUMPDEST POP POP POP POP POP SWAP1 DUP1 PUSH1 0x3 ADD SLOAD SWAP1 DUP1 PUSH1 0x4 ADD SLOAD SWAP1 DUP1 PUSH1 0x5 ADD SLOAD SWAP1 DUP1 PUSH1 0x6 ADD SLOAD SWAP1 POP DUP8 JUMP JUMPDEST PUSH1 0x0 DUP1 SLOAD SWAP1 PUSH2 0x100 EXP SWAP1 DIV PUSH20 0xFFFFFFFFFFFFFFFFFFFFFFFFFFFFFFFFFFFFFFFF AND DUP2 JUMP JUMPDEST PUSH1 0x40 MLOAD DUP1 PUSH1 0xE0 ADD PUSH1 0x40 MSTORE DUP1 PUSH1 0x0 DUP2 MSTORE PUSH1 0x20 ADD PUSH1 0x0 DUP2 MSTORE PUSH1 0x20 ADD PUSH1 0x0 PUSH20 0xFFFFFFFFFFFFFFFFFFFFFFFFFFFFFFFFFFFFFFFF AND DUP2 MSTORE PUSH1 0x20 ADD PUSH1 0x60 DUP2 MSTORE PUSH1 0x20 ADD PUSH1 0x0 DUP2 MSTORE PUSH1 0x20 ADD PUSH1 0x0 DUP2 MSTORE PUSH1 0x20 ADD PUSH1 0x0 DUP2 MSTORE POP SWAP1 JUMP JUMPDEST DUP3 DUP1 SLOAD PUSH2 0x1864 SWAP1 PUSH2 0x26FB JUMP JUMPDEST SWAP1 PUSH1 0x0 MSTORE PUSH1 0x20 PUSH1 0x0 KECCAK256 SWAP1 PUSH1 0x1F ADD PUSH1 0x20 SWAP1 DIV DUP2 ADD SWAP3 DUP3 PUSH2 0x1886 JUMPI PUSH1 0x0 DUP6 SSTORE PUSH2 0x18CD JUMP JUMPDEST DUP3 PUSH1 0x1F LT PUSH2 0x189F JUMPI DUP1 MLOAD PUSH1 0xFF NOT AND DUP4 DUP1 ADD OR DUP6 SSTORE PUSH2 0x18CD JUMP JUMPDEST DUP3 DUP1 ADD PUSH1 0x1 ADD DUP6 SSTORE DUP3 ISZERO PUSH2 0x18CD JUMPI SWAP2 DUP3 ADD JUMPDEST DUP3 DUP2 GT ISZERO PUSH2 0x18CC JUMPI DUP3 MLOAD DUP3 SSTORE SWAP2 PUSH1 0x20 ADD SWAP2 SWAP1 PUSH1 0x1 ADD SWAP1 PUSH2 0x18B1 JUMP JUMPDEST JUMPDEST POP SWAP1 POP PUSH2 0x18DA SWAP2 SWAP1 PUSH2 0x1976 JUMP JUMPDEST POP SWAP1 JUMP JUMPDEST PUSH1 0x40 MLOAD DUP1 PUSH1 0xA0 ADD PUSH1 0x40 MSTORE DUP1 PUSH1 0x0 DUP2 MSTORE PUSH1 0x20 ADD PUSH1 0x0 DUP2 MSTORE PUSH1 0x20 ADD PUSH1 0x0 PUSH20 0xFFFFFFFFFFFFFFFFFFFFFFFFFFFFFFFFFFFFFFFF AND DUP2 MSTORE PUSH1 0x20 ADD PUSH1 0x0 DUP2 MSTORE PUSH1 0x20 ADD PUSH1 0x0 DUP2 MSTORE POP SWAP1 JUMP JUMPDEST PUSH1 0x40 MLOAD DUP1 PUSH1 0xE0 ADD PUSH1 0x40 MSTORE DUP1 PUSH1 0x0 DUP2 MSTORE PUSH1 0x20 ADD PUSH1 0x0 PUSH20 0xFFFFFFFFFFFFFFFFFFFFFFFFFFFFFFFFFFFFFFFF AND DUP2 MSTORE PUSH1 0x20 ADD PUSH1 0x60 DUP2 MSTORE PUSH1 0x20 ADD PUSH1 0x0 DUP2 MSTORE PUSH1 0x20 ADD PUSH1 0x0 DUP2 MSTORE PUSH1 0x20 ADD PUSH1 0x0 DUP2 MSTORE PUSH1 0x20 ADD PUSH1 0x0 DUP2 MSTORE POP SWAP1 JUMP JUMPDEST JUMPDEST DUP1 DUP3 GT ISZERO PUSH2 0x198F JUMPI PUSH1 0x0 DUP2 PUSH1 0x0 SWAP1 SSTORE POP PUSH1 0x1 ADD PUSH2 0x1977 JUMP JUMPDEST POP SWAP1 JUMP JUMPDEST PUSH1 0x0 PUSH2 0x19A6 PUSH2 0x19A1 DUP5 PUSH2 0x24A1 JUMP JUMPDEST PUSH2 0x247C JUMP JUMPDEST SWAP1 POP DUP3 DUP2 MSTORE PUSH1 0x20 DUP2 ADD DUP5 DUP5 DUP5 ADD GT ISZERO PUSH2 0x19C2 JUMPI PUSH2 0x19C1 PUSH2 0x2829 JUMP JUMPDEST JUMPDEST PUSH2 0x19CD DUP5 DUP3 DUP6 PUSH2 0x26B9 JUMP JUMPDEST POP SWAP4 SWAP3 POP POP POP JUMP JUMPDEST PUSH1 0x0 DUP2 CALLDATALOAD SWAP1 POP PUSH2 0x19E4 DUP2 PUSH2 0x2A29 JUMP JUMPDEST SWAP3 SWAP2 POP POP JUMP JUMPDEST PUSH1 0x0 DUP2 MLOAD SWAP1 POP PUSH2 0x19F9 DUP2 PUSH2 0x2A40 JUMP JUMPDEST SWAP3 SWAP2 POP POP JUMP JUMPDEST PUSH1 0x0 DUP1 DUP4 PUSH1 0x1F DUP5 ADD SLT PUSH2 0x1A15 JUMPI PUSH2 0x1A14 PUSH2 0x281F JUMP JUMPDEST JUMPDEST DUP3 CALLDATALOAD SWAP1 POP PUSH8 0xFFFFFFFFFFFFFFFF DUP2 GT ISZERO PUSH2 0x1A32 JUMPI PUSH2 0x1A31 PUSH2 0x281A JUMP JUMPDEST JUMPDEST PUSH1 0x20 DUP4 ADD SWAP2 POP DUP4 PUSH1 0x1 DUP3 MUL DUP4 ADD GT ISZERO PUSH2 0x1A4E JUMPI PUSH2 0x1A4D PUSH2 0x2824 JUMP JUMPDEST JUMPDEST SWAP3 POP SWAP3 SWAP1 POP JUMP JUMPDEST PUSH1 0x0 DUP3 PUSH1 0x1F DUP4 ADD SLT PUSH2 0x1A6A JUMPI PUSH2 0x1A69 PUSH2 0x281F JUMP JUMPDEST JUMPDEST DUP2 CALLDATALOAD PUSH2 0x1A7A DUP5 DUP3 PUSH1 0x20 DUP7 ADD PUSH2 0x1993 JUMP JUMPDEST SWAP2 POP POP SWAP3 SWAP2 POP POP JUMP JUMPDEST PUSH1 0x0 DUP2 CALLDATALOAD SWAP1 POP PUSH2 0x1A92 DUP2 PUSH2 0x2A57 JUMP JUMPDEST SWAP3 SWAP2 POP POP JUMP JUMPDEST PUSH1 0x0 DUP1 PUSH1 0x40 DUP4 DUP6 SUB SLT ISZERO PUSH2 0x1AAF JUMPI PUSH2 0x1AAE PUSH2 0x2833 JUMP JUMPDEST JUMPDEST PUSH1 0x0 PUSH2 0x1ABD DUP6 DUP3 DUP7 ADD PUSH2 0x19D5 JUMP JUMPDEST SWAP3 POP POP PUSH1 0x20 DUP4 ADD CALLDATALOAD PUSH8 0xFFFFFFFFFFFFFFFF DUP2 GT ISZERO PUSH2 0x1ADE JUMPI PUSH2 0x1ADD PUSH2 0x282E JUMP JUMPDEST JUMPDEST PUSH2 0x1AEA DUP6 DUP3 DUP7 ADD PUSH2 0x1A55 JUMP JUMPDEST SWAP2 POP POP SWAP3 POP SWAP3 SWAP1 POP JUMP JUMPDEST PUSH1 0x0 PUSH1 0x20 DUP3 DUP5 SUB SLT ISZERO PUSH2 0x1B0A JUMPI PUSH2 0x1B09 PUSH2 0x2833 JUMP JUMPDEST JUMPDEST PUSH1 0x0 PUSH2 0x1B18 DUP5 DUP3 DUP6 ADD PUSH2 0x19EA JUMP JUMPDEST SWAP2 POP POP SWAP3 SWAP2 POP POP JUMP JUMPDEST PUSH1 0x0 DUP1 PUSH1 0x0 PUSH1 0x40 DUP5 DUP7 SUB SLT ISZERO PUSH2 0x1B3A JUMPI PUSH2 0x1B39 PUSH2 0x2833 JUMP JUMPDEST JUMPDEST PUSH1 0x0 DUP5 ADD CALLDATALOAD PUSH8 0xFFFFFFFFFFFFFFFF DUP2 GT ISZERO PUSH2 0x1B58 JUMPI PUSH2 0x1B57 PUSH2 0x282E JUMP JUMPDEST JUMPDEST PUSH2 0x1B64 DUP7 DUP3 DUP8 ADD PUSH2 0x19FF JUMP JUMPDEST SWAP4 POP SWAP4 POP POP PUSH1 0x20 PUSH2 0x1B77 DUP7 DUP3 DUP8 ADD PUSH2 0x1A83 JUMP JUMPDEST SWAP2 POP POP SWAP3 POP SWAP3 POP SWAP3 JUMP JUMPDEST PUSH1 0x0 DUP1 PUSH1 0x0 DUP1 PUSH1 0x60 DUP6 DUP8 SUB SLT ISZERO PUSH2 0x1B9B JUMPI PUSH2 0x1B9A PUSH2 0x2833 JUMP JUMPDEST JUMPDEST PUSH1 0x0 DUP6 ADD CALLDATALOAD PUSH8 0xFFFFFFFFFFFFFFFF DUP2 GT ISZERO PUSH2 0x1BB9 JUMPI PUSH2 0x1BB8 PUSH2 0x282E JUMP JUMPDEST JUMPDEST PUSH2 0x1BC5 DUP8 DUP3 DUP9 ADD PUSH2 0x19FF JUMP JUMPDEST SWAP5 POP SWAP5 POP POP PUSH1 0x20 PUSH2 0x1BD8 DUP8 DUP3 DUP9 ADD PUSH2 0x1A83 JUMP JUMPDEST SWAP3 POP POP PUSH1 0x40 PUSH2 0x1BE9 DUP8 DUP3 DUP9 ADD PUSH2 0x1A83 JUMP JUMPDEST SWAP2 POP POP SWAP3 SWAP6 SWAP2 SWAP5 POP SWAP3 POP JUMP JUMPDEST PUSH1 0x0 PUSH1 0x20 DUP3 DUP5 SUB SLT ISZERO PUSH2 0x1C0B JUMPI PUSH2 0x1C0A PUSH2 0x2833 JUMP JUMPDEST JUMPDEST PUSH1 0x0 DUP3 ADD CALLDATALOAD PUSH8 0xFFFFFFFFFFFFFFFF DUP2 GT ISZERO PUSH2 0x1C29 JUMPI PUSH2 0x1C28 PUSH2 0x282E JUMP JUMPDEST JUMPDEST PUSH2 0x1C35 DUP5 DUP3 DUP6 ADD PUSH2 0x1A55 JUMP JUMPDEST SWAP2 POP POP SWAP3 SWAP2 POP POP JUMP JUMPDEST PUSH1 0x0 PUSH1 0x20 DUP3 DUP5 SUB SLT ISZERO PUSH2 0x1C54 JUMPI PUSH2 0x1C53 PUSH2 0x2833 JUMP JUMPDEST JUMPDEST PUSH1 0x0 PUSH2 0x1C62 DUP5 DUP3 DUP6 ADD PUSH2 0x1A83 JUMP JUMPDEST SWAP2 POP POP SWAP3 SWAP2 POP POP JUMP JUMPDEST PUSH1 0x0 DUP1 PUSH1 0x40 DUP4 DUP6 SUB SLT ISZERO PUSH2 0x1C82 JUMPI PUSH2 0x1C81 PUSH2 0x2833 JUMP JUMPDEST JUMPDEST PUSH1 0x0 PUSH2 0x1C90 DUP6 DUP3 DUP7 ADD PUSH2 0x1A83 JUMP JUMPDEST SWAP3 POP POP PUSH1 0x20 PUSH2 0x1CA1 DUP6 DUP3 DUP7 ADD PUSH2 0x1A83 JUMP JUMPDEST SWAP2 POP POP SWAP3 POP SWAP3 SWAP1 POP JUMP JUMPDEST PUSH2 0x1CB4 DUP2 PUSH2 0x261F JUMP JUMPDEST DUP3 MSTORE POP POP JUMP JUMPDEST PUSH2 0x1CC3 DUP2 PUSH2 0x261F JUMP JUMPDEST DUP3 MSTORE POP POP JUMP JUMPDEST PUSH2 0x1CD2 DUP2 PUSH2 0x2631 JUMP JUMPDEST DUP3 MSTORE POP POP JUMP JUMPDEST PUSH2 0x1CE1 DUP2 PUSH2 0x2671 JUMP JUMPDEST DUP3 MSTORE POP POP JUMP JUMPDEST PUSH2 0x1CF0 DUP2 PUSH2 0x2683 JUMP JUMPDEST DUP3 MSTORE POP POP JUMP JUMPDEST PUSH2 0x1CFF DUP2 PUSH2 0x263D JUMP JUMPDEST DUP3 MSTORE POP POP JUMP JUMPDEST PUSH2 0x1D0E DUP2 PUSH2 0x263D JUMP JUMPDEST DUP3 MSTORE POP POP JUMP JUMPDEST PUSH1 0x0 PUSH2 0x1D20 DUP4 DUP6 PUSH2 0x24FF JUMP JUMPDEST SWAP4 POP PUSH2 0x1D2D DUP4 DUP6 DUP5 PUSH2 0x26B9 JUMP JUMPDEST DUP3 DUP5 ADD SWAP1 POP SWAP4 SWAP3 POP POP POP JUMP JUMPDEST PUSH1 0x0 PUSH2 0x1D44 DUP3 PUSH2 0x24D2 JUMP JUMPDEST PUSH2 0x1D4E DUP2 DUP6 PUSH2 0x24DD JUMP JUMPDEST SWAP4 POP PUSH2 0x1D5E DUP2 DUP6 PUSH1 0x20 DUP7 ADD PUSH2 0x26C8 JUMP JUMPDEST PUSH2 0x1D67 DUP2 PUSH2 0x2838 JUMP JUMPDEST DUP5 ADD SWAP2 POP POP SWAP3 SWAP2 POP POP JUMP JUMPDEST PUSH1 0x0 PUSH2 0x1D7D DUP3 PUSH2 0x24D2 JUMP JUMPDEST PUSH2 0x1D87 DUP2 DUP6 PUSH2 0x24EE JUMP JUMPDEST SWAP4 POP PUSH2 0x1D97 DUP2 DUP6 PUSH1 0x20 DUP7 ADD PUSH2 0x26C8 JUMP JUMPDEST PUSH2 0x1DA0 DUP2 PUSH2 0x2838 JUMP JUMPDEST DUP5 ADD SWAP2 POP POP SWAP3 SWAP2 POP POP JUMP JUMPDEST PUSH1 0x0 PUSH2 0x1DB6 DUP3 PUSH2 0x24D2 JUMP JUMPDEST PUSH2 0x1DC0 DUP2 DUP6 PUSH2 0x24FF JUMP JUMPDEST SWAP4 POP PUSH2 0x1DD0 DUP2 DUP6 PUSH1 0x20 DUP7 ADD PUSH2 0x26C8 JUMP JUMPDEST DUP1 DUP5 ADD SWAP2 POP POP SWAP3 SWAP2 POP POP JUMP JUMPDEST PUSH1 0x0 PUSH2 0x1DE9 PUSH1 0x35 DUP4 PUSH2 0x24EE JUMP JUMPDEST SWAP2 POP PUSH2 0x1DF4 DUP3 PUSH2 0x2849 JUMP JUMPDEST PUSH1 0x40 DUP3 ADD SWAP1 POP SWAP2 SWAP1 POP JUMP JUMPDEST PUSH1 0x0 PUSH2 0x1E0C PUSH1 0x22 DUP4 PUSH2 0x24EE JUMP JUMPDEST SWAP2 POP PUSH2 0x1E17 DUP3 PUSH2 0x2898 JUMP JUMPDEST PUSH1 0x40 DUP3 ADD SWAP1 POP SWAP2 SWAP1 POP JUMP JUMPDEST PUSH1 0x0 PUSH2 0x1E2F PUSH1 0xD DUP4 PUSH2 0x24EE JUMP JUMPDEST SWAP2 POP PUSH2 0x1E3A DUP3 PUSH2 0x28E7 JUMP JUMPDEST PUSH1 0x20 DUP3 ADD SWAP1 POP SWAP2 SWAP1 POP JUMP JUMPDEST PUSH1 0x0 PUSH2 0x1E52 PUSH1 0x32 DUP4 PUSH2 0x24EE JUMP JUMPDEST SWAP2 POP PUSH2 0x1E5D DUP3 PUSH2 0x2910 JUMP JUMPDEST PUSH1 0x40 DUP3 ADD SWAP1 POP SWAP2 SWAP1 POP JUMP JUMPDEST PUSH1 0x0 PUSH2 0x1E75 PUSH1 0x1A DUP4 PUSH2 0x24EE JUMP JUMPDEST SWAP2 POP PUSH2 0x1E80 DUP3 PUSH2 0x295F JUMP JUMPDEST PUSH1 0x20 DUP3 ADD SWAP1 POP SWAP2 SWAP1 POP JUMP JUMPDEST PUSH1 0x0 PUSH2 0x1E98 PUSH1 0x1C DUP4 PUSH2 0x24EE JUMP JUMPDEST SWAP2 POP PUSH2 0x1EA3 DUP3 PUSH2 0x2988 JUMP JUMPDEST PUSH1 0x20 DUP3 ADD SWAP1 POP SWAP2 SWAP1 POP JUMP JUMPDEST PUSH1 0x0 PUSH2 0x1EBB PUSH1 0x20 DUP4 PUSH2 0x24EE JUMP JUMPDEST SWAP2 POP PUSH2 0x1EC6 DUP3 PUSH2 0x29B1 JUMP JUMPDEST PUSH1 0x20 DUP3 ADD SWAP1 POP SWAP2 SWAP1 POP JUMP JUMPDEST PUSH1 0x0 PUSH2 0x1EDE PUSH1 0x27 DUP4 PUSH2 0x24EE JUMP JUMPDEST SWAP2 POP PUSH2 0x1EE9 DUP3 PUSH2 0x29DA JUMP JUMPDEST PUSH1 0x40 DUP3 ADD SWAP1 POP SWAP2 SWAP1 POP JUMP JUMPDEST PUSH1 0xA0 DUP3 ADD PUSH1 0x0 DUP3 ADD MLOAD PUSH2 0x1F0A PUSH1 0x0 DUP6 ADD DUP3 PUSH2 0x2094 JUMP JUMPDEST POP PUSH1 0x20 DUP3 ADD MLOAD PUSH2 0x1F1D PUSH1 0x20 DUP6 ADD DUP3 PUSH2 0x2094 JUMP JUMPDEST POP PUSH1 0x40 DUP3 ADD MLOAD PUSH2 0x1F30 PUSH1 0x40 DUP6 ADD DUP3 PUSH2 0x1CAB JUMP JUMPDEST POP PUSH1 0x60 DUP3 ADD MLOAD PUSH2 0x1F43 PUSH1 0x60 DUP6 ADD DUP3 PUSH2 0x2094 JUMP JUMPDEST POP PUSH1 0x80 DUP3 ADD MLOAD PUSH2 0x1F56 PUSH1 0x80 DUP6 ADD DUP3 PUSH2 0x2094 JUMP JUMPDEST POP POP POP POP JUMP JUMPDEST PUSH1 0x0 PUSH1 0xE0 DUP4 ADD PUSH1 0x0 DUP4 ADD MLOAD PUSH2 0x1F74 PUSH1 0x0 DUP7 ADD DUP3 PUSH2 0x2094 JUMP JUMPDEST POP PUSH1 0x20 DUP4 ADD MLOAD PUSH2 0x1F87 PUSH1 0x20 DUP7 ADD DUP3 PUSH2 0x1CAB JUMP JUMPDEST POP PUSH1 0x40 DUP4 ADD MLOAD DUP5 DUP3 SUB PUSH1 0x40 DUP7 ADD MSTORE PUSH2 0x1F9F DUP3 DUP3 PUSH2 0x1D39 JUMP JUMPDEST SWAP2 POP POP PUSH1 0x60 DUP4 ADD MLOAD PUSH2 0x1FB4 PUSH1 0x60 DUP7 ADD DUP3 PUSH2 0x2094 JUMP JUMPDEST POP PUSH1 0x80 DUP4 ADD MLOAD PUSH2 0x1FC7 PUSH1 0x80 DUP7 ADD DUP3 PUSH2 0x2094 JUMP JUMPDEST POP PUSH1 0xA0 DUP4 ADD MLOAD PUSH2 0x1FDA PUSH1 0xA0 DUP7 ADD DUP3 PUSH2 0x2094 JUMP JUMPDEST POP PUSH1 0xC0 DUP4 ADD MLOAD PUSH2 0x1FED PUSH1 0xC0 DUP7 ADD DUP3 PUSH2 0x1CF6 JUMP JUMPDEST POP DUP1 SWAP2 POP POP SWAP3 SWAP2 POP POP JUMP JUMPDEST PUSH1 0x0 PUSH1 0xE0 DUP4 ADD PUSH1 0x0 DUP4 ADD MLOAD PUSH2 0x2010 PUSH1 0x0 DUP7 ADD DUP3 PUSH2 0x2094 JUMP JUMPDEST POP PUSH1 0x20 DUP4 ADD MLOAD PUSH2 0x2023 PUSH1 0x20 DUP7 ADD DUP3 PUSH2 0x2094 JUMP JUMPDEST POP PUSH1 0x40 DUP4 ADD MLOAD PUSH2 0x2036 PUSH1 0x40 DUP7 ADD DUP3 PUSH2 0x1CAB JUMP JUMPDEST POP PUSH1 0x60 DUP4 ADD MLOAD DUP5 DUP3 SUB PUSH1 0x60 DUP7 ADD MSTORE PUSH2 0x204E DUP3 DUP3 PUSH2 0x1D39 JUMP JUMPDEST SWAP2 POP POP PUSH1 0x80 DUP4 ADD MLOAD PUSH2 0x2063 PUSH1 0x80 DUP7 ADD DUP3 PUSH2 0x2094 JUMP JUMPDEST POP PUSH1 0xA0 DUP4 ADD MLOAD PUSH2 0x2076 PUSH1 0xA0 DUP7 ADD DUP3 PUSH2 0x2094 JUMP JUMPDEST POP PUSH1 0xC0 DUP4 ADD MLOAD PUSH2 0x2089 PUSH1 0xC0 DUP7 ADD DUP3 PUSH2 0x1CF6 JUMP JUMPDEST POP DUP1 SWAP2 POP POP SWAP3 SWAP2 POP POP JUMP JUMPDEST PUSH2 0x209D DUP2 PUSH2 0x2667 JUMP JUMPDEST DUP3 MSTORE POP POP JUMP JUMPDEST PUSH2 0x20AC DUP2 PUSH2 0x2667 JUMP JUMPDEST DUP3 MSTORE POP POP JUMP JUMPDEST PUSH1 0x0 PUSH2 0x20BF DUP3 DUP5 DUP7 PUSH2 0x1D14 JUMP JUMPDEST SWAP2 POP DUP2 SWAP1 POP SWAP4 SWAP3 POP POP POP JUMP JUMPDEST PUSH1 0x0 PUSH2 0x20D7 DUP3 DUP5 PUSH2 0x1DAB JUMP JUMPDEST SWAP2 POP DUP2 SWAP1 POP SWAP3 SWAP2 POP POP JUMP JUMPDEST PUSH1 0x0 PUSH1 0x20 DUP3 ADD SWAP1 POP PUSH2 0x20F7 PUSH1 0x0 DUP4 ADD DUP5 PUSH2 0x1CBA JUMP JUMPDEST SWAP3 SWAP2 POP POP JUMP JUMPDEST PUSH1 0x0 PUSH1 0x60 DUP3 ADD SWAP1 POP PUSH2 0x2112 PUSH1 0x0 DUP4 ADD DUP7 PUSH2 0x1CBA JUMP JUMPDEST PUSH2 0x211F PUSH1 0x20 DUP4 ADD DUP6 PUSH2 0x1CBA JUMP JUMPDEST PUSH2 0x212C PUSH1 0x40 DUP4 ADD DUP5 PUSH2 0x20A3 JUMP JUMPDEST SWAP5 SWAP4 POP POP POP POP JUMP JUMPDEST PUSH1 0x0 PUSH1 0x20 DUP3 ADD SWAP1 POP PUSH2 0x2149 PUSH1 0x0 DUP4 ADD DUP5 PUSH2 0x1CC9 JUMP JUMPDEST SWAP3 SWAP2 POP POP JUMP JUMPDEST PUSH1 0x0 PUSH1 0x20 DUP3 ADD SWAP1 POP PUSH2 0x2164 PUSH1 0x0 DUP4 ADD DUP5 PUSH2 0x1CD8 JUMP JUMPDEST SWAP3 SWAP2 POP POP JUMP JUMPDEST PUSH1 0x0 PUSH1 0x20 DUP3 ADD SWAP1 POP PUSH2 0x217F PUSH1 0x0 DUP4 ADD DUP5 PUSH2 0x1CE7 JUMP JUMPDEST SWAP3 SWAP2 POP POP JUMP JUMPDEST PUSH1 0x0 PUSH1 0x60 DUP3 ADD SWAP1 POP DUP2 DUP2 SUB PUSH1 0x0 DUP4 ADD MSTORE PUSH2 0x219F DUP2 DUP7 PUSH2 0x1D72 JUMP JUMPDEST SWAP1 POP PUSH2 0x21AE PUSH1 0x20 DUP4 ADD DUP6 PUSH2 0x20A3 JUMP JUMPDEST PUSH2 0x21BB PUSH1 0x40 DUP4 ADD DUP5 PUSH2 0x20A3 JUMP JUMPDEST SWAP5 SWAP4 POP POP POP POP JUMP JUMPDEST PUSH1 0x0 PUSH1 0x20 DUP3 ADD SWAP1 POP DUP2 DUP2 SUB PUSH1 0x0 DUP4 ADD MSTORE PUSH2 0x21DC DUP2 PUSH2 0x1DDC JUMP JUMPDEST SWAP1 POP SWAP2 SWAP1 POP JUMP JUMPDEST PUSH1 0x0 PUSH1 0x20 DUP3 ADD SWAP1 POP DUP2 DUP2 SUB PUSH1 0x0 DUP4 ADD MSTORE PUSH2 0x21FC DUP2 PUSH2 0x1DFF JUMP JUMPDEST SWAP1 POP SWAP2 SWAP1 POP JUMP JUMPDEST PUSH1 0x0 PUSH1 0x20 DUP3 ADD SWAP1 POP DUP2 DUP2 SUB PUSH1 0x0 DUP4 ADD MSTORE PUSH2 0x221C DUP2 PUSH2 0x1E22 JUMP JUMPDEST SWAP1 POP SWAP2 SWAP1 POP JUMP JUMPDEST PUSH1 0x0 PUSH1 0x20 DUP3 ADD SWAP1 POP DUP2 DUP2 SUB PUSH1 0x0 DUP4 ADD MSTORE PUSH2 0x223C DUP2 PUSH2 0x1E45 JUMP JUMPDEST SWAP1 POP SWAP2 SWAP1 POP JUMP JUMPDEST PUSH1 0x0 PUSH1 0x20 DUP3 ADD SWAP1 POP DUP2 DUP2 SUB PUSH1 0x0 DUP4 ADD MSTORE PUSH2 0x225C DUP2 PUSH2 0x1E68 JUMP JUMPDEST SWAP1 POP SWAP2 SWAP1 POP JUMP JUMPDEST PUSH1 0x0 PUSH1 0x20 DUP3 ADD SWAP1 POP DUP2 DUP2 SUB PUSH1 0x0 DUP4 ADD MSTORE PUSH2 0x227C DUP2 PUSH2 0x1E8B JUMP JUMPDEST SWAP1 POP SWAP2 SWAP1 POP JUMP JUMPDEST PUSH1 0x0 PUSH1 0x20 DUP3 ADD SWAP1 POP DUP2 DUP2 SUB PUSH1 0x0 DUP4 ADD MSTORE PUSH2 0x229C DUP2 PUSH2 0x1EAE JUMP JUMPDEST SWAP1 POP SWAP2 SWAP1 POP JUMP JUMPDEST PUSH1 0x0 PUSH1 0x20 DUP3 ADD SWAP1 POP DUP2 DUP2 SUB PUSH1 0x0 DUP4 ADD MSTORE PUSH2 0x22BC DUP2 PUSH2 0x1ED1 JUMP JUMPDEST SWAP1 POP SWAP2 SWAP1 POP JUMP JUMPDEST PUSH1 0x0 PUSH1 0xA0 DUP3 ADD SWAP1 POP PUSH2 0x22D8 PUSH1 0x0 DUP4 ADD DUP5 PUSH2 0x1EF4 JUMP JUMPDEST SWAP3 SWAP2 POP POP JUMP JUMPDEST PUSH1 0x0 PUSH1 0x20 DUP3 ADD SWAP1 POP DUP2 DUP2 SUB PUSH1 0x0 DUP4 ADD MSTORE PUSH2 0x22F8 DUP2 DUP5 PUSH2 0x1F5C JUMP JUMPDEST SWAP1 POP SWAP3 SWAP2 POP POP JUMP JUMPDEST PUSH1 0x0 PUSH1 0x20 DUP3 ADD SWAP1 POP DUP2 DUP2 SUB PUSH1 0x0 DUP4 ADD MSTORE PUSH2 0x231A DUP2 DUP5 PUSH2 0x1FF8 JUMP JUMPDEST SWAP1 POP SWAP3 SWAP2 POP POP JUMP JUMPDEST PUSH1 0x0 PUSH1 0x20 DUP3 ADD SWAP1 POP PUSH2 0x2337 PUSH1 0x0 DUP4 ADD DUP5 PUSH2 0x20A3 JUMP JUMPDEST SWAP3 SWAP2 POP POP JUMP JUMPDEST PUSH1 0x0 PUSH1 0xE0 DUP3 ADD SWAP1 POP PUSH2 0x2352 PUSH1 0x0 DUP4 ADD DUP11 PUSH2 0x20A3 JUMP JUMPDEST PUSH2 0x235F PUSH1 0x20 DUP4 ADD DUP10 PUSH2 0x1CBA JUMP JUMPDEST DUP2 DUP2 SUB PUSH1 0x40 DUP4 ADD MSTORE PUSH2 0x2371 DUP2 DUP9 PUSH2 0x1D72 JUMP JUMPDEST SWAP1 POP PUSH2 0x2380 PUSH1 0x60 DUP4 ADD DUP8 PUSH2 0x20A3 JUMP JUMPDEST PUSH2 0x238D PUSH1 0x80 DUP4 ADD DUP7 PUSH2 0x20A3 JUMP JUMPDEST PUSH2 0x239A PUSH1 0xA0 DUP4 ADD DUP6 PUSH2 0x20A3 JUMP JUMPDEST PUSH2 0x23A7 PUSH1 0xC0 DUP4 ADD DUP5 PUSH2 0x1D05 JUMP JUMPDEST SWAP9 SWAP8 POP POP POP POP POP POP POP POP JUMP JUMPDEST PUSH1 0x0 PUSH1 0xE0 DUP3 ADD SWAP1 POP PUSH2 0x23C8 PUSH1 0x0 DUP4 ADD DUP11 PUSH2 0x20A3 JUMP JUMPDEST PUSH2 0x23D5 PUSH1 0x20 DUP4 ADD DUP10 PUSH2 0x20A3 JUMP JUMPDEST PUSH2 0x23E2 PUSH1 0x40 DUP4 ADD DUP9 PUSH2 0x1CBA JUMP JUMPDEST DUP2 DUP2 SUB PUSH1 0x60 DUP4 ADD MSTORE PUSH2 0x23F4 DUP2 DUP8 PUSH2 0x1D72 JUMP JUMPDEST SWAP1 POP PUSH2 0x2403 PUSH1 0x80 DUP4 ADD DUP7 PUSH2 0x20A3 JUMP JUMPDEST PUSH2 0x2410 PUSH1 0xA0 DUP4 ADD DUP6 PUSH2 0x20A3 JUMP JUMPDEST PUSH2 0x241D PUSH1 0xC0 DUP4 ADD DUP5 PUSH2 0x1D05 JUMP JUMPDEST SWAP9 SWAP8 POP POP POP POP POP POP POP POP JUMP JUMPDEST PUSH1 0x0 PUSH1 0xA0 DUP3 ADD SWAP1 POP PUSH2 0x243E PUSH1 0x0 DUP4 ADD DUP9 PUSH2 0x20A3 JUMP JUMPDEST PUSH2 0x244B PUSH1 0x20 DUP4 ADD DUP8 PUSH2 0x20A3 JUMP JUMPDEST PUSH2 0x2458 PUSH1 0x40 DUP4 ADD DUP7 PUSH2 0x1CBA JUMP JUMPDEST PUSH2 0x2465 PUSH1 0x60 DUP4 ADD DUP6 PUSH2 0x20A3 JUMP JUMPDEST PUSH2 0x2472 PUSH1 0x80 DUP4 ADD DUP5 PUSH2 0x20A3 JUMP JUMPDEST SWAP7 SWAP6 POP POP POP POP POP POP JUMP JUMPDEST PUSH1 0x0 PUSH2 0x2486 PUSH2 0x2497 JUMP JUMPDEST SWAP1 POP PUSH2 0x2492 DUP3 DUP3 PUSH2 0x272D JUMP JUMPDEST SWAP2 SWAP1 POP JUMP JUMPDEST PUSH1 0x0 PUSH1 0x40 MLOAD SWAP1 POP SWAP1 JUMP JUMPDEST PUSH1 0x0 PUSH8 0xFFFFFFFFFFFFFFFF DUP3 GT ISZERO PUSH2 0x24BC JUMPI PUSH2 0x24BB PUSH2 0x27EB JUMP JUMPDEST JUMPDEST PUSH2 0x24C5 DUP3 PUSH2 0x2838 JUMP JUMPDEST SWAP1 POP PUSH1 0x20 DUP2 ADD SWAP1 POP SWAP2 SWAP1 POP JUMP JUMPDEST PUSH1 0x0 DUP2 MLOAD SWAP1 POP SWAP2 SWAP1 POP JUMP JUMPDEST PUSH1 0x0 DUP3 DUP3 MSTORE PUSH1 0x20 DUP3 ADD SWAP1 POP SWAP3 SWAP2 POP POP JUMP JUMPDEST PUSH1 0x0 DUP3 DUP3 MSTORE PUSH1 0x20 DUP3 ADD SWAP1 POP SWAP3 SWAP2 POP POP JUMP JUMPDEST PUSH1 0x0 DUP2 SWAP1 POP SWAP3 SWAP2 POP POP JUMP JUMPDEST PUSH1 0x0 PUSH2 0x2515 DUP3 PUSH2 0x2667 JUMP JUMPDEST SWAP2 POP PUSH2 0x2520 DUP4 PUSH2 0x2667 JUMP JUMPDEST SWAP3 POP DUP3 PUSH32 0xFFFFFFFFFFFFFFFFFFFFFFFFFFFFFFFFFFFFFFFFFFFFFFFFFFFFFFFFFFFFFFFF SUB DUP3 GT ISZERO PUSH2 0x2555 JUMPI PUSH2 0x2554 PUSH2 0x275E JUMP JUMPDEST JUMPDEST DUP3 DUP3 ADD SWAP1 POP SWAP3 SWAP2 POP POP JUMP JUMPDEST PUSH1 0x0 PUSH2 0x256B DUP3 PUSH2 0x2667 JUMP JUMPDEST SWAP2 POP PUSH2 0x2576 DUP4 PUSH2 0x2667 JUMP JUMPDEST SWAP3 POP DUP3 PUSH2 0x2586 JUMPI PUSH2 0x2585 PUSH2 0x278D JUMP JUMPDEST JUMPDEST DUP3 DUP3 DIV SWAP1 POP SWAP3 SWAP2 POP POP JUMP JUMPDEST PUSH1 0x0 PUSH2 0x259C DUP3 PUSH2 0x2667 JUMP JUMPDEST SWAP2 POP PUSH2 0x25A7 DUP4 PUSH2 0x2667 JUMP JUMPDEST SWAP3 POP DUP2 PUSH32 0xFFFFFFFFFFFFFFFFFFFFFFFFFFFFFFFFFFFFFFFFFFFFFFFFFFFFFFFFFFFFFFFF DIV DUP4 GT DUP3 ISZERO ISZERO AND ISZERO PUSH2 0x25E0 JUMPI PUSH2 0x25DF PUSH2 0x275E JUMP JUMPDEST JUMPDEST DUP3 DUP3 MUL SWAP1 POP SWAP3 SWAP2 POP POP JUMP JUMPDEST PUSH1 0x0 PUSH2 0x25F6 DUP3 PUSH2 0x2667 JUMP JUMPDEST SWAP2 POP PUSH2 0x2601 DUP4 PUSH2 0x2667 JUMP JUMPDEST SWAP3 POP DUP3 DUP3 LT ISZERO PUSH2 0x2614 JUMPI PUSH2 0x2613 PUSH2 0x275E JUMP JUMPDEST JUMPDEST DUP3 DUP3 SUB SWAP1 POP SWAP3 SWAP2 POP POP JUMP JUMPDEST PUSH1 0x0 PUSH2 0x262A DUP3 PUSH2 0x2647 JUMP JUMPDEST SWAP1 POP SWAP2 SWAP1 POP JUMP JUMPDEST PUSH1 0x0 DUP2 ISZERO ISZERO SWAP1 POP SWAP2 SWAP1 POP JUMP JUMPDEST PUSH1 0x0 DUP2 SWAP1 POP SWAP2 SWAP1 POP JUMP JUMPDEST PUSH1 0x0 PUSH20 0xFFFFFFFFFFFFFFFFFFFFFFFFFFFFFFFFFFFFFFFF DUP3 AND SWAP1 POP SWAP2 SWAP1 POP JUMP JUMPDEST PUSH1 0x0 DUP2 SWAP1 POP SWAP2 SWAP1 POP JUMP JUMPDEST PUSH1 0x0 PUSH2 0x267C DUP3 PUSH2 0x2695 JUMP JUMPDEST SWAP1 POP SWAP2 SWAP1 POP JUMP JUMPDEST PUSH1 0x0 PUSH2 0x268E DUP3 PUSH2 0x2695 JUMP JUMPDEST SWAP1 POP SWAP2 SWAP1 POP JUMP JUMPDEST PUSH1 0x0 PUSH2 0x26A0 DUP3 PUSH2 0x26A7 JUMP JUMPDEST SWAP1 POP SWAP2 SWAP1 POP JUMP JUMPDEST PUSH1 0x0 PUSH2 0x26B2 DUP3 PUSH2 0x2647 JUMP JUMPDEST SWAP1 POP SWAP2 SWAP1 POP JUMP JUMPDEST DUP3 DUP2 DUP4 CALLDATACOPY PUSH1 0x0 DUP4 DUP4 ADD MSTORE POP POP POP JUMP JUMPDEST PUSH1 0x0 JUMPDEST DUP4 DUP2 LT ISZERO PUSH2 0x26E6 JUMPI DUP1 DUP3 ADD MLOAD DUP2 DUP5 ADD MSTORE PUSH1 0x20 DUP2 ADD SWAP1 POP PUSH2 0x26CB JUMP JUMPDEST DUP4 DUP2 GT ISZERO PUSH2 0x26F5 JUMPI PUSH1 0x0 DUP5 DUP5 ADD MSTORE JUMPDEST POP POP POP POP JUMP JUMPDEST PUSH1 0x0 PUSH1 0x2 DUP3 DIV SWAP1 POP PUSH1 0x1 DUP3 AND DUP1 PUSH2 0x2713 JUMPI PUSH1 0x7F DUP3 AND SWAP2 POP JUMPDEST PUSH1 0x20 DUP3 LT DUP2 EQ ISZERO PUSH2 0x2727 JUMPI PUSH2 0x2726 PUSH2 0x27BC JUMP JUMPDEST JUMPDEST POP SWAP2 SWAP1 POP JUMP JUMPDEST PUSH2 0x2736 DUP3 PUSH2 0x2838 JUMP JUMPDEST DUP2 ADD DUP2 DUP2 LT PUSH8 0xFFFFFFFFFFFFFFFF DUP3 GT OR ISZERO PUSH2 0x2755 JUMPI PUSH2 0x2754 PUSH2 0x27EB JUMP JUMPDEST JUMPDEST DUP1 PUSH1 0x40 MSTORE POP POP POP JUMP JUMPDEST PUSH32 0x4E487B7100000000000000000000000000000000000000000000000000000000 PUSH1 0x0 MSTORE PUSH1 0x11 PUSH1 0x4 MSTORE PUSH1 0x24 PUSH1 0x0 REVERT JUMPDEST PUSH32 0x4E487B7100000000000000000000000000000000000000000000000000000000 PUSH1 0x0 MSTORE PUSH1 0x12 PUSH1 0x4 MSTORE PUSH1 0x24 PUSH1 0x0 REVERT JUMPDEST PUSH32 0x4E487B7100000000000000000000000000000000000000000000000000000000 PUSH1 0x0 MSTORE PUSH1 0x22 PUSH1 0x4 MSTORE PUSH1 0x24 PUSH1 0x0 REVERT JUMPDEST PUSH32 0x4E487B7100000000000000000000000000000000000000000000000000000000 PUSH1 0x0 MSTORE PUSH1 0x41 PUSH1 0x4 MSTORE PUSH1 0x24 PUSH1 0x0 REVERT JUMPDEST PUSH1 0x0 DUP1 REVERT JUMPDEST PUSH1 0x0 DUP1 REVERT JUMPDEST PUSH1 0x0 DUP1 REVERT JUMPDEST PUSH1 0x0 DUP1 REVERT JUMPDEST PUSH1 0x0 DUP1 REVERT JUMPDEST PUSH1 0x0 DUP1 REVERT JUMPDEST PUSH1 0x0 PUSH1 0x1F NOT PUSH1 0x1F DUP4 ADD AND SWAP1 POP SWAP2 SWAP1 POP JUMP JUMPDEST PUSH32 0x5468652072657475726E206F6620746869732072657475726E49642068617320 PUSH1 0x0 DUP3 ADD MSTORE PUSH32 0x6265656E20616C72656164792061756469746564210000000000000000000000 PUSH1 0x20 DUP3 ADD MSTORE POP JUMP JUMPDEST PUSH32 0x4E6F207468697320747970652773206361727320617661696C61626C65206E6F PUSH1 0x0 DUP3 ADD MSTORE PUSH32 0x7721000000000000000000000000000000000000000000000000000000000000 PUSH1 0x20 DUP3 ADD MSTORE POP JUMP JUMPDEST PUSH32 0x426F72726F776572204F6E6C7900000000000000000000000000000000000000 PUSH1 0x0 DUP3 ADD MSTORE POP JUMP JUMPDEST PUSH32 0x5468652072656E74206F6620746869732072656E74496420686173206265656E PUSH1 0x0 DUP3 ADD MSTORE PUSH32 0x20616C72656164792072657475726E6564210000000000000000000000000000 PUSH1 0x20 DUP3 ADD MSTORE POP JUMP JUMPDEST PUSH32 0x496E7075742072656E745265636F7264496420496E7661696421000000000000 PUSH1 0x0 DUP3 ADD MSTORE POP JUMP JUMPDEST PUSH32 0x496E7075742072657475726E5265636F7264496420496E766169642100000000 PUSH1 0x0 DUP3 ADD MSTORE POP JUMP JUMPDEST PUSH32 0x4F6E6C79204142432063616E2063616C6C20746869732066756E6374696F6E21 PUSH1 0x0 DUP3 ADD MSTORE POP JUMP JUMPDEST PUSH32 0x54686520637573746F6D65722773206164647265737320646F65736E2774206D PUSH1 0x0 DUP3 ADD MSTORE PUSH32 0x6174636865642100000000000000000000000000000000000000000000000000 PUSH1 0x20 DUP3 ADD MSTORE POP JUMP JUMPDEST PUSH2 0x2A32 DUP2 PUSH2 0x261F JUMP JUMPDEST DUP2 EQ PUSH2 0x2A3D JUMPI PUSH1 0x0 DUP1 REVERT JUMPDEST POP JUMP JUMPDEST PUSH2 0x2A49 DUP2 PUSH2 0x2631 JUMP JUMPDEST DUP2 EQ PUSH2 0x2A54 JUMPI PUSH1 0x0 DUP1 REVERT JUMPDEST POP JUMP JUMPDEST PUSH2 0x2A60 DUP2 PUSH2 0x2667 JUMP JUMPDEST DUP2 EQ PUSH2 0x2A6B JUMPI PUSH1 0x0 DUP1 REVERT JUMPDEST POP JUMP INVALID LOG2 PUSH5 0x6970667358 0x22 SLT KECCAK256 0x26 CODESIZE PUSH18 0xA32E483FC85F12528018041574CD920B1CD4 MSTORE8 STATICCALL LOG4 0xA5 0xFC PUSH14 0x498267F5B264736F6C6343000807 STOP CALLER "
				},
				"gasEstimates": {
					"creation": {
						"codeDepositCost": "2183200",
						"executionCost": "infinite",
						"totalCost": "infinite"
					},
					"external": {
						"ABCAddCar(string,uint256,uint256)": "infinite",
						"ABCAddress()": "2599",
						"ABCAuditDeposit(uint256,uint256)": "infinite",
						"allABCAuditDepositRecord(uint256)": "infinite",
						"allCustomerRentCarRecord(uint256)": "infinite",
						"allCustomerReturnCarRecord(uint256)": "infinite",
						"carAvailability(string)": "infinite",
						"carInfo(string)": "infinite",
						"currentAuditRecordId()": "2453",
						"currentRentRecordId()": "2518",
						"currentReturnRecordId()": "2496",
						"customerRentCar(string,uint256)": "infinite",
						"customerRentingCarNumber(address,string)": "infinite",
						"customerReturnCar(uint256)": "infinite",
						"identitySC()": "2645",
						"tokenSC()": "2644"
					}
				},
				"methodIdentifiers": {
					"ABCAddCar(string,uint256,uint256)": "94fa8235",
					"ABCAddress()": "d05a0447",
					"ABCAuditDeposit(uint256,uint256)": "3e7ab6a8",
					"allABCAuditDepositRecord(uint256)": "b027a759",
					"allCustomerRentCarRecord(uint256)": "cb2acd80",
					"allCustomerReturnCarRecord(uint256)": "3a8c0e6e",
					"carAvailability(string)": "586fa64d",
					"carInfo(string)": "1049f50a",
					"currentAuditRecordId()": "001e4c44",
					"currentRentRecordId()": "9532007a",
					"currentReturnRecordId()": "5177d6d2",
					"customerRentCar(string,uint256)": "6b93e409",
					"customerRentingCarNumber(address,string)": "38266fe5",
					"customerReturnCar(uint256)": "0958d944",
					"identitySC()": "90720b32",
					"tokenSC()": "c16849c0"
				}
			},
			"userdoc": {
				"kind": "user",
				"methods": {},
				"version": 1
			}
		}
	}
}