{
	"contracts/UserIdentity.sol": {
		"UserIdentity": {
			"abi": [
				{
					"inputs": [],
					"stateMutability": "nonpayable",
					"type": "constructor"
				},
				{
					"inputs": [
						{
							"internalType": "string",
							"name": "_socialSecurityId",
							"type": "string"
						},
						{
							"internalType": "address",
							"name": "_address",
							"type": "address"
						},
						{
							"internalType": "string",
							"name": "_name",
							"type": "string"
						}
					],
					"name": "addBorrower",
					"outputs": [],
					"stateMutability": "nonpayable",
					"type": "function"
				},
				{
					"inputs": [],
					"name": "admin",
					"outputs": [
						{
							"internalType": "address",
							"name": "",
							"type": "address"
						}
					],
					"stateMutability": "view",
					"type": "function"
				},
				{
					"inputs": [
						{
							"internalType": "address",
							"name": "",
							"type": "address"
						}
					],
					"name": "borrowers",
					"outputs": [
						{
							"internalType": "uint256",
							"name": "id",
							"type": "uint256"
						},
						{
							"internalType": "string",
							"name": "socialSecurityId",
							"type": "string"
						},
						{
							"internalType": "address",
							"name": "walletAddress",
							"type": "address"
						},
						{
							"internalType": "string",
							"name": "name",
							"type": "string"
						},
						{
							"internalType": "enum UserIdentity.Role",
							"name": "role",
							"type": "uint8"
						}
					],
					"stateMutability": "view",
					"type": "function"
				},
				{
					"inputs": [
						{
							"internalType": "uint256",
							"name": "",
							"type": "uint256"
						}
					],
					"name": "borrowersAddresses",
					"outputs": [
						{
							"internalType": "address",
							"name": "",
							"type": "address"
						}
					],
					"stateMutability": "view",
					"type": "function"
				},
				{
					"inputs": [],
					"name": "borrowersCount",
					"outputs": [
						{
							"internalType": "uint256",
							"name": "",
							"type": "uint256"
						}
					],
					"stateMutability": "view",
					"type": "function"
				},
				{
					"inputs": [],
					"name": "getAllBorrowers",
					"outputs": [
						{
							"components": [
								{
									"internalType": "uint256",
									"name": "id",
									"type": "uint256"
								},
								{
									"internalType": "string",
									"name": "socialSecurityId",
									"type": "string"
								},
								{
									"internalType": "address",
									"name": "walletAddress",
									"type": "address"
								},
								{
									"internalType": "string",
									"name": "name",
									"type": "string"
								},
								{
									"internalType": "enum UserIdentity.Role",
									"name": "role",
									"type": "uint8"
								}
							],
							"internalType": "struct UserIdentity.User[]",
							"name": "",
							"type": "tuple[]"
						}
					],
					"stateMutability": "view",
					"type": "function"
				},
				{
					"inputs": [
						{
							"internalType": "address",
							"name": "_address",
							"type": "address"
						}
					],
					"name": "verifyIsBorrower",
					"outputs": [
						{
							"internalType": "bool",
							"name": "",
							"type": "bool"
						}
					],
					"stateMutability": "view",
					"type": "function"
				}
			],
			"devdoc": {
				"kind": "dev",
				"methods": {},
				"version": 1
			},
			"evm": {
				"assembly": "    /* \"contracts/UserIdentity.sol\":69:1748  contract UserIdentity{... */\n  mstore(0x40, 0x80)\n    /* \"contracts/UserIdentity.sol\":431:432  0 */\n  0x00\n    /* \"contracts/UserIdentity.sol\":402:432  uint public borrowersCount = 0 */\n  0x01\n  sstore\n    /* \"contracts/UserIdentity.sol\":705:789  constructor()... */\n  callvalue\n  dup1\n  iszero\n  tag_1\n  jumpi\n  0x00\n  dup1\n  revert\ntag_1:\n  pop\n    /* \"contracts/UserIdentity.sol\":741:751  msg.sender */\n  caller\n    /* \"contracts/UserIdentity.sol\":733:738  admin */\n  0x00\n  dup1\n    /* \"contracts/UserIdentity.sol\":733:751  admin = msg.sender */\n  0x0100\n  exp\n  dup2\n  sload\n  dup2\n  0xffffffffffffffffffffffffffffffffffffffff\n  mul\n  not\n  and\n  swap1\n  dup4\n  0xffffffffffffffffffffffffffffffffffffffff\n  and\n  mul\n  or\n  swap1\n  sstore\n  pop\n    /* \"contracts/UserIdentity.sol\":69:1748  contract UserIdentity{... */\n  dataSize(sub_0)\n  dup1\n  dataOffset(sub_0)\n  0x00\n  codecopy\n  0x00\n  return\nstop\n\nsub_0: assembly {\n        /* \"contracts/UserIdentity.sol\":69:1748  contract UserIdentity{... */\n      mstore(0x40, 0x80)\n      callvalue\n      dup1\n      iszero\n      tag_1\n      jumpi\n      0x00\n      dup1\n      revert\n    tag_1:\n      pop\n      jumpi(tag_2, lt(calldatasize, 0x04))\n      shr(0xe0, calldataload(0x00))\n      dup1\n      0xe701c350\n      gt\n      tag_10\n      jumpi\n      dup1\n      0xe701c350\n      eq\n      tag_6\n      jumpi\n      dup1\n      0xea99e74d\n      eq\n      tag_7\n      jumpi\n      dup1\n      0xf851a440\n      eq\n      tag_8\n      jumpi\n      dup1\n      0xfa8d30b6\n      eq\n      tag_9\n      jumpi\n      jump(tag_2)\n    tag_10:\n      dup1\n      0x053ff76c\n      eq\n      tag_3\n      jumpi\n      dup1\n      0x32abcdbe\n      eq\n      tag_4\n      jumpi\n      dup1\n      0xbf5d50c4\n      eq\n      tag_5\n      jumpi\n    tag_2:\n      0x00\n      dup1\n      revert\n        /* \"contracts/UserIdentity.sol\":1113:1469  function addBorrower(string memory _socialSecurityId, address _address, string memory _name) ... */\n    tag_3:\n      tag_11\n      0x04\n      dup1\n      calldatasize\n      sub\n      dup2\n      add\n      swap1\n      tag_12\n      swap2\n      swap1\n      tag_13\n      jump\t// in\n    tag_12:\n      tag_14\n      jump\t// in\n    tag_11:\n      stop\n        /* \"contracts/UserIdentity.sol\":1484:1746  function getAllBorrowers() public view returns (User[] memory){... */\n    tag_4:\n      tag_15\n      tag_16\n      jump\t// in\n    tag_15:\n      mload(0x40)\n      tag_17\n      swap2\n      swap1\n      tag_18\n      jump\t// in\n    tag_17:\n      mload(0x40)\n      dup1\n      swap2\n      sub\n      swap1\n      return\n        /* \"contracts/UserIdentity.sol\":476:517  mapping(address => User) public borrowers */\n    tag_5:\n      tag_19\n      0x04\n      dup1\n      calldatasize\n      sub\n      dup2\n      add\n      swap1\n      tag_20\n      swap2\n      swap1\n      tag_21\n      jump\t// in\n    tag_20:\n      tag_22\n      jump\t// in\n    tag_19:\n      mload(0x40)\n      tag_23\n      swap6\n      swap5\n      swap4\n      swap3\n      swap2\n      swap1\n      tag_24\n      jump\t// in\n    tag_23:\n      mload(0x40)\n      dup1\n      swap2\n      sub\n      swap1\n      return\n        /* \"contracts/UserIdentity.sol\":907:1103  function verifyIsBorrower(address _address) public view returns(bool)... */\n    tag_6:\n      tag_25\n      0x04\n      dup1\n      calldatasize\n      sub\n      dup2\n      add\n      swap1\n      tag_26\n      swap2\n      swap1\n      tag_21\n      jump\t// in\n    tag_26:\n      tag_27\n      jump\t// in\n    tag_25:\n      mload(0x40)\n      tag_28\n      swap2\n      swap1\n      tag_29\n      jump\t// in\n    tag_28:\n      mload(0x40)\n      dup1\n      swap2\n      sub\n      swap1\n      return\n        /* \"contracts/UserIdentity.sol\":576:611  address[] public borrowersAddresses */\n    tag_7:\n      tag_30\n      0x04\n      dup1\n      calldatasize\n      sub\n      dup2\n      add\n      swap1\n      tag_31\n      swap2\n      swap1\n      tag_32\n      jump\t// in\n    tag_31:\n      tag_33\n      jump\t// in\n    tag_30:\n      mload(0x40)\n      tag_34\n      swap2\n      swap1\n      tag_35\n      jump\t// in\n    tag_34:\n      mload(0x40)\n      dup1\n      swap2\n      sub\n      swap1\n      return\n        /* \"contracts/UserIdentity.sol\":371:391  address public admin */\n    tag_8:\n      tag_36\n      tag_37\n      jump\t// in\n    tag_36:\n      mload(0x40)\n      tag_38\n      swap2\n      swap1\n      tag_35\n      jump\t// in\n    tag_38:\n      mload(0x40)\n      dup1\n      swap2\n      sub\n      swap1\n      return\n        /* \"contracts/UserIdentity.sol\":402:432  uint public borrowersCount = 0 */\n    tag_9:\n      tag_39\n      tag_40\n      jump\t// in\n    tag_39:\n      mload(0x40)\n      tag_41\n      swap2\n      swap1\n      tag_42\n      jump\t// in\n    tag_41:\n      mload(0x40)\n      dup1\n      swap2\n      sub\n      swap1\n      return\n        /* \"contracts/UserIdentity.sol\":1113:1469  function addBorrower(string memory _socialSecurityId, address _address, string memory _name) ... */\n    tag_14:\n        /* \"contracts/UserIdentity.sol\":849:859  msg.sender */\n      caller\n        /* \"contracts/UserIdentity.sol\":840:859  admin == msg.sender */\n      0xffffffffffffffffffffffffffffffffffffffff\n      and\n        /* \"contracts/UserIdentity.sol\":840:845  admin */\n      0x00\n      dup1\n      sload\n      swap1\n      0x0100\n      exp\n      swap1\n      div\n      0xffffffffffffffffffffffffffffffffffffffff\n      and\n        /* \"contracts/UserIdentity.sol\":840:859  admin == msg.sender */\n      0xffffffffffffffffffffffffffffffffffffffff\n      and\n      eq\n        /* \"contracts/UserIdentity.sol\":832:874  require(admin == msg.sender, 'Admin Only') */\n      tag_44\n      jumpi\n      mload(0x40)\n      0x08c379a000000000000000000000000000000000000000000000000000000000\n      dup2\n      mstore\n      0x04\n      add\n      tag_45\n      swap1\n      tag_46\n      jump\t// in\n    tag_45:\n      mload(0x40)\n      dup1\n      swap2\n      sub\n      swap1\n      revert\n    tag_44:\n        /* \"contracts/UserIdentity.sol\":1280:1281  1 */\n      0x01\n        /* \"contracts/UserIdentity.sol\":1263:1277  borrowersCount */\n      dup1\n      sload\n        /* \"contracts/UserIdentity.sol\":1263:1281  borrowersCount + 1 */\n      tag_48\n      swap2\n      swap1\n      tag_49\n      jump\t// in\n    tag_48:\n        /* \"contracts/UserIdentity.sol\":1246:1260  borrowersCount */\n      0x01\n        /* \"contracts/UserIdentity.sol\":1246:1281  borrowersCount = borrowersCount + 1 */\n      dup2\n      swap1\n      sstore\n      pop\n        /* \"contracts/UserIdentity.sol\":1291:1307  User memory user */\n      0x00\n        /* \"contracts/UserIdentity.sol\":1310:1383  User(borrowersCount, _socialSecurityId, _address, _name,  Role.BORROWER ) */\n      mload(0x40)\n      dup1\n      0xa0\n      add\n      0x40\n      mstore\n      dup1\n        /* \"contracts/UserIdentity.sol\":1315:1329  borrowersCount */\n      sload(0x01)\n        /* \"contracts/UserIdentity.sol\":1310:1383  User(borrowersCount, _socialSecurityId, _address, _name,  Role.BORROWER ) */\n      dup2\n      mstore\n      0x20\n      add\n        /* \"contracts/UserIdentity.sol\":1331:1348  _socialSecurityId */\n      dup6\n        /* \"contracts/UserIdentity.sol\":1310:1383  User(borrowersCount, _socialSecurityId, _address, _name,  Role.BORROWER ) */\n      dup2\n      mstore\n      0x20\n      add\n        /* \"contracts/UserIdentity.sol\":1350:1358  _address */\n      dup5\n        /* \"contracts/UserIdentity.sol\":1310:1383  User(borrowersCount, _socialSecurityId, _address, _name,  Role.BORROWER ) */\n      0xffffffffffffffffffffffffffffffffffffffff\n      and\n      dup2\n      mstore\n      0x20\n      add\n        /* \"contracts/UserIdentity.sol\":1360:1365  _name */\n      dup4\n        /* \"contracts/UserIdentity.sol\":1310:1383  User(borrowersCount, _socialSecurityId, _address, _name,  Role.BORROWER ) */\n      dup2\n      mstore\n      0x20\n      add\n        /* \"contracts/UserIdentity.sol\":1368:1381  Role.BORROWER */\n      0x01\n        /* \"contracts/UserIdentity.sol\":1310:1383  User(borrowersCount, _socialSecurityId, _address, _name,  Role.BORROWER ) */\n      dup1\n      dup2\n      gt\n      iszero\n      tag_50\n      jumpi\n      tag_51\n      tag_52\n      jump\t// in\n    tag_51:\n    tag_50:\n      dup2\n      mstore\n      pop\n        /* \"contracts/UserIdentity.sol\":1291:1383  User memory user = User(borrowersCount, _socialSecurityId, _address, _name,  Role.BORROWER ) */\n      swap1\n      pop\n        /* \"contracts/UserIdentity.sol\":1415:1419  user */\n      dup1\n        /* \"contracts/UserIdentity.sol\":1393:1402  borrowers */\n      0x02\n        /* \"contracts/UserIdentity.sol\":1393:1412  borrowers[_address] */\n      0x00\n        /* \"contracts/UserIdentity.sol\":1403:1411  _address */\n      dup6\n        /* \"contracts/UserIdentity.sol\":1393:1412  borrowers[_address] */\n      0xffffffffffffffffffffffffffffffffffffffff\n      and\n      0xffffffffffffffffffffffffffffffffffffffff\n      and\n      dup2\n      mstore\n      0x20\n      add\n      swap1\n      dup2\n      mstore\n      0x20\n      add\n      0x00\n      keccak256\n        /* \"contracts/UserIdentity.sol\":1393:1419  borrowers[_address] = user */\n      0x00\n      dup3\n      add\n      mload\n      dup2\n      0x00\n      add\n      sstore\n      0x20\n      dup3\n      add\n      mload\n      dup2\n      0x01\n      add\n      swap1\n      dup1\n      mload\n      swap1\n      0x20\n      add\n      swap1\n      tag_53\n      swap3\n      swap2\n      swap1\n      tag_54\n      jump\t// in\n    tag_53:\n      pop\n      0x40\n      dup3\n      add\n      mload\n      dup2\n      0x02\n      add\n      exp(0x0100, 0x00)\n      dup2\n      sload\n      dup2\n      0xffffffffffffffffffffffffffffffffffffffff\n      mul\n      not\n      and\n      swap1\n      dup4\n      0xffffffffffffffffffffffffffffffffffffffff\n      and\n      mul\n      or\n      swap1\n      sstore\n      pop\n      0x60\n      dup3\n      add\n      mload\n      dup2\n      0x03\n      add\n      swap1\n      dup1\n      mload\n      swap1\n      0x20\n      add\n      swap1\n      tag_55\n      swap3\n      swap2\n      swap1\n      tag_54\n      jump\t// in\n    tag_55:\n      pop\n      0x80\n      dup3\n      add\n      mload\n      dup2\n      0x04\n      add\n      exp(0x0100, 0x00)\n      dup2\n      sload\n      dup2\n      0xff\n      mul\n      not\n      and\n      swap1\n      dup4\n      0x01\n      dup2\n      gt\n      iszero\n      tag_56\n      jumpi\n      tag_57\n      tag_52\n      jump\t// in\n    tag_57:\n    tag_56:\n      mul\n      or\n      swap1\n      sstore\n      pop\n      swap1\n      pop\n      pop\n        /* \"contracts/UserIdentity.sol\":1429:1447  borrowersAddresses */\n      0x03\n        /* \"contracts/UserIdentity.sol\":1453:1461  _address */\n      dup4\n        /* \"contracts/UserIdentity.sol\":1429:1462  borrowersAddresses.push(_address) */\n      swap1\n      dup1\n      0x01\n      dup2\n      sload\n      add\n      dup1\n      dup3\n      sstore\n      dup1\n      swap2\n      pop\n      pop\n      0x01\n      swap1\n      sub\n      swap1\n      0x00\n      mstore\n      keccak256(0x00, 0x20)\n      add\n      0x00\n      swap1\n      swap2\n      swap1\n      swap2\n      swap1\n      swap2\n      0x0100\n      exp\n      dup2\n      sload\n      dup2\n      0xffffffffffffffffffffffffffffffffffffffff\n      mul\n      not\n      and\n      swap1\n      dup4\n      0xffffffffffffffffffffffffffffffffffffffff\n      and\n      mul\n      or\n      swap1\n      sstore\n      pop\n        /* \"contracts/UserIdentity.sol\":1236:1469  {... */\n      pop\n        /* \"contracts/UserIdentity.sol\":1113:1469  function addBorrower(string memory _socialSecurityId, address _address, string memory _name) ... */\n      pop\n      pop\n      pop\n      jump\t// out\n        /* \"contracts/UserIdentity.sol\":1484:1746  function getAllBorrowers() public view returns (User[] memory){... */\n    tag_16:\n        /* \"contracts/UserIdentity.sol\":1532:1545  User[] memory */\n      0x60\n        /* \"contracts/UserIdentity.sol\":1556:1573  User[] memory ret */\n      0x00\n        /* \"contracts/UserIdentity.sol\":1587:1601  borrowersCount */\n      sload(0x01)\n        /* \"contracts/UserIdentity.sol\":1576:1602  new User[](borrowersCount) */\n      0xffffffffffffffff\n      dup2\n      gt\n      iszero\n      tag_60\n      jumpi\n      tag_61\n      tag_62\n      jump\t// in\n    tag_61:\n    tag_60:\n      mload(0x40)\n      swap1\n      dup1\n      dup3\n      mstore\n      dup1\n      0x20\n      mul\n      0x20\n      add\n      dup3\n      add\n      0x40\n      mstore\n      dup1\n      iszero\n      tag_63\n      jumpi\n      dup2\n      0x20\n      add\n    tag_64:\n      tag_65\n      tag_66\n      jump\t// in\n    tag_65:\n      dup2\n      mstore\n      0x20\n      add\n      swap1\n      0x01\n      swap1\n      sub\n      swap1\n      dup2\n      tag_64\n      jumpi\n      swap1\n      pop\n    tag_63:\n      pop\n        /* \"contracts/UserIdentity.sol\":1556:1602  User[] memory ret = new User[](borrowersCount) */\n      swap1\n      pop\n        /* \"contracts/UserIdentity.sol\":1617:1623  uint i */\n      0x00\n        /* \"contracts/UserIdentity.sol\":1612:1720  for (uint i = 0; i < borrowersCount; i++) {... */\n    tag_67:\n        /* \"contracts/UserIdentity.sol\":1633:1647  borrowersCount */\n      sload(0x01)\n        /* \"contracts/UserIdentity.sol\":1629:1630  i */\n      dup2\n        /* \"contracts/UserIdentity.sol\":1629:1647  i < borrowersCount */\n      lt\n        /* \"contracts/UserIdentity.sol\":1612:1720  for (uint i = 0; i < borrowersCount; i++) {... */\n      iszero\n      tag_68\n      jumpi\n        /* \"contracts/UserIdentity.sol\":1677:1686  borrowers */\n      0x02\n        /* \"contracts/UserIdentity.sol\":1677:1709  borrowers[borrowersAddresses[i]] */\n      0x00\n        /* \"contracts/UserIdentity.sol\":1687:1705  borrowersAddresses */\n      0x03\n        /* \"contracts/UserIdentity.sol\":1706:1707  i */\n      dup4\n        /* \"contracts/UserIdentity.sol\":1687:1708  borrowersAddresses[i] */\n      dup2\n      sload\n      dup2\n      lt\n      tag_70\n      jumpi\n      tag_71\n      tag_72\n      jump\t// in\n    tag_71:\n    tag_70:\n      swap1\n      0x00\n      mstore\n      keccak256(0x00, 0x20)\n      add\n      0x00\n      swap1\n      sload\n      swap1\n      0x0100\n      exp\n      swap1\n      div\n      0xffffffffffffffffffffffffffffffffffffffff\n      and\n        /* \"contracts/UserIdentity.sol\":1677:1709  borrowers[borrowersAddresses[i]] */\n      0xffffffffffffffffffffffffffffffffffffffff\n      and\n      0xffffffffffffffffffffffffffffffffffffffff\n      and\n      dup2\n      mstore\n      0x20\n      add\n      swap1\n      dup2\n      mstore\n      0x20\n      add\n      0x00\n      keccak256\n        /* \"contracts/UserIdentity.sol\":1668:1709  ret[i] = borrowers[borrowersAddresses[i]] */\n      mload(0x40)\n      dup1\n      0xa0\n      add\n      0x40\n      mstore\n      swap1\n      dup2\n      0x00\n      dup3\n      add\n      sload\n      dup2\n      mstore\n      0x20\n      add\n      0x01\n      dup3\n      add\n      dup1\n      sload\n      tag_74\n      swap1\n      tag_75\n      jump\t// in\n    tag_74:\n      dup1\n      0x1f\n      add\n      0x20\n      dup1\n      swap2\n      div\n      mul\n      0x20\n      add\n      mload(0x40)\n      swap1\n      dup2\n      add\n      0x40\n      mstore\n      dup1\n      swap3\n      swap2\n      swap1\n      dup2\n      dup2\n      mstore\n      0x20\n      add\n      dup3\n      dup1\n      sload\n      tag_76\n      swap1\n      tag_75\n      jump\t// in\n    tag_76:\n      dup1\n      iszero\n      tag_77\n      jumpi\n      dup1\n      0x1f\n      lt\n      tag_78\n      jumpi\n      0x0100\n      dup1\n      dup4\n      sload\n      div\n      mul\n      dup4\n      mstore\n      swap2\n      0x20\n      add\n      swap2\n      jump(tag_77)\n    tag_78:\n      dup3\n      add\n      swap2\n      swap1\n      0x00\n      mstore\n      keccak256(0x00, 0x20)\n      swap1\n    tag_79:\n      dup2\n      sload\n      dup2\n      mstore\n      swap1\n      0x01\n      add\n      swap1\n      0x20\n      add\n      dup1\n      dup4\n      gt\n      tag_79\n      jumpi\n      dup3\n      swap1\n      sub\n      0x1f\n      and\n      dup3\n      add\n      swap2\n    tag_77:\n      pop\n      pop\n      pop\n      pop\n      pop\n      dup2\n      mstore\n      0x20\n      add\n      0x02\n      dup3\n      add\n      0x00\n      swap1\n      sload\n      swap1\n      0x0100\n      exp\n      swap1\n      div\n      0xffffffffffffffffffffffffffffffffffffffff\n      and\n      0xffffffffffffffffffffffffffffffffffffffff\n      and\n      0xffffffffffffffffffffffffffffffffffffffff\n      and\n      dup2\n      mstore\n      0x20\n      add\n      0x03\n      dup3\n      add\n      dup1\n      sload\n      tag_80\n      swap1\n      tag_75\n      jump\t// in\n    tag_80:\n      dup1\n      0x1f\n      add\n      0x20\n      dup1\n      swap2\n      div\n      mul\n      0x20\n      add\n      mload(0x40)\n      swap1\n      dup2\n      add\n      0x40\n      mstore\n      dup1\n      swap3\n      swap2\n      swap1\n      dup2\n      dup2\n      mstore\n      0x20\n      add\n      dup3\n      dup1\n      sload\n      tag_81\n      swap1\n      tag_75\n      jump\t// in\n    tag_81:\n      dup1\n      iszero\n      tag_82\n      jumpi\n      dup1\n      0x1f\n      lt\n      tag_83\n      jumpi\n      0x0100\n      dup1\n      dup4\n      sload\n      div\n      mul\n      dup4\n      mstore\n      swap2\n      0x20\n      add\n      swap2\n      jump(tag_82)\n    tag_83:\n      dup3\n      add\n      swap2\n      swap1\n      0x00\n      mstore\n      keccak256(0x00, 0x20)\n      swap1\n    tag_84:\n      dup2\n      sload\n      dup2\n      mstore\n      swap1\n      0x01\n      add\n      swap1\n      0x20\n      add\n      dup1\n      dup4\n      gt\n      tag_84\n      jumpi\n      dup3\n      swap1\n      sub\n      0x1f\n      and\n      dup3\n      add\n      swap2\n    tag_82:\n      pop\n      pop\n      pop\n      pop\n      pop\n      dup2\n      mstore\n      0x20\n      add\n      0x04\n      dup3\n      add\n      0x00\n      swap1\n      sload\n      swap1\n      0x0100\n      exp\n      swap1\n      div\n      0xff\n      and\n      0x01\n      dup2\n      gt\n      iszero\n      tag_85\n      jumpi\n      tag_86\n      tag_52\n      jump\t// in\n    tag_86:\n    tag_85:\n      0x01\n      dup2\n      gt\n      iszero\n      tag_87\n      jumpi\n      tag_88\n      tag_52\n      jump\t// in\n    tag_88:\n    tag_87:\n      dup2\n      mstore\n      pop\n      pop\n        /* \"contracts/UserIdentity.sol\":1668:1671  ret */\n      dup3\n        /* \"contracts/UserIdentity.sol\":1672:1673  i */\n      dup3\n        /* \"contracts/UserIdentity.sol\":1668:1674  ret[i] */\n      dup2\n      mload\n      dup2\n      lt\n      tag_89\n      jumpi\n      tag_90\n      tag_72\n      jump\t// in\n    tag_90:\n    tag_89:\n      0x20\n      mul\n      0x20\n      add\n      add\n        /* \"contracts/UserIdentity.sol\":1668:1709  ret[i] = borrowers[borrowersAddresses[i]] */\n      dup2\n      swap1\n      mstore\n      pop\n        /* \"contracts/UserIdentity.sol\":1649:1652  i++ */\n      dup1\n      dup1\n      tag_91\n      swap1\n      tag_92\n      jump\t// in\n    tag_91:\n      swap2\n      pop\n      pop\n        /* \"contracts/UserIdentity.sol\":1612:1720  for (uint i = 0; i < borrowersCount; i++) {... */\n      jump(tag_67)\n    tag_68:\n      pop\n        /* \"contracts/UserIdentity.sol\":1736:1739  ret */\n      dup1\n        /* \"contracts/UserIdentity.sol\":1729:1739  return ret */\n      swap2\n      pop\n      pop\n        /* \"contracts/UserIdentity.sol\":1484:1746  function getAllBorrowers() public view returns (User[] memory){... */\n      swap1\n      jump\t// out\n        /* \"contracts/UserIdentity.sol\":476:517  mapping(address => User) public borrowers */\n    tag_22:\n      mstore(0x20, 0x02)\n      dup1\n      0x00\n      mstore\n      keccak256(0x00, 0x40)\n      0x00\n      swap2\n      pop\n      swap1\n      pop\n      dup1\n      0x00\n      add\n      sload\n      swap1\n      dup1\n      0x01\n      add\n      dup1\n      sload\n      tag_93\n      swap1\n      tag_75\n      jump\t// in\n    tag_93:\n      dup1\n      0x1f\n      add\n      0x20\n      dup1\n      swap2\n      div\n      mul\n      0x20\n      add\n      mload(0x40)\n      swap1\n      dup2\n      add\n      0x40\n      mstore\n      dup1\n      swap3\n      swap2\n      swap1\n      dup2\n      dup2\n      mstore\n      0x20\n      add\n      dup3\n      dup1\n      sload\n      tag_94\n      swap1\n      tag_75\n      jump\t// in\n    tag_94:\n      dup1\n      iszero\n      tag_95\n      jumpi\n      dup1\n      0x1f\n      lt\n      tag_96\n      jumpi\n      0x0100\n      dup1\n      dup4\n      sload\n      div\n      mul\n      dup4\n      mstore\n      swap2\n      0x20\n      add\n      swap2\n      jump(tag_95)\n    tag_96:\n      dup3\n      add\n      swap2\n      swap1\n      0x00\n      mstore\n      keccak256(0x00, 0x20)\n      swap1\n    tag_97:\n      dup2\n      sload\n      dup2\n      mstore\n      swap1\n      0x01\n      add\n      swap1\n      0x20\n      add\n      dup1\n      dup4\n      gt\n      tag_97\n      jumpi\n      dup3\n      swap1\n      sub\n      0x1f\n      and\n      dup3\n      add\n      swap2\n    tag_95:\n      pop\n      pop\n      pop\n      pop\n      pop\n      swap1\n      dup1\n      0x02\n      add\n      0x00\n      swap1\n      sload\n      swap1\n      0x0100\n      exp\n      swap1\n      div\n      0xffffffffffffffffffffffffffffffffffffffff\n      and\n      swap1\n      dup1\n      0x03\n      add\n      dup1\n      sload\n      tag_98\n      swap1\n      tag_75\n      jump\t// in\n    tag_98:\n      dup1\n      0x1f\n      add\n      0x20\n      dup1\n      swap2\n      div\n      mul\n      0x20\n      add\n      mload(0x40)\n      swap1\n      dup2\n      add\n      0x40\n      mstore\n      dup1\n      swap3\n      swap2\n      swap1\n      dup2\n      dup2\n      mstore\n      0x20\n      add\n      dup3\n      dup1\n      sload\n      tag_99\n      swap1\n      tag_75\n      jump\t// in\n    tag_99:\n      dup1\n      iszero\n      tag_100\n      jumpi\n      dup1\n      0x1f\n      lt\n      tag_101\n      jumpi\n      0x0100\n      dup1\n      dup4\n      sload\n      div\n      mul\n      dup4\n      mstore\n      swap2\n      0x20\n      add\n      swap2\n      jump(tag_100)\n    tag_101:\n      dup3\n      add\n      swap2\n      swap1\n      0x00\n      mstore\n      keccak256(0x00, 0x20)\n      swap1\n    tag_102:\n      dup2\n      sload\n      dup2\n      mstore\n      swap1\n      0x01\n      add\n      swap1\n      0x20\n      add\n      dup1\n      dup4\n      gt\n      tag_102\n      jumpi\n      dup3\n      swap1\n      sub\n      0x1f\n      and\n      dup3\n      add\n      swap2\n    tag_100:\n      pop\n      pop\n      pop\n      pop\n      pop\n      swap1\n      dup1\n      0x04\n      add\n      0x00\n      swap1\n      sload\n      swap1\n      0x0100\n      exp\n      swap1\n      div\n      0xff\n      and\n      swap1\n      pop\n      dup6\n      jump\t// out\n        /* \"contracts/UserIdentity.sol\":907:1103  function verifyIsBorrower(address _address) public view returns(bool)... */\n    tag_27:\n        /* \"contracts/UserIdentity.sol\":971:975  bool */\n      0x00\n        /* \"contracts/UserIdentity.sol\":991:1003  bool isValid */\n      dup1\n        /* \"contracts/UserIdentity.sol\":1006:1011  false */\n      0x00\n        /* \"contracts/UserIdentity.sol\":991:1011  bool isValid = false */\n      swap1\n      pop\n        /* \"contracts/UserIdentity.sol\":1059:1072  Role.BORROWER */\n      0x01\n        /* \"contracts/UserIdentity.sol\":1031:1072  borrowers[_address].role == Role.BORROWER */\n      dup1\n      dup2\n      gt\n      iszero\n      tag_104\n      jumpi\n      tag_105\n      tag_52\n      jump\t// in\n    tag_105:\n    tag_104:\n        /* \"contracts/UserIdentity.sol\":1031:1040  borrowers */\n      0x02\n        /* \"contracts/UserIdentity.sol\":1031:1050  borrowers[_address] */\n      0x00\n        /* \"contracts/UserIdentity.sol\":1041:1049  _address */\n      dup6\n        /* \"contracts/UserIdentity.sol\":1031:1050  borrowers[_address] */\n      0xffffffffffffffffffffffffffffffffffffffff\n      and\n      0xffffffffffffffffffffffffffffffffffffffff\n      and\n      dup2\n      mstore\n      0x20\n      add\n      swap1\n      dup2\n      mstore\n      0x20\n      add\n      0x00\n      keccak256\n        /* \"contracts/UserIdentity.sol\":1031:1055  borrowers[_address].role */\n      0x04\n      add\n      0x00\n      swap1\n      sload\n      swap1\n      0x0100\n      exp\n      swap1\n      div\n      0xff\n      and\n        /* \"contracts/UserIdentity.sol\":1031:1072  borrowers[_address].role == Role.BORROWER */\n      0x01\n      dup2\n      gt\n      iszero\n      tag_106\n      jumpi\n      tag_107\n      tag_52\n      jump\t// in\n    tag_107:\n    tag_106:\n      eq\n        /* \"contracts/UserIdentity.sol\":1021:1072  isValid = borrowers[_address].role == Role.BORROWER */\n      swap1\n      pop\n        /* \"contracts/UserIdentity.sol\":1089:1096  isValid */\n      dup1\n        /* \"contracts/UserIdentity.sol\":1082:1096  return isValid */\n      swap2\n      pop\n      pop\n        /* \"contracts/UserIdentity.sol\":907:1103  function verifyIsBorrower(address _address) public view returns(bool)... */\n      swap2\n      swap1\n      pop\n      jump\t// out\n        /* \"contracts/UserIdentity.sol\":576:611  address[] public borrowersAddresses */\n    tag_33:\n      0x03\n      dup2\n      dup2\n      sload\n      dup2\n      lt\n      tag_108\n      jumpi\n      0x00\n      dup1\n      revert\n    tag_108:\n      swap1\n      0x00\n      mstore\n      keccak256(0x00, 0x20)\n      add\n      0x00\n      swap2\n      pop\n      sload\n      swap1\n      0x0100\n      exp\n      swap1\n      div\n      0xffffffffffffffffffffffffffffffffffffffff\n      and\n      dup2\n      jump\t// out\n        /* \"contracts/UserIdentity.sol\":371:391  address public admin */\n    tag_37:\n      0x00\n      dup1\n      sload\n      swap1\n      0x0100\n      exp\n      swap1\n      div\n      0xffffffffffffffffffffffffffffffffffffffff\n      and\n      dup2\n      jump\t// out\n        /* \"contracts/UserIdentity.sol\":402:432  uint public borrowersCount = 0 */\n    tag_40:\n      sload(0x01)\n      dup2\n      jump\t// out\n    tag_54:\n      dup3\n      dup1\n      sload\n      tag_110\n      swap1\n      tag_75\n      jump\t// in\n    tag_110:\n      swap1\n      0x00\n      mstore\n      keccak256(0x00, 0x20)\n      swap1\n      0x1f\n      add\n      0x20\n      swap1\n      div\n      dup2\n      add\n      swap3\n      dup3\n      tag_112\n      jumpi\n      0x00\n      dup6\n      sstore\n      jump(tag_111)\n    tag_112:\n      dup3\n      0x1f\n      lt\n      tag_113\n      jumpi\n      dup1\n      mload\n      not(0xff)\n      and\n      dup4\n      dup1\n      add\n      or\n      dup6\n      sstore\n      jump(tag_111)\n    tag_113:\n      dup3\n      dup1\n      add\n      0x01\n      add\n      dup6\n      sstore\n      dup3\n      iszero\n      tag_111\n      jumpi\n      swap2\n      dup3\n      add\n    tag_114:\n      dup3\n      dup2\n      gt\n      iszero\n      tag_115\n      jumpi\n      dup3\n      mload\n      dup3\n      sstore\n      swap2\n      0x20\n      add\n      swap2\n      swap1\n      0x01\n      add\n      swap1\n      jump(tag_114)\n    tag_115:\n    tag_111:\n      pop\n      swap1\n      pop\n      tag_116\n      swap2\n      swap1\n      tag_117\n      jump\t// in\n    tag_116:\n      pop\n      swap1\n      jump\t// out\n    tag_66:\n      mload(0x40)\n      dup1\n      0xa0\n      add\n      0x40\n      mstore\n      dup1\n      0x00\n      dup2\n      mstore\n      0x20\n      add\n      0x60\n      dup2\n      mstore\n      0x20\n      add\n      and(0xffffffffffffffffffffffffffffffffffffffff, 0x00)\n      dup2\n      mstore\n      0x20\n      add\n      0x60\n      dup2\n      mstore\n      0x20\n      add\n      0x00\n      0x01\n      dup2\n      gt\n      iszero\n      tag_118\n      jumpi\n      tag_119\n      tag_52\n      jump\t// in\n    tag_119:\n    tag_118:\n      dup2\n      mstore\n      pop\n      swap1\n      jump\t// out\n    tag_117:\n    tag_120:\n      dup1\n      dup3\n      gt\n      iszero\n      tag_121\n      jumpi\n      0x00\n      dup2\n      0x00\n      swap1\n      sstore\n      pop\n      0x01\n      add\n      jump(tag_120)\n    tag_121:\n      pop\n      swap1\n      jump\t// out\n        /* \"#utility.yul\":7:419   */\n    tag_123:\n        /* \"#utility.yul\":85:90   */\n      0x00\n        /* \"#utility.yul\":110:176   */\n      tag_125\n        /* \"#utility.yul\":126:175   */\n      tag_126\n        /* \"#utility.yul\":168:174   */\n      dup5\n        /* \"#utility.yul\":126:175   */\n      tag_127\n      jump\t// in\n    tag_126:\n        /* \"#utility.yul\":110:176   */\n      tag_128\n      jump\t// in\n    tag_125:\n        /* \"#utility.yul\":101:176   */\n      swap1\n      pop\n        /* \"#utility.yul\":199:205   */\n      dup3\n        /* \"#utility.yul\":192:197   */\n      dup2\n        /* \"#utility.yul\":185:206   */\n      mstore\n        /* \"#utility.yul\":237:241   */\n      0x20\n        /* \"#utility.yul\":230:235   */\n      dup2\n        /* \"#utility.yul\":226:242   */\n      add\n        /* \"#utility.yul\":275:278   */\n      dup5\n        /* \"#utility.yul\":266:272   */\n      dup5\n        /* \"#utility.yul\":261:264   */\n      dup5\n        /* \"#utility.yul\":257:273   */\n      add\n        /* \"#utility.yul\":254:279   */\n      gt\n        /* \"#utility.yul\":251:363   */\n      iszero\n      tag_129\n      jumpi\n        /* \"#utility.yul\":282:361   */\n      tag_130\n      tag_131\n      jump\t// in\n    tag_130:\n        /* \"#utility.yul\":251:363   */\n    tag_129:\n        /* \"#utility.yul\":372:413   */\n      tag_132\n        /* \"#utility.yul\":406:412   */\n      dup5\n        /* \"#utility.yul\":401:404   */\n      dup3\n        /* \"#utility.yul\":396:399   */\n      dup6\n        /* \"#utility.yul\":372:413   */\n      tag_133\n      jump\t// in\n    tag_132:\n        /* \"#utility.yul\":91:419   */\n      pop\n        /* \"#utility.yul\":7:419   */\n      swap4\n      swap3\n      pop\n      pop\n      pop\n      jump\t// out\n        /* \"#utility.yul\":425:564   */\n    tag_134:\n        /* \"#utility.yul\":471:476   */\n      0x00\n        /* \"#utility.yul\":509:515   */\n      dup2\n        /* \"#utility.yul\":496:516   */\n      calldataload\n        /* \"#utility.yul\":487:516   */\n      swap1\n      pop\n        /* \"#utility.yul\":525:558   */\n      tag_136\n        /* \"#utility.yul\":552:557   */\n      dup2\n        /* \"#utility.yul\":525:558   */\n      tag_137\n      jump\t// in\n    tag_136:\n        /* \"#utility.yul\":425:564   */\n      swap3\n      swap2\n      pop\n      pop\n      jump\t// out\n        /* \"#utility.yul\":584:924   */\n    tag_138:\n        /* \"#utility.yul\":640:645   */\n      0x00\n        /* \"#utility.yul\":689:692   */\n      dup3\n        /* \"#utility.yul\":682:686   */\n      0x1f\n        /* \"#utility.yul\":674:680   */\n      dup4\n        /* \"#utility.yul\":670:687   */\n      add\n        /* \"#utility.yul\":666:693   */\n      slt\n        /* \"#utility.yul\":656:778   */\n      tag_140\n      jumpi\n        /* \"#utility.yul\":697:776   */\n      tag_141\n      tag_142\n      jump\t// in\n    tag_141:\n        /* \"#utility.yul\":656:778   */\n    tag_140:\n        /* \"#utility.yul\":814:820   */\n      dup2\n        /* \"#utility.yul\":801:821   */\n      calldataload\n        /* \"#utility.yul\":839:918   */\n      tag_143\n        /* \"#utility.yul\":914:917   */\n      dup5\n        /* \"#utility.yul\":906:912   */\n      dup3\n        /* \"#utility.yul\":899:903   */\n      0x20\n        /* \"#utility.yul\":891:897   */\n      dup7\n        /* \"#utility.yul\":887:904   */\n      add\n        /* \"#utility.yul\":839:918   */\n      tag_123\n      jump\t// in\n    tag_143:\n        /* \"#utility.yul\":830:918   */\n      swap2\n      pop\n        /* \"#utility.yul\":646:924   */\n      pop\n        /* \"#utility.yul\":584:924   */\n      swap3\n      swap2\n      pop\n      pop\n      jump\t// out\n        /* \"#utility.yul\":930:1069   */\n    tag_144:\n        /* \"#utility.yul\":976:981   */\n      0x00\n        /* \"#utility.yul\":1014:1020   */\n      dup2\n        /* \"#utility.yul\":1001:1021   */\n      calldataload\n        /* \"#utility.yul\":992:1021   */\n      swap1\n      pop\n        /* \"#utility.yul\":1030:1063   */\n      tag_146\n        /* \"#utility.yul\":1057:1062   */\n      dup2\n        /* \"#utility.yul\":1030:1063   */\n      tag_147\n      jump\t// in\n    tag_146:\n        /* \"#utility.yul\":930:1069   */\n      swap3\n      swap2\n      pop\n      pop\n      jump\t// out\n        /* \"#utility.yul\":1075:1404   */\n    tag_21:\n        /* \"#utility.yul\":1134:1140   */\n      0x00\n        /* \"#utility.yul\":1183:1185   */\n      0x20\n        /* \"#utility.yul\":1171:1180   */\n      dup3\n        /* \"#utility.yul\":1162:1169   */\n      dup5\n        /* \"#utility.yul\":1158:1181   */\n      sub\n        /* \"#utility.yul\":1154:1186   */\n      slt\n        /* \"#utility.yul\":1151:1270   */\n      iszero\n      tag_149\n      jumpi\n        /* \"#utility.yul\":1189:1268   */\n      tag_150\n      tag_151\n      jump\t// in\n    tag_150:\n        /* \"#utility.yul\":1151:1270   */\n    tag_149:\n        /* \"#utility.yul\":1309:1310   */\n      0x00\n        /* \"#utility.yul\":1334:1387   */\n      tag_152\n        /* \"#utility.yul\":1379:1386   */\n      dup5\n        /* \"#utility.yul\":1370:1376   */\n      dup3\n        /* \"#utility.yul\":1359:1368   */\n      dup6\n        /* \"#utility.yul\":1355:1377   */\n      add\n        /* \"#utility.yul\":1334:1387   */\n      tag_134\n      jump\t// in\n    tag_152:\n        /* \"#utility.yul\":1324:1387   */\n      swap2\n      pop\n        /* \"#utility.yul\":1280:1397   */\n      pop\n        /* \"#utility.yul\":1075:1404   */\n      swap3\n      swap2\n      pop\n      pop\n      jump\t// out\n        /* \"#utility.yul\":1410:2389   */\n    tag_13:\n        /* \"#utility.yul\":1507:1513   */\n      0x00\n        /* \"#utility.yul\":1515:1521   */\n      dup1\n        /* \"#utility.yul\":1523:1529   */\n      0x00\n        /* \"#utility.yul\":1572:1574   */\n      0x60\n        /* \"#utility.yul\":1560:1569   */\n      dup5\n        /* \"#utility.yul\":1551:1558   */\n      dup7\n        /* \"#utility.yul\":1547:1570   */\n      sub\n        /* \"#utility.yul\":1543:1575   */\n      slt\n        /* \"#utility.yul\":1540:1659   */\n      iszero\n      tag_154\n      jumpi\n        /* \"#utility.yul\":1578:1657   */\n      tag_155\n      tag_151\n      jump\t// in\n    tag_155:\n        /* \"#utility.yul\":1540:1659   */\n    tag_154:\n        /* \"#utility.yul\":1726:1727   */\n      0x00\n        /* \"#utility.yul\":1715:1724   */\n      dup5\n        /* \"#utility.yul\":1711:1728   */\n      add\n        /* \"#utility.yul\":1698:1729   */\n      calldataload\n        /* \"#utility.yul\":1756:1774   */\n      0xffffffffffffffff\n        /* \"#utility.yul\":1748:1754   */\n      dup2\n        /* \"#utility.yul\":1745:1775   */\n      gt\n        /* \"#utility.yul\":1742:1859   */\n      iszero\n      tag_156\n      jumpi\n        /* \"#utility.yul\":1778:1857   */\n      tag_157\n      tag_158\n      jump\t// in\n    tag_157:\n        /* \"#utility.yul\":1742:1859   */\n    tag_156:\n        /* \"#utility.yul\":1883:1946   */\n      tag_159\n        /* \"#utility.yul\":1938:1945   */\n      dup7\n        /* \"#utility.yul\":1929:1935   */\n      dup3\n        /* \"#utility.yul\":1918:1927   */\n      dup8\n        /* \"#utility.yul\":1914:1936   */\n      add\n        /* \"#utility.yul\":1883:1946   */\n      tag_138\n      jump\t// in\n    tag_159:\n        /* \"#utility.yul\":1873:1946   */\n      swap4\n      pop\n        /* \"#utility.yul\":1669:1956   */\n      pop\n        /* \"#utility.yul\":1995:1997   */\n      0x20\n        /* \"#utility.yul\":2021:2074   */\n      tag_160\n        /* \"#utility.yul\":2066:2073   */\n      dup7\n        /* \"#utility.yul\":2057:2063   */\n      dup3\n        /* \"#utility.yul\":2046:2055   */\n      dup8\n        /* \"#utility.yul\":2042:2064   */\n      add\n        /* \"#utility.yul\":2021:2074   */\n      tag_134\n      jump\t// in\n    tag_160:\n        /* \"#utility.yul\":2011:2074   */\n      swap3\n      pop\n        /* \"#utility.yul\":1966:2084   */\n      pop\n        /* \"#utility.yul\":2151:2153   */\n      0x40\n        /* \"#utility.yul\":2140:2149   */\n      dup5\n        /* \"#utility.yul\":2136:2154   */\n      add\n        /* \"#utility.yul\":2123:2155   */\n      calldataload\n        /* \"#utility.yul\":2182:2200   */\n      0xffffffffffffffff\n        /* \"#utility.yul\":2174:2180   */\n      dup2\n        /* \"#utility.yul\":2171:2201   */\n      gt\n        /* \"#utility.yul\":2168:2285   */\n      iszero\n      tag_161\n      jumpi\n        /* \"#utility.yul\":2204:2283   */\n      tag_162\n      tag_158\n      jump\t// in\n    tag_162:\n        /* \"#utility.yul\":2168:2285   */\n    tag_161:\n        /* \"#utility.yul\":2309:2372   */\n      tag_163\n        /* \"#utility.yul\":2364:2371   */\n      dup7\n        /* \"#utility.yul\":2355:2361   */\n      dup3\n        /* \"#utility.yul\":2344:2353   */\n      dup8\n        /* \"#utility.yul\":2340:2362   */\n      add\n        /* \"#utility.yul\":2309:2372   */\n      tag_138\n      jump\t// in\n    tag_163:\n        /* \"#utility.yul\":2299:2372   */\n      swap2\n      pop\n        /* \"#utility.yul\":2094:2382   */\n      pop\n        /* \"#utility.yul\":1410:2389   */\n      swap3\n      pop\n      swap3\n      pop\n      swap3\n      jump\t// out\n        /* \"#utility.yul\":2395:2724   */\n    tag_32:\n        /* \"#utility.yul\":2454:2460   */\n      0x00\n        /* \"#utility.yul\":2503:2505   */\n      0x20\n        /* \"#utility.yul\":2491:2500   */\n      dup3\n        /* \"#utility.yul\":2482:2489   */\n      dup5\n        /* \"#utility.yul\":2478:2501   */\n      sub\n        /* \"#utility.yul\":2474:2506   */\n      slt\n        /* \"#utility.yul\":2471:2590   */\n      iszero\n      tag_165\n      jumpi\n        /* \"#utility.yul\":2509:2588   */\n      tag_166\n      tag_151\n      jump\t// in\n    tag_166:\n        /* \"#utility.yul\":2471:2590   */\n    tag_165:\n        /* \"#utility.yul\":2629:2630   */\n      0x00\n        /* \"#utility.yul\":2654:2707   */\n      tag_167\n        /* \"#utility.yul\":2699:2706   */\n      dup5\n        /* \"#utility.yul\":2690:2696   */\n      dup3\n        /* \"#utility.yul\":2679:2688   */\n      dup6\n        /* \"#utility.yul\":2675:2697   */\n      add\n        /* \"#utility.yul\":2654:2707   */\n      tag_144\n      jump\t// in\n    tag_167:\n        /* \"#utility.yul\":2644:2707   */\n      swap2\n      pop\n        /* \"#utility.yul\":2600:2717   */\n      pop\n        /* \"#utility.yul\":2395:2724   */\n      swap3\n      swap2\n      pop\n      pop\n      jump\t// out\n        /* \"#utility.yul\":2730:2966   */\n    tag_168:\n        /* \"#utility.yul\":2839:2849   */\n      0x00\n        /* \"#utility.yul\":2874:2960   */\n      tag_170\n        /* \"#utility.yul\":2956:2959   */\n      dup4\n        /* \"#utility.yul\":2948:2954   */\n      dup4\n        /* \"#utility.yul\":2874:2960   */\n      tag_171\n      jump\t// in\n    tag_170:\n        /* \"#utility.yul\":2860:2960   */\n      swap1\n      pop\n        /* \"#utility.yul\":2730:2966   */\n      swap3\n      swap2\n      pop\n      pop\n      jump\t// out\n        /* \"#utility.yul\":2972:3080   */\n    tag_172:\n        /* \"#utility.yul\":3049:3073   */\n      tag_174\n        /* \"#utility.yul\":3067:3072   */\n      dup2\n        /* \"#utility.yul\":3049:3073   */\n      tag_175\n      jump\t// in\n    tag_174:\n        /* \"#utility.yul\":3044:3047   */\n      dup3\n        /* \"#utility.yul\":3037:3074   */\n      mstore\n        /* \"#utility.yul\":2972:3080   */\n      pop\n      pop\n      jump\t// out\n        /* \"#utility.yul\":3086:3204   */\n    tag_176:\n        /* \"#utility.yul\":3173:3197   */\n      tag_178\n        /* \"#utility.yul\":3191:3196   */\n      dup2\n        /* \"#utility.yul\":3173:3197   */\n      tag_175\n      jump\t// in\n    tag_178:\n        /* \"#utility.yul\":3168:3171   */\n      dup3\n        /* \"#utility.yul\":3161:3198   */\n      mstore\n        /* \"#utility.yul\":3086:3204   */\n      pop\n      pop\n      jump\t// out\n        /* \"#utility.yul\":3274:4345   */\n    tag_179:\n        /* \"#utility.yul\":3433:3436   */\n      0x00\n        /* \"#utility.yul\":3462:3536   */\n      tag_181\n        /* \"#utility.yul\":3530:3535   */\n      dup3\n        /* \"#utility.yul\":3462:3536   */\n      tag_182\n      jump\t// in\n    tag_181:\n        /* \"#utility.yul\":3552:3658   */\n      tag_183\n        /* \"#utility.yul\":3651:3657   */\n      dup2\n        /* \"#utility.yul\":3646:3649   */\n      dup6\n        /* \"#utility.yul\":3552:3658   */\n      tag_184\n      jump\t// in\n    tag_183:\n        /* \"#utility.yul\":3545:3658   */\n      swap4\n      pop\n        /* \"#utility.yul\":3684:3687   */\n      dup4\n        /* \"#utility.yul\":3729:3733   */\n      0x20\n        /* \"#utility.yul\":3721:3727   */\n      dup3\n        /* \"#utility.yul\":3717:3734   */\n      mul\n        /* \"#utility.yul\":3712:3715   */\n      dup6\n        /* \"#utility.yul\":3708:3735   */\n      add\n        /* \"#utility.yul\":3759:3835   */\n      tag_185\n        /* \"#utility.yul\":3829:3834   */\n      dup6\n        /* \"#utility.yul\":3759:3835   */\n      tag_186\n      jump\t// in\n    tag_185:\n        /* \"#utility.yul\":3858:3865   */\n      dup1\n        /* \"#utility.yul\":3889:3890   */\n      0x00\n        /* \"#utility.yul\":3874:4300   */\n    tag_187:\n        /* \"#utility.yul\":3899:3905   */\n      dup6\n        /* \"#utility.yul\":3896:3897   */\n      dup2\n        /* \"#utility.yul\":3893:3906   */\n      lt\n        /* \"#utility.yul\":3874:4300   */\n      iszero\n      tag_189\n      jumpi\n        /* \"#utility.yul\":3970:3979   */\n      dup5\n        /* \"#utility.yul\":3964:3968   */\n      dup5\n        /* \"#utility.yul\":3960:3980   */\n      sub\n        /* \"#utility.yul\":3955:3958   */\n      dup10\n        /* \"#utility.yul\":3948:3981   */\n      mstore\n        /* \"#utility.yul\":4021:4027   */\n      dup2\n        /* \"#utility.yul\":4015:4028   */\n      mload\n        /* \"#utility.yul\":4049:4153   */\n      tag_190\n        /* \"#utility.yul\":4148:4152   */\n      dup6\n        /* \"#utility.yul\":4133:4146   */\n      dup3\n        /* \"#utility.yul\":4049:4153   */\n      tag_168\n      jump\t// in\n    tag_190:\n        /* \"#utility.yul\":4041:4153   */\n      swap5\n      pop\n        /* \"#utility.yul\":4176:4256   */\n      tag_191\n        /* \"#utility.yul\":4249:4255   */\n      dup4\n        /* \"#utility.yul\":4176:4256   */\n      tag_192\n      jump\t// in\n    tag_191:\n        /* \"#utility.yul\":4166:4256   */\n      swap3\n      pop\n        /* \"#utility.yul\":4285:4289   */\n      0x20\n        /* \"#utility.yul\":4280:4283   */\n      dup11\n        /* \"#utility.yul\":4276:4290   */\n      add\n        /* \"#utility.yul\":4269:4290   */\n      swap10\n      pop\n        /* \"#utility.yul\":3934:4300   */\n      pop\n        /* \"#utility.yul\":3921:3922   */\n      0x01\n        /* \"#utility.yul\":3918:3919   */\n      dup2\n        /* \"#utility.yul\":3914:3923   */\n      add\n        /* \"#utility.yul\":3909:3923   */\n      swap1\n      pop\n        /* \"#utility.yul\":3874:4300   */\n      jump(tag_187)\n    tag_189:\n        /* \"#utility.yul\":3878:3892   */\n      pop\n        /* \"#utility.yul\":4316:4320   */\n      dup3\n        /* \"#utility.yul\":4309:4320   */\n      swap8\n      pop\n        /* \"#utility.yul\":4336:4339   */\n      dup8\n        /* \"#utility.yul\":4329:4339   */\n      swap6\n      pop\n        /* \"#utility.yul\":3438:4345   */\n      pop\n      pop\n      pop\n      pop\n      pop\n        /* \"#utility.yul\":3274:4345   */\n      swap3\n      swap2\n      pop\n      pop\n      jump\t// out\n        /* \"#utility.yul\":4351:4460   */\n    tag_193:\n        /* \"#utility.yul\":4432:4453   */\n      tag_195\n        /* \"#utility.yul\":4447:4452   */\n      dup2\n        /* \"#utility.yul\":4432:4453   */\n      tag_196\n      jump\t// in\n    tag_195:\n        /* \"#utility.yul\":4427:4430   */\n      dup3\n        /* \"#utility.yul\":4420:4454   */\n      mstore\n        /* \"#utility.yul\":4351:4460   */\n      pop\n      pop\n      jump\t// out\n        /* \"#utility.yul\":4466:4595   */\n    tag_197:\n        /* \"#utility.yul\":4547:4588   */\n      tag_199\n        /* \"#utility.yul\":4582:4587   */\n      dup2\n        /* \"#utility.yul\":4547:4588   */\n      tag_200\n      jump\t// in\n    tag_199:\n        /* \"#utility.yul\":4542:4545   */\n      dup3\n        /* \"#utility.yul\":4535:4589   */\n      mstore\n        /* \"#utility.yul\":4466:4595   */\n      pop\n      pop\n      jump\t// out\n        /* \"#utility.yul\":4601:4740   */\n    tag_201:\n        /* \"#utility.yul\":4692:4733   */\n      tag_203\n        /* \"#utility.yul\":4727:4732   */\n      dup2\n        /* \"#utility.yul\":4692:4733   */\n      tag_200\n      jump\t// in\n    tag_203:\n        /* \"#utility.yul\":4687:4690   */\n      dup3\n        /* \"#utility.yul\":4680:4734   */\n      mstore\n        /* \"#utility.yul\":4601:4740   */\n      pop\n      pop\n      jump\t// out\n        /* \"#utility.yul\":4746:5090   */\n    tag_204:\n        /* \"#utility.yul\":4824:4827   */\n      0x00\n        /* \"#utility.yul\":4852:4891   */\n      tag_206\n        /* \"#utility.yul\":4885:4890   */\n      dup3\n        /* \"#utility.yul\":4852:4891   */\n      tag_207\n      jump\t// in\n    tag_206:\n        /* \"#utility.yul\":4907:4968   */\n      tag_208\n        /* \"#utility.yul\":4961:4967   */\n      dup2\n        /* \"#utility.yul\":4956:4959   */\n      dup6\n        /* \"#utility.yul\":4907:4968   */\n      tag_209\n      jump\t// in\n    tag_208:\n        /* \"#utility.yul\":4900:4968   */\n      swap4\n      pop\n        /* \"#utility.yul\":4977:5029   */\n      tag_210\n        /* \"#utility.yul\":5022:5028   */\n      dup2\n        /* \"#utility.yul\":5017:5020   */\n      dup6\n        /* \"#utility.yul\":5010:5014   */\n      0x20\n        /* \"#utility.yul\":5003:5008   */\n      dup7\n        /* \"#utility.yul\":4999:5015   */\n      add\n        /* \"#utility.yul\":4977:5029   */\n      tag_211\n      jump\t// in\n    tag_210:\n        /* \"#utility.yul\":5054:5083   */\n      tag_212\n        /* \"#utility.yul\":5076:5082   */\n      dup2\n        /* \"#utility.yul\":5054:5083   */\n      tag_213\n      jump\t// in\n    tag_212:\n        /* \"#utility.yul\":5049:5052   */\n      dup5\n        /* \"#utility.yul\":5045:5084   */\n      add\n        /* \"#utility.yul\":5038:5084   */\n      swap2\n      pop\n        /* \"#utility.yul\":4828:5090   */\n      pop\n        /* \"#utility.yul\":4746:5090   */\n      swap3\n      swap2\n      pop\n      pop\n      jump\t// out\n        /* \"#utility.yul\":5096:5460   */\n    tag_214:\n        /* \"#utility.yul\":5184:5187   */\n      0x00\n        /* \"#utility.yul\":5212:5251   */\n      tag_216\n        /* \"#utility.yul\":5245:5250   */\n      dup3\n        /* \"#utility.yul\":5212:5251   */\n      tag_207\n      jump\t// in\n    tag_216:\n        /* \"#utility.yul\":5267:5338   */\n      tag_217\n        /* \"#utility.yul\":5331:5337   */\n      dup2\n        /* \"#utility.yul\":5326:5329   */\n      dup6\n        /* \"#utility.yul\":5267:5338   */\n      tag_218\n      jump\t// in\n    tag_217:\n        /* \"#utility.yul\":5260:5338   */\n      swap4\n      pop\n        /* \"#utility.yul\":5347:5399   */\n      tag_219\n        /* \"#utility.yul\":5392:5398   */\n      dup2\n        /* \"#utility.yul\":5387:5390   */\n      dup6\n        /* \"#utility.yul\":5380:5384   */\n      0x20\n        /* \"#utility.yul\":5373:5378   */\n      dup7\n        /* \"#utility.yul\":5369:5385   */\n      add\n        /* \"#utility.yul\":5347:5399   */\n      tag_211\n      jump\t// in\n    tag_219:\n        /* \"#utility.yul\":5424:5453   */\n      tag_220\n        /* \"#utility.yul\":5446:5452   */\n      dup2\n        /* \"#utility.yul\":5424:5453   */\n      tag_213\n      jump\t// in\n    tag_220:\n        /* \"#utility.yul\":5419:5422   */\n      dup5\n        /* \"#utility.yul\":5415:5454   */\n      add\n        /* \"#utility.yul\":5408:5454   */\n      swap2\n      pop\n        /* \"#utility.yul\":5188:5460   */\n      pop\n        /* \"#utility.yul\":5096:5460   */\n      swap3\n      swap2\n      pop\n      pop\n      jump\t// out\n        /* \"#utility.yul\":5466:5832   */\n    tag_221:\n        /* \"#utility.yul\":5608:5611   */\n      0x00\n        /* \"#utility.yul\":5629:5696   */\n      tag_223\n        /* \"#utility.yul\":5693:5695   */\n      0x0a\n        /* \"#utility.yul\":5688:5691   */\n      dup4\n        /* \"#utility.yul\":5629:5696   */\n      tag_218\n      jump\t// in\n    tag_223:\n        /* \"#utility.yul\":5622:5696   */\n      swap2\n      pop\n        /* \"#utility.yul\":5705:5798   */\n      tag_224\n        /* \"#utility.yul\":5794:5797   */\n      dup3\n        /* \"#utility.yul\":5705:5798   */\n      tag_225\n      jump\t// in\n    tag_224:\n        /* \"#utility.yul\":5823:5825   */\n      0x20\n        /* \"#utility.yul\":5818:5821   */\n      dup3\n        /* \"#utility.yul\":5814:5826   */\n      add\n        /* \"#utility.yul\":5807:5826   */\n      swap1\n      pop\n        /* \"#utility.yul\":5466:5832   */\n      swap2\n      swap1\n      pop\n      jump\t// out\n        /* \"#utility.yul\":5898:7100   */\n    tag_171:\n        /* \"#utility.yul\":5997:6000   */\n      0x00\n        /* \"#utility.yul\":6033:6037   */\n      0xa0\n        /* \"#utility.yul\":6028:6031   */\n      dup4\n        /* \"#utility.yul\":6024:6038   */\n      add\n        /* \"#utility.yul\":6118:6122   */\n      0x00\n        /* \"#utility.yul\":6111:6116   */\n      dup4\n        /* \"#utility.yul\":6107:6123   */\n      add\n        /* \"#utility.yul\":6101:6124   */\n      mload\n        /* \"#utility.yul\":6137:6200   */\n      tag_227\n        /* \"#utility.yul\":6194:6198   */\n      0x00\n        /* \"#utility.yul\":6189:6192   */\n      dup7\n        /* \"#utility.yul\":6185:6199   */\n      add\n        /* \"#utility.yul\":6171:6183   */\n      dup3\n        /* \"#utility.yul\":6137:6200   */\n      tag_228\n      jump\t// in\n    tag_227:\n        /* \"#utility.yul\":6048:6210   */\n      pop\n        /* \"#utility.yul\":6304:6308   */\n      0x20\n        /* \"#utility.yul\":6297:6302   */\n      dup4\n        /* \"#utility.yul\":6293:6309   */\n      add\n        /* \"#utility.yul\":6287:6310   */\n      mload\n        /* \"#utility.yul\":6357:6360   */\n      dup5\n        /* \"#utility.yul\":6351:6355   */\n      dup3\n        /* \"#utility.yul\":6347:6361   */\n      sub\n        /* \"#utility.yul\":6340:6344   */\n      0x20\n        /* \"#utility.yul\":6335:6338   */\n      dup7\n        /* \"#utility.yul\":6331:6345   */\n      add\n        /* \"#utility.yul\":6324:6362   */\n      mstore\n        /* \"#utility.yul\":6383:6456   */\n      tag_229\n        /* \"#utility.yul\":6451:6455   */\n      dup3\n        /* \"#utility.yul\":6437:6449   */\n      dup3\n        /* \"#utility.yul\":6383:6456   */\n      tag_204\n      jump\t// in\n    tag_229:\n        /* \"#utility.yul\":6375:6456   */\n      swap2\n      pop\n        /* \"#utility.yul\":6220:6467   */\n      pop\n        /* \"#utility.yul\":6558:6562   */\n      0x40\n        /* \"#utility.yul\":6551:6556   */\n      dup4\n        /* \"#utility.yul\":6547:6563   */\n      add\n        /* \"#utility.yul\":6541:6564   */\n      mload\n        /* \"#utility.yul\":6577:6640   */\n      tag_230\n        /* \"#utility.yul\":6634:6638   */\n      0x40\n        /* \"#utility.yul\":6629:6632   */\n      dup7\n        /* \"#utility.yul\":6625:6639   */\n      add\n        /* \"#utility.yul\":6611:6623   */\n      dup3\n        /* \"#utility.yul\":6577:6640   */\n      tag_172\n      jump\t// in\n    tag_230:\n        /* \"#utility.yul\":6477:6650   */\n      pop\n        /* \"#utility.yul\":6732:6736   */\n      0x60\n        /* \"#utility.yul\":6725:6730   */\n      dup4\n        /* \"#utility.yul\":6721:6737   */\n      add\n        /* \"#utility.yul\":6715:6738   */\n      mload\n        /* \"#utility.yul\":6785:6788   */\n      dup5\n        /* \"#utility.yul\":6779:6783   */\n      dup3\n        /* \"#utility.yul\":6775:6789   */\n      sub\n        /* \"#utility.yul\":6768:6772   */\n      0x60\n        /* \"#utility.yul\":6763:6766   */\n      dup7\n        /* \"#utility.yul\":6759:6773   */\n      add\n        /* \"#utility.yul\":6752:6790   */\n      mstore\n        /* \"#utility.yul\":6811:6884   */\n      tag_231\n        /* \"#utility.yul\":6879:6883   */\n      dup3\n        /* \"#utility.yul\":6865:6877   */\n      dup3\n        /* \"#utility.yul\":6811:6884   */\n      tag_204\n      jump\t// in\n    tag_231:\n        /* \"#utility.yul\":6803:6884   */\n      swap2\n      pop\n        /* \"#utility.yul\":6660:6895   */\n      pop\n        /* \"#utility.yul\":6977:6981   */\n      0x80\n        /* \"#utility.yul\":6970:6975   */\n      dup4\n        /* \"#utility.yul\":6966:6982   */\n      add\n        /* \"#utility.yul\":6960:6983   */\n      mload\n        /* \"#utility.yul\":6996:7063   */\n      tag_232\n        /* \"#utility.yul\":7057:7061   */\n      0x80\n        /* \"#utility.yul\":7052:7055   */\n      dup7\n        /* \"#utility.yul\":7048:7062   */\n      add\n        /* \"#utility.yul\":7034:7046   */\n      dup3\n        /* \"#utility.yul\":6996:7063   */\n      tag_197\n      jump\t// in\n    tag_232:\n        /* \"#utility.yul\":6905:7073   */\n      pop\n        /* \"#utility.yul\":7090:7094   */\n      dup1\n        /* \"#utility.yul\":7083:7094   */\n      swap2\n      pop\n        /* \"#utility.yul\":6002:7100   */\n      pop\n        /* \"#utility.yul\":5898:7100   */\n      swap3\n      swap2\n      pop\n      pop\n      jump\t// out\n        /* \"#utility.yul\":7106:7214   */\n    tag_228:\n        /* \"#utility.yul\":7183:7207   */\n      tag_234\n        /* \"#utility.yul\":7201:7206   */\n      dup2\n        /* \"#utility.yul\":7183:7207   */\n      tag_235\n      jump\t// in\n    tag_234:\n        /* \"#utility.yul\":7178:7181   */\n      dup3\n        /* \"#utility.yul\":7171:7208   */\n      mstore\n        /* \"#utility.yul\":7106:7214   */\n      pop\n      pop\n      jump\t// out\n        /* \"#utility.yul\":7220:7338   */\n    tag_236:\n        /* \"#utility.yul\":7307:7331   */\n      tag_238\n        /* \"#utility.yul\":7325:7330   */\n      dup2\n        /* \"#utility.yul\":7307:7331   */\n      tag_235\n      jump\t// in\n    tag_238:\n        /* \"#utility.yul\":7302:7305   */\n      dup3\n        /* \"#utility.yul\":7295:7332   */\n      mstore\n        /* \"#utility.yul\":7220:7338   */\n      pop\n      pop\n      jump\t// out\n        /* \"#utility.yul\":7344:7566   */\n    tag_35:\n        /* \"#utility.yul\":7437:7441   */\n      0x00\n        /* \"#utility.yul\":7475:7477   */\n      0x20\n        /* \"#utility.yul\":7464:7473   */\n      dup3\n        /* \"#utility.yul\":7460:7478   */\n      add\n        /* \"#utility.yul\":7452:7478   */\n      swap1\n      pop\n        /* \"#utility.yul\":7488:7559   */\n      tag_240\n        /* \"#utility.yul\":7556:7557   */\n      0x00\n        /* \"#utility.yul\":7545:7554   */\n      dup4\n        /* \"#utility.yul\":7541:7558   */\n      add\n        /* \"#utility.yul\":7532:7538   */\n      dup5\n        /* \"#utility.yul\":7488:7559   */\n      tag_176\n      jump\t// in\n    tag_240:\n        /* \"#utility.yul\":7344:7566   */\n      swap3\n      swap2\n      pop\n      pop\n      jump\t// out\n        /* \"#utility.yul\":7572:8025   */\n    tag_18:\n        /* \"#utility.yul\":7755:7759   */\n      0x00\n        /* \"#utility.yul\":7793:7795   */\n      0x20\n        /* \"#utility.yul\":7782:7791   */\n      dup3\n        /* \"#utility.yul\":7778:7796   */\n      add\n        /* \"#utility.yul\":7770:7796   */\n      swap1\n      pop\n        /* \"#utility.yul\":7842:7851   */\n      dup2\n        /* \"#utility.yul\":7836:7840   */\n      dup2\n        /* \"#utility.yul\":7832:7852   */\n      sub\n        /* \"#utility.yul\":7828:7829   */\n      0x00\n        /* \"#utility.yul\":7817:7826   */\n      dup4\n        /* \"#utility.yul\":7813:7830   */\n      add\n        /* \"#utility.yul\":7806:7853   */\n      mstore\n        /* \"#utility.yul\":7870:8018   */\n      tag_242\n        /* \"#utility.yul\":8013:8017   */\n      dup2\n        /* \"#utility.yul\":8004:8010   */\n      dup5\n        /* \"#utility.yul\":7870:8018   */\n      tag_179\n      jump\t// in\n    tag_242:\n        /* \"#utility.yul\":7862:8018   */\n      swap1\n      pop\n        /* \"#utility.yul\":7572:8025   */\n      swap3\n      swap2\n      pop\n      pop\n      jump\t// out\n        /* \"#utility.yul\":8031:8241   */\n    tag_29:\n        /* \"#utility.yul\":8118:8122   */\n      0x00\n        /* \"#utility.yul\":8156:8158   */\n      0x20\n        /* \"#utility.yul\":8145:8154   */\n      dup3\n        /* \"#utility.yul\":8141:8159   */\n      add\n        /* \"#utility.yul\":8133:8159   */\n      swap1\n      pop\n        /* \"#utility.yul\":8169:8234   */\n      tag_244\n        /* \"#utility.yul\":8231:8232   */\n      0x00\n        /* \"#utility.yul\":8220:8229   */\n      dup4\n        /* \"#utility.yul\":8216:8233   */\n      add\n        /* \"#utility.yul\":8207:8213   */\n      dup5\n        /* \"#utility.yul\":8169:8234   */\n      tag_193\n      jump\t// in\n    tag_244:\n        /* \"#utility.yul\":8031:8241   */\n      swap3\n      swap2\n      pop\n      pop\n      jump\t// out\n        /* \"#utility.yul\":8247:8666   */\n    tag_46:\n        /* \"#utility.yul\":8413:8417   */\n      0x00\n        /* \"#utility.yul\":8451:8453   */\n      0x20\n        /* \"#utility.yul\":8440:8449   */\n      dup3\n        /* \"#utility.yul\":8436:8454   */\n      add\n        /* \"#utility.yul\":8428:8454   */\n      swap1\n      pop\n        /* \"#utility.yul\":8500:8509   */\n      dup2\n        /* \"#utility.yul\":8494:8498   */\n      dup2\n        /* \"#utility.yul\":8490:8510   */\n      sub\n        /* \"#utility.yul\":8486:8487   */\n      0x00\n        /* \"#utility.yul\":8475:8484   */\n      dup4\n        /* \"#utility.yul\":8471:8488   */\n      add\n        /* \"#utility.yul\":8464:8511   */\n      mstore\n        /* \"#utility.yul\":8528:8659   */\n      tag_246\n        /* \"#utility.yul\":8654:8658   */\n      dup2\n        /* \"#utility.yul\":8528:8659   */\n      tag_221\n      jump\t// in\n    tag_246:\n        /* \"#utility.yul\":8520:8659   */\n      swap1\n      pop\n        /* \"#utility.yul\":8247:8666   */\n      swap2\n      swap1\n      pop\n      jump\t// out\n        /* \"#utility.yul\":8672:8894   */\n    tag_42:\n        /* \"#utility.yul\":8765:8769   */\n      0x00\n        /* \"#utility.yul\":8803:8805   */\n      0x20\n        /* \"#utility.yul\":8792:8801   */\n      dup3\n        /* \"#utility.yul\":8788:8806   */\n      add\n        /* \"#utility.yul\":8780:8806   */\n      swap1\n      pop\n        /* \"#utility.yul\":8816:8887   */\n      tag_248\n        /* \"#utility.yul\":8884:8885   */\n      0x00\n        /* \"#utility.yul\":8873:8882   */\n      dup4\n        /* \"#utility.yul\":8869:8886   */\n      add\n        /* \"#utility.yul\":8860:8866   */\n      dup5\n        /* \"#utility.yul\":8816:8887   */\n      tag_236\n      jump\t// in\n    tag_248:\n        /* \"#utility.yul\":8672:8894   */\n      swap3\n      swap2\n      pop\n      pop\n      jump\t// out\n        /* \"#utility.yul\":8900:9754   */\n    tag_24:\n        /* \"#utility.yul\":9149:9153   */\n      0x00\n        /* \"#utility.yul\":9187:9190   */\n      0xa0\n        /* \"#utility.yul\":9176:9185   */\n      dup3\n        /* \"#utility.yul\":9172:9191   */\n      add\n        /* \"#utility.yul\":9164:9191   */\n      swap1\n      pop\n        /* \"#utility.yul\":9201:9272   */\n      tag_250\n        /* \"#utility.yul\":9269:9270   */\n      0x00\n        /* \"#utility.yul\":9258:9267   */\n      dup4\n        /* \"#utility.yul\":9254:9271   */\n      add\n        /* \"#utility.yul\":9245:9251   */\n      dup9\n        /* \"#utility.yul\":9201:9272   */\n      tag_236\n      jump\t// in\n    tag_250:\n        /* \"#utility.yul\":9319:9328   */\n      dup2\n        /* \"#utility.yul\":9313:9317   */\n      dup2\n        /* \"#utility.yul\":9309:9329   */\n      sub\n        /* \"#utility.yul\":9304:9306   */\n      0x20\n        /* \"#utility.yul\":9293:9302   */\n      dup4\n        /* \"#utility.yul\":9289:9307   */\n      add\n        /* \"#utility.yul\":9282:9330   */\n      mstore\n        /* \"#utility.yul\":9347:9425   */\n      tag_251\n        /* \"#utility.yul\":9420:9424   */\n      dup2\n        /* \"#utility.yul\":9411:9417   */\n      dup8\n        /* \"#utility.yul\":9347:9425   */\n      tag_214\n      jump\t// in\n    tag_251:\n        /* \"#utility.yul\":9339:9425   */\n      swap1\n      pop\n        /* \"#utility.yul\":9435:9507   */\n      tag_252\n        /* \"#utility.yul\":9503:9505   */\n      0x40\n        /* \"#utility.yul\":9492:9501   */\n      dup4\n        /* \"#utility.yul\":9488:9506   */\n      add\n        /* \"#utility.yul\":9479:9485   */\n      dup7\n        /* \"#utility.yul\":9435:9507   */\n      tag_176\n      jump\t// in\n    tag_252:\n        /* \"#utility.yul\":9554:9563   */\n      dup2\n        /* \"#utility.yul\":9548:9552   */\n      dup2\n        /* \"#utility.yul\":9544:9564   */\n      sub\n        /* \"#utility.yul\":9539:9541   */\n      0x60\n        /* \"#utility.yul\":9528:9537   */\n      dup4\n        /* \"#utility.yul\":9524:9542   */\n      add\n        /* \"#utility.yul\":9517:9565   */\n      mstore\n        /* \"#utility.yul\":9582:9660   */\n      tag_253\n        /* \"#utility.yul\":9655:9659   */\n      dup2\n        /* \"#utility.yul\":9646:9652   */\n      dup6\n        /* \"#utility.yul\":9582:9660   */\n      tag_214\n      jump\t// in\n    tag_253:\n        /* \"#utility.yul\":9574:9660   */\n      swap1\n      pop\n        /* \"#utility.yul\":9670:9747   */\n      tag_254\n        /* \"#utility.yul\":9742:9745   */\n      0x80\n        /* \"#utility.yul\":9731:9740   */\n      dup4\n        /* \"#utility.yul\":9727:9746   */\n      add\n        /* \"#utility.yul\":9718:9724   */\n      dup5\n        /* \"#utility.yul\":9670:9747   */\n      tag_201\n      jump\t// in\n    tag_254:\n        /* \"#utility.yul\":8900:9754   */\n      swap7\n      swap6\n      pop\n      pop\n      pop\n      pop\n      pop\n      pop\n      jump\t// out\n        /* \"#utility.yul\":9760:9889   */\n    tag_128:\n        /* \"#utility.yul\":9794:9800   */\n      0x00\n        /* \"#utility.yul\":9821:9841   */\n      tag_256\n      tag_257\n      jump\t// in\n    tag_256:\n        /* \"#utility.yul\":9811:9841   */\n      swap1\n      pop\n        /* \"#utility.yul\":9850:9883   */\n      tag_258\n        /* \"#utility.yul\":9878:9882   */\n      dup3\n        /* \"#utility.yul\":9870:9876   */\n      dup3\n        /* \"#utility.yul\":9850:9883   */\n      tag_259\n      jump\t// in\n    tag_258:\n        /* \"#utility.yul\":9760:9889   */\n      swap2\n      swap1\n      pop\n      jump\t// out\n        /* \"#utility.yul\":9895:9970   */\n    tag_257:\n        /* \"#utility.yul\":9928:9934   */\n      0x00\n        /* \"#utility.yul\":9961:9963   */\n      0x40\n        /* \"#utility.yul\":9955:9964   */\n      mload\n        /* \"#utility.yul\":9945:9964   */\n      swap1\n      pop\n        /* \"#utility.yul\":9895:9970   */\n      swap1\n      jump\t// out\n        /* \"#utility.yul\":9976:10284   */\n    tag_127:\n        /* \"#utility.yul\":10038:10042   */\n      0x00\n        /* \"#utility.yul\":10128:10146   */\n      0xffffffffffffffff\n        /* \"#utility.yul\":10120:10126   */\n      dup3\n        /* \"#utility.yul\":10117:10147   */\n      gt\n        /* \"#utility.yul\":10114:10170   */\n      iszero\n      tag_262\n      jumpi\n        /* \"#utility.yul\":10150:10168   */\n      tag_263\n      tag_62\n      jump\t// in\n    tag_263:\n        /* \"#utility.yul\":10114:10170   */\n    tag_262:\n        /* \"#utility.yul\":10188:10217   */\n      tag_264\n        /* \"#utility.yul\":10210:10216   */\n      dup3\n        /* \"#utility.yul\":10188:10217   */\n      tag_213\n      jump\t// in\n    tag_264:\n        /* \"#utility.yul\":10180:10217   */\n      swap1\n      pop\n        /* \"#utility.yul\":10272:10276   */\n      0x20\n        /* \"#utility.yul\":10266:10270   */\n      dup2\n        /* \"#utility.yul\":10262:10277   */\n      add\n        /* \"#utility.yul\":10254:10277   */\n      swap1\n      pop\n        /* \"#utility.yul\":9976:10284   */\n      swap2\n      swap1\n      pop\n      jump\t// out\n        /* \"#utility.yul\":10290:10442   */\n    tag_186:\n        /* \"#utility.yul\":10377:10381   */\n      0x00\n        /* \"#utility.yul\":10400:10403   */\n      dup2\n        /* \"#utility.yul\":10392:10403   */\n      swap1\n      pop\n        /* \"#utility.yul\":10430:10434   */\n      0x20\n        /* \"#utility.yul\":10425:10428   */\n      dup3\n        /* \"#utility.yul\":10421:10435   */\n      add\n        /* \"#utility.yul\":10413:10435   */\n      swap1\n      pop\n        /* \"#utility.yul\":10290:10442   */\n      swap2\n      swap1\n      pop\n      jump\t// out\n        /* \"#utility.yul\":10448:10582   */\n    tag_182:\n        /* \"#utility.yul\":10535:10541   */\n      0x00\n        /* \"#utility.yul\":10569:10574   */\n      dup2\n        /* \"#utility.yul\":10563:10575   */\n      mload\n        /* \"#utility.yul\":10553:10575   */\n      swap1\n      pop\n        /* \"#utility.yul\":10448:10582   */\n      swap2\n      swap1\n      pop\n      jump\t// out\n        /* \"#utility.yul\":10588:10687   */\n    tag_207:\n        /* \"#utility.yul\":10640:10646   */\n      0x00\n        /* \"#utility.yul\":10674:10679   */\n      dup2\n        /* \"#utility.yul\":10668:10680   */\n      mload\n        /* \"#utility.yul\":10658:10680   */\n      swap1\n      pop\n        /* \"#utility.yul\":10588:10687   */\n      swap2\n      swap1\n      pop\n      jump\t// out\n        /* \"#utility.yul\":10693:10826   */\n    tag_192:\n        /* \"#utility.yul\":10783:10787   */\n      0x00\n        /* \"#utility.yul\":10815:10819   */\n      0x20\n        /* \"#utility.yul\":10810:10813   */\n      dup3\n        /* \"#utility.yul\":10806:10820   */\n      add\n        /* \"#utility.yul\":10798:10820   */\n      swap1\n      pop\n        /* \"#utility.yul\":10693:10826   */\n      swap2\n      swap1\n      pop\n      jump\t// out\n        /* \"#utility.yul\":10832:11036   */\n    tag_184:\n        /* \"#utility.yul\":10951:10962   */\n      0x00\n        /* \"#utility.yul\":10985:10991   */\n      dup3\n        /* \"#utility.yul\":10980:10983   */\n      dup3\n        /* \"#utility.yul\":10973:10992   */\n      mstore\n        /* \"#utility.yul\":11025:11029   */\n      0x20\n        /* \"#utility.yul\":11020:11023   */\n      dup3\n        /* \"#utility.yul\":11016:11030   */\n      add\n        /* \"#utility.yul\":11001:11030   */\n      swap1\n      pop\n        /* \"#utility.yul\":10832:11036   */\n      swap3\n      swap2\n      pop\n      pop\n      jump\t// out\n        /* \"#utility.yul\":11042:11201   */\n    tag_209:\n        /* \"#utility.yul\":11116:11127   */\n      0x00\n        /* \"#utility.yul\":11150:11156   */\n      dup3\n        /* \"#utility.yul\":11145:11148   */\n      dup3\n        /* \"#utility.yul\":11138:11157   */\n      mstore\n        /* \"#utility.yul\":11190:11194   */\n      0x20\n        /* \"#utility.yul\":11185:11188   */\n      dup3\n        /* \"#utility.yul\":11181:11195   */\n      add\n        /* \"#utility.yul\":11166:11195   */\n      swap1\n      pop\n        /* \"#utility.yul\":11042:11201   */\n      swap3\n      swap2\n      pop\n      pop\n      jump\t// out\n        /* \"#utility.yul\":11207:11376   */\n    tag_218:\n        /* \"#utility.yul\":11291:11302   */\n      0x00\n        /* \"#utility.yul\":11325:11331   */\n      dup3\n        /* \"#utility.yul\":11320:11323   */\n      dup3\n        /* \"#utility.yul\":11313:11332   */\n      mstore\n        /* \"#utility.yul\":11365:11369   */\n      0x20\n        /* \"#utility.yul\":11360:11363   */\n      dup3\n        /* \"#utility.yul\":11356:11370   */\n      add\n        /* \"#utility.yul\":11341:11370   */\n      swap1\n      pop\n        /* \"#utility.yul\":11207:11376   */\n      swap3\n      swap2\n      pop\n      pop\n      jump\t// out\n        /* \"#utility.yul\":11382:11687   */\n    tag_49:\n        /* \"#utility.yul\":11422:11425   */\n      0x00\n        /* \"#utility.yul\":11441:11461   */\n      tag_273\n        /* \"#utility.yul\":11459:11460   */\n      dup3\n        /* \"#utility.yul\":11441:11461   */\n      tag_235\n      jump\t// in\n    tag_273:\n        /* \"#utility.yul\":11436:11461   */\n      swap2\n      pop\n        /* \"#utility.yul\":11475:11495   */\n      tag_274\n        /* \"#utility.yul\":11493:11494   */\n      dup4\n        /* \"#utility.yul\":11475:11495   */\n      tag_235\n      jump\t// in\n    tag_274:\n        /* \"#utility.yul\":11470:11495   */\n      swap3\n      pop\n        /* \"#utility.yul\":11629:11630   */\n      dup3\n        /* \"#utility.yul\":11561:11627   */\n      0xffffffffffffffffffffffffffffffffffffffffffffffffffffffffffffffff\n        /* \"#utility.yul\":11557:11631   */\n      sub\n        /* \"#utility.yul\":11554:11555   */\n      dup3\n        /* \"#utility.yul\":11551:11632   */\n      gt\n        /* \"#utility.yul\":11548:11655   */\n      iszero\n      tag_275\n      jumpi\n        /* \"#utility.yul\":11635:11653   */\n      tag_276\n      tag_277\n      jump\t// in\n    tag_276:\n        /* \"#utility.yul\":11548:11655   */\n    tag_275:\n        /* \"#utility.yul\":11679:11680   */\n      dup3\n        /* \"#utility.yul\":11676:11677   */\n      dup3\n        /* \"#utility.yul\":11672:11681   */\n      add\n        /* \"#utility.yul\":11665:11681   */\n      swap1\n      pop\n        /* \"#utility.yul\":11382:11687   */\n      swap3\n      swap2\n      pop\n      pop\n      jump\t// out\n        /* \"#utility.yul\":11693:11789   */\n    tag_175:\n        /* \"#utility.yul\":11730:11737   */\n      0x00\n        /* \"#utility.yul\":11759:11783   */\n      tag_279\n        /* \"#utility.yul\":11777:11782   */\n      dup3\n        /* \"#utility.yul\":11759:11783   */\n      tag_280\n      jump\t// in\n    tag_279:\n        /* \"#utility.yul\":11748:11783   */\n      swap1\n      pop\n        /* \"#utility.yul\":11693:11789   */\n      swap2\n      swap1\n      pop\n      jump\t// out\n        /* \"#utility.yul\":11795:11885   */\n    tag_196:\n        /* \"#utility.yul\":11829:11836   */\n      0x00\n        /* \"#utility.yul\":11872:11877   */\n      dup2\n        /* \"#utility.yul\":11865:11878   */\n      iszero\n        /* \"#utility.yul\":11858:11879   */\n      iszero\n        /* \"#utility.yul\":11847:11879   */\n      swap1\n      pop\n        /* \"#utility.yul\":11795:11885   */\n      swap2\n      swap1\n      pop\n      jump\t// out\n        /* \"#utility.yul\":11891:12014   */\n    tag_282:\n        /* \"#utility.yul\":11934:11941   */\n      0x00\n        /* \"#utility.yul\":11963:11968   */\n      dup2\n        /* \"#utility.yul\":11952:11968   */\n      swap1\n      pop\n        /* \"#utility.yul\":11969:12008   */\n      tag_284\n        /* \"#utility.yul\":12002:12007   */\n      dup3\n        /* \"#utility.yul\":11969:12008   */\n      tag_285\n      jump\t// in\n    tag_284:\n        /* \"#utility.yul\":11891:12014   */\n      swap2\n      swap1\n      pop\n      jump\t// out\n        /* \"#utility.yul\":12020:12146   */\n    tag_280:\n        /* \"#utility.yul\":12057:12064   */\n      0x00\n        /* \"#utility.yul\":12097:12139   */\n      0xffffffffffffffffffffffffffffffffffffffff\n        /* \"#utility.yul\":12090:12095   */\n      dup3\n        /* \"#utility.yul\":12086:12140   */\n      and\n        /* \"#utility.yul\":12075:12140   */\n      swap1\n      pop\n        /* \"#utility.yul\":12020:12146   */\n      swap2\n      swap1\n      pop\n      jump\t// out\n        /* \"#utility.yul\":12152:12229   */\n    tag_235:\n        /* \"#utility.yul\":12189:12196   */\n      0x00\n        /* \"#utility.yul\":12218:12223   */\n      dup2\n        /* \"#utility.yul\":12207:12223   */\n      swap1\n      pop\n        /* \"#utility.yul\":12152:12229   */\n      swap2\n      swap1\n      pop\n      jump\t// out\n        /* \"#utility.yul\":12235:12358   */\n    tag_200:\n        /* \"#utility.yul\":12289:12298   */\n      0x00\n        /* \"#utility.yul\":12322:12352   */\n      tag_289\n        /* \"#utility.yul\":12346:12351   */\n      dup3\n        /* \"#utility.yul\":12322:12352   */\n      tag_282\n      jump\t// in\n    tag_289:\n        /* \"#utility.yul\":12309:12352   */\n      swap1\n      pop\n        /* \"#utility.yul\":12235:12358   */\n      swap2\n      swap1\n      pop\n      jump\t// out\n        /* \"#utility.yul\":12364:12518   */\n    tag_133:\n        /* \"#utility.yul\":12448:12454   */\n      dup3\n        /* \"#utility.yul\":12443:12446   */\n      dup2\n        /* \"#utility.yul\":12438:12441   */\n      dup4\n        /* \"#utility.yul\":12425:12455   */\n      calldatacopy\n        /* \"#utility.yul\":12510:12511   */\n      0x00\n        /* \"#utility.yul\":12501:12507   */\n      dup4\n        /* \"#utility.yul\":12496:12499   */\n      dup4\n        /* \"#utility.yul\":12492:12508   */\n      add\n        /* \"#utility.yul\":12485:12512   */\n      mstore\n        /* \"#utility.yul\":12364:12518   */\n      pop\n      pop\n      pop\n      jump\t// out\n        /* \"#utility.yul\":12524:12831   */\n    tag_211:\n        /* \"#utility.yul\":12592:12593   */\n      0x00\n        /* \"#utility.yul\":12602:12715   */\n    tag_292:\n        /* \"#utility.yul\":12616:12622   */\n      dup4\n        /* \"#utility.yul\":12613:12614   */\n      dup2\n        /* \"#utility.yul\":12610:12623   */\n      lt\n        /* \"#utility.yul\":12602:12715   */\n      iszero\n      tag_294\n      jumpi\n        /* \"#utility.yul\":12701:12702   */\n      dup1\n        /* \"#utility.yul\":12696:12699   */\n      dup3\n        /* \"#utility.yul\":12692:12703   */\n      add\n        /* \"#utility.yul\":12686:12704   */\n      mload\n        /* \"#utility.yul\":12682:12683   */\n      dup2\n        /* \"#utility.yul\":12677:12680   */\n      dup5\n        /* \"#utility.yul\":12673:12684   */\n      add\n        /* \"#utility.yul\":12666:12705   */\n      mstore\n        /* \"#utility.yul\":12638:12640   */\n      0x20\n        /* \"#utility.yul\":12635:12636   */\n      dup2\n        /* \"#utility.yul\":12631:12641   */\n      add\n        /* \"#utility.yul\":12626:12641   */\n      swap1\n      pop\n        /* \"#utility.yul\":12602:12715   */\n      jump(tag_292)\n    tag_294:\n        /* \"#utility.yul\":12733:12739   */\n      dup4\n        /* \"#utility.yul\":12730:12731   */\n      dup2\n        /* \"#utility.yul\":12727:12740   */\n      gt\n        /* \"#utility.yul\":12724:12825   */\n      iszero\n      tag_295\n      jumpi\n        /* \"#utility.yul\":12813:12814   */\n      0x00\n        /* \"#utility.yul\":12804:12810   */\n      dup5\n        /* \"#utility.yul\":12799:12802   */\n      dup5\n        /* \"#utility.yul\":12795:12811   */\n      add\n        /* \"#utility.yul\":12788:12815   */\n      mstore\n        /* \"#utility.yul\":12724:12825   */\n    tag_295:\n        /* \"#utility.yul\":12573:12831   */\n      pop\n        /* \"#utility.yul\":12524:12831   */\n      pop\n      pop\n      pop\n      jump\t// out\n        /* \"#utility.yul\":12837:13157   */\n    tag_75:\n        /* \"#utility.yul\":12881:12887   */\n      0x00\n        /* \"#utility.yul\":12918:12919   */\n      0x02\n        /* \"#utility.yul\":12912:12916   */\n      dup3\n        /* \"#utility.yul\":12908:12920   */\n      div\n        /* \"#utility.yul\":12898:12920   */\n      swap1\n      pop\n        /* \"#utility.yul\":12965:12966   */\n      0x01\n        /* \"#utility.yul\":12959:12963   */\n      dup3\n        /* \"#utility.yul\":12955:12967   */\n      and\n        /* \"#utility.yul\":12986:13004   */\n      dup1\n        /* \"#utility.yul\":12976:13057   */\n      tag_297\n      jumpi\n        /* \"#utility.yul\":13042:13046   */\n      0x7f\n        /* \"#utility.yul\":13034:13040   */\n      dup3\n        /* \"#utility.yul\":13030:13047   */\n      and\n        /* \"#utility.yul\":13020:13047   */\n      swap2\n      pop\n        /* \"#utility.yul\":12976:13057   */\n    tag_297:\n        /* \"#utility.yul\":13104:13106   */\n      0x20\n        /* \"#utility.yul\":13096:13102   */\n      dup3\n        /* \"#utility.yul\":13093:13107   */\n      lt\n        /* \"#utility.yul\":13073:13091   */\n      dup2\n        /* \"#utility.yul\":13070:13108   */\n      eq\n        /* \"#utility.yul\":13067:13151   */\n      iszero\n      tag_298\n      jumpi\n        /* \"#utility.yul\":13123:13141   */\n      tag_299\n      tag_300\n      jump\t// in\n    tag_299:\n        /* \"#utility.yul\":13067:13151   */\n    tag_298:\n        /* \"#utility.yul\":12888:13157   */\n      pop\n        /* \"#utility.yul\":12837:13157   */\n      swap2\n      swap1\n      pop\n      jump\t// out\n        /* \"#utility.yul\":13163:13444   */\n    tag_259:\n        /* \"#utility.yul\":13246:13273   */\n      tag_302\n        /* \"#utility.yul\":13268:13272   */\n      dup3\n        /* \"#utility.yul\":13246:13273   */\n      tag_213\n      jump\t// in\n    tag_302:\n        /* \"#utility.yul\":13238:13244   */\n      dup2\n        /* \"#utility.yul\":13234:13274   */\n      add\n        /* \"#utility.yul\":13376:13382   */\n      dup2\n        /* \"#utility.yul\":13364:13374   */\n      dup2\n        /* \"#utility.yul\":13361:13383   */\n      lt\n        /* \"#utility.yul\":13340:13358   */\n      0xffffffffffffffff\n        /* \"#utility.yul\":13328:13338   */\n      dup3\n        /* \"#utility.yul\":13325:13359   */\n      gt\n        /* \"#utility.yul\":13322:13384   */\n      or\n        /* \"#utility.yul\":13319:13407   */\n      iszero\n      tag_303\n      jumpi\n        /* \"#utility.yul\":13387:13405   */\n      tag_304\n      tag_62\n      jump\t// in\n    tag_304:\n        /* \"#utility.yul\":13319:13407   */\n    tag_303:\n        /* \"#utility.yul\":13427:13437   */\n      dup1\n        /* \"#utility.yul\":13423:13425   */\n      0x40\n        /* \"#utility.yul\":13416:13438   */\n      mstore\n        /* \"#utility.yul\":13206:13444   */\n      pop\n        /* \"#utility.yul\":13163:13444   */\n      pop\n      pop\n      jump\t// out\n        /* \"#utility.yul\":13450:13683   */\n    tag_92:\n        /* \"#utility.yul\":13489:13492   */\n      0x00\n        /* \"#utility.yul\":13512:13536   */\n      tag_306\n        /* \"#utility.yul\":13530:13535   */\n      dup3\n        /* \"#utility.yul\":13512:13536   */\n      tag_235\n      jump\t// in\n    tag_306:\n        /* \"#utility.yul\":13503:13536   */\n      swap2\n      pop\n        /* \"#utility.yul\":13558:13624   */\n      0xffffffffffffffffffffffffffffffffffffffffffffffffffffffffffffffff\n        /* \"#utility.yul\":13551:13556   */\n      dup3\n        /* \"#utility.yul\":13548:13625   */\n      eq\n        /* \"#utility.yul\":13545:13648   */\n      iszero\n      tag_307\n      jumpi\n        /* \"#utility.yul\":13628:13646   */\n      tag_308\n      tag_277\n      jump\t// in\n    tag_308:\n        /* \"#utility.yul\":13545:13648   */\n    tag_307:\n        /* \"#utility.yul\":13675:13676   */\n      0x01\n        /* \"#utility.yul\":13668:13673   */\n      dup3\n        /* \"#utility.yul\":13664:13677   */\n      add\n        /* \"#utility.yul\":13657:13677   */\n      swap1\n      pop\n        /* \"#utility.yul\":13450:13683   */\n      swap2\n      swap1\n      pop\n      jump\t// out\n        /* \"#utility.yul\":13689:13869   */\n    tag_277:\n        /* \"#utility.yul\":13737:13814   */\n      0x4e487b7100000000000000000000000000000000000000000000000000000000\n        /* \"#utility.yul\":13734:13735   */\n      0x00\n        /* \"#utility.yul\":13727:13815   */\n      mstore\n        /* \"#utility.yul\":13834:13838   */\n      0x11\n        /* \"#utility.yul\":13831:13832   */\n      0x04\n        /* \"#utility.yul\":13824:13839   */\n      mstore\n        /* \"#utility.yul\":13858:13862   */\n      0x24\n        /* \"#utility.yul\":13855:13856   */\n      0x00\n        /* \"#utility.yul\":13848:13863   */\n      revert\n        /* \"#utility.yul\":13875:14055   */\n    tag_52:\n        /* \"#utility.yul\":13923:14000   */\n      0x4e487b7100000000000000000000000000000000000000000000000000000000\n        /* \"#utility.yul\":13920:13921   */\n      0x00\n        /* \"#utility.yul\":13913:14001   */\n      mstore\n        /* \"#utility.yul\":14020:14024   */\n      0x21\n        /* \"#utility.yul\":14017:14018   */\n      0x04\n        /* \"#utility.yul\":14010:14025   */\n      mstore\n        /* \"#utility.yul\":14044:14048   */\n      0x24\n        /* \"#utility.yul\":14041:14042   */\n      0x00\n        /* \"#utility.yul\":14034:14049   */\n      revert\n        /* \"#utility.yul\":14061:14241   */\n    tag_300:\n        /* \"#utility.yul\":14109:14186   */\n      0x4e487b7100000000000000000000000000000000000000000000000000000000\n        /* \"#utility.yul\":14106:14107   */\n      0x00\n        /* \"#utility.yul\":14099:14187   */\n      mstore\n        /* \"#utility.yul\":14206:14210   */\n      0x22\n        /* \"#utility.yul\":14203:14204   */\n      0x04\n        /* \"#utility.yul\":14196:14211   */\n      mstore\n        /* \"#utility.yul\":14230:14234   */\n      0x24\n        /* \"#utility.yul\":14227:14228   */\n      0x00\n        /* \"#utility.yul\":14220:14235   */\n      revert\n        /* \"#utility.yul\":14247:14427   */\n    tag_72:\n        /* \"#utility.yul\":14295:14372   */\n      0x4e487b7100000000000000000000000000000000000000000000000000000000\n        /* \"#utility.yul\":14292:14293   */\n      0x00\n        /* \"#utility.yul\":14285:14373   */\n      mstore\n        /* \"#utility.yul\":14392:14396   */\n      0x32\n        /* \"#utility.yul\":14389:14390   */\n      0x04\n        /* \"#utility.yul\":14382:14397   */\n      mstore\n        /* \"#utility.yul\":14416:14420   */\n      0x24\n        /* \"#utility.yul\":14413:14414   */\n      0x00\n        /* \"#utility.yul\":14406:14421   */\n      revert\n        /* \"#utility.yul\":14433:14613   */\n    tag_62:\n        /* \"#utility.yul\":14481:14558   */\n      0x4e487b7100000000000000000000000000000000000000000000000000000000\n        /* \"#utility.yul\":14478:14479   */\n      0x00\n        /* \"#utility.yul\":14471:14559   */\n      mstore\n        /* \"#utility.yul\":14578:14582   */\n      0x41\n        /* \"#utility.yul\":14575:14576   */\n      0x04\n        /* \"#utility.yul\":14568:14583   */\n      mstore\n        /* \"#utility.yul\":14602:14606   */\n      0x24\n        /* \"#utility.yul\":14599:14600   */\n      0x00\n        /* \"#utility.yul\":14592:14607   */\n      revert\n        /* \"#utility.yul\":14619:14736   */\n    tag_142:\n        /* \"#utility.yul\":14728:14729   */\n      0x00\n        /* \"#utility.yul\":14725:14726   */\n      dup1\n        /* \"#utility.yul\":14718:14730   */\n      revert\n        /* \"#utility.yul\":14742:14859   */\n    tag_131:\n        /* \"#utility.yul\":14851:14852   */\n      0x00\n        /* \"#utility.yul\":14848:14849   */\n      dup1\n        /* \"#utility.yul\":14841:14853   */\n      revert\n        /* \"#utility.yul\":14865:14982   */\n    tag_158:\n        /* \"#utility.yul\":14974:14975   */\n      0x00\n        /* \"#utility.yul\":14971:14972   */\n      dup1\n        /* \"#utility.yul\":14964:14976   */\n      revert\n        /* \"#utility.yul\":14988:15105   */\n    tag_151:\n        /* \"#utility.yul\":15097:15098   */\n      0x00\n        /* \"#utility.yul\":15094:15095   */\n      dup1\n        /* \"#utility.yul\":15087:15099   */\n      revert\n        /* \"#utility.yul\":15111:15213   */\n    tag_213:\n        /* \"#utility.yul\":15152:15158   */\n      0x00\n        /* \"#utility.yul\":15203:15205   */\n      0x1f\n        /* \"#utility.yul\":15199:15206   */\n      not\n        /* \"#utility.yul\":15194:15196   */\n      0x1f\n        /* \"#utility.yul\":15187:15192   */\n      dup4\n        /* \"#utility.yul\":15183:15197   */\n      add\n        /* \"#utility.yul\":15179:15207   */\n      and\n        /* \"#utility.yul\":15169:15207   */\n      swap1\n      pop\n        /* \"#utility.yul\":15111:15213   */\n      swap2\n      swap1\n      pop\n      jump\t// out\n        /* \"#utility.yul\":15219:15379   */\n    tag_225:\n        /* \"#utility.yul\":15359:15371   */\n      0x41646d696e204f6e6c7900000000000000000000000000000000000000000000\n        /* \"#utility.yul\":15355:15356   */\n      0x00\n        /* \"#utility.yul\":15347:15353   */\n      dup3\n        /* \"#utility.yul\":15343:15357   */\n      add\n        /* \"#utility.yul\":15336:15372   */\n      mstore\n        /* \"#utility.yul\":15219:15379   */\n      pop\n      jump\t// out\n        /* \"#utility.yul\":15385:15496   */\n    tag_285:\n        /* \"#utility.yul\":15464:15465   */\n      0x02\n        /* \"#utility.yul\":15457:15462   */\n      dup2\n        /* \"#utility.yul\":15454:15466   */\n      lt\n        /* \"#utility.yul\":15444:15490   */\n      tag_321\n      jumpi\n        /* \"#utility.yul\":15470:15488   */\n      tag_322\n      tag_52\n      jump\t// in\n    tag_322:\n        /* \"#utility.yul\":15444:15490   */\n    tag_321:\n        /* \"#utility.yul\":15385:15496   */\n      pop\n      jump\t// out\n        /* \"#utility.yul\":15502:15624   */\n    tag_137:\n        /* \"#utility.yul\":15575:15599   */\n      tag_324\n        /* \"#utility.yul\":15593:15598   */\n      dup2\n        /* \"#utility.yul\":15575:15599   */\n      tag_175\n      jump\t// in\n    tag_324:\n        /* \"#utility.yul\":15568:15573   */\n      dup2\n        /* \"#utility.yul\":15565:15600   */\n      eq\n        /* \"#utility.yul\":15555:15618   */\n      tag_325\n      jumpi\n        /* \"#utility.yul\":15614:15615   */\n      0x00\n        /* \"#utility.yul\":15611:15612   */\n      dup1\n        /* \"#utility.yul\":15604:15616   */\n      revert\n        /* \"#utility.yul\":15555:15618   */\n    tag_325:\n        /* \"#utility.yul\":15502:15624   */\n      pop\n      jump\t// out\n        /* \"#utility.yul\":15630:15752   */\n    tag_147:\n        /* \"#utility.yul\":15703:15727   */\n      tag_327\n        /* \"#utility.yul\":15721:15726   */\n      dup2\n        /* \"#utility.yul\":15703:15727   */\n      tag_235\n      jump\t// in\n    tag_327:\n        /* \"#utility.yul\":15696:15701   */\n      dup2\n        /* \"#utility.yul\":15693:15728   */\n      eq\n        /* \"#utility.yul\":15683:15746   */\n      tag_328\n      jumpi\n        /* \"#utility.yul\":15742:15743   */\n      0x00\n        /* \"#utility.yul\":15739:15740   */\n      dup1\n        /* \"#utility.yul\":15732:15744   */\n      revert\n        /* \"#utility.yul\":15683:15746   */\n    tag_328:\n        /* \"#utility.yul\":15630:15752   */\n      pop\n      jump\t// out\n\n    auxdata: 0xa2646970667358221220615c8892df0d8caf6f5ddc8892224a517e3d76d1d9eca2056cfe97a93c557a8d64736f6c63430008070033\n}\n",
				"bytecode": {
					"linkReferences": {},
					"object": "6080604052600060015534801561001557600080fd5b50336000806101000a81548173ffffffffffffffffffffffffffffffffffffffff021916908373ffffffffffffffffffffffffffffffffffffffff1602179055506112c6806100656000396000f3fe608060405234801561001057600080fd5b506004361061007d5760003560e01c8063e701c3501161005b578063e701c350146100f0578063ea99e74d14610120578063f851a44014610150578063fa8d30b61461016e5761007d565b8063053ff76c1461008257806332abcdbe1461009e578063bf5d50c4146100bc575b600080fd5b61009c60048036038101906100979190610af8565b61018c565b005b6100a66103ea565b6040516100b39190610dcf565b60405180910390f35b6100d660048036038101906100d19190610acb565b6106d3565b6040516100e7959493929190610e47565b60405180910390f35b61010a60048036038101906101059190610acb565b610846565b6040516101179190610df1565b60405180910390f35b61013a60048036038101906101359190610b83565b6108ce565b6040516101479190610db4565b60405180910390f35b61015861090d565b6040516101659190610db4565b60405180910390f35b610176610931565b6040516101839190610e2c565b60405180910390f35b3373ffffffffffffffffffffffffffffffffffffffff1660008054906101000a900473ffffffffffffffffffffffffffffffffffffffff1673ffffffffffffffffffffffffffffffffffffffff161461021a576040517f08c379a000000000000000000000000000000000000000000000000000000000815260040161021190610e0c565b60405180910390fd5b600180546102289190610f64565b60018190555060006040518060a0016040528060015481526020018581526020018473ffffffffffffffffffffffffffffffffffffffff16815260200183815260200160018081111561027e5761027d611144565b5b815250905080600260008573ffffffffffffffffffffffffffffffffffffffff1673ffffffffffffffffffffffffffffffffffffffff1681526020019081526020016000206000820151816000015560208201518160010190805190602001906102e9929190610937565b5060408201518160020160006101000a81548173ffffffffffffffffffffffffffffffffffffffff021916908373ffffffffffffffffffffffffffffffffffffffff160217905550606082015181600301908051906020019061034d929190610937565b5060808201518160040160006101000a81548160ff0219169083600181111561037957610378611144565b5b02179055509050506003839080600181540180825580915050600190039060005260206000200160009091909190916101000a81548173ffffffffffffffffffffffffffffffffffffffff021916908373ffffffffffffffffffffffffffffffffffffffff16021790555050505050565b6060600060015467ffffffffffffffff81111561040a576104096111d1565b5b60405190808252806020026020018201604052801561044357816020015b6104306109bd565b8152602001906001900390816104285790505b50905060005b6001548110156106cb57600260006003838154811061046b5761046a6111a2565b5b9060005260206000200160009054906101000a900473ffffffffffffffffffffffffffffffffffffffff1673ffffffffffffffffffffffffffffffffffffffff1673ffffffffffffffffffffffffffffffffffffffff1681526020019081526020016000206040518060a0016040529081600082015481526020016001820180546104f590611069565b80601f016020809104026020016040519081016040528092919081815260200182805461052190611069565b801561056e5780601f106105435761010080835404028352916020019161056e565b820191906000526020600020905b81548152906001019060200180831161055157829003601f168201915b505050505081526020016002820160009054906101000a900473ffffffffffffffffffffffffffffffffffffffff1673ffffffffffffffffffffffffffffffffffffffff1673ffffffffffffffffffffffffffffffffffffffff1681526020016003820180546105dd90611069565b80601f016020809104026020016040519081016040528092919081815260200182805461060990611069565b80156106565780601f1061062b57610100808354040283529160200191610656565b820191906000526020600020905b81548152906001019060200180831161063957829003601f168201915b505050505081526020016004820160009054906101000a900460ff16600181111561068457610683611144565b5b600181111561069657610695611144565b5b815250508282815181106106ad576106ac6111a2565b5b602002602001018190525080806106c3906110cc565b915050610449565b508091505090565b60026020528060005260406000206000915090508060000154908060010180546106fc90611069565b80601f016020809104026020016040519081016040528092919081815260200182805461072890611069565b80156107755780601f1061074a57610100808354040283529160200191610775565b820191906000526020600020905b81548152906001019060200180831161075857829003601f168201915b5050505050908060020160009054906101000a900473ffffffffffffffffffffffffffffffffffffffff16908060030180546107b090611069565b80601f01602080910402602001604051908101604052809291908181526020018280546107dc90611069565b80156108295780601f106107fe57610100808354040283529160200191610829565b820191906000526020600020905b81548152906001019060200180831161080c57829003601f168201915b5050505050908060040160009054906101000a900460ff16905085565b600080600090506001808111156108605761085f611144565b5b600260008573ffffffffffffffffffffffffffffffffffffffff1673ffffffffffffffffffffffffffffffffffffffff16815260200190815260200160002060040160009054906101000a900460ff1660018111156108c2576108c1611144565b5b14905080915050919050565b600381815481106108de57600080fd5b906000526020600020016000915054906101000a900473ffffffffffffffffffffffffffffffffffffffff1681565b60008054906101000a900473ffffffffffffffffffffffffffffffffffffffff1681565b60015481565b82805461094390611069565b90600052602060002090601f01602090048101928261096557600085556109ac565b82601f1061097e57805160ff19168380011785556109ac565b828001600101855582156109ac579182015b828111156109ab578251825591602001919060010190610990565b5b5090506109b99190610a14565b5090565b6040518060a001604052806000815260200160608152602001600073ffffffffffffffffffffffffffffffffffffffff1681526020016060815260200160006001811115610a0e57610a0d611144565b5b81525090565b5b80821115610a2d576000816000905550600101610a15565b5090565b6000610a44610a3f84610ecd565b610ea8565b905082815260208101848484011115610a6057610a5f611205565b5b610a6b848285611027565b509392505050565b600081359050610a8281611262565b92915050565b600082601f830112610a9d57610a9c611200565b5b8135610aad848260208601610a31565b91505092915050565b600081359050610ac581611279565b92915050565b600060208284031215610ae157610ae061120f565b5b6000610aef84828501610a73565b91505092915050565b600080600060608486031215610b1157610b1061120f565b5b600084013567ffffffffffffffff811115610b2f57610b2e61120a565b5b610b3b86828701610a88565b9350506020610b4c86828701610a73565b925050604084013567ffffffffffffffff811115610b6d57610b6c61120a565b5b610b7986828701610a88565b9150509250925092565b600060208284031215610b9957610b9861120f565b5b6000610ba784828501610ab6565b91505092915050565b6000610bbc8383610d19565b905092915050565b610bcd81610fba565b82525050565b610bdc81610fba565b82525050565b6000610bed82610f0e565b610bf78185610f31565b935083602082028501610c0985610efe565b8060005b85811015610c455784840389528151610c268582610bb0565b9450610c3183610f24565b925060208a01995050600181019050610c0d565b50829750879550505050505092915050565b610c6081610fcc565b82525050565b610c6f81611015565b82525050565b610c7e81611015565b82525050565b6000610c8f82610f19565b610c998185610f42565b9350610ca9818560208601611036565b610cb281611214565b840191505092915050565b6000610cc882610f19565b610cd28185610f53565b9350610ce2818560208601611036565b610ceb81611214565b840191505092915050565b6000610d03600a83610f53565b9150610d0e82611225565b602082019050919050565b600060a083016000830151610d316000860182610d96565b5060208301518482036020860152610d498282610c84565b9150506040830151610d5e6040860182610bc4565b5060608301518482036060860152610d768282610c84565b9150506080830151610d8b6080860182610c66565b508091505092915050565b610d9f8161100b565b82525050565b610dae8161100b565b82525050565b6000602082019050610dc96000830184610bd3565b92915050565b60006020820190508181036000830152610de98184610be2565b905092915050565b6000602082019050610e066000830184610c57565b92915050565b60006020820190508181036000830152610e2581610cf6565b9050919050565b6000602082019050610e416000830184610da5565b92915050565b600060a082019050610e5c6000830188610da5565b8181036020830152610e6e8187610cbd565b9050610e7d6040830186610bd3565b8181036060830152610e8f8185610cbd565b9050610e9e6080830184610c75565b9695505050505050565b6000610eb2610ec3565b9050610ebe828261109b565b919050565b6000604051905090565b600067ffffffffffffffff821115610ee857610ee76111d1565b5b610ef182611214565b9050602081019050919050565b6000819050602082019050919050565b600081519050919050565b600081519050919050565b6000602082019050919050565b600082825260208201905092915050565b600082825260208201905092915050565b600082825260208201905092915050565b6000610f6f8261100b565b9150610f7a8361100b565b9250827fffffffffffffffffffffffffffffffffffffffffffffffffffffffffffffffff03821115610faf57610fae611115565b5b828201905092915050565b6000610fc582610feb565b9050919050565b60008115159050919050565b6000819050610fe68261124e565b919050565b600073ffffffffffffffffffffffffffffffffffffffff82169050919050565b6000819050919050565b600061102082610fd8565b9050919050565b82818337600083830152505050565b60005b83811015611054578082015181840152602081019050611039565b83811115611063576000848401525b50505050565b6000600282049050600182168061108157607f821691505b6020821081141561109557611094611173565b5b50919050565b6110a482611214565b810181811067ffffffffffffffff821117156110c3576110c26111d1565b5b80604052505050565b60006110d78261100b565b91507fffffffffffffffffffffffffffffffffffffffffffffffffffffffffffffffff82141561110a57611109611115565b5b600182019050919050565b7f4e487b7100000000000000000000000000000000000000000000000000000000600052601160045260246000fd5b7f4e487b7100000000000000000000000000000000000000000000000000000000600052602160045260246000fd5b7f4e487b7100000000000000000000000000000000000000000000000000000000600052602260045260246000fd5b7f4e487b7100000000000000000000000000000000000000000000000000000000600052603260045260246000fd5b7f4e487b7100000000000000000000000000000000000000000000000000000000600052604160045260246000fd5b600080fd5b600080fd5b600080fd5b600080fd5b6000601f19601f8301169050919050565b7f41646d696e204f6e6c7900000000000000000000000000000000000000000000600082015250565b6002811061125f5761125e611144565b5b50565b61126b81610fba565b811461127657600080fd5b50565b6112828161100b565b811461128d57600080fd5b5056fea2646970667358221220615c8892df0d8caf6f5ddc8892224a517e3d76d1d9eca2056cfe97a93c557a8d64736f6c63430008070033",
					"opcodes": "PUSH1 0x80 PUSH1 0x40 MSTORE PUSH1 0x0 PUSH1 0x1 SSTORE CALLVALUE DUP1 ISZERO PUSH2 0x15 JUMPI PUSH1 0x0 DUP1 REVERT JUMPDEST POP CALLER PUSH1 0x0 DUP1 PUSH2 0x100 EXP DUP2 SLOAD DUP2 PUSH20 0xFFFFFFFFFFFFFFFFFFFFFFFFFFFFFFFFFFFFFFFF MUL NOT AND SWAP1 DUP4 PUSH20 0xFFFFFFFFFFFFFFFFFFFFFFFFFFFFFFFFFFFFFFFF AND MUL OR SWAP1 SSTORE POP PUSH2 0x12C6 DUP1 PUSH2 0x65 PUSH1 0x0 CODECOPY PUSH1 0x0 RETURN INVALID PUSH1 0x80 PUSH1 0x40 MSTORE CALLVALUE DUP1 ISZERO PUSH2 0x10 JUMPI PUSH1 0x0 DUP1 REVERT JUMPDEST POP PUSH1 0x4 CALLDATASIZE LT PUSH2 0x7D JUMPI PUSH1 0x0 CALLDATALOAD PUSH1 0xE0 SHR DUP1 PUSH4 0xE701C350 GT PUSH2 0x5B JUMPI DUP1 PUSH4 0xE701C350 EQ PUSH2 0xF0 JUMPI DUP1 PUSH4 0xEA99E74D EQ PUSH2 0x120 JUMPI DUP1 PUSH4 0xF851A440 EQ PUSH2 0x150 JUMPI DUP1 PUSH4 0xFA8D30B6 EQ PUSH2 0x16E JUMPI PUSH2 0x7D JUMP JUMPDEST DUP1 PUSH4 0x53FF76C EQ PUSH2 0x82 JUMPI DUP1 PUSH4 0x32ABCDBE EQ PUSH2 0x9E JUMPI DUP1 PUSH4 0xBF5D50C4 EQ PUSH2 0xBC JUMPI JUMPDEST PUSH1 0x0 DUP1 REVERT JUMPDEST PUSH2 0x9C PUSH1 0x4 DUP1 CALLDATASIZE SUB DUP2 ADD SWAP1 PUSH2 0x97 SWAP2 SWAP1 PUSH2 0xAF8 JUMP JUMPDEST PUSH2 0x18C JUMP JUMPDEST STOP JUMPDEST PUSH2 0xA6 PUSH2 0x3EA JUMP JUMPDEST PUSH1 0x40 MLOAD PUSH2 0xB3 SWAP2 SWAP1 PUSH2 0xDCF JUMP JUMPDEST PUSH1 0x40 MLOAD DUP1 SWAP2 SUB SWAP1 RETURN JUMPDEST PUSH2 0xD6 PUSH1 0x4 DUP1 CALLDATASIZE SUB DUP2 ADD SWAP1 PUSH2 0xD1 SWAP2 SWAP1 PUSH2 0xACB JUMP JUMPDEST PUSH2 0x6D3 JUMP JUMPDEST PUSH1 0x40 MLOAD PUSH2 0xE7 SWAP6 SWAP5 SWAP4 SWAP3 SWAP2 SWAP1 PUSH2 0xE47 JUMP JUMPDEST PUSH1 0x40 MLOAD DUP1 SWAP2 SUB SWAP1 RETURN JUMPDEST PUSH2 0x10A PUSH1 0x4 DUP1 CALLDATASIZE SUB DUP2 ADD SWAP1 PUSH2 0x105 SWAP2 SWAP1 PUSH2 0xACB JUMP JUMPDEST PUSH2 0x846 JUMP JUMPDEST PUSH1 0x40 MLOAD PUSH2 0x117 SWAP2 SWAP1 PUSH2 0xDF1 JUMP JUMPDEST PUSH1 0x40 MLOAD DUP1 SWAP2 SUB SWAP1 RETURN JUMPDEST PUSH2 0x13A PUSH1 0x4 DUP1 CALLDATASIZE SUB DUP2 ADD SWAP1 PUSH2 0x135 SWAP2 SWAP1 PUSH2 0xB83 JUMP JUMPDEST PUSH2 0x8CE JUMP JUMPDEST PUSH1 0x40 MLOAD PUSH2 0x147 SWAP2 SWAP1 PUSH2 0xDB4 JUMP JUMPDEST PUSH1 0x40 MLOAD DUP1 SWAP2 SUB SWAP1 RETURN JUMPDEST PUSH2 0x158 PUSH2 0x90D JUMP JUMPDEST PUSH1 0x40 MLOAD PUSH2 0x165 SWAP2 SWAP1 PUSH2 0xDB4 JUMP JUMPDEST PUSH1 0x40 MLOAD DUP1 SWAP2 SUB SWAP1 RETURN JUMPDEST PUSH2 0x176 PUSH2 0x931 JUMP JUMPDEST PUSH1 0x40 MLOAD PUSH2 0x183 SWAP2 SWAP1 PUSH2 0xE2C JUMP JUMPDEST PUSH1 0x40 MLOAD DUP1 SWAP2 SUB SWAP1 RETURN JUMPDEST CALLER PUSH20 0xFFFFFFFFFFFFFFFFFFFFFFFFFFFFFFFFFFFFFFFF AND PUSH1 0x0 DUP1 SLOAD SWAP1 PUSH2 0x100 EXP SWAP1 DIV PUSH20 0xFFFFFFFFFFFFFFFFFFFFFFFFFFFFFFFFFFFFFFFF AND PUSH20 0xFFFFFFFFFFFFFFFFFFFFFFFFFFFFFFFFFFFFFFFF AND EQ PUSH2 0x21A JUMPI PUSH1 0x40 MLOAD PUSH32 0x8C379A000000000000000000000000000000000000000000000000000000000 DUP2 MSTORE PUSH1 0x4 ADD PUSH2 0x211 SWAP1 PUSH2 0xE0C JUMP JUMPDEST PUSH1 0x40 MLOAD DUP1 SWAP2 SUB SWAP1 REVERT JUMPDEST PUSH1 0x1 DUP1 SLOAD PUSH2 0x228 SWAP2 SWAP1 PUSH2 0xF64 JUMP JUMPDEST PUSH1 0x1 DUP2 SWAP1 SSTORE POP PUSH1 0x0 PUSH1 0x40 MLOAD DUP1 PUSH1 0xA0 ADD PUSH1 0x40 MSTORE DUP1 PUSH1 0x1 SLOAD DUP2 MSTORE PUSH1 0x20 ADD DUP6 DUP2 MSTORE PUSH1 0x20 ADD DUP5 PUSH20 0xFFFFFFFFFFFFFFFFFFFFFFFFFFFFFFFFFFFFFFFF AND DUP2 MSTORE PUSH1 0x20 ADD DUP4 DUP2 MSTORE PUSH1 0x20 ADD PUSH1 0x1 DUP1 DUP2 GT ISZERO PUSH2 0x27E JUMPI PUSH2 0x27D PUSH2 0x1144 JUMP JUMPDEST JUMPDEST DUP2 MSTORE POP SWAP1 POP DUP1 PUSH1 0x2 PUSH1 0x0 DUP6 PUSH20 0xFFFFFFFFFFFFFFFFFFFFFFFFFFFFFFFFFFFFFFFF AND PUSH20 0xFFFFFFFFFFFFFFFFFFFFFFFFFFFFFFFFFFFFFFFF AND DUP2 MSTORE PUSH1 0x20 ADD SWAP1 DUP2 MSTORE PUSH1 0x20 ADD PUSH1 0x0 KECCAK256 PUSH1 0x0 DUP3 ADD MLOAD DUP2 PUSH1 0x0 ADD SSTORE PUSH1 0x20 DUP3 ADD MLOAD DUP2 PUSH1 0x1 ADD SWAP1 DUP1 MLOAD SWAP1 PUSH1 0x20 ADD SWAP1 PUSH2 0x2E9 SWAP3 SWAP2 SWAP1 PUSH2 0x937 JUMP JUMPDEST POP PUSH1 0x40 DUP3 ADD MLOAD DUP2 PUSH1 0x2 ADD PUSH1 0x0 PUSH2 0x100 EXP DUP2 SLOAD DUP2 PUSH20 0xFFFFFFFFFFFFFFFFFFFFFFFFFFFFFFFFFFFFFFFF MUL NOT AND SWAP1 DUP4 PUSH20 0xFFFFFFFFFFFFFFFFFFFFFFFFFFFFFFFFFFFFFFFF AND MUL OR SWAP1 SSTORE POP PUSH1 0x60 DUP3 ADD MLOAD DUP2 PUSH1 0x3 ADD SWAP1 DUP1 MLOAD SWAP1 PUSH1 0x20 ADD SWAP1 PUSH2 0x34D SWAP3 SWAP2 SWAP1 PUSH2 0x937 JUMP JUMPDEST POP PUSH1 0x80 DUP3 ADD MLOAD DUP2 PUSH1 0x4 ADD PUSH1 0x0 PUSH2 0x100 EXP DUP2 SLOAD DUP2 PUSH1 0xFF MUL NOT AND SWAP1 DUP4 PUSH1 0x1 DUP2 GT ISZERO PUSH2 0x379 JUMPI PUSH2 0x378 PUSH2 0x1144 JUMP JUMPDEST JUMPDEST MUL OR SWAP1 SSTORE POP SWAP1 POP POP PUSH1 0x3 DUP4 SWAP1 DUP1 PUSH1 0x1 DUP2 SLOAD ADD DUP1 DUP3 SSTORE DUP1 SWAP2 POP POP PUSH1 0x1 SWAP1 SUB SWAP1 PUSH1 0x0 MSTORE PUSH1 0x20 PUSH1 0x0 KECCAK256 ADD PUSH1 0x0 SWAP1 SWAP2 SWAP1 SWAP2 SWAP1 SWAP2 PUSH2 0x100 EXP DUP2 SLOAD DUP2 PUSH20 0xFFFFFFFFFFFFFFFFFFFFFFFFFFFFFFFFFFFFFFFF MUL NOT AND SWAP1 DUP4 PUSH20 0xFFFFFFFFFFFFFFFFFFFFFFFFFFFFFFFFFFFFFFFF AND MUL OR SWAP1 SSTORE POP POP POP POP POP JUMP JUMPDEST PUSH1 0x60 PUSH1 0x0 PUSH1 0x1 SLOAD PUSH8 0xFFFFFFFFFFFFFFFF DUP2 GT ISZERO PUSH2 0x40A JUMPI PUSH2 0x409 PUSH2 0x11D1 JUMP JUMPDEST JUMPDEST PUSH1 0x40 MLOAD SWAP1 DUP1 DUP3 MSTORE DUP1 PUSH1 0x20 MUL PUSH1 0x20 ADD DUP3 ADD PUSH1 0x40 MSTORE DUP1 ISZERO PUSH2 0x443 JUMPI DUP2 PUSH1 0x20 ADD JUMPDEST PUSH2 0x430 PUSH2 0x9BD JUMP JUMPDEST DUP2 MSTORE PUSH1 0x20 ADD SWAP1 PUSH1 0x1 SWAP1 SUB SWAP1 DUP2 PUSH2 0x428 JUMPI SWAP1 POP JUMPDEST POP SWAP1 POP PUSH1 0x0 JUMPDEST PUSH1 0x1 SLOAD DUP2 LT ISZERO PUSH2 0x6CB JUMPI PUSH1 0x2 PUSH1 0x0 PUSH1 0x3 DUP4 DUP2 SLOAD DUP2 LT PUSH2 0x46B JUMPI PUSH2 0x46A PUSH2 0x11A2 JUMP JUMPDEST JUMPDEST SWAP1 PUSH1 0x0 MSTORE PUSH1 0x20 PUSH1 0x0 KECCAK256 ADD PUSH1 0x0 SWAP1 SLOAD SWAP1 PUSH2 0x100 EXP SWAP1 DIV PUSH20 0xFFFFFFFFFFFFFFFFFFFFFFFFFFFFFFFFFFFFFFFF AND PUSH20 0xFFFFFFFFFFFFFFFFFFFFFFFFFFFFFFFFFFFFFFFF AND PUSH20 0xFFFFFFFFFFFFFFFFFFFFFFFFFFFFFFFFFFFFFFFF AND DUP2 MSTORE PUSH1 0x20 ADD SWAP1 DUP2 MSTORE PUSH1 0x20 ADD PUSH1 0x0 KECCAK256 PUSH1 0x40 MLOAD DUP1 PUSH1 0xA0 ADD PUSH1 0x40 MSTORE SWAP1 DUP2 PUSH1 0x0 DUP3 ADD SLOAD DUP2 MSTORE PUSH1 0x20 ADD PUSH1 0x1 DUP3 ADD DUP1 SLOAD PUSH2 0x4F5 SWAP1 PUSH2 0x1069 JUMP JUMPDEST DUP1 PUSH1 0x1F ADD PUSH1 0x20 DUP1 SWAP2 DIV MUL PUSH1 0x20 ADD PUSH1 0x40 MLOAD SWAP1 DUP2 ADD PUSH1 0x40 MSTORE DUP1 SWAP3 SWAP2 SWAP1 DUP2 DUP2 MSTORE PUSH1 0x20 ADD DUP3 DUP1 SLOAD PUSH2 0x521 SWAP1 PUSH2 0x1069 JUMP JUMPDEST DUP1 ISZERO PUSH2 0x56E JUMPI DUP1 PUSH1 0x1F LT PUSH2 0x543 JUMPI PUSH2 0x100 DUP1 DUP4 SLOAD DIV MUL DUP4 MSTORE SWAP2 PUSH1 0x20 ADD SWAP2 PUSH2 0x56E JUMP JUMPDEST DUP3 ADD SWAP2 SWAP1 PUSH1 0x0 MSTORE PUSH1 0x20 PUSH1 0x0 KECCAK256 SWAP1 JUMPDEST DUP2 SLOAD DUP2 MSTORE SWAP1 PUSH1 0x1 ADD SWAP1 PUSH1 0x20 ADD DUP1 DUP4 GT PUSH2 0x551 JUMPI DUP3 SWAP1 SUB PUSH1 0x1F AND DUP3 ADD SWAP2 JUMPDEST POP POP POP POP POP DUP2 MSTORE PUSH1 0x20 ADD PUSH1 0x2 DUP3 ADD PUSH1 0x0 SWAP1 SLOAD SWAP1 PUSH2 0x100 EXP SWAP1 DIV PUSH20 0xFFFFFFFFFFFFFFFFFFFFFFFFFFFFFFFFFFFFFFFF AND PUSH20 0xFFFFFFFFFFFFFFFFFFFFFFFFFFFFFFFFFFFFFFFF AND PUSH20 0xFFFFFFFFFFFFFFFFFFFFFFFFFFFFFFFFFFFFFFFF AND DUP2 MSTORE PUSH1 0x20 ADD PUSH1 0x3 DUP3 ADD DUP1 SLOAD PUSH2 0x5DD SWAP1 PUSH2 0x1069 JUMP JUMPDEST DUP1 PUSH1 0x1F ADD PUSH1 0x20 DUP1 SWAP2 DIV MUL PUSH1 0x20 ADD PUSH1 0x40 MLOAD SWAP1 DUP2 ADD PUSH1 0x40 MSTORE DUP1 SWAP3 SWAP2 SWAP1 DUP2 DUP2 MSTORE PUSH1 0x20 ADD DUP3 DUP1 SLOAD PUSH2 0x609 SWAP1 PUSH2 0x1069 JUMP JUMPDEST DUP1 ISZERO PUSH2 0x656 JUMPI DUP1 PUSH1 0x1F LT PUSH2 0x62B JUMPI PUSH2 0x100 DUP1 DUP4 SLOAD DIV MUL DUP4 MSTORE SWAP2 PUSH1 0x20 ADD SWAP2 PUSH2 0x656 JUMP JUMPDEST DUP3 ADD SWAP2 SWAP1 PUSH1 0x0 MSTORE PUSH1 0x20 PUSH1 0x0 KECCAK256 SWAP1 JUMPDEST DUP2 SLOAD DUP2 MSTORE SWAP1 PUSH1 0x1 ADD SWAP1 PUSH1 0x20 ADD DUP1 DUP4 GT PUSH2 0x639 JUMPI DUP3 SWAP1 SUB PUSH1 0x1F AND DUP3 ADD SWAP2 JUMPDEST POP POP POP POP POP DUP2 MSTORE PUSH1 0x20 ADD PUSH1 0x4 DUP3 ADD PUSH1 0x0 SWAP1 SLOAD SWAP1 PUSH2 0x100 EXP SWAP1 DIV PUSH1 0xFF AND PUSH1 0x1 DUP2 GT ISZERO PUSH2 0x684 JUMPI PUSH2 0x683 PUSH2 0x1144 JUMP JUMPDEST JUMPDEST PUSH1 0x1 DUP2 GT ISZERO PUSH2 0x696 JUMPI PUSH2 0x695 PUSH2 0x1144 JUMP JUMPDEST JUMPDEST DUP2 MSTORE POP POP DUP3 DUP3 DUP2 MLOAD DUP2 LT PUSH2 0x6AD JUMPI PUSH2 0x6AC PUSH2 0x11A2 JUMP JUMPDEST JUMPDEST PUSH1 0x20 MUL PUSH1 0x20 ADD ADD DUP2 SWAP1 MSTORE POP DUP1 DUP1 PUSH2 0x6C3 SWAP1 PUSH2 0x10CC JUMP JUMPDEST SWAP2 POP POP PUSH2 0x449 JUMP JUMPDEST POP DUP1 SWAP2 POP POP SWAP1 JUMP JUMPDEST PUSH1 0x2 PUSH1 0x20 MSTORE DUP1 PUSH1 0x0 MSTORE PUSH1 0x40 PUSH1 0x0 KECCAK256 PUSH1 0x0 SWAP2 POP SWAP1 POP DUP1 PUSH1 0x0 ADD SLOAD SWAP1 DUP1 PUSH1 0x1 ADD DUP1 SLOAD PUSH2 0x6FC SWAP1 PUSH2 0x1069 JUMP JUMPDEST DUP1 PUSH1 0x1F ADD PUSH1 0x20 DUP1 SWAP2 DIV MUL PUSH1 0x20 ADD PUSH1 0x40 MLOAD SWAP1 DUP2 ADD PUSH1 0x40 MSTORE DUP1 SWAP3 SWAP2 SWAP1 DUP2 DUP2 MSTORE PUSH1 0x20 ADD DUP3 DUP1 SLOAD PUSH2 0x728 SWAP1 PUSH2 0x1069 JUMP JUMPDEST DUP1 ISZERO PUSH2 0x775 JUMPI DUP1 PUSH1 0x1F LT PUSH2 0x74A JUMPI PUSH2 0x100 DUP1 DUP4 SLOAD DIV MUL DUP4 MSTORE SWAP2 PUSH1 0x20 ADD SWAP2 PUSH2 0x775 JUMP JUMPDEST DUP3 ADD SWAP2 SWAP1 PUSH1 0x0 MSTORE PUSH1 0x20 PUSH1 0x0 KECCAK256 SWAP1 JUMPDEST DUP2 SLOAD DUP2 MSTORE SWAP1 PUSH1 0x1 ADD SWAP1 PUSH1 0x20 ADD DUP1 DUP4 GT PUSH2 0x758 JUMPI DUP3 SWAP1 SUB PUSH1 0x1F AND DUP3 ADD SWAP2 JUMPDEST POP POP POP POP POP SWAP1 DUP1 PUSH1 0x2 ADD PUSH1 0x0 SWAP1 SLOAD SWAP1 PUSH2 0x100 EXP SWAP1 DIV PUSH20 0xFFFFFFFFFFFFFFFFFFFFFFFFFFFFFFFFFFFFFFFF AND SWAP1 DUP1 PUSH1 0x3 ADD DUP1 SLOAD PUSH2 0x7B0 SWAP1 PUSH2 0x1069 JUMP JUMPDEST DUP1 PUSH1 0x1F ADD PUSH1 0x20 DUP1 SWAP2 DIV MUL PUSH1 0x20 ADD PUSH1 0x40 MLOAD SWAP1 DUP2 ADD PUSH1 0x40 MSTORE DUP1 SWAP3 SWAP2 SWAP1 DUP2 DUP2 MSTORE PUSH1 0x20 ADD DUP3 DUP1 SLOAD PUSH2 0x7DC SWAP1 PUSH2 0x1069 JUMP JUMPDEST DUP1 ISZERO PUSH2 0x829 JUMPI DUP1 PUSH1 0x1F LT PUSH2 0x7FE JUMPI PUSH2 0x100 DUP1 DUP4 SLOAD DIV MUL DUP4 MSTORE SWAP2 PUSH1 0x20 ADD SWAP2 PUSH2 0x829 JUMP JUMPDEST DUP3 ADD SWAP2 SWAP1 PUSH1 0x0 MSTORE PUSH1 0x20 PUSH1 0x0 KECCAK256 SWAP1 JUMPDEST DUP2 SLOAD DUP2 MSTORE SWAP1 PUSH1 0x1 ADD SWAP1 PUSH1 0x20 ADD DUP1 DUP4 GT PUSH2 0x80C JUMPI DUP3 SWAP1 SUB PUSH1 0x1F AND DUP3 ADD SWAP2 JUMPDEST POP POP POP POP POP SWAP1 DUP1 PUSH1 0x4 ADD PUSH1 0x0 SWAP1 SLOAD SWAP1 PUSH2 0x100 EXP SWAP1 DIV PUSH1 0xFF AND SWAP1 POP DUP6 JUMP JUMPDEST PUSH1 0x0 DUP1 PUSH1 0x0 SWAP1 POP PUSH1 0x1 DUP1 DUP2 GT ISZERO PUSH2 0x860 JUMPI PUSH2 0x85F PUSH2 0x1144 JUMP JUMPDEST JUMPDEST PUSH1 0x2 PUSH1 0x0 DUP6 PUSH20 0xFFFFFFFFFFFFFFFFFFFFFFFFFFFFFFFFFFFFFFFF AND PUSH20 0xFFFFFFFFFFFFFFFFFFFFFFFFFFFFFFFFFFFFFFFF AND DUP2 MSTORE PUSH1 0x20 ADD SWAP1 DUP2 MSTORE PUSH1 0x20 ADD PUSH1 0x0 KECCAK256 PUSH1 0x4 ADD PUSH1 0x0 SWAP1 SLOAD SWAP1 PUSH2 0x100 EXP SWAP1 DIV PUSH1 0xFF AND PUSH1 0x1 DUP2 GT ISZERO PUSH2 0x8C2 JUMPI PUSH2 0x8C1 PUSH2 0x1144 JUMP JUMPDEST JUMPDEST EQ SWAP1 POP DUP1 SWAP2 POP POP SWAP2 SWAP1 POP JUMP JUMPDEST PUSH1 0x3 DUP2 DUP2 SLOAD DUP2 LT PUSH2 0x8DE JUMPI PUSH1 0x0 DUP1 REVERT JUMPDEST SWAP1 PUSH1 0x0 MSTORE PUSH1 0x20 PUSH1 0x0 KECCAK256 ADD PUSH1 0x0 SWAP2 POP SLOAD SWAP1 PUSH2 0x100 EXP SWAP1 DIV PUSH20 0xFFFFFFFFFFFFFFFFFFFFFFFFFFFFFFFFFFFFFFFF AND DUP2 JUMP JUMPDEST PUSH1 0x0 DUP1 SLOAD SWAP1 PUSH2 0x100 EXP SWAP1 DIV PUSH20 0xFFFFFFFFFFFFFFFFFFFFFFFFFFFFFFFFFFFFFFFF AND DUP2 JUMP JUMPDEST PUSH1 0x1 SLOAD DUP2 JUMP JUMPDEST DUP3 DUP1 SLOAD PUSH2 0x943 SWAP1 PUSH2 0x1069 JUMP JUMPDEST SWAP1 PUSH1 0x0 MSTORE PUSH1 0x20 PUSH1 0x0 KECCAK256 SWAP1 PUSH1 0x1F ADD PUSH1 0x20 SWAP1 DIV DUP2 ADD SWAP3 DUP3 PUSH2 0x965 JUMPI PUSH1 0x0 DUP6 SSTORE PUSH2 0x9AC JUMP JUMPDEST DUP3 PUSH1 0x1F LT PUSH2 0x97E JUMPI DUP1 MLOAD PUSH1 0xFF NOT AND DUP4 DUP1 ADD OR DUP6 SSTORE PUSH2 0x9AC JUMP JUMPDEST DUP3 DUP1 ADD PUSH1 0x1 ADD DUP6 SSTORE DUP3 ISZERO PUSH2 0x9AC JUMPI SWAP2 DUP3 ADD JUMPDEST DUP3 DUP2 GT ISZERO PUSH2 0x9AB JUMPI DUP3 MLOAD DUP3 SSTORE SWAP2 PUSH1 0x20 ADD SWAP2 SWAP1 PUSH1 0x1 ADD SWAP1 PUSH2 0x990 JUMP JUMPDEST JUMPDEST POP SWAP1 POP PUSH2 0x9B9 SWAP2 SWAP1 PUSH2 0xA14 JUMP JUMPDEST POP SWAP1 JUMP JUMPDEST PUSH1 0x40 MLOAD DUP1 PUSH1 0xA0 ADD PUSH1 0x40 MSTORE DUP1 PUSH1 0x0 DUP2 MSTORE PUSH1 0x20 ADD PUSH1 0x60 DUP2 MSTORE PUSH1 0x20 ADD PUSH1 0x0 PUSH20 0xFFFFFFFFFFFFFFFFFFFFFFFFFFFFFFFFFFFFFFFF AND DUP2 MSTORE PUSH1 0x20 ADD PUSH1 0x60 DUP2 MSTORE PUSH1 0x20 ADD PUSH1 0x0 PUSH1 0x1 DUP2 GT ISZERO PUSH2 0xA0E JUMPI PUSH2 0xA0D PUSH2 0x1144 JUMP JUMPDEST JUMPDEST DUP2 MSTORE POP SWAP1 JUMP JUMPDEST JUMPDEST DUP1 DUP3 GT ISZERO PUSH2 0xA2D JUMPI PUSH1 0x0 DUP2 PUSH1 0x0 SWAP1 SSTORE POP PUSH1 0x1 ADD PUSH2 0xA15 JUMP JUMPDEST POP SWAP1 JUMP JUMPDEST PUSH1 0x0 PUSH2 0xA44 PUSH2 0xA3F DUP5 PUSH2 0xECD JUMP JUMPDEST PUSH2 0xEA8 JUMP JUMPDEST SWAP1 POP DUP3 DUP2 MSTORE PUSH1 0x20 DUP2 ADD DUP5 DUP5 DUP5 ADD GT ISZERO PUSH2 0xA60 JUMPI PUSH2 0xA5F PUSH2 0x1205 JUMP JUMPDEST JUMPDEST PUSH2 0xA6B DUP5 DUP3 DUP6 PUSH2 0x1027 JUMP JUMPDEST POP SWAP4 SWAP3 POP POP POP JUMP JUMPDEST PUSH1 0x0 DUP2 CALLDATALOAD SWAP1 POP PUSH2 0xA82 DUP2 PUSH2 0x1262 JUMP JUMPDEST SWAP3 SWAP2 POP POP JUMP JUMPDEST PUSH1 0x0 DUP3 PUSH1 0x1F DUP4 ADD SLT PUSH2 0xA9D JUMPI PUSH2 0xA9C PUSH2 0x1200 JUMP JUMPDEST JUMPDEST DUP2 CALLDATALOAD PUSH2 0xAAD DUP5 DUP3 PUSH1 0x20 DUP7 ADD PUSH2 0xA31 JUMP JUMPDEST SWAP2 POP POP SWAP3 SWAP2 POP POP JUMP JUMPDEST PUSH1 0x0 DUP2 CALLDATALOAD SWAP1 POP PUSH2 0xAC5 DUP2 PUSH2 0x1279 JUMP JUMPDEST SWAP3 SWAP2 POP POP JUMP JUMPDEST PUSH1 0x0 PUSH1 0x20 DUP3 DUP5 SUB SLT ISZERO PUSH2 0xAE1 JUMPI PUSH2 0xAE0 PUSH2 0x120F JUMP JUMPDEST JUMPDEST PUSH1 0x0 PUSH2 0xAEF DUP5 DUP3 DUP6 ADD PUSH2 0xA73 JUMP JUMPDEST SWAP2 POP POP SWAP3 SWAP2 POP POP JUMP JUMPDEST PUSH1 0x0 DUP1 PUSH1 0x0 PUSH1 0x60 DUP5 DUP7 SUB SLT ISZERO PUSH2 0xB11 JUMPI PUSH2 0xB10 PUSH2 0x120F JUMP JUMPDEST JUMPDEST PUSH1 0x0 DUP5 ADD CALLDATALOAD PUSH8 0xFFFFFFFFFFFFFFFF DUP2 GT ISZERO PUSH2 0xB2F JUMPI PUSH2 0xB2E PUSH2 0x120A JUMP JUMPDEST JUMPDEST PUSH2 0xB3B DUP7 DUP3 DUP8 ADD PUSH2 0xA88 JUMP JUMPDEST SWAP4 POP POP PUSH1 0x20 PUSH2 0xB4C DUP7 DUP3 DUP8 ADD PUSH2 0xA73 JUMP JUMPDEST SWAP3 POP POP PUSH1 0x40 DUP5 ADD CALLDATALOAD PUSH8 0xFFFFFFFFFFFFFFFF DUP2 GT ISZERO PUSH2 0xB6D JUMPI PUSH2 0xB6C PUSH2 0x120A JUMP JUMPDEST JUMPDEST PUSH2 0xB79 DUP7 DUP3 DUP8 ADD PUSH2 0xA88 JUMP JUMPDEST SWAP2 POP POP SWAP3 POP SWAP3 POP SWAP3 JUMP JUMPDEST PUSH1 0x0 PUSH1 0x20 DUP3 DUP5 SUB SLT ISZERO PUSH2 0xB99 JUMPI PUSH2 0xB98 PUSH2 0x120F JUMP JUMPDEST JUMPDEST PUSH1 0x0 PUSH2 0xBA7 DUP5 DUP3 DUP6 ADD PUSH2 0xAB6 JUMP JUMPDEST SWAP2 POP POP SWAP3 SWAP2 POP POP JUMP JUMPDEST PUSH1 0x0 PUSH2 0xBBC DUP4 DUP4 PUSH2 0xD19 JUMP JUMPDEST SWAP1 POP SWAP3 SWAP2 POP POP JUMP JUMPDEST PUSH2 0xBCD DUP2 PUSH2 0xFBA JUMP JUMPDEST DUP3 MSTORE POP POP JUMP JUMPDEST PUSH2 0xBDC DUP2 PUSH2 0xFBA JUMP JUMPDEST DUP3 MSTORE POP POP JUMP JUMPDEST PUSH1 0x0 PUSH2 0xBED DUP3 PUSH2 0xF0E JUMP JUMPDEST PUSH2 0xBF7 DUP2 DUP6 PUSH2 0xF31 JUMP JUMPDEST SWAP4 POP DUP4 PUSH1 0x20 DUP3 MUL DUP6 ADD PUSH2 0xC09 DUP6 PUSH2 0xEFE JUMP JUMPDEST DUP1 PUSH1 0x0 JUMPDEST DUP6 DUP2 LT ISZERO PUSH2 0xC45 JUMPI DUP5 DUP5 SUB DUP10 MSTORE DUP2 MLOAD PUSH2 0xC26 DUP6 DUP3 PUSH2 0xBB0 JUMP JUMPDEST SWAP5 POP PUSH2 0xC31 DUP4 PUSH2 0xF24 JUMP JUMPDEST SWAP3 POP PUSH1 0x20 DUP11 ADD SWAP10 POP POP PUSH1 0x1 DUP2 ADD SWAP1 POP PUSH2 0xC0D JUMP JUMPDEST POP DUP3 SWAP8 POP DUP8 SWAP6 POP POP POP POP POP POP SWAP3 SWAP2 POP POP JUMP JUMPDEST PUSH2 0xC60 DUP2 PUSH2 0xFCC JUMP JUMPDEST DUP3 MSTORE POP POP JUMP JUMPDEST PUSH2 0xC6F DUP2 PUSH2 0x1015 JUMP JUMPDEST DUP3 MSTORE POP POP JUMP JUMPDEST PUSH2 0xC7E DUP2 PUSH2 0x1015 JUMP JUMPDEST DUP3 MSTORE POP POP JUMP JUMPDEST PUSH1 0x0 PUSH2 0xC8F DUP3 PUSH2 0xF19 JUMP JUMPDEST PUSH2 0xC99 DUP2 DUP6 PUSH2 0xF42 JUMP JUMPDEST SWAP4 POP PUSH2 0xCA9 DUP2 DUP6 PUSH1 0x20 DUP7 ADD PUSH2 0x1036 JUMP JUMPDEST PUSH2 0xCB2 DUP2 PUSH2 0x1214 JUMP JUMPDEST DUP5 ADD SWAP2 POP POP SWAP3 SWAP2 POP POP JUMP JUMPDEST PUSH1 0x0 PUSH2 0xCC8 DUP3 PUSH2 0xF19 JUMP JUMPDEST PUSH2 0xCD2 DUP2 DUP6 PUSH2 0xF53 JUMP JUMPDEST SWAP4 POP PUSH2 0xCE2 DUP2 DUP6 PUSH1 0x20 DUP7 ADD PUSH2 0x1036 JUMP JUMPDEST PUSH2 0xCEB DUP2 PUSH2 0x1214 JUMP JUMPDEST DUP5 ADD SWAP2 POP POP SWAP3 SWAP2 POP POP JUMP JUMPDEST PUSH1 0x0 PUSH2 0xD03 PUSH1 0xA DUP4 PUSH2 0xF53 JUMP JUMPDEST SWAP2 POP PUSH2 0xD0E DUP3 PUSH2 0x1225 JUMP JUMPDEST PUSH1 0x20 DUP3 ADD SWAP1 POP SWAP2 SWAP1 POP JUMP JUMPDEST PUSH1 0x0 PUSH1 0xA0 DUP4 ADD PUSH1 0x0 DUP4 ADD MLOAD PUSH2 0xD31 PUSH1 0x0 DUP7 ADD DUP3 PUSH2 0xD96 JUMP JUMPDEST POP PUSH1 0x20 DUP4 ADD MLOAD DUP5 DUP3 SUB PUSH1 0x20 DUP7 ADD MSTORE PUSH2 0xD49 DUP3 DUP3 PUSH2 0xC84 JUMP JUMPDEST SWAP2 POP POP PUSH1 0x40 DUP4 ADD MLOAD PUSH2 0xD5E PUSH1 0x40 DUP7 ADD DUP3 PUSH2 0xBC4 JUMP JUMPDEST POP PUSH1 0x60 DUP4 ADD MLOAD DUP5 DUP3 SUB PUSH1 0x60 DUP7 ADD MSTORE PUSH2 0xD76 DUP3 DUP3 PUSH2 0xC84 JUMP JUMPDEST SWAP2 POP POP PUSH1 0x80 DUP4 ADD MLOAD PUSH2 0xD8B PUSH1 0x80 DUP7 ADD DUP3 PUSH2 0xC66 JUMP JUMPDEST POP DUP1 SWAP2 POP POP SWAP3 SWAP2 POP POP JUMP JUMPDEST PUSH2 0xD9F DUP2 PUSH2 0x100B JUMP JUMPDEST DUP3 MSTORE POP POP JUMP JUMPDEST PUSH2 0xDAE DUP2 PUSH2 0x100B JUMP JUMPDEST DUP3 MSTORE POP POP JUMP JUMPDEST PUSH1 0x0 PUSH1 0x20 DUP3 ADD SWAP1 POP PUSH2 0xDC9 PUSH1 0x0 DUP4 ADD DUP5 PUSH2 0xBD3 JUMP JUMPDEST SWAP3 SWAP2 POP POP JUMP JUMPDEST PUSH1 0x0 PUSH1 0x20 DUP3 ADD SWAP1 POP DUP2 DUP2 SUB PUSH1 0x0 DUP4 ADD MSTORE PUSH2 0xDE9 DUP2 DUP5 PUSH2 0xBE2 JUMP JUMPDEST SWAP1 POP SWAP3 SWAP2 POP POP JUMP JUMPDEST PUSH1 0x0 PUSH1 0x20 DUP3 ADD SWAP1 POP PUSH2 0xE06 PUSH1 0x0 DUP4 ADD DUP5 PUSH2 0xC57 JUMP JUMPDEST SWAP3 SWAP2 POP POP JUMP JUMPDEST PUSH1 0x0 PUSH1 0x20 DUP3 ADD SWAP1 POP DUP2 DUP2 SUB PUSH1 0x0 DUP4 ADD MSTORE PUSH2 0xE25 DUP2 PUSH2 0xCF6 JUMP JUMPDEST SWAP1 POP SWAP2 SWAP1 POP JUMP JUMPDEST PUSH1 0x0 PUSH1 0x20 DUP3 ADD SWAP1 POP PUSH2 0xE41 PUSH1 0x0 DUP4 ADD DUP5 PUSH2 0xDA5 JUMP JUMPDEST SWAP3 SWAP2 POP POP JUMP JUMPDEST PUSH1 0x0 PUSH1 0xA0 DUP3 ADD SWAP1 POP PUSH2 0xE5C PUSH1 0x0 DUP4 ADD DUP9 PUSH2 0xDA5 JUMP JUMPDEST DUP2 DUP2 SUB PUSH1 0x20 DUP4 ADD MSTORE PUSH2 0xE6E DUP2 DUP8 PUSH2 0xCBD JUMP JUMPDEST SWAP1 POP PUSH2 0xE7D PUSH1 0x40 DUP4 ADD DUP7 PUSH2 0xBD3 JUMP JUMPDEST DUP2 DUP2 SUB PUSH1 0x60 DUP4 ADD MSTORE PUSH2 0xE8F DUP2 DUP6 PUSH2 0xCBD JUMP JUMPDEST SWAP1 POP PUSH2 0xE9E PUSH1 0x80 DUP4 ADD DUP5 PUSH2 0xC75 JUMP JUMPDEST SWAP7 SWAP6 POP POP POP POP POP POP JUMP JUMPDEST PUSH1 0x0 PUSH2 0xEB2 PUSH2 0xEC3 JUMP JUMPDEST SWAP1 POP PUSH2 0xEBE DUP3 DUP3 PUSH2 0x109B JUMP JUMPDEST SWAP2 SWAP1 POP JUMP JUMPDEST PUSH1 0x0 PUSH1 0x40 MLOAD SWAP1 POP SWAP1 JUMP JUMPDEST PUSH1 0x0 PUSH8 0xFFFFFFFFFFFFFFFF DUP3 GT ISZERO PUSH2 0xEE8 JUMPI PUSH2 0xEE7 PUSH2 0x11D1 JUMP JUMPDEST JUMPDEST PUSH2 0xEF1 DUP3 PUSH2 0x1214 JUMP JUMPDEST SWAP1 POP PUSH1 0x20 DUP2 ADD SWAP1 POP SWAP2 SWAP1 POP JUMP JUMPDEST PUSH1 0x0 DUP2 SWAP1 POP PUSH1 0x20 DUP3 ADD SWAP1 POP SWAP2 SWAP1 POP JUMP JUMPDEST PUSH1 0x0 DUP2 MLOAD SWAP1 POP SWAP2 SWAP1 POP JUMP JUMPDEST PUSH1 0x0 DUP2 MLOAD SWAP1 POP SWAP2 SWAP1 POP JUMP JUMPDEST PUSH1 0x0 PUSH1 0x20 DUP3 ADD SWAP1 POP SWAP2 SWAP1 POP JUMP JUMPDEST PUSH1 0x0 DUP3 DUP3 MSTORE PUSH1 0x20 DUP3 ADD SWAP1 POP SWAP3 SWAP2 POP POP JUMP JUMPDEST PUSH1 0x0 DUP3 DUP3 MSTORE PUSH1 0x20 DUP3 ADD SWAP1 POP SWAP3 SWAP2 POP POP JUMP JUMPDEST PUSH1 0x0 DUP3 DUP3 MSTORE PUSH1 0x20 DUP3 ADD SWAP1 POP SWAP3 SWAP2 POP POP JUMP JUMPDEST PUSH1 0x0 PUSH2 0xF6F DUP3 PUSH2 0x100B JUMP JUMPDEST SWAP2 POP PUSH2 0xF7A DUP4 PUSH2 0x100B JUMP JUMPDEST SWAP3 POP DUP3 PUSH32 0xFFFFFFFFFFFFFFFFFFFFFFFFFFFFFFFFFFFFFFFFFFFFFFFFFFFFFFFFFFFFFFFF SUB DUP3 GT ISZERO PUSH2 0xFAF JUMPI PUSH2 0xFAE PUSH2 0x1115 JUMP JUMPDEST JUMPDEST DUP3 DUP3 ADD SWAP1 POP SWAP3 SWAP2 POP POP JUMP JUMPDEST PUSH1 0x0 PUSH2 0xFC5 DUP3 PUSH2 0xFEB JUMP JUMPDEST SWAP1 POP SWAP2 SWAP1 POP JUMP JUMPDEST PUSH1 0x0 DUP2 ISZERO ISZERO SWAP1 POP SWAP2 SWAP1 POP JUMP JUMPDEST PUSH1 0x0 DUP2 SWAP1 POP PUSH2 0xFE6 DUP3 PUSH2 0x124E JUMP JUMPDEST SWAP2 SWAP1 POP JUMP JUMPDEST PUSH1 0x0 PUSH20 0xFFFFFFFFFFFFFFFFFFFFFFFFFFFFFFFFFFFFFFFF DUP3 AND SWAP1 POP SWAP2 SWAP1 POP JUMP JUMPDEST PUSH1 0x0 DUP2 SWAP1 POP SWAP2 SWAP1 POP JUMP JUMPDEST PUSH1 0x0 PUSH2 0x1020 DUP3 PUSH2 0xFD8 JUMP JUMPDEST SWAP1 POP SWAP2 SWAP1 POP JUMP JUMPDEST DUP3 DUP2 DUP4 CALLDATACOPY PUSH1 0x0 DUP4 DUP4 ADD MSTORE POP POP POP JUMP JUMPDEST PUSH1 0x0 JUMPDEST DUP4 DUP2 LT ISZERO PUSH2 0x1054 JUMPI DUP1 DUP3 ADD MLOAD DUP2 DUP5 ADD MSTORE PUSH1 0x20 DUP2 ADD SWAP1 POP PUSH2 0x1039 JUMP JUMPDEST DUP4 DUP2 GT ISZERO PUSH2 0x1063 JUMPI PUSH1 0x0 DUP5 DUP5 ADD MSTORE JUMPDEST POP POP POP POP JUMP JUMPDEST PUSH1 0x0 PUSH1 0x2 DUP3 DIV SWAP1 POP PUSH1 0x1 DUP3 AND DUP1 PUSH2 0x1081 JUMPI PUSH1 0x7F DUP3 AND SWAP2 POP JUMPDEST PUSH1 0x20 DUP3 LT DUP2 EQ ISZERO PUSH2 0x1095 JUMPI PUSH2 0x1094 PUSH2 0x1173 JUMP JUMPDEST JUMPDEST POP SWAP2 SWAP1 POP JUMP JUMPDEST PUSH2 0x10A4 DUP3 PUSH2 0x1214 JUMP JUMPDEST DUP2 ADD DUP2 DUP2 LT PUSH8 0xFFFFFFFFFFFFFFFF DUP3 GT OR ISZERO PUSH2 0x10C3 JUMPI PUSH2 0x10C2 PUSH2 0x11D1 JUMP JUMPDEST JUMPDEST DUP1 PUSH1 0x40 MSTORE POP POP POP JUMP JUMPDEST PUSH1 0x0 PUSH2 0x10D7 DUP3 PUSH2 0x100B JUMP JUMPDEST SWAP2 POP PUSH32 0xFFFFFFFFFFFFFFFFFFFFFFFFFFFFFFFFFFFFFFFFFFFFFFFFFFFFFFFFFFFFFFFF DUP3 EQ ISZERO PUSH2 0x110A JUMPI PUSH2 0x1109 PUSH2 0x1115 JUMP JUMPDEST JUMPDEST PUSH1 0x1 DUP3 ADD SWAP1 POP SWAP2 SWAP1 POP JUMP JUMPDEST PUSH32 0x4E487B7100000000000000000000000000000000000000000000000000000000 PUSH1 0x0 MSTORE PUSH1 0x11 PUSH1 0x4 MSTORE PUSH1 0x24 PUSH1 0x0 REVERT JUMPDEST PUSH32 0x4E487B7100000000000000000000000000000000000000000000000000000000 PUSH1 0x0 MSTORE PUSH1 0x21 PUSH1 0x4 MSTORE PUSH1 0x24 PUSH1 0x0 REVERT JUMPDEST PUSH32 0x4E487B7100000000000000000000000000000000000000000000000000000000 PUSH1 0x0 MSTORE PUSH1 0x22 PUSH1 0x4 MSTORE PUSH1 0x24 PUSH1 0x0 REVERT JUMPDEST PUSH32 0x4E487B7100000000000000000000000000000000000000000000000000000000 PUSH1 0x0 MSTORE PUSH1 0x32 PUSH1 0x4 MSTORE PUSH1 0x24 PUSH1 0x0 REVERT JUMPDEST PUSH32 0x4E487B7100000000000000000000000000000000000000000000000000000000 PUSH1 0x0 MSTORE PUSH1 0x41 PUSH1 0x4 MSTORE PUSH1 0x24 PUSH1 0x0 REVERT JUMPDEST PUSH1 0x0 DUP1 REVERT JUMPDEST PUSH1 0x0 DUP1 REVERT JUMPDEST PUSH1 0x0 DUP1 REVERT JUMPDEST PUSH1 0x0 DUP1 REVERT JUMPDEST PUSH1 0x0 PUSH1 0x1F NOT PUSH1 0x1F DUP4 ADD AND SWAP1 POP SWAP2 SWAP1 POP JUMP JUMPDEST PUSH32 0x41646D696E204F6E6C7900000000000000000000000000000000000000000000 PUSH1 0x0 DUP3 ADD MSTORE POP JUMP JUMPDEST PUSH1 0x2 DUP2 LT PUSH2 0x125F JUMPI PUSH2 0x125E PUSH2 0x1144 JUMP JUMPDEST JUMPDEST POP JUMP JUMPDEST PUSH2 0x126B DUP2 PUSH2 0xFBA JUMP JUMPDEST DUP2 EQ PUSH2 0x1276 JUMPI PUSH1 0x0 DUP1 REVERT JUMPDEST POP JUMP JUMPDEST PUSH2 0x1282 DUP2 PUSH2 0x100B JUMP JUMPDEST DUP2 EQ PUSH2 0x128D JUMPI PUSH1 0x0 DUP1 REVERT JUMPDEST POP JUMP INVALID LOG2 PUSH5 0x6970667358 0x22 SLT KECCAK256 PUSH2 0x5C88 SWAP3 0xDF 0xD DUP13 0xAF PUSH16 0x5DDC8892224A517E3D76D1D9ECA2056C INVALID SWAP8 0xA9 EXTCODECOPY SSTORE PUSH27 0x8D64736F6C63430008070033000000000000000000000000000000 "
				},
				"gasEstimates": {
					"creation": {
						"codeDepositCost": "961200",
						"executionCost": "30273",
						"totalCost": "991473"
					},
					"external": {
						"addBorrower(string,address,string)": "infinite",
						"admin()": "2555",
						"borrowers(address)": "infinite",
						"borrowersAddresses(uint256)": "4978",
						"borrowersCount()": "2495",
						"getAllBorrowers()": "infinite",
						"verifyIsBorrower(address)": "2968"
					}
				},
				"methodIdentifiers": {
					"addBorrower(string,address,string)": "053ff76c",
					"admin()": "f851a440",
					"borrowers(address)": "bf5d50c4",
					"borrowersAddresses(uint256)": "ea99e74d",
					"borrowersCount()": "fa8d30b6",
					"getAllBorrowers()": "32abcdbe",
					"verifyIsBorrower(address)": "e701c350"
				}
			},
			"userdoc": {
				"kind": "user",
				"methods": {},
				"version": 1
			}
		}
	}
}